{
  "_format": "hh3-artifact-1",
  "contractName": "CompetingBidManager",
  "sourceName": "contracts/core/CompetingBidManager.sol",
  "abi": [
    {
      "inputs": [
        {
          "internalType": "address",
          "name": "_dealEscrow",
          "type": "address"
        },
        {
          "internalType": "address",
          "name": "_admin",
          "type": "address"
        }
      ],
      "stateMutability": "nonpayable",
      "type": "constructor"
    },
    {
      "inputs": [],
      "name": "AlreadyMatched",
      "type": "error"
    },
    {
      "inputs": [],
      "name": "BidAlreadyAccepted",
      "type": "error"
    },
    {
      "inputs": [],
      "name": "BidNotAccepted",
      "type": "error"
    },
    {
      "inputs": [],
      "name": "CannotBidOnOwnDeal",
      "type": "error"
    },
    {
      "inputs": [],
      "name": "ClubBNotMatched",
      "type": "error"
    },
    {
      "inputs": [],
      "name": "DealNotFound",
      "type": "error"
    },
    {
      "inputs": [],
      "name": "FeeMustIncrease",
      "type": "error"
    },
    {
      "inputs": [],
      "name": "InvalidAddress",
      "type": "error"
    },
    {
      "inputs": [],
      "name": "InvalidAmount",
      "type": "error"
    },
    {
      "inputs": [],
      "name": "InvalidBps",
      "type": "error"
    },
    {
      "inputs": [],
      "name": "MatchWindowClosed",
      "type": "error"
    },
    {
      "inputs": [],
      "name": "MatchWindowStillOpen",
      "type": "error"
    },
    {
      "inputs": [],
      "name": "NoBidExists",
      "type": "error"
    },
    {
      "inputs": [],
      "name": "NotAdmin",
      "type": "error"
    },
    {
      "inputs": [],
      "name": "NotCompetingClub",
      "type": "error"
    },
    {
      "inputs": [],
      "name": "NotOriginalBuyer",
      "type": "error"
    },
    {
      "inputs": [],
      "name": "NotSellingClub",
      "type": "error"
    },
    {
      "inputs": [],
      "name": "ReentrancyGuardReentrantCall",
      "type": "error"
    },
    {
      "inputs": [
        {
          "internalType": "address",
          "name": "token",
          "type": "address"
        }
      ],
      "name": "SafeERC20FailedOperation",
      "type": "error"
    },
    {
      "inputs": [],
      "name": "WrongDealState",
      "type": "error"
    },
    {
      "anonymous": false,
      "inputs": [
        {
          "indexed": true,
          "internalType": "uint256",
          "name": "dealId",
          "type": "uint256"
        },
        {
          "indexed": true,
          "internalType": "address",
          "name": "thirdParty",
          "type": "address"
        },
        {
          "indexed": true,
          "internalType": "address",
          "name": "clubBCompensated",
          "type": "address"
        }
      ],
      "name": "ActivatedAfterMedicalFailure",
      "type": "event"
    },
    {
      "anonymous": false,
      "inputs": [
        {
          "indexed": true,
          "internalType": "address",
          "name": "newAdmin",
          "type": "address"
        }
      ],
      "name": "AdminChanged",
      "type": "event"
    },
    {
      "anonymous": false,
      "inputs": [
        {
          "indexed": true,
          "internalType": "uint256",
          "name": "dealId",
          "type": "uint256"
        },
        {
          "indexed": true,
          "internalType": "address",
          "name": "clubB",
          "type": "address"
        },
        {
          "indexed": false,
          "internalType": "uint256",
          "name": "counterDeposit",
          "type": "uint256"
        }
      ],
      "name": "ClubBMatched",
      "type": "event"
    },
    {
      "anonymous": false,
      "inputs": [
        {
          "indexed": true,
          "internalType": "uint256",
          "name": "dealId",
          "type": "uint256"
        },
        {
          "indexed": true,
          "internalType": "address",
          "name": "competingClub",
          "type": "address"
        },
        {
          "indexed": false,
          "internalType": "uint256",
          "name": "matchDeadline",
          "type": "uint256"
        }
      ],
      "name": "CompetingBidAccepted",
      "type": "event"
    },
    {
      "anonymous": false,
      "inputs": [
        {
          "indexed": true,
          "internalType": "uint256",
          "name": "dealId",
          "type": "uint256"
        },
        {
          "indexed": true,
          "internalType": "address",
          "name": "competingClub",
          "type": "address"
        }
      ],
      "name": "CompetingBidIgnored",
      "type": "event"
    },
    {
      "anonymous": false,
      "inputs": [
        {
          "indexed": true,
          "internalType": "uint256",
          "name": "dealId",
          "type": "uint256"
        },
        {
          "indexed": true,
          "internalType": "address",
          "name": "competingClub",
          "type": "address"
        },
        {
          "indexed": false,
          "internalType": "uint256",
          "name": "fee",
          "type": "uint256"
        }
      ],
      "name": "CompetingBidSubmitted",
      "type": "event"
    },
    {
      "anonymous": false,
      "inputs": [
        {
          "indexed": true,
          "internalType": "uint256",
          "name": "dealId",
          "type": "uint256"
        },
        {
          "indexed": true,
          "internalType": "address",
          "name": "competingClub",
          "type": "address"
        },
        {
          "indexed": false,
          "internalType": "uint256",
          "name": "newFee",
          "type": "uint256"
        },
        {
          "indexed": false,
          "internalType": "uint256",
          "name": "newDeposit",
          "type": "uint256"
        }
      ],
      "name": "CompetingBidUpped",
      "type": "event"
    },
    {
      "anonymous": false,
      "inputs": [
        {
          "indexed": false,
          "internalType": "string",
          "name": "param",
          "type": "string"
        },
        {
          "indexed": false,
          "internalType": "uint256",
          "name": "value",
          "type": "uint256"
        }
      ],
      "name": "ConfigUpdated",
      "type": "event"
    },
    {
      "anonymous": false,
      "inputs": [
        {
          "indexed": true,
          "internalType": "uint256",
          "name": "dealId",
          "type": "uint256"
        },
        {
          "indexed": true,
          "internalType": "address",
          "name": "buyer",
          "type": "address"
        },
        {
          "indexed": false,
          "internalType": "uint256",
          "name": "clubCRefunded",
          "type": "uint256"
        }
      ],
      "name": "OriginalConfirmed",
      "type": "event"
    },
    {
      "anonymous": false,
      "inputs": [
        {
          "indexed": true,
          "internalType": "uint256",
          "name": "dealId",
          "type": "uint256"
        },
        {
          "indexed": true,
          "internalType": "address",
          "name": "newBuyer",
          "type": "address"
        },
        {
          "indexed": true,
          "internalType": "address",
          "name": "clubBCompensated",
          "type": "address"
        },
        {
          "indexed": false,
          "internalType": "uint256",
          "name": "compensation",
          "type": "uint256"
        }
      ],
      "name": "SwitchConfirmed",
      "type": "event"
    },
    {
      "inputs": [
        {
          "internalType": "uint256",
          "name": "dealId",
          "type": "uint256"
        }
      ],
      "name": "acceptCompetingBid",
      "outputs": [],
      "stateMutability": "nonpayable",
      "type": "function"
    },
    {
      "inputs": [
        {
          "internalType": "uint256",
          "name": "dealId",
          "type": "uint256"
        }
      ],
      "name": "activateAfterFailedMedical",
      "outputs": [],
      "stateMutability": "nonpayable",
      "type": "function"
    },
    {
      "inputs": [],
      "name": "admin",
      "outputs": [
        {
          "internalType": "address",
          "name": "",
          "type": "address"
        }
      ],
      "stateMutability": "view",
      "type": "function"
    },
    {
      "inputs": [],
      "name": "competingDepositBps",
      "outputs": [
        {
          "internalType": "uint256",
          "name": "",
          "type": "uint256"
        }
      ],
      "stateMutability": "view",
      "type": "function"
    },
    {
      "inputs": [
        {
          "internalType": "uint256",
          "name": "dealId",
          "type": "uint256"
        }
      ],
      "name": "confirmOriginal",
      "outputs": [],
      "stateMutability": "nonpayable",
      "type": "function"
    },
    {
      "inputs": [
        {
          "internalType": "uint256",
          "name": "dealId",
          "type": "uint256"
        }
      ],
      "name": "confirmSwitch",
      "outputs": [],
      "stateMutability": "nonpayable",
      "type": "function"
    },
    {
      "inputs": [],
      "name": "counterDepositBps",
      "outputs": [
        {
          "internalType": "uint256",
          "name": "",
          "type": "uint256"
        }
      ],
      "stateMutability": "view",
      "type": "function"
    },
    {
      "inputs": [],
      "name": "dealEscrow",
      "outputs": [
        {
          "internalType": "contract IDealEscrow",
          "name": "",
          "type": "address"
        }
      ],
      "stateMutability": "view",
      "type": "function"
    },
    {
      "inputs": [
        {
          "internalType": "uint256",
          "name": "dealId",
          "type": "uint256"
        }
      ],
      "name": "getCompetingBid",
      "outputs": [
        {
          "components": [
            {
              "internalType": "address",
              "name": "competingClub",
              "type": "address"
            },
            {
              "internalType": "uint256",
              "name": "proposedFee",
              "type": "uint256"
            },
            {
              "internalType": "uint256",
              "name": "deposit",
              "type": "uint256"
            },
            {
              "internalType": "uint256",
              "name": "buyerAgentBps",
              "type": "uint256"
            },
            {
              "internalType": "address",
              "name": "buyerAgent",
              "type": "address"
            },
            {
              "internalType": "uint256",
              "name": "signingBonusMonths",
              "type": "uint256"
            },
            {
              "internalType": "uint256",
              "name": "acceptedAt",
              "type": "uint256"
            },
            {
              "internalType": "uint256",
              "name": "matchDeadline",
              "type": "uint256"
            },
            {
              "internalType": "bool",
              "name": "clubBMatched",
              "type": "bool"
            },
            {
              "internalType": "uint256",
              "name": "clubBDeposit",
              "type": "uint256"
            },
            {
              "internalType": "address",
              "name": "clubBAddress",
              "type": "address"
            },
            {
              "internalType": "address",
              "name": "paymentToken",
              "type": "address"
            }
          ],
          "internalType": "struct CompetingBidManager.CompetingBid",
          "name": "",
          "type": "tuple"
        }
      ],
      "stateMutability": "view",
      "type": "function"
    },
    {
      "inputs": [
        {
          "internalType": "uint256",
          "name": "dealId",
          "type": "uint256"
        }
      ],
      "name": "hasActiveBid",
      "outputs": [
        {
          "internalType": "bool",
          "name": "",
          "type": "bool"
        }
      ],
      "stateMutability": "view",
      "type": "function"
    },
    {
      "inputs": [
        {
          "internalType": "uint256",
          "name": "dealId",
          "type": "uint256"
        }
      ],
      "name": "ignoreCompetingBid",
      "outputs": [],
      "stateMutability": "nonpayable",
      "type": "function"
    },
    {
      "inputs": [
        {
          "internalType": "uint256",
          "name": "dealId",
          "type": "uint256"
        }
      ],
      "name": "isMatchingWindowOpen",
      "outputs": [
        {
          "internalType": "bool",
          "name": "",
          "type": "bool"
        }
      ],
      "stateMutability": "view",
      "type": "function"
    },
    {
      "inputs": [
        {
          "internalType": "uint256",
          "name": "dealId",
          "type": "uint256"
        }
      ],
      "name": "matchCompetingBid",
      "outputs": [],
      "stateMutability": "nonpayable",
      "type": "function"
    },
    {
      "inputs": [],
      "name": "matchingWindow",
      "outputs": [
        {
          "internalType": "uint256",
          "name": "",
          "type": "uint256"
        }
      ],
      "stateMutability": "view",
      "type": "function"
    },
    {
      "inputs": [
        {
          "internalType": "uint256",
          "name": "dealId",
          "type": "uint256"
        }
      ],
      "name": "processMatchingExpiry",
      "outputs": [],
      "stateMutability": "nonpayable",
      "type": "function"
    },
    {
      "inputs": [
        {
          "internalType": "address",
          "name": "newAdmin",
          "type": "address"
        }
      ],
      "name": "setAdmin",
      "outputs": [],
      "stateMutability": "nonpayable",
      "type": "function"
    },
    {
      "inputs": [
        {
          "internalType": "uint256",
          "name": "bps",
          "type": "uint256"
        }
      ],
      "name": "setCompetingDepositBps",
      "outputs": [],
      "stateMutability": "nonpayable",
      "type": "function"
    },
    {
      "inputs": [
        {
          "internalType": "uint256",
          "name": "bps",
          "type": "uint256"
        }
      ],
      "name": "setCounterDepositBps",
      "outputs": [],
      "stateMutability": "nonpayable",
      "type": "function"
    },
    {
      "inputs": [
        {
          "internalType": "uint256",
          "name": "secs",
          "type": "uint256"
        }
      ],
      "name": "setMatchingWindow",
      "outputs": [],
      "stateMutability": "nonpayable",
      "type": "function"
    },
    {
      "inputs": [
        {
          "internalType": "uint256",
          "name": "secs",
          "type": "uint256"
        }
      ],
      "name": "setThirdPartyFundingWindow",
      "outputs": [],
      "stateMutability": "nonpayable",
      "type": "function"
    },
    {
      "inputs": [
        {
          "internalType": "uint256",
          "name": "dealId",
          "type": "uint256"
        },
        {
          "internalType": "uint256",
          "name": "fee",
          "type": "uint256"
        },
        {
          "internalType": "uint256",
          "name": "buyerAgentBps",
          "type": "uint256"
        },
        {
          "internalType": "address",
          "name": "buyerAgent",
          "type": "address"
        },
        {
          "internalType": "uint256",
          "name": "signingBonusMonths",
          "type": "uint256"
        }
      ],
      "name": "submitCompetingBid",
      "outputs": [],
      "stateMutability": "nonpayable",
      "type": "function"
    },
    {
      "inputs": [],
      "name": "thirdPartyFundingWindow",
      "outputs": [
        {
          "internalType": "uint256",
          "name": "",
          "type": "uint256"
        }
      ],
      "stateMutability": "view",
      "type": "function"
    },
    {
      "inputs": [
        {
          "internalType": "uint256",
          "name": "dealId",
          "type": "uint256"
        },
        {
          "internalType": "uint256",
          "name": "newFee",
          "type": "uint256"
        }
      ],
      "name": "upCompetingBid",
      "outputs": [],
      "stateMutability": "nonpayable",
      "type": "function"
    }
  ],
  "bytecode": "0x60a03461012a57601f6122a538819003918201601f19168301916001600160401b0383118484101761012e57808492604094855283398101031261012a57610052602061004b83610142565b9201610142565b60017f9b779b17422d0df92223018b32b4d1fa46e071723d6817e2486d003becc55f00556001600160a01b0390911690811561011b576001600160a01b031690811561011b5760805260018060a01b031960045416176004556103e85f556103e8600155620151806002556203f48060035560405161214e908161015782396080518181816102070152818161065a015281816109bd01528181610ba701528181610c0901528181610e3e0152818161128d0152818161161d015281816118930152611b720152f35b63e6c4247b60e01b5f5260045ffd5b5f80fd5b634e487b7160e01b5f52604160045260245ffd5b51906001600160a01b038216820361012a5756fe6080806040526004361015610012575f80fd5b5f905f3560e01c9081632e80345214611e27575080633026178614611e0b5780633430195214611b3f57806335173fe9146118605780633db78e0b146117d957806366ff2ace146115e95780636dde404a1461159a5780636f6d917e1461151f578063704b6c02146114875780637d583664146114695780637dc78a7f146112575780639dcb5bbd14610deb578063a396bed114610da2578063b46341e314610bd6578063b76d664714610b91578063b7c3986914610b73578063c3f742321461098a578063cacddbef14610627578063dc5992fb14610483578063ecd9ae83146103ec578063f52537fa146101d6578063f66b6767146101465763f851a4401461011b575f80fd5b346101435780600319360112610143576004546040516001600160a01b039091168152602090f35b80fd5b503461014357602036600319011261014357600480549035906001600160a01b031633036101c75780156101b8576080815f5160206120d95f395f51905f52926002556040519060408252600e60408301526d6d61746368696e6757696e646f7760901b60608301526020820152a180f35b63162908e360e11b8252600482fd5b637bfa4b9f60e01b8252600482fd5b503461014357602036600319011261014357604051634f0df86560e01b81526004803590820181905260e0826024817f00000000000000000000000000000000000000000000000000000000000000006001600160a01b03165afa9182156103e15783926103b0575b508151156103a15760a082018051600f81101561038d5760ff16600614159081610360575b506103515760208201516001600160a01b031633036103425780835260056020526040832080546001600160a01b03161561033357600681018054610324574290556002544201928342116103105760078201849055604090810151600a830180546001600160a01b0319166001600160a01b039283161790559154905193845216917f37e1193c8083bcbc98b4c81493556ee0f2658961299c9531d5a8e1cbc238802f90602090a380f35b634e487b7160e01b85526011600452602485fd5b632d7854cb60e21b8552600485fd5b6388f7d6dd60e01b8452600484fd5b6303e2f0f360e51b8352600483fd5b6372c24c3560e01b8352600483fd5b905051600f8110156103795760ff16600a14155f610264565b634e487b7160e01b84526021600452602484fd5b634e487b7160e01b85526021600452602485fd5b63223da47360e21b8352600483fd5b6103d391925060e03d60e0116103da575b6103cb8183611e71565b810190611eb5565b905f61023f565b503d6103c1565b6040513d85823e3d90fd5b503461014357602036600319011261014357600480549035906001600160a01b031633036101c75780158015610478575b610469576080815f5160206120d95f395f51905f5292845560405190604082526013604083015272636f6d706574696e674465706f73697442707360681b60608301526020820152a180f35b63c6cc5d7f60e01b8252600482fd5b50610bb8811161041d565b5034610143576020366003190112610143576040816101809261016083516104aa81611e41565b82815282602082015282858201528260608201528260808201528260a08201528260c08201528260e08201528261010082015282610120820152826101408201520152600435815260056020522060405161050481611e41565b60018060a01b038254169182825260018101546020830190815260028201546040840190815260038301546060850190815260018060a01b0360048501541660808601908152600585015460a0870190815260068601549160c0880192835260078701549360e0890194855260ff600889015416956101008a0196151587526009890154976101208b0198895261016060018060a01b03600a8c0154169a6101408d019b8c52600b60018060a01b03910154169b019a8b526040519b8c525160208c01525160408b01525160608a015260018060a01b0390511660808901525160a08801525160c08701525160e08601525115156101008501525161012084015260018060a01b0390511661014083015260018060a01b03905116610160820152f35b50346101435760203660031901126101435760043561064461200e565b604051634f0df86560e01b8152600481018290527f00000000000000000000000000000000000000000000000000000000000000006001600160a01b03169060e081602481855afa90811561097f578491610960575b508051156109515760a081018051600f81101561093d5760ff16600614159081610924575b5061091557602001516001600160a01b03163303610342578183526005602052604083209160018060a01b03835416918215610906576006840154156108f75760078401544210806108e8575b6108d9578460018060a01b03600a860154169460028101549260098201549060018301549060038401549360018060a01b0360048201541693600582015491600b60018060a01b0391015416898852600560205261076c60408920611f46565b833b156108b5578888828e61079560405194859384936366bd556f60e11b855260048501611f8d565b038183895af19081156108ce5789916108b9575b505081610858575b5050813b156108545785886107e08b938397604051998a98899788966372db9e5360e01b885260048801611faf565b03925af1801561084957610830575b505060207fc04b97e3ac29a0e6cfa19ae60bd0d52875be78d6b69d77dac9779afb8f9388ac91604051908152a460015f5160206120f95f395f51905f525580f35b8161083a91611e71565b61084557845f6107ef565b8480fd5b6040513d84823e3d90fd5b8580fd5b833b156108b55787908c61088060405194859384936366bd556f60e11b855260048501611f8d565b038183875af19081156108aa578791156107b1575b8161089f91611e71565b61085457855f6107b1565b6040513d89823e3d90fd5b8780fd5b816108c391611e71565b6108b557875f6107a9565b6040513d8b823e3d90fd5b63f18279bb60e01b8552600485fd5b5060ff6008850154161561070c565b6305b775a960e51b8552600485fd5b6388f7d6dd60e01b8552600485fd5b6372c24c3560e01b8452600484fd5b905051600f81101561038d5760ff16600a14155f6106bf565b634e487b7160e01b86526021600452602486fd5b63223da47360e21b8452600484fd5b610979915060e03d60e0116103da576103cb8183611e71565b5f61069a565b6040513d86823e3d90fd5b5034610143576020366003190112610143576004356109a761200e565b604051634f0df86560e01b8152600481018290527f00000000000000000000000000000000000000000000000000000000000000006001600160a01b0316919060e081602481865afa90811561097f578491610b54575b508051156109515760a0018051600f81101561038d5760ff16600614159081610b3b575b506103515780835260056020526040832080546001600160a01b031691908215610906576006810154156108f75760ff600882015416610b2c5760078101544211156108d9578460018060a01b03600a8301541694600283015492600181015460038201549260018060a01b0360048401541692600581015490600b60018060a01b03910154168887526005602052610abd60408820611f46565b823b15610b28578688918c610ae660405194859384936366bd556f60e11b855260048501611f8d565b038183875af19081156108aa578791610895575050813b156108545785886107e08b938397604051998a98899788966372db9e5360e01b885260048801611faf565b8680fd5b63e4b2139b60e01b8552600485fd5b905051600f8110156103795760ff16600a14155f610a22565b610b6d915060e03d60e0116103da576103cb8183611e71565b5f6109fe565b50346101435780600319360112610143576020600154604051908152f35b50346101435780600319360112610143576040517f00000000000000000000000000000000000000000000000000000000000000006001600160a01b03168152602090f35b503461014357602036600319011261014357600435610bf361200e565b604051634f0df86560e01b8152600481018290527f00000000000000000000000000000000000000000000000000000000000000006001600160a01b0316919060e081602481865afa90811561097f578491610d83575b508051156109515760a081018051600f81101561093d5760ff16600614159081610d6a575b5061091557602001516001600160a01b031633036103425780835260056020526040832080546001600160a01b03169290831561090657600681015461032457908160028693015490600b60018060a01b0391015416908484526005602052610cda60408520611f46565b823b15610d6657610d05928492836040518096819582946366bd556f60e11b84528c60048501611f8d565b03925af1801561084957610d4d575b50807fe77e3059ab3bf4a7ddee9a1825c72424e2cfa8218ed2081a800aa6c87f6eb35291a360015f5160206120f95f395f51905f525580f35b81610d5791611e71565b610d6257825f610d14565b8280fd5b8380fd5b905051600f81101561038d5760ff16600a14155f610c6f565b610d9c915060e03d60e0116103da576103cb8183611e71565b5f610c4a565b503461014357602036600319011261014357604060209160043581526005835220600681015415159081610ddc575b506040519015158152f35b6007915001544211155f610dd1565b50346101435760a0366003190112610143576064356001600160a01b0381169190602435906004359060443590859003610d6657610e2761200e565b604051634f0df86560e01b815260048101839052947f00000000000000000000000000000000000000000000000000000000000000006001600160a01b03169060e087602481855afa96871561124c57869761122b575b5086511561121c5760a087018051600f8110156112085760ff166006141590816111db575b506111cc5760208701516001600160a01b031633146111bd5760408701516001600160a01b031633146111bd5784156111ae5761012c831161119f5782151580611197575b6111885783865260056020526040862080546001600160a01b031690811515808061117b575b61116c578061115f575b6110f3575b5050612710610f2d875487611fe7565b049283156110e457600b60606110a4969798990192898060018060a01b03865116928a8c604051978893610f6085611e41565b3385526020850192835260408501918d8352606086019081526080860191825260a0860192608435845260c087019488865260408960e08a0198818a526101606101008c019b838d5261012081019d8e5261014081019e8f52019d8e5281526005602052209c60018060a01b039060018060a01b03905116168d60018060a01b0319905416178d555160018d01555160028c01555160038b015560018060a01b0390511660048a019060018060a01b031660018060a01b0319825416179055516005890155516006880155516007870155600886019051151560ff8019835416911617905551600985015560018060a01b03905116600a84019060018060a01b031660018060a01b031982541617905560018060a01b0390511691019060018060a01b031660018060a01b0319825416179055339060018060a01b03905116612046565b6040519182527f9fd44cfe0db20e1b83d88a7ffd536ddfcaf07750b3c249ecbb57dd8e0ef551eb60203393a360015f5160206120f95f395f51905f525580f35b63162908e360e11b8752600487fd5b600260018060a01b03600b830154169101918883549355843b1561115b5790889161113260405194859384936366bd556f60e11b855260048501611f8d565b038183875af180156108aa5790879115610f1d578161115091611e71565b61085457855f610f1d565b8880fd5b5060028101541515610f18565b632d7854cb60e21b8952600489fd5b5060068201541515610f0e565b63e6c4247b60e01b8652600486fd5b508015610ee8565b63c6cc5d7f60e01b8652600486fd5b63162908e360e11b8652600486fd5b633f45e98560e11b8652600486fd5b6372c24c3560e01b8652600486fd5b905051600f8110156111f45760ff16600a14155f610ea3565b634e487b7160e01b87526021600452602487fd5b634e487b7160e01b88526021600452602488fd5b63223da47360e21b8652600486fd5b61124591975060e03d60e0116103da576103cb8183611e71565b955f610e7e565b6040513d88823e3d90fd5b50346101435760403660031901126101435760243560043561127761200e565b604051634f0df86560e01b8152600481018290527f00000000000000000000000000000000000000000000000000000000000000006001600160a01b03169060e081602481855afa90811561145e57859161143f575b508051156114305760a081018051600f8110156111f45760ff16600614159081611417575b506114085782855260056020526040852080549092906001600160a01b031680156113f95733036113ea5760068301546113db57600183019182548611156113cc576002612710611344895489611fe7565b04940180548503938585116113b8578790558490556060015161137392919033906001600160a01b0316612046565b60405192835260208301527f7b2daf503e937c88f5cf44ee51c71f9d914a01616fbfe6f7d7018c608ba4356e60403393a360015f5160206120f95f395f51905f525580f35b634e487b7160e01b89526011600452602489fd5b630e56490760e31b8752600487fd5b632d7854cb60e21b8652600486fd5b63ef55858560e01b8652600486fd5b6388f7d6dd60e01b8752600487fd5b6372c24c3560e01b8552600485fd5b905051600f81101561093d5760ff16600a14155f6112f2565b63223da47360e21b8552600485fd5b611458915060e03d60e0116103da576103cb8183611e71565b5f6112cd565b6040513d87823e3d90fd5b50346101435780600319360112610143576020600354604051908152f35b5034610143576020366003190112610143576004356001600160a01b0381169081900361151b576004546001600160a01b038116330361150c5781156114fd576001600160a01b03191681176004557f7ce7ec0b50378fb6c0186ffb5f48325f6593fcb4ca4386f21861af3129188f5c8280a280f35b63e6c4247b60e01b8352600483fd5b637bfa4b9f60e01b8352600483fd5b5080fd5b503461014357602036600319011261014357600480549035906001600160a01b031633036101c75780156101b8576080815f5160206120d95f395f51905f5292600355604051906040825260176040830152767468697264506172747946756e64696e6757696e646f7760481b60608301526020820152a180f35b503461014357602036600319011261014357600435815260056020908152604090912080546001600160a01b0316151590816115db57506040519015158152f35b60069150015415155f610dd1565b50346101435760203660031901126101435760043561160661200e565b604051634f0df86560e01b815260048101829052907f00000000000000000000000000000000000000000000000000000000000000006001600160a01b031660e083602481845afa92831561097f5784936117b8575b508251156109515760a083018051600f81101561093d5760ff1660061415908161179f575b506109155781845260056020526040842080549093906001600160a01b031615610906576006840154156108f7576007840154421161179057600884019384549460ff861661178157600a8201546001600160a01b03163303611772576127106116f2608085015160015490611fe7565b049586156117635760ff191660011790556009018490556060015161172391849133906001600160a01b0316612046565b6040519182527f63fe81e07943fe2d20a44b32b2851f9b5c8020bd15e81dcd27cc06f815f8972d60203393a360015f5160206120f95f395f51905f525580f35b63162908e360e11b8852600488fd5b630b61493160e41b8752600487fd5b63e4b2139b60e01b8752600487fd5b633c8f252160e01b8552600485fd5b905051600f81101561038d5760ff16600a14155f611681565b6117d291935060e03d60e0116103da576103cb8183611e71565b915f61165c565b503461014357602036600319011261014357600480549035906001600160a01b031633036101c75780158015611855575b610469576080815f5160206120d95f395f51905f529260015560405190604082526011604083015270636f756e7465724465706f73697442707360781b60608301526020820152a180f35b50610bb8811161180a565b50346101435760203660031901126101435760043561187d61200e565b604051630f8f795960e01b8152600481018290527f00000000000000000000000000000000000000000000000000000000000000006001600160a01b0316919060c081602481865afa90811561097f578485918693611ad5575b5015611430576109155760ff16600e8114159081611ac9575b81611abd575b506103515780835260056020526040832080546001600160a01b031691908215610906576006810154156108f7576007810154421080611aae575b6108d9578490604051634f0df86560e01b815283600482015260e081602481895afa80156103e157611a91575b5060018060a01b03600a820154169460028201549060018301549060038401549360018060a01b0360048201541693600582015491600b60018060a01b039101541688885260056020526119b460408920611f46565b833b156108b55787908b6119dc60405194859384936366bd556f60e11b855260048501611f8d565b038183875af19081156108aa578791611a7c575b5050813b15610854578587611a1f8a938397604051998a98899788966372db9e5360e01b885260048801611faf565b03925af1801561084957611a67575b50807f063b160080a383605356bb5b49de416663ed8ec83eaa30e1dfb0c77dbe72e43891a460015f5160206120f95f395f51905f525580f35b81611a7191611e71565b610d6657835f611a2e565b81611a8691611e71565b61085457855f6119f0565b611aa99060e03d60e0116103da576103cb8183611e71565b61195e565b5060ff60088201541615611931565b600a915014155f6118f6565b600681141591506118f0565b9250505060c0813d60c011611b37575b81611af260c09383611e71565b81010312610d6657611b0381611e94565b90611b1060208201611e94565b9160408201519160ff83168303610b285760a0611b2d9101611ea1565b509190915f6118d7565b3d9150611ae5565b5034611d61576020366003190112611d6157600435611b5c61200e565b604051634f0df86560e01b8152600481018290527f00000000000000000000000000000000000000000000000000000000000000006001600160a01b0316919060e081602481865afa908115611d56575f91611dec575b50805115611ddd5760a081018051600f811015611dc95760ff16600614159081611db0575b50611da15760208101516001600160a01b03163303611d92575f82815260056020526040902080546001600160a01b031693908415611d8357600681015415611d745760ff60088201541615611d6557600281015494600982015491600b60018060a01b039101541690855f526005602052611c5660405f20611f46565b833b15611d61576040516366bd556f60e11b8152915f9183918291611c80918b9160048501611f8d565b038183875af18015611d5657611d3f575b5090818692611ced575b50505060409081015190519283526001600160a01b0316917f93decab3ac375b4826b8e98b479100edede791ccfd0e0395fe07d1498e1ba7d190602090a360015f5160206120f95f395f51905f525580f35b813b15610d62578291604483926040519485938492630f384a4960e41b84528a600485015260248401525af1801561084957611d2a575b80611c9b565b81611d3491611e71565b610d6657835f611d24565b611d4d919296505f90611e71565b5f94905f611c91565b6040513d5f823e3d90fd5b5f80fd5b631f6136f760e11b5f5260045ffd5b6305b775a960e51b5f5260045ffd5b6388f7d6dd60e01b5f5260045ffd5b6303e2f0f360e51b5f5260045ffd5b6372c24c3560e01b5f5260045ffd5b905051600f811015611dc95760ff16600a14155f611bd8565b634e487b7160e01b5f52602160045260245ffd5b63223da47360e21b5f5260045ffd5b611e05915060e03d60e0116103da576103cb8183611e71565b5f611bb3565b34611d61575f366003190112611d615760205f54604051908152f35b34611d61575f366003190112611d61576020906002548152f35b61018081019081106001600160401b03821117611e5d57604052565b634e487b7160e01b5f52604160045260245ffd5b601f909101601f19168101906001600160401b03821190821017611e5d57604052565b51908115158203611d6157565b51906001600160a01b0382168203611d6157565b908160e0910312611d61576040519060e082016001600160401b03811183821017611e5d57604052611ee681611e94565b8252611ef460208201611ea1565b6020830152611f0560408201611ea1565b6040830152611f1660608201611ea1565b60608301526080810151608083015260a081015190600f821015611d615760c09160a0840152015160c082015290565b600b5f9182815582600182015582600282015582600382015582600482015582600582015582600682015582600782015582600882015582600982015582600a8201550155565b6001600160a01b03918216815291166020820152604081019190915260600190565b9081526001600160a01b039182166020820152604081019290925260608201929092529116608082015260a081019190915260c00190565b81810292918115918404141715611ffa57565b634e487b7160e01b5f52601160045260245ffd5b60025f5160206120f95f395f51905f5254146120375760025f5160206120f95f395f51905f5255565b633ee5aeb560e01b5f5260045ffd5b6040516323b872dd60e01b5f9081526001600160a01b039384166004529290931660245260449390935260209060648180865af19060015f51148216156120b7575b6040525f606052156120975750565b635274afe760e01b5f9081526001600160a01b0391909116600452602490fd5b9060018115166120cf57823b15153d15161690612088565b503d5f823e3d90fdfe12c9dccd129ff783f1c8228eacdfa8e334ddecb7ec5c9a79ec662a4aed3d012a9b779b17422d0df92223018b32b4d1fa46e071723d6817e2486d003becc55f00a26469706673582212205a9332bea7d3722950e3019b570f58a17bd2fe86e2f7c37f226e210c3c12535564736f6c634300081c0033",
  "linkReferences": {},
  "deployedLinkReferences": {},
  "immutableReferences": {
    "11622": [
      {
        "length": 32,
        "start": 519
      },
      {
        "length": 32,
        "start": 1626
      },
      {
        "length": 32,
        "start": 2493
      },
      {
        "length": 32,
        "start": 2983
      },
      {
        "length": 32,
        "start": 3081
      },
      {
        "length": 32,
        "start": 3646
      },
      {
        "length": 32,
        "start": 4749
      },
      {
        "length": 32,
        "start": 5661
      },
      {
        "length": 32,
        "start": 6291
      },
      {
        "length": 32,
        "start": 7026
      }
    ]
  },
  "inputSourceName": "project/contracts/core/CompetingBidManager.sol",
  "buildInfoId": "solc-0_8_28-a2161904c655adbe3da4b278a6e48e5154ece2fa"
}