{
  "_format": "hh3-artifact-1",
  "contractName": "CompetingBidManager",
  "sourceName": "contracts/core/CompetingBidManager.sol",
  "abi": [
    {
      "inputs": [
        {
          "internalType": "address",
          "name": "_dealEscrow",
          "type": "address"
        },
        {
          "internalType": "address",
          "name": "_admin",
          "type": "address"
        }
      ],
      "stateMutability": "nonpayable",
      "type": "constructor"
    },
    {
      "inputs": [],
      "name": "AlreadyMatched",
      "type": "error"
    },
    {
      "inputs": [],
      "name": "BidAlreadyAccepted",
      "type": "error"
    },
    {
      "inputs": [],
      "name": "BidNotAccepted",
      "type": "error"
    },
    {
      "inputs": [],
      "name": "CannotBidOnOwnDeal",
      "type": "error"
    },
    {
      "inputs": [],
      "name": "ClubBNotMatched",
      "type": "error"
    },
    {
      "inputs": [],
      "name": "DealNotFound",
      "type": "error"
    },
    {
      "inputs": [],
      "name": "FeeMustIncrease",
      "type": "error"
    },
    {
      "inputs": [],
      "name": "InvalidAddress",
      "type": "error"
    },
    {
      "inputs": [],
      "name": "InvalidAmount",
      "type": "error"
    },
    {
      "inputs": [],
      "name": "InvalidBps",
      "type": "error"
    },
    {
      "inputs": [],
      "name": "MatchWindowClosed",
      "type": "error"
    },
    {
      "inputs": [],
      "name": "MatchWindowStillOpen",
      "type": "error"
    },
    {
      "inputs": [],
      "name": "NoBidExists",
      "type": "error"
    },
    {
      "inputs": [],
      "name": "NotAdmin",
      "type": "error"
    },
    {
      "inputs": [],
      "name": "NotCompetingClub",
      "type": "error"
    },
    {
      "inputs": [],
      "name": "NotOriginalBuyer",
      "type": "error"
    },
    {
      "inputs": [],
      "name": "NotSellingClub",
      "type": "error"
    },
    {
      "inputs": [],
      "name": "ReentrancyGuardReentrantCall",
      "type": "error"
    },
    {
      "inputs": [
        {
          "internalType": "address",
          "name": "token",
          "type": "address"
        }
      ],
      "name": "SafeERC20FailedOperation",
      "type": "error"
    },
    {
      "inputs": [],
      "name": "WrongDealState",
      "type": "error"
    },
    {
      "anonymous": false,
      "inputs": [
        {
          "indexed": true,
          "internalType": "uint256",
          "name": "dealId",
          "type": "uint256"
        },
        {
          "indexed": true,
          "internalType": "address",
          "name": "thirdParty",
          "type": "address"
        },
        {
          "indexed": true,
          "internalType": "address",
          "name": "clubBCompensated",
          "type": "address"
        }
      ],
      "name": "ActivatedAfterMedicalFailure",
      "type": "event"
    },
    {
      "anonymous": false,
      "inputs": [
        {
          "indexed": true,
          "internalType": "address",
          "name": "newAdmin",
          "type": "address"
        }
      ],
      "name": "AdminChanged",
      "type": "event"
    },
    {
      "anonymous": false,
      "inputs": [
        {
          "indexed": true,
          "internalType": "uint256",
          "name": "dealId",
          "type": "uint256"
        },
        {
          "indexed": true,
          "internalType": "address",
          "name": "clubB",
          "type": "address"
        },
        {
          "indexed": false,
          "internalType": "uint256",
          "name": "counterDeposit",
          "type": "uint256"
        }
      ],
      "name": "ClubBMatched",
      "type": "event"
    },
    {
      "anonymous": false,
      "inputs": [
        {
          "indexed": true,
          "internalType": "uint256",
          "name": "dealId",
          "type": "uint256"
        },
        {
          "indexed": true,
          "internalType": "address",
          "name": "competingClub",
          "type": "address"
        },
        {
          "indexed": false,
          "internalType": "uint256",
          "name": "matchDeadline",
          "type": "uint256"
        }
      ],
      "name": "CompetingBidAccepted",
      "type": "event"
    },
    {
      "anonymous": false,
      "inputs": [
        {
          "indexed": true,
          "internalType": "uint256",
          "name": "dealId",
          "type": "uint256"
        },
        {
          "indexed": true,
          "internalType": "address",
          "name": "competingClub",
          "type": "address"
        }
      ],
      "name": "CompetingBidIgnored",
      "type": "event"
    },
    {
      "anonymous": false,
      "inputs": [
        {
          "indexed": true,
          "internalType": "uint256",
          "name": "dealId",
          "type": "uint256"
        },
        {
          "indexed": true,
          "internalType": "address",
          "name": "competingClub",
          "type": "address"
        },
        {
          "indexed": false,
          "internalType": "uint256",
          "name": "fee",
          "type": "uint256"
        }
      ],
      "name": "CompetingBidSubmitted",
      "type": "event"
    },
    {
      "anonymous": false,
      "inputs": [
        {
          "indexed": true,
          "internalType": "uint256",
          "name": "dealId",
          "type": "uint256"
        },
        {
          "indexed": true,
          "internalType": "address",
          "name": "competingClub",
          "type": "address"
        },
        {
          "indexed": false,
          "internalType": "uint256",
          "name": "newFee",
          "type": "uint256"
        },
        {
          "indexed": false,
          "internalType": "uint256",
          "name": "newDeposit",
          "type": "uint256"
        }
      ],
      "name": "CompetingBidUpped",
      "type": "event"
    },
    {
      "anonymous": false,
      "inputs": [
        {
          "indexed": false,
          "internalType": "string",
          "name": "param",
          "type": "string"
        },
        {
          "indexed": false,
          "internalType": "uint256",
          "name": "value",
          "type": "uint256"
        }
      ],
      "name": "ConfigUpdated",
      "type": "event"
    },
    {
      "anonymous": false,
      "inputs": [
        {
          "indexed": true,
          "internalType": "uint256",
          "name": "dealId",
          "type": "uint256"
        },
        {
          "indexed": true,
          "internalType": "address",
          "name": "buyer",
          "type": "address"
        },
        {
          "indexed": false,
          "internalType": "uint256",
          "name": "clubCRefunded",
          "type": "uint256"
        }
      ],
      "name": "OriginalConfirmed",
      "type": "event"
    },
    {
      "anonymous": false,
      "inputs": [
        {
          "indexed": true,
          "internalType": "uint256",
          "name": "dealId",
          "type": "uint256"
        },
        {
          "indexed": true,
          "internalType": "address",
          "name": "newBuyer",
          "type": "address"
        },
        {
          "indexed": true,
          "internalType": "address",
          "name": "clubBCompensated",
          "type": "address"
        },
        {
          "indexed": false,
          "internalType": "uint256",
          "name": "compensation",
          "type": "uint256"
        }
      ],
      "name": "SwitchConfirmed",
      "type": "event"
    },
    {
      "inputs": [
        {
          "internalType": "uint256",
          "name": "dealId",
          "type": "uint256"
        }
      ],
      "name": "acceptCompetingBid",
      "outputs": [],
      "stateMutability": "nonpayable",
      "type": "function"
    },
    {
      "inputs": [
        {
          "internalType": "uint256",
          "name": "dealId",
          "type": "uint256"
        }
      ],
      "name": "activateAfterFailedMedical",
      "outputs": [],
      "stateMutability": "nonpayable",
      "type": "function"
    },
    {
      "inputs": [],
      "name": "admin",
      "outputs": [
        {
          "internalType": "address",
          "name": "",
          "type": "address"
        }
      ],
      "stateMutability": "view",
      "type": "function"
    },
    {
      "inputs": [],
      "name": "competingDepositBps",
      "outputs": [
        {
          "internalType": "uint256",
          "name": "",
          "type": "uint256"
        }
      ],
      "stateMutability": "view",
      "type": "function"
    },
    {
      "inputs": [
        {
          "internalType": "uint256",
          "name": "dealId",
          "type": "uint256"
        }
      ],
      "name": "confirmOriginal",
      "outputs": [],
      "stateMutability": "nonpayable",
      "type": "function"
    },
    {
      "inputs": [
        {
          "internalType": "uint256",
          "name": "dealId",
          "type": "uint256"
        }
      ],
      "name": "confirmSwitch",
      "outputs": [],
      "stateMutability": "nonpayable",
      "type": "function"
    },
    {
      "inputs": [],
      "name": "counterDepositBps",
      "outputs": [
        {
          "internalType": "uint256",
          "name": "",
          "type": "uint256"
        }
      ],
      "stateMutability": "view",
      "type": "function"
    },
    {
      "inputs": [],
      "name": "dealEscrow",
      "outputs": [
        {
          "internalType": "contract IDealEscrow",
          "name": "",
          "type": "address"
        }
      ],
      "stateMutability": "view",
      "type": "function"
    },
    {
      "inputs": [
        {
          "internalType": "uint256",
          "name": "dealId",
          "type": "uint256"
        }
      ],
      "name": "getCompetingBid",
      "outputs": [
        {
          "components": [
            {
              "internalType": "address",
              "name": "competingClub",
              "type": "address"
            },
            {
              "internalType": "uint256",
              "name": "proposedFee",
              "type": "uint256"
            },
            {
              "internalType": "uint256",
              "name": "deposit",
              "type": "uint256"
            },
            {
              "internalType": "uint256",
              "name": "buyerAgentBps",
              "type": "uint256"
            },
            {
              "internalType": "address",
              "name": "buyerAgent",
              "type": "address"
            },
            {
              "internalType": "uint256",
              "name": "signingBonusMonths",
              "type": "uint256"
            },
            {
              "internalType": "uint256",
              "name": "acceptedAt",
              "type": "uint256"
            },
            {
              "internalType": "uint256",
              "name": "matchDeadline",
              "type": "uint256"
            },
            {
              "internalType": "bool",
              "name": "clubBMatched",
              "type": "bool"
            },
            {
              "internalType": "uint256",
              "name": "clubBDeposit",
              "type": "uint256"
            },
            {
              "internalType": "address",
              "name": "clubBAddress",
              "type": "address"
            },
            {
              "internalType": "address",
              "name": "paymentToken",
              "type": "address"
            }
          ],
          "internalType": "struct CompetingBidManager.CompetingBid",
          "name": "",
          "type": "tuple"
        }
      ],
      "stateMutability": "view",
      "type": "function"
    },
    {
      "inputs": [
        {
          "internalType": "uint256",
          "name": "dealId",
          "type": "uint256"
        }
      ],
      "name": "ignoreCompetingBid",
      "outputs": [],
      "stateMutability": "nonpayable",
      "type": "function"
    },
    {
      "inputs": [
        {
          "internalType": "uint256",
          "name": "dealId",
          "type": "uint256"
        }
      ],
      "name": "isMatchingWindowOpen",
      "outputs": [
        {
          "internalType": "bool",
          "name": "",
          "type": "bool"
        }
      ],
      "stateMutability": "view",
      "type": "function"
    },
    {
      "inputs": [
        {
          "internalType": "uint256",
          "name": "dealId",
          "type": "uint256"
        }
      ],
      "name": "matchCompetingBid",
      "outputs": [],
      "stateMutability": "nonpayable",
      "type": "function"
    },
    {
      "inputs": [],
      "name": "matchingWindow",
      "outputs": [
        {
          "internalType": "uint256",
          "name": "",
          "type": "uint256"
        }
      ],
      "stateMutability": "view",
      "type": "function"
    },
    {
      "inputs": [
        {
          "internalType": "uint256",
          "name": "dealId",
          "type": "uint256"
        }
      ],
      "name": "processMatchingExpiry",
      "outputs": [],
      "stateMutability": "nonpayable",
      "type": "function"
    },
    {
      "inputs": [
        {
          "internalType": "address",
          "name": "newAdmin",
          "type": "address"
        }
      ],
      "name": "setAdmin",
      "outputs": [],
      "stateMutability": "nonpayable",
      "type": "function"
    },
    {
      "inputs": [
        {
          "internalType": "uint256",
          "name": "bps",
          "type": "uint256"
        }
      ],
      "name": "setCompetingDepositBps",
      "outputs": [],
      "stateMutability": "nonpayable",
      "type": "function"
    },
    {
      "inputs": [
        {
          "internalType": "uint256",
          "name": "bps",
          "type": "uint256"
        }
      ],
      "name": "setCounterDepositBps",
      "outputs": [],
      "stateMutability": "nonpayable",
      "type": "function"
    },
    {
      "inputs": [
        {
          "internalType": "uint256",
          "name": "secs",
          "type": "uint256"
        }
      ],
      "name": "setMatchingWindow",
      "outputs": [],
      "stateMutability": "nonpayable",
      "type": "function"
    },
    {
      "inputs": [
        {
          "internalType": "uint256",
          "name": "secs",
          "type": "uint256"
        }
      ],
      "name": "setThirdPartyFundingWindow",
      "outputs": [],
      "stateMutability": "nonpayable",
      "type": "function"
    },
    {
      "inputs": [
        {
          "internalType": "uint256",
          "name": "dealId",
          "type": "uint256"
        },
        {
          "internalType": "uint256",
          "name": "fee",
          "type": "uint256"
        },
        {
          "internalType": "uint256",
          "name": "buyerAgentBps",
          "type": "uint256"
        },
        {
          "internalType": "address",
          "name": "buyerAgent",
          "type": "address"
        },
        {
          "internalType": "uint256",
          "name": "signingBonusMonths",
          "type": "uint256"
        }
      ],
      "name": "submitCompetingBid",
      "outputs": [],
      "stateMutability": "nonpayable",
      "type": "function"
    },
    {
      "inputs": [],
      "name": "thirdPartyFundingWindow",
      "outputs": [
        {
          "internalType": "uint256",
          "name": "",
          "type": "uint256"
        }
      ],
      "stateMutability": "view",
      "type": "function"
    },
    {
      "inputs": [
        {
          "internalType": "uint256",
          "name": "dealId",
          "type": "uint256"
        },
        {
          "internalType": "uint256",
          "name": "newFee",
          "type": "uint256"
        }
      ],
      "name": "upCompetingBid",
      "outputs": [],
      "stateMutability": "nonpayable",
      "type": "function"
    }
  ],
  "bytecode": "0x60a03461012a57601f61211538819003918201601f19168301916001600160401b0383118484101761012e57808492604094855283398101031261012a57610052602061004b83610142565b9201610142565b60017f9b779b17422d0df92223018b32b4d1fa46e071723d6817e2486d003becc55f00556001600160a01b0390911690811561011b576001600160a01b031690811561011b5760805260018060a01b031960045416176004556103e85f556103e8600155620151806002556203f480600355604051611fbe908161015782396080518181816101fc015281816106190152818161095a01528181610b2201528181610b8401528181610d97015281816111b0015281816114e3015281816117370152611a040152f35b63e6c4247b60e01b5f5260045ffd5b5f80fd5b634e487b7160e01b5f52604160045260245ffd5b51906001600160a01b038216820361012a5756fe6080806040526004361015610012575f80fd5b5f905f3560e01c9081632e80345214611c97575080633026178614611c7b57806334301952146119d157806335173fe9146117045780633db78e0b1461167d57806366ff2ace146114af5780636f6d917e14611434578063704b6c021461139c5780637d5836641461137e5780637dc78a7f1461117a5780639dcb5bbd14610d44578063a396bed114610cfb578063b46341e314610b51578063b76d664714610b0c578063b7c3986914610aee578063c3f7423214610927578063cacddbef146105e6578063dc5992fb14610442578063ecd9ae83146103ab578063f52537fa146101cb578063f66b67671461013b5763f851a44014610110575f80fd5b346101385780600319360112610138576004546040516001600160a01b039091168152602090f35b80fd5b503461013857602036600319011261013857600480549035906001600160a01b031633036101bc5780156101ad576080815f516020611f495f395f51905f52926002556040519060408252600e60408301526d6d61746368696e6757696e646f7760901b60608301526020820152a180f35b63162908e360e11b8252600482fd5b637bfa4b9f60e01b8252600482fd5b503461013857602036600319011261013857604051634f0df86560e01b81526004803590820181905260e0826024817f00000000000000000000000000000000000000000000000000000000000000006001600160a01b03165afa9182156103a057839261036f575b508151156103605760a0820151601081101561034c5760ff600b91160361033d5760208201516001600160a01b0316330361032e5780835260056020526040832080546001600160a01b03161561031f57600681018054610310574290556002544201928342116102fc5760078201849055604090810151600a830180546001600160a01b0319166001600160a01b039283161790559154905193845216917f37e1193c8083bcbc98b4c81493556ee0f2658961299c9531d5a8e1cbc238802f90602090a380f35b634e487b7160e01b85526011600452602485fd5b632d7854cb60e21b8552600485fd5b6388f7d6dd60e01b8452600484fd5b6303e2f0f360e51b8352600483fd5b6372c24c3560e01b8352600483fd5b634e487b7160e01b84526021600452602484fd5b63223da47360e21b8352600483fd5b61039291925060e03d60e011610399575b61038a8183611ce1565b810190611d25565b905f610234565b503d610380565b6040513d85823e3d90fd5b503461013857602036600319011261013857600480549035906001600160a01b031633036101bc5780158015610437575b610428576080815f516020611f495f395f51905f5292845560405190604082526013604083015272636f6d706574696e674465706f73697442707360681b60608301526020820152a180f35b63c6cc5d7f60e01b8252600482fd5b50610bb881116103dc565b50346101385760203660031901126101385760408161018092610160835161046981611cb1565b82815282602082015282858201528260608201528260808201528260a08201528260c08201528260e0820152826101008201528261012082015282610140820152015260043581526005602052206040516104c381611cb1565b60018060a01b038254169182825260018101546020830190815260028201546040840190815260038301546060850190815260018060a01b0360048501541660808601908152600585015460a0870190815260068601549160c0880192835260078701549360e0890194855260ff600889015416956101008a0196151587526009890154976101208b0198895261016060018060a01b03600a8c0154169a6101408d019b8c52600b60018060a01b03910154169b019a8b526040519b8c525160208c01525160408b01525160608a015260018060a01b0390511660808901525160a08801525160c08701525160e08601525115156101008501525161012084015260018060a01b0390511661014083015260018060a01b03905116610160820152f35b503461013857602036600319011261013857600435610603611e7e565b604051634f0df86560e01b8152600481018290527f00000000000000000000000000000000000000000000000000000000000000006001600160a01b03169060e081602481855afa90811561091c5784916108fd575b508051156108ee5760a081015160108110156108da5760ff600b9116036108cb57602001516001600160a01b0316330361032e578183526005602052604083209160018060a01b038354169182156108bc576006840154156108ad57600784015442108061089e575b61088f578460018060a01b03600a860154169460028101549260098201549060018301549060038401549360018060a01b0360048201541693600582015491600b60018060a01b0391015416898852600560205261072260408920611db6565b833b1561086b578888828e61074b60405194859384936366bd556f60e11b855260048501611dfd565b038183895af190811561088457899161086f575b50508161080e575b5050813b1561080a5785886107968b938397604051998a98899788966372db9e5360e01b885260048801611e1f565b03925af180156107ff576107e6575b505060207fc04b97e3ac29a0e6cfa19ae60bd0d52875be78d6b69d77dac9779afb8f9388ac91604051908152a460015f516020611f695f395f51905f525580f35b816107f091611ce1565b6107fb57845f6107a5565b8480fd5b6040513d84823e3d90fd5b8580fd5b833b1561086b5787908c61083660405194859384936366bd556f60e11b855260048501611dfd565b038183875af190811561086057879115610767575b8161085591611ce1565b61080a57855f610767565b6040513d89823e3d90fd5b8780fd5b8161087991611ce1565b61086b57875f61075f565b6040513d8b823e3d90fd5b63f18279bb60e01b8552600485fd5b5060ff600885015416156106c2565b6305b775a960e51b8552600485fd5b6388f7d6dd60e01b8552600485fd5b6372c24c3560e01b8452600484fd5b634e487b7160e01b85526021600452602485fd5b63223da47360e21b8452600484fd5b610916915060e03d60e0116103995761038a8183611ce1565b5f610659565b6040513d86823e3d90fd5b503461013857602036600319011261013857600435610944611e7e565b604051634f0df86560e01b8152600481018290527f00000000000000000000000000000000000000000000000000000000000000006001600160a01b0316919060e081602481865afa90811561091c578491610acf575b508051156108ee5760a00151601081101561034c5760ff600b91160361033d5780835260056020526040832080546001600160a01b0316919082156108bc576006810154156108ad5760ff600882015416610ac057600781015442111561088f578460018060a01b03600a8301541694600283015492600181015460038201549260018060a01b0360048401541692600581015490600b60018060a01b03910154168887526005602052610a5160408820611db6565b823b15610abc578688918c610a7a60405194859384936366bd556f60e11b855260048501611dfd565b038183875af190811561086057879161084b575050813b1561080a5785886107968b938397604051998a98899788966372db9e5360e01b885260048801611e1f565b8680fd5b63e4b2139b60e01b8552600485fd5b610ae8915060e03d60e0116103995761038a8183611ce1565b5f61099b565b50346101385780600319360112610138576020600154604051908152f35b50346101385780600319360112610138576040517f00000000000000000000000000000000000000000000000000000000000000006001600160a01b03168152602090f35b503461013857602036600319011261013857600435610b6e611e7e565b604051634f0df86560e01b8152600481018290527f00000000000000000000000000000000000000000000000000000000000000006001600160a01b0316919060e081602481865afa90811561091c578491610cdc575b508051156108ee5760a081015160108110156108da5760ff600b9116036108cb57602001516001600160a01b0316330361032e5780835260056020526040832080546001600160a01b0316929083156108bc57600681015461031057908160028693015490600b60018060a01b0391015416908484526005602052610c4c60408520611db6565b823b15610cd857610c77928492836040518096819582946366bd556f60e11b84528c60048501611dfd565b03925af180156107ff57610cbf575b50807fe77e3059ab3bf4a7ddee9a1825c72424e2cfa8218ed2081a800aa6c87f6eb35291a360015f516020611f695f395f51905f525580f35b81610cc991611ce1565b610cd457825f610c86565b8280fd5b8380fd5b610cf5915060e03d60e0116103995761038a8183611ce1565b5f610bc5565b503461013857602036600319011261013857604060209160043581526005835220600681015415159081610d35575b506040519015158152f35b6007915001544211155f610d2a565b50346101385760a0366003190112610138576064356001600160a01b0381169190602435906004359060443590859003610cd857610d80611e7e565b604051634f0df86560e01b815260048101839052947f00000000000000000000000000000000000000000000000000000000000000006001600160a01b03169060e087602481855afa96871561116f57869761114e575b5086511561113f5760a0870151601081101561112b5760ff600b91160361111c5760208701516001600160a01b0316331461110d5760408701516001600160a01b0316331461110d5784156110fe5761012c83116110ef57821515806110e7575b6110d85783865260056020526040862080546001600160a01b03169081151580806110cb575b6110bc57806110af575b611043575b5050612710610e7d875487611e57565b0492831561103457600b6060610ff4969798990192898060018060a01b03865116928a8c604051978893610eb085611cb1565b3385526020850192835260408501918d8352606086019081526080860191825260a0860192608435845260c087019488865260408960e08a0198818a526101606101008c019b838d5261012081019d8e5261014081019e8f52019d8e5281526005602052209c60018060a01b039060018060a01b03905116168d60018060a01b0319905416178d555160018d01555160028c01555160038b015560018060a01b0390511660048a019060018060a01b031660018060a01b0319825416179055516005890155516006880155516007870155600886019051151560ff8019835416911617905551600985015560018060a01b03905116600a84019060018060a01b031660018060a01b031982541617905560018060a01b0390511691019060018060a01b031660018060a01b0319825416179055339060018060a01b03905116611eb6565b6040519182527f9fd44cfe0db20e1b83d88a7ffd536ddfcaf07750b3c249ecbb57dd8e0ef551eb60203393a360015f516020611f695f395f51905f525580f35b63162908e360e11b8752600487fd5b600260018060a01b03600b830154169101918883549355843b156110ab5790889161108260405194859384936366bd556f60e11b855260048501611dfd565b038183875af180156108605790879115610e6d57816110a091611ce1565b61080a57855f610e6d565b8880fd5b5060028101541515610e68565b632d7854cb60e21b8952600489fd5b5060068201541515610e5e565b63e6c4247b60e01b8652600486fd5b508015610e38565b63c6cc5d7f60e01b8652600486fd5b63162908e360e11b8652600486fd5b633f45e98560e11b8652600486fd5b6372c24c3560e01b8652600486fd5b634e487b7160e01b87526021600452602487fd5b63223da47360e21b8652600486fd5b61116891975060e03d60e0116103995761038a8183611ce1565b955f610dd7565b6040513d88823e3d90fd5b50346101385760403660031901126101385760243560043561119a611e7e565b604051634f0df86560e01b8152600481018290527f00000000000000000000000000000000000000000000000000000000000000006001600160a01b03169060e081602481855afa908115611373578591611354575b508051156113455760a081015160108110156113315760ff600b9116036113225782855260056020526040852080549092906001600160a01b031680156113135733036113045760068301546112f557600183019182548611156112e657600261271061125e895489611e57565b04940180548503938585116112d2578790558490556060015161128d92919033906001600160a01b0316611eb6565b60405192835260208301527f7b2daf503e937c88f5cf44ee51c71f9d914a01616fbfe6f7d7018c608ba4356e60403393a360015f516020611f695f395f51905f525580f35b634e487b7160e01b89526011600452602489fd5b630e56490760e31b8752600487fd5b632d7854cb60e21b8652600486fd5b63ef55858560e01b8652600486fd5b6388f7d6dd60e01b8752600487fd5b6372c24c3560e01b8552600485fd5b634e487b7160e01b86526021600452602486fd5b63223da47360e21b8552600485fd5b61136d915060e03d60e0116103995761038a8183611ce1565b5f6111f0565b6040513d87823e3d90fd5b50346101385780600319360112610138576020600354604051908152f35b5034610138576020366003190112610138576004356001600160a01b03811690819003611430576004546001600160a01b0381163303611421578115611412576001600160a01b03191681176004557f7ce7ec0b50378fb6c0186ffb5f48325f6593fcb4ca4386f21861af3129188f5c8280a280f35b63e6c4247b60e01b8352600483fd5b637bfa4b9f60e01b8352600483fd5b5080fd5b503461013857602036600319011261013857600480549035906001600160a01b031633036101bc5780156101ad576080815f516020611f495f395f51905f5292600355604051906040825260176040830152767468697264506172747946756e64696e6757696e646f7760481b60608301526020820152a180f35b5034610138576020366003190112610138576004356114cc611e7e565b604051634f0df86560e01b815260048101829052907f00000000000000000000000000000000000000000000000000000000000000006001600160a01b031660e083602481845afa92831561091c57849361165c575b508251156108ee5760a083015160108110156108da5760ff600b9116036108cb5781845260056020526040842080549093906001600160a01b0316156108bc576006840154156108ad576007840154421161164d57600884019384549460ff861661163e57600a8201546001600160a01b0316330361162f576127106115af608085015160015490611e57565b049586156116205760ff19166001179055600901849055606001516115e091849133906001600160a01b0316611eb6565b6040519182527f63fe81e07943fe2d20a44b32b2851f9b5c8020bd15e81dcd27cc06f815f8972d60203393a360015f516020611f695f395f51905f525580f35b63162908e360e11b8852600488fd5b630b61493160e41b8752600487fd5b63e4b2139b60e01b8752600487fd5b633c8f252160e01b8552600485fd5b61167691935060e03d60e0116103995761038a8183611ce1565b915f611522565b503461013857602036600319011261013857600480549035906001600160a01b031633036101bc57801580156116f9575b610428576080815f516020611f495f395f51905f529260015560405190604082526011604083015270636f756e7465724465706f73697442707360781b60608301526020820152a180f35b50610bb881116116ae565b503461013857602036600319011261013857600435611721611e7e565b604051630f8f795960e01b8152600481018290527f00000000000000000000000000000000000000000000000000000000000000006001600160a01b0316919060c081602481865afa90811561091c578485918693611967575b5015611345576108cb5760ff16600f811415908161195b575b5061033d5780835260056020526040832080546001600160a01b0316919082156108bc576006810154156108ad57600781015442108061194c575b61088f578490604051634f0df86560e01b815283600482015260e081602481895afa80156103a05761192f575b5060018060a01b03600a820154169460028201549060018301549060038401549360018060a01b0360048201541693600582015491600b60018060a01b0391015416888852600560205261185260408920611db6565b833b1561086b5787908b61187a60405194859384936366bd556f60e11b855260048501611dfd565b038183875af190811561086057879161191a575b5050813b1561080a5785876118bd8a938397604051998a98899788966372db9e5360e01b885260048801611e1f565b03925af180156107ff57611905575b50807f063b160080a383605356bb5b49de416663ed8ec83eaa30e1dfb0c77dbe72e43891a460015f516020611f695f395f51905f525580f35b8161190f91611ce1565b610cd857835f6118cc565b8161192491611ce1565b61080a57855f61188e565b6119479060e03d60e0116103995761038a8183611ce1565b6117fc565b5060ff600882015416156117cf565b600b915014155f611794565b9250505060c0813d60c0116119c9575b8161198460c09383611ce1565b81010312610cd85761199581611d04565b906119a260208201611d04565b9160408201519160ff83168303610abc5760a06119bf9101611d11565b509190915f61177b565b3d9150611977565b5034611bea576020366003190112611bea576004356119ee611e7e565b604051634f0df86560e01b8152600481018290527f00000000000000000000000000000000000000000000000000000000000000006001600160a01b0316919060e081602481865afa908115611bdf575f91611c5c575b50805115611c4d5760a08101516010811015611c395760ff600b911603611c2a5760208101516001600160a01b03163303611c1b575f82815260056020526040902080546001600160a01b031693908415611c0c57600681015415611bfd5760ff60088201541615611bee57600281015494600982015491600b60018060a01b039101541690855f526005602052611adf60405f20611db6565b833b15611bea576040516366bd556f60e11b8152915f9183918291611b09918b9160048501611dfd565b038183875af18015611bdf57611bc8575b5090818692611b76575b50505060409081015190519283526001600160a01b0316917f93decab3ac375b4826b8e98b479100edede791ccfd0e0395fe07d1498e1ba7d190602090a360015f516020611f695f395f51905f525580f35b813b15610cd4578291604483926040519485938492630f384a4960e41b84528a600485015260248401525af180156107ff57611bb3575b80611b24565b81611bbd91611ce1565b610cd857835f611bad565b611bd6919296505f90611ce1565b5f94905f611b1a565b6040513d5f823e3d90fd5b5f80fd5b631f6136f760e11b5f5260045ffd5b6305b775a960e51b5f5260045ffd5b6388f7d6dd60e01b5f5260045ffd5b6303e2f0f360e51b5f5260045ffd5b6372c24c3560e01b5f5260045ffd5b634e487b7160e01b5f52602160045260245ffd5b63223da47360e21b5f5260045ffd5b611c75915060e03d60e0116103995761038a8183611ce1565b5f611a45565b34611bea575f366003190112611bea5760205f54604051908152f35b34611bea575f366003190112611bea576020906002548152f35b61018081019081106001600160401b03821117611ccd57604052565b634e487b7160e01b5f52604160045260245ffd5b601f909101601f19168101906001600160401b03821190821017611ccd57604052565b51908115158203611bea57565b51906001600160a01b0382168203611bea57565b908160e0910312611bea576040519060e082016001600160401b03811183821017611ccd57604052611d5681611d04565b8252611d6460208201611d11565b6020830152611d7560408201611d11565b6040830152611d8660608201611d11565b60608301526080810151608083015260a0810151906010821015611bea5760c09160a0840152015160c082015290565b600b5f9182815582600182015582600282015582600382015582600482015582600582015582600682015582600782015582600882015582600982015582600a8201550155565b6001600160a01b03918216815291166020820152604081019190915260600190565b9081526001600160a01b039182166020820152604081019290925260608201929092529116608082015260a081019190915260c00190565b81810292918115918404141715611e6a57565b634e487b7160e01b5f52601160045260245ffd5b60025f516020611f695f395f51905f525414611ea75760025f516020611f695f395f51905f5255565b633ee5aeb560e01b5f5260045ffd5b6040516323b872dd60e01b5f9081526001600160a01b039384166004529290931660245260449390935260209060648180865af19060015f5114821615611f27575b6040525f60605215611f075750565b635274afe760e01b5f9081526001600160a01b0391909116600452602490fd5b906001811516611f3f57823b15153d15161690611ef8565b503d5f823e3d90fdfe12c9dccd129ff783f1c8228eacdfa8e334ddecb7ec5c9a79ec662a4aed3d012a9b779b17422d0df92223018b32b4d1fa46e071723d6817e2486d003becc55f00a26469706673582212200800eb52408d073ad1c9c06a2498e7db8753ed48a7f0b4876f8252d29a3342e664736f6c634300081c0033",
  "linkReferences": {},
  "deployedLinkReferences": {},
  "immutableReferences": {
    "3074": [
      {
        "length": 32,
        "start": 508
      },
      {
        "length": 32,
        "start": 1561
      },
      {
        "length": 32,
        "start": 2394
      },
      {
        "length": 32,
        "start": 2850
      },
      {
        "length": 32,
        "start": 2948
      },
      {
        "length": 32,
        "start": 3479
      },
      {
        "length": 32,
        "start": 4528
      },
      {
        "length": 32,
        "start": 5347
      },
      {
        "length": 32,
        "start": 5943
      },
      {
        "length": 32,
        "start": 6660
      }
    ]
  },
  "inputSourceName": "project/contracts/core/CompetingBidManager.sol",
  "buildInfoId": "solc-0_8_28-ce3c3cd6dda037c08b6ded6d26330f4b91b36ef4"
}