{
  "_format": "hh3-artifact-1",
  "contractName": "DealEscrow",
  "sourceName": "contracts/core/DealEscrow.sol",
  "abi": [
    {
      "inputs": [],
      "stateMutability": "nonpayable",
      "type": "constructor"
    },
    {
      "inputs": [],
      "name": "AccessControlBadConfirmation",
      "type": "error"
    },
    {
      "inputs": [
        {
          "internalType": "address",
          "name": "account",
          "type": "address"
        },
        {
          "internalType": "bytes32",
          "name": "neededRole",
          "type": "bytes32"
        }
      ],
      "name": "AccessControlUnauthorizedAccount",
      "type": "error"
    },
    {
      "inputs": [],
      "name": "AddOnAlreadyTriggered",
      "type": "error"
    },
    {
      "inputs": [],
      "name": "AddOnNotFound",
      "type": "error"
    },
    {
      "inputs": [
        {
          "internalType": "address",
          "name": "target",
          "type": "address"
        }
      ],
      "name": "AddressEmptyCode",
      "type": "error"
    },
    {
      "inputs": [],
      "name": "CannotConfirmOwnProposal",
      "type": "error"
    },
    {
      "inputs": [],
      "name": "ConsentWindowExpired",
      "type": "error"
    },
    {
      "inputs": [],
      "name": "DealIsFrozen",
      "type": "error"
    },
    {
      "inputs": [],
      "name": "DealNotFound",
      "type": "error"
    },
    {
      "inputs": [],
      "name": "DealNotFrozen",
      "type": "error"
    },
    {
      "inputs": [],
      "name": "DisputeWindowExpired",
      "type": "error"
    },
    {
      "inputs": [
        {
          "internalType": "address",
          "name": "implementation",
          "type": "address"
        }
      ],
      "name": "ERC1967InvalidImplementation",
      "type": "error"
    },
    {
      "inputs": [],
      "name": "ERC1967NonPayable",
      "type": "error"
    },
    {
      "inputs": [],
      "name": "EnforcedPause",
      "type": "error"
    },
    {
      "inputs": [],
      "name": "ExpectedPause",
      "type": "error"
    },
    {
      "inputs": [],
      "name": "FailedCall",
      "type": "error"
    },
    {
      "inputs": [],
      "name": "FundingWindowExpired",
      "type": "error"
    },
    {
      "inputs": [
        {
          "internalType": "uint256",
          "name": "requested",
          "type": "uint256"
        },
        {
          "internalType": "uint256",
          "name": "available",
          "type": "uint256"
        }
      ],
      "name": "InsufficientProtocolBalance",
      "type": "error"
    },
    {
      "inputs": [],
      "name": "InvalidAddress",
      "type": "error"
    },
    {
      "inputs": [],
      "name": "InvalidAmount",
      "type": "error"
    },
    {
      "inputs": [],
      "name": "InvalidInitialization",
      "type": "error"
    },
    {
      "inputs": [],
      "name": "LeagueDisputeDeadlineExpired",
      "type": "error"
    },
    {
      "inputs": [],
      "name": "MedicalAlreadySubmitted",
      "type": "error"
    },
    {
      "inputs": [],
      "name": "MedicalWindowExpired",
      "type": "error"
    },
    {
      "inputs": [],
      "name": "MutualCancelAlreadyProposed",
      "type": "error"
    },
    {
      "inputs": [],
      "name": "MutualCancelExpiredError",
      "type": "error"
    },
    {
      "inputs": [],
      "name": "MutualCancelNotProposed",
      "type": "error"
    },
    {
      "inputs": [],
      "name": "NoPendingTreasuryUpdate",
      "type": "error"
    },
    {
      "inputs": [],
      "name": "NoSigningBonus",
      "type": "error"
    },
    {
      "inputs": [],
      "name": "NotBuyingClub",
      "type": "error"
    },
    {
      "inputs": [],
      "name": "NotInitializing",
      "type": "error"
    },
    {
      "inputs": [],
      "name": "NotPlayerWallet",
      "type": "error"
    },
    {
      "inputs": [],
      "name": "NotSellingClub",
      "type": "error"
    },
    {
      "inputs": [],
      "name": "NothingToClaim",
      "type": "error"
    },
    {
      "inputs": [],
      "name": "NothingToWithdraw",
      "type": "error"
    },
    {
      "inputs": [],
      "name": "PlayerWalletNotSet",
      "type": "error"
    },
    {
      "inputs": [],
      "name": "ProtocolFeeTooHigh",
      "type": "error"
    },
    {
      "inputs": [],
      "name": "ReentrantCall",
      "type": "error"
    },
    {
      "inputs": [
        {
          "internalType": "address",
          "name": "token",
          "type": "address"
        }
      ],
      "name": "SafeERC20FailedOperation",
      "type": "error"
    },
    {
      "inputs": [],
      "name": "SigningBonusAlreadyClaimed",
      "type": "error"
    },
    {
      "inputs": [],
      "name": "SigningBonusNotExpired",
      "type": "error"
    },
    {
      "inputs": [],
      "name": "TimerTooShort",
      "type": "error"
    },
    {
      "inputs": [],
      "name": "TokenNotApproved",
      "type": "error"
    },
    {
      "inputs": [],
      "name": "TransferWindowClosed",
      "type": "error"
    },
    {
      "inputs": [],
      "name": "TreasuryUpdateNotReady",
      "type": "error"
    },
    {
      "inputs": [],
      "name": "UUPSUnauthorizedCallContext",
      "type": "error"
    },
    {
      "inputs": [
        {
          "internalType": "bytes32",
          "name": "slot",
          "type": "bytes32"
        }
      ],
      "name": "UUPSUnsupportedProxiableUUID",
      "type": "error"
    },
    {
      "inputs": [],
      "name": "WrongDealState",
      "type": "error"
    },
    {
      "anonymous": false,
      "inputs": [
        {
          "indexed": true,
          "internalType": "uint256",
          "name": "dealId",
          "type": "uint256"
        },
        {
          "indexed": true,
          "internalType": "address",
          "name": "club",
          "type": "address"
        },
        {
          "indexed": false,
          "internalType": "uint256",
          "name": "amount",
          "type": "uint256"
        }
      ],
      "name": "AddOnDepositWithdrawn",
      "type": "event"
    },
    {
      "anonymous": false,
      "inputs": [
        {
          "indexed": true,
          "internalType": "uint256",
          "name": "dealId",
          "type": "uint256"
        },
        {
          "indexed": true,
          "internalType": "uint256",
          "name": "idx",
          "type": "uint256"
        },
        {
          "indexed": false,
          "internalType": "uint256",
          "name": "amount",
          "type": "uint256"
        },
        {
          "indexed": false,
          "internalType": "address",
          "name": "recipient",
          "type": "address"
        }
      ],
      "name": "AddOnTriggered",
      "type": "event"
    },
    {
      "anonymous": false,
      "inputs": [
        {
          "indexed": true,
          "internalType": "uint256",
          "name": "dealId",
          "type": "uint256"
        },
        {
          "indexed": true,
          "internalType": "address",
          "name": "thirdParty",
          "type": "address"
        },
        {
          "indexed": false,
          "internalType": "uint256",
          "name": "fee",
          "type": "uint256"
        }
      ],
      "name": "CompetingBidActivated",
      "type": "event"
    },
    {
      "anonymous": false,
      "inputs": [
        {
          "indexed": true,
          "internalType": "uint256",
          "name": "dealId",
          "type": "uint256"
        },
        {
          "indexed": false,
          "internalType": "enum TransferTypes.CancelReason",
          "name": "reason",
          "type": "uint8"
        }
      ],
      "name": "DealCancelled",
      "type": "event"
    },
    {
      "anonymous": false,
      "inputs": [
        {
          "indexed": true,
          "internalType": "uint256",
          "name": "dealId",
          "type": "uint256"
        },
        {
          "indexed": true,
          "internalType": "uint256",
          "name": "playerId",
          "type": "uint256"
        },
        {
          "indexed": true,
          "internalType": "address",
          "name": "newClub",
          "type": "address"
        }
      ],
      "name": "DealCompleted",
      "type": "event"
    },
    {
      "anonymous": false,
      "inputs": [
        {
          "indexed": true,
          "internalType": "uint256",
          "name": "dealId",
          "type": "uint256"
        },
        {
          "indexed": true,
          "internalType": "uint256",
          "name": "playerId",
          "type": "uint256"
        },
        {
          "indexed": true,
          "internalType": "address",
          "name": "buyingClub",
          "type": "address"
        }
      ],
      "name": "DealCreated",
      "type": "event"
    },
    {
      "anonymous": false,
      "inputs": [
        {
          "indexed": true,
          "internalType": "uint256",
          "name": "dealId",
          "type": "uint256"
        }
      ],
      "name": "DealFrozen",
      "type": "event"
    },
    {
      "anonymous": false,
      "inputs": [
        {
          "indexed": true,
          "internalType": "uint256",
          "name": "dealId",
          "type": "uint256"
        }
      ],
      "name": "DealUnfrozen",
      "type": "event"
    },
    {
      "anonymous": false,
      "inputs": [
        {
          "indexed": true,
          "internalType": "uint256",
          "name": "dealId",
          "type": "uint256"
        },
        {
          "indexed": true,
          "internalType": "address",
          "name": "raisedBy",
          "type": "address"
        }
      ],
      "name": "DisputeRaised",
      "type": "event"
    },
    {
      "anonymous": false,
      "inputs": [
        {
          "indexed": true,
          "internalType": "uint256",
          "name": "dealId",
          "type": "uint256"
        }
      ],
      "name": "DisputeResolved",
      "type": "event"
    },
    {
      "anonymous": false,
      "inputs": [
        {
          "indexed": true,
          "internalType": "uint256",
          "name": "dealId",
          "type": "uint256"
        },
        {
          "indexed": true,
          "internalType": "address",
          "name": "buyingClub",
          "type": "address"
        },
        {
          "indexed": false,
          "internalType": "uint256",
          "name": "amount",
          "type": "uint256"
        }
      ],
      "name": "FundingReceived",
      "type": "event"
    },
    {
      "anonymous": false,
      "inputs": [
        {
          "indexed": true,
          "internalType": "address",
          "name": "recipient",
          "type": "address"
        },
        {
          "indexed": true,
          "internalType": "address",
          "name": "token",
          "type": "address"
        },
        {
          "indexed": false,
          "internalType": "uint256",
          "name": "amount",
          "type": "uint256"
        }
      ],
      "name": "FundsClaimed",
      "type": "event"
    },
    {
      "anonymous": false,
      "inputs": [
        {
          "indexed": false,
          "internalType": "uint64",
          "name": "version",
          "type": "uint64"
        }
      ],
      "name": "Initialized",
      "type": "event"
    },
    {
      "anonymous": false,
      "inputs": [
        {
          "indexed": true,
          "internalType": "uint256",
          "name": "dealId",
          "type": "uint256"
        },
        {
          "indexed": true,
          "internalType": "address",
          "name": "escalatedBy",
          "type": "address"
        }
      ],
      "name": "MedicalDisputeEscalated",
      "type": "event"
    },
    {
      "anonymous": false,
      "inputs": [
        {
          "indexed": true,
          "internalType": "uint256",
          "name": "dealId",
          "type": "uint256"
        }
      ],
      "name": "MedicalDisputeResolved",
      "type": "event"
    },
    {
      "anonymous": false,
      "inputs": [
        {
          "indexed": true,
          "internalType": "uint256",
          "name": "dealId",
          "type": "uint256"
        },
        {
          "indexed": false,
          "internalType": "uint256",
          "name": "newFee",
          "type": "uint256"
        }
      ],
      "name": "MedicalRenegotiationResolved",
      "type": "event"
    },
    {
      "anonymous": false,
      "inputs": [
        {
          "indexed": true,
          "internalType": "uint256",
          "name": "dealId",
          "type": "uint256"
        }
      ],
      "name": "MedicalRenegotiationStarted",
      "type": "event"
    },
    {
      "anonymous": false,
      "inputs": [
        {
          "indexed": true,
          "internalType": "uint256",
          "name": "dealId",
          "type": "uint256"
        },
        {
          "indexed": false,
          "internalType": "enum TransferTypes.MedicalOutcome",
          "name": "outcome",
          "type": "uint8"
        }
      ],
      "name": "MedicalSubmitted",
      "type": "event"
    },
    {
      "anonymous": false,
      "inputs": [
        {
          "indexed": true,
          "internalType": "uint256",
          "name": "dealId",
          "type": "uint256"
        }
      ],
      "name": "MutualCancelConfirmed",
      "type": "event"
    },
    {
      "anonymous": false,
      "inputs": [
        {
          "indexed": true,
          "internalType": "uint256",
          "name": "dealId",
          "type": "uint256"
        },
        {
          "indexed": true,
          "internalType": "address",
          "name": "proposer",
          "type": "address"
        }
      ],
      "name": "MutualCancelProposed",
      "type": "event"
    },
    {
      "anonymous": false,
      "inputs": [
        {
          "indexed": false,
          "internalType": "address",
          "name": "account",
          "type": "address"
        }
      ],
      "name": "Paused",
      "type": "event"
    },
    {
      "anonymous": false,
      "inputs": [
        {
          "indexed": true,
          "internalType": "uint256",
          "name": "dealId",
          "type": "uint256"
        },
        {
          "indexed": true,
          "internalType": "uint256",
          "name": "playerId",
          "type": "uint256"
        },
        {
          "indexed": false,
          "internalType": "address",
          "name": "buyingClub",
          "type": "address"
        }
      ],
      "name": "PlayerConsentRequested",
      "type": "event"
    },
    {
      "anonymous": false,
      "inputs": [
        {
          "indexed": true,
          "internalType": "uint256",
          "name": "dealId",
          "type": "uint256"
        },
        {
          "indexed": true,
          "internalType": "uint256",
          "name": "playerId",
          "type": "uint256"
        }
      ],
      "name": "PlayerConsented",
      "type": "event"
    },
    {
      "anonymous": false,
      "inputs": [
        {
          "indexed": true,
          "internalType": "uint256",
          "name": "dealId",
          "type": "uint256"
        },
        {
          "indexed": true,
          "internalType": "uint256",
          "name": "playerId",
          "type": "uint256"
        }
      ],
      "name": "PlayerDeclined",
      "type": "event"
    },
    {
      "anonymous": false,
      "inputs": [
        {
          "indexed": false,
          "internalType": "uint256",
          "name": "bps",
          "type": "uint256"
        }
      ],
      "name": "ProtocolFeeUpdated",
      "type": "event"
    },
    {
      "anonymous": false,
      "inputs": [
        {
          "indexed": true,
          "internalType": "address",
          "name": "treasury",
          "type": "address"
        },
        {
          "indexed": true,
          "internalType": "address",
          "name": "token",
          "type": "address"
        },
        {
          "indexed": false,
          "internalType": "uint256",
          "name": "amount",
          "type": "uint256"
        }
      ],
      "name": "ProtocolFeesWithdrawn",
      "type": "event"
    },
    {
      "anonymous": false,
      "inputs": [
        {
          "indexed": true,
          "internalType": "address",
          "name": "newTreasury",
          "type": "address"
        },
        {
          "indexed": false,
          "internalType": "uint256",
          "name": "effectiveAt",
          "type": "uint256"
        }
      ],
      "name": "ProtocolTreasuryUpdateScheduled",
      "type": "event"
    },
    {
      "anonymous": false,
      "inputs": [
        {
          "indexed": true,
          "internalType": "address",
          "name": "oldTreasury",
          "type": "address"
        },
        {
          "indexed": true,
          "internalType": "address",
          "name": "newTreasury",
          "type": "address"
        }
      ],
      "name": "ProtocolTreasuryUpdated",
      "type": "event"
    },
    {
      "anonymous": false,
      "inputs": [
        {
          "indexed": true,
          "internalType": "bytes32",
          "name": "role",
          "type": "bytes32"
        },
        {
          "indexed": true,
          "internalType": "bytes32",
          "name": "previousAdminRole",
          "type": "bytes32"
        },
        {
          "indexed": true,
          "internalType": "bytes32",
          "name": "newAdminRole",
          "type": "bytes32"
        }
      ],
      "name": "RoleAdminChanged",
      "type": "event"
    },
    {
      "anonymous": false,
      "inputs": [
        {
          "indexed": true,
          "internalType": "bytes32",
          "name": "role",
          "type": "bytes32"
        },
        {
          "indexed": true,
          "internalType": "address",
          "name": "account",
          "type": "address"
        },
        {
          "indexed": true,
          "internalType": "address",
          "name": "sender",
          "type": "address"
        }
      ],
      "name": "RoleGranted",
      "type": "event"
    },
    {
      "anonymous": false,
      "inputs": [
        {
          "indexed": true,
          "internalType": "bytes32",
          "name": "role",
          "type": "bytes32"
        },
        {
          "indexed": true,
          "internalType": "address",
          "name": "account",
          "type": "address"
        },
        {
          "indexed": true,
          "internalType": "address",
          "name": "sender",
          "type": "address"
        }
      ],
      "name": "RoleRevoked",
      "type": "event"
    },
    {
      "anonymous": false,
      "inputs": [
        {
          "indexed": true,
          "internalType": "uint256",
          "name": "dealId",
          "type": "uint256"
        },
        {
          "indexed": true,
          "internalType": "address",
          "name": "wallet",
          "type": "address"
        },
        {
          "indexed": false,
          "internalType": "uint256",
          "name": "amount",
          "type": "uint256"
        }
      ],
      "name": "SigningBonusClaimed",
      "type": "event"
    },
    {
      "anonymous": false,
      "inputs": [
        {
          "indexed": true,
          "internalType": "uint256",
          "name": "dealId",
          "type": "uint256"
        },
        {
          "indexed": true,
          "internalType": "address",
          "name": "to",
          "type": "address"
        },
        {
          "indexed": false,
          "internalType": "uint256",
          "name": "amount",
          "type": "uint256"
        }
      ],
      "name": "SigningBonusRescued",
      "type": "event"
    },
    {
      "anonymous": false,
      "inputs": [
        {
          "indexed": true,
          "internalType": "uint256",
          "name": "dealId",
          "type": "uint256"
        },
        {
          "indexed": true,
          "internalType": "address",
          "name": "thirdParty",
          "type": "address"
        }
      ],
      "name": "ThirdPartyMedicalCompleted",
      "type": "event"
    },
    {
      "anonymous": false,
      "inputs": [
        {
          "indexed": false,
          "internalType": "address",
          "name": "account",
          "type": "address"
        }
      ],
      "name": "Unpaused",
      "type": "event"
    },
    {
      "anonymous": false,
      "inputs": [
        {
          "indexed": true,
          "internalType": "address",
          "name": "implementation",
          "type": "address"
        }
      ],
      "name": "Upgraded",
      "type": "event"
    },
    {
      "inputs": [],
      "name": "ADMIN_ROLE",
      "outputs": [
        {
          "internalType": "bytes32",
          "name": "",
          "type": "bytes32"
        }
      ],
      "stateMutability": "view",
      "type": "function"
    },
    {
      "inputs": [],
      "name": "COMPETING_BID_MANAGER_ROLE",
      "outputs": [
        {
          "internalType": "bytes32",
          "name": "",
          "type": "bytes32"
        }
      ],
      "stateMutability": "view",
      "type": "function"
    },
    {
      "inputs": [],
      "name": "DEFAULT_ADMIN_ROLE",
      "outputs": [
        {
          "internalType": "bytes32",
          "name": "",
          "type": "bytes32"
        }
      ],
      "stateMutability": "view",
      "type": "function"
    },
    {
      "inputs": [],
      "name": "LEAGUE_ROLE",
      "outputs": [
        {
          "internalType": "bytes32",
          "name": "",
          "type": "bytes32"
        }
      ],
      "stateMutability": "view",
      "type": "function"
    },
    {
      "inputs": [],
      "name": "TRANSFER_ESCROW_ROLE",
      "outputs": [
        {
          "internalType": "bytes32",
          "name": "",
          "type": "bytes32"
        }
      ],
      "stateMutability": "view",
      "type": "function"
    },
    {
      "inputs": [],
      "name": "UPGRADE_INTERFACE_VERSION",
      "outputs": [
        {
          "internalType": "string",
          "name": "",
          "type": "string"
        }
      ],
      "stateMutability": "view",
      "type": "function"
    },
    {
      "inputs": [
        {
          "internalType": "uint256",
          "name": "dealId",
          "type": "uint256"
        },
        {
          "internalType": "uint256",
          "name": "newFee",
          "type": "uint256"
        }
      ],
      "name": "acceptMedicalRenegotiation",
      "outputs": [],
      "stateMutability": "nonpayable",
      "type": "function"
    },
    {
      "inputs": [],
      "name": "addressRegistry",
      "outputs": [
        {
          "internalType": "contract IAddressRegistry",
          "name": "",
          "type": "address"
        }
      ],
      "stateMutability": "view",
      "type": "function"
    },
    {
      "inputs": [
        {
          "internalType": "address",
          "name": "token",
          "type": "address"
        }
      ],
      "name": "approveToken",
      "outputs": [],
      "stateMutability": "nonpayable",
      "type": "function"
    },
    {
      "inputs": [
        {
          "internalType": "uint256",
          "name": "dealId",
          "type": "uint256"
        }
      ],
      "name": "claimSigningBonus",
      "outputs": [],
      "stateMutability": "nonpayable",
      "type": "function"
    },
    {
      "inputs": [],
      "name": "competingBidManager",
      "outputs": [
        {
          "internalType": "address",
          "name": "",
          "type": "address"
        }
      ],
      "stateMutability": "view",
      "type": "function"
    },
    {
      "inputs": [
        {
          "internalType": "uint256",
          "name": "dealId",
          "type": "uint256"
        }
      ],
      "name": "confirmMutualCancel",
      "outputs": [],
      "stateMutability": "nonpayable",
      "type": "function"
    },
    {
      "inputs": [
        {
          "internalType": "uint256",
          "name": "dealId",
          "type": "uint256"
        }
      ],
      "name": "consentToTransfer",
      "outputs": [],
      "stateMutability": "nonpayable",
      "type": "function"
    },
    {
      "inputs": [
        {
          "internalType": "uint256",
          "name": "dealId",
          "type": "uint256"
        }
      ],
      "name": "declineTransfer",
      "outputs": [],
      "stateMutability": "nonpayable",
      "type": "function"
    },
    {
      "inputs": [
        {
          "internalType": "uint256",
          "name": "dealId",
          "type": "uint256"
        },
        {
          "internalType": "uint256",
          "name": "amount",
          "type": "uint256"
        }
      ],
      "name": "depositAddOnFunds",
      "outputs": [],
      "stateMutability": "nonpayable",
      "type": "function"
    },
    {
      "inputs": [
        {
          "internalType": "uint256",
          "name": "dealId",
          "type": "uint256"
        }
      ],
      "name": "escalateToLeague",
      "outputs": [],
      "stateMutability": "nonpayable",
      "type": "function"
    },
    {
      "inputs": [],
      "name": "executeProtocolTreasuryUpdate",
      "outputs": [],
      "stateMutability": "nonpayable",
      "type": "function"
    },
    {
      "inputs": [
        {
          "internalType": "uint256",
          "name": "dealId",
          "type": "uint256"
        },
        {
          "internalType": "address",
          "name": "thirdParty",
          "type": "address"
        },
        {
          "internalType": "uint256",
          "name": "newFee",
          "type": "uint256"
        },
        {
          "internalType": "uint256",
          "name": "buyerAgentBps",
          "type": "uint256"
        },
        {
          "internalType": "address",
          "name": "buyerAgent",
          "type": "address"
        },
        {
          "internalType": "uint256",
          "name": "signingBonusMonths",
          "type": "uint256"
        }
      ],
      "name": "extActivateThirdParty",
      "outputs": [],
      "stateMutability": "nonpayable",
      "type": "function"
    },
    {
      "inputs": [
        {
          "internalType": "uint256",
          "name": "dealId",
          "type": "uint256"
        }
      ],
      "name": "extAdvanceToFunding",
      "outputs": [],
      "stateMutability": "nonpayable",
      "type": "function"
    },
    {
      "inputs": [
        {
          "internalType": "uint256",
          "name": "dealId",
          "type": "uint256"
        },
        {
          "internalType": "uint8",
          "name": "reason",
          "type": "uint8"
        }
      ],
      "name": "extCancel",
      "outputs": [],
      "stateMutability": "nonpayable",
      "type": "function"
    },
    {
      "inputs": [
        {
          "internalType": "uint256",
          "name": "dealId",
          "type": "uint256"
        }
      ],
      "name": "extClearMutualCancel",
      "outputs": [],
      "stateMutability": "nonpayable",
      "type": "function"
    },
    {
      "inputs": [
        {
          "internalType": "address",
          "name": "recipient",
          "type": "address"
        },
        {
          "internalType": "address",
          "name": "token",
          "type": "address"
        },
        {
          "internalType": "uint256",
          "name": "amount",
          "type": "uint256"
        }
      ],
      "name": "extCreditClaimable",
      "outputs": [],
      "stateMutability": "nonpayable",
      "type": "function"
    },
    {
      "inputs": [
        {
          "internalType": "uint256",
          "name": "dealId",
          "type": "uint256"
        },
        {
          "internalType": "uint256",
          "name": "amount",
          "type": "uint256"
        }
      ],
      "name": "extCreditCounterDeposit",
      "outputs": [],
      "stateMutability": "nonpayable",
      "type": "function"
    },
    {
      "inputs": [
        {
          "internalType": "uint256",
          "name": "dealId",
          "type": "uint256"
        },
        {
          "internalType": "address",
          "name": "dest",
          "type": "address"
        }
      ],
      "name": "extRescueBonus",
      "outputs": [],
      "stateMutability": "nonpayable",
      "type": "function"
    },
    {
      "inputs": [
        {
          "internalType": "uint256",
          "name": "dealId",
          "type": "uint256"
        }
      ],
      "name": "extSettle",
      "outputs": [],
      "stateMutability": "nonpayable",
      "type": "function"
    },
    {
      "inputs": [
        {
          "internalType": "uint256",
          "name": "dealId",
          "type": "uint256"
        }
      ],
      "name": "extWalkAwayPenalty",
      "outputs": [],
      "stateMutability": "nonpayable",
      "type": "function"
    },
    {
      "inputs": [
        {
          "internalType": "uint256",
          "name": "dealId",
          "type": "uint256"
        },
        {
          "internalType": "address",
          "name": "buyer",
          "type": "address"
        },
        {
          "internalType": "uint256",
          "name": "amount",
          "type": "uint256"
        }
      ],
      "name": "extWithdrawAddOn",
      "outputs": [],
      "stateMutability": "nonpayable",
      "type": "function"
    },
    {
      "inputs": [
        {
          "internalType": "uint256",
          "name": "dealId",
          "type": "uint256"
        }
      ],
      "name": "forceCancelDeal",
      "outputs": [],
      "stateMutability": "nonpayable",
      "type": "function"
    },
    {
      "inputs": [
        {
          "internalType": "uint256",
          "name": "dealId",
          "type": "uint256"
        }
      ],
      "name": "forceComplete",
      "outputs": [],
      "stateMutability": "nonpayable",
      "type": "function"
    },
    {
      "inputs": [
        {
          "internalType": "uint256",
          "name": "dealId",
          "type": "uint256"
        }
      ],
      "name": "freezeDeal",
      "outputs": [],
      "stateMutability": "nonpayable",
      "type": "function"
    },
    {
      "inputs": [
        {
          "internalType": "uint256",
          "name": "dealId",
          "type": "uint256"
        }
      ],
      "name": "fundDeal",
      "outputs": [],
      "stateMutability": "nonpayable",
      "type": "function"
    },
    {
      "inputs": [
        {
          "internalType": "uint256",
          "name": "dealId",
          "type": "uint256"
        },
        {
          "internalType": "address",
          "name": "token",
          "type": "address"
        }
      ],
      "name": "getAddOnDeposit",
      "outputs": [
        {
          "internalType": "uint256",
          "name": "",
          "type": "uint256"
        }
      ],
      "stateMutability": "view",
      "type": "function"
    },
    {
      "inputs": [
        {
          "internalType": "address",
          "name": "account",
          "type": "address"
        },
        {
          "internalType": "address",
          "name": "token",
          "type": "address"
        }
      ],
      "name": "getClaimable",
      "outputs": [
        {
          "internalType": "uint256",
          "name": "",
          "type": "uint256"
        }
      ],
      "stateMutability": "view",
      "type": "function"
    },
    {
      "inputs": [
        {
          "internalType": "uint256",
          "name": "dealId",
          "type": "uint256"
        }
      ],
      "name": "getDealFull",
      "outputs": [
        {
          "internalType": "bool",
          "name": "exists",
          "type": "bool"
        },
        {
          "internalType": "uint256",
          "name": "playerId",
          "type": "uint256"
        },
        {
          "internalType": "address",
          "name": "sellingClub",
          "type": "address"
        },
        {
          "internalType": "address",
          "name": "buyingClub",
          "type": "address"
        },
        {
          "internalType": "address",
          "name": "paymentToken",
          "type": "address"
        },
        {
          "internalType": "uint256",
          "name": "transferFee",
          "type": "uint256"
        },
        {
          "internalType": "uint256",
          "name": "signingBonusAmount",
          "type": "uint256"
        },
        {
          "internalType": "bool",
          "name": "signingBonusClaimed",
          "type": "bool"
        },
        {
          "internalType": "uint8",
          "name": "state",
          "type": "uint8"
        },
        {
          "internalType": "uint256",
          "name": "stateDeadline",
          "type": "uint256"
        },
        {
          "internalType": "address",
          "name": "originalBuyer",
          "type": "address"
        }
      ],
      "stateMutability": "view",
      "type": "function"
    },
    {
      "inputs": [
        {
          "internalType": "uint256",
          "name": "dealId",
          "type": "uint256"
        }
      ],
      "name": "getDealView",
      "outputs": [
        {
          "components": [
            {
              "internalType": "bool",
              "name": "exists",
              "type": "bool"
            },
            {
              "internalType": "address",
              "name": "sellingClub",
              "type": "address"
            },
            {
              "internalType": "address",
              "name": "buyingClub",
              "type": "address"
            },
            {
              "internalType": "address",
              "name": "paymentToken",
              "type": "address"
            },
            {
              "internalType": "uint256",
              "name": "transferFee",
              "type": "uint256"
            },
            {
              "internalType": "enum IDealEscrow.DealState",
              "name": "state",
              "type": "uint8"
            },
            {
              "internalType": "uint256",
              "name": "stateDeadline",
              "type": "uint256"
            }
          ],
          "internalType": "struct IDealEscrow.DealView",
          "name": "v",
          "type": "tuple"
        }
      ],
      "stateMutability": "view",
      "type": "function"
    },
    {
      "inputs": [
        {
          "internalType": "uint256",
          "name": "dealId",
          "type": "uint256"
        }
      ],
      "name": "getExpiryView",
      "outputs": [
        {
          "internalType": "bool",
          "name": "exists",
          "type": "bool"
        },
        {
          "internalType": "bool",
          "name": "frozen",
          "type": "bool"
        },
        {
          "internalType": "uint8",
          "name": "state",
          "type": "uint8"
        },
        {
          "internalType": "uint256",
          "name": "stateDeadline",
          "type": "uint256"
        },
        {
          "internalType": "uint256",
          "name": "mutualCancelDeadline",
          "type": "uint256"
        },
        {
          "internalType": "address",
          "name": "mutualCancelProposer",
          "type": "address"
        }
      ],
      "stateMutability": "view",
      "type": "function"
    },
    {
      "inputs": [
        {
          "internalType": "uint256",
          "name": "dealId",
          "type": "uint256"
        },
        {
          "internalType": "uint8",
          "name": "index",
          "type": "uint8"
        }
      ],
      "name": "getInstallment",
      "outputs": [
        {
          "components": [
            {
              "internalType": "uint256",
              "name": "amount",
              "type": "uint256"
            },
            {
              "internalType": "uint256",
              "name": "dueDate",
              "type": "uint256"
            },
            {
              "internalType": "bool",
              "name": "paid",
              "type": "bool"
            }
          ],
          "internalType": "struct TransferTypes.Installment",
          "name": "",
          "type": "tuple"
        }
      ],
      "stateMutability": "view",
      "type": "function"
    },
    {
      "inputs": [
        {
          "internalType": "uint256",
          "name": "playerId",
          "type": "uint256"
        }
      ],
      "name": "getPlayerDeal",
      "outputs": [
        {
          "internalType": "uint256",
          "name": "",
          "type": "uint256"
        }
      ],
      "stateMutability": "view",
      "type": "function"
    },
    {
      "inputs": [
        {
          "internalType": "bytes32",
          "name": "role",
          "type": "bytes32"
        }
      ],
      "name": "getRoleAdmin",
      "outputs": [
        {
          "internalType": "bytes32",
          "name": "",
          "type": "bytes32"
        }
      ],
      "stateMutability": "view",
      "type": "function"
    },
    {
      "inputs": [
        {
          "internalType": "bytes32",
          "name": "role",
          "type": "bytes32"
        },
        {
          "internalType": "address",
          "name": "account",
          "type": "address"
        }
      ],
      "name": "grantRole",
      "outputs": [],
      "stateMutability": "nonpayable",
      "type": "function"
    },
    {
      "inputs": [
        {
          "internalType": "bytes32",
          "name": "role",
          "type": "bytes32"
        },
        {
          "internalType": "address",
          "name": "account",
          "type": "address"
        }
      ],
      "name": "hasRole",
      "outputs": [
        {
          "internalType": "bool",
          "name": "",
          "type": "bool"
        }
      ],
      "stateMutability": "view",
      "type": "function"
    },
    {
      "inputs": [
        {
          "internalType": "address",
          "name": "_playerRegistry",
          "type": "address"
        },
        {
          "internalType": "address",
          "name": "_addressRegistry",
          "type": "address"
        },
        {
          "internalType": "address",
          "name": "_treasury",
          "type": "address"
        },
        {
          "internalType": "address",
          "name": "_admin",
          "type": "address"
        }
      ],
      "name": "initialize",
      "outputs": [],
      "stateMutability": "nonpayable",
      "type": "function"
    },
    {
      "inputs": [
        {
          "components": [
            {
              "internalType": "uint256",
              "name": "offerId",
              "type": "uint256"
            },
            {
              "internalType": "uint256",
              "name": "playerId",
              "type": "uint256"
            },
            {
              "internalType": "address",
              "name": "sellingClub",
              "type": "address"
            },
            {
              "internalType": "address",
              "name": "buyingClub",
              "type": "address"
            },
            {
              "internalType": "address",
              "name": "paymentToken",
              "type": "address"
            },
            {
              "internalType": "uint256",
              "name": "transferFee",
              "type": "uint256"
            },
            {
              "internalType": "uint256",
              "name": "sellOnBps",
              "type": "uint256"
            },
            {
              "internalType": "address",
              "name": "sellOnRecipient",
              "type": "address"
            },
            {
              "internalType": "uint256",
              "name": "sellerAgentBps",
              "type": "uint256"
            },
            {
              "internalType": "address",
              "name": "sellerAgent",
              "type": "address"
            },
            {
              "internalType": "uint256",
              "name": "buyerAgentBps",
              "type": "uint256"
            },
            {
              "internalType": "address",
              "name": "buyerAgent",
              "type": "address"
            },
            {
              "internalType": "uint256",
              "name": "signingBonusMonths",
              "type": "uint256"
            },
            {
              "internalType": "uint256",
              "name": "signingBonusAmount",
              "type": "uint256"
            },
            {
              "internalType": "uint256[]",
              "name": "installmentAmounts",
              "type": "uint256[]"
            },
            {
              "internalType": "uint256[]",
              "name": "installmentDueDates",
              "type": "uint256[]"
            }
          ],
          "internalType": "struct TransferTypes.DealInitParams",
          "name": "p",
          "type": "tuple"
        },
        {
          "components": [
            {
              "internalType": "string",
              "name": "description",
              "type": "string"
            },
            {
              "internalType": "uint256",
              "name": "amount",
              "type": "uint256"
            },
            {
              "internalType": "bool",
              "name": "toPlayer",
              "type": "bool"
            },
            {
              "internalType": "bool",
              "name": "triggered",
              "type": "bool"
            }
          ],
          "internalType": "struct TransferTypes.AddOn[]",
          "name": "addOns",
          "type": "tuple[]"
        }
      ],
      "name": "initializeDeal",
      "outputs": [
        {
          "internalType": "uint256",
          "name": "dealId",
          "type": "uint256"
        }
      ],
      "stateMutability": "nonpayable",
      "type": "function"
    },
    {
      "inputs": [],
      "name": "pause",
      "outputs": [],
      "stateMutability": "nonpayable",
      "type": "function"
    },
    {
      "inputs": [],
      "name": "paused",
      "outputs": [
        {
          "internalType": "bool",
          "name": "",
          "type": "bool"
        }
      ],
      "stateMutability": "view",
      "type": "function"
    },
    {
      "inputs": [],
      "name": "pendingTreasury",
      "outputs": [
        {
          "internalType": "address",
          "name": "",
          "type": "address"
        },
        {
          "internalType": "uint256",
          "name": "",
          "type": "uint256"
        }
      ],
      "stateMutability": "view",
      "type": "function"
    },
    {
      "inputs": [],
      "name": "playerRegistry",
      "outputs": [
        {
          "internalType": "contract IPlayerRegistry",
          "name": "",
          "type": "address"
        }
      ],
      "stateMutability": "view",
      "type": "function"
    },
    {
      "inputs": [
        {
          "internalType": "uint256",
          "name": "dealId",
          "type": "uint256"
        }
      ],
      "name": "proposeMutualCancel",
      "outputs": [],
      "stateMutability": "nonpayable",
      "type": "function"
    },
    {
      "inputs": [],
      "name": "protocolFeeBps",
      "outputs": [
        {
          "internalType": "uint256",
          "name": "",
          "type": "uint256"
        }
      ],
      "stateMutability": "view",
      "type": "function"
    },
    {
      "inputs": [],
      "name": "proxiableUUID",
      "outputs": [
        {
          "internalType": "bytes32",
          "name": "",
          "type": "bytes32"
        }
      ],
      "stateMutability": "view",
      "type": "function"
    },
    {
      "inputs": [
        {
          "internalType": "uint256",
          "name": "dealId",
          "type": "uint256"
        }
      ],
      "name": "raiseDispute",
      "outputs": [],
      "stateMutability": "nonpayable",
      "type": "function"
    },
    {
      "inputs": [
        {
          "internalType": "uint256",
          "name": "dealId",
          "type": "uint256"
        }
      ],
      "name": "rejectMedicalRenegotiation",
      "outputs": [],
      "stateMutability": "nonpayable",
      "type": "function"
    },
    {
      "inputs": [
        {
          "internalType": "bytes32",
          "name": "role",
          "type": "bytes32"
        },
        {
          "internalType": "address",
          "name": "callerConfirmation",
          "type": "address"
        }
      ],
      "name": "renounceRole",
      "outputs": [],
      "stateMutability": "nonpayable",
      "type": "function"
    },
    {
      "inputs": [
        {
          "internalType": "uint256",
          "name": "dealId",
          "type": "uint256"
        }
      ],
      "name": "resolveDispute",
      "outputs": [],
      "stateMutability": "nonpayable",
      "type": "function"
    },
    {
      "inputs": [
        {
          "internalType": "bytes32",
          "name": "role",
          "type": "bytes32"
        },
        {
          "internalType": "address",
          "name": "account",
          "type": "address"
        }
      ],
      "name": "revokeRole",
      "outputs": [],
      "stateMutability": "nonpayable",
      "type": "function"
    },
    {
      "inputs": [
        {
          "internalType": "address",
          "name": "token",
          "type": "address"
        }
      ],
      "name": "revokeToken",
      "outputs": [],
      "stateMutability": "nonpayable",
      "type": "function"
    },
    {
      "inputs": [
        {
          "internalType": "address",
          "name": "newTreasury",
          "type": "address"
        }
      ],
      "name": "scheduleProtocolTreasuryUpdate",
      "outputs": [],
      "stateMutability": "nonpayable",
      "type": "function"
    },
    {
      "inputs": [
        {
          "internalType": "address",
          "name": "mgr",
          "type": "address"
        }
      ],
      "name": "setCompetingBidManager",
      "outputs": [],
      "stateMutability": "nonpayable",
      "type": "function"
    },
    {
      "inputs": [
        {
          "internalType": "uint256",
          "name": "bps",
          "type": "uint256"
        }
      ],
      "name": "setProtocolFee",
      "outputs": [],
      "stateMutability": "nonpayable",
      "type": "function"
    },
    {
      "inputs": [
        {
          "internalType": "uint8",
          "name": "which",
          "type": "uint8"
        },
        {
          "internalType": "uint256",
          "name": "d",
          "type": "uint256"
        }
      ],
      "name": "setTimer",
      "outputs": [],
      "stateMutability": "nonpayable",
      "type": "function"
    },
    {
      "inputs": [
        {
          "internalType": "uint256",
          "name": "dealId",
          "type": "uint256"
        },
        {
          "internalType": "enum TransferTypes.MedicalOutcome",
          "name": "outcome",
          "type": "uint8"
        },
        {
          "internalType": "bytes32",
          "name": "medicalHash",
          "type": "bytes32"
        }
      ],
      "name": "submitMedical",
      "outputs": [],
      "stateMutability": "nonpayable",
      "type": "function"
    },
    {
      "inputs": [
        {
          "internalType": "bytes4",
          "name": "interfaceId",
          "type": "bytes4"
        }
      ],
      "name": "supportsInterface",
      "outputs": [
        {
          "internalType": "bool",
          "name": "",
          "type": "bool"
        }
      ],
      "stateMutability": "view",
      "type": "function"
    },
    {
      "inputs": [
        {
          "internalType": "uint8",
          "name": "",
          "type": "uint8"
        }
      ],
      "name": "timers",
      "outputs": [
        {
          "internalType": "uint256",
          "name": "",
          "type": "uint256"
        }
      ],
      "stateMutability": "view",
      "type": "function"
    },
    {
      "inputs": [],
      "name": "totalDeals",
      "outputs": [
        {
          "internalType": "uint256",
          "name": "",
          "type": "uint256"
        }
      ],
      "stateMutability": "view",
      "type": "function"
    },
    {
      "inputs": [],
      "name": "treasury",
      "outputs": [
        {
          "internalType": "address",
          "name": "",
          "type": "address"
        }
      ],
      "stateMutability": "view",
      "type": "function"
    },
    {
      "inputs": [
        {
          "internalType": "uint256",
          "name": "dealId",
          "type": "uint256"
        },
        {
          "internalType": "uint256",
          "name": "idx",
          "type": "uint256"
        }
      ],
      "name": "triggerAddOn",
      "outputs": [],
      "stateMutability": "nonpayable",
      "type": "function"
    },
    {
      "inputs": [
        {
          "internalType": "uint256",
          "name": "dealId",
          "type": "uint256"
        }
      ],
      "name": "unfreezeDeal",
      "outputs": [],
      "stateMutability": "nonpayable",
      "type": "function"
    },
    {
      "inputs": [],
      "name": "unpause",
      "outputs": [],
      "stateMutability": "nonpayable",
      "type": "function"
    },
    {
      "inputs": [
        {
          "internalType": "address",
          "name": "newImplementation",
          "type": "address"
        },
        {
          "internalType": "bytes",
          "name": "data",
          "type": "bytes"
        }
      ],
      "name": "upgradeToAndCall",
      "outputs": [],
      "stateMutability": "payable",
      "type": "function"
    },
    {
      "inputs": [
        {
          "internalType": "address",
          "name": "token",
          "type": "address"
        }
      ],
      "name": "withdrawClaimable",
      "outputs": [],
      "stateMutability": "nonpayable",
      "type": "function"
    },
    {
      "inputs": [
        {
          "internalType": "address",
          "name": "token",
          "type": "address"
        },
        {
          "internalType": "uint256",
          "name": "amount",
          "type": "uint256"
        }
      ],
      "name": "withdrawFees",
      "outputs": [],
      "stateMutability": "nonpayable",
      "type": "function"
    }
  ],
  "bytecode": "0x60a080604052346100c257306080525f5160206152305f395f51905f525460ff8160401c166100b3576002600160401b03196001600160401b03821601610060575b60405161516990816100c782396080518181816132e401526133af0152f35b6001600160401b0319166001600160401b039081175f5160206152305f395f51905f525581527fc7f505b2f371ae2175ee4913f4499e1f2633a7b5936321eed1cdaeb6115181d290602090a15f80610041565b63f92ee8a960e01b5f5260045ffd5b5f80fdfe60806040526004361015610011575f80fd5b5f3560e01c8062a464d114613d9e57806301d9fcc914613cfa57806301ffc9a714613ca45780630f8f795914613c505780631510f85a14613b8c5780631ff634fd14613b64578063248a9ca314613b3e5780632656592814613ab857806327f84e3214613a7257806329bc34f0146139495780632ed6b75d1461391d5780632f2ff15d146138ec5780633015edc7146138ba578063340493a61461389357806335659fb81461387657806336568abe14613832578063389a93f8146137db5780633d7dc84a146137755780633f4ba83a146136f75780633fb81428146136a757806347d221591461360b5780634c74ef9c146135e35780634f0df8651461355d5780634f1ef2861461333857806352d1902d146132d25780635c975abb146132a45780635ea36b2d1461326057806360dded111461306f57806360e49e441461304857806361d027b3146130215780636b292e7014612ecb57806371c34a3414612db657806372db9e5314612b1a57806375b238fc14612af3578063787dce3d14612a8e5780637b61c63d146122405780637f00cb351461218357806380b2edd81461213957806383be499a14611fd45780638456cb5914611f6357806385d60ec614611c5857806389b2254214611c055780638abf7ff114611b7157806391d1485414611b1c578063933f4eef14611adb578063966d1f1d14611abe5780639a6c4c0c1461194b5780639bf437df14611905578063a217fddf146118eb578063a461dc6d146116a3578063a4ba80711461155a578063a5c1674e1461146c578063ad3b1b4714611355578063ad3cb1cc146112f7578063bbf0457a14611220578063bfadc8f9146111f6578063c2b7b86814611152578063cd7aaade146110e4578063d547741f146110ac578063e05e05e214611085578063f1c4f0af14610f5b578063f384a49014610ec7578063f3ad65f414610e9f578063f3ee48bb14610e1e578063f60d22ca14610cf4578063f6882f6314610b7d578063f7e5e9cd146109f8578063f81eb2f7146107ff578063f8c8765e14610516578063f951fbad146104445763fd263f7b14610325575f80fd5b3461044057606036600319011261044057600435610341613fd5565b906044359161034e6145e1565b815f52600a60205260405f205415610431575f828152600a60209081526040808320600e8352818420600390910180546001600160a01b03168086529190935292205490949192909190828211610422577fdcb617f0d761c10fef99546e0228867e9b0d34036af551f2cc6203b017ac4872936103cd836020956142a9565b5f878152600e865260408082206001600160a01b039485168352875280822092909255928216808452600d86528184209854909216835296845295902080546104179083906142b6565b9055604051908152a3005b63162908e360e11b5f5260045ffd5b63223da47360e21b5f5260045ffd5b5f80fd5b346104405760203660031901126104405760043561046061454f565b805f52600a60205260405f20541561043157805f52600a60205260405f2060118101805460ff81166105075760ff600e8401541661049d8161400b565b600d81149081156104f3575b506104e45760019060ff19161790556012429101557f2baeb19dd4781c77dafd82d1a22b7ac4f6ca38cfb10a1135ff41a3b4428a38ed5f80a2005b6372c24c3560e01b5f5260045ffd5b600e91506105008161400b565b14856104a9565b63e231c28f60e01b5f5260045ffd5b346104405760803660031901126104405761052f613fbf565b610537613fd5565b6044356001600160a01b0381169081900361044057606435906001600160a01b038216808303610440575f5160206150f45f395f51905f5254604081901c60ff161595906001600160401b038116801590816107f7575b60011490816107ed575b1590816107e4575b506107d5576001600160401b031981166001175f5160206150f45f395f51905f5255866107ad575b506001600160a01b031693841561079e576001600160a01b031690811561079e57821561079e571561079e5761074593610600614e5c565b610608614e5c565b60016004819055600780546001600160a01b0319908116939093179055600880548316939093179092555f805490911692909217825560096020526203f4807fec8156718a8372b1db44bb411437d0870f3e3790d4a08526d024ce1b0b668f6b8190557f92e85d02570a8092d09a6e3a57665bc3815a2699a4074001bf1ccabf660f5a368190556202a3007f6cde3cea4b3a3fb2488b2808bae7556f4a405e50f65e1794383bc026131b13c38190557fc575c31fea594a6eb97c8e9d3f9caee4c16218c6ef37e923234c0fe9014a61e7919091555f5160206150d45f395f51905f528190557f74b05292d1d4b2b48b65261b07099d24244bcb069f138d9a6bfdcf776becac4c81905560069092525f516020614f745f395f51905f52919091556032905561073581614b29565b5061073f81614b9f565b50614c1f565b5061074c57005b60ff60401b195f5160206150f45f395f51905f5254165f5160206150f45f395f51905f52557fc7f505b2f371ae2175ee4913f4499e1f2633a7b5936321eed1cdaeb6115181d2602060405160018152a1005b63e6c4247b60e01b5f5260045ffd5b6001600160481b0319166001600160401b01175f5160206150f45f395f51905f5255866105c8565b63f92ee8a960e01b5f5260045ffd5b905015886105a0565b303b159150610598565b88915061058e565b346104405760203660031901126104405760043561081b614dcc565b805f52600a60205260405f20541561043157805f52600a60205260ff601160405f20015416610507575f818152600a6020526040902060148101546001600160a01b031680156109e957601582015442116109da5733146109cb5760028101546001600160a01b031633141590816109b3575b506104e457807f579e90f7cabad8d77316c92a503862cb4783a203648db82f5b2d35fd73389d955f80a2805f52600a60205260405f20600e8101805490600e60ff83169260ff191617905581545f52600c6020525f60408120556108f18161400b565b600b811490811561099f575b50610933575b5060405160208160035f5160206150145f395f51905f529352a2005b634e487b7160e01b5f52602160045260245ffd5b815f52601060205260405f205f805260205261095860405f2054600b830154906142b6565b60028201546001600160a01b039081165f908152600d6020908152604080832060039096015490931682529390935290912080549091610997916142b6565b905581610903565b600c91506109ac8161400b565b14836108fd565b600101546001600160a01b031633141590508261088e565b636081c93760e01b5f5260045ffd5b636124f5e360e11b5f5260045ffd5b63d87db87b60e01b5f5260045ffd5b3461044057602036600319011261044057600435610a14614dcc565b805f52600a60205260405f20541561043157805f52600a60205260ff601160405f2001541661050757805f52600a60205260405f2090600e82018054600560ff8216610a5f8161400b565b036104e457600f84019384544211610b6e576007548154604051631cab5c9d60e31b8152600481018290529096915f90829060249082906001600160a01b03165afa8015610b6357610120915f91610b41575b500180516001600160a01b031615610b3257516001600160a01b03163303610b23575f93600a60109460ff1916179055600584526009602052610af96040852054426142b6565b905501557f173620804848de4def17bad4f232db2cda858a822ae975c722b97cf0fe2c1bfa5f80a3005b631d3c442d60e21b5f5260045ffd5b6382bcaa3b60e01b5f5260045ffd5b610b5d91503d805f833e610b558183614030565b810190614114565b88610ab2565b6040513d5f823e3d90fd5b63839ec5c560e01b5f5260045ffd5b3461044057610b8b36613fa9565b610b93614dcc565b815f52600a60205260405f20541561043157815f52600a60205260ff601160405f20015416610507575f828152600a6020526040902060018101546001600160a01b03163303610ce557600e810191600760ff845416610bf28161400b565b036104e457600f820180544211610cd65781158015610cc2575b610422577f3ecbc4d085035a7e1b9eb639b1b2e563cb0b7754fe8fe1e12afd903edb3bc409935f60108585600460209801805482818110610c79575b5050550155600660ff1982541617905560015f5260098352610c6e60405f2054426142b6565b9055604051908152a2005b610c82916142a9565b60028401546001600160a01b039081168752600d8b52604080882060038701549092168852908b52862080549091610cb9916142b6565b90558b82610c48565b50676765c793fa10079d601a1b8211610c0c565b63c052877160e01b5f5260045ffd5b6303e2f0f360e51b5f5260045ffd5b3461044057602036600319011261044057600435610d10614dcc565b805f52600a60205260405f20541561043157805f52600a60205260ff601160405f2001541661050757805f52600a60205260405f20600e8101805491600760ff8416610d5b8161400b565b036104e45760018101546001600160a01b031633141580610e07575b6104e457600f0191825480421115610de0575b5060089060ff191617905562093a80420190814211610dcc575533907ffc2989e9448442378c968e63f5573979bc5ed860dc5c48e906404733bd05d62a5f80a3005b634e487b7160e01b5f52601160045260245ffd5b610dfb9060045f52600960205260405f205460011c906142a9565b42106104e45784610d8a565b5060028101546001600160a01b0316331415610d77565b3461044057602036600319011261044057610e37613fbf565b610e3f614598565b6001600160a01b0316801561079e57600280546001600160a01b03191682179055426202a3008101908110610dcc576020817f686003c563ac6d53a1e0d2aea06fc73beb941f8f05f3463b33b607717aabc67f92600355604051908152a2005b34610440575f366003190112610440576008546040516001600160a01b039091168152602090f35b3461044057610ed536613fa9565b610edd61463d565b815f52600a60205260405f20541561043157815f52600a602052600a60ff600e60405f20015416610f0d8161400b565b036104e457801561042257815f52601060205260405f205f805260205260405f20549081811161042257610f40916142a9565b905f52601060205260405f205f805260205260405f20555f80f35b3461044057604036600319011261044057600435610f77613fd5565b90610f806145e1565b805f52600a60205260405f20541561043157805f52600a60205260405f2091600d60ff600e85015416610fb28161400b565b036104e457600b830190815491821561107657600c85019283549260ff841661106757600d8701544211156110585760ff199093166001179093556001600160a01b039182165f818152600d60209081526040808320600390990154909516825296875292909220805492957fc5b97e8782f0398548aef2871b18abaa21039a2820a3460d4b5c06a2bbe769ed94909361104c91906142b6565b905554604051908152a3005b63d50a31bb60e01b5f5260045ffd5b631f815d9160e11b5f5260045ffd5b635af3421960e01b5f5260045ffd5b34610440575f3660031901126104405760206040515f5160206150945f395f51905f528152f35b34610440576040366003190112610440576110e26004356110cb613fd5565b906110dd6110d882614325565b614699565b614d30565b005b34610440576060366003190112610440576110fd613fbf565b611105613fd5565b6044359161111161463d565b6001600160a01b0316801561079e578215610422575f52600d60205260405f209060018060a01b03165f5260205261114e60405f209182546142b6565b9055005b346104405760203660031901126104405760043561116e61454f565b6002600454146111e7576002600455805f52600a60205260405f20541561043157805f52600a602052600c60ff600e60405f200154166111ad8161400b565b036104e457806111e0917f57cce005d496355471bb5269f1dea3d6c81b6ac14c1d74ba28aefb022357013b5f80a26146df565b6001600455005b6306fda65d60e31b5f5260045ffd5b34610440576020366003190112610440576004355f52600c602052602060405f2054604051908152f35b346104405761122e36613fa9565b90611237614dcc565b6002600454146111e7576002600455805f52600a60205260405f20541561043157805f52600a60205260405f20600d60ff600e830154166112778161400b565b036104e45760028101546001600160a01b031633036112e857821561042257600301906112b18360018060a01b0384541630903390614df3565b5f908152600e6020908152604080832093546001600160a01b0316835292905220805490916112df916142b6565b90556001600455005b631f3cbf7b60e31b5f5260045ffd5b34610440575f3660031901126104405760408051906113168183614030565b600582526020820191640352e302e360dc1b83528151928391602083525180918160208501528484015e5f828201840152601f01601f19168101030190f35b346104405760403660031901126104405761136e613fbf565b6024359061137a614598565b6002600454146111e7576002600455811561145d575f546001600160a01b0316801561079e57805f52600d60205260405f2060018060a01b0383165f5260205260405f205480841161144757836113d0916142a9565b5f918252600d602090815260408084206001600160a01b03958616808652925283209190915590549092916114089183911684614aa8565b5f546040519182526001600160a01b0316907f8fc241308ffc17817e6a8c6a52a8f7cd4931dfca0c539fd35a630311c7e4c57b90602090a36001600455005b8363ac28c08360e01b5f5260045260245260445ffd5b630686827b60e51b5f5260045ffd5b3461044057602036600319011261044057600435611488614dcc565b805f52600a60205260405f20541561043157805f52600a60205260ff601160405f2001541661050757805f52600a60205260405f20600e810190815490600b60ff83166114d48161400b565b036104e457600f81015442101561154b5760028101546001600160a01b03163314159081611533575b506104e45760ff1916600c17905533907f84a477df8a28a4276ca6dee4458a06c3015f30c477d9c949ede4e13ff8a552b45f80a3005b600101546001600160a01b03163314159050846114fd565b63234c0ffd60e21b5f5260045ffd5b3461044057602036600319011261044057600435805f52600a60205260405f20541561043157805f52600a60205260405f20600d60ff600e8301541661159f8161400b565b036104e457600b810190815490811561107657600c8101805460ff81166110675760018060a01b03600754165f8454602460405180948193631cab5c9d60e31b835260048301525afa8015610b6357610120915f91611689575b500180516001600160a01b031615610b3257516001600160a01b03163303610b235760ff19166001179055335f908152600d602090815260408083206003909401546001600160a01b031683529290522080549091611657916142b6565b905554906040519182527f68afe7ecfeac2108bf74c8d4bb1d8c04f3799bd71673fa3e10e274e1cbf28a7960203393a3005b61169d91503d805f833e610b558183614030565b886115f9565b3461044057606036600319011261044057600435602435600481101561044057604435906116cf614dcc565b825f52600a60205260405f20541561043157825f52600a60205260ff601160405f2001541661050757825f52600a60205260405f2091600e830191825491600660ff841661171c8161400b565b036104e45760028501546001600160a01b031633036112e857600f85019485544211610cd65760100180546118dc57811561079e5782156104225755847f8c0f79cb43223fbd00b73d4bbc8a0f62f1f2d6ddb3a6b650d90d0ee3557f683a6020604051848152a26001810361179857505050506110e2906146df565b60020361188957505050805f52600a60205260405f20600e8101805490600e60ff83169260ff191617905581545f52600c6020525f60408120556117db8161400b565b600b8114908115611875575b50611809575b5060405160208160055f5160206150145f395f51905f529352a2005b815f52601060205260405f205f805260205261182e60405f2054600b830154906142b6565b60028201546001600160a01b039081165f908152600d602090815260408083206003909601549093168252939093529091208054909161186d916142b6565b9055816117ed565b600c91506118828161400b565b14836117e7565b60ff1916600717905560045f5260096020525f5160206150d45f395f51905f52546118b490426142b6565b90557fb4a770b2db334eaf0ab77f3470dc51ac5bcd10a3033f309fd67a6385bd761e0b5f80a2005b63c0f9cf3b60e01b5f5260045ffd5b34610440575f3660031901126104405760206040515f8152f35b34610440576020366003190112610440576004356119216145e1565b6002600454146111e7576002600455805f52600a60205260405f205415610431576111e0906146df565b3461044057602036600319011261044057600435611967614dcc565b805f52600a60205260405f20541561043157805f52600a60205260ff601160405f2001541661050757805f52600a60205260405f2060ff600e820154166119ad8161400b565b600d8114908115611aa9575b8115611a94575b8115611a80575b506104e45760028101546001600160a01b031633141580611a69575b6104e4576014810180546001600160a01b0316611a5a5780546001600160a01b0319163317905560065f5260096020525f516020614f745f395f51905f5254601590611a2f90426142b6565b91015533907f7457f5ceee8e52b1ef56c933d90340dfbda61ea10b7e9be55550e9435d91bc775f80a3005b63ed8dd1bd60e01b5f5260045ffd5b5060018101546001600160a01b03163314156119e3565b600c9150611a8d8161400b565b14836119c7565b9050611a9f8161400b565b600b8114906119c0565b9050611ab48161400b565b600e8114906119b9565b34610440575f366003190112610440576020600654604051908152f35b3461044057602036600319011261044057611af4613fbf565b611afc614598565b6001600160a01b03165f908152600f60205260409020805460ff19169055005b3461044057604036600319011261044057611b35613fd5565b6004355f525f5160206150345f395f51905f5260205260405f209060018060a01b03165f52602052602060ff60405f2054166040519015158152f35b3461044057604036600319011261044057611b8a613feb565b5f60408051611b9881614015565b82815282602082015201526004355f52601060205260ff60405f2091165f52602052606060405f20604051611bcc81614015565b815491828252604060ff600260018401549360208601948552015416920191151582526040519283525160208301525115156040820152f35b3461044057602036600319011261044057600435611c216145e1565b805f52600a60205260405f205415610431575f908152600a602052604081206014810180546001600160a01b031916905560150155005b3461044057602036600319011261044057600435611c74614dcc565b6002600454146111e7576002600455805f52600a60205260405f20541561043157805f52600a60205260ff601160405f2001541661050757805f52600a60205260405f2090600e8201600a60ff825416611ccd8161400b565b036104e45760028301546001600160a01b031633036112e8576005546001600160a01b03168015159081611ef4575b506104e457600f83019081544211611ee55760085460405163023aa9ab60e61b81527fd8e6c8b39dbc70333b42d059fa436cf2679722325c0f6ed7e701df0b05a637c8600482015290602090829060249082906001600160a01b03165afa908115610b63575f91611ea6575b50604051636896470560e11b815290602090829060049082906001600160a01b03165afa908115610b63575f91611e6c575b5015611e5d57825f52601060205260405f205f8052602052611de2611dc860405f2054600b870154906142b6565b6003909501548590309033906001600160a01b0316614df3565b825f52601060205260405f205f8052602052600260405f2001600160ff19825416179055600660ff1982541617905560015f526009602052611e2860405f2054426142b6565b90556040519182527fc8fceb94d8cfaf3010a32f39dbdb0c0b361b10cdd6c7299d60376c85ff61283760203393a36001600455005b6304d54fbf60e41b5f5260045ffd5b90506020813d602011611e9e575b81611e8760209383614030565b8101031261044057611e9890614107565b85611d9a565b3d9150611e7a565b90506020813d602011611edd575b81611ec160209383614030565b81010312610440576020611ed66004926140e1565b9150611d68565b3d9150611eb4565b633833dfbb60e01b5f5260045ffd5b60249150602090604051928380926336ef202560e11b82528760048301525afa908115610b63575f91611f29575b5084611cfc565b90506020813d602011611f5b575b81611f4460209383614030565b8101031261044057611f5590614107565b84611f22565b3d9150611f37565b34610440575f36600319011261044057611f7b614598565b611f83614dcc565b600160ff195f5160206150745f395f51905f525416175f5160206150745f395f51905f52557f62e78cea01bee320cd4e420270b5ea74000d11b0c9f74754ebdbfc544b05a2586020604051338152a1005b3461044057602036600319011261044057600435611ff0614dcc565b805f52600a60205260405f20541561043157805f52600a60205260ff601160405f20015416610507575f818152600a6020526040902060018101546001600160a01b03163303610ce55760ff600e60079201541661204d8161400b565b036104e457805f52600a60205260405f20600e8101805490600e60ff83169260ff191617905581545f52600c6020525f604081205561208b8161400b565b600b8114908115612125575b506120b9575b5060405160208160025f5160206150145f395f51905f529352a2005b815f52601060205260405f205f80526020526120de60405f2054600b830154906142b6565b60028201546001600160a01b039081165f908152600d602090815260408083206003909601549093168252939093529091208054909161211d916142b6565b90558161209d565b600c91506121328161400b565b1483612097565b3461044057602036600319011261044057612152613fbf565b61215a614598565b6001600160a01b0316801561079e575f908152600f60205260409020805460ff19166001179055005b346104405760203660031901126104405760043561219f61454f565b805f52600a60205260405f20541561043157805f52600a60205260405f20601181019081549160ff831615612231575f926012830192600f6121e28554426142a9565b9101908154908161221e575b50505060ff19169055557f9d9b6c6fd020eade06cab024fe4853c17d4ee689fa225e44b23c82908c1529205f80a2005b612227916142b6565b90558580806121ee565b634c22487160e01b5f5260045ffd5b34610440576040366003190112610440576001600160401b03600435116104405761020060043536036003190112610440576024356001600160401b0381116104405736602382011215610440576001600160401b0360048201351161044057366024826004013560051b83010111610440576122bb6145e1565b6006545f198114610dcc576001810160065561232260206122e76101c4600435016004356004016144c5565b6123346122ff6101e4600435016004356004016144c5565b6040516305cef8bf60e31b815260606004820152968795869560648701916144fa565b848103600319016024860152916144fa565b60a460043501356044830152038173__$d9d5ca12ac0847b5930a2330ee53d4fb3d$__5af4908115610b63575f91612a5c575b5061237660446004350161451e565b61238460646004350161451e565b61239260846004350161451e565b6123a060e46004350161451e565b6123af6101246004350161451e565b906123bf6101646004350161451e565b925f805260096020526123d660405f2054426142b6565b604051969095906001600160401b036102c089019081119089111761290f576102c0880160405260246004350135885260018060a01b0316602088015260018060a01b0316604087015260018060a01b0316606086015260a46004350135608086015260c4600435013560a086015260018060a01b031660c0850152610104600435013560e085015260018060a01b0316610100840152610144600435013561012084015260018060a01b03166101408301526101a460043501356101608301525f6101808301525f6101a083015260056101c08301526101e08201525f6102008201525f6102208201525f6102408201525f6102608201525f6102808201525f6102a0820152600183015f52600a60205260156102a060405f20928051845560018060a01b03602082015116600185019060018060a01b031660018060a01b031982541617905560018060a01b03604082015116600285019060018060a01b031660018060a01b031982541617905560018060a01b03606082015116600385019060018060a01b031660018060a01b03198254161790556080810151600485015560a0810151600585015560018060a01b0360c082015116600685019060018060a01b031660018060a01b031982541617905560e0810151600785015560018060a01b0361010082015116600885019060018060a01b031660018060a01b0319825416179055610120810151600985015560018060a01b0361014082015116600a85019060018060a01b031660018060a01b0319825416179055610160810151600b8501556126306101808201511515600c86016144b4565b6101a0810151600d850155600e84016101c082015161264e8161400b565b6126578161400b565b60ff801983541691161790556101e0810151600f850155610200810151601085015561268d6102208201511515601186016144b4565b61024081015160128501556102608101516013850180546001600160a01b039283166001600160a01b03199182161790915561028083015160148701805491909316911617905501519101555f5b8181106129c6575f84843682900360a219015b826004013584101561292357600182015f52600b60205260405f209360248160051b8501013582811215610440578401948054600160401b81101561290f5761273c9160018201815561406e565b9590956128fc57602481013560421936839003018112156104405781016024019586356001600160401b038111610440578036036020890113610440578154600181811c911680156128f2575b60208210146128de57601f8111612899575b505f601f8211600114612824576127f992826084936002936001999a9b9c5f92612816575b50505f19600383901b1c191690881b1781555b60448501358782015501926127f36127ed60648301614542565b856144b4565b01614542565b815461ff00191690151560081b61ff0016179055019291906126ee565b602092500101358c806127c0565b601f19821690835f5260205f20915f5b81811061287f5750836002936001999a9b9c6127f997946084978c9510612863575b505050811b0181556127d3565b01602001355f19600384901b60f8161c191690558c8080612856565b9192602060018192828f8801013581550194019201612834565b825f5260205f20601f830160051c810191602084106128d4575b601f0160051c01905b8181106128c9575061279b565b5f81556001016128bc565b90915081906128b3565b634e487b7160e01b5f52602260045260245ffd5b90607f1690612789565b634e487b7160e01b5f525f60045260245ffd5b634e487b7160e01b5f52604160045260245ffd5b602082602460043501355f52600c82526001810160405f205560018060a01b0361295160646004350161451e565b166040519060246004350135600184017f5ba2d3aaa8e1e5bbbd9f867713ff8003713fc0f7e68663f60f68f2e151f4c7e75f80a46001600160a01b0361299b60043560640161451e565b16815260246004350135905f516020614ff45f395f51905f52846001850192a3600160405191018152f35b80612a566129eb6001936129e56101c4600435016004356004016144c5565b90614532565b356002612a07846129e56101e4600435016004356004016144c5565b3560405192612a1584614015565b83526020830190815260408301905f82528689015f52601060205260405f2060ff808816165f5260205260405f2093518455518684015551151591016144b4565b016126db565b90506020813d602011612a86575b81612a7760209383614030565b81010312610440575183612367565b3d9150612a6a565b3461044057602036600319011261044057600435612aaa614598565b6107d08111612ae4576020817fd10d75876659a287a59a6ccfa2e3fff42f84d94b542837acd30bc184d562de4092600155604051908152a1005b63499fddb160e01b5f5260045ffd5b34610440575f3660031901126104405760206040515f5160206150b45f395f51905f528152f35b346104405760c036600319011261044057600435612b36613fd5565b906044356084356001600160a01b03811681036104405760a43590612b5961463d565b835f52600a60205260405f205415610431576002600454146111e7576002600455835f52600a60205260405f2092600e84019560ff875416612b9a8161400b565b60068114159081612da1575b506104e45760ff601186015416610507576001600160a01b031695861561079e578115610422576013850180546001600160a01b031615612d7b575b5060018060a01b0360075416925f8654602460405180978193631cab5c9d60e31b835260048301525afa908115610b6357889588955f93612d5f575b505f9281151580612d52575b612d08575b5050602095938795937f535fff337cc06e7ebc5c59d8884ac9de8b73a4aa3ebe96f8bad6a6b0a223108893889360025f516020614ff45f395f51905f529b018860018060a01b03198254161790558360048a015560643560098a0155600a89019060018060a01b031660018060a01b0319825416179055600b880155600c870160ff1981541690555f6010880155600660ff1982541617905560015f5260098252612cde60405f2054426142b6565b600f87015585545f52600c82528360405f2055604051908152a35493604051908152a36001600455005b9197955095506080915001518060021b9080820460041490151715610dcc57848102948186041490151715610dcc5791938693869391835f516020614ff45f395f51905f52612c2f565b5060808101511515612c2a565b612d749193503d805f833e610b558183614030565b918a612c1e565b600286015481546001600160a01b0319166001600160a01b039190911617905587612be2565b600e9150612dae8161400b565b141588612ba6565b3461044057602036600319011261044057600435612dd26145e1565b805f52600a60205260405f20541561043157805f52600a60205260405f20600e8101805490600e60ff83169260ff191617905581545f52600c6020525f6040812055612e1d8161400b565b600b8114908115612eb7575b50612e4b575b5060405160208160075f5160206150145f395f51905f529352a2005b815f52601060205260405f205f8052602052612e7060405f2054600b830154906142b6565b60028201546001600160a01b039081165f908152600d6020908152604080832060039096015490931682529390935290912080549091612eaf916142b6565b905581612e2f565b600c9150612ec48161400b565b1483612e29565b3461044057602036600319011261044057600435612ee761454f565b805f52600a60205260405f20541561043157805f52600a60205260ff600e60405f20015416612f158161400b565b600d811490811561300d575b506104e457805f52600a60205260405f20600e8101805490600e60ff83169260ff191617905581545f52600c6020525f6040812055612f5f8161400b565b600b8114908115612ff9575b50612f8d575b50604051602081600e5f5160206150145f395f51905f529352a2005b815f52601060205260405f205f8052602052612fb260405f2054600b830154906142b6565b60028201546001600160a01b039081165f908152600d6020908152604080832060039096015490931682529390935290912080549091612ff1916142b6565b905581612f71565b600c91506130068161400b565b1483612f6b565b600e915061301a8161400b565b1482612f21565b34610440575f366003190112610440575f546040516001600160a01b039091168152602090f35b34610440575f3660031901126104405760206040515f516020614fd45f395f51905f528152f35b346104405760203660031901126104405760043561308b614dcc565b805f52600a60205260405f20541561043157805f52600a60205260ff601160405f2001541661050757805f52600a60205260405f20600560ff600e830154166130d38161400b565b036104e4576007549054604051631cab5c9d60e31b81526004810182905290915f90829060249082906001600160a01b03165afa8015610b6357610120915f91613246575b500180516001600160a01b031615610b3257516001600160a01b03163303610b2357817ffd2ee1303442fdcd75ef0f691a0821035ed5505126ccc8a813b39ca0cebe5c2f5f80a3805f52600a60205260405f20600e8101805490600e60ff83169260ff191617905581545f52600c6020525f60408120556131988161400b565b600b8114908115613232575b506131c6575b5060405160208160045f5160206150145f395f51905f529352a2005b815f52601060205260405f205f80526020526131eb60405f2054600b830154906142b6565b60028201546001600160a01b039081165f908152600d602090815260408083206003909601549093168252939093529091208054909161322a916142b6565b9055816131aa565b600c915061323f8161400b565b14836131a4565b61325a91503d805f833e610b558183614030565b84613118565b3461044057604036600319011261044057613279613fd5565b6004355f52600e60205260405f209060018060a01b03165f52602052602060405f2054604051908152f35b34610440575f36600319011261044057602060ff5f5160206150745f395f51905f5254166040519015158152f35b34610440575f366003190112610440577f00000000000000000000000000000000000000000000000000000000000000006001600160a01b031630036133295760206040515f516020614fb45f395f51905f528152f35b63703e46dd60e11b5f5260045ffd5b60403660031901126104405761334c613fbf565b602435906001600160401b038211610440573660238301121561044057816004013561337781614053565b926133856040519485614030565b818452366024838301011161044057815f9260246020930183870137840101526001600160a01b037f00000000000000000000000000000000000000000000000000000000000000001630811490811561353b575b5061332957335f9081525f516020614f945f395f51905f52602052604090205460ff1615613524576040516352d1902d60e01b81526001600160a01b0382169290602081600481875afa5f91816134f0575b506134445783634c9c8ce360e01b5f5260045260245ffd5b805f516020614fb45f395f51905f528592036134de5750823b156134cc575f516020614fb45f395f51905f5280546001600160a01b031916821790557fbc7cd75a20ee27fd9adebab32041f755214dbc6bffa90cc0225b39da2e5c2d3b5f80a28051156134b4576110e291614e87565b5050346134bd57005b63b398979f60e01b5f5260045ffd5b634c9c8ce360e01b5f5260045260245ffd5b632a87526960e21b5f5260045260245ffd5b9091506020813d60201161351c575b8161350c60209383614030565b810103126104405751908561342c565b3d91506134ff565b63e2517d3f60e01b5f52336004525f60245260445ffd5b5f516020614fb45f395f51905f52546001600160a01b031614159050836133da565b346104405760203660031901126104405760e061357b6004356143e5565b60c06040519180511515835260018060a01b03602082015116602084015260018060a01b03604082015116604084015260018060a01b0360608201511660608401526080810151608084015260a08101516135d58161400b565b60a0840152015160c0820152f35b34610440575f366003190112610440576007546040516001600160a01b039091168152602090f35b34610440575f36600319011261044057613623614598565b6003548015613698574210613689575f8054600280546001600160a01b038082166001600160a01b0319808616821787559092169092556003849055929116907f0c5d18caa145415182f8ad3d2563da586609cec04ac8505274d87bc43f00b4a49080a3005b6357f4ad8b60e01b5f5260045ffd5b6315090c2d60e01b5f5260045ffd5b34610440576040366003190112610440576136c0613fbf565b6136c8613fd5565b6001600160a01b039182165f908152600d60209081526040808320949093168252928352819020549051908152f35b34610440575f3660031901126104405761370f614598565b5f5160206150745f395f51905f525460ff8116156137665760ff19165f5160206150745f395f51905f52557f5db9ee0a495bf2e6ff9c91a7834c1ba4fdd244a5e8aa4e537bd38aeae4b073aa6020604051338152a1005b638dfc202b60e01b5f5260045ffd5b34610440576020366003190112610440576004356137916145e1565b805f52600a60205260405f205415610431575f52600a60205260405f20600e8101600a60ff1982541617905560055f526009602052600f6137d660405f2054426142b6565b910155005b34610440576040366003190112610440576137f4613ffb565b60243590613800614598565b600a82106138235760ff1660068111610422575f52600960205260405f20555f80f35b63296d383360e01b5f5260045ffd5b346104405760403660031901126104405761384b613fd5565b336001600160a01b03821603613867576110e290600435614d30565b63334bd91960e11b5f5260045ffd5b34610440575f366003190112610440576020600154604051908152f35b34610440575f3660031901126104405760206040515f5160206151145f395f51905f528152f35b346104405760203660031901126104405760ff6138d5613ffb565b165f526009602052602060405f2054604051908152f35b34610440576040366003190112610440576110e260043561390b613fd5565b906139186110d882614325565b614c9f565b34610440575f36600319011261044057604060018060a01b036002541660035482519182526020820152f35b3461044057604036600319011261044057600435613965613feb565b61396d6145e1565b815f52600a60205260405f20541561043157602060ff5f5160206150145f395f51905f52921661399c8161400b565b835f52600a825260405f20600e8101805490600e60ff83169260ff191617905581545f52600c84525f60408120556139d38161400b565b600b8114908115613a5e575b506139f8575b50604051906139f38161400b565b8152a2005b845f526010835260405f205f80528352613a1b60405f2054600b830154906142b6565b60028201546001600160a01b039081165f908152600d86526040808220600390950154909216815292855290912080549091613a56916142b6565b9055846139e5565b600c9150613a6b8161400b565b14866139df565b3461044057602036600319011261044057613a8b613fbf565b613a93614598565b6001600160a01b0316801561079e57600580546001600160a01b031916919091179055005b346104405760203660031901126104405761016060ff613ad9600435614343565b604080519b15158c5260208c019a909a526001600160a01b03988916998b019990995295871660608a0152938616608089015260a088019290925260c0870152151560e086015290941661010084015261012083019390935291909116610140820152f35b34610440576020366003190112610440576020613b5c600435614325565b604051908152f35b34610440575f366003190112610440576005546040516001600160a01b039091168152602090f35b3461044057602036600319011261044057613ba5613fbf565b6002600454146111e7576002600455335f52600d60205260405f2060018060a01b0382165f5260205260405f2054908115613c4157335f52600d60205260405f2060018060a01b0382165f526020525f604081205560018060a01b031690613c0e813384614aa8565b6040519081527f716942921e9b67ee05c4c2ffcf216f189086c9053b444c8928a49db4bdb1ae8e60203392a36001600455005b6312d37ee560e31b5f5260045ffd5b346104405760203660031901126104405760c060ff613c706004356142c3565b9495919290936040519615158752151560208701521660408501526060840152608083015260018060a01b031660a0820152f35b346104405760203660031901126104405760043563ffffffff60e01b811680910361044057602090637965db0b60e01b8114908115613ce9575b506040519015158152f35b6301ffc9a760e01b14905082613cde565b3461044057602036600319011261044057600435613d1661454f565b6002600454146111e7576002600455805f52600a60205260405f20541561043157805f52600a60205260ff600e60405f20015416613d538161400b565b600b8114159081613d88575b81613d73575b506104e4576111e0906146df565b60069150613d808161400b565b141582613d65565b9050613d938161400b565b600c81141590613d5f565b3461044057613dac36613fa9565b90613db561454f565b805f52600a60205260405f20541561043157805f52600a60205260405f20600d60ff600e83015416613de68161400b565b036104e457815f52600b60205260405f208054841015613f9a5783613e0a9161406e565b509060028201805460ff8160081c16613f8b5761ff001981166101001790915560ff1615613f785760018060a01b03600754165f8254602460405180948193631cab5c9d60e31b835260048301525afa8015610b6357610120915f91613f5e575b500180516001600160a01b031615610b3257516001600160a01b03165b835f52600e602052600360405f2092019060018060a01b038254169260018060a01b0384165f52602052600160405f20549401908154809510610422577f8a7b03d7dda6d95d58f5cd28b28478861ccab393473b4181ae4d6ec30207dfea94604094875f52600e602052855f209060018060a01b03165f52602052613f11855f209182546142a9565b905581546001600160a01b039182165f818152600d6020908152878220965490941681529490925292849020805491939091613f4d91906142b6565b9055549082519182526020820152a3005b613f7291503d805f833e610b558183614030565b86613e6b565b60018101546001600160a01b0316613e88565b631281aab960e01b5f5260045ffd5b63671a587360e01b5f5260045ffd5b6040906003190112610440576004359060243590565b600435906001600160a01b038216820361044057565b602435906001600160a01b038216820361044057565b6024359060ff8216820361044057565b6004359060ff8216820361044057565b600f111561091f57565b606081019081106001600160401b0382111761290f57604052565b601f909101601f19168101906001600160401b0382119082101761290f57604052565b6001600160401b03811161290f57601f01601f191660200190565b8054821015614087575f52600360205f20910201905f90565b634e487b7160e01b5f52603260045260245ffd5b81601f82011215610440578051906140b282614053565b926140c06040519485614030565b8284526020838301011161044057815f9260208093018386015e8301015290565b51906001600160a01b038216820361044057565b519064ffffffffff8216820361044057565b5190811515820361044057565b602081830312610440578051906001600160401b038211610440570161022081830312610440576040519161022083016001600160401b0381118482101761290f576040528151835260208201516001600160401b038111610440578161417c91840161409b565b602084015260408201516001600160401b03811161044057816141a091840161409b565b604084015260608201516001600160401b03811161044057816141c491840161409b565b60608401526080820151608084015260a082015160a084015260c082015160c084015260e082015160e084015261010082015161010084015261420a61012083016140e1565b61012084015261421d61014083016140f5565b61014084015261423061016083016140f5565b6101608401526142436101808301614107565b6101808401526142566101a08301614107565b6101a08401526142696101c08301614107565b6101c084015261427c6101e08301614107565b6101e08401526102008201516001600160401b038111610440576142a0920161409b565b61020082015290565b91908203918211610dcc57565b91908201809211610dcc57565b5f52600a60205260405f208054156143165760ff6011820154169160ff600e83015416916142f08361400b565b600f810154601582015460149092015460019594939192916001600160a01b0390911690565b505f905f905f905f905f905f90565b5f525f5160206150345f395f51905f52602052600160405f20015490565b5f52600a60205260405f209081549182156143cb576001810154600282015460038301546004840154600b850154600c860154600e8701546001600160a01b03968716989587169796909416959294919360ff918216939116916143a68361400b565b600f82015460139092015460019a9998979695949392916001600160a01b0390911690565b505f91508190819081908190819081908190819081908190565b60405190919060e081016001600160401b0381118282101761290f576040525f81525f60208201525f60408201525f60608201525f60808201525f60a08201525f60c082015280925f52600a60205260405f20908154156144af575060018084528101546001600160a01b039081166020850152600282015481166040850152600382015416606084015260048101546080840152600e810154600f919060ff1661448f8161400b565b6144988161400b565b6144a18161400b565b60a0850152015460c0830152565b925050565b9060ff801983541691151516179055565b903590601e198136030182121561044057018035906001600160401b03821161044057602001918160051b3603831361044057565b81835290916001600160fb1b0383116104405760209260051b809284830137010190565b356001600160a01b03811681036104405790565b91908110156140875760051b0190565b3580151581036104405790565b335f9081525f516020614f345f395f51905f52602052604090205460ff161561457457565b63e2517d3f60e01b5f52336004525f516020614fd45f395f51905f5260245260445ffd5b335f9081525f516020614f545f395f51905f52602052604090205460ff16156145bd57565b63e2517d3f60e01b5f52336004525f5160206150b45f395f51905f5260245260445ffd5b335f9081527fe102a084b8508bede6bf51c8b54b1c4d119a4a0e42216477c270f0353f96ae65602052604090205460ff161561461957565b63e2517d3f60e01b5f52336004525f5160206150945f395f51905f5260245260445ffd5b335f9081527f15006ca99e3841ce9f950bb5d9acd3e27ae500b327faa87196c493ffe88cef4c602052604090205460ff161561467557565b63e2517d3f60e01b5f52336004525f5160206151145f395f51905f5260245260445ffd5b5f8181525f5160206150345f395f51905f526020908152604080832033845290915290205460ff16156146c95750565b63e2517d3f60e01b5f523360045260245260445ffd5b5f90805f52600a60205260405f2090600e8201600d60ff198254161790556276a7004201804211610dcc57600d83015581545f52600c6020525f6040812055805f52601060205260405f205f805260205260405f20549160015480151580614a95575b15614a8e575b600582015480151580614a78575b15614a71575b600783015480151580614a5b575b15614a5357905b600984015480151580614a3d575b15614a3557925b6040519663a4ba3a7f60e01b88526004880152602487015260448601526064850152608484015260a08360a48173__$d9d5ca12ac0847b5930a2330ee53d4fb3d$__5af4928315610b63575f5f5f915f935f976149e4575b50806149a4575b5080614961575b508061491e575b50806148db575b506001810180546001600160a01b039081165f908152600d60209081526040808320600387015490941683529290522080549194909161483a91906142b6565b90556007548154935460028301805490956001600160a01b0391821693909282169116803b15610440575f928360649260405196879586946332f65ba360e01b86526004860152602485015260448401525af18015610b63576148b9575b505491546001600160a01b0316925f5160206150545f395f51905f529080a4565b6148c69194505f90614030565b5f925f5160206150545f395f51905f52614898565b600a8201546001600160a01b039081165f908152600d60209081526040808320600387015490941683529290522080549091614916916142b6565b90555f6147fa565b60088301546001600160a01b039081165f908152600d60209081526040808320600388015490941683529290522080549091614959916142b6565b90555f6147f3565b60068401546001600160a01b039081165f908152600d6020908152604080832060038901549094168352929052208054909161499c916142b6565b90555f6147ec565b5f80546001600160a01b039081168252600d6020908152604080842060038a015490931684529190529020805490916149dc916142b6565b90555f6147e5565b96505050505060a0833d60a011614a2d575b81614a0360a09383614030565b8101031261044057825160208401516040850151606086015160809096015195929091905f6147de565b3d91506149f6565b505f92614786565b50600a8501546001600160a01b0316151561477f565b505f90614771565b5060088401546001600160a01b0316151561476a565b505f61475c565b5060068301546001600160a01b03161515614756565b505f614748565b505f546001600160a01b03161515614742565b916040519163a9059cbb60e01b5f5260018060a01b031660045260245260205f60448180865af19060015f5114821615614b08575b60405215614ae85750565b635274afe760e01b5f9081526001600160a01b0391909116600452602490fd5b906001811516614b2057823b15153d15161690614add565b503d5f823e3d90fd5b6001600160a01b0381165f9081525f516020614f945f395f51905f52602052604090205460ff16614b9a576001600160a01b03165f8181525f516020614f945f395f51905f5260205260408120805460ff191660011790553391905f516020614f145f395f51905f528180a4600190565b505f90565b6001600160a01b0381165f9081525f516020614f545f395f51905f52602052604090205460ff16614b9a576001600160a01b03165f8181525f516020614f545f395f51905f5260205260408120805460ff191660011790553391905f5160206150b45f395f51905f52905f516020614f145f395f51905f529080a4600190565b6001600160a01b0381165f9081525f516020614f345f395f51905f52602052604090205460ff16614b9a576001600160a01b03165f8181525f516020614f345f395f51905f5260205260408120805460ff191660011790553391905f516020614fd45f395f51905f52905f516020614f145f395f51905f529080a4600190565b5f8181525f5160206150345f395f51905f52602090815260408083206001600160a01b038616845290915290205460ff16614d2a575f8181525f5160206150345f395f51905f52602090815260408083206001600160a01b0395909516808452949091528120805460ff19166001179055339291905f516020614f145f395f51905f529080a4600190565b50505f90565b5f8181525f5160206150345f395f51905f52602090815260408083206001600160a01b038616845290915290205460ff1615614d2a575f8181525f5160206150345f395f51905f52602090815260408083206001600160a01b0395909516808452949091528120805460ff19169055339291907ff6391f5c32d9c69d2a47ea670b442974b53935d1edc7fd64eb21e047a839171b9080a4600190565b60ff5f5160206150745f395f51905f525416614de457565b63d93c066560e01b5f5260045ffd5b6040516323b872dd60e01b5f9081526001600160a01b039384166004529290931660245260449390935260209060648180865af19060015f5114821615614e44575b6040525f60605215614ae85750565b906001811516614b2057823b15153d15161690614e35565b60ff5f5160206150f45f395f51905f525460401c1615614e7857565b631afcd79f60e31b5f5260045ffd5b905f8091602081519101845af48080614f00575b15614ebb5750506040513d81523d5f602083013e60203d82010160405290565b15614ee057639996b31560e01b5f9081526001600160a01b0391909116600452602490fd5b3d15614ef1576040513d5f823e3d90fd5b63d6bda27560e01b5f5260045ffd5b503d151580614e9b5750813b1515614e9b56fe2f8788117e7eff1d82e926ec794901d17c78024a50270940304540a733656f0d7a1492cadb22452d254c71a9ef0c781c9f2d1c472dc5213a713c8769ea04d819b16e88c42fd4e48df2dd6a2eabd6bc9aec654ec170056b470819f8892cc6431cbb6daa0c283751197dfdc76590680f9005e97d6f23870deb1164ab60b28b9f5fb7db2dd08fcb62d0c9e08c51941cae53c267786a0b75803fb7960902fc8ef97d360894a13ba1a3210667c828492db98dca3e2076cc3735a920a3ca505d382bbce4369475d33ca6555b45ac3cf081bee16c4b11779d89f812395c569b2de40f013a24deaadf78a85a780efe5abe4bbc96c2cbcb1620cf4c951dca4e931576a35f6f16db8d1d117ace6c231f2420199bd5731215b09c0610c8103dd70237f23b6702dd7bc7dec4dceedda775e58dd541e08a116c6c53815c0bd028192f7b6268004c64a78d82982b8bfbb5b3bc9a6e8b4e024bb84db4aaf997d36667cd611183dccd5ed15c6e187e77e9aee88184c21f4f2182ab5827cb3b7e07fbedcd63f03300b91045a954d2b1232c32104950cc1bd73039d77d96d80d2677a658336477a079a49807205ce4d355092ef5a8a18f56e8913cf4a201fbe287825b095693c217758dc18c4ccfd75f5c815b63770fa542fd953e8fef7e0e44bbdd4913470ce7e9cbf0c57e16840df040f15088dc2f81fe391c3923bec73e23a9662efc9c229c6a00a1781173f98d02239c8eb8786d4d41c7604b58c14ea1a66660ec8deb665f03daa264697066735822122037983a60c995967384654adec7be665c7a088f33be24fe7a482a24f99d852c8164736f6c634300081c0033f0c57e16840df040f15088dc2f81fe391c3923bec73e23a9662efc9c229c6a00",
  "linkReferences": {
    "project/contracts/libraries/FeeLib.sol": {
      "FeeLib": [
        {
          "length": 20,
          "start": 9227
        },
        {
          "length": 20,
          "start": 18556
        }
      ]
    }
  },
  "deployedLinkReferences": {
    "project/contracts/libraries/FeeLib.sol": {
      "FeeLib": [
        {
          "length": 20,
          "start": 9028
        },
        {
          "length": 20,
          "start": 18357
        }
      ]
    }
  },
  "immutableReferences": {
    "1408": [
      {
        "length": 32,
        "start": 13028
      },
      {
        "length": 32,
        "start": 13231
      }
    ]
  },
  "inputSourceName": "project/contracts/core/DealEscrow.sol",
  "buildInfoId": "solc-0_8_28-c99255f6dced7beaae9894a2e15100747db7be15"
}