{
  "_format": "hh3-artifact-1",
  "contractName": "DealEscrow",
  "sourceName": "contracts/core/DealEscrow.sol",
  "abi": [
    {
      "inputs": [],
      "stateMutability": "nonpayable",
      "type": "constructor"
    },
    {
      "inputs": [],
      "name": "AccessControlBadConfirmation",
      "type": "error"
    },
    {
      "inputs": [
        {
          "internalType": "address",
          "name": "account",
          "type": "address"
        },
        {
          "internalType": "bytes32",
          "name": "neededRole",
          "type": "bytes32"
        }
      ],
      "name": "AccessControlUnauthorizedAccount",
      "type": "error"
    },
    {
      "inputs": [],
      "name": "AddOnAlreadyTriggered",
      "type": "error"
    },
    {
      "inputs": [],
      "name": "AddOnNotFound",
      "type": "error"
    },
    {
      "inputs": [
        {
          "internalType": "address",
          "name": "target",
          "type": "address"
        }
      ],
      "name": "AddressEmptyCode",
      "type": "error"
    },
    {
      "inputs": [],
      "name": "CannotConfirmOwnProposal",
      "type": "error"
    },
    {
      "inputs": [],
      "name": "ConsentWindowExpired",
      "type": "error"
    },
    {
      "inputs": [],
      "name": "DealIsFrozen",
      "type": "error"
    },
    {
      "inputs": [],
      "name": "DealNotFound",
      "type": "error"
    },
    {
      "inputs": [],
      "name": "DealNotFrozen",
      "type": "error"
    },
    {
      "inputs": [],
      "name": "DisputeWindowExpired",
      "type": "error"
    },
    {
      "inputs": [
        {
          "internalType": "address",
          "name": "implementation",
          "type": "address"
        }
      ],
      "name": "ERC1967InvalidImplementation",
      "type": "error"
    },
    {
      "inputs": [],
      "name": "ERC1967NonPayable",
      "type": "error"
    },
    {
      "inputs": [],
      "name": "EnforcedPause",
      "type": "error"
    },
    {
      "inputs": [],
      "name": "ExpectedPause",
      "type": "error"
    },
    {
      "inputs": [],
      "name": "FailedCall",
      "type": "error"
    },
    {
      "inputs": [],
      "name": "FundingWindowExpired",
      "type": "error"
    },
    {
      "inputs": [
        {
          "internalType": "uint256",
          "name": "requested",
          "type": "uint256"
        },
        {
          "internalType": "uint256",
          "name": "available",
          "type": "uint256"
        }
      ],
      "name": "InsufficientProtocolBalance",
      "type": "error"
    },
    {
      "inputs": [],
      "name": "InvalidAddress",
      "type": "error"
    },
    {
      "inputs": [],
      "name": "InvalidAmount",
      "type": "error"
    },
    {
      "inputs": [],
      "name": "InvalidInitialization",
      "type": "error"
    },
    {
      "inputs": [],
      "name": "LeagueDisputeDeadlineExpired",
      "type": "error"
    },
    {
      "inputs": [],
      "name": "MedicalAlreadySubmitted",
      "type": "error"
    },
    {
      "inputs": [],
      "name": "MedicalWindowExpired",
      "type": "error"
    },
    {
      "inputs": [],
      "name": "MutualCancelAlreadyProposed",
      "type": "error"
    },
    {
      "inputs": [],
      "name": "MutualCancelExpiredError",
      "type": "error"
    },
    {
      "inputs": [],
      "name": "MutualCancelNotProposed",
      "type": "error"
    },
    {
      "inputs": [],
      "name": "NoPendingTreasuryUpdate",
      "type": "error"
    },
    {
      "inputs": [],
      "name": "NoSigningBonus",
      "type": "error"
    },
    {
      "inputs": [],
      "name": "NotBuyingClub",
      "type": "error"
    },
    {
      "inputs": [],
      "name": "NotInitializing",
      "type": "error"
    },
    {
      "inputs": [],
      "name": "NotPlayerWallet",
      "type": "error"
    },
    {
      "inputs": [],
      "name": "NotSellingClub",
      "type": "error"
    },
    {
      "inputs": [],
      "name": "NothingToClaim",
      "type": "error"
    },
    {
      "inputs": [],
      "name": "NothingToWithdraw",
      "type": "error"
    },
    {
      "inputs": [],
      "name": "PlayerWalletNotSet",
      "type": "error"
    },
    {
      "inputs": [],
      "name": "ProtocolFeeTooHigh",
      "type": "error"
    },
    {
      "inputs": [],
      "name": "ReentrantCall",
      "type": "error"
    },
    {
      "inputs": [
        {
          "internalType": "address",
          "name": "token",
          "type": "address"
        }
      ],
      "name": "SafeERC20FailedOperation",
      "type": "error"
    },
    {
      "inputs": [],
      "name": "SigningBonusAlreadyClaimed",
      "type": "error"
    },
    {
      "inputs": [],
      "name": "SigningBonusNotExpired",
      "type": "error"
    },
    {
      "inputs": [],
      "name": "TimerTooShort",
      "type": "error"
    },
    {
      "inputs": [],
      "name": "TokenNotApproved",
      "type": "error"
    },
    {
      "inputs": [],
      "name": "TransferWindowClosed",
      "type": "error"
    },
    {
      "inputs": [],
      "name": "TreasuryUpdateNotReady",
      "type": "error"
    },
    {
      "inputs": [],
      "name": "UUPSUnauthorizedCallContext",
      "type": "error"
    },
    {
      "inputs": [
        {
          "internalType": "bytes32",
          "name": "slot",
          "type": "bytes32"
        }
      ],
      "name": "UUPSUnsupportedProxiableUUID",
      "type": "error"
    },
    {
      "inputs": [],
      "name": "WrongDealState",
      "type": "error"
    },
    {
      "anonymous": false,
      "inputs": [
        {
          "indexed": true,
          "internalType": "uint256",
          "name": "dealId",
          "type": "uint256"
        },
        {
          "indexed": true,
          "internalType": "address",
          "name": "club",
          "type": "address"
        },
        {
          "indexed": false,
          "internalType": "uint256",
          "name": "amount",
          "type": "uint256"
        }
      ],
      "name": "AddOnDepositWithdrawn",
      "type": "event"
    },
    {
      "anonymous": false,
      "inputs": [
        {
          "indexed": true,
          "internalType": "uint256",
          "name": "dealId",
          "type": "uint256"
        },
        {
          "indexed": true,
          "internalType": "uint256",
          "name": "idx",
          "type": "uint256"
        },
        {
          "indexed": false,
          "internalType": "uint256",
          "name": "amount",
          "type": "uint256"
        },
        {
          "indexed": false,
          "internalType": "address",
          "name": "recipient",
          "type": "address"
        }
      ],
      "name": "AddOnTriggered",
      "type": "event"
    },
    {
      "anonymous": false,
      "inputs": [
        {
          "indexed": true,
          "internalType": "uint256",
          "name": "dealId",
          "type": "uint256"
        },
        {
          "indexed": true,
          "internalType": "address",
          "name": "thirdParty",
          "type": "address"
        },
        {
          "indexed": false,
          "internalType": "uint256",
          "name": "fee",
          "type": "uint256"
        }
      ],
      "name": "CompetingBidActivated",
      "type": "event"
    },
    {
      "anonymous": false,
      "inputs": [
        {
          "indexed": true,
          "internalType": "uint256",
          "name": "dealId",
          "type": "uint256"
        },
        {
          "indexed": false,
          "internalType": "enum TransferTypes.CancelReason",
          "name": "reason",
          "type": "uint8"
        }
      ],
      "name": "DealCancelled",
      "type": "event"
    },
    {
      "anonymous": false,
      "inputs": [
        {
          "indexed": true,
          "internalType": "uint256",
          "name": "dealId",
          "type": "uint256"
        },
        {
          "indexed": true,
          "internalType": "uint256",
          "name": "playerId",
          "type": "uint256"
        },
        {
          "indexed": true,
          "internalType": "address",
          "name": "newClub",
          "type": "address"
        }
      ],
      "name": "DealCompleted",
      "type": "event"
    },
    {
      "anonymous": false,
      "inputs": [
        {
          "indexed": true,
          "internalType": "uint256",
          "name": "dealId",
          "type": "uint256"
        },
        {
          "indexed": true,
          "internalType": "uint256",
          "name": "playerId",
          "type": "uint256"
        },
        {
          "indexed": true,
          "internalType": "address",
          "name": "buyingClub",
          "type": "address"
        }
      ],
      "name": "DealCreated",
      "type": "event"
    },
    {
      "anonymous": false,
      "inputs": [
        {
          "indexed": true,
          "internalType": "uint256",
          "name": "dealId",
          "type": "uint256"
        }
      ],
      "name": "DealFrozen",
      "type": "event"
    },
    {
      "anonymous": false,
      "inputs": [
        {
          "indexed": true,
          "internalType": "uint256",
          "name": "dealId",
          "type": "uint256"
        }
      ],
      "name": "DealUnfrozen",
      "type": "event"
    },
    {
      "anonymous": false,
      "inputs": [
        {
          "indexed": true,
          "internalType": "uint256",
          "name": "dealId",
          "type": "uint256"
        },
        {
          "indexed": true,
          "internalType": "address",
          "name": "raisedBy",
          "type": "address"
        }
      ],
      "name": "DisputeRaised",
      "type": "event"
    },
    {
      "anonymous": false,
      "inputs": [
        {
          "indexed": true,
          "internalType": "uint256",
          "name": "dealId",
          "type": "uint256"
        }
      ],
      "name": "DisputeResolved",
      "type": "event"
    },
    {
      "anonymous": false,
      "inputs": [
        {
          "indexed": true,
          "internalType": "uint256",
          "name": "dealId",
          "type": "uint256"
        },
        {
          "indexed": true,
          "internalType": "address",
          "name": "buyingClub",
          "type": "address"
        },
        {
          "indexed": false,
          "internalType": "uint256",
          "name": "amount",
          "type": "uint256"
        }
      ],
      "name": "FundingReceived",
      "type": "event"
    },
    {
      "anonymous": false,
      "inputs": [
        {
          "indexed": true,
          "internalType": "address",
          "name": "recipient",
          "type": "address"
        },
        {
          "indexed": true,
          "internalType": "address",
          "name": "token",
          "type": "address"
        },
        {
          "indexed": false,
          "internalType": "uint256",
          "name": "amount",
          "type": "uint256"
        }
      ],
      "name": "FundsClaimed",
      "type": "event"
    },
    {
      "anonymous": false,
      "inputs": [
        {
          "indexed": false,
          "internalType": "uint64",
          "name": "version",
          "type": "uint64"
        }
      ],
      "name": "Initialized",
      "type": "event"
    },
    {
      "anonymous": false,
      "inputs": [
        {
          "indexed": true,
          "internalType": "uint256",
          "name": "dealId",
          "type": "uint256"
        },
        {
          "indexed": true,
          "internalType": "address",
          "name": "escalatedBy",
          "type": "address"
        }
      ],
      "name": "MedicalDisputeEscalated",
      "type": "event"
    },
    {
      "anonymous": false,
      "inputs": [
        {
          "indexed": true,
          "internalType": "uint256",
          "name": "dealId",
          "type": "uint256"
        }
      ],
      "name": "MedicalDisputeResolved",
      "type": "event"
    },
    {
      "anonymous": false,
      "inputs": [
        {
          "indexed": true,
          "internalType": "uint256",
          "name": "dealId",
          "type": "uint256"
        },
        {
          "indexed": false,
          "internalType": "uint256",
          "name": "newFee",
          "type": "uint256"
        }
      ],
      "name": "MedicalRenegotiationResolved",
      "type": "event"
    },
    {
      "anonymous": false,
      "inputs": [
        {
          "indexed": true,
          "internalType": "uint256",
          "name": "dealId",
          "type": "uint256"
        }
      ],
      "name": "MedicalRenegotiationStarted",
      "type": "event"
    },
    {
      "anonymous": false,
      "inputs": [
        {
          "indexed": true,
          "internalType": "uint256",
          "name": "dealId",
          "type": "uint256"
        },
        {
          "indexed": false,
          "internalType": "enum TransferTypes.MedicalOutcome",
          "name": "outcome",
          "type": "uint8"
        }
      ],
      "name": "MedicalSubmitted",
      "type": "event"
    },
    {
      "anonymous": false,
      "inputs": [
        {
          "indexed": true,
          "internalType": "uint256",
          "name": "dealId",
          "type": "uint256"
        }
      ],
      "name": "MutualCancelConfirmed",
      "type": "event"
    },
    {
      "anonymous": false,
      "inputs": [
        {
          "indexed": true,
          "internalType": "uint256",
          "name": "dealId",
          "type": "uint256"
        },
        {
          "indexed": true,
          "internalType": "address",
          "name": "proposer",
          "type": "address"
        }
      ],
      "name": "MutualCancelProposed",
      "type": "event"
    },
    {
      "anonymous": false,
      "inputs": [
        {
          "indexed": false,
          "internalType": "address",
          "name": "account",
          "type": "address"
        }
      ],
      "name": "Paused",
      "type": "event"
    },
    {
      "anonymous": false,
      "inputs": [
        {
          "indexed": true,
          "internalType": "uint256",
          "name": "dealId",
          "type": "uint256"
        },
        {
          "indexed": true,
          "internalType": "uint256",
          "name": "playerId",
          "type": "uint256"
        },
        {
          "indexed": false,
          "internalType": "address",
          "name": "buyingClub",
          "type": "address"
        }
      ],
      "name": "PlayerConsentRequested",
      "type": "event"
    },
    {
      "anonymous": false,
      "inputs": [
        {
          "indexed": true,
          "internalType": "uint256",
          "name": "dealId",
          "type": "uint256"
        },
        {
          "indexed": true,
          "internalType": "uint256",
          "name": "playerId",
          "type": "uint256"
        }
      ],
      "name": "PlayerConsented",
      "type": "event"
    },
    {
      "anonymous": false,
      "inputs": [
        {
          "indexed": true,
          "internalType": "uint256",
          "name": "dealId",
          "type": "uint256"
        },
        {
          "indexed": true,
          "internalType": "uint256",
          "name": "playerId",
          "type": "uint256"
        }
      ],
      "name": "PlayerDeclined",
      "type": "event"
    },
    {
      "anonymous": false,
      "inputs": [
        {
          "indexed": false,
          "internalType": "uint256",
          "name": "bps",
          "type": "uint256"
        }
      ],
      "name": "ProtocolFeeUpdated",
      "type": "event"
    },
    {
      "anonymous": false,
      "inputs": [
        {
          "indexed": true,
          "internalType": "address",
          "name": "treasury",
          "type": "address"
        },
        {
          "indexed": true,
          "internalType": "address",
          "name": "token",
          "type": "address"
        },
        {
          "indexed": false,
          "internalType": "uint256",
          "name": "amount",
          "type": "uint256"
        }
      ],
      "name": "ProtocolFeesWithdrawn",
      "type": "event"
    },
    {
      "anonymous": false,
      "inputs": [
        {
          "indexed": true,
          "internalType": "address",
          "name": "newTreasury",
          "type": "address"
        },
        {
          "indexed": false,
          "internalType": "uint256",
          "name": "effectiveAt",
          "type": "uint256"
        }
      ],
      "name": "ProtocolTreasuryUpdateScheduled",
      "type": "event"
    },
    {
      "anonymous": false,
      "inputs": [
        {
          "indexed": true,
          "internalType": "address",
          "name": "oldTreasury",
          "type": "address"
        },
        {
          "indexed": true,
          "internalType": "address",
          "name": "newTreasury",
          "type": "address"
        }
      ],
      "name": "ProtocolTreasuryUpdated",
      "type": "event"
    },
    {
      "anonymous": false,
      "inputs": [
        {
          "indexed": true,
          "internalType": "bytes32",
          "name": "role",
          "type": "bytes32"
        },
        {
          "indexed": true,
          "internalType": "bytes32",
          "name": "previousAdminRole",
          "type": "bytes32"
        },
        {
          "indexed": true,
          "internalType": "bytes32",
          "name": "newAdminRole",
          "type": "bytes32"
        }
      ],
      "name": "RoleAdminChanged",
      "type": "event"
    },
    {
      "anonymous": false,
      "inputs": [
        {
          "indexed": true,
          "internalType": "bytes32",
          "name": "role",
          "type": "bytes32"
        },
        {
          "indexed": true,
          "internalType": "address",
          "name": "account",
          "type": "address"
        },
        {
          "indexed": true,
          "internalType": "address",
          "name": "sender",
          "type": "address"
        }
      ],
      "name": "RoleGranted",
      "type": "event"
    },
    {
      "anonymous": false,
      "inputs": [
        {
          "indexed": true,
          "internalType": "bytes32",
          "name": "role",
          "type": "bytes32"
        },
        {
          "indexed": true,
          "internalType": "address",
          "name": "account",
          "type": "address"
        },
        {
          "indexed": true,
          "internalType": "address",
          "name": "sender",
          "type": "address"
        }
      ],
      "name": "RoleRevoked",
      "type": "event"
    },
    {
      "anonymous": false,
      "inputs": [
        {
          "indexed": true,
          "internalType": "uint256",
          "name": "dealId",
          "type": "uint256"
        },
        {
          "indexed": true,
          "internalType": "address",
          "name": "wallet",
          "type": "address"
        },
        {
          "indexed": false,
          "internalType": "uint256",
          "name": "amount",
          "type": "uint256"
        }
      ],
      "name": "SigningBonusClaimed",
      "type": "event"
    },
    {
      "anonymous": false,
      "inputs": [
        {
          "indexed": true,
          "internalType": "uint256",
          "name": "dealId",
          "type": "uint256"
        },
        {
          "indexed": true,
          "internalType": "address",
          "name": "to",
          "type": "address"
        },
        {
          "indexed": false,
          "internalType": "uint256",
          "name": "amount",
          "type": "uint256"
        }
      ],
      "name": "SigningBonusRescued",
      "type": "event"
    },
    {
      "anonymous": false,
      "inputs": [
        {
          "indexed": true,
          "internalType": "uint256",
          "name": "dealId",
          "type": "uint256"
        },
        {
          "indexed": true,
          "internalType": "address",
          "name": "thirdParty",
          "type": "address"
        }
      ],
      "name": "ThirdPartyMedicalCompleted",
      "type": "event"
    },
    {
      "anonymous": false,
      "inputs": [
        {
          "indexed": false,
          "internalType": "address",
          "name": "account",
          "type": "address"
        }
      ],
      "name": "Unpaused",
      "type": "event"
    },
    {
      "anonymous": false,
      "inputs": [
        {
          "indexed": true,
          "internalType": "address",
          "name": "implementation",
          "type": "address"
        }
      ],
      "name": "Upgraded",
      "type": "event"
    },
    {
      "inputs": [],
      "name": "ADMIN_ROLE",
      "outputs": [
        {
          "internalType": "bytes32",
          "name": "",
          "type": "bytes32"
        }
      ],
      "stateMutability": "view",
      "type": "function"
    },
    {
      "inputs": [],
      "name": "COMPETING_BID_MANAGER_ROLE",
      "outputs": [
        {
          "internalType": "bytes32",
          "name": "",
          "type": "bytes32"
        }
      ],
      "stateMutability": "view",
      "type": "function"
    },
    {
      "inputs": [],
      "name": "DEFAULT_ADMIN_ROLE",
      "outputs": [
        {
          "internalType": "bytes32",
          "name": "",
          "type": "bytes32"
        }
      ],
      "stateMutability": "view",
      "type": "function"
    },
    {
      "inputs": [],
      "name": "LEAGUE_ROLE",
      "outputs": [
        {
          "internalType": "bytes32",
          "name": "",
          "type": "bytes32"
        }
      ],
      "stateMutability": "view",
      "type": "function"
    },
    {
      "inputs": [],
      "name": "TRANSFER_ESCROW_ROLE",
      "outputs": [
        {
          "internalType": "bytes32",
          "name": "",
          "type": "bytes32"
        }
      ],
      "stateMutability": "view",
      "type": "function"
    },
    {
      "inputs": [],
      "name": "UPGRADE_INTERFACE_VERSION",
      "outputs": [
        {
          "internalType": "string",
          "name": "",
          "type": "string"
        }
      ],
      "stateMutability": "view",
      "type": "function"
    },
    {
      "inputs": [
        {
          "internalType": "uint256",
          "name": "dealId",
          "type": "uint256"
        },
        {
          "internalType": "uint256",
          "name": "newFee",
          "type": "uint256"
        }
      ],
      "name": "acceptMedicalRenegotiation",
      "outputs": [],
      "stateMutability": "nonpayable",
      "type": "function"
    },
    {
      "inputs": [],
      "name": "addressRegistry",
      "outputs": [
        {
          "internalType": "contract IAddressRegistry",
          "name": "",
          "type": "address"
        }
      ],
      "stateMutability": "view",
      "type": "function"
    },
    {
      "inputs": [
        {
          "internalType": "address",
          "name": "token",
          "type": "address"
        }
      ],
      "name": "approveToken",
      "outputs": [],
      "stateMutability": "nonpayable",
      "type": "function"
    },
    {
      "inputs": [
        {
          "internalType": "uint256",
          "name": "dealId",
          "type": "uint256"
        }
      ],
      "name": "claimSigningBonus",
      "outputs": [],
      "stateMutability": "nonpayable",
      "type": "function"
    },
    {
      "inputs": [
        {
          "internalType": "uint256",
          "name": "dealId",
          "type": "uint256"
        }
      ],
      "name": "confirmMutualCancel",
      "outputs": [],
      "stateMutability": "nonpayable",
      "type": "function"
    },
    {
      "inputs": [
        {
          "internalType": "uint256",
          "name": "dealId",
          "type": "uint256"
        }
      ],
      "name": "consentToTransfer",
      "outputs": [],
      "stateMutability": "nonpayable",
      "type": "function"
    },
    {
      "inputs": [
        {
          "internalType": "uint256",
          "name": "dealId",
          "type": "uint256"
        }
      ],
      "name": "declineTransfer",
      "outputs": [],
      "stateMutability": "nonpayable",
      "type": "function"
    },
    {
      "inputs": [
        {
          "internalType": "uint256",
          "name": "dealId",
          "type": "uint256"
        },
        {
          "internalType": "uint256",
          "name": "amount",
          "type": "uint256"
        }
      ],
      "name": "depositAddOnFunds",
      "outputs": [],
      "stateMutability": "nonpayable",
      "type": "function"
    },
    {
      "inputs": [
        {
          "internalType": "uint256",
          "name": "dealId",
          "type": "uint256"
        }
      ],
      "name": "escalateToLeague",
      "outputs": [],
      "stateMutability": "nonpayable",
      "type": "function"
    },
    {
      "inputs": [],
      "name": "executeProtocolTreasuryUpdate",
      "outputs": [],
      "stateMutability": "nonpayable",
      "type": "function"
    },
    {
      "inputs": [
        {
          "internalType": "uint256",
          "name": "dealId",
          "type": "uint256"
        },
        {
          "internalType": "address",
          "name": "thirdParty",
          "type": "address"
        },
        {
          "internalType": "uint256",
          "name": "newFee",
          "type": "uint256"
        },
        {
          "internalType": "uint256",
          "name": "buyerAgentBps",
          "type": "uint256"
        },
        {
          "internalType": "address",
          "name": "buyerAgent",
          "type": "address"
        },
        {
          "internalType": "uint256",
          "name": "signingBonusMonths",
          "type": "uint256"
        }
      ],
      "name": "extActivateThirdParty",
      "outputs": [],
      "stateMutability": "nonpayable",
      "type": "function"
    },
    {
      "inputs": [
        {
          "internalType": "uint256",
          "name": "dealId",
          "type": "uint256"
        }
      ],
      "name": "extAdvanceToFunding",
      "outputs": [],
      "stateMutability": "nonpayable",
      "type": "function"
    },
    {
      "inputs": [
        {
          "internalType": "uint256",
          "name": "dealId",
          "type": "uint256"
        },
        {
          "internalType": "uint8",
          "name": "reason",
          "type": "uint8"
        }
      ],
      "name": "extCancel",
      "outputs": [],
      "stateMutability": "nonpayable",
      "type": "function"
    },
    {
      "inputs": [
        {
          "internalType": "uint256",
          "name": "dealId",
          "type": "uint256"
        }
      ],
      "name": "extClearMutualCancel",
      "outputs": [],
      "stateMutability": "nonpayable",
      "type": "function"
    },
    {
      "inputs": [
        {
          "internalType": "address",
          "name": "recipient",
          "type": "address"
        },
        {
          "internalType": "address",
          "name": "token",
          "type": "address"
        },
        {
          "internalType": "uint256",
          "name": "amount",
          "type": "uint256"
        }
      ],
      "name": "extCreditClaimable",
      "outputs": [],
      "stateMutability": "nonpayable",
      "type": "function"
    },
    {
      "inputs": [
        {
          "internalType": "uint256",
          "name": "dealId",
          "type": "uint256"
        },
        {
          "internalType": "uint256",
          "name": "amount",
          "type": "uint256"
        }
      ],
      "name": "extCreditCounterDeposit",
      "outputs": [],
      "stateMutability": "nonpayable",
      "type": "function"
    },
    {
      "inputs": [
        {
          "internalType": "uint256",
          "name": "dealId",
          "type": "uint256"
        },
        {
          "internalType": "address",
          "name": "dest",
          "type": "address"
        }
      ],
      "name": "extRescueBonus",
      "outputs": [],
      "stateMutability": "nonpayable",
      "type": "function"
    },
    {
      "inputs": [
        {
          "internalType": "uint256",
          "name": "dealId",
          "type": "uint256"
        }
      ],
      "name": "extSettle",
      "outputs": [],
      "stateMutability": "nonpayable",
      "type": "function"
    },
    {
      "inputs": [
        {
          "internalType": "uint256",
          "name": "dealId",
          "type": "uint256"
        }
      ],
      "name": "extSettleThirdParty",
      "outputs": [],
      "stateMutability": "nonpayable",
      "type": "function"
    },
    {
      "inputs": [
        {
          "internalType": "uint256",
          "name": "dealId",
          "type": "uint256"
        }
      ],
      "name": "extWalkAwayPenalty",
      "outputs": [],
      "stateMutability": "nonpayable",
      "type": "function"
    },
    {
      "inputs": [
        {
          "internalType": "uint256",
          "name": "dealId",
          "type": "uint256"
        },
        {
          "internalType": "address",
          "name": "buyer",
          "type": "address"
        },
        {
          "internalType": "uint256",
          "name": "amount",
          "type": "uint256"
        }
      ],
      "name": "extWithdrawAddOn",
      "outputs": [],
      "stateMutability": "nonpayable",
      "type": "function"
    },
    {
      "inputs": [
        {
          "internalType": "uint256",
          "name": "dealId",
          "type": "uint256"
        }
      ],
      "name": "forceCancelDeal",
      "outputs": [],
      "stateMutability": "nonpayable",
      "type": "function"
    },
    {
      "inputs": [
        {
          "internalType": "uint256",
          "name": "dealId",
          "type": "uint256"
        }
      ],
      "name": "forceComplete",
      "outputs": [],
      "stateMutability": "nonpayable",
      "type": "function"
    },
    {
      "inputs": [
        {
          "internalType": "uint256",
          "name": "dealId",
          "type": "uint256"
        }
      ],
      "name": "freezeDeal",
      "outputs": [],
      "stateMutability": "nonpayable",
      "type": "function"
    },
    {
      "inputs": [
        {
          "internalType": "uint256",
          "name": "dealId",
          "type": "uint256"
        }
      ],
      "name": "fundDeal",
      "outputs": [],
      "stateMutability": "nonpayable",
      "type": "function"
    },
    {
      "inputs": [
        {
          "internalType": "uint256",
          "name": "dealId",
          "type": "uint256"
        },
        {
          "internalType": "address",
          "name": "token",
          "type": "address"
        }
      ],
      "name": "getAddOnDeposit",
      "outputs": [
        {
          "internalType": "uint256",
          "name": "",
          "type": "uint256"
        }
      ],
      "stateMutability": "view",
      "type": "function"
    },
    {
      "inputs": [
        {
          "internalType": "address",
          "name": "account",
          "type": "address"
        },
        {
          "internalType": "address",
          "name": "token",
          "type": "address"
        }
      ],
      "name": "getClaimable",
      "outputs": [
        {
          "internalType": "uint256",
          "name": "",
          "type": "uint256"
        }
      ],
      "stateMutability": "view",
      "type": "function"
    },
    {
      "inputs": [
        {
          "internalType": "uint256",
          "name": "dealId",
          "type": "uint256"
        }
      ],
      "name": "getDealView",
      "outputs": [
        {
          "components": [
            {
              "internalType": "bool",
              "name": "exists",
              "type": "bool"
            },
            {
              "internalType": "address",
              "name": "sellingClub",
              "type": "address"
            },
            {
              "internalType": "address",
              "name": "buyingClub",
              "type": "address"
            },
            {
              "internalType": "address",
              "name": "paymentToken",
              "type": "address"
            },
            {
              "internalType": "uint256",
              "name": "transferFee",
              "type": "uint256"
            },
            {
              "internalType": "enum IDealEscrow.DealState",
              "name": "state",
              "type": "uint8"
            },
            {
              "internalType": "uint256",
              "name": "stateDeadline",
              "type": "uint256"
            }
          ],
          "internalType": "struct IDealEscrow.DealView",
          "name": "v",
          "type": "tuple"
        }
      ],
      "stateMutability": "view",
      "type": "function"
    },
    {
      "inputs": [
        {
          "internalType": "uint256",
          "name": "dealId",
          "type": "uint256"
        }
      ],
      "name": "getExpiryView",
      "outputs": [
        {
          "internalType": "bool",
          "name": "exists",
          "type": "bool"
        },
        {
          "internalType": "bool",
          "name": "frozen",
          "type": "bool"
        },
        {
          "internalType": "uint8",
          "name": "state",
          "type": "uint8"
        },
        {
          "internalType": "uint256",
          "name": "stateDeadline",
          "type": "uint256"
        },
        {
          "internalType": "uint256",
          "name": "mutualCancelDeadline",
          "type": "uint256"
        },
        {
          "internalType": "address",
          "name": "mutualCancelProposer",
          "type": "address"
        }
      ],
      "stateMutability": "view",
      "type": "function"
    },
    {
      "inputs": [
        {
          "internalType": "uint256",
          "name": "dealId",
          "type": "uint256"
        },
        {
          "internalType": "uint8",
          "name": "index",
          "type": "uint8"
        }
      ],
      "name": "getInstallment",
      "outputs": [
        {
          "components": [
            {
              "internalType": "uint256",
              "name": "amount",
              "type": "uint256"
            },
            {
              "internalType": "uint256",
              "name": "dueDate",
              "type": "uint256"
            },
            {
              "internalType": "bool",
              "name": "paid",
              "type": "bool"
            }
          ],
          "internalType": "struct TransferTypes.Installment",
          "name": "",
          "type": "tuple"
        }
      ],
      "stateMutability": "view",
      "type": "function"
    },
    {
      "inputs": [
        {
          "internalType": "uint256",
          "name": "playerId",
          "type": "uint256"
        }
      ],
      "name": "getPlayerDeal",
      "outputs": [
        {
          "internalType": "uint256",
          "name": "",
          "type": "uint256"
        }
      ],
      "stateMutability": "view",
      "type": "function"
    },
    {
      "inputs": [
        {
          "internalType": "bytes32",
          "name": "role",
          "type": "bytes32"
        }
      ],
      "name": "getRoleAdmin",
      "outputs": [
        {
          "internalType": "bytes32",
          "name": "",
          "type": "bytes32"
        }
      ],
      "stateMutability": "view",
      "type": "function"
    },
    {
      "inputs": [
        {
          "internalType": "bytes32",
          "name": "role",
          "type": "bytes32"
        },
        {
          "internalType": "address",
          "name": "account",
          "type": "address"
        }
      ],
      "name": "grantRole",
      "outputs": [],
      "stateMutability": "nonpayable",
      "type": "function"
    },
    {
      "inputs": [
        {
          "internalType": "bytes32",
          "name": "role",
          "type": "bytes32"
        },
        {
          "internalType": "address",
          "name": "account",
          "type": "address"
        }
      ],
      "name": "hasRole",
      "outputs": [
        {
          "internalType": "bool",
          "name": "",
          "type": "bool"
        }
      ],
      "stateMutability": "view",
      "type": "function"
    },
    {
      "inputs": [
        {
          "internalType": "address",
          "name": "_playerRegistry",
          "type": "address"
        },
        {
          "internalType": "address",
          "name": "_addressRegistry",
          "type": "address"
        },
        {
          "internalType": "address",
          "name": "_treasury",
          "type": "address"
        },
        {
          "internalType": "address",
          "name": "_admin",
          "type": "address"
        }
      ],
      "name": "initialize",
      "outputs": [],
      "stateMutability": "nonpayable",
      "type": "function"
    },
    {
      "inputs": [
        {
          "components": [
            {
              "internalType": "uint256",
              "name": "offerId",
              "type": "uint256"
            },
            {
              "internalType": "uint256",
              "name": "playerId",
              "type": "uint256"
            },
            {
              "internalType": "address",
              "name": "sellingClub",
              "type": "address"
            },
            {
              "internalType": "address",
              "name": "buyingClub",
              "type": "address"
            },
            {
              "internalType": "address",
              "name": "paymentToken",
              "type": "address"
            },
            {
              "internalType": "uint256",
              "name": "transferFee",
              "type": "uint256"
            },
            {
              "internalType": "uint256",
              "name": "sellOnBps",
              "type": "uint256"
            },
            {
              "internalType": "address",
              "name": "sellOnRecipient",
              "type": "address"
            },
            {
              "internalType": "uint256",
              "name": "sellerAgentBps",
              "type": "uint256"
            },
            {
              "internalType": "address",
              "name": "sellerAgent",
              "type": "address"
            },
            {
              "internalType": "uint256",
              "name": "buyerAgentBps",
              "type": "uint256"
            },
            {
              "internalType": "address",
              "name": "buyerAgent",
              "type": "address"
            },
            {
              "internalType": "uint256",
              "name": "signingBonusMonths",
              "type": "uint256"
            },
            {
              "internalType": "uint256",
              "name": "signingBonusAmount",
              "type": "uint256"
            },
            {
              "internalType": "uint256[]",
              "name": "installmentAmounts",
              "type": "uint256[]"
            },
            {
              "internalType": "uint256[]",
              "name": "installmentDueDates",
              "type": "uint256[]"
            }
          ],
          "internalType": "struct TransferTypes.DealInitParams",
          "name": "p",
          "type": "tuple"
        },
        {
          "components": [
            {
              "internalType": "string",
              "name": "description",
              "type": "string"
            },
            {
              "internalType": "uint256",
              "name": "amount",
              "type": "uint256"
            },
            {
              "internalType": "bool",
              "name": "toPlayer",
              "type": "bool"
            },
            {
              "internalType": "bool",
              "name": "triggered",
              "type": "bool"
            }
          ],
          "internalType": "struct TransferTypes.AddOn[]",
          "name": "addOns",
          "type": "tuple[]"
        }
      ],
      "name": "initializeDeal",
      "outputs": [
        {
          "internalType": "uint256",
          "name": "dealId",
          "type": "uint256"
        }
      ],
      "stateMutability": "nonpayable",
      "type": "function"
    },
    {
      "inputs": [],
      "name": "pause",
      "outputs": [],
      "stateMutability": "nonpayable",
      "type": "function"
    },
    {
      "inputs": [],
      "name": "paused",
      "outputs": [
        {
          "internalType": "bool",
          "name": "",
          "type": "bool"
        }
      ],
      "stateMutability": "view",
      "type": "function"
    },
    {
      "inputs": [],
      "name": "pendingTreasury",
      "outputs": [
        {
          "internalType": "address",
          "name": "",
          "type": "address"
        },
        {
          "internalType": "uint256",
          "name": "",
          "type": "uint256"
        }
      ],
      "stateMutability": "view",
      "type": "function"
    },
    {
      "inputs": [],
      "name": "playerRegistry",
      "outputs": [
        {
          "internalType": "contract IPlayerRegistry",
          "name": "",
          "type": "address"
        }
      ],
      "stateMutability": "view",
      "type": "function"
    },
    {
      "inputs": [
        {
          "internalType": "uint256",
          "name": "dealId",
          "type": "uint256"
        }
      ],
      "name": "proposeMutualCancel",
      "outputs": [],
      "stateMutability": "nonpayable",
      "type": "function"
    },
    {
      "inputs": [],
      "name": "protocolFeeBps",
      "outputs": [
        {
          "internalType": "uint256",
          "name": "",
          "type": "uint256"
        }
      ],
      "stateMutability": "view",
      "type": "function"
    },
    {
      "inputs": [],
      "name": "proxiableUUID",
      "outputs": [
        {
          "internalType": "bytes32",
          "name": "",
          "type": "bytes32"
        }
      ],
      "stateMutability": "view",
      "type": "function"
    },
    {
      "inputs": [
        {
          "internalType": "uint256",
          "name": "dealId",
          "type": "uint256"
        }
      ],
      "name": "raiseDispute",
      "outputs": [],
      "stateMutability": "nonpayable",
      "type": "function"
    },
    {
      "inputs": [
        {
          "internalType": "uint256",
          "name": "dealId",
          "type": "uint256"
        }
      ],
      "name": "rejectMedicalRenegotiation",
      "outputs": [],
      "stateMutability": "nonpayable",
      "type": "function"
    },
    {
      "inputs": [
        {
          "internalType": "bytes32",
          "name": "role",
          "type": "bytes32"
        },
        {
          "internalType": "address",
          "name": "callerConfirmation",
          "type": "address"
        }
      ],
      "name": "renounceRole",
      "outputs": [],
      "stateMutability": "nonpayable",
      "type": "function"
    },
    {
      "inputs": [
        {
          "internalType": "uint256",
          "name": "dealId",
          "type": "uint256"
        }
      ],
      "name": "resolveDispute",
      "outputs": [],
      "stateMutability": "nonpayable",
      "type": "function"
    },
    {
      "inputs": [
        {
          "internalType": "bytes32",
          "name": "role",
          "type": "bytes32"
        },
        {
          "internalType": "address",
          "name": "account",
          "type": "address"
        }
      ],
      "name": "revokeRole",
      "outputs": [],
      "stateMutability": "nonpayable",
      "type": "function"
    },
    {
      "inputs": [
        {
          "internalType": "address",
          "name": "token",
          "type": "address"
        }
      ],
      "name": "revokeToken",
      "outputs": [],
      "stateMutability": "nonpayable",
      "type": "function"
    },
    {
      "inputs": [
        {
          "internalType": "address",
          "name": "newTreasury",
          "type": "address"
        }
      ],
      "name": "scheduleProtocolTreasuryUpdate",
      "outputs": [],
      "stateMutability": "nonpayable",
      "type": "function"
    },
    {
      "inputs": [
        {
          "internalType": "uint256",
          "name": "bps",
          "type": "uint256"
        }
      ],
      "name": "setProtocolFee",
      "outputs": [],
      "stateMutability": "nonpayable",
      "type": "function"
    },
    {
      "inputs": [
        {
          "internalType": "uint8",
          "name": "which",
          "type": "uint8"
        },
        {
          "internalType": "uint256",
          "name": "d",
          "type": "uint256"
        }
      ],
      "name": "setTimer",
      "outputs": [],
      "stateMutability": "nonpayable",
      "type": "function"
    },
    {
      "inputs": [
        {
          "internalType": "uint256",
          "name": "dealId",
          "type": "uint256"
        },
        {
          "internalType": "enum TransferTypes.MedicalOutcome",
          "name": "outcome",
          "type": "uint8"
        },
        {
          "internalType": "bytes32",
          "name": "medicalHash",
          "type": "bytes32"
        }
      ],
      "name": "submitMedical",
      "outputs": [],
      "stateMutability": "nonpayable",
      "type": "function"
    },
    {
      "inputs": [
        {
          "internalType": "bytes4",
          "name": "interfaceId",
          "type": "bytes4"
        }
      ],
      "name": "supportsInterface",
      "outputs": [
        {
          "internalType": "bool",
          "name": "",
          "type": "bool"
        }
      ],
      "stateMutability": "view",
      "type": "function"
    },
    {
      "inputs": [
        {
          "internalType": "uint8",
          "name": "",
          "type": "uint8"
        }
      ],
      "name": "timers",
      "outputs": [
        {
          "internalType": "uint256",
          "name": "",
          "type": "uint256"
        }
      ],
      "stateMutability": "view",
      "type": "function"
    },
    {
      "inputs": [],
      "name": "totalDeals",
      "outputs": [
        {
          "internalType": "uint256",
          "name": "",
          "type": "uint256"
        }
      ],
      "stateMutability": "view",
      "type": "function"
    },
    {
      "inputs": [],
      "name": "treasury",
      "outputs": [
        {
          "internalType": "address",
          "name": "",
          "type": "address"
        }
      ],
      "stateMutability": "view",
      "type": "function"
    },
    {
      "inputs": [
        {
          "internalType": "uint256",
          "name": "dealId",
          "type": "uint256"
        },
        {
          "internalType": "uint256",
          "name": "idx",
          "type": "uint256"
        }
      ],
      "name": "triggerAddOn",
      "outputs": [],
      "stateMutability": "nonpayable",
      "type": "function"
    },
    {
      "inputs": [
        {
          "internalType": "uint256",
          "name": "dealId",
          "type": "uint256"
        }
      ],
      "name": "unfreezeDeal",
      "outputs": [],
      "stateMutability": "nonpayable",
      "type": "function"
    },
    {
      "inputs": [],
      "name": "unpause",
      "outputs": [],
      "stateMutability": "nonpayable",
      "type": "function"
    },
    {
      "inputs": [
        {
          "internalType": "address",
          "name": "newImplementation",
          "type": "address"
        },
        {
          "internalType": "bytes",
          "name": "data",
          "type": "bytes"
        }
      ],
      "name": "upgradeToAndCall",
      "outputs": [],
      "stateMutability": "payable",
      "type": "function"
    },
    {
      "inputs": [
        {
          "internalType": "address",
          "name": "token",
          "type": "address"
        }
      ],
      "name": "withdrawClaimable",
      "outputs": [],
      "stateMutability": "nonpayable",
      "type": "function"
    },
    {
      "inputs": [
        {
          "internalType": "address",
          "name": "token",
          "type": "address"
        },
        {
          "internalType": "uint256",
          "name": "amount",
          "type": "uint256"
        }
      ],
      "name": "withdrawFees",
      "outputs": [],
      "stateMutability": "nonpayable",
      "type": "function"
    }
  ],
  "bytecode": "0x60a080604052346100c257306080525f51602061508e5f395f51905f525460ff8160401c166100b3576002600160401b03196001600160401b03821601610060575b604051614fc790816100c782396080518181816132ce01526133990152f35b6001600160401b0319166001600160401b039081175f51602061508e5f395f51905f525581527fc7f505b2f371ae2175ee4913f4499e1f2633a7b5936321eed1cdaeb6115181d290602090a15f80610041565b63f92ee8a960e01b5f5260045ffd5b5f80fdfe60806040526004361015610011575f80fd5b5f3560e01c8062a464d114613c9f57806301d9fcc914613bfb57806301ffc9a714613ba55780630f8f795914613b515780631510f85a14613a8d578063248a9ca314613a6757806329bc34f0146139335780632ed6b75d146139075780632f2ff15d146138d65780633015edc7146138a4578063340493a61461387d57806335659fb81461386057806336568abe1461381c578063389a93f8146137c55780633d7dc84a1461375f5780633f4ba83a146136e15780633fb814281461369157806347d22159146135f55780634c74ef9c146135cd5780634f0df865146135475780634f1ef2861461332257806352d1902d146132bc5780635c975abb1461328e5780635ea36b2d1461324a57806360dded111461305a57806360e49e441461303357806361d027b31461300c5780636b292e7014612eb757806371c34a3414612da357806372db9e5314612b0757806375b238fc14612ae0578063787dce3d14612a7b5780637b61c63d1461222d5780637f00cb351461217057806380b2edd81461212657806383be499a14611fc25780638456cb5914611f5157806385d60ec614611cd057806389b2254214611c7d5780638abf7ff114611be957806391d1485414611b94578063933f4eef14611b53578063966d1f1d14611b365780639a6c4c0c146119c35780639bf437df1461197d578063a217fddf14611963578063a461dc6d1461171c578063a4ba8071146115d4578063a5c1674e146114e6578063ad3b1b47146113cf578063ad3cb1cc14611371578063bbf0457a1461129b578063bfadc8f914611271578063c2b7b868146111e3578063c81a038214611121578063cd7aaade146110b3578063d547741f1461107b578063e05e05e214611054578063f1c4f0af14610f2b578063f384a49014610e97578063f3ad65f414610e6f578063f3ee48bb14610dee578063f60d22ca14610cc4578063f6882f6314610b4d578063f7e5e9cd146109c8578063f81eb2f7146107e4578063f8c8765e14610500578063f951fbad1461042e5763fd263f7b1461030f575f80fd5b3461042a57606036600319011261042a5760043561032b613ed5565b90604435916103386143f6565b815f52600960205260405f20541561041b575f828152600960209081526040808320600d8352818420600390910180546001600160a01b0316808652919093529220549094919290919082821161040c577fdcb617f0d761c10fef99546e0228867e9b0d34036af551f2cc6203b017ac4872936103b7836020956141a9565b5f878152600d865260408082206001600160a01b039485168352875280822092909255928216808452600c86528184209854909216835296845295902080546104019083906141b6565b9055604051908152a3005b63162908e360e11b5f5260045ffd5b63223da47360e21b5f5260045ffd5b5f80fd5b3461042a57602036600319011261042a5760043561044a6143ad565b805f52600960205260405f20541561041b57805f52600960205260405f2060118101805460ff81166104f15760ff600e8401541661048781613f0b565b600e81149081156104dd575b506104ce5760019060ff19161790556012429101557f2baeb19dd4781c77dafd82d1a22b7ac4f6ca38cfb10a1135ff41a3b4428a38ed5f80a2005b6372c24c3560e01b5f5260045ffd5b600f91506104ea81613f0b565b1485610493565b63e231c28f60e01b5f5260045ffd5b3461042a57608036600319011261042a57610519613ebf565b610521613ed5565b6044356001600160a01b0381169081900361042a57606435906001600160a01b03821680830361042a575f516020614f525f395f51905f5254604081901c60ff161595906001600160401b038116801590816107dc575b60011490816107d2575b1590816107c9575b506107ba576001600160401b031981166001175f516020614f525f395f51905f525586610792575b506001600160a01b0316938415610783576001600160a01b031690811561078357821561078357156107835761072a936105ea614cba565b6105f2614cba565b60016004819055600680546001600160a01b0319908116939093178155600780548416949094179093555f805490921693909317815560086020526203f4807f5eff886ea0ce6ca488a3d6e336d6c0f75f46d19b42c06ce5ee98e42c96d256c78190557fad67d757c34507f157cacfa2e3153e9f260a2244f30428821be7be64587ac55f8190556202a3007f6add646517a5b0f6793cd5891b7937d28a5b2981a5d88ebc7cd776088fea90418190557f625b35f5e76f098dd7c3a05b10e2e5e78a4a01228d60c3b143426cdf36d26455919091555f516020614f325f395f51905f528190557f91238f30f286c9a1c6e901c4eda3b214c381c846e3dbe48df95c21488e8e1fdb8190559190525f516020614d925f395f51905f52556032905561071a81614987565b50610724816149fd565b50614a7d565b5061073157005b60ff60401b195f516020614f525f395f51905f5254165f516020614f525f395f51905f52557fc7f505b2f371ae2175ee4913f4499e1f2633a7b5936321eed1cdaeb6115181d2602060405160018152a1005b63e6c4247b60e01b5f5260045ffd5b6001600160481b0319166001600160401b01175f516020614f525f395f51905f5255866105b2565b63f92ee8a960e01b5f5260045ffd5b9050158861058a565b303b159150610582565b889150610578565b3461042a57602036600319011261042a57600435610800614c2a565b805f52600960205260405f20541561041b57805f52600960205260ff601160405f200154166104f1575f81815260096020526040902060148101546001600160a01b031680156109b957601582015442116109aa57331461099b5760028101546001600160a01b03163314159081610983575b506104ce57807f579e90f7cabad8d77316c92a503862cb4783a203648db82f5b2d35fd73389d955f80a2805f52600960205260405f20600e8101805490600f60ff83169260ff191617905581545f52600b6020525f60408120556108d681613f0b565b600c811490811561096f575b50610903575b505f516020614e725f395f51905f52602060405160038152a2005b815f52600f60205260405f205f805260205261092860405f2054600b830154906141b6565b60028201546001600160a01b039081165f908152600c6020908152604080832060039096015490931682529390935290912080549091610967916141b6565b9055816108e8565b600d915061097c81613f0b565b14836108e2565b600101546001600160a01b0316331415905082610873565b636081c93760e01b5f5260045ffd5b636124f5e360e11b5f5260045ffd5b63d87db87b60e01b5f5260045ffd5b3461042a57602036600319011261042a576004356109e4614c2a565b805f52600960205260405f20541561041b57805f52600960205260ff601160405f200154166104f157805f52600960205260405f2090600e82018054600560ff8216610a2f81613f0b565b036104ce57600f84019384544211610b3e576006548154604051631cab5c9d60e31b8152600481018290529096915f90829060249082906001600160a01b03165afa8015610b3357610120915f91610b11575b500180516001600160a01b031615610b0257516001600160a01b03163303610af3575f93600b60109460ff1916179055600584526008602052610ac96040852054426141b6565b905501557f173620804848de4def17bad4f232db2cda858a822ae975c722b97cf0fe2c1bfa5f80a3005b631d3c442d60e21b5f5260045ffd5b6382bcaa3b60e01b5f5260045ffd5b610b2d91503d805f833e610b258183613f30565b810190614014565b88610a82565b6040513d5f823e3d90fd5b63839ec5c560e01b5f5260045ffd5b3461042a57610b5b36613ea9565b610b63614c2a565b815f52600960205260405f20541561041b57815f52600960205260ff601160405f200154166104f1575f82815260096020526040902060018101546001600160a01b03163303610cb557600e810191600760ff845416610bc281613f0b565b036104ce57600f820180544211610ca65781158015610c92575b61040c577f3ecbc4d085035a7e1b9eb639b1b2e563cb0b7754fe8fe1e12afd903edb3bc409935f60108585600460209801805482818110610c49575b5050550155600660ff1982541617905560015f5260088352610c3e60405f2054426141b6565b9055604051908152a2005b610c52916141a9565b60028401546001600160a01b039081168752600c8b52604080882060038701549092168852908b52862080549091610c89916141b6565b90558b82610c18565b50676765c793fa10079d601a1b8211610bdc565b63c052877160e01b5f5260045ffd5b6303e2f0f360e51b5f5260045ffd5b3461042a57602036600319011261042a57600435610ce0614c2a565b805f52600960205260405f20541561041b57805f52600960205260ff601160405f200154166104f157805f52600960205260405f20600e8101805491600760ff8416610d2b81613f0b565b036104ce5760018101546001600160a01b031633141580610dd7575b6104ce57600f0191825480421115610db0575b5060089060ff191617905562093a80420190814211610d9c575533907ffc2989e9448442378c968e63f5573979bc5ed860dc5c48e906404733bd05d62a5f80a3005b634e487b7160e01b5f52601160045260245ffd5b610dcb9060045f52600860205260405f205460011c906141a9565b42106104ce5784610d5a565b5060028101546001600160a01b0316331415610d47565b3461042a57602036600319011261042a57610e07613ebf565b610e0f614452565b6001600160a01b0316801561078357600280546001600160a01b03191682179055426202a3008101908110610d9c576020817f686003c563ac6d53a1e0d2aea06fc73beb941f8f05f3463b33b607717aabc67f92600355604051908152a2005b3461042a575f36600319011261042a576007546040516001600160a01b039091168152602090f35b3461042a57610ea536613ea9565b610ead61449b565b815f52600960205260405f20541561041b57815f526009602052600b60ff600e60405f20015416610edd81613f0b565b036104ce57801561040c57815f52600f60205260405f205f805260205260405f20549081811161040c57610f10916141a9565b905f52600f60205260405f205f805260205260405f20555f80f35b3461042a57604036600319011261042a57600435610f47613ed5565b90610f506143f6565b805f52600960205260405f20541561041b57805f52600960205260405f2091600e60ff8185015416610f8181613f0b565b036104ce57600b830190815491821561104557600c85019283549260ff841661103657600d8701544211156110275760ff199093166001179093556001600160a01b039182165f818152600c60209081526040808320600390990154909516825296875292909220805492957fc5b97e8782f0398548aef2871b18abaa21039a2820a3460d4b5c06a2bbe769ed94909361101b91906141b6565b905554604051908152a3005b63d50a31bb60e01b5f5260045ffd5b631f815d9160e11b5f5260045ffd5b635af3421960e01b5f5260045ffd5b3461042a575f36600319011261042a5760206040515f516020614ef25f395f51905f528152f35b3461042a57604036600319011261042a576110b160043561109a613ed5565b906110ac6110a782614225565b6144f7565b614b8e565b005b3461042a57606036600319011261042a576110cc613ebf565b6110d4613ed5565b604435916110e061449b565b6001600160a01b0316801561078357821561040c575f52600c60205260405f209060018060a01b03165f5260205261111d60405f209182546141b6565b9055005b3461042a57602036600319011261042a5760043561113d61449b565b805f52600960205260405f20541561041b576002600454146111d4576002600455805f52600960205260405f2090600960ff600e8401541661117e81613f0b565b036104ce5760ff6011830154166104f1576002909101546111cd91906001600160a01b0316817f34d7b6c0ad332f8c340404ce3c2d41eccf539c4c75ba587419fa8f243f61118b5f80a361453d565b6001600455005b6306fda65d60e31b5f5260045ffd5b3461042a57602036600319011261042a576004356111ff6143ad565b6002600454146111d4576002600455805f52600960205260405f20541561041b57805f526009602052600d60ff600e60405f2001541661123e81613f0b565b036104ce57806111cd917f57cce005d496355471bb5269f1dea3d6c81b6ac14c1d74ba28aefb022357013b5f80a261453d565b3461042a57602036600319011261042a576004355f52600b602052602060405f2054604051908152f35b3461042a576112a936613ea9565b906112b2614c2a565b6002600454146111d4576002600455805f52600960205260405f20541561041b57805f52600960205260405f20600e60ff81830154166112f181613f0b565b036104ce5760028101546001600160a01b0316330361136257821561040c576003019061132b8360018060a01b0384541630903390614c51565b5f908152600d6020908152604080832093546001600160a01b031683529290522080549091611359916141b6565b90556001600455005b631f3cbf7b60e31b5f5260045ffd5b3461042a575f36600319011261042a5760408051906113908183613f30565b600582526020820191640352e302e360dc1b83528151928391602083525180918160208501528484015e5f828201840152601f01601f19168101030190f35b3461042a57604036600319011261042a576113e8613ebf565b602435906113f4614452565b6002600454146111d457600260045581156114d7575f546001600160a01b0316801561078357805f52600c60205260405f2060018060a01b0383165f5260205260405f20548084116114c1578361144a916141a9565b5f918252600c602090815260408084206001600160a01b03958616808652925283209190915590549092916114829183911684614906565b5f546040519182526001600160a01b0316907f8fc241308ffc17817e6a8c6a52a8f7cd4931dfca0c539fd35a630311c7e4c57b90602090a36001600455005b8363ac28c08360e01b5f5260045260245260445ffd5b630686827b60e51b5f5260045ffd5b3461042a57602036600319011261042a57600435611502614c2a565b805f52600960205260405f20541561041b57805f52600960205260ff601160405f200154166104f157805f52600960205260405f20600e810190815490600c60ff831661154e81613f0b565b036104ce57600f8101544210156115c55760028101546001600160a01b031633141590816115ad575b506104ce5760ff1916600d17905533907f84a477df8a28a4276ca6dee4458a06c3015f30c477d9c949ede4e13ff8a552b45f80a3005b600101546001600160a01b0316331415905084611577565b63234c0ffd60e21b5f5260045ffd5b3461042a57602036600319011261042a57600435805f52600960205260405f20541561041b57805f52600960205260405f20600e60ff818301541661161881613f0b565b036104ce57600b810190815490811561104557600c8101805460ff81166110365760018060a01b03600654165f8454602460405180948193631cab5c9d60e31b835260048301525afa8015610b3357610120915f91611702575b500180516001600160a01b031615610b0257516001600160a01b03163303610af35760ff19166001179055335f908152600c602090815260408083206003909401546001600160a01b0316835292905220805490916116d0916141b6565b905554906040519182527f68afe7ecfeac2108bf74c8d4bb1d8c04f3799bd71673fa3e10e274e1cbf28a7960203393a3005b61171691503d805f833e610b258183613f30565b88611672565b3461042a57606036600319011261042a57600435602435600481101561042a5760443590611748614c2a565b825f52600960205260405f20541561041b57825f52600960205260ff601160405f200154166104f157825f52600960205260405f2091600e830191825491600660ff841661179581613f0b565b036104ce5760028501546001600160a01b0316330361136257600f85019485544211610ca657601001805461195457811561078357821561040c5755847f8c0f79cb43223fbd00b73d4bbc8a0f62f1f2d6ddb3a6b650d90d0ee3557f683a6020604051848152a26001810361181157505050506110b19061453d565b60020361190157505050805f52600960205260405f20600e8101805490600f60ff83169260ff191617905581545f52600b6020525f604081205561185481613f0b565b600c81149081156118ed575b50611881575b505f516020614e725f395f51905f52602060405160058152a2005b815f52600f60205260405f205f80526020526118a660405f2054600b830154906141b6565b60028201546001600160a01b039081165f908152600c60209081526040808320600390960154909316825293909352909120805490916118e5916141b6565b905581611866565b600d91506118fa81613f0b565b1483611860565b60ff1916600717905560045f5260086020525f516020614f325f395f51905f525461192c90426141b6565b90557fb4a770b2db334eaf0ab77f3470dc51ac5bcd10a3033f309fd67a6385bd761e0b5f80a2005b63c0f9cf3b60e01b5f5260045ffd5b3461042a575f36600319011261042a5760206040515f8152f35b3461042a57602036600319011261042a576004356119996143f6565b6002600454146111d4576002600455805f52600960205260405f20541561041b576111cd9061453d565b3461042a57602036600319011261042a576004356119df614c2a565b805f52600960205260405f20541561041b57805f52600960205260ff601160405f200154166104f157805f52600960205260405f2060ff600e82015416611a2581613f0b565b600e8114908115611b21575b8115611b0c575b8115611af8575b506104ce5760028101546001600160a01b031633141580611ae1575b6104ce576014810180546001600160a01b0316611ad25780546001600160a01b0319163317905560065f5260086020525f516020614d925f395f51905f5254601590611aa790426141b6565b91015533907f7457f5ceee8e52b1ef56c933d90340dfbda61ea10b7e9be55550e9435d91bc775f80a3005b63ed8dd1bd60e01b5f5260045ffd5b5060018101546001600160a01b0316331415611a5b565b600d9150611b0581613f0b565b1483611a3f565b9050611b1781613f0b565b600c811490611a38565b9050611b2c81613f0b565b600f811490611a31565b3461042a575f36600319011261042a576020600554604051908152f35b3461042a57602036600319011261042a57611b6c613ebf565b611b74614452565b6001600160a01b03165f908152600e60205260409020805460ff19169055005b3461042a57604036600319011261042a57611bad613ed5565b6004355f525f516020614e925f395f51905f5260205260405f209060018060a01b03165f52602052602060ff60405f2054166040519015158152f35b3461042a57604036600319011261042a57611c02613eeb565b5f60408051611c1081613f15565b82815282602082015201526004355f52600f60205260ff60405f2091165f52602052606060405f20604051611c4481613f15565b815491828252604060ff600260018401549360208601948552015416920191151582526040519283525160208301525115156040820152f35b3461042a57602036600319011261042a57600435611c996143f6565b805f52600960205260405f20541561041b575f9081526009602052604081206014810180546001600160a01b031916905560150155005b3461042a57602036600319011261042a57600435611cec614c2a565b6002600454146111d4576002600455805f52600960205260405f20541561041b57805f52600960205260ff601160405f200154166104f157805f52600960205260405f2090600e8201600b60ff825416611d4581613f0b565b036104ce5760028301546001600160a01b0316330361136257600f83019081544211611f425760075460405163023aa9ab60e61b81527fd8e6c8b39dbc70333b42d059fa436cf2679722325c0f6ed7e701df0b05a637c8600482015290602090829060249082906001600160a01b03165afa908115610b33575f91611f03575b50604051636896470560e11b815290602090829060049082906001600160a01b03165afa908115610b33575f91611ec9575b5015611eba57825f52600f60205260405f205f8052602052611e3f611e2560405f2054600b870154906141b6565b6003909501548590309033906001600160a01b0316614c51565b825f52600f60205260405f205f8052602052600260405f2001600160ff19825416179055600660ff1982541617905560015f526008602052611e8560405f2054426141b6565b90556040519182527fc8fceb94d8cfaf3010a32f39dbdb0c0b361b10cdd6c7299d60376c85ff61283760203393a36001600455005b6304d54fbf60e41b5f5260045ffd5b90506020813d602011611efb575b81611ee460209383613f30565b8101031261042a57611ef590614007565b85611df7565b3d9150611ed7565b90506020813d602011611f3a575b81611f1e60209383613f30565b8101031261042a576020611f33600492613fe1565b9150611dc5565b3d9150611f11565b633833dfbb60e01b5f5260045ffd5b3461042a575f36600319011261042a57611f69614452565b611f71614c2a565b600160ff195f516020614ed25f395f51905f525416175f516020614ed25f395f51905f52557f62e78cea01bee320cd4e420270b5ea74000d11b0c9f74754ebdbfc544b05a2586020604051338152a1005b3461042a57602036600319011261042a57600435611fde614c2a565b805f52600960205260405f20541561041b57805f52600960205260ff601160405f200154166104f1575f81815260096020526040902060018101546001600160a01b03163303610cb55760ff600e60079201541661203b81613f0b565b036104ce57805f52600960205260405f20600e8101805490600f60ff83169260ff191617905581545f52600b6020525f604081205561207981613f0b565b600c8114908115612112575b506120a6575b505f516020614e725f395f51905f52602060405160028152a2005b815f52600f60205260405f205f80526020526120cb60405f2054600b830154906141b6565b60028201546001600160a01b039081165f908152600c602090815260408083206003909601549093168252939093529091208054909161210a916141b6565b90558161208b565b600d915061211f81613f0b565b1483612085565b3461042a57602036600319011261042a5761213f613ebf565b612147614452565b6001600160a01b03168015610783575f908152600e60205260409020805460ff19166001179055005b3461042a57602036600319011261042a5760043561218c6143ad565b805f52600960205260405f20541561041b57805f52600960205260405f20601181019081549160ff83161561221e575f926012830192600f6121cf8554426141a9565b9101908154908161220b575b50505060ff19169055557f9d9b6c6fd020eade06cab024fe4853c17d4ee689fa225e44b23c82908c1529205f80a2005b612214916141b6565b90558580806121db565b634c22487160e01b5f5260045ffd5b3461042a57604036600319011261042a576001600160401b036004351161042a576102006004353603600319011261042a576024356001600160401b03811161042a573660238201121561042a576001600160401b0360048201351161042a57366024826004013560051b8301011161042a576122a86143f6565b6005545f198114610d9c576001810160055561230f60206122d46101c460043501600435600401614323565b6123216122ec6101e460043501600435600401614323565b6040516305cef8bf60e31b81526060600482015296879586956064870191614358565b84810360031901602486015291614358565b60a460043501356044830152038173__$d9d5ca12ac0847b5930a2330ee53d4fb3d$__5af4908115610b33575f91612a49575b5061236360446004350161437c565b61237160646004350161437c565b61237f60846004350161437c565b61238d60e46004350161437c565b61239c6101246004350161437c565b906123ac6101646004350161437c565b925f805260086020526123c360405f2054426141b6565b604051969095906001600160401b036102c08901908111908911176128fc576102c0880160405260246004350135885260018060a01b0316602088015260018060a01b0316604087015260018060a01b0316606086015260a46004350135608086015260c4600435013560a086015260018060a01b031660c0850152610104600435013560e085015260018060a01b0316610100840152610144600435013561012084015260018060a01b03166101408301526101a460043501356101608301525f6101808301525f6101a083015260056101c08301526101e08201525f6102008201525f6102208201525f6102408201525f6102608201525f6102808201525f6102a0820152600183015f52600960205260156102a060405f20928051845560018060a01b03602082015116600185019060018060a01b031660018060a01b031982541617905560018060a01b03604082015116600285019060018060a01b031660018060a01b031982541617905560018060a01b03606082015116600385019060018060a01b031660018060a01b03198254161790556080810151600485015560a0810151600585015560018060a01b0360c082015116600685019060018060a01b031660018060a01b031982541617905560e0810151600785015560018060a01b0361010082015116600885019060018060a01b031660018060a01b0319825416179055610120810151600985015560018060a01b0361014082015116600a85019060018060a01b031660018060a01b0319825416179055610160810151600b85015561261d6101808201511515600c8601614312565b6101a0810151600d850155600e84016101c082015161263b81613f0b565b61264481613f0b565b60ff801983541691161790556101e0810151600f850155610200810151601085015561267a610220820151151560118601614312565b61024081015160128501556102608101516013850180546001600160a01b039283166001600160a01b03199182161790915561028083015160148701805491909316911617905501519101555f5b8181106129b3575f84843682900360a219015b826004013584101561291057600182015f52600a60205260405f209360248160051b850101358281121561042a578401948054600160401b8110156128fc5761272991600182018155613f6e565b9590956128e9576024810135604219368390030181121561042a5781016024019586356001600160401b03811161042a57803603602089011361042a578154600181811c911680156128df575b60208210146128cb57601f8111612886575b505f601f8211600114612811576127e692826084936002936001999a9b9c5f92612803575b50505f19600383901b1c191690881b1781555b60448501358782015501926127e06127da606483016143a0565b85614312565b016143a0565b815461ff00191690151560081b61ff0016179055019291906126db565b602092500101358c806127ad565b601f19821690835f5260205f20915f5b81811061286c5750836002936001999a9b9c6127e697946084978c9510612850575b505050811b0181556127c0565b01602001355f19600384901b60f8161c191690558c8080612843565b9192602060018192828f8801013581550194019201612821565b825f5260205f20601f830160051c810191602084106128c1575b601f0160051c01905b8181106128b65750612788565b5f81556001016128a9565b90915081906128a0565b634e487b7160e01b5f52602260045260245ffd5b90607f1690612776565b634e487b7160e01b5f525f60045260245ffd5b634e487b7160e01b5f52604160045260245ffd5b602082602460043501355f52600b82526001810160405f205560018060a01b0361293e60646004350161437c565b166040519060246004350135600184017f5ba2d3aaa8e1e5bbbd9f867713ff8003713fc0f7e68663f60f68f2e151f4c7e75f80a46001600160a01b0361298860043560640161437c565b16815260246004350135905f516020614e525f395f51905f52846001850192a3600160405191018152f35b80612a436129d86001936129d26101c460043501600435600401614323565b90614390565b3560026129f4846129d26101e460043501600435600401614323565b3560405192612a0284613f15565b83526020830190815260408301905f82528689015f52600f60205260405f2060ff808816165f5260205260405f209351845551868401555115159101614312565b016126c8565b90506020813d602011612a73575b81612a6460209383613f30565b8101031261042a575183612354565b3d9150612a57565b3461042a57602036600319011261042a57600435612a97614452565b6107d08111612ad1576020817fd10d75876659a287a59a6ccfa2e3fff42f84d94b542837acd30bc184d562de4092600155604051908152a1005b63499fddb160e01b5f5260045ffd5b3461042a575f36600319011261042a5760206040515f516020614f125f395f51905f528152f35b3461042a5760c036600319011261042a57600435612b23613ed5565b906044356084356001600160a01b038116810361042a5760a43590612b4661449b565b835f52600960205260405f20541561041b576002600454146111d4576002600455835f52600960205260405f2092600e84019560ff875416612b8781613f0b565b60068114159081612d8e575b506104ce5760ff6011860154166104f1576001600160a01b031695861561078357811561040c576013850180546001600160a01b031615612d68575b5060018060a01b0360065416925f8654602460405180978193631cab5c9d60e31b835260048301525afa908115610b3357889588955f93612d4c575b505f9281151580612d3f575b612cf5575b5050602095938795937f535fff337cc06e7ebc5c59d8884ac9de8b73a4aa3ebe96f8bad6a6b0a223108893889360025f516020614e525f395f51905f529b018860018060a01b03198254161790558360048a015560643560098a0155600a89019060018060a01b031660018060a01b0319825416179055600b880155600c870160ff1981541690555f6010880155600b60ff1982541617905560055f5260088252612ccb60405f2054426141b6565b600f87015585545f52600b82528360405f2055604051908152a35493604051908152a36001600455005b9197955095506080915001518060021b9080820460041490151715610d9c57848102948186041490151715610d9c5791938693869391835f516020614e525f395f51905f52612c1c565b5060808101511515612c17565b612d619193503d805f833e610b258183613f30565b918a612c0b565b600286015481546001600160a01b0319166001600160a01b039190911617905587612bcf565b600f9150612d9b81613f0b565b141588612b93565b3461042a57602036600319011261042a57600435612dbf6143f6565b805f52600960205260405f20541561041b57805f52600960205260405f20600e8101805490600f60ff83169260ff191617905581545f52600b6020525f6040812055612e0a81613f0b565b600c8114908115612ea3575b50612e37575b505f516020614e725f395f51905f52602060405160078152a2005b815f52600f60205260405f205f8052602052612e5c60405f2054600b830154906141b6565b60028201546001600160a01b039081165f908152600c6020908152604080832060039096015490931682529390935290912080549091612e9b916141b6565b905581612e1c565b600d9150612eb081613f0b565b1483612e16565b3461042a57602036600319011261042a57600435612ed36143ad565b805f52600960205260405f20541561041b57805f52600960205260ff600e60405f20015416612f0181613f0b565b600e8114908115612ff8575b506104ce57805f52600960205260405f20600e8101805490600f60ff83169260ff191617905581545f52600b6020525f6040812055612f4b81613f0b565b600c8114908115612fe4575b50612f78575b505f516020614e725f395f51905f526020604051600e8152a2005b815f52600f60205260405f205f8052602052612f9d60405f2054600b830154906141b6565b60028201546001600160a01b039081165f908152600c6020908152604080832060039096015490931682529390935290912080549091612fdc916141b6565b905581612f5d565b600d9150612ff181613f0b565b1483612f57565b600f915061300581613f0b565b1482612f0d565b3461042a575f36600319011261042a575f546040516001600160a01b039091168152602090f35b3461042a575f36600319011261042a5760206040515f516020614e325f395f51905f528152f35b3461042a57602036600319011261042a57600435613076614c2a565b805f52600960205260405f20541561041b57805f52600960205260ff601160405f200154166104f157805f52600960205260405f20600560ff600e830154166130be81613f0b565b036104ce576006549054604051631cab5c9d60e31b81526004810182905290915f90829060249082906001600160a01b03165afa8015610b3357610120915f91613230575b500180516001600160a01b031615610b0257516001600160a01b03163303610af357817ffd2ee1303442fdcd75ef0f691a0821035ed5505126ccc8a813b39ca0cebe5c2f5f80a3805f52600960205260405f20600e8101805490600f60ff83169260ff191617905581545f52600b6020525f604081205561318381613f0b565b600c811490811561321c575b506131b0575b505f516020614e725f395f51905f52602060405160048152a2005b815f52600f60205260405f205f80526020526131d560405f2054600b830154906141b6565b60028201546001600160a01b039081165f908152600c6020908152604080832060039096015490931682529390935290912080549091613214916141b6565b905581613195565b600d915061322981613f0b565b148361318f565b61324491503d805f833e610b258183613f30565b84613103565b3461042a57604036600319011261042a57613263613ed5565b6004355f52600d60205260405f209060018060a01b03165f52602052602060405f2054604051908152f35b3461042a575f36600319011261042a57602060ff5f516020614ed25f395f51905f5254166040519015158152f35b3461042a575f36600319011261042a577f00000000000000000000000000000000000000000000000000000000000000006001600160a01b031630036133135760206040515f516020614e125f395f51905f528152f35b63703e46dd60e11b5f5260045ffd5b604036600319011261042a57613336613ebf565b602435906001600160401b03821161042a573660238301121561042a57816004013561336181613f53565b9261336f6040519485613f30565b818452366024838301011161042a57815f9260246020930183870137840101526001600160a01b037f000000000000000000000000000000000000000000000000000000000000000016308114908115613525575b5061331357335f9081525f516020614df25f395f51905f52602052604090205460ff161561350e576040516352d1902d60e01b81526001600160a01b0382169290602081600481875afa5f91816134da575b5061342e5783634c9c8ce360e01b5f5260045260245ffd5b805f516020614e125f395f51905f528592036134c85750823b156134b6575f516020614e125f395f51905f5280546001600160a01b031916821790557fbc7cd75a20ee27fd9adebab32041f755214dbc6bffa90cc0225b39da2e5c2d3b5f80a280511561349e576110b191614ce5565b5050346134a757005b63b398979f60e01b5f5260045ffd5b634c9c8ce360e01b5f5260045260245ffd5b632a87526960e21b5f5260045260245ffd5b9091506020813d602011613506575b816134f660209383613f30565b8101031261042a57519085613416565b3d91506134e9565b63e2517d3f60e01b5f52336004525f60245260445ffd5b5f516020614e125f395f51905f52546001600160a01b031614159050836133c4565b3461042a57602036600319011261042a5760e0613565600435614243565b60c06040519180511515835260018060a01b03602082015116602084015260018060a01b03604082015116604084015260018060a01b0360608201511660608401526080810151608084015260a08101516135bf81613f0b565b60a0840152015160c0820152f35b3461042a575f36600319011261042a576006546040516001600160a01b039091168152602090f35b3461042a575f36600319011261042a5761360d614452565b6003548015613682574210613673575f8054600280546001600160a01b038082166001600160a01b0319808616821787559092169092556003849055929116907f0c5d18caa145415182f8ad3d2563da586609cec04ac8505274d87bc43f00b4a49080a3005b6357f4ad8b60e01b5f5260045ffd5b6315090c2d60e01b5f5260045ffd5b3461042a57604036600319011261042a576136aa613ebf565b6136b2613ed5565b6001600160a01b039182165f908152600c60209081526040808320949093168252928352819020549051908152f35b3461042a575f36600319011261042a576136f9614452565b5f516020614ed25f395f51905f525460ff8116156137505760ff19165f516020614ed25f395f51905f52557f5db9ee0a495bf2e6ff9c91a7834c1ba4fdd244a5e8aa4e537bd38aeae4b073aa6020604051338152a1005b638dfc202b60e01b5f5260045ffd5b3461042a57602036600319011261042a5760043561377b6143f6565b805f52600960205260405f20541561041b575f52600960205260405f20600e8101600b60ff1982541617905560055f526008602052600f6137c060405f2054426141b6565b910155005b3461042a57604036600319011261042a576137de613efb565b602435906137ea614452565b600a821061380d5760ff166006811161040c575f52600860205260405f20555f80f35b63296d383360e01b5f5260045ffd5b3461042a57604036600319011261042a57613835613ed5565b336001600160a01b03821603613851576110b190600435614b8e565b63334bd91960e11b5f5260045ffd5b3461042a575f36600319011261042a576020600154604051908152f35b3461042a575f36600319011261042a5760206040515f516020614f725f395f51905f528152f35b3461042a57602036600319011261042a5760ff6138bf613efb565b165f526008602052602060405f2054604051908152f35b3461042a57604036600319011261042a576110b16004356138f5613ed5565b906139026110a782614225565b614afd565b3461042a575f36600319011261042a57604060018060a01b036002541660035482519182526020820152f35b3461042a57604036600319011261042a5760043561394f613eeb565b6139576143f6565b815f52600960205260405f20541561041b5760ff16600f811015613a535760205f516020614e725f395f51905f5291835f526009825260405f20600e8101805490600f60ff83169260ff191617905581545f52600b84525f60408120556139bd81613f0b565b600c8114908115613a3f575b506139d9575b50604051908152a2005b845f52600f835260405f205f805283526139fc60405f2054600b830154906141b6565b60028201546001600160a01b039081165f908152600c86526040808220600390950154909216815292855290912080549091613a37916141b6565b9055846139cf565b600d9150613a4c81613f0b565b14866139c9565b634e487b7160e01b5f52602160045260245ffd5b3461042a57602036600319011261042a576020613a85600435614225565b604051908152f35b3461042a57602036600319011261042a57613aa6613ebf565b6002600454146111d4576002600455335f52600c60205260405f2060018060a01b0382165f5260205260405f2054908115613b4257335f52600c60205260405f2060018060a01b0382165f526020525f604081205560018060a01b031690613b0f813384614906565b6040519081527f716942921e9b67ee05c4c2ffcf216f189086c9053b444c8928a49db4bdb1ae8e60203392a36001600455005b6312d37ee560e31b5f5260045ffd5b3461042a57602036600319011261042a5760c060ff613b716004356141c3565b9495919290936040519615158752151560208701521660408501526060840152608083015260018060a01b031660a0820152f35b3461042a57602036600319011261042a5760043563ffffffff60e01b811680910361042a57602090637965db0b60e01b8114908115613bea575b506040519015158152f35b6301ffc9a760e01b14905082613bdf565b3461042a57602036600319011261042a57600435613c176143ad565b6002600454146111d4576002600455805f52600960205260405f20541561041b57805f52600960205260ff600e60405f20015416613c5481613f0b565b600c8114159081613c89575b81613c74575b506104ce576111cd9061453d565b60069150613c8181613f0b565b141582613c66565b9050613c9481613f0b565b600d81141590613c60565b3461042a57613cad36613ea9565b90613cb66143ad565b805f52600960205260405f20541561041b57805f52600960205260405f20600e60ff8183015416613ce681613f0b565b036104ce57815f52600a60205260405f208054841015613e9a5783613d0a91613f6e565b509060028201805460ff8160081c16613e8b5761ff001981166101001790915560ff1615613e785760018060a01b03600654165f8254602460405180948193631cab5c9d60e31b835260048301525afa8015610b3357610120915f91613e5e575b500180516001600160a01b031615610b0257516001600160a01b03165b835f52600d602052600360405f2092019060018060a01b038254169260018060a01b0384165f52602052600160405f2054940190815480951061040c577f8a7b03d7dda6d95d58f5cd28b28478861ccab393473b4181ae4d6ec30207dfea94604094875f52600d602052855f209060018060a01b03165f52602052613e11855f209182546141a9565b905581546001600160a01b039182165f818152600c6020908152878220965490941681529490925292849020805491939091613e4d91906141b6565b9055549082519182526020820152a3005b613e7291503d805f833e610b258183613f30565b86613d6b565b60018101546001600160a01b0316613d88565b631281aab960e01b5f5260045ffd5b63671a587360e01b5f5260045ffd5b604090600319011261042a576004359060243590565b600435906001600160a01b038216820361042a57565b602435906001600160a01b038216820361042a57565b6024359060ff8216820361042a57565b6004359060ff8216820361042a57565b60101115613a5357565b606081019081106001600160401b038211176128fc57604052565b601f909101601f19168101906001600160401b038211908210176128fc57604052565b6001600160401b0381116128fc57601f01601f191660200190565b8054821015613f87575f52600360205f20910201905f90565b634e487b7160e01b5f52603260045260245ffd5b81601f8201121561042a57805190613fb282613f53565b92613fc06040519485613f30565b8284526020838301011161042a57815f9260208093018386015e8301015290565b51906001600160a01b038216820361042a57565b519064ffffffffff8216820361042a57565b5190811515820361042a57565b60208183031261042a578051906001600160401b03821161042a57016102208183031261042a576040519161022083016001600160401b038111848210176128fc576040528151835260208201516001600160401b03811161042a578161407c918401613f9b565b602084015260408201516001600160401b03811161042a57816140a0918401613f9b565b604084015260608201516001600160401b03811161042a57816140c4918401613f9b565b60608401526080820151608084015260a082015160a084015260c082015160c084015260e082015160e084015261010082015161010084015261410a6101208301613fe1565b61012084015261411d6101408301613ff5565b6101408401526141306101608301613ff5565b6101608401526141436101808301614007565b6101808401526141566101a08301614007565b6101a08401526141696101c08301614007565b6101c084015261417c6101e08301614007565b6101e08401526102008201516001600160401b03811161042a576141a09201613f9b565b61020082015290565b91908203918211610d9c57565b91908201809211610d9c57565b5f52600960205260405f208054156142165760ff6011820154169160ff600e83015416916141f083613f0b565b600f810154601582015460149092015460019594939192916001600160a01b0390911690565b505f905f905f905f905f905f90565b5f525f516020614e925f395f51905f52602052600160405f20015490565b60405190919060e081016001600160401b038111828210176128fc576040525f81525f60208201525f60408201525f60608201525f60808201525f60a08201525f60c082015280925f52600960205260405f209081541561430d575060018084528101546001600160a01b039081166020850152600282015481166040850152600382015416606084015260048101546080840152600e810154600f919060ff166142ed81613f0b565b6142f681613f0b565b6142ff81613f0b565b60a0850152015460c0830152565b925050565b9060ff801983541691151516179055565b903590601e198136030182121561042a57018035906001600160401b03821161042a57602001918160051b3603831361042a57565b81835290916001600160fb1b03831161042a5760209260051b809284830137010190565b356001600160a01b038116810361042a5790565b9190811015613f875760051b0190565b35801515810361042a5790565b335f9081525f516020614db25f395f51905f52602052604090205460ff16156143d257565b63e2517d3f60e01b5f52336004525f516020614e325f395f51905f5260245260445ffd5b335f9081527fe102a084b8508bede6bf51c8b54b1c4d119a4a0e42216477c270f0353f96ae65602052604090205460ff161561442e57565b63e2517d3f60e01b5f52336004525f516020614ef25f395f51905f5260245260445ffd5b335f9081525f516020614dd25f395f51905f52602052604090205460ff161561447757565b63e2517d3f60e01b5f52336004525f516020614f125f395f51905f5260245260445ffd5b335f9081527f15006ca99e3841ce9f950bb5d9acd3e27ae500b327faa87196c493ffe88cef4c602052604090205460ff16156144d357565b63e2517d3f60e01b5f52336004525f516020614f725f395f51905f5260245260445ffd5b5f8181525f516020614e925f395f51905f526020908152604080832033845290915290205460ff16156145275750565b63e2517d3f60e01b5f523360045260245260445ffd5b5f90805f52600960205260405f2090600e8201600e60ff198254161790556276a7004201804211610d9c57600d83015581545f52600b6020525f6040812055805f52600f60205260405f205f805260205260405f205491600154801515806148f3575b156148ec575b6005820154801515806148d6575b156148cf575b6007830154801515806148b9575b156148b157905b60098401548015158061489b575b1561489357925b6040519663a4ba3a7f60e01b88526004880152602487015260448601526064850152608484015260a08360a48173__$d9d5ca12ac0847b5930a2330ee53d4fb3d$__5af4928315610b33575f5f5f915f935f97614842575b5080614802575b50806147bf575b508061477c575b5080614739575b506001810180546001600160a01b039081165f908152600c60209081526040808320600387015490941683529290522080549194909161469891906141b6565b90556006548154935460028301805490956001600160a01b0391821693909282169116803b1561042a575f928360649260405196879586946332f65ba360e01b86526004860152602485015260448401525af18015610b3357614717575b505491546001600160a01b0316925f516020614eb25f395f51905f529080a4565b6147249194505f90613f30565b5f925f516020614eb25f395f51905f526146f6565b600a8201546001600160a01b039081165f908152600c60209081526040808320600387015490941683529290522080549091614774916141b6565b90555f614658565b60088301546001600160a01b039081165f908152600c602090815260408083206003880154909416835292905220805490916147b7916141b6565b90555f614651565b60068401546001600160a01b039081165f908152600c602090815260408083206003890154909416835292905220805490916147fa916141b6565b90555f61464a565b5f80546001600160a01b039081168252600c6020908152604080842060038a0154909316845291905290208054909161483a916141b6565b90555f614643565b96505050505060a0833d60a01161488b575b8161486160a09383613f30565b8101031261042a57825160208401516040850151606086015160809096015195929091905f61463c565b3d9150614854565b505f926145e4565b50600a8501546001600160a01b031615156145dd565b505f906145cf565b5060088401546001600160a01b031615156145c8565b505f6145ba565b5060068301546001600160a01b031615156145b4565b505f6145a6565b505f546001600160a01b031615156145a0565b916040519163a9059cbb60e01b5f5260018060a01b031660045260245260205f60448180865af19060015f5114821615614966575b604052156149465750565b635274afe760e01b5f9081526001600160a01b0391909116600452602490fd5b90600181151661497e57823b15153d1516169061493b565b503d5f823e3d90fd5b6001600160a01b0381165f9081525f516020614df25f395f51905f52602052604090205460ff166149f8576001600160a01b03165f8181525f516020614df25f395f51905f5260205260408120805460ff191660011790553391905f516020614d725f395f51905f528180a4600190565b505f90565b6001600160a01b0381165f9081525f516020614dd25f395f51905f52602052604090205460ff166149f8576001600160a01b03165f8181525f516020614dd25f395f51905f5260205260408120805460ff191660011790553391905f516020614f125f395f51905f52905f516020614d725f395f51905f529080a4600190565b6001600160a01b0381165f9081525f516020614db25f395f51905f52602052604090205460ff166149f8576001600160a01b03165f8181525f516020614db25f395f51905f5260205260408120805460ff191660011790553391905f516020614e325f395f51905f52905f516020614d725f395f51905f529080a4600190565b5f8181525f516020614e925f395f51905f52602090815260408083206001600160a01b038616845290915290205460ff16614b88575f8181525f516020614e925f395f51905f52602090815260408083206001600160a01b0395909516808452949091528120805460ff19166001179055339291905f516020614d725f395f51905f529080a4600190565b50505f90565b5f8181525f516020614e925f395f51905f52602090815260408083206001600160a01b038616845290915290205460ff1615614b88575f8181525f516020614e925f395f51905f52602090815260408083206001600160a01b0395909516808452949091528120805460ff19169055339291907ff6391f5c32d9c69d2a47ea670b442974b53935d1edc7fd64eb21e047a839171b9080a4600190565b60ff5f516020614ed25f395f51905f525416614c4257565b63d93c066560e01b5f5260045ffd5b6040516323b872dd60e01b5f9081526001600160a01b039384166004529290931660245260449390935260209060648180865af19060015f5114821615614ca2575b6040525f606052156149465750565b90600181151661497e57823b15153d15161690614c93565b60ff5f516020614f525f395f51905f525460401c1615614cd657565b631afcd79f60e31b5f5260045ffd5b905f8091602081519101845af48080614d5e575b15614d195750506040513d81523d5f602083013e60203d82010160405290565b15614d3e57639996b31560e01b5f9081526001600160a01b0391909116600452602490fd5b3d15614d4f576040513d5f823e3d90fd5b63d6bda27560e01b5f5260045ffd5b503d151580614cf95750813b1515614cf956fe2f8788117e7eff1d82e926ec794901d17c78024a50270940304540a733656f0d13acf3fc7bed94759963f076d5d3443d88732026bffc8253bdf4a6e65f21ecc57a1492cadb22452d254c71a9ef0c781c9f2d1c472dc5213a713c8769ea04d819b16e88c42fd4e48df2dd6a2eabd6bc9aec654ec170056b470819f8892cc6431cb7db2dd08fcb62d0c9e08c51941cae53c267786a0b75803fb7960902fc8ef97d360894a13ba1a3210667c828492db98dca3e2076cc3735a920a3ca505d382bbce4369475d33ca6555b45ac3cf081bee16c4b11779d89f812395c569b2de40f013a24deaadf78a85a780efe5abe4bbc96c2cbcb1620cf4c951dca4e931576a35f6f16db8d1d117ace6c231f2420199bd5731215b09c0610c8103dd70237f23b6702dd7bc7dec4dceedda775e58dd541e08a116c6c53815c0bd028192f7b6268004c64a78d82982b8bfbb5b3bc9a6e8b4e024bb84db4aaf997d36667cd611183dccd5ed15c6e187e77e9aee88184c21f4f2182ab5827cb3b7e07fbedcd63f03300b91045a954d2b1232c32104950cc1bd73039d77d96d80d2677a658336477a079a49807205ce4d355092ef5a8a18f56e8913cf4a201fbe287825b095693c217759321edea6e3be4df59a344b401fab4f888b556fda1f954244cff9204bad624b8f0c57e16840df040f15088dc2f81fe391c3923bec73e23a9662efc9c229c6a00a1781173f98d02239c8eb8786d4d41c7604b58c14ea1a66660ec8deb665f03daa26469706673582212208a0bed5799633dca0e9e2aae84d6232091e5ada66f714a3986cb41ff4902c15164736f6c634300081c0033f0c57e16840df040f15088dc2f81fe391c3923bec73e23a9662efc9c229c6a00",
  "linkReferences": {
    "project/contracts/libraries/FeeLib.sol": {
      "FeeLib": [
        {
          "length": 20,
          "start": 9208
        },
        {
          "length": 20,
          "start": 18138
        }
      ]
    }
  },
  "deployedLinkReferences": {
    "project/contracts/libraries/FeeLib.sol": {
      "FeeLib": [
        {
          "length": 20,
          "start": 9009
        },
        {
          "length": 20,
          "start": 17939
        }
      ]
    }
  },
  "immutableReferences": {
    "1408": [
      {
        "length": 32,
        "start": 13006
      },
      {
        "length": 32,
        "start": 13209
      }
    ]
  },
  "inputSourceName": "project/contracts/core/DealEscrow.sol",
  "buildInfoId": "solc-0_8_28-c7a9050818268dc29c28022e6d4e533fce1f48af"
}