{
  "_format": "hh3-artifact-1",
  "contractName": "DealEscrow",
  "sourceName": "contracts/core/DealEscrow.sol",
  "abi": [
    {
      "inputs": [],
      "stateMutability": "nonpayable",
      "type": "constructor"
    },
    {
      "inputs": [],
      "name": "AccessControlBadConfirmation",
      "type": "error"
    },
    {
      "inputs": [
        {
          "internalType": "address",
          "name": "account",
          "type": "address"
        },
        {
          "internalType": "bytes32",
          "name": "neededRole",
          "type": "bytes32"
        }
      ],
      "name": "AccessControlUnauthorizedAccount",
      "type": "error"
    },
    {
      "inputs": [],
      "name": "AddOnAlreadyTriggered",
      "type": "error"
    },
    {
      "inputs": [],
      "name": "AddOnNotFound",
      "type": "error"
    },
    {
      "inputs": [
        {
          "internalType": "address",
          "name": "target",
          "type": "address"
        }
      ],
      "name": "AddressEmptyCode",
      "type": "error"
    },
    {
      "inputs": [],
      "name": "CannotConfirmOwnProposal",
      "type": "error"
    },
    {
      "inputs": [],
      "name": "ConsentWindowExpired",
      "type": "error"
    },
    {
      "inputs": [],
      "name": "DealIsFrozen",
      "type": "error"
    },
    {
      "inputs": [],
      "name": "DealNotFound",
      "type": "error"
    },
    {
      "inputs": [],
      "name": "DealNotFrozen",
      "type": "error"
    },
    {
      "inputs": [],
      "name": "DisputeWindowExpired",
      "type": "error"
    },
    {
      "inputs": [
        {
          "internalType": "address",
          "name": "implementation",
          "type": "address"
        }
      ],
      "name": "ERC1967InvalidImplementation",
      "type": "error"
    },
    {
      "inputs": [],
      "name": "ERC1967NonPayable",
      "type": "error"
    },
    {
      "inputs": [],
      "name": "EnforcedPause",
      "type": "error"
    },
    {
      "inputs": [],
      "name": "ExpectedPause",
      "type": "error"
    },
    {
      "inputs": [],
      "name": "FailedCall",
      "type": "error"
    },
    {
      "inputs": [],
      "name": "FundingWindowExpired",
      "type": "error"
    },
    {
      "inputs": [],
      "name": "HijackWindowClosed",
      "type": "error"
    },
    {
      "inputs": [],
      "name": "InvalidAddress",
      "type": "error"
    },
    {
      "inputs": [],
      "name": "InvalidAmount",
      "type": "error"
    },
    {
      "inputs": [],
      "name": "InvalidInitialization",
      "type": "error"
    },
    {
      "inputs": [],
      "name": "InvalidInstallmentSchedule",
      "type": "error"
    },
    {
      "inputs": [],
      "name": "LeagueDisputeDeadlineExpired",
      "type": "error"
    },
    {
      "inputs": [],
      "name": "MedicalAlreadySubmitted",
      "type": "error"
    },
    {
      "inputs": [],
      "name": "MedicalWindowExpired",
      "type": "error"
    },
    {
      "inputs": [],
      "name": "MutualCancelAlreadyProposed",
      "type": "error"
    },
    {
      "inputs": [],
      "name": "MutualCancelExpiredError",
      "type": "error"
    },
    {
      "inputs": [],
      "name": "MutualCancelNotProposed",
      "type": "error"
    },
    {
      "inputs": [],
      "name": "NoSigningBonus",
      "type": "error"
    },
    {
      "inputs": [],
      "name": "NotBuyingClub",
      "type": "error"
    },
    {
      "inputs": [],
      "name": "NotInitializing",
      "type": "error"
    },
    {
      "inputs": [],
      "name": "NotPlayerWallet",
      "type": "error"
    },
    {
      "inputs": [],
      "name": "NotSellingClub",
      "type": "error"
    },
    {
      "inputs": [],
      "name": "NothingToClaim",
      "type": "error"
    },
    {
      "inputs": [],
      "name": "PlayerWalletNotSet",
      "type": "error"
    },
    {
      "inputs": [],
      "name": "ProtocolFeeTooHigh",
      "type": "error"
    },
    {
      "inputs": [],
      "name": "ReentrantCall",
      "type": "error"
    },
    {
      "inputs": [
        {
          "internalType": "address",
          "name": "token",
          "type": "address"
        }
      ],
      "name": "SafeERC20FailedOperation",
      "type": "error"
    },
    {
      "inputs": [],
      "name": "SigningBonusAlreadyClaimed",
      "type": "error"
    },
    {
      "inputs": [],
      "name": "TimerTooShort",
      "type": "error"
    },
    {
      "inputs": [],
      "name": "TokenNotApproved",
      "type": "error"
    },
    {
      "inputs": [],
      "name": "TransferWindowClosed",
      "type": "error"
    },
    {
      "inputs": [],
      "name": "UUPSUnauthorizedCallContext",
      "type": "error"
    },
    {
      "inputs": [
        {
          "internalType": "bytes32",
          "name": "slot",
          "type": "bytes32"
        }
      ],
      "name": "UUPSUnsupportedProxiableUUID",
      "type": "error"
    },
    {
      "inputs": [],
      "name": "WrongDealState",
      "type": "error"
    },
    {
      "anonymous": false,
      "inputs": [
        {
          "indexed": true,
          "internalType": "uint256",
          "name": "dealId",
          "type": "uint256"
        },
        {
          "indexed": true,
          "internalType": "uint256",
          "name": "idx",
          "type": "uint256"
        },
        {
          "indexed": false,
          "internalType": "uint256",
          "name": "amount",
          "type": "uint256"
        },
        {
          "indexed": false,
          "internalType": "address",
          "name": "recipient",
          "type": "address"
        }
      ],
      "name": "AddOnTriggered",
      "type": "event"
    },
    {
      "anonymous": false,
      "inputs": [
        {
          "indexed": true,
          "internalType": "uint256",
          "name": "dealId",
          "type": "uint256"
        },
        {
          "indexed": false,
          "internalType": "enum TransferTypes.CancelReason",
          "name": "reason",
          "type": "uint8"
        }
      ],
      "name": "DealCancelled",
      "type": "event"
    },
    {
      "anonymous": false,
      "inputs": [
        {
          "indexed": true,
          "internalType": "uint256",
          "name": "dealId",
          "type": "uint256"
        },
        {
          "indexed": true,
          "internalType": "uint256",
          "name": "playerId",
          "type": "uint256"
        },
        {
          "indexed": true,
          "internalType": "address",
          "name": "newClub",
          "type": "address"
        }
      ],
      "name": "DealCompleted",
      "type": "event"
    },
    {
      "anonymous": false,
      "inputs": [
        {
          "indexed": true,
          "internalType": "uint256",
          "name": "dealId",
          "type": "uint256"
        },
        {
          "indexed": true,
          "internalType": "uint256",
          "name": "playerId",
          "type": "uint256"
        },
        {
          "indexed": true,
          "internalType": "address",
          "name": "buyingClub",
          "type": "address"
        }
      ],
      "name": "DealCreated",
      "type": "event"
    },
    {
      "anonymous": false,
      "inputs": [
        {
          "indexed": true,
          "internalType": "uint256",
          "name": "dealId",
          "type": "uint256"
        }
      ],
      "name": "DealFrozen",
      "type": "event"
    },
    {
      "anonymous": false,
      "inputs": [
        {
          "indexed": true,
          "internalType": "uint256",
          "name": "dealId",
          "type": "uint256"
        }
      ],
      "name": "DealUnfrozen",
      "type": "event"
    },
    {
      "anonymous": false,
      "inputs": [
        {
          "indexed": true,
          "internalType": "uint256",
          "name": "dealId",
          "type": "uint256"
        },
        {
          "indexed": true,
          "internalType": "address",
          "name": "raisedBy",
          "type": "address"
        }
      ],
      "name": "DisputeRaised",
      "type": "event"
    },
    {
      "anonymous": false,
      "inputs": [
        {
          "indexed": true,
          "internalType": "uint256",
          "name": "dealId",
          "type": "uint256"
        }
      ],
      "name": "DisputeResolved",
      "type": "event"
    },
    {
      "anonymous": false,
      "inputs": [
        {
          "indexed": true,
          "internalType": "uint256",
          "name": "dealId",
          "type": "uint256"
        },
        {
          "indexed": true,
          "internalType": "address",
          "name": "buyingClub",
          "type": "address"
        },
        {
          "indexed": false,
          "internalType": "uint256",
          "name": "amount",
          "type": "uint256"
        }
      ],
      "name": "FundingReceived",
      "type": "event"
    },
    {
      "anonymous": false,
      "inputs": [
        {
          "indexed": true,
          "internalType": "address",
          "name": "recipient",
          "type": "address"
        },
        {
          "indexed": true,
          "internalType": "address",
          "name": "token",
          "type": "address"
        },
        {
          "indexed": false,
          "internalType": "uint256",
          "name": "amount",
          "type": "uint256"
        }
      ],
      "name": "FundsClaimed",
      "type": "event"
    },
    {
      "anonymous": false,
      "inputs": [
        {
          "indexed": true,
          "internalType": "uint256",
          "name": "dealId",
          "type": "uint256"
        },
        {
          "indexed": true,
          "internalType": "address",
          "name": "hijackClub",
          "type": "address"
        }
      ],
      "name": "HijackBidAccepted",
      "type": "event"
    },
    {
      "anonymous": false,
      "inputs": [
        {
          "indexed": true,
          "internalType": "uint256",
          "name": "dealId",
          "type": "uint256"
        },
        {
          "indexed": true,
          "internalType": "address",
          "name": "hijackClub",
          "type": "address"
        }
      ],
      "name": "HijackBidRejected",
      "type": "event"
    },
    {
      "anonymous": false,
      "inputs": [
        {
          "indexed": true,
          "internalType": "uint256",
          "name": "dealId",
          "type": "uint256"
        },
        {
          "indexed": true,
          "internalType": "address",
          "name": "hijackClub",
          "type": "address"
        },
        {
          "indexed": false,
          "internalType": "uint256",
          "name": "transferFee",
          "type": "uint256"
        }
      ],
      "name": "HijackBidSubmitted",
      "type": "event"
    },
    {
      "anonymous": false,
      "inputs": [
        {
          "indexed": false,
          "internalType": "uint64",
          "name": "version",
          "type": "uint64"
        }
      ],
      "name": "Initialized",
      "type": "event"
    },
    {
      "anonymous": false,
      "inputs": [
        {
          "indexed": true,
          "internalType": "uint256",
          "name": "dealId",
          "type": "uint256"
        },
        {
          "indexed": true,
          "internalType": "address",
          "name": "escalatedBy",
          "type": "address"
        }
      ],
      "name": "MedicalDisputeEscalated",
      "type": "event"
    },
    {
      "anonymous": false,
      "inputs": [
        {
          "indexed": true,
          "internalType": "uint256",
          "name": "dealId",
          "type": "uint256"
        }
      ],
      "name": "MedicalDisputeResolved",
      "type": "event"
    },
    {
      "anonymous": false,
      "inputs": [
        {
          "indexed": true,
          "internalType": "uint256",
          "name": "dealId",
          "type": "uint256"
        },
        {
          "indexed": false,
          "internalType": "uint256",
          "name": "newFee",
          "type": "uint256"
        }
      ],
      "name": "MedicalRenegotiationResolved",
      "type": "event"
    },
    {
      "anonymous": false,
      "inputs": [
        {
          "indexed": true,
          "internalType": "uint256",
          "name": "dealId",
          "type": "uint256"
        }
      ],
      "name": "MedicalRenegotiationStarted",
      "type": "event"
    },
    {
      "anonymous": false,
      "inputs": [
        {
          "indexed": true,
          "internalType": "uint256",
          "name": "dealId",
          "type": "uint256"
        },
        {
          "indexed": false,
          "internalType": "enum TransferTypes.MedicalOutcome",
          "name": "outcome",
          "type": "uint8"
        }
      ],
      "name": "MedicalSubmitted",
      "type": "event"
    },
    {
      "anonymous": false,
      "inputs": [
        {
          "indexed": true,
          "internalType": "uint256",
          "name": "dealId",
          "type": "uint256"
        }
      ],
      "name": "MutualCancelConfirmed",
      "type": "event"
    },
    {
      "anonymous": false,
      "inputs": [
        {
          "indexed": true,
          "internalType": "uint256",
          "name": "dealId",
          "type": "uint256"
        }
      ],
      "name": "MutualCancelExpired",
      "type": "event"
    },
    {
      "anonymous": false,
      "inputs": [
        {
          "indexed": true,
          "internalType": "uint256",
          "name": "dealId",
          "type": "uint256"
        },
        {
          "indexed": true,
          "internalType": "address",
          "name": "proposer",
          "type": "address"
        }
      ],
      "name": "MutualCancelProposed",
      "type": "event"
    },
    {
      "anonymous": false,
      "inputs": [
        {
          "indexed": false,
          "internalType": "address",
          "name": "account",
          "type": "address"
        }
      ],
      "name": "Paused",
      "type": "event"
    },
    {
      "anonymous": false,
      "inputs": [
        {
          "indexed": true,
          "internalType": "uint256",
          "name": "dealId",
          "type": "uint256"
        },
        {
          "indexed": true,
          "internalType": "uint256",
          "name": "playerId",
          "type": "uint256"
        },
        {
          "indexed": false,
          "internalType": "address",
          "name": "buyingClub",
          "type": "address"
        }
      ],
      "name": "PlayerConsentRequested",
      "type": "event"
    },
    {
      "anonymous": false,
      "inputs": [
        {
          "indexed": true,
          "internalType": "uint256",
          "name": "dealId",
          "type": "uint256"
        },
        {
          "indexed": true,
          "internalType": "uint256",
          "name": "playerId",
          "type": "uint256"
        }
      ],
      "name": "PlayerConsented",
      "type": "event"
    },
    {
      "anonymous": false,
      "inputs": [
        {
          "indexed": true,
          "internalType": "uint256",
          "name": "dealId",
          "type": "uint256"
        },
        {
          "indexed": true,
          "internalType": "uint256",
          "name": "playerId",
          "type": "uint256"
        }
      ],
      "name": "PlayerDeclined",
      "type": "event"
    },
    {
      "anonymous": false,
      "inputs": [
        {
          "indexed": false,
          "internalType": "uint256",
          "name": "newBps",
          "type": "uint256"
        }
      ],
      "name": "ProtocolFeeUpdated",
      "type": "event"
    },
    {
      "anonymous": false,
      "inputs": [
        {
          "indexed": true,
          "internalType": "bytes32",
          "name": "role",
          "type": "bytes32"
        },
        {
          "indexed": true,
          "internalType": "bytes32",
          "name": "previousAdminRole",
          "type": "bytes32"
        },
        {
          "indexed": true,
          "internalType": "bytes32",
          "name": "newAdminRole",
          "type": "bytes32"
        }
      ],
      "name": "RoleAdminChanged",
      "type": "event"
    },
    {
      "anonymous": false,
      "inputs": [
        {
          "indexed": true,
          "internalType": "bytes32",
          "name": "role",
          "type": "bytes32"
        },
        {
          "indexed": true,
          "internalType": "address",
          "name": "account",
          "type": "address"
        },
        {
          "indexed": true,
          "internalType": "address",
          "name": "sender",
          "type": "address"
        }
      ],
      "name": "RoleGranted",
      "type": "event"
    },
    {
      "anonymous": false,
      "inputs": [
        {
          "indexed": true,
          "internalType": "bytes32",
          "name": "role",
          "type": "bytes32"
        },
        {
          "indexed": true,
          "internalType": "address",
          "name": "account",
          "type": "address"
        },
        {
          "indexed": true,
          "internalType": "address",
          "name": "sender",
          "type": "address"
        }
      ],
      "name": "RoleRevoked",
      "type": "event"
    },
    {
      "anonymous": false,
      "inputs": [
        {
          "indexed": true,
          "internalType": "uint256",
          "name": "dealId",
          "type": "uint256"
        },
        {
          "indexed": true,
          "internalType": "address",
          "name": "wallet",
          "type": "address"
        },
        {
          "indexed": false,
          "internalType": "uint256",
          "name": "amount",
          "type": "uint256"
        }
      ],
      "name": "SigningBonusClaimed",
      "type": "event"
    },
    {
      "anonymous": false,
      "inputs": [
        {
          "indexed": true,
          "internalType": "address",
          "name": "newTreasury",
          "type": "address"
        }
      ],
      "name": "TreasuryUpdated",
      "type": "event"
    },
    {
      "anonymous": false,
      "inputs": [
        {
          "indexed": false,
          "internalType": "address",
          "name": "account",
          "type": "address"
        }
      ],
      "name": "Unpaused",
      "type": "event"
    },
    {
      "anonymous": false,
      "inputs": [
        {
          "indexed": true,
          "internalType": "address",
          "name": "implementation",
          "type": "address"
        }
      ],
      "name": "Upgraded",
      "type": "event"
    },
    {
      "inputs": [],
      "name": "ADMIN_ROLE",
      "outputs": [
        {
          "internalType": "bytes32",
          "name": "",
          "type": "bytes32"
        }
      ],
      "stateMutability": "view",
      "type": "function"
    },
    {
      "inputs": [],
      "name": "BPS_DENOMINATOR",
      "outputs": [
        {
          "internalType": "uint256",
          "name": "",
          "type": "uint256"
        }
      ],
      "stateMutability": "view",
      "type": "function"
    },
    {
      "inputs": [],
      "name": "DEFAULT_ADMIN_ROLE",
      "outputs": [
        {
          "internalType": "bytes32",
          "name": "",
          "type": "bytes32"
        }
      ],
      "stateMutability": "view",
      "type": "function"
    },
    {
      "inputs": [],
      "name": "HIJACK_FAIL_PENALTY_BPS",
      "outputs": [
        {
          "internalType": "uint256",
          "name": "",
          "type": "uint256"
        }
      ],
      "stateMutability": "view",
      "type": "function"
    },
    {
      "inputs": [],
      "name": "HIJACK_STALL_PENALTY_BPS",
      "outputs": [
        {
          "internalType": "uint256",
          "name": "",
          "type": "uint256"
        }
      ],
      "stateMutability": "view",
      "type": "function"
    },
    {
      "inputs": [],
      "name": "LEAGUE_DISPUTE_DEADLINE",
      "outputs": [
        {
          "internalType": "uint256",
          "name": "",
          "type": "uint256"
        }
      ],
      "stateMutability": "view",
      "type": "function"
    },
    {
      "inputs": [],
      "name": "LEAGUE_ROLE",
      "outputs": [
        {
          "internalType": "bytes32",
          "name": "",
          "type": "bytes32"
        }
      ],
      "stateMutability": "view",
      "type": "function"
    },
    {
      "inputs": [],
      "name": "MAX_PRICE",
      "outputs": [
        {
          "internalType": "uint256",
          "name": "",
          "type": "uint256"
        }
      ],
      "stateMutability": "view",
      "type": "function"
    },
    {
      "inputs": [],
      "name": "MAX_PROTOCOL_FEE_BPS",
      "outputs": [
        {
          "internalType": "uint256",
          "name": "",
          "type": "uint256"
        }
      ],
      "stateMutability": "view",
      "type": "function"
    },
    {
      "inputs": [],
      "name": "MIN_TIMER",
      "outputs": [
        {
          "internalType": "uint256",
          "name": "",
          "type": "uint256"
        }
      ],
      "stateMutability": "view",
      "type": "function"
    },
    {
      "inputs": [],
      "name": "TRANSFER_ESCROW_ROLE",
      "outputs": [
        {
          "internalType": "bytes32",
          "name": "",
          "type": "bytes32"
        }
      ],
      "stateMutability": "view",
      "type": "function"
    },
    {
      "inputs": [],
      "name": "UPGRADE_INTERFACE_VERSION",
      "outputs": [
        {
          "internalType": "string",
          "name": "",
          "type": "string"
        }
      ],
      "stateMutability": "view",
      "type": "function"
    },
    {
      "inputs": [
        {
          "internalType": "uint256",
          "name": "dealId",
          "type": "uint256"
        }
      ],
      "name": "acceptHijackBid",
      "outputs": [],
      "stateMutability": "nonpayable",
      "type": "function"
    },
    {
      "inputs": [
        {
          "internalType": "uint256",
          "name": "dealId",
          "type": "uint256"
        },
        {
          "internalType": "uint256",
          "name": "newFee",
          "type": "uint256"
        }
      ],
      "name": "acceptMedicalRenegotiation",
      "outputs": [],
      "stateMutability": "nonpayable",
      "type": "function"
    },
    {
      "inputs": [
        {
          "internalType": "address",
          "name": "token",
          "type": "address"
        }
      ],
      "name": "approveToken",
      "outputs": [],
      "stateMutability": "nonpayable",
      "type": "function"
    },
    {
      "inputs": [
        {
          "internalType": "uint256",
          "name": "dealId",
          "type": "uint256"
        }
      ],
      "name": "claimSigningBonus",
      "outputs": [],
      "stateMutability": "nonpayable",
      "type": "function"
    },
    {
      "inputs": [
        {
          "internalType": "uint256",
          "name": "dealId",
          "type": "uint256"
        }
      ],
      "name": "confirmMutualCancel",
      "outputs": [],
      "stateMutability": "nonpayable",
      "type": "function"
    },
    {
      "inputs": [
        {
          "internalType": "uint256",
          "name": "dealId",
          "type": "uint256"
        }
      ],
      "name": "consentToTransfer",
      "outputs": [],
      "stateMutability": "nonpayable",
      "type": "function"
    },
    {
      "inputs": [],
      "name": "consentWindow",
      "outputs": [
        {
          "internalType": "uint256",
          "name": "",
          "type": "uint256"
        }
      ],
      "stateMutability": "view",
      "type": "function"
    },
    {
      "inputs": [
        {
          "internalType": "uint256",
          "name": "dealId",
          "type": "uint256"
        }
      ],
      "name": "declineTransfer",
      "outputs": [],
      "stateMutability": "nonpayable",
      "type": "function"
    },
    {
      "inputs": [
        {
          "internalType": "uint256",
          "name": "dealId",
          "type": "uint256"
        },
        {
          "internalType": "uint256",
          "name": "amount",
          "type": "uint256"
        }
      ],
      "name": "depositAddOnFunds",
      "outputs": [],
      "stateMutability": "nonpayable",
      "type": "function"
    },
    {
      "inputs": [],
      "name": "disputeWindow",
      "outputs": [
        {
          "internalType": "uint256",
          "name": "",
          "type": "uint256"
        }
      ],
      "stateMutability": "view",
      "type": "function"
    },
    {
      "inputs": [
        {
          "internalType": "uint256",
          "name": "dealId",
          "type": "uint256"
        }
      ],
      "name": "escalateToLeague",
      "outputs": [],
      "stateMutability": "nonpayable",
      "type": "function"
    },
    {
      "inputs": [
        {
          "internalType": "uint256",
          "name": "dealId",
          "type": "uint256"
        }
      ],
      "name": "extAdvanceToFunding",
      "outputs": [],
      "stateMutability": "nonpayable",
      "type": "function"
    },
    {
      "inputs": [
        {
          "internalType": "uint256",
          "name": "dealId",
          "type": "uint256"
        },
        {
          "internalType": "uint256",
          "name": "newFee",
          "type": "uint256"
        }
      ],
      "name": "extAdvanceToHijack",
      "outputs": [],
      "stateMutability": "nonpayable",
      "type": "function"
    },
    {
      "inputs": [
        {
          "internalType": "uint256",
          "name": "dealId",
          "type": "uint256"
        },
        {
          "internalType": "uint8",
          "name": "reason",
          "type": "uint8"
        }
      ],
      "name": "extCancel",
      "outputs": [],
      "stateMutability": "nonpayable",
      "type": "function"
    },
    {
      "inputs": [
        {
          "internalType": "uint256",
          "name": "dealId",
          "type": "uint256"
        }
      ],
      "name": "extClearMutualCancel",
      "outputs": [],
      "stateMutability": "nonpayable",
      "type": "function"
    },
    {
      "inputs": [
        {
          "internalType": "uint256",
          "name": "dealId",
          "type": "uint256"
        }
      ],
      "name": "extHijackStallAndCancel",
      "outputs": [],
      "stateMutability": "nonpayable",
      "type": "function"
    },
    {
      "inputs": [
        {
          "internalType": "uint256",
          "name": "dealId",
          "type": "uint256"
        }
      ],
      "name": "extSettle",
      "outputs": [],
      "stateMutability": "nonpayable",
      "type": "function"
    },
    {
      "inputs": [
        {
          "internalType": "uint256",
          "name": "dealId",
          "type": "uint256"
        }
      ],
      "name": "extWalkAwayPenalty",
      "outputs": [],
      "stateMutability": "nonpayable",
      "type": "function"
    },
    {
      "inputs": [
        {
          "internalType": "uint256",
          "name": "dealId",
          "type": "uint256"
        }
      ],
      "name": "forceCancelDeal",
      "outputs": [],
      "stateMutability": "nonpayable",
      "type": "function"
    },
    {
      "inputs": [
        {
          "internalType": "uint256",
          "name": "dealId",
          "type": "uint256"
        }
      ],
      "name": "forceComplete",
      "outputs": [],
      "stateMutability": "nonpayable",
      "type": "function"
    },
    {
      "inputs": [
        {
          "internalType": "uint256",
          "name": "dealId",
          "type": "uint256"
        }
      ],
      "name": "freezeDeal",
      "outputs": [],
      "stateMutability": "nonpayable",
      "type": "function"
    },
    {
      "inputs": [
        {
          "internalType": "uint256",
          "name": "dealId",
          "type": "uint256"
        }
      ],
      "name": "fundDeal",
      "outputs": [],
      "stateMutability": "nonpayable",
      "type": "function"
    },
    {
      "inputs": [],
      "name": "fundingWindow",
      "outputs": [
        {
          "internalType": "uint256",
          "name": "",
          "type": "uint256"
        }
      ],
      "stateMutability": "view",
      "type": "function"
    },
    {
      "inputs": [
        {
          "internalType": "uint256",
          "name": "dealId",
          "type": "uint256"
        },
        {
          "internalType": "address",
          "name": "token",
          "type": "address"
        }
      ],
      "name": "getAddOnDeposit",
      "outputs": [
        {
          "internalType": "uint256",
          "name": "",
          "type": "uint256"
        }
      ],
      "stateMutability": "view",
      "type": "function"
    },
    {
      "inputs": [
        {
          "internalType": "address",
          "name": "account",
          "type": "address"
        },
        {
          "internalType": "address",
          "name": "token",
          "type": "address"
        }
      ],
      "name": "getClaimable",
      "outputs": [
        {
          "internalType": "uint256",
          "name": "",
          "type": "uint256"
        }
      ],
      "stateMutability": "view",
      "type": "function"
    },
    {
      "inputs": [
        {
          "internalType": "uint256",
          "name": "dealId",
          "type": "uint256"
        }
      ],
      "name": "getDealView",
      "outputs": [
        {
          "components": [
            {
              "internalType": "bool",
              "name": "exists",
              "type": "bool"
            },
            {
              "internalType": "address",
              "name": "sellingClub",
              "type": "address"
            },
            {
              "internalType": "address",
              "name": "buyingClub",
              "type": "address"
            },
            {
              "internalType": "address",
              "name": "paymentToken",
              "type": "address"
            },
            {
              "internalType": "uint256",
              "name": "transferFee",
              "type": "uint256"
            },
            {
              "internalType": "uint256",
              "name": "minimumHijackIncrementBps",
              "type": "uint256"
            },
            {
              "internalType": "enum IDealEscrow.DealState",
              "name": "state",
              "type": "uint8"
            },
            {
              "internalType": "uint256",
              "name": "stateDeadline",
              "type": "uint256"
            }
          ],
          "internalType": "struct IDealEscrow.DealView",
          "name": "v",
          "type": "tuple"
        }
      ],
      "stateMutability": "view",
      "type": "function"
    },
    {
      "inputs": [
        {
          "internalType": "uint256",
          "name": "dealId",
          "type": "uint256"
        }
      ],
      "name": "getExpiryView",
      "outputs": [
        {
          "internalType": "bool",
          "name": "exists",
          "type": "bool"
        },
        {
          "internalType": "bool",
          "name": "frozen",
          "type": "bool"
        },
        {
          "internalType": "uint8",
          "name": "state",
          "type": "uint8"
        },
        {
          "internalType": "uint256",
          "name": "stateDeadline",
          "type": "uint256"
        },
        {
          "internalType": "uint256",
          "name": "mutualCancelDeadline",
          "type": "uint256"
        },
        {
          "internalType": "address",
          "name": "mutualCancelProposer",
          "type": "address"
        }
      ],
      "stateMutability": "view",
      "type": "function"
    },
    {
      "inputs": [
        {
          "internalType": "uint256",
          "name": "dealId",
          "type": "uint256"
        },
        {
          "internalType": "uint8",
          "name": "index",
          "type": "uint8"
        }
      ],
      "name": "getInstallment",
      "outputs": [
        {
          "components": [
            {
              "internalType": "uint256",
              "name": "amount",
              "type": "uint256"
            },
            {
              "internalType": "uint256",
              "name": "dueDate",
              "type": "uint256"
            },
            {
              "internalType": "bool",
              "name": "paid",
              "type": "bool"
            }
          ],
          "internalType": "struct TransferTypes.Installment",
          "name": "",
          "type": "tuple"
        }
      ],
      "stateMutability": "view",
      "type": "function"
    },
    {
      "inputs": [
        {
          "internalType": "uint256",
          "name": "dealId",
          "type": "uint256"
        }
      ],
      "name": "getInstallmentMeta",
      "outputs": [
        {
          "internalType": "address",
          "name": "buyingClub",
          "type": "address"
        },
        {
          "internalType": "address",
          "name": "sellingClub",
          "type": "address"
        },
        {
          "internalType": "address",
          "name": "paymentToken",
          "type": "address"
        },
        {
          "internalType": "uint8",
          "name": "installmentCount",
          "type": "uint8"
        },
        {
          "internalType": "uint8",
          "name": "installmentsPaid",
          "type": "uint8"
        },
        {
          "internalType": "uint8",
          "name": "state",
          "type": "uint8"
        }
      ],
      "stateMutability": "view",
      "type": "function"
    },
    {
      "inputs": [
        {
          "internalType": "uint256",
          "name": "playerId",
          "type": "uint256"
        }
      ],
      "name": "getPlayerDeal",
      "outputs": [
        {
          "internalType": "uint256",
          "name": "",
          "type": "uint256"
        }
      ],
      "stateMutability": "view",
      "type": "function"
    },
    {
      "inputs": [
        {
          "internalType": "bytes32",
          "name": "role",
          "type": "bytes32"
        }
      ],
      "name": "getRoleAdmin",
      "outputs": [
        {
          "internalType": "bytes32",
          "name": "",
          "type": "bytes32"
        }
      ],
      "stateMutability": "view",
      "type": "function"
    },
    {
      "inputs": [
        {
          "internalType": "bytes32",
          "name": "role",
          "type": "bytes32"
        },
        {
          "internalType": "address",
          "name": "account",
          "type": "address"
        }
      ],
      "name": "grantRole",
      "outputs": [],
      "stateMutability": "nonpayable",
      "type": "function"
    },
    {
      "inputs": [
        {
          "internalType": "bytes32",
          "name": "role",
          "type": "bytes32"
        },
        {
          "internalType": "address",
          "name": "account",
          "type": "address"
        }
      ],
      "name": "hasRole",
      "outputs": [
        {
          "internalType": "bool",
          "name": "",
          "type": "bool"
        }
      ],
      "stateMutability": "view",
      "type": "function"
    },
    {
      "inputs": [],
      "name": "hijackWindow",
      "outputs": [
        {
          "internalType": "uint256",
          "name": "",
          "type": "uint256"
        }
      ],
      "stateMutability": "view",
      "type": "function"
    },
    {
      "inputs": [
        {
          "internalType": "address",
          "name": "_playerRegistry",
          "type": "address"
        },
        {
          "internalType": "address",
          "name": "_transferWindow",
          "type": "address"
        },
        {
          "internalType": "address",
          "name": "_treasury",
          "type": "address"
        },
        {
          "internalType": "address",
          "name": "_admin",
          "type": "address"
        }
      ],
      "name": "initialize",
      "outputs": [],
      "stateMutability": "nonpayable",
      "type": "function"
    },
    {
      "inputs": [
        {
          "components": [
            {
              "internalType": "uint256",
              "name": "offerId",
              "type": "uint256"
            },
            {
              "internalType": "uint256",
              "name": "playerId",
              "type": "uint256"
            },
            {
              "internalType": "address",
              "name": "sellingClub",
              "type": "address"
            },
            {
              "internalType": "address",
              "name": "buyingClub",
              "type": "address"
            },
            {
              "internalType": "address",
              "name": "paymentToken",
              "type": "address"
            },
            {
              "internalType": "uint256",
              "name": "transferFee",
              "type": "uint256"
            },
            {
              "internalType": "uint256",
              "name": "sellOnBps",
              "type": "uint256"
            },
            {
              "internalType": "address",
              "name": "sellOnRecipient",
              "type": "address"
            },
            {
              "internalType": "uint256",
              "name": "sellerAgentBps",
              "type": "uint256"
            },
            {
              "internalType": "address",
              "name": "sellerAgent",
              "type": "address"
            },
            {
              "internalType": "uint256",
              "name": "buyerAgentBps",
              "type": "uint256"
            },
            {
              "internalType": "address",
              "name": "buyerAgent",
              "type": "address"
            },
            {
              "internalType": "uint256",
              "name": "signingBonusMonths",
              "type": "uint256"
            },
            {
              "internalType": "uint256",
              "name": "signingBonusAmount",
              "type": "uint256"
            },
            {
              "internalType": "uint256",
              "name": "minimumHijackIncrementBps",
              "type": "uint256"
            },
            {
              "internalType": "uint256",
              "name": "consentWindowDuration",
              "type": "uint256"
            },
            {
              "internalType": "uint256[]",
              "name": "installmentAmounts",
              "type": "uint256[]"
            },
            {
              "internalType": "uint256[]",
              "name": "installmentDueDates",
              "type": "uint256[]"
            }
          ],
          "internalType": "struct TransferTypes.DealInitParams",
          "name": "p",
          "type": "tuple"
        },
        {
          "components": [
            {
              "internalType": "string",
              "name": "description",
              "type": "string"
            },
            {
              "internalType": "uint256",
              "name": "amount",
              "type": "uint256"
            },
            {
              "internalType": "bool",
              "name": "toPlayer",
              "type": "bool"
            },
            {
              "internalType": "bool",
              "name": "triggered",
              "type": "bool"
            }
          ],
          "internalType": "struct TransferTypes.AddOn[]",
          "name": "addOns",
          "type": "tuple[]"
        }
      ],
      "name": "initializeDeal",
      "outputs": [
        {
          "internalType": "uint256",
          "name": "dealId",
          "type": "uint256"
        }
      ],
      "stateMutability": "nonpayable",
      "type": "function"
    },
    {
      "inputs": [],
      "name": "medicalWindow",
      "outputs": [
        {
          "internalType": "uint256",
          "name": "",
          "type": "uint256"
        }
      ],
      "stateMutability": "view",
      "type": "function"
    },
    {
      "inputs": [],
      "name": "mutualCancelWindow",
      "outputs": [
        {
          "internalType": "uint256",
          "name": "",
          "type": "uint256"
        }
      ],
      "stateMutability": "view",
      "type": "function"
    },
    {
      "inputs": [],
      "name": "pause",
      "outputs": [],
      "stateMutability": "nonpayable",
      "type": "function"
    },
    {
      "inputs": [],
      "name": "paused",
      "outputs": [
        {
          "internalType": "bool",
          "name": "",
          "type": "bool"
        }
      ],
      "stateMutability": "view",
      "type": "function"
    },
    {
      "inputs": [],
      "name": "playerRegistry",
      "outputs": [
        {
          "internalType": "contract IPlayerRegistry",
          "name": "",
          "type": "address"
        }
      ],
      "stateMutability": "view",
      "type": "function"
    },
    {
      "inputs": [
        {
          "internalType": "uint256",
          "name": "dealId",
          "type": "uint256"
        }
      ],
      "name": "proposeMutualCancel",
      "outputs": [],
      "stateMutability": "nonpayable",
      "type": "function"
    },
    {
      "inputs": [],
      "name": "protocolFeeBps",
      "outputs": [
        {
          "internalType": "uint256",
          "name": "",
          "type": "uint256"
        }
      ],
      "stateMutability": "view",
      "type": "function"
    },
    {
      "inputs": [],
      "name": "proxiableUUID",
      "outputs": [
        {
          "internalType": "bytes32",
          "name": "",
          "type": "bytes32"
        }
      ],
      "stateMutability": "view",
      "type": "function"
    },
    {
      "inputs": [
        {
          "internalType": "uint256",
          "name": "dealId",
          "type": "uint256"
        }
      ],
      "name": "raiseDispute",
      "outputs": [],
      "stateMutability": "nonpayable",
      "type": "function"
    },
    {
      "inputs": [
        {
          "internalType": "uint256",
          "name": "dealId",
          "type": "uint256"
        },
        {
          "internalType": "address",
          "name": "buyingClub",
          "type": "address"
        },
        {
          "internalType": "uint256",
          "name": "transferFee",
          "type": "uint256"
        },
        {
          "internalType": "uint256",
          "name": "buyerAgentBps",
          "type": "uint256"
        },
        {
          "internalType": "address",
          "name": "buyerAgent",
          "type": "address"
        },
        {
          "internalType": "uint256",
          "name": "signingBonusMonths",
          "type": "uint256"
        }
      ],
      "name": "receiveHijackBid",
      "outputs": [],
      "stateMutability": "nonpayable",
      "type": "function"
    },
    {
      "inputs": [
        {
          "internalType": "uint256",
          "name": "dealId",
          "type": "uint256"
        }
      ],
      "name": "rejectHijackBid",
      "outputs": [],
      "stateMutability": "nonpayable",
      "type": "function"
    },
    {
      "inputs": [
        {
          "internalType": "uint256",
          "name": "dealId",
          "type": "uint256"
        }
      ],
      "name": "rejectMedicalRenegotiation",
      "outputs": [],
      "stateMutability": "nonpayable",
      "type": "function"
    },
    {
      "inputs": [],
      "name": "renegoWindow",
      "outputs": [
        {
          "internalType": "uint256",
          "name": "",
          "type": "uint256"
        }
      ],
      "stateMutability": "view",
      "type": "function"
    },
    {
      "inputs": [
        {
          "internalType": "bytes32",
          "name": "role",
          "type": "bytes32"
        },
        {
          "internalType": "address",
          "name": "callerConfirmation",
          "type": "address"
        }
      ],
      "name": "renounceRole",
      "outputs": [],
      "stateMutability": "nonpayable",
      "type": "function"
    },
    {
      "inputs": [
        {
          "internalType": "uint256",
          "name": "dealId",
          "type": "uint256"
        }
      ],
      "name": "resolveDispute",
      "outputs": [],
      "stateMutability": "nonpayable",
      "type": "function"
    },
    {
      "inputs": [
        {
          "internalType": "bytes32",
          "name": "role",
          "type": "bytes32"
        },
        {
          "internalType": "address",
          "name": "account",
          "type": "address"
        }
      ],
      "name": "revokeRole",
      "outputs": [],
      "stateMutability": "nonpayable",
      "type": "function"
    },
    {
      "inputs": [
        {
          "internalType": "address",
          "name": "token",
          "type": "address"
        }
      ],
      "name": "revokeToken",
      "outputs": [],
      "stateMutability": "nonpayable",
      "type": "function"
    },
    {
      "inputs": [
        {
          "internalType": "uint256",
          "name": "bps",
          "type": "uint256"
        }
      ],
      "name": "setProtocolFee",
      "outputs": [],
      "stateMutability": "nonpayable",
      "type": "function"
    },
    {
      "inputs": [
        {
          "internalType": "uint8",
          "name": "which",
          "type": "uint8"
        },
        {
          "internalType": "uint256",
          "name": "d",
          "type": "uint256"
        }
      ],
      "name": "setTimer",
      "outputs": [],
      "stateMutability": "nonpayable",
      "type": "function"
    },
    {
      "inputs": [
        {
          "internalType": "address",
          "name": "_treasury",
          "type": "address"
        }
      ],
      "name": "setTreasury",
      "outputs": [],
      "stateMutability": "nonpayable",
      "type": "function"
    },
    {
      "inputs": [
        {
          "internalType": "uint256",
          "name": "dealId",
          "type": "uint256"
        },
        {
          "internalType": "enum TransferTypes.MedicalOutcome",
          "name": "outcome",
          "type": "uint8"
        },
        {
          "internalType": "bytes32",
          "name": "medicalHash",
          "type": "bytes32"
        }
      ],
      "name": "submitMedical",
      "outputs": [],
      "stateMutability": "nonpayable",
      "type": "function"
    },
    {
      "inputs": [
        {
          "internalType": "bytes4",
          "name": "interfaceId",
          "type": "bytes4"
        }
      ],
      "name": "supportsInterface",
      "outputs": [
        {
          "internalType": "bool",
          "name": "",
          "type": "bool"
        }
      ],
      "stateMutability": "view",
      "type": "function"
    },
    {
      "inputs": [],
      "name": "totalDeals",
      "outputs": [
        {
          "internalType": "uint256",
          "name": "",
          "type": "uint256"
        }
      ],
      "stateMutability": "view",
      "type": "function"
    },
    {
      "inputs": [],
      "name": "transferWindow",
      "outputs": [
        {
          "internalType": "contract ITransferWindow",
          "name": "",
          "type": "address"
        }
      ],
      "stateMutability": "view",
      "type": "function"
    },
    {
      "inputs": [],
      "name": "treasury",
      "outputs": [
        {
          "internalType": "address",
          "name": "",
          "type": "address"
        }
      ],
      "stateMutability": "view",
      "type": "function"
    },
    {
      "inputs": [
        {
          "internalType": "uint256",
          "name": "dealId",
          "type": "uint256"
        },
        {
          "internalType": "uint256",
          "name": "idx",
          "type": "uint256"
        }
      ],
      "name": "triggerAddOn",
      "outputs": [],
      "stateMutability": "nonpayable",
      "type": "function"
    },
    {
      "inputs": [
        {
          "internalType": "uint256",
          "name": "dealId",
          "type": "uint256"
        }
      ],
      "name": "unfreezeDeal",
      "outputs": [],
      "stateMutability": "nonpayable",
      "type": "function"
    },
    {
      "inputs": [],
      "name": "unpause",
      "outputs": [],
      "stateMutability": "nonpayable",
      "type": "function"
    },
    {
      "inputs": [
        {
          "internalType": "address",
          "name": "newImplementation",
          "type": "address"
        },
        {
          "internalType": "bytes",
          "name": "data",
          "type": "bytes"
        }
      ],
      "name": "upgradeToAndCall",
      "outputs": [],
      "stateMutability": "payable",
      "type": "function"
    },
    {
      "inputs": [
        {
          "internalType": "address",
          "name": "token",
          "type": "address"
        }
      ],
      "name": "withdrawClaimable",
      "outputs": [],
      "stateMutability": "nonpayable",
      "type": "function"
    }
  ],
  "bytecode": "0x60a080604052346100c257306080525f516020615e485f395f51905f525460ff8160401c166100b3576002600160401b03196001600160401b03821601610060575b604051615d8190816100c78239608051818181613f2601526140190152f35b6001600160401b0319166001600160401b039081175f516020615e485f395f51905f525581527fc7f505b2f371ae2175ee4913f4499e1f2633a7b5936321eed1cdaeb6115181d290602090a15f80610041565b63f92ee8a960e01b5f5260045ffd5b5f80fdfe60806040526004361015610011575f80fd5b5f3560e01c8062a464d114614b1757806301c11d9614614af157806301d9fcc914614a6857806301ffc9a714614a12578063062100d5146149f557806308d186a0146148e85780630f8f795914614894578063117f5f92146148775780631510f85a1461475d578063248a9ca31461473757806329bc34f0146144e65780632f2ff15d146144b557806335659fb81461449857806336568abe146144545780633677277c14614437578063389a93f8146143975780633c6d448b1461437a5780633d7dc84a1461431c5780633f4ba83a1461429e5780633fb814281461424e5780634c74ef9c146142265780634f0df865146141955780634f1ef28614613fa25780635169a6ff14613f7a57806352d1902d14613f145780635a211c3214613de75780635c975abb14613db95780635ea36b2d14613d7557806360dded11146139b557806360e49e441461398e57806360fffce8146137b357806361d027b31461378b57806361f1d92e14613701578063625fa9d9146136e55780636b292e701461345d5780636b421131146134405780636c275a0d146131b15780636ca44e82146131945780636d947e4b1461272457806371c34a3414612f4d57806375b238fc14612f26578063787dce3d14612ec257806378fc263e14612ea55780637f00cb3514612de157806380b2edd814612d9757806383be499a14612afd5780638456cb5914612a8c57806385d60ec61461281357806389b22542146127bd5780638abf7ff1146127295780638d13c1b81461272457806391d14854146126cf578063933f4eef1461268e578063966d1f1d146126715780639a6c4c0c1461250d5780639bf437df146124c65780639f9391d9146124a9578063a217fddf1461248f578063a461dc6d14611ff6578063a4ba807114611e7a578063a5c1674e14611d8e578063ad3cb1cc14611d30578063bb73532e14611d14578063bbf0457a14611c46578063bfadc8f914611c1c578063c2b7b86814611b87578063cfeffc7114611229578063d547741f146111f1578063e05e05e2146111ca578063e1a45218146111ae578063f0f4426014611146578063f5a4c31914610e26578063f60d22ca14610cf0578063f6882f6314610b6c578063f7e5e9cd146109b7578063f81eb2f71461068e578063f8c8765e1461045f5763f951fbad14610372575f80fd5b3461045b57602036600319011261045b5760043561038e615248565b805f52600d602052600160405f2001541561044c57805f52600d60205260405f2060158101805460ff8160081c1661043d5760ff6010840154166103d181614d89565b60108114908115610429575b5061041a576101009061ff0019161790556016429101557f2baeb19dd4781c77dafd82d1a22b7ac4f6ca38cfb10a1135ff41a3b4428a38ed5f80a2005b6372c24c3560e01b5f5260045ffd5b6011915061043681614d89565b145f6103dd565b63e231c28f60e01b5f5260045ffd5b63223da47360e21b5f5260045ffd5b5f80fd5b3461045b57608036600319011261045b57610478614d4d565b610480614d63565b6044356001600160a01b0381169081900361045b57606435906001600160a01b03821680830361045b575f516020615d2c5f395f51905f5254604081901c60ff161595906001600160401b03811680159081610686575b600114908161067c575b159081610673575b50610664576001600160401b031981166001175f516020615d2c5f395f51905f52558661063c575b506001600160a01b031693841561062d576001600160a01b031690811561062d57821561062d571561062d576105d493610549615ad4565b610551615ad4565b60015f5560018060a01b0319600254161760025560018060a01b0319600354161760035560018060a01b031960045416176004556203f4806006556203f4806007556202a3006008556203f4806009556202a300600a556202a300600b556202a300600c5560326005556105c481615778565b506105ce816157ee565b5061586e565b506105db57005b60ff60401b195f516020615d2c5f395f51905f5254165f516020615d2c5f395f51905f52557fc7f505b2f371ae2175ee4913f4499e1f2633a7b5936321eed1cdaeb6115181d2602060405160018152a1005b63e6c4247b60e01b5f5260045ffd5b6001600160481b0319166001600160401b01175f516020615d2c5f395f51905f525586610511565b63f92ee8a960e01b5f5260045ffd5b905015886104e9565b303b1591506104e1565b8891506104d7565b3461045b57602036600319011261045b576004356106aa615a1b565b60025f54146109a85760025f55805f52600d602052600160405f2001541561044c57805f52600d60205260ff601560405f20015460081c1661043d575f818152600d6020526040902060198101546001600160a01b0316801561099957601a820154421161098a57331461097b5760038101546001600160a01b03163314159081610963575b5061041a57807f579e90f7cabad8d77316c92a503862cb4783a203648db82f5b2d35fd73389d955f80a2805f52600d60205260405f206010810190815491601160ff84169360ff191617905560018101545f5260106020525f604081205561079782614d89565b600e82149182159283610950575b6108e9575b835f52600f60205260405f20600681019060ff82541661089b575b505060178201805480151580610885575b6107fa575b855f516020615c6c5f395f51905f52602060405160038152a260015f55005b6018945f9361080881614d89565b81610870575b5061082f575b50550180546001600160a01b031916905581808080806107db565b838501546001600160a01b039081168452601160209081526040808620600488015490931686529190528320805490916108689161502a565b905585610814565b600f915061087d81614d89565b14158761080e565b5060188401546001600160a01b031615156107d6565b600181015490546001600160a01b039081165f9081526011602090815260408083206004890154909416835292905220805490916108d89161502a565b9055805460ff1916905584806107c5565b835f52601460205260405f205f805260205261090e60405f2054600d8401549061502a565b60038301546001600160a01b039081165f9081526011602090815260408083206004880154909416835292905220805490916109499161502a565b90556107aa565b5061095a81614d89565b600f81146107a5565b600201546001600160a01b0316331415905082610730565b636081c93760e01b5f5260045ffd5b636124f5e360e11b5f5260045ffd5b63d87db87b60e01b5f5260045ffd5b6306fda65d60e31b5f5260045ffd5b3461045b57602036600319011261045b576004356109d3615a1b565b805f52600d602052600160405f2001541561044c57805f52600d60205260ff601560405f20015460081c1661043d57805f52600d60205260405f206010810160ff81541691610a2183614d89565b610a2a83614d89565b6005600a841493141580610b64575b61041a576011810180544211610b555760018060a01b03600254169360018301945f8654602460405180948193631cab5c9d60e31b835260048301525afa8015610b4a5760c0915f91610b28575b500180516001600160a01b031615610b1957516001600160a01b03163303610b0a57601593610abd9115610b0257600b90615037565b610ac96007544261502a565b90555f60148201550160ff19815416905554907f173620804848de4def17bad4f232db2cda858a822ae975c722b97cf0fe2c1bfa5f80a3005b600690615037565b631d3c442d60e21b5f5260045ffd5b6382bcaa3b60e01b5f5260045ffd5b610b4491503d805f833e610b3c8183614dae565b810190614e9f565b88610a87565b6040513d5f823e3d90fd5b63839ec5c560e01b5f5260045ffd5b508215610a39565b3461045b57610b7a36614d37565b610b82615a1b565b815f52600d602052600160405f2001541561044c57815f52600d60205260ff601560405f20015460081c1661043d575f828152600d6020526040902060028101546001600160a01b03163303610ce1576010810191600760ff845416610be781614d89565b0361041a576011820180544211610cd25781158015610cbe575b610caf577f3ecbc4d085035a7e1b9eb639b1b2e563cb0b7754fe8fe1e12afd903edb3bc40993828460056020960190815483818110610c61575b50505055600960ff19825416179055610c566008544261502a565b9055604051908152a2005b610c6a9161501d565b60038201546001600160a01b039081165f90815260118a526040808220600490950154909216815292895290912080549091610ca59161502a565b9055888083610c3b565b63162908e360e11b5f5260045ffd5b50676765c793fa10079d601a1b8211610c01565b63c052877160e01b5f5260045ffd5b6303e2f0f360e51b5f5260045ffd5b3461045b57602036600319011261045b57600435610d0c615a1b565b60025f54146109a85760025f55805f52600d602052600160405f2001541561044c57805f52600d60205260ff601560405f20015460081c1661043d57805f52600d60205260405f2060108101805491600760ff8416610d6a81614d89565b0361041a5760028101546001600160a01b031633141580610e0f575b61041a5760110191825480421115610df3575b5060089060ff191617905562093a80420190814211610ddf575533907ffc2989e9448442378c968e63f5573979bc5ed860dc5c48e906404733bd05d62a5f80a360015f55005b634e487b7160e01b5f52601160045260245ffd5b610e0390600a5460011c9061501d565b421061041a5784610d99565b5060038101546001600160a01b0316331415610d86565b3461045b57602036600319011261045b57600435610e42615291565b60025f54146109a85760025f55805f52600d602052600160405f2001541561044c57805f52600d60205260405f2060178101805490811591821561108e575b50505050805f52600d60205260405f206010810190815491601160ff84169360ff191617905560018101545f5260106020525f6040812055610ec282614d89565b600e8214918215928361107b575b611014575b835f52600f60205260405f20600681019060ff825416610fc6575b505060178201805480151580610fb0575b610f25575b855f516020615c6c5f395f51905f526020604051600a8152a260015f55005b6018945f93610f3381614d89565b81610f9b575b50610f5a575b50550180546001600160a01b03191690558180808080610f06565b838501546001600160a01b03908116845260116020908152604080862060048801549093168652919052832080549091610f939161502a565b905585610f3f565b600f9150610fa881614d89565b141587610f39565b5060188401546001600160a01b03161515610f01565b600181015490546001600160a01b039081165f9081526011602090815260408083206004890154909416835292905220805490916110039161502a565b9055805460ff191690558480610ef0565b835f52601460205260405f205f805260205261103960405f2054600d8401549061502a565b60038301546001600160a01b039081165f9081526011602090815260408083206004880154909416835292905220805490916110749161502a565b9055610ed5565b5061108581614d89565b600f8114610ed0565b6101f48102928184046101f4141715610ddf576110b16127105f9404809261501d565b6018850180546001600160a01b03908116865260116020908152604080882060048a01805490941689529091528620805492979193919290916110f39161502a565b9055600201546001600160a01b039081168552601160209081526040808720935490921686529190915283208054909161112c9161502a565b90555580546001600160a01b031916905581808080610e81565b3461045b57602036600319011261045b5761115f614d4d565b611167615336565b6001600160a01b0316801561062d57600480546001600160a01b031916821790557f7dae230f18360d76a040c81f050aa14eb9d6dc7901b20fc5d855e2a20fe814d15f80a2005b3461045b575f36600319011261045b5760206040516127108152f35b3461045b575f36600319011261045b5760206040515f516020615cec5f395f51905f528152f35b3461045b57604036600319011261045b57611227600435611210614d63565b9061122261121d826150b7565b615372565b61597f565b005b3461045b57604036600319011261045b576001600160401b036004351161045b576102406004353603600319011261045b576024356001600160401b03811161045b573660238201121561045b576001600160401b0360048201351161045b57366024826004013560051b8301011161045b576112a4615291565b6001545f198114610ddf57600181016001556112cb610204600435016004356004016151e2565b809150158015611b7d575b611ac757806112f0610224600435016004356004016151e2565b905003611ac7575f5f5b828110611ad6575060a4600435013503611ac75761131c604460043501615227565b61132a606460043501615227565b611338608460043501615227565b61134660e460043501615227565b61135561012460043501615227565b9061136561016460043501615227565b926113776101e460043501354261502a565b604051969095906001600160401b036103c0890190811190891117611966576103c0880160405260043560040135885260246004350135602089015260018060a01b0316604088015260018060a01b0316606087015260018060a01b0316608086015260a4600435013560a086015260c4600435013560c086015260018060a01b031660e0850152610104600435013561010085015260018060a01b0316610120840152610144600435013561014084015260018060a01b031661016083015261018460043501356101808301526101a460043501356101a08301525f6101c08301526101c460043501356101e08301526005610200830152610220820152426102408201525f6102608201525f6102808201525f6102a08201525f6102c08201525f6102e08201525f6103008201525f6103208201525f6103408201525f61036082015260ff82166103808201525f6103a0820152600183015f52600d60205260405f20815181556020820151600182015560018060a01b03604083015116600282019060018060a01b031660018060a01b031982541617905560018060a01b03606083015116600382019060018060a01b031660018060a01b031982541617905560018060a01b03608083015116600482019060018060a01b031660018060a01b031982541617905560a0820151600582015560c0820151600682015560018060a01b0360e083015116600782019060018060a01b031660018060a01b0319825416179055610100820151600882015560018060a01b0361012083015116600982019060018060a01b031660018060a01b0319825416179055610140820151600a82015560018060a01b0361016083015116600b82019060018060a01b031660018060a01b0319825416179055610180820151600c8201556101a0820151600d8201556116306101c08301511515600e83016151b9565b6101e0820151600f82015561165661020083015161164d81614d89565b60108301615037565b61022082015160118201556102408201516012820155610260820151601382015561028082015160148201556102a0820151906004821015611ab3576116a1601b92601583016151ca565b6116b56102c0840151151560158301614e34565b6102e0830151601682015561030083015160178201556103208301516018820180546001600160a01b039283166001600160a01b031991821617909155610340850151601984018054919093169116179055610360830151601a820155610380830151910180546103a09093015161ff0060089190911b1660ff90921661ffff19909316929092171790555f5b818110611a1d5750503682900360a219015f5b836004013581101561197a57600183015f52600e60205260405f2060248260051b860101358381121561045b578501908054600160401b811015611966576117a291600182018155614e07565b611953576024820135604219368490030181121561045b5782016024018035906001600160401b03821161045b57813603602082011361045b578254600181811c91168015611949575b602082101461193557601f81116118f0575b505f90601f83116001146118795760026118659484600198979561185f956084955f9261186b575b50505f19600383901b1c191690891b1781555b60448501358882015501926118596118536064830161523b565b856151b9565b0161523b565b90614e34565b01611755565b602092500101358d80611826565b601f19831691845f5260205f20925f5b8181106118d657509460018561185f95608495600295849c9b996118659b106118ba575b505050811b018155611839565b01602001355f19600384901b60f8161c191690558d80806118ad565b919360206001819282888801013581550195019201611889565b835f5260205f20601f840160051c8101916020851061192b575b601f0160051c01905b81811061192057506117fe565b5f8155600101611913565b909150819061190a565b634e487b7160e01b5f52602260045260245ffd5b90607f16906117ec565b634e487b7160e01b5f525f60045260245ffd5b634e487b7160e01b5f52604160045260245ffd5b602083602460043501355f52601082526001810160405f205560018060a01b036119a8606460043501615227565b166040519060246004350135600184017f5ba2d3aaa8e1e5bbbd9f867713ff8003713fc0f7e68663f60f68f2e151f4c7e75f80a46001600160a01b036119f2600435606401615227565b16815260246004350135905f516020615c4c5f395f51905f52846001850192a3600160405191018152f35b80611aad611a42600193611a3c610204600435016004356004016151e2565b90615217565b356002611a5e84611a3c610224600435016004356004016151e2565b3560405192611a6c84614d93565b83526020830190815260408301905f82528689015f52601460205260405f2060ff808816165f5260205260405f2093518455518684015551151591016151b9565b01611742565b634e487b7160e01b5f52602160045260245ffd5b630c0477e760e21b5f5260045ffd5b90611af082611a3c610204600435016004356004016151e2565b3515611ac75781151580611b30575b611ac757611b29600191611b2284611a3c610204600435016004356004016151e2565b359061502a565b91016112fa565b50611b4a82611a3c610224600435016004356004016151e2565b35611b60610224600435016004356004016151e2565b5f19850190858211610ddf57611b7592615217565b351015611aff565b50600881116112d6565b3461045b57602036600319011261045b57600435611ba3615248565b60025f54146109a85760025f55805f52600d602052600160405f2001541561044c57805f52600d602052600f60ff601060405f20015416611be381614d89565b0361041a5780611c16917f57cce005d496355471bb5269f1dea3d6c81b6ac14c1d74ba28aefb022357013b5f80a26153b8565b60015f55005b3461045b57602036600319011261045b576004355f526010602052602060405f2054604051908152f35b3461045b57611c5436614d37565b9060025f54146109a85760025f55805f52600d602052600160405f2001541561044c57805f52600d60205260405f20601060ff8183015416611c9581614d89565b0361041a5760038101546001600160a01b03163303611d05578215610caf5760040190611ccf8360018060a01b0384541630903390615a42565b5f90815260126020908152604080832093546001600160a01b031683529290522080549091611cfd9161502a565b905560015f55005b631f3cbf7b60e31b5f5260045ffd5b3461045b575f36600319011261045b576020604051610e108152f35b3461045b575f36600319011261045b576040805190611d4f8183614dae565b600582526020820191640352e302e360dc1b83528151928391602083525180918160208501528484015e5f828201840152601f01601f19168101030190f35b3461045b57602036600319011261045b57600435805f52600d602052600160405f2001541561044c57805f52600d60205260ff601560405f20015460081c1661043d57805f52600d60205260405f206010810190815490600e60ff8316611df481614d89565b0361041a576011810154421015611e6b5760038101546001600160a01b03163314159081611e53575b5061041a5760ff1916600f17905533907f84a477df8a28a4276ca6dee4458a06c3015f30c477d9c949ede4e13ff8a552b45f80a3005b600201546001600160a01b0316331415905084611e1d565b63234c0ffd60e21b5f5260045ffd5b3461045b57602036600319011261045b5760043560025f54146109a85760025f55805f52600d602052600160405f2001541561044c57805f52600d60205260405f20601060ff8183015416611ece81614d89565b0361041a57600d8101908154908115611fe757600e8101805460ff8116611fd85760018060a01b03600254165f6001850154602460405180948193631cab5c9d60e31b835260048301525afa8015610b4a5760c0915f91611fbe575b500180516001600160a01b031615610b1957516001600160a01b03163303610b0a5760ff19166001179055335f9081526011602090815260408083206004909401546001600160a01b031683529290522080549091611f889161502a565b905554906040519182527f68afe7ecfeac2108bf74c8d4bb1d8c04f3799bd71673fa3e10e274e1cbf28a7960203393a360015f55005b611fd291503d805f833e610b3c8183614dae565b88611f2a565b631f815d9160e11b5f5260045ffd5b635af3421960e01b5f5260045ffd5b3461045b57606036600319011261045b57600435602435600481101561045b5760443591612022615a1b565b805f52600d602052600160405f2001541561044c57805f52600d60205260ff601560405f20015460081c1661043d57805f52600d60205260405f2090601082019260ff8454169261207284614d89565b61207b84614d89565b6006600b851494141580612487575b61041a576003810180549092906001600160a01b03163303611d0557601182019687544211610cd25760148301805461247857811561062d578215610caf57556120d781601584016151ca565b837f8c0f79cb43223fbd00b73d4bbc8a0f62f1f2d6ddb3a6b650d90d0ee3557f683a6020604051848152a26001810361214657505050505f1461212f57600d60ff1982541617905561212b600b544261502a565b9055005b600960ff1982541617905561212b6008544261502a565b9295919490939260020361243457505080612427575b61236c575b5050805f52600d60205260405f206010810190815491601160ff84169360ff191617905560018101545f5260106020525f60408120556121a082614d89565b600e82149182159283612359575b6122f2575b835f52600f60205260405f20600681019060ff8254166122a4575b50506017820180548015158061228e575b612203575b50505050505f516020615c6c5f395f51905f52602060405160058152a2005b6018945f9361221181614d89565b81612279575b50612238575b50550180546001600160a01b031916905581808080806121e4565b838501546001600160a01b039081168452601160209081526040808620600488015490931686529190528320805490916122719161502a565b90558561221d565b600f915061228681614d89565b141587612217565b5060188401546001600160a01b031615156121df565b600181015490546001600160a01b039081165f9081526011602090815260408083206004890154909416835292905220805490916122e19161502a565b9055805460ff1916905584806121ce565b835f52601460205260405f205f805260205261231760405f2054600d8401549061502a565b60038301546001600160a01b039081165f9081526011602090815260408083206004880154909416835292905220805490916123529161502a565b90556121b3565b5061236381614d89565b600f81146121ae565b6017810180549060c882029180830460c81481151715610ddf576018946123996127105f9504809361501d565b90546001600160a01b039081168552601160209081526040808720600489018054909416885290915285208054919290916123d4919061502a565b905560028501546001600160a01b039081168552601160209081526040808720935490921686529190915283208054909161240e9161502a565b9055550180546001600160a01b03191690558180612161565b506017810154151561215c565b9250925050600760ff19825416179055612450600a544261502a565b90557fb4a770b2db334eaf0ab77f3470dc51ac5bcd10a3033f309fd67a6385bd761e0b5f80a2005b63c0f9cf3b60e01b5f5260045ffd5b50831561208a565b3461045b575f36600319011261045b5760206040515f8152f35b3461045b575f36600319011261045b576020600854604051908152f35b3461045b57602036600319011261045b576004356124e2615291565b60025f54146109a85760025f55805f52600d602052600160405f2001541561044c57611c16906153b8565b3461045b57602036600319011261045b57600435612529615a1b565b805f52600d602052600160405f2001541561044c57805f52600d60205260ff601560405f20015460081c1661043d57805f52600d60205260405f2060ff60108201541661257581614d89565b6010811490811561265c575b8115612647575b8115612633575b5061041a5760038101546001600160a01b03163314158061261c575b61041a576019810180546001600160a01b031661260d5780546001600160a01b03191633179055600c54601a906125e2904261502a565b91015533907f7457f5ceee8e52b1ef56c933d90340dfbda61ea10b7e9be55550e9435d91bc775f80a3005b63ed8dd1bd60e01b5f5260045ffd5b5060028101546001600160a01b03163314156125ab565b600f915061264081614d89565b148361258f565b905061265281614d89565b600e811490612588565b905061266781614d89565b6011811490612581565b3461045b575f36600319011261045b576020600154604051908152f35b3461045b57602036600319011261045b576126a7614d4d565b6126af6152ed565b6001600160a01b03165f908152601360205260409020805460ff19169055005b3461045b57604036600319011261045b576126e8614d63565b6004355f525f516020615c8c5f395f51905f5260205260405f209060018060a01b03165f52602052602060ff60405f2054166040519015158152f35b614dec565b3461045b57604036600319011261045b57612742614d79565b5f6040805161275081614d93565b82815282602082015201526004355f52601460205260ff60405f2091165f52602052606060405f2060405161278481614d93565b815491828252604060ff600260018401549360208601948552015416920191151582526040519283525160208301525115156040820152f35b3461045b57602036600319011261045b576004356127d9615291565b805f52600d602052600160405f2001541561044c575f908152600d602052604081206019810180546001600160a01b0319169055601a0155005b3461045b57602036600319011261045b5760043561282f615a1b565b60025f54146109a85760025f55805f52600d602052600160405f2001541561044c57805f52600d60205260ff601560405f20015460081c1661043d57805f52600d60205260405f20906010820191600d60ff84541661288d81614d89565b0361041a5760038101546001600160a01b03163303611d0557601181019081544211612a7d57600354604051636896470560e11b815290602090829060049082906001600160a01b03165afa908115610b4a575f91612a43575b5015612a3457825f52601460205260405f205f805260205260405f205493612913600d8301548661502a565b945f90601884013360018060a01b038254161480612a27575b6129dc575b50508086116129b1575b50835f52601460205260405f205f8052602052600260405f2001600160ff19825416179055600e60ff1982541617905560134291015561297d6009544261502a565b90556040519182527fc8fceb94d8cfaf3010a32f39dbdb0c0b361b10cdd6c7299d60376c85ff61283760203393a360015f55005b6129d6906129cc60018060a01b03600486015416918861501d565b9030903390615a42565b8561293b565b6017850180549350909180841115612a1d576129fa905b809461501d565b80915515612a09575b80612931565b80546001600160a01b031916905586612a03565b506129fa836129f3565b506017850154151561292c565b6304d54fbf60e41b5f5260045ffd5b90506020813d602011612a75575b81612a5e60209383614dae565b8101031261045b57612a6f90614e92565b856128e7565b3d9150612a51565b633833dfbb60e01b5f5260045ffd5b3461045b575f36600319011261045b57612aa46152ed565b612aac615a1b565b600160ff195f516020615ccc5f395f51905f525416175f516020615ccc5f395f51905f52557f62e78cea01bee320cd4e420270b5ea74000d11b0c9f74754ebdbfc544b05a2586020604051338152a1005b3461045b57602036600319011261045b57600435612b19615a1b565b60025f54146109a85760025f55805f52600d602052600160405f2001541561044c57805f52600d60205260ff601560405f20015460081c1661043d575f818152600d6020526040902060028101546001600160a01b03163303610ce15760ff6010600792015416612b8981614d89565b0361041a57805f52600d60205260405f206010810190815491601160ff84169360ff191617905560018101545f5260106020525f6040812055612bcb82614d89565b600e82149182159283612d84575b612d1d575b835f52600f60205260405f20600681019060ff825416612ccf575b505060178201805480151580612cb9575b612c2e575b855f516020615c6c5f395f51905f52602060405160028152a260015f55005b6018945f93612c3c81614d89565b81612ca4575b50612c63575b50550180546001600160a01b03191690558180808080612c0f565b838501546001600160a01b03908116845260116020908152604080862060048801549093168652919052832080549091612c9c9161502a565b905585612c48565b600f9150612cb181614d89565b141587612c42565b5060188401546001600160a01b03161515612c0a565b600181015490546001600160a01b039081165f908152601160209081526040808320600489015490941683529290522080549091612d0c9161502a565b9055805460ff191690558480612bf9565b835f52601460205260405f205f8052602052612d4260405f2054600d8401549061502a565b60038301546001600160a01b039081165f908152601160209081526040808320600488015490941683529290522080549091612d7d9161502a565b9055612bde565b50612d8e81614d89565b600f8114612bd9565b3461045b57602036600319011261045b57612db0614d4d565b612db86152ed565b6001600160a01b0316801561062d575f908152601360205260409020805460ff19166001179055005b3461045b57602036600319011261045b57600435612dfd615248565b805f52600d602052600160405f2001541561044c57805f52600d60205260405f20601581019081549160ff8360081c1615612e96575f9260168301926011612e4685544261501d565b91019081549081612e83575b50505061ff0019169055557f9d9b6c6fd020eade06cab024fe4853c17d4ee689fa225e44b23c82908c1529205f80a2005b612e8c9161502a565b9055858080612e52565b634c22487160e01b5f5260045ffd5b3461045b575f36600319011261045b576020600654604051908152f35b3461045b57602036600319011261045b57600435612ede615336565b60c88111612f17576020817fd10d75876659a287a59a6ccfa2e3fff42f84d94b542837acd30bc184d562de4092600555604051908152a1005b63499fddb160e01b5f5260045ffd5b3461045b575f36600319011261045b5760206040515f516020615d0c5f395f51905f528152f35b3461045b57602036600319011261045b57600435612f69615291565b60025f54146109a85760025f55805f52600d602052600160405f2001541561044c57805f52600d60205260405f206010810190815491601160ff84169360ff191617905560018101545f5260106020525f6040812055612fc882614d89565b600e82149182159283613181575b61311a575b835f52600f60205260405f20600681019060ff8254166130cc575b5050601782018054801515806130b6575b61302b575b855f516020615c6c5f395f51905f52602060405160078152a260015f55005b6018945f9361303981614d89565b816130a1575b50613060575b50550180546001600160a01b0319169055818080808061300c565b838501546001600160a01b039081168452601160209081526040808620600488015490931686529190528320805490916130999161502a565b905585613045565b600f91506130ae81614d89565b14158761303f565b5060188401546001600160a01b03161515613007565b600181015490546001600160a01b039081165f9081526011602090815260408083206004890154909416835292905220805490916131099161502a565b9055805460ff191690558480612ff6565b835f52601460205260405f205f805260205261313f60405f2054600d8401549061502a565b60038301546001600160a01b039081165f90815260116020908152604080832060048801549094168352929052208054909161317a9161502a565b9055612fdb565b5061318b81614d89565b600f8114612fd6565b3461045b575f36600319011261045b576020600a54604051908152f35b3461045b57602036600319011261045b576004356131cd615a1b565b60025f54146109a85760025f55805f52600d602052600160405f2001541561044c57805f52600d60205260ff601560405f20015460081c1661043d575f818152600d6020526040902060028101549091906001600160a01b03163303610ce15760108201600960ff82541661324181614d89565b0361041a57815f52600f60205260405f20906006820160ff8154161561041a5760018060a01b03600254169460018101955f8754602460405180948193631cab5c9d60e31b835260048301525afa908115610b4a575f91613426575b505f93600486019182549081151580613419575b6133dd575b50508554600380850180546001600160a01b03199081166001600160a01b0394851617825560018a018054600589015560028b0154600a808a0191909155938b0154600b8901805490931695169490941790559354600c860155600d850196909655600e8401805460ff1990811690915582541690951790556006545f516020615c4c5f395f51905f529560209592949392601892613355904261502a565b60118501555f6014850181905560158501805460ff199081169091559154601786015591549290930180546001600160a01b0319166001600160a01b03938416179055835490921690925591546040519116959091869086907f8097ce87ac98d8d86d9f179c158a93129d2a76c4eed66712296411d027f14b7e9080a354948152a360015f55005b60a09192959493965001518060021b9080820460041490151715610ddf57818102918183041490151715610ddf579391929091908560186132b6565b5060a081015115156132b1565b61343a91503d805f833e610b3c8183614dae565b8761329d565b3461045b575f36600319011261045b576020600c54604051908152f35b3461045b57602036600319011261045b57600435613479615248565b60025f54146109a85760025f55805f52600d602052600160405f2001541561044c57805f52600d60205260ff601060405f200154166134b781614d89565b601081149081156136d1575b5061041a57805f52600d60205260405f206010810190815491601160ff84169360ff191617905560018101545f5260106020525f604081205561350582614d89565b600e821491821592836136be575b613657575b835f52600f60205260405f20600681019060ff825416613609575b5050601782018054801515806135f3575b613568575b855f516020615c6c5f395f51905f526020604051600e8152a260015f55005b6018945f9361357681614d89565b816135de575b5061359d575b50550180546001600160a01b03191690558180808080613549565b838501546001600160a01b039081168452601160209081526040808620600488015490931686529190528320805490916135d69161502a565b905585613582565b600f91506135eb81614d89565b14158761357c565b5060188401546001600160a01b03161515613544565b600181015490546001600160a01b039081165f9081526011602090815260408083206004890154909416835292905220805490916136469161502a565b9055805460ff191690558480613533565b835f52601460205260405f205f805260205261367c60405f2054600d8401549061502a565b60038301546001600160a01b039081165f9081526011602090815260408083206004880154909416835292905220805490916136b79161502a565b9055613518565b506136c881614d89565b600f8114613513565b601191506136de81614d89565b14826134c3565b3461045b575f36600319011261045b5760206040516101f48152f35b3461045b57602036600319011261045b576004355f52600d60205260c060405f2060018060a01b036003820154169060ff60018060a01b036002830154169160018060a01b03600482015416826010601b840154930154169361376385614d89565b60405195865260208601526040850152818116606085015260081c16608083015260a0820152f35b3461045b575f36600319011261045b576004546040516001600160a01b039091168152602090f35b3461045b5760c036600319011261045b576004356137cf614d63565b6084356001600160a01b03811692916044359184900361045b576137f1615291565b825f52600d602052600160405f2001541561044c57825f52600d60205260405f20600960ff60108301541661382581614d89565b0361041a576011810154421161041a57835f52600f60205260405f209060ff600683015416613945575b50506040519160e08301916001600160401b038311848410176119665760409283526001600160a01b03908116808552602080860184815260643587870190815260608801998a5260a435608089019081524260a08a01908152600160c08b018181525f8d8152600f88529a909a209a518b549089166001600160a01b0319918216178c559451908b0155915160028a01559951600389018054919096169216919091179093559651600486015590516005850155915191947f2ca8db4fa79ad716886fc0176a9991732efa793908dfe8a5389cdc28e09145df93909261393c91901515906006016151b9565b604051908152a3005b600182015491546001600160a01b039081165f9081526011602090815260408083206004909501549093168252929092529020805490916139859161502a565b9055848061384f565b3461045b575f36600319011261045b5760206040515f516020615c2c5f395f51905f528152f35b3461045b57602036600319011261045b576004356139d1615a1b565b60025f54146109a85760025f55805f52600d602052600160405f2001541561044c57805f52600d60205260ff601560405f20015460081c1661043d57805f52600d60205260405f2060ff601082015416613a2a81614d89565b6005600a821491613a3a81614d89565b141580613d6d575b61041a576002546001830154604051631cab5c9d60e31b81526004810182905290915f90829060249082906001600160a01b03165afa8015610b4a5760c0915f91613d53575b500180516001600160a01b031615610b1957516001600160a01b03163303610b0a57837ffd2ee1303442fdcd75ef0f691a0821035ed5505126ccc8a813b39ca0cebe5c2f5f80a380613d46575b613ce4575b50805f52600d60205260405f206010810190815491601160ff84169360ff191617905560018101545f5260106020525f6040812055613b1882614d89565b600e82149182159283613cd1575b613c6a575b835f52600f60205260405f20600681019060ff825416613c1c575b505060178201805480151580613c06575b613b7b575b855f516020615c6c5f395f51905f52602060405160048152a260015f55005b6018945f93613b8981614d89565b81613bf1575b50613bb0575b50550180546001600160a01b03191690558180808080613b5c565b838501546001600160a01b03908116845260116020908152604080862060048801549093168652919052832080549091613be99161502a565b905585613b95565b600f9150613bfe81614d89565b141587613b8f565b5060188401546001600160a01b03161515613b57565b600181015490546001600160a01b039081165f908152601160209081526040808320600489015490941683529290522080549091613c599161502a565b9055805460ff191690558480613b46565b835f52601460205260405f205f8052602052613c8f60405f2054600d8401549061502a565b60038301546001600160a01b039081165f908152601160209081526040808320600488015490941683529290522080549091613cca9161502a565b9055613b2b565b50613cdb81614d89565b600f8114613b26565b5f601782018054601884019360018060a01b03855416845260116020526040842090600460018060a01b039101541660018060a01b03168452602052613d2f6040842091825461502a565b90555580546001600160a01b031916905581613ada565b5060178101541515613ad5565b613d6791503d805f833e610b3c8183614dae565b86613a88565b508015613a42565b3461045b57604036600319011261045b57613d8e614d63565b6004355f52601260205260405f209060018060a01b03165f52602052602060405f2054604051908152f35b3461045b575f36600319011261045b57602060ff5f516020615ccc5f395f51905f5254166040519015158152f35b3461045b57602036600319011261045b57600435613e03615a1b565b60025f54146109a85760025f55805f52600d602052600160405f2001541561044c57805f52600d60205260ff601560405f20015460081c1661043d575f818152600d6020526040902060028101546001600160a01b03163303610ce157600960ff601083015416613e7381614d89565b0361041a57815f52600f60205260405f2090600682019060ff8254161561041a57600183015483546001600160a01b039081165f90815260116020908152604080832060049096015490931682529390935290912080549091613ed59161502a565b9055805460ff19169055546001600160a01b0316907f9598c2bbda2be06d3d153b44d4049da36b22f2dc3d46142eb6255f6613a65b965f80a360015f55005b3461045b575f36600319011261045b577f00000000000000000000000000000000000000000000000000000000000000006001600160a01b03163003613f6b5760206040515f516020615c0c5f395f51905f528152f35b63703e46dd60e11b5f5260045ffd5b3461045b575f36600319011261045b576003546040516001600160a01b039091168152602090f35b604036600319011261045b57613fb6614d4d565b602435906001600160401b03821161045b573660238301121561045b578160040135613fe181614dd1565b92613fef6040519485614dae565b818452366024838301011161045b57815f9260246020930183870137840101526001600160a01b037f000000000000000000000000000000000000000000000000000000000000000016308114908115614173575b50613f6b57614051615336565b6040516352d1902d60e01b81526001600160a01b0382169290602081600481875afa5f918161413f575b506140935783634c9c8ce360e01b5f5260045260245ffd5b805f516020615c0c5f395f51905f5285920361412d5750823b1561411b575f516020615c0c5f395f51905f5280546001600160a01b031916821790557fbc7cd75a20ee27fd9adebab32041f755214dbc6bffa90cc0225b39da2e5c2d3b5f80a28051156141035761122791615aff565b50503461410c57005b63b398979f60e01b5f5260045ffd5b634c9c8ce360e01b5f5260045260245ffd5b632a87526960e21b5f5260045260245ffd5b9091506020813d60201161416b575b8161415b60209383614dae565b8101031261045b5751908561407b565b3d915061414e565b5f516020615c0c5f395f51905f52546001600160a01b03161415905083614044565b3461045b57602036600319011261045b576101006141b46004356150d5565b60e06040519180511515835260018060a01b03602082015116602084015260018060a01b03604082015116604084015260018060a01b0360608201511660608401526080810151608084015260a081015160a084015260c081015161421881614d89565b60c0840152015160e0820152f35b3461045b575f36600319011261045b576002546040516001600160a01b039091168152602090f35b3461045b57604036600319011261045b57614267614d4d565b61426f614d63565b6001600160a01b039182165f908152601160209081526040808320949093168252928352819020549051908152f35b3461045b575f36600319011261045b576142b66152ed565b5f516020615ccc5f395f51905f525460ff81161561430d5760ff19165f516020615ccc5f395f51905f52557f5db9ee0a495bf2e6ff9c91a7834c1ba4fdd244a5e8aa4e537bd38aeae4b073aa6020604051338152a1005b638dfc202b60e01b5f5260045ffd5b3461045b57602036600319011261045b57600435614338615291565b805f52600d602052600160405f2001541561044c575f52600d60205260405f2060108101600d60ff198254161790556011614375600b544261502a565b910155005b3461045b575f36600319011261045b576020600b54604051908152f35b3461045b57604036600319011261045b5760043560ff811680910361045b57602435906143c26152ed565b610e10821061442857806143d65750600655005b600181036143e45750600755005b600281036143f25750600855005b600381036144005750600955005b6004810361440e5750600a55005b6005810361441c5750600b55005b600603610caf57600c55005b63296d383360e01b5f5260045ffd5b3461045b575f36600319011261045b57602060405162093a808152f35b3461045b57604036600319011261045b5761446d614d63565b336001600160a01b03821603614489576112279060043561597f565b63334bd91960e11b5f5260045ffd5b3461045b575f36600319011261045b576020600554604051908152f35b3461045b57604036600319011261045b576112276004356144d4614d63565b906144e161121d826150b7565b6158ee565b3461045b57604036600319011261045b57600435614502614d79565b61450a615291565b60025f54146109a85760025f55815f52600d602052600160405f2001541561044c5760ff16600f811015611ab35760205f516020615c6c5f395f51905f5291835f52600d825260405f206010810190815491601160ff84169360ff191617905560018101545f52601084525f604081205561458482614d89565b600e82149182159283614724575b6146c2575b865f52600f855260405f20600681019060ff825416614677575b505060178201805480151580614661575b6145d9575b5050505050604051908152a260015f55005b6018945f936145e781614d89565b8161464c575b5061460e575b50550180546001600160a01b031916905584808080806145c7565b838501546001600160a01b039081168452601188526040808520600487015490921685529088528320805490916146449161502a565b9055886145f3565b600f915061465981614d89565b14158a6145ed565b5060188401546001600160a01b031615156145c2565b600181015490546001600160a01b039081165f9081526011895260408082206004880154909316825291895220805490916146b19161502a565b9055805460ff1916905587806145b1565b865f526014855260405f205f805285526146e560405f2054600d8401549061502a565b60038301546001600160a01b039081165f90815260118852604080822060048701549093168252918852208054909161471d9161502a565b9055614597565b5061472e81614d89565b600f8114614592565b3461045b57602036600319011261045b5760206147556004356150b7565b604051908152f35b3461045b57602036600319011261045b57614776614d4d565b60025f54146109a85760025f55335f52601160205260405f2060018060a01b0382165f5260205260405f205490811561486857335f52601160205260405f2060018060a01b0382165f526020525f604081205560018060a01b0316906040519063a9059cbb60e01b5f52336004528060245260205f60448180875af160015f5114811615614849575b82604052156148365781527f716942921e9b67ee05c4c2ffcf216f189086c9053b444c8928a49db4bdb1ae8e60203392a360015f55005b82635274afe760e01b5f5260045260245ffd5b600181151661485f57833b15153d1516166147ff565b823d5f823e3d90fd5b6312d37ee560e31b5f5260045ffd5b3461045b575f36600319011261045b576020600954604051908152f35b3461045b57602036600319011261045b5760c060ff6148b460043561504f565b9495919290936040519615158752151560208701521660408501526060840152608083015260018060a01b031660a0820152f35b3461045b576148f636614d37565b6148fe615291565b60025f54146109a85760025f55815f52600d602052600160405f2001541561044c57815f52600d60205260405f20908061497e575b5060108101600960ff1982541617905560116149516008544261502a565b9101557ff821d84aa1a441b5bb4ce3244bee2f2a91a73159f3163986392a59fdd288afb15f80a260015f55005b676765c793fa10079d601a1b8111610caf57600582018054828181106149a8575b50505582614933565b6149b19161501d565b60038401546001600160a01b039081165f9081526011602090815260408083206004890154909416835292905220805490916149ec9161502a565b9055848261499f565b3461045b575f36600319011261045b576020600754604051908152f35b3461045b57602036600319011261045b5760043563ffffffff60e01b811680910361045b57602090637965db0b60e01b8114908115614a57575b506040519015158152f35b6301ffc9a760e01b14905082614a4c565b3461045b57602036600319011261045b57600435614a84615248565b60025f54146109a85760025f55805f52600d602052600160405f2001541561044c57805f52600d60205260ff601060405f20015416614ac281614d89565b600e8114159081614adc575b5061041a57611c16906153b8565b600f9150614ae981614d89565b141582614ace565b3461045b575f36600319011261045b57604051676765c793fa10079d601a1b8152602090f35b3461045b57614b2536614d37565b90614b2e615248565b60025f54146109a85760025f55805f52600d602052600160405f2001541561044c57805f52600d60205260405f20601060ff8183015416614b6e81614d89565b0361041a57815f52600e60205260405f208054841015614d285783614b9291614e07565b509060028201805460ff8160081c16614d195761ff001981166101001790915560ff1615614d065760018060a01b03600254165f6001830154602460405180948193631cab5c9d60e31b835260048301525afa8015610b4a5760c0915f91614cec575b500180516001600160a01b031615610b1957516001600160a01b03165b835f526012602052600460405f2092019060018060a01b038254169260018060a01b0384165f52602052600160405f20549401908154809510610caf577f8a7b03d7dda6d95d58f5cd28b28478861ccab393473b4181ae4d6ec30207dfea94604094875f526012602052855f209060018060a01b03165f52602052614c9b855f2091825461501d565b905581546001600160a01b039182165f81815260116020908152878220965490941681529490925292849020805491939091614cd7919061502a565b9055549082519182526020820152a360015f55005b614d0091503d805f833e610b3c8183614dae565b86614bf5565b60028101546001600160a01b0316614c12565b631281aab960e01b5f5260045ffd5b63671a587360e01b5f5260045ffd5b604090600319011261045b576004359060243590565b600435906001600160a01b038216820361045b57565b602435906001600160a01b038216820361045b57565b6024359060ff8216820361045b57565b60121115611ab357565b606081019081106001600160401b0382111761196657604052565b601f909101601f19168101906001600160401b0382119082101761196657604052565b6001600160401b03811161196657601f01601f191660200190565b3461045b575f36600319011261045b57602060405160c88152f35b8054821015614e20575f52600360205f20910201905f90565b634e487b7160e01b5f52603260045260245ffd5b9061ff00825491151560081b169061ff001916179055565b81601f8201121561045b57805190614e6382614dd1565b92614e716040519485614dae565b8284526020838301011161045b57815f9260208093018386015e8301015290565b5190811515820361045b57565b60208183031261045b578051906001600160401b03821161045b5701906102008282031261045b576040519161020083016001600160401b03811184821017611966576040528051835260208101516001600160401b03811161045b5782614f08918301614e4c565b602084015260408101516001600160401b03811161045b5782614f2c918301614e4c565b604084015260608101516001600160401b03811161045b5782614f50918301614e4c565b60608401526080818101519084015260a0808201519084015260c08101516001600160a01b038116810361045b5760c0840152614f8f60e08201614e92565b60e0840152614fa16101008201614e92565b610100840152614fb46101208201614e92565b6101208401526101408101516101408401526101608101516101608401526101808101516101808401526101a08101516101a08401526101c081015160018060401b03811161045b576101e09261500c918301614e4c565b6101c084015201516101e082015290565b91908203918211610ddf57565b91908201809211610ddf57565b9061504181614d89565b60ff80198354169116179055565b5f52600d60205260405f206001810154156150a85760ff601582015460081c169160ff6010830154169161508283614d89565b6011810154601a82015460199092015460019594939192916001600160a01b0390911690565b505f905f905f905f905f905f90565b5f525f516020615c8c5f395f51905f52602052600160405f20015490565b60405190919061010081016001600160401b03811182821017611966576040525f81525f60208201525f60408201525f60608201525f60808201525f60a08201525f60c08201525f60e082015280925f52600d60205260405f20906001820154156151b457506001835260028101546001600160a01b039081166020850152600382015481166040850152600482015416606084015260058101546080840152600f81015460a084015260108101546011919060ff1661519481614d89565b61519d81614d89565b6151a681614d89565b60c0850152015460e0830152565b925050565b9060ff801983541691151516179055565b906004811015611ab35760ff80198354169116179055565b903590601e198136030182121561045b57018035906001600160401b03821161045b57602001918160051b3603831361045b57565b9190811015614e205760051b0190565b356001600160a01b038116810361045b5790565b35801515810361045b5790565b335f9081525f516020615bac5f395f51905f52602052604090205460ff161561526d57565b63e2517d3f60e01b5f52336004525f516020615c2c5f395f51905f5260245260445ffd5b335f9081527fe102a084b8508bede6bf51c8b54b1c4d119a4a0e42216477c270f0353f96ae65602052604090205460ff16156152c957565b63e2517d3f60e01b5f52336004525f516020615cec5f395f51905f5260245260445ffd5b335f9081525f516020615bcc5f395f51905f52602052604090205460ff161561531257565b63e2517d3f60e01b5f52336004525f516020615d0c5f395f51905f5260245260445ffd5b335f9081525f516020615bec5f395f51905f52602052604090205460ff161561535b57565b63e2517d3f60e01b5f52336004525f60245260445ffd5b5f8181525f516020615c8c5f395f51905f526020908152604080832033845290915290205460ff16156153a25750565b63e2517d3f60e01b5f523360045260245260445ffd5b5f90805f52600d60205260405f209060108201601060ff198254161790556001820180545f5260106020525f6040812055815f52601460205260405f205f805260205260405f205460055480151580615764575b1561575d575b600685015480151580615747575b15615740575b60088601548015158061572a575b1561572257905b600a8701548015158061570c575b1561570457925b6040519463a4ba3a7f60e01b86526004860152602485015260448401526064830152608482015260a08160a48173__$d9d5ca12ac0847b5930a2330ee53d4fb3d$__5af4908115610b4a575f5f5f915f935f956156b3575b5080615670575b508061562d575b50806155ea575b50806155a7575b506002840180546001600160a01b039081165f90815260116020908152604080832060048a0154909416835292905220805491929091615504919061502a565b905560025482549154600395909501805490956001600160a01b0391821693929082169116803b1561045b575f928360649260405196879586946332f65ba360e01b86526004860152602485015260448401525af18015610b4a57615585575b505491546001600160a01b0316925f516020615cac5f395f51905f529080a4565b6155929194505f90614dae565b5f925f516020615cac5f395f51905f52615564565b600b8501546001600160a01b039081165f90815260116020908152604080832060048a0154909416835292905220805490916155e29161502a565b90555f6154c4565b60098601546001600160a01b039081165f90815260116020908152604080832060048b0154909416835292905220805490916156259161502a565b90555f6154bd565b60078701546001600160a01b039081165f90815260116020908152604080832060048c0154909416835292905220805490916156689161502a565b90555f6154b6565b600480546001600160a01b039081165f908152601160209081526040808320948d01549093168252929092529020805490916156ab9161502a565b90555f6154af565b94505050505060a0813d60a0116156fc575b816156d260a09383614dae565b8101031261045b57805160208201516040830151606084015160809094015193929091905f6154a8565b3d91506156c5565b505f92615450565b50600b8801546001600160a01b03161515615449565b505f9061543b565b5060098701546001600160a01b03161515615434565b505f615426565b5060078601546001600160a01b03161515615420565b505f615412565b506004546001600160a01b0316151561540c565b6001600160a01b0381165f9081525f516020615bec5f395f51905f52602052604090205460ff166157e9576001600160a01b03165f8181525f516020615bec5f395f51905f5260205260408120805460ff191660011790553391905f516020615b8c5f395f51905f528180a4600190565b505f90565b6001600160a01b0381165f9081525f516020615bcc5f395f51905f52602052604090205460ff166157e9576001600160a01b03165f8181525f516020615bcc5f395f51905f5260205260408120805460ff191660011790553391905f516020615d0c5f395f51905f52905f516020615b8c5f395f51905f529080a4600190565b6001600160a01b0381165f9081525f516020615bac5f395f51905f52602052604090205460ff166157e9576001600160a01b03165f8181525f516020615bac5f395f51905f5260205260408120805460ff191660011790553391905f516020615c2c5f395f51905f52905f516020615b8c5f395f51905f529080a4600190565b5f8181525f516020615c8c5f395f51905f52602090815260408083206001600160a01b038616845290915290205460ff16615979575f8181525f516020615c8c5f395f51905f52602090815260408083206001600160a01b0395909516808452949091528120805460ff19166001179055339291905f516020615b8c5f395f51905f529080a4600190565b50505f90565b5f8181525f516020615c8c5f395f51905f52602090815260408083206001600160a01b038616845290915290205460ff1615615979575f8181525f516020615c8c5f395f51905f52602090815260408083206001600160a01b0395909516808452949091528120805460ff19169055339291907ff6391f5c32d9c69d2a47ea670b442974b53935d1edc7fd64eb21e047a839171b9080a4600190565b60ff5f516020615ccc5f395f51905f525416615a3357565b63d93c066560e01b5f5260045ffd5b6040516323b872dd60e01b5f9081526001600160a01b039384166004529290931660245260449390935260209060648180865af19060015f5114821615615ab3575b6040525f60605215615a935750565b635274afe760e01b5f9081526001600160a01b0391909116600452602490fd5b906001811516615acb57823b15153d15161690615a84565b503d5f823e3d90fd5b60ff5f516020615d2c5f395f51905f525460401c1615615af057565b631afcd79f60e31b5f5260045ffd5b905f8091602081519101845af48080615b78575b15615b335750506040513d81523d5f602083013e60203d82010160405290565b15615b5857639996b31560e01b5f9081526001600160a01b0391909116600452602490fd5b3d15615b69576040513d5f823e3d90fd5b63d6bda27560e01b5f5260045ffd5b503d151580615b135750813b1515615b1356fe2f8788117e7eff1d82e926ec794901d17c78024a50270940304540a733656f0d7a1492cadb22452d254c71a9ef0c781c9f2d1c472dc5213a713c8769ea04d819b16e88c42fd4e48df2dd6a2eabd6bc9aec654ec170056b470819f8892cc6431cb7db2dd08fcb62d0c9e08c51941cae53c267786a0b75803fb7960902fc8ef97d360894a13ba1a3210667c828492db98dca3e2076cc3735a920a3ca505d382bbce4369475d33ca6555b45ac3cf081bee16c4b11779d89f812395c569b2de40f013a24deaadf78a85a780efe5abe4bbc96c2cbcb1620cf4c951dca4e931576a35f6f16db8d1d117ace6c231f2420199bd5731215b09c0610c8103dd70237f23b6702dd7bc7dec4dceedda775e58dd541e08a116c6c53815c0bd028192f7b6268004c64a78d82982b8bfbb5b3bc9a6e8b4e024bb84db4aaf997d36667cd611183dccd5ed15c6e187e77e9aee88184c21f4f2182ab5827cb3b7e07fbedcd63f03300b91045a954d2b1232c32104950cc1bd73039d77d96d80d2677a658336477a079a49807205ce4d355092ef5a8a18f56e8913cf4a201fbe287825b095693c21775f0c57e16840df040f15088dc2f81fe391c3923bec73e23a9662efc9c229c6a00a26469706673582212206a1031981e8265d710b209d64fd867c23624ce340e5a8ea15a9af719d7dcceeb64736f6c634300081c0033f0c57e16840df040f15088dc2f81fe391c3923bec73e23a9662efc9c229c6a00",
  "linkReferences": {
    "project/contracts/libraries/FeeLib.sol": {
      "FeeLib": [
        {
          "length": 20,
          "start": 21830
        }
      ]
    }
  },
  "deployedLinkReferences": {
    "project/contracts/libraries/FeeLib.sol": {
      "FeeLib": [
        {
          "length": 20,
          "start": 21631
        }
      ]
    }
  },
  "immutableReferences": {
    "1408": [
      {
        "length": 32,
        "start": 16166
      },
      {
        "length": 32,
        "start": 16409
      }
    ]
  },
  "inputSourceName": "project/contracts/core/DealEscrow.sol",
  "buildInfoId": "solc-0_8_28-5967eeaa887cc4ab12af79fbd6f93b2a8d0fe978"
}