{
  "_format": "hh3-artifact-1",
  "contractName": "DealEscrow",
  "sourceName": "contracts/core/DealEscrow.sol",
  "abi": [
    {
      "inputs": [],
      "stateMutability": "nonpayable",
      "type": "constructor"
    },
    {
      "inputs": [],
      "name": "AccessControlBadConfirmation",
      "type": "error"
    },
    {
      "inputs": [
        {
          "internalType": "address",
          "name": "account",
          "type": "address"
        },
        {
          "internalType": "bytes32",
          "name": "neededRole",
          "type": "bytes32"
        }
      ],
      "name": "AccessControlUnauthorizedAccount",
      "type": "error"
    },
    {
      "inputs": [],
      "name": "AddOnAlreadyTriggered",
      "type": "error"
    },
    {
      "inputs": [],
      "name": "AddOnNotFound",
      "type": "error"
    },
    {
      "inputs": [
        {
          "internalType": "address",
          "name": "target",
          "type": "address"
        }
      ],
      "name": "AddressEmptyCode",
      "type": "error"
    },
    {
      "inputs": [],
      "name": "CannotConfirmOwnProposal",
      "type": "error"
    },
    {
      "inputs": [],
      "name": "ConsentWindowExpired",
      "type": "error"
    },
    {
      "inputs": [],
      "name": "DealIsFrozen",
      "type": "error"
    },
    {
      "inputs": [],
      "name": "DealNotFound",
      "type": "error"
    },
    {
      "inputs": [],
      "name": "DealNotFrozen",
      "type": "error"
    },
    {
      "inputs": [],
      "name": "DisputeWindowExpired",
      "type": "error"
    },
    {
      "inputs": [
        {
          "internalType": "address",
          "name": "implementation",
          "type": "address"
        }
      ],
      "name": "ERC1967InvalidImplementation",
      "type": "error"
    },
    {
      "inputs": [],
      "name": "ERC1967NonPayable",
      "type": "error"
    },
    {
      "inputs": [],
      "name": "EnforcedPause",
      "type": "error"
    },
    {
      "inputs": [],
      "name": "ExpectedPause",
      "type": "error"
    },
    {
      "inputs": [],
      "name": "FailedCall",
      "type": "error"
    },
    {
      "inputs": [],
      "name": "FundingWindowExpired",
      "type": "error"
    },
    {
      "inputs": [],
      "name": "HijackWindowClosed",
      "type": "error"
    },
    {
      "inputs": [],
      "name": "InvalidAddress",
      "type": "error"
    },
    {
      "inputs": [],
      "name": "InvalidAmount",
      "type": "error"
    },
    {
      "inputs": [],
      "name": "InvalidInitialization",
      "type": "error"
    },
    {
      "inputs": [],
      "name": "InvalidInstallmentSchedule",
      "type": "error"
    },
    {
      "inputs": [],
      "name": "LeagueDisputeDeadlineExpired",
      "type": "error"
    },
    {
      "inputs": [],
      "name": "MedicalAlreadySubmitted",
      "type": "error"
    },
    {
      "inputs": [],
      "name": "MedicalWindowExpired",
      "type": "error"
    },
    {
      "inputs": [],
      "name": "MutualCancelAlreadyProposed",
      "type": "error"
    },
    {
      "inputs": [],
      "name": "MutualCancelExpiredError",
      "type": "error"
    },
    {
      "inputs": [],
      "name": "MutualCancelNotProposed",
      "type": "error"
    },
    {
      "inputs": [],
      "name": "NoSigningBonus",
      "type": "error"
    },
    {
      "inputs": [],
      "name": "NoSigningBonusToRescue",
      "type": "error"
    },
    {
      "inputs": [],
      "name": "NotBuyingClub",
      "type": "error"
    },
    {
      "inputs": [],
      "name": "NotInitializing",
      "type": "error"
    },
    {
      "inputs": [],
      "name": "NotPlayerWallet",
      "type": "error"
    },
    {
      "inputs": [],
      "name": "NotSellingClub",
      "type": "error"
    },
    {
      "inputs": [],
      "name": "NothingToClaim",
      "type": "error"
    },
    {
      "inputs": [],
      "name": "PlayerWalletNotSet",
      "type": "error"
    },
    {
      "inputs": [],
      "name": "ProtocolFeeTooHigh",
      "type": "error"
    },
    {
      "inputs": [],
      "name": "ReentrantCall",
      "type": "error"
    },
    {
      "inputs": [
        {
          "internalType": "address",
          "name": "token",
          "type": "address"
        }
      ],
      "name": "SafeERC20FailedOperation",
      "type": "error"
    },
    {
      "inputs": [],
      "name": "SigningBonusAlreadyClaimed",
      "type": "error"
    },
    {
      "inputs": [],
      "name": "SigningBonusNotExpired",
      "type": "error"
    },
    {
      "inputs": [],
      "name": "TimerTooShort",
      "type": "error"
    },
    {
      "inputs": [],
      "name": "TokenNotApproved",
      "type": "error"
    },
    {
      "inputs": [],
      "name": "TransferWindowClosed",
      "type": "error"
    },
    {
      "inputs": [],
      "name": "UUPSUnauthorizedCallContext",
      "type": "error"
    },
    {
      "inputs": [
        {
          "internalType": "bytes32",
          "name": "slot",
          "type": "bytes32"
        }
      ],
      "name": "UUPSUnsupportedProxiableUUID",
      "type": "error"
    },
    {
      "inputs": [],
      "name": "WrongDealState",
      "type": "error"
    },
    {
      "anonymous": false,
      "inputs": [
        {
          "indexed": true,
          "internalType": "uint256",
          "name": "dealId",
          "type": "uint256"
        },
        {
          "indexed": true,
          "internalType": "uint256",
          "name": "idx",
          "type": "uint256"
        },
        {
          "indexed": false,
          "internalType": "uint256",
          "name": "amount",
          "type": "uint256"
        },
        {
          "indexed": false,
          "internalType": "address",
          "name": "recipient",
          "type": "address"
        }
      ],
      "name": "AddOnTriggered",
      "type": "event"
    },
    {
      "anonymous": false,
      "inputs": [
        {
          "indexed": true,
          "internalType": "uint256",
          "name": "dealId",
          "type": "uint256"
        },
        {
          "indexed": false,
          "internalType": "enum TransferTypes.CancelReason",
          "name": "reason",
          "type": "uint8"
        }
      ],
      "name": "DealCancelled",
      "type": "event"
    },
    {
      "anonymous": false,
      "inputs": [
        {
          "indexed": true,
          "internalType": "uint256",
          "name": "dealId",
          "type": "uint256"
        },
        {
          "indexed": true,
          "internalType": "uint256",
          "name": "playerId",
          "type": "uint256"
        },
        {
          "indexed": true,
          "internalType": "address",
          "name": "newClub",
          "type": "address"
        }
      ],
      "name": "DealCompleted",
      "type": "event"
    },
    {
      "anonymous": false,
      "inputs": [
        {
          "indexed": true,
          "internalType": "uint256",
          "name": "dealId",
          "type": "uint256"
        },
        {
          "indexed": true,
          "internalType": "uint256",
          "name": "playerId",
          "type": "uint256"
        },
        {
          "indexed": true,
          "internalType": "address",
          "name": "buyingClub",
          "type": "address"
        }
      ],
      "name": "DealCreated",
      "type": "event"
    },
    {
      "anonymous": false,
      "inputs": [
        {
          "indexed": true,
          "internalType": "uint256",
          "name": "dealId",
          "type": "uint256"
        }
      ],
      "name": "DealFrozen",
      "type": "event"
    },
    {
      "anonymous": false,
      "inputs": [
        {
          "indexed": true,
          "internalType": "uint256",
          "name": "dealId",
          "type": "uint256"
        }
      ],
      "name": "DealUnfrozen",
      "type": "event"
    },
    {
      "anonymous": false,
      "inputs": [
        {
          "indexed": true,
          "internalType": "uint256",
          "name": "dealId",
          "type": "uint256"
        },
        {
          "indexed": true,
          "internalType": "address",
          "name": "raisedBy",
          "type": "address"
        }
      ],
      "name": "DisputeRaised",
      "type": "event"
    },
    {
      "anonymous": false,
      "inputs": [
        {
          "indexed": true,
          "internalType": "uint256",
          "name": "dealId",
          "type": "uint256"
        }
      ],
      "name": "DisputeResolved",
      "type": "event"
    },
    {
      "anonymous": false,
      "inputs": [
        {
          "indexed": true,
          "internalType": "uint256",
          "name": "dealId",
          "type": "uint256"
        },
        {
          "indexed": true,
          "internalType": "address",
          "name": "buyingClub",
          "type": "address"
        },
        {
          "indexed": false,
          "internalType": "uint256",
          "name": "amount",
          "type": "uint256"
        }
      ],
      "name": "FundingReceived",
      "type": "event"
    },
    {
      "anonymous": false,
      "inputs": [
        {
          "indexed": true,
          "internalType": "address",
          "name": "recipient",
          "type": "address"
        },
        {
          "indexed": true,
          "internalType": "address",
          "name": "token",
          "type": "address"
        },
        {
          "indexed": false,
          "internalType": "uint256",
          "name": "amount",
          "type": "uint256"
        }
      ],
      "name": "FundsClaimed",
      "type": "event"
    },
    {
      "anonymous": false,
      "inputs": [
        {
          "indexed": true,
          "internalType": "uint256",
          "name": "dealId",
          "type": "uint256"
        },
        {
          "indexed": true,
          "internalType": "address",
          "name": "hijackClub",
          "type": "address"
        }
      ],
      "name": "HijackBidAccepted",
      "type": "event"
    },
    {
      "anonymous": false,
      "inputs": [
        {
          "indexed": true,
          "internalType": "uint256",
          "name": "dealId",
          "type": "uint256"
        },
        {
          "indexed": true,
          "internalType": "address",
          "name": "hijackClub",
          "type": "address"
        }
      ],
      "name": "HijackBidRejected",
      "type": "event"
    },
    {
      "anonymous": false,
      "inputs": [
        {
          "indexed": true,
          "internalType": "uint256",
          "name": "dealId",
          "type": "uint256"
        },
        {
          "indexed": true,
          "internalType": "address",
          "name": "hijackClub",
          "type": "address"
        },
        {
          "indexed": false,
          "internalType": "uint256",
          "name": "transferFee",
          "type": "uint256"
        }
      ],
      "name": "HijackBidSubmitted",
      "type": "event"
    },
    {
      "anonymous": false,
      "inputs": [
        {
          "indexed": false,
          "internalType": "uint64",
          "name": "version",
          "type": "uint64"
        }
      ],
      "name": "Initialized",
      "type": "event"
    },
    {
      "anonymous": false,
      "inputs": [
        {
          "indexed": true,
          "internalType": "uint256",
          "name": "dealId",
          "type": "uint256"
        },
        {
          "indexed": true,
          "internalType": "address",
          "name": "escalatedBy",
          "type": "address"
        }
      ],
      "name": "MedicalDisputeEscalated",
      "type": "event"
    },
    {
      "anonymous": false,
      "inputs": [
        {
          "indexed": true,
          "internalType": "uint256",
          "name": "dealId",
          "type": "uint256"
        }
      ],
      "name": "MedicalDisputeResolved",
      "type": "event"
    },
    {
      "anonymous": false,
      "inputs": [
        {
          "indexed": true,
          "internalType": "uint256",
          "name": "dealId",
          "type": "uint256"
        },
        {
          "indexed": false,
          "internalType": "uint256",
          "name": "newFee",
          "type": "uint256"
        }
      ],
      "name": "MedicalRenegotiationResolved",
      "type": "event"
    },
    {
      "anonymous": false,
      "inputs": [
        {
          "indexed": true,
          "internalType": "uint256",
          "name": "dealId",
          "type": "uint256"
        }
      ],
      "name": "MedicalRenegotiationStarted",
      "type": "event"
    },
    {
      "anonymous": false,
      "inputs": [
        {
          "indexed": true,
          "internalType": "uint256",
          "name": "dealId",
          "type": "uint256"
        },
        {
          "indexed": false,
          "internalType": "enum TransferTypes.MedicalOutcome",
          "name": "outcome",
          "type": "uint8"
        }
      ],
      "name": "MedicalSubmitted",
      "type": "event"
    },
    {
      "anonymous": false,
      "inputs": [
        {
          "indexed": true,
          "internalType": "uint256",
          "name": "dealId",
          "type": "uint256"
        }
      ],
      "name": "MutualCancelConfirmed",
      "type": "event"
    },
    {
      "anonymous": false,
      "inputs": [
        {
          "indexed": true,
          "internalType": "uint256",
          "name": "dealId",
          "type": "uint256"
        }
      ],
      "name": "MutualCancelExpired",
      "type": "event"
    },
    {
      "anonymous": false,
      "inputs": [
        {
          "indexed": true,
          "internalType": "uint256",
          "name": "dealId",
          "type": "uint256"
        },
        {
          "indexed": true,
          "internalType": "address",
          "name": "proposer",
          "type": "address"
        }
      ],
      "name": "MutualCancelProposed",
      "type": "event"
    },
    {
      "anonymous": false,
      "inputs": [
        {
          "indexed": false,
          "internalType": "address",
          "name": "account",
          "type": "address"
        }
      ],
      "name": "Paused",
      "type": "event"
    },
    {
      "anonymous": false,
      "inputs": [
        {
          "indexed": true,
          "internalType": "uint256",
          "name": "dealId",
          "type": "uint256"
        },
        {
          "indexed": true,
          "internalType": "uint256",
          "name": "playerId",
          "type": "uint256"
        },
        {
          "indexed": false,
          "internalType": "address",
          "name": "buyingClub",
          "type": "address"
        }
      ],
      "name": "PlayerConsentRequested",
      "type": "event"
    },
    {
      "anonymous": false,
      "inputs": [
        {
          "indexed": true,
          "internalType": "uint256",
          "name": "dealId",
          "type": "uint256"
        },
        {
          "indexed": true,
          "internalType": "uint256",
          "name": "playerId",
          "type": "uint256"
        }
      ],
      "name": "PlayerConsented",
      "type": "event"
    },
    {
      "anonymous": false,
      "inputs": [
        {
          "indexed": true,
          "internalType": "uint256",
          "name": "dealId",
          "type": "uint256"
        },
        {
          "indexed": true,
          "internalType": "uint256",
          "name": "playerId",
          "type": "uint256"
        }
      ],
      "name": "PlayerDeclined",
      "type": "event"
    },
    {
      "anonymous": false,
      "inputs": [
        {
          "indexed": false,
          "internalType": "uint256",
          "name": "newBps",
          "type": "uint256"
        }
      ],
      "name": "ProtocolFeeUpdated",
      "type": "event"
    },
    {
      "anonymous": false,
      "inputs": [
        {
          "indexed": true,
          "internalType": "bytes32",
          "name": "role",
          "type": "bytes32"
        },
        {
          "indexed": true,
          "internalType": "bytes32",
          "name": "previousAdminRole",
          "type": "bytes32"
        },
        {
          "indexed": true,
          "internalType": "bytes32",
          "name": "newAdminRole",
          "type": "bytes32"
        }
      ],
      "name": "RoleAdminChanged",
      "type": "event"
    },
    {
      "anonymous": false,
      "inputs": [
        {
          "indexed": true,
          "internalType": "bytes32",
          "name": "role",
          "type": "bytes32"
        },
        {
          "indexed": true,
          "internalType": "address",
          "name": "account",
          "type": "address"
        },
        {
          "indexed": true,
          "internalType": "address",
          "name": "sender",
          "type": "address"
        }
      ],
      "name": "RoleGranted",
      "type": "event"
    },
    {
      "anonymous": false,
      "inputs": [
        {
          "indexed": true,
          "internalType": "bytes32",
          "name": "role",
          "type": "bytes32"
        },
        {
          "indexed": true,
          "internalType": "address",
          "name": "account",
          "type": "address"
        },
        {
          "indexed": true,
          "internalType": "address",
          "name": "sender",
          "type": "address"
        }
      ],
      "name": "RoleRevoked",
      "type": "event"
    },
    {
      "anonymous": false,
      "inputs": [
        {
          "indexed": true,
          "internalType": "uint256",
          "name": "dealId",
          "type": "uint256"
        },
        {
          "indexed": true,
          "internalType": "address",
          "name": "wallet",
          "type": "address"
        },
        {
          "indexed": false,
          "internalType": "uint256",
          "name": "amount",
          "type": "uint256"
        }
      ],
      "name": "SigningBonusClaimed",
      "type": "event"
    },
    {
      "anonymous": false,
      "inputs": [
        {
          "indexed": true,
          "internalType": "uint256",
          "name": "dealId",
          "type": "uint256"
        },
        {
          "indexed": true,
          "internalType": "address",
          "name": "recipient",
          "type": "address"
        },
        {
          "indexed": false,
          "internalType": "uint256",
          "name": "amount",
          "type": "uint256"
        }
      ],
      "name": "SigningBonusRescued",
      "type": "event"
    },
    {
      "anonymous": false,
      "inputs": [
        {
          "indexed": true,
          "internalType": "address",
          "name": "newTreasury",
          "type": "address"
        }
      ],
      "name": "TreasuryUpdated",
      "type": "event"
    },
    {
      "anonymous": false,
      "inputs": [
        {
          "indexed": false,
          "internalType": "address",
          "name": "account",
          "type": "address"
        }
      ],
      "name": "Unpaused",
      "type": "event"
    },
    {
      "anonymous": false,
      "inputs": [
        {
          "indexed": true,
          "internalType": "address",
          "name": "implementation",
          "type": "address"
        }
      ],
      "name": "Upgraded",
      "type": "event"
    },
    {
      "inputs": [],
      "name": "ADMIN_ROLE",
      "outputs": [
        {
          "internalType": "bytes32",
          "name": "",
          "type": "bytes32"
        }
      ],
      "stateMutability": "view",
      "type": "function"
    },
    {
      "inputs": [],
      "name": "BPS_DENOMINATOR",
      "outputs": [
        {
          "internalType": "uint256",
          "name": "",
          "type": "uint256"
        }
      ],
      "stateMutability": "view",
      "type": "function"
    },
    {
      "inputs": [],
      "name": "DEFAULT_ADMIN_ROLE",
      "outputs": [
        {
          "internalType": "bytes32",
          "name": "",
          "type": "bytes32"
        }
      ],
      "stateMutability": "view",
      "type": "function"
    },
    {
      "inputs": [],
      "name": "HIJACK_FAIL_PENALTY_BPS",
      "outputs": [
        {
          "internalType": "uint256",
          "name": "",
          "type": "uint256"
        }
      ],
      "stateMutability": "view",
      "type": "function"
    },
    {
      "inputs": [],
      "name": "HIJACK_STALL_PENALTY_BPS",
      "outputs": [
        {
          "internalType": "uint256",
          "name": "",
          "type": "uint256"
        }
      ],
      "stateMutability": "view",
      "type": "function"
    },
    {
      "inputs": [],
      "name": "LEAGUE_DISPUTE_DEADLINE",
      "outputs": [
        {
          "internalType": "uint256",
          "name": "",
          "type": "uint256"
        }
      ],
      "stateMutability": "view",
      "type": "function"
    },
    {
      "inputs": [],
      "name": "LEAGUE_ROLE",
      "outputs": [
        {
          "internalType": "bytes32",
          "name": "",
          "type": "bytes32"
        }
      ],
      "stateMutability": "view",
      "type": "function"
    },
    {
      "inputs": [],
      "name": "MAX_PRICE",
      "outputs": [
        {
          "internalType": "uint256",
          "name": "",
          "type": "uint256"
        }
      ],
      "stateMutability": "view",
      "type": "function"
    },
    {
      "inputs": [],
      "name": "MAX_PROTOCOL_FEE_BPS",
      "outputs": [
        {
          "internalType": "uint256",
          "name": "",
          "type": "uint256"
        }
      ],
      "stateMutability": "view",
      "type": "function"
    },
    {
      "inputs": [],
      "name": "MIN_TIMER",
      "outputs": [
        {
          "internalType": "uint256",
          "name": "",
          "type": "uint256"
        }
      ],
      "stateMutability": "view",
      "type": "function"
    },
    {
      "inputs": [],
      "name": "TRANSFER_ESCROW_ROLE",
      "outputs": [
        {
          "internalType": "bytes32",
          "name": "",
          "type": "bytes32"
        }
      ],
      "stateMutability": "view",
      "type": "function"
    },
    {
      "inputs": [],
      "name": "UPGRADE_INTERFACE_VERSION",
      "outputs": [
        {
          "internalType": "string",
          "name": "",
          "type": "string"
        }
      ],
      "stateMutability": "view",
      "type": "function"
    },
    {
      "inputs": [
        {
          "internalType": "uint256",
          "name": "dealId",
          "type": "uint256"
        }
      ],
      "name": "acceptHijackBid",
      "outputs": [],
      "stateMutability": "nonpayable",
      "type": "function"
    },
    {
      "inputs": [
        {
          "internalType": "uint256",
          "name": "dealId",
          "type": "uint256"
        },
        {
          "internalType": "uint256",
          "name": "newFee",
          "type": "uint256"
        }
      ],
      "name": "acceptMedicalRenegotiation",
      "outputs": [],
      "stateMutability": "nonpayable",
      "type": "function"
    },
    {
      "inputs": [],
      "name": "addressRegistry",
      "outputs": [
        {
          "internalType": "contract IAddressRegistry",
          "name": "",
          "type": "address"
        }
      ],
      "stateMutability": "view",
      "type": "function"
    },
    {
      "inputs": [
        {
          "internalType": "address",
          "name": "token",
          "type": "address"
        }
      ],
      "name": "approveToken",
      "outputs": [],
      "stateMutability": "nonpayable",
      "type": "function"
    },
    {
      "inputs": [
        {
          "internalType": "uint256",
          "name": "dealId",
          "type": "uint256"
        }
      ],
      "name": "claimSigningBonus",
      "outputs": [],
      "stateMutability": "nonpayable",
      "type": "function"
    },
    {
      "inputs": [
        {
          "internalType": "uint256",
          "name": "dealId",
          "type": "uint256"
        }
      ],
      "name": "confirmMutualCancel",
      "outputs": [],
      "stateMutability": "nonpayable",
      "type": "function"
    },
    {
      "inputs": [
        {
          "internalType": "uint256",
          "name": "dealId",
          "type": "uint256"
        }
      ],
      "name": "consentToTransfer",
      "outputs": [],
      "stateMutability": "nonpayable",
      "type": "function"
    },
    {
      "inputs": [],
      "name": "consentWindow",
      "outputs": [
        {
          "internalType": "uint256",
          "name": "",
          "type": "uint256"
        }
      ],
      "stateMutability": "view",
      "type": "function"
    },
    {
      "inputs": [
        {
          "internalType": "uint256",
          "name": "dealId",
          "type": "uint256"
        }
      ],
      "name": "declineTransfer",
      "outputs": [],
      "stateMutability": "nonpayable",
      "type": "function"
    },
    {
      "inputs": [
        {
          "internalType": "uint256",
          "name": "dealId",
          "type": "uint256"
        },
        {
          "internalType": "uint256",
          "name": "amount",
          "type": "uint256"
        }
      ],
      "name": "depositAddOnFunds",
      "outputs": [],
      "stateMutability": "nonpayable",
      "type": "function"
    },
    {
      "inputs": [],
      "name": "disputeWindow",
      "outputs": [
        {
          "internalType": "uint256",
          "name": "",
          "type": "uint256"
        }
      ],
      "stateMutability": "view",
      "type": "function"
    },
    {
      "inputs": [
        {
          "internalType": "uint256",
          "name": "dealId",
          "type": "uint256"
        }
      ],
      "name": "escalateToLeague",
      "outputs": [],
      "stateMutability": "nonpayable",
      "type": "function"
    },
    {
      "inputs": [
        {
          "internalType": "uint256",
          "name": "dealId",
          "type": "uint256"
        }
      ],
      "name": "extAdvanceToFunding",
      "outputs": [],
      "stateMutability": "nonpayable",
      "type": "function"
    },
    {
      "inputs": [
        {
          "internalType": "uint256",
          "name": "dealId",
          "type": "uint256"
        },
        {
          "internalType": "uint256",
          "name": "newFee",
          "type": "uint256"
        }
      ],
      "name": "extAdvanceToHijack",
      "outputs": [],
      "stateMutability": "nonpayable",
      "type": "function"
    },
    {
      "inputs": [
        {
          "internalType": "uint256",
          "name": "dealId",
          "type": "uint256"
        },
        {
          "internalType": "uint8",
          "name": "reason",
          "type": "uint8"
        }
      ],
      "name": "extCancel",
      "outputs": [],
      "stateMutability": "nonpayable",
      "type": "function"
    },
    {
      "inputs": [
        {
          "internalType": "uint256",
          "name": "dealId",
          "type": "uint256"
        }
      ],
      "name": "extClearMutualCancel",
      "outputs": [],
      "stateMutability": "nonpayable",
      "type": "function"
    },
    {
      "inputs": [
        {
          "internalType": "uint256",
          "name": "dealId",
          "type": "uint256"
        }
      ],
      "name": "extHijackStallAndCancel",
      "outputs": [],
      "stateMutability": "nonpayable",
      "type": "function"
    },
    {
      "inputs": [
        {
          "internalType": "uint256",
          "name": "dealId",
          "type": "uint256"
        }
      ],
      "name": "extSettle",
      "outputs": [],
      "stateMutability": "nonpayable",
      "type": "function"
    },
    {
      "inputs": [
        {
          "internalType": "uint256",
          "name": "dealId",
          "type": "uint256"
        }
      ],
      "name": "extWalkAwayPenalty",
      "outputs": [],
      "stateMutability": "nonpayable",
      "type": "function"
    },
    {
      "inputs": [
        {
          "internalType": "uint256",
          "name": "dealId",
          "type": "uint256"
        }
      ],
      "name": "forceCancelDeal",
      "outputs": [],
      "stateMutability": "nonpayable",
      "type": "function"
    },
    {
      "inputs": [
        {
          "internalType": "uint256",
          "name": "dealId",
          "type": "uint256"
        }
      ],
      "name": "forceComplete",
      "outputs": [],
      "stateMutability": "nonpayable",
      "type": "function"
    },
    {
      "inputs": [
        {
          "internalType": "uint256",
          "name": "dealId",
          "type": "uint256"
        }
      ],
      "name": "freezeDeal",
      "outputs": [],
      "stateMutability": "nonpayable",
      "type": "function"
    },
    {
      "inputs": [
        {
          "internalType": "uint256",
          "name": "dealId",
          "type": "uint256"
        }
      ],
      "name": "fundDeal",
      "outputs": [],
      "stateMutability": "nonpayable",
      "type": "function"
    },
    {
      "inputs": [],
      "name": "fundingWindow",
      "outputs": [
        {
          "internalType": "uint256",
          "name": "",
          "type": "uint256"
        }
      ],
      "stateMutability": "view",
      "type": "function"
    },
    {
      "inputs": [
        {
          "internalType": "uint256",
          "name": "dealId",
          "type": "uint256"
        },
        {
          "internalType": "address",
          "name": "token",
          "type": "address"
        }
      ],
      "name": "getAddOnDeposit",
      "outputs": [
        {
          "internalType": "uint256",
          "name": "",
          "type": "uint256"
        }
      ],
      "stateMutability": "view",
      "type": "function"
    },
    {
      "inputs": [
        {
          "internalType": "address",
          "name": "account",
          "type": "address"
        },
        {
          "internalType": "address",
          "name": "token",
          "type": "address"
        }
      ],
      "name": "getClaimable",
      "outputs": [
        {
          "internalType": "uint256",
          "name": "",
          "type": "uint256"
        }
      ],
      "stateMutability": "view",
      "type": "function"
    },
    {
      "inputs": [
        {
          "internalType": "uint256",
          "name": "dealId",
          "type": "uint256"
        }
      ],
      "name": "getDealView",
      "outputs": [
        {
          "components": [
            {
              "internalType": "bool",
              "name": "exists",
              "type": "bool"
            },
            {
              "internalType": "address",
              "name": "sellingClub",
              "type": "address"
            },
            {
              "internalType": "address",
              "name": "buyingClub",
              "type": "address"
            },
            {
              "internalType": "address",
              "name": "paymentToken",
              "type": "address"
            },
            {
              "internalType": "uint256",
              "name": "transferFee",
              "type": "uint256"
            },
            {
              "internalType": "uint256",
              "name": "minimumHijackIncrementBps",
              "type": "uint256"
            },
            {
              "internalType": "enum IDealEscrow.DealState",
              "name": "state",
              "type": "uint8"
            },
            {
              "internalType": "uint256",
              "name": "stateDeadline",
              "type": "uint256"
            }
          ],
          "internalType": "struct IDealEscrow.DealView",
          "name": "v",
          "type": "tuple"
        }
      ],
      "stateMutability": "view",
      "type": "function"
    },
    {
      "inputs": [
        {
          "internalType": "uint256",
          "name": "dealId",
          "type": "uint256"
        }
      ],
      "name": "getExpiryView",
      "outputs": [
        {
          "internalType": "bool",
          "name": "exists",
          "type": "bool"
        },
        {
          "internalType": "bool",
          "name": "frozen",
          "type": "bool"
        },
        {
          "internalType": "uint8",
          "name": "state",
          "type": "uint8"
        },
        {
          "internalType": "uint256",
          "name": "stateDeadline",
          "type": "uint256"
        },
        {
          "internalType": "uint256",
          "name": "mutualCancelDeadline",
          "type": "uint256"
        },
        {
          "internalType": "address",
          "name": "mutualCancelProposer",
          "type": "address"
        }
      ],
      "stateMutability": "view",
      "type": "function"
    },
    {
      "inputs": [
        {
          "internalType": "uint256",
          "name": "dealId",
          "type": "uint256"
        },
        {
          "internalType": "uint8",
          "name": "index",
          "type": "uint8"
        }
      ],
      "name": "getInstallment",
      "outputs": [
        {
          "components": [
            {
              "internalType": "uint256",
              "name": "amount",
              "type": "uint256"
            },
            {
              "internalType": "uint256",
              "name": "dueDate",
              "type": "uint256"
            },
            {
              "internalType": "bool",
              "name": "paid",
              "type": "bool"
            }
          ],
          "internalType": "struct TransferTypes.Installment",
          "name": "",
          "type": "tuple"
        }
      ],
      "stateMutability": "view",
      "type": "function"
    },
    {
      "inputs": [
        {
          "internalType": "uint256",
          "name": "dealId",
          "type": "uint256"
        }
      ],
      "name": "getInstallmentMeta",
      "outputs": [
        {
          "internalType": "address",
          "name": "buyingClub",
          "type": "address"
        },
        {
          "internalType": "address",
          "name": "sellingClub",
          "type": "address"
        },
        {
          "internalType": "address",
          "name": "paymentToken",
          "type": "address"
        },
        {
          "internalType": "uint8",
          "name": "installmentCount",
          "type": "uint8"
        },
        {
          "internalType": "uint8",
          "name": "installmentsPaid",
          "type": "uint8"
        },
        {
          "internalType": "uint8",
          "name": "state",
          "type": "uint8"
        }
      ],
      "stateMutability": "view",
      "type": "function"
    },
    {
      "inputs": [
        {
          "internalType": "uint256",
          "name": "playerId",
          "type": "uint256"
        }
      ],
      "name": "getPlayerDeal",
      "outputs": [
        {
          "internalType": "uint256",
          "name": "",
          "type": "uint256"
        }
      ],
      "stateMutability": "view",
      "type": "function"
    },
    {
      "inputs": [
        {
          "internalType": "bytes32",
          "name": "role",
          "type": "bytes32"
        }
      ],
      "name": "getRoleAdmin",
      "outputs": [
        {
          "internalType": "bytes32",
          "name": "",
          "type": "bytes32"
        }
      ],
      "stateMutability": "view",
      "type": "function"
    },
    {
      "inputs": [
        {
          "internalType": "bytes32",
          "name": "role",
          "type": "bytes32"
        },
        {
          "internalType": "address",
          "name": "account",
          "type": "address"
        }
      ],
      "name": "grantRole",
      "outputs": [],
      "stateMutability": "nonpayable",
      "type": "function"
    },
    {
      "inputs": [
        {
          "internalType": "bytes32",
          "name": "role",
          "type": "bytes32"
        },
        {
          "internalType": "address",
          "name": "account",
          "type": "address"
        }
      ],
      "name": "hasRole",
      "outputs": [
        {
          "internalType": "bool",
          "name": "",
          "type": "bool"
        }
      ],
      "stateMutability": "view",
      "type": "function"
    },
    {
      "inputs": [],
      "name": "hijackWindow",
      "outputs": [
        {
          "internalType": "uint256",
          "name": "",
          "type": "uint256"
        }
      ],
      "stateMutability": "view",
      "type": "function"
    },
    {
      "inputs": [
        {
          "internalType": "address",
          "name": "_playerRegistry",
          "type": "address"
        },
        {
          "internalType": "address",
          "name": "_addressRegistry",
          "type": "address"
        },
        {
          "internalType": "address",
          "name": "_treasury",
          "type": "address"
        },
        {
          "internalType": "address",
          "name": "_admin",
          "type": "address"
        }
      ],
      "name": "initialize",
      "outputs": [],
      "stateMutability": "nonpayable",
      "type": "function"
    },
    {
      "inputs": [
        {
          "components": [
            {
              "internalType": "uint256",
              "name": "offerId",
              "type": "uint256"
            },
            {
              "internalType": "uint256",
              "name": "playerId",
              "type": "uint256"
            },
            {
              "internalType": "address",
              "name": "sellingClub",
              "type": "address"
            },
            {
              "internalType": "address",
              "name": "buyingClub",
              "type": "address"
            },
            {
              "internalType": "address",
              "name": "paymentToken",
              "type": "address"
            },
            {
              "internalType": "uint256",
              "name": "transferFee",
              "type": "uint256"
            },
            {
              "internalType": "uint256",
              "name": "sellOnBps",
              "type": "uint256"
            },
            {
              "internalType": "address",
              "name": "sellOnRecipient",
              "type": "address"
            },
            {
              "internalType": "uint256",
              "name": "sellerAgentBps",
              "type": "uint256"
            },
            {
              "internalType": "address",
              "name": "sellerAgent",
              "type": "address"
            },
            {
              "internalType": "uint256",
              "name": "buyerAgentBps",
              "type": "uint256"
            },
            {
              "internalType": "address",
              "name": "buyerAgent",
              "type": "address"
            },
            {
              "internalType": "uint256",
              "name": "signingBonusMonths",
              "type": "uint256"
            },
            {
              "internalType": "uint256",
              "name": "signingBonusAmount",
              "type": "uint256"
            },
            {
              "internalType": "uint256",
              "name": "minimumHijackIncrementBps",
              "type": "uint256"
            },
            {
              "internalType": "uint256",
              "name": "consentWindowDuration",
              "type": "uint256"
            },
            {
              "internalType": "uint256[]",
              "name": "installmentAmounts",
              "type": "uint256[]"
            },
            {
              "internalType": "uint256[]",
              "name": "installmentDueDates",
              "type": "uint256[]"
            }
          ],
          "internalType": "struct TransferTypes.DealInitParams",
          "name": "p",
          "type": "tuple"
        },
        {
          "components": [
            {
              "internalType": "string",
              "name": "description",
              "type": "string"
            },
            {
              "internalType": "uint256",
              "name": "amount",
              "type": "uint256"
            },
            {
              "internalType": "bool",
              "name": "toPlayer",
              "type": "bool"
            },
            {
              "internalType": "bool",
              "name": "triggered",
              "type": "bool"
            }
          ],
          "internalType": "struct TransferTypes.AddOn[]",
          "name": "addOns",
          "type": "tuple[]"
        }
      ],
      "name": "initializeDeal",
      "outputs": [
        {
          "internalType": "uint256",
          "name": "dealId",
          "type": "uint256"
        }
      ],
      "stateMutability": "nonpayable",
      "type": "function"
    },
    {
      "inputs": [],
      "name": "medicalWindow",
      "outputs": [
        {
          "internalType": "uint256",
          "name": "",
          "type": "uint256"
        }
      ],
      "stateMutability": "view",
      "type": "function"
    },
    {
      "inputs": [],
      "name": "mutualCancelWindow",
      "outputs": [
        {
          "internalType": "uint256",
          "name": "",
          "type": "uint256"
        }
      ],
      "stateMutability": "view",
      "type": "function"
    },
    {
      "inputs": [],
      "name": "pause",
      "outputs": [],
      "stateMutability": "nonpayable",
      "type": "function"
    },
    {
      "inputs": [],
      "name": "paused",
      "outputs": [
        {
          "internalType": "bool",
          "name": "",
          "type": "bool"
        }
      ],
      "stateMutability": "view",
      "type": "function"
    },
    {
      "inputs": [],
      "name": "playerRegistry",
      "outputs": [
        {
          "internalType": "contract IPlayerRegistry",
          "name": "",
          "type": "address"
        }
      ],
      "stateMutability": "view",
      "type": "function"
    },
    {
      "inputs": [
        {
          "internalType": "uint256",
          "name": "dealId",
          "type": "uint256"
        }
      ],
      "name": "proposeMutualCancel",
      "outputs": [],
      "stateMutability": "nonpayable",
      "type": "function"
    },
    {
      "inputs": [],
      "name": "protocolFeeBps",
      "outputs": [
        {
          "internalType": "uint256",
          "name": "",
          "type": "uint256"
        }
      ],
      "stateMutability": "view",
      "type": "function"
    },
    {
      "inputs": [],
      "name": "proxiableUUID",
      "outputs": [
        {
          "internalType": "bytes32",
          "name": "",
          "type": "bytes32"
        }
      ],
      "stateMutability": "view",
      "type": "function"
    },
    {
      "inputs": [
        {
          "internalType": "uint256",
          "name": "dealId",
          "type": "uint256"
        }
      ],
      "name": "raiseDispute",
      "outputs": [],
      "stateMutability": "nonpayable",
      "type": "function"
    },
    {
      "inputs": [
        {
          "internalType": "uint256",
          "name": "dealId",
          "type": "uint256"
        },
        {
          "internalType": "address",
          "name": "buyingClub",
          "type": "address"
        },
        {
          "internalType": "uint256",
          "name": "transferFee",
          "type": "uint256"
        },
        {
          "internalType": "uint256",
          "name": "buyerAgentBps",
          "type": "uint256"
        },
        {
          "internalType": "address",
          "name": "buyerAgent",
          "type": "address"
        },
        {
          "internalType": "uint256",
          "name": "signingBonusMonths",
          "type": "uint256"
        }
      ],
      "name": "receiveHijackBid",
      "outputs": [],
      "stateMutability": "nonpayable",
      "type": "function"
    },
    {
      "inputs": [
        {
          "internalType": "uint256",
          "name": "dealId",
          "type": "uint256"
        }
      ],
      "name": "rejectHijackBid",
      "outputs": [],
      "stateMutability": "nonpayable",
      "type": "function"
    },
    {
      "inputs": [
        {
          "internalType": "uint256",
          "name": "dealId",
          "type": "uint256"
        }
      ],
      "name": "rejectMedicalRenegotiation",
      "outputs": [],
      "stateMutability": "nonpayable",
      "type": "function"
    },
    {
      "inputs": [],
      "name": "renegoWindow",
      "outputs": [
        {
          "internalType": "uint256",
          "name": "",
          "type": "uint256"
        }
      ],
      "stateMutability": "view",
      "type": "function"
    },
    {
      "inputs": [
        {
          "internalType": "bytes32",
          "name": "role",
          "type": "bytes32"
        },
        {
          "internalType": "address",
          "name": "callerConfirmation",
          "type": "address"
        }
      ],
      "name": "renounceRole",
      "outputs": [],
      "stateMutability": "nonpayable",
      "type": "function"
    },
    {
      "inputs": [
        {
          "internalType": "uint256",
          "name": "dealId",
          "type": "uint256"
        },
        {
          "internalType": "address",
          "name": "recipient",
          "type": "address"
        }
      ],
      "name": "rescueSigningBonus",
      "outputs": [],
      "stateMutability": "nonpayable",
      "type": "function"
    },
    {
      "inputs": [
        {
          "internalType": "uint256",
          "name": "dealId",
          "type": "uint256"
        }
      ],
      "name": "resolveDispute",
      "outputs": [],
      "stateMutability": "nonpayable",
      "type": "function"
    },
    {
      "inputs": [
        {
          "internalType": "bytes32",
          "name": "role",
          "type": "bytes32"
        },
        {
          "internalType": "address",
          "name": "account",
          "type": "address"
        }
      ],
      "name": "revokeRole",
      "outputs": [],
      "stateMutability": "nonpayable",
      "type": "function"
    },
    {
      "inputs": [
        {
          "internalType": "address",
          "name": "token",
          "type": "address"
        }
      ],
      "name": "revokeToken",
      "outputs": [],
      "stateMutability": "nonpayable",
      "type": "function"
    },
    {
      "inputs": [
        {
          "internalType": "uint256",
          "name": "bps",
          "type": "uint256"
        }
      ],
      "name": "setProtocolFee",
      "outputs": [],
      "stateMutability": "nonpayable",
      "type": "function"
    },
    {
      "inputs": [
        {
          "internalType": "uint8",
          "name": "which",
          "type": "uint8"
        },
        {
          "internalType": "uint256",
          "name": "d",
          "type": "uint256"
        }
      ],
      "name": "setTimer",
      "outputs": [],
      "stateMutability": "nonpayable",
      "type": "function"
    },
    {
      "inputs": [
        {
          "internalType": "address",
          "name": "_treasury",
          "type": "address"
        }
      ],
      "name": "setTreasury",
      "outputs": [],
      "stateMutability": "nonpayable",
      "type": "function"
    },
    {
      "inputs": [
        {
          "internalType": "uint256",
          "name": "dealId",
          "type": "uint256"
        },
        {
          "internalType": "enum TransferTypes.MedicalOutcome",
          "name": "outcome",
          "type": "uint8"
        },
        {
          "internalType": "bytes32",
          "name": "medicalHash",
          "type": "bytes32"
        }
      ],
      "name": "submitMedical",
      "outputs": [],
      "stateMutability": "nonpayable",
      "type": "function"
    },
    {
      "inputs": [
        {
          "internalType": "bytes4",
          "name": "interfaceId",
          "type": "bytes4"
        }
      ],
      "name": "supportsInterface",
      "outputs": [
        {
          "internalType": "bool",
          "name": "",
          "type": "bool"
        }
      ],
      "stateMutability": "view",
      "type": "function"
    },
    {
      "inputs": [],
      "name": "totalDeals",
      "outputs": [
        {
          "internalType": "uint256",
          "name": "",
          "type": "uint256"
        }
      ],
      "stateMutability": "view",
      "type": "function"
    },
    {
      "inputs": [],
      "name": "treasury",
      "outputs": [
        {
          "internalType": "address",
          "name": "",
          "type": "address"
        }
      ],
      "stateMutability": "view",
      "type": "function"
    },
    {
      "inputs": [
        {
          "internalType": "uint256",
          "name": "dealId",
          "type": "uint256"
        },
        {
          "internalType": "uint256",
          "name": "idx",
          "type": "uint256"
        }
      ],
      "name": "triggerAddOn",
      "outputs": [],
      "stateMutability": "nonpayable",
      "type": "function"
    },
    {
      "inputs": [
        {
          "internalType": "uint256",
          "name": "dealId",
          "type": "uint256"
        }
      ],
      "name": "unfreezeDeal",
      "outputs": [],
      "stateMutability": "nonpayable",
      "type": "function"
    },
    {
      "inputs": [],
      "name": "unpause",
      "outputs": [],
      "stateMutability": "nonpayable",
      "type": "function"
    },
    {
      "inputs": [
        {
          "internalType": "address",
          "name": "newImplementation",
          "type": "address"
        },
        {
          "internalType": "bytes",
          "name": "data",
          "type": "bytes"
        }
      ],
      "name": "upgradeToAndCall",
      "outputs": [],
      "stateMutability": "payable",
      "type": "function"
    },
    {
      "inputs": [
        {
          "internalType": "address",
          "name": "token",
          "type": "address"
        }
      ],
      "name": "withdrawClaimable",
      "outputs": [],
      "stateMutability": "nonpayable",
      "type": "function"
    }
  ],
  "bytecode": "0x60a080604052346100c257306080525f5160206160355f395f51905f525460ff8160401c166100b3576002600160401b03196001600160401b03821601610060575b604051615f6e90816100c7823960805181818161411e01526141e90152f35b6001600160401b0319166001600160401b039081175f5160206160355f395f51905f525581527fc7f505b2f371ae2175ee4913f4499e1f2633a7b5936321eed1cdaeb6115181d290602090a15f80610041565b63f92ee8a960e01b5f5260045ffd5b5f80fdfe60806040526004361015610011575f80fd5b5f3560e01c8062a464d114614ce657806301c11d9614614cc057806301d9fcc914614c3757806301ffc9a714614be1578063062100d514614bc457806308d186a014614ab75780630f8f795914614a63578063117f5f9214614a465780631510f85a1461492c578063248a9ca31461490657806329bc34f0146146b55780632f2ff15d1461468457806335659fb81461466757806336568abe146146235780633677277c14614606578063389a93f8146145675780633c6d448b1461454a5780633d7dc84a146144ec5780633f4ba83a1461446e5780633fb814281461441e5780634c74ef9c146143f65780634f0df865146143655780634f1ef2861461417257806352d1902d1461410c5780635a211c3214613fdf5780635c975abb14613fb15780635ea36b2d14613f6d57806360dded1114613bad57806360e49e4414613b8657806360fffce8146139ab57806361d027b31461398357806361f1d92e146138f9578063625fa9d9146138dd5780636b292e70146136555780636b421131146136385780636c275a0d146133a95780636ca44e821461338c5780636d947e4b1461288557806371c34a341461314557806375b238fc1461311e578063787dce3d146130ba57806378fc263e1461309d5780637f00cb3514612fd957806380b2edd814612f8f57806383be499a14612cf55780638456cb5914612c8457806385d60ec61461297457806389b225421461291e5780638abf7ff11461288a5780638d13c1b81461288557806391d1485414612830578063933f4eef146127ef578063966d1f1d146127d25780639a6c4c0c1461266e5780639bf437df146126275780639f9391d91461260a578063a217fddf146125f0578063a461dc6d14612157578063a4ba807114611fe9578063a5c1674e14611efd578063ad3cb1cc14611e9f578063bb73532e14611e84578063bbf0457a14611db5578063bfadc8f914611d8b578063c2b7b86814611cf6578063cfeffc7114611386578063d547741f1461134e578063e05e05e214611327578063e1a452181461130b578063ea78c0ff146111e1578063f0f4426014611179578063f3ad65f414611151578063f5a4c31914610e31578063f60d22ca14610cfb578063f6882f6314610b77578063f7e5e9cd146109c2578063f81eb2f714610699578063f8c8765e1461046a5763f951fbad1461037d575f80fd5b3461046657602036600319011261046657600435610399615423565b805f52600d602052600160405f2001541561045757805f52600d60205260405f2060168101805460ff8160081c166104485760ff6011840154166103dc81614f59565b60108114908115610434575b50610425576101009061ff0019161790556017429101557f2baeb19dd4781c77dafd82d1a22b7ac4f6ca38cfb10a1135ff41a3b4428a38ed5f80a2005b6372c24c3560e01b5f5260045ffd5b6011915061044181614f59565b145f6103e8565b63e231c28f60e01b5f5260045ffd5b63223da47360e21b5f5260045ffd5b5f80fd5b3461046657608036600319011261046657610483614f1d565b61048b614f33565b6044356001600160a01b0381169081900361046657606435906001600160a01b038216808303610466575f516020615f195f395f51905f5254604081901c60ff161595906001600160401b03811680159081610691575b6001149081610687575b15908161067e575b5061066f576001600160401b031981166001175f516020615f195f395f51905f525586610647575b506001600160a01b0316938415610638576001600160a01b03169081156106385782156106385715610638576105df93610554615cc1565b61055c615cc1565b60015f5560018060a01b0319600254161760025560018060a01b0319600354161760035560018060a01b031960045416176004556203f4806006556203f4806007556202a3006008556203f4806009556202a300600a556202a300600b556202a300600c5560326005556105cf81615965565b506105d9816159db565b50615a5b565b506105e657005b60ff60401b195f516020615f195f395f51905f5254165f516020615f195f395f51905f52557fc7f505b2f371ae2175ee4913f4499e1f2633a7b5936321eed1cdaeb6115181d2602060405160018152a1005b63e6c4247b60e01b5f5260045ffd5b6001600160481b0319166001600160401b01175f516020615f195f395f51905f52558661051c565b63f92ee8a960e01b5f5260045ffd5b905015886104f4565b303b1591506104ec565b8891506104e2565b34610466576020366003190112610466576004356106b5615c08565b60025f54146109b35760025f55805f52600d602052600160405f2001541561045757805f52600d60205260ff601660405f20015460081c16610448575f818152600d60205260409020601a8101546001600160a01b031680156109a457601b82015442116109955733146109865760038101546001600160a01b0316331415908161096e575b5061042557807f579e90f7cabad8d77316c92a503862cb4783a203648db82f5b2d35fd73389d955f80a2805f52600d60205260405f206011810190815491601160ff84169360ff191617905560018101545f5260106020525f60408120556107a282614f59565b600e8214918215928361095b575b6108f4575b835f52600f60205260405f20600681019060ff8254166108a6575b505060188201805480151580610890575b610805575b855f516020615e595f395f51905f52602060405160038152a260015f55005b6019945f9361081381614f59565b8161087b575b5061083a575b50550180546001600160a01b031916905581808080806107e6565b838501546001600160a01b0390811684526011602090815260408086206004880154909316865291905283208054909161087391615205565b90558561081f565b600f915061088881614f59565b141587610819565b5060198401546001600160a01b031615156107e1565b600181015490546001600160a01b039081165f9081526011602090815260408083206004890154909416835292905220805490916108e391615205565b9055805460ff1916905584806107d0565b835f52601460205260405f205f805260205261091960405f2054600d84015490615205565b60038301546001600160a01b039081165f90815260116020908152604080832060048801549094168352929052208054909161095491615205565b90556107b5565b5061096581614f59565b600f81146107b0565b600201546001600160a01b031633141590508261073b565b636081c93760e01b5f5260045ffd5b636124f5e360e11b5f5260045ffd5b63d87db87b60e01b5f5260045ffd5b6306fda65d60e31b5f5260045ffd5b34610466576020366003190112610466576004356109de615c08565b805f52600d602052600160405f2001541561045757805f52600d60205260ff601660405f20015460081c1661044857805f52600d60205260405f206011810160ff81541691610a2c83614f59565b610a3583614f59565b6005600a841493141580610b6f575b610425576012810180544211610b605760018060a01b03600254169360018301945f8654602460405180948193631cab5c9d60e31b835260048301525afa8015610b555760c0915f91610b33575b500180516001600160a01b031615610b2457516001600160a01b03163303610b1557601693610ac89115610b0d57600b90615212565b610ad460075442615205565b90555f60158201550160ff19815416905554907f173620804848de4def17bad4f232db2cda858a822ae975c722b97cf0fe2c1bfa5f80a3005b600690615212565b631d3c442d60e21b5f5260045ffd5b6382bcaa3b60e01b5f5260045ffd5b610b4f91503d805f833e610b478183614f7e565b810190615083565b88610a92565b6040513d5f823e3d90fd5b63839ec5c560e01b5f5260045ffd5b508215610a44565b3461046657610b8536614f07565b610b8d615c08565b815f52600d602052600160405f2001541561045757815f52600d60205260ff601660405f20015460081c16610448575f828152600d6020526040902060028101546001600160a01b03163303610cec576011810191600760ff845416610bf281614f59565b03610425576012820180544211610cdd5781158015610cc9575b610cba577f3ecbc4d085035a7e1b9eb639b1b2e563cb0b7754fe8fe1e12afd903edb3bc40993828460056020960190815483818110610c6c575b50505055600960ff19825416179055610c6160085442615205565b9055604051908152a2005b610c75916151f8565b60038201546001600160a01b039081165f90815260118a526040808220600490950154909216815292895290912080549091610cb091615205565b9055888083610c46565b63162908e360e11b5f5260045ffd5b50676765c793fa10079d601a1b8211610c0c565b63c052877160e01b5f5260045ffd5b6303e2f0f360e51b5f5260045ffd5b3461046657602036600319011261046657600435610d17615c08565b60025f54146109b35760025f55805f52600d602052600160405f2001541561045757805f52600d60205260ff601660405f20015460081c1661044857805f52600d60205260405f2060118101805491600760ff8416610d7581614f59565b036104255760028101546001600160a01b031633141580610e1a575b6104255760120191825480421115610dfe575b5060089060ff191617905562093a80420190814211610dea575533907ffc2989e9448442378c968e63f5573979bc5ed860dc5c48e906404733bd05d62a5f80a360015f55005b634e487b7160e01b5f52601160045260245ffd5b610e0e90600a5460011c906151f8565b42106104255784610da4565b5060038101546001600160a01b0316331415610d91565b3461046657602036600319011261046657600435610e4d61546c565b60025f54146109b35760025f55805f52600d602052600160405f2001541561045757805f52600d60205260405f20601881018054908115918215611099575b50505050805f52600d60205260405f206011810190815491601160ff84169360ff191617905560018101545f5260106020525f6040812055610ecd82614f59565b600e82149182159283611086575b61101f575b835f52600f60205260405f20600681019060ff825416610fd1575b505060188201805480151580610fbb575b610f30575b855f516020615e595f395f51905f526020604051600a8152a260015f55005b6019945f93610f3e81614f59565b81610fa6575b50610f65575b50550180546001600160a01b03191690558180808080610f11565b838501546001600160a01b03908116845260116020908152604080862060048801549093168652919052832080549091610f9e91615205565b905585610f4a565b600f9150610fb381614f59565b141587610f44565b5060198401546001600160a01b03161515610f0c565b600181015490546001600160a01b039081165f90815260116020908152604080832060048901549094168352929052208054909161100e91615205565b9055805460ff191690558480610efb565b835f52601460205260405f205f805260205261104460405f2054600d84015490615205565b60038301546001600160a01b039081165f90815260116020908152604080832060048801549094168352929052208054909161107f91615205565b9055610ee0565b5061109081614f59565b600f8114610edb565b6101f48102928184046101f4141715610dea576110bc6127105f940480926151f8565b6019850180546001600160a01b03908116865260116020908152604080882060048a01805490941689529091528620805492979193919290916110fe91615205565b9055600201546001600160a01b039081168552601160209081526040808720935490921686529190915283208054909161113791615205565b90555580546001600160a01b031916905581808080610e8c565b34610466575f366003190112610466576003546040516001600160a01b039091168152602090f35b3461046657602036600319011261046657611192614f1d565b61119a615511565b6001600160a01b0316801561063857600480546001600160a01b031916821790557f7dae230f18360d76a040c81f050aa14eb9d6dc7901b20fc5d855e2a20fe814d15f80a2005b34610466576040366003190112610466576004356111fd614f33565b90611206615423565b60025f54146109b35760025f55805f52600d602052600160405f2001541561045757805f52600d60205260405f2091600d83019081549182156112fc57600e85019283549260ff84166112ed57600f87015442106112de576001600160a01b03169586156106385760ff199093166001179093555f8581526011602090815260408083206004909501546001600160a01b0316835293815292902080547fc5b97e8782f0398548aef2871b18abaa21039a2820a3460d4b5c06a2bbe769ed946112ce91615205565b905554604051908152a360015f55005b63d50a31bb60e01b5f5260045ffd5b631f815d9160e11b5f5260045ffd5b633867fe1160e01b5f5260045ffd5b34610466575f3660031901126104665760206040516127108152f35b34610466575f3660031901126104665760206040515f516020615ed95f395f51905f528152f35b346104665760403660031901126104665761138460043561136d614f33565b9061137f61137a82615292565b61554d565b615b6c565b005b34610466576040366003190112610466576001600160401b03600435116104665761024060043536036003190112610466576024356001600160401b0381116104665736602382011215610466576001600160401b0360048201351161046657366024826004013560051b830101116104665761140161546c565b6001545f198114610dea5760018101600155611428610204600435016004356004016153bd565b809150158015611cec575b611c36578061144d610224600435016004356004016153bd565b905003611c36575f5f5b828110611c45575060a4600435013503611c3657611479604460043501615402565b611487606460043501615402565b611495608460043501615402565b6114a360e460043501615402565b6114b261012460043501615402565b906114c261016460043501615402565b926114d46101e4600435013542615205565b604051969095906001600160401b036103e0890190811190891117611ad5576103e0880160405260043560040135885260246004350135602089015260018060a01b0316604088015260018060a01b0316606087015260018060a01b0316608086015260a4600435013560a086015260c4600435013560c086015260018060a01b031660e0850152610104600435013561010085015260018060a01b0316610120840152610144600435013561014084015260018060a01b031661016083015261018460043501356101808301526101a460043501356101a08301525f6101c08301525f6101e08301526101c460043501356102008301526005610220830152610240820152426102608201525f6102808201525f6102a08201525f6102c08201525f6102e08201525f6103008201525f6103208201525f6103408201525f6103608201525f61038082015260ff82166103a08201525f6103c0820152600183015f52600d60205260405f20815181556020820151600182015560018060a01b03604083015116600282019060018060a01b031660018060a01b031982541617905560018060a01b03606083015116600382019060018060a01b031660018060a01b031982541617905560018060a01b03608083015116600482019060018060a01b031660018060a01b031982541617905560a0820151600582015560c0820151600682015560018060a01b0360e083015116600782019060018060a01b031660018060a01b0319825416179055610100820151600882015560018060a01b0361012083015116600982019060018060a01b031660018060a01b0319825416179055610140820151600a82015560018060a01b0361016083015116600b82019060018060a01b031660018060a01b0319825416179055610180820151600c8201556101a0820151600d8201556117946101c08301511515600e8301615394565b6101e0820151600f82015561020082015160108201556117c56102208301516117bc81614f59565b60118301615212565b6102408201516012820155610260820151601382015561028082015160148201556102a082015160158201556102c0820151906004821015611c2257611810601c92601683016153a5565b6118246102e0840151151560168301615004565b610300830151601782015561032083015160188201556103408301516019820180546001600160a01b039283166001600160a01b031991821617909155610360850151601a84018054919093169116179055610380830151601b8201556103a0830151910180546103c09093015161ff0060089190911b1660ff90921661ffff19909316929092171790555f5b818110611b8c5750503682900360a219015f5b8360040135811015611ae957600183015f52600e60205260405f2060248260051b8601013583811215610466578501908054600160401b811015611ad55761191191600182018155614fd7565b611ac257602482013560421936849003018112156104665782016024018035906001600160401b038211610466578136036020820113610466578254600181811c91168015611ab8575b6020821014611aa457601f8111611a5f575b505f90601f83116001146119e85760026119d4948460019897956119ce956084955f926119da575b50505f19600383901b1c191690891b1781555b60448501358882015501926119c86119c260648301615416565b85615394565b01615416565b90615004565b016118c4565b602092500101358d80611995565b601f19831691845f5260205f20925f5b818110611a455750946001856119ce95608495600295849c9b996119d49b10611a29575b505050811b0181556119a8565b01602001355f19600384901b60f8161c191690558d8080611a1c565b9193602060018192828888010135815501950192016119f8565b835f5260205f20601f840160051c81019160208510611a9a575b601f0160051c01905b818110611a8f575061196d565b5f8155600101611a82565b9091508190611a79565b634e487b7160e01b5f52602260045260245ffd5b90607f169061195b565b634e487b7160e01b5f525f60045260245ffd5b634e487b7160e01b5f52604160045260245ffd5b602083602460043501355f52601082526001810160405f205560018060a01b03611b17606460043501615402565b166040519060246004350135600184017f5ba2d3aaa8e1e5bbbd9f867713ff8003713fc0f7e68663f60f68f2e151f4c7e75f80a46001600160a01b03611b61600435606401615402565b16815260246004350135905f516020615e395f395f51905f52846001850192a3600160405191018152f35b80611c1c611bb1600193611bab610204600435016004356004016153bd565b906153f2565b356002611bcd84611bab610224600435016004356004016153bd565b3560405192611bdb84614f63565b83526020830190815260408301905f82528689015f52601460205260405f2060ff808816165f5260205260405f209351845551868401555115159101615394565b016118b1565b634e487b7160e01b5f52602160045260245ffd5b630c0477e760e21b5f5260045ffd5b90611c5f82611bab610204600435016004356004016153bd565b3515611c365781151580611c9f575b611c3657611c98600191611c9184611bab610204600435016004356004016153bd565b3590615205565b9101611457565b50611cb982611bab610224600435016004356004016153bd565b35611ccf610224600435016004356004016153bd565b5f19850190858211610dea57611ce4926153f2565b351015611c6e565b5060088111611433565b3461046657602036600319011261046657600435611d12615423565b60025f54146109b35760025f55805f52600d602052600160405f2001541561045757805f52600d602052600f60ff601160405f20015416611d5281614f59565b036104255780611d85917f57cce005d496355471bb5269f1dea3d6c81b6ac14c1d74ba28aefb022357013b5f80a2615593565b60015f55005b34610466576020366003190112610466576004355f526010602052602060405f2054604051908152f35b3461046657611dc336614f07565b9060025f54146109b35760025f55805f52600d602052600160405f2001541561045757805f52600d60205260405f20601060ff601183015416611e0581614f59565b036104255760038101546001600160a01b03163303611e75578215610cba5760040190611e3f8360018060a01b0384541630903390615c2f565b5f90815260126020908152604080832093546001600160a01b031683529290522080549091611e6d91615205565b905560015f55005b631f3cbf7b60e31b5f5260045ffd5b34610466575f366003190112610466576020604051600a8152f35b34610466575f366003190112610466576040805190611ebe8183614f7e565b600582526020820191640352e302e360dc1b83528151928391602083525180918160208501528484015e5f828201840152601f01601f19168101030190f35b3461046657602036600319011261046657600435805f52600d602052600160405f2001541561045757805f52600d60205260ff601660405f20015460081c1661044857805f52600d60205260405f206011810190815490600e60ff8316611f6381614f59565b03610425576012810154421015611fda5760038101546001600160a01b03163314159081611fc2575b506104255760ff1916600f17905533907f84a477df8a28a4276ca6dee4458a06c3015f30c477d9c949ede4e13ff8a552b45f80a3005b600201546001600160a01b0316331415905084611f8c565b63234c0ffd60e21b5f5260045ffd5b346104665760203660031901126104665760043560025f54146109b35760025f55805f52600d602052600160405f2001541561045757805f52600d60205260405f20601060ff60118301541661203e81614f59565b0361042557600d810190815490811561214857600e8101805460ff81166112ed5760018060a01b03600254165f6001850154602460405180948193631cab5c9d60e31b835260048301525afa8015610b555760c0915f9161212e575b500180516001600160a01b031615610b2457516001600160a01b03163303610b155760ff19166001179055335f9081526011602090815260408083206004909401546001600160a01b0316835292905220805490916120f891615205565b905554906040519182527f68afe7ecfeac2108bf74c8d4bb1d8c04f3799bd71673fa3e10e274e1cbf28a7960203393a360015f55005b61214291503d805f833e610b478183614f7e565b8861209a565b635af3421960e01b5f5260045ffd5b346104665760603660031901126104665760043560243560048110156104665760443591612183615c08565b805f52600d602052600160405f2001541561045757805f52600d60205260ff601660405f20015460081c1661044857805f52600d60205260405f2090601182019260ff845416926121d384614f59565b6121dc84614f59565b6006600b8514941415806125e8575b610425576003810180549092906001600160a01b03163303611e7557601282019687544211610cdd576015830180546125d9578115610638578215610cba575561223881601684016153a5565b837f8c0f79cb43223fbd00b73d4bbc8a0f62f1f2d6ddb3a6b650d90d0ee3557f683a6020604051848152a2600181036122a757505050505f1461229057600d60ff1982541617905561228c600b5442615205565b9055005b600960ff1982541617905561228c60085442615205565b9295919490939260020361259557505080612588575b6124cd575b5050805f52600d60205260405f206011810190815491601160ff84169360ff191617905560018101545f5260106020525f604081205561230182614f59565b600e821491821592836124ba575b612453575b835f52600f60205260405f20600681019060ff825416612405575b5050601882018054801515806123ef575b612364575b50505050505f516020615e595f395f51905f52602060405160058152a2005b6019945f9361237281614f59565b816123da575b50612399575b50550180546001600160a01b03191690558180808080612345565b838501546001600160a01b039081168452601160209081526040808620600488015490931686529190528320805490916123d291615205565b90558561237e565b600f91506123e781614f59565b141587612378565b5060198401546001600160a01b03161515612340565b600181015490546001600160a01b039081165f90815260116020908152604080832060048901549094168352929052208054909161244291615205565b9055805460ff19169055848061232f565b835f52601460205260405f205f805260205261247860405f2054600d84015490615205565b60038301546001600160a01b039081165f9081526011602090815260408083206004880154909416835292905220805490916124b391615205565b9055612314565b506124c481614f59565b600f811461230f565b6018810180549060c882029180830460c81481151715610dea576019946124fa6127105f950480936151f8565b90546001600160a01b039081168552601160209081526040808720600489018054909416885290915285208054919290916125359190615205565b905560028501546001600160a01b039081168552601160209081526040808720935490921686529190915283208054909161256f91615205565b9055550180546001600160a01b031916905581806122c2565b50601881015415156122bd565b9250925050600760ff198254161790556125b1600a5442615205565b90557fb4a770b2db334eaf0ab77f3470dc51ac5bcd10a3033f309fd67a6385bd761e0b5f80a2005b63c0f9cf3b60e01b5f5260045ffd5b5083156121eb565b34610466575f3660031901126104665760206040515f8152f35b34610466575f366003190112610466576020600854604051908152f35b346104665760203660031901126104665760043561264361546c565b60025f54146109b35760025f55805f52600d602052600160405f2001541561045757611d8590615593565b346104665760203660031901126104665760043561268a615c08565b805f52600d602052600160405f2001541561045757805f52600d60205260ff601660405f20015460081c1661044857805f52600d60205260405f2060ff6011820154166126d681614f59565b601081149081156127bd575b81156127a8575b8115612794575b506104255760038101546001600160a01b03163314158061277d575b61042557601a810180546001600160a01b031661276e5780546001600160a01b03191633179055600c54601b906127439042615205565b91015533907f7457f5ceee8e52b1ef56c933d90340dfbda61ea10b7e9be55550e9435d91bc775f80a3005b63ed8dd1bd60e01b5f5260045ffd5b5060028101546001600160a01b031633141561270c565b600f91506127a181614f59565b14836126f0565b90506127b381614f59565b600e8114906126e9565b90506127c881614f59565b60118114906126e2565b34610466575f366003190112610466576020600154604051908152f35b3461046657602036600319011261046657612808614f1d565b6128106154c8565b6001600160a01b03165f908152601360205260409020805460ff19169055005b3461046657604036600319011261046657612849614f33565b6004355f525f516020615e795f395f51905f5260205260405f209060018060a01b03165f52602052602060ff60405f2054166040519015158152f35b614fbc565b34610466576040366003190112610466576128a3614f49565b5f604080516128b181614f63565b82815282602082015201526004355f52601460205260ff60405f2091165f52602052606060405f206040516128e581614f63565b815491828252604060ff600260018401549360208601948552015416920191151582526040519283525160208301525115156040820152f35b346104665760203660031901126104665760043561293a61546c565b805f52600d602052600160405f20015415610457575f908152600d60205260408120601a810180546001600160a01b0319169055601b0155005b3461046657602036600319011261046657600435612990615c08565b60025f54146109b35760025f55805f52600d602052600160405f2001541561045757805f52600d60205260ff601660405f20015460081c1661044857805f52600d60205260405f20906011820191600d60ff8454166129ee81614f59565b036104255760038101546001600160a01b03163303611e7557601281019081544211612c755760035460405163023aa9ab60e61b81527fd8e6c8b39dbc70333b42d059fa436cf2679722325c0f6ed7e701df0b05a637c8600482015290602090829060249082906001600160a01b03165afa908115610b55575f91612c36575b50604051636896470560e11b815290602090829060049082906001600160a01b03165afa908115610b55575f91612bfc575b5015612bed57825f52601460205260405f205f805260205260405f205493612acc600d83015486615205565b945f90601984013360018060a01b038254161480612be0575b612b95575b5050808611612b6a575b50835f52601460205260405f205f8052602052600260405f2001600160ff19825416179055600e60ff19825416179055601442910155612b3660095442615205565b90556040519182527fc8fceb94d8cfaf3010a32f39dbdb0c0b361b10cdd6c7299d60376c85ff61283760203393a360015f55005b612b8f90612b8560018060a01b0360048601541691886151f8565b9030903390615c2f565b85612af4565b6018850180549350909180841115612bd657612bb3905b80946151f8565b80915515612bc2575b80612aea565b80546001600160a01b031916905586612bbc565b50612bb383612bac565b5060188501541515612ae5565b6304d54fbf60e41b5f5260045ffd5b90506020813d602011612c2e575b81612c1760209383614f7e565b8101031261046657612c2890615076565b85612aa0565b3d9150612c0a565b90506020813d602011612c6d575b81612c5160209383614f7e565b81010312610466576020612c66600492615062565b9150612a6e565b3d9150612c44565b633833dfbb60e01b5f5260045ffd5b34610466575f36600319011261046657612c9c6154c8565b612ca4615c08565b600160ff195f516020615eb95f395f51905f525416175f516020615eb95f395f51905f52557f62e78cea01bee320cd4e420270b5ea74000d11b0c9f74754ebdbfc544b05a2586020604051338152a1005b3461046657602036600319011261046657600435612d11615c08565b60025f54146109b35760025f55805f52600d602052600160405f2001541561045757805f52600d60205260ff601660405f20015460081c16610448575f818152600d6020526040902060028101546001600160a01b03163303610cec5760ff6011600792015416612d8181614f59565b0361042557805f52600d60205260405f206011810190815491601160ff84169360ff191617905560018101545f5260106020525f6040812055612dc382614f59565b600e82149182159283612f7c575b612f15575b835f52600f60205260405f20600681019060ff825416612ec7575b505060188201805480151580612eb1575b612e26575b855f516020615e595f395f51905f52602060405160028152a260015f55005b6019945f93612e3481614f59565b81612e9c575b50612e5b575b50550180546001600160a01b03191690558180808080612e07565b838501546001600160a01b03908116845260116020908152604080862060048801549093168652919052832080549091612e9491615205565b905585612e40565b600f9150612ea981614f59565b141587612e3a565b5060198401546001600160a01b03161515612e02565b600181015490546001600160a01b039081165f908152601160209081526040808320600489015490941683529290522080549091612f0491615205565b9055805460ff191690558480612df1565b835f52601460205260405f205f8052602052612f3a60405f2054600d84015490615205565b60038301546001600160a01b039081165f908152601160209081526040808320600488015490941683529290522080549091612f7591615205565b9055612dd6565b50612f8681614f59565b600f8114612dd1565b3461046657602036600319011261046657612fa8614f1d565b612fb06154c8565b6001600160a01b03168015610638575f908152601360205260409020805460ff19166001179055005b3461046657602036600319011261046657600435612ff5615423565b805f52600d602052600160405f2001541561045757805f52600d60205260405f20601681019081549160ff8360081c161561308e575f926017830192601261303e8554426151f8565b9101908154908161307b575b50505061ff0019169055557f9d9b6c6fd020eade06cab024fe4853c17d4ee689fa225e44b23c82908c1529205f80a2005b61308491615205565b905585808061304a565b634c22487160e01b5f5260045ffd5b34610466575f366003190112610466576020600654604051908152f35b34610466576020366003190112610466576004356130d6615511565b60c8811161310f576020817fd10d75876659a287a59a6ccfa2e3fff42f84d94b542837acd30bc184d562de4092600555604051908152a1005b63499fddb160e01b5f5260045ffd5b34610466575f3660031901126104665760206040515f516020615ef95f395f51905f528152f35b346104665760203660031901126104665760043561316161546c565b60025f54146109b35760025f55805f52600d602052600160405f2001541561045757805f52600d60205260405f206011810190815491601160ff84169360ff191617905560018101545f5260106020525f60408120556131c082614f59565b600e82149182159283613379575b613312575b835f52600f60205260405f20600681019060ff8254166132c4575b5050601882018054801515806132ae575b613223575b855f516020615e595f395f51905f52602060405160078152a260015f55005b6019945f9361323181614f59565b81613299575b50613258575b50550180546001600160a01b03191690558180808080613204565b838501546001600160a01b0390811684526011602090815260408086206004880154909316865291905283208054909161329191615205565b90558561323d565b600f91506132a681614f59565b141587613237565b5060198401546001600160a01b031615156131ff565b600181015490546001600160a01b039081165f90815260116020908152604080832060048901549094168352929052208054909161330191615205565b9055805460ff1916905584806131ee565b835f52601460205260405f205f805260205261333760405f2054600d84015490615205565b60038301546001600160a01b039081165f90815260116020908152604080832060048801549094168352929052208054909161337291615205565b90556131d3565b5061338381614f59565b600f81146131ce565b34610466575f366003190112610466576020600a54604051908152f35b34610466576020366003190112610466576004356133c5615c08565b60025f54146109b35760025f55805f52600d602052600160405f2001541561045757805f52600d60205260ff601660405f20015460081c16610448575f818152600d6020526040902060028101549091906001600160a01b03163303610cec5760118201600960ff82541661343981614f59565b0361042557815f52600f60205260405f20906006820160ff815416156104255760018060a01b03600254169460018101955f8754602460405180948193631cab5c9d60e31b835260048301525afa908115610b55575f9161361e575b505f93600486019182549081151580613611575b6135d5575b50508554600380850180546001600160a01b03199081166001600160a01b0394851617825560018a018054600589015560028b0154600a808a0191909155938b0154600b8901805490931695169490941790559354600c860155600d850196909655600e8401805460ff1990811690915582541690951790556006545f516020615e395f395f51905f52956020959294939260199261354d9042615205565b60128501555f6015850181905560168501805460ff199081169091559154601886015591549290930180546001600160a01b0319166001600160a01b03938416179055835490921690925591546040519116959091869086907f8097ce87ac98d8d86d9f179c158a93129d2a76c4eed66712296411d027f14b7e9080a354948152a360015f55005b60a09192959493965001518060021b9080820460041490151715610dea57818102918183041490151715610dea579391929091908560196134ae565b5060a081015115156134a9565b61363291503d805f833e610b478183614f7e565b87613495565b34610466575f366003190112610466576020600c54604051908152f35b3461046657602036600319011261046657600435613671615423565b60025f54146109b35760025f55805f52600d602052600160405f2001541561045757805f52600d60205260ff601160405f200154166136af81614f59565b601081149081156138c9575b5061042557805f52600d60205260405f206011810190815491601160ff84169360ff191617905560018101545f5260106020525f60408120556136fd82614f59565b600e821491821592836138b6575b61384f575b835f52600f60205260405f20600681019060ff825416613801575b5050601882018054801515806137eb575b613760575b855f516020615e595f395f51905f526020604051600e8152a260015f55005b6019945f9361376e81614f59565b816137d6575b50613795575b50550180546001600160a01b03191690558180808080613741565b838501546001600160a01b039081168452601160209081526040808620600488015490931686529190528320805490916137ce91615205565b90558561377a565b600f91506137e381614f59565b141587613774565b5060198401546001600160a01b0316151561373c565b600181015490546001600160a01b039081165f90815260116020908152604080832060048901549094168352929052208054909161383e91615205565b9055805460ff19169055848061372b565b835f52601460205260405f205f805260205261387460405f2054600d84015490615205565b60038301546001600160a01b039081165f9081526011602090815260408083206004880154909416835292905220805490916138af91615205565b9055613710565b506138c081614f59565b600f811461370b565b601191506138d681614f59565b14826136bb565b34610466575f3660031901126104665760206040516101f48152f35b34610466576020366003190112610466576004355f52600d60205260c060405f2060018060a01b036003820154169060ff60018060a01b036002830154169160018060a01b03600482015416826011601c840154930154169361395b85614f59565b60405195865260208601526040850152818116606085015260081c16608083015260a0820152f35b34610466575f366003190112610466576004546040516001600160a01b039091168152602090f35b346104665760c0366003190112610466576004356139c7614f33565b6084356001600160a01b038116929160443591849003610466576139e961546c565b825f52600d602052600160405f2001541561045757825f52600d60205260405f20600960ff601183015416613a1d81614f59565b03610425576012810154421161042557835f52600f60205260405f209060ff600683015416613b3d575b50506040519160e08301916001600160401b03831184841017611ad55760409283526001600160a01b03908116808552602080860184815260643587870190815260608801998a5260a435608089019081524260a08a01908152600160c08b018181525f8d8152600f88529a909a209a518b549089166001600160a01b0319918216178c559451908b0155915160028a01559951600389018054919096169216919091179093559651600486015590516005850155915191947f2ca8db4fa79ad716886fc0176a9991732efa793908dfe8a5389cdc28e09145df939092613b349190151590600601615394565b604051908152a3005b600182015491546001600160a01b039081165f908152601160209081526040808320600490950154909316825292909252902080549091613b7d91615205565b90558480613a47565b34610466575f3660031901126104665760206040515f516020615e195f395f51905f528152f35b3461046657602036600319011261046657600435613bc9615c08565b60025f54146109b35760025f55805f52600d602052600160405f2001541561045757805f52600d60205260ff601660405f20015460081c1661044857805f52600d60205260405f2060ff601182015416613c2281614f59565b6005600a821491613c3281614f59565b141580613f65575b610425576002546001830154604051631cab5c9d60e31b81526004810182905290915f90829060249082906001600160a01b03165afa8015610b555760c0915f91613f4b575b500180516001600160a01b031615610b2457516001600160a01b03163303610b1557837ffd2ee1303442fdcd75ef0f691a0821035ed5505126ccc8a813b39ca0cebe5c2f5f80a380613f3e575b613edc575b50805f52600d60205260405f206011810190815491601160ff84169360ff191617905560018101545f5260106020525f6040812055613d1082614f59565b600e82149182159283613ec9575b613e62575b835f52600f60205260405f20600681019060ff825416613e14575b505060188201805480151580613dfe575b613d73575b855f516020615e595f395f51905f52602060405160048152a260015f55005b6019945f93613d8181614f59565b81613de9575b50613da8575b50550180546001600160a01b03191690558180808080613d54565b838501546001600160a01b03908116845260116020908152604080862060048801549093168652919052832080549091613de191615205565b905585613d8d565b600f9150613df681614f59565b141587613d87565b5060198401546001600160a01b03161515613d4f565b600181015490546001600160a01b039081165f908152601160209081526040808320600489015490941683529290522080549091613e5191615205565b9055805460ff191690558480613d3e565b835f52601460205260405f205f8052602052613e8760405f2054600d84015490615205565b60038301546001600160a01b039081165f908152601160209081526040808320600488015490941683529290522080549091613ec291615205565b9055613d23565b50613ed381614f59565b600f8114613d1e565b5f601882018054601984019360018060a01b03855416845260116020526040842090600460018060a01b039101541660018060a01b03168452602052613f2760408420918254615205565b90555580546001600160a01b031916905581613cd2565b5060188101541515613ccd565b613f5f91503d805f833e610b478183614f7e565b86613c80565b508015613c3a565b3461046657604036600319011261046657613f86614f33565b6004355f52601260205260405f209060018060a01b03165f52602052602060405f2054604051908152f35b34610466575f36600319011261046657602060ff5f516020615eb95f395f51905f5254166040519015158152f35b3461046657602036600319011261046657600435613ffb615c08565b60025f54146109b35760025f55805f52600d602052600160405f2001541561045757805f52600d60205260ff601660405f20015460081c16610448575f818152600d6020526040902060028101546001600160a01b03163303610cec57600960ff60118301541661406b81614f59565b0361042557815f52600f60205260405f2090600682019060ff8254161561042557600183015483546001600160a01b039081165f908152601160209081526040808320600490960154909316825293909352909120805490916140cd91615205565b9055805460ff19169055546001600160a01b0316907f9598c2bbda2be06d3d153b44d4049da36b22f2dc3d46142eb6255f6613a65b965f80a360015f55005b34610466575f366003190112610466577f00000000000000000000000000000000000000000000000000000000000000006001600160a01b031630036141635760206040515f516020615df95f395f51905f528152f35b63703e46dd60e11b5f5260045ffd5b604036600319011261046657614186614f1d565b602435906001600160401b03821161046657366023830112156104665781600401356141b181614fa1565b926141bf6040519485614f7e565b818452366024838301011161046657815f9260246020930183870137840101526001600160a01b037f000000000000000000000000000000000000000000000000000000000000000016308114908115614343575b5061416357614221615511565b6040516352d1902d60e01b81526001600160a01b0382169290602081600481875afa5f918161430f575b506142635783634c9c8ce360e01b5f5260045260245ffd5b805f516020615df95f395f51905f528592036142fd5750823b156142eb575f516020615df95f395f51905f5280546001600160a01b031916821790557fbc7cd75a20ee27fd9adebab32041f755214dbc6bffa90cc0225b39da2e5c2d3b5f80a28051156142d35761138491615cec565b5050346142dc57005b63b398979f60e01b5f5260045ffd5b634c9c8ce360e01b5f5260045260245ffd5b632a87526960e21b5f5260045260245ffd5b9091506020813d60201161433b575b8161432b60209383614f7e565b810103126104665751908561424b565b3d915061431e565b5f516020615df95f395f51905f52546001600160a01b03161415905083614214565b34610466576020366003190112610466576101006143846004356152b0565b60e06040519180511515835260018060a01b03602082015116602084015260018060a01b03604082015116604084015260018060a01b0360608201511660608401526080810151608084015260a081015160a084015260c08101516143e881614f59565b60c0840152015160e0820152f35b34610466575f366003190112610466576002546040516001600160a01b039091168152602090f35b3461046657604036600319011261046657614437614f1d565b61443f614f33565b6001600160a01b039182165f908152601160209081526040808320949093168252928352819020549051908152f35b34610466575f366003190112610466576144866154c8565b5f516020615eb95f395f51905f525460ff8116156144dd5760ff19165f516020615eb95f395f51905f52557f5db9ee0a495bf2e6ff9c91a7834c1ba4fdd244a5e8aa4e537bd38aeae4b073aa6020604051338152a1005b638dfc202b60e01b5f5260045ffd5b346104665760203660031901126104665760043561450861546c565b805f52600d602052600160405f20015415610457575f52600d60205260405f2060118101600d60ff198254161790556012614545600b5442615205565b910155005b34610466575f366003190112610466576020600b54604051908152f35b346104665760403660031901126104665760043560ff811680910361046657602435906145926154c8565b600a82106145f757806145a55750600655005b600181036145b35750600755005b600281036145c15750600855005b600381036145cf5750600955005b600481036145dd5750600a55005b600581036145eb5750600b55005b600603610cba57600c55005b63296d383360e01b5f5260045ffd5b34610466575f36600319011261046657602060405162093a808152f35b346104665760403660031901126104665761463c614f33565b336001600160a01b038216036146585761138490600435615b6c565b63334bd91960e11b5f5260045ffd5b34610466575f366003190112610466576020600554604051908152f35b34610466576040366003190112610466576113846004356146a3614f33565b906146b061137a82615292565b615adb565b34610466576040366003190112610466576004356146d1614f49565b6146d961546c565b60025f54146109b35760025f55815f52600d602052600160405f200154156104575760ff16600f811015611c225760205f516020615e595f395f51905f5291835f52600d825260405f206011810190815491601160ff84169360ff191617905560018101545f52601084525f604081205561475382614f59565b600e821491821592836148f3575b614891575b865f52600f855260405f20600681019060ff825416614846575b505060188201805480151580614830575b6147a8575b5050505050604051908152a260015f55005b6019945f936147b681614f59565b8161481b575b506147dd575b50550180546001600160a01b03191690558480808080614796565b838501546001600160a01b0390811684526011885260408085206004870154909216855290885283208054909161481391615205565b9055886147c2565b600f915061482881614f59565b14158a6147bc565b5060198401546001600160a01b03161515614791565b600181015490546001600160a01b039081165f90815260118952604080822060048801549093168252918952208054909161488091615205565b9055805460ff191690558780614780565b865f526014855260405f205f805285526148b460405f2054600d84015490615205565b60038301546001600160a01b039081165f9081526011885260408082206004870154909316825291885220805490916148ec91615205565b9055614766565b506148fd81614f59565b600f8114614761565b34610466576020366003190112610466576020614924600435615292565b604051908152f35b3461046657602036600319011261046657614945614f1d565b60025f54146109b35760025f55335f52601160205260405f2060018060a01b0382165f5260205260405f2054908115614a3757335f52601160205260405f2060018060a01b0382165f526020525f604081205560018060a01b0316906040519063a9059cbb60e01b5f52336004528060245260205f60448180875af160015f5114811615614a18575b8260405215614a055781527f716942921e9b67ee05c4c2ffcf216f189086c9053b444c8928a49db4bdb1ae8e60203392a360015f55005b82635274afe760e01b5f5260045260245ffd5b6001811516614a2e57833b15153d1516166149ce565b823d5f823e3d90fd5b6312d37ee560e31b5f5260045ffd5b34610466575f366003190112610466576020600954604051908152f35b346104665760203660031901126104665760c060ff614a8360043561522a565b9495919290936040519615158752151560208701521660408501526060840152608083015260018060a01b031660a0820152f35b3461046657614ac536614f07565b614acd61546c565b60025f54146109b35760025f55815f52600d602052600160405f2001541561045757815f52600d60205260405f209080614b4d575b5060118101600960ff198254161790556012614b2060085442615205565b9101557ff821d84aa1a441b5bb4ce3244bee2f2a91a73159f3163986392a59fdd288afb15f80a260015f55005b676765c793fa10079d601a1b8111610cba5760058201805482818110614b77575b50505582614b02565b614b80916151f8565b60038401546001600160a01b039081165f908152601160209081526040808320600489015490941683529290522080549091614bbb91615205565b90558482614b6e565b34610466575f366003190112610466576020600754604051908152f35b346104665760203660031901126104665760043563ffffffff60e01b811680910361046657602090637965db0b60e01b8114908115614c26575b506040519015158152f35b6301ffc9a760e01b14905082614c1b565b3461046657602036600319011261046657600435614c53615423565b60025f54146109b35760025f55805f52600d602052600160405f2001541561045757805f52600d60205260ff601160405f20015416614c9181614f59565b600e8114159081614cab575b5061042557611d8590615593565b600f9150614cb881614f59565b141582614c9d565b34610466575f36600319011261046657604051676765c793fa10079d601a1b8152602090f35b3461046657614cf436614f07565b90614cfd615423565b60025f54146109b35760025f55805f52600d602052600160405f2001541561045757805f52600d60205260405f20601060ff601183015416614d3e81614f59565b0361042557815f52600e60205260405f208054841015614ef85783614d6291614fd7565b509060028201805460ff8160081c16614ee95761ff001981166101001790915560ff1615614ed65760018060a01b03600254165f6001830154602460405180948193631cab5c9d60e31b835260048301525afa8015610b555760c0915f91614ebc575b500180516001600160a01b031615610b2457516001600160a01b03165b835f526012602052600460405f2092019060018060a01b038254169260018060a01b0384165f52602052600160405f20549401908154809510610cba577f8a7b03d7dda6d95d58f5cd28b28478861ccab393473b4181ae4d6ec30207dfea94604094875f526012602052855f209060018060a01b03165f52602052614e6b855f209182546151f8565b905581546001600160a01b039182165f81815260116020908152878220965490941681529490925292849020805491939091614ea79190615205565b9055549082519182526020820152a360015f55005b614ed091503d805f833e610b478183614f7e565b86614dc5565b60028101546001600160a01b0316614de2565b631281aab960e01b5f5260045ffd5b63671a587360e01b5f5260045ffd5b6040906003190112610466576004359060243590565b600435906001600160a01b038216820361046657565b602435906001600160a01b038216820361046657565b6024359060ff8216820361046657565b60121115611c2257565b606081019081106001600160401b03821117611ad557604052565b601f909101601f19168101906001600160401b03821190821017611ad557604052565b6001600160401b038111611ad557601f01601f191660200190565b34610466575f36600319011261046657602060405160c88152f35b8054821015614ff0575f52600360205f20910201905f90565b634e487b7160e01b5f52603260045260245ffd5b9061ff00825491151560081b169061ff001916179055565b81601f820112156104665780519061503382614fa1565b926150416040519485614f7e565b8284526020838301011161046657815f9260208093018386015e8301015290565b51906001600160a01b038216820361046657565b5190811515820361046657565b602081830312610466578051906001600160401b03821161046657019061020082820312610466576040519161020083016001600160401b03811184821017611ad5576040528051835260208101516001600160401b03811161046657826150ec91830161501c565b602084015260408101516001600160401b038111610466578261511091830161501c565b604084015260608101516001600160401b038111610466578261513491830161501c565b60608401526080810151608084015260a081015160a084015261515960c08201615062565b60c084015261516a60e08201615076565b60e084015261517c6101008201615076565b61010084015261518f6101208201615076565b6101208401526101408101516101408401526101608101516101608401526101808101516101808401526101a08101516101a08401526101c081015160018060401b038111610466576101e0926151e791830161501c565b6101c084015201516101e082015290565b91908203918211610dea57565b91908201809211610dea57565b9061521c81614f59565b60ff80198354169116179055565b5f52600d60205260405f206001810154156152835760ff601682015460081c169160ff6011830154169161525d83614f59565b6012810154601b820154601a9092015460019594939192916001600160a01b0390911690565b505f905f905f905f905f905f90565b5f525f516020615e795f395f51905f52602052600160405f20015490565b60405190919061010081016001600160401b03811182821017611ad5576040525f81525f60208201525f60408201525f60608201525f60808201525f60a08201525f60c08201525f60e082015280925f52600d60205260405f209060018201541561538f57506001835260028101546001600160a01b039081166020850152600382015481166040850152600482015416606084015260058101546080840152601081015460a084015260118101546012919060ff1661536f81614f59565b61537881614f59565b61538181614f59565b60c0850152015460e0830152565b925050565b9060ff801983541691151516179055565b906004811015611c225760ff80198354169116179055565b903590601e198136030182121561046657018035906001600160401b03821161046657602001918160051b3603831361046657565b9190811015614ff05760051b0190565b356001600160a01b03811681036104665790565b3580151581036104665790565b335f9081525f516020615d995f395f51905f52602052604090205460ff161561544857565b63e2517d3f60e01b5f52336004525f516020615e195f395f51905f5260245260445ffd5b335f9081527fe102a084b8508bede6bf51c8b54b1c4d119a4a0e42216477c270f0353f96ae65602052604090205460ff16156154a457565b63e2517d3f60e01b5f52336004525f516020615ed95f395f51905f5260245260445ffd5b335f9081525f516020615db95f395f51905f52602052604090205460ff16156154ed57565b63e2517d3f60e01b5f52336004525f516020615ef95f395f51905f5260245260445ffd5b335f9081525f516020615dd95f395f51905f52602052604090205460ff161561553657565b63e2517d3f60e01b5f52336004525f60245260445ffd5b5f8181525f516020615e795f395f51905f526020908152604080832033845290915290205460ff161561557d5750565b63e2517d3f60e01b5f523360045260245260445ffd5b5f90805f52600d60205260405f209060118201601060ff198254161790556276a7004201804211610dea57600f8301556001820180545f5260106020525f6040812055815f52601460205260405f205f805260205260405f205460055480151580615951575b1561594a575b600685015480151580615934575b1561592d575b600886015480151580615917575b1561590f57905b600a870154801515806158f9575b156158f157925b6040519463a4ba3a7f60e01b86526004860152602485015260448401526064830152608482015260a08160a48173__$d9d5ca12ac0847b5930a2330ee53d4fb3d$__5af4908115610b55575f5f5f915f935f956158a0575b508061585d575b508061581a575b50806157d7575b5080615794575b506002840180546001600160a01b039081165f90815260116020908152604080832060048a01549094168352929052208054919290916156f19190615205565b905560025482549154600395909501805490956001600160a01b0391821693929082169116803b15610466575f928360649260405196879586946332f65ba360e01b86526004860152602485015260448401525af18015610b5557615772575b505491546001600160a01b0316925f516020615e995f395f51905f529080a4565b61577f9194505f90614f7e565b5f925f516020615e995f395f51905f52615751565b600b8501546001600160a01b039081165f90815260116020908152604080832060048a0154909416835292905220805490916157cf91615205565b90555f6156b1565b60098601546001600160a01b039081165f90815260116020908152604080832060048b01549094168352929052208054909161581291615205565b90555f6156aa565b60078701546001600160a01b039081165f90815260116020908152604080832060048c01549094168352929052208054909161585591615205565b90555f6156a3565b600480546001600160a01b039081165f908152601160209081526040808320948d015490931682529290925290208054909161589891615205565b90555f61569c565b94505050505060a0813d60a0116158e9575b816158bf60a09383614f7e565b8101031261046657805160208201516040830151606084015160809094015193929091905f615695565b3d91506158b2565b505f9261563d565b50600b8801546001600160a01b03161515615636565b505f90615628565b5060098701546001600160a01b03161515615621565b505f615613565b5060078601546001600160a01b0316151561560d565b505f6155ff565b506004546001600160a01b031615156155f9565b6001600160a01b0381165f9081525f516020615dd95f395f51905f52602052604090205460ff166159d6576001600160a01b03165f8181525f516020615dd95f395f51905f5260205260408120805460ff191660011790553391905f516020615d795f395f51905f528180a4600190565b505f90565b6001600160a01b0381165f9081525f516020615db95f395f51905f52602052604090205460ff166159d6576001600160a01b03165f8181525f516020615db95f395f51905f5260205260408120805460ff191660011790553391905f516020615ef95f395f51905f52905f516020615d795f395f51905f529080a4600190565b6001600160a01b0381165f9081525f516020615d995f395f51905f52602052604090205460ff166159d6576001600160a01b03165f8181525f516020615d995f395f51905f5260205260408120805460ff191660011790553391905f516020615e195f395f51905f52905f516020615d795f395f51905f529080a4600190565b5f8181525f516020615e795f395f51905f52602090815260408083206001600160a01b038616845290915290205460ff16615b66575f8181525f516020615e795f395f51905f52602090815260408083206001600160a01b0395909516808452949091528120805460ff19166001179055339291905f516020615d795f395f51905f529080a4600190565b50505f90565b5f8181525f516020615e795f395f51905f52602090815260408083206001600160a01b038616845290915290205460ff1615615b66575f8181525f516020615e795f395f51905f52602090815260408083206001600160a01b0395909516808452949091528120805460ff19169055339291907ff6391f5c32d9c69d2a47ea670b442974b53935d1edc7fd64eb21e047a839171b9080a4600190565b60ff5f516020615eb95f395f51905f525416615c2057565b63d93c066560e01b5f5260045ffd5b6040516323b872dd60e01b5f9081526001600160a01b039384166004529290931660245260449390935260209060648180865af19060015f5114821615615ca0575b6040525f60605215615c805750565b635274afe760e01b5f9081526001600160a01b0391909116600452602490fd5b906001811516615cb857823b15153d15161690615c71565b503d5f823e3d90fd5b60ff5f516020615f195f395f51905f525460401c1615615cdd57565b631afcd79f60e31b5f5260045ffd5b905f8091602081519101845af48080615d65575b15615d205750506040513d81523d5f602083013e60203d82010160405290565b15615d4557639996b31560e01b5f9081526001600160a01b0391909116600452602490fd5b3d15615d56576040513d5f823e3d90fd5b63d6bda27560e01b5f5260045ffd5b503d151580615d005750813b1515615d0056fe2f8788117e7eff1d82e926ec794901d17c78024a50270940304540a733656f0d7a1492cadb22452d254c71a9ef0c781c9f2d1c472dc5213a713c8769ea04d819b16e88c42fd4e48df2dd6a2eabd6bc9aec654ec170056b470819f8892cc6431cb7db2dd08fcb62d0c9e08c51941cae53c267786a0b75803fb7960902fc8ef97d360894a13ba1a3210667c828492db98dca3e2076cc3735a920a3ca505d382bbce4369475d33ca6555b45ac3cf081bee16c4b11779d89f812395c569b2de40f013a24deaadf78a85a780efe5abe4bbc96c2cbcb1620cf4c951dca4e931576a35f6f16db8d1d117ace6c231f2420199bd5731215b09c0610c8103dd70237f23b6702dd7bc7dec4dceedda775e58dd541e08a116c6c53815c0bd028192f7b6268004c64a78d82982b8bfbb5b3bc9a6e8b4e024bb84db4aaf997d36667cd611183dccd5ed15c6e187e77e9aee88184c21f4f2182ab5827cb3b7e07fbedcd63f03300b91045a954d2b1232c32104950cc1bd73039d77d96d80d2677a658336477a079a49807205ce4d355092ef5a8a18f56e8913cf4a201fbe287825b095693c21775f0c57e16840df040f15088dc2f81fe391c3923bec73e23a9662efc9c229c6a00a264697066735822122041117cf06a0d08672cfd5473d44244848da4d210cd279c9696131323c7eeac0964736f6c634300081c0033f0c57e16840df040f15088dc2f81fe391c3923bec73e23a9662efc9c229c6a00",
  "linkReferences": {
    "project/contracts/libraries/FeeLib.sol": {
      "FeeLib": [
        {
          "length": 20,
          "start": 22323
        }
      ]
    }
  },
  "deployedLinkReferences": {
    "project/contracts/libraries/FeeLib.sol": {
      "FeeLib": [
        {
          "length": 20,
          "start": 22124
        }
      ]
    }
  },
  "immutableReferences": {
    "1940": [
      {
        "length": 32,
        "start": 16670
      },
      {
        "length": 32,
        "start": 16873
      }
    ]
  },
  "inputSourceName": "project/contracts/core/DealEscrow.sol",
  "buildInfoId": "solc-0_8_28-cad9b05da742493fa9322d165d3dae205e8f586d"
}