{
  "_format": "hh3-artifact-1",
  "contractName": "DealEscrow",
  "sourceName": "contracts/core/DealEscrow.sol",
  "abi": [
    {
      "inputs": [],
      "stateMutability": "nonpayable",
      "type": "constructor"
    },
    {
      "inputs": [],
      "name": "AccessControlBadConfirmation",
      "type": "error"
    },
    {
      "inputs": [
        {
          "internalType": "address",
          "name": "account",
          "type": "address"
        },
        {
          "internalType": "bytes32",
          "name": "neededRole",
          "type": "bytes32"
        }
      ],
      "name": "AccessControlUnauthorizedAccount",
      "type": "error"
    },
    {
      "inputs": [],
      "name": "AddOnAlreadyTriggered",
      "type": "error"
    },
    {
      "inputs": [],
      "name": "AddOnNotFound",
      "type": "error"
    },
    {
      "inputs": [
        {
          "internalType": "address",
          "name": "target",
          "type": "address"
        }
      ],
      "name": "AddressEmptyCode",
      "type": "error"
    },
    {
      "inputs": [],
      "name": "CannotConfirmOwnProposal",
      "type": "error"
    },
    {
      "inputs": [],
      "name": "ConsentWindowExpired",
      "type": "error"
    },
    {
      "inputs": [],
      "name": "DealIsFrozen",
      "type": "error"
    },
    {
      "inputs": [],
      "name": "DealNotFound",
      "type": "error"
    },
    {
      "inputs": [],
      "name": "DealNotFrozen",
      "type": "error"
    },
    {
      "inputs": [],
      "name": "DisputeWindowExpired",
      "type": "error"
    },
    {
      "inputs": [
        {
          "internalType": "address",
          "name": "implementation",
          "type": "address"
        }
      ],
      "name": "ERC1967InvalidImplementation",
      "type": "error"
    },
    {
      "inputs": [],
      "name": "ERC1967NonPayable",
      "type": "error"
    },
    {
      "inputs": [],
      "name": "EnforcedPause",
      "type": "error"
    },
    {
      "inputs": [],
      "name": "ExpectedPause",
      "type": "error"
    },
    {
      "inputs": [],
      "name": "FailedCall",
      "type": "error"
    },
    {
      "inputs": [],
      "name": "FundingWindowExpired",
      "type": "error"
    },
    {
      "inputs": [],
      "name": "HijackWindowClosed",
      "type": "error"
    },
    {
      "inputs": [
        {
          "internalType": "uint256",
          "name": "requested",
          "type": "uint256"
        },
        {
          "internalType": "uint256",
          "name": "available",
          "type": "uint256"
        }
      ],
      "name": "InsufficientProtocolBalance",
      "type": "error"
    },
    {
      "inputs": [],
      "name": "InvalidAddress",
      "type": "error"
    },
    {
      "inputs": [],
      "name": "InvalidAmount",
      "type": "error"
    },
    {
      "inputs": [],
      "name": "InvalidInitialization",
      "type": "error"
    },
    {
      "inputs": [],
      "name": "LeagueDisputeDeadlineExpired",
      "type": "error"
    },
    {
      "inputs": [],
      "name": "MedicalAlreadySubmitted",
      "type": "error"
    },
    {
      "inputs": [],
      "name": "MedicalWindowExpired",
      "type": "error"
    },
    {
      "inputs": [],
      "name": "MutualCancelAlreadyProposed",
      "type": "error"
    },
    {
      "inputs": [],
      "name": "MutualCancelExpiredError",
      "type": "error"
    },
    {
      "inputs": [],
      "name": "MutualCancelNotProposed",
      "type": "error"
    },
    {
      "inputs": [],
      "name": "NoPendingTreasuryUpdate",
      "type": "error"
    },
    {
      "inputs": [],
      "name": "NoSigningBonus",
      "type": "error"
    },
    {
      "inputs": [],
      "name": "NotBuyingClub",
      "type": "error"
    },
    {
      "inputs": [],
      "name": "NotInitializing",
      "type": "error"
    },
    {
      "inputs": [],
      "name": "NotPlayerWallet",
      "type": "error"
    },
    {
      "inputs": [],
      "name": "NotSellingClub",
      "type": "error"
    },
    {
      "inputs": [],
      "name": "NothingToClaim",
      "type": "error"
    },
    {
      "inputs": [],
      "name": "NothingToWithdraw",
      "type": "error"
    },
    {
      "inputs": [],
      "name": "PlayerWalletNotSet",
      "type": "error"
    },
    {
      "inputs": [],
      "name": "ProtocolFeeTooHigh",
      "type": "error"
    },
    {
      "inputs": [],
      "name": "ReentrantCall",
      "type": "error"
    },
    {
      "inputs": [
        {
          "internalType": "address",
          "name": "token",
          "type": "address"
        }
      ],
      "name": "SafeERC20FailedOperation",
      "type": "error"
    },
    {
      "inputs": [],
      "name": "SigningBonusAlreadyClaimed",
      "type": "error"
    },
    {
      "inputs": [],
      "name": "SigningBonusNotExpired",
      "type": "error"
    },
    {
      "inputs": [],
      "name": "TimerTooShort",
      "type": "error"
    },
    {
      "inputs": [],
      "name": "TokenNotApproved",
      "type": "error"
    },
    {
      "inputs": [],
      "name": "TransferWindowClosed",
      "type": "error"
    },
    {
      "inputs": [],
      "name": "TreasuryUpdateNotReady",
      "type": "error"
    },
    {
      "inputs": [],
      "name": "UUPSUnauthorizedCallContext",
      "type": "error"
    },
    {
      "inputs": [
        {
          "internalType": "bytes32",
          "name": "slot",
          "type": "bytes32"
        }
      ],
      "name": "UUPSUnsupportedProxiableUUID",
      "type": "error"
    },
    {
      "inputs": [],
      "name": "WrongDealState",
      "type": "error"
    },
    {
      "anonymous": false,
      "inputs": [
        {
          "indexed": true,
          "internalType": "uint256",
          "name": "dealId",
          "type": "uint256"
        },
        {
          "indexed": true,
          "internalType": "address",
          "name": "club",
          "type": "address"
        },
        {
          "indexed": false,
          "internalType": "uint256",
          "name": "amount",
          "type": "uint256"
        }
      ],
      "name": "AddOnDepositWithdrawn",
      "type": "event"
    },
    {
      "anonymous": false,
      "inputs": [
        {
          "indexed": true,
          "internalType": "uint256",
          "name": "dealId",
          "type": "uint256"
        },
        {
          "indexed": true,
          "internalType": "uint256",
          "name": "idx",
          "type": "uint256"
        },
        {
          "indexed": false,
          "internalType": "uint256",
          "name": "amount",
          "type": "uint256"
        },
        {
          "indexed": false,
          "internalType": "address",
          "name": "recipient",
          "type": "address"
        }
      ],
      "name": "AddOnTriggered",
      "type": "event"
    },
    {
      "anonymous": false,
      "inputs": [
        {
          "indexed": true,
          "internalType": "uint256",
          "name": "dealId",
          "type": "uint256"
        },
        {
          "indexed": false,
          "internalType": "enum TransferTypes.CancelReason",
          "name": "reason",
          "type": "uint8"
        }
      ],
      "name": "DealCancelled",
      "type": "event"
    },
    {
      "anonymous": false,
      "inputs": [
        {
          "indexed": true,
          "internalType": "uint256",
          "name": "dealId",
          "type": "uint256"
        },
        {
          "indexed": true,
          "internalType": "uint256",
          "name": "playerId",
          "type": "uint256"
        },
        {
          "indexed": true,
          "internalType": "address",
          "name": "newClub",
          "type": "address"
        }
      ],
      "name": "DealCompleted",
      "type": "event"
    },
    {
      "anonymous": false,
      "inputs": [
        {
          "indexed": true,
          "internalType": "uint256",
          "name": "dealId",
          "type": "uint256"
        },
        {
          "indexed": true,
          "internalType": "uint256",
          "name": "playerId",
          "type": "uint256"
        },
        {
          "indexed": true,
          "internalType": "address",
          "name": "buyingClub",
          "type": "address"
        }
      ],
      "name": "DealCreated",
      "type": "event"
    },
    {
      "anonymous": false,
      "inputs": [
        {
          "indexed": true,
          "internalType": "uint256",
          "name": "dealId",
          "type": "uint256"
        }
      ],
      "name": "DealFrozen",
      "type": "event"
    },
    {
      "anonymous": false,
      "inputs": [
        {
          "indexed": true,
          "internalType": "uint256",
          "name": "dealId",
          "type": "uint256"
        }
      ],
      "name": "DealUnfrozen",
      "type": "event"
    },
    {
      "anonymous": false,
      "inputs": [
        {
          "indexed": true,
          "internalType": "uint256",
          "name": "dealId",
          "type": "uint256"
        },
        {
          "indexed": true,
          "internalType": "address",
          "name": "raisedBy",
          "type": "address"
        }
      ],
      "name": "DisputeRaised",
      "type": "event"
    },
    {
      "anonymous": false,
      "inputs": [
        {
          "indexed": true,
          "internalType": "uint256",
          "name": "dealId",
          "type": "uint256"
        }
      ],
      "name": "DisputeResolved",
      "type": "event"
    },
    {
      "anonymous": false,
      "inputs": [
        {
          "indexed": true,
          "internalType": "uint256",
          "name": "dealId",
          "type": "uint256"
        },
        {
          "indexed": true,
          "internalType": "address",
          "name": "buyingClub",
          "type": "address"
        },
        {
          "indexed": false,
          "internalType": "uint256",
          "name": "amount",
          "type": "uint256"
        }
      ],
      "name": "FundingReceived",
      "type": "event"
    },
    {
      "anonymous": false,
      "inputs": [
        {
          "indexed": true,
          "internalType": "address",
          "name": "recipient",
          "type": "address"
        },
        {
          "indexed": true,
          "internalType": "address",
          "name": "token",
          "type": "address"
        },
        {
          "indexed": false,
          "internalType": "uint256",
          "name": "amount",
          "type": "uint256"
        }
      ],
      "name": "FundsClaimed",
      "type": "event"
    },
    {
      "anonymous": false,
      "inputs": [
        {
          "indexed": true,
          "internalType": "uint256",
          "name": "dealId",
          "type": "uint256"
        },
        {
          "indexed": true,
          "internalType": "address",
          "name": "hijackClub",
          "type": "address"
        }
      ],
      "name": "HijackBidAccepted",
      "type": "event"
    },
    {
      "anonymous": false,
      "inputs": [
        {
          "indexed": true,
          "internalType": "uint256",
          "name": "dealId",
          "type": "uint256"
        },
        {
          "indexed": true,
          "internalType": "address",
          "name": "hijackClub",
          "type": "address"
        }
      ],
      "name": "HijackBidRejected",
      "type": "event"
    },
    {
      "anonymous": false,
      "inputs": [
        {
          "indexed": true,
          "internalType": "uint256",
          "name": "dealId",
          "type": "uint256"
        },
        {
          "indexed": true,
          "internalType": "address",
          "name": "hijackClub",
          "type": "address"
        },
        {
          "indexed": false,
          "internalType": "uint256",
          "name": "transferFee",
          "type": "uint256"
        }
      ],
      "name": "HijackBidSubmitted",
      "type": "event"
    },
    {
      "anonymous": false,
      "inputs": [
        {
          "indexed": false,
          "internalType": "uint64",
          "name": "version",
          "type": "uint64"
        }
      ],
      "name": "Initialized",
      "type": "event"
    },
    {
      "anonymous": false,
      "inputs": [
        {
          "indexed": true,
          "internalType": "uint256",
          "name": "dealId",
          "type": "uint256"
        },
        {
          "indexed": true,
          "internalType": "address",
          "name": "escalatedBy",
          "type": "address"
        }
      ],
      "name": "MedicalDisputeEscalated",
      "type": "event"
    },
    {
      "anonymous": false,
      "inputs": [
        {
          "indexed": true,
          "internalType": "uint256",
          "name": "dealId",
          "type": "uint256"
        }
      ],
      "name": "MedicalDisputeResolved",
      "type": "event"
    },
    {
      "anonymous": false,
      "inputs": [
        {
          "indexed": true,
          "internalType": "uint256",
          "name": "dealId",
          "type": "uint256"
        },
        {
          "indexed": false,
          "internalType": "uint256",
          "name": "newFee",
          "type": "uint256"
        }
      ],
      "name": "MedicalRenegotiationResolved",
      "type": "event"
    },
    {
      "anonymous": false,
      "inputs": [
        {
          "indexed": true,
          "internalType": "uint256",
          "name": "dealId",
          "type": "uint256"
        }
      ],
      "name": "MedicalRenegotiationStarted",
      "type": "event"
    },
    {
      "anonymous": false,
      "inputs": [
        {
          "indexed": true,
          "internalType": "uint256",
          "name": "dealId",
          "type": "uint256"
        },
        {
          "indexed": false,
          "internalType": "enum TransferTypes.MedicalOutcome",
          "name": "outcome",
          "type": "uint8"
        }
      ],
      "name": "MedicalSubmitted",
      "type": "event"
    },
    {
      "anonymous": false,
      "inputs": [
        {
          "indexed": true,
          "internalType": "uint256",
          "name": "dealId",
          "type": "uint256"
        }
      ],
      "name": "MutualCancelConfirmed",
      "type": "event"
    },
    {
      "anonymous": false,
      "inputs": [
        {
          "indexed": true,
          "internalType": "uint256",
          "name": "dealId",
          "type": "uint256"
        },
        {
          "indexed": true,
          "internalType": "address",
          "name": "proposer",
          "type": "address"
        }
      ],
      "name": "MutualCancelProposed",
      "type": "event"
    },
    {
      "anonymous": false,
      "inputs": [
        {
          "indexed": false,
          "internalType": "address",
          "name": "account",
          "type": "address"
        }
      ],
      "name": "Paused",
      "type": "event"
    },
    {
      "anonymous": false,
      "inputs": [
        {
          "indexed": true,
          "internalType": "uint256",
          "name": "dealId",
          "type": "uint256"
        },
        {
          "indexed": true,
          "internalType": "uint256",
          "name": "playerId",
          "type": "uint256"
        },
        {
          "indexed": false,
          "internalType": "address",
          "name": "buyingClub",
          "type": "address"
        }
      ],
      "name": "PlayerConsentRequested",
      "type": "event"
    },
    {
      "anonymous": false,
      "inputs": [
        {
          "indexed": true,
          "internalType": "uint256",
          "name": "dealId",
          "type": "uint256"
        },
        {
          "indexed": true,
          "internalType": "uint256",
          "name": "playerId",
          "type": "uint256"
        }
      ],
      "name": "PlayerConsented",
      "type": "event"
    },
    {
      "anonymous": false,
      "inputs": [
        {
          "indexed": true,
          "internalType": "uint256",
          "name": "dealId",
          "type": "uint256"
        },
        {
          "indexed": true,
          "internalType": "uint256",
          "name": "playerId",
          "type": "uint256"
        }
      ],
      "name": "PlayerDeclined",
      "type": "event"
    },
    {
      "anonymous": false,
      "inputs": [
        {
          "indexed": false,
          "internalType": "uint256",
          "name": "bps",
          "type": "uint256"
        }
      ],
      "name": "ProtocolFeeUpdated",
      "type": "event"
    },
    {
      "anonymous": false,
      "inputs": [
        {
          "indexed": true,
          "internalType": "address",
          "name": "treasury",
          "type": "address"
        },
        {
          "indexed": true,
          "internalType": "address",
          "name": "token",
          "type": "address"
        },
        {
          "indexed": false,
          "internalType": "uint256",
          "name": "amount",
          "type": "uint256"
        }
      ],
      "name": "ProtocolFeesWithdrawn",
      "type": "event"
    },
    {
      "anonymous": false,
      "inputs": [
        {
          "indexed": true,
          "internalType": "address",
          "name": "newTreasury",
          "type": "address"
        },
        {
          "indexed": false,
          "internalType": "uint256",
          "name": "effectiveAt",
          "type": "uint256"
        }
      ],
      "name": "ProtocolTreasuryUpdateScheduled",
      "type": "event"
    },
    {
      "anonymous": false,
      "inputs": [
        {
          "indexed": true,
          "internalType": "address",
          "name": "oldTreasury",
          "type": "address"
        },
        {
          "indexed": true,
          "internalType": "address",
          "name": "newTreasury",
          "type": "address"
        }
      ],
      "name": "ProtocolTreasuryUpdated",
      "type": "event"
    },
    {
      "anonymous": false,
      "inputs": [
        {
          "indexed": true,
          "internalType": "bytes32",
          "name": "role",
          "type": "bytes32"
        },
        {
          "indexed": true,
          "internalType": "bytes32",
          "name": "previousAdminRole",
          "type": "bytes32"
        },
        {
          "indexed": true,
          "internalType": "bytes32",
          "name": "newAdminRole",
          "type": "bytes32"
        }
      ],
      "name": "RoleAdminChanged",
      "type": "event"
    },
    {
      "anonymous": false,
      "inputs": [
        {
          "indexed": true,
          "internalType": "bytes32",
          "name": "role",
          "type": "bytes32"
        },
        {
          "indexed": true,
          "internalType": "address",
          "name": "account",
          "type": "address"
        },
        {
          "indexed": true,
          "internalType": "address",
          "name": "sender",
          "type": "address"
        }
      ],
      "name": "RoleGranted",
      "type": "event"
    },
    {
      "anonymous": false,
      "inputs": [
        {
          "indexed": true,
          "internalType": "bytes32",
          "name": "role",
          "type": "bytes32"
        },
        {
          "indexed": true,
          "internalType": "address",
          "name": "account",
          "type": "address"
        },
        {
          "indexed": true,
          "internalType": "address",
          "name": "sender",
          "type": "address"
        }
      ],
      "name": "RoleRevoked",
      "type": "event"
    },
    {
      "anonymous": false,
      "inputs": [
        {
          "indexed": true,
          "internalType": "uint256",
          "name": "dealId",
          "type": "uint256"
        },
        {
          "indexed": true,
          "internalType": "address",
          "name": "wallet",
          "type": "address"
        },
        {
          "indexed": false,
          "internalType": "uint256",
          "name": "amount",
          "type": "uint256"
        }
      ],
      "name": "SigningBonusClaimed",
      "type": "event"
    },
    {
      "anonymous": false,
      "inputs": [
        {
          "indexed": true,
          "internalType": "uint256",
          "name": "dealId",
          "type": "uint256"
        },
        {
          "indexed": true,
          "internalType": "address",
          "name": "to",
          "type": "address"
        },
        {
          "indexed": false,
          "internalType": "uint256",
          "name": "amount",
          "type": "uint256"
        }
      ],
      "name": "SigningBonusRescued",
      "type": "event"
    },
    {
      "anonymous": false,
      "inputs": [
        {
          "indexed": false,
          "internalType": "address",
          "name": "account",
          "type": "address"
        }
      ],
      "name": "Unpaused",
      "type": "event"
    },
    {
      "anonymous": false,
      "inputs": [
        {
          "indexed": true,
          "internalType": "address",
          "name": "implementation",
          "type": "address"
        }
      ],
      "name": "Upgraded",
      "type": "event"
    },
    {
      "inputs": [],
      "name": "ADMIN_ROLE",
      "outputs": [
        {
          "internalType": "bytes32",
          "name": "",
          "type": "bytes32"
        }
      ],
      "stateMutability": "view",
      "type": "function"
    },
    {
      "inputs": [],
      "name": "DEFAULT_ADMIN_ROLE",
      "outputs": [
        {
          "internalType": "bytes32",
          "name": "",
          "type": "bytes32"
        }
      ],
      "stateMutability": "view",
      "type": "function"
    },
    {
      "inputs": [],
      "name": "LEAGUE_ROLE",
      "outputs": [
        {
          "internalType": "bytes32",
          "name": "",
          "type": "bytes32"
        }
      ],
      "stateMutability": "view",
      "type": "function"
    },
    {
      "inputs": [],
      "name": "TRANSFER_ESCROW_ROLE",
      "outputs": [
        {
          "internalType": "bytes32",
          "name": "",
          "type": "bytes32"
        }
      ],
      "stateMutability": "view",
      "type": "function"
    },
    {
      "inputs": [],
      "name": "UPGRADE_INTERFACE_VERSION",
      "outputs": [
        {
          "internalType": "string",
          "name": "",
          "type": "string"
        }
      ],
      "stateMutability": "view",
      "type": "function"
    },
    {
      "inputs": [
        {
          "internalType": "uint256",
          "name": "dealId",
          "type": "uint256"
        }
      ],
      "name": "acceptHijackBid",
      "outputs": [],
      "stateMutability": "nonpayable",
      "type": "function"
    },
    {
      "inputs": [
        {
          "internalType": "uint256",
          "name": "dealId",
          "type": "uint256"
        },
        {
          "internalType": "uint256",
          "name": "newFee",
          "type": "uint256"
        }
      ],
      "name": "acceptMedicalRenegotiation",
      "outputs": [],
      "stateMutability": "nonpayable",
      "type": "function"
    },
    {
      "inputs": [],
      "name": "addressRegistry",
      "outputs": [
        {
          "internalType": "contract IAddressRegistry",
          "name": "",
          "type": "address"
        }
      ],
      "stateMutability": "view",
      "type": "function"
    },
    {
      "inputs": [
        {
          "internalType": "address",
          "name": "token",
          "type": "address"
        }
      ],
      "name": "approveToken",
      "outputs": [],
      "stateMutability": "nonpayable",
      "type": "function"
    },
    {
      "inputs": [
        {
          "internalType": "uint256",
          "name": "dealId",
          "type": "uint256"
        }
      ],
      "name": "claimSigningBonus",
      "outputs": [],
      "stateMutability": "nonpayable",
      "type": "function"
    },
    {
      "inputs": [
        {
          "internalType": "uint256",
          "name": "dealId",
          "type": "uint256"
        }
      ],
      "name": "confirmMutualCancel",
      "outputs": [],
      "stateMutability": "nonpayable",
      "type": "function"
    },
    {
      "inputs": [
        {
          "internalType": "uint256",
          "name": "dealId",
          "type": "uint256"
        }
      ],
      "name": "consentToTransfer",
      "outputs": [],
      "stateMutability": "nonpayable",
      "type": "function"
    },
    {
      "inputs": [
        {
          "internalType": "uint256",
          "name": "dealId",
          "type": "uint256"
        }
      ],
      "name": "declineTransfer",
      "outputs": [],
      "stateMutability": "nonpayable",
      "type": "function"
    },
    {
      "inputs": [
        {
          "internalType": "uint256",
          "name": "dealId",
          "type": "uint256"
        },
        {
          "internalType": "uint256",
          "name": "amount",
          "type": "uint256"
        }
      ],
      "name": "depositAddOnFunds",
      "outputs": [],
      "stateMutability": "nonpayable",
      "type": "function"
    },
    {
      "inputs": [
        {
          "internalType": "uint256",
          "name": "dealId",
          "type": "uint256"
        }
      ],
      "name": "escalateToLeague",
      "outputs": [],
      "stateMutability": "nonpayable",
      "type": "function"
    },
    {
      "inputs": [],
      "name": "executeProtocolTreasuryUpdate",
      "outputs": [],
      "stateMutability": "nonpayable",
      "type": "function"
    },
    {
      "inputs": [
        {
          "internalType": "uint256",
          "name": "dealId",
          "type": "uint256"
        }
      ],
      "name": "extAdvanceToFunding",
      "outputs": [],
      "stateMutability": "nonpayable",
      "type": "function"
    },
    {
      "inputs": [
        {
          "internalType": "uint256",
          "name": "dealId",
          "type": "uint256"
        },
        {
          "internalType": "uint256",
          "name": "newFee",
          "type": "uint256"
        }
      ],
      "name": "extAdvanceToHijack",
      "outputs": [],
      "stateMutability": "nonpayable",
      "type": "function"
    },
    {
      "inputs": [
        {
          "internalType": "uint256",
          "name": "dealId",
          "type": "uint256"
        },
        {
          "internalType": "uint8",
          "name": "reason",
          "type": "uint8"
        }
      ],
      "name": "extCancel",
      "outputs": [],
      "stateMutability": "nonpayable",
      "type": "function"
    },
    {
      "inputs": [
        {
          "internalType": "uint256",
          "name": "dealId",
          "type": "uint256"
        }
      ],
      "name": "extClearMutualCancel",
      "outputs": [],
      "stateMutability": "nonpayable",
      "type": "function"
    },
    {
      "inputs": [
        {
          "internalType": "uint256",
          "name": "dealId",
          "type": "uint256"
        },
        {
          "internalType": "address",
          "name": "dest",
          "type": "address"
        }
      ],
      "name": "extRescueBonus",
      "outputs": [],
      "stateMutability": "nonpayable",
      "type": "function"
    },
    {
      "inputs": [
        {
          "internalType": "uint256",
          "name": "dealId",
          "type": "uint256"
        }
      ],
      "name": "extSettle",
      "outputs": [],
      "stateMutability": "nonpayable",
      "type": "function"
    },
    {
      "inputs": [
        {
          "internalType": "uint256",
          "name": "dealId",
          "type": "uint256"
        }
      ],
      "name": "extWalkAwayPenalty",
      "outputs": [],
      "stateMutability": "nonpayable",
      "type": "function"
    },
    {
      "inputs": [
        {
          "internalType": "uint256",
          "name": "dealId",
          "type": "uint256"
        },
        {
          "internalType": "address",
          "name": "buyer",
          "type": "address"
        },
        {
          "internalType": "uint256",
          "name": "amount",
          "type": "uint256"
        }
      ],
      "name": "extWithdrawAddOn",
      "outputs": [],
      "stateMutability": "nonpayable",
      "type": "function"
    },
    {
      "inputs": [
        {
          "internalType": "uint256",
          "name": "dealId",
          "type": "uint256"
        }
      ],
      "name": "forceCancelDeal",
      "outputs": [],
      "stateMutability": "nonpayable",
      "type": "function"
    },
    {
      "inputs": [
        {
          "internalType": "uint256",
          "name": "dealId",
          "type": "uint256"
        }
      ],
      "name": "forceComplete",
      "outputs": [],
      "stateMutability": "nonpayable",
      "type": "function"
    },
    {
      "inputs": [
        {
          "internalType": "uint256",
          "name": "dealId",
          "type": "uint256"
        }
      ],
      "name": "freezeDeal",
      "outputs": [],
      "stateMutability": "nonpayable",
      "type": "function"
    },
    {
      "inputs": [
        {
          "internalType": "uint256",
          "name": "dealId",
          "type": "uint256"
        }
      ],
      "name": "fundDeal",
      "outputs": [],
      "stateMutability": "nonpayable",
      "type": "function"
    },
    {
      "inputs": [
        {
          "internalType": "uint256",
          "name": "dealId",
          "type": "uint256"
        },
        {
          "internalType": "address",
          "name": "token",
          "type": "address"
        }
      ],
      "name": "getAddOnDeposit",
      "outputs": [
        {
          "internalType": "uint256",
          "name": "",
          "type": "uint256"
        }
      ],
      "stateMutability": "view",
      "type": "function"
    },
    {
      "inputs": [
        {
          "internalType": "address",
          "name": "account",
          "type": "address"
        },
        {
          "internalType": "address",
          "name": "token",
          "type": "address"
        }
      ],
      "name": "getClaimable",
      "outputs": [
        {
          "internalType": "uint256",
          "name": "",
          "type": "uint256"
        }
      ],
      "stateMutability": "view",
      "type": "function"
    },
    {
      "inputs": [
        {
          "internalType": "uint256",
          "name": "dealId",
          "type": "uint256"
        }
      ],
      "name": "getDealView",
      "outputs": [
        {
          "components": [
            {
              "internalType": "bool",
              "name": "exists",
              "type": "bool"
            },
            {
              "internalType": "address",
              "name": "sellingClub",
              "type": "address"
            },
            {
              "internalType": "address",
              "name": "buyingClub",
              "type": "address"
            },
            {
              "internalType": "address",
              "name": "paymentToken",
              "type": "address"
            },
            {
              "internalType": "uint256",
              "name": "transferFee",
              "type": "uint256"
            },
            {
              "internalType": "uint256",
              "name": "minimumHijackIncrementBps",
              "type": "uint256"
            },
            {
              "internalType": "enum IDealEscrow.DealState",
              "name": "state",
              "type": "uint8"
            },
            {
              "internalType": "uint256",
              "name": "stateDeadline",
              "type": "uint256"
            }
          ],
          "internalType": "struct IDealEscrow.DealView",
          "name": "v",
          "type": "tuple"
        }
      ],
      "stateMutability": "view",
      "type": "function"
    },
    {
      "inputs": [
        {
          "internalType": "uint256",
          "name": "dealId",
          "type": "uint256"
        }
      ],
      "name": "getExpiryView",
      "outputs": [
        {
          "internalType": "bool",
          "name": "exists",
          "type": "bool"
        },
        {
          "internalType": "bool",
          "name": "frozen",
          "type": "bool"
        },
        {
          "internalType": "uint8",
          "name": "state",
          "type": "uint8"
        },
        {
          "internalType": "uint256",
          "name": "stateDeadline",
          "type": "uint256"
        },
        {
          "internalType": "uint256",
          "name": "mutualCancelDeadline",
          "type": "uint256"
        },
        {
          "internalType": "address",
          "name": "mutualCancelProposer",
          "type": "address"
        }
      ],
      "stateMutability": "view",
      "type": "function"
    },
    {
      "inputs": [
        {
          "internalType": "uint256",
          "name": "dealId",
          "type": "uint256"
        },
        {
          "internalType": "uint8",
          "name": "index",
          "type": "uint8"
        }
      ],
      "name": "getInstallment",
      "outputs": [
        {
          "components": [
            {
              "internalType": "uint256",
              "name": "amount",
              "type": "uint256"
            },
            {
              "internalType": "uint256",
              "name": "dueDate",
              "type": "uint256"
            },
            {
              "internalType": "bool",
              "name": "paid",
              "type": "bool"
            }
          ],
          "internalType": "struct TransferTypes.Installment",
          "name": "",
          "type": "tuple"
        }
      ],
      "stateMutability": "view",
      "type": "function"
    },
    {
      "inputs": [
        {
          "internalType": "uint256",
          "name": "playerId",
          "type": "uint256"
        }
      ],
      "name": "getPlayerDeal",
      "outputs": [
        {
          "internalType": "uint256",
          "name": "",
          "type": "uint256"
        }
      ],
      "stateMutability": "view",
      "type": "function"
    },
    {
      "inputs": [
        {
          "internalType": "bytes32",
          "name": "role",
          "type": "bytes32"
        }
      ],
      "name": "getRoleAdmin",
      "outputs": [
        {
          "internalType": "bytes32",
          "name": "",
          "type": "bytes32"
        }
      ],
      "stateMutability": "view",
      "type": "function"
    },
    {
      "inputs": [
        {
          "internalType": "bytes32",
          "name": "role",
          "type": "bytes32"
        },
        {
          "internalType": "address",
          "name": "account",
          "type": "address"
        }
      ],
      "name": "grantRole",
      "outputs": [],
      "stateMutability": "nonpayable",
      "type": "function"
    },
    {
      "inputs": [
        {
          "internalType": "bytes32",
          "name": "role",
          "type": "bytes32"
        },
        {
          "internalType": "address",
          "name": "account",
          "type": "address"
        }
      ],
      "name": "hasRole",
      "outputs": [
        {
          "internalType": "bool",
          "name": "",
          "type": "bool"
        }
      ],
      "stateMutability": "view",
      "type": "function"
    },
    {
      "inputs": [
        {
          "internalType": "address",
          "name": "_playerRegistry",
          "type": "address"
        },
        {
          "internalType": "address",
          "name": "_addressRegistry",
          "type": "address"
        },
        {
          "internalType": "address",
          "name": "_treasury",
          "type": "address"
        },
        {
          "internalType": "address",
          "name": "_admin",
          "type": "address"
        }
      ],
      "name": "initialize",
      "outputs": [],
      "stateMutability": "nonpayable",
      "type": "function"
    },
    {
      "inputs": [
        {
          "components": [
            {
              "internalType": "uint256",
              "name": "offerId",
              "type": "uint256"
            },
            {
              "internalType": "uint256",
              "name": "playerId",
              "type": "uint256"
            },
            {
              "internalType": "address",
              "name": "sellingClub",
              "type": "address"
            },
            {
              "internalType": "address",
              "name": "buyingClub",
              "type": "address"
            },
            {
              "internalType": "address",
              "name": "paymentToken",
              "type": "address"
            },
            {
              "internalType": "uint256",
              "name": "transferFee",
              "type": "uint256"
            },
            {
              "internalType": "uint256",
              "name": "sellOnBps",
              "type": "uint256"
            },
            {
              "internalType": "address",
              "name": "sellOnRecipient",
              "type": "address"
            },
            {
              "internalType": "uint256",
              "name": "sellerAgentBps",
              "type": "uint256"
            },
            {
              "internalType": "address",
              "name": "sellerAgent",
              "type": "address"
            },
            {
              "internalType": "uint256",
              "name": "buyerAgentBps",
              "type": "uint256"
            },
            {
              "internalType": "address",
              "name": "buyerAgent",
              "type": "address"
            },
            {
              "internalType": "uint256",
              "name": "signingBonusMonths",
              "type": "uint256"
            },
            {
              "internalType": "uint256",
              "name": "signingBonusAmount",
              "type": "uint256"
            },
            {
              "internalType": "uint256",
              "name": "minimumHijackIncrementBps",
              "type": "uint256"
            },
            {
              "internalType": "uint256",
              "name": "consentWindowDuration",
              "type": "uint256"
            },
            {
              "internalType": "uint256[]",
              "name": "installmentAmounts",
              "type": "uint256[]"
            },
            {
              "internalType": "uint256[]",
              "name": "installmentDueDates",
              "type": "uint256[]"
            }
          ],
          "internalType": "struct TransferTypes.DealInitParams",
          "name": "p",
          "type": "tuple"
        },
        {
          "components": [
            {
              "internalType": "string",
              "name": "description",
              "type": "string"
            },
            {
              "internalType": "uint256",
              "name": "amount",
              "type": "uint256"
            },
            {
              "internalType": "bool",
              "name": "toPlayer",
              "type": "bool"
            },
            {
              "internalType": "bool",
              "name": "triggered",
              "type": "bool"
            }
          ],
          "internalType": "struct TransferTypes.AddOn[]",
          "name": "addOns",
          "type": "tuple[]"
        }
      ],
      "name": "initializeDeal",
      "outputs": [
        {
          "internalType": "uint256",
          "name": "dealId",
          "type": "uint256"
        }
      ],
      "stateMutability": "nonpayable",
      "type": "function"
    },
    {
      "inputs": [],
      "name": "pause",
      "outputs": [],
      "stateMutability": "nonpayable",
      "type": "function"
    },
    {
      "inputs": [],
      "name": "paused",
      "outputs": [
        {
          "internalType": "bool",
          "name": "",
          "type": "bool"
        }
      ],
      "stateMutability": "view",
      "type": "function"
    },
    {
      "inputs": [],
      "name": "pendingTreasury",
      "outputs": [
        {
          "internalType": "address",
          "name": "",
          "type": "address"
        },
        {
          "internalType": "uint256",
          "name": "",
          "type": "uint256"
        }
      ],
      "stateMutability": "view",
      "type": "function"
    },
    {
      "inputs": [],
      "name": "playerRegistry",
      "outputs": [
        {
          "internalType": "contract IPlayerRegistry",
          "name": "",
          "type": "address"
        }
      ],
      "stateMutability": "view",
      "type": "function"
    },
    {
      "inputs": [
        {
          "internalType": "uint256",
          "name": "dealId",
          "type": "uint256"
        }
      ],
      "name": "proposeMutualCancel",
      "outputs": [],
      "stateMutability": "nonpayable",
      "type": "function"
    },
    {
      "inputs": [],
      "name": "protocolFeeBps",
      "outputs": [
        {
          "internalType": "uint256",
          "name": "",
          "type": "uint256"
        }
      ],
      "stateMutability": "view",
      "type": "function"
    },
    {
      "inputs": [],
      "name": "proxiableUUID",
      "outputs": [
        {
          "internalType": "bytes32",
          "name": "",
          "type": "bytes32"
        }
      ],
      "stateMutability": "view",
      "type": "function"
    },
    {
      "inputs": [
        {
          "internalType": "uint256",
          "name": "dealId",
          "type": "uint256"
        }
      ],
      "name": "raiseDispute",
      "outputs": [],
      "stateMutability": "nonpayable",
      "type": "function"
    },
    {
      "inputs": [
        {
          "internalType": "uint256",
          "name": "dealId",
          "type": "uint256"
        },
        {
          "internalType": "address",
          "name": "buyingClub",
          "type": "address"
        },
        {
          "internalType": "uint256",
          "name": "transferFee",
          "type": "uint256"
        },
        {
          "internalType": "uint256",
          "name": "buyerAgentBps",
          "type": "uint256"
        },
        {
          "internalType": "address",
          "name": "buyerAgent",
          "type": "address"
        },
        {
          "internalType": "uint256",
          "name": "signingBonusMonths",
          "type": "uint256"
        }
      ],
      "name": "receiveHijackBid",
      "outputs": [],
      "stateMutability": "nonpayable",
      "type": "function"
    },
    {
      "inputs": [
        {
          "internalType": "uint256",
          "name": "dealId",
          "type": "uint256"
        }
      ],
      "name": "rejectHijackBid",
      "outputs": [],
      "stateMutability": "nonpayable",
      "type": "function"
    },
    {
      "inputs": [
        {
          "internalType": "uint256",
          "name": "dealId",
          "type": "uint256"
        }
      ],
      "name": "rejectMedicalRenegotiation",
      "outputs": [],
      "stateMutability": "nonpayable",
      "type": "function"
    },
    {
      "inputs": [
        {
          "internalType": "bytes32",
          "name": "role",
          "type": "bytes32"
        },
        {
          "internalType": "address",
          "name": "callerConfirmation",
          "type": "address"
        }
      ],
      "name": "renounceRole",
      "outputs": [],
      "stateMutability": "nonpayable",
      "type": "function"
    },
    {
      "inputs": [
        {
          "internalType": "uint256",
          "name": "dealId",
          "type": "uint256"
        }
      ],
      "name": "resolveDispute",
      "outputs": [],
      "stateMutability": "nonpayable",
      "type": "function"
    },
    {
      "inputs": [
        {
          "internalType": "bytes32",
          "name": "role",
          "type": "bytes32"
        },
        {
          "internalType": "address",
          "name": "account",
          "type": "address"
        }
      ],
      "name": "revokeRole",
      "outputs": [],
      "stateMutability": "nonpayable",
      "type": "function"
    },
    {
      "inputs": [
        {
          "internalType": "address",
          "name": "token",
          "type": "address"
        }
      ],
      "name": "revokeToken",
      "outputs": [],
      "stateMutability": "nonpayable",
      "type": "function"
    },
    {
      "inputs": [
        {
          "internalType": "address",
          "name": "newTreasury",
          "type": "address"
        }
      ],
      "name": "scheduleProtocolTreasuryUpdate",
      "outputs": [],
      "stateMutability": "nonpayable",
      "type": "function"
    },
    {
      "inputs": [
        {
          "internalType": "uint256",
          "name": "bps",
          "type": "uint256"
        }
      ],
      "name": "setProtocolFee",
      "outputs": [],
      "stateMutability": "nonpayable",
      "type": "function"
    },
    {
      "inputs": [
        {
          "internalType": "uint8",
          "name": "which",
          "type": "uint8"
        },
        {
          "internalType": "uint256",
          "name": "d",
          "type": "uint256"
        }
      ],
      "name": "setTimer",
      "outputs": [],
      "stateMutability": "nonpayable",
      "type": "function"
    },
    {
      "inputs": [
        {
          "internalType": "uint256",
          "name": "dealId",
          "type": "uint256"
        },
        {
          "internalType": "enum TransferTypes.MedicalOutcome",
          "name": "outcome",
          "type": "uint8"
        },
        {
          "internalType": "bytes32",
          "name": "medicalHash",
          "type": "bytes32"
        }
      ],
      "name": "submitMedical",
      "outputs": [],
      "stateMutability": "nonpayable",
      "type": "function"
    },
    {
      "inputs": [
        {
          "internalType": "bytes4",
          "name": "interfaceId",
          "type": "bytes4"
        }
      ],
      "name": "supportsInterface",
      "outputs": [
        {
          "internalType": "bool",
          "name": "",
          "type": "bool"
        }
      ],
      "stateMutability": "view",
      "type": "function"
    },
    {
      "inputs": [
        {
          "internalType": "uint8",
          "name": "",
          "type": "uint8"
        }
      ],
      "name": "timers",
      "outputs": [
        {
          "internalType": "uint256",
          "name": "",
          "type": "uint256"
        }
      ],
      "stateMutability": "view",
      "type": "function"
    },
    {
      "inputs": [],
      "name": "totalDeals",
      "outputs": [
        {
          "internalType": "uint256",
          "name": "",
          "type": "uint256"
        }
      ],
      "stateMutability": "view",
      "type": "function"
    },
    {
      "inputs": [],
      "name": "treasury",
      "outputs": [
        {
          "internalType": "address",
          "name": "",
          "type": "address"
        }
      ],
      "stateMutability": "view",
      "type": "function"
    },
    {
      "inputs": [
        {
          "internalType": "uint256",
          "name": "dealId",
          "type": "uint256"
        },
        {
          "internalType": "uint256",
          "name": "idx",
          "type": "uint256"
        }
      ],
      "name": "triggerAddOn",
      "outputs": [],
      "stateMutability": "nonpayable",
      "type": "function"
    },
    {
      "inputs": [
        {
          "internalType": "uint256",
          "name": "dealId",
          "type": "uint256"
        }
      ],
      "name": "unfreezeDeal",
      "outputs": [],
      "stateMutability": "nonpayable",
      "type": "function"
    },
    {
      "inputs": [],
      "name": "unpause",
      "outputs": [],
      "stateMutability": "nonpayable",
      "type": "function"
    },
    {
      "inputs": [
        {
          "internalType": "address",
          "name": "newImplementation",
          "type": "address"
        },
        {
          "internalType": "bytes",
          "name": "data",
          "type": "bytes"
        }
      ],
      "name": "upgradeToAndCall",
      "outputs": [],
      "stateMutability": "payable",
      "type": "function"
    },
    {
      "inputs": [
        {
          "internalType": "address",
          "name": "token",
          "type": "address"
        }
      ],
      "name": "withdrawClaimable",
      "outputs": [],
      "stateMutability": "nonpayable",
      "type": "function"
    },
    {
      "inputs": [
        {
          "internalType": "address",
          "name": "token",
          "type": "address"
        },
        {
          "internalType": "uint256",
          "name": "amount",
          "type": "uint256"
        }
      ],
      "name": "withdrawFees",
      "outputs": [],
      "stateMutability": "nonpayable",
      "type": "function"
    }
  ],
  "bytecode": "0x60a080604052346100c257306080525f516020615cca5f395f51905f525460ff8160401c166100b3576002600160401b03196001600160401b03821601610060575b604051615c0390816100c78239608051818181613c4b0152613d160152f35b6001600160401b0319166001600160401b039081175f516020615cca5f395f51905f525581527fc7f505b2f371ae2175ee4913f4499e1f2633a7b5936321eed1cdaeb6115181d290602090a15f80610041565b63f92ee8a960e01b5f5260045ffd5b5f80fdfe60806040526004361015610011575f80fd5b5f3560e01c8062a464d1146148ad57806301d9fcc91461482557806301ffc9a7146147cf57806308d186a0146146bf5780630f8f79591461466b5780631510f85a146145a7578063248a9ca31461458157806329bc34f0146142945780632ed6b75d146142685780632f2ff15d146142375780633015edc71461420557806335659fb8146141e857806336568abe146141a4578063389a93f81461414d5780633d7dc84a146140e75780633f4ba83a146140695780633fb814281461401957806347d2215914613f7d5780634c74ef9c14613f555780634f0df86514613ec45780634f1ef28614613c9f57806352d1902d14613c395780635a211c3214613b235780635c975abb14613af55780635ea36b2d14613ab157806360dded111461372e57806360e49e441461370757806360fffce81461352f57806361d027b3146135085780636b292e70146132b85780636c275a0d1461305557806371c34a3414612e4657806375b238fc14612e1f578063787dce3d14612dba5780637f00cb3514612cfd57806380b2edd814612cb357806383be499a14612a545780638456cb59146129e357806385d60ec6146126d057806389b225421461267d5780638abf7ff1146125e957806391d1485414612594578063933f4eef14612553578063966d1f1d146125365780639a6c4c0c146123c35780639bf437df1461237d578063a217fddf14612363578063a461dc6d14611ec0578063a4ba807114611d77578063a5c1674e14611c89578063ad3b1b4714611b72578063ad3cb1cc14611b14578063bbf0457a14611a3d578063bfadc8f914611a13578063c2b7b86814611970578063cfeffc7114611109578063d547741f146110d1578063e05e05e2146110aa578063f1c4f0af14610f80578063f3ad65f414610f58578063f3ee48bb14610ed7578063f60d22ca14610dad578063f6882f6314610c34578063f7e5e9cd14610a80578063f81eb2f71461078d578063f8c8765e146104f5578063f951fbad146104235763fd263f7b14610304575f80fd5b3461041f57606036600319011261041f57600435610320614ae4565b906044359161032d61502e565b815f52600960205260405f205415610410575f828152600960209081526040808320600e8352818420600390910180546001600160a01b03168086529190935292205490949192909190828211610401577fdcb617f0d761c10fef99546e0228867e9b0d34036af551f2cc6203b017ac4872936103ac83602095614db8565b5f878152600e865260408082206001600160a01b039485168352875280822092909255928216808452600d86528184209854909216835296845295902080546103f6908390614dc5565b9055604051908152a3005b63162908e360e11b5f5260045ffd5b63223da47360e21b5f5260045ffd5b5f80fd5b3461041f57602036600319011261041f5760043561043f614fe5565b805f52600960205260405f20541561041057805f52600960205260405f2060128101805460ff81166104e65760ff600f8401541661047c81614b1a565b601081149081156104d2575b506104c35760019060ff19161790556013429101557f2baeb19dd4781c77dafd82d1a22b7ac4f6ca38cfb10a1135ff41a3b4428a38ed5f80a2005b6372c24c3560e01b5f5260045ffd5b601191506104df81614b1a565b1485610488565b63e231c28f60e01b5f5260045ffd5b3461041f57608036600319011261041f5761050e614ace565b610516614ae4565b6044356001600160a01b0381169081900361041f57606435906001600160a01b03821680830361041f575f516020615bae5f395f51905f5254604081901c60ff161595906001600160401b03811680159081610785575b600114908161077b575b159081610772575b50610763576001600160401b031981166001175f516020615bae5f395f51905f52558661073b575b506001600160a01b031693841561072c576001600160a01b031690811561072c57821561072c571561072c576106d3936105df615896565b6105e7615896565b60016004819055600680546001600160a01b0319908116939093178155600780548416949094179093555f805490921693909317815560086020526203f4805f516020615a4e5f395f51905f528190555f516020615a2e5f395f51905f528190556202a3005f516020615a0e5f395f51905f528190557f625b35f5e76f098dd7c3a05b10e2e5e78a4a01228d60c3b143426cdf36d26455919091555f516020615b8e5f395f51905f528190555f516020615aee5f395f51905f528190559190525f51602061596e5f395f51905f5255603290556106c381615563565b506106cd816155d9565b50615659565b506106da57005b60ff60401b195f516020615bae5f395f51905f5254165f516020615bae5f395f51905f52557fc7f505b2f371ae2175ee4913f4499e1f2633a7b5936321eed1cdaeb6115181d2602060405160018152a1005b63e6c4247b60e01b5f5260045ffd5b6001600160481b0319166001600160401b01175f516020615bae5f395f51905f5255866105a7565b63f92ee8a960e01b5f5260045ffd5b9050158861057f565b303b159150610577565b88915061056d565b3461041f57602036600319011261041f576004356107a9615806565b805f52600960205260405f20541561041057805f52600960205260ff601260405f200154166104e6575f81815260096020526040902060168101546001600160a01b03168015610a715760178201544211610a62573314610a535760028101546001600160a01b03163314159081610a3b575b506104c357807f579e90f7cabad8d77316c92a503862cb4783a203648db82f5b2d35fd73389d955f80a25f815f52600960205260405f20600f8101805490601160ff83169260ff191617905581545f52600c6020525f604081205561088081614b1a565b600e8114908115610a27575b506109c0575b825f52600b60205260405f20600681019060ff825416610972575b505060148101908154918215158061095c575b6108fe575b50505080604051916108ea575060208160035f516020615aae5f395f51905f529352a2005b634e487b7160e01b81526021600452602490fd5b6015820180546001600160a01b039081165f908152600d6020908152604080832060039097015490931682529490945283208054939550909385936109439190614dc5565b90555580546001600160a01b03191690558280806108c5565b5060158201546001600160a01b031615156108c0565b600181015490546001600160a01b039081165f908152600d602090815260408083206003880154909416835292905220805490916109af91614dc5565b9055805460ff1916905583806108ad565b825f52601060205260405f205f80526020526109e560405f2054600b83015490614dc5565b60028201546001600160a01b039081165f908152600d60209081526040808320600387015490941683529290522080549091610a2091614dc5565b9055610892565b600f9150610a3481614b1a565b148461088c565b600101546001600160a01b031633141590508261081c565b636081c93760e01b5f5260045ffd5b636124f5e360e11b5f5260045ffd5b63d87db87b60e01b5f5260045ffd5b3461041f57602036600319011261041f57600435610a9c615806565b805f52600960205260405f20541561041057805f52600960205260ff601260405f200154166104e657805f52600960205260405f20600f810160ff815416610ae381614b1a565b610aec81614b1a565b6005600a821491141580610c2c575b6104c357601083019182544211610c1d5760018060a01b03600654165f8554602460405180948193631cab5c9d60e31b835260048301525afa8015610c1257610120915f91610bf0575b500180516001600160a01b031615610be157516001600160a01b03163303610bd257610b789115610bca57600b90614dd2565b60015f5260086020525f516020615a2e5f395f51905f5254610b9a9042614dc5565b90555f601182015554907f173620804848de4def17bad4f232db2cda858a822ae975c722b97cf0fe2c1bfa5f80a3005b600690614dd2565b631d3c442d60e21b5f5260045ffd5b6382bcaa3b60e01b5f5260045ffd5b610c0c91503d805f833e610c048183614b3f565b810190614c23565b87610b45565b6040513d5f823e3d90fd5b63839ec5c560e01b5f5260045ffd5b508015610afb565b3461041f57610c4236614ab8565b610c4a615806565b815f52600960205260405f20541561041057815f52600960205260ff601260405f200154166104e6575f82815260096020526040902060018101546001600160a01b03163303610d9e57600f810191600760ff845416610ca981614b1a565b036104c3576010820180544211610d8f5781158015610d7b575b610401577f3ecbc4d085035a7e1b9eb639b1b2e563cb0b7754fe8fe1e12afd903edb3bc40993828460046020960190815483818110610d2d575b50505055600960ff1982541617905560025f5260088352610d2260405f205442614dc5565b9055604051908152a2005b610d3691614db8565b60028201546001600160a01b039081165f908152600d8a526040808220600390950154909216815292895290912080549091610d7191614dc5565b9055888083610cfd565b50676765c793fa10079d601a1b8211610cc3565b63c052877160e01b5f5260045ffd5b6303e2f0f360e51b5f5260045ffd5b3461041f57602036600319011261041f57600435610dc9615806565b805f52600960205260405f20541561041057805f52600960205260ff601260405f200154166104e657805f52600960205260405f20600f8101805491600760ff8416610e1481614b1a565b036104c35760018101546001600160a01b031633141580610ec0575b6104c35760100191825480421115610e99575b5060089060ff191617905562093a80420190814211610e85575533907ffc2989e9448442378c968e63f5573979bc5ed860dc5c48e906404733bd05d62a5f80a3005b634e487b7160e01b5f52601160045260245ffd5b610eb49060045f52600860205260405f205460011c90614db8565b42106104c35784610e43565b5060028101546001600160a01b0316331415610e30565b3461041f57602036600319011261041f57610ef0614ace565b610ef861508a565b6001600160a01b0316801561072c57600280546001600160a01b03191682179055426202a3008101908110610e85576020817f686003c563ac6d53a1e0d2aea06fc73beb941f8f05f3463b33b607717aabc67f92600355604051908152a2005b3461041f575f36600319011261041f576007546040516001600160a01b039091168152602090f35b3461041f57604036600319011261041f57600435610f9c614ae4565b90610fa561502e565b805f52600960205260405f20541561041057805f52600960205260405f2091601060ff600f85015416610fd781614b1a565b036104c357600b830190815491821561109b57600c85019283549260ff841661108c57600d87015442111561107d5760ff199093166001179093556001600160a01b039182165f818152600d60209081526040808320600390990154909516825296875292909220805492957fc5b97e8782f0398548aef2871b18abaa21039a2820a3460d4b5c06a2bbe769ed9490936110719190614dc5565b905554604051908152a3005b63d50a31bb60e01b5f5260045ffd5b631f815d9160e11b5f5260045ffd5b635af3421960e01b5f5260045ffd5b3461041f575f36600319011261041f5760206040515f516020615b4e5f395f51905f528152f35b3461041f57604036600319011261041f576111076004356110f0614ae4565b906111026110fd82614e4c565b6150d3565b61576a565b005b3461041f57604036600319011261041f576001600160401b036004351161041f576102406004353603600319011261041f576024356001600160401b03811161041f573660238201121561041f576001600160401b0360048201351161041f57366024826004013560051b8301011161041f5761118461502e565b6005545f198114610e8557600181016005556111eb60206111b061020460043501600435600401614f5b565b6111fd6111c861022460043501600435600401614f5b565b6040516305cef8bf60e31b81526060600482015296879586956064870191614f90565b84810360031901602486015291614f90565b60a460043501356044830152038173__$d9d5ca12ac0847b5930a2330ee53d4fb3d$__5af4908115610c12575f9161193e575b5061123f604460043501614fb4565b61124d606460043501614fb4565b61125b608460043501614fb4565b61126960e460043501614fb4565b61127861012460043501614fb4565b9061128861016460043501614fb4565b9261129a6101e4600435013542614dc5565b604051969095906001600160401b036103008901908111908911176117f157610300880160405260246004350135885260018060a01b0316602088015260018060a01b0316604087015260018060a01b0316606086015260a46004350135608086015260c4600435013560a086015260018060a01b031660c0850152610104600435013560e085015260018060a01b0316610100840152610144600435013561012084015260018060a01b03166101408301526101a460043501356101608301525f6101808301525f6101a08301526101c460043501356101c083015260056101e08301526102008201525f6102208201525f6102408201525f6102608201525f6102808201525f6102a08201525f6102c08201525f6102e0820152600183015f52600960205260176102e060405f20928051845560018060a01b03602082015116600185019060018060a01b031660018060a01b031982541617905560018060a01b03604082015116600285019060018060a01b031660018060a01b031982541617905560018060a01b03606082015116600385019060018060a01b031660018060a01b03198254161790556080810151600485015560a0810151600585015560018060a01b0360c082015116600685019060018060a01b031660018060a01b031982541617905560e0810151600785015560018060a01b0361010082015116600885019060018060a01b031660018060a01b0319825416179055610120810151600985015560018060a01b0361014082015116600a85019060018060a01b031660018060a01b0319825416179055610160810151600b8501556115096101808201511515600c8601614f4a565b6101a0810151600d8501556101c0810151600e85015561153a6101e082015161153181614b1a565b600f8601614dd2565b61020081015160108501556102208101516011850155611564610240820151151560128601614f4a565b610260810151601385015561028081015160148501556102a08101516015850180546001600160a01b039283166001600160a01b0319918216179091556102c083015160168701805491909316911617905501519101555f5b8181106118a8575f84843682900360a219015b826004013584101561180557600182015f52600a60205260405f209360248160051b850101358281121561041f578401948054600160401b8110156117f15761161e91600182018155614b7d565b9590956117de576024810135604219368390030181121561041f5781016024019586356001600160401b03811161041f57803603602089011361041f578154600181811c911680156117d4575b60208210146117c057601f811161177b575b505f601f8211600114611706576116db92826084936002936001999a9b9c5f926116f8575b50505f19600383901b1c191690881b1781555b60448501358782015501926116d56116cf60648301614fd8565b85614f4a565b01614fd8565b815461ff00191690151560081b61ff0016179055019291906115d0565b602092500101358c806116a2565b601f19821690835f5260205f20915f5b8181106117615750836002936001999a9b9c6116db97946084978c9510611745575b505050811b0181556116b5565b01602001355f19600384901b60f8161c191690558c8080611738565b9192602060018192828f8801013581550194019201611716565b825f5260205f20601f830160051c810191602084106117b6575b601f0160051c01905b8181106117ab575061167d565b5f815560010161179e565b9091508190611795565b634e487b7160e01b5f52602260045260245ffd5b90607f169061166b565b634e487b7160e01b5f525f60045260245ffd5b634e487b7160e01b5f52604160045260245ffd5b602082602460043501355f52600c82526001810160405f205560018060a01b03611833606460043501614fb4565b166040519060246004350135600184017f5ba2d3aaa8e1e5bbbd9f867713ff8003713fc0f7e68663f60f68f2e151f4c7e75f80a46001600160a01b0361187d600435606401614fb4565b16815260246004350135905f516020615a8e5f395f51905f52846001850192a3600160405191018152f35b806119386118cd6001936118c761020460043501600435600401614f5b565b90614fc8565b3560026118e9846118c761022460043501600435600401614f5b565b35604051926118f784614b24565b83526020830190815260408301905f82528689015f52601060205260405f2060ff808816165f5260205260405f209351845551868401555115159101614f4a565b016115bd565b90506020813d602011611968575b8161195960209383614b3f565b8101031261041f575183611230565b3d915061194c565b3461041f57602036600319011261041f5760043561198c614fe5565b600260045414611a04576002600455805f52600960205260405f20541561041057805f526009602052600f60ff8160405f200154166119ca81614b1a565b036104c357806119fd917f57cce005d496355471bb5269f1dea3d6c81b6ac14c1d74ba28aefb022357013b5f80a2615119565b6001600455005b6306fda65d60e31b5f5260045ffd5b3461041f57602036600319011261041f576004355f52600c602052602060405f2054604051908152f35b3461041f57611a4b36614ab8565b90611a54615806565b600260045414611a04576002600455805f52600960205260405f20541561041057805f52600960205260405f20601060ff600f83015416611a9481614b1a565b036104c35760028101546001600160a01b03163303611b055782156104015760030190611ace8360018060a01b038454163090339061582d565b5f908152600e6020908152604080832093546001600160a01b031683529290522080549091611afc91614dc5565b90556001600455005b631f3cbf7b60e31b5f5260045ffd5b3461041f575f36600319011261041f576040805190611b338183614b3f565b600582526020820191640352e302e360dc1b83528151928391602083525180918160208501528484015e5f828201840152601f01601f19168101030190f35b3461041f57604036600319011261041f57611b8b614ace565b60243590611b9761508a565b600260045414611a045760026004558115611c7a575f546001600160a01b0316801561072c57805f52600d60205260405f2060018060a01b0383165f5260205260405f2054808411611c645783611bed91614db8565b5f918252600d602090815260408084206001600160a01b0395861680865292528320919091559054909291611c2591839116846154e2565b5f546040519182526001600160a01b0316907f8fc241308ffc17817e6a8c6a52a8f7cd4931dfca0c539fd35a630311c7e4c57b90602090a36001600455005b8363ac28c08360e01b5f5260045260245260445ffd5b630686827b60e51b5f5260045ffd5b3461041f57602036600319011261041f57600435611ca5615806565b805f52600960205260405f20541561041057805f52600960205260ff601260405f200154166104e657805f52600960205260405f20600f810190815490600e60ff8316611cf181614b1a565b036104c3576010810154421015611d685760028101546001600160a01b03163314159081611d50575b506104c35760ff1916600f17905533907f84a477df8a28a4276ca6dee4458a06c3015f30c477d9c949ede4e13ff8a552b45f80a3005b600101546001600160a01b0316331415905084611d1a565b63234c0ffd60e21b5f5260045ffd5b3461041f57602036600319011261041f57600435805f52600960205260405f20541561041057805f52600960205260405f20601060ff600f83015416611dbc81614b1a565b036104c357600b810190815490811561109b57600c8101805460ff811661108c5760018060a01b03600654165f8454602460405180948193631cab5c9d60e31b835260048301525afa8015610c1257610120915f91611ea6575b500180516001600160a01b031615610be157516001600160a01b03163303610bd25760ff19166001179055335f908152600d602090815260408083206003909401546001600160a01b031683529290522080549091611e7491614dc5565b905554906040519182527f68afe7ecfeac2108bf74c8d4bb1d8c04f3799bd71673fa3e10e274e1cbf28a7960203393a3005b611eba91503d805f833e610c048183614b3f565b88611e16565b3461041f57606036600319011261041f57600435602435600481101561041f5760443591611eec615806565b805f52600960205260405f20541561041057805f52600960205260ff601260405f200154166104e657805f52600960205260405f2090600f82019283549260ff841693611f3885614b1a565b611f4185614b1a565b6006600b86149514158061235b575b6104c3576002820180549093906001600160a01b03163303611b0557601083019788544211610d8f5760118401805461234c57811561072c5782156104015755847f8c0f79cb43223fbd00b73d4bbc8a0f62f1f2d6ddb3a6b650d90d0ee3557f683a6020604051848152a26001810361202c5750505050505f14611fff57805460ff1916600d17905560055f5260086020525f516020615aee5f395f51905f5254611ffb9042614dc5565b9055005b805460ff1916600917905560025f5260086020525f516020615a0e5f395f51905f5254611ffb9042614dc5565b939692959194936002036122f357505050806122e6575b61222b575b50505f815f52600960205260405f20600f8101805490601160ff83169260ff191617905581545f52600c6020525f604081205561208481614b1a565b600e8114908115612217575b506121b0575b825f52600b60205260405f20600681019060ff825416612162575b505060148101908154918215158061214c575b6120ee575b50505080604051916108ea575060208160055f516020615aae5f395f51905f529352a2005b6015820180546001600160a01b039081165f908152600d6020908152604080832060039097015490931682529490945283208054939550909385936121339190614dc5565b90555580546001600160a01b03191690558280806120c9565b5060158201546001600160a01b031615156120c4565b600181015490546001600160a01b039081165f908152600d6020908152604080832060038801549094168352929052208054909161219f91614dc5565b9055805460ff1916905583806120b1565b825f52601060205260405f205f80526020526121d560405f2054600b83015490614dc5565b60028201546001600160a01b039081165f908152600d6020908152604080832060038701549094168352929052208054909161221091614dc5565b9055612096565b600f915061222481614b1a565b1484612090565b6014810180549060c882029180830460c81481151715610e85576015946122586127105f95048093614db8565b90546001600160a01b039081168552600d60209081526040808720600389018054909416885290915285208054919290916122939190614dc5565b905560018501546001600160a01b039081168552600d6020908152604080872093549092168652919091528320805490916122cd91614dc5565b9055550180546001600160a01b03191690558180612048565b5060148101541515612043565b60ff1916600717905560045f5260086020525f516020615b8e5f395f51905f52549093506123249250905042614dc5565b90557fb4a770b2db334eaf0ab77f3470dc51ac5bcd10a3033f309fd67a6385bd761e0b5f80a2005b63c0f9cf3b60e01b5f5260045ffd5b508415611f50565b3461041f575f36600319011261041f5760206040515f8152f35b3461041f57602036600319011261041f5760043561239961502e565b600260045414611a04576002600455805f52600960205260405f205415610410576119fd90615119565b3461041f57602036600319011261041f576004356123df615806565b805f52600960205260405f20541561041057805f52600960205260ff601260405f200154166104e657805f52600960205260405f2060ff600f8201541661242581614b1a565b60108114908115612521575b811561250c575b81156124f8575b506104c35760028101546001600160a01b0316331415806124e1575b6104c3576016810180546001600160a01b03166124d25780546001600160a01b0319163317905560065f5260086020525f51602061596e5f395f51905f52546017906124a79042614dc5565b91015533907f7457f5ceee8e52b1ef56c933d90340dfbda61ea10b7e9be55550e9435d91bc775f80a3005b63ed8dd1bd60e01b5f5260045ffd5b5060018101546001600160a01b031633141561245b565b600f915061250581614b1a565b148361243f565b905061251781614b1a565b600e811490612438565b905061252c81614b1a565b6011811490612431565b3461041f575f36600319011261041f576020600554604051908152f35b3461041f57602036600319011261041f5761256c614ace565b61257461508a565b6001600160a01b03165f908152600f60205260409020805460ff19169055005b3461041f57604036600319011261041f576125ad614ae4565b6004355f525f516020615ace5f395f51905f5260205260405f209060018060a01b03165f52602052602060ff60405f2054166040519015158152f35b3461041f57604036600319011261041f57612602614afa565b5f6040805161261081614b24565b82815282602082015201526004355f52601060205260ff60405f2091165f52602052606060405f2060405161264481614b24565b815491828252604060ff600260018401549360208601948552015416920191151582526040519283525160208301525115156040820152f35b3461041f57602036600319011261041f5760043561269961502e565b805f52600960205260405f205415610410575f9081526009602052604081206016810180546001600160a01b031916905560170155005b3461041f57602036600319011261041f576004356126ec615806565b600260045414611a04576002600455805f52600960205260405f20541561041057805f52600960205260ff601260405f200154166104e657805f52600960205260405f2090600f8201600d60ff82541661274581614b1a565b036104c35760028301546001600160a01b03163303611b05576010830190815442116129d45760075460405163023aa9ab60e61b81527fd8e6c8b39dbc70333b42d059fa436cf2679722325c0f6ed7e701df0b05a637c8600482015290602090829060249082906001600160a01b03165afa908115610c12575f91612995575b50604051636896470560e11b815290602090829060049082906001600160a01b03165afa908115610c12575f9161295b575b501561294c57825f52601060205260405f205f805260205260405f205493612823600b82015486614dc5565b945f90601583013360018060a01b03825416148061293f575b6128f4575b50508086116128c8575b5050825f52601060205260405f205f8052602052600260405f2001600160ff19825416179055600e60ff1982541617905560035f52600860205261289360405f205442614dc5565b90556040519182527fc8fceb94d8cfaf3010a32f39dbdb0c0b361b10cdd6c7299d60376c85ff61283760203393a36001600455005b6128e36128ed92600360018060a01b03910154169187614db8565b903090339061582d565b848061284b565b601484018054935090918084111561293557612912905b8094614db8565b80915515612921575b80612841565b80546001600160a01b03191690558661291b565b506129128361290b565b506014840154151561283c565b6304d54fbf60e41b5f5260045ffd5b90506020813d60201161298d575b8161297660209383614b3f565b8101031261041f5761298790614c16565b856127f7565b3d9150612969565b90506020813d6020116129cc575b816129b060209383614b3f565b8101031261041f5760206129c5600492614bf0565b91506127c5565b3d91506129a3565b633833dfbb60e01b5f5260045ffd5b3461041f575f36600319011261041f576129fb61508a565b612a03615806565b600160ff195f516020615b2e5f395f51905f525416175f516020615b2e5f395f51905f52557f62e78cea01bee320cd4e420270b5ea74000d11b0c9f74754ebdbfc544b05a2586020604051338152a1005b3461041f57602036600319011261041f57600435612a70615806565b805f52600960205260405f20541561041057805f52600960205260ff601260405f200154166104e6575f81815260096020526040902060018101546001600160a01b03163303610d9e5760ff600f600792015416612acd81614b1a565b036104c3575f815f52600960205260405f20600f8101805490601160ff83169260ff191617905581545f52600c6020525f6040812055612b0c81614b1a565b600e8114908115612c9f575b50612c38575b825f52600b60205260405f20600681019060ff825416612bea575b5050601481019081549182151580612bd4575b612b76575b50505080604051916108ea575060208160025f516020615aae5f395f51905f529352a2005b6015820180546001600160a01b039081165f908152600d602090815260408083206003909701549093168252949094528320805493955090938593612bbb9190614dc5565b90555580546001600160a01b0319169055828080612b51565b5060158201546001600160a01b03161515612b4c565b600181015490546001600160a01b039081165f908152600d60209081526040808320600388015490941683529290522080549091612c2791614dc5565b9055805460ff191690558380612b39565b825f52601060205260405f205f8052602052612c5d60405f2054600b83015490614dc5565b60028201546001600160a01b039081165f908152600d60209081526040808320600387015490941683529290522080549091612c9891614dc5565b9055612b1e565b600f9150612cac81614b1a565b1484612b18565b3461041f57602036600319011261041f57612ccc614ace565b612cd461508a565b6001600160a01b0316801561072c575f908152600f60205260409020805460ff19166001179055005b3461041f57602036600319011261041f57600435612d19614fe5565b805f52600960205260405f20541561041057805f52600960205260405f20601281019081549160ff831615612dab575f9260138301926010612d5c855442614db8565b91019081549081612d98575b50505060ff19169055557f9d9b6c6fd020eade06cab024fe4853c17d4ee689fa225e44b23c82908c1529205f80a2005b612da191614dc5565b9055858080612d68565b634c22487160e01b5f5260045ffd5b3461041f57602036600319011261041f57600435612dd661508a565b6107d08111612e10576020817fd10d75876659a287a59a6ccfa2e3fff42f84d94b542837acd30bc184d562de4092600155604051908152a1005b63499fddb160e01b5f5260045ffd5b3461041f575f36600319011261041f5760206040515f516020615b6e5f395f51905f528152f35b3461041f57602036600319011261041f57600435612e6261502e565b805f52600960205260405f205415610410575f815f52600960205260405f20600f8101805490601160ff83169260ff191617905581545f52600c6020525f6040812055612eae81614b1a565b600e8114908115613041575b50612fda575b825f52600b60205260405f20600681019060ff825416612f8c575b5050601481019081549182151580612f76575b612f18575b50505080604051916108ea575060208160075f516020615aae5f395f51905f529352a2005b6015820180546001600160a01b039081165f908152600d602090815260408083206003909701549093168252949094528320805493955090938593612f5d9190614dc5565b90555580546001600160a01b0319169055828080612ef3565b5060158201546001600160a01b03161515612eee565b600181015490546001600160a01b039081165f908152600d60209081526040808320600388015490941683529290522080549091612fc991614dc5565b9055805460ff191690558380612edb565b825f52601060205260405f205f8052602052612fff60405f2054600b83015490614dc5565b60028201546001600160a01b039081165f908152600d6020908152604080832060038701549094168352929052208054909161303a91614dc5565b9055612ec0565b600f915061304e81614b1a565b1484612eba565b3461041f57602036600319011261041f57600435613071615806565b805f52600960205260405f20541561041057805f52600960205260ff601260405f200154166104e6575f81815260096020526040902060018101549091906001600160a01b03163303610d9e57600f8201600960ff8254166130d281614b1a565b036104c357815f52600b60205260405f20906006820160ff815416156104c35760018060a01b03600654165f8654602460405180948193631cab5c9d60e31b835260048301525afa908115610c12575f9161329e575b5060048401545f9181151580613291575b61325b575b50508354600287810180546001600160a01b03199081166001600160a01b0394851617825560018801805460048c01559288015460098b01556003880154600a808c01805490931691909516179055600b890193909355600c8801805460ff199081169091558554169091179093555f8052600860209081525f516020615a4e5f395f51905f52545f516020615a8e5f395f51905f52959194929392906131e59042614dc5565b60108901555f601189018190559054601489015590546015880180546001600160a01b0319166001600160a01b03928316179055825460ff191690925591546040519116959091869086907f8097ce87ac98d8d86d9f179c158a93129d2a76c4eed66712296411d027f14b7e9080a354948152a3005b6080919493925001518060021b9080820460041490151715610e8557838102938185041490151715610e8557909183602061313e565b5060808101511515613139565b6132b291503d805f833e610c048183614b3f565b86613128565b3461041f57602036600319011261041f576004356132d4614fe5565b805f52600960205260405f20541561041057805f52600960205260ff600f60405f2001541661330281614b1a565b601081149081156134f4575b506104c3575f815f52600960205260405f20600f8101805490601160ff83169260ff191617905581545f52600c6020525f604081205561334d81614b1a565b600e81149081156134e0575b50613479575b825f52600b60205260405f20600681019060ff82541661342b575b5050601481019081549182151580613415575b6133b7575b50505080604051916108ea5750602081600e5f516020615aae5f395f51905f529352a2005b6015820180546001600160a01b039081165f908152600d6020908152604080832060039097015490931682529490945283208054939550909385936133fc9190614dc5565b90555580546001600160a01b0319169055828080613392565b5060158201546001600160a01b0316151561338d565b600181015490546001600160a01b039081165f908152600d6020908152604080832060038801549094168352929052208054909161346891614dc5565b9055805460ff19169055838061337a565b825f52601060205260405f205f805260205261349e60405f2054600b83015490614dc5565b60028201546001600160a01b039081165f908152600d602090815260408083206003870154909416835292905220805490916134d991614dc5565b905561335f565b600f91506134ed81614b1a565b1484613359565b6011915061350181614b1a565b148261330e565b3461041f575f36600319011261041f575f546040516001600160a01b039091168152602090f35b3461041f5760c036600319011261041f5760043561354b614ae4565b6084356001600160a01b03811692916044359184900361041f5761356d61502e565b825f52600960205260405f20541561041057825f52600960205260405f20600960ff600f8301541661359e81614b1a565b036104c357601081015442116104c357835f52600b60205260405f209060ff6006830154166136be575b50506040519160e08301916001600160401b038311848410176117f15760409283526001600160a01b03908116808552602080860184815260643587870190815260608801998a5260a435608089019081524260a08a01908152600160c08b018181525f8d8152600b88529a909a209a518b549089166001600160a01b0319918216178c559451908b0155915160028a01559951600389018054919096169216919091179093559651600486015590516005850155915191947f2ca8db4fa79ad716886fc0176a9991732efa793908dfe8a5389cdc28e09145df9390926136b59190151590600601614f4a565b604051908152a3005b600182015491546001600160a01b039081165f908152600d602090815260408083206003909501549093168252929092529020805490916136fe91614dc5565b905584806135c8565b3461041f575f36600319011261041f5760206040515f516020615a6e5f395f51905f528152f35b3461041f57602036600319011261041f5760043561374a615806565b805f52600960205260405f20541561041057805f52600960205260ff601260405f200154166104e657805f52600960205260405f2060ff600f8201541661379081614b1a565b6005600a8214916137a081614b1a565b141580613aa9575b6104c3576006548254604051631cab5c9d60e31b81526004810182905290915f90829060249082906001600160a01b03165afa8015610c1257610120915f91613a8f575b500180516001600160a01b031615610be157516001600160a01b03163303610bd257837ffd2ee1303442fdcd75ef0f691a0821035ed5505126ccc8a813b39ca0cebe5c2f5f80a380613a82575b613a20575b505f815f52600960205260405f20600f8101805490601160ff83169260ff191617905581545f52600c6020525f604081205561387981614b1a565b600e8114908115613a0c575b506139a5575b825f52600b60205260405f20600681019060ff825416613957575b5050601481019081549182151580613941575b6138e3575b50505080604051916108ea575060208160045f516020615aae5f395f51905f529352a2005b6015820180546001600160a01b039081165f908152600d6020908152604080832060039097015490931682529490945283208054939550909385936139289190614dc5565b90555580546001600160a01b03191690558280806138be565b5060158201546001600160a01b031615156138b9565b600181015490546001600160a01b039081165f908152600d6020908152604080832060038801549094168352929052208054909161399491614dc5565b9055805460ff1916905583806138a6565b825f52601060205260405f205f80526020526139ca60405f2054600b83015490614dc5565b60028201546001600160a01b039081165f908152600d60209081526040808320600387015490941683529290522080549091613a0591614dc5565b905561388b565b600f9150613a1981614b1a565b1484613885565b5f601482018054601584019360018060a01b038554168452600d6020526040842090600360018060a01b039101541660018060a01b03168452602052613a6b60408420918254614dc5565b90555580546001600160a01b03191690558161383e565b5060148101541515613839565b613aa391503d805f833e610c048183614b3f565b866137ec565b5080156137a8565b3461041f57604036600319011261041f57613aca614ae4565b6004355f52600e60205260405f209060018060a01b03165f52602052602060405f2054604051908152f35b3461041f575f36600319011261041f57602060ff5f516020615b2e5f395f51905f5254166040519015158152f35b3461041f57602036600319011261041f57600435613b3f615806565b805f52600960205260405f20541561041057805f52600960205260ff601260405f200154166104e6575f81815260096020526040902060018101546001600160a01b03163303610d9e57600960ff600f83015416613b9c81614b1a565b036104c357815f52600b60205260405f2090600682019060ff825416156104c357600183015483546001600160a01b039081165f908152600d6020908152604080832060039096015490931682529390935290912080549091613bfe91614dc5565b9055805460ff19169055546001600160a01b0316907f9598c2bbda2be06d3d153b44d4049da36b22f2dc3d46142eb6255f6613a65b965f80a3005b3461041f575f36600319011261041f577f00000000000000000000000000000000000000000000000000000000000000006001600160a01b03163003613c905760206040515f5160206159ee5f395f51905f528152f35b63703e46dd60e11b5f5260045ffd5b604036600319011261041f57613cb3614ace565b602435906001600160401b03821161041f573660238301121561041f578160040135613cde81614b62565b92613cec6040519485614b3f565b818452366024838301011161041f57815f9260246020930183870137840101526001600160a01b037f000000000000000000000000000000000000000000000000000000000000000016308114908115613ea2575b50613c9057335f9081525f5160206159ce5f395f51905f52602052604090205460ff1615613e8b576040516352d1902d60e01b81526001600160a01b0382169290602081600481875afa5f9181613e57575b50613dab5783634c9c8ce360e01b5f5260045260245ffd5b805f5160206159ee5f395f51905f52859203613e455750823b15613e33575f5160206159ee5f395f51905f5280546001600160a01b031916821790557fbc7cd75a20ee27fd9adebab32041f755214dbc6bffa90cc0225b39da2e5c2d3b5f80a2805115613e1b57611107916158c1565b505034613e2457005b63b398979f60e01b5f5260045ffd5b634c9c8ce360e01b5f5260045260245ffd5b632a87526960e21b5f5260045260245ffd5b9091506020813d602011613e83575b81613e7360209383614b3f565b8101031261041f57519085613d93565b3d9150613e66565b63e2517d3f60e01b5f52336004525f60245260445ffd5b5f5160206159ee5f395f51905f52546001600160a01b03161415905083613d41565b3461041f57602036600319011261041f57610100613ee3600435614e6a565b60e06040519180511515835260018060a01b03602082015116602084015260018060a01b03604082015116604084015260018060a01b0360608201511660608401526080810151608084015260a081015160a084015260c0810151613f4781614b1a565b60c0840152015160e0820152f35b3461041f575f36600319011261041f576006546040516001600160a01b039091168152602090f35b3461041f575f36600319011261041f57613f9561508a565b600354801561400a574210613ffb575f8054600280546001600160a01b038082166001600160a01b0319808616821787559092169092556003849055929116907f0c5d18caa145415182f8ad3d2563da586609cec04ac8505274d87bc43f00b4a49080a3005b6357f4ad8b60e01b5f5260045ffd5b6315090c2d60e01b5f5260045ffd5b3461041f57604036600319011261041f57614032614ace565b61403a614ae4565b6001600160a01b039182165f908152600d60209081526040808320949093168252928352819020549051908152f35b3461041f575f36600319011261041f5761408161508a565b5f516020615b2e5f395f51905f525460ff8116156140d85760ff19165f516020615b2e5f395f51905f52557f5db9ee0a495bf2e6ff9c91a7834c1ba4fdd244a5e8aa4e537bd38aeae4b073aa6020604051338152a1005b638dfc202b60e01b5f5260045ffd5b3461041f57602036600319011261041f5760043561410361502e565b805f52600960205260405f205415610410575f52600960205260405f20600f8101600d60ff1982541617905560055f526008602052601061414860405f205442614dc5565b910155005b3461041f57604036600319011261041f57614166614b0a565b6024359061417261508a565b600a82106141955760ff1660068111610401575f52600860205260405f20555f80f35b63296d383360e01b5f5260045ffd5b3461041f57604036600319011261041f576141bd614ae4565b336001600160a01b038216036141d9576111079060043561576a565b63334bd91960e11b5f5260045ffd5b3461041f575f36600319011261041f576020600154604051908152f35b3461041f57602036600319011261041f5760ff614220614b0a565b165f526008602052602060405f2054604051908152f35b3461041f57604036600319011261041f57611107600435614256614ae4565b906142636110fd82614e4c565b6156d9565b3461041f575f36600319011261041f57604060018060a01b036002541660035482519182526020820152f35b3461041f57604036600319011261041f576004356142b0614afa565b6142b861502e565b815f52600960205260405f2054156104105760ff16600f811015908161437757825f52600960205260405f20600f8101805490601160ff83169260ff191617905581545f52600c6020525f604081205561431181614b1a565b600e811490811561456d575b50614506575b835f52600b60205260405f20600681019060ff8254166144b8575b505060148101805491821515806144a2575b61438b575b5050506040519161437757816020915f516020615aae5f395f51905f529352a2005b634e487b7160e01b5f52602160045260245ffd5b5f94509091600a840361445657508154916101f48302908382046101f41484151715610e85576015936143c46127105f94048092614db8565b848601546001600160a01b039081168552600d60209081526040808720600389018054909416885290915285208054919290916144019190614dc5565b905560018501546001600160a01b039081168552600d60209081526040808720935490921686529190915283208054909161443b91614dc5565b90555b550180546001600160a01b0319169055838080614355565b6015925f9160018060a01b0385850154168352600d6020526040832060018060a01b0360038601541660018060a01b0316845260205261449b60408420918254614dc5565b905561443e565b5060158101546001600160a01b03161515614350565b600181015490546001600160a01b039081165f908152600d602090815260408083206003880154909416835292905220805490916144f591614dc5565b9055805460ff19169055848061433e565b835f52601060205260405f205f805260205261452b60405f2054600b83015490614dc5565b60028201546001600160a01b039081165f908152600d6020908152604080832060038701549094168352929052208054909161456691614dc5565b9055614323565b600f915061457a81614b1a565b148561431d565b3461041f57602036600319011261041f57602061459f600435614e4c565b604051908152f35b3461041f57602036600319011261041f576145c0614ace565b600260045414611a04576002600455335f52600d60205260405f2060018060a01b0382165f5260205260405f205490811561465c57335f52600d60205260405f2060018060a01b0382165f526020525f604081205560018060a01b0316906146298133846154e2565b6040519081527f716942921e9b67ee05c4c2ffcf216f189086c9053b444c8928a49db4bdb1ae8e60203392a36001600455005b6312d37ee560e31b5f5260045ffd5b3461041f57602036600319011261041f5760c060ff61468b600435614dea565b9495919290936040519615158752151560208701521660408501526060840152608083015260018060a01b031660a0820152f35b3461041f576146cd36614ab8565b6146d561502e565b815f52600960205260405f20541561041057815f52600960205260405f209080614758575b50600f8101805460ff1916600917905560025f5260086020525f516020615a0e5f395f51905f525460109061472f9042614dc5565b9101557ff821d84aa1a441b5bb4ce3244bee2f2a91a73159f3163986392a59fdd288afb15f80a2005b676765c793fa10079d601a1b81116104015760048201805482818110614782575b505055826146fa565b61478b91614db8565b60028401546001600160a01b039081165f908152600d602090815260408083206003890154909416835292905220805490916147c691614dc5565b90558482614779565b3461041f57602036600319011261041f5760043563ffffffff60e01b811680910361041f57602090637965db0b60e01b8114908115614814575b506040519015158152f35b6301ffc9a760e01b14905082614809565b3461041f57602036600319011261041f57600435614841614fe5565b600260045414611a04576002600455805f52600960205260405f20541561041057805f52600960205260ff600f60405f2001541661487e81614b1a565b600e8114159081614898575b506104c3576119fd90615119565b600f91506148a581614b1a565b14158261488a565b3461041f576148bb36614ab8565b906148c4614fe5565b805f52600960205260405f20541561041057805f52600960205260405f20601060ff600f830154166148f581614b1a565b036104c357815f52600a60205260405f208054841015614aa9578361491991614b7d565b509060028201805460ff8160081c16614a9a5761ff001981166101001790915560ff1615614a875760018060a01b03600654165f8254602460405180948193631cab5c9d60e31b835260048301525afa8015610c1257610120915f91614a6d575b500180516001600160a01b031615610be157516001600160a01b03165b835f52600e602052600360405f2092019060018060a01b038254169260018060a01b0384165f52602052600160405f20549401908154809510610401577f8a7b03d7dda6d95d58f5cd28b28478861ccab393473b4181ae4d6ec30207dfea94604094875f52600e602052855f209060018060a01b03165f52602052614a20855f20918254614db8565b905581546001600160a01b039182165f818152600d6020908152878220965490941681529490925292849020805491939091614a5c9190614dc5565b9055549082519182526020820152a3005b614a8191503d805f833e610c048183614b3f565b8661497a565b60018101546001600160a01b0316614997565b631281aab960e01b5f5260045ffd5b63671a587360e01b5f5260045ffd5b604090600319011261041f576004359060243590565b600435906001600160a01b038216820361041f57565b602435906001600160a01b038216820361041f57565b6024359060ff8216820361041f57565b6004359060ff8216820361041f57565b6012111561437757565b606081019081106001600160401b038211176117f157604052565b601f909101601f19168101906001600160401b038211908210176117f157604052565b6001600160401b0381116117f157601f01601f191660200190565b8054821015614b96575f52600360205f20910201905f90565b634e487b7160e01b5f52603260045260245ffd5b81601f8201121561041f57805190614bc182614b62565b92614bcf6040519485614b3f565b8284526020838301011161041f57815f9260208093018386015e8301015290565b51906001600160a01b038216820361041f57565b519064ffffffffff8216820361041f57565b5190811515820361041f57565b60208183031261041f578051906001600160401b03821161041f57016102208183031261041f576040519161022083016001600160401b038111848210176117f1576040528151835260208201516001600160401b03811161041f5781614c8b918401614baa565b602084015260408201516001600160401b03811161041f5781614caf918401614baa565b604084015260608201516001600160401b03811161041f5781614cd3918401614baa565b60608401526080820151608084015260a082015160a084015260c082015160c084015260e082015160e0840152610100820151610100840152614d196101208301614bf0565b610120840152614d2c6101408301614c04565b610140840152614d3f6101608301614c04565b610160840152614d526101808301614c16565b610180840152614d656101a08301614c16565b6101a0840152614d786101c08301614c16565b6101c0840152614d8b6101e08301614c16565b6101e08401526102008201516001600160401b03811161041f57614daf9201614baa565b61020082015290565b91908203918211610e8557565b91908201809211610e8557565b90614ddc81614b1a565b60ff80198354169116179055565b5f52600960205260405f20805415614e3d5760ff6012820154169160ff600f8301541691614e1783614b1a565b6010810154601782015460169092015460019594939192916001600160a01b0390911690565b505f905f905f905f905f905f90565b5f525f516020615ace5f395f51905f52602052600160405f20015490565b60405190919061010081016001600160401b038111828210176117f1576040525f81525f60208201525f60408201525f60608201525f60808201525f60a08201525f60c08201525f60e082015280925f52600960205260405f2090815415614f45575060018084528101546001600160a01b039081166020850152600282015481166040850152600382015416606084015260048101546080840152600e81015460a0840152600f8101546010919060ff16614f2581614b1a565b614f2e81614b1a565b614f3781614b1a565b60c0850152015460e0830152565b925050565b9060ff801983541691151516179055565b903590601e198136030182121561041f57018035906001600160401b03821161041f57602001918160051b3603831361041f57565b81835290916001600160fb1b03831161041f5760209260051b809284830137010190565b356001600160a01b038116810361041f5790565b9190811015614b965760051b0190565b35801515810361041f5790565b335f9081525f51602061598e5f395f51905f52602052604090205460ff161561500a57565b63e2517d3f60e01b5f52336004525f516020615a6e5f395f51905f5260245260445ffd5b335f9081527fe102a084b8508bede6bf51c8b54b1c4d119a4a0e42216477c270f0353f96ae65602052604090205460ff161561506657565b63e2517d3f60e01b5f52336004525f516020615b4e5f395f51905f5260245260445ffd5b335f9081525f5160206159ae5f395f51905f52602052604090205460ff16156150af57565b63e2517d3f60e01b5f52336004525f516020615b6e5f395f51905f5260245260445ffd5b5f8181525f516020615ace5f395f51905f526020908152604080832033845290915290205460ff16156151035750565b63e2517d3f60e01b5f523360045260245260445ffd5b5f90805f52600960205260405f2090600f8201601060ff198254161790556276a7004201804211610e8557600d83015581545f52600c6020525f6040812055805f52601060205260405f205f805260205260405f205491600154801515806154cf575b156154c8575b6005820154801515806154b2575b156154ab575b600783015480151580615495575b1561548d57905b600984015480151580615477575b1561546f57925b6040519663a4ba3a7f60e01b88526004880152602487015260448601526064850152608484015260a08360a48173__$d9d5ca12ac0847b5930a2330ee53d4fb3d$__5af4928315610c12575f5f5f915f935f9761541e575b50806153de575b508061539b575b5080615358575b5080615315575b506001810180546001600160a01b039081165f908152600d6020908152604080832060038701549094168352929052208054919490916152749190614dc5565b90556006548154935460028301805490956001600160a01b0391821693909282169116803b1561041f575f928360649260405196879586946332f65ba360e01b86526004860152602485015260448401525af18015610c12576152f3575b505491546001600160a01b0316925f516020615b0e5f395f51905f529080a4565b6153009194505f90614b3f565b5f925f516020615b0e5f395f51905f526152d2565b600a8201546001600160a01b039081165f908152600d6020908152604080832060038701549094168352929052208054909161535091614dc5565b90555f615234565b60088301546001600160a01b039081165f908152600d6020908152604080832060038801549094168352929052208054909161539391614dc5565b90555f61522d565b60068401546001600160a01b039081165f908152600d602090815260408083206003890154909416835292905220805490916153d691614dc5565b90555f615226565b5f80546001600160a01b039081168252600d6020908152604080842060038a0154909316845291905290208054909161541691614dc5565b90555f61521f565b96505050505060a0833d60a011615467575b8161543d60a09383614b3f565b8101031261041f57825160208401516040850151606086015160809096015195929091905f615218565b3d9150615430565b505f926151c0565b50600a8501546001600160a01b031615156151b9565b505f906151ab565b5060088401546001600160a01b031615156151a4565b505f615196565b5060068301546001600160a01b03161515615190565b505f615182565b505f546001600160a01b0316151561517c565b916040519163a9059cbb60e01b5f5260018060a01b031660045260245260205f60448180865af19060015f5114821615615542575b604052156155225750565b635274afe760e01b5f9081526001600160a01b0391909116600452602490fd5b90600181151661555a57823b15153d15161690615517565b503d5f823e3d90fd5b6001600160a01b0381165f9081525f5160206159ce5f395f51905f52602052604090205460ff166155d4576001600160a01b03165f8181525f5160206159ce5f395f51905f5260205260408120805460ff191660011790553391905f51602061594e5f395f51905f528180a4600190565b505f90565b6001600160a01b0381165f9081525f5160206159ae5f395f51905f52602052604090205460ff166155d4576001600160a01b03165f8181525f5160206159ae5f395f51905f5260205260408120805460ff191660011790553391905f516020615b6e5f395f51905f52905f51602061594e5f395f51905f529080a4600190565b6001600160a01b0381165f9081525f51602061598e5f395f51905f52602052604090205460ff166155d4576001600160a01b03165f8181525f51602061598e5f395f51905f5260205260408120805460ff191660011790553391905f516020615a6e5f395f51905f52905f51602061594e5f395f51905f529080a4600190565b5f8181525f516020615ace5f395f51905f52602090815260408083206001600160a01b038616845290915290205460ff16615764575f8181525f516020615ace5f395f51905f52602090815260408083206001600160a01b0395909516808452949091528120805460ff19166001179055339291905f51602061594e5f395f51905f529080a4600190565b50505f90565b5f8181525f516020615ace5f395f51905f52602090815260408083206001600160a01b038616845290915290205460ff1615615764575f8181525f516020615ace5f395f51905f52602090815260408083206001600160a01b0395909516808452949091528120805460ff19169055339291907ff6391f5c32d9c69d2a47ea670b442974b53935d1edc7fd64eb21e047a839171b9080a4600190565b60ff5f516020615b2e5f395f51905f52541661581e57565b63d93c066560e01b5f5260045ffd5b6040516323b872dd60e01b5f9081526001600160a01b039384166004529290931660245260449390935260209060648180865af19060015f511482161561587e575b6040525f606052156155225750565b90600181151661555a57823b15153d1516169061586f565b60ff5f516020615bae5f395f51905f525460401c16156158b257565b631afcd79f60e31b5f5260045ffd5b905f8091602081519101845af4808061593a575b156158f55750506040513d81523d5f602083013e60203d82010160405290565b1561591a57639996b31560e01b5f9081526001600160a01b0391909116600452602490fd5b3d1561592b576040513d5f823e3d90fd5b63d6bda27560e01b5f5260045ffd5b503d1515806158d55750813b15156158d556fe2f8788117e7eff1d82e926ec794901d17c78024a50270940304540a733656f0d13acf3fc7bed94759963f076d5d3443d88732026bffc8253bdf4a6e65f21ecc57a1492cadb22452d254c71a9ef0c781c9f2d1c472dc5213a713c8769ea04d819b16e88c42fd4e48df2dd6a2eabd6bc9aec654ec170056b470819f8892cc6431cb7db2dd08fcb62d0c9e08c51941cae53c267786a0b75803fb7960902fc8ef97d360894a13ba1a3210667c828492db98dca3e2076cc3735a920a3ca505d382bbc6add646517a5b0f6793cd5891b7937d28a5b2981a5d88ebc7cd776088fea9041ad67d757c34507f157cacfa2e3153e9f260a2244f30428821be7be64587ac55f5eff886ea0ce6ca488a3d6e336d6c0f75f46d19b42c06ce5ee98e42c96d256c7e4369475d33ca6555b45ac3cf081bee16c4b11779d89f812395c569b2de40f013a24deaadf78a85a780efe5abe4bbc96c2cbcb1620cf4c951dca4e931576a35f6f16db8d1d117ace6c231f2420199bd5731215b09c0610c8103dd70237f23b6702dd7bc7dec4dceedda775e58dd541e08a116c6c53815c0bd028192f7b62680091238f30f286c9a1c6e901c4eda3b214c381c846e3dbe48df95c21488e8e1fdb4c64a78d82982b8bfbb5b3bc9a6e8b4e024bb84db4aaf997d36667cd611183dccd5ed15c6e187e77e9aee88184c21f4f2182ab5827cb3b7e07fbedcd63f03300b91045a954d2b1232c32104950cc1bd73039d77d96d80d2677a658336477a079a49807205ce4d355092ef5a8a18f56e8913cf4a201fbe287825b095693c217759321edea6e3be4df59a344b401fab4f888b556fda1f954244cff9204bad624b8f0c57e16840df040f15088dc2f81fe391c3923bec73e23a9662efc9c229c6a00a264697066735822122001fb7e0e8949b91c47d45e3e8ecb643cc6ae4c6ae72bff0e7af18d5d722efafd64736f6c634300081c0033f0c57e16840df040f15088dc2f81fe391c3923bec73e23a9662efc9c229c6a00",
  "linkReferences": {
    "project/contracts/libraries/FeeLib.sol": {
      "FeeLib": [
        {
          "length": 20,
          "start": 4820
        },
        {
          "length": 20,
          "start": 21174
        }
      ]
    }
  },
  "deployedLinkReferences": {
    "project/contracts/libraries/FeeLib.sol": {
      "FeeLib": [
        {
          "length": 20,
          "start": 4621
        },
        {
          "length": 20,
          "start": 20975
        }
      ]
    }
  },
  "immutableReferences": {
    "3035": [
      {
        "length": 32,
        "start": 15435
      },
      {
        "length": 32,
        "start": 15638
      }
    ]
  },
  "inputSourceName": "project/contracts/core/DealEscrow.sol",
  "buildInfoId": "solc-0_8_28-8121fb132570a1ac9681b9c8ce78d1c2f1f70dc4"
}