{
  "_format": "hh3-artifact-1",
  "contractName": "DealEscrow",
  "sourceName": "contracts/core/DealEscrow.sol",
  "abi": [
    {
      "inputs": [],
      "stateMutability": "nonpayable",
      "type": "constructor"
    },
    {
      "inputs": [],
      "name": "AccessControlBadConfirmation",
      "type": "error"
    },
    {
      "inputs": [
        {
          "internalType": "address",
          "name": "account",
          "type": "address"
        },
        {
          "internalType": "bytes32",
          "name": "neededRole",
          "type": "bytes32"
        }
      ],
      "name": "AccessControlUnauthorizedAccount",
      "type": "error"
    },
    {
      "inputs": [],
      "name": "AddOnAlreadyTriggered",
      "type": "error"
    },
    {
      "inputs": [],
      "name": "AddOnNotFound",
      "type": "error"
    },
    {
      "inputs": [
        {
          "internalType": "address",
          "name": "target",
          "type": "address"
        }
      ],
      "name": "AddressEmptyCode",
      "type": "error"
    },
    {
      "inputs": [],
      "name": "CannotConfirmOwnProposal",
      "type": "error"
    },
    {
      "inputs": [],
      "name": "ConsentWindowExpired",
      "type": "error"
    },
    {
      "inputs": [],
      "name": "DealIsFrozen",
      "type": "error"
    },
    {
      "inputs": [],
      "name": "DealNotFound",
      "type": "error"
    },
    {
      "inputs": [],
      "name": "DealNotFrozen",
      "type": "error"
    },
    {
      "inputs": [],
      "name": "DisputeWindowExpired",
      "type": "error"
    },
    {
      "inputs": [
        {
          "internalType": "address",
          "name": "implementation",
          "type": "address"
        }
      ],
      "name": "ERC1967InvalidImplementation",
      "type": "error"
    },
    {
      "inputs": [],
      "name": "ERC1967NonPayable",
      "type": "error"
    },
    {
      "inputs": [],
      "name": "EnforcedPause",
      "type": "error"
    },
    {
      "inputs": [],
      "name": "ExpectedPause",
      "type": "error"
    },
    {
      "inputs": [],
      "name": "FailedCall",
      "type": "error"
    },
    {
      "inputs": [],
      "name": "FundingWindowExpired",
      "type": "error"
    },
    {
      "inputs": [
        {
          "internalType": "uint256",
          "name": "requested",
          "type": "uint256"
        },
        {
          "internalType": "uint256",
          "name": "available",
          "type": "uint256"
        }
      ],
      "name": "InsufficientProtocolBalance",
      "type": "error"
    },
    {
      "inputs": [],
      "name": "InvalidAddress",
      "type": "error"
    },
    {
      "inputs": [],
      "name": "InvalidAmount",
      "type": "error"
    },
    {
      "inputs": [],
      "name": "InvalidInitialization",
      "type": "error"
    },
    {
      "inputs": [],
      "name": "LeagueDisputeDeadlineExpired",
      "type": "error"
    },
    {
      "inputs": [],
      "name": "MedicalAlreadySubmitted",
      "type": "error"
    },
    {
      "inputs": [],
      "name": "MedicalWindowExpired",
      "type": "error"
    },
    {
      "inputs": [],
      "name": "MutualCancelAlreadyProposed",
      "type": "error"
    },
    {
      "inputs": [],
      "name": "MutualCancelExpiredError",
      "type": "error"
    },
    {
      "inputs": [],
      "name": "MutualCancelNotProposed",
      "type": "error"
    },
    {
      "inputs": [],
      "name": "NoPendingTreasuryUpdate",
      "type": "error"
    },
    {
      "inputs": [],
      "name": "NoSigningBonus",
      "type": "error"
    },
    {
      "inputs": [],
      "name": "NotBuyingClub",
      "type": "error"
    },
    {
      "inputs": [],
      "name": "NotInitializing",
      "type": "error"
    },
    {
      "inputs": [],
      "name": "NotPlayerWallet",
      "type": "error"
    },
    {
      "inputs": [],
      "name": "NotSellingClub",
      "type": "error"
    },
    {
      "inputs": [],
      "name": "NothingToClaim",
      "type": "error"
    },
    {
      "inputs": [],
      "name": "NothingToWithdraw",
      "type": "error"
    },
    {
      "inputs": [],
      "name": "PlayerWalletNotSet",
      "type": "error"
    },
    {
      "inputs": [],
      "name": "ProtocolFeeTooHigh",
      "type": "error"
    },
    {
      "inputs": [],
      "name": "ReentrantCall",
      "type": "error"
    },
    {
      "inputs": [
        {
          "internalType": "address",
          "name": "token",
          "type": "address"
        }
      ],
      "name": "SafeERC20FailedOperation",
      "type": "error"
    },
    {
      "inputs": [],
      "name": "SigningBonusAlreadyClaimed",
      "type": "error"
    },
    {
      "inputs": [],
      "name": "SigningBonusNotExpired",
      "type": "error"
    },
    {
      "inputs": [],
      "name": "TimerTooShort",
      "type": "error"
    },
    {
      "inputs": [],
      "name": "TokenNotApproved",
      "type": "error"
    },
    {
      "inputs": [],
      "name": "TransferWindowClosed",
      "type": "error"
    },
    {
      "inputs": [],
      "name": "TreasuryUpdateNotReady",
      "type": "error"
    },
    {
      "inputs": [],
      "name": "UUPSUnauthorizedCallContext",
      "type": "error"
    },
    {
      "inputs": [
        {
          "internalType": "bytes32",
          "name": "slot",
          "type": "bytes32"
        }
      ],
      "name": "UUPSUnsupportedProxiableUUID",
      "type": "error"
    },
    {
      "inputs": [],
      "name": "WrongDealState",
      "type": "error"
    },
    {
      "anonymous": false,
      "inputs": [
        {
          "indexed": true,
          "internalType": "uint256",
          "name": "dealId",
          "type": "uint256"
        },
        {
          "indexed": true,
          "internalType": "address",
          "name": "club",
          "type": "address"
        },
        {
          "indexed": false,
          "internalType": "uint256",
          "name": "amount",
          "type": "uint256"
        }
      ],
      "name": "AddOnDepositWithdrawn",
      "type": "event"
    },
    {
      "anonymous": false,
      "inputs": [
        {
          "indexed": true,
          "internalType": "uint256",
          "name": "dealId",
          "type": "uint256"
        },
        {
          "indexed": true,
          "internalType": "uint256",
          "name": "idx",
          "type": "uint256"
        },
        {
          "indexed": false,
          "internalType": "uint256",
          "name": "amount",
          "type": "uint256"
        },
        {
          "indexed": false,
          "internalType": "address",
          "name": "recipient",
          "type": "address"
        }
      ],
      "name": "AddOnTriggered",
      "type": "event"
    },
    {
      "anonymous": false,
      "inputs": [
        {
          "indexed": true,
          "internalType": "uint256",
          "name": "dealId",
          "type": "uint256"
        },
        {
          "indexed": true,
          "internalType": "address",
          "name": "thirdParty",
          "type": "address"
        },
        {
          "indexed": false,
          "internalType": "uint256",
          "name": "fee",
          "type": "uint256"
        }
      ],
      "name": "CompetingBidActivated",
      "type": "event"
    },
    {
      "anonymous": false,
      "inputs": [
        {
          "indexed": true,
          "internalType": "uint256",
          "name": "dealId",
          "type": "uint256"
        },
        {
          "indexed": false,
          "internalType": "enum TransferTypes.CancelReason",
          "name": "reason",
          "type": "uint8"
        }
      ],
      "name": "DealCancelled",
      "type": "event"
    },
    {
      "anonymous": false,
      "inputs": [
        {
          "indexed": true,
          "internalType": "uint256",
          "name": "dealId",
          "type": "uint256"
        },
        {
          "indexed": true,
          "internalType": "uint256",
          "name": "playerId",
          "type": "uint256"
        },
        {
          "indexed": true,
          "internalType": "address",
          "name": "newClub",
          "type": "address"
        }
      ],
      "name": "DealCompleted",
      "type": "event"
    },
    {
      "anonymous": false,
      "inputs": [
        {
          "indexed": true,
          "internalType": "uint256",
          "name": "dealId",
          "type": "uint256"
        },
        {
          "indexed": true,
          "internalType": "uint256",
          "name": "playerId",
          "type": "uint256"
        },
        {
          "indexed": true,
          "internalType": "address",
          "name": "buyingClub",
          "type": "address"
        }
      ],
      "name": "DealCreated",
      "type": "event"
    },
    {
      "anonymous": false,
      "inputs": [
        {
          "indexed": true,
          "internalType": "uint256",
          "name": "dealId",
          "type": "uint256"
        }
      ],
      "name": "DealFrozen",
      "type": "event"
    },
    {
      "anonymous": false,
      "inputs": [
        {
          "indexed": true,
          "internalType": "uint256",
          "name": "dealId",
          "type": "uint256"
        }
      ],
      "name": "DealUnfrozen",
      "type": "event"
    },
    {
      "anonymous": false,
      "inputs": [
        {
          "indexed": true,
          "internalType": "uint256",
          "name": "dealId",
          "type": "uint256"
        },
        {
          "indexed": true,
          "internalType": "address",
          "name": "raisedBy",
          "type": "address"
        }
      ],
      "name": "DisputeRaised",
      "type": "event"
    },
    {
      "anonymous": false,
      "inputs": [
        {
          "indexed": true,
          "internalType": "uint256",
          "name": "dealId",
          "type": "uint256"
        }
      ],
      "name": "DisputeResolved",
      "type": "event"
    },
    {
      "anonymous": false,
      "inputs": [
        {
          "indexed": true,
          "internalType": "uint256",
          "name": "dealId",
          "type": "uint256"
        },
        {
          "indexed": true,
          "internalType": "address",
          "name": "buyingClub",
          "type": "address"
        },
        {
          "indexed": false,
          "internalType": "uint256",
          "name": "amount",
          "type": "uint256"
        }
      ],
      "name": "FundingReceived",
      "type": "event"
    },
    {
      "anonymous": false,
      "inputs": [
        {
          "indexed": true,
          "internalType": "address",
          "name": "recipient",
          "type": "address"
        },
        {
          "indexed": true,
          "internalType": "address",
          "name": "token",
          "type": "address"
        },
        {
          "indexed": false,
          "internalType": "uint256",
          "name": "amount",
          "type": "uint256"
        }
      ],
      "name": "FundsClaimed",
      "type": "event"
    },
    {
      "anonymous": false,
      "inputs": [
        {
          "indexed": false,
          "internalType": "uint64",
          "name": "version",
          "type": "uint64"
        }
      ],
      "name": "Initialized",
      "type": "event"
    },
    {
      "anonymous": false,
      "inputs": [
        {
          "indexed": true,
          "internalType": "uint256",
          "name": "dealId",
          "type": "uint256"
        },
        {
          "indexed": true,
          "internalType": "address",
          "name": "escalatedBy",
          "type": "address"
        }
      ],
      "name": "MedicalDisputeEscalated",
      "type": "event"
    },
    {
      "anonymous": false,
      "inputs": [
        {
          "indexed": true,
          "internalType": "uint256",
          "name": "dealId",
          "type": "uint256"
        }
      ],
      "name": "MedicalDisputeResolved",
      "type": "event"
    },
    {
      "anonymous": false,
      "inputs": [
        {
          "indexed": true,
          "internalType": "uint256",
          "name": "dealId",
          "type": "uint256"
        },
        {
          "indexed": false,
          "internalType": "uint256",
          "name": "newFee",
          "type": "uint256"
        }
      ],
      "name": "MedicalRenegotiationResolved",
      "type": "event"
    },
    {
      "anonymous": false,
      "inputs": [
        {
          "indexed": true,
          "internalType": "uint256",
          "name": "dealId",
          "type": "uint256"
        }
      ],
      "name": "MedicalRenegotiationStarted",
      "type": "event"
    },
    {
      "anonymous": false,
      "inputs": [
        {
          "indexed": true,
          "internalType": "uint256",
          "name": "dealId",
          "type": "uint256"
        },
        {
          "indexed": false,
          "internalType": "enum TransferTypes.MedicalOutcome",
          "name": "outcome",
          "type": "uint8"
        }
      ],
      "name": "MedicalSubmitted",
      "type": "event"
    },
    {
      "anonymous": false,
      "inputs": [
        {
          "indexed": true,
          "internalType": "uint256",
          "name": "dealId",
          "type": "uint256"
        }
      ],
      "name": "MutualCancelConfirmed",
      "type": "event"
    },
    {
      "anonymous": false,
      "inputs": [
        {
          "indexed": true,
          "internalType": "uint256",
          "name": "dealId",
          "type": "uint256"
        },
        {
          "indexed": true,
          "internalType": "address",
          "name": "proposer",
          "type": "address"
        }
      ],
      "name": "MutualCancelProposed",
      "type": "event"
    },
    {
      "anonymous": false,
      "inputs": [
        {
          "indexed": false,
          "internalType": "address",
          "name": "account",
          "type": "address"
        }
      ],
      "name": "Paused",
      "type": "event"
    },
    {
      "anonymous": false,
      "inputs": [
        {
          "indexed": true,
          "internalType": "uint256",
          "name": "dealId",
          "type": "uint256"
        },
        {
          "indexed": true,
          "internalType": "uint256",
          "name": "playerId",
          "type": "uint256"
        },
        {
          "indexed": false,
          "internalType": "address",
          "name": "buyingClub",
          "type": "address"
        }
      ],
      "name": "PlayerConsentRequested",
      "type": "event"
    },
    {
      "anonymous": false,
      "inputs": [
        {
          "indexed": true,
          "internalType": "uint256",
          "name": "dealId",
          "type": "uint256"
        },
        {
          "indexed": true,
          "internalType": "uint256",
          "name": "playerId",
          "type": "uint256"
        }
      ],
      "name": "PlayerConsented",
      "type": "event"
    },
    {
      "anonymous": false,
      "inputs": [
        {
          "indexed": true,
          "internalType": "uint256",
          "name": "dealId",
          "type": "uint256"
        },
        {
          "indexed": true,
          "internalType": "uint256",
          "name": "playerId",
          "type": "uint256"
        }
      ],
      "name": "PlayerDeclined",
      "type": "event"
    },
    {
      "anonymous": false,
      "inputs": [
        {
          "indexed": false,
          "internalType": "uint256",
          "name": "bps",
          "type": "uint256"
        }
      ],
      "name": "ProtocolFeeUpdated",
      "type": "event"
    },
    {
      "anonymous": false,
      "inputs": [
        {
          "indexed": true,
          "internalType": "address",
          "name": "treasury",
          "type": "address"
        },
        {
          "indexed": true,
          "internalType": "address",
          "name": "token",
          "type": "address"
        },
        {
          "indexed": false,
          "internalType": "uint256",
          "name": "amount",
          "type": "uint256"
        }
      ],
      "name": "ProtocolFeesWithdrawn",
      "type": "event"
    },
    {
      "anonymous": false,
      "inputs": [
        {
          "indexed": true,
          "internalType": "address",
          "name": "newTreasury",
          "type": "address"
        },
        {
          "indexed": false,
          "internalType": "uint256",
          "name": "effectiveAt",
          "type": "uint256"
        }
      ],
      "name": "ProtocolTreasuryUpdateScheduled",
      "type": "event"
    },
    {
      "anonymous": false,
      "inputs": [
        {
          "indexed": true,
          "internalType": "address",
          "name": "oldTreasury",
          "type": "address"
        },
        {
          "indexed": true,
          "internalType": "address",
          "name": "newTreasury",
          "type": "address"
        }
      ],
      "name": "ProtocolTreasuryUpdated",
      "type": "event"
    },
    {
      "anonymous": false,
      "inputs": [
        {
          "indexed": true,
          "internalType": "bytes32",
          "name": "role",
          "type": "bytes32"
        },
        {
          "indexed": true,
          "internalType": "bytes32",
          "name": "previousAdminRole",
          "type": "bytes32"
        },
        {
          "indexed": true,
          "internalType": "bytes32",
          "name": "newAdminRole",
          "type": "bytes32"
        }
      ],
      "name": "RoleAdminChanged",
      "type": "event"
    },
    {
      "anonymous": false,
      "inputs": [
        {
          "indexed": true,
          "internalType": "bytes32",
          "name": "role",
          "type": "bytes32"
        },
        {
          "indexed": true,
          "internalType": "address",
          "name": "account",
          "type": "address"
        },
        {
          "indexed": true,
          "internalType": "address",
          "name": "sender",
          "type": "address"
        }
      ],
      "name": "RoleGranted",
      "type": "event"
    },
    {
      "anonymous": false,
      "inputs": [
        {
          "indexed": true,
          "internalType": "bytes32",
          "name": "role",
          "type": "bytes32"
        },
        {
          "indexed": true,
          "internalType": "address",
          "name": "account",
          "type": "address"
        },
        {
          "indexed": true,
          "internalType": "address",
          "name": "sender",
          "type": "address"
        }
      ],
      "name": "RoleRevoked",
      "type": "event"
    },
    {
      "anonymous": false,
      "inputs": [
        {
          "indexed": true,
          "internalType": "uint256",
          "name": "dealId",
          "type": "uint256"
        },
        {
          "indexed": true,
          "internalType": "address",
          "name": "wallet",
          "type": "address"
        },
        {
          "indexed": false,
          "internalType": "uint256",
          "name": "amount",
          "type": "uint256"
        }
      ],
      "name": "SigningBonusClaimed",
      "type": "event"
    },
    {
      "anonymous": false,
      "inputs": [
        {
          "indexed": true,
          "internalType": "uint256",
          "name": "dealId",
          "type": "uint256"
        },
        {
          "indexed": true,
          "internalType": "address",
          "name": "to",
          "type": "address"
        },
        {
          "indexed": false,
          "internalType": "uint256",
          "name": "amount",
          "type": "uint256"
        }
      ],
      "name": "SigningBonusRescued",
      "type": "event"
    },
    {
      "anonymous": false,
      "inputs": [
        {
          "indexed": true,
          "internalType": "uint256",
          "name": "dealId",
          "type": "uint256"
        },
        {
          "indexed": true,
          "internalType": "address",
          "name": "thirdParty",
          "type": "address"
        }
      ],
      "name": "ThirdPartyMedicalCompleted",
      "type": "event"
    },
    {
      "anonymous": false,
      "inputs": [
        {
          "indexed": false,
          "internalType": "address",
          "name": "account",
          "type": "address"
        }
      ],
      "name": "Unpaused",
      "type": "event"
    },
    {
      "anonymous": false,
      "inputs": [
        {
          "indexed": true,
          "internalType": "address",
          "name": "implementation",
          "type": "address"
        }
      ],
      "name": "Upgraded",
      "type": "event"
    },
    {
      "inputs": [],
      "name": "ADMIN_ROLE",
      "outputs": [
        {
          "internalType": "bytes32",
          "name": "",
          "type": "bytes32"
        }
      ],
      "stateMutability": "view",
      "type": "function"
    },
    {
      "inputs": [],
      "name": "COMPETING_BID_MANAGER_ROLE",
      "outputs": [
        {
          "internalType": "bytes32",
          "name": "",
          "type": "bytes32"
        }
      ],
      "stateMutability": "view",
      "type": "function"
    },
    {
      "inputs": [],
      "name": "DEFAULT_ADMIN_ROLE",
      "outputs": [
        {
          "internalType": "bytes32",
          "name": "",
          "type": "bytes32"
        }
      ],
      "stateMutability": "view",
      "type": "function"
    },
    {
      "inputs": [],
      "name": "LEAGUE_ROLE",
      "outputs": [
        {
          "internalType": "bytes32",
          "name": "",
          "type": "bytes32"
        }
      ],
      "stateMutability": "view",
      "type": "function"
    },
    {
      "inputs": [],
      "name": "TRANSFER_ESCROW_ROLE",
      "outputs": [
        {
          "internalType": "bytes32",
          "name": "",
          "type": "bytes32"
        }
      ],
      "stateMutability": "view",
      "type": "function"
    },
    {
      "inputs": [],
      "name": "UPGRADE_INTERFACE_VERSION",
      "outputs": [
        {
          "internalType": "string",
          "name": "",
          "type": "string"
        }
      ],
      "stateMutability": "view",
      "type": "function"
    },
    {
      "inputs": [
        {
          "internalType": "uint256",
          "name": "dealId",
          "type": "uint256"
        },
        {
          "internalType": "uint256",
          "name": "newFee",
          "type": "uint256"
        }
      ],
      "name": "acceptMedicalRenegotiation",
      "outputs": [],
      "stateMutability": "nonpayable",
      "type": "function"
    },
    {
      "inputs": [],
      "name": "addressRegistry",
      "outputs": [
        {
          "internalType": "contract IAddressRegistry",
          "name": "",
          "type": "address"
        }
      ],
      "stateMutability": "view",
      "type": "function"
    },
    {
      "inputs": [
        {
          "internalType": "address",
          "name": "token",
          "type": "address"
        }
      ],
      "name": "approveToken",
      "outputs": [],
      "stateMutability": "nonpayable",
      "type": "function"
    },
    {
      "inputs": [
        {
          "internalType": "uint256",
          "name": "dealId",
          "type": "uint256"
        }
      ],
      "name": "claimSigningBonus",
      "outputs": [],
      "stateMutability": "nonpayable",
      "type": "function"
    },
    {
      "inputs": [],
      "name": "competingBidManager",
      "outputs": [
        {
          "internalType": "address",
          "name": "",
          "type": "address"
        }
      ],
      "stateMutability": "view",
      "type": "function"
    },
    {
      "inputs": [
        {
          "internalType": "uint256",
          "name": "dealId",
          "type": "uint256"
        }
      ],
      "name": "confirmMutualCancel",
      "outputs": [],
      "stateMutability": "nonpayable",
      "type": "function"
    },
    {
      "inputs": [
        {
          "internalType": "uint256",
          "name": "dealId",
          "type": "uint256"
        }
      ],
      "name": "consentToTransfer",
      "outputs": [],
      "stateMutability": "nonpayable",
      "type": "function"
    },
    {
      "inputs": [
        {
          "internalType": "uint256",
          "name": "dealId",
          "type": "uint256"
        }
      ],
      "name": "declineTransfer",
      "outputs": [],
      "stateMutability": "nonpayable",
      "type": "function"
    },
    {
      "inputs": [
        {
          "internalType": "uint256",
          "name": "dealId",
          "type": "uint256"
        },
        {
          "internalType": "uint256",
          "name": "amount",
          "type": "uint256"
        }
      ],
      "name": "depositAddOnFunds",
      "outputs": [],
      "stateMutability": "nonpayable",
      "type": "function"
    },
    {
      "inputs": [
        {
          "internalType": "uint256",
          "name": "dealId",
          "type": "uint256"
        }
      ],
      "name": "escalateToLeague",
      "outputs": [],
      "stateMutability": "nonpayable",
      "type": "function"
    },
    {
      "inputs": [],
      "name": "executeProtocolTreasuryUpdate",
      "outputs": [],
      "stateMutability": "nonpayable",
      "type": "function"
    },
    {
      "inputs": [
        {
          "internalType": "uint256",
          "name": "dealId",
          "type": "uint256"
        },
        {
          "internalType": "address",
          "name": "thirdParty",
          "type": "address"
        },
        {
          "internalType": "uint256",
          "name": "newFee",
          "type": "uint256"
        },
        {
          "internalType": "uint256",
          "name": "buyerAgentBps",
          "type": "uint256"
        },
        {
          "internalType": "address",
          "name": "buyerAgent",
          "type": "address"
        },
        {
          "internalType": "uint256",
          "name": "signingBonusMonths",
          "type": "uint256"
        }
      ],
      "name": "extActivateThirdParty",
      "outputs": [],
      "stateMutability": "nonpayable",
      "type": "function"
    },
    {
      "inputs": [
        {
          "internalType": "uint256",
          "name": "dealId",
          "type": "uint256"
        }
      ],
      "name": "extAdvanceToFunding",
      "outputs": [],
      "stateMutability": "nonpayable",
      "type": "function"
    },
    {
      "inputs": [
        {
          "internalType": "uint256",
          "name": "dealId",
          "type": "uint256"
        },
        {
          "internalType": "uint8",
          "name": "reason",
          "type": "uint8"
        }
      ],
      "name": "extCancel",
      "outputs": [],
      "stateMutability": "nonpayable",
      "type": "function"
    },
    {
      "inputs": [
        {
          "internalType": "uint256",
          "name": "dealId",
          "type": "uint256"
        }
      ],
      "name": "extClearMutualCancel",
      "outputs": [],
      "stateMutability": "nonpayable",
      "type": "function"
    },
    {
      "inputs": [
        {
          "internalType": "address",
          "name": "recipient",
          "type": "address"
        },
        {
          "internalType": "address",
          "name": "token",
          "type": "address"
        },
        {
          "internalType": "uint256",
          "name": "amount",
          "type": "uint256"
        }
      ],
      "name": "extCreditClaimable",
      "outputs": [],
      "stateMutability": "nonpayable",
      "type": "function"
    },
    {
      "inputs": [
        {
          "internalType": "uint256",
          "name": "dealId",
          "type": "uint256"
        },
        {
          "internalType": "uint256",
          "name": "amount",
          "type": "uint256"
        }
      ],
      "name": "extCreditCounterDeposit",
      "outputs": [],
      "stateMutability": "nonpayable",
      "type": "function"
    },
    {
      "inputs": [
        {
          "internalType": "uint256",
          "name": "dealId",
          "type": "uint256"
        },
        {
          "internalType": "address",
          "name": "dest",
          "type": "address"
        }
      ],
      "name": "extRescueBonus",
      "outputs": [],
      "stateMutability": "nonpayable",
      "type": "function"
    },
    {
      "inputs": [
        {
          "internalType": "uint256",
          "name": "dealId",
          "type": "uint256"
        }
      ],
      "name": "extSettle",
      "outputs": [],
      "stateMutability": "nonpayable",
      "type": "function"
    },
    {
      "inputs": [
        {
          "internalType": "uint256",
          "name": "dealId",
          "type": "uint256"
        }
      ],
      "name": "extWalkAwayPenalty",
      "outputs": [],
      "stateMutability": "nonpayable",
      "type": "function"
    },
    {
      "inputs": [
        {
          "internalType": "uint256",
          "name": "dealId",
          "type": "uint256"
        },
        {
          "internalType": "address",
          "name": "buyer",
          "type": "address"
        },
        {
          "internalType": "uint256",
          "name": "amount",
          "type": "uint256"
        }
      ],
      "name": "extWithdrawAddOn",
      "outputs": [],
      "stateMutability": "nonpayable",
      "type": "function"
    },
    {
      "inputs": [
        {
          "internalType": "uint256",
          "name": "dealId",
          "type": "uint256"
        }
      ],
      "name": "forceCancelDeal",
      "outputs": [],
      "stateMutability": "nonpayable",
      "type": "function"
    },
    {
      "inputs": [
        {
          "internalType": "uint256",
          "name": "dealId",
          "type": "uint256"
        }
      ],
      "name": "forceComplete",
      "outputs": [],
      "stateMutability": "nonpayable",
      "type": "function"
    },
    {
      "inputs": [
        {
          "internalType": "uint256",
          "name": "dealId",
          "type": "uint256"
        }
      ],
      "name": "freezeDeal",
      "outputs": [],
      "stateMutability": "nonpayable",
      "type": "function"
    },
    {
      "inputs": [
        {
          "internalType": "uint256",
          "name": "dealId",
          "type": "uint256"
        }
      ],
      "name": "fundDeal",
      "outputs": [],
      "stateMutability": "nonpayable",
      "type": "function"
    },
    {
      "inputs": [
        {
          "internalType": "uint256",
          "name": "dealId",
          "type": "uint256"
        },
        {
          "internalType": "address",
          "name": "token",
          "type": "address"
        }
      ],
      "name": "getAddOnDeposit",
      "outputs": [
        {
          "internalType": "uint256",
          "name": "",
          "type": "uint256"
        }
      ],
      "stateMutability": "view",
      "type": "function"
    },
    {
      "inputs": [
        {
          "internalType": "address",
          "name": "account",
          "type": "address"
        },
        {
          "internalType": "address",
          "name": "token",
          "type": "address"
        }
      ],
      "name": "getClaimable",
      "outputs": [
        {
          "internalType": "uint256",
          "name": "",
          "type": "uint256"
        }
      ],
      "stateMutability": "view",
      "type": "function"
    },
    {
      "inputs": [
        {
          "internalType": "uint256",
          "name": "dealId",
          "type": "uint256"
        }
      ],
      "name": "getDealView",
      "outputs": [
        {
          "components": [
            {
              "internalType": "bool",
              "name": "exists",
              "type": "bool"
            },
            {
              "internalType": "address",
              "name": "sellingClub",
              "type": "address"
            },
            {
              "internalType": "address",
              "name": "buyingClub",
              "type": "address"
            },
            {
              "internalType": "address",
              "name": "paymentToken",
              "type": "address"
            },
            {
              "internalType": "uint256",
              "name": "transferFee",
              "type": "uint256"
            },
            {
              "internalType": "enum IDealEscrow.DealState",
              "name": "state",
              "type": "uint8"
            },
            {
              "internalType": "uint256",
              "name": "stateDeadline",
              "type": "uint256"
            }
          ],
          "internalType": "struct IDealEscrow.DealView",
          "name": "v",
          "type": "tuple"
        }
      ],
      "stateMutability": "view",
      "type": "function"
    },
    {
      "inputs": [
        {
          "internalType": "uint256",
          "name": "dealId",
          "type": "uint256"
        }
      ],
      "name": "getExpiryView",
      "outputs": [
        {
          "internalType": "bool",
          "name": "exists",
          "type": "bool"
        },
        {
          "internalType": "bool",
          "name": "frozen",
          "type": "bool"
        },
        {
          "internalType": "uint8",
          "name": "state",
          "type": "uint8"
        },
        {
          "internalType": "uint256",
          "name": "stateDeadline",
          "type": "uint256"
        },
        {
          "internalType": "uint256",
          "name": "mutualCancelDeadline",
          "type": "uint256"
        },
        {
          "internalType": "address",
          "name": "mutualCancelProposer",
          "type": "address"
        }
      ],
      "stateMutability": "view",
      "type": "function"
    },
    {
      "inputs": [
        {
          "internalType": "uint256",
          "name": "dealId",
          "type": "uint256"
        },
        {
          "internalType": "uint8",
          "name": "index",
          "type": "uint8"
        }
      ],
      "name": "getInstallment",
      "outputs": [
        {
          "components": [
            {
              "internalType": "uint256",
              "name": "amount",
              "type": "uint256"
            },
            {
              "internalType": "uint256",
              "name": "dueDate",
              "type": "uint256"
            },
            {
              "internalType": "bool",
              "name": "paid",
              "type": "bool"
            }
          ],
          "internalType": "struct TransferTypes.Installment",
          "name": "",
          "type": "tuple"
        }
      ],
      "stateMutability": "view",
      "type": "function"
    },
    {
      "inputs": [
        {
          "internalType": "uint256",
          "name": "playerId",
          "type": "uint256"
        }
      ],
      "name": "getPlayerDeal",
      "outputs": [
        {
          "internalType": "uint256",
          "name": "",
          "type": "uint256"
        }
      ],
      "stateMutability": "view",
      "type": "function"
    },
    {
      "inputs": [
        {
          "internalType": "bytes32",
          "name": "role",
          "type": "bytes32"
        }
      ],
      "name": "getRoleAdmin",
      "outputs": [
        {
          "internalType": "bytes32",
          "name": "",
          "type": "bytes32"
        }
      ],
      "stateMutability": "view",
      "type": "function"
    },
    {
      "inputs": [
        {
          "internalType": "bytes32",
          "name": "role",
          "type": "bytes32"
        },
        {
          "internalType": "address",
          "name": "account",
          "type": "address"
        }
      ],
      "name": "grantRole",
      "outputs": [],
      "stateMutability": "nonpayable",
      "type": "function"
    },
    {
      "inputs": [
        {
          "internalType": "bytes32",
          "name": "role",
          "type": "bytes32"
        },
        {
          "internalType": "address",
          "name": "account",
          "type": "address"
        }
      ],
      "name": "hasRole",
      "outputs": [
        {
          "internalType": "bool",
          "name": "",
          "type": "bool"
        }
      ],
      "stateMutability": "view",
      "type": "function"
    },
    {
      "inputs": [
        {
          "internalType": "address",
          "name": "_playerRegistry",
          "type": "address"
        },
        {
          "internalType": "address",
          "name": "_addressRegistry",
          "type": "address"
        },
        {
          "internalType": "address",
          "name": "_treasury",
          "type": "address"
        },
        {
          "internalType": "address",
          "name": "_admin",
          "type": "address"
        }
      ],
      "name": "initialize",
      "outputs": [],
      "stateMutability": "nonpayable",
      "type": "function"
    },
    {
      "inputs": [
        {
          "components": [
            {
              "internalType": "uint256",
              "name": "offerId",
              "type": "uint256"
            },
            {
              "internalType": "uint256",
              "name": "playerId",
              "type": "uint256"
            },
            {
              "internalType": "address",
              "name": "sellingClub",
              "type": "address"
            },
            {
              "internalType": "address",
              "name": "buyingClub",
              "type": "address"
            },
            {
              "internalType": "address",
              "name": "paymentToken",
              "type": "address"
            },
            {
              "internalType": "uint256",
              "name": "transferFee",
              "type": "uint256"
            },
            {
              "internalType": "uint256",
              "name": "sellOnBps",
              "type": "uint256"
            },
            {
              "internalType": "address",
              "name": "sellOnRecipient",
              "type": "address"
            },
            {
              "internalType": "uint256",
              "name": "sellerAgentBps",
              "type": "uint256"
            },
            {
              "internalType": "address",
              "name": "sellerAgent",
              "type": "address"
            },
            {
              "internalType": "uint256",
              "name": "buyerAgentBps",
              "type": "uint256"
            },
            {
              "internalType": "address",
              "name": "buyerAgent",
              "type": "address"
            },
            {
              "internalType": "uint256",
              "name": "signingBonusMonths",
              "type": "uint256"
            },
            {
              "internalType": "uint256",
              "name": "signingBonusAmount",
              "type": "uint256"
            },
            {
              "internalType": "uint256[]",
              "name": "installmentAmounts",
              "type": "uint256[]"
            },
            {
              "internalType": "uint256[]",
              "name": "installmentDueDates",
              "type": "uint256[]"
            }
          ],
          "internalType": "struct TransferTypes.DealInitParams",
          "name": "p",
          "type": "tuple"
        },
        {
          "components": [
            {
              "internalType": "string",
              "name": "description",
              "type": "string"
            },
            {
              "internalType": "uint256",
              "name": "amount",
              "type": "uint256"
            },
            {
              "internalType": "bool",
              "name": "toPlayer",
              "type": "bool"
            },
            {
              "internalType": "bool",
              "name": "triggered",
              "type": "bool"
            }
          ],
          "internalType": "struct TransferTypes.AddOn[]",
          "name": "addOns",
          "type": "tuple[]"
        }
      ],
      "name": "initializeDeal",
      "outputs": [
        {
          "internalType": "uint256",
          "name": "dealId",
          "type": "uint256"
        }
      ],
      "stateMutability": "nonpayable",
      "type": "function"
    },
    {
      "inputs": [],
      "name": "pause",
      "outputs": [],
      "stateMutability": "nonpayable",
      "type": "function"
    },
    {
      "inputs": [],
      "name": "paused",
      "outputs": [
        {
          "internalType": "bool",
          "name": "",
          "type": "bool"
        }
      ],
      "stateMutability": "view",
      "type": "function"
    },
    {
      "inputs": [],
      "name": "pendingTreasury",
      "outputs": [
        {
          "internalType": "address",
          "name": "",
          "type": "address"
        },
        {
          "internalType": "uint256",
          "name": "",
          "type": "uint256"
        }
      ],
      "stateMutability": "view",
      "type": "function"
    },
    {
      "inputs": [],
      "name": "playerRegistry",
      "outputs": [
        {
          "internalType": "contract IPlayerRegistry",
          "name": "",
          "type": "address"
        }
      ],
      "stateMutability": "view",
      "type": "function"
    },
    {
      "inputs": [
        {
          "internalType": "uint256",
          "name": "dealId",
          "type": "uint256"
        }
      ],
      "name": "proposeMutualCancel",
      "outputs": [],
      "stateMutability": "nonpayable",
      "type": "function"
    },
    {
      "inputs": [],
      "name": "protocolFeeBps",
      "outputs": [
        {
          "internalType": "uint256",
          "name": "",
          "type": "uint256"
        }
      ],
      "stateMutability": "view",
      "type": "function"
    },
    {
      "inputs": [],
      "name": "proxiableUUID",
      "outputs": [
        {
          "internalType": "bytes32",
          "name": "",
          "type": "bytes32"
        }
      ],
      "stateMutability": "view",
      "type": "function"
    },
    {
      "inputs": [
        {
          "internalType": "uint256",
          "name": "dealId",
          "type": "uint256"
        }
      ],
      "name": "raiseDispute",
      "outputs": [],
      "stateMutability": "nonpayable",
      "type": "function"
    },
    {
      "inputs": [
        {
          "internalType": "uint256",
          "name": "dealId",
          "type": "uint256"
        }
      ],
      "name": "rejectMedicalRenegotiation",
      "outputs": [],
      "stateMutability": "nonpayable",
      "type": "function"
    },
    {
      "inputs": [
        {
          "internalType": "bytes32",
          "name": "role",
          "type": "bytes32"
        },
        {
          "internalType": "address",
          "name": "callerConfirmation",
          "type": "address"
        }
      ],
      "name": "renounceRole",
      "outputs": [],
      "stateMutability": "nonpayable",
      "type": "function"
    },
    {
      "inputs": [
        {
          "internalType": "uint256",
          "name": "dealId",
          "type": "uint256"
        }
      ],
      "name": "resolveDispute",
      "outputs": [],
      "stateMutability": "nonpayable",
      "type": "function"
    },
    {
      "inputs": [
        {
          "internalType": "bytes32",
          "name": "role",
          "type": "bytes32"
        },
        {
          "internalType": "address",
          "name": "account",
          "type": "address"
        }
      ],
      "name": "revokeRole",
      "outputs": [],
      "stateMutability": "nonpayable",
      "type": "function"
    },
    {
      "inputs": [
        {
          "internalType": "address",
          "name": "token",
          "type": "address"
        }
      ],
      "name": "revokeToken",
      "outputs": [],
      "stateMutability": "nonpayable",
      "type": "function"
    },
    {
      "inputs": [
        {
          "internalType": "address",
          "name": "newTreasury",
          "type": "address"
        }
      ],
      "name": "scheduleProtocolTreasuryUpdate",
      "outputs": [],
      "stateMutability": "nonpayable",
      "type": "function"
    },
    {
      "inputs": [
        {
          "internalType": "address",
          "name": "mgr",
          "type": "address"
        }
      ],
      "name": "setCompetingBidManager",
      "outputs": [],
      "stateMutability": "nonpayable",
      "type": "function"
    },
    {
      "inputs": [
        {
          "internalType": "uint256",
          "name": "bps",
          "type": "uint256"
        }
      ],
      "name": "setProtocolFee",
      "outputs": [],
      "stateMutability": "nonpayable",
      "type": "function"
    },
    {
      "inputs": [
        {
          "internalType": "uint8",
          "name": "which",
          "type": "uint8"
        },
        {
          "internalType": "uint256",
          "name": "d",
          "type": "uint256"
        }
      ],
      "name": "setTimer",
      "outputs": [],
      "stateMutability": "nonpayable",
      "type": "function"
    },
    {
      "inputs": [
        {
          "internalType": "uint256",
          "name": "dealId",
          "type": "uint256"
        },
        {
          "internalType": "enum TransferTypes.MedicalOutcome",
          "name": "outcome",
          "type": "uint8"
        },
        {
          "internalType": "bytes32",
          "name": "medicalHash",
          "type": "bytes32"
        }
      ],
      "name": "submitMedical",
      "outputs": [],
      "stateMutability": "nonpayable",
      "type": "function"
    },
    {
      "inputs": [
        {
          "internalType": "bytes4",
          "name": "interfaceId",
          "type": "bytes4"
        }
      ],
      "name": "supportsInterface",
      "outputs": [
        {
          "internalType": "bool",
          "name": "",
          "type": "bool"
        }
      ],
      "stateMutability": "view",
      "type": "function"
    },
    {
      "inputs": [
        {
          "internalType": "uint8",
          "name": "",
          "type": "uint8"
        }
      ],
      "name": "timers",
      "outputs": [
        {
          "internalType": "uint256",
          "name": "",
          "type": "uint256"
        }
      ],
      "stateMutability": "view",
      "type": "function"
    },
    {
      "inputs": [],
      "name": "totalDeals",
      "outputs": [
        {
          "internalType": "uint256",
          "name": "",
          "type": "uint256"
        }
      ],
      "stateMutability": "view",
      "type": "function"
    },
    {
      "inputs": [],
      "name": "treasury",
      "outputs": [
        {
          "internalType": "address",
          "name": "",
          "type": "address"
        }
      ],
      "stateMutability": "view",
      "type": "function"
    },
    {
      "inputs": [
        {
          "internalType": "uint256",
          "name": "dealId",
          "type": "uint256"
        },
        {
          "internalType": "uint256",
          "name": "idx",
          "type": "uint256"
        }
      ],
      "name": "triggerAddOn",
      "outputs": [],
      "stateMutability": "nonpayable",
      "type": "function"
    },
    {
      "inputs": [
        {
          "internalType": "uint256",
          "name": "dealId",
          "type": "uint256"
        }
      ],
      "name": "unfreezeDeal",
      "outputs": [],
      "stateMutability": "nonpayable",
      "type": "function"
    },
    {
      "inputs": [],
      "name": "unpause",
      "outputs": [],
      "stateMutability": "nonpayable",
      "type": "function"
    },
    {
      "inputs": [
        {
          "internalType": "address",
          "name": "newImplementation",
          "type": "address"
        },
        {
          "internalType": "bytes",
          "name": "data",
          "type": "bytes"
        }
      ],
      "name": "upgradeToAndCall",
      "outputs": [],
      "stateMutability": "payable",
      "type": "function"
    },
    {
      "inputs": [
        {
          "internalType": "address",
          "name": "token",
          "type": "address"
        }
      ],
      "name": "withdrawClaimable",
      "outputs": [],
      "stateMutability": "nonpayable",
      "type": "function"
    },
    {
      "inputs": [
        {
          "internalType": "address",
          "name": "token",
          "type": "address"
        },
        {
          "internalType": "uint256",
          "name": "amount",
          "type": "uint256"
        }
      ],
      "name": "withdrawFees",
      "outputs": [],
      "stateMutability": "nonpayable",
      "type": "function"
    }
  ],
  "bytecode": "0x60a080604052346100c257306080525f5160206150fd5f395f51905f525460ff8160401c166100b3576002600160401b03196001600160401b03821601610060575b60405161503690816100c782396080518181816132d901526133a40152f35b6001600160401b0319166001600160401b039081175f5160206150fd5f395f51905f525581527fc7f505b2f371ae2175ee4913f4499e1f2633a7b5936321eed1cdaeb6115181d290602090a15f80610041565b63f92ee8a960e01b5f5260045ffd5b5f80fdfe60806040526004361015610011575f80fd5b5f3560e01c8062a464d114613d0d57806301d9fcc914613c6957806301ffc9a714613c135780630f8f795914613bbf5780631510f85a14613afb5780631ff634fd14613ad3578063248a9ca314613aad57806327f84e3214613a6757806329bc34f01461393e5780632ed6b75d146139125780632f2ff15d146138e15780633015edc7146138af578063340493a61461388857806335659fb81461386b57806336568abe14613827578063389a93f8146137d05780633d7dc84a1461376a5780633f4ba83a146136ec5780633fb814281461369c57806347d22159146136005780634c74ef9c146135d85780634f0df865146135525780634f1ef2861461332d57806352d1902d146132c75780635c975abb146132995780635ea36b2d1461325557806360dded111461306457806360e49e441461303d57806361d027b3146130165780636b292e7014612ec057806371c34a3414612dab57806372db9e5314612b0f57806375b238fc14612ae8578063787dce3d14612a835780637b61c63d146122355780637f00cb351461217857806380b2edd81461212e57806383be499a14611fc95780638456cb5914611f5857806385d60ec614611c4d57806389b2254214611bfa5780638abf7ff114611b6657806391d1485414611b11578063933f4eef14611ad0578063966d1f1d14611ab35780639a6c4c0c146119405780639bf437df146118fa578063a217fddf146118e0578063a461dc6d14611698578063a4ba80711461154f578063a5c1674e14611461578063ad3b1b471461134a578063ad3cb1cc146112ec578063bbf0457a14611215578063bfadc8f9146111eb578063c2b7b86814611147578063cd7aaade146110d9578063d547741f146110a1578063e05e05e21461107a578063f1c4f0af14610f50578063f384a49014610ebc578063f3ad65f414610e94578063f3ee48bb14610e13578063f60d22ca14610ce9578063f6882f6314610b72578063f7e5e9cd146109ed578063f81eb2f7146107f4578063f8c8765e1461050b578063f951fbad146104395763fd263f7b1461031a575f80fd5b3461043557606036600319011261043557600435610336613f44565b90604435916103436144ae565b815f52600a60205260405f205415610426575f828152600a60209081526040808320600e8352818420600390910180546001600160a01b03168086529190935292205490949192909190828211610417577fdcb617f0d761c10fef99546e0228867e9b0d34036af551f2cc6203b017ac4872936103c283602095614218565b5f878152600e865260408082206001600160a01b039485168352875280822092909255928216808452600d865281842098549092168352968452959020805461040c908390614225565b9055604051908152a3005b63162908e360e11b5f5260045ffd5b63223da47360e21b5f5260045ffd5b5f80fd5b346104355760203660031901126104355760043561045561441c565b805f52600a60205260405f20541561042657805f52600a60205260405f2060118101805460ff81166104fc5760ff600e8401541661049281613f7a565b600d81149081156104e8575b506104d95760019060ff19161790556012429101557f2baeb19dd4781c77dafd82d1a22b7ac4f6ca38cfb10a1135ff41a3b4428a38ed5f80a2005b6372c24c3560e01b5f5260045ffd5b600e91506104f581613f7a565b148561049e565b63e231c28f60e01b5f5260045ffd5b3461043557608036600319011261043557610524613f2e565b61052c613f44565b6044356001600160a01b0381169081900361043557606435906001600160a01b038216808303610435575f516020614fc15f395f51905f5254604081901c60ff161595906001600160401b038116801590816107ec575b60011490816107e2575b1590816107d9575b506107ca576001600160401b031981166001175f516020614fc15f395f51905f5255866107a2575b506001600160a01b0316938415610793576001600160a01b031690811561079357821561079357156107935761073a936105f5614d29565b6105fd614d29565b60016004819055600780546001600160a01b0319908116939093179055600880548316939093179092555f805490911692909217825560096020526203f4807fec8156718a8372b1db44bb411437d0870f3e3790d4a08526d024ce1b0b668f6b8190557f92e85d02570a8092d09a6e3a57665bc3815a2699a4074001bf1ccabf660f5a368190556202a3007f6cde3cea4b3a3fb2488b2808bae7556f4a405e50f65e1794383bc026131b13c38190557fc575c31fea594a6eb97c8e9d3f9caee4c16218c6ef37e923234c0fe9014a61e7919091555f516020614fa15f395f51905f528190557f74b05292d1d4b2b48b65261b07099d24244bcb069f138d9a6bfdcf776becac4c81905560069092525f516020614e415f395f51905f52919091556032905561072a816149f6565b5061073481614a6c565b50614aec565b5061074157005b60ff60401b195f516020614fc15f395f51905f5254165f516020614fc15f395f51905f52557fc7f505b2f371ae2175ee4913f4499e1f2633a7b5936321eed1cdaeb6115181d2602060405160018152a1005b63e6c4247b60e01b5f5260045ffd5b6001600160481b0319166001600160401b01175f516020614fc15f395f51905f5255866105bd565b63f92ee8a960e01b5f5260045ffd5b90501588610595565b303b15915061058d565b889150610583565b3461043557602036600319011261043557600435610810614c99565b805f52600a60205260405f20541561042657805f52600a60205260ff601160405f200154166104fc575f818152600a6020526040902060148101546001600160a01b031680156109de57601582015442116109cf5733146109c05760028101546001600160a01b031633141590816109a8575b506104d957807f579e90f7cabad8d77316c92a503862cb4783a203648db82f5b2d35fd73389d955f80a2805f52600a60205260405f20600e8101805490600e60ff83169260ff191617905581545f52600c6020525f60408120556108e681613f7a565b600b8114908115610994575b50610928575b5060405160208160035f516020614ee15f395f51905f529352a2005b634e487b7160e01b5f52602160045260245ffd5b815f52601060205260405f205f805260205261094d60405f2054600b83015490614225565b60028201546001600160a01b039081165f908152600d602090815260408083206003909601549093168252939093529091208054909161098c91614225565b9055816108f8565b600c91506109a181613f7a565b14836108f2565b600101546001600160a01b0316331415905082610883565b636081c93760e01b5f5260045ffd5b636124f5e360e11b5f5260045ffd5b63d87db87b60e01b5f5260045ffd5b3461043557602036600319011261043557600435610a09614c99565b805f52600a60205260405f20541561042657805f52600a60205260ff601160405f200154166104fc57805f52600a60205260405f2090600e82018054600560ff8216610a5481613f7a565b036104d957600f84019384544211610b63576007548154604051631cab5c9d60e31b8152600481018290529096915f90829060249082906001600160a01b03165afa8015610b5857610120915f91610b36575b500180516001600160a01b031615610b2757516001600160a01b03163303610b18575f93600a60109460ff1916179055600584526009602052610aee604085205442614225565b905501557f173620804848de4def17bad4f232db2cda858a822ae975c722b97cf0fe2c1bfa5f80a3005b631d3c442d60e21b5f5260045ffd5b6382bcaa3b60e01b5f5260045ffd5b610b5291503d805f833e610b4a8183613f9f565b810190614083565b88610aa7565b6040513d5f823e3d90fd5b63839ec5c560e01b5f5260045ffd5b3461043557610b8036613f18565b610b88614c99565b815f52600a60205260405f20541561042657815f52600a60205260ff601160405f200154166104fc575f828152600a6020526040902060018101546001600160a01b03163303610cda57600e810191600760ff845416610be781613f7a565b036104d957600f820180544211610ccb5781158015610cb7575b610417577f3ecbc4d085035a7e1b9eb639b1b2e563cb0b7754fe8fe1e12afd903edb3bc409935f60108585600460209801805482818110610c6e575b5050550155600660ff1982541617905560015f5260098352610c6360405f205442614225565b9055604051908152a2005b610c7791614218565b60028401546001600160a01b039081168752600d8b52604080882060038701549092168852908b52862080549091610cae91614225565b90558b82610c3d565b50676765c793fa10079d601a1b8211610c01565b63c052877160e01b5f5260045ffd5b6303e2f0f360e51b5f5260045ffd5b3461043557602036600319011261043557600435610d05614c99565b805f52600a60205260405f20541561042657805f52600a60205260ff601160405f200154166104fc57805f52600a60205260405f20600e8101805491600760ff8416610d5081613f7a565b036104d95760018101546001600160a01b031633141580610dfc575b6104d957600f0191825480421115610dd5575b5060089060ff191617905562093a80420190814211610dc1575533907ffc2989e9448442378c968e63f5573979bc5ed860dc5c48e906404733bd05d62a5f80a3005b634e487b7160e01b5f52601160045260245ffd5b610df09060045f52600960205260405f205460011c90614218565b42106104d95784610d7f565b5060028101546001600160a01b0316331415610d6c565b3461043557602036600319011261043557610e2c613f2e565b610e34614465565b6001600160a01b0316801561079357600280546001600160a01b03191682179055426202a3008101908110610dc1576020817f686003c563ac6d53a1e0d2aea06fc73beb941f8f05f3463b33b607717aabc67f92600355604051908152a2005b34610435575f366003190112610435576008546040516001600160a01b039091168152602090f35b3461043557610eca36613f18565b610ed261450a565b815f52600a60205260405f20541561042657815f52600a602052600a60ff600e60405f20015416610f0281613f7a565b036104d957801561041757815f52601060205260405f205f805260205260405f20549081811161041757610f3591614218565b905f52601060205260405f205f805260205260405f20555f80f35b3461043557604036600319011261043557600435610f6c613f44565b90610f756144ae565b805f52600a60205260405f20541561042657805f52600a60205260405f2091600d60ff600e85015416610fa781613f7a565b036104d957600b830190815491821561106b57600c85019283549260ff841661105c57600d87015442111561104d5760ff199093166001179093556001600160a01b039182165f818152600d60209081526040808320600390990154909516825296875292909220805492957fc5b97e8782f0398548aef2871b18abaa21039a2820a3460d4b5c06a2bbe769ed9490936110419190614225565b905554604051908152a3005b63d50a31bb60e01b5f5260045ffd5b631f815d9160e11b5f5260045ffd5b635af3421960e01b5f5260045ffd5b34610435575f3660031901126104355760206040515f516020614f615f395f51905f528152f35b34610435576040366003190112610435576110d76004356110c0613f44565b906110d26110cd82614294565b614566565b614bfd565b005b34610435576060366003190112610435576110f2613f2e565b6110fa613f44565b6044359161110661450a565b6001600160a01b03168015610793578215610417575f52600d60205260405f209060018060a01b03165f5260205261114360405f20918254614225565b9055005b346104355760203660031901126104355760043561116361441c565b6002600454146111dc576002600455805f52600a60205260405f20541561042657805f52600a602052600c60ff600e60405f200154166111a281613f7a565b036104d957806111d5917f57cce005d496355471bb5269f1dea3d6c81b6ac14c1d74ba28aefb022357013b5f80a26145ac565b6001600455005b6306fda65d60e31b5f5260045ffd5b34610435576020366003190112610435576004355f52600c602052602060405f2054604051908152f35b346104355761122336613f18565b9061122c614c99565b6002600454146111dc576002600455805f52600a60205260405f20541561042657805f52600a60205260405f20600d60ff600e8301541661126c81613f7a565b036104d95760028101546001600160a01b031633036112dd57821561041757600301906112a68360018060a01b0384541630903390614cc0565b5f908152600e6020908152604080832093546001600160a01b0316835292905220805490916112d491614225565b90556001600455005b631f3cbf7b60e31b5f5260045ffd5b34610435575f36600319011261043557604080519061130b8183613f9f565b600582526020820191640352e302e360dc1b83528151928391602083525180918160208501528484015e5f828201840152601f01601f19168101030190f35b3461043557604036600319011261043557611363613f2e565b6024359061136f614465565b6002600454146111dc5760026004558115611452575f546001600160a01b0316801561079357805f52600d60205260405f2060018060a01b0383165f5260205260405f205480841161143c57836113c591614218565b5f918252600d602090815260408084206001600160a01b03958616808652925283209190915590549092916113fd9183911684614975565b5f546040519182526001600160a01b0316907f8fc241308ffc17817e6a8c6a52a8f7cd4931dfca0c539fd35a630311c7e4c57b90602090a36001600455005b8363ac28c08360e01b5f5260045260245260445ffd5b630686827b60e51b5f5260045ffd5b346104355760203660031901126104355760043561147d614c99565b805f52600a60205260405f20541561042657805f52600a60205260ff601160405f200154166104fc57805f52600a60205260405f20600e810190815490600b60ff83166114c981613f7a565b036104d957600f8101544210156115405760028101546001600160a01b03163314159081611528575b506104d95760ff1916600c17905533907f84a477df8a28a4276ca6dee4458a06c3015f30c477d9c949ede4e13ff8a552b45f80a3005b600101546001600160a01b03163314159050846114f2565b63234c0ffd60e21b5f5260045ffd5b3461043557602036600319011261043557600435805f52600a60205260405f20541561042657805f52600a60205260405f20600d60ff600e8301541661159481613f7a565b036104d957600b810190815490811561106b57600c8101805460ff811661105c5760018060a01b03600754165f8454602460405180948193631cab5c9d60e31b835260048301525afa8015610b5857610120915f9161167e575b500180516001600160a01b031615610b2757516001600160a01b03163303610b185760ff19166001179055335f908152600d602090815260408083206003909401546001600160a01b03168352929052208054909161164c91614225565b905554906040519182527f68afe7ecfeac2108bf74c8d4bb1d8c04f3799bd71673fa3e10e274e1cbf28a7960203393a3005b61169291503d805f833e610b4a8183613f9f565b886115ee565b3461043557606036600319011261043557600435602435600481101561043557604435906116c4614c99565b825f52600a60205260405f20541561042657825f52600a60205260ff601160405f200154166104fc57825f52600a60205260405f2091600e830191825491600660ff841661171181613f7a565b036104d95760028501546001600160a01b031633036112dd57600f85019485544211610ccb5760100180546118d15781156107935782156104175755847f8c0f79cb43223fbd00b73d4bbc8a0f62f1f2d6ddb3a6b650d90d0ee3557f683a6020604051848152a26001810361178d57505050506110d7906145ac565b60020361187e57505050805f52600a60205260405f20600e8101805490600e60ff83169260ff191617905581545f52600c6020525f60408120556117d081613f7a565b600b811490811561186a575b506117fe575b5060405160208160055f516020614ee15f395f51905f529352a2005b815f52601060205260405f205f805260205261182360405f2054600b83015490614225565b60028201546001600160a01b039081165f908152600d602090815260408083206003909601549093168252939093529091208054909161186291614225565b9055816117e2565b600c915061187781613f7a565b14836117dc565b60ff1916600717905560045f5260096020525f516020614fa15f395f51905f52546118a99042614225565b90557fb4a770b2db334eaf0ab77f3470dc51ac5bcd10a3033f309fd67a6385bd761e0b5f80a2005b63c0f9cf3b60e01b5f5260045ffd5b34610435575f3660031901126104355760206040515f8152f35b34610435576020366003190112610435576004356119166144ae565b6002600454146111dc576002600455805f52600a60205260405f205415610426576111d5906145ac565b346104355760203660031901126104355760043561195c614c99565b805f52600a60205260405f20541561042657805f52600a60205260ff601160405f200154166104fc57805f52600a60205260405f2060ff600e820154166119a281613f7a565b600d8114908115611a9e575b8115611a89575b8115611a75575b506104d95760028101546001600160a01b031633141580611a5e575b6104d9576014810180546001600160a01b0316611a4f5780546001600160a01b0319163317905560065f5260096020525f516020614e415f395f51905f5254601590611a249042614225565b91015533907f7457f5ceee8e52b1ef56c933d90340dfbda61ea10b7e9be55550e9435d91bc775f80a3005b63ed8dd1bd60e01b5f5260045ffd5b5060018101546001600160a01b03163314156119d8565b600c9150611a8281613f7a565b14836119bc565b9050611a9481613f7a565b600b8114906119b5565b9050611aa981613f7a565b600e8114906119ae565b34610435575f366003190112610435576020600654604051908152f35b3461043557602036600319011261043557611ae9613f2e565b611af1614465565b6001600160a01b03165f908152600f60205260409020805460ff19169055005b3461043557604036600319011261043557611b2a613f44565b6004355f525f516020614f015f395f51905f5260205260405f209060018060a01b03165f52602052602060ff60405f2054166040519015158152f35b3461043557604036600319011261043557611b7f613f5a565b5f60408051611b8d81613f84565b82815282602082015201526004355f52601060205260ff60405f2091165f52602052606060405f20604051611bc181613f84565b815491828252604060ff600260018401549360208601948552015416920191151582526040519283525160208301525115156040820152f35b3461043557602036600319011261043557600435611c166144ae565b805f52600a60205260405f205415610426575f908152600a602052604081206014810180546001600160a01b031916905560150155005b3461043557602036600319011261043557600435611c69614c99565b6002600454146111dc576002600455805f52600a60205260405f20541561042657805f52600a60205260ff601160405f200154166104fc57805f52600a60205260405f2090600e8201600a60ff825416611cc281613f7a565b036104d95760028301546001600160a01b031633036112dd576005546001600160a01b03168015159081611ee9575b506104d957600f83019081544211611eda5760085460405163023aa9ab60e61b81527fd8e6c8b39dbc70333b42d059fa436cf2679722325c0f6ed7e701df0b05a637c8600482015290602090829060249082906001600160a01b03165afa908115610b58575f91611e9b575b50604051636896470560e11b815290602090829060049082906001600160a01b03165afa908115610b58575f91611e61575b5015611e5257825f52601060205260405f205f8052602052611dd7611dbd60405f2054600b87015490614225565b6003909501548590309033906001600160a01b0316614cc0565b825f52601060205260405f205f8052602052600260405f2001600160ff19825416179055600660ff1982541617905560015f526009602052611e1d60405f205442614225565b90556040519182527fc8fceb94d8cfaf3010a32f39dbdb0c0b361b10cdd6c7299d60376c85ff61283760203393a36001600455005b6304d54fbf60e41b5f5260045ffd5b90506020813d602011611e93575b81611e7c60209383613f9f565b8101031261043557611e8d90614076565b85611d8f565b3d9150611e6f565b90506020813d602011611ed2575b81611eb660209383613f9f565b81010312610435576020611ecb600492614050565b9150611d5d565b3d9150611ea9565b633833dfbb60e01b5f5260045ffd5b60249150602090604051928380926336ef202560e11b82528760048301525afa908115610b58575f91611f1e575b5084611cf1565b90506020813d602011611f50575b81611f3960209383613f9f565b8101031261043557611f4a90614076565b84611f17565b3d9150611f2c565b34610435575f36600319011261043557611f70614465565b611f78614c99565b600160ff195f516020614f415f395f51905f525416175f516020614f415f395f51905f52557f62e78cea01bee320cd4e420270b5ea74000d11b0c9f74754ebdbfc544b05a2586020604051338152a1005b3461043557602036600319011261043557600435611fe5614c99565b805f52600a60205260405f20541561042657805f52600a60205260ff601160405f200154166104fc575f818152600a6020526040902060018101546001600160a01b03163303610cda5760ff600e60079201541661204281613f7a565b036104d957805f52600a60205260405f20600e8101805490600e60ff83169260ff191617905581545f52600c6020525f604081205561208081613f7a565b600b811490811561211a575b506120ae575b5060405160208160025f516020614ee15f395f51905f529352a2005b815f52601060205260405f205f80526020526120d360405f2054600b83015490614225565b60028201546001600160a01b039081165f908152600d602090815260408083206003909601549093168252939093529091208054909161211291614225565b905581612092565b600c915061212781613f7a565b148361208c565b3461043557602036600319011261043557612147613f2e565b61214f614465565b6001600160a01b03168015610793575f908152600f60205260409020805460ff19166001179055005b346104355760203660031901126104355760043561219461441c565b805f52600a60205260405f20541561042657805f52600a60205260405f20601181019081549160ff831615612226575f926012830192600f6121d7855442614218565b91019081549081612213575b50505060ff19169055557f9d9b6c6fd020eade06cab024fe4853c17d4ee689fa225e44b23c82908c1529205f80a2005b61221c91614225565b90558580806121e3565b634c22487160e01b5f5260045ffd5b34610435576040366003190112610435576001600160401b03600435116104355761020060043536036003190112610435576024356001600160401b0381116104355736602382011215610435576001600160401b0360048201351161043557366024826004013560051b83010111610435576122b06144ae565b6006545f198114610dc1576001810160065561231760206122dc6101c460043501600435600401614392565b6123296122f46101e460043501600435600401614392565b6040516305cef8bf60e31b815260606004820152968795869560648701916143c7565b848103600319016024860152916143c7565b60a460043501356044830152038173__$d9d5ca12ac0847b5930a2330ee53d4fb3d$__5af4908115610b58575f91612a51575b5061236b6044600435016143eb565b6123796064600435016143eb565b6123876084600435016143eb565b61239560e4600435016143eb565b6123a4610124600435016143eb565b906123b4610164600435016143eb565b925f805260096020526123cb60405f205442614225565b604051969095906001600160401b036102c0890190811190891117612904576102c0880160405260246004350135885260018060a01b0316602088015260018060a01b0316604087015260018060a01b0316606086015260a46004350135608086015260c4600435013560a086015260018060a01b031660c0850152610104600435013560e085015260018060a01b0316610100840152610144600435013561012084015260018060a01b03166101408301526101a460043501356101608301525f6101808301525f6101a083015260056101c08301526101e08201525f6102008201525f6102208201525f6102408201525f6102608201525f6102808201525f6102a0820152600183015f52600a60205260156102a060405f20928051845560018060a01b03602082015116600185019060018060a01b031660018060a01b031982541617905560018060a01b03604082015116600285019060018060a01b031660018060a01b031982541617905560018060a01b03606082015116600385019060018060a01b031660018060a01b03198254161790556080810151600485015560a0810151600585015560018060a01b0360c082015116600685019060018060a01b031660018060a01b031982541617905560e0810151600785015560018060a01b0361010082015116600885019060018060a01b031660018060a01b0319825416179055610120810151600985015560018060a01b0361014082015116600a85019060018060a01b031660018060a01b0319825416179055610160810151600b8501556126256101808201511515600c8601614381565b6101a0810151600d850155600e84016101c082015161264381613f7a565b61264c81613f7a565b60ff801983541691161790556101e0810151600f8501556102008101516010850155612682610220820151151560118601614381565b61024081015160128501556102608101516013850180546001600160a01b039283166001600160a01b03199182161790915561028083015160148701805491909316911617905501519101555f5b8181106129bb575f84843682900360a219015b826004013584101561291857600182015f52600b60205260405f209360248160051b8501013582811215610435578401948054600160401b8110156129045761273191600182018155613fdd565b9590956128f157602481013560421936839003018112156104355781016024019586356001600160401b038111610435578036036020890113610435578154600181811c911680156128e7575b60208210146128d357601f811161288e575b505f601f8211600114612819576127ee92826084936002936001999a9b9c5f9261280b575b50505f19600383901b1c191690881b1781555b60448501358782015501926127e86127e26064830161440f565b85614381565b0161440f565b815461ff00191690151560081b61ff0016179055019291906126e3565b602092500101358c806127b5565b601f19821690835f5260205f20915f5b8181106128745750836002936001999a9b9c6127ee97946084978c9510612858575b505050811b0181556127c8565b01602001355f19600384901b60f8161c191690558c808061284b565b9192602060018192828f8801013581550194019201612829565b825f5260205f20601f830160051c810191602084106128c9575b601f0160051c01905b8181106128be5750612790565b5f81556001016128b1565b90915081906128a8565b634e487b7160e01b5f52602260045260245ffd5b90607f169061277e565b634e487b7160e01b5f525f60045260245ffd5b634e487b7160e01b5f52604160045260245ffd5b602082602460043501355f52600c82526001810160405f205560018060a01b036129466064600435016143eb565b166040519060246004350135600184017f5ba2d3aaa8e1e5bbbd9f867713ff8003713fc0f7e68663f60f68f2e151f4c7e75f80a46001600160a01b036129906004356064016143eb565b16815260246004350135905f516020614ec15f395f51905f52846001850192a3600160405191018152f35b80612a4b6129e06001936129da6101c460043501600435600401614392565b906143ff565b3560026129fc846129da6101e460043501600435600401614392565b3560405192612a0a84613f84565b83526020830190815260408301905f82528689015f52601060205260405f2060ff808816165f5260205260405f209351845551868401555115159101614381565b016126d0565b90506020813d602011612a7b575b81612a6c60209383613f9f565b8101031261043557518361235c565b3d9150612a5f565b3461043557602036600319011261043557600435612a9f614465565b6107d08111612ad9576020817fd10d75876659a287a59a6ccfa2e3fff42f84d94b542837acd30bc184d562de4092600155604051908152a1005b63499fddb160e01b5f5260045ffd5b34610435575f3660031901126104355760206040515f516020614f815f395f51905f528152f35b346104355760c036600319011261043557600435612b2b613f44565b906044356084356001600160a01b03811681036104355760a43590612b4e61450a565b835f52600a60205260405f205415610426576002600454146111dc576002600455835f52600a60205260405f2092600e84019560ff875416612b8f81613f7a565b60068114159081612d96575b506104d95760ff6011860154166104fc576001600160a01b0316958615610793578115610417576013850180546001600160a01b031615612d70575b5060018060a01b0360075416925f8654602460405180978193631cab5c9d60e31b835260048301525afa908115610b5857889588955f93612d54575b505f9281151580612d47575b612cfd575b5050602095938795937f535fff337cc06e7ebc5c59d8884ac9de8b73a4aa3ebe96f8bad6a6b0a223108893889360025f516020614ec15f395f51905f529b018860018060a01b03198254161790558360048a015560643560098a0155600a89019060018060a01b031660018060a01b0319825416179055600b880155600c870160ff1981541690555f6010880155600660ff1982541617905560015f5260098252612cd360405f205442614225565b600f87015585545f52600c82528360405f2055604051908152a35493604051908152a36001600455005b9197955095506080915001518060021b9080820460041490151715610dc157848102948186041490151715610dc15791938693869391835f516020614ec15f395f51905f52612c24565b5060808101511515612c1f565b612d699193503d805f833e610b4a8183613f9f565b918a612c13565b600286015481546001600160a01b0319166001600160a01b039190911617905587612bd7565b600e9150612da381613f7a565b141588612b9b565b3461043557602036600319011261043557600435612dc76144ae565b805f52600a60205260405f20541561042657805f52600a60205260405f20600e8101805490600e60ff83169260ff191617905581545f52600c6020525f6040812055612e1281613f7a565b600b8114908115612eac575b50612e40575b5060405160208160075f516020614ee15f395f51905f529352a2005b815f52601060205260405f205f8052602052612e6560405f2054600b83015490614225565b60028201546001600160a01b039081165f908152600d6020908152604080832060039096015490931682529390935290912080549091612ea491614225565b905581612e24565b600c9150612eb981613f7a565b1483612e1e565b3461043557602036600319011261043557600435612edc61441c565b805f52600a60205260405f20541561042657805f52600a60205260ff600e60405f20015416612f0a81613f7a565b600d8114908115613002575b506104d957805f52600a60205260405f20600e8101805490600e60ff83169260ff191617905581545f52600c6020525f6040812055612f5481613f7a565b600b8114908115612fee575b50612f82575b50604051602081600e5f516020614ee15f395f51905f529352a2005b815f52601060205260405f205f8052602052612fa760405f2054600b83015490614225565b60028201546001600160a01b039081165f908152600d6020908152604080832060039096015490931682529390935290912080549091612fe691614225565b905581612f66565b600c9150612ffb81613f7a565b1483612f60565b600e915061300f81613f7a565b1482612f16565b34610435575f366003190112610435575f546040516001600160a01b039091168152602090f35b34610435575f3660031901126104355760206040515f516020614ea15f395f51905f528152f35b3461043557602036600319011261043557600435613080614c99565b805f52600a60205260405f20541561042657805f52600a60205260ff601160405f200154166104fc57805f52600a60205260405f20600560ff600e830154166130c881613f7a565b036104d9576007549054604051631cab5c9d60e31b81526004810182905290915f90829060249082906001600160a01b03165afa8015610b5857610120915f9161323b575b500180516001600160a01b031615610b2757516001600160a01b03163303610b1857817ffd2ee1303442fdcd75ef0f691a0821035ed5505126ccc8a813b39ca0cebe5c2f5f80a3805f52600a60205260405f20600e8101805490600e60ff83169260ff191617905581545f52600c6020525f604081205561318d81613f7a565b600b8114908115613227575b506131bb575b5060405160208160045f516020614ee15f395f51905f529352a2005b815f52601060205260405f205f80526020526131e060405f2054600b83015490614225565b60028201546001600160a01b039081165f908152600d602090815260408083206003909601549093168252939093529091208054909161321f91614225565b90558161319f565b600c915061323481613f7a565b1483613199565b61324f91503d805f833e610b4a8183613f9f565b8461310d565b346104355760403660031901126104355761326e613f44565b6004355f52600e60205260405f209060018060a01b03165f52602052602060405f2054604051908152f35b34610435575f36600319011261043557602060ff5f516020614f415f395f51905f5254166040519015158152f35b34610435575f366003190112610435577f00000000000000000000000000000000000000000000000000000000000000006001600160a01b0316300361331e5760206040515f516020614e815f395f51905f528152f35b63703e46dd60e11b5f5260045ffd5b604036600319011261043557613341613f2e565b602435906001600160401b038211610435573660238301121561043557816004013561336c81613fc2565b9261337a6040519485613f9f565b818452366024838301011161043557815f9260246020930183870137840101526001600160a01b037f000000000000000000000000000000000000000000000000000000000000000016308114908115613530575b5061331e57335f9081525f516020614e615f395f51905f52602052604090205460ff1615613519576040516352d1902d60e01b81526001600160a01b0382169290602081600481875afa5f91816134e5575b506134395783634c9c8ce360e01b5f5260045260245ffd5b805f516020614e815f395f51905f528592036134d35750823b156134c1575f516020614e815f395f51905f5280546001600160a01b031916821790557fbc7cd75a20ee27fd9adebab32041f755214dbc6bffa90cc0225b39da2e5c2d3b5f80a28051156134a9576110d791614d54565b5050346134b257005b63b398979f60e01b5f5260045ffd5b634c9c8ce360e01b5f5260045260245ffd5b632a87526960e21b5f5260045260245ffd5b9091506020813d602011613511575b8161350160209383613f9f565b8101031261043557519085613421565b3d91506134f4565b63e2517d3f60e01b5f52336004525f60245260445ffd5b5f516020614e815f395f51905f52546001600160a01b031614159050836133cf565b346104355760203660031901126104355760e06135706004356142b2565b60c06040519180511515835260018060a01b03602082015116602084015260018060a01b03604082015116604084015260018060a01b0360608201511660608401526080810151608084015260a08101516135ca81613f7a565b60a0840152015160c0820152f35b34610435575f366003190112610435576007546040516001600160a01b039091168152602090f35b34610435575f36600319011261043557613618614465565b600354801561368d57421061367e575f8054600280546001600160a01b038082166001600160a01b0319808616821787559092169092556003849055929116907f0c5d18caa145415182f8ad3d2563da586609cec04ac8505274d87bc43f00b4a49080a3005b6357f4ad8b60e01b5f5260045ffd5b6315090c2d60e01b5f5260045ffd5b34610435576040366003190112610435576136b5613f2e565b6136bd613f44565b6001600160a01b039182165f908152600d60209081526040808320949093168252928352819020549051908152f35b34610435575f36600319011261043557613704614465565b5f516020614f415f395f51905f525460ff81161561375b5760ff19165f516020614f415f395f51905f52557f5db9ee0a495bf2e6ff9c91a7834c1ba4fdd244a5e8aa4e537bd38aeae4b073aa6020604051338152a1005b638dfc202b60e01b5f5260045ffd5b34610435576020366003190112610435576004356137866144ae565b805f52600a60205260405f205415610426575f52600a60205260405f20600e8101600a60ff1982541617905560055f526009602052600f6137cb60405f205442614225565b910155005b34610435576040366003190112610435576137e9613f6a565b602435906137f5614465565b600a82106138185760ff1660068111610417575f52600960205260405f20555f80f35b63296d383360e01b5f5260045ffd5b3461043557604036600319011261043557613840613f44565b336001600160a01b0382160361385c576110d790600435614bfd565b63334bd91960e11b5f5260045ffd5b34610435575f366003190112610435576020600154604051908152f35b34610435575f3660031901126104355760206040515f516020614fe15f395f51905f528152f35b346104355760203660031901126104355760ff6138ca613f6a565b165f526009602052602060405f2054604051908152f35b34610435576040366003190112610435576110d7600435613900613f44565b9061390d6110cd82614294565b614b6c565b34610435575f36600319011261043557604060018060a01b036002541660035482519182526020820152f35b346104355760403660031901126104355760043561395a613f5a565b6139626144ae565b815f52600a60205260405f20541561042657602060ff5f516020614ee15f395f51905f52921661399181613f7a565b835f52600a825260405f20600e8101805490600e60ff83169260ff191617905581545f52600c84525f60408120556139c881613f7a565b600b8114908115613a53575b506139ed575b50604051906139e881613f7a565b8152a2005b845f526010835260405f205f80528352613a1060405f2054600b83015490614225565b60028201546001600160a01b039081165f908152600d86526040808220600390950154909216815292855290912080549091613a4b91614225565b9055846139da565b600c9150613a6081613f7a565b14866139d4565b3461043557602036600319011261043557613a80613f2e565b613a88614465565b6001600160a01b0316801561079357600580546001600160a01b031916919091179055005b34610435576020366003190112610435576020613acb600435614294565b604051908152f35b34610435575f366003190112610435576005546040516001600160a01b039091168152602090f35b3461043557602036600319011261043557613b14613f2e565b6002600454146111dc576002600455335f52600d60205260405f2060018060a01b0382165f5260205260405f2054908115613bb057335f52600d60205260405f2060018060a01b0382165f526020525f604081205560018060a01b031690613b7d813384614975565b6040519081527f716942921e9b67ee05c4c2ffcf216f189086c9053b444c8928a49db4bdb1ae8e60203392a36001600455005b6312d37ee560e31b5f5260045ffd5b346104355760203660031901126104355760c060ff613bdf600435614232565b9495919290936040519615158752151560208701521660408501526060840152608083015260018060a01b031660a0820152f35b346104355760203660031901126104355760043563ffffffff60e01b811680910361043557602090637965db0b60e01b8114908115613c58575b506040519015158152f35b6301ffc9a760e01b14905082613c4d565b3461043557602036600319011261043557600435613c8561441c565b6002600454146111dc576002600455805f52600a60205260405f20541561042657805f52600a60205260ff600e60405f20015416613cc281613f7a565b600b8114159081613cf7575b81613ce2575b506104d9576111d5906145ac565b60069150613cef81613f7a565b141582613cd4565b9050613d0281613f7a565b600c81141590613cce565b3461043557613d1b36613f18565b90613d2461441c565b805f52600a60205260405f20541561042657805f52600a60205260405f20600d60ff600e83015416613d5581613f7a565b036104d957815f52600b60205260405f208054841015613f095783613d7991613fdd565b509060028201805460ff8160081c16613efa5761ff001981166101001790915560ff1615613ee75760018060a01b03600754165f8254602460405180948193631cab5c9d60e31b835260048301525afa8015610b5857610120915f91613ecd575b500180516001600160a01b031615610b2757516001600160a01b03165b835f52600e602052600360405f2092019060018060a01b038254169260018060a01b0384165f52602052600160405f20549401908154809510610417577f8a7b03d7dda6d95d58f5cd28b28478861ccab393473b4181ae4d6ec30207dfea94604094875f52600e602052855f209060018060a01b03165f52602052613e80855f20918254614218565b905581546001600160a01b039182165f818152600d6020908152878220965490941681529490925292849020805491939091613ebc9190614225565b9055549082519182526020820152a3005b613ee191503d805f833e610b4a8183613f9f565b86613dda565b60018101546001600160a01b0316613df7565b631281aab960e01b5f5260045ffd5b63671a587360e01b5f5260045ffd5b6040906003190112610435576004359060243590565b600435906001600160a01b038216820361043557565b602435906001600160a01b038216820361043557565b6024359060ff8216820361043557565b6004359060ff8216820361043557565b600f111561091457565b606081019081106001600160401b0382111761290457604052565b601f909101601f19168101906001600160401b0382119082101761290457604052565b6001600160401b03811161290457601f01601f191660200190565b8054821015613ff6575f52600360205f20910201905f90565b634e487b7160e01b5f52603260045260245ffd5b81601f820112156104355780519061402182613fc2565b9261402f6040519485613f9f565b8284526020838301011161043557815f9260208093018386015e8301015290565b51906001600160a01b038216820361043557565b519064ffffffffff8216820361043557565b5190811515820361043557565b602081830312610435578051906001600160401b038211610435570161022081830312610435576040519161022083016001600160401b03811184821017612904576040528151835260208201516001600160401b03811161043557816140eb91840161400a565b602084015260408201516001600160401b038111610435578161410f91840161400a565b604084015260608201516001600160401b038111610435578161413391840161400a565b60608401526080820151608084015260a082015160a084015260c082015160c084015260e082015160e08401526101008201516101008401526141796101208301614050565b61012084015261418c6101408301614064565b61014084015261419f6101608301614064565b6101608401526141b26101808301614076565b6101808401526141c56101a08301614076565b6101a08401526141d86101c08301614076565b6101c08401526141eb6101e08301614076565b6101e08401526102008201516001600160401b0381116104355761420f920161400a565b61020082015290565b91908203918211610dc157565b91908201809211610dc157565b5f52600a60205260405f208054156142855760ff6011820154169160ff600e830154169161425f83613f7a565b600f810154601582015460149092015460019594939192916001600160a01b0390911690565b505f905f905f905f905f905f90565b5f525f516020614f015f395f51905f52602052600160405f20015490565b60405190919060e081016001600160401b03811182821017612904576040525f81525f60208201525f60408201525f60608201525f60808201525f60a08201525f60c082015280925f52600a60205260405f209081541561437c575060018084528101546001600160a01b039081166020850152600282015481166040850152600382015416606084015260048101546080840152600e810154600f919060ff1661435c81613f7a565b61436581613f7a565b61436e81613f7a565b60a0850152015460c0830152565b925050565b9060ff801983541691151516179055565b903590601e198136030182121561043557018035906001600160401b03821161043557602001918160051b3603831361043557565b81835290916001600160fb1b0383116104355760209260051b809284830137010190565b356001600160a01b03811681036104355790565b9190811015613ff65760051b0190565b3580151581036104355790565b335f9081525f516020614e015f395f51905f52602052604090205460ff161561444157565b63e2517d3f60e01b5f52336004525f516020614ea15f395f51905f5260245260445ffd5b335f9081525f516020614e215f395f51905f52602052604090205460ff161561448a57565b63e2517d3f60e01b5f52336004525f516020614f815f395f51905f5260245260445ffd5b335f9081527fe102a084b8508bede6bf51c8b54b1c4d119a4a0e42216477c270f0353f96ae65602052604090205460ff16156144e657565b63e2517d3f60e01b5f52336004525f516020614f615f395f51905f5260245260445ffd5b335f9081527f15006ca99e3841ce9f950bb5d9acd3e27ae500b327faa87196c493ffe88cef4c602052604090205460ff161561454257565b63e2517d3f60e01b5f52336004525f516020614fe15f395f51905f5260245260445ffd5b5f8181525f516020614f015f395f51905f526020908152604080832033845290915290205460ff16156145965750565b63e2517d3f60e01b5f523360045260245260445ffd5b5f90805f52600a60205260405f2090600e8201600d60ff198254161790556276a7004201804211610dc157600d83015581545f52600c6020525f6040812055805f52601060205260405f205f805260205260405f20549160015480151580614962575b1561495b575b600582015480151580614945575b1561493e575b600783015480151580614928575b1561492057905b60098401548015158061490a575b1561490257925b6040519663a4ba3a7f60e01b88526004880152602487015260448601526064850152608484015260a08360a48173__$d9d5ca12ac0847b5930a2330ee53d4fb3d$__5af4928315610b58575f5f5f915f935f976148b1575b5080614871575b508061482e575b50806147eb575b50806147a8575b506001810180546001600160a01b039081165f908152600d6020908152604080832060038701549094168352929052208054919490916147079190614225565b90556007548154935460028301805490956001600160a01b0391821693909282169116803b15610435575f928360649260405196879586946332f65ba360e01b86526004860152602485015260448401525af18015610b5857614786575b505491546001600160a01b0316925f516020614f215f395f51905f529080a4565b6147939194505f90613f9f565b5f925f516020614f215f395f51905f52614765565b600a8201546001600160a01b039081165f908152600d602090815260408083206003870154909416835292905220805490916147e391614225565b90555f6146c7565b60088301546001600160a01b039081165f908152600d6020908152604080832060038801549094168352929052208054909161482691614225565b90555f6146c0565b60068401546001600160a01b039081165f908152600d6020908152604080832060038901549094168352929052208054909161486991614225565b90555f6146b9565b5f80546001600160a01b039081168252600d6020908152604080842060038a015490931684529190529020805490916148a991614225565b90555f6146b2565b96505050505060a0833d60a0116148fa575b816148d060a09383613f9f565b8101031261043557825160208401516040850151606086015160809096015195929091905f6146ab565b3d91506148c3565b505f92614653565b50600a8501546001600160a01b0316151561464c565b505f9061463e565b5060088401546001600160a01b03161515614637565b505f614629565b5060068301546001600160a01b03161515614623565b505f614615565b505f546001600160a01b0316151561460f565b916040519163a9059cbb60e01b5f5260018060a01b031660045260245260205f60448180865af19060015f51148216156149d5575b604052156149b55750565b635274afe760e01b5f9081526001600160a01b0391909116600452602490fd5b9060018115166149ed57823b15153d151616906149aa565b503d5f823e3d90fd5b6001600160a01b0381165f9081525f516020614e615f395f51905f52602052604090205460ff16614a67576001600160a01b03165f8181525f516020614e615f395f51905f5260205260408120805460ff191660011790553391905f516020614de15f395f51905f528180a4600190565b505f90565b6001600160a01b0381165f9081525f516020614e215f395f51905f52602052604090205460ff16614a67576001600160a01b03165f8181525f516020614e215f395f51905f5260205260408120805460ff191660011790553391905f516020614f815f395f51905f52905f516020614de15f395f51905f529080a4600190565b6001600160a01b0381165f9081525f516020614e015f395f51905f52602052604090205460ff16614a67576001600160a01b03165f8181525f516020614e015f395f51905f5260205260408120805460ff191660011790553391905f516020614ea15f395f51905f52905f516020614de15f395f51905f529080a4600190565b5f8181525f516020614f015f395f51905f52602090815260408083206001600160a01b038616845290915290205460ff16614bf7575f8181525f516020614f015f395f51905f52602090815260408083206001600160a01b0395909516808452949091528120805460ff19166001179055339291905f516020614de15f395f51905f529080a4600190565b50505f90565b5f8181525f516020614f015f395f51905f52602090815260408083206001600160a01b038616845290915290205460ff1615614bf7575f8181525f516020614f015f395f51905f52602090815260408083206001600160a01b0395909516808452949091528120805460ff19169055339291907ff6391f5c32d9c69d2a47ea670b442974b53935d1edc7fd64eb21e047a839171b9080a4600190565b60ff5f516020614f415f395f51905f525416614cb157565b63d93c066560e01b5f5260045ffd5b6040516323b872dd60e01b5f9081526001600160a01b039384166004529290931660245260449390935260209060648180865af19060015f5114821615614d11575b6040525f606052156149b55750565b9060018115166149ed57823b15153d15161690614d02565b60ff5f516020614fc15f395f51905f525460401c1615614d4557565b631afcd79f60e31b5f5260045ffd5b905f8091602081519101845af48080614dcd575b15614d885750506040513d81523d5f602083013e60203d82010160405290565b15614dad57639996b31560e01b5f9081526001600160a01b0391909116600452602490fd5b3d15614dbe576040513d5f823e3d90fd5b63d6bda27560e01b5f5260045ffd5b503d151580614d685750813b1515614d6856fe2f8788117e7eff1d82e926ec794901d17c78024a50270940304540a733656f0d7a1492cadb22452d254c71a9ef0c781c9f2d1c472dc5213a713c8769ea04d819b16e88c42fd4e48df2dd6a2eabd6bc9aec654ec170056b470819f8892cc6431cbb6daa0c283751197dfdc76590680f9005e97d6f23870deb1164ab60b28b9f5fb7db2dd08fcb62d0c9e08c51941cae53c267786a0b75803fb7960902fc8ef97d360894a13ba1a3210667c828492db98dca3e2076cc3735a920a3ca505d382bbce4369475d33ca6555b45ac3cf081bee16c4b11779d89f812395c569b2de40f013a24deaadf78a85a780efe5abe4bbc96c2cbcb1620cf4c951dca4e931576a35f6f16db8d1d117ace6c231f2420199bd5731215b09c0610c8103dd70237f23b6702dd7bc7dec4dceedda775e58dd541e08a116c6c53815c0bd028192f7b6268004c64a78d82982b8bfbb5b3bc9a6e8b4e024bb84db4aaf997d36667cd611183dccd5ed15c6e187e77e9aee88184c21f4f2182ab5827cb3b7e07fbedcd63f03300b91045a954d2b1232c32104950cc1bd73039d77d96d80d2677a658336477a079a49807205ce4d355092ef5a8a18f56e8913cf4a201fbe287825b095693c217758dc18c4ccfd75f5c815b63770fa542fd953e8fef7e0e44bbdd4913470ce7e9cbf0c57e16840df040f15088dc2f81fe391c3923bec73e23a9662efc9c229c6a00a1781173f98d02239c8eb8786d4d41c7604b58c14ea1a66660ec8deb665f03daa2646970667358221220bb97ca0f33dc14c26cfc069b8e59e8d8fa45719e148d63041f264078dd63a5ce64736f6c634300081c0033f0c57e16840df040f15088dc2f81fe391c3923bec73e23a9662efc9c229c6a00",
  "linkReferences": {
    "project/contracts/libraries/FeeLib.sol": {
      "FeeLib": [
        {
          "length": 20,
          "start": 9216
        },
        {
          "length": 20,
          "start": 18249
        }
      ]
    }
  },
  "deployedLinkReferences": {
    "project/contracts/libraries/FeeLib.sol": {
      "FeeLib": [
        {
          "length": 20,
          "start": 9017
        },
        {
          "length": 20,
          "start": 18050
        }
      ]
    }
  },
  "immutableReferences": {
    "1408": [
      {
        "length": 32,
        "start": 13017
      },
      {
        "length": 32,
        "start": 13220
      }
    ]
  },
  "inputSourceName": "project/contracts/core/DealEscrow.sol",
  "buildInfoId": "solc-0_8_28-1c884cc773ddaa728f21541767c91c019ae24be1"
}