{
  "_format": "hh3-artifact-1",
  "contractName": "FreeTransferEscrow",
  "sourceName": "contracts/core/FreeTransferEscrow.sol",
  "abi": [
    {
      "inputs": [],
      "stateMutability": "nonpayable",
      "type": "constructor"
    },
    {
      "inputs": [],
      "name": "AccessControlBadConfirmation",
      "type": "error"
    },
    {
      "inputs": [
        {
          "internalType": "address",
          "name": "account",
          "type": "address"
        },
        {
          "internalType": "bytes32",
          "name": "neededRole",
          "type": "bytes32"
        }
      ],
      "name": "AccessControlUnauthorizedAccount",
      "type": "error"
    },
    {
      "inputs": [
        {
          "internalType": "address",
          "name": "target",
          "type": "address"
        }
      ],
      "name": "AddressEmptyCode",
      "type": "error"
    },
    {
      "inputs": [],
      "name": "AlreadyProposed",
      "type": "error"
    },
    {
      "inputs": [],
      "name": "CannotConfirmOwnProposal",
      "type": "error"
    },
    {
      "inputs": [],
      "name": "ConsentWindowExpired",
      "type": "error"
    },
    {
      "inputs": [],
      "name": "ContractNotExpired",
      "type": "error"
    },
    {
      "inputs": [],
      "name": "DepositTooLow",
      "type": "error"
    },
    {
      "inputs": [
        {
          "internalType": "address",
          "name": "implementation",
          "type": "address"
        }
      ],
      "name": "ERC1967InvalidImplementation",
      "type": "error"
    },
    {
      "inputs": [],
      "name": "ERC1967NonPayable",
      "type": "error"
    },
    {
      "inputs": [],
      "name": "EnforcedPause",
      "type": "error"
    },
    {
      "inputs": [],
      "name": "ExpectedPause",
      "type": "error"
    },
    {
      "inputs": [],
      "name": "FailedCall",
      "type": "error"
    },
    {
      "inputs": [],
      "name": "InvalidAddress",
      "type": "error"
    },
    {
      "inputs": [],
      "name": "InvalidAmount",
      "type": "error"
    },
    {
      "inputs": [],
      "name": "InvalidInitialization",
      "type": "error"
    },
    {
      "inputs": [],
      "name": "MedicalAlreadySubmitted",
      "type": "error"
    },
    {
      "inputs": [],
      "name": "MedicalWindowExpired",
      "type": "error"
    },
    {
      "inputs": [],
      "name": "NoActivePreContract",
      "type": "error"
    },
    {
      "inputs": [],
      "name": "NotBuyingClub",
      "type": "error"
    },
    {
      "inputs": [],
      "name": "NotCurrentClub",
      "type": "error"
    },
    {
      "inputs": [],
      "name": "NotInitializing",
      "type": "error"
    },
    {
      "inputs": [],
      "name": "NotPlayerWallet",
      "type": "error"
    },
    {
      "inputs": [],
      "name": "NothingToClaim",
      "type": "error"
    },
    {
      "inputs": [],
      "name": "PlayerAlreadyFreeAgent",
      "type": "error"
    },
    {
      "inputs": [],
      "name": "PlayerHasActiveProcess",
      "type": "error"
    },
    {
      "inputs": [],
      "name": "PlayerNotFreeAgent",
      "type": "error"
    },
    {
      "inputs": [],
      "name": "PlayerWalletNotSet",
      "type": "error"
    },
    {
      "inputs": [],
      "name": "PreContractAlreadyActive",
      "type": "error"
    },
    {
      "inputs": [],
      "name": "ProtocolFeeTooHigh",
      "type": "error"
    },
    {
      "inputs": [],
      "name": "ReentrantCall",
      "type": "error"
    },
    {
      "inputs": [
        {
          "internalType": "address",
          "name": "token",
          "type": "address"
        }
      ],
      "name": "SafeERC20FailedOperation",
      "type": "error"
    },
    {
      "inputs": [],
      "name": "TerminationAlreadyProposed",
      "type": "error"
    },
    {
      "inputs": [],
      "name": "TerminationNotProposed",
      "type": "error"
    },
    {
      "inputs": [],
      "name": "TimerTooShort",
      "type": "error"
    },
    {
      "inputs": [],
      "name": "TokenNotApproved",
      "type": "error"
    },
    {
      "inputs": [],
      "name": "TooEarlyForPreContract",
      "type": "error"
    },
    {
      "inputs": [],
      "name": "TransferWindowClosed",
      "type": "error"
    },
    {
      "inputs": [],
      "name": "UUPSUnauthorizedCallContext",
      "type": "error"
    },
    {
      "inputs": [
        {
          "internalType": "bytes32",
          "name": "slot",
          "type": "bytes32"
        }
      ],
      "name": "UUPSUnsupportedProxiableUUID",
      "type": "error"
    },
    {
      "inputs": [],
      "name": "WrongState",
      "type": "error"
    },
    {
      "anonymous": false,
      "inputs": [
        {
          "indexed": true,
          "internalType": "uint256",
          "name": "ftId",
          "type": "uint256"
        },
        {
          "indexed": true,
          "internalType": "uint256",
          "name": "playerId",
          "type": "uint256"
        },
        {
          "indexed": true,
          "internalType": "address",
          "name": "newClub",
          "type": "address"
        }
      ],
      "name": "FreeTransferCompleted",
      "type": "event"
    },
    {
      "anonymous": false,
      "inputs": [
        {
          "indexed": true,
          "internalType": "address",
          "name": "recipient",
          "type": "address"
        },
        {
          "indexed": true,
          "internalType": "address",
          "name": "token",
          "type": "address"
        },
        {
          "indexed": false,
          "internalType": "uint256",
          "name": "amount",
          "type": "uint256"
        }
      ],
      "name": "FundsClaimed",
      "type": "event"
    },
    {
      "anonymous": false,
      "inputs": [
        {
          "indexed": false,
          "internalType": "uint64",
          "name": "version",
          "type": "uint64"
        }
      ],
      "name": "Initialized",
      "type": "event"
    },
    {
      "anonymous": false,
      "inputs": [
        {
          "indexed": true,
          "internalType": "uint256",
          "name": "ftId",
          "type": "uint256"
        },
        {
          "indexed": false,
          "internalType": "enum FreeTransferEscrow.MedicalOutcome",
          "name": "outcome",
          "type": "uint8"
        }
      ],
      "name": "MedicalSubmitted",
      "type": "event"
    },
    {
      "anonymous": false,
      "inputs": [
        {
          "indexed": true,
          "internalType": "uint256",
          "name": "playerId",
          "type": "uint256"
        }
      ],
      "name": "MutualTerminationConfirmed",
      "type": "event"
    },
    {
      "anonymous": false,
      "inputs": [
        {
          "indexed": true,
          "internalType": "uint256",
          "name": "playerId",
          "type": "uint256"
        },
        {
          "indexed": true,
          "internalType": "address",
          "name": "club",
          "type": "address"
        },
        {
          "indexed": false,
          "internalType": "uint256",
          "name": "settlementAmount",
          "type": "uint256"
        }
      ],
      "name": "MutualTerminationProposed",
      "type": "event"
    },
    {
      "anonymous": false,
      "inputs": [
        {
          "indexed": false,
          "internalType": "address",
          "name": "account",
          "type": "address"
        }
      ],
      "name": "Paused",
      "type": "event"
    },
    {
      "anonymous": false,
      "inputs": [
        {
          "indexed": true,
          "internalType": "uint256",
          "name": "playerId",
          "type": "uint256"
        },
        {
          "indexed": true,
          "internalType": "address",
          "name": "fromClub",
          "type": "address"
        }
      ],
      "name": "PlayerReleased",
      "type": "event"
    },
    {
      "anonymous": false,
      "inputs": [
        {
          "indexed": true,
          "internalType": "uint256",
          "name": "ftId",
          "type": "uint256"
        },
        {
          "indexed": false,
          "internalType": "string",
          "name": "reason",
          "type": "string"
        }
      ],
      "name": "PreContractCancelled",
      "type": "event"
    },
    {
      "anonymous": false,
      "inputs": [
        {
          "indexed": true,
          "internalType": "uint256",
          "name": "ftId",
          "type": "uint256"
        },
        {
          "indexed": true,
          "internalType": "uint256",
          "name": "playerId",
          "type": "uint256"
        },
        {
          "indexed": true,
          "internalType": "address",
          "name": "buyingClub",
          "type": "address"
        }
      ],
      "name": "PreContractProposed",
      "type": "event"
    },
    {
      "anonymous": false,
      "inputs": [
        {
          "indexed": true,
          "internalType": "uint256",
          "name": "ftId",
          "type": "uint256"
        },
        {
          "indexed": true,
          "internalType": "uint256",
          "name": "playerId",
          "type": "uint256"
        },
        {
          "indexed": true,
          "internalType": "address",
          "name": "buyingClub",
          "type": "address"
        },
        {
          "indexed": false,
          "internalType": "uint256",
          "name": "deposit",
          "type": "uint256"
        }
      ],
      "name": "PreContractSigned",
      "type": "event"
    },
    {
      "anonymous": false,
      "inputs": [
        {
          "indexed": true,
          "internalType": "bytes32",
          "name": "role",
          "type": "bytes32"
        },
        {
          "indexed": true,
          "internalType": "bytes32",
          "name": "previousAdminRole",
          "type": "bytes32"
        },
        {
          "indexed": true,
          "internalType": "bytes32",
          "name": "newAdminRole",
          "type": "bytes32"
        }
      ],
      "name": "RoleAdminChanged",
      "type": "event"
    },
    {
      "anonymous": false,
      "inputs": [
        {
          "indexed": true,
          "internalType": "bytes32",
          "name": "role",
          "type": "bytes32"
        },
        {
          "indexed": true,
          "internalType": "address",
          "name": "account",
          "type": "address"
        },
        {
          "indexed": true,
          "internalType": "address",
          "name": "sender",
          "type": "address"
        }
      ],
      "name": "RoleGranted",
      "type": "event"
    },
    {
      "anonymous": false,
      "inputs": [
        {
          "indexed": true,
          "internalType": "bytes32",
          "name": "role",
          "type": "bytes32"
        },
        {
          "indexed": true,
          "internalType": "address",
          "name": "account",
          "type": "address"
        },
        {
          "indexed": true,
          "internalType": "address",
          "name": "sender",
          "type": "address"
        }
      ],
      "name": "RoleRevoked",
      "type": "event"
    },
    {
      "anonymous": false,
      "inputs": [
        {
          "indexed": false,
          "internalType": "address",
          "name": "account",
          "type": "address"
        }
      ],
      "name": "Unpaused",
      "type": "event"
    },
    {
      "anonymous": false,
      "inputs": [
        {
          "indexed": true,
          "internalType": "address",
          "name": "implementation",
          "type": "address"
        }
      ],
      "name": "Upgraded",
      "type": "event"
    },
    {
      "inputs": [],
      "name": "ADMIN_ROLE",
      "outputs": [
        {
          "internalType": "bytes32",
          "name": "",
          "type": "bytes32"
        }
      ],
      "stateMutability": "view",
      "type": "function"
    },
    {
      "inputs": [],
      "name": "BPS_DENOMINATOR",
      "outputs": [
        {
          "internalType": "uint256",
          "name": "",
          "type": "uint256"
        }
      ],
      "stateMutability": "view",
      "type": "function"
    },
    {
      "inputs": [],
      "name": "CLUB_ROLE",
      "outputs": [
        {
          "internalType": "bytes32",
          "name": "",
          "type": "bytes32"
        }
      ],
      "stateMutability": "view",
      "type": "function"
    },
    {
      "inputs": [],
      "name": "DEFAULT_ADMIN_ROLE",
      "outputs": [
        {
          "internalType": "bytes32",
          "name": "",
          "type": "bytes32"
        }
      ],
      "stateMutability": "view",
      "type": "function"
    },
    {
      "inputs": [],
      "name": "DEFAULT_DEPOSIT_BPS",
      "outputs": [
        {
          "internalType": "uint256",
          "name": "",
          "type": "uint256"
        }
      ],
      "stateMutability": "view",
      "type": "function"
    },
    {
      "inputs": [],
      "name": "LEAGUE_ROLE",
      "outputs": [
        {
          "internalType": "bytes32",
          "name": "",
          "type": "bytes32"
        }
      ],
      "stateMutability": "view",
      "type": "function"
    },
    {
      "inputs": [],
      "name": "MAX_AGENT_BPS",
      "outputs": [
        {
          "internalType": "uint256",
          "name": "",
          "type": "uint256"
        }
      ],
      "stateMutability": "view",
      "type": "function"
    },
    {
      "inputs": [],
      "name": "MAX_PROTOCOL_FEE_BPS",
      "outputs": [
        {
          "internalType": "uint256",
          "name": "",
          "type": "uint256"
        }
      ],
      "stateMutability": "view",
      "type": "function"
    },
    {
      "inputs": [],
      "name": "MIN_CONSENT_WINDOW",
      "outputs": [
        {
          "internalType": "uint256",
          "name": "",
          "type": "uint256"
        }
      ],
      "stateMutability": "view",
      "type": "function"
    },
    {
      "inputs": [],
      "name": "MIN_MEDICAL_WINDOW",
      "outputs": [
        {
          "internalType": "uint256",
          "name": "",
          "type": "uint256"
        }
      ],
      "stateMutability": "view",
      "type": "function"
    },
    {
      "inputs": [],
      "name": "PRE_CONTRACT_WINDOW",
      "outputs": [
        {
          "internalType": "uint256",
          "name": "",
          "type": "uint256"
        }
      ],
      "stateMutability": "view",
      "type": "function"
    },
    {
      "inputs": [],
      "name": "TERMINATION_EXPIRY",
      "outputs": [
        {
          "internalType": "uint256",
          "name": "",
          "type": "uint256"
        }
      ],
      "stateMutability": "view",
      "type": "function"
    },
    {
      "inputs": [],
      "name": "UPGRADE_INTERFACE_VERSION",
      "outputs": [
        {
          "internalType": "string",
          "name": "",
          "type": "string"
        }
      ],
      "stateMutability": "view",
      "type": "function"
    },
    {
      "inputs": [],
      "name": "addressRegistry",
      "outputs": [
        {
          "internalType": "contract IAddressRegistry",
          "name": "",
          "type": "address"
        }
      ],
      "stateMutability": "view",
      "type": "function"
    },
    {
      "inputs": [
        {
          "internalType": "address",
          "name": "token",
          "type": "address"
        }
      ],
      "name": "approveToken",
      "outputs": [],
      "stateMutability": "nonpayable",
      "type": "function"
    },
    {
      "inputs": [
        {
          "internalType": "uint256",
          "name": "playerId",
          "type": "uint256"
        }
      ],
      "name": "confirmMutualTermination",
      "outputs": [],
      "stateMutability": "nonpayable",
      "type": "function"
    },
    {
      "inputs": [],
      "name": "consentWindow",
      "outputs": [
        {
          "internalType": "uint256",
          "name": "",
          "type": "uint256"
        }
      ],
      "stateMutability": "view",
      "type": "function"
    },
    {
      "inputs": [],
      "name": "depositBps",
      "outputs": [
        {
          "internalType": "uint256",
          "name": "",
          "type": "uint256"
        }
      ],
      "stateMutability": "view",
      "type": "function"
    },
    {
      "inputs": [
        {
          "internalType": "uint256",
          "name": "playerId",
          "type": "uint256"
        }
      ],
      "name": "getActivePreContract",
      "outputs": [
        {
          "internalType": "uint256",
          "name": "",
          "type": "uint256"
        }
      ],
      "stateMutability": "view",
      "type": "function"
    },
    {
      "inputs": [
        {
          "internalType": "address",
          "name": "account",
          "type": "address"
        },
        {
          "internalType": "address",
          "name": "token",
          "type": "address"
        }
      ],
      "name": "getClaimable",
      "outputs": [
        {
          "internalType": "uint256",
          "name": "",
          "type": "uint256"
        }
      ],
      "stateMutability": "view",
      "type": "function"
    },
    {
      "inputs": [
        {
          "internalType": "uint256",
          "name": "ftId",
          "type": "uint256"
        }
      ],
      "name": "getFreeTransfer",
      "outputs": [
        {
          "components": [
            {
              "internalType": "uint256",
              "name": "playerId",
              "type": "uint256"
            },
            {
              "internalType": "address",
              "name": "currentClub",
              "type": "address"
            },
            {
              "internalType": "address",
              "name": "buyingClub",
              "type": "address"
            },
            {
              "internalType": "address",
              "name": "paymentToken",
              "type": "address"
            },
            {
              "internalType": "uint256",
              "name": "signingBonus",
              "type": "uint256"
            },
            {
              "internalType": "uint256",
              "name": "buyerAgentBps",
              "type": "uint256"
            },
            {
              "internalType": "address",
              "name": "buyerAgent",
              "type": "address"
            },
            {
              "internalType": "uint256",
              "name": "sellerAgentBps",
              "type": "uint256"
            },
            {
              "internalType": "address",
              "name": "sellerAgent",
              "type": "address"
            },
            {
              "internalType": "uint256",
              "name": "deposit",
              "type": "uint256"
            },
            {
              "internalType": "enum FreeTransferEscrow.FreeTransferState",
              "name": "state",
              "type": "uint8"
            },
            {
              "internalType": "uint256",
              "name": "stateDeadline",
              "type": "uint256"
            },
            {
              "internalType": "bytes32",
              "name": "medicalHash",
              "type": "bytes32"
            },
            {
              "internalType": "enum FreeTransferEscrow.MedicalOutcome",
              "name": "medicalOutcome",
              "type": "uint8"
            },
            {
              "internalType": "uint256",
              "name": "createdAt",
              "type": "uint256"
            }
          ],
          "internalType": "struct FreeTransferEscrow.FreeTransfer",
          "name": "",
          "type": "tuple"
        }
      ],
      "stateMutability": "view",
      "type": "function"
    },
    {
      "inputs": [
        {
          "internalType": "uint256",
          "name": "playerId",
          "type": "uint256"
        },
        {
          "internalType": "address",
          "name": "club",
          "type": "address"
        }
      ],
      "name": "getProposal",
      "outputs": [
        {
          "internalType": "uint256",
          "name": "",
          "type": "uint256"
        }
      ],
      "stateMutability": "view",
      "type": "function"
    },
    {
      "inputs": [
        {
          "internalType": "bytes32",
          "name": "role",
          "type": "bytes32"
        }
      ],
      "name": "getRoleAdmin",
      "outputs": [
        {
          "internalType": "bytes32",
          "name": "",
          "type": "bytes32"
        }
      ],
      "stateMutability": "view",
      "type": "function"
    },
    {
      "inputs": [
        {
          "internalType": "uint256",
          "name": "playerId",
          "type": "uint256"
        }
      ],
      "name": "getTermination",
      "outputs": [
        {
          "components": [
            {
              "internalType": "uint256",
              "name": "playerId",
              "type": "uint256"
            },
            {
              "internalType": "address",
              "name": "club",
              "type": "address"
            },
            {
              "internalType": "address",
              "name": "paymentToken",
              "type": "address"
            },
            {
              "internalType": "uint256",
              "name": "settlementAmount",
              "type": "uint256"
            },
            {
              "internalType": "uint256",
              "name": "proposedAt",
              "type": "uint256"
            },
            {
              "internalType": "bool",
              "name": "exists",
              "type": "bool"
            }
          ],
          "internalType": "struct FreeTransferEscrow.MutualTermination",
          "name": "",
          "type": "tuple"
        }
      ],
      "stateMutability": "view",
      "type": "function"
    },
    {
      "inputs": [
        {
          "internalType": "bytes32",
          "name": "role",
          "type": "bytes32"
        },
        {
          "internalType": "address",
          "name": "account",
          "type": "address"
        }
      ],
      "name": "grantRole",
      "outputs": [],
      "stateMutability": "nonpayable",
      "type": "function"
    },
    {
      "inputs": [
        {
          "internalType": "bytes32",
          "name": "role",
          "type": "bytes32"
        },
        {
          "internalType": "address",
          "name": "account",
          "type": "address"
        }
      ],
      "name": "hasRole",
      "outputs": [
        {
          "internalType": "bool",
          "name": "",
          "type": "bool"
        }
      ],
      "stateMutability": "view",
      "type": "function"
    },
    {
      "inputs": [
        {
          "internalType": "address",
          "name": "_playerRegistry",
          "type": "address"
        },
        {
          "internalType": "address",
          "name": "_addressRegistry",
          "type": "address"
        },
        {
          "internalType": "address",
          "name": "_transferEscrow",
          "type": "address"
        },
        {
          "internalType": "address",
          "name": "_treasury",
          "type": "address"
        },
        {
          "internalType": "address",
          "name": "_admin",
          "type": "address"
        }
      ],
      "name": "initialize",
      "outputs": [],
      "stateMutability": "nonpayable",
      "type": "function"
    },
    {
      "inputs": [
        {
          "internalType": "uint256",
          "name": "playerId",
          "type": "uint256"
        }
      ],
      "name": "isFreeAgent",
      "outputs": [
        {
          "internalType": "bool",
          "name": "",
          "type": "bool"
        }
      ],
      "stateMutability": "view",
      "type": "function"
    },
    {
      "inputs": [
        {
          "internalType": "uint256",
          "name": "ftId",
          "type": "uint256"
        }
      ],
      "name": "lockDeposit",
      "outputs": [],
      "stateMutability": "nonpayable",
      "type": "function"
    },
    {
      "inputs": [],
      "name": "medicalWindow",
      "outputs": [
        {
          "internalType": "uint256",
          "name": "",
          "type": "uint256"
        }
      ],
      "stateMutability": "view",
      "type": "function"
    },
    {
      "inputs": [],
      "name": "pause",
      "outputs": [],
      "stateMutability": "nonpayable",
      "type": "function"
    },
    {
      "inputs": [],
      "name": "paused",
      "outputs": [
        {
          "internalType": "bool",
          "name": "",
          "type": "bool"
        }
      ],
      "stateMutability": "view",
      "type": "function"
    },
    {
      "inputs": [],
      "name": "playerRegistry",
      "outputs": [
        {
          "internalType": "contract IPlayerRegistry",
          "name": "",
          "type": "address"
        }
      ],
      "stateMutability": "view",
      "type": "function"
    },
    {
      "inputs": [
        {
          "internalType": "uint256",
          "name": "playerId",
          "type": "uint256"
        },
        {
          "internalType": "address",
          "name": "paymentToken",
          "type": "address"
        },
        {
          "internalType": "uint256",
          "name": "settlementAmount",
          "type": "uint256"
        }
      ],
      "name": "proposeMutualTermination",
      "outputs": [],
      "stateMutability": "nonpayable",
      "type": "function"
    },
    {
      "inputs": [
        {
          "internalType": "uint256",
          "name": "playerId",
          "type": "uint256"
        },
        {
          "internalType": "address",
          "name": "paymentToken",
          "type": "address"
        },
        {
          "internalType": "uint256",
          "name": "signingBonus",
          "type": "uint256"
        },
        {
          "internalType": "uint256",
          "name": "buyerAgentBps",
          "type": "uint256"
        },
        {
          "internalType": "address",
          "name": "buyerAgent",
          "type": "address"
        },
        {
          "internalType": "uint256",
          "name": "sellerAgentBps",
          "type": "uint256"
        },
        {
          "internalType": "address",
          "name": "sellerAgent",
          "type": "address"
        }
      ],
      "name": "proposePreContract",
      "outputs": [],
      "stateMutability": "nonpayable",
      "type": "function"
    },
    {
      "inputs": [],
      "name": "protocolFeeBps",
      "outputs": [
        {
          "internalType": "uint256",
          "name": "",
          "type": "uint256"
        }
      ],
      "stateMutability": "view",
      "type": "function"
    },
    {
      "inputs": [],
      "name": "proxiableUUID",
      "outputs": [
        {
          "internalType": "bytes32",
          "name": "",
          "type": "bytes32"
        }
      ],
      "stateMutability": "view",
      "type": "function"
    },
    {
      "inputs": [
        {
          "internalType": "uint256",
          "name": "playerId",
          "type": "uint256"
        }
      ],
      "name": "releaseExpiredContract",
      "outputs": [],
      "stateMutability": "nonpayable",
      "type": "function"
    },
    {
      "inputs": [
        {
          "internalType": "bytes32",
          "name": "role",
          "type": "bytes32"
        },
        {
          "internalType": "address",
          "name": "callerConfirmation",
          "type": "address"
        }
      ],
      "name": "renounceRole",
      "outputs": [],
      "stateMutability": "nonpayable",
      "type": "function"
    },
    {
      "inputs": [
        {
          "internalType": "bytes32",
          "name": "role",
          "type": "bytes32"
        },
        {
          "internalType": "address",
          "name": "account",
          "type": "address"
        }
      ],
      "name": "revokeRole",
      "outputs": [],
      "stateMutability": "nonpayable",
      "type": "function"
    },
    {
      "inputs": [
        {
          "internalType": "address",
          "name": "token",
          "type": "address"
        }
      ],
      "name": "revokeToken",
      "outputs": [],
      "stateMutability": "nonpayable",
      "type": "function"
    },
    {
      "inputs": [
        {
          "internalType": "uint256",
          "name": "d",
          "type": "uint256"
        }
      ],
      "name": "setConsentWindow",
      "outputs": [],
      "stateMutability": "nonpayable",
      "type": "function"
    },
    {
      "inputs": [
        {
          "internalType": "uint256",
          "name": "bps",
          "type": "uint256"
        }
      ],
      "name": "setDepositBps",
      "outputs": [],
      "stateMutability": "nonpayable",
      "type": "function"
    },
    {
      "inputs": [
        {
          "internalType": "uint256",
          "name": "d",
          "type": "uint256"
        }
      ],
      "name": "setMedicalWindow",
      "outputs": [],
      "stateMutability": "nonpayable",
      "type": "function"
    },
    {
      "inputs": [
        {
          "internalType": "uint256",
          "name": "bps",
          "type": "uint256"
        }
      ],
      "name": "setProtocolFee",
      "outputs": [],
      "stateMutability": "nonpayable",
      "type": "function"
    },
    {
      "inputs": [
        {
          "internalType": "address",
          "name": "_treasury",
          "type": "address"
        }
      ],
      "name": "setTreasury",
      "outputs": [],
      "stateMutability": "nonpayable",
      "type": "function"
    },
    {
      "inputs": [
        {
          "internalType": "uint256",
          "name": "ftId",
          "type": "uint256"
        }
      ],
      "name": "signPreContract",
      "outputs": [],
      "stateMutability": "nonpayable",
      "type": "function"
    },
    {
      "inputs": [
        {
          "internalType": "uint256",
          "name": "ftId",
          "type": "uint256"
        },
        {
          "internalType": "enum FreeTransferEscrow.MedicalOutcome",
          "name": "outcome",
          "type": "uint8"
        },
        {
          "internalType": "bytes32",
          "name": "medicalHash",
          "type": "bytes32"
        }
      ],
      "name": "submitMedical",
      "outputs": [],
      "stateMutability": "nonpayable",
      "type": "function"
    },
    {
      "inputs": [
        {
          "internalType": "bytes4",
          "name": "interfaceId",
          "type": "bytes4"
        }
      ],
      "name": "supportsInterface",
      "outputs": [
        {
          "internalType": "bool",
          "name": "",
          "type": "bool"
        }
      ],
      "stateMutability": "view",
      "type": "function"
    },
    {
      "inputs": [],
      "name": "totalFreeTransfers",
      "outputs": [
        {
          "internalType": "uint256",
          "name": "",
          "type": "uint256"
        }
      ],
      "stateMutability": "view",
      "type": "function"
    },
    {
      "inputs": [],
      "name": "transferEscrow",
      "outputs": [
        {
          "internalType": "contract ITransferEscrow",
          "name": "",
          "type": "address"
        }
      ],
      "stateMutability": "view",
      "type": "function"
    },
    {
      "inputs": [],
      "name": "treasury",
      "outputs": [
        {
          "internalType": "address",
          "name": "",
          "type": "address"
        }
      ],
      "stateMutability": "view",
      "type": "function"
    },
    {
      "inputs": [],
      "name": "unpause",
      "outputs": [],
      "stateMutability": "nonpayable",
      "type": "function"
    },
    {
      "inputs": [
        {
          "internalType": "address",
          "name": "newImplementation",
          "type": "address"
        },
        {
          "internalType": "bytes",
          "name": "data",
          "type": "bytes"
        }
      ],
      "name": "upgradeToAndCall",
      "outputs": [],
      "stateMutability": "payable",
      "type": "function"
    },
    {
      "inputs": [
        {
          "internalType": "address",
          "name": "token",
          "type": "address"
        }
      ],
      "name": "withdrawClaimable",
      "outputs": [],
      "stateMutability": "nonpayable",
      "type": "function"
    },
    {
      "inputs": [
        {
          "internalType": "uint256",
          "name": "playerId",
          "type": "uint256"
        }
      ],
      "name": "withdrawMutualTermination",
      "outputs": [],
      "stateMutability": "nonpayable",
      "type": "function"
    },
    {
      "inputs": [
        {
          "internalType": "uint256",
          "name": "ftId",
          "type": "uint256"
        }
      ],
      "name": "withdrawPreContract",
      "outputs": [],
      "stateMutability": "nonpayable",
      "type": "function"
    }
  ],
  "bytecode": "0x60a080604052346100c257306080525f51602061392b5f395f51905f525460ff8160401c166100b3576002600160401b03196001600160401b03821601610060575b60405161386490816100c782396080518181816122b901526123840152f35b6001600160401b0319166001600160401b039081175f51602061392b5f395f51905f525581527fc7f505b2f371ae2175ee4913f4499e1f2633a7b5936321eed1cdaeb6115181d290602090a15f80610041565b63f92ee8a960e01b5f5260045ffd5b5f80fdfe6080806040526004361015610012575f80fd5b5f905f3560e01c90816301ffc9a714612cf857508063062100d514612cdb5780630d5578ea14612cb15780631459457a14612a845780631510f85a1461296a578063248a9ca3146129445780632ce05d03146129285780632f2ff15d146128f757806335659fb8146128da57806336568abe14612896578063383fb7bc146125f85780633f4ba83a1461257a5780633fb814281461252a5780634c74ef9c146125025780634f1ef2861461230d57806352d1902d146122a75780635c975abb1461227957806360e49e441461225257806361d027b31461222a57806362d2296e1461214757806368db7abc14611f775780636c9a45b714611f3e5780636d947e4b14611f2357806375b238fc14611efc578063787dce3d14611ec457806378fc263e14611ea75780637f86119d14611c2b57806380b2edd814611be157806380cd2e6514611ba85780638456cb5914611b3757806387cb43bf14611b1a5780638a01216114611afd57806391d1485414611aa8578063933f4eef14611a675780639f3bbd1d14610926578063a00652241461197c578063a0f8cfac1461195f578063a217fddf14611945578063a461dc6d14611227578063a49a0c00146111ec578063a72b6325146111a7578063ad3cb1cc1461114b578063ad9694791461112d578063b139690114611110578063b74dcd7514610b8f578063cd9ebdfe1461092b578063d3e7c4c714610926578063d547741f146108eb578063d8778f461461068d578063e09dab54146103eb578063e1a45218146103ce578063e35293f71461039f578063e9402cc514610376578063eef6cc411461033b578063f0f44260146102e4578063f3ad65f4146102bb5763fc8045b114610291575f80fd5b346102b857806003193601126102b85760206040515f51602061380f5f395f51905f528152f35b80fd5b50346102b857806003193601126102b8576003546040516001600160a01b039091168152602090f35b50346102b85760203660031901126102b8576102fe612d4b565b610306613400565b6001600160a01b0316801561032c57600580546001600160a01b03191691909117905580f35b63e6c4247b60e01b8252600482fd5b50346102b85760203660031901126102b8576004356103586133b7565b610e1081106103675760085580f35b63296d383360e01b8252600482fd5b50346102b857806003193601126102b8576004546040516001600160a01b039091168152602090f35b50346102b85760203660031901126102b85760ff60406020926004358152600b84522054166040519015158152f35b50346102b857806003193601126102b85760206040516127108152f35b50346102b85760203660031901126102b85760043561040861351e565b600282541461067e57600282555f51602061380f5f395f51905f5282525f51602061378f5f395f51905f5260209081526040808420335f908152925290205460ff168015610643575b1561063457808252600b60205260ff60408320541661062557808252600a602052604082205461061657600254604051631cab5c9d60e31b8152600481018390526001600160a01b03909116908381602481855afa801561060b5760809185916105e9575b50015142106105da576020602491604051928380926369d146b560e11b82528660048301525afa9081156105cf578391610595575b50818352600b60205260408320805460ff1916600117905560025483906001600160a01b0316803b15610591578160405180926332f65ba360e01b825281838161053a308a8c60048501613134565b03925af180156105865761056d575b50506001600160a01b0316905f5160206136ef5f395f51905f528380a36001815580f35b8161057791612dd8565b61058257825f610549565b8280fd5b6040513d84823e3d90fd5b5080fd5b90506020813d6020116105c7575b816105b060209383612dd8565b81010312610582576105c190612e5d565b5f6104eb565b3d91506105a3565b6040513d85823e3d90fd5b6321f0a55360e11b8352600483fd5b61060591503d8087833e6105fd8183612dd8565b810190612ec4565b5f6104b6565b6040513d86823e3d90fd5b631d222f3360e21b8252600482fd5b6308c572a160e21b8252600482fd5b638e3a31eb60e01b8252600482fd5b505f51602061374f5f395f51905f5282525f51602061378f5f395f51905f5260209081526040808420335f908152925290205460ff16610451565b6306fda65d60e31b8252600482fd5b50346102b85760203660031901126102b857806101c06040516106af81612dbc565b8281528260208201528260408201528260608201528260808201528260a08201528260c08201528260e08201528261010082015282610120820152826101408201528261016082015282610180820152826101a082015201526004358152600c60205260408120906040519161072483612dbc565b8054835260018101546001600160a01b03908116602085015260028201548116604085019081526003830154821660608601908152600484015460808701908152600585015460a088019081526006860154851660c08901908152600787015460e08a019081526008808901549097166101008b015260098801546101208b0152600a880154959894979496909591949293929160ff16908110156108d7576101408a0152600b8101546101608a0152600c8101546101808a015260ff600d8201541660048110156108d7576101a08a0152600e01546101c08901908152604080518a5181526020808c01516001600160a01b039081169183019190915299518a169181019190915296518816606088015290516080870152905160a08601529051851660c0850152905160e0840152610100808601519094169383019390935261012080850151908301526101408401519192919060088210156108c357506101a06101e0946108ba9261014086015261016081015161016086015261018081015161018086015201516101a0840190612e32565b516101c0820152f35b634e487b7160e01b81526021600452602490fd5b634e487b7160e01b87526021600452602487fd5b50346102b85760403660031901126102b85761092260043561090b612d61565b9061091d61091882612e3f565b61343c565b613482565b5080f35b612e16565b50346102b85760203660031901126102b85760043561094861351e565b600282541461067e576002825580825260106020526040822090600582019182549060ff821615610b8057600481015462278d008101809111610b6c574211610b5d57600254604051631cab5c9d60e31b815260048101859052908690829060249082906001600160a01b03165afa8015610b525760c0918791610b38575b500180516001600160a01b031615610b295780516001600160a01b03163303610b1a5760018060a01b0360018301541694600360018060a01b036002850154169301549360ff191690558386526010602052610a2560408720613039565b82610ade575b505050808352600b60205260408320805460ff1916600117905560025483906001600160a01b0316803b15610591578160405180926332f65ba360e01b8252818381610a7c308b8b60048501613134565b03925af1801561058657610ac9575b507f10e3e530b2e9aaece9a627ff58983640cdbb5004c21c120f74420e08fa24cdbb818392a25f5160206136ef5f395f51905f528380a36001815580f35b81610ad391612dd8565b61058257825f610a8b565b60018060a01b0390511685526011602052604085209060018060a01b03165f52602052610b1060405f2091825461305c565b90555f8080610a2b565b631d3c442d60e21b8652600486fd5b6382bcaa3b60e01b8652600486fd5b610b4c91503d8089833e6105fd8183612dd8565b5f6109c7565b6040513d88823e3d90fd5b63839ec5c560e01b8552600485fd5b634e487b7160e01b86526011600452602486fd5b631e1a1a3760e21b8552600485fd5b50346102b85760e03660031901126102b857600435610bac612d61565b9060643591610bb9612d77565b9260c4356001600160a01b0381169260a435929184900361110c57610bdc61351e565b60028754146110fd5760028755610bf161335b565b6001600160a01b03168087526012602052604087205490929060ff16156110ee57848752600d60209081526040808920335f90815292529020546110df57600254604051631cab5c9d60e31b8152600481018790526001600160a01b0390911696909388856024818b5afa9485156110d45789956110b8575b5060c08501516001600160a01b0316156110a957868952600b602052608060ff60408b20541695015162ed4dff198101908111611045578515908161109f575b506110905761012c8411611070578315158061107f575b6110595761012c83116110705782151580611068575b611059576001545f198114611045579060018a9594939201988996876001555f14610fc4575084965b600754610d0d904261305c565b9360405193610d1b85612dbc565b8a85526020850199600160a01b60019003168a5260408501963388526060860194855260808601604435815260a0870191825260c0870192600160a01b6001900316835260e0870193845261010087019485526101208701958a8752610140880197600289526101608101998a5261018081019a8c8c528c6101a083019d8e526101c083019e8f4290528152600c602052604090209e8f92518355600160a01b600190039051166001830190600160a01b6001900316600160a01b6001900319825416179055600160a01b600190039051169060020190600160a01b6001900316600160a01b6001900319825416179055600160a01b6001900390511660038d0190600160a01b6001900316600160a01b60019003198254161790555160048c01555160058b0155600160a01b6001900390511660068a0190600160a01b6001900316600160a01b6001900319825416179055516007890155600160a01b600190039051166008880190600160a01b6001900316600160a01b6001900319825416179055516009870155600a860190516008811015610fb05760ff8019835416911617905551600b85015551600c840155516004811015610f9c5790610ee6600e92600d850161310f565b51910155808352600d60209081526040808520335f908152908352819020849055828552600e9091528320805490600160401b821015610f885760018201808255821015610f74578452602084200180546001600160a01b03191633908117909155917fa8fcb9779134006ebf3104140eedb9ee16d675aa783b8d5b310e89a5608e6a368480a46001815580f35b634e487b7160e01b85526032600452602485fd5b634e487b7160e01b85526041600452602485fd5b634e487b7160e01b86526021600452602486fd5b634e487b7160e01b8a52602160045260248afd5b60249650602090604051978880926369d146b560e11b82528c60048301525afa801561103a5789968691610ffa575b5096610d00565b9650506020863d602011611032575b8161101660209383612dd8565b8101031261102e576110288996612e5d565b5f610ff3565b8480fd5b3d9150611009565b6040513d87823e3d90fd5b634e487b7160e01b8a52601160045260248afd5b63e6c4247b60e01b8952600489fd5b508515610cd7565b63162908e360e11b8952600489fd5b506001600160a01b03821615610cc1565b636a7870e960e11b8952600489fd5b905042105f610caa565b6382bcaa3b60e01b8952600489fd5b6110cd9195503d808b833e6105fd8183612dd8565b935f610c6a565b6040513d8b823e3d90fd5b633ca148c360e11b8752600487fd5b6332da96a360e01b8752600487fd5b6306fda65d60e31b8752600487fd5b8680fd5b50346102b857806003193601126102b85760206040516103e88152f35b50346102b857806003193601126102b857602060405162ed4e008152f35b50346102b857806003193601126102b8576040805161116a8282612dd8565b6005815260208101640352e302e360dc1b81528251938492602084525180928160208601528585015e828201840152601f01601f19168101030190f35b50346102b85760403660031901126102b85760406111c3612d61565b916004358152600d602052209060018060a01b03165f52602052602060405f2054604051908152f35b50346102b85760203660031901126102b8576004356112096133b7565b61271081116112185760095580f35b63162908e360e11b8252600482fd5b50346116335760603660031901126116335760043560243560048110156116335760443561125361351e565b60025f54146119365760025f55825f52600c60205260405f2091600e8301541561191357600a83019160ff835416600881101561192257600303611913576002840180549092906001600160a01b031633036119045760035460405163023aa9ab60e61b81527fd8e6c8b39dbc70333b42d059fa436cf2679722325c0f6ed7e701df0b05a637c8600482015290602090829060249082906001600160a01b03165afa908115611628575f916118c5575b50604051636896470560e11b815290602090829060049082906001600160a01b03165afa908115611628575f9161188b575b501561187c57600c850191825461186d57801561185e57811561184f576002925561136381600d870161310f565b600460ff19855416178455857f8c0f79cb43223fbd00b73d4bbc8a0f62f1f2d6ddb3a6b650d90d0ee3557f683a602060405161139f8186612e32565ba2036114a75760018060a01b0360025416858454602460405180948193631cab5c9d60e31b835260048301525afa8015610b525761148f575b506009830154908161144d575b5050600760ff1982541617905580548352600f602052826040812055548252600a6020528160408120555f51602061376f5f395f51905f52606060405160208152600e60208201526d1359591a58d85b0819985a5b195960921b6040820152a25b6001815580f35b546001600160a01b03908116865260116020908152604080882060038701549093165f908152929091529020805490916114869161305c565b90555f806113e5565b6114a2903d8088833e6105fd8183612dd8565b6113d8565b505050805f52600c60205260405f20600a8101600660ff1982541617905580545f52600f6020525f604081205580545f52600a6020525f604081205580545f52600b60205260405f2060ff19815416905560018060a01b03600254165f8254602460405180948193631cab5c9d60e31b835260048301525afa908115611628575f91611835575b5060048201908154918215158061182a575b80611816575b6117c1575b6005840154801515806117ab575b611754575b5060078401548015158061173e575b6116df575b5054801515806116c9575b611637575b50506002805483549184018054909493506001600160a01b03918216929116823b15611633576115cd925f92836040518096819582946332f65ba360e01b8452309060048501613134565b03925af1801561162857611613575b505490546001600160a01b0316917fbc21e199554ae62d688bd8c3901734ff32f00e9fd2b3259dbd1ca5657ef2ac6d8480a4611446565b6116209194505f90612dd8565b5f925f6115dc565b6040513d5f823e3d90fd5b5f80fd5b6009840154808211156116c15761164d91613127565b80611698575b5060c001516001600160a01b039081165f90815260116020908152604080832060038701549094168352929052208054909161168e9161305c565b90555f8080611582565b600384015460028501546116bb929130916001600160a01b039081169116613545565b5f611653565b50505f61164d565b5060c08201516001600160a01b0316151561157d565b6127106116f06116f892845461307d565b048094613127565b60088501546001600160a01b039081165f90815260116020908152604080832060038a0154909416835292905220805491949091611736919061305c565b90555f611572565b5060088501546001600160a01b0316151561156d565b6127106116f061176592845461307d565b60068501546001600160a01b039081165f90815260116020908152604080832060038a01549094168352929052208054919490916117a3919061305c565b90555f61155e565b5060068501546001600160a01b03161515611559565b6117d36127106116f06006548661307d565b6005546001600160a01b039081165f90815260116020908152604080832060038a015490941683529290522080549194909161180f919061305c565b905561154b565b506005546001600160a01b03161515611546565b506006541515611540565b61184991503d805f833e6105fd8183612dd8565b5f61152e565b63162908e360e11b5f5260045ffd5b63e6c4247b60e01b5f5260045ffd5b63c0f9cf3b60e01b5f5260045ffd5b6304d54fbf60e41b5f5260045ffd5b90506020813d6020116118bd575b816118a660209383612dd8565b81010312611633576118b790612eb7565b5f611335565b3d9150611899565b90506020813d6020116118fc575b816118e060209383612dd8565b810103126116335760206118f5600492612e5d565b9150611303565b3d91506118d3565b631f3cbf7b60e31b5f5260045ffd5b636f20b45d60e11b5f5260045ffd5b634e487b7160e01b5f52602160045260245ffd5b6306fda65d60e31b5f5260045ffd5b34611633575f3660031901126116335760206040515f8152f35b34611633575f366003190112611633576020600154604051908152f35b34611633576020366003190112611633575f60a060405161199c81612d8d565b82815282602082015282604082015282606082015282608082015201526004355f52601060205260c060405f206040516119d581612d8d565b81549182825260018060a01b036001820154166020830190815260018060a01b03600283015416604084019081526003830154916060850192835260a060ff6005600487015496608089019788520154169501941515855260405195865260018060a01b03905116602086015260018060a01b03905116604085015251606084015251608083015251151560a0820152f35b3461163357602036600319011261163357611a80612d4b565b611a886133b7565b6001600160a01b03165f908152601260205260409020805460ff19169055005b3461163357604036600319011261163357611ac1612d61565b6004355f525f51602061378f5f395f51905f5260205260405f209060018060a01b03165f52602052602060ff60405f2054166040519015158152f35b34611633575f36600319011261163357602060405162278d008152f35b34611633575f366003190112611633576020600954604051908152f35b34611633575f36600319011261163357611b4f6133b7565b611b5761351e565b600160ff195f5160206137af5f395f51905f525416175f5160206137af5f395f51905f52557f62e78cea01bee320cd4e420270b5ea74000d11b0c9f74754ebdbfc544b05a2586020604051338152a1005b3461163357602036600319011261163357600435611bc46133b7565b610e108110611bd257600755005b63296d383360e01b5f5260045ffd5b3461163357602036600319011261163357611bfa612d4b565b611c026133b7565b6001600160a01b0316801561185e575f908152601260205260409020805460ff19166001179055005b3461163357602036600319011261163357600435611c4761351e565b60025f54146119365760025f55611c5c61335b565b805f52600c60205260405f20600e810154156119135760028101546001600160a01b0316330361190457600a810160ff81541660088110156119225760028103611d355750600760ff1982541617905580545f52600d60205260405f2060018060a01b0333165f526020525f604081205580545f52600f6020525f6040812055545f52600a6020525f60408120555f51602061376f5f395f51905f52606060405160208152601c60208201527b436c7562207769746864726577206265666f7265207369676e696e6760201b6040820152a25b60015f55005b6003036119135760018060a01b03600254165f8354602460405180948193631cab5c9d60e31b835260048301525afa908115611628575f91611e8d575b5060098301549081151580611e77575b611e34575b5050600760ff1982541617905580545f52600d60205260405f2060018060a01b0333165f526020525f604081205580545f52600f6020525f6040812055545f52600a6020525f60408120555f51602061376f5f395f51905f52608060405160208152602f60208201527f436c7562207769746864726577206166746572207369676e696e67202d20646560408201526e1c1bdcda5d08199bdc99995a5d1959608a1b6060820152a2611d2f565b60c001516001600160a01b039081165f908152601160209081526040808320600388015490941683529290522080549091611e6e9161305c565b90558380611d87565b5060c08101516001600160a01b03161515611d82565b611ea191503d805f833e6105fd8183612dd8565b84611d72565b34611633575f366003190112611633576020600754604051908152f35b3461163357602036600319011261163357600435611ee0613400565b60c88111611eed57600655005b63499fddb160e01b5f5260045ffd5b34611633575f3660031901126116335760206040515f5160206137cf5f395f51905f528152f35b34611633575f36600319011261163357602060405160c88152f35b3461163357602036600319011261163357611f5761351e565b60025f54146119365760025f55611f6c61335b565b611d2f600435613090565b3461163357602036600319011261163357600435611f9361351e565b60025f54146119365760025f55805f52600c60205260405f20600e8101541561191357600a81019160ff83541660088110156119225760020361191357600b820180544211612138576002548354604051631cab5c9d60e31b81526004810182905290915f90829060249082906001600160a01b03165afa80156116285760c0915f9161211e575b500180516001600160a01b03161561210f57516001600160a01b03163303612100575f52600f60205260405f20546120f157600483015480156120e957612068612710916009549061307d565b04935b600360ff198254161790558360098401556120886007544261305c565b905581545f52600f6020528060405f205581545f52600a6020528060405f20557f85555eaba24ed3d0b00191ec3b1a276e90ceb6697f5f2c3e36aec1f426ccf0c36020835493600260018060a01b039101541694604051908152a460015f55005b505f9361206b565b63dfc5891760e01b5f5260045ffd5b631d3c442d60e21b5f5260045ffd5b6382bcaa3b60e01b5f5260045ffd5b61213291503d805f833e6105fd8183612dd8565b8761201b565b63839ec5c560e01b5f5260045ffd5b346116335760203660031901126116335760043560025f54146119365760025f5561217061335b565b805f52601060205260405f2090600582019081549160ff83161561221b5760018401546001600160a01b0316330361220c57600384015493600260018060a01b03910154169260ff191690555f5260106020526121cf60405f20613039565b816121da5760015f55005b335f52601160205260405f209060018060a01b03165f5260205261220360405f2091825461305c565b90558080611d2f565b638e3a31eb60e01b5f5260045ffd5b631e1a1a3760e21b5f5260045ffd5b34611633575f366003190112611633576005546040516001600160a01b039091168152602090f35b34611633575f3660031901126116335760206040515f51602061374f5f395f51905f528152f35b34611633575f36600319011261163357602060ff5f5160206137af5f395f51905f5254166040519015158152f35b34611633575f366003190112611633577f00000000000000000000000000000000000000000000000000000000000000006001600160a01b031630036122fe5760206040515f51602061372f5f395f51905f528152f35b63703e46dd60e11b5f5260045ffd5b604036600319011261163357612321612d4b565b602435906001600160401b038211611633573660238301121561163357816004013561234c81612dfb565b9261235a6040519485612dd8565b818452366024838301011161163357815f9260246020930183870137840101526001600160a01b037f0000000000000000000000000000000000000000000000000000000000000000163081149081156124e0575b506122fe576123bc613400565b6040516352d1902d60e01b81526001600160a01b0382169290602081600481875afa5f91816124ac575b506123fe5783634c9c8ce360e01b5f5260045260245ffd5b805f51602061372f5f395f51905f5285920361249a5750823b15612488575f51602061372f5f395f51905f5280546001600160a01b031916821790557fbc7cd75a20ee27fd9adebab32041f755214dbc6bffa90cc0225b39da2e5c2d3b5f80a28051156124705761246e91613602565b005b50503461247957005b63b398979f60e01b5f5260045ffd5b634c9c8ce360e01b5f5260045260245ffd5b632a87526960e21b5f5260045260245ffd5b9091506020813d6020116124d8575b816124c860209383612dd8565b81010312611633575190856123e6565b3d91506124bb565b5f51602061372f5f395f51905f52546001600160a01b031614159050836123af565b34611633575f366003190112611633576002546040516001600160a01b039091168152602090f35b3461163357604036600319011261163357612543612d4b565b61254b612d61565b6001600160a01b039182165f908152601160209081526040808320949093168252928352819020549051908152f35b34611633575f366003190112611633576125926133b7565b5f5160206137af5f395f51905f525460ff8116156125e95760ff19165f5160206137af5f395f51905f52557f5db9ee0a495bf2e6ff9c91a7834c1ba4fdd244a5e8aa4e537bd38aeae4b073aa6020604051338152a1005b638dfc202b60e01b5f5260045ffd5b3461163357606036600319011261163357600435612614612d61565b906044359161262161351e565b60025f54146119365760025f5561263661335b565b6001600160a01b03165f8181526012602052604090205460ff1615612887576002546040516369d146b560e11b8152600481018490526001600160a01b0390911690602081602481855afa908115611628575f9161284d575b50336001600160a01b039091160361220c57825f52600b60205260ff60405f20541661283e57825f52601060205260ff600560405f2001541661283057825f52600a60205260405f2054612821575f60249160405192838092631cab5c9d60e31b82528760048301525afa908115611628575f91612807575b5060c001516001600160a01b03161561210f57826127f6575b600560405161272f81612d8d565b8381523360208083018281526040808501968752606085018981524260808701908152600160a088018181525f8c81526010885285902098518955945190880180546001600160a01b039283166001600160a01b0319918216179091559951600289018054919092169a1699909917909855516003860155955160048501555193909201805460ff191693151560ff16939093179092559151938452927f8a53ffa41f42d2adcdd4e93b9b200a66c4a04eb5ed79277151e1c84097c8a2069190a360015f55005b61280283303384613545565b612721565b61281b91503d805f833e6105fd8183612dd8565b84612708565b631d222f3360e21b5f5260045ffd5b624080c160e61b5f5260045ffd5b6308c572a160e21b5f5260045ffd5b90506020813d60201161287f575b8161286860209383612dd8565b810103126116335761287990612e5d565b8561268f565b3d915061285b565b6332da96a360e01b5f5260045ffd5b34611633576040366003190112611633576128af612d61565b336001600160a01b038216036128cb5761246e90600435613482565b63334bd91960e11b5f5260045ffd5b34611633575f366003190112611633576020600654604051908152f35b346116335760403660031901126116335761246e600435612916612d61565b9061292361091882612e3f565b6132ca565b34611633575f36600319011261163357602060405161012c8152f35b34611633576020366003190112611633576020612962600435612e3f565b604051908152f35b3461163357602036600319011261163357612983612d4b565b60025f54146119365760025f55335f52601160205260405f2060018060a01b0382165f5260205260405f2054908115612a7557335f52601160205260405f2060018060a01b0382165f526020525f604081205560018060a01b0316906040519063a9059cbb60e01b5f52336004528060245260205f60448180875af160015f5114811615612a56575b8260405215612a435781527f716942921e9b67ee05c4c2ffcf216f189086c9053b444c8928a49db4bdb1ae8e60203392a360015f55005b82635274afe760e01b5f5260045260245ffd5b6001811516612a6c57833b15153d151616612a0c565b823d5f823e3d90fd5b6312d37ee560e31b5f5260045ffd5b346116335760a036600319011261163357612a9d612d4b565b612aa5612d61565b6044356001600160a01b03811690819003611633576064356001600160a01b0381169081900361163357612ad7612d77565b5f5160206137ef5f395f51905f5254604081901c60ff161595919391906001600160401b03811680159081612ca9575b6001149081612c9f575b159081612c96575b50612c87576001600160401b031981166001175f5160206137ef5f395f51905f525586612c5f575b506001600160a01b031693841561185e576001600160a01b0316801561185e57811561185e57821561185e576001600160a01b0384161561185e57612c0694612b886135d7565b612b906135d7565b60015f5560018060a01b0319600254161760025560018060a01b0319600354161760035560018060a01b0319600454161760045560018060a01b03196005541617600555621275006007556203f48060085560326006556103e8600955612bf681613154565b50612c00816131ca565b5061324a565b50612c0d57005b60ff60401b195f5160206137ef5f395f51905f5254165f5160206137ef5f395f51905f52557fc7f505b2f371ae2175ee4913f4499e1f2633a7b5936321eed1cdaeb6115181d2602060405160018152a1005b6001600160481b0319166001600160401b01175f5160206137ef5f395f51905f525586612b41565b63f92ee8a960e01b5f5260045ffd5b90501588612b19565b303b159150612b11565b889150612b07565b34611633576020366003190112611633576004355f52600f602052602060405f2054604051908152f35b34611633575f366003190112611633576020600854604051908152f35b34611633576020366003190112611633576004359063ffffffff60e01b821680920361163357602091637965db0b60e01b8114908115612d3a575b5015158152f35b6301ffc9a760e01b14905083612d33565b600435906001600160a01b038216820361163357565b602435906001600160a01b038216820361163357565b608435906001600160a01b038216820361163357565b60c081019081106001600160401b03821117612da857604052565b634e487b7160e01b5f52604160045260245ffd5b6101e081019081106001600160401b03821117612da857604052565b601f909101601f19168101906001600160401b03821190821017612da857604052565b6001600160401b038111612da857601f01601f191660200190565b34611633575f366003190112611633576020604051610e108152f35b9060048210156119225752565b5f525f51602061378f5f395f51905f52602052600160405f20015490565b51906001600160a01b038216820361163357565b81601f8201121561163357805190612e8882612dfb565b92612e966040519485612dd8565b8284526020838301011161163357815f9260208093018386015e8301015290565b5190811515820361163357565b602081830312611633578051906001600160401b03821161163357019061020082820312611633576040519161020083016001600160401b03811184821017612da8576040528051835260208101516001600160401b0381116116335782612f2d918301612e71565b602084015260408101516001600160401b0381116116335782612f51918301612e71565b604084015260608101516001600160401b0381116116335782612f75918301612e71565b60608401526080810151608084015260a081015160a0840152612f9a60c08201612e5d565b60c0840152612fab60e08201612eb7565b60e0840152612fbd6101008201612eb7565b610100840152612fd06101208201612eb7565b6101208401526101408101516101408401526101608101516101608401526101808101516101808401526101a08101516101a08401526101c081015160018060401b038111611633576101e092613028918301612e71565b6101c084015201516101e082015290565b60055f918281558260018201558260028201558260038201558260048201550155565b9190820180921161306957565b634e487b7160e01b5f52601160045260245ffd5b8181029291811591840414171561306957565b5f52600c60205260405f20600e810154156119135760ff600a820154166008811015611922576003036119135760028101546001600160a01b0316330361190457600b81019081544211612138576009810154908115613108575f6131069355600360018060a01b039101541630903390613545565b565b50505f9055565b9060048110156119225760ff80198354169116179055565b9190820391821161306957565b9081526001600160a01b0391821660208201529116604082015260600190565b6001600160a01b0381165f9081525f51602061370f5f395f51905f52602052604090205460ff166131c5576001600160a01b03165f8181525f51602061370f5f395f51905f5260205260408120805460ff191660011790553391905f51602061368f5f395f51905f528180a4600190565b505f90565b6001600160a01b0381165f9081525f5160206136cf5f395f51905f52602052604090205460ff166131c5576001600160a01b03165f8181525f5160206136cf5f395f51905f5260205260408120805460ff191660011790553391905f5160206137cf5f395f51905f52905f51602061368f5f395f51905f529080a4600190565b6001600160a01b0381165f9081525f5160206136af5f395f51905f52602052604090205460ff166131c5576001600160a01b03165f8181525f5160206136af5f395f51905f5260205260408120805460ff191660011790553391905f51602061374f5f395f51905f52905f51602061368f5f395f51905f529080a4600190565b5f8181525f51602061378f5f395f51905f52602090815260408083206001600160a01b038616845290915290205460ff16613355575f8181525f51602061378f5f395f51905f52602090815260408083206001600160a01b0395909516808452949091528120805460ff19166001179055339291905f51602061368f5f395f51905f529080a4600190565b50505f90565b335f9081527f47c3465a0c211ece60dd73efc90110f8b7e204feda752e1c50487740ddbcd24f602052604090205460ff161561339357565b63e2517d3f60e01b5f52336004525f51602061380f5f395f51905f5260245260445ffd5b335f9081525f5160206136cf5f395f51905f52602052604090205460ff16156133dc57565b63e2517d3f60e01b5f52336004525f5160206137cf5f395f51905f5260245260445ffd5b335f9081525f51602061370f5f395f51905f52602052604090205460ff161561342557565b63e2517d3f60e01b5f52336004525f60245260445ffd5b5f8181525f51602061378f5f395f51905f526020908152604080832033845290915290205460ff161561346c5750565b63e2517d3f60e01b5f523360045260245260445ffd5b5f8181525f51602061378f5f395f51905f52602090815260408083206001600160a01b038616845290915290205460ff1615613355575f8181525f51602061378f5f395f51905f52602090815260408083206001600160a01b0395909516808452949091528120805460ff19169055339291907ff6391f5c32d9c69d2a47ea670b442974b53935d1edc7fd64eb21e047a839171b9080a4600190565b60ff5f5160206137af5f395f51905f52541661353657565b63d93c066560e01b5f5260045ffd5b6040516323b872dd60e01b5f9081526001600160a01b039384166004529290931660245260449390935260209060648180865af19060015f51148216156135b6575b6040525f606052156135965750565b635274afe760e01b5f9081526001600160a01b0391909116600452602490fd5b9060018115166135ce57823b15153d15161690613587565b503d5f823e3d90fd5b60ff5f5160206137ef5f395f51905f525460401c16156135f357565b631afcd79f60e31b5f5260045ffd5b905f8091602081519101845af4808061367b575b156136365750506040513d81523d5f602083013e60203d82010160405290565b1561365b57639996b31560e01b5f9081526001600160a01b0391909116600452602490fd5b3d1561366c576040513d5f823e3d90fd5b63d6bda27560e01b5f5260045ffd5b503d1515806136165750813b151561361656fe2f8788117e7eff1d82e926ec794901d17c78024a50270940304540a733656f0d7a1492cadb22452d254c71a9ef0c781c9f2d1c472dc5213a713c8769ea04d819b16e88c42fd4e48df2dd6a2eabd6bc9aec654ec170056b470819f8892cc6431c6db906fc527747b7d5851ac853d74d851426fcdeebc6de2225e1d76724e188a3b7db2dd08fcb62d0c9e08c51941cae53c267786a0b75803fb7960902fc8ef97d360894a13ba1a3210667c828492db98dca3e2076cc3735a920a3ca505d382bbce4369475d33ca6555b45ac3cf081bee16c4b11779d89f812395c569b2de40f01d9e299659c09071de1e608f0df106f5a6c30074078ca47283232032b01b3967402dd7bc7dec4dceedda775e58dd541e08a116c6c53815c0bd028192f7b626800cd5ed15c6e187e77e9aee88184c21f4f2182ab5827cb3b7e07fbedcd63f03300a49807205ce4d355092ef5a8a18f56e8913cf4a201fbe287825b095693c21775f0c57e16840df040f15088dc2f81fe391c3923bec73e23a9662efc9c229c6a00ba2dc669204b26427a432593e1c6ac86ab4ccc54d29c4287abbd1cefc1cb002ba2646970667358221220292d6de82844c9517f88e158023c2986ea4569055cd74110b4ca85dda5ac7d8064736f6c634300081c0033f0c57e16840df040f15088dc2f81fe391c3923bec73e23a9662efc9c229c6a00",
  "linkReferences": {},
  "deployedLinkReferences": {},
  "immutableReferences": {
    "1940": [
      {
        "length": 32,
        "start": 8889
      },
      {
        "length": 32,
        "start": 9092
      }
    ]
  },
  "inputSourceName": "project/contracts/core/FreeTransferEscrow.sol",
  "buildInfoId": "solc-0_8_28-cad9b05da742493fa9322d165d3dae205e8f586d"
}