{
  "_format": "hh3-artifact-1",
  "contractName": "FreeTransferEscrow",
  "sourceName": "contracts/core/FreeTransferEscrow.sol",
  "abi": [
    {
      "inputs": [],
      "stateMutability": "nonpayable",
      "type": "constructor"
    },
    {
      "inputs": [],
      "name": "AccessControlBadConfirmation",
      "type": "error"
    },
    {
      "inputs": [
        {
          "internalType": "address",
          "name": "account",
          "type": "address"
        },
        {
          "internalType": "bytes32",
          "name": "neededRole",
          "type": "bytes32"
        }
      ],
      "name": "AccessControlUnauthorizedAccount",
      "type": "error"
    },
    {
      "inputs": [
        {
          "internalType": "address",
          "name": "target",
          "type": "address"
        }
      ],
      "name": "AddressEmptyCode",
      "type": "error"
    },
    {
      "inputs": [],
      "name": "AlreadyProposed",
      "type": "error"
    },
    {
      "inputs": [],
      "name": "CannotConfirmOwnProposal",
      "type": "error"
    },
    {
      "inputs": [],
      "name": "ConsentWindowExpired",
      "type": "error"
    },
    {
      "inputs": [],
      "name": "ContractNotExpired",
      "type": "error"
    },
    {
      "inputs": [],
      "name": "DepositAlreadyLocked",
      "type": "error"
    },
    {
      "inputs": [],
      "name": "DepositNotLocked",
      "type": "error"
    },
    {
      "inputs": [
        {
          "internalType": "address",
          "name": "implementation",
          "type": "address"
        }
      ],
      "name": "ERC1967InvalidImplementation",
      "type": "error"
    },
    {
      "inputs": [],
      "name": "ERC1967NonPayable",
      "type": "error"
    },
    {
      "inputs": [],
      "name": "EnforcedPause",
      "type": "error"
    },
    {
      "inputs": [],
      "name": "ExpectedPause",
      "type": "error"
    },
    {
      "inputs": [],
      "name": "FailedCall",
      "type": "error"
    },
    {
      "inputs": [
        {
          "internalType": "uint256",
          "name": "requested",
          "type": "uint256"
        },
        {
          "internalType": "uint256",
          "name": "available",
          "type": "uint256"
        }
      ],
      "name": "InsufficientProtocolBalance",
      "type": "error"
    },
    {
      "inputs": [],
      "name": "InvalidAddress",
      "type": "error"
    },
    {
      "inputs": [],
      "name": "InvalidAmount",
      "type": "error"
    },
    {
      "inputs": [],
      "name": "InvalidInitialization",
      "type": "error"
    },
    {
      "inputs": [],
      "name": "MedicalAlreadySubmitted",
      "type": "error"
    },
    {
      "inputs": [],
      "name": "MedicalWindowExpired",
      "type": "error"
    },
    {
      "inputs": [],
      "name": "NoActivePreContract",
      "type": "error"
    },
    {
      "inputs": [],
      "name": "NoPendingTreasuryUpdate",
      "type": "error"
    },
    {
      "inputs": [],
      "name": "NotBuyingClub",
      "type": "error"
    },
    {
      "inputs": [],
      "name": "NotCurrentClub",
      "type": "error"
    },
    {
      "inputs": [],
      "name": "NotInitializing",
      "type": "error"
    },
    {
      "inputs": [],
      "name": "NotPlayerWallet",
      "type": "error"
    },
    {
      "inputs": [],
      "name": "NothingToClaim",
      "type": "error"
    },
    {
      "inputs": [],
      "name": "NothingToWithdraw",
      "type": "error"
    },
    {
      "inputs": [],
      "name": "PlayerAlreadyFreeAgent",
      "type": "error"
    },
    {
      "inputs": [],
      "name": "PlayerHasActiveProcess",
      "type": "error"
    },
    {
      "inputs": [],
      "name": "PlayerNotFreeAgent",
      "type": "error"
    },
    {
      "inputs": [],
      "name": "PlayerWalletNotSet",
      "type": "error"
    },
    {
      "inputs": [],
      "name": "PreContractAlreadyActive",
      "type": "error"
    },
    {
      "inputs": [],
      "name": "ProtocolFeeTooHigh",
      "type": "error"
    },
    {
      "inputs": [],
      "name": "ReentrantCall",
      "type": "error"
    },
    {
      "inputs": [
        {
          "internalType": "address",
          "name": "token",
          "type": "address"
        }
      ],
      "name": "SafeERC20FailedOperation",
      "type": "error"
    },
    {
      "inputs": [],
      "name": "TerminationAlreadyProposed",
      "type": "error"
    },
    {
      "inputs": [],
      "name": "TerminationNotProposed",
      "type": "error"
    },
    {
      "inputs": [],
      "name": "TimerTooShort",
      "type": "error"
    },
    {
      "inputs": [],
      "name": "TokenAlreadyApproved",
      "type": "error"
    },
    {
      "inputs": [],
      "name": "TokenNotApproved",
      "type": "error"
    },
    {
      "inputs": [],
      "name": "TokenNotInList",
      "type": "error"
    },
    {
      "inputs": [],
      "name": "TooEarlyForPreContract",
      "type": "error"
    },
    {
      "inputs": [],
      "name": "TransferWindowClosed",
      "type": "error"
    },
    {
      "inputs": [],
      "name": "TreasuryUpdateNotReady",
      "type": "error"
    },
    {
      "inputs": [],
      "name": "UUPSUnauthorizedCallContext",
      "type": "error"
    },
    {
      "inputs": [
        {
          "internalType": "bytes32",
          "name": "slot",
          "type": "bytes32"
        }
      ],
      "name": "UUPSUnsupportedProxiableUUID",
      "type": "error"
    },
    {
      "inputs": [],
      "name": "WrongState",
      "type": "error"
    },
    {
      "anonymous": false,
      "inputs": [
        {
          "indexed": true,
          "internalType": "uint256",
          "name": "ftId",
          "type": "uint256"
        },
        {
          "indexed": false,
          "internalType": "uint256",
          "name": "amount",
          "type": "uint256"
        }
      ],
      "name": "DepositLocked",
      "type": "event"
    },
    {
      "anonymous": false,
      "inputs": [
        {
          "indexed": true,
          "internalType": "uint256",
          "name": "ftId",
          "type": "uint256"
        },
        {
          "indexed": true,
          "internalType": "uint256",
          "name": "playerId",
          "type": "uint256"
        },
        {
          "indexed": true,
          "internalType": "address",
          "name": "newClub",
          "type": "address"
        }
      ],
      "name": "FreeTransferCompleted",
      "type": "event"
    },
    {
      "anonymous": false,
      "inputs": [
        {
          "indexed": true,
          "internalType": "address",
          "name": "recipient",
          "type": "address"
        },
        {
          "indexed": true,
          "internalType": "address",
          "name": "token",
          "type": "address"
        },
        {
          "indexed": false,
          "internalType": "uint256",
          "name": "amount",
          "type": "uint256"
        }
      ],
      "name": "FundsClaimed",
      "type": "event"
    },
    {
      "anonymous": false,
      "inputs": [
        {
          "indexed": false,
          "internalType": "uint64",
          "name": "version",
          "type": "uint64"
        }
      ],
      "name": "Initialized",
      "type": "event"
    },
    {
      "anonymous": false,
      "inputs": [
        {
          "indexed": true,
          "internalType": "uint256",
          "name": "ftId",
          "type": "uint256"
        },
        {
          "indexed": false,
          "internalType": "enum FreeTransferEscrow.MedicalOutcome",
          "name": "outcome",
          "type": "uint8"
        }
      ],
      "name": "MedicalSubmitted",
      "type": "event"
    },
    {
      "anonymous": false,
      "inputs": [
        {
          "indexed": true,
          "internalType": "uint256",
          "name": "playerId",
          "type": "uint256"
        }
      ],
      "name": "MutualTerminationConfirmed",
      "type": "event"
    },
    {
      "anonymous": false,
      "inputs": [
        {
          "indexed": true,
          "internalType": "uint256",
          "name": "playerId",
          "type": "uint256"
        },
        {
          "indexed": true,
          "internalType": "address",
          "name": "club",
          "type": "address"
        },
        {
          "indexed": false,
          "internalType": "uint256",
          "name": "settlementAmount",
          "type": "uint256"
        }
      ],
      "name": "MutualTerminationProposed",
      "type": "event"
    },
    {
      "anonymous": false,
      "inputs": [
        {
          "indexed": false,
          "internalType": "address",
          "name": "account",
          "type": "address"
        }
      ],
      "name": "Paused",
      "type": "event"
    },
    {
      "anonymous": false,
      "inputs": [
        {
          "indexed": true,
          "internalType": "uint256",
          "name": "playerId",
          "type": "uint256"
        },
        {
          "indexed": true,
          "internalType": "address",
          "name": "fromClub",
          "type": "address"
        }
      ],
      "name": "PlayerReleased",
      "type": "event"
    },
    {
      "anonymous": false,
      "inputs": [
        {
          "indexed": true,
          "internalType": "uint256",
          "name": "ftId",
          "type": "uint256"
        },
        {
          "indexed": false,
          "internalType": "string",
          "name": "reason",
          "type": "string"
        }
      ],
      "name": "PreContractCancelled",
      "type": "event"
    },
    {
      "anonymous": false,
      "inputs": [
        {
          "indexed": true,
          "internalType": "uint256",
          "name": "ftId",
          "type": "uint256"
        },
        {
          "indexed": true,
          "internalType": "uint256",
          "name": "playerId",
          "type": "uint256"
        },
        {
          "indexed": true,
          "internalType": "address",
          "name": "buyingClub",
          "type": "address"
        }
      ],
      "name": "PreContractProposed",
      "type": "event"
    },
    {
      "anonymous": false,
      "inputs": [
        {
          "indexed": true,
          "internalType": "uint256",
          "name": "ftId",
          "type": "uint256"
        },
        {
          "indexed": true,
          "internalType": "uint256",
          "name": "playerId",
          "type": "uint256"
        },
        {
          "indexed": true,
          "internalType": "address",
          "name": "buyingClub",
          "type": "address"
        },
        {
          "indexed": false,
          "internalType": "uint256",
          "name": "deposit",
          "type": "uint256"
        }
      ],
      "name": "PreContractSigned",
      "type": "event"
    },
    {
      "anonymous": false,
      "inputs": [
        {
          "indexed": false,
          "internalType": "uint256",
          "name": "bps",
          "type": "uint256"
        }
      ],
      "name": "ProtocolFeeUpdated",
      "type": "event"
    },
    {
      "anonymous": false,
      "inputs": [
        {
          "indexed": true,
          "internalType": "address",
          "name": "treasury",
          "type": "address"
        },
        {
          "indexed": true,
          "internalType": "address",
          "name": "token",
          "type": "address"
        },
        {
          "indexed": false,
          "internalType": "uint256",
          "name": "amount",
          "type": "uint256"
        }
      ],
      "name": "ProtocolFeesWithdrawn",
      "type": "event"
    },
    {
      "anonymous": false,
      "inputs": [
        {
          "indexed": true,
          "internalType": "address",
          "name": "newTreasury",
          "type": "address"
        },
        {
          "indexed": false,
          "internalType": "uint256",
          "name": "effectiveAt",
          "type": "uint256"
        }
      ],
      "name": "ProtocolTreasuryUpdateScheduled",
      "type": "event"
    },
    {
      "anonymous": false,
      "inputs": [
        {
          "indexed": true,
          "internalType": "address",
          "name": "oldTreasury",
          "type": "address"
        },
        {
          "indexed": true,
          "internalType": "address",
          "name": "newTreasury",
          "type": "address"
        }
      ],
      "name": "ProtocolTreasuryUpdated",
      "type": "event"
    },
    {
      "anonymous": false,
      "inputs": [
        {
          "indexed": true,
          "internalType": "bytes32",
          "name": "role",
          "type": "bytes32"
        },
        {
          "indexed": true,
          "internalType": "bytes32",
          "name": "previousAdminRole",
          "type": "bytes32"
        },
        {
          "indexed": true,
          "internalType": "bytes32",
          "name": "newAdminRole",
          "type": "bytes32"
        }
      ],
      "name": "RoleAdminChanged",
      "type": "event"
    },
    {
      "anonymous": false,
      "inputs": [
        {
          "indexed": true,
          "internalType": "bytes32",
          "name": "role",
          "type": "bytes32"
        },
        {
          "indexed": true,
          "internalType": "address",
          "name": "account",
          "type": "address"
        },
        {
          "indexed": true,
          "internalType": "address",
          "name": "sender",
          "type": "address"
        }
      ],
      "name": "RoleGranted",
      "type": "event"
    },
    {
      "anonymous": false,
      "inputs": [
        {
          "indexed": true,
          "internalType": "bytes32",
          "name": "role",
          "type": "bytes32"
        },
        {
          "indexed": true,
          "internalType": "address",
          "name": "account",
          "type": "address"
        },
        {
          "indexed": true,
          "internalType": "address",
          "name": "sender",
          "type": "address"
        }
      ],
      "name": "RoleRevoked",
      "type": "event"
    },
    {
      "anonymous": false,
      "inputs": [
        {
          "indexed": true,
          "internalType": "address",
          "name": "token",
          "type": "address"
        }
      ],
      "name": "TokenApproved",
      "type": "event"
    },
    {
      "anonymous": false,
      "inputs": [
        {
          "indexed": true,
          "internalType": "address",
          "name": "token",
          "type": "address"
        }
      ],
      "name": "TokenRevoked",
      "type": "event"
    },
    {
      "anonymous": false,
      "inputs": [
        {
          "indexed": false,
          "internalType": "address",
          "name": "account",
          "type": "address"
        }
      ],
      "name": "Unpaused",
      "type": "event"
    },
    {
      "anonymous": false,
      "inputs": [
        {
          "indexed": true,
          "internalType": "address",
          "name": "implementation",
          "type": "address"
        }
      ],
      "name": "Upgraded",
      "type": "event"
    },
    {
      "inputs": [],
      "name": "ADMIN_ROLE",
      "outputs": [
        {
          "internalType": "bytes32",
          "name": "",
          "type": "bytes32"
        }
      ],
      "stateMutability": "view",
      "type": "function"
    },
    {
      "inputs": [],
      "name": "BPS_DENOMINATOR",
      "outputs": [
        {
          "internalType": "uint256",
          "name": "",
          "type": "uint256"
        }
      ],
      "stateMutability": "view",
      "type": "function"
    },
    {
      "inputs": [],
      "name": "CLUB_ROLE",
      "outputs": [
        {
          "internalType": "bytes32",
          "name": "",
          "type": "bytes32"
        }
      ],
      "stateMutability": "view",
      "type": "function"
    },
    {
      "inputs": [],
      "name": "DEFAULT_ADMIN_ROLE",
      "outputs": [
        {
          "internalType": "bytes32",
          "name": "",
          "type": "bytes32"
        }
      ],
      "stateMutability": "view",
      "type": "function"
    },
    {
      "inputs": [],
      "name": "DEFAULT_DEPOSIT_BPS",
      "outputs": [
        {
          "internalType": "uint256",
          "name": "",
          "type": "uint256"
        }
      ],
      "stateMutability": "view",
      "type": "function"
    },
    {
      "inputs": [],
      "name": "LEAGUE_ROLE",
      "outputs": [
        {
          "internalType": "bytes32",
          "name": "",
          "type": "bytes32"
        }
      ],
      "stateMutability": "view",
      "type": "function"
    },
    {
      "inputs": [],
      "name": "MAX_AGENT_BPS",
      "outputs": [
        {
          "internalType": "uint256",
          "name": "",
          "type": "uint256"
        }
      ],
      "stateMutability": "view",
      "type": "function"
    },
    {
      "inputs": [],
      "name": "MIN_CONSENT_WINDOW",
      "outputs": [
        {
          "internalType": "uint256",
          "name": "",
          "type": "uint256"
        }
      ],
      "stateMutability": "view",
      "type": "function"
    },
    {
      "inputs": [],
      "name": "MIN_MEDICAL_WINDOW",
      "outputs": [
        {
          "internalType": "uint256",
          "name": "",
          "type": "uint256"
        }
      ],
      "stateMutability": "view",
      "type": "function"
    },
    {
      "inputs": [],
      "name": "PRE_CONTRACT_WINDOW",
      "outputs": [
        {
          "internalType": "uint256",
          "name": "",
          "type": "uint256"
        }
      ],
      "stateMutability": "view",
      "type": "function"
    },
    {
      "inputs": [],
      "name": "TERMINATION_EXPIRY",
      "outputs": [
        {
          "internalType": "uint256",
          "name": "",
          "type": "uint256"
        }
      ],
      "stateMutability": "view",
      "type": "function"
    },
    {
      "inputs": [],
      "name": "UPGRADE_INTERFACE_VERSION",
      "outputs": [
        {
          "internalType": "string",
          "name": "",
          "type": "string"
        }
      ],
      "stateMutability": "view",
      "type": "function"
    },
    {
      "inputs": [],
      "name": "addressRegistry",
      "outputs": [
        {
          "internalType": "contract IAddressRegistry",
          "name": "",
          "type": "address"
        }
      ],
      "stateMutability": "view",
      "type": "function"
    },
    {
      "inputs": [
        {
          "internalType": "address",
          "name": "token",
          "type": "address"
        }
      ],
      "name": "approveToken",
      "outputs": [],
      "stateMutability": "nonpayable",
      "type": "function"
    },
    {
      "inputs": [
        {
          "internalType": "uint256",
          "name": "ftId",
          "type": "uint256"
        }
      ],
      "name": "cancelExpiredDeposit",
      "outputs": [],
      "stateMutability": "nonpayable",
      "type": "function"
    },
    {
      "inputs": [
        {
          "internalType": "uint256",
          "name": "playerId",
          "type": "uint256"
        }
      ],
      "name": "confirmMutualTermination",
      "outputs": [],
      "stateMutability": "nonpayable",
      "type": "function"
    },
    {
      "inputs": [],
      "name": "consentWindow",
      "outputs": [
        {
          "internalType": "uint256",
          "name": "",
          "type": "uint256"
        }
      ],
      "stateMutability": "view",
      "type": "function"
    },
    {
      "inputs": [],
      "name": "depositBps",
      "outputs": [
        {
          "internalType": "uint256",
          "name": "",
          "type": "uint256"
        }
      ],
      "stateMutability": "view",
      "type": "function"
    },
    {
      "inputs": [],
      "name": "executeProtocolTreasuryUpdate",
      "outputs": [],
      "stateMutability": "nonpayable",
      "type": "function"
    },
    {
      "inputs": [
        {
          "internalType": "uint256",
          "name": "playerId",
          "type": "uint256"
        }
      ],
      "name": "getActivePreContract",
      "outputs": [
        {
          "internalType": "uint256",
          "name": "",
          "type": "uint256"
        }
      ],
      "stateMutability": "view",
      "type": "function"
    },
    {
      "inputs": [],
      "name": "getApprovedTokens",
      "outputs": [
        {
          "internalType": "address[]",
          "name": "",
          "type": "address[]"
        }
      ],
      "stateMutability": "view",
      "type": "function"
    },
    {
      "inputs": [
        {
          "internalType": "address",
          "name": "account",
          "type": "address"
        },
        {
          "internalType": "address",
          "name": "token",
          "type": "address"
        }
      ],
      "name": "getClaimable",
      "outputs": [
        {
          "internalType": "uint256",
          "name": "",
          "type": "uint256"
        }
      ],
      "stateMutability": "view",
      "type": "function"
    },
    {
      "inputs": [
        {
          "internalType": "uint256",
          "name": "ftId",
          "type": "uint256"
        }
      ],
      "name": "getFT",
      "outputs": [
        {
          "components": [
            {
              "internalType": "uint256",
              "name": "playerId",
              "type": "uint256"
            },
            {
              "internalType": "address",
              "name": "currentClub",
              "type": "address"
            },
            {
              "internalType": "address",
              "name": "buyingClub",
              "type": "address"
            },
            {
              "internalType": "address",
              "name": "paymentToken",
              "type": "address"
            },
            {
              "internalType": "uint256",
              "name": "signingBonus",
              "type": "uint256"
            },
            {
              "internalType": "uint256",
              "name": "buyerAgentBps",
              "type": "uint256"
            },
            {
              "internalType": "address",
              "name": "buyerAgent",
              "type": "address"
            },
            {
              "internalType": "uint256",
              "name": "sellerAgentBps",
              "type": "uint256"
            },
            {
              "internalType": "address",
              "name": "sellerAgent",
              "type": "address"
            },
            {
              "internalType": "uint256",
              "name": "deposit",
              "type": "uint256"
            },
            {
              "internalType": "bool",
              "name": "depositLocked",
              "type": "bool"
            },
            {
              "internalType": "enum FreeTransferEscrow.FreeTransferState",
              "name": "state",
              "type": "uint8"
            },
            {
              "internalType": "uint256",
              "name": "stateDeadline",
              "type": "uint256"
            },
            {
              "internalType": "bytes32",
              "name": "medicalHash",
              "type": "bytes32"
            },
            {
              "internalType": "enum FreeTransferEscrow.MedicalOutcome",
              "name": "medicalOutcome",
              "type": "uint8"
            },
            {
              "internalType": "uint256",
              "name": "createdAt",
              "type": "uint256"
            }
          ],
          "internalType": "struct FreeTransferEscrow.FreeTransfer",
          "name": "",
          "type": "tuple"
        }
      ],
      "stateMutability": "view",
      "type": "function"
    },
    {
      "inputs": [
        {
          "internalType": "uint256",
          "name": "playerId",
          "type": "uint256"
        }
      ],
      "name": "getFreeAgentStatus",
      "outputs": [
        {
          "internalType": "bool",
          "name": "",
          "type": "bool"
        }
      ],
      "stateMutability": "view",
      "type": "function"
    },
    {
      "inputs": [
        {
          "internalType": "uint256",
          "name": "playerId",
          "type": "uint256"
        }
      ],
      "name": "getPlayerFT",
      "outputs": [
        {
          "internalType": "uint256",
          "name": "",
          "type": "uint256"
        }
      ],
      "stateMutability": "view",
      "type": "function"
    },
    {
      "inputs": [
        {
          "internalType": "uint256",
          "name": "playerId",
          "type": "uint256"
        },
        {
          "internalType": "address",
          "name": "buyingClub",
          "type": "address"
        }
      ],
      "name": "getProposal",
      "outputs": [
        {
          "internalType": "uint256",
          "name": "",
          "type": "uint256"
        }
      ],
      "stateMutability": "view",
      "type": "function"
    },
    {
      "inputs": [
        {
          "internalType": "bytes32",
          "name": "role",
          "type": "bytes32"
        }
      ],
      "name": "getRoleAdmin",
      "outputs": [
        {
          "internalType": "bytes32",
          "name": "",
          "type": "bytes32"
        }
      ],
      "stateMutability": "view",
      "type": "function"
    },
    {
      "inputs": [
        {
          "internalType": "uint256",
          "name": "playerId",
          "type": "uint256"
        }
      ],
      "name": "getTermination",
      "outputs": [
        {
          "components": [
            {
              "internalType": "uint256",
              "name": "playerId",
              "type": "uint256"
            },
            {
              "internalType": "address",
              "name": "club",
              "type": "address"
            },
            {
              "internalType": "address",
              "name": "paymentToken",
              "type": "address"
            },
            {
              "internalType": "uint256",
              "name": "settlementAmount",
              "type": "uint256"
            },
            {
              "internalType": "uint256",
              "name": "proposedAt",
              "type": "uint256"
            },
            {
              "internalType": "bool",
              "name": "exists",
              "type": "bool"
            }
          ],
          "internalType": "struct FreeTransferEscrow.MutualTermination",
          "name": "",
          "type": "tuple"
        }
      ],
      "stateMutability": "view",
      "type": "function"
    },
    {
      "inputs": [
        {
          "internalType": "bytes32",
          "name": "role",
          "type": "bytes32"
        },
        {
          "internalType": "address",
          "name": "account",
          "type": "address"
        }
      ],
      "name": "grantRole",
      "outputs": [],
      "stateMutability": "nonpayable",
      "type": "function"
    },
    {
      "inputs": [
        {
          "internalType": "bytes32",
          "name": "role",
          "type": "bytes32"
        },
        {
          "internalType": "address",
          "name": "account",
          "type": "address"
        }
      ],
      "name": "hasRole",
      "outputs": [
        {
          "internalType": "bool",
          "name": "",
          "type": "bool"
        }
      ],
      "stateMutability": "view",
      "type": "function"
    },
    {
      "inputs": [
        {
          "internalType": "address",
          "name": "_playerRegistry",
          "type": "address"
        },
        {
          "internalType": "address",
          "name": "_addressRegistry",
          "type": "address"
        },
        {
          "internalType": "address",
          "name": "_transferEscrow",
          "type": "address"
        },
        {
          "internalType": "address",
          "name": "_treasury",
          "type": "address"
        },
        {
          "internalType": "address",
          "name": "_admin",
          "type": "address"
        }
      ],
      "name": "initialize",
      "outputs": [],
      "stateMutability": "nonpayable",
      "type": "function"
    },
    {
      "inputs": [
        {
          "internalType": "address",
          "name": "token",
          "type": "address"
        }
      ],
      "name": "isTokenApproved",
      "outputs": [
        {
          "internalType": "bool",
          "name": "",
          "type": "bool"
        }
      ],
      "stateMutability": "view",
      "type": "function"
    },
    {
      "inputs": [
        {
          "internalType": "uint256",
          "name": "ftId",
          "type": "uint256"
        }
      ],
      "name": "lockDeposit",
      "outputs": [],
      "stateMutability": "nonpayable",
      "type": "function"
    },
    {
      "inputs": [],
      "name": "medicalWindow",
      "outputs": [
        {
          "internalType": "uint256",
          "name": "",
          "type": "uint256"
        }
      ],
      "stateMutability": "view",
      "type": "function"
    },
    {
      "inputs": [],
      "name": "pause",
      "outputs": [],
      "stateMutability": "nonpayable",
      "type": "function"
    },
    {
      "inputs": [],
      "name": "paused",
      "outputs": [
        {
          "internalType": "bool",
          "name": "",
          "type": "bool"
        }
      ],
      "stateMutability": "view",
      "type": "function"
    },
    {
      "inputs": [],
      "name": "pendingTreasury",
      "outputs": [
        {
          "internalType": "address",
          "name": "",
          "type": "address"
        },
        {
          "internalType": "uint256",
          "name": "",
          "type": "uint256"
        }
      ],
      "stateMutability": "view",
      "type": "function"
    },
    {
      "inputs": [],
      "name": "playerRegistry",
      "outputs": [
        {
          "internalType": "contract IPlayerRegistry",
          "name": "",
          "type": "address"
        }
      ],
      "stateMutability": "view",
      "type": "function"
    },
    {
      "inputs": [
        {
          "internalType": "uint256",
          "name": "playerId",
          "type": "uint256"
        },
        {
          "internalType": "address",
          "name": "paymentToken",
          "type": "address"
        },
        {
          "internalType": "uint256",
          "name": "settlementAmount",
          "type": "uint256"
        }
      ],
      "name": "proposeMutualTermination",
      "outputs": [],
      "stateMutability": "nonpayable",
      "type": "function"
    },
    {
      "inputs": [
        {
          "internalType": "uint256",
          "name": "playerId",
          "type": "uint256"
        },
        {
          "internalType": "address",
          "name": "paymentToken",
          "type": "address"
        },
        {
          "internalType": "uint256",
          "name": "signingBonus",
          "type": "uint256"
        },
        {
          "internalType": "uint256",
          "name": "buyerAgentBps",
          "type": "uint256"
        },
        {
          "internalType": "address",
          "name": "buyerAgent",
          "type": "address"
        },
        {
          "internalType": "uint256",
          "name": "sellerAgentBps",
          "type": "uint256"
        },
        {
          "internalType": "address",
          "name": "sellerAgent",
          "type": "address"
        }
      ],
      "name": "proposePreContract",
      "outputs": [],
      "stateMutability": "nonpayable",
      "type": "function"
    },
    {
      "inputs": [],
      "name": "protocolFeeBps",
      "outputs": [
        {
          "internalType": "uint256",
          "name": "",
          "type": "uint256"
        }
      ],
      "stateMutability": "view",
      "type": "function"
    },
    {
      "inputs": [],
      "name": "proxiableUUID",
      "outputs": [
        {
          "internalType": "bytes32",
          "name": "",
          "type": "bytes32"
        }
      ],
      "stateMutability": "view",
      "type": "function"
    },
    {
      "inputs": [
        {
          "internalType": "uint256",
          "name": "playerId",
          "type": "uint256"
        }
      ],
      "name": "releaseExpiredContract",
      "outputs": [],
      "stateMutability": "nonpayable",
      "type": "function"
    },
    {
      "inputs": [
        {
          "internalType": "bytes32",
          "name": "role",
          "type": "bytes32"
        },
        {
          "internalType": "address",
          "name": "callerConfirmation",
          "type": "address"
        }
      ],
      "name": "renounceRole",
      "outputs": [],
      "stateMutability": "nonpayable",
      "type": "function"
    },
    {
      "inputs": [
        {
          "internalType": "bytes32",
          "name": "role",
          "type": "bytes32"
        },
        {
          "internalType": "address",
          "name": "account",
          "type": "address"
        }
      ],
      "name": "revokeRole",
      "outputs": [],
      "stateMutability": "nonpayable",
      "type": "function"
    },
    {
      "inputs": [
        {
          "internalType": "address",
          "name": "token",
          "type": "address"
        }
      ],
      "name": "revokeToken",
      "outputs": [],
      "stateMutability": "nonpayable",
      "type": "function"
    },
    {
      "inputs": [
        {
          "internalType": "address",
          "name": "newTreasury",
          "type": "address"
        }
      ],
      "name": "scheduleProtocolTreasuryUpdate",
      "outputs": [],
      "stateMutability": "nonpayable",
      "type": "function"
    },
    {
      "inputs": [
        {
          "internalType": "uint256",
          "name": "d",
          "type": "uint256"
        }
      ],
      "name": "setConsentWindow",
      "outputs": [],
      "stateMutability": "nonpayable",
      "type": "function"
    },
    {
      "inputs": [
        {
          "internalType": "uint256",
          "name": "bps",
          "type": "uint256"
        }
      ],
      "name": "setDepositBps",
      "outputs": [],
      "stateMutability": "nonpayable",
      "type": "function"
    },
    {
      "inputs": [
        {
          "internalType": "uint256",
          "name": "d",
          "type": "uint256"
        }
      ],
      "name": "setMedicalWindow",
      "outputs": [],
      "stateMutability": "nonpayable",
      "type": "function"
    },
    {
      "inputs": [
        {
          "internalType": "uint256",
          "name": "bps",
          "type": "uint256"
        }
      ],
      "name": "setProtocolFee",
      "outputs": [],
      "stateMutability": "nonpayable",
      "type": "function"
    },
    {
      "inputs": [
        {
          "internalType": "uint256",
          "name": "ftId",
          "type": "uint256"
        }
      ],
      "name": "signPreContract",
      "outputs": [],
      "stateMutability": "nonpayable",
      "type": "function"
    },
    {
      "inputs": [
        {
          "internalType": "uint256",
          "name": "ftId",
          "type": "uint256"
        },
        {
          "internalType": "enum FreeTransferEscrow.MedicalOutcome",
          "name": "outcome",
          "type": "uint8"
        },
        {
          "internalType": "bytes32",
          "name": "medicalHash",
          "type": "bytes32"
        }
      ],
      "name": "submitMedical",
      "outputs": [],
      "stateMutability": "nonpayable",
      "type": "function"
    },
    {
      "inputs": [
        {
          "internalType": "bytes4",
          "name": "interfaceId",
          "type": "bytes4"
        }
      ],
      "name": "supportsInterface",
      "outputs": [
        {
          "internalType": "bool",
          "name": "",
          "type": "bool"
        }
      ],
      "stateMutability": "view",
      "type": "function"
    },
    {
      "inputs": [],
      "name": "totalFreeTransfers",
      "outputs": [
        {
          "internalType": "uint256",
          "name": "",
          "type": "uint256"
        }
      ],
      "stateMutability": "view",
      "type": "function"
    },
    {
      "inputs": [],
      "name": "transferEscrow",
      "outputs": [
        {
          "internalType": "contract ITransferEscrow",
          "name": "",
          "type": "address"
        }
      ],
      "stateMutability": "view",
      "type": "function"
    },
    {
      "inputs": [],
      "name": "treasury",
      "outputs": [
        {
          "internalType": "address",
          "name": "",
          "type": "address"
        }
      ],
      "stateMutability": "view",
      "type": "function"
    },
    {
      "inputs": [],
      "name": "unpause",
      "outputs": [],
      "stateMutability": "nonpayable",
      "type": "function"
    },
    {
      "inputs": [
        {
          "internalType": "address",
          "name": "newImplementation",
          "type": "address"
        },
        {
          "internalType": "bytes",
          "name": "data",
          "type": "bytes"
        }
      ],
      "name": "upgradeToAndCall",
      "outputs": [],
      "stateMutability": "payable",
      "type": "function"
    },
    {
      "inputs": [
        {
          "internalType": "address",
          "name": "token",
          "type": "address"
        }
      ],
      "name": "withdrawClaimable",
      "outputs": [],
      "stateMutability": "nonpayable",
      "type": "function"
    },
    {
      "inputs": [
        {
          "internalType": "address",
          "name": "token",
          "type": "address"
        },
        {
          "internalType": "uint256",
          "name": "amount",
          "type": "uint256"
        }
      ],
      "name": "withdrawFees",
      "outputs": [],
      "stateMutability": "nonpayable",
      "type": "function"
    },
    {
      "inputs": [
        {
          "internalType": "uint256",
          "name": "playerId",
          "type": "uint256"
        }
      ],
      "name": "withdrawMutualTermination",
      "outputs": [],
      "stateMutability": "nonpayable",
      "type": "function"
    },
    {
      "inputs": [
        {
          "internalType": "uint256",
          "name": "ftId",
          "type": "uint256"
        }
      ],
      "name": "withdrawPreContract",
      "outputs": [],
      "stateMutability": "nonpayable",
      "type": "function"
    }
  ],
  "bytecode": "0x60a080604052346100c257306080525f5160206140e75f395f51905f525460ff8160401c166100b3576002600160401b03196001600160401b03821601610060575b60405161402090816100c7823960805181818161250f015261281e0152f35b6001600160401b0319166001600160401b039081175f5160206140e75f395f51905f525581527fc7f505b2f371ae2175ee4913f4499e1f2633a7b5936321eed1cdaeb6115181d290602090a15f80610041565b63f92ee8a960e01b5f5260045ffd5b5f80fdfe6080806040526004361015610012575f80fd5b5f905f3560e01c90816301ffc9a71461338a57508063062100d51461336d5780630d5578ea14613343578063121e06b1146132245780631459457a14612ff85780631510f85a14612f3457806319e14e5814612f0a578063248a9ca314612ee45780632ce05d0314612ec85780632ed6b75d14612e9c5780632f2ff15d14612e6b57806335659fb814612e4e57806336568abe14612e0a578063383fb7bc14612b605780633f4ba83a14612ae25780633fb8142814612a9257806347d22159146129f65780634c74ef9c146129ce5780634f1ef286146127a75780634f304a4e1461256357806352d1902d146124fd5780635c975abb146124cf57806360e49e44146124a857806361d027b31461248157806362d2296e146123a557806368db7abc146121cc5780636afc0c5f146121215780636c9a45b7146120e657806375b238fc146120bf578063787dce3d1461205a57806378fc263e1461203d5780637f86119d14611d6457806380b2edd814611c9857806380cd2e6514611c5f5780638456cb5914611bee57806387cb43bf14611bd15780638a01216114611bb45780639128ec9414611b8557806391d1485414611b30578063933f4eef146119de5780639d93d352146119a15780639f3bbd1d1461074e578063a0065224146118b6578063a0f8cfac14611899578063a217fddf1461187f578063a461dc6d1461115f578063a49a0c0014611124578063a72b6325146110df578063ad3b1b4714610fa6578063ad3cb1cc14610f61578063ad96947914610f43578063b139690114610f26578063b74dcd75146109aa578063cd9ebdfe14610753578063d3e7c4c71461074e578063d547741f14610713578063e09dab541461044d578063e1a4521814610430578063e9402cc514610407578063eef6cc41146103cc578063f3ad65f4146103a3578063f3ee48bb146102fd5763fc8045b1146102d3575f80fd5b346102fa57806003193601126102fa5760206040515f516020613fcb5f395f51905f528152f35b80fd5b50346102fa5760203660031901126102fa576103176133dd565b61031f613bb8565b6001600160a01b0316801561039457600280546001600160a01b03191682179055426202a3008101908110610380576020817f686003c563ac6d53a1e0d2aea06fc73beb941f8f05f3463b33b607717aabc67f92600355604051908152a280f35b634e487b7160e01b83526011600452602483fd5b63e6c4247b60e01b8252600482fd5b50346102fa57806003193601126102fa576007546040516001600160a01b039091168152602090f35b50346102fa5760203660031901126102fa576004356103e9613bb8565b610e1081106103f857600a5580f35b63296d383360e01b8252600482fd5b50346102fa57806003193601126102fa576008546040516001600160a01b039091168152602090f35b50346102fa57806003193601126102fa5760206040516127108152f35b50346102fa5760203660031901126102fa5760043561046a613ce3565b600260045414610704576002600455808252600d60205260ff6040832054166106f557808252600c60205260408220546106e6576006546040516369d146b560e11b8152600481018390526001600160a01b039091169190602081602481865afa9081156106db57849161069d575b506001600160a01b0381169233841480610662575b8015610627575b15610618578460249160405192838092631cab5c9d60e31b82528760048301525afa90811561060d5764ffffffffff916101409187916105eb575b5001511642106105dc57818452600d60205260408420805460ff191660011790556006548491906001600160a01b0316803b156105cd576040516332f65ba360e01b8152918391839182908490829061058f9030908b600485016138b4565b03925af180156105d1576105b8575b50805f516020613e8b5f395f51905f5291a3600160045580f35b816105c291613456565b6105cd57825f61059e565b8280fd5b6040513d84823e3d90fd5b6321f0a55360e11b8452600484fd5b61060791503d8089833e6105ff8183613456565b81019061357e565b5f610530565b6040513d87823e3d90fd5b638e3a31eb60e01b8552600485fd5b505f516020613eeb5f395f51905f5285525f516020613f2b5f395f51905f5260209081526040808720335f908152925290205460ff166104f5565b505f516020613fcb5f395f51905f5285525f516020613f2b5f395f51905f5260209081526040808720335f908152925290205460ff166104ee565b90506020813d6020116106d3575b816106b860209383613456565b810103126106cf576106c990613505565b5f6104d9565b8380fd5b3d91506106ab565b6040513d86823e3d90fd5b631d222f3360e21b8252600482fd5b6308c572a160e21b8252600482fd5b6306fda65d60e31b8252600482fd5b50346102fa5760403660031901126102fa5761074a6004356107336133f3565b90610745610740826134e7565b613c01565b613c47565b5080f35b6134a1565b50346102fa5760203660031901126102fa57600435610770613ce3565b6002600454146107045760026004558082526012602052604082209060ff6005830154161561099b57600482015462278d00810180911161098757421161097857600654604051631cab5c9d60e31b815260048101839052908490829060249082906001600160a01b03165afa80156106db5761012091859161095e575b500180516001600160a01b03161561094f5780516001600160a01b031633036109405760018060a01b0360018401541692600360018060a01b0360028301541691015491838652601260205261084660408720613713565b82610904575b505050808352600d60205260408320805460ff1916600117905560065483906001600160a01b0316803b15610900578160405180926332f65ba360e01b825281838161089d308b8b600485016138b4565b03925af180156105d1576108eb575b507f10e3e530b2e9aaece9a627ff58983640cdbb5004c21c120f74420e08fa24cdbb818392a25f516020613e8b5f395f51905f528380a3600160045580f35b816108f591613456565b6105cd57825f6108ac565b5080fd5b60018060a01b0390511685526013602052604085209060018060a01b03165f5260205261093660405f20918254613736565b90555f808061084c565b631d3c442d60e21b8452600484fd5b6382bcaa3b60e01b8452600484fd5b61097291503d8087833e6105ff8183613456565b5f6107ee565b63839ec5c560e01b8352600483fd5b634e487b7160e01b84526011600452602484fd5b631e1a1a3760e21b8352600483fd5b50346102fa5760e03660031901126102fa576004356109c76133f3565b906064356109d3613409565b9260a4359060c4356001600160a01b0381169190829003610f22576109f6613ce3565b600260045414610f13576002600455610a0d613b5c565b6001600160a01b03168087526014602052604087205490929060ff1615610f0457848752600f60209081526040808920335f9081529252902054610ef557600654604051631cab5c9d60e31b81526004810187905296906001600160a01b03168888602481845afa978815610e5b578998610ed9575b506101208801516001600160a01b031615610eca57868952600d60205264ffffffffff61014060ff60408c2054169901511662ed4dff198101908111610e665788159081610ec0575b50610eb15761012c8611610e915785151580610ea0575b610e7a5761012c8311610e915782151580610e89575b610e7a57600554975f198914610e66576001890160055515610dea575087945b610b2560095442613736565b9460405196610b338861343a565b88885260018060a01b031660208801523360408801526060870152604435608087015260a086015260018060a01b031660c085015260e084015261010083015284610120830152846101408301526002610160830152610180820152836101a0820152836101c0820152426101e0820152600183018452600e60205260408420908051825560018060a01b03602082015116600183019060018060a01b031660018060a01b031982541617905560018060a01b03604082015116600283019060018060a01b031660018060a01b031982541617905560018060a01b03606082015116600383019060018060a01b031660018060a01b03198254161790556080810151600483015560a0810151600583015560018060a01b0360c082015116600683019060018060a01b031660018060a01b031982541617905560e0810151600783015560018060a01b0361010082015116600883019060018060a01b031660018060a01b03198254161790556101208101516009830155600a8201610ccb6101408301511515829060ff801983541691151516179055565b6101608201516008811015610dd65761ff0082549160081b169061ff001916179055610180810151600b8301556101a0810151600c8301556101c08101516004811015610dc257600e91610d256101e092600d860161389c565b0151910155808352600f60209081526040808520335f90815290835281902060018501905582855260109091528320805490600160401b821015610dae5781610d76916001610d7d94018155613857565b339161386c565b60013392017fa8fcb9779134006ebf3104140eedb9ee16d675aa783b8d5b310e89a5608e6a368480a4600160045580f35b634e487b7160e01b85526041600452602485fd5b634e487b7160e01b86526021600452602486fd5b634e487b7160e01b87526021600452602487fd5b6020602491604051928380926369d146b560e11b82528b60048301525afa908115610e5b578991610e1d575b5094610b19565b90506020813d602011610e53575b81610e3860209383613456565b81010312610e4f57610e4990613505565b5f610e16565b8880fd5b3d9150610e2b565b6040513d8b823e3d90fd5b634e487b7160e01b8a52601160045260248afd5b63e6c4247b60e01b8952600489fd5b508315610af9565b63162908e360e11b8952600489fd5b506001600160a01b03821615610ae3565b636a7870e960e11b8952600489fd5b905042105f610acc565b6382bcaa3b60e01b8952600489fd5b610eee9198503d808b833e6105ff8183613456565b965f610a83565b633ca148c360e11b8752600487fd5b6332da96a360e01b8752600487fd5b6306fda65d60e31b8752600487fd5b8680fd5b50346102fa57806003193601126102fa5760206040516103e88152f35b50346102fa57806003193601126102fa57602060405162ed4e008152f35b50346102fa57806003193601126102fa5750610fa2604051610f84604082613456565b60058152640352e302e360dc1b6020820152604051918291826134bd565b0390f35b50346102fa5760403660031901126102fa57610fc06133dd565b60243590610fcc613bb8565b6002600454146110d057600260045581156110c15782546001600160a01b031680156110b25780845260136020526040842060018060a01b0383165f5260205260405f205480841161109b57836110229161388f565b9084526013602090815260408086206001600160a01b039485165f818152919093522091909155835490929161105b9183911684613adb565b82546040519182526001600160a01b0316907f8fc241308ffc17817e6a8c6a52a8f7cd4931dfca0c539fd35a630311c7e4c57b90602090a3600160045580f35b63ac28c08360e01b85526004849052602452604484fd5b63e6c4247b60e01b8452600484fd5b630686827b60e51b8352600483fd5b6306fda65d60e31b8352600483fd5b50346102fa5760403660031901126102fa5760406110fb6133f3565b916004358152600f602052209060018060a01b03165f52602052602060405f2054604051908152f35b50346102fa5760203660031901126102fa57600435611141613bb8565b612710811161115057600b5580f35b63162908e360e11b8252600482fd5b50346115525760603660031901126115525760043560243560048110156115525760443561118b613ce3565b600260045414611870576002600455825f52600e60205260405f2091600e8301541561184d57600a83019182549060ff8260081c16600881101561185c5760030361184d576002850180549093906001600160a01b0316330361183e576009860192835415159081611832575b506118235760075460405163023aa9ab60e61b81527fd8e6c8b39dbc70333b42d059fa436cf2679722325c0f6ed7e701df0b05a637c8600482015290602090829060249082906001600160a01b03165afa908115611547575f916117e4575b50604051636896470560e11b815290602090829060049082906001600160a01b03165afa908115611547575f916117aa575b501561179b57600c860191825461178c57801561177d57811561176e57600292556112b781600d880161389c565b61040061ff0019865416178555867f8c0f79cb43223fbd00b73d4bbc8a0f62f1f2d6ddb3a6b650d90d0ee3557f683a60206040516112f58186613494565ba2036113c45760ff835416806113ba575b611376575b505061070061ff0019825416179055805483526011602052826040812055548252600c6020528160408120555f516020613f0b5f395f51905f52606060405160208152600e60208201526d1359591a58d85b0819985a5b195960921b6040820152a25b600160045580f35b5490546001600160a01b03908116865260136020908152604080882060038701549093165f908152929091529020805490916113b191613736565b90555f8061130b565b5080541515611306565b50505050805f52600e60205260405f20600a810161060061ff001982541617905580545f5260116020525f604081205580545f52600c6020525f604081205580545f52600d60205260405f2060ff19815416905560018060a01b03600654165f8254602460405180948193631cab5c9d60e31b835260048301525afa908115611547575f91611754575b50600482019081549182151580611749575b80611736575b6116e2575b6005840154801515806116cc575b611675575b5060078401548015158061165f575b611600575b5054801515806115e9575b611556575b50506006548254600284018054909493506001600160a01b039283169216823b15611552576114ec925f92836040518096819582946332f65ba360e01b84523090600485016138b4565b03925af1801561154757611532575b505490546001600160a01b0316917fbc21e199554ae62d688bd8c3901734ff32f00e9fd2b3259dbd1ca5657ef2ac6d8480a461136e565b61153f9194505f90613456565b5f925f6114fb565b6040513d5f823e3d90fd5b5f80fd5b6009840154808211156115e15761156c9161388f565b806115b8575b5061012001516001600160a01b039081165f9081526013602090815260408083206003870154909416835292905220805490916115ae91613736565b90555f80806114a2565b600384015460028501546115db929130916001600160a01b039081169116613d0a565b5f611572565b50505f61156c565b506101208201516001600160a01b0316151561149d565b612710611611611619928454613743565b04809461388f565b60088501546001600160a01b039081165f90815260136020908152604080832060038a01549094168352929052208054919490916116579190613736565b90555f611492565b5060088501546001600160a01b0316151561148d565b612710611611611686928454613743565b60068501546001600160a01b039081165f90815260136020908152604080832060038a01549094168352929052208054919490916116c49190613736565b90555f61147e565b5060068501546001600160a01b03161515611479565b6116f461271061161160015486613743565b5f80546001600160a01b03908116825260136020908152604080842060038a01549093168452919052902080549194909161172f9190613736565b905561146b565b505f546001600160a01b03161515611466565b506001541515611460565b61176891503d805f833e6105ff8183613456565b5f61144e565b63162908e360e11b5f5260045ffd5b63e6c4247b60e01b5f5260045ffd5b63c0f9cf3b60e01b5f5260045ffd5b6304d54fbf60e41b5f5260045ffd5b90506020813d6020116117dc575b816117c560209383613456565b81010312611552576117d690613571565b5f611289565b3d91506117b8565b90506020813d60201161181b575b816117ff60209383613456565b81010312611552576020611814600492613505565b9150611257565b3d91506117f2565b63732e4f3f60e11b5f5260045ffd5b60ff915016155f6111f8565b631f3cbf7b60e31b5f5260045ffd5b636f20b45d60e11b5f5260045ffd5b634e487b7160e01b5f52602160045260245ffd5b6306fda65d60e31b5f5260045ffd5b34611552575f3660031901126115525760206040515f8152f35b34611552575f366003190112611552576020600554604051908152f35b34611552576020366003190112611552575f60a06040516118d68161341f565b82815282602082015282604082015282606082015282608082015201526004355f52601260205260c060405f2060405161190f8161341f565b81549182825260018060a01b036001820154166020830190815260018060a01b03600283015416604084019081526003830154916060850192835260a060ff6005600487015496608089019788520154169501941515855260405195865260018060a01b03905116602086015260018060a01b03905116604085015251606084015251608083015251151560a0820152f35b34611552576020366003190112611552576001600160a01b036119c26133dd565b165f526014602052602060ff60405f2054166040519015158152f35b34611552576020366003190112611552576119f76133dd565b6119ff613bb8565b6001600160a01b03165f8181526014602052604090205460ff1615611b2157805f52601460205260405f2060ff1981541690556015545f5b818110611a66575b827f45f62f30e7b8439e0da7d8e560fe39d01238091ce9e789e3d12b514edf98acea5f80a2005b82611a708261382b565b905460039190911b1c6001600160a01b031614611a8f57600101611a37565b5f198201918211611b0d57611ac1611aa9611ac79361382b565b905460039190911b1c6001600160a01b03169161382b565b9061386c565b6015548015611af9575f1901611adc8161382b565b81549060018060a01b039060031b1b191690556015558180611a3f565b634e487b7160e01b5f52603160045260245ffd5b634e487b7160e01b5f52601160045260245ffd5b635a1303a760e01b5f5260045ffd5b3461155257604036600319011261155257611b496133f3565b6004355f525f516020613f2b5f395f51905f5260205260405f209060018060a01b03165f52602052602060ff60405f2054166040519015158152f35b34611552576020366003190112611552576004355f52600d602052602060ff60405f2054166040519015158152f35b34611552575f36600319011261155257602060405162278d008152f35b34611552575f366003190112611552576020600b54604051908152f35b34611552575f36600319011261155257611c06613bb8565b611c0e613ce3565b600160ff195f516020613f4b5f395f51905f525416175f516020613f4b5f395f51905f52557f62e78cea01bee320cd4e420270b5ea74000d11b0c9f74754ebdbfc544b05a2586020604051338152a1005b3461155257602036600319011261155257600435611c7b613bb8565b610e108110611c8957600955005b63296d383360e01b5f5260045ffd5b3461155257602036600319011261155257611cb16133dd565b611cb9613bb8565b6001600160a01b03811690811561177d57815f52601460205260ff60405f205416611d55575f828152601460205260409020805460ff1916600117905560155490600160401b821015611d4157611ac1826001611d1b94016015556015613857565b7f5f5916d70d5479c1795a9d461360dfa5c673bc37904c8ab4fcbdc970b9e90f3d5f80a2005b634e487b7160e01b5f52604160045260245ffd5b6389f2a03b60e01b5f5260045ffd5b3461155257602036600319011261155257600435611d80613ce3565b600260045414611870576002600455611d97613b5c565b805f52600e60205260405f20600e8101541561184d5760028101546001600160a01b0316330361183e57600a8101805460ff8160081c16600881101561185c5760028103611e5a57505061070061ff0019825416179055545f52600f60205260405f2060018060a01b0333165f526020525f60408120555f516020613f0b5f395f51905f52606060405160208152601c60208201527b436c7562207769746864726577206265666f7265207369676e696e6760201b6040820152a25b6001600455005b60030361184d5760ff1680612030575b611f80575b60ff9161070061ff001983541617825580545f52600f60205260405f2060018060a01b0333165f526020525f604081205580545f5260116020525f6040812055545f52600c6020525f604081205554165f14611f28575f516020613f0b5f395f51905f52611f20604051611ee4606082613456565b602f81525f516020613f8b5f395f51905f5260208201526e1c1bdcda5d08199bdc99995a5d1959608a1b60408201525b604051918291826134bd565b0390a2611e53565b5f516020613f0b5f395f51905f52611f20604051611f47606082613456565b603481525f516020613f8b5f395f51905f526020820152731c1bdcda5d081b9bdd081e595d081b1bd8dad95960621b6040820152611f14565b60018060a01b0360065416915f8154602460405180968193631cab5c9d60e31b835260048301525afa80156115475760ff935f91612016575b5061012001516001600160a01b031680611fd6575b509150611e6f565b60098201545f91825260136020908152604080842060038601546001600160a01b031685529091529091208054909161200e91613736565b905584611fce565b61202a91503d805f833e6105ff8183613456565b85611fb9565b5060098201541515611e6a565b34611552575f366003190112611552576020600954604051908152f35b3461155257602036600319011261155257600435612076613bb8565b6107d081116120b0576020817fd10d75876659a287a59a6ccfa2e3fff42f84d94b542837acd30bc184d562de4092600155604051908152a1005b63499fddb160e01b5f5260045ffd5b34611552575f3660031901126115525760206040515f516020613f6b5f395f51905f528152f35b34611552576020366003190112611552576120ff613ce3565b600260045414611870576002600455612116613b5c565b611e53600435613756565b34611552575f366003190112611552576040518060206015549283815201809260155f5260205f20905f5b8181106121ad5750505081612162910382613456565b604051918291602083019060208452518091526040830191905f5b81811061218b575050500390f35b82516001600160a01b031684528594506020938401939092019160010161217d565b82546001600160a01b031684526020909301926001928301920161214c565b34611552576020366003190112611552576004356121e8613ce3565b600260045414611870576002600455805f52600e60205260405f20600e8101541561184d57600a81019160ff835460081c16600881101561185c5760020361184d57600b820180544211612396576006548354604051631cab5c9d60e31b81526004810182905290915f90829060249082906001600160a01b03165afa801561154757610120915f9161237c575b500180516001600160a01b03161561236d57516001600160a01b0316330361235e575f52601160205260405f205461234f5760048301548015612347576122c361271091600b5490613743565b04935b61030061ff00198254161790558360098401556122e560095442613736565b905581545f5260116020528060405f205581545f52600c6020528060405f20557f85555eaba24ed3d0b00191ec3b1a276e90ceb6697f5f2c3e36aec1f426ccf0c36020835493600260018060a01b039101541694604051908152a46001600455005b505f936122c6565b63dfc5891760e01b5f5260045ffd5b631d3c442d60e21b5f5260045ffd5b6382bcaa3b60e01b5f5260045ffd5b61239091503d805f833e6105ff8183613456565b87612276565b63839ec5c560e01b5f5260045ffd5b34611552576020366003190112611552576004356002600454146118705760026004556123d0613b5c565b805f52601260205260405f209060ff600583015416156124725760018201546001600160a01b0316330361246357600382015491600260018060a01b0391015416905f52601260205261242560405f20613713565b81612431576001600455005b335f52601360205260405f209060018060a01b03165f5260205261245a60405f20918254613736565b90558080611e53565b638e3a31eb60e01b5f5260045ffd5b631e1a1a3760e21b5f5260045ffd5b34611552575f366003190112611552575f546040516001600160a01b039091168152602090f35b34611552575f3660031901126115525760206040515f516020613eeb5f395f51905f528152f35b34611552575f36600319011261155257602060ff5f516020613f4b5f395f51905f5254166040519015158152f35b34611552575f366003190112611552577f00000000000000000000000000000000000000000000000000000000000000006001600160a01b031630036125545760206040515f516020613ecb5f395f51905f528152f35b63703e46dd60e11b5f5260045ffd5b34611552576020366003190112611552575f6101e06040516125848161343a565b8281528260208201528260408201528260608201528260808201528260a08201528260c08201528260e08201528261010082015282610120820152826101408201528261016082015282610180820152826101a0820152826101c082015201526004355f52600e60205260405f206040516125fe8161343a565b8154815260018201546001600160a01b039081166020830190815260028401548216604084019081526003850154831660608501908152600486015460808601908152600587015460a087019081526006880154861660c08801908152600789015460e089019081526008808b01549098166101008a0190815260098b01546101208b01908152600a8c015460ff80821615156101408e01908152989d9a9c999b999a996101608c01999893979496949392811c9091169081101561185c578852600b8901549c6101808b019d8e52600c8a01549a6101a081019b8c5260ff600d8c0154169a6101c082019b600481101561185c578c52600e01546101e0820190815260408051925183529e516001600160a01b0390811660208401529d518e169e82019e909e5290518c16606082015290516080820152905160a08201529051891660c0820152905160e08201529051909616610100870152516101208601525115156101408501525192939291600883101561185c576102009561279e9361016087015251610180860152516101a0850152516101c0840190613494565b516101e0820152f35b6040366003190112611552576127bb6133dd565b602435906001600160401b03821161155257366023830112156115525781600401356127e681613479565b926127f46040519485613456565b818452366024838301011161155257815f9260246020930183870137840101526001600160a01b037f0000000000000000000000000000000000000000000000000000000000000000163081149081156129ac575b5061255457335f9081525f516020613eab5f395f51905f52602052604090205460ff1615612995576040516352d1902d60e01b81526001600160a01b0382169290602081600481875afa5f9181612961575b506128b35783634c9c8ce360e01b5f5260045260245ffd5b805f516020613ecb5f395f51905f5285920361294f5750823b1561293d575f516020613ecb5f395f51905f5280546001600160a01b031916821790557fbc7cd75a20ee27fd9adebab32041f755214dbc6bffa90cc0225b39da2e5c2d3b5f80a28051156129255761292391613d9e565b005b50503461292e57005b63b398979f60e01b5f5260045ffd5b634c9c8ce360e01b5f5260045260245ffd5b632a87526960e21b5f5260045260245ffd5b9091506020813d60201161298d575b8161297d60209383613456565b810103126115525751908561289b565b3d9150612970565b63e2517d3f60e01b5f52336004525f60245260445ffd5b5f516020613ecb5f395f51905f52546001600160a01b03161415905083612849565b34611552575f366003190112611552576006546040516001600160a01b039091168152602090f35b34611552575f36600319011261155257612a0e613bb8565b6003548015612a83574210612a74575f8054600280546001600160a01b038082166001600160a01b0319808616821787559092169092556003849055929116907f0c5d18caa145415182f8ad3d2563da586609cec04ac8505274d87bc43f00b4a49080a3005b6357f4ad8b60e01b5f5260045ffd5b6315090c2d60e01b5f5260045ffd5b3461155257604036600319011261155257612aab6133dd565b612ab36133f3565b6001600160a01b039182165f908152601360209081526040808320949093168252928352819020549051908152f35b34611552575f36600319011261155257612afa613bb8565b5f516020613f4b5f395f51905f525460ff811615612b515760ff19165f516020613f4b5f395f51905f52557f5db9ee0a495bf2e6ff9c91a7834c1ba4fdd244a5e8aa4e537bd38aeae4b073aa6020604051338152a1005b638dfc202b60e01b5f5260045ffd5b3461155257606036600319011261155257600435612b7c6133f3565b9060443591612b89613ce3565b600260045414611870576002600455612ba0613b5c565b6001600160a01b03165f8181526014602052604090205460ff1615612dfb576006546040516369d146b560e11b8152600481018490526001600160a01b0390911690602081602481855afa908115611547575f91612dc1575b50336001600160a01b039091160361246357825f52600d60205260ff60405f205416612db257825f52601260205260ff600560405f20015416612da457825f52600c60205260405f2054612d95575f60249160405192838092631cab5c9d60e31b82528760048301525afa908115611547575f91612d7b575b5061012001516001600160a01b03161561236d57612d379083612d6a575b600560405191612c9f8361341f565b8483523360208085019182526040808601938452606086018981524260808801908152600160a089018181525f8c815260129096529390942097518855935192870180546001600160a01b039485166001600160a01b03199182161790915594516002880180549190941695169490941790915591516003850155516004840155519101805460ff191691151560ff16919091179055565b6040519182527f8a53ffa41f42d2adcdd4e93b9b200a66c4a04eb5ed79277151e1c84097c8a20660203393a36001600455005b612d7684303384613d0a565b612c90565b612d8f91503d805f833e6105ff8183613456565b84612c72565b631d222f3360e21b5f5260045ffd5b624080c160e61b5f5260045ffd5b6308c572a160e21b5f5260045ffd5b90506020813d602011612df3575b81612ddc60209383613456565b8101031261155257612ded90613505565b85612bf9565b3d9150612dcf565b6332da96a360e01b5f5260045ffd5b3461155257604036600319011261155257612e236133f3565b336001600160a01b03821603612e3f5761292390600435613c47565b63334bd91960e11b5f5260045ffd5b34611552575f366003190112611552576020600154604051908152f35b3461155257604036600319011261155257612923600435612e8a6133f3565b90612e97610740826134e7565b613a4a565b34611552575f36600319011261155257604060018060a01b036002541660035482519182526020820152f35b34611552575f36600319011261155257602060405161012c8152f35b34611552576020366003190112611552576020612f026004356134e7565b604051908152f35b34611552576020366003190112611552576004355f52600c602052602060405f2054604051908152f35b3461155257602036600319011261155257612f4d6133dd565b600260045414611870576002600455335f52601360205260405f2060018060a01b0382165f5260205260405f2054908115612fe957335f52601360205260405f2060018060a01b0382165f526020525f604081205560018060a01b031690612fb6813384613adb565b6040519081527f716942921e9b67ee05c4c2ffcf216f189086c9053b444c8928a49db4bdb1ae8e60203392a36001600455005b6312d37ee560e31b5f5260045ffd5b346115525760a0366003190112611552576130116133dd565b6130196133f3565b6044356001600160a01b03811690819003611552576064356001600160a01b038116908190036115525761304b613409565b5f516020613fab5f395f51905f5254604081901c60ff161595919391906001600160401b0381168015908161321c575b6001149081613212575b159081613209575b506131fa576001600160401b031981166001175f516020613fab5f395f51905f5255866131d2575b506001600160a01b031693841561177d576001600160a01b0316801561177d57811561177d57821561177d576001600160a01b0384161561177d57613179946130fc613d73565b613104613d73565b600160045560018060a01b0319600654161760065560018060a01b0319600754161760075560018060a01b0319600854161760085560018060a01b03195f5416175f55621275006009556203f480600a5560326001556103e8600b55613169816138d4565b506131738161394a565b506139ca565b5061318057005b60ff60401b195f516020613fab5f395f51905f5254165f516020613fab5f395f51905f52557fc7f505b2f371ae2175ee4913f4499e1f2633a7b5936321eed1cdaeb6115181d2602060405160018152a1005b6001600160481b0319166001600160401b01175f516020613fab5f395f51905f5255866130b5565b63f92ee8a960e01b5f5260045ffd5b9050158861308d565b303b159150613085565b88915061307b565b3461155257602036600319011261155257600435600260045414611870576002600455805f52600e60205260405f20600e8101541561184d57600a810190815460ff8160081c16600881101561185c5760030361184d5760ff1661333457600b810154801561184d574211156123965780545f52600f60205260405f2060018060a01b0360028301541660018060a01b03165f526020525f604081205580545f5260116020525f6040812055545f52600c6020525f604081205561070061ff00198254161790555f516020613f0b5f395f51905f52606060405160208152601a6020820152794465706f736974206e6f74206c6f636b656420696e2074696d6560301b6040820152a26001600455005b63875dbd5f60e01b5f5260045ffd5b34611552576020366003190112611552576004355f526011602052602060405f2054604051908152f35b34611552575f366003190112611552576020600a54604051908152f35b34611552576020366003190112611552576004359063ffffffff60e01b821680920361155257602091637965db0b60e01b81149081156133cc575b5015158152f35b6301ffc9a760e01b149050836133c5565b600435906001600160a01b038216820361155257565b602435906001600160a01b038216820361155257565b608435906001600160a01b038216820361155257565b60c081019081106001600160401b03821117611d4157604052565b61020081019081106001600160401b03821117611d4157604052565b601f909101601f19168101906001600160401b03821190821017611d4157604052565b6001600160401b038111611d4157601f01601f191660200190565b90600482101561185c5752565b34611552575f366003190112611552576020604051610e108152f35b602060409281835280519182918282860152018484015e5f828201840152601f01601f1916010190565b5f525f516020613f2b5f395f51905f52602052600160405f20015490565b51906001600160a01b038216820361155257565b81601f820112156115525780519061353082613479565b9261353e6040519485613456565b8284526020838301011161155257815f9260208093018386015e8301015290565b519064ffffffffff8216820361155257565b5190811515820361155257565b602081830312611552578051906001600160401b038211611552570161022081830312611552576040519161022083016001600160401b03811184821017611d41576040528151835260208201516001600160401b03811161155257816135e6918401613519565b602084015260408201516001600160401b038111611552578161360a918401613519565b604084015260608201516001600160401b038111611552578161362e918401613519565b60608401526080820151608084015260a082015160a084015260c082015160c084015260e082015160e08401526101008201516101008401526136746101208301613505565b610120840152613687610140830161355f565b61014084015261369a610160830161355f565b6101608401526136ad6101808301613571565b6101808401526136c06101a08301613571565b6101a08401526136d36101c08301613571565b6101c08401526136e66101e08301613571565b6101e08401526102008201516001600160401b0381116115525761370a9201613519565b61020082015290565b60055f918281558260018201558260028201558260038201558260048201550155565b91908201809211611b0d57565b81810292918115918404141715611b0d57565b805f52600e60205260405f20600e8101541561184d57600a81019081549060ff8260081c16600881101561185c5760030361184d5760028101546001600160a01b0316330361183e57600b8101805442116123965760ff8316613334575f90556009810192835492831561381c5750805460ff19166001179055600301547f8c645a30f794de74ac16ddc70888cb75ace083d46e9dcae64003d538dca14f939260209290916138129190309033906001600160a01b0316613d0a565b54604051908152a2565b60ff1916600117905550505050565b6015548110156138435760155f5260205f2001905f90565b634e487b7160e01b5f52603260045260245ffd5b8054821015613843575f5260205f2001905f90565b80546001600160a01b0360039390931b83811b199091169290931690921b179055565b91908203918211611b0d57565b90600481101561185c5760ff80198354169116179055565b9081526001600160a01b0391821660208201529116604082015260600190565b6001600160a01b0381165f9081525f516020613eab5f395f51905f52602052604090205460ff16613945576001600160a01b03165f8181525f516020613eab5f395f51905f5260205260408120805460ff191660011790553391905f516020613e2b5f395f51905f528180a4600190565b505f90565b6001600160a01b0381165f9081525f516020613e6b5f395f51905f52602052604090205460ff16613945576001600160a01b03165f8181525f516020613e6b5f395f51905f5260205260408120805460ff191660011790553391905f516020613f6b5f395f51905f52905f516020613e2b5f395f51905f529080a4600190565b6001600160a01b0381165f9081525f516020613e4b5f395f51905f52602052604090205460ff16613945576001600160a01b03165f8181525f516020613e4b5f395f51905f5260205260408120805460ff191660011790553391905f516020613eeb5f395f51905f52905f516020613e2b5f395f51905f529080a4600190565b5f8181525f516020613f2b5f395f51905f52602090815260408083206001600160a01b038616845290915290205460ff16613ad5575f8181525f516020613f2b5f395f51905f52602090815260408083206001600160a01b0395909516808452949091528120805460ff19166001179055339291905f516020613e2b5f395f51905f529080a4600190565b50505f90565b916040519163a9059cbb60e01b5f5260018060a01b031660045260245260205f60448180865af19060015f5114821615613b3b575b60405215613b1b5750565b635274afe760e01b5f9081526001600160a01b0391909116600452602490fd5b906001811516613b5357823b15153d15161690613b10565b503d5f823e3d90fd5b335f9081527f47c3465a0c211ece60dd73efc90110f8b7e204feda752e1c50487740ddbcd24f602052604090205460ff1615613b9457565b63e2517d3f60e01b5f52336004525f516020613fcb5f395f51905f5260245260445ffd5b335f9081525f516020613e6b5f395f51905f52602052604090205460ff1615613bdd57565b63e2517d3f60e01b5f52336004525f516020613f6b5f395f51905f5260245260445ffd5b5f8181525f516020613f2b5f395f51905f526020908152604080832033845290915290205460ff1615613c315750565b63e2517d3f60e01b5f523360045260245260445ffd5b5f8181525f516020613f2b5f395f51905f52602090815260408083206001600160a01b038616845290915290205460ff1615613ad5575f8181525f516020613f2b5f395f51905f52602090815260408083206001600160a01b0395909516808452949091528120805460ff19169055339291907ff6391f5c32d9c69d2a47ea670b442974b53935d1edc7fd64eb21e047a839171b9080a4600190565b60ff5f516020613f4b5f395f51905f525416613cfb57565b63d93c066560e01b5f5260045ffd5b6040516323b872dd60e01b5f9081526001600160a01b039384166004529290931660245260449390935260209060648180865af19060015f5114821615613d5b575b6040525f60605215613b1b5750565b906001811516613b5357823b15153d15161690613d4c565b60ff5f516020613fab5f395f51905f525460401c1615613d8f57565b631afcd79f60e31b5f5260045ffd5b905f8091602081519101845af48080613e17575b15613dd25750506040513d81523d5f602083013e60203d82010160405290565b15613df757639996b31560e01b5f9081526001600160a01b0391909116600452602490fd5b3d15613e08576040513d5f823e3d90fd5b63d6bda27560e01b5f5260045ffd5b503d151580613db25750813b1515613db256fe2f8788117e7eff1d82e926ec794901d17c78024a50270940304540a733656f0d7a1492cadb22452d254c71a9ef0c781c9f2d1c472dc5213a713c8769ea04d819b16e88c42fd4e48df2dd6a2eabd6bc9aec654ec170056b470819f8892cc6431c6db906fc527747b7d5851ac853d74d851426fcdeebc6de2225e1d76724e188a3b7db2dd08fcb62d0c9e08c51941cae53c267786a0b75803fb7960902fc8ef97d360894a13ba1a3210667c828492db98dca3e2076cc3735a920a3ca505d382bbce4369475d33ca6555b45ac3cf081bee16c4b11779d89f812395c569b2de40f01d9e299659c09071de1e608f0df106f5a6c30074078ca47283232032b01b3967402dd7bc7dec4dceedda775e58dd541e08a116c6c53815c0bd028192f7b626800cd5ed15c6e187e77e9aee88184c21f4f2182ab5827cb3b7e07fbedcd63f03300a49807205ce4d355092ef5a8a18f56e8913cf4a201fbe287825b095693c21775436c7562207769746864726577206166746572207369676e696e67202d206465f0c57e16840df040f15088dc2f81fe391c3923bec73e23a9662efc9c229c6a00ba2dc669204b26427a432593e1c6ac86ab4ccc54d29c4287abbd1cefc1cb002ba264697066735822122093f62c12060be7455b1692aa0de02694490fe76be3f1b7ddfd1a1f1c4e1b076264736f6c634300081c0033f0c57e16840df040f15088dc2f81fe391c3923bec73e23a9662efc9c229c6a00",
  "linkReferences": {},
  "deployedLinkReferences": {},
  "immutableReferences": {
    "3035": [
      {
        "length": 32,
        "start": 9487
      },
      {
        "length": 32,
        "start": 10270
      }
    ]
  },
  "inputSourceName": "project/contracts/core/FreeTransferEscrow.sol",
  "buildInfoId": "solc-0_8_28-135eb534b59c73eacd10f92941f8d1077266eb87"
}