{
  "_format": "hh3-artifact-1",
  "contractName": "InstallmentEscrow",
  "sourceName": "contracts/core/InstallmentEscrow.sol",
  "abi": [
    {
      "inputs": [
        {
          "internalType": "address",
          "name": "_dealEscrow",
          "type": "address"
        },
        {
          "internalType": "address",
          "name": "_treasury",
          "type": "address"
        },
        {
          "internalType": "uint256",
          "name": "_protocolFeeBps",
          "type": "uint256"
        }
      ],
      "stateMutability": "nonpayable",
      "type": "constructor"
    },
    {
      "inputs": [],
      "name": "AccessControlBadConfirmation",
      "type": "error"
    },
    {
      "inputs": [
        {
          "internalType": "address",
          "name": "account",
          "type": "address"
        },
        {
          "internalType": "bytes32",
          "name": "neededRole",
          "type": "bytes32"
        }
      ],
      "name": "AccessControlUnauthorizedAccount",
      "type": "error"
    },
    {
      "inputs": [],
      "name": "EnforcedPause",
      "type": "error"
    },
    {
      "inputs": [],
      "name": "ExpectedPause",
      "type": "error"
    },
    {
      "inputs": [],
      "name": "InstallmentAlreadyPaid",
      "type": "error"
    },
    {
      "inputs": [],
      "name": "InstallmentNotDue",
      "type": "error"
    },
    {
      "inputs": [],
      "name": "InstallmentNotOverdue",
      "type": "error"
    },
    {
      "inputs": [],
      "name": "InvalidIndex",
      "type": "error"
    },
    {
      "inputs": [],
      "name": "NotBuyingClub",
      "type": "error"
    },
    {
      "inputs": [],
      "name": "NothingToClaim",
      "type": "error"
    },
    {
      "inputs": [],
      "name": "ReentrancyGuardReentrantCall",
      "type": "error"
    },
    {
      "inputs": [
        {
          "internalType": "address",
          "name": "token",
          "type": "address"
        }
      ],
      "name": "SafeERC20FailedOperation",
      "type": "error"
    },
    {
      "inputs": [],
      "name": "WrongDealState",
      "type": "error"
    },
    {
      "anonymous": false,
      "inputs": [
        {
          "indexed": true,
          "internalType": "address",
          "name": "recipient",
          "type": "address"
        },
        {
          "indexed": true,
          "internalType": "address",
          "name": "token",
          "type": "address"
        },
        {
          "indexed": false,
          "internalType": "uint256",
          "name": "amount",
          "type": "uint256"
        }
      ],
      "name": "Claimed",
      "type": "event"
    },
    {
      "anonymous": false,
      "inputs": [
        {
          "indexed": true,
          "internalType": "uint256",
          "name": "dealId",
          "type": "uint256"
        },
        {
          "indexed": true,
          "internalType": "uint8",
          "name": "index",
          "type": "uint8"
        },
        {
          "indexed": false,
          "internalType": "uint256",
          "name": "dueDate",
          "type": "uint256"
        }
      ],
      "name": "InstallmentOverdue",
      "type": "event"
    },
    {
      "anonymous": false,
      "inputs": [
        {
          "indexed": true,
          "internalType": "uint256",
          "name": "dealId",
          "type": "uint256"
        },
        {
          "indexed": true,
          "internalType": "uint8",
          "name": "index",
          "type": "uint8"
        },
        {
          "indexed": false,
          "internalType": "uint256",
          "name": "amount",
          "type": "uint256"
        }
      ],
      "name": "InstallmentPaid",
      "type": "event"
    },
    {
      "anonymous": false,
      "inputs": [
        {
          "indexed": false,
          "internalType": "address",
          "name": "account",
          "type": "address"
        }
      ],
      "name": "Paused",
      "type": "event"
    },
    {
      "anonymous": false,
      "inputs": [
        {
          "indexed": true,
          "internalType": "bytes32",
          "name": "role",
          "type": "bytes32"
        },
        {
          "indexed": true,
          "internalType": "bytes32",
          "name": "previousAdminRole",
          "type": "bytes32"
        },
        {
          "indexed": true,
          "internalType": "bytes32",
          "name": "newAdminRole",
          "type": "bytes32"
        }
      ],
      "name": "RoleAdminChanged",
      "type": "event"
    },
    {
      "anonymous": false,
      "inputs": [
        {
          "indexed": true,
          "internalType": "bytes32",
          "name": "role",
          "type": "bytes32"
        },
        {
          "indexed": true,
          "internalType": "address",
          "name": "account",
          "type": "address"
        },
        {
          "indexed": true,
          "internalType": "address",
          "name": "sender",
          "type": "address"
        }
      ],
      "name": "RoleGranted",
      "type": "event"
    },
    {
      "anonymous": false,
      "inputs": [
        {
          "indexed": true,
          "internalType": "bytes32",
          "name": "role",
          "type": "bytes32"
        },
        {
          "indexed": true,
          "internalType": "address",
          "name": "account",
          "type": "address"
        },
        {
          "indexed": true,
          "internalType": "address",
          "name": "sender",
          "type": "address"
        }
      ],
      "name": "RoleRevoked",
      "type": "event"
    },
    {
      "anonymous": false,
      "inputs": [
        {
          "indexed": false,
          "internalType": "address",
          "name": "account",
          "type": "address"
        }
      ],
      "name": "Unpaused",
      "type": "event"
    },
    {
      "inputs": [],
      "name": "DEFAULT_ADMIN_ROLE",
      "outputs": [
        {
          "internalType": "bytes32",
          "name": "",
          "type": "bytes32"
        }
      ],
      "stateMutability": "view",
      "type": "function"
    },
    {
      "inputs": [],
      "name": "LEAGUE_ROLE",
      "outputs": [
        {
          "internalType": "bytes32",
          "name": "",
          "type": "bytes32"
        }
      ],
      "stateMutability": "view",
      "type": "function"
    },
    {
      "inputs": [
        {
          "internalType": "address",
          "name": "token",
          "type": "address"
        }
      ],
      "name": "claim",
      "outputs": [],
      "stateMutability": "nonpayable",
      "type": "function"
    },
    {
      "inputs": [
        {
          "internalType": "address",
          "name": "account",
          "type": "address"
        },
        {
          "internalType": "address",
          "name": "token",
          "type": "address"
        }
      ],
      "name": "claimable",
      "outputs": [
        {
          "internalType": "uint256",
          "name": "",
          "type": "uint256"
        }
      ],
      "stateMutability": "view",
      "type": "function"
    },
    {
      "inputs": [],
      "name": "dealEscrow",
      "outputs": [
        {
          "internalType": "contract IDealEscrow",
          "name": "",
          "type": "address"
        }
      ],
      "stateMutability": "view",
      "type": "function"
    },
    {
      "inputs": [
        {
          "internalType": "uint256",
          "name": "dealId",
          "type": "uint256"
        },
        {
          "internalType": "uint8",
          "name": "index",
          "type": "uint8"
        }
      ],
      "name": "flagOverdue",
      "outputs": [],
      "stateMutability": "nonpayable",
      "type": "function"
    },
    {
      "inputs": [
        {
          "internalType": "bytes32",
          "name": "role",
          "type": "bytes32"
        }
      ],
      "name": "getRoleAdmin",
      "outputs": [
        {
          "internalType": "bytes32",
          "name": "",
          "type": "bytes32"
        }
      ],
      "stateMutability": "view",
      "type": "function"
    },
    {
      "inputs": [
        {
          "internalType": "bytes32",
          "name": "role",
          "type": "bytes32"
        },
        {
          "internalType": "address",
          "name": "account",
          "type": "address"
        }
      ],
      "name": "grantRole",
      "outputs": [],
      "stateMutability": "nonpayable",
      "type": "function"
    },
    {
      "inputs": [
        {
          "internalType": "bytes32",
          "name": "role",
          "type": "bytes32"
        },
        {
          "internalType": "address",
          "name": "account",
          "type": "address"
        }
      ],
      "name": "hasRole",
      "outputs": [
        {
          "internalType": "bool",
          "name": "",
          "type": "bool"
        }
      ],
      "stateMutability": "view",
      "type": "function"
    },
    {
      "inputs": [],
      "name": "paused",
      "outputs": [
        {
          "internalType": "bool",
          "name": "",
          "type": "bool"
        }
      ],
      "stateMutability": "view",
      "type": "function"
    },
    {
      "inputs": [
        {
          "internalType": "uint256",
          "name": "dealId",
          "type": "uint256"
        },
        {
          "internalType": "uint8",
          "name": "index",
          "type": "uint8"
        }
      ],
      "name": "payInstallment",
      "outputs": [],
      "stateMutability": "nonpayable",
      "type": "function"
    },
    {
      "inputs": [],
      "name": "protocolFeeBps",
      "outputs": [
        {
          "internalType": "uint256",
          "name": "",
          "type": "uint256"
        }
      ],
      "stateMutability": "view",
      "type": "function"
    },
    {
      "inputs": [
        {
          "internalType": "bytes32",
          "name": "role",
          "type": "bytes32"
        },
        {
          "internalType": "address",
          "name": "callerConfirmation",
          "type": "address"
        }
      ],
      "name": "renounceRole",
      "outputs": [],
      "stateMutability": "nonpayable",
      "type": "function"
    },
    {
      "inputs": [
        {
          "internalType": "bytes32",
          "name": "role",
          "type": "bytes32"
        },
        {
          "internalType": "address",
          "name": "account",
          "type": "address"
        }
      ],
      "name": "revokeRole",
      "outputs": [],
      "stateMutability": "nonpayable",
      "type": "function"
    },
    {
      "inputs": [
        {
          "internalType": "bytes4",
          "name": "interfaceId",
          "type": "bytes4"
        }
      ],
      "name": "supportsInterface",
      "outputs": [
        {
          "internalType": "bool",
          "name": "",
          "type": "bool"
        }
      ],
      "stateMutability": "view",
      "type": "function"
    },
    {
      "inputs": [],
      "name": "treasury",
      "outputs": [
        {
          "internalType": "address",
          "name": "",
          "type": "address"
        }
      ],
      "stateMutability": "view",
      "type": "function"
    }
  ],
  "bytecode": "0x6080346100e857601f61101e38819003918201601f19168301916001600160401b038311848410176100ec578084926060946040528339810103126100e85761004781610100565b90604061005660208301610100565b91015160017f9b779b17422d0df92223018b32b4d1fa46e071723d6817e2486d003becc55f008190558054610100600160a81b03191660089490941b610100600160a81b031693909317909255600280546001600160a01b0319166001600160a01b039092169190911790556003556100ce33610114565b506100d83361018a565b50604051610da0908161021e8239f35b5f80fd5b634e487b7160e01b5f52604160045260245ffd5b51906001600160a01b03821682036100e857565b6001600160a01b0381165f9081525f516020610ffe5f395f51905f52602052604090205460ff16610185576001600160a01b03165f8181525f516020610ffe5f395f51905f5260205260408120805460ff191660011790553391905f516020610fbe5f395f51905f528180a4600190565b505f90565b6001600160a01b0381165f9081525f516020610fde5f395f51905f52602052604090205460ff16610185576001600160a01b03165f8181525f516020610fde5f395f51905f5260205260408120805460ff191660011790553391907fe4369475d33ca6555b45ac3cf081bee16c4b11779d89f812395c569b2de40f01905f516020610fbe5f395f51905f529080a460019056fe6080806040526004361015610012575f80fd5b5f905f3560e01c90816301ffc9a7146109e4575080631e83409a146108c2578063248a9ca31461089c5780632f2ff15d1461086b57806335659fb81461084e57806336568abe146108085780635c975abb146107e657806360e49e44146107bf57806361d027b3146107975780636951020e146103fb5780636b7c05b2146101f057806391d14854146101a7578063a217fddf1461018b578063b76d66471461015e578063d4570c1c1461010b5763d547741f146100ce575f80fd5b34610108576040366003190112610108576101046004356100ed610a4d565b906100ff6100fa82610a83565b610bea565b610caa565b5080f35b80fd5b5034610108576040366003190112610108576040610127610a37565b91610130610a4d565b9260018060a01b031681526004602052209060018060a01b03165f52602052602060405f2054604051908152f35b503461010857806003193601126101085760015460405160089190911c6001600160a01b03168152602090f35b5034610108578060031936011261010857602090604051908152f35b50346101085760403660031901126101085760406101c3610a4d565b91600435815280602052209060018060a01b03165f52602052602060ff60405f2054166040519015158152f35b5034610108576101ff36610a63565b5f516020610d2b5f395f51905f52835260208381526040808520335f908152925290205490919060ff16156103d7576001546040516330f8ec9760e11b815260048101839052929060081c6001600160a01b031660c084602481845afa80156103cc578594869161038d575b5060ff601091160361037e5760ff8216938415908115610370575b5061036157604051638abf7ff160e01b81526004810184905260ff929092166024830152606090829060449082905afa908115610356578491610327575b5060408101516103185760200180514211156103095760207fb9b138bbaa1a56f32ef6b3986de9406066ba9d198e53e03a175cd64635e69f5e9151604051908152a380f35b637e4486e160e01b8452600484fd5b631de9877360e31b8452600484fd5b610349915060603d60601161034f575b6103418183610a94565b810190610b45565b5f6102c4565b503d610337565b6040513d86823e3d90fd5b6363df817160e01b8552600485fd5b60ff9150168410155f610286565b6372c24c3560e01b8552600485fd5b60ff9550601091506103b69060c03d60c0116103c5575b6103ae8183610a94565b810190610aed565b9994505091505095915061026b565b503d6103a4565b6040513d87823e3d90fd5b63e2517d3f60e01b8352336004525f516020610d2b5f395f51905f52602452604483fd5b50346106dc5761040a36610a63565b9060ff600154166107885761041d610bb2565b6001546040516330f8ec9760e11b815260048101839052929060081c6001600160a01b031660c084602481845afa9081156106d1575f905f925f925f975f9261075a575b50336001600160a01b039091160361074b5760ff601091160361073c5760ff841695861590811561072e575b5061071f57604051638abf7ff160e01b81526004810186905260ff949094166024850152606084604481845afa9384156106d1575f946106fe575b5060408401516106ef57602084015142106106e0578351813b156106dc575f91606483926040519485938492633124297560e11b84528b60048501528c602485015260448401525af180156106d1576106bc575b5060018060a01b03168251604051906323b872dd60e01b8852336004523060245260445260208760648180865af190600188511482161561069b575b60405286606052156106895760035480151580610675575b1561066d578351818102918183041490151715610659576127109004915b835192808403938411610645579160209391837fde400fc45b2ae985959c218e25aa6f393742735643564f91f92ece5a4233b1fe9694610611575b506001600160a01b031688526004845260408089205f92835285529020805490916105f391610b91565b905551604051908152a360015f516020610d4b5f395f51905f525580f35b6002546001600160a01b03168a52600486526040808b205f858152908852208054909161063d91610b91565b90555f6105c9565b634e487b7160e01b88526011600452602488fd5b634e487b7160e01b87526011600452602487fd5b50859161058e565b506002546001600160a01b03161515610570565b635274afe760e01b8652600452602485fd5b9060018115166106b357823b15153d15161690610558565b503d87823e3d90fd5b6106c99196505f90610a94565b5f945f61051c565b6040513d5f823e3d90fd5b5f80fd5b63b92939cf60e01b5f5260045ffd5b631de9877360e31b5f5260045ffd5b61071891945060603d60601161034f576103418183610a94565b925f6104c8565b6363df817160e01b5f5260045ffd5b60ff9150168610155f61048d565b6372c24c3560e01b5f5260045ffd5b631f3cbf7b60e31b5f5260045ffd5b935050509450610779915060c03d60c0116103c5576103ae8183610a94565b9197939492939290505f610461565b63d93c066560e01b5f5260045ffd5b346106dc575f3660031901126106dc576002546040516001600160a01b039091168152602090f35b346106dc575f3660031901126106dc5760206040515f516020610d2b5f395f51905f528152f35b346106dc575f3660031901126106dc57602060ff600154166040519015158152f35b346106dc5760403660031901126106dc57610821610a4d565b336001600160a01b0382160361083f5761083d90600435610caa565b005b63334bd91960e11b5f5260045ffd5b346106dc575f3660031901126106dc576020600354604051908152f35b346106dc5760403660031901126106dc5761083d60043561088a610a4d565b906108976100fa82610a83565b610c22565b346106dc5760203660031901126106dc5760206108ba600435610a83565b604051908152f35b346106dc5760203660031901126106dc576108db610a37565b6108e3610bb2565b335f52600460205260405f2060018060a01b0382165f5260205260405f20549081156109d557335f52600460205260405f2060018060a01b0382165f526020525f604081205560018060a01b0316906040519063a9059cbb60e01b5f52336004528060245260205f60448180875af160015f51148116156109b6575b82604052156109a35781527ff7a40077ff7a04c7e61f6f26fb13774259ddf1b6bce9ecf26a8276cdd399268360203392a360015f516020610d4b5f395f51905f5255005b82635274afe760e01b5f5260045260245ffd5b60018115166109cc57833b15153d15161661095f565b823d5f823e3d90fd5b6312d37ee560e31b5f5260045ffd5b346106dc5760203660031901126106dc576004359063ffffffff60e01b82168092036106dc57602091637965db0b60e01b8114908115610a26575b5015158152f35b6301ffc9a760e01b14905083610a1f565b600435906001600160a01b03821682036106dc57565b602435906001600160a01b03821682036106dc57565b60409060031901126106dc576004359060243560ff811681036106dc5790565b5f525f602052600160405f20015490565b601f909101601f19168101906001600160401b03821190821017610ab757604052565b634e487b7160e01b5f52604160045260245ffd5b51906001600160a01b03821682036106dc57565b519060ff821682036106dc57565b91908260c09103126106dc57610b0282610acb565b91610b0f60208201610acb565b91610b1c60408301610acb565b91610b2960608201610adf565b91610b4260a0610b3b60808501610adf565b9301610adf565b90565b908160609103126106dc576040519060608201906001600160401b03821183831017610ab75760409182528051835260208101516020840152015180151581036106dc57604082015290565b91908201809211610b9e57565b634e487b7160e01b5f52601160045260245ffd5b60025f516020610d4b5f395f51905f525414610bdb5760025f516020610d4b5f395f51905f5255565b633ee5aeb560e01b5f5260045ffd5b5f8181526020818152604080832033845290915290205460ff1615610c0c5750565b63e2517d3f60e01b5f523360045260245260445ffd5b5f818152602081815260408083206001600160a01b038616845290915290205460ff16610ca4575f818152602081815260408083206001600160a01b0395909516808452949091528120805460ff19166001179055339291907f2f8788117e7eff1d82e926ec794901d17c78024a50270940304540a733656f0d9080a4600190565b50505f90565b5f818152602081815260408083206001600160a01b038616845290915290205460ff1615610ca4575f818152602081815260408083206001600160a01b0395909516808452949091528120805460ff19169055339291907ff6391f5c32d9c69d2a47ea670b442974b53935d1edc7fd64eb21e047a839171b9080a460019056fee4369475d33ca6555b45ac3cf081bee16c4b11779d89f812395c569b2de40f019b779b17422d0df92223018b32b4d1fa46e071723d6817e2486d003becc55f00a26469706673582212207b87bb2f1c9a749d73eb9ed241e6ff90337e469536b67778733b1dc8aebe604064736f6c634300081c00332f8788117e7eff1d82e926ec794901d17c78024a50270940304540a733656f0d86f8437c3370d009cbcd6bd2faff5909ac9d56a281ee52495642de7b0e979cc5ad3228b676f7d3cd4284a5443f17f1962b36e491b30a40b2405849e597ba5fb5",
  "linkReferences": {},
  "deployedLinkReferences": {},
  "immutableReferences": {},
  "inputSourceName": "project/contracts/core/InstallmentEscrow.sol",
  "buildInfoId": "solc-0_8_28-cad9b05da742493fa9322d165d3dae205e8f586d"
}