{
  "_format": "hh3-artifact-1",
  "contractName": "InstallmentEscrow",
  "sourceName": "contracts/core/InstallmentEscrow.sol",
  "abi": [
    {
      "inputs": [],
      "stateMutability": "nonpayable",
      "type": "constructor"
    },
    {
      "inputs": [],
      "name": "AccessControlBadConfirmation",
      "type": "error"
    },
    {
      "inputs": [
        {
          "internalType": "address",
          "name": "account",
          "type": "address"
        },
        {
          "internalType": "bytes32",
          "name": "neededRole",
          "type": "bytes32"
        }
      ],
      "name": "AccessControlUnauthorizedAccount",
      "type": "error"
    },
    {
      "inputs": [
        {
          "internalType": "address",
          "name": "target",
          "type": "address"
        }
      ],
      "name": "AddressEmptyCode",
      "type": "error"
    },
    {
      "inputs": [
        {
          "internalType": "address",
          "name": "implementation",
          "type": "address"
        }
      ],
      "name": "ERC1967InvalidImplementation",
      "type": "error"
    },
    {
      "inputs": [],
      "name": "ERC1967NonPayable",
      "type": "error"
    },
    {
      "inputs": [],
      "name": "EnforcedPause",
      "type": "error"
    },
    {
      "inputs": [],
      "name": "ExpectedPause",
      "type": "error"
    },
    {
      "inputs": [],
      "name": "FailedCall",
      "type": "error"
    },
    {
      "inputs": [],
      "name": "InstallmentAlreadyPaid",
      "type": "error"
    },
    {
      "inputs": [],
      "name": "InstallmentNotDue",
      "type": "error"
    },
    {
      "inputs": [],
      "name": "InstallmentNotOverdue",
      "type": "error"
    },
    {
      "inputs": [
        {
          "internalType": "uint256",
          "name": "requested",
          "type": "uint256"
        },
        {
          "internalType": "uint256",
          "name": "available",
          "type": "uint256"
        }
      ],
      "name": "InsufficientProtocolBalance",
      "type": "error"
    },
    {
      "inputs": [],
      "name": "InvalidAddress",
      "type": "error"
    },
    {
      "inputs": [],
      "name": "InvalidIndex",
      "type": "error"
    },
    {
      "inputs": [],
      "name": "InvalidInitialization",
      "type": "error"
    },
    {
      "inputs": [],
      "name": "NoPendingTreasuryUpdate",
      "type": "error"
    },
    {
      "inputs": [],
      "name": "NotBuyingClub",
      "type": "error"
    },
    {
      "inputs": [],
      "name": "NotInitializing",
      "type": "error"
    },
    {
      "inputs": [],
      "name": "NothingToClaim",
      "type": "error"
    },
    {
      "inputs": [],
      "name": "NothingToWithdraw",
      "type": "error"
    },
    {
      "inputs": [],
      "name": "ProtocolFeeTooHigh",
      "type": "error"
    },
    {
      "inputs": [],
      "name": "ReentrantCall",
      "type": "error"
    },
    {
      "inputs": [
        {
          "internalType": "address",
          "name": "token",
          "type": "address"
        }
      ],
      "name": "SafeERC20FailedOperation",
      "type": "error"
    },
    {
      "inputs": [],
      "name": "TreasuryUpdateNotReady",
      "type": "error"
    },
    {
      "inputs": [],
      "name": "UUPSUnauthorizedCallContext",
      "type": "error"
    },
    {
      "inputs": [
        {
          "internalType": "bytes32",
          "name": "slot",
          "type": "bytes32"
        }
      ],
      "name": "UUPSUnsupportedProxiableUUID",
      "type": "error"
    },
    {
      "inputs": [],
      "name": "WrongDealState",
      "type": "error"
    },
    {
      "anonymous": false,
      "inputs": [
        {
          "indexed": true,
          "internalType": "address",
          "name": "recipient",
          "type": "address"
        },
        {
          "indexed": true,
          "internalType": "address",
          "name": "token",
          "type": "address"
        },
        {
          "indexed": false,
          "internalType": "uint256",
          "name": "amount",
          "type": "uint256"
        }
      ],
      "name": "Claimed",
      "type": "event"
    },
    {
      "anonymous": false,
      "inputs": [
        {
          "indexed": false,
          "internalType": "uint64",
          "name": "version",
          "type": "uint64"
        }
      ],
      "name": "Initialized",
      "type": "event"
    },
    {
      "anonymous": false,
      "inputs": [
        {
          "indexed": true,
          "internalType": "uint256",
          "name": "dealId",
          "type": "uint256"
        },
        {
          "indexed": true,
          "internalType": "uint8",
          "name": "index",
          "type": "uint8"
        },
        {
          "indexed": false,
          "internalType": "uint256",
          "name": "dueDate",
          "type": "uint256"
        }
      ],
      "name": "InstallmentOverdue",
      "type": "event"
    },
    {
      "anonymous": false,
      "inputs": [
        {
          "indexed": true,
          "internalType": "uint256",
          "name": "dealId",
          "type": "uint256"
        },
        {
          "indexed": true,
          "internalType": "uint8",
          "name": "index",
          "type": "uint8"
        },
        {
          "indexed": false,
          "internalType": "uint256",
          "name": "amount",
          "type": "uint256"
        }
      ],
      "name": "InstallmentPaid",
      "type": "event"
    },
    {
      "anonymous": false,
      "inputs": [
        {
          "indexed": false,
          "internalType": "address",
          "name": "account",
          "type": "address"
        }
      ],
      "name": "Paused",
      "type": "event"
    },
    {
      "anonymous": false,
      "inputs": [
        {
          "indexed": false,
          "internalType": "uint256",
          "name": "bps",
          "type": "uint256"
        }
      ],
      "name": "ProtocolFeeUpdated",
      "type": "event"
    },
    {
      "anonymous": false,
      "inputs": [
        {
          "indexed": true,
          "internalType": "address",
          "name": "treasury",
          "type": "address"
        },
        {
          "indexed": true,
          "internalType": "address",
          "name": "token",
          "type": "address"
        },
        {
          "indexed": false,
          "internalType": "uint256",
          "name": "amount",
          "type": "uint256"
        }
      ],
      "name": "ProtocolFeesWithdrawn",
      "type": "event"
    },
    {
      "anonymous": false,
      "inputs": [
        {
          "indexed": true,
          "internalType": "address",
          "name": "newTreasury",
          "type": "address"
        },
        {
          "indexed": false,
          "internalType": "uint256",
          "name": "effectiveAt",
          "type": "uint256"
        }
      ],
      "name": "ProtocolTreasuryUpdateScheduled",
      "type": "event"
    },
    {
      "anonymous": false,
      "inputs": [
        {
          "indexed": true,
          "internalType": "address",
          "name": "oldTreasury",
          "type": "address"
        },
        {
          "indexed": true,
          "internalType": "address",
          "name": "newTreasury",
          "type": "address"
        }
      ],
      "name": "ProtocolTreasuryUpdated",
      "type": "event"
    },
    {
      "anonymous": false,
      "inputs": [
        {
          "indexed": true,
          "internalType": "bytes32",
          "name": "role",
          "type": "bytes32"
        },
        {
          "indexed": true,
          "internalType": "bytes32",
          "name": "previousAdminRole",
          "type": "bytes32"
        },
        {
          "indexed": true,
          "internalType": "bytes32",
          "name": "newAdminRole",
          "type": "bytes32"
        }
      ],
      "name": "RoleAdminChanged",
      "type": "event"
    },
    {
      "anonymous": false,
      "inputs": [
        {
          "indexed": true,
          "internalType": "bytes32",
          "name": "role",
          "type": "bytes32"
        },
        {
          "indexed": true,
          "internalType": "address",
          "name": "account",
          "type": "address"
        },
        {
          "indexed": true,
          "internalType": "address",
          "name": "sender",
          "type": "address"
        }
      ],
      "name": "RoleGranted",
      "type": "event"
    },
    {
      "anonymous": false,
      "inputs": [
        {
          "indexed": true,
          "internalType": "bytes32",
          "name": "role",
          "type": "bytes32"
        },
        {
          "indexed": true,
          "internalType": "address",
          "name": "account",
          "type": "address"
        },
        {
          "indexed": true,
          "internalType": "address",
          "name": "sender",
          "type": "address"
        }
      ],
      "name": "RoleRevoked",
      "type": "event"
    },
    {
      "anonymous": false,
      "inputs": [
        {
          "indexed": false,
          "internalType": "address",
          "name": "account",
          "type": "address"
        }
      ],
      "name": "Unpaused",
      "type": "event"
    },
    {
      "anonymous": false,
      "inputs": [
        {
          "indexed": true,
          "internalType": "address",
          "name": "implementation",
          "type": "address"
        }
      ],
      "name": "Upgraded",
      "type": "event"
    },
    {
      "inputs": [],
      "name": "ADMIN_ROLE",
      "outputs": [
        {
          "internalType": "bytes32",
          "name": "",
          "type": "bytes32"
        }
      ],
      "stateMutability": "view",
      "type": "function"
    },
    {
      "inputs": [],
      "name": "DEFAULT_ADMIN_ROLE",
      "outputs": [
        {
          "internalType": "bytes32",
          "name": "",
          "type": "bytes32"
        }
      ],
      "stateMutability": "view",
      "type": "function"
    },
    {
      "inputs": [],
      "name": "LEAGUE_ROLE",
      "outputs": [
        {
          "internalType": "bytes32",
          "name": "",
          "type": "bytes32"
        }
      ],
      "stateMutability": "view",
      "type": "function"
    },
    {
      "inputs": [],
      "name": "UPGRADE_INTERFACE_VERSION",
      "outputs": [
        {
          "internalType": "string",
          "name": "",
          "type": "string"
        }
      ],
      "stateMutability": "view",
      "type": "function"
    },
    {
      "inputs": [
        {
          "internalType": "address",
          "name": "token",
          "type": "address"
        }
      ],
      "name": "claim",
      "outputs": [],
      "stateMutability": "nonpayable",
      "type": "function"
    },
    {
      "inputs": [
        {
          "internalType": "address",
          "name": "account",
          "type": "address"
        },
        {
          "internalType": "address",
          "name": "token",
          "type": "address"
        }
      ],
      "name": "claimable",
      "outputs": [
        {
          "internalType": "uint256",
          "name": "",
          "type": "uint256"
        }
      ],
      "stateMutability": "view",
      "type": "function"
    },
    {
      "inputs": [],
      "name": "dealEscrow",
      "outputs": [
        {
          "internalType": "contract IDealEscrow",
          "name": "",
          "type": "address"
        }
      ],
      "stateMutability": "view",
      "type": "function"
    },
    {
      "inputs": [],
      "name": "executeProtocolTreasuryUpdate",
      "outputs": [],
      "stateMutability": "nonpayable",
      "type": "function"
    },
    {
      "inputs": [
        {
          "internalType": "uint256",
          "name": "dealId",
          "type": "uint256"
        },
        {
          "internalType": "uint8",
          "name": "index",
          "type": "uint8"
        }
      ],
      "name": "flagOverdue",
      "outputs": [],
      "stateMutability": "nonpayable",
      "type": "function"
    },
    {
      "inputs": [
        {
          "internalType": "bytes32",
          "name": "role",
          "type": "bytes32"
        }
      ],
      "name": "getRoleAdmin",
      "outputs": [
        {
          "internalType": "bytes32",
          "name": "",
          "type": "bytes32"
        }
      ],
      "stateMutability": "view",
      "type": "function"
    },
    {
      "inputs": [
        {
          "internalType": "bytes32",
          "name": "role",
          "type": "bytes32"
        },
        {
          "internalType": "address",
          "name": "account",
          "type": "address"
        }
      ],
      "name": "grantRole",
      "outputs": [],
      "stateMutability": "nonpayable",
      "type": "function"
    },
    {
      "inputs": [
        {
          "internalType": "bytes32",
          "name": "role",
          "type": "bytes32"
        },
        {
          "internalType": "address",
          "name": "account",
          "type": "address"
        }
      ],
      "name": "hasRole",
      "outputs": [
        {
          "internalType": "bool",
          "name": "",
          "type": "bool"
        }
      ],
      "stateMutability": "view",
      "type": "function"
    },
    {
      "inputs": [
        {
          "internalType": "address",
          "name": "_dealEscrow",
          "type": "address"
        },
        {
          "internalType": "address",
          "name": "_treasury",
          "type": "address"
        },
        {
          "internalType": "address",
          "name": "_admin",
          "type": "address"
        }
      ],
      "name": "initialize",
      "outputs": [],
      "stateMutability": "nonpayable",
      "type": "function"
    },
    {
      "inputs": [
        {
          "internalType": "uint256",
          "name": "dealId",
          "type": "uint256"
        },
        {
          "internalType": "uint8",
          "name": "index",
          "type": "uint8"
        }
      ],
      "name": "isPaid",
      "outputs": [
        {
          "internalType": "bool",
          "name": "",
          "type": "bool"
        }
      ],
      "stateMutability": "view",
      "type": "function"
    },
    {
      "inputs": [],
      "name": "pause",
      "outputs": [],
      "stateMutability": "nonpayable",
      "type": "function"
    },
    {
      "inputs": [],
      "name": "paused",
      "outputs": [
        {
          "internalType": "bool",
          "name": "",
          "type": "bool"
        }
      ],
      "stateMutability": "view",
      "type": "function"
    },
    {
      "inputs": [
        {
          "internalType": "uint256",
          "name": "dealId",
          "type": "uint256"
        },
        {
          "internalType": "uint8",
          "name": "index",
          "type": "uint8"
        }
      ],
      "name": "payInstallment",
      "outputs": [],
      "stateMutability": "nonpayable",
      "type": "function"
    },
    {
      "inputs": [],
      "name": "pendingTreasury",
      "outputs": [
        {
          "internalType": "address",
          "name": "",
          "type": "address"
        },
        {
          "internalType": "uint256",
          "name": "",
          "type": "uint256"
        }
      ],
      "stateMutability": "view",
      "type": "function"
    },
    {
      "inputs": [],
      "name": "protocolFeeBps",
      "outputs": [
        {
          "internalType": "uint256",
          "name": "",
          "type": "uint256"
        }
      ],
      "stateMutability": "view",
      "type": "function"
    },
    {
      "inputs": [],
      "name": "proxiableUUID",
      "outputs": [
        {
          "internalType": "bytes32",
          "name": "",
          "type": "bytes32"
        }
      ],
      "stateMutability": "view",
      "type": "function"
    },
    {
      "inputs": [
        {
          "internalType": "bytes32",
          "name": "role",
          "type": "bytes32"
        },
        {
          "internalType": "address",
          "name": "callerConfirmation",
          "type": "address"
        }
      ],
      "name": "renounceRole",
      "outputs": [],
      "stateMutability": "nonpayable",
      "type": "function"
    },
    {
      "inputs": [
        {
          "internalType": "bytes32",
          "name": "role",
          "type": "bytes32"
        },
        {
          "internalType": "address",
          "name": "account",
          "type": "address"
        }
      ],
      "name": "revokeRole",
      "outputs": [],
      "stateMutability": "nonpayable",
      "type": "function"
    },
    {
      "inputs": [
        {
          "internalType": "address",
          "name": "newTreasury",
          "type": "address"
        }
      ],
      "name": "scheduleProtocolTreasuryUpdate",
      "outputs": [],
      "stateMutability": "nonpayable",
      "type": "function"
    },
    {
      "inputs": [
        {
          "internalType": "uint256",
          "name": "bps",
          "type": "uint256"
        }
      ],
      "name": "setProtocolFee",
      "outputs": [],
      "stateMutability": "nonpayable",
      "type": "function"
    },
    {
      "inputs": [
        {
          "internalType": "bytes4",
          "name": "interfaceId",
          "type": "bytes4"
        }
      ],
      "name": "supportsInterface",
      "outputs": [
        {
          "internalType": "bool",
          "name": "",
          "type": "bool"
        }
      ],
      "stateMutability": "view",
      "type": "function"
    },
    {
      "inputs": [],
      "name": "treasury",
      "outputs": [
        {
          "internalType": "address",
          "name": "",
          "type": "address"
        }
      ],
      "stateMutability": "view",
      "type": "function"
    },
    {
      "inputs": [],
      "name": "unpause",
      "outputs": [],
      "stateMutability": "nonpayable",
      "type": "function"
    },
    {
      "inputs": [
        {
          "internalType": "address",
          "name": "newImplementation",
          "type": "address"
        },
        {
          "internalType": "bytes",
          "name": "data",
          "type": "bytes"
        }
      ],
      "name": "upgradeToAndCall",
      "outputs": [],
      "stateMutability": "payable",
      "type": "function"
    },
    {
      "inputs": [
        {
          "internalType": "address",
          "name": "token",
          "type": "address"
        },
        {
          "internalType": "uint256",
          "name": "amount",
          "type": "uint256"
        }
      ],
      "name": "withdrawFees",
      "outputs": [],
      "stateMutability": "nonpayable",
      "type": "function"
    }
  ],
  "bytecode": "0x60a080604052346100c257306080525f516020611b785f395f51905f525460ff8160401c166100b3576002600160401b03196001600160401b03821601610060575b604051611ab190816100c78239608051818181610cfc0152610dd60152f35b6001600160401b0319166001600160401b039081175f516020611b785f395f51905f525581527fc7f505b2f371ae2175ee4913f4499e1f2633a7b5936321eed1cdaeb6115181d290602090a15f80610041565b63f92ee8a960e01b5f5260045ffd5b5f80fdfe6080806040526004361015610012575f80fd5b5f3560e01c90816301ffc9a714611291575080631e83409a146111cd578063248a9ca3146111a75780632b557968146111705780632ed6b75d146111445780632f2ff15d1461111357806335659fb8146110f657806336568abe146110b25780633f4ba83a1461103457806347d2215914610f985780634f1ef28614610d5057806352d1902d14610cea5780635c975abb14610cbc57806360e49e4414610c9557806361d027b314610c6e5780636951020e1461096e5780636b7c05b21461076557806375b238fc1461073e578063787dce3d146106d95780638456cb591461066857806391d1485414610613578063a217fddf146105f9578063ad3b1b47146104d3578063ad3cb1cc14610475578063b76d66471461044d578063c0c53b8b1461028b578063d4570c1c1461023b578063d547741f146102035763f3ee48bb1461015b575f80fd5b346101ff5760203660031901126101ff576101746112e4565b61017c61150b565b6001600160a01b031680156101f057600280546001600160a01b03191682179055426202a30081019081106101dc576020817f686003c563ac6d53a1e0d2aea06fc73beb941f8f05f3463b33b607717aabc67f92600355604051908152a2005b634e487b7160e01b5f52601160045260245ffd5b63e6c4247b60e01b5f5260045ffd5b5f80fd5b346101ff5760403660031901126101ff576102396004356102226112fa565b9061023461022f82611353565b611554565b6117a1565b005b346101ff5760403660031901126101ff576102546112e4565b61025c6112fa565b6001600160a01b039182165f908152600660209081526040808320949093168252928352819020549051908152f35b346101ff5760603660031901126101ff576102a46112e4565b6102ac6112fa565b6044356001600160a01b0381168082036101ff575f516020611a5c5f395f51905f5254604081901c60ff161594906001600160401b03811680159081610445575b600114908161043b575b159081610432575b50610423576001600160401b031981166001175f516020611a5c5f395f51905f5255856103fb575b506001600160a01b03169283156101f0576001600160a01b03169081156101f057156101f0576103a292610359611864565b610361611864565b600160045560018060a01b0319600554161760055560018060a01b03195f5416175f5560326001556103928161159a565b5061039c81611610565b50611690565b506103a957005b60ff60401b195f516020611a5c5f395f51905f5254165f516020611a5c5f395f51905f52557fc7f505b2f371ae2175ee4913f4499e1f2633a7b5936321eed1cdaeb6115181d2602060405160018152a1005b6001600160481b0319166001600160401b01175f516020611a5c5f395f51905f525585610327565b63f92ee8a960e01b5f5260045ffd5b905015876102ff565b303b1591506102f7565b8791506102ed565b346101ff575f3660031901126101ff576005546040516001600160a01b039091168152602090f35b346101ff575f3660031901126101ff5760408051906104948183611330565b600582526020820191640352e302e360dc1b83528151928391602083525180918160208501528484015e5f828201840152601f01601f19168101030190f35b346101ff5760403660031901126101ff576104ec6112e4565b602435906104f861150b565b6002600454146105ea57600260045581156105db575f546001600160a01b031680156101f057805f52600660205260405f2060018060a01b0383165f5260205260405f20548084116105c5578361054e91611479565b5f9182526006602090815260408084206001600160a01b03958616808652925283209190915590549092916105869183911684611493565b5f546040519182526001600160a01b0316907f8fc241308ffc17817e6a8c6a52a8f7cd4931dfca0c539fd35a630311c7e4c57b90602090a36001600455005b8363ac28c08360e01b5f5260045260245260445ffd5b630686827b60e51b5f5260045ffd5b6306fda65d60e31b5f5260045ffd5b346101ff575f3660031901126101ff5760206040515f8152f35b346101ff5760403660031901126101ff5761062c6112fa565b6004355f525f5160206119fc5f395f51905f5260205260405f209060018060a01b03165f52602052602060ff60405f2054166040519015158152f35b346101ff575f3660031901126101ff5761068061150b565b61068861183d565b600160ff195f516020611a1c5f395f51905f525416175f516020611a1c5f395f51905f52557f62e78cea01bee320cd4e420270b5ea74000d11b0c9f74754ebdbfc544b05a2586020604051338152a1005b346101ff5760203660031901126101ff576004356106f561150b565b6107d0811161072f576020817fd10d75876659a287a59a6ccfa2e3fff42f84d94b542837acd30bc184d562de4092600155604051908152a1005b63499fddb160e01b5f5260045ffd5b346101ff575f3660031901126101ff5760206040515f516020611a3c5f395f51905f528152f35b346101ff5761077336611310565b335f9081525f51602061193c5f395f51905f52602052604090205490919060ff161561094a5760ff82169182156108af57600554604051634f0df86560e01b8152600481018490526001600160a01b039091169061010081602481855afa80156108ed5760c0915f9161091b575b50015160128110156109075760ff60109116036108f857604051638abf7ff160e01b81526004810184905260ff929092166024830152606090829060449082905afa9081156108ed575f916108be575b508051156108af57815f52600760205260405f20835f5260205260ff60405f2054166108a05760200180514211156108915760207fb9b138bbaa1a56f32ef6b3986de9406066ba9d198e53e03a175cd64635e69f5e9151604051908152a3005b637e4486e160e01b5f5260045ffd5b631de9877360e31b5f5260045ffd5b6363df817160e01b5f5260045ffd5b6108e0915060603d6060116108e6575b6108d88183611330565b81019061142f565b83610831565b503d6108ce565b6040513d5f823e3d90fd5b6372c24c3560e01b5f5260045ffd5b634e487b7160e01b5f52602160045260245ffd5b61093d91506101003d8111610943575b6109358183611330565b810190611392565b866107e1565b503d61092b565b63e2517d3f60e01b5f52336004525f5160206119dc5f395f51905f5260245260445ffd5b346101ff5761097c36611310565b9061098561183d565b6002600454146105ea57600260045560ff82169182156108af57600554604051634f0df86560e01b815260048101849052906001600160a01b031661010082602481845afa9182156108ed575f92610c4d575b5060408201516001600160a01b03163303610c3e5760c082015160128110156109075760ff60109116036108f857604051638abf7ff160e01b81526004810185905260ff939093166024840152606090839060449082905afa9182156108ed575f92610c1d575b508151156108af57825f52600760205260405f20845f5260205260ff60405f2054166108a05760208201514210610c0e57825f52600760205260405f20845f5260205260405f20600160ff19825416179055606081019160018060a01b038351168151604051906323b872dd60e01b5f52336004523060245260445260205f60648180865af19060015f5114821615610bed575b6040525f60605215610bdb57506001549182151580610bc8575b15610bae5781518381029381850414901517156101dc575f51602061197c5f395f51905f529361271060209404915b610b27838551611479565b9280610b74575b508401516001600160a01b039081165f90815260068652604080822093519092168152918552902080549091610b6391611486565b905551604051908152a36001600455005b5f80546001600160a01b03908116825260068852604080832086519092168352908852902080549091610ba691611486565b905588610b2e565b602092505f51602061197c5f395f51905f52935f91610b1c565b505f546001600160a01b03161515610aed565b635274afe760e01b5f5260045260245ffd5b906001811516610c0557823b15153d15161690610ad3565b503d5f823e3d90fd5b63b92939cf60e01b5f5260045ffd5b610c3791925060603d6060116108e6576108d88183611330565b9084610a3f565b631f3cbf7b60e31b5f5260045ffd5b610c679192506101003d8111610943576109358183611330565b90856109d8565b346101ff575f3660031901126101ff575f546040516001600160a01b039091168152602090f35b346101ff575f3660031901126101ff5760206040515f5160206119dc5f395f51905f528152f35b346101ff575f3660031901126101ff57602060ff5f516020611a1c5f395f51905f5254166040519015158152f35b346101ff575f3660031901126101ff577f00000000000000000000000000000000000000000000000000000000000000006001600160a01b03163003610d415760206040515f5160206119bc5f395f51905f528152f35b63703e46dd60e11b5f5260045ffd5b60403660031901126101ff57610d646112e4565b602435906001600160401b0382116101ff57366023830112156101ff5760048201356001600160401b038111610f845760405192610dac601f8301601f191660200185611330565b81845236602483830101116101ff57815f9260246020930183870137840101526001600160a01b037f000000000000000000000000000000000000000000000000000000000000000016308114908115610f62575b50610d4157335f9081525f51602061199c5f395f51905f52602052604090205460ff1615610f4b576040516352d1902d60e01b81526001600160a01b0382169290602081600481875afa5f9181610f17575b50610e6b5783634c9c8ce360e01b5f5260045260245ffd5b805f5160206119bc5f395f51905f52859203610f055750823b15610ef3575f5160206119bc5f395f51905f5280546001600160a01b031916821790557fbc7cd75a20ee27fd9adebab32041f755214dbc6bffa90cc0225b39da2e5c2d3b5f80a2805115610edb576102399161188f565b505034610ee457005b63b398979f60e01b5f5260045ffd5b634c9c8ce360e01b5f5260045260245ffd5b632a87526960e21b5f5260045260245ffd5b9091506020813d602011610f43575b81610f3360209383611330565b810103126101ff57519085610e53565b3d9150610f26565b63e2517d3f60e01b5f52336004525f60245260445ffd5b5f5160206119bc5f395f51905f52546001600160a01b03161415905083610e01565b634e487b7160e01b5f52604160045260245ffd5b346101ff575f3660031901126101ff57610fb061150b565b6003548015611025574210611016575f8054600280546001600160a01b038082166001600160a01b0319808616821787559092169092556003849055929116907f0c5d18caa145415182f8ad3d2563da586609cec04ac8505274d87bc43f00b4a49080a3005b6357f4ad8b60e01b5f5260045ffd5b6315090c2d60e01b5f5260045ffd5b346101ff575f3660031901126101ff5761104c61150b565b5f516020611a1c5f395f51905f525460ff8116156110a35760ff19165f516020611a1c5f395f51905f52557f5db9ee0a495bf2e6ff9c91a7834c1ba4fdd244a5e8aa4e537bd38aeae4b073aa6020604051338152a1005b638dfc202b60e01b5f5260045ffd5b346101ff5760403660031901126101ff576110cb6112fa565b336001600160a01b038216036110e757610239906004356117a1565b63334bd91960e11b5f5260045ffd5b346101ff575f3660031901126101ff576020600154604051908152f35b346101ff5760403660031901126101ff576102396004356111326112fa565b9061113f61022f82611353565b611710565b346101ff575f3660031901126101ff57604060018060a01b036002541660035482519182526020820152f35b346101ff5761117e36611310565b905f52600760205260ff60405f2091165f52602052602060ff60405f2054166040519015158152f35b346101ff5760203660031901126101ff5760206111c5600435611353565b604051908152f35b346101ff5760203660031901126101ff576111e66112e4565b6002600454146105ea576002600455335f52600660205260405f2060018060a01b0382165f5260205260405f205490811561128257335f52600660205260405f2060018060a01b0382165f526020525f604081205560018060a01b03169061124f813384611493565b6040519081527ff7a40077ff7a04c7e61f6f26fb13774259ddf1b6bce9ecf26a8276cdd399268360203392a36001600455005b6312d37ee560e31b5f5260045ffd5b346101ff5760203660031901126101ff576004359063ffffffff60e01b82168092036101ff57602091637965db0b60e01b81149081156112d3575b5015158152f35b6301ffc9a760e01b149050836112cc565b600435906001600160a01b03821682036101ff57565b602435906001600160a01b03821682036101ff57565b60409060031901126101ff576004359060243560ff811681036101ff5790565b601f909101601f19168101906001600160401b03821190821017610f8457604052565b5f525f5160206119fc5f395f51905f52602052600160405f20015490565b519081151582036101ff57565b51906001600160a01b03821682036101ff57565b90816101009103126101ff576040519061010082016001600160401b03811183821017610f84576040526113c581611371565b82526113d36020820161137e565b60208301526113e46040820161137e565b60408301526113f56060820161137e565b60608301526080810151608083015260a081015160a083015260c08101519060128210156101ff5760e09160c0840152015160e082015290565b908160609103126101ff5760405190606082016001600160401b03811183821017610f8457611471916040918252805184526020810151602085015201611371565b604082015290565b919082039182116101dc57565b919082018092116101dc57565b916040519163a9059cbb60e01b5f5260018060a01b031660045260245260205f60448180865af19060015f51148216156114f3575b604052156114d35750565b635274afe760e01b5f9081526001600160a01b0391909116600452602490fd5b906001811516610c0557823b15153d151616906114c8565b335f9081525f51602061195c5f395f51905f52602052604090205460ff161561153057565b63e2517d3f60e01b5f52336004525f516020611a3c5f395f51905f5260245260445ffd5b5f8181525f5160206119fc5f395f51905f526020908152604080832033845290915290205460ff16156115845750565b63e2517d3f60e01b5f523360045260245260445ffd5b6001600160a01b0381165f9081525f51602061199c5f395f51905f52602052604090205460ff1661160b576001600160a01b03165f8181525f51602061199c5f395f51905f5260205260408120805460ff191660011790553391905f51602061191c5f395f51905f528180a4600190565b505f90565b6001600160a01b0381165f9081525f51602061195c5f395f51905f52602052604090205460ff1661160b576001600160a01b03165f8181525f51602061195c5f395f51905f5260205260408120805460ff191660011790553391905f516020611a3c5f395f51905f52905f51602061191c5f395f51905f529080a4600190565b6001600160a01b0381165f9081525f51602061193c5f395f51905f52602052604090205460ff1661160b576001600160a01b03165f8181525f51602061193c5f395f51905f5260205260408120805460ff191660011790553391905f5160206119dc5f395f51905f52905f51602061191c5f395f51905f529080a4600190565b5f8181525f5160206119fc5f395f51905f52602090815260408083206001600160a01b038616845290915290205460ff1661179b575f8181525f5160206119fc5f395f51905f52602090815260408083206001600160a01b0395909516808452949091528120805460ff19166001179055339291905f51602061191c5f395f51905f529080a4600190565b50505f90565b5f8181525f5160206119fc5f395f51905f52602090815260408083206001600160a01b038616845290915290205460ff161561179b575f8181525f5160206119fc5f395f51905f52602090815260408083206001600160a01b0395909516808452949091528120805460ff19169055339291907ff6391f5c32d9c69d2a47ea670b442974b53935d1edc7fd64eb21e047a839171b9080a4600190565b60ff5f516020611a1c5f395f51905f52541661185557565b63d93c066560e01b5f5260045ffd5b60ff5f516020611a5c5f395f51905f525460401c161561188057565b631afcd79f60e31b5f5260045ffd5b905f8091602081519101845af48080611908575b156118c35750506040513d81523d5f602083013e60203d82010160405290565b156118e857639996b31560e01b5f9081526001600160a01b0391909116600452602490fd5b3d156118f9576040513d5f823e3d90fd5b63d6bda27560e01b5f5260045ffd5b503d1515806118a35750813b15156118a356fe2f8788117e7eff1d82e926ec794901d17c78024a50270940304540a733656f0d7a1492cadb22452d254c71a9ef0c781c9f2d1c472dc5213a713c8769ea04d819b16e88c42fd4e48df2dd6a2eabd6bc9aec654ec170056b470819f8892cc6431cde400fc45b2ae985959c218e25aa6f393742735643564f91f92ece5a4233b1feb7db2dd08fcb62d0c9e08c51941cae53c267786a0b75803fb7960902fc8ef97d360894a13ba1a3210667c828492db98dca3e2076cc3735a920a3ca505d382bbce4369475d33ca6555b45ac3cf081bee16c4b11779d89f812395c569b2de40f0102dd7bc7dec4dceedda775e58dd541e08a116c6c53815c0bd028192f7b626800cd5ed15c6e187e77e9aee88184c21f4f2182ab5827cb3b7e07fbedcd63f03300a49807205ce4d355092ef5a8a18f56e8913cf4a201fbe287825b095693c21775f0c57e16840df040f15088dc2f81fe391c3923bec73e23a9662efc9c229c6a00a26469706673582212203bf5c92b3d67638ed4448ea7c01208775e58de05d7bdbb0bb8112a610a50d28c64736f6c634300081c0033f0c57e16840df040f15088dc2f81fe391c3923bec73e23a9662efc9c229c6a00",
  "linkReferences": {},
  "deployedLinkReferences": {},
  "immutableReferences": {
    "3035": [
      {
        "length": 32,
        "start": 3324
      },
      {
        "length": 32,
        "start": 3542
      }
    ]
  },
  "inputSourceName": "project/contracts/core/InstallmentEscrow.sol",
  "buildInfoId": "solc-0_8_28-4ca3c158b0916a8466f3dae14cb8789c5f914c3c"
}