{
  "_format": "hh3-artifact-1",
  "contractName": "LoanEscrow",
  "sourceName": "contracts/core/LoanEscrow.sol",
  "abi": [
    {
      "inputs": [
        {
          "internalType": "address",
          "name": "_playerRegistry",
          "type": "address"
        },
        {
          "internalType": "address",
          "name": "_transferWindow",
          "type": "address"
        }
      ],
      "stateMutability": "nonpayable",
      "type": "constructor"
    },
    {
      "inputs": [],
      "name": "AccessControlBadConfirmation",
      "type": "error"
    },
    {
      "inputs": [
        {
          "internalType": "address",
          "name": "account",
          "type": "address"
        },
        {
          "internalType": "bytes32",
          "name": "neededRole",
          "type": "bytes32"
        }
      ],
      "name": "AccessControlUnauthorizedAccount",
      "type": "error"
    },
    {
      "inputs": [],
      "name": "DisputeWindowActive",
      "type": "error"
    },
    {
      "inputs": [],
      "name": "EnforcedPause",
      "type": "error"
    },
    {
      "inputs": [],
      "name": "ExpectedPause",
      "type": "error"
    },
    {
      "inputs": [],
      "name": "InsufficientAllowance",
      "type": "error"
    },
    {
      "inputs": [],
      "name": "InvalidAddress",
      "type": "error"
    },
    {
      "inputs": [],
      "name": "InvalidAmount",
      "type": "error"
    },
    {
      "inputs": [],
      "name": "InvalidDuration",
      "type": "error"
    },
    {
      "inputs": [],
      "name": "InvalidOptionPrice",
      "type": "error"
    },
    {
      "inputs": [],
      "name": "InvalidString",
      "type": "error"
    },
    {
      "inputs": [],
      "name": "LoanAlreadyActive",
      "type": "error"
    },
    {
      "inputs": [],
      "name": "LoanFeeAlreadyClaimed",
      "type": "error"
    },
    {
      "inputs": [],
      "name": "LoanNotActive",
      "type": "error"
    },
    {
      "inputs": [],
      "name": "LoanNotFound",
      "type": "error"
    },
    {
      "inputs": [],
      "name": "LoanNotPending",
      "type": "error"
    },
    {
      "inputs": [],
      "name": "LoanStillActive",
      "type": "error"
    },
    {
      "inputs": [],
      "name": "NoOptionToBuy",
      "type": "error"
    },
    {
      "inputs": [],
      "name": "NotAuthorised",
      "type": "error"
    },
    {
      "inputs": [],
      "name": "NotBorrowingClub",
      "type": "error"
    },
    {
      "inputs": [],
      "name": "NotParentClub",
      "type": "error"
    },
    {
      "inputs": [],
      "name": "NothingToClaim",
      "type": "error"
    },
    {
      "inputs": [],
      "name": "OptionExpired",
      "type": "error"
    },
    {
      "inputs": [],
      "name": "ParentClubMismatch",
      "type": "error"
    },
    {
      "inputs": [],
      "name": "ParentClubNotRegistered",
      "type": "error"
    },
    {
      "inputs": [],
      "name": "PlayerNotListed",
      "type": "error"
    },
    {
      "inputs": [],
      "name": "RecallAlreadyRequested",
      "type": "error"
    },
    {
      "inputs": [],
      "name": "RecallNoticeNotMet",
      "type": "error"
    },
    {
      "inputs": [],
      "name": "ReentrancyGuardReentrantCall",
      "type": "error"
    },
    {
      "inputs": [
        {
          "internalType": "address",
          "name": "token",
          "type": "address"
        }
      ],
      "name": "SafeERC20FailedOperation",
      "type": "error"
    },
    {
      "inputs": [],
      "name": "TokenAlreadyApproved",
      "type": "error"
    },
    {
      "inputs": [],
      "name": "TokenNotApproved",
      "type": "error"
    },
    {
      "inputs": [],
      "name": "TokenNotInList",
      "type": "error"
    },
    {
      "inputs": [],
      "name": "TransferWindowClosed",
      "type": "error"
    },
    {
      "anonymous": false,
      "inputs": [
        {
          "indexed": true,
          "internalType": "address",
          "name": "recipient",
          "type": "address"
        },
        {
          "indexed": true,
          "internalType": "address",
          "name": "token",
          "type": "address"
        },
        {
          "indexed": false,
          "internalType": "uint256",
          "name": "amount",
          "type": "uint256"
        }
      ],
      "name": "FundsClaimed",
      "type": "event"
    },
    {
      "anonymous": false,
      "inputs": [
        {
          "indexed": true,
          "internalType": "uint256",
          "name": "loanId",
          "type": "uint256"
        },
        {
          "indexed": true,
          "internalType": "address",
          "name": "approver",
          "type": "address"
        }
      ],
      "name": "LoanApproved",
      "type": "event"
    },
    {
      "anonymous": false,
      "inputs": [
        {
          "indexed": true,
          "internalType": "uint256",
          "name": "loanId",
          "type": "uint256"
        }
      ],
      "name": "LoanCancelled",
      "type": "event"
    },
    {
      "anonymous": false,
      "inputs": [
        {
          "indexed": true,
          "internalType": "uint256",
          "name": "loanId",
          "type": "uint256"
        },
        {
          "indexed": true,
          "internalType": "uint256",
          "name": "playerId",
          "type": "uint256"
        },
        {
          "indexed": false,
          "internalType": "address",
          "name": "parentClub",
          "type": "address"
        },
        {
          "indexed": false,
          "internalType": "address",
          "name": "borrowingClub",
          "type": "address"
        },
        {
          "indexed": false,
          "internalType": "uint256",
          "name": "loanFee",
          "type": "uint256"
        }
      ],
      "name": "LoanCreated",
      "type": "event"
    },
    {
      "anonymous": false,
      "inputs": [
        {
          "indexed": true,
          "internalType": "uint256",
          "name": "loanId",
          "type": "uint256"
        }
      ],
      "name": "LoanExpired",
      "type": "event"
    },
    {
      "anonymous": false,
      "inputs": [
        {
          "indexed": true,
          "internalType": "uint256",
          "name": "loanId",
          "type": "uint256"
        }
      ],
      "name": "LoanFeeClaimed",
      "type": "event"
    },
    {
      "anonymous": false,
      "inputs": [
        {
          "indexed": true,
          "internalType": "uint256",
          "name": "loanId",
          "type": "uint256"
        }
      ],
      "name": "LoanRecalled",
      "type": "event"
    },
    {
      "anonymous": false,
      "inputs": [
        {
          "indexed": true,
          "internalType": "uint256",
          "name": "loanId",
          "type": "uint256"
        },
        {
          "indexed": true,
          "internalType": "address",
          "name": "approver",
          "type": "address"
        },
        {
          "indexed": false,
          "internalType": "string",
          "name": "reason",
          "type": "string"
        }
      ],
      "name": "LoanRejected",
      "type": "event"
    },
    {
      "anonymous": false,
      "inputs": [
        {
          "indexed": true,
          "internalType": "uint256",
          "name": "loanId",
          "type": "uint256"
        },
        {
          "indexed": false,
          "internalType": "uint256",
          "name": "optionPrice",
          "type": "uint256"
        }
      ],
      "name": "OptionExercised",
      "type": "event"
    },
    {
      "anonymous": false,
      "inputs": [
        {
          "indexed": false,
          "internalType": "address",
          "name": "account",
          "type": "address"
        }
      ],
      "name": "Paused",
      "type": "event"
    },
    {
      "anonymous": false,
      "inputs": [
        {
          "indexed": true,
          "internalType": "uint256",
          "name": "loanId",
          "type": "uint256"
        },
        {
          "indexed": false,
          "internalType": "uint256",
          "name": "recallExecutableAt",
          "type": "uint256"
        }
      ],
      "name": "RecallRequested",
      "type": "event"
    },
    {
      "anonymous": false,
      "inputs": [
        {
          "indexed": true,
          "internalType": "bytes32",
          "name": "role",
          "type": "bytes32"
        },
        {
          "indexed": true,
          "internalType": "bytes32",
          "name": "previousAdminRole",
          "type": "bytes32"
        },
        {
          "indexed": true,
          "internalType": "bytes32",
          "name": "newAdminRole",
          "type": "bytes32"
        }
      ],
      "name": "RoleAdminChanged",
      "type": "event"
    },
    {
      "anonymous": false,
      "inputs": [
        {
          "indexed": true,
          "internalType": "bytes32",
          "name": "role",
          "type": "bytes32"
        },
        {
          "indexed": true,
          "internalType": "address",
          "name": "account",
          "type": "address"
        },
        {
          "indexed": true,
          "internalType": "address",
          "name": "sender",
          "type": "address"
        }
      ],
      "name": "RoleGranted",
      "type": "event"
    },
    {
      "anonymous": false,
      "inputs": [
        {
          "indexed": true,
          "internalType": "bytes32",
          "name": "role",
          "type": "bytes32"
        },
        {
          "indexed": true,
          "internalType": "address",
          "name": "account",
          "type": "address"
        },
        {
          "indexed": true,
          "internalType": "address",
          "name": "sender",
          "type": "address"
        }
      ],
      "name": "RoleRevoked",
      "type": "event"
    },
    {
      "anonymous": false,
      "inputs": [
        {
          "indexed": true,
          "internalType": "address",
          "name": "token",
          "type": "address"
        }
      ],
      "name": "TokenApproved",
      "type": "event"
    },
    {
      "anonymous": false,
      "inputs": [
        {
          "indexed": true,
          "internalType": "address",
          "name": "token",
          "type": "address"
        }
      ],
      "name": "TokenRevoked",
      "type": "event"
    },
    {
      "anonymous": false,
      "inputs": [
        {
          "indexed": false,
          "internalType": "address",
          "name": "account",
          "type": "address"
        }
      ],
      "name": "Unpaused",
      "type": "event"
    },
    {
      "inputs": [],
      "name": "ADMIN_ROLE",
      "outputs": [
        {
          "internalType": "bytes32",
          "name": "",
          "type": "bytes32"
        }
      ],
      "stateMutability": "view",
      "type": "function"
    },
    {
      "inputs": [],
      "name": "CLUB_ROLE",
      "outputs": [
        {
          "internalType": "bytes32",
          "name": "",
          "type": "bytes32"
        }
      ],
      "stateMutability": "view",
      "type": "function"
    },
    {
      "inputs": [],
      "name": "DEFAULT_ADMIN_ROLE",
      "outputs": [
        {
          "internalType": "bytes32",
          "name": "",
          "type": "bytes32"
        }
      ],
      "stateMutability": "view",
      "type": "function"
    },
    {
      "inputs": [],
      "name": "DISPUTE_WINDOW",
      "outputs": [
        {
          "internalType": "uint256",
          "name": "",
          "type": "uint256"
        }
      ],
      "stateMutability": "view",
      "type": "function"
    },
    {
      "inputs": [],
      "name": "LEAGUE_ROLE",
      "outputs": [
        {
          "internalType": "bytes32",
          "name": "",
          "type": "bytes32"
        }
      ],
      "stateMutability": "view",
      "type": "function"
    },
    {
      "inputs": [],
      "name": "MAX_LOAN_DURATION",
      "outputs": [
        {
          "internalType": "uint256",
          "name": "",
          "type": "uint256"
        }
      ],
      "stateMutability": "view",
      "type": "function"
    },
    {
      "inputs": [],
      "name": "MAX_LOAN_FEE",
      "outputs": [
        {
          "internalType": "uint256",
          "name": "",
          "type": "uint256"
        }
      ],
      "stateMutability": "view",
      "type": "function"
    },
    {
      "inputs": [],
      "name": "MAX_PRICE",
      "outputs": [
        {
          "internalType": "uint256",
          "name": "",
          "type": "uint256"
        }
      ],
      "stateMutability": "view",
      "type": "function"
    },
    {
      "inputs": [],
      "name": "MIN_LOAN_DURATION",
      "outputs": [
        {
          "internalType": "uint256",
          "name": "",
          "type": "uint256"
        }
      ],
      "stateMutability": "view",
      "type": "function"
    },
    {
      "inputs": [],
      "name": "MIN_RECALL_NOTICE",
      "outputs": [
        {
          "internalType": "uint256",
          "name": "",
          "type": "uint256"
        }
      ],
      "stateMutability": "view",
      "type": "function"
    },
    {
      "inputs": [
        {
          "internalType": "uint256",
          "name": "loanId",
          "type": "uint256"
        }
      ],
      "name": "approveLoan",
      "outputs": [],
      "stateMutability": "nonpayable",
      "type": "function"
    },
    {
      "inputs": [
        {
          "internalType": "address",
          "name": "token",
          "type": "address"
        }
      ],
      "name": "approveToken",
      "outputs": [],
      "stateMutability": "nonpayable",
      "type": "function"
    },
    {
      "inputs": [
        {
          "internalType": "uint256",
          "name": "loanId",
          "type": "uint256"
        }
      ],
      "name": "cancelLoan",
      "outputs": [],
      "stateMutability": "nonpayable",
      "type": "function"
    },
    {
      "inputs": [
        {
          "internalType": "uint256",
          "name": "loanId",
          "type": "uint256"
        }
      ],
      "name": "claimLoanFee",
      "outputs": [],
      "stateMutability": "nonpayable",
      "type": "function"
    },
    {
      "inputs": [
        {
          "internalType": "uint256",
          "name": "playerId",
          "type": "uint256"
        },
        {
          "internalType": "address",
          "name": "parentClub",
          "type": "address"
        },
        {
          "internalType": "address",
          "name": "paymentToken",
          "type": "address"
        },
        {
          "internalType": "uint256",
          "name": "loanFee",
          "type": "uint256"
        },
        {
          "internalType": "uint256",
          "name": "loanDuration",
          "type": "uint256"
        },
        {
          "internalType": "bool",
          "name": "hasOptionToBuy",
          "type": "bool"
        },
        {
          "internalType": "uint256",
          "name": "optionPrice",
          "type": "uint256"
        }
      ],
      "name": "createLoan",
      "outputs": [
        {
          "internalType": "uint256",
          "name": "loanId",
          "type": "uint256"
        }
      ],
      "stateMutability": "nonpayable",
      "type": "function"
    },
    {
      "inputs": [
        {
          "internalType": "uint256",
          "name": "loanId",
          "type": "uint256"
        }
      ],
      "name": "executeRecall",
      "outputs": [],
      "stateMutability": "nonpayable",
      "type": "function"
    },
    {
      "inputs": [
        {
          "internalType": "uint256",
          "name": "loanId",
          "type": "uint256"
        }
      ],
      "name": "exerciseOption",
      "outputs": [],
      "stateMutability": "nonpayable",
      "type": "function"
    },
    {
      "inputs": [
        {
          "internalType": "uint256",
          "name": "playerId",
          "type": "uint256"
        }
      ],
      "name": "getActivePlayerLoan",
      "outputs": [
        {
          "internalType": "uint256",
          "name": "",
          "type": "uint256"
        }
      ],
      "stateMutability": "view",
      "type": "function"
    },
    {
      "inputs": [],
      "name": "getApprovedTokens",
      "outputs": [
        {
          "internalType": "address[]",
          "name": "",
          "type": "address[]"
        }
      ],
      "stateMutability": "view",
      "type": "function"
    },
    {
      "inputs": [
        {
          "internalType": "address",
          "name": "account",
          "type": "address"
        },
        {
          "internalType": "address",
          "name": "token",
          "type": "address"
        }
      ],
      "name": "getClaimable",
      "outputs": [
        {
          "internalType": "uint256",
          "name": "",
          "type": "uint256"
        }
      ],
      "stateMutability": "view",
      "type": "function"
    },
    {
      "inputs": [
        {
          "internalType": "uint256",
          "name": "loanId",
          "type": "uint256"
        }
      ],
      "name": "getLoan",
      "outputs": [
        {
          "components": [
            {
              "internalType": "uint256",
              "name": "playerId",
              "type": "uint256"
            },
            {
              "internalType": "address",
              "name": "parentClub",
              "type": "address"
            },
            {
              "internalType": "address",
              "name": "borrowingClub",
              "type": "address"
            },
            {
              "internalType": "address",
              "name": "paymentToken",
              "type": "address"
            },
            {
              "internalType": "uint256",
              "name": "loanFee",
              "type": "uint256"
            },
            {
              "internalType": "uint256",
              "name": "loanStart",
              "type": "uint256"
            },
            {
              "internalType": "uint256",
              "name": "loanExpiry",
              "type": "uint256"
            },
            {
              "internalType": "bool",
              "name": "hasOptionToBuy",
              "type": "bool"
            },
            {
              "internalType": "uint256",
              "name": "optionPrice",
              "type": "uint256"
            },
            {
              "internalType": "enum LoanEscrow.LoanState",
              "name": "state",
              "type": "uint8"
            },
            {
              "internalType": "uint256",
              "name": "createdAt",
              "type": "uint256"
            },
            {
              "internalType": "uint256",
              "name": "approvedAt",
              "type": "uint256"
            },
            {
              "internalType": "uint256",
              "name": "recallRequestedAt",
              "type": "uint256"
            },
            {
              "internalType": "bool",
              "name": "loanFeeClaimed",
              "type": "bool"
            },
            {
              "internalType": "string",
              "name": "rejectionReason",
              "type": "string"
            }
          ],
          "internalType": "struct LoanEscrow.Loan",
          "name": "",
          "type": "tuple"
        }
      ],
      "stateMutability": "view",
      "type": "function"
    },
    {
      "inputs": [
        {
          "internalType": "uint256",
          "name": "loanId",
          "type": "uint256"
        }
      ],
      "name": "getLoanDuration",
      "outputs": [
        {
          "internalType": "uint256",
          "name": "",
          "type": "uint256"
        }
      ],
      "stateMutability": "view",
      "type": "function"
    },
    {
      "inputs": [
        {
          "internalType": "bytes32",
          "name": "role",
          "type": "bytes32"
        }
      ],
      "name": "getRoleAdmin",
      "outputs": [
        {
          "internalType": "bytes32",
          "name": "",
          "type": "bytes32"
        }
      ],
      "stateMutability": "view",
      "type": "function"
    },
    {
      "inputs": [
        {
          "internalType": "bytes32",
          "name": "role",
          "type": "bytes32"
        },
        {
          "internalType": "address",
          "name": "account",
          "type": "address"
        }
      ],
      "name": "grantRole",
      "outputs": [],
      "stateMutability": "nonpayable",
      "type": "function"
    },
    {
      "inputs": [
        {
          "internalType": "bytes32",
          "name": "role",
          "type": "bytes32"
        },
        {
          "internalType": "address",
          "name": "account",
          "type": "address"
        }
      ],
      "name": "hasRole",
      "outputs": [
        {
          "internalType": "bool",
          "name": "",
          "type": "bool"
        }
      ],
      "stateMutability": "view",
      "type": "function"
    },
    {
      "inputs": [
        {
          "internalType": "address",
          "name": "token",
          "type": "address"
        }
      ],
      "name": "isTokenApproved",
      "outputs": [
        {
          "internalType": "bool",
          "name": "",
          "type": "bool"
        }
      ],
      "stateMutability": "view",
      "type": "function"
    },
    {
      "inputs": [],
      "name": "pause",
      "outputs": [],
      "stateMutability": "nonpayable",
      "type": "function"
    },
    {
      "inputs": [],
      "name": "paused",
      "outputs": [
        {
          "internalType": "bool",
          "name": "",
          "type": "bool"
        }
      ],
      "stateMutability": "view",
      "type": "function"
    },
    {
      "inputs": [],
      "name": "playerRegistry",
      "outputs": [
        {
          "internalType": "contract IPlayerRegistry",
          "name": "",
          "type": "address"
        }
      ],
      "stateMutability": "view",
      "type": "function"
    },
    {
      "inputs": [
        {
          "internalType": "uint256",
          "name": "loanId",
          "type": "uint256"
        },
        {
          "internalType": "string",
          "name": "reason",
          "type": "string"
        }
      ],
      "name": "rejectLoan",
      "outputs": [],
      "stateMutability": "nonpayable",
      "type": "function"
    },
    {
      "inputs": [
        {
          "internalType": "bytes32",
          "name": "role",
          "type": "bytes32"
        },
        {
          "internalType": "address",
          "name": "callerConfirmation",
          "type": "address"
        }
      ],
      "name": "renounceRole",
      "outputs": [],
      "stateMutability": "nonpayable",
      "type": "function"
    },
    {
      "inputs": [
        {
          "internalType": "uint256",
          "name": "loanId",
          "type": "uint256"
        }
      ],
      "name": "requestRecall",
      "outputs": [],
      "stateMutability": "nonpayable",
      "type": "function"
    },
    {
      "inputs": [
        {
          "internalType": "bytes32",
          "name": "role",
          "type": "bytes32"
        },
        {
          "internalType": "address",
          "name": "account",
          "type": "address"
        }
      ],
      "name": "revokeRole",
      "outputs": [],
      "stateMutability": "nonpayable",
      "type": "function"
    },
    {
      "inputs": [
        {
          "internalType": "address",
          "name": "token",
          "type": "address"
        }
      ],
      "name": "revokeToken",
      "outputs": [],
      "stateMutability": "nonpayable",
      "type": "function"
    },
    {
      "inputs": [
        {
          "internalType": "uint256",
          "name": "loanId",
          "type": "uint256"
        }
      ],
      "name": "settleLoanExpiry",
      "outputs": [],
      "stateMutability": "nonpayable",
      "type": "function"
    },
    {
      "inputs": [
        {
          "internalType": "bytes4",
          "name": "interfaceId",
          "type": "bytes4"
        }
      ],
      "name": "supportsInterface",
      "outputs": [
        {
          "internalType": "bool",
          "name": "",
          "type": "bool"
        }
      ],
      "stateMutability": "view",
      "type": "function"
    },
    {
      "inputs": [],
      "name": "totalLoans",
      "outputs": [
        {
          "internalType": "uint256",
          "name": "",
          "type": "uint256"
        }
      ],
      "stateMutability": "view",
      "type": "function"
    },
    {
      "inputs": [],
      "name": "transferWindow",
      "outputs": [
        {
          "internalType": "contract TransferWindow",
          "name": "",
          "type": "address"
        }
      ],
      "stateMutability": "view",
      "type": "function"
    },
    {
      "inputs": [],
      "name": "unpause",
      "outputs": [],
      "stateMutability": "nonpayable",
      "type": "function"
    },
    {
      "inputs": [
        {
          "internalType": "address",
          "name": "token",
          "type": "address"
        }
      ],
      "name": "withdrawClaimable",
      "outputs": [],
      "stateMutability": "nonpayable",
      "type": "function"
    }
  ],
  "bytecode": "0x60c03461010f57601f612d0838819003918201601f19168301916001600160401b0383118484101761011357808492604094855283398101031261010f57610052602061004b83610127565b9201610127565b60017f9b779b17422d0df92223018b32b4d1fa46e071723d6817e2486d003becc55f00556001600160a01b03909116908115610100576001600160a01b03169081156101005760805260a0526100a73361013b565b506100b1336101b1565b506100bb33610244565b506040516129b090816102d88239608051818181610490015281816108bd0152818161122b0152818161192c015261204a015260a0518181816108600152611d210152f35b63e6c4247b60e01b5f5260045ffd5b5f80fd5b634e487b7160e01b5f52604160045260245ffd5b51906001600160a01b038216820361010f57565b6001600160a01b0381165f9081525f516020612ce85f395f51905f52602052604090205460ff166101ac576001600160a01b03165f8181525f516020612ce85f395f51905f5260205260408120805460ff191660011790553391905f516020612c885f395f51905f528180a4600190565b505f90565b6001600160a01b0381165f9081525f516020612ca85f395f51905f52602052604090205460ff166101ac576001600160a01b03165f8181525f516020612ca85f395f51905f5260205260408120805460ff191660011790553391907fa49807205ce4d355092ef5a8a18f56e8913cf4a201fbe287825b095693c21775905f516020612c885f395f51905f529080a4600190565b6001600160a01b0381165f9081525f516020612cc85f395f51905f52602052604090205460ff166101ac576001600160a01b03165f8181525f516020612cc85f395f51905f5260205260408120805460ff191660011790553391907fe4369475d33ca6555b45ac3cf081bee16c4b11779d89f812395c569b2de40f01905f516020612c885f395f51905f529080a460019056fe6080806040526004361015610012575f80fd5b5f905f3560e01c90816301c11d96146123d35750806301ffc9a71461237d5780630a5875df146123535780630d0b2ca6146123355780631510f85a146122135780631c82e10c146121e9578063248a9ca3146121c3578063280c729e146121a65780632f2ff15d1461217557806336568abe1461212f5780633f4ba83a146120c95780633fb81428146120795780634c74ef9c14612035578063504006ca14611d505780635169a6ff14611d0c57806352ee8f8114611ab65780635c975abb14611a9457806360e49e4414611a6d57806368de026a146118665780636afc0c5f1461179e57806375b238fc146117765780637ac0296c1461164257806380b2edd8146115685780638456cb591461150e57806389d99a05146114f057806391d14854146114a7578063933f4eef146113315780639d93d352146112f2578063a217fddf146112d6578063aadc1ac114611170578063bdbfa3de14611060578063bfdbd3541461074d578063ca6d894c1461062e578063cc952b5714610610578063d547741f146105d5578063d7dd3e13146105af578063e703c341146103c2578063f52f25261461021e578063f585dc57146102005763fc8045b1146101d6575f80fd5b346101fd57806003193601126101fd5760206040515f51602061295b5f395f51905f528152f35b80fd5b50346101fd57806003193601126101fd5760206040516202a3008152f35b50346101fd5760203660031901126101fd5760043561023b61280d565b6102436125f0565b8082526004602052600a604083200154156103b35780825260046020526040822060028101546001600160a01b031633036103a4576009810160ff8154166008811015610390576002036103815760ff60078301541615610372576006820154421015610363577f709a635a5462396a92927c659d5d8a7f96393228713769a8f62818093d8296c491602091600360ff198254161790558054855260068252846040812055600381019060018060a01b038254169161030c600883019384549030903390612828565b82546001909201546001600160a01b03908116885260058552604080892092549091165f9081529185529020805490916103459161250d565b905554604051908152a260015f51602061291b5f395f51905f525580f35b637676819d60e01b8452600484fd5b632b5ce7f960e01b8452600484fd5b630417bc2360e11b8452600484fd5b634e487b7160e01b85526021600452602485fd5b63bb6a920360e01b8352600483fd5b630e7e621d60e01b8252600482fd5b50346101fd5760203660031901126101fd576004356103df61280d565b6103e76125f0565b8082526004602052600a604083200154156103b3578082526004602052604082206001810180549091906001600160a01b031633036105a0576009810160ff815416600881101561058c5760020361057d57600c820154801561056e5762127500810180911161055a57421061054b57805460ff19166005179055805484526006602052604084208490558054600290910154915484926001600160a01b0390811692918116907f000000000000000000000000000000000000000000000000000000000000000016803b15610547576104db93858094604051968795869485936332f65ba360e01b85526004850161252e565b03925af1801561053c57610523575b50807f8df6bd0836f79acc777da158b67e3d8ec5f0379e33e5b0ee4042f36b63e0dac691a260015f51602061291b5f395f51905f525580f35b8161052d91612463565b61053857815f6104ea565b5080fd5b6040513d84823e3d90fd5b8480fd5b630eae5de960e41b8552600485fd5b634e487b7160e01b86526011600452602486fd5b630417bc2360e11b8652600486fd5b630417bc2360e11b8552600485fd5b634e487b7160e01b86526021600452602486fd5b635ff4d53d60e11b8452600484fd5b50346101fd57806003193601126101fd5760206040516a52b7d2dcc80cd2e40000008152f35b50346101fd5760403660031901126101fd5761060c6004356105f561240c565b9061060761060282612422565b6126cd565b61278d565b5080f35b50346101fd57806003193601126101fd576020600254604051908152f35b50346101fd5760203660031901126101fd5760043561064b61280d565b6106536125f0565b8082526004602052600a604083200154156103b35780825260046020526040822060018101546001600160a01b0316330361073e5760ff600982015416600881101561072a5760020361071b57600c01805461070c574290556212750042018042116106f85760207f137bca46c339f56597111b02712a00598fcfede500a9019fa84e89a9625e46d391604051908152a260015f51602061291b5f395f51905f525580f35b634e487b7160e01b83526011600452602483fd5b63bfbd663f60e01b8352600483fd5b630417bc2360e11b8352600483fd5b634e487b7160e01b84526021600452602484fd5b635ff4d53d60e11b8352600483fd5b50346101fd5760e03660031901126101fd5761076761240c565b604435906001600160a01b038216820361105c576084359060a43592831593841594858203610d005760c4359161079c61280d565b6107a46125f0565b5f51602061295b5f395f51905f52885260208881526040808a20335f908152925290205460ff1615611038576001600160a01b03841688526007602052604088205460ff1615611029576001600160a01b038516158015611017575b61100857606435158015610ff2575b610fe35762278d0086108015610fd6575b610fc75780610fab575b610f9c5780610f93575b610f8457600435865260066020526040862054610f7557604051636896470560e11b81526020816004817f00000000000000000000000000000000000000000000000000000000000000006001600160a01b03165afa908115610d0c578791610f3b575b5015610f2c57604051637c63fad160e11b81526001600160a01b0384811660048301527f00000000000000000000000000000000000000000000000000000000000000001690602081602481855afa908115610ed4578891610eee575b5015610edf57604051631cab5c9d60e31b815260048035908201528781602481855afa8015610ed4578890610d26575b6101009150015115610d17576020602491604051928380926369d146b560e11b825260043560048301525afa908115610d0c578791610cce575b506001600160a01b03848116911603610cbf57600254935f198514610cab576001850160025560018501875260036020526040872055604051946109a286612433565b600435865260018060a01b038416602087015233604087015260018060a01b038316606087015260643560808701528660a08701528660c087015260e08601526101008501526001610120850152426101408501528461016085015284610180850152846101a0850152602094604051610a1c8782612463565b8181526101c0860152600184810182526004808852604080842088518155602089015193810180546001600160a01b039586166001600160a01b0319918216179091559189015160028201805491861691841691909117905560608901516003820180549190951692169190911790925560808701519082015560a0860151600582015560c0860151600682015560e086015160078201805460ff191691151560ff16919091179055610100860151600882015560098101610120870151600881101561072a5791600e916101c09360ff80198354169116179055610140880151600a820155610160880151600b820155610180880151600c820155610b386101a08901511515600d83019060ff801983541691151516179055565b019501519485519560018060401b038711610c9757610b6187610b5b8454612486565b846124be565b8790601f8811600114610c30579680610b9592610bc19798998692610c25575b50508160011b915f199060031b1c19161790565b90555b6004358152600686526040902060018501905560643590309033906001600160a01b0316612828565b6040519060018060a01b0316815233838201526064356040820152600435907fec926f063e0466751bf68c0a9b95fdf34abcbdc487c5cf1bcee4bf02c41d0e6f60606001850192a360015f51602061291b5f395f51905f5255600160405191018152f35b015190505f80610b81565b8284528884209190601f198916855b8b828210610c8157505091600193918a610bc1999a9b9410610c69575b505050811b019055610b98565b01515f1960f88460031b161c191690555f8080610c5c565b6001859682939686015181550195019301610c3f565b634e487b7160e01b83526041600452602483fd5b634e487b7160e01b87526011600452602487fd5b634059dd3960e11b8652600486fd5b90506020813d602011610d04575b81610ce960209383612463565b81010312610d0057610cfa906125dc565b5f61095f565b8680fd5b3d9150610cdc565b6040513d89823e3d90fd5b630657e2c760e21b8752600487fd5b503d8089833e610d368183612463565b810190602081830312610ecc578051906001600160401b038211610ed057019061020082820312610ecc576040519061020082016001600160401b03811183821017610eb8576040528251825260208301516001600160401b038111610eb45781610da2918501612587565b602083015260408301516001600160401b038111610eb45781610dc6918501612587565b604083015260608301516001600160401b038111610eb45781610dea918501612587565b60608301526080830151608083015260a083015160a0830152610e0f60c084016125dc565b60c0830152610e2060e0840161257a565b60e0830152610e32610100840161257a565b610100830152610e45610120840161257a565b6101208301526101408301516101408301526101608301516101608301526101808301516101808301526101a08301516101a08301526101c08301519260018060401b038411610eb457610ea16101e092610100958301612587565b6101c084015201516101e0820152610925565b8a80fd5b634e487b7160e01b8b52604160045260248bfd5b8880fd5b8980fd5b6040513d8a823e3d90fd5b63029d65d560e51b8752600487fd5b90506020813d602011610f24575b81610f0960209383612463565b81010312610f2057610f1a9061257a565b5f6108f5565b8780fd5b3d9150610efc565b6304d54fbf60e41b8652600486fd5b90506020813d602011610f6d575b81610f5660209383612463565b81010312610d0057610f679061257a565b5f610898565b3d9150610f49565b631b6b42c560e21b8652600486fd5b63078c29db60e31b8652600486fd5b50801515610834565b63078c29db60e31b8752600487fd5b5081158061082a5750676765c793fa10079d601a1b821161082a565b637616640160e01b8852600488fd5b506301e133808611610820565b63162908e360e11b8852600488fd5b506a52b7d2dcc80cd2e40000006064351161080f565b63e6c4247b60e01b8852600488fd5b506001600160a01b0385163314610800565b6332da96a360e01b8852600488fd5b63e2517d3f60e01b8852336004525f51602061295b5f395f51905f52602452604488fd5b8280fd5b50346101fd5760203660031901126101fd5760043561107d61280d565b6110856125f0565b8082526004602052600a604083200154156103b35780825260046020526040822060028101546001600160a01b031633036103a4576009810160ff81541660088110156103905760010361116157805460ff19166007179055805483526006602090815260408085208590556004830154338652600583528186206003909401546001600160a01b03165f90815293909252909120805490916111279161250d565b90557fb71becc91961a6b43bcc5b3b630f3dce02c7fd444cf3738c4f188062b1caf5bc8280a260015f51602061291b5f395f51905f525580f35b630151630960e31b8452600484fd5b50346101fd5760203660031901126101fd5760043561118d61280d565b6111956125f0565b61119d612684565b8082526004602052600a604083200154156103b3578082526004602052604082206009810160ff81541660088110156103905760010361116157908391600260ff19825416179055426005820155828252600360205261120160408320544261250d565b600682015542600b820155805460018201546002909201546001600160a01b0392831692908116907f000000000000000000000000000000000000000000000000000000000000000016803b156105475761127693858094604051968795869485936332f65ba360e01b85526004850161252e565b03925af1801561053c576112c1575b505033907f8b6240997bc3af56f5a9aec0408b8286fb78fb0573f2ba96445be3918511cb938380a360015f51602061291b5f395f51905f525580f35b816112cb91612463565b61053857815f611285565b50346101fd57806003193601126101fd57602090604051908152f35b50346101fd5760203660031901126101fd5760209060ff906040906001600160a01b0361131d6123f6565b168152600784522054166040519015158152f35b50346101fd5760203660031901126101fd5761134b6123f6565b611353612628565b6001600160a01b03168082526007602052604082205460ff161561149857808252600760205260408220805460ff1916905560085490825b8281106113bc575b83827f45f62f30e7b8439e0da7d8e560fe39d01238091ce9e789e3d12b514edf98acea8280a280f35b816113c68261254e565b905460039190911b1c6001600160a01b0316146113e55760010161138b565b90915f198101908111611484579061141a61140261143e9361254e565b905460039190911b1c6001600160a01b03169161254e565b9080546001600160a01b0360039390931b83811b199091169290931690921b179055565b6008548015611470575f19016114538161254e565b81549060018060a01b039060031b1b19169055600855805f611393565b634e487b7160e01b83526031600452602483fd5b634e487b7160e01b84526011600452602484fd5b635a1303a760e01b8252600482fd5b50346101fd5760403660031901126101fd5760406114c361240c565b91600435815280602052209060018060a01b03165f52602052602060ff60405f2054166040519015158152f35b50346101fd57806003193601126101fd57602060405162278d008152f35b50346101fd57806003193601126101fd57611527612628565b61152f61280d565b600160ff19815416176001557f62e78cea01bee320cd4e420270b5ea74000d11b0c9f74754ebdbfc544b05a2586020604051338152a180f35b50346101fd5760203660031901126101fd576115826123f6565b61158a612628565b6001600160a01b03811690811561163357818352600760205260ff60408420541661162457818352600760205260408320805460ff19166001179055600854600160401b811015611610579061141a8260016115e9940160085561254e565b7f5f5916d70d5479c1795a9d461360dfa5c673bc37904c8ab4fcbdc970b9e90f3d8280a280f35b634e487b7160e01b84526041600452602484fd5b6389f2a03b60e01b8352600483fd5b63e6c4247b60e01b8352600483fd5b50346101fd5760203660031901126101fd5760043561165f61280d565b6116676125f0565b8082526004602052600a604083200154156103b35780825260046020526040822060018101546001600160a01b0316330361073e5760ff600982015416600881101561072a5760020361071b57600b8101546202a300810180911161148457421061176757600d8101805460ff81166117585760ff1916600117905560048101543384526005602090815260408086206003909401546001600160a01b03165f908152939091529091208054909161171e9161250d565b90557f20bfb4862480da3b4193a710d36f6163b834fbd3ae8b768ecc5c7f421df4df508280a260015f51602061291b5f395f51905f525580f35b63725e07e560e01b8552600485fd5b63e52e798f60e01b8352600483fd5b50346101fd57806003193601126101fd5760206040515f51602061293b5f395f51905f528152f35b50346101fd57806003193601126101fd5760405160088054808352908352602082019081907ff3f7a9fe364faab93b216da50a3214154f22a0a2b415b23a84c8169e8b636ee390855b81811061184757505050826117fd910383612463565b604051928392602084019060208552518091526040840192915b818110611825575050500390f35b82516001600160a01b0316845285945060209384019390920191600101611817565b82546001600160a01b03168452602090930192600192830192016117e7565b50346119df5760203660031901126119df5760043561188361280d565b61188b6125f0565b805f526004602052600a60405f20015415611a5e57805f52600460205260405f20600981019060ff8254166008811015611a4a57600203611a3b5760068101544210611a2c57600181019160018060a01b0383541633148015611a16575b80156119f2575b156119e357805460ff1916600417905580545f90815260066020526040812055805460029091015491546001600160a01b0392831692908116907f000000000000000000000000000000000000000000000000000000000000000016803b156119df57611977935f8094604051968795869485936332f65ba360e01b85526004850161252e565b03925af180156119d4576119bf575b507fcf230024caa09eb797262f4b8a440ff68d6569427807de536898b30c7db013008280a260015f51602061291b5f395f51905f525580f35b6119cc9192505f90612463565b5f905f611986565b6040513d5f823e3d90fd5b5f80fd5b631648fd0160e01b5f5260045ffd5b50335f9081525f5160206128bb5f395f51905f52602052604090205460ff166118f0565b5060028201546001600160a01b031633146118e9565b631d3eee6360e31b5f5260045ffd5b630417bc2360e11b5f5260045ffd5b634e487b7160e01b5f52602160045260245ffd5b630e7e621d60e01b5f5260045ffd5b346119df575f3660031901126119df5760206040515f5160206128fb5f395f51905f528152f35b346119df575f3660031901126119df57602060ff600154166040519015158152f35b346119df5760403660031901126119df576024356004356001600160401b0382116119df57366023830112156119df576004820135906001600160401b0382116119df5736602483850101116119df57611b0e61280d565b611b166125f0565b611b1e612684565b805f526004602052600a60405f20015415611a5e5781158015611d01575b611cf257805f52600460205260405f20926009840160ff8154166008811015611a4a57600103611ce357600660ff19825416179055600e840193611b8a84611b848754612486565b876124be565b5f94601f8511600114611c6d57611bc785805f5160206128db5f395f51905f529697985f91611c5f575b508160011b915f199060031b1c19161790565b90555b80545f908152600660209081526040808320839055600484015460028501546001600160a01b0390811685526005845282852060039096015416845293909152902080549091611c199161250d565b905583602460405192602084528260208501520160408301375f604085830101526040813395601f80199101168101030190a360015f51602061291b5f395f51905f5255005b602491508601013589611bb4565b601f19851695815f5260205f20905f5b888110611cc85750865f5160206128db5f395f51905f5296979810611cac575b5050600186811b019055611bca565b8401602401355f19600389901b60f8161c191690558680611c9d565b90916020600181926024868a01013581550193019101611c7d565b630151630960e31b5f5260045ffd5b630ec0325960e21b5f5260045ffd5b506101008211611b3c565b346119df575f3660031901126119df576040517f00000000000000000000000000000000000000000000000000000000000000006001600160a01b03168152602090f35b346119df5760203660031901126119df5760043560606101c0604051611d7581612433565b5f81525f60208201525f60408201525f838201525f60808201525f60a08201525f60c08201525f60e08201525f6101008201525f6101208201525f6101408201525f6101608201525f6101808201525f6101a08201520152805f526004602052600a60405f20015415611a5e575f52600460205260405f20604051611df981612433565b8154815260018060a01b03600183015416916020820192835260018060a01b03600282015416916040810192835260018060a01b03600383015416926060820193845260048301549260808301938452600581015460a08401908152600682015460c0850190815260ff60078401541660e086019015158152600884015491610100870192835260ff600986015416936101208801946008811015611a4a578552600a860154986101408901998a52600b8701549a6101608a019b8c52600c8801549961018081019a8b52600e60ff600d8b015416996101a083019a15158b520199604051809b5f90805490611eee82612486565b80855291600181169081156120175750600114611fdb575b505003611f13908c612463565b6101c082019a8b526040805160208082529351938101939093529e516001600160a01b039081169f83019f909f52518e1660608201529051909c1660808d01525160a08c01525160c08b01525160e08a01525115156101008901525161012088015251926008841015611a4a576102209587956020956101408801525161016087015251610180860152516101a08501525115156101c0840152516101e080840152805191829182610200860152018484015e5f828201840152601f01601f19168101030190f35b5f908152602081209092505b818310611ffc57505081016020015f80611f06565b80602092948385600194549201015201910190918d92611fe7565b9150506020925060ff191682840152151560051b8201015f80611f06565b346119df575f3660031901126119df576040517f00000000000000000000000000000000000000000000000000000000000000006001600160a01b03168152602090f35b346119df5760403660031901126119df576120926123f6565b61209a61240c565b6001600160a01b039182165f908152600560209081526040808320949093168252928352819020549051908152f35b346119df575f3660031901126119df576120e1612628565b60015460ff8116156121205760ff19166001557f5db9ee0a495bf2e6ff9c91a7834c1ba4fdd244a5e8aa4e537bd38aeae4b073aa6020604051338152a1005b638dfc202b60e01b5f5260045ffd5b346119df5760403660031901126119df5761214861240c565b336001600160a01b03821603612166576121649060043561278d565b005b63334bd91960e11b5f5260045ffd5b346119df5760403660031901126119df5761216460043561219461240c565b906121a161060282612422565b612705565b346119df575f3660031901126119df576020604051621275008152f35b346119df5760203660031901126119df5760206121e1600435612422565b604051908152f35b346119df5760203660031901126119df576004355f526006602052602060405f2054604051908152f35b346119df5760203660031901126119df5761222c6123f6565b6122346125f0565b335f52600560205260405f2060018060a01b0382165f5260205260405f205490811561232657335f52600560205260405f2060018060a01b0382165f526020525f604081205560018060a01b0316906040519063a9059cbb60e01b5f52336004528060245260205f60448180875af160015f5114811615612307575b82604052156122f45781527f716942921e9b67ee05c4c2ffcf216f189086c9053b444c8928a49db4bdb1ae8e60203392a360015f51602061291b5f395f51905f5255005b82635274afe760e01b5f5260045260245ffd5b600181151661231d57833b15153d1516166122b0565b823d5f823e3d90fd5b6312d37ee560e31b5f5260045ffd5b346119df575f3660031901126119df5760206040516301e133808152f35b346119df5760203660031901126119df576004355f526003602052602060405f2054604051908152f35b346119df5760203660031901126119df5760043563ffffffff60e01b81168091036119df57602090637965db0b60e01b81149081156123c2575b506040519015158152f35b6301ffc9a760e01b149050826123b7565b346119df575f3660031901126119df57676765c793fa10079d601a1b8152602090f35b600435906001600160a01b03821682036119df57565b602435906001600160a01b03821682036119df57565b5f525f602052600160405f20015490565b6101e081019081106001600160401b0382111761244f57604052565b634e487b7160e01b5f52604160045260245ffd5b601f909101601f19168101906001600160401b0382119082101761244f57604052565b90600182811c921680156124b4575b60208310146124a057565b634e487b7160e01b5f52602260045260245ffd5b91607f1691612495565b601f82116124cb57505050565b5f5260205f20906020601f840160051c83019310612503575b601f0160051c01905b8181106124f8575050565b5f81556001016124ed565b90915081906124e4565b9190820180921161251a57565b634e487b7160e01b5f52601160045260245ffd5b9081526001600160a01b0391821660208201529116604082015260600190565b6008548110156125665760085f5260205f2001905f90565b634e487b7160e01b5f52603260045260245ffd5b519081151582036119df57565b81601f820112156119df578051906001600160401b03821161244f57604051926125bb601f8401601f191660200185612463565b828452602083830101116119df57815f9260208093018386015e8301015290565b51906001600160a01b03821682036119df57565b60025f51602061291b5f395f51905f5254146126195760025f51602061291b5f395f51905f5255565b633ee5aeb560e01b5f5260045ffd5b335f9081527f7d7ffb7a348e1c6a02869081a26547b49160dd3df72d1d75a570eb9b698292ec602052604090205460ff161561266057565b63e2517d3f60e01b5f52336004525f51602061293b5f395f51905f5260245260445ffd5b335f9081525f5160206128bb5f395f51905f52602052604090205460ff16156126a957565b63e2517d3f60e01b5f52336004525f5160206128fb5f395f51905f5260245260445ffd5b5f8181526020818152604080832033845290915290205460ff16156126ef5750565b63e2517d3f60e01b5f523360045260245260445ffd5b5f818152602081815260408083206001600160a01b038616845290915290205460ff16612787575f818152602081815260408083206001600160a01b0395909516808452949091528120805460ff19166001179055339291907f2f8788117e7eff1d82e926ec794901d17c78024a50270940304540a733656f0d9080a4600190565b50505f90565b5f818152602081815260408083206001600160a01b038616845290915290205460ff1615612787575f818152602081815260408083206001600160a01b0395909516808452949091528120805460ff19169055339291907ff6391f5c32d9c69d2a47ea670b442974b53935d1edc7fd64eb21e047a839171b9080a4600190565b60ff6001541661281957565b63d93c066560e01b5f5260045ffd5b6040516323b872dd60e01b5f9081526001600160a01b039384166004529290931660245260449390935260209060648180865af19060015f5114821615612899575b6040525f606052156128795750565b635274afe760e01b5f9081526001600160a01b0391909116600452602490fd5b9060018115166128b157823b15153d1516169061286a565b503d5f823e3d90fdfe86f8437c3370d009cbcd6bd2faff5909ac9d56a281ee52495642de7b0e979cc5c7f0a5d6702aeeb1f6640f479d20ba8af5fe3fa2c0a0de39039aec64e812a55be4369475d33ca6555b45ac3cf081bee16c4b11779d89f812395c569b2de40f019b779b17422d0df92223018b32b4d1fa46e071723d6817e2486d003becc55f00a49807205ce4d355092ef5a8a18f56e8913cf4a201fbe287825b095693c21775ba2dc669204b26427a432593e1c6ac86ab4ccc54d29c4287abbd1cefc1cb002ba2646970667358221220c463a0cb03f56c0e6d807501e4e8cacbdd04921abf437c37b64e1a36ff221d3564736f6c634300081c00332f8788117e7eff1d82e926ec794901d17c78024a50270940304540a733656f0d7d7ffb7a348e1c6a02869081a26547b49160dd3df72d1d75a570eb9b698292ec86f8437c3370d009cbcd6bd2faff5909ac9d56a281ee52495642de7b0e979cc5ad3228b676f7d3cd4284a5443f17f1962b36e491b30a40b2405849e597ba5fb5",
  "linkReferences": {},
  "deployedLinkReferences": {},
  "immutableReferences": {
    "15153": [
      {
        "length": 32,
        "start": 1168
      },
      {
        "length": 32,
        "start": 2237
      },
      {
        "length": 32,
        "start": 4651
      },
      {
        "length": 32,
        "start": 6444
      },
      {
        "length": 32,
        "start": 8266
      }
    ],
    "15156": [
      {
        "length": 32,
        "start": 2144
      },
      {
        "length": 32,
        "start": 7457
      }
    ]
  },
  "inputSourceName": "project/contracts/core/LoanEscrow.sol",
  "buildInfoId": "solc-0_8_28-39c88ee3d562460995c77dd78b1661ecddc9be7e"
}