{
  "_format": "hh3-artifact-1",
  "contractName": "LoanEscrow",
  "sourceName": "contracts/core/LoanEscrow.sol",
  "abi": [
    {
      "inputs": [],
      "stateMutability": "nonpayable",
      "type": "constructor"
    },
    {
      "inputs": [],
      "name": "AccessControlBadConfirmation",
      "type": "error"
    },
    {
      "inputs": [
        {
          "internalType": "address",
          "name": "account",
          "type": "address"
        },
        {
          "internalType": "bytes32",
          "name": "neededRole",
          "type": "bytes32"
        }
      ],
      "name": "AccessControlUnauthorizedAccount",
      "type": "error"
    },
    {
      "inputs": [
        {
          "internalType": "address",
          "name": "target",
          "type": "address"
        }
      ],
      "name": "AddressEmptyCode",
      "type": "error"
    },
    {
      "inputs": [],
      "name": "DisputeWindowActive",
      "type": "error"
    },
    {
      "inputs": [
        {
          "internalType": "address",
          "name": "implementation",
          "type": "address"
        }
      ],
      "name": "ERC1967InvalidImplementation",
      "type": "error"
    },
    {
      "inputs": [],
      "name": "ERC1967NonPayable",
      "type": "error"
    },
    {
      "inputs": [],
      "name": "EnforcedPause",
      "type": "error"
    },
    {
      "inputs": [],
      "name": "ExpectedPause",
      "type": "error"
    },
    {
      "inputs": [],
      "name": "FailedCall",
      "type": "error"
    },
    {
      "inputs": [],
      "name": "InsufficientAllowance",
      "type": "error"
    },
    {
      "inputs": [
        {
          "internalType": "uint256",
          "name": "requested",
          "type": "uint256"
        },
        {
          "internalType": "uint256",
          "name": "available",
          "type": "uint256"
        }
      ],
      "name": "InsufficientProtocolBalance",
      "type": "error"
    },
    {
      "inputs": [],
      "name": "InvalidAddress",
      "type": "error"
    },
    {
      "inputs": [],
      "name": "InvalidAmount",
      "type": "error"
    },
    {
      "inputs": [],
      "name": "InvalidDuration",
      "type": "error"
    },
    {
      "inputs": [],
      "name": "InvalidInitialization",
      "type": "error"
    },
    {
      "inputs": [],
      "name": "InvalidOptionPrice",
      "type": "error"
    },
    {
      "inputs": [],
      "name": "InvalidString",
      "type": "error"
    },
    {
      "inputs": [],
      "name": "LoanAlreadyActive",
      "type": "error"
    },
    {
      "inputs": [],
      "name": "LoanFeeAlreadyClaimed",
      "type": "error"
    },
    {
      "inputs": [],
      "name": "LoanNotActive",
      "type": "error"
    },
    {
      "inputs": [],
      "name": "LoanNotFound",
      "type": "error"
    },
    {
      "inputs": [],
      "name": "LoanNotPending",
      "type": "error"
    },
    {
      "inputs": [],
      "name": "LoanStillActive",
      "type": "error"
    },
    {
      "inputs": [],
      "name": "NoOptionToBuy",
      "type": "error"
    },
    {
      "inputs": [],
      "name": "NoPendingRegistryUpdate",
      "type": "error"
    },
    {
      "inputs": [],
      "name": "NoPendingTreasuryUpdate",
      "type": "error"
    },
    {
      "inputs": [],
      "name": "NotAuthorised",
      "type": "error"
    },
    {
      "inputs": [],
      "name": "NotBorrowingClub",
      "type": "error"
    },
    {
      "inputs": [],
      "name": "NotInitializing",
      "type": "error"
    },
    {
      "inputs": [],
      "name": "NotParentClub",
      "type": "error"
    },
    {
      "inputs": [],
      "name": "NothingToClaim",
      "type": "error"
    },
    {
      "inputs": [],
      "name": "NothingToWithdraw",
      "type": "error"
    },
    {
      "inputs": [],
      "name": "OptionExpired",
      "type": "error"
    },
    {
      "inputs": [],
      "name": "ParentClubMismatch",
      "type": "error"
    },
    {
      "inputs": [],
      "name": "ParentClubNotRegistered",
      "type": "error"
    },
    {
      "inputs": [],
      "name": "PlayerNotListed",
      "type": "error"
    },
    {
      "inputs": [],
      "name": "ProtocolFeeTooHigh",
      "type": "error"
    },
    {
      "inputs": [],
      "name": "RecallAlreadyRequested",
      "type": "error"
    },
    {
      "inputs": [],
      "name": "RecallNoticeNotMet",
      "type": "error"
    },
    {
      "inputs": [],
      "name": "ReentrantCall",
      "type": "error"
    },
    {
      "inputs": [],
      "name": "RegistryUpdateNotReady",
      "type": "error"
    },
    {
      "inputs": [
        {
          "internalType": "address",
          "name": "token",
          "type": "address"
        }
      ],
      "name": "SafeERC20FailedOperation",
      "type": "error"
    },
    {
      "inputs": [],
      "name": "TokenAlreadyApproved",
      "type": "error"
    },
    {
      "inputs": [],
      "name": "TokenNotApproved",
      "type": "error"
    },
    {
      "inputs": [],
      "name": "TokenNotInList",
      "type": "error"
    },
    {
      "inputs": [],
      "name": "TransferWindowClosed",
      "type": "error"
    },
    {
      "inputs": [],
      "name": "TreasuryUpdateNotReady",
      "type": "error"
    },
    {
      "inputs": [],
      "name": "UUPSUnauthorizedCallContext",
      "type": "error"
    },
    {
      "inputs": [
        {
          "internalType": "bytes32",
          "name": "slot",
          "type": "bytes32"
        }
      ],
      "name": "UUPSUnsupportedProxiableUUID",
      "type": "error"
    },
    {
      "anonymous": false,
      "inputs": [
        {
          "indexed": true,
          "internalType": "address",
          "name": "newAddress",
          "type": "address"
        },
        {
          "indexed": false,
          "internalType": "uint256",
          "name": "executableAt",
          "type": "uint256"
        }
      ],
      "name": "AddressRegistryUpdateScheduled",
      "type": "event"
    },
    {
      "anonymous": false,
      "inputs": [
        {
          "indexed": true,
          "internalType": "address",
          "name": "oldAddress",
          "type": "address"
        },
        {
          "indexed": true,
          "internalType": "address",
          "name": "newAddress",
          "type": "address"
        }
      ],
      "name": "AddressRegistryUpdated",
      "type": "event"
    },
    {
      "anonymous": false,
      "inputs": [
        {
          "indexed": true,
          "internalType": "address",
          "name": "recipient",
          "type": "address"
        },
        {
          "indexed": true,
          "internalType": "address",
          "name": "token",
          "type": "address"
        },
        {
          "indexed": false,
          "internalType": "uint256",
          "name": "amount",
          "type": "uint256"
        }
      ],
      "name": "FundsClaimed",
      "type": "event"
    },
    {
      "anonymous": false,
      "inputs": [
        {
          "indexed": false,
          "internalType": "uint64",
          "name": "version",
          "type": "uint64"
        }
      ],
      "name": "Initialized",
      "type": "event"
    },
    {
      "anonymous": false,
      "inputs": [
        {
          "indexed": true,
          "internalType": "uint256",
          "name": "loanId",
          "type": "uint256"
        },
        {
          "indexed": true,
          "internalType": "address",
          "name": "approver",
          "type": "address"
        }
      ],
      "name": "LoanApproved",
      "type": "event"
    },
    {
      "anonymous": false,
      "inputs": [
        {
          "indexed": true,
          "internalType": "uint256",
          "name": "loanId",
          "type": "uint256"
        }
      ],
      "name": "LoanCancelled",
      "type": "event"
    },
    {
      "anonymous": false,
      "inputs": [
        {
          "indexed": true,
          "internalType": "uint256",
          "name": "loanId",
          "type": "uint256"
        },
        {
          "indexed": true,
          "internalType": "uint256",
          "name": "playerId",
          "type": "uint256"
        },
        {
          "indexed": false,
          "internalType": "address",
          "name": "parentClub",
          "type": "address"
        },
        {
          "indexed": false,
          "internalType": "address",
          "name": "borrowingClub",
          "type": "address"
        },
        {
          "indexed": false,
          "internalType": "uint256",
          "name": "loanFee",
          "type": "uint256"
        }
      ],
      "name": "LoanCreated",
      "type": "event"
    },
    {
      "anonymous": false,
      "inputs": [
        {
          "indexed": true,
          "internalType": "uint256",
          "name": "loanId",
          "type": "uint256"
        }
      ],
      "name": "LoanExpired",
      "type": "event"
    },
    {
      "anonymous": false,
      "inputs": [
        {
          "indexed": true,
          "internalType": "uint256",
          "name": "loanId",
          "type": "uint256"
        }
      ],
      "name": "LoanFeeClaimed",
      "type": "event"
    },
    {
      "anonymous": false,
      "inputs": [
        {
          "indexed": true,
          "internalType": "uint256",
          "name": "loanId",
          "type": "uint256"
        }
      ],
      "name": "LoanRecalled",
      "type": "event"
    },
    {
      "anonymous": false,
      "inputs": [
        {
          "indexed": true,
          "internalType": "uint256",
          "name": "loanId",
          "type": "uint256"
        },
        {
          "indexed": true,
          "internalType": "address",
          "name": "approver",
          "type": "address"
        },
        {
          "indexed": false,
          "internalType": "string",
          "name": "reason",
          "type": "string"
        }
      ],
      "name": "LoanRejected",
      "type": "event"
    },
    {
      "anonymous": false,
      "inputs": [
        {
          "indexed": true,
          "internalType": "uint256",
          "name": "loanId",
          "type": "uint256"
        },
        {
          "indexed": false,
          "internalType": "uint256",
          "name": "optionPrice",
          "type": "uint256"
        }
      ],
      "name": "OptionExercised",
      "type": "event"
    },
    {
      "anonymous": false,
      "inputs": [
        {
          "indexed": false,
          "internalType": "address",
          "name": "account",
          "type": "address"
        }
      ],
      "name": "Paused",
      "type": "event"
    },
    {
      "anonymous": false,
      "inputs": [
        {
          "indexed": true,
          "internalType": "address",
          "name": "newAddress",
          "type": "address"
        },
        {
          "indexed": false,
          "internalType": "uint256",
          "name": "executableAt",
          "type": "uint256"
        }
      ],
      "name": "PlayerRegistryUpdateScheduled",
      "type": "event"
    },
    {
      "anonymous": false,
      "inputs": [
        {
          "indexed": true,
          "internalType": "address",
          "name": "oldAddress",
          "type": "address"
        },
        {
          "indexed": true,
          "internalType": "address",
          "name": "newAddress",
          "type": "address"
        }
      ],
      "name": "PlayerRegistryUpdated",
      "type": "event"
    },
    {
      "anonymous": false,
      "inputs": [
        {
          "indexed": false,
          "internalType": "uint256",
          "name": "bps",
          "type": "uint256"
        }
      ],
      "name": "ProtocolFeeUpdated",
      "type": "event"
    },
    {
      "anonymous": false,
      "inputs": [
        {
          "indexed": true,
          "internalType": "address",
          "name": "treasury",
          "type": "address"
        },
        {
          "indexed": true,
          "internalType": "address",
          "name": "token",
          "type": "address"
        },
        {
          "indexed": false,
          "internalType": "uint256",
          "name": "amount",
          "type": "uint256"
        }
      ],
      "name": "ProtocolFeesWithdrawn",
      "type": "event"
    },
    {
      "anonymous": false,
      "inputs": [
        {
          "indexed": true,
          "internalType": "address",
          "name": "newTreasury",
          "type": "address"
        },
        {
          "indexed": false,
          "internalType": "uint256",
          "name": "effectiveAt",
          "type": "uint256"
        }
      ],
      "name": "ProtocolTreasuryUpdateScheduled",
      "type": "event"
    },
    {
      "anonymous": false,
      "inputs": [
        {
          "indexed": true,
          "internalType": "address",
          "name": "oldTreasury",
          "type": "address"
        },
        {
          "indexed": true,
          "internalType": "address",
          "name": "newTreasury",
          "type": "address"
        }
      ],
      "name": "ProtocolTreasuryUpdated",
      "type": "event"
    },
    {
      "anonymous": false,
      "inputs": [
        {
          "indexed": true,
          "internalType": "uint256",
          "name": "loanId",
          "type": "uint256"
        },
        {
          "indexed": false,
          "internalType": "uint256",
          "name": "recallExecutableAt",
          "type": "uint256"
        }
      ],
      "name": "RecallRequested",
      "type": "event"
    },
    {
      "anonymous": false,
      "inputs": [
        {
          "indexed": true,
          "internalType": "bytes32",
          "name": "role",
          "type": "bytes32"
        },
        {
          "indexed": true,
          "internalType": "bytes32",
          "name": "previousAdminRole",
          "type": "bytes32"
        },
        {
          "indexed": true,
          "internalType": "bytes32",
          "name": "newAdminRole",
          "type": "bytes32"
        }
      ],
      "name": "RoleAdminChanged",
      "type": "event"
    },
    {
      "anonymous": false,
      "inputs": [
        {
          "indexed": true,
          "internalType": "bytes32",
          "name": "role",
          "type": "bytes32"
        },
        {
          "indexed": true,
          "internalType": "address",
          "name": "account",
          "type": "address"
        },
        {
          "indexed": true,
          "internalType": "address",
          "name": "sender",
          "type": "address"
        }
      ],
      "name": "RoleGranted",
      "type": "event"
    },
    {
      "anonymous": false,
      "inputs": [
        {
          "indexed": true,
          "internalType": "bytes32",
          "name": "role",
          "type": "bytes32"
        },
        {
          "indexed": true,
          "internalType": "address",
          "name": "account",
          "type": "address"
        },
        {
          "indexed": true,
          "internalType": "address",
          "name": "sender",
          "type": "address"
        }
      ],
      "name": "RoleRevoked",
      "type": "event"
    },
    {
      "anonymous": false,
      "inputs": [
        {
          "indexed": true,
          "internalType": "address",
          "name": "token",
          "type": "address"
        }
      ],
      "name": "TokenApproved",
      "type": "event"
    },
    {
      "anonymous": false,
      "inputs": [
        {
          "indexed": true,
          "internalType": "address",
          "name": "token",
          "type": "address"
        }
      ],
      "name": "TokenRevoked",
      "type": "event"
    },
    {
      "anonymous": false,
      "inputs": [
        {
          "indexed": false,
          "internalType": "address",
          "name": "account",
          "type": "address"
        }
      ],
      "name": "Unpaused",
      "type": "event"
    },
    {
      "anonymous": false,
      "inputs": [
        {
          "indexed": true,
          "internalType": "address",
          "name": "implementation",
          "type": "address"
        }
      ],
      "name": "Upgraded",
      "type": "event"
    },
    {
      "inputs": [],
      "name": "ADMIN_ROLE",
      "outputs": [
        {
          "internalType": "bytes32",
          "name": "",
          "type": "bytes32"
        }
      ],
      "stateMutability": "view",
      "type": "function"
    },
    {
      "inputs": [],
      "name": "CLUB_ROLE",
      "outputs": [
        {
          "internalType": "bytes32",
          "name": "",
          "type": "bytes32"
        }
      ],
      "stateMutability": "view",
      "type": "function"
    },
    {
      "inputs": [],
      "name": "DEFAULT_ADMIN_ROLE",
      "outputs": [
        {
          "internalType": "bytes32",
          "name": "",
          "type": "bytes32"
        }
      ],
      "stateMutability": "view",
      "type": "function"
    },
    {
      "inputs": [],
      "name": "DISPUTE_WINDOW",
      "outputs": [
        {
          "internalType": "uint256",
          "name": "",
          "type": "uint256"
        }
      ],
      "stateMutability": "view",
      "type": "function"
    },
    {
      "inputs": [],
      "name": "LEAGUE_ROLE",
      "outputs": [
        {
          "internalType": "bytes32",
          "name": "",
          "type": "bytes32"
        }
      ],
      "stateMutability": "view",
      "type": "function"
    },
    {
      "inputs": [],
      "name": "MAX_LOAN_DURATION",
      "outputs": [
        {
          "internalType": "uint256",
          "name": "",
          "type": "uint256"
        }
      ],
      "stateMutability": "view",
      "type": "function"
    },
    {
      "inputs": [],
      "name": "MAX_LOAN_FEE",
      "outputs": [
        {
          "internalType": "uint256",
          "name": "",
          "type": "uint256"
        }
      ],
      "stateMutability": "view",
      "type": "function"
    },
    {
      "inputs": [],
      "name": "MAX_PRICE",
      "outputs": [
        {
          "internalType": "uint256",
          "name": "",
          "type": "uint256"
        }
      ],
      "stateMutability": "view",
      "type": "function"
    },
    {
      "inputs": [],
      "name": "MIN_LOAN_DURATION",
      "outputs": [
        {
          "internalType": "uint256",
          "name": "",
          "type": "uint256"
        }
      ],
      "stateMutability": "view",
      "type": "function"
    },
    {
      "inputs": [],
      "name": "MIN_RECALL_NOTICE",
      "outputs": [
        {
          "internalType": "uint256",
          "name": "",
          "type": "uint256"
        }
      ],
      "stateMutability": "view",
      "type": "function"
    },
    {
      "inputs": [],
      "name": "REGISTRY_UPDATE_DELAY",
      "outputs": [
        {
          "internalType": "uint256",
          "name": "",
          "type": "uint256"
        }
      ],
      "stateMutability": "view",
      "type": "function"
    },
    {
      "inputs": [],
      "name": "UPGRADE_INTERFACE_VERSION",
      "outputs": [
        {
          "internalType": "string",
          "name": "",
          "type": "string"
        }
      ],
      "stateMutability": "view",
      "type": "function"
    },
    {
      "inputs": [],
      "name": "addressRegistry",
      "outputs": [
        {
          "internalType": "contract IAddressRegistry",
          "name": "",
          "type": "address"
        }
      ],
      "stateMutability": "view",
      "type": "function"
    },
    {
      "inputs": [
        {
          "internalType": "uint256",
          "name": "loanId",
          "type": "uint256"
        }
      ],
      "name": "approveLoan",
      "outputs": [],
      "stateMutability": "nonpayable",
      "type": "function"
    },
    {
      "inputs": [
        {
          "internalType": "address",
          "name": "token",
          "type": "address"
        }
      ],
      "name": "approveToken",
      "outputs": [],
      "stateMutability": "nonpayable",
      "type": "function"
    },
    {
      "inputs": [
        {
          "internalType": "uint256",
          "name": "loanId",
          "type": "uint256"
        }
      ],
      "name": "cancelLoan",
      "outputs": [],
      "stateMutability": "nonpayable",
      "type": "function"
    },
    {
      "inputs": [
        {
          "internalType": "uint256",
          "name": "loanId",
          "type": "uint256"
        }
      ],
      "name": "claimLoanFee",
      "outputs": [],
      "stateMutability": "nonpayable",
      "type": "function"
    },
    {
      "inputs": [
        {
          "internalType": "uint256",
          "name": "playerId",
          "type": "uint256"
        },
        {
          "internalType": "address",
          "name": "parentClub",
          "type": "address"
        },
        {
          "internalType": "address",
          "name": "paymentToken",
          "type": "address"
        },
        {
          "internalType": "uint256",
          "name": "loanFee",
          "type": "uint256"
        },
        {
          "internalType": "uint256",
          "name": "loanDuration",
          "type": "uint256"
        },
        {
          "internalType": "bool",
          "name": "hasOptionToBuy",
          "type": "bool"
        },
        {
          "internalType": "uint256",
          "name": "optionPrice",
          "type": "uint256"
        }
      ],
      "name": "createLoan",
      "outputs": [
        {
          "internalType": "uint256",
          "name": "loanId",
          "type": "uint256"
        }
      ],
      "stateMutability": "nonpayable",
      "type": "function"
    },
    {
      "inputs": [],
      "name": "executeAddressRegistryUpdate",
      "outputs": [],
      "stateMutability": "nonpayable",
      "type": "function"
    },
    {
      "inputs": [],
      "name": "executePlayerRegistryUpdate",
      "outputs": [],
      "stateMutability": "nonpayable",
      "type": "function"
    },
    {
      "inputs": [],
      "name": "executeProtocolTreasuryUpdate",
      "outputs": [],
      "stateMutability": "nonpayable",
      "type": "function"
    },
    {
      "inputs": [
        {
          "internalType": "uint256",
          "name": "loanId",
          "type": "uint256"
        }
      ],
      "name": "executeRecall",
      "outputs": [],
      "stateMutability": "nonpayable",
      "type": "function"
    },
    {
      "inputs": [
        {
          "internalType": "uint256",
          "name": "loanId",
          "type": "uint256"
        }
      ],
      "name": "exerciseOption",
      "outputs": [],
      "stateMutability": "nonpayable",
      "type": "function"
    },
    {
      "inputs": [
        {
          "internalType": "uint256",
          "name": "playerId",
          "type": "uint256"
        }
      ],
      "name": "getActivePlayerLoan",
      "outputs": [
        {
          "internalType": "uint256",
          "name": "",
          "type": "uint256"
        }
      ],
      "stateMutability": "view",
      "type": "function"
    },
    {
      "inputs": [],
      "name": "getApprovedTokens",
      "outputs": [
        {
          "internalType": "address[]",
          "name": "",
          "type": "address[]"
        }
      ],
      "stateMutability": "view",
      "type": "function"
    },
    {
      "inputs": [
        {
          "internalType": "address",
          "name": "account",
          "type": "address"
        },
        {
          "internalType": "address",
          "name": "token",
          "type": "address"
        }
      ],
      "name": "getClaimable",
      "outputs": [
        {
          "internalType": "uint256",
          "name": "",
          "type": "uint256"
        }
      ],
      "stateMutability": "view",
      "type": "function"
    },
    {
      "inputs": [
        {
          "internalType": "uint256",
          "name": "loanId",
          "type": "uint256"
        }
      ],
      "name": "getLoan",
      "outputs": [
        {
          "components": [
            {
              "internalType": "uint256",
              "name": "playerId",
              "type": "uint256"
            },
            {
              "internalType": "address",
              "name": "parentClub",
              "type": "address"
            },
            {
              "internalType": "address",
              "name": "borrowingClub",
              "type": "address"
            },
            {
              "internalType": "address",
              "name": "paymentToken",
              "type": "address"
            },
            {
              "internalType": "uint256",
              "name": "loanFee",
              "type": "uint256"
            },
            {
              "internalType": "uint256",
              "name": "loanStart",
              "type": "uint256"
            },
            {
              "internalType": "uint256",
              "name": "loanExpiry",
              "type": "uint256"
            },
            {
              "internalType": "bool",
              "name": "hasOptionToBuy",
              "type": "bool"
            },
            {
              "internalType": "uint256",
              "name": "optionPrice",
              "type": "uint256"
            },
            {
              "internalType": "enum LoanEscrow.LoanState",
              "name": "state",
              "type": "uint8"
            },
            {
              "internalType": "uint256",
              "name": "createdAt",
              "type": "uint256"
            },
            {
              "internalType": "uint256",
              "name": "approvedAt",
              "type": "uint256"
            },
            {
              "internalType": "uint256",
              "name": "recallRequestedAt",
              "type": "uint256"
            },
            {
              "internalType": "bool",
              "name": "loanFeeClaimed",
              "type": "bool"
            },
            {
              "internalType": "string",
              "name": "rejectionReason",
              "type": "string"
            }
          ],
          "internalType": "struct LoanEscrow.Loan",
          "name": "",
          "type": "tuple"
        }
      ],
      "stateMutability": "view",
      "type": "function"
    },
    {
      "inputs": [
        {
          "internalType": "uint256",
          "name": "loanId",
          "type": "uint256"
        }
      ],
      "name": "getLoanDuration",
      "outputs": [
        {
          "internalType": "uint256",
          "name": "",
          "type": "uint256"
        }
      ],
      "stateMutability": "view",
      "type": "function"
    },
    {
      "inputs": [
        {
          "internalType": "bytes32",
          "name": "role",
          "type": "bytes32"
        }
      ],
      "name": "getRoleAdmin",
      "outputs": [
        {
          "internalType": "bytes32",
          "name": "",
          "type": "bytes32"
        }
      ],
      "stateMutability": "view",
      "type": "function"
    },
    {
      "inputs": [
        {
          "internalType": "bytes32",
          "name": "role",
          "type": "bytes32"
        },
        {
          "internalType": "address",
          "name": "account",
          "type": "address"
        }
      ],
      "name": "grantRole",
      "outputs": [],
      "stateMutability": "nonpayable",
      "type": "function"
    },
    {
      "inputs": [
        {
          "internalType": "bytes32",
          "name": "role",
          "type": "bytes32"
        },
        {
          "internalType": "address",
          "name": "account",
          "type": "address"
        }
      ],
      "name": "hasRole",
      "outputs": [
        {
          "internalType": "bool",
          "name": "",
          "type": "bool"
        }
      ],
      "stateMutability": "view",
      "type": "function"
    },
    {
      "inputs": [
        {
          "internalType": "address",
          "name": "_playerRegistry",
          "type": "address"
        },
        {
          "internalType": "address",
          "name": "_addressRegistry",
          "type": "address"
        },
        {
          "internalType": "address",
          "name": "_treasury",
          "type": "address"
        },
        {
          "internalType": "address",
          "name": "_admin",
          "type": "address"
        }
      ],
      "name": "initialize",
      "outputs": [],
      "stateMutability": "nonpayable",
      "type": "function"
    },
    {
      "inputs": [
        {
          "internalType": "address",
          "name": "token",
          "type": "address"
        }
      ],
      "name": "isTokenApproved",
      "outputs": [
        {
          "internalType": "bool",
          "name": "",
          "type": "bool"
        }
      ],
      "stateMutability": "view",
      "type": "function"
    },
    {
      "inputs": [],
      "name": "pause",
      "outputs": [],
      "stateMutability": "nonpayable",
      "type": "function"
    },
    {
      "inputs": [],
      "name": "paused",
      "outputs": [
        {
          "internalType": "bool",
          "name": "",
          "type": "bool"
        }
      ],
      "stateMutability": "view",
      "type": "function"
    },
    {
      "inputs": [],
      "name": "pendingTreasury",
      "outputs": [
        {
          "internalType": "address",
          "name": "",
          "type": "address"
        },
        {
          "internalType": "uint256",
          "name": "",
          "type": "uint256"
        }
      ],
      "stateMutability": "view",
      "type": "function"
    },
    {
      "inputs": [],
      "name": "playerRegistry",
      "outputs": [
        {
          "internalType": "contract IPlayerRegistry",
          "name": "",
          "type": "address"
        }
      ],
      "stateMutability": "view",
      "type": "function"
    },
    {
      "inputs": [],
      "name": "protocolFeeBps",
      "outputs": [
        {
          "internalType": "uint256",
          "name": "",
          "type": "uint256"
        }
      ],
      "stateMutability": "view",
      "type": "function"
    },
    {
      "inputs": [],
      "name": "proxiableUUID",
      "outputs": [
        {
          "internalType": "bytes32",
          "name": "",
          "type": "bytes32"
        }
      ],
      "stateMutability": "view",
      "type": "function"
    },
    {
      "inputs": [
        {
          "internalType": "uint256",
          "name": "loanId",
          "type": "uint256"
        },
        {
          "internalType": "string",
          "name": "reason",
          "type": "string"
        }
      ],
      "name": "rejectLoan",
      "outputs": [],
      "stateMutability": "nonpayable",
      "type": "function"
    },
    {
      "inputs": [
        {
          "internalType": "bytes32",
          "name": "role",
          "type": "bytes32"
        },
        {
          "internalType": "address",
          "name": "callerConfirmation",
          "type": "address"
        }
      ],
      "name": "renounceRole",
      "outputs": [],
      "stateMutability": "nonpayable",
      "type": "function"
    },
    {
      "inputs": [
        {
          "internalType": "uint256",
          "name": "loanId",
          "type": "uint256"
        }
      ],
      "name": "requestRecall",
      "outputs": [],
      "stateMutability": "nonpayable",
      "type": "function"
    },
    {
      "inputs": [
        {
          "internalType": "bytes32",
          "name": "role",
          "type": "bytes32"
        },
        {
          "internalType": "address",
          "name": "account",
          "type": "address"
        }
      ],
      "name": "revokeRole",
      "outputs": [],
      "stateMutability": "nonpayable",
      "type": "function"
    },
    {
      "inputs": [
        {
          "internalType": "address",
          "name": "token",
          "type": "address"
        }
      ],
      "name": "revokeToken",
      "outputs": [],
      "stateMutability": "nonpayable",
      "type": "function"
    },
    {
      "inputs": [
        {
          "internalType": "address",
          "name": "newAddress",
          "type": "address"
        }
      ],
      "name": "scheduleAddressRegistryUpdate",
      "outputs": [],
      "stateMutability": "nonpayable",
      "type": "function"
    },
    {
      "inputs": [
        {
          "internalType": "address",
          "name": "newAddress",
          "type": "address"
        }
      ],
      "name": "schedulePlayerRegistryUpdate",
      "outputs": [],
      "stateMutability": "nonpayable",
      "type": "function"
    },
    {
      "inputs": [
        {
          "internalType": "address",
          "name": "newTreasury",
          "type": "address"
        }
      ],
      "name": "scheduleProtocolTreasuryUpdate",
      "outputs": [],
      "stateMutability": "nonpayable",
      "type": "function"
    },
    {
      "inputs": [
        {
          "internalType": "uint256",
          "name": "bps",
          "type": "uint256"
        }
      ],
      "name": "setProtocolFee",
      "outputs": [],
      "stateMutability": "nonpayable",
      "type": "function"
    },
    {
      "inputs": [
        {
          "internalType": "uint256",
          "name": "loanId",
          "type": "uint256"
        }
      ],
      "name": "settleLoanExpiry",
      "outputs": [],
      "stateMutability": "nonpayable",
      "type": "function"
    },
    {
      "inputs": [
        {
          "internalType": "bytes4",
          "name": "interfaceId",
          "type": "bytes4"
        }
      ],
      "name": "supportsInterface",
      "outputs": [
        {
          "internalType": "bool",
          "name": "",
          "type": "bool"
        }
      ],
      "stateMutability": "view",
      "type": "function"
    },
    {
      "inputs": [],
      "name": "totalLoans",
      "outputs": [
        {
          "internalType": "uint256",
          "name": "",
          "type": "uint256"
        }
      ],
      "stateMutability": "view",
      "type": "function"
    },
    {
      "inputs": [],
      "name": "treasury",
      "outputs": [
        {
          "internalType": "address",
          "name": "",
          "type": "address"
        }
      ],
      "stateMutability": "view",
      "type": "function"
    },
    {
      "inputs": [],
      "name": "unpause",
      "outputs": [],
      "stateMutability": "nonpayable",
      "type": "function"
    },
    {
      "inputs": [
        {
          "internalType": "address",
          "name": "newImplementation",
          "type": "address"
        },
        {
          "internalType": "bytes",
          "name": "data",
          "type": "bytes"
        }
      ],
      "name": "upgradeToAndCall",
      "outputs": [],
      "stateMutability": "payable",
      "type": "function"
    },
    {
      "inputs": [
        {
          "internalType": "address",
          "name": "token",
          "type": "address"
        }
      ],
      "name": "withdrawClaimable",
      "outputs": [],
      "stateMutability": "nonpayable",
      "type": "function"
    },
    {
      "inputs": [
        {
          "internalType": "address",
          "name": "token",
          "type": "address"
        },
        {
          "internalType": "uint256",
          "name": "amount",
          "type": "uint256"
        }
      ],
      "name": "withdrawFees",
      "outputs": [],
      "stateMutability": "nonpayable",
      "type": "function"
    }
  ],
  "bytecode": "0x60a080604052346100c257306080525f516020613a7a5f395f51905f525460ff8160401c166100b3576002600160401b03196001600160401b03821601610060575b6040516139b390816100c7823960805181818161254a01526128db0152f35b6001600160401b0319166001600160401b039081175f516020613a7a5f395f51905f525581527fc7f505b2f371ae2175ee4913f4499e1f2633a7b5936321eed1cdaeb6115181d290602090a15f80610041565b63f92ee8a960e01b5f5260045ffd5b5f80fdfe6080806040526004361015610012575f80fd5b5f905f3560e01c90816301c11d9614612ff45750806301ffc9a714612f9e57806304e5494914612ee95780630a5875df14612ebf5780630d0b2ca614612ea15780631510f85a14612ddd5780631c82e10c14612db3578063248a9ca314612d8d578063280c729e14612d705780632dad1e5d14612cdb5780632ed6b75d14612caf5780632f2ff15d14612c7e57806335659fb814612c6157806336568abe14612c1d578063398dfb0c146104c55780633f4ba83a14612b9f5780633fb8142814612b4f57806347d2215914612ab35780634c74ef9c14612a8b5780634f1ef28614612864578063504006ca1461259e57806352d1902d1461253857806352ee8f81146122e75780635c975abb146122b957806360e49e441461229257806361d027b31461226b5780636277e138146121a457806368de026a14611fb15780636afc0c5f14611ee957806375b238fc14611ec1578063787dce3d14611e5a5780637ac0296c14611cb757806380b2edd814611bdd5780638456cb5914611b6a57806389d99a0514611b4c57806391d1485414611af6578063933f4eef146119805780639d93d35214611941578063a217fddf14611925578063aadc1ac1146117e0578063ad3b1b47146116a7578063ad3cb1cc1461165a578063bdbfa3de1461154f578063bfdbd35414610bb0578063ca6d894c14610aaa578063cc952b5714610a8c578063d547741f14610a51578063d7dd3e1314610a2b578063e703c34114610864578063f3ad65f41461083b578063f3ee48bb146107b8578063f4bfd4e8146106ed578063f52f2526146104ca578063f585dc57146104c5578063f8c8765e146102b05763fc8045b114610286575f80fd5b346102ad57806003193601126102ad5760206040515f51602061395e5f395f51905f528152f35b80fd5b50346102ad5760803660031901126102ad576102ca613017565b906102d361302d565b916102dc613043565b606435906001600160a01b038216908183036104c1575f51602061393e5f395f51905f5254604081901c60ff161594906001600160401b038116801590816104b9575b60011490816104af575b1590816104a6575b50610497576001600160401b031981166001175f51602061393e5f395f51905f52558561046f575b506001600160a01b0316958615610460576001600160a01b0316908115610460576001600160a01b03169182156104605715610451576103f693949561039d613746565b6103a5613746565b600160045560018060a01b0319600754161760075560018060a01b0319600854161760085560018060a01b031985541617845560326001556103e681613413565b506103f081613489565b50613509565b506103fe5780f35b60ff60401b195f51602061393e5f395f51905f5254165f51602061393e5f395f51905f52557fc7f505b2f371ae2175ee4913f4499e1f2633a7b5936321eed1cdaeb6115181d2602060405160018152a180f35b63e6c4247b60e01b8552600485fd5b63e6c4247b60e01b8652600486fd5b6001600160481b0319166001600160401b01175f51602061393e5f395f51905f52555f610359565b63f92ee8a960e01b8752600487fd5b9050155f610331565b303b159150610329565b87915061031f565b8480fd5b613059565b50346102ad5760203660031901126102ad576004356104e76136b6565b6002600454146106de576002600455808252600f602052600a604083200154156106cf57808252600f6020526040822060028101546001600160a01b031633036106c0576009810160ff81541660088110156106ac5760020361069d5760ff6007830154161561068e57600682015442101561067f577f709a635a5462396a92927c659d5d8a7f96393228713769a8f62818093d8296c491602091600360ff198254161790558054855260118252846040812055600381019060018060a01b03825416916105bf6008830193845490309033906136dd565b825487549092906001600160a01b031680151580610674575b610625575b50600101546001600160a01b03908116885260108552604080892092549091165f90815291855290208054909161061391613123565b905554604051908152a2600160045580f35b92610640612710610638600154846131f5565b048092613208565b938952601086526040808a2084546001600160a01b03165f908152908852208054909161066c91613123565b90555f6105dd565b5060015415156105d8565b637676819d60e01b8452600484fd5b632b5ce7f960e01b8452600484fd5b630417bc2360e11b8452600484fd5b634e487b7160e01b85526021600452602485fd5b63bb6a920360e01b8352600483fd5b630e7e621d60e01b8252600482fd5b6306fda65d60e31b8252600482fd5b50346102ad5760203660031901126102ad57610707613017565b61070f6132ba565b6001600160a01b031680156107a95760016040805161072d81613076565b83815242602082015201528060018060a01b0319600954161760095542600a55600160ff19600b541617600b556202a30042018042116107955760207f8363679ef2aa78959975cfc83b0536f2e7ceb671cb67231460ed2d3cc8b325d891604051908152a280f35b634e487b7160e01b83526011600452602483fd5b63e6c4247b60e01b8252600482fd5b50346102ad5760203660031901126102ad576107d2613017565b6107da6132ba565b6001600160a01b031680156107a957600280546001600160a01b03191682179055426202a3008101908110610795576020817f686003c563ac6d53a1e0d2aea06fc73beb941f8f05f3463b33b607717aabc67f92600355604051908152a280f35b50346102ad57806003193601126102ad576008546040516001600160a01b039091168152602090f35b50346102ad5760203660031901126102ad576004356108816136b6565b6002600454146106de576002600455808252600f602052600a604083200154156106cf57808252600f602052604082206001810180549091906001600160a01b03163303610a1c576009810160ff8154166008811015610a08576002036109f957600c82015480156109ea576212750081018091116109d65742106109c757805460ff19166005179055805484526011602052604084208490556007548154600290920154925485936001600160a01b0390811693929181169116803b156104c15761096793858094604051968795869485936332f65ba360e01b8552600485016131d5565b03925af180156109bc576109a3575b50807f8df6bd0836f79acc777da158b67e3d8ec5f0379e33e5b0ee4042f36b63e0dac691a2600160045580f35b816109ad916130c1565b6109b857815f610976565b5080fd5b6040513d84823e3d90fd5b630eae5de960e41b8552600485fd5b634e487b7160e01b86526011600452602486fd5b630417bc2360e11b8652600486fd5b630417bc2360e11b8552600485fd5b634e487b7160e01b86526021600452602486fd5b635ff4d53d60e11b8452600484fd5b50346102ad57806003193601126102ad5760206040516a52b7d2dcc80cd2e40000008152f35b50346102ad5760403660031901126102ad57610a88600435610a7161302d565b90610a83610a7e82613130565b61334c565b61361a565b5080f35b50346102ad57806003193601126102ad576020600554604051908152f35b50346102ad5760203660031901126102ad57600435610ac76136b6565b6002600454146106de576002600455808252600f602052600a604083200154156106cf57808252600f6020526040822060018101546001600160a01b03163303610ba15760ff6009820154166008811015610b8d57600203610b7e57600c018054610b6f574290556212750042018042116107955760207f137bca46c339f56597111b02712a00598fcfede500a9019fa84e89a9625e46d391604051908152a2600160045580f35b63bfbd663f60e01b8352600483fd5b630417bc2360e11b8352600483fd5b634e487b7160e01b84526021600452602484fd5b635ff4d53d60e11b8352600483fd5b50346102ad5760e03660031901126102ad57610bca61302d565b610bd2613043565b906084359060a435928315938415948582036111845760c43591610bf46136b6565b6002600454146115405760026004555f51602061395e5f395f51905f5288525f5160206138de5f395f51905f5260209081526040808a20335f908152925290205460ff161561151c576001600160a01b03841688526012602052604088205460ff161561150d576001600160a01b0385161580156114fb575b6114ec576064351580156114d6575b6114c75762278d00861080156114ba575b6114ab578061148f575b6114805780611477575b611468576004358652601160205260408620546114595760085460405163023aa9ab60e61b81527fd8e6c8b39dbc70333b42d059fa436cf2679722325c0f6ed7e701df0b05a637c8600482015290602090829060249082906001600160a01b03165afa90811561119057879161141a575b50604051636896470560e11b815290602090829060049082906001600160a01b03165afa9081156111905787916113e0575b50156113d157600754604051637c63fad160e11b81526001600160a01b03858116600483015290911690602081602481855afa908115611379578891611393575b501561138457604051631cab5c9d60e31b815260048035908201528781602481855afa80156113795788906111aa575b6101a0915001511561119b576020602491604051928380926369d146b560e11b825260043560048301525afa908115611190578791611152575b506001600160a01b0384811691160361114357600554935f19851461112f57600185016005556001850187526006602052604087205560405194610e32866130a5565b600435865260018060a01b038416602087015233604087015260018060a01b038316606087015260643560808701528660a08701528660c087015260e08601526101008501526001610120850152426101408501528461016085015284610180850152846101a0850152602094604051610eac87826130c1565b8181526101c086015260018481018252600f8752604080832087518155602088015192810180546001600160a01b039485166001600160a01b031991821617909155918801516002820180549185169184169190911790556060880151600382018054919094169216919091179091556080860151600482015560a0860151600582015560c0860151600682015560e086015160078201805460ff191691151560ff169190911790556101008601516008820155600981016101208701516008811015610b8d5791600e916101c09360ff80198354169116179055610140880151600a820155610160880151600b820155610180880151600c820155610fc86101a08901511515600d83019060ff801983541691151516179055565b019501519485519560018060401b03871161111b57610ff187610feb845461314e565b84613186565b8790601f88116001146110b45796806110259261105197989986926110a9575b50508160011b915f199060031b1c19161790565b90555b6004358152601186526040902060018501905560643590309033906001600160a01b03166136dd565b6040519060018060a01b0316815233838201526064356040820152600435907fec926f063e0466751bf68c0a9b95fdf34abcbdc487c5cf1bcee4bf02c41d0e6f60606001850192a36001600455600160405191018152f35b015190505f80611011565b8284528884209190601f198916855b8b82821061110557505091600193918a611051999a9b94106110ed575b505050811b019055611028565b01515f1960f88460031b161c191690555f80806110e0565b60018596829396860151815501950193016110c3565b634e487b7160e01b83526041600452602483fd5b634e487b7160e01b87526011600452602487fd5b634059dd3960e11b8652600486fd5b90506020813d602011611188575b8161116d602093836130c1565b810103126111845761117e90613241565b5f610def565b8680fd5b3d9150611160565b6040513d89823e3d90fd5b630657e2c760e21b8752600487fd5b503d8089833e6111ba81836130c1565b810190602081830312611371578051906001600160401b038211611375570161022081830312611371576040519061022082016001600160401b0381118382101761135d576040528051825260208101516001600160401b0381116113595783611225918301613262565b602083015260408101516001600160401b0381116113595783611249918301613262565b604083015260608101516001600160401b038111611359578361126d918301613262565b60608301526080810151608083015260a081015160a083015260c081015160c083015260e081015160e08301526101008101516101008301526112b36101208201613241565b6101208301526112c661014082016132a8565b6101408301526112d961016082016132a8565b6101608301526112ec6101808201613255565b6101808301526112ff6101a08201613255565b6101a08301526113126101c08201613255565b6101c08301526113256101e08201613255565b6101e0830152610200810151926001600160401b038411611359576101a09361134e9201613262565b610200820152610db5565b8a80fd5b634e487b7160e01b8b52604160045260248bfd5b8880fd5b8980fd5b6040513d8a823e3d90fd5b63029d65d560e51b8752600487fd5b90506020813d6020116113c9575b816113ae602093836130c1565b810103126113c5576113bf90613255565b5f610d85565b8780fd5b3d91506113a1565b6304d54fbf60e41b8652600486fd5b90506020813d602011611412575b816113fb602093836130c1565b810103126111845761140c90613255565b5f610d44565b3d91506113ee565b90506020813d602011611451575b81611435602093836130c1565b8101031261118457602061144a600492613241565b9150610d12565b3d9150611428565b631b6b42c560e21b8652600486fd5b63078c29db60e31b8652600486fd5b50801515610ca1565b63078c29db60e31b8752600487fd5b50811580610c975750676765c793fa10079d601a1b8211610c97565b637616640160e01b8852600488fd5b506301e133808611610c8d565b63162908e360e11b8852600488fd5b506a52b7d2dcc80cd2e400000060643511610c7c565b63e6c4247b60e01b8852600488fd5b506001600160a01b0385163314610c6d565b6332da96a360e01b8852600488fd5b63e2517d3f60e01b8852336004525f51602061395e5f395f51905f52602452604488fd5b6306fda65d60e31b8852600488fd5b50346102ad5760203660031901126102ad5760043561156c6136b6565b6002600454146106de576002600455808252600f602052600a604083200154156106cf57808252600f6020526040822060028101546001600160a01b031633036106c0576009810160ff81541660088110156106ac5760010361164b57805460ff19166007179055805483526011602090815260408085208590556004830154338652601083528186206003909401546001600160a01b03165f908152939092529091208054909161161d91613123565b90557fb71becc91961a6b43bcc5b3b630f3dce02c7fd444cf3738c4f188062b1caf5bc8280a2600160045580f35b630151630960e31b8452600484fd5b50346102ad57806003193601126102ad57506116a360405161167d6040826130c1565b60058152640352e302e360dc1b60208201526040519182916020835260208301906130ff565b0390f35b50346102ad5760403660031901126102ad576116c1613017565b602435906116cd6132ba565b6002600454146117d157600260045581156117c25782546001600160a01b031680156117b35780845260106020526040842060018060a01b0383165f5260205260405f205480841161179c578361172391613208565b9084526010602090815260408086206001600160a01b039485165f818152919093522091909155835490929161175c9183911684613392565b82546040519182526001600160a01b0316907f8fc241308ffc17817e6a8c6a52a8f7cd4931dfca0c539fd35a630311c7e4c57b90602090a3600160045580f35b63ac28c08360e01b85526004849052602452604484fd5b63e6c4247b60e01b8452600484fd5b630686827b60e51b8352600483fd5b6306fda65d60e31b8352600483fd5b50346102ad5760203660031901126102ad576004356117fd6136b6565b6002600454146106de576002600455611814613303565b808252600f602052600a604083200154156106cf57808252600f602052604082206009810160ff81541660088110156106ac5760010361164b57908391600260ff198254161790554260058201558282526006602052611878604083205442613123565b600682015542600b820155600754815460018301546002909301546001600160a01b039384169391929082169116803b156104c1576118d193858094604051968795869485936332f65ba360e01b8552600485016131d5565b03925af180156109bc57611910575b505033907f8b6240997bc3af56f5a9aec0408b8286fb78fb0573f2ba96445be3918511cb938380a3600160045580f35b8161191a916130c1565b6109b857815f6118e0565b50346102ad57806003193601126102ad57602090604051908152f35b50346102ad5760203660031901126102ad5760209060ff906040906001600160a01b0361196c613017565b168152601284522054166040519015158152f35b50346102ad5760203660031901126102ad5761199a613017565b6119a26132ba565b6001600160a01b03168082526012602052604082205460ff1615611ae757808252601260205260408220805460ff1916905560135490825b828110611a0b575b83827f45f62f30e7b8439e0da7d8e560fe39d01238091ce9e789e3d12b514edf98acea8280a280f35b81611a1582613215565b905460039190911b1c6001600160a01b031614611a34576001016119da565b90915f198101908111611ad35790611a69611a51611a8d93613215565b905460039190911b1c6001600160a01b031691613215565b9080546001600160a01b0360039390931b83811b199091169290931690921b179055565b6013548015611abf575f1901611aa281613215565b81549060018060a01b039060031b1b19169055601355805f6119e2565b634e487b7160e01b83526031600452602483fd5b634e487b7160e01b84526011600452602484fd5b635a1303a760e01b8252600482fd5b50346102ad5760403660031901126102ad576040611b1261302d565b9160043581525f5160206138de5f395f51905f52602052209060018060a01b03165f52602052602060ff60405f2054166040519015158152f35b50346102ad57806003193601126102ad57602060405162278d008152f35b50346102ad57806003193601126102ad57611b836132ba565b611b8b6136b6565b600160ff195f5160206138fe5f395f51905f525416175f5160206138fe5f395f51905f52557f62e78cea01bee320cd4e420270b5ea74000d11b0c9f74754ebdbfc544b05a2586020604051338152a180f35b50346102ad5760203660031901126102ad57611bf7613017565b611bff6132ba565b6001600160a01b038116908115611ca857818352601260205260ff604084205416611c9957818352601260205260408320805460ff19166001179055601354600160401b811015611c855790611a69826001611c5e9401601355613215565b7f5f5916d70d5479c1795a9d461360dfa5c673bc37904c8ab4fcbdc970b9e90f3d8280a280f35b634e487b7160e01b84526041600452602484fd5b6389f2a03b60e01b8352600483fd5b63e6c4247b60e01b8352600483fd5b50346102ad5760203660031901126102ad57600435611cd46136b6565b6002600454146106de576002600455808252600f602052600a604083200154156106cf57808252600f6020526040822060018101546001600160a01b03163303610ba15760ff6009820154166008811015610b8d57600203610b7e57600b8101546202a3008101809111611ad3574210611e4b57600d8101805460ff8116611e3c5760ff19166001179055600481015483549091906001600160a01b031680151580611e31575b611de4575b503384526010602090815260408086206003909301546001600160a01b03165f90815292909152902080549091611db691613123565b90557f20bfb4862480da3b4193a710d36f6163b834fbd3ae8b768ecc5c7f421df4df508280a2600160045580f35b91611df7612710610638600154846131f5565b92855260106020908152604080872060038501546001600160a01b03165f9081529252902080549091611e2991613123565b90555f611d80565b506001541515611d7b565b63725e07e560e01b8552600485fd5b63e52e798f60e01b8352600483fd5b50346102ad5760203660031901126102ad57600435611e776132ba565b6107d08111611eb2576020817fd10d75876659a287a59a6ccfa2e3fff42f84d94b542837acd30bc184d562de4092600155604051908152a180f35b63499fddb160e01b8252600482fd5b50346102ad57806003193601126102ad5760206040515f51602061391e5f395f51905f528152f35b50346102ad57806003193601126102ad5760405160138054808352908352602082019081907f66de8ffda797e3de9c05e8fc57b3bf0ec28a930d40b0d285d93c06501cf6a09090855b818110611f925750505082611f489103836130c1565b604051928392602084019060208552518091526040840192915b818110611f70575050500390f35b82516001600160a01b0316845285945060209384019390920191600101611f62565b82546001600160a01b0316845260209093019260019283019201611f32565b503461210757602036600319011261210757600435611fce6136b6565b600260045414612195576002600455805f52600f602052600a60405f2001541561218657805f52600f60205260405f20600981019060ff825416600881101561217257600203612163576006810154421061215457600181019160018060a01b038354163314801561213e575b801561211a575b1561210b57805460ff1916600417905580545f90815260116020526040812055600754815460029092015492546001600160a01b03938416939081169116803b15612107576120ab935f8094604051968795869485936332f65ba360e01b8552600485016131d5565b03925af180156120fc576120e7575b507fcf230024caa09eb797262f4b8a440ff68d6569427807de536898b30c7db013008280a2600160045580f35b6120f49192505f906130c1565b5f905f6120ba565b6040513d5f823e3d90fd5b5f80fd5b631648fd0160e01b5f5260045ffd5b50335f9081525f51602061381e5f395f51905f52602052604090205460ff16612042565b5060028201546001600160a01b0316331461203b565b631d3eee6360e31b5f5260045ffd5b630417bc2360e11b5f5260045ffd5b634e487b7160e01b5f52602160045260245ffd5b630e7e621d60e01b5f5260045ffd5b6306fda65d60e31b5f5260045ffd5b34612107575f366003190112612107576121bc6132ba565b60ff600b54161561225c57600a546202a30081018091116122485742106122395760078054600980545f91829055600a829055600b8290556001600160a01b039081166001600160a01b031984168117909455909116907f92630c4fa2a21400d59ac392ff215899b98e68c94d5b9848d1014e641bf86bfd9080a3005b63197ba30b60e31b5f5260045ffd5b634e487b7160e01b5f52601160045260245ffd5b63689e751560e01b5f5260045ffd5b34612107575f366003190112612107575f546040516001600160a01b039091168152602090f35b34612107575f3660031901126121075760206040515f5160206138be5f395f51905f528152f35b34612107575f36600319011261210757602060ff5f5160206138fe5f395f51905f5254166040519015158152f35b34612107576040366003190112612107576024356004356001600160401b0382116121075736602383011215612107576004820135906001600160401b0382116121075736602483850101116121075761233f6136b6565b600260045414612195576002600455612356613303565b805f52600f602052600a60405f20015415612186578115801561252d575b61251e57805f52600f60205260405f20926009840160ff81541660088110156121725760010361250f57600660ff19825416179055600e8401936123c2846123bc875461314e565b87613186565b5f94601f8511600114612499576123ff85805f51602061389e5f395f51905f529697985f9161248b575b508160011b915f199060031b1c19161790565b90555b80545f908152601160209081526040808320839055600484015460028501546001600160a01b039081168552601084528285206003909601541684529390915290208054909161245191613123565b905583602460405192602084528260208501520160408301375f604085830101526040813395601f80199101168101030190a36001600455005b6024915086010135896123ec565b601f19851695815f5260205f20905f5b8881106124f45750865f51602061389e5f395f51905f52969798106124d8575b5050600186811b019055612402565b8401602401355f19600389901b60f8161c1916905586806124c9565b90916020600181926024868a010135815501930191016124a9565b630151630960e31b5f5260045ffd5b630ec0325960e21b5f5260045ffd5b506101008211612374565b34612107575f366003190112612107577f00000000000000000000000000000000000000000000000000000000000000006001600160a01b0316300361258f5760206040515f51602061387e5f395f51905f528152f35b63703e46dd60e11b5f5260045ffd5b346121075760203660031901126121075760043560606101c06040516125c3816130a5565b5f81525f60208201525f60408201525f838201525f60808201525f60a08201525f60c08201525f60e08201525f6101008201525f6101208201525f6101408201525f6101608201525f6101808201525f6101a08201520152805f52600f602052600a60405f20015415612186575f52600f60205260405f20604051612647816130a5565b8154815260018060a01b03600183015416916020820192835260018060a01b036002820154166040830190815260018060a01b03600383015416916060840192835260048101549360808101948552600582015460a08201908152600683015460c0830190815260ff60078501541660e084019015158152600885015491610100850192835260ff600987015416936101208601946008811015612172578552600a8701549961014087019a8b52600b8801549961016088019a8b52600c890154976101808101988952600e60ff600d8c0154169a6101a083019b15158c52019a604051809c5f9080549061273b8261314e565b8085529160018116908115612846575060011461280a575b505003612760908d6130c1565b6101c082019b8c526040805160208082529351938101939093529e516001600160a01b039081169f83019f909f52518e1660608201529051909c1660808d01525160a08c01525160c08b01525160e08a015251151561010089015251610120880152519360088510156121725786956116a3956101408801525161016087015251610180860152516101a08501525115156101c0840152516101e0808401526102008301906130ff565b5f908152602081209092505b81831061282b57505081016020015f80612753565b80602092948385600194549201015201910190918e92612816565b9150506020925060ff191682840152151560051b8201015f80612753565b604036600319011261210757612878613017565b602435906001600160401b03821161210757366023830112156121075781600401356128a3816130e4565b926128b160405194856130c1565b818452366024838301011161210757815f9260246020930183870137840101526001600160a01b037f000000000000000000000000000000000000000000000000000000000000000016308114908115612a69575b5061258f57335f9081525f51602061385e5f395f51905f52602052604090205460ff1615612a52576040516352d1902d60e01b81526001600160a01b0382169290602081600481875afa5f9181612a1e575b506129705783634c9c8ce360e01b5f5260045260245ffd5b805f51602061387e5f395f51905f52859203612a0c5750823b156129fa575f51602061387e5f395f51905f5280546001600160a01b031916821790557fbc7cd75a20ee27fd9adebab32041f755214dbc6bffa90cc0225b39da2e5c2d3b5f80a28051156129e2576129e091613771565b005b5050346129eb57005b63b398979f60e01b5f5260045ffd5b634c9c8ce360e01b5f5260045260245ffd5b632a87526960e21b5f5260045260245ffd5b9091506020813d602011612a4a575b81612a3a602093836130c1565b8101031261210757519085612958565b3d9150612a2d565b63e2517d3f60e01b5f52336004525f60245260445ffd5b5f51602061387e5f395f51905f52546001600160a01b03161415905083612906565b34612107575f366003190112612107576007546040516001600160a01b039091168152602090f35b34612107575f36600319011261210757612acb6132ba565b6003548015612b40574210612b31575f8054600280546001600160a01b038082166001600160a01b0319808616821787559092169092556003849055929116907f0c5d18caa145415182f8ad3d2563da586609cec04ac8505274d87bc43f00b4a49080a3005b6357f4ad8b60e01b5f5260045ffd5b6315090c2d60e01b5f5260045ffd5b3461210757604036600319011261210757612b68613017565b612b7061302d565b6001600160a01b039182165f908152601060209081526040808320949093168252928352819020549051908152f35b34612107575f36600319011261210757612bb76132ba565b5f5160206138fe5f395f51905f525460ff811615612c0e5760ff19165f5160206138fe5f395f51905f52557f5db9ee0a495bf2e6ff9c91a7834c1ba4fdd244a5e8aa4e537bd38aeae4b073aa6020604051338152a1005b638dfc202b60e01b5f5260045ffd5b3461210757604036600319011261210757612c3661302d565b336001600160a01b03821603612c52576129e09060043561361a565b63334bd91960e11b5f5260045ffd5b34612107575f366003190112612107576020600154604051908152f35b34612107576040366003190112612107576129e0600435612c9d61302d565b90612caa610a7e82613130565b613589565b34612107575f36600319011261210757604060018060a01b036002541660035482519182526020820152f35b34612107575f36600319011261210757612cf36132ba565b60ff600e54161561225c57600d546202a30081018091116122485742106122395760088054600c80545f91829055600d829055600e8290556001600160a01b039081166001600160a01b031984168117909455909116907f5c6d51380de48b3e0b986b2b05159d07234e14394089f2d4324d4d41463fecea9080a3005b34612107575f366003190112612107576020604051621275008152f35b34612107576020366003190112612107576020612dab600435613130565b604051908152f35b34612107576020366003190112612107576004355f526011602052602060405f2054604051908152f35b3461210757602036600319011261210757612df6613017565b600260045414612195576002600455335f52601060205260405f2060018060a01b0382165f5260205260405f2054908115612e9257335f52601060205260405f2060018060a01b0382165f526020525f604081205560018060a01b031690612e5f813384613392565b6040519081527f716942921e9b67ee05c4c2ffcf216f189086c9053b444c8928a49db4bdb1ae8e60203392a36001600455005b6312d37ee560e31b5f5260045ffd5b34612107575f3660031901126121075760206040516301e133808152f35b34612107576020366003190112612107576004355f526006602052602060405f2054604051908152f35b3461210757602036600319011261210757612f02613017565b612f0a6132ba565b6001600160a01b03168015612f8f57600160408051612f2881613076565b83815242602082015201528060018060a01b0319600c541617600c5542600d55600160ff19600e541617600e556202a30042018042116122485760207fbb7d160ff73c991124e1d9d5d874a2cedfda1815ea2008d4de055437a70093c791604051908152a2005b63e6c4247b60e01b5f5260045ffd5b346121075760203660031901126121075760043563ffffffff60e01b811680910361210757602090637965db0b60e01b8114908115612fe3575b506040519015158152f35b6301ffc9a760e01b14905082612fd8565b34612107575f36600319011261210757676765c793fa10079d601a1b8152602090f35b600435906001600160a01b038216820361210757565b602435906001600160a01b038216820361210757565b604435906001600160a01b038216820361210757565b34612107575f3660031901126121075760206040516202a3008152f35b606081019081106001600160401b0382111761309157604052565b634e487b7160e01b5f52604160045260245ffd5b6101e081019081106001600160401b0382111761309157604052565b601f909101601f19168101906001600160401b0382119082101761309157604052565b6001600160401b03811161309157601f01601f191660200190565b805180835260209291819084018484015e5f828201840152601f01601f1916010190565b9190820180921161224857565b5f525f5160206138de5f395f51905f52602052600160405f20015490565b90600182811c9216801561317c575b602083101461316857565b634e487b7160e01b5f52602260045260245ffd5b91607f169161315d565b601f821161319357505050565b5f5260205f20906020601f840160051c830193106131cb575b601f0160051c01905b8181106131c0575050565b5f81556001016131b5565b90915081906131ac565b9081526001600160a01b0391821660208201529116604082015260600190565b8181029291811591840414171561224857565b9190820391821161224857565b60135481101561322d5760135f5260205f2001905f90565b634e487b7160e01b5f52603260045260245ffd5b51906001600160a01b038216820361210757565b5190811515820361210757565b81601f8201121561210757805190613279826130e4565b9261328760405194856130c1565b8284526020838301011161210757815f9260208093018386015e8301015290565b519064ffffffffff8216820361210757565b335f9081525f51602061383e5f395f51905f52602052604090205460ff16156132df57565b63e2517d3f60e01b5f52336004525f51602061391e5f395f51905f5260245260445ffd5b335f9081525f51602061381e5f395f51905f52602052604090205460ff161561332857565b63e2517d3f60e01b5f52336004525f5160206138be5f395f51905f5260245260445ffd5b5f8181525f5160206138de5f395f51905f526020908152604080832033845290915290205460ff161561337c5750565b63e2517d3f60e01b5f523360045260245260445ffd5b916040519163a9059cbb60e01b5f5260018060a01b031660045260245260205f60448180865af19060015f51148216156133f2575b604052156133d25750565b635274afe760e01b5f9081526001600160a01b0391909116600452602490fd5b90600181151661340a57823b15153d151616906133c7565b503d5f823e3d90fd5b6001600160a01b0381165f9081525f51602061385e5f395f51905f52602052604090205460ff16613484576001600160a01b03165f8181525f51602061385e5f395f51905f5260205260408120805460ff191660011790553391905f5160206137fe5f395f51905f528180a4600190565b505f90565b6001600160a01b0381165f9081525f51602061383e5f395f51905f52602052604090205460ff16613484576001600160a01b03165f8181525f51602061383e5f395f51905f5260205260408120805460ff191660011790553391905f51602061391e5f395f51905f52905f5160206137fe5f395f51905f529080a4600190565b6001600160a01b0381165f9081525f51602061381e5f395f51905f52602052604090205460ff16613484576001600160a01b03165f8181525f51602061381e5f395f51905f5260205260408120805460ff191660011790553391905f5160206138be5f395f51905f52905f5160206137fe5f395f51905f529080a4600190565b5f8181525f5160206138de5f395f51905f52602090815260408083206001600160a01b038616845290915290205460ff16613614575f8181525f5160206138de5f395f51905f52602090815260408083206001600160a01b0395909516808452949091528120805460ff19166001179055339291905f5160206137fe5f395f51905f529080a4600190565b50505f90565b5f8181525f5160206138de5f395f51905f52602090815260408083206001600160a01b038616845290915290205460ff1615613614575f8181525f5160206138de5f395f51905f52602090815260408083206001600160a01b0395909516808452949091528120805460ff19169055339291907ff6391f5c32d9c69d2a47ea670b442974b53935d1edc7fd64eb21e047a839171b9080a4600190565b60ff5f5160206138fe5f395f51905f5254166136ce57565b63d93c066560e01b5f5260045ffd5b6040516323b872dd60e01b5f9081526001600160a01b039384166004529290931660245260449390935260209060648180865af19060015f511482161561372e575b6040525f606052156133d25750565b90600181151661340a57823b15153d1516169061371f565b60ff5f51602061393e5f395f51905f525460401c161561376257565b631afcd79f60e31b5f5260045ffd5b905f8091602081519101845af480806137ea575b156137a55750506040513d81523d5f602083013e60203d82010160405290565b156137ca57639996b31560e01b5f9081526001600160a01b0391909116600452602490fd5b3d156137db576040513d5f823e3d90fd5b63d6bda27560e01b5f5260045ffd5b503d1515806137855750813b151561378556fe2f8788117e7eff1d82e926ec794901d17c78024a50270940304540a733656f0d7a1492cadb22452d254c71a9ef0c781c9f2d1c472dc5213a713c8769ea04d819b16e88c42fd4e48df2dd6a2eabd6bc9aec654ec170056b470819f8892cc6431cb7db2dd08fcb62d0c9e08c51941cae53c267786a0b75803fb7960902fc8ef97d360894a13ba1a3210667c828492db98dca3e2076cc3735a920a3ca505d382bbcc7f0a5d6702aeeb1f6640f479d20ba8af5fe3fa2c0a0de39039aec64e812a55be4369475d33ca6555b45ac3cf081bee16c4b11779d89f812395c569b2de40f0102dd7bc7dec4dceedda775e58dd541e08a116c6c53815c0bd028192f7b626800cd5ed15c6e187e77e9aee88184c21f4f2182ab5827cb3b7e07fbedcd63f03300a49807205ce4d355092ef5a8a18f56e8913cf4a201fbe287825b095693c21775f0c57e16840df040f15088dc2f81fe391c3923bec73e23a9662efc9c229c6a00ba2dc669204b26427a432593e1c6ac86ab4ccc54d29c4287abbd1cefc1cb002ba2646970667358221220bbbaab2792db011989ac7fd37e508d134e03695968c4c32b1c6c54cc6484fed364736f6c634300081c0033f0c57e16840df040f15088dc2f81fe391c3923bec73e23a9662efc9c229c6a00",
  "linkReferences": {},
  "deployedLinkReferences": {},
  "immutableReferences": {
    "3035": [
      {
        "length": 32,
        "start": 9546
      },
      {
        "length": 32,
        "start": 10459
      }
    ]
  },
  "inputSourceName": "project/contracts/core/LoanEscrow.sol",
  "buildInfoId": "solc-0_8_28-e6e634edc385ce91d02ff410210fe20e8fd80dbf"
}