{
  "_format": "hh3-artifact-1",
  "contractName": "LoanEscrow",
  "sourceName": "contracts/core/LoanEscrow.sol",
  "abi": [
    {
      "inputs": [
        {
          "internalType": "address",
          "name": "_playerRegistry",
          "type": "address"
        },
        {
          "internalType": "address",
          "name": "_addressRegistry",
          "type": "address"
        }
      ],
      "stateMutability": "nonpayable",
      "type": "constructor"
    },
    {
      "inputs": [],
      "name": "AccessControlBadConfirmation",
      "type": "error"
    },
    {
      "inputs": [
        {
          "internalType": "address",
          "name": "account",
          "type": "address"
        },
        {
          "internalType": "bytes32",
          "name": "neededRole",
          "type": "bytes32"
        }
      ],
      "name": "AccessControlUnauthorizedAccount",
      "type": "error"
    },
    {
      "inputs": [],
      "name": "DisputeWindowActive",
      "type": "error"
    },
    {
      "inputs": [],
      "name": "EnforcedPause",
      "type": "error"
    },
    {
      "inputs": [],
      "name": "ExpectedPause",
      "type": "error"
    },
    {
      "inputs": [],
      "name": "InsufficientAllowance",
      "type": "error"
    },
    {
      "inputs": [],
      "name": "InvalidAddress",
      "type": "error"
    },
    {
      "inputs": [],
      "name": "InvalidAmount",
      "type": "error"
    },
    {
      "inputs": [],
      "name": "InvalidDuration",
      "type": "error"
    },
    {
      "inputs": [],
      "name": "InvalidOptionPrice",
      "type": "error"
    },
    {
      "inputs": [],
      "name": "InvalidString",
      "type": "error"
    },
    {
      "inputs": [],
      "name": "LoanAlreadyActive",
      "type": "error"
    },
    {
      "inputs": [],
      "name": "LoanFeeAlreadyClaimed",
      "type": "error"
    },
    {
      "inputs": [],
      "name": "LoanNotActive",
      "type": "error"
    },
    {
      "inputs": [],
      "name": "LoanNotFound",
      "type": "error"
    },
    {
      "inputs": [],
      "name": "LoanNotPending",
      "type": "error"
    },
    {
      "inputs": [],
      "name": "LoanStillActive",
      "type": "error"
    },
    {
      "inputs": [],
      "name": "NoOptionToBuy",
      "type": "error"
    },
    {
      "inputs": [],
      "name": "NotAuthorised",
      "type": "error"
    },
    {
      "inputs": [],
      "name": "NotBorrowingClub",
      "type": "error"
    },
    {
      "inputs": [],
      "name": "NotParentClub",
      "type": "error"
    },
    {
      "inputs": [],
      "name": "NothingToClaim",
      "type": "error"
    },
    {
      "inputs": [],
      "name": "OptionExpired",
      "type": "error"
    },
    {
      "inputs": [],
      "name": "ParentClubMismatch",
      "type": "error"
    },
    {
      "inputs": [],
      "name": "ParentClubNotRegistered",
      "type": "error"
    },
    {
      "inputs": [],
      "name": "PlayerNotListed",
      "type": "error"
    },
    {
      "inputs": [],
      "name": "RecallAlreadyRequested",
      "type": "error"
    },
    {
      "inputs": [],
      "name": "RecallNoticeNotMet",
      "type": "error"
    },
    {
      "inputs": [],
      "name": "ReentrancyGuardReentrantCall",
      "type": "error"
    },
    {
      "inputs": [
        {
          "internalType": "address",
          "name": "token",
          "type": "address"
        }
      ],
      "name": "SafeERC20FailedOperation",
      "type": "error"
    },
    {
      "inputs": [],
      "name": "TokenAlreadyApproved",
      "type": "error"
    },
    {
      "inputs": [],
      "name": "TokenNotApproved",
      "type": "error"
    },
    {
      "inputs": [],
      "name": "TokenNotInList",
      "type": "error"
    },
    {
      "inputs": [],
      "name": "TransferWindowClosed",
      "type": "error"
    },
    {
      "anonymous": false,
      "inputs": [
        {
          "indexed": true,
          "internalType": "address",
          "name": "recipient",
          "type": "address"
        },
        {
          "indexed": true,
          "internalType": "address",
          "name": "token",
          "type": "address"
        },
        {
          "indexed": false,
          "internalType": "uint256",
          "name": "amount",
          "type": "uint256"
        }
      ],
      "name": "FundsClaimed",
      "type": "event"
    },
    {
      "anonymous": false,
      "inputs": [
        {
          "indexed": true,
          "internalType": "uint256",
          "name": "loanId",
          "type": "uint256"
        },
        {
          "indexed": true,
          "internalType": "address",
          "name": "approver",
          "type": "address"
        }
      ],
      "name": "LoanApproved",
      "type": "event"
    },
    {
      "anonymous": false,
      "inputs": [
        {
          "indexed": true,
          "internalType": "uint256",
          "name": "loanId",
          "type": "uint256"
        }
      ],
      "name": "LoanCancelled",
      "type": "event"
    },
    {
      "anonymous": false,
      "inputs": [
        {
          "indexed": true,
          "internalType": "uint256",
          "name": "loanId",
          "type": "uint256"
        },
        {
          "indexed": true,
          "internalType": "uint256",
          "name": "playerId",
          "type": "uint256"
        },
        {
          "indexed": false,
          "internalType": "address",
          "name": "parentClub",
          "type": "address"
        },
        {
          "indexed": false,
          "internalType": "address",
          "name": "borrowingClub",
          "type": "address"
        },
        {
          "indexed": false,
          "internalType": "uint256",
          "name": "loanFee",
          "type": "uint256"
        }
      ],
      "name": "LoanCreated",
      "type": "event"
    },
    {
      "anonymous": false,
      "inputs": [
        {
          "indexed": true,
          "internalType": "uint256",
          "name": "loanId",
          "type": "uint256"
        }
      ],
      "name": "LoanExpired",
      "type": "event"
    },
    {
      "anonymous": false,
      "inputs": [
        {
          "indexed": true,
          "internalType": "uint256",
          "name": "loanId",
          "type": "uint256"
        }
      ],
      "name": "LoanFeeClaimed",
      "type": "event"
    },
    {
      "anonymous": false,
      "inputs": [
        {
          "indexed": true,
          "internalType": "uint256",
          "name": "loanId",
          "type": "uint256"
        }
      ],
      "name": "LoanRecalled",
      "type": "event"
    },
    {
      "anonymous": false,
      "inputs": [
        {
          "indexed": true,
          "internalType": "uint256",
          "name": "loanId",
          "type": "uint256"
        },
        {
          "indexed": true,
          "internalType": "address",
          "name": "approver",
          "type": "address"
        },
        {
          "indexed": false,
          "internalType": "string",
          "name": "reason",
          "type": "string"
        }
      ],
      "name": "LoanRejected",
      "type": "event"
    },
    {
      "anonymous": false,
      "inputs": [
        {
          "indexed": true,
          "internalType": "uint256",
          "name": "loanId",
          "type": "uint256"
        },
        {
          "indexed": false,
          "internalType": "uint256",
          "name": "optionPrice",
          "type": "uint256"
        }
      ],
      "name": "OptionExercised",
      "type": "event"
    },
    {
      "anonymous": false,
      "inputs": [
        {
          "indexed": false,
          "internalType": "address",
          "name": "account",
          "type": "address"
        }
      ],
      "name": "Paused",
      "type": "event"
    },
    {
      "anonymous": false,
      "inputs": [
        {
          "indexed": true,
          "internalType": "uint256",
          "name": "loanId",
          "type": "uint256"
        },
        {
          "indexed": false,
          "internalType": "uint256",
          "name": "recallExecutableAt",
          "type": "uint256"
        }
      ],
      "name": "RecallRequested",
      "type": "event"
    },
    {
      "anonymous": false,
      "inputs": [
        {
          "indexed": true,
          "internalType": "bytes32",
          "name": "role",
          "type": "bytes32"
        },
        {
          "indexed": true,
          "internalType": "bytes32",
          "name": "previousAdminRole",
          "type": "bytes32"
        },
        {
          "indexed": true,
          "internalType": "bytes32",
          "name": "newAdminRole",
          "type": "bytes32"
        }
      ],
      "name": "RoleAdminChanged",
      "type": "event"
    },
    {
      "anonymous": false,
      "inputs": [
        {
          "indexed": true,
          "internalType": "bytes32",
          "name": "role",
          "type": "bytes32"
        },
        {
          "indexed": true,
          "internalType": "address",
          "name": "account",
          "type": "address"
        },
        {
          "indexed": true,
          "internalType": "address",
          "name": "sender",
          "type": "address"
        }
      ],
      "name": "RoleGranted",
      "type": "event"
    },
    {
      "anonymous": false,
      "inputs": [
        {
          "indexed": true,
          "internalType": "bytes32",
          "name": "role",
          "type": "bytes32"
        },
        {
          "indexed": true,
          "internalType": "address",
          "name": "account",
          "type": "address"
        },
        {
          "indexed": true,
          "internalType": "address",
          "name": "sender",
          "type": "address"
        }
      ],
      "name": "RoleRevoked",
      "type": "event"
    },
    {
      "anonymous": false,
      "inputs": [
        {
          "indexed": true,
          "internalType": "address",
          "name": "token",
          "type": "address"
        }
      ],
      "name": "TokenApproved",
      "type": "event"
    },
    {
      "anonymous": false,
      "inputs": [
        {
          "indexed": true,
          "internalType": "address",
          "name": "token",
          "type": "address"
        }
      ],
      "name": "TokenRevoked",
      "type": "event"
    },
    {
      "anonymous": false,
      "inputs": [
        {
          "indexed": false,
          "internalType": "address",
          "name": "account",
          "type": "address"
        }
      ],
      "name": "Unpaused",
      "type": "event"
    },
    {
      "inputs": [],
      "name": "ADMIN_ROLE",
      "outputs": [
        {
          "internalType": "bytes32",
          "name": "",
          "type": "bytes32"
        }
      ],
      "stateMutability": "view",
      "type": "function"
    },
    {
      "inputs": [],
      "name": "CLUB_ROLE",
      "outputs": [
        {
          "internalType": "bytes32",
          "name": "",
          "type": "bytes32"
        }
      ],
      "stateMutability": "view",
      "type": "function"
    },
    {
      "inputs": [],
      "name": "DEFAULT_ADMIN_ROLE",
      "outputs": [
        {
          "internalType": "bytes32",
          "name": "",
          "type": "bytes32"
        }
      ],
      "stateMutability": "view",
      "type": "function"
    },
    {
      "inputs": [],
      "name": "DISPUTE_WINDOW",
      "outputs": [
        {
          "internalType": "uint256",
          "name": "",
          "type": "uint256"
        }
      ],
      "stateMutability": "view",
      "type": "function"
    },
    {
      "inputs": [],
      "name": "LEAGUE_ROLE",
      "outputs": [
        {
          "internalType": "bytes32",
          "name": "",
          "type": "bytes32"
        }
      ],
      "stateMutability": "view",
      "type": "function"
    },
    {
      "inputs": [],
      "name": "MAX_LOAN_DURATION",
      "outputs": [
        {
          "internalType": "uint256",
          "name": "",
          "type": "uint256"
        }
      ],
      "stateMutability": "view",
      "type": "function"
    },
    {
      "inputs": [],
      "name": "MAX_LOAN_FEE",
      "outputs": [
        {
          "internalType": "uint256",
          "name": "",
          "type": "uint256"
        }
      ],
      "stateMutability": "view",
      "type": "function"
    },
    {
      "inputs": [],
      "name": "MAX_PRICE",
      "outputs": [
        {
          "internalType": "uint256",
          "name": "",
          "type": "uint256"
        }
      ],
      "stateMutability": "view",
      "type": "function"
    },
    {
      "inputs": [],
      "name": "MIN_LOAN_DURATION",
      "outputs": [
        {
          "internalType": "uint256",
          "name": "",
          "type": "uint256"
        }
      ],
      "stateMutability": "view",
      "type": "function"
    },
    {
      "inputs": [],
      "name": "MIN_RECALL_NOTICE",
      "outputs": [
        {
          "internalType": "uint256",
          "name": "",
          "type": "uint256"
        }
      ],
      "stateMutability": "view",
      "type": "function"
    },
    {
      "inputs": [],
      "name": "addressRegistry",
      "outputs": [
        {
          "internalType": "contract IAddressRegistry",
          "name": "",
          "type": "address"
        }
      ],
      "stateMutability": "view",
      "type": "function"
    },
    {
      "inputs": [
        {
          "internalType": "uint256",
          "name": "loanId",
          "type": "uint256"
        }
      ],
      "name": "approveLoan",
      "outputs": [],
      "stateMutability": "nonpayable",
      "type": "function"
    },
    {
      "inputs": [
        {
          "internalType": "address",
          "name": "token",
          "type": "address"
        }
      ],
      "name": "approveToken",
      "outputs": [],
      "stateMutability": "nonpayable",
      "type": "function"
    },
    {
      "inputs": [
        {
          "internalType": "uint256",
          "name": "loanId",
          "type": "uint256"
        }
      ],
      "name": "cancelLoan",
      "outputs": [],
      "stateMutability": "nonpayable",
      "type": "function"
    },
    {
      "inputs": [
        {
          "internalType": "uint256",
          "name": "loanId",
          "type": "uint256"
        }
      ],
      "name": "claimLoanFee",
      "outputs": [],
      "stateMutability": "nonpayable",
      "type": "function"
    },
    {
      "inputs": [
        {
          "internalType": "uint256",
          "name": "playerId",
          "type": "uint256"
        },
        {
          "internalType": "address",
          "name": "parentClub",
          "type": "address"
        },
        {
          "internalType": "address",
          "name": "paymentToken",
          "type": "address"
        },
        {
          "internalType": "uint256",
          "name": "loanFee",
          "type": "uint256"
        },
        {
          "internalType": "uint256",
          "name": "loanDuration",
          "type": "uint256"
        },
        {
          "internalType": "bool",
          "name": "hasOptionToBuy",
          "type": "bool"
        },
        {
          "internalType": "uint256",
          "name": "optionPrice",
          "type": "uint256"
        }
      ],
      "name": "createLoan",
      "outputs": [
        {
          "internalType": "uint256",
          "name": "loanId",
          "type": "uint256"
        }
      ],
      "stateMutability": "nonpayable",
      "type": "function"
    },
    {
      "inputs": [
        {
          "internalType": "uint256",
          "name": "loanId",
          "type": "uint256"
        }
      ],
      "name": "executeRecall",
      "outputs": [],
      "stateMutability": "nonpayable",
      "type": "function"
    },
    {
      "inputs": [
        {
          "internalType": "uint256",
          "name": "loanId",
          "type": "uint256"
        }
      ],
      "name": "exerciseOption",
      "outputs": [],
      "stateMutability": "nonpayable",
      "type": "function"
    },
    {
      "inputs": [
        {
          "internalType": "uint256",
          "name": "playerId",
          "type": "uint256"
        }
      ],
      "name": "getActivePlayerLoan",
      "outputs": [
        {
          "internalType": "uint256",
          "name": "",
          "type": "uint256"
        }
      ],
      "stateMutability": "view",
      "type": "function"
    },
    {
      "inputs": [],
      "name": "getApprovedTokens",
      "outputs": [
        {
          "internalType": "address[]",
          "name": "",
          "type": "address[]"
        }
      ],
      "stateMutability": "view",
      "type": "function"
    },
    {
      "inputs": [
        {
          "internalType": "address",
          "name": "account",
          "type": "address"
        },
        {
          "internalType": "address",
          "name": "token",
          "type": "address"
        }
      ],
      "name": "getClaimable",
      "outputs": [
        {
          "internalType": "uint256",
          "name": "",
          "type": "uint256"
        }
      ],
      "stateMutability": "view",
      "type": "function"
    },
    {
      "inputs": [
        {
          "internalType": "uint256",
          "name": "loanId",
          "type": "uint256"
        }
      ],
      "name": "getLoan",
      "outputs": [
        {
          "components": [
            {
              "internalType": "uint256",
              "name": "playerId",
              "type": "uint256"
            },
            {
              "internalType": "address",
              "name": "parentClub",
              "type": "address"
            },
            {
              "internalType": "address",
              "name": "borrowingClub",
              "type": "address"
            },
            {
              "internalType": "address",
              "name": "paymentToken",
              "type": "address"
            },
            {
              "internalType": "uint256",
              "name": "loanFee",
              "type": "uint256"
            },
            {
              "internalType": "uint256",
              "name": "loanStart",
              "type": "uint256"
            },
            {
              "internalType": "uint256",
              "name": "loanExpiry",
              "type": "uint256"
            },
            {
              "internalType": "bool",
              "name": "hasOptionToBuy",
              "type": "bool"
            },
            {
              "internalType": "uint256",
              "name": "optionPrice",
              "type": "uint256"
            },
            {
              "internalType": "enum LoanEscrow.LoanState",
              "name": "state",
              "type": "uint8"
            },
            {
              "internalType": "uint256",
              "name": "createdAt",
              "type": "uint256"
            },
            {
              "internalType": "uint256",
              "name": "approvedAt",
              "type": "uint256"
            },
            {
              "internalType": "uint256",
              "name": "recallRequestedAt",
              "type": "uint256"
            },
            {
              "internalType": "bool",
              "name": "loanFeeClaimed",
              "type": "bool"
            },
            {
              "internalType": "string",
              "name": "rejectionReason",
              "type": "string"
            }
          ],
          "internalType": "struct LoanEscrow.Loan",
          "name": "",
          "type": "tuple"
        }
      ],
      "stateMutability": "view",
      "type": "function"
    },
    {
      "inputs": [
        {
          "internalType": "uint256",
          "name": "loanId",
          "type": "uint256"
        }
      ],
      "name": "getLoanDuration",
      "outputs": [
        {
          "internalType": "uint256",
          "name": "",
          "type": "uint256"
        }
      ],
      "stateMutability": "view",
      "type": "function"
    },
    {
      "inputs": [
        {
          "internalType": "bytes32",
          "name": "role",
          "type": "bytes32"
        }
      ],
      "name": "getRoleAdmin",
      "outputs": [
        {
          "internalType": "bytes32",
          "name": "",
          "type": "bytes32"
        }
      ],
      "stateMutability": "view",
      "type": "function"
    },
    {
      "inputs": [
        {
          "internalType": "bytes32",
          "name": "role",
          "type": "bytes32"
        },
        {
          "internalType": "address",
          "name": "account",
          "type": "address"
        }
      ],
      "name": "grantRole",
      "outputs": [],
      "stateMutability": "nonpayable",
      "type": "function"
    },
    {
      "inputs": [
        {
          "internalType": "bytes32",
          "name": "role",
          "type": "bytes32"
        },
        {
          "internalType": "address",
          "name": "account",
          "type": "address"
        }
      ],
      "name": "hasRole",
      "outputs": [
        {
          "internalType": "bool",
          "name": "",
          "type": "bool"
        }
      ],
      "stateMutability": "view",
      "type": "function"
    },
    {
      "inputs": [
        {
          "internalType": "address",
          "name": "token",
          "type": "address"
        }
      ],
      "name": "isTokenApproved",
      "outputs": [
        {
          "internalType": "bool",
          "name": "",
          "type": "bool"
        }
      ],
      "stateMutability": "view",
      "type": "function"
    },
    {
      "inputs": [],
      "name": "pause",
      "outputs": [],
      "stateMutability": "nonpayable",
      "type": "function"
    },
    {
      "inputs": [],
      "name": "paused",
      "outputs": [
        {
          "internalType": "bool",
          "name": "",
          "type": "bool"
        }
      ],
      "stateMutability": "view",
      "type": "function"
    },
    {
      "inputs": [],
      "name": "playerRegistry",
      "outputs": [
        {
          "internalType": "contract IPlayerRegistry",
          "name": "",
          "type": "address"
        }
      ],
      "stateMutability": "view",
      "type": "function"
    },
    {
      "inputs": [
        {
          "internalType": "uint256",
          "name": "loanId",
          "type": "uint256"
        },
        {
          "internalType": "string",
          "name": "reason",
          "type": "string"
        }
      ],
      "name": "rejectLoan",
      "outputs": [],
      "stateMutability": "nonpayable",
      "type": "function"
    },
    {
      "inputs": [
        {
          "internalType": "bytes32",
          "name": "role",
          "type": "bytes32"
        },
        {
          "internalType": "address",
          "name": "callerConfirmation",
          "type": "address"
        }
      ],
      "name": "renounceRole",
      "outputs": [],
      "stateMutability": "nonpayable",
      "type": "function"
    },
    {
      "inputs": [
        {
          "internalType": "uint256",
          "name": "loanId",
          "type": "uint256"
        }
      ],
      "name": "requestRecall",
      "outputs": [],
      "stateMutability": "nonpayable",
      "type": "function"
    },
    {
      "inputs": [
        {
          "internalType": "bytes32",
          "name": "role",
          "type": "bytes32"
        },
        {
          "internalType": "address",
          "name": "account",
          "type": "address"
        }
      ],
      "name": "revokeRole",
      "outputs": [],
      "stateMutability": "nonpayable",
      "type": "function"
    },
    {
      "inputs": [
        {
          "internalType": "address",
          "name": "token",
          "type": "address"
        }
      ],
      "name": "revokeToken",
      "outputs": [],
      "stateMutability": "nonpayable",
      "type": "function"
    },
    {
      "inputs": [
        {
          "internalType": "uint256",
          "name": "loanId",
          "type": "uint256"
        }
      ],
      "name": "settleLoanExpiry",
      "outputs": [],
      "stateMutability": "nonpayable",
      "type": "function"
    },
    {
      "inputs": [
        {
          "internalType": "bytes4",
          "name": "interfaceId",
          "type": "bytes4"
        }
      ],
      "name": "supportsInterface",
      "outputs": [
        {
          "internalType": "bool",
          "name": "",
          "type": "bool"
        }
      ],
      "stateMutability": "view",
      "type": "function"
    },
    {
      "inputs": [],
      "name": "totalLoans",
      "outputs": [
        {
          "internalType": "uint256",
          "name": "",
          "type": "uint256"
        }
      ],
      "stateMutability": "view",
      "type": "function"
    },
    {
      "inputs": [],
      "name": "unpause",
      "outputs": [],
      "stateMutability": "nonpayable",
      "type": "function"
    },
    {
      "inputs": [
        {
          "internalType": "address",
          "name": "token",
          "type": "address"
        }
      ],
      "name": "withdrawClaimable",
      "outputs": [],
      "stateMutability": "nonpayable",
      "type": "function"
    }
  ],
  "bytecode": "0x60c03461010f57601f612da038819003918201601f19168301916001600160401b0383118484101761011357808492604094855283398101031261010f57610052602061004b83610127565b9201610127565b60017f9b779b17422d0df92223018b32b4d1fa46e071723d6817e2486d003becc55f00556001600160a01b03909116908115610100576001600160a01b03169081156101005760805260a0526100a73361013b565b506100b1336101b1565b506100bb33610244565b50604051612a4890816102d882396080518181816104d50152818161095a0152818161130701528181611a0801526120e2015260a0518181816103d801526108cb0152f35b63e6c4247b60e01b5f5260045ffd5b5f80fd5b634e487b7160e01b5f52604160045260245ffd5b51906001600160a01b038216820361010f57565b6001600160a01b0381165f9081525f516020612d805f395f51905f52602052604090205460ff166101ac576001600160a01b03165f8181525f516020612d805f395f51905f5260205260408120805460ff191660011790553391905f516020612d205f395f51905f528180a4600190565b505f90565b6001600160a01b0381165f9081525f516020612d405f395f51905f52602052604090205460ff166101ac576001600160a01b03165f8181525f516020612d405f395f51905f5260205260408120805460ff191660011790553391907fa49807205ce4d355092ef5a8a18f56e8913cf4a201fbe287825b095693c21775905f516020612d205f395f51905f529080a4600190565b6001600160a01b0381165f9081525f516020612d605f395f51905f52602052604090205460ff166101ac576001600160a01b03165f8181525f516020612d605f395f51905f5260205260408120805460ff191660011790553391907fe4369475d33ca6555b45ac3cf081bee16c4b11779d89f812395c569b2de40f01905f516020612d205f395f51905f529080a460019056fe6080806040526004361015610012575f80fd5b5f905f3560e01c90816301c11d961461246b5750806301ffc9a7146124155780630a5875df146123eb5780630d0b2ca6146123cd5780631510f85a146122ab5780631c82e10c14612281578063248a9ca31461225b578063280c729e1461223e5780632f2ff15d1461220d57806336568abe146121c75780633f4ba83a146121615780633fb81428146121115780634c74ef9c146120cd578063504006ca14611de857806352ee8f8114611b925780635c975abb14611b7057806360e49e4414611b4957806368de026a146119425780636afc0c5f1461187a57806375b238fc146118525780637ac0296c1461171e57806380b2edd8146116445780638456cb59146115ea57806389d99a05146115cc57806391d1485414611583578063933f4eef1461140d5780639d93d352146113ce578063a217fddf146113b2578063aadc1ac11461124c578063bdbfa3de1461113c578063bfdbd35414610792578063ca6d894c14610673578063cc952b5714610655578063d547741f1461061a578063d7dd3e13146105f4578063e703c34114610407578063f3ad65f4146103c2578063f52f25261461021e578063f585dc57146102005763fc8045b1146101d6575f80fd5b346101fd57806003193601126101fd5760206040515f5160206129f35f395f51905f528152f35b80fd5b50346101fd57806003193601126101fd5760206040516202a3008152f35b50346101fd5760203660031901126101fd5760043561023b6128a5565b610243612688565b8082526004602052600a604083200154156103b35780825260046020526040822060028101546001600160a01b031633036103a4576009810160ff8154166008811015610390576002036103815760ff60078301541615610372576006820154421015610363577f709a635a5462396a92927c659d5d8a7f96393228713769a8f62818093d8296c491602091600360ff198254161790558054855260068252846040812055600381019060018060a01b038254169161030c6008830193845490309033906128c0565b82546001909201546001600160a01b03908116885260058552604080892092549091165f908152918552902080549091610345916125a5565b905554604051908152a260015f5160206129b35f395f51905f525580f35b637676819d60e01b8452600484fd5b632b5ce7f960e01b8452600484fd5b630417bc2360e11b8452600484fd5b634e487b7160e01b85526021600452602485fd5b63bb6a920360e01b8352600483fd5b630e7e621d60e01b8252600482fd5b50346101fd57806003193601126101fd576040517f00000000000000000000000000000000000000000000000000000000000000006001600160a01b03168152602090f35b50346101fd5760203660031901126101fd576004356104246128a5565b61042c612688565b8082526004602052600a604083200154156103b3578082526004602052604082206001810180549091906001600160a01b031633036105e5576009810160ff81541660088110156105d1576002036105c257600c82015480156105b35762127500810180911161059f57421061059057805460ff19166005179055805484526006602052604084208490558054600290910154915484926001600160a01b0390811692918116907f000000000000000000000000000000000000000000000000000000000000000016803b1561058c5761052093858094604051968795869485936332f65ba360e01b8552600485016125c6565b03925af1801561058157610568575b50807f8df6bd0836f79acc777da158b67e3d8ec5f0379e33e5b0ee4042f36b63e0dac691a260015f5160206129b35f395f51905f525580f35b81610572916124fb565b61057d57815f61052f565b5080fd5b6040513d84823e3d90fd5b8480fd5b630eae5de960e41b8552600485fd5b634e487b7160e01b86526011600452602486fd5b630417bc2360e11b8652600486fd5b630417bc2360e11b8552600485fd5b634e487b7160e01b86526021600452602486fd5b635ff4d53d60e11b8452600484fd5b50346101fd57806003193601126101fd5760206040516a52b7d2dcc80cd2e40000008152f35b50346101fd5760403660031901126101fd5761065160043561063a6124a4565b9061064c610647826124ba565b612765565b612825565b5080f35b50346101fd57806003193601126101fd576020600254604051908152f35b50346101fd5760203660031901126101fd576004356106906128a5565b610698612688565b8082526004602052600a604083200154156103b35780825260046020526040822060018101546001600160a01b031633036107835760ff600982015416600881101561076f5760020361076057600c0180546107515742905562127500420180421161073d5760207f137bca46c339f56597111b02712a00598fcfede500a9019fa84e89a9625e46d391604051908152a260015f5160206129b35f395f51905f525580f35b634e487b7160e01b83526011600452602483fd5b63bfbd663f60e01b8352600483fd5b630417bc2360e11b8352600483fd5b634e487b7160e01b84526021600452602484fd5b635ff4d53d60e11b8352600483fd5b50346101fd5760e03660031901126101fd576107ac6124a4565b604435906001600160a01b0382168203611138576084359060a43592831593841594858203610d9d5760c435916107e16128a5565b6107e9612688565b5f5160206129f35f395f51905f52885260208881526040808a20335f908152925290205460ff1615611114576001600160a01b03841688526007602052604088205460ff1615611105576001600160a01b0385161580156110f3575b6110e4576064351580156110ce575b6110bf5762278d00861080156110b2575b6110a35780611087575b611078578061106f575b611060576004358652600660205260408620546110515760405163023aa9ab60e61b81527fd8e6c8b39dbc70333b42d059fa436cf2679722325c0f6ed7e701df0b05a637c860048201526020816024817f00000000000000000000000000000000000000000000000000000000000000006001600160a01b03165afa908115610da9578791611012575b50604051636896470560e11b815290602090829060049082906001600160a01b03165afa908115610da9578791610fd8575b5015610fc957604051637c63fad160e11b81526001600160a01b0384811660048301527f00000000000000000000000000000000000000000000000000000000000000001690602081602481855afa908115610f71578891610f8b575b5015610f7c57604051631cab5c9d60e31b815260048035908201528781602481855afa8015610f71578890610dc3575b6101009150015115610db4576020602491604051928380926369d146b560e11b825260043560048301525afa908115610da9578791610d6b575b506001600160a01b03848116911603610d5c57600254935f198514610d4857600185016002556001850187526003602052604087205560405194610a3f866124cb565b600435865260018060a01b038416602087015233604087015260018060a01b038316606087015260643560808701528660a08701528660c087015260e08601526101008501526001610120850152426101408501528461016085015284610180850152846101a0850152602094604051610ab987826124fb565b8181526101c0860152600184810182526004808852604080842088518155602089015193810180546001600160a01b039586166001600160a01b0319918216179091559189015160028201805491861691841691909117905560608901516003820180549190951692169190911790925560808701519082015560a0860151600582015560c0860151600682015560e086015160078201805460ff191691151560ff16919091179055610100860151600882015560098101610120870151600881101561076f5791600e916101c09360ff80198354169116179055610140880151600a820155610160880151600b820155610180880151600c820155610bd56101a08901511515600d83019060ff801983541691151516179055565b019501519485519560018060401b038711610d3457610bfe87610bf8845461251e565b84612556565b8790601f8811600114610ccd579680610c3292610c5e9798998692610cc2575b50508160011b915f199060031b1c19161790565b90555b6004358152600686526040902060018501905560643590309033906001600160a01b03166128c0565b6040519060018060a01b0316815233838201526064356040820152600435907fec926f063e0466751bf68c0a9b95fdf34abcbdc487c5cf1bcee4bf02c41d0e6f60606001850192a360015f5160206129b35f395f51905f5255600160405191018152f35b015190505f80610c1e565b8284528884209190601f198916855b8b828210610d1e57505091600193918a610c5e999a9b9410610d06575b505050811b019055610c35565b01515f1960f88460031b161c191690555f8080610cf9565b6001859682939686015181550195019301610cdc565b634e487b7160e01b83526041600452602483fd5b634e487b7160e01b87526011600452602487fd5b634059dd3960e11b8652600486fd5b90506020813d602011610da1575b81610d86602093836124fb565b81010312610d9d57610d9790612612565b5f6109fc565b8680fd5b3d9150610d79565b6040513d89823e3d90fd5b630657e2c760e21b8752600487fd5b503d8089833e610dd381836124fb565b810190602081830312610f69578051906001600160401b038211610f6d57019061020082820312610f69576040519061020082016001600160401b03811183821017610f55576040528251825260208301516001600160401b038111610f515781610e3f918501612633565b602083015260408301516001600160401b038111610f515781610e63918501612633565b604083015260608301516001600160401b038111610f515781610e87918501612633565b60608301526080830151608083015260a083015160a0830152610eac60c08401612612565b60c0830152610ebd60e08401612626565b60e0830152610ecf6101008401612626565b610100830152610ee26101208401612626565b6101208301526101408301516101408301526101608301516101608301526101808301516101808301526101a08301516101a08301526101c08301519260018060401b038411610f5157610f3e6101e092610100958301612633565b6101c084015201516101e08201526109c2565b8a80fd5b634e487b7160e01b8b52604160045260248bfd5b8880fd5b8980fd5b6040513d8a823e3d90fd5b63029d65d560e51b8752600487fd5b90506020813d602011610fc1575b81610fa6602093836124fb565b81010312610fbd57610fb790612626565b5f610992565b8780fd5b3d9150610f99565b6304d54fbf60e41b8652600486fd5b90506020813d60201161100a575b81610ff3602093836124fb565b81010312610d9d5761100490612626565b5f610935565b3d9150610fe6565b90506020813d602011611049575b8161102d602093836124fb565b81010312610d9d576020611042600492612612565b9150610903565b3d9150611020565b631b6b42c560e21b8652600486fd5b63078c29db60e31b8652600486fd5b50801515610879565b63078c29db60e31b8752600487fd5b5081158061086f5750676765c793fa10079d601a1b821161086f565b637616640160e01b8852600488fd5b506301e133808611610865565b63162908e360e11b8852600488fd5b506a52b7d2dcc80cd2e400000060643511610854565b63e6c4247b60e01b8852600488fd5b506001600160a01b0385163314610845565b6332da96a360e01b8852600488fd5b63e2517d3f60e01b8852336004525f5160206129f35f395f51905f52602452604488fd5b8280fd5b50346101fd5760203660031901126101fd576004356111596128a5565b611161612688565b8082526004602052600a604083200154156103b35780825260046020526040822060028101546001600160a01b031633036103a4576009810160ff81541660088110156103905760010361123d57805460ff19166007179055805483526006602090815260408085208590556004830154338652600583528186206003909401546001600160a01b03165f9081529390925290912080549091611203916125a5565b90557fb71becc91961a6b43bcc5b3b630f3dce02c7fd444cf3738c4f188062b1caf5bc8280a260015f5160206129b35f395f51905f525580f35b630151630960e31b8452600484fd5b50346101fd5760203660031901126101fd576004356112696128a5565b611271612688565b61127961271c565b8082526004602052600a604083200154156103b3578082526004602052604082206009810160ff81541660088110156103905760010361123d57908391600260ff1982541617905542600582015582825260036020526112dd6040832054426125a5565b600682015542600b820155805460018201546002909201546001600160a01b0392831692908116907f000000000000000000000000000000000000000000000000000000000000000016803b1561058c5761135293858094604051968795869485936332f65ba360e01b8552600485016125c6565b03925af180156105815761139d575b505033907f8b6240997bc3af56f5a9aec0408b8286fb78fb0573f2ba96445be3918511cb938380a360015f5160206129b35f395f51905f525580f35b816113a7916124fb565b61057d57815f611361565b50346101fd57806003193601126101fd57602090604051908152f35b50346101fd5760203660031901126101fd5760209060ff906040906001600160a01b036113f961248e565b168152600784522054166040519015158152f35b50346101fd5760203660031901126101fd5761142761248e565b61142f6126c0565b6001600160a01b03168082526007602052604082205460ff161561157457808252600760205260408220805460ff1916905560085490825b828110611498575b83827f45f62f30e7b8439e0da7d8e560fe39d01238091ce9e789e3d12b514edf98acea8280a280f35b816114a2826125e6565b905460039190911b1c6001600160a01b0316146114c157600101611467565b90915f19810190811161156057906114f66114de61151a936125e6565b905460039190911b1c6001600160a01b0316916125e6565b9080546001600160a01b0360039390931b83811b199091169290931690921b179055565b600854801561154c575f190161152f816125e6565b81549060018060a01b039060031b1b19169055600855805f61146f565b634e487b7160e01b83526031600452602483fd5b634e487b7160e01b84526011600452602484fd5b635a1303a760e01b8252600482fd5b50346101fd5760403660031901126101fd57604061159f6124a4565b91600435815280602052209060018060a01b03165f52602052602060ff60405f2054166040519015158152f35b50346101fd57806003193601126101fd57602060405162278d008152f35b50346101fd57806003193601126101fd576116036126c0565b61160b6128a5565b600160ff19815416176001557f62e78cea01bee320cd4e420270b5ea74000d11b0c9f74754ebdbfc544b05a2586020604051338152a180f35b50346101fd5760203660031901126101fd5761165e61248e565b6116666126c0565b6001600160a01b03811690811561170f57818352600760205260ff60408420541661170057818352600760205260408320805460ff19166001179055600854600160401b8110156116ec57906114f68260016116c594016008556125e6565b7f5f5916d70d5479c1795a9d461360dfa5c673bc37904c8ab4fcbdc970b9e90f3d8280a280f35b634e487b7160e01b84526041600452602484fd5b6389f2a03b60e01b8352600483fd5b63e6c4247b60e01b8352600483fd5b50346101fd5760203660031901126101fd5760043561173b6128a5565b611743612688565b8082526004602052600a604083200154156103b35780825260046020526040822060018101546001600160a01b031633036107835760ff600982015416600881101561076f5760020361076057600b8101546202a300810180911161156057421061184357600d8101805460ff81166118345760ff1916600117905560048101543384526005602090815260408086206003909401546001600160a01b03165f90815293909152909120805490916117fa916125a5565b90557f20bfb4862480da3b4193a710d36f6163b834fbd3ae8b768ecc5c7f421df4df508280a260015f5160206129b35f395f51905f525580f35b63725e07e560e01b8552600485fd5b63e52e798f60e01b8352600483fd5b50346101fd57806003193601126101fd5760206040515f5160206129d35f395f51905f528152f35b50346101fd57806003193601126101fd5760405160088054808352908352602082019081907ff3f7a9fe364faab93b216da50a3214154f22a0a2b415b23a84c8169e8b636ee390855b81811061192357505050826118d99103836124fb565b604051928392602084019060208552518091526040840192915b818110611901575050500390f35b82516001600160a01b03168452859450602093840193909201916001016118f3565b82546001600160a01b03168452602090930192600192830192016118c3565b5034611abb576020366003190112611abb5760043561195f6128a5565b611967612688565b805f526004602052600a60405f20015415611b3a57805f52600460205260405f20600981019060ff8254166008811015611b2657600203611b175760068101544210611b0857600181019160018060a01b0383541633148015611af2575b8015611ace575b15611abf57805460ff1916600417905580545f90815260066020526040812055805460029091015491546001600160a01b0392831692908116907f000000000000000000000000000000000000000000000000000000000000000016803b15611abb57611a53935f8094604051968795869485936332f65ba360e01b8552600485016125c6565b03925af18015611ab057611a9b575b507fcf230024caa09eb797262f4b8a440ff68d6569427807de536898b30c7db013008280a260015f5160206129b35f395f51905f525580f35b611aa89192505f906124fb565b5f905f611a62565b6040513d5f823e3d90fd5b5f80fd5b631648fd0160e01b5f5260045ffd5b50335f9081525f5160206129535f395f51905f52602052604090205460ff166119cc565b5060028201546001600160a01b031633146119c5565b631d3eee6360e31b5f5260045ffd5b630417bc2360e11b5f5260045ffd5b634e487b7160e01b5f52602160045260245ffd5b630e7e621d60e01b5f5260045ffd5b34611abb575f366003190112611abb5760206040515f5160206129935f395f51905f528152f35b34611abb575f366003190112611abb57602060ff600154166040519015158152f35b34611abb576040366003190112611abb576024356004356001600160401b038211611abb5736602383011215611abb576004820135906001600160401b038211611abb573660248385010111611abb57611bea6128a5565b611bf2612688565b611bfa61271c565b805f526004602052600a60405f20015415611b3a5781158015611ddd575b611dce57805f52600460205260405f20926009840160ff8154166008811015611b2657600103611dbf57600660ff19825416179055600e840193611c6684611c60875461251e565b87612556565b5f94601f8511600114611d4957611ca385805f5160206129735f395f51905f529697985f91611d3b575b508160011b915f199060031b1c19161790565b90555b80545f908152600660209081526040808320839055600484015460028501546001600160a01b0390811685526005845282852060039096015416845293909152902080549091611cf5916125a5565b905583602460405192602084528260208501520160408301375f604085830101526040813395601f80199101168101030190a360015f5160206129b35f395f51905f5255005b602491508601013589611c90565b601f19851695815f5260205f20905f5b888110611da45750865f5160206129735f395f51905f5296979810611d88575b5050600186811b019055611ca6565b8401602401355f19600389901b60f8161c191690558680611d79565b90916020600181926024868a01013581550193019101611d59565b630151630960e31b5f5260045ffd5b630ec0325960e21b5f5260045ffd5b506101008211611c18565b34611abb576020366003190112611abb5760043560606101c0604051611e0d816124cb565b5f81525f60208201525f60408201525f838201525f60808201525f60a08201525f60c08201525f60e08201525f6101008201525f6101208201525f6101408201525f6101608201525f6101808201525f6101a08201520152805f526004602052600a60405f20015415611b3a575f52600460205260405f20604051611e91816124cb565b8154815260018060a01b03600183015416916020820192835260018060a01b03600282015416916040810192835260018060a01b03600383015416926060820193845260048301549260808301938452600581015460a08401908152600682015460c0850190815260ff60078401541660e086019015158152600884015491610100870192835260ff600986015416936101208801946008811015611b26578552600a860154986101408901998a52600b8701549a6101608a019b8c52600c8801549961018081019a8b52600e60ff600d8b015416996101a083019a15158b520199604051809b5f90805490611f868261251e565b80855291600181169081156120af5750600114612073575b505003611fab908c6124fb565b6101c082019a8b526040805160208082529351938101939093529e516001600160a01b039081169f83019f909f52518e1660608201529051909c1660808d01525160a08c01525160c08b01525160e08a01525115156101008901525161012088015251926008841015611b26576102209587956020956101408801525161016087015251610180860152516101a08501525115156101c0840152516101e080840152805191829182610200860152018484015e5f828201840152601f01601f19168101030190f35b5f908152602081209092505b81831061209457505081016020015f80611f9e565b80602092948385600194549201015201910190918d9261207f565b9150506020925060ff191682840152151560051b8201015f80611f9e565b34611abb575f366003190112611abb576040517f00000000000000000000000000000000000000000000000000000000000000006001600160a01b03168152602090f35b34611abb576040366003190112611abb5761212a61248e565b6121326124a4565b6001600160a01b039182165f908152600560209081526040808320949093168252928352819020549051908152f35b34611abb575f366003190112611abb576121796126c0565b60015460ff8116156121b85760ff19166001557f5db9ee0a495bf2e6ff9c91a7834c1ba4fdd244a5e8aa4e537bd38aeae4b073aa6020604051338152a1005b638dfc202b60e01b5f5260045ffd5b34611abb576040366003190112611abb576121e06124a4565b336001600160a01b038216036121fe576121fc90600435612825565b005b63334bd91960e11b5f5260045ffd5b34611abb576040366003190112611abb576121fc60043561222c6124a4565b90612239610647826124ba565b61279d565b34611abb575f366003190112611abb576020604051621275008152f35b34611abb576020366003190112611abb5760206122796004356124ba565b604051908152f35b34611abb576020366003190112611abb576004355f526006602052602060405f2054604051908152f35b34611abb576020366003190112611abb576122c461248e565b6122cc612688565b335f52600560205260405f2060018060a01b0382165f5260205260405f20549081156123be57335f52600560205260405f2060018060a01b0382165f526020525f604081205560018060a01b0316906040519063a9059cbb60e01b5f52336004528060245260205f60448180875af160015f511481161561239f575b826040521561238c5781527f716942921e9b67ee05c4c2ffcf216f189086c9053b444c8928a49db4bdb1ae8e60203392a360015f5160206129b35f395f51905f5255005b82635274afe760e01b5f5260045260245ffd5b60018115166123b557833b15153d151616612348565b823d5f823e3d90fd5b6312d37ee560e31b5f5260045ffd5b34611abb575f366003190112611abb5760206040516301e133808152f35b34611abb576020366003190112611abb576004355f526003602052602060405f2054604051908152f35b34611abb576020366003190112611abb5760043563ffffffff60e01b8116809103611abb57602090637965db0b60e01b811490811561245a575b506040519015158152f35b6301ffc9a760e01b1490508261244f565b34611abb575f366003190112611abb57676765c793fa10079d601a1b8152602090f35b600435906001600160a01b0382168203611abb57565b602435906001600160a01b0382168203611abb57565b5f525f602052600160405f20015490565b6101e081019081106001600160401b038211176124e757604052565b634e487b7160e01b5f52604160045260245ffd5b601f909101601f19168101906001600160401b038211908210176124e757604052565b90600182811c9216801561254c575b602083101461253857565b634e487b7160e01b5f52602260045260245ffd5b91607f169161252d565b601f821161256357505050565b5f5260205f20906020601f840160051c8301931061259b575b601f0160051c01905b818110612590575050565b5f8155600101612585565b909150819061257c565b919082018092116125b257565b634e487b7160e01b5f52601160045260245ffd5b9081526001600160a01b0391821660208201529116604082015260600190565b6008548110156125fe5760085f5260205f2001905f90565b634e487b7160e01b5f52603260045260245ffd5b51906001600160a01b0382168203611abb57565b51908115158203611abb57565b81601f82011215611abb578051906001600160401b0382116124e75760405192612667601f8401601f1916602001856124fb565b82845260208383010111611abb57815f9260208093018386015e8301015290565b60025f5160206129b35f395f51905f5254146126b15760025f5160206129b35f395f51905f5255565b633ee5aeb560e01b5f5260045ffd5b335f9081527f7d7ffb7a348e1c6a02869081a26547b49160dd3df72d1d75a570eb9b698292ec602052604090205460ff16156126f857565b63e2517d3f60e01b5f52336004525f5160206129d35f395f51905f5260245260445ffd5b335f9081525f5160206129535f395f51905f52602052604090205460ff161561274157565b63e2517d3f60e01b5f52336004525f5160206129935f395f51905f5260245260445ffd5b5f8181526020818152604080832033845290915290205460ff16156127875750565b63e2517d3f60e01b5f523360045260245260445ffd5b5f818152602081815260408083206001600160a01b038616845290915290205460ff1661281f575f818152602081815260408083206001600160a01b0395909516808452949091528120805460ff19166001179055339291907f2f8788117e7eff1d82e926ec794901d17c78024a50270940304540a733656f0d9080a4600190565b50505f90565b5f818152602081815260408083206001600160a01b038616845290915290205460ff161561281f575f818152602081815260408083206001600160a01b0395909516808452949091528120805460ff19169055339291907ff6391f5c32d9c69d2a47ea670b442974b53935d1edc7fd64eb21e047a839171b9080a4600190565b60ff600154166128b157565b63d93c066560e01b5f5260045ffd5b6040516323b872dd60e01b5f9081526001600160a01b039384166004529290931660245260449390935260209060648180865af19060015f5114821615612931575b6040525f606052156129115750565b635274afe760e01b5f9081526001600160a01b0391909116600452602490fd5b90600181151661294957823b15153d15161690612902565b503d5f823e3d90fdfe86f8437c3370d009cbcd6bd2faff5909ac9d56a281ee52495642de7b0e979cc5c7f0a5d6702aeeb1f6640f479d20ba8af5fe3fa2c0a0de39039aec64e812a55be4369475d33ca6555b45ac3cf081bee16c4b11779d89f812395c569b2de40f019b779b17422d0df92223018b32b4d1fa46e071723d6817e2486d003becc55f00a49807205ce4d355092ef5a8a18f56e8913cf4a201fbe287825b095693c21775ba2dc669204b26427a432593e1c6ac86ab4ccc54d29c4287abbd1cefc1cb002ba2646970667358221220de3259f77c81f558a07ff0c23e127239b018581d51fc5bd6f07105158180a35464736f6c634300081c00332f8788117e7eff1d82e926ec794901d17c78024a50270940304540a733656f0d7d7ffb7a348e1c6a02869081a26547b49160dd3df72d1d75a570eb9b698292ec86f8437c3370d009cbcd6bd2faff5909ac9d56a281ee52495642de7b0e979cc5ad3228b676f7d3cd4284a5443f17f1962b36e491b30a40b2405849e597ba5fb5",
  "linkReferences": {},
  "deployedLinkReferences": {},
  "immutableReferences": {
    "18590": [
      {
        "length": 32,
        "start": 1237
      },
      {
        "length": 32,
        "start": 2394
      },
      {
        "length": 32,
        "start": 4871
      },
      {
        "length": 32,
        "start": 6664
      },
      {
        "length": 32,
        "start": 8418
      }
    ],
    "18593": [
      {
        "length": 32,
        "start": 984
      },
      {
        "length": 32,
        "start": 2251
      }
    ]
  },
  "inputSourceName": "project/contracts/core/LoanEscrow.sol",
  "buildInfoId": "solc-0_8_28-66dacbb9b58248588fe18a333966fb32face5edb"
}