{
  "_format": "hh3-artifact-1",
  "contractName": "PlayerRegistry",
  "sourceName": "contracts/core/PlayerRegistry.sol",
  "abi": [
    {
      "inputs": [],
      "stateMutability": "nonpayable",
      "type": "constructor"
    },
    {
      "inputs": [],
      "name": "AccessControlBadConfirmation",
      "type": "error"
    },
    {
      "inputs": [
        {
          "internalType": "address",
          "name": "account",
          "type": "address"
        },
        {
          "internalType": "bytes32",
          "name": "neededRole",
          "type": "bytes32"
        }
      ],
      "name": "AccessControlUnauthorizedAccount",
      "type": "error"
    },
    {
      "inputs": [
        {
          "internalType": "address",
          "name": "target",
          "type": "address"
        }
      ],
      "name": "AddressEmptyCode",
      "type": "error"
    },
    {
      "inputs": [
        {
          "internalType": "uint256",
          "name": "playerId",
          "type": "uint256"
        },
        {
          "internalType": "address",
          "name": "caller",
          "type": "address"
        }
      ],
      "name": "CallerIsNotPlayerClub",
      "type": "error"
    },
    {
      "inputs": [
        {
          "internalType": "uint256",
          "name": "playerId",
          "type": "uint256"
        },
        {
          "internalType": "address",
          "name": "caller",
          "type": "address"
        }
      ],
      "name": "CallerIsNotPlayerWallet",
      "type": "error"
    },
    {
      "inputs": [
        {
          "internalType": "address",
          "name": "club",
          "type": "address"
        }
      ],
      "name": "ClubAlreadyRegistered",
      "type": "error"
    },
    {
      "inputs": [
        {
          "internalType": "address",
          "name": "club",
          "type": "address"
        },
        {
          "internalType": "uint256",
          "name": "count",
          "type": "uint256"
        }
      ],
      "name": "ClubHasActivePlayers",
      "type": "error"
    },
    {
      "inputs": [
        {
          "internalType": "address",
          "name": "club",
          "type": "address"
        }
      ],
      "name": "ClubNotRegistered",
      "type": "error"
    },
    {
      "inputs": [],
      "name": "DirectTransferNotAllowed",
      "type": "error"
    },
    {
      "inputs": [
        {
          "internalType": "address",
          "name": "implementation",
          "type": "address"
        }
      ],
      "name": "ERC1967InvalidImplementation",
      "type": "error"
    },
    {
      "inputs": [],
      "name": "ERC1967NonPayable",
      "type": "error"
    },
    {
      "inputs": [
        {
          "internalType": "address",
          "name": "sender",
          "type": "address"
        },
        {
          "internalType": "uint256",
          "name": "tokenId",
          "type": "uint256"
        },
        {
          "internalType": "address",
          "name": "owner",
          "type": "address"
        }
      ],
      "name": "ERC721IncorrectOwner",
      "type": "error"
    },
    {
      "inputs": [
        {
          "internalType": "address",
          "name": "operator",
          "type": "address"
        },
        {
          "internalType": "uint256",
          "name": "tokenId",
          "type": "uint256"
        }
      ],
      "name": "ERC721InsufficientApproval",
      "type": "error"
    },
    {
      "inputs": [
        {
          "internalType": "address",
          "name": "approver",
          "type": "address"
        }
      ],
      "name": "ERC721InvalidApprover",
      "type": "error"
    },
    {
      "inputs": [
        {
          "internalType": "address",
          "name": "operator",
          "type": "address"
        }
      ],
      "name": "ERC721InvalidOperator",
      "type": "error"
    },
    {
      "inputs": [
        {
          "internalType": "address",
          "name": "owner",
          "type": "address"
        }
      ],
      "name": "ERC721InvalidOwner",
      "type": "error"
    },
    {
      "inputs": [
        {
          "internalType": "address",
          "name": "receiver",
          "type": "address"
        }
      ],
      "name": "ERC721InvalidReceiver",
      "type": "error"
    },
    {
      "inputs": [
        {
          "internalType": "address",
          "name": "sender",
          "type": "address"
        }
      ],
      "name": "ERC721InvalidSender",
      "type": "error"
    },
    {
      "inputs": [
        {
          "internalType": "uint256",
          "name": "tokenId",
          "type": "uint256"
        }
      ],
      "name": "ERC721NonexistentToken",
      "type": "error"
    },
    {
      "inputs": [],
      "name": "EmptyString",
      "type": "error"
    },
    {
      "inputs": [],
      "name": "EnforcedPause",
      "type": "error"
    },
    {
      "inputs": [],
      "name": "ExpectedPause",
      "type": "error"
    },
    {
      "inputs": [],
      "name": "FailedCall",
      "type": "error"
    },
    {
      "inputs": [
        {
          "internalType": "uint256",
          "name": "provided",
          "type": "uint256"
        },
        {
          "internalType": "uint256",
          "name": "max",
          "type": "uint256"
        }
      ],
      "name": "FeeBpsTooHigh",
      "type": "error"
    },
    {
      "inputs": [
        {
          "internalType": "uint256",
          "name": "effectiveAt",
          "type": "uint256"
        },
        {
          "internalType": "uint256",
          "name": "now_",
          "type": "uint256"
        }
      ],
      "name": "FeeScheduleNotReady",
      "type": "error"
    },
    {
      "inputs": [
        {
          "internalType": "uint256",
          "name": "provided",
          "type": "uint256"
        },
        {
          "internalType": "uint256",
          "name": "max",
          "type": "uint256"
        }
      ],
      "name": "FeeTooHigh",
      "type": "error"
    },
    {
      "inputs": [
        {
          "internalType": "bytes32",
          "name": "fifaId",
          "type": "bytes32"
        }
      ],
      "name": "FifaIdAlreadyRegistered",
      "type": "error"
    },
    {
      "inputs": [],
      "name": "FifaIdRequired",
      "type": "error"
    },
    {
      "inputs": [
        {
          "internalType": "bytes32",
          "name": "hash",
          "type": "bytes32"
        }
      ],
      "name": "HashAlreadyUsed",
      "type": "error"
    },
    {
      "inputs": [],
      "name": "HashesNotDistinct",
      "type": "error"
    },
    {
      "inputs": [
        {
          "internalType": "uint256",
          "name": "requested",
          "type": "uint256"
        },
        {
          "internalType": "uint256",
          "name": "available",
          "type": "uint256"
        }
      ],
      "name": "InsufficientProtocolBalance",
      "type": "error"
    },
    {
      "inputs": [],
      "name": "InvalidHashZero",
      "type": "error"
    },
    {
      "inputs": [],
      "name": "InvalidInitialization",
      "type": "error"
    },
    {
      "inputs": [
        {
          "internalType": "uint256",
          "name": "length",
          "type": "uint256"
        },
        {
          "internalType": "uint256",
          "name": "max",
          "type": "uint256"
        }
      ],
      "name": "NameTooLong",
      "type": "error"
    },
    {
      "inputs": [],
      "name": "NoPendingFeeSchedule",
      "type": "error"
    },
    {
      "inputs": [],
      "name": "NoPendingTreasuryUpdate",
      "type": "error"
    },
    {
      "inputs": [
        {
          "internalType": "uint256",
          "name": "playerId",
          "type": "uint256"
        }
      ],
      "name": "NoWalletUpdatePending",
      "type": "error"
    },
    {
      "inputs": [],
      "name": "NotInitializing",
      "type": "error"
    },
    {
      "inputs": [],
      "name": "NothingToWithdraw",
      "type": "error"
    },
    {
      "inputs": [
        {
          "internalType": "uint256",
          "name": "playerId",
          "type": "uint256"
        }
      ],
      "name": "PlayerAlreadyListed",
      "type": "error"
    },
    {
      "inputs": [
        {
          "internalType": "bytes32",
          "name": "playerHash",
          "type": "bytes32"
        }
      ],
      "name": "PlayerAlreadyRegistered",
      "type": "error"
    },
    {
      "inputs": [
        {
          "internalType": "uint256",
          "name": "playerId",
          "type": "uint256"
        }
      ],
      "name": "PlayerDoesNotExist",
      "type": "error"
    },
    {
      "inputs": [
        {
          "internalType": "uint256",
          "name": "playerId",
          "type": "uint256"
        }
      ],
      "name": "PlayerNotListed",
      "type": "error"
    },
    {
      "inputs": [
        {
          "internalType": "uint256",
          "name": "playerId",
          "type": "uint256"
        }
      ],
      "name": "PlayerNotVerified",
      "type": "error"
    },
    {
      "inputs": [],
      "name": "ReentrantCall",
      "type": "error"
    },
    {
      "inputs": [
        {
          "internalType": "address",
          "name": "registrar",
          "type": "address"
        }
      ],
      "name": "RegistrarAlreadyRegistered",
      "type": "error"
    },
    {
      "inputs": [
        {
          "internalType": "uint256",
          "name": "provided",
          "type": "uint256"
        },
        {
          "internalType": "uint256",
          "name": "maxAllowed",
          "type": "uint256"
        }
      ],
      "name": "RegistrarFeeTooHigh",
      "type": "error"
    },
    {
      "inputs": [
        {
          "internalType": "address",
          "name": "club",
          "type": "address"
        }
      ],
      "name": "RegistrarNotAssignedToClub",
      "type": "error"
    },
    {
      "inputs": [
        {
          "internalType": "address",
          "name": "registrar",
          "type": "address"
        }
      ],
      "name": "RegistrarNotRegistered",
      "type": "error"
    },
    {
      "inputs": [
        {
          "internalType": "address",
          "name": "token",
          "type": "address"
        }
      ],
      "name": "SafeERC20FailedOperation",
      "type": "error"
    },
    {
      "inputs": [
        {
          "internalType": "uint256",
          "name": "effectiveAt",
          "type": "uint256"
        },
        {
          "internalType": "uint256",
          "name": "now_",
          "type": "uint256"
        }
      ],
      "name": "TreasuryUpdateNotReady",
      "type": "error"
    },
    {
      "inputs": [],
      "name": "UUPSUnauthorizedCallContext",
      "type": "error"
    },
    {
      "inputs": [
        {
          "internalType": "bytes32",
          "name": "slot",
          "type": "bytes32"
        }
      ],
      "name": "UUPSUnsupportedProxiableUUID",
      "type": "error"
    },
    {
      "inputs": [
        {
          "internalType": "uint256",
          "name": "playerId",
          "type": "uint256"
        }
      ],
      "name": "VerificationAlreadyActive",
      "type": "error"
    },
    {
      "inputs": [
        {
          "internalType": "address",
          "name": "wallet",
          "type": "address"
        },
        {
          "internalType": "uint256",
          "name": "assignedTo",
          "type": "uint256"
        }
      ],
      "name": "WalletAlreadyAssigned",
      "type": "error"
    },
    {
      "inputs": [
        {
          "internalType": "uint256",
          "name": "playerId",
          "type": "uint256"
        }
      ],
      "name": "WalletUpdateAlreadyPending",
      "type": "error"
    },
    {
      "inputs": [
        {
          "internalType": "uint256",
          "name": "playerId",
          "type": "uint256"
        },
        {
          "internalType": "address",
          "name": "wallet",
          "type": "address"
        }
      ],
      "name": "WalletUpdateAlreadySet",
      "type": "error"
    },
    {
      "inputs": [
        {
          "internalType": "uint256",
          "name": "playerId",
          "type": "uint256"
        },
        {
          "internalType": "uint256",
          "name": "adjustedExecutable",
          "type": "uint256"
        },
        {
          "internalType": "uint256",
          "name": "now_",
          "type": "uint256"
        }
      ],
      "name": "WalletUpdateNotReady",
      "type": "error"
    },
    {
      "inputs": [],
      "name": "ZeroAddress",
      "type": "error"
    },
    {
      "inputs": [],
      "name": "ZeroAmount",
      "type": "error"
    },
    {
      "anonymous": false,
      "inputs": [
        {
          "indexed": true,
          "internalType": "address",
          "name": "owner",
          "type": "address"
        },
        {
          "indexed": true,
          "internalType": "address",
          "name": "approved",
          "type": "address"
        },
        {
          "indexed": true,
          "internalType": "uint256",
          "name": "tokenId",
          "type": "uint256"
        }
      ],
      "name": "Approval",
      "type": "event"
    },
    {
      "anonymous": false,
      "inputs": [
        {
          "indexed": true,
          "internalType": "address",
          "name": "owner",
          "type": "address"
        },
        {
          "indexed": true,
          "internalType": "address",
          "name": "operator",
          "type": "address"
        },
        {
          "indexed": false,
          "internalType": "bool",
          "name": "approved",
          "type": "bool"
        }
      ],
      "name": "ApprovalForAll",
      "type": "event"
    },
    {
      "anonymous": false,
      "inputs": [
        {
          "indexed": false,
          "internalType": "uint256",
          "name": "newFee",
          "type": "uint256"
        }
      ],
      "name": "BaseVerificationFeeActivated",
      "type": "event"
    },
    {
      "anonymous": false,
      "inputs": [
        {
          "indexed": false,
          "internalType": "uint256",
          "name": "newFee",
          "type": "uint256"
        },
        {
          "indexed": false,
          "internalType": "uint256",
          "name": "effectiveAt",
          "type": "uint256"
        }
      ],
      "name": "BaseVerificationFeeScheduled",
      "type": "event"
    },
    {
      "anonymous": false,
      "inputs": [
        {
          "indexed": true,
          "internalType": "address",
          "name": "club",
          "type": "address"
        }
      ],
      "name": "ClubDeregistered",
      "type": "event"
    },
    {
      "anonymous": false,
      "inputs": [
        {
          "indexed": true,
          "internalType": "uint256",
          "name": "playerId",
          "type": "uint256"
        },
        {
          "indexed": true,
          "internalType": "address",
          "name": "fromClub",
          "type": "address"
        },
        {
          "indexed": true,
          "internalType": "address",
          "name": "toClub",
          "type": "address"
        }
      ],
      "name": "ClubOwnershipTransferred",
      "type": "event"
    },
    {
      "anonymous": false,
      "inputs": [
        {
          "indexed": true,
          "internalType": "address",
          "name": "club",
          "type": "address"
        },
        {
          "indexed": false,
          "internalType": "string",
          "name": "name",
          "type": "string"
        },
        {
          "indexed": true,
          "internalType": "address",
          "name": "registrar",
          "type": "address"
        }
      ],
      "name": "ClubRegistered",
      "type": "event"
    },
    {
      "anonymous": false,
      "inputs": [
        {
          "indexed": true,
          "internalType": "uint256",
          "name": "playerId",
          "type": "uint256"
        },
        {
          "indexed": false,
          "internalType": "uint256",
          "name": "newExpiry",
          "type": "uint256"
        }
      ],
      "name": "ContractExtended",
      "type": "event"
    },
    {
      "anonymous": false,
      "inputs": [
        {
          "indexed": true,
          "internalType": "address",
          "name": "to",
          "type": "address"
        },
        {
          "indexed": false,
          "internalType": "uint256",
          "name": "amount",
          "type": "uint256"
        }
      ],
      "name": "FeesWithdrawn",
      "type": "event"
    },
    {
      "anonymous": false,
      "inputs": [
        {
          "indexed": false,
          "internalType": "uint64",
          "name": "version",
          "type": "uint64"
        }
      ],
      "name": "Initialized",
      "type": "event"
    },
    {
      "anonymous": false,
      "inputs": [
        {
          "indexed": true,
          "internalType": "uint256",
          "name": "playerId",
          "type": "uint256"
        }
      ],
      "name": "LegalDocumentsSubmitted",
      "type": "event"
    },
    {
      "anonymous": false,
      "inputs": [
        {
          "indexed": true,
          "internalType": "uint256",
          "name": "playerId",
          "type": "uint256"
        },
        {
          "indexed": true,
          "internalType": "address",
          "name": "registrar",
          "type": "address"
        }
      ],
      "name": "LegalDocumentsVerified",
      "type": "event"
    },
    {
      "anonymous": false,
      "inputs": [
        {
          "indexed": false,
          "internalType": "uint256",
          "name": "fee",
          "type": "uint256"
        }
      ],
      "name": "ListingFeeSet",
      "type": "event"
    },
    {
      "anonymous": false,
      "inputs": [
        {
          "indexed": true,
          "internalType": "uint256",
          "name": "playerId",
          "type": "uint256"
        },
        {
          "indexed": false,
          "internalType": "bytes32",
          "name": "documentHash",
          "type": "bytes32"
        }
      ],
      "name": "MedicalClearanceSet",
      "type": "event"
    },
    {
      "anonymous": false,
      "inputs": [
        {
          "indexed": true,
          "internalType": "uint256",
          "name": "playerId",
          "type": "uint256"
        },
        {
          "indexed": true,
          "internalType": "address",
          "name": "registrar",
          "type": "address"
        }
      ],
      "name": "MedicalClearanceVerified",
      "type": "event"
    },
    {
      "anonymous": false,
      "inputs": [
        {
          "indexed": true,
          "internalType": "uint256",
          "name": "playerId",
          "type": "uint256"
        }
      ],
      "name": "MutualTerminationConfirmed",
      "type": "event"
    },
    {
      "anonymous": false,
      "inputs": [
        {
          "indexed": true,
          "internalType": "uint256",
          "name": "playerId",
          "type": "uint256"
        },
        {
          "indexed": true,
          "internalType": "address",
          "name": "club",
          "type": "address"
        }
      ],
      "name": "MutualTerminationProposed",
      "type": "event"
    },
    {
      "anonymous": false,
      "inputs": [
        {
          "indexed": false,
          "internalType": "address",
          "name": "account",
          "type": "address"
        }
      ],
      "name": "Paused",
      "type": "event"
    },
    {
      "anonymous": false,
      "inputs": [
        {
          "indexed": true,
          "internalType": "uint256",
          "name": "playerId",
          "type": "uint256"
        }
      ],
      "name": "PlayerBurned",
      "type": "event"
    },
    {
      "anonymous": false,
      "inputs": [
        {
          "indexed": true,
          "internalType": "uint256",
          "name": "playerId",
          "type": "uint256"
        }
      ],
      "name": "PlayerDelisted",
      "type": "event"
    },
    {
      "anonymous": false,
      "inputs": [
        {
          "indexed": true,
          "internalType": "uint256",
          "name": "playerId",
          "type": "uint256"
        },
        {
          "indexed": false,
          "internalType": "uint256",
          "name": "askingPrice",
          "type": "uint256"
        }
      ],
      "name": "PlayerListed",
      "type": "event"
    },
    {
      "anonymous": false,
      "inputs": [
        {
          "indexed": true,
          "internalType": "uint256",
          "name": "playerId",
          "type": "uint256"
        },
        {
          "indexed": false,
          "internalType": "string",
          "name": "name",
          "type": "string"
        },
        {
          "indexed": true,
          "internalType": "address",
          "name": "club",
          "type": "address"
        }
      ],
      "name": "PlayerRegistered",
      "type": "event"
    },
    {
      "anonymous": false,
      "inputs": [
        {
          "indexed": true,
          "internalType": "uint256",
          "name": "playerId",
          "type": "uint256"
        },
        {
          "indexed": true,
          "internalType": "address",
          "name": "registrar",
          "type": "address"
        }
      ],
      "name": "PlayerVerified",
      "type": "event"
    },
    {
      "anonymous": false,
      "inputs": [
        {
          "indexed": true,
          "internalType": "uint256",
          "name": "playerId",
          "type": "uint256"
        },
        {
          "indexed": true,
          "internalType": "address",
          "name": "registrar",
          "type": "address"
        }
      ],
      "name": "PlayerWalletReset",
      "type": "event"
    },
    {
      "anonymous": false,
      "inputs": [
        {
          "indexed": true,
          "internalType": "uint256",
          "name": "playerId",
          "type": "uint256"
        },
        {
          "indexed": true,
          "internalType": "address",
          "name": "playerWallet",
          "type": "address"
        }
      ],
      "name": "PlayerWalletSet",
      "type": "event"
    },
    {
      "anonymous": false,
      "inputs": [
        {
          "indexed": false,
          "internalType": "uint256",
          "name": "bps",
          "type": "uint256"
        }
      ],
      "name": "ProtocolFeeBpsSet",
      "type": "event"
    },
    {
      "anonymous": false,
      "inputs": [
        {
          "indexed": true,
          "internalType": "address",
          "name": "newTreasury",
          "type": "address"
        },
        {
          "indexed": false,
          "internalType": "uint256",
          "name": "effectiveAt",
          "type": "uint256"
        }
      ],
      "name": "ProtocolTreasuryUpdateScheduled",
      "type": "event"
    },
    {
      "anonymous": false,
      "inputs": [
        {
          "indexed": true,
          "internalType": "address",
          "name": "oldTreasury",
          "type": "address"
        },
        {
          "indexed": true,
          "internalType": "address",
          "name": "newTreasury",
          "type": "address"
        }
      ],
      "name": "ProtocolTreasuryUpdated",
      "type": "event"
    },
    {
      "anonymous": false,
      "inputs": [
        {
          "indexed": true,
          "internalType": "address",
          "name": "registrar",
          "type": "address"
        },
        {
          "indexed": false,
          "internalType": "uint256",
          "name": "amount",
          "type": "uint256"
        }
      ],
      "name": "RegistrarFeesWithdrawn",
      "type": "event"
    },
    {
      "anonymous": false,
      "inputs": [
        {
          "indexed": true,
          "internalType": "address",
          "name": "registrar",
          "type": "address"
        }
      ],
      "name": "RegistrarRoleGranted",
      "type": "event"
    },
    {
      "anonymous": false,
      "inputs": [
        {
          "indexed": true,
          "internalType": "address",
          "name": "registrar",
          "type": "address"
        }
      ],
      "name": "RegistrarRoleRevoked",
      "type": "event"
    },
    {
      "anonymous": false,
      "inputs": [
        {
          "indexed": false,
          "internalType": "uint256",
          "name": "fee",
          "type": "uint256"
        }
      ],
      "name": "RegistrationFeeSet",
      "type": "event"
    },
    {
      "anonymous": false,
      "inputs": [
        {
          "indexed": true,
          "internalType": "uint256",
          "name": "playerId",
          "type": "uint256"
        },
        {
          "indexed": false,
          "internalType": "uint256",
          "name": "amount",
          "type": "uint256"
        }
      ],
      "name": "ReleaseClauseSet",
      "type": "event"
    },
    {
      "anonymous": false,
      "inputs": [
        {
          "indexed": true,
          "internalType": "bytes32",
          "name": "role",
          "type": "bytes32"
        },
        {
          "indexed": true,
          "internalType": "bytes32",
          "name": "previousAdminRole",
          "type": "bytes32"
        },
        {
          "indexed": true,
          "internalType": "bytes32",
          "name": "newAdminRole",
          "type": "bytes32"
        }
      ],
      "name": "RoleAdminChanged",
      "type": "event"
    },
    {
      "anonymous": false,
      "inputs": [
        {
          "indexed": true,
          "internalType": "bytes32",
          "name": "role",
          "type": "bytes32"
        },
        {
          "indexed": true,
          "internalType": "address",
          "name": "account",
          "type": "address"
        },
        {
          "indexed": true,
          "internalType": "address",
          "name": "sender",
          "type": "address"
        }
      ],
      "name": "RoleGranted",
      "type": "event"
    },
    {
      "anonymous": false,
      "inputs": [
        {
          "indexed": true,
          "internalType": "bytes32",
          "name": "role",
          "type": "bytes32"
        },
        {
          "indexed": true,
          "internalType": "address",
          "name": "account",
          "type": "address"
        },
        {
          "indexed": true,
          "internalType": "address",
          "name": "sender",
          "type": "address"
        }
      ],
      "name": "RoleRevoked",
      "type": "event"
    },
    {
      "anonymous": false,
      "inputs": [
        {
          "indexed": true,
          "internalType": "uint256",
          "name": "playerId",
          "type": "uint256"
        },
        {
          "indexed": true,
          "internalType": "address",
          "name": "disputer",
          "type": "address"
        }
      ],
      "name": "TerminationDisputed",
      "type": "event"
    },
    {
      "anonymous": false,
      "inputs": [
        {
          "indexed": true,
          "internalType": "uint256",
          "name": "playerId",
          "type": "uint256"
        }
      ],
      "name": "TerminationExecuted",
      "type": "event"
    },
    {
      "anonymous": false,
      "inputs": [
        {
          "indexed": true,
          "internalType": "uint256",
          "name": "playerId",
          "type": "uint256"
        },
        {
          "indexed": true,
          "internalType": "address",
          "name": "league",
          "type": "address"
        }
      ],
      "name": "TerminationForced",
      "type": "event"
    },
    {
      "anonymous": false,
      "inputs": [
        {
          "indexed": true,
          "internalType": "uint256",
          "name": "playerId",
          "type": "uint256"
        },
        {
          "indexed": true,
          "internalType": "address",
          "name": "league",
          "type": "address"
        }
      ],
      "name": "TerminationRejected",
      "type": "event"
    },
    {
      "anonymous": false,
      "inputs": [
        {
          "indexed": true,
          "internalType": "address",
          "name": "from",
          "type": "address"
        },
        {
          "indexed": true,
          "internalType": "address",
          "name": "to",
          "type": "address"
        },
        {
          "indexed": true,
          "internalType": "uint256",
          "name": "tokenId",
          "type": "uint256"
        }
      ],
      "name": "Transfer",
      "type": "event"
    },
    {
      "anonymous": false,
      "inputs": [
        {
          "indexed": true,
          "internalType": "uint256",
          "name": "playerId",
          "type": "uint256"
        },
        {
          "indexed": false,
          "internalType": "enum IPlayerRegistry.TerminationInitiator",
          "name": "initiator",
          "type": "uint8"
        },
        {
          "indexed": false,
          "internalType": "string",
          "name": "reason",
          "type": "string"
        },
        {
          "indexed": false,
          "internalType": "uint256",
          "name": "disputeDeadline",
          "type": "uint256"
        }
      ],
      "name": "UnilateralTerminationProposed",
      "type": "event"
    },
    {
      "anonymous": false,
      "inputs": [
        {
          "indexed": false,
          "internalType": "address",
          "name": "account",
          "type": "address"
        }
      ],
      "name": "Unpaused",
      "type": "event"
    },
    {
      "anonymous": false,
      "inputs": [
        {
          "indexed": true,
          "internalType": "address",
          "name": "implementation",
          "type": "address"
        }
      ],
      "name": "Upgraded",
      "type": "event"
    },
    {
      "anonymous": false,
      "inputs": [
        {
          "indexed": true,
          "internalType": "uint256",
          "name": "playerId",
          "type": "uint256"
        },
        {
          "indexed": true,
          "internalType": "address",
          "name": "registrar",
          "type": "address"
        }
      ],
      "name": "VerificationApproved",
      "type": "event"
    },
    {
      "anonymous": false,
      "inputs": [
        {
          "indexed": true,
          "internalType": "address",
          "name": "registrar",
          "type": "address"
        },
        {
          "indexed": false,
          "internalType": "uint256",
          "name": "fee",
          "type": "uint256"
        }
      ],
      "name": "VerificationFeeSet",
      "type": "event"
    },
    {
      "anonymous": false,
      "inputs": [
        {
          "indexed": true,
          "internalType": "uint256",
          "name": "playerId",
          "type": "uint256"
        },
        {
          "indexed": true,
          "internalType": "address",
          "name": "club",
          "type": "address"
        }
      ],
      "name": "VerificationRefundClaimed",
      "type": "event"
    },
    {
      "anonymous": false,
      "inputs": [
        {
          "indexed": true,
          "internalType": "uint256",
          "name": "playerId",
          "type": "uint256"
        },
        {
          "indexed": true,
          "internalType": "address",
          "name": "registrar",
          "type": "address"
        }
      ],
      "name": "VerificationRejected",
      "type": "event"
    },
    {
      "anonymous": false,
      "inputs": [
        {
          "indexed": true,
          "internalType": "uint256",
          "name": "playerId",
          "type": "uint256"
        },
        {
          "indexed": true,
          "internalType": "address",
          "name": "club",
          "type": "address"
        },
        {
          "indexed": false,
          "internalType": "uint256",
          "name": "feePaid",
          "type": "uint256"
        },
        {
          "indexed": false,
          "internalType": "uint256",
          "name": "deadline",
          "type": "uint256"
        }
      ],
      "name": "VerificationRequested",
      "type": "event"
    },
    {
      "anonymous": false,
      "inputs": [
        {
          "indexed": true,
          "internalType": "uint256",
          "name": "playerId",
          "type": "uint256"
        }
      ],
      "name": "WalletUpdateCancelled",
      "type": "event"
    },
    {
      "anonymous": false,
      "inputs": [
        {
          "indexed": true,
          "internalType": "uint256",
          "name": "playerId",
          "type": "uint256"
        },
        {
          "indexed": true,
          "internalType": "address",
          "name": "oldWallet",
          "type": "address"
        },
        {
          "indexed": true,
          "internalType": "address",
          "name": "newWallet",
          "type": "address"
        }
      ],
      "name": "WalletUpdateExecuted",
      "type": "event"
    },
    {
      "anonymous": false,
      "inputs": [
        {
          "indexed": true,
          "internalType": "uint256",
          "name": "playerId",
          "type": "uint256"
        },
        {
          "indexed": true,
          "internalType": "address",
          "name": "newWallet",
          "type": "address"
        },
        {
          "indexed": false,
          "internalType": "uint256",
          "name": "executable",
          "type": "uint256"
        }
      ],
      "name": "WalletUpdateInitiated",
      "type": "event"
    },
    {
      "inputs": [],
      "name": "ADMIN_ROLE",
      "outputs": [
        {
          "internalType": "bytes32",
          "name": "",
          "type": "bytes32"
        }
      ],
      "stateMutability": "view",
      "type": "function"
    },
    {
      "inputs": [],
      "name": "CLUB_ROLE",
      "outputs": [
        {
          "internalType": "bytes32",
          "name": "",
          "type": "bytes32"
        }
      ],
      "stateMutability": "view",
      "type": "function"
    },
    {
      "inputs": [],
      "name": "DEFAULT_ADMIN_ROLE",
      "outputs": [
        {
          "internalType": "bytes32",
          "name": "",
          "type": "bytes32"
        }
      ],
      "stateMutability": "view",
      "type": "function"
    },
    {
      "inputs": [],
      "name": "ESCROW_ROLE",
      "outputs": [
        {
          "internalType": "bytes32",
          "name": "",
          "type": "bytes32"
        }
      ],
      "stateMutability": "view",
      "type": "function"
    },
    {
      "inputs": [],
      "name": "EURC",
      "outputs": [
        {
          "internalType": "contract IERC20",
          "name": "",
          "type": "address"
        }
      ],
      "stateMutability": "view",
      "type": "function"
    },
    {
      "inputs": [],
      "name": "FEE_SCHEDULE_DELAY",
      "outputs": [
        {
          "internalType": "uint256",
          "name": "",
          "type": "uint256"
        }
      ],
      "stateMutability": "view",
      "type": "function"
    },
    {
      "inputs": [],
      "name": "LEAGUE_ROLE",
      "outputs": [
        {
          "internalType": "bytes32",
          "name": "",
          "type": "bytes32"
        }
      ],
      "stateMutability": "view",
      "type": "function"
    },
    {
      "inputs": [],
      "name": "MAX_FEE",
      "outputs": [
        {
          "internalType": "uint256",
          "name": "",
          "type": "uint256"
        }
      ],
      "stateMutability": "view",
      "type": "function"
    },
    {
      "inputs": [],
      "name": "MAX_NAME_LENGTH",
      "outputs": [
        {
          "internalType": "uint256",
          "name": "",
          "type": "uint256"
        }
      ],
      "stateMutability": "view",
      "type": "function"
    },
    {
      "inputs": [],
      "name": "MAX_PROTOCOL_FEE_BPS",
      "outputs": [
        {
          "internalType": "uint256",
          "name": "",
          "type": "uint256"
        }
      ],
      "stateMutability": "view",
      "type": "function"
    },
    {
      "inputs": [],
      "name": "MAX_REGISTRAR_FEE_EXCESS",
      "outputs": [
        {
          "internalType": "uint256",
          "name": "",
          "type": "uint256"
        }
      ],
      "stateMutability": "view",
      "type": "function"
    },
    {
      "inputs": [],
      "name": "REGISTRAR_ROLE",
      "outputs": [
        {
          "internalType": "bytes32",
          "name": "",
          "type": "bytes32"
        }
      ],
      "stateMutability": "view",
      "type": "function"
    },
    {
      "inputs": [],
      "name": "TREASURY_UPDATE_DELAY",
      "outputs": [
        {
          "internalType": "uint256",
          "name": "",
          "type": "uint256"
        }
      ],
      "stateMutability": "view",
      "type": "function"
    },
    {
      "inputs": [],
      "name": "UPGRADE_INTERFACE_VERSION",
      "outputs": [
        {
          "internalType": "string",
          "name": "",
          "type": "string"
        }
      ],
      "stateMutability": "view",
      "type": "function"
    },
    {
      "inputs": [],
      "name": "VERIFICATION_ROLE",
      "outputs": [
        {
          "internalType": "bytes32",
          "name": "",
          "type": "bytes32"
        }
      ],
      "stateMutability": "view",
      "type": "function"
    },
    {
      "inputs": [],
      "name": "WALLET_UPDATE_TIMELOCK",
      "outputs": [
        {
          "internalType": "uint256",
          "name": "",
          "type": "uint256"
        }
      ],
      "stateMutability": "view",
      "type": "function"
    },
    {
      "inputs": [],
      "name": "activateBaseVerificationFee",
      "outputs": [],
      "stateMutability": "nonpayable",
      "type": "function"
    },
    {
      "inputs": [
        {
          "internalType": "uint256",
          "name": "amount",
          "type": "uint256"
        }
      ],
      "name": "addProtocolFees",
      "outputs": [],
      "stateMutability": "nonpayable",
      "type": "function"
    },
    {
      "inputs": [
        {
          "internalType": "address",
          "name": "registrar",
          "type": "address"
        },
        {
          "internalType": "uint256",
          "name": "amount",
          "type": "uint256"
        }
      ],
      "name": "addRegistrarFees",
      "outputs": [],
      "stateMutability": "nonpayable",
      "type": "function"
    },
    {
      "inputs": [
        {
          "internalType": "address",
          "name": "",
          "type": "address"
        },
        {
          "internalType": "uint256",
          "name": "",
          "type": "uint256"
        }
      ],
      "name": "approve",
      "outputs": [],
      "stateMutability": "pure",
      "type": "function"
    },
    {
      "inputs": [
        {
          "internalType": "address",
          "name": "owner",
          "type": "address"
        }
      ],
      "name": "balanceOf",
      "outputs": [
        {
          "internalType": "uint256",
          "name": "",
          "type": "uint256"
        }
      ],
      "stateMutability": "view",
      "type": "function"
    },
    {
      "inputs": [],
      "name": "baseVerificationFee",
      "outputs": [
        {
          "internalType": "uint64",
          "name": "",
          "type": "uint64"
        }
      ],
      "stateMutability": "view",
      "type": "function"
    },
    {
      "inputs": [
        {
          "internalType": "uint256",
          "name": "playerId",
          "type": "uint256"
        }
      ],
      "name": "burnPlayer",
      "outputs": [],
      "stateMutability": "nonpayable",
      "type": "function"
    },
    {
      "inputs": [
        {
          "internalType": "uint256",
          "name": "playerId",
          "type": "uint256"
        }
      ],
      "name": "cancelWalletUpdate",
      "outputs": [],
      "stateMutability": "nonpayable",
      "type": "function"
    },
    {
      "inputs": [
        {
          "internalType": "uint256",
          "name": "playerId",
          "type": "uint256"
        }
      ],
      "name": "currentClub",
      "outputs": [
        {
          "internalType": "address",
          "name": "",
          "type": "address"
        }
      ],
      "stateMutability": "view",
      "type": "function"
    },
    {
      "inputs": [
        {
          "internalType": "uint256",
          "name": "playerId",
          "type": "uint256"
        }
      ],
      "name": "delistPlayer",
      "outputs": [],
      "stateMutability": "nonpayable",
      "type": "function"
    },
    {
      "inputs": [
        {
          "internalType": "address",
          "name": "club",
          "type": "address"
        }
      ],
      "name": "deregisterClub",
      "outputs": [],
      "stateMutability": "nonpayable",
      "type": "function"
    },
    {
      "inputs": [
        {
          "internalType": "uint256",
          "name": "playerId",
          "type": "uint256"
        },
        {
          "internalType": "address",
          "name": "fromClub",
          "type": "address"
        },
        {
          "internalType": "address",
          "name": "toClub",
          "type": "address"
        }
      ],
      "name": "escrowTransfer",
      "outputs": [],
      "stateMutability": "nonpayable",
      "type": "function"
    },
    {
      "inputs": [],
      "name": "executeProtocolTreasuryUpdate",
      "outputs": [],
      "stateMutability": "nonpayable",
      "type": "function"
    },
    {
      "inputs": [
        {
          "internalType": "uint256",
          "name": "playerId",
          "type": "uint256"
        }
      ],
      "name": "executeWalletUpdate",
      "outputs": [],
      "stateMutability": "nonpayable",
      "type": "function"
    },
    {
      "inputs": [
        {
          "internalType": "uint256",
          "name": "playerId",
          "type": "uint256"
        },
        {
          "internalType": "uint40",
          "name": "newExpiry",
          "type": "uint40"
        }
      ],
      "name": "extendContract",
      "outputs": [],
      "stateMutability": "nonpayable",
      "type": "function"
    },
    {
      "inputs": [
        {
          "internalType": "uint256",
          "name": "tokenId",
          "type": "uint256"
        }
      ],
      "name": "getApproved",
      "outputs": [
        {
          "internalType": "address",
          "name": "",
          "type": "address"
        }
      ],
      "stateMutability": "view",
      "type": "function"
    },
    {
      "inputs": [
        {
          "internalType": "address",
          "name": "club",
          "type": "address"
        }
      ],
      "name": "getClubName",
      "outputs": [
        {
          "internalType": "string",
          "name": "",
          "type": "string"
        }
      ],
      "stateMutability": "view",
      "type": "function"
    },
    {
      "inputs": [
        {
          "internalType": "address",
          "name": "club",
          "type": "address"
        }
      ],
      "name": "getClubPlayers",
      "outputs": [
        {
          "internalType": "uint256[]",
          "name": "",
          "type": "uint256[]"
        }
      ],
      "stateMutability": "view",
      "type": "function"
    },
    {
      "inputs": [
        {
          "internalType": "address",
          "name": "club",
          "type": "address"
        }
      ],
      "name": "getClubRegistrar",
      "outputs": [
        {
          "internalType": "address",
          "name": "",
          "type": "address"
        }
      ],
      "stateMutability": "view",
      "type": "function"
    },
    {
      "inputs": [
        {
          "internalType": "uint256",
          "name": "playerId",
          "type": "uint256"
        }
      ],
      "name": "getLegalDocuments",
      "outputs": [
        {
          "components": [
            {
              "internalType": "bytes32",
              "name": "registrationContractHash",
              "type": "bytes32"
            },
            {
              "internalType": "bytes32",
              "name": "fifaTMSHash",
              "type": "bytes32"
            },
            {
              "internalType": "bytes32",
              "name": "workPermitHash",
              "type": "bytes32"
            },
            {
              "internalType": "bool",
              "name": "documentsVerified",
              "type": "bool"
            }
          ],
          "internalType": "struct IPlayerRegistry.LegalDocuments",
          "name": "",
          "type": "tuple"
        }
      ],
      "stateMutability": "view",
      "type": "function"
    },
    {
      "inputs": [
        {
          "internalType": "uint256",
          "name": "playerId",
          "type": "uint256"
        }
      ],
      "name": "getPlayer",
      "outputs": [
        {
          "components": [
            {
              "internalType": "uint256",
              "name": "id",
              "type": "uint256"
            },
            {
              "internalType": "string",
              "name": "name",
              "type": "string"
            },
            {
              "internalType": "string",
              "name": "position",
              "type": "string"
            },
            {
              "internalType": "string",
              "name": "nationality",
              "type": "string"
            },
            {
              "internalType": "uint256",
              "name": "weeklySalary",
              "type": "uint256"
            },
            {
              "internalType": "uint256",
              "name": "askingPrice",
              "type": "uint256"
            },
            {
              "internalType": "uint256",
              "name": "releaseClause",
              "type": "uint256"
            },
            {
              "internalType": "bytes32",
              "name": "medicalDocumentHash",
              "type": "bytes32"
            },
            {
              "internalType": "bytes32",
              "name": "fifaId",
              "type": "bytes32"
            },
            {
              "internalType": "address",
              "name": "playerWallet",
              "type": "address"
            },
            {
              "internalType": "uint40",
              "name": "contractExpiry",
              "type": "uint40"
            },
            {
              "internalType": "uint40",
              "name": "registeredAt",
              "type": "uint40"
            },
            {
              "internalType": "bool",
              "name": "isVerified",
              "type": "bool"
            },
            {
              "internalType": "bool",
              "name": "isListed",
              "type": "bool"
            },
            {
              "internalType": "bool",
              "name": "medicalClearance",
              "type": "bool"
            },
            {
              "internalType": "bool",
              "name": "medicalVerified",
              "type": "bool"
            },
            {
              "internalType": "string",
              "name": "portraitCID",
              "type": "string"
            }
          ],
          "internalType": "struct IPlayerRegistry.Player",
          "name": "",
          "type": "tuple"
        }
      ],
      "stateMutability": "view",
      "type": "function"
    },
    {
      "inputs": [
        {
          "internalType": "address",
          "name": "wallet",
          "type": "address"
        }
      ],
      "name": "getPlayerByWallet",
      "outputs": [
        {
          "internalType": "uint256",
          "name": "",
          "type": "uint256"
        }
      ],
      "stateMutability": "view",
      "type": "function"
    },
    {
      "inputs": [
        {
          "internalType": "address",
          "name": "registrar",
          "type": "address"
        }
      ],
      "name": "getRegistrarClaimable",
      "outputs": [
        {
          "internalType": "uint256",
          "name": "",
          "type": "uint256"
        }
      ],
      "stateMutability": "view",
      "type": "function"
    },
    {
      "inputs": [
        {
          "internalType": "address",
          "name": "registrar",
          "type": "address"
        }
      ],
      "name": "getRegistrarFee",
      "outputs": [
        {
          "internalType": "uint256",
          "name": "",
          "type": "uint256"
        }
      ],
      "stateMutability": "view",
      "type": "function"
    },
    {
      "inputs": [
        {
          "internalType": "bytes32",
          "name": "role",
          "type": "bytes32"
        }
      ],
      "name": "getRoleAdmin",
      "outputs": [
        {
          "internalType": "bytes32",
          "name": "",
          "type": "bytes32"
        }
      ],
      "stateMutability": "view",
      "type": "function"
    },
    {
      "inputs": [
        {
          "internalType": "address",
          "name": "escrow",
          "type": "address"
        }
      ],
      "name": "grantEscrowRole",
      "outputs": [],
      "stateMutability": "nonpayable",
      "type": "function"
    },
    {
      "inputs": [
        {
          "internalType": "address",
          "name": "league",
          "type": "address"
        }
      ],
      "name": "grantLeagueRole",
      "outputs": [],
      "stateMutability": "nonpayable",
      "type": "function"
    },
    {
      "inputs": [
        {
          "internalType": "address",
          "name": "registrar",
          "type": "address"
        }
      ],
      "name": "grantRegistrarRole",
      "outputs": [],
      "stateMutability": "nonpayable",
      "type": "function"
    },
    {
      "inputs": [
        {
          "internalType": "bytes32",
          "name": "role",
          "type": "bytes32"
        },
        {
          "internalType": "address",
          "name": "account",
          "type": "address"
        }
      ],
      "name": "grantRole",
      "outputs": [],
      "stateMutability": "nonpayable",
      "type": "function"
    },
    {
      "inputs": [
        {
          "internalType": "address",
          "name": "verifier",
          "type": "address"
        }
      ],
      "name": "grantVerificationRole",
      "outputs": [],
      "stateMutability": "nonpayable",
      "type": "function"
    },
    {
      "inputs": [
        {
          "internalType": "address",
          "name": "account",
          "type": "address"
        }
      ],
      "name": "hasClubRole",
      "outputs": [
        {
          "internalType": "bool",
          "name": "",
          "type": "bool"
        }
      ],
      "stateMutability": "view",
      "type": "function"
    },
    {
      "inputs": [
        {
          "internalType": "bytes32",
          "name": "role",
          "type": "bytes32"
        },
        {
          "internalType": "address",
          "name": "account",
          "type": "address"
        }
      ],
      "name": "hasRole",
      "outputs": [
        {
          "internalType": "bool",
          "name": "",
          "type": "bool"
        }
      ],
      "stateMutability": "view",
      "type": "function"
    },
    {
      "inputs": [
        {
          "internalType": "address",
          "name": "eurc_",
          "type": "address"
        },
        {
          "internalType": "uint64",
          "name": "registrationFee_",
          "type": "uint64"
        },
        {
          "internalType": "uint64",
          "name": "listingFee_",
          "type": "uint64"
        },
        {
          "internalType": "uint64",
          "name": "baseVerificationFee_",
          "type": "uint64"
        },
        {
          "internalType": "address",
          "name": "treasury_",
          "type": "address"
        }
      ],
      "name": "initialize",
      "outputs": [],
      "stateMutability": "nonpayable",
      "type": "function"
    },
    {
      "inputs": [
        {
          "internalType": "uint256",
          "name": "playerId",
          "type": "uint256"
        },
        {
          "internalType": "address",
          "name": "newWallet",
          "type": "address"
        }
      ],
      "name": "initiateWalletUpdate",
      "outputs": [],
      "stateMutability": "nonpayable",
      "type": "function"
    },
    {
      "inputs": [
        {
          "internalType": "address",
          "name": "owner",
          "type": "address"
        },
        {
          "internalType": "address",
          "name": "operator",
          "type": "address"
        }
      ],
      "name": "isApprovedForAll",
      "outputs": [
        {
          "internalType": "bool",
          "name": "",
          "type": "bool"
        }
      ],
      "stateMutability": "view",
      "type": "function"
    },
    {
      "inputs": [
        {
          "internalType": "uint256",
          "name": "playerId",
          "type": "uint256"
        },
        {
          "internalType": "uint256",
          "name": "askingPrice",
          "type": "uint256"
        }
      ],
      "name": "listPlayer",
      "outputs": [],
      "stateMutability": "nonpayable",
      "type": "function"
    },
    {
      "inputs": [],
      "name": "listingFee",
      "outputs": [
        {
          "internalType": "uint64",
          "name": "",
          "type": "uint64"
        }
      ],
      "stateMutability": "view",
      "type": "function"
    },
    {
      "inputs": [
        {
          "internalType": "uint256",
          "name": "playerId",
          "type": "uint256"
        },
        {
          "internalType": "address",
          "name": "actor",
          "type": "address"
        }
      ],
      "name": "markPlayerVerified",
      "outputs": [],
      "stateMutability": "nonpayable",
      "type": "function"
    },
    {
      "inputs": [],
      "name": "name",
      "outputs": [
        {
          "internalType": "string",
          "name": "",
          "type": "string"
        }
      ],
      "stateMutability": "view",
      "type": "function"
    },
    {
      "inputs": [
        {
          "internalType": "uint256",
          "name": "tokenId",
          "type": "uint256"
        }
      ],
      "name": "ownerOf",
      "outputs": [
        {
          "internalType": "address",
          "name": "",
          "type": "address"
        }
      ],
      "stateMutability": "view",
      "type": "function"
    },
    {
      "inputs": [],
      "name": "pause",
      "outputs": [],
      "stateMutability": "nonpayable",
      "type": "function"
    },
    {
      "inputs": [],
      "name": "paused",
      "outputs": [
        {
          "internalType": "bool",
          "name": "",
          "type": "bool"
        }
      ],
      "stateMutability": "view",
      "type": "function"
    },
    {
      "inputs": [],
      "name": "protocolFeeBps",
      "outputs": [
        {
          "internalType": "uint16",
          "name": "",
          "type": "uint16"
        }
      ],
      "stateMutability": "view",
      "type": "function"
    },
    {
      "inputs": [],
      "name": "protocolFeesAccumulated",
      "outputs": [
        {
          "internalType": "uint256",
          "name": "",
          "type": "uint256"
        }
      ],
      "stateMutability": "view",
      "type": "function"
    },
    {
      "inputs": [],
      "name": "protocolTreasury",
      "outputs": [
        {
          "internalType": "address",
          "name": "",
          "type": "address"
        }
      ],
      "stateMutability": "view",
      "type": "function"
    },
    {
      "inputs": [],
      "name": "proxiableUUID",
      "outputs": [
        {
          "internalType": "bytes32",
          "name": "",
          "type": "bytes32"
        }
      ],
      "stateMutability": "view",
      "type": "function"
    },
    {
      "inputs": [
        {
          "internalType": "address",
          "name": "club",
          "type": "address"
        },
        {
          "internalType": "string",
          "name": "name",
          "type": "string"
        },
        {
          "internalType": "address",
          "name": "registrar",
          "type": "address"
        }
      ],
      "name": "registerClub",
      "outputs": [],
      "stateMutability": "nonpayable",
      "type": "function"
    },
    {
      "inputs": [
        {
          "internalType": "string",
          "name": "name",
          "type": "string"
        },
        {
          "internalType": "string",
          "name": "position",
          "type": "string"
        },
        {
          "internalType": "string",
          "name": "nationality",
          "type": "string"
        },
        {
          "internalType": "uint40",
          "name": "contractExpiry",
          "type": "uint40"
        },
        {
          "internalType": "uint256",
          "name": "weeklySalary",
          "type": "uint256"
        },
        {
          "internalType": "bytes32",
          "name": "fifaId",
          "type": "bytes32"
        }
      ],
      "name": "registerPlayer",
      "outputs": [],
      "stateMutability": "nonpayable",
      "type": "function"
    },
    {
      "inputs": [],
      "name": "registrationFee",
      "outputs": [
        {
          "internalType": "uint64",
          "name": "",
          "type": "uint64"
        }
      ],
      "stateMutability": "view",
      "type": "function"
    },
    {
      "inputs": [
        {
          "internalType": "bytes32",
          "name": "role",
          "type": "bytes32"
        },
        {
          "internalType": "address",
          "name": "callerConfirmation",
          "type": "address"
        }
      ],
      "name": "renounceRole",
      "outputs": [],
      "stateMutability": "nonpayable",
      "type": "function"
    },
    {
      "inputs": [
        {
          "internalType": "uint256",
          "name": "playerId",
          "type": "uint256"
        },
        {
          "internalType": "address",
          "name": "actor",
          "type": "address"
        }
      ],
      "name": "resetWallet",
      "outputs": [],
      "stateMutability": "nonpayable",
      "type": "function"
    },
    {
      "inputs": [
        {
          "internalType": "address",
          "name": "league",
          "type": "address"
        }
      ],
      "name": "revokeLeagueRole",
      "outputs": [],
      "stateMutability": "nonpayable",
      "type": "function"
    },
    {
      "inputs": [
        {
          "internalType": "address",
          "name": "registrar",
          "type": "address"
        }
      ],
      "name": "revokeRegistrarRole",
      "outputs": [],
      "stateMutability": "nonpayable",
      "type": "function"
    },
    {
      "inputs": [
        {
          "internalType": "bytes32",
          "name": "role",
          "type": "bytes32"
        },
        {
          "internalType": "address",
          "name": "account",
          "type": "address"
        }
      ],
      "name": "revokeRole",
      "outputs": [],
      "stateMutability": "nonpayable",
      "type": "function"
    },
    {
      "inputs": [
        {
          "internalType": "address",
          "name": "from",
          "type": "address"
        },
        {
          "internalType": "address",
          "name": "to",
          "type": "address"
        },
        {
          "internalType": "uint256",
          "name": "tokenId",
          "type": "uint256"
        }
      ],
      "name": "safeTransferFrom",
      "outputs": [],
      "stateMutability": "nonpayable",
      "type": "function"
    },
    {
      "inputs": [
        {
          "internalType": "address",
          "name": "",
          "type": "address"
        },
        {
          "internalType": "address",
          "name": "",
          "type": "address"
        },
        {
          "internalType": "uint256",
          "name": "",
          "type": "uint256"
        },
        {
          "internalType": "bytes",
          "name": "",
          "type": "bytes"
        }
      ],
      "name": "safeTransferFrom",
      "outputs": [],
      "stateMutability": "pure",
      "type": "function"
    },
    {
      "inputs": [
        {
          "internalType": "uint64",
          "name": "newFee",
          "type": "uint64"
        }
      ],
      "name": "scheduleBaseVerificationFee",
      "outputs": [],
      "stateMutability": "nonpayable",
      "type": "function"
    },
    {
      "inputs": [
        {
          "internalType": "address",
          "name": "newTreasury",
          "type": "address"
        }
      ],
      "name": "scheduleProtocolTreasuryUpdate",
      "outputs": [],
      "stateMutability": "nonpayable",
      "type": "function"
    },
    {
      "inputs": [
        {
          "internalType": "address",
          "name": "",
          "type": "address"
        },
        {
          "internalType": "bool",
          "name": "",
          "type": "bool"
        }
      ],
      "name": "setApprovalForAll",
      "outputs": [],
      "stateMutability": "pure",
      "type": "function"
    },
    {
      "inputs": [
        {
          "internalType": "uint256",
          "name": "playerId",
          "type": "uint256"
        },
        {
          "internalType": "address",
          "name": "actor",
          "type": "address"
        }
      ],
      "name": "setLegalDocsVerified",
      "outputs": [],
      "stateMutability": "nonpayable",
      "type": "function"
    },
    {
      "inputs": [
        {
          "internalType": "uint64",
          "name": "fee",
          "type": "uint64"
        }
      ],
      "name": "setListingFee",
      "outputs": [],
      "stateMutability": "nonpayable",
      "type": "function"
    },
    {
      "inputs": [
        {
          "internalType": "uint256",
          "name": "playerId",
          "type": "uint256"
        },
        {
          "internalType": "bytes32",
          "name": "documentHash",
          "type": "bytes32"
        }
      ],
      "name": "setMedicalClearance",
      "outputs": [],
      "stateMutability": "nonpayable",
      "type": "function"
    },
    {
      "inputs": [
        {
          "internalType": "uint256",
          "name": "playerId",
          "type": "uint256"
        },
        {
          "internalType": "address",
          "name": "actor",
          "type": "address"
        }
      ],
      "name": "setMedicalVerified",
      "outputs": [],
      "stateMutability": "nonpayable",
      "type": "function"
    },
    {
      "inputs": [
        {
          "internalType": "uint256",
          "name": "playerId",
          "type": "uint256"
        },
        {
          "internalType": "address",
          "name": "wallet",
          "type": "address"
        }
      ],
      "name": "setPlayerWallet",
      "outputs": [],
      "stateMutability": "nonpayable",
      "type": "function"
    },
    {
      "inputs": [
        {
          "internalType": "uint16",
          "name": "bps",
          "type": "uint16"
        }
      ],
      "name": "setProtocolFeeBps",
      "outputs": [],
      "stateMutability": "nonpayable",
      "type": "function"
    },
    {
      "inputs": [
        {
          "internalType": "uint64",
          "name": "fee",
          "type": "uint64"
        }
      ],
      "name": "setRegistrationFee",
      "outputs": [],
      "stateMutability": "nonpayable",
      "type": "function"
    },
    {
      "inputs": [
        {
          "internalType": "uint256",
          "name": "playerId",
          "type": "uint256"
        },
        {
          "internalType": "uint256",
          "name": "amount",
          "type": "uint256"
        }
      ],
      "name": "setReleaseClause",
      "outputs": [],
      "stateMutability": "nonpayable",
      "type": "function"
    },
    {
      "inputs": [
        {
          "internalType": "address",
          "name": "mgr",
          "type": "address"
        }
      ],
      "name": "setTerminationManager",
      "outputs": [],
      "stateMutability": "nonpayable",
      "type": "function"
    },
    {
      "inputs": [
        {
          "internalType": "address",
          "name": "renderer",
          "type": "address"
        }
      ],
      "name": "setTokenURIRenderer",
      "outputs": [],
      "stateMutability": "nonpayable",
      "type": "function"
    },
    {
      "inputs": [
        {
          "internalType": "uint256",
          "name": "playerId",
          "type": "uint256"
        },
        {
          "internalType": "bool",
          "name": "active",
          "type": "bool"
        }
      ],
      "name": "setVerificationActive",
      "outputs": [],
      "stateMutability": "nonpayable",
      "type": "function"
    },
    {
      "inputs": [
        {
          "internalType": "uint256",
          "name": "fee",
          "type": "uint256"
        }
      ],
      "name": "setVerificationFee",
      "outputs": [],
      "stateMutability": "nonpayable",
      "type": "function"
    },
    {
      "inputs": [
        {
          "internalType": "uint256",
          "name": "playerId",
          "type": "uint256"
        },
        {
          "internalType": "bytes32",
          "name": "registrationContractHash",
          "type": "bytes32"
        },
        {
          "internalType": "bytes32",
          "name": "fifaTMSHash",
          "type": "bytes32"
        },
        {
          "internalType": "bytes32",
          "name": "workPermitHash",
          "type": "bytes32"
        }
      ],
      "name": "submitLegalDocuments",
      "outputs": [],
      "stateMutability": "nonpayable",
      "type": "function"
    },
    {
      "inputs": [
        {
          "internalType": "bytes4",
          "name": "interfaceId",
          "type": "bytes4"
        }
      ],
      "name": "supportsInterface",
      "outputs": [
        {
          "internalType": "bool",
          "name": "",
          "type": "bool"
        }
      ],
      "stateMutability": "view",
      "type": "function"
    },
    {
      "inputs": [],
      "name": "symbol",
      "outputs": [
        {
          "internalType": "string",
          "name": "",
          "type": "string"
        }
      ],
      "stateMutability": "view",
      "type": "function"
    },
    {
      "inputs": [],
      "name": "terminationManager",
      "outputs": [
        {
          "internalType": "address",
          "name": "",
          "type": "address"
        }
      ],
      "stateMutability": "view",
      "type": "function"
    },
    {
      "inputs": [
        {
          "internalType": "uint256",
          "name": "playerId",
          "type": "uint256"
        }
      ],
      "name": "tokenURI",
      "outputs": [
        {
          "internalType": "string",
          "name": "",
          "type": "string"
        }
      ],
      "stateMutability": "view",
      "type": "function"
    },
    {
      "inputs": [],
      "name": "tokenURIRenderer",
      "outputs": [
        {
          "internalType": "contract IPlayerTokenURIRenderer",
          "name": "",
          "type": "address"
        }
      ],
      "stateMutability": "view",
      "type": "function"
    },
    {
      "inputs": [],
      "name": "totalPausedDuration",
      "outputs": [
        {
          "internalType": "uint256",
          "name": "",
          "type": "uint256"
        }
      ],
      "stateMutability": "view",
      "type": "function"
    },
    {
      "inputs": [],
      "name": "totalPlayers",
      "outputs": [
        {
          "internalType": "uint256",
          "name": "",
          "type": "uint256"
        }
      ],
      "stateMutability": "view",
      "type": "function"
    },
    {
      "inputs": [
        {
          "internalType": "address",
          "name": "",
          "type": "address"
        },
        {
          "internalType": "address",
          "name": "",
          "type": "address"
        },
        {
          "internalType": "uint256",
          "name": "",
          "type": "uint256"
        }
      ],
      "name": "transferFrom",
      "outputs": [],
      "stateMutability": "pure",
      "type": "function"
    },
    {
      "inputs": [],
      "name": "unpause",
      "outputs": [],
      "stateMutability": "nonpayable",
      "type": "function"
    },
    {
      "inputs": [
        {
          "internalType": "uint256",
          "name": "playerId",
          "type": "uint256"
        },
        {
          "internalType": "uint256",
          "name": "askingPrice",
          "type": "uint256"
        }
      ],
      "name": "updateAskingPrice",
      "outputs": [],
      "stateMutability": "nonpayable",
      "type": "function"
    },
    {
      "inputs": [
        {
          "internalType": "address",
          "name": "newImplementation",
          "type": "address"
        },
        {
          "internalType": "bytes",
          "name": "data",
          "type": "bytes"
        }
      ],
      "name": "upgradeToAndCall",
      "outputs": [],
      "stateMutability": "payable",
      "type": "function"
    },
    {
      "inputs": [
        {
          "internalType": "uint256",
          "name": "",
          "type": "uint256"
        }
      ],
      "name": "verificationActive",
      "outputs": [
        {
          "internalType": "bool",
          "name": "",
          "type": "bool"
        }
      ],
      "stateMutability": "view",
      "type": "function"
    },
    {
      "inputs": [
        {
          "internalType": "uint256",
          "name": "amount",
          "type": "uint256"
        }
      ],
      "name": "withdrawFees",
      "outputs": [],
      "stateMutability": "nonpayable",
      "type": "function"
    },
    {
      "inputs": [],
      "name": "withdrawRegistrarFees",
      "outputs": [],
      "stateMutability": "nonpayable",
      "type": "function"
    }
  ],
  "bytecode": "0x60a080604052346100c257306080525f5160206160585f395f51905f525460ff8160401c166100b3576002600160401b03196001600160401b03821601610060575b604051615f9190816100c78239608051818181612ed001526130840152f35b6001600160401b0319166001600160401b039081175f5160206160585f395f51905f525581527fc7f505b2f371ae2175ee4913f4499e1f2633a7b5936321eed1cdaeb6115181d290602090a15f80610041565b63f92ee8a960e01b5f5260045ffd5b5f80fdfe60806040526004361015610011575f80fd5b5f5f3560e01c80625cf9ba14614b4157806301ffc9a714614ab9578063045f616c14614a775780630510d81014614a5a57806306fdde031461498b578063081812fc14614943578063095ea7b31461491a5780630a32e297146140375780630de3e6651461400d57806313c77ef414613fc857806314c44e0914613f9c5780631809c40e14613ef05780631da5568014613ec95780631e08e2e914613e905780631ed28f4a14613dbb57806323b872dd14613d9b578063248a9ca314613d7557806324d4275c14613cee578063256123d914613cd1578063281b482614613b4c578063298683431461384157806329d0eb34146137915780632ae70103146137625780632f2ff15d146137305780632ffeb8a6146136f7578063302d2a87146136bd5780633067c6501461369f57806332f65ba3146134275780633354562214612bd657806335659fb81461340257806336568abe146133bd5780633f4ba83a1461331157806342842e0e146132e0578063459d3d8f146132b257806347d22159146132145780634f1ef286146130445780635229696814612f2457806352d1902d14612ebd57806353fb337914611f075780635889966714612e455780635c975abb14612e165780635e318e0714612d3b57806360e49e4414612d135780636352211e1461157f578063663d112a14612c665780636a1b7ecc14612c3d5780636cc232e914612c035780636ce76f3014612bdb5780636d947e4b14612bd65780636fd113ee14612b9d578063709b6cf814612b7457806370a0823114612b22578063717a603314612a7957806375b238fc14612a515780637b9ea296146128f55780637e41162b146128475780637f107c5f14612702578063803db96d146126d95780638456cb59146126625780638607498514612646578063902d0067146120ce57806391d14854146120785780639395039c14611ff457806395d89b4114611f0c578063968de9ab14611f075780639beca04e14611ece5780639c69792214611d895780639ecd7bae14611d48578063a0d596cc14611c99578063a217fddf14611c7d578063a22cb46514611c57578063a99e8fba14611bd5578063aabfa37d14611bae578063aae9d5f214611ace578063ad3cb1cc14611a85578063b7e3172b146119ea578063b88d4fde14611998578063bbc652f91461196e578063bc063e1a1461194e578063be37b12c146118b3578063c5da628114611805578063c87b56dd146115b0578063d3a28d6a1461157f578063d491d1ac1461139a578063d50bac3314611371578063d547741f14611336578063d72c6f2014611226578063d8541cf614610f8b578063e55ae4e814610c8d578063e8fa92bf14610b96578063e985e9c514610b1e578063ee3ee5b814610a67578063eea246db146107ea578063f3ee48bb14610753578063f60cdcf614610735578063f68e95531461070d578063f759c22d1461065a578063f8c7f5a2146105f9578063f9ab6db914610544578063fadd4603146104fc578063fc8045b1146104d45763ff87a5f51461047b575f80fd5b346104d15760203660031901126104d157610494614b89565b61049c615045565b6001600160a01b031680156104c257600180546001600160a01b03191691909117905580f35b63d92e233d60e01b8252600482fd5b80fd5b50346104d157806003193601126104d15760206040515f516020615efc5f395f51905f528152f35b50346104d15760203660031901126104d157610516614b89565b61051e615045565b6001600160a01b031680156104c257600280546001600160a01b03191691909117905580f35b50346104d15760203660031901126104d1576001600160a01b03610566614b89565b168152600f60205260408120604051908160208254918281520190819285526020852090855b8181106105e357505050826105a2910383614ce4565b604051928392602084019060208552518091526040840192915b8181106105ca575050500390f35b82518452859450602093840193909201916001016105bc565b825484526020909301926001928301920161058c565b50346104d15760203660031901126104d1576040610615614b89565b915f516020615efc5f395f51905f5281525f516020615dbc5f395f51905f52602052209060018060a01b03165f52602052602060ff60405f2054166040519015158152f35b50346104d157806003193601126104d157610673615169565b6002600954146106fe5760026009553381526017602052604081205480156106ef573380835260176020526040832083905582546106bb9183916001600160a01b0316615997565b6040519081527f839b947ae76e4d03915141ffba2ebccafb67868fe86a7671ff586afae8892af760203392a2600160095580f35b630686827b60e51b8252600482fd5b6306fda65d60e31b8152600490fd5b50346104d157806003193601126104d15760206040515f516020615dfc5f395f51905f528152f35b50346104d157806003193601126104d1576020600c54604051908152f35b50346104d15760203660031901126104d15761076d614b89565b610775615045565b6001600160a01b031680156104c257600680546001600160a01b03191682179055426202a30081019081106107d6576020817f686003c563ac6d53a1e0d2aea06fc73beb941f8f05f3463b33b607717aabc67f92600755604051908152a280f35b634e487b7160e01b83526011600452602483fd5b50346104d15760603660031901126104d157610804614b89565b906024356001600160401b038111610a6357610824903690600401614bef565b61082f939193614bb5565b90610838615045565b6001600160a01b038316918215610a54576001600160a01b0316928315610a54578115610a455760408211610a2c575f516020615efc5f395f51905f5285525f516020615dbc5f395f51905f5260205260408520835f5260205260ff60405f205416610a18575f516020615dfc5f395f51905f5285525f516020615dbc5f395f51905f5260205260408520845f5260205260ff60405f20541615610a04576108df906154ee565b50818452601460205260408420946001600160401b0382116109f05761090f826109098854614dcb565b88614ea7565b8495601f831160011461098057610940838088995f516020615d9c5f395f51905f5297989991610975575b50614ee1565b90555b8386526015602052604080872080546001600160a01b031916871790555191829161096f919083614f8e565b0390a380f35b90508401355f61093a565b80865260208620601f19841697875b8981106109d85750845f516020615d9c5f395f51905f5296979899106109bf575b5050600183811b019055610943565b8301355f19600386901b60f8161c191690555f806109b0565b9091602060018192858801358155019301910161098f565b634e487b7160e01b85526041600452602485fd5b63bc0369a760e01b85526004849052602485fd5b63a97fceaf60e01b85526004839052602485fd5b63243cf1c960e01b855260048290526040602452604485fd5b63ecd7b0d160e01b8552600485fd5b63d92e233d60e01b8552600485fd5b5080fd5b50346104d15760203660031901126104d157610a81614b89565b610a89615045565b5f516020615dfc5f395f51905f5282525f516020615dbc5f395f51905f526020526040822060018060a01b0382165f5260205260ff60405f20541615610b0357610ad281615890565b506001600160a01b03167f05526ad2320f63e40599040a4504620b508d26bf57ebfaac890b651e2c5c34e68280a280f35b63bc0369a760e01b82526001600160a01b0316600452602490fd5b50346104d15760403660031901126104d157610b38614b89565b610b40614b9f565b915060018060a01b03165f527f80bb2b638cc20bc4d0a60d66940f3ab4a00c1d7b313497ca82fb0b4ab007930560205260405f209060018060a01b03165f52602052602060ff60405f2054166040519015158152f35b50346104d15760203660031901126104d157600435610bb361508e565b610bbc816155ff565b336001600160a01b0390911603610c7757610bd561562e565b808252600d602052604082205415610c6557808252600d602052600960408320015460f81c15610c5357808252600d6020818152604080852060090180546001600160f81b0316905583855291905282206005018290557f730bb3d177f199acb749ca25b9288c64178cd10b945419c3cdf5bcff119ac0b28280a280f35b631332ae4b60e11b8252600452602490fd5b6353bd43d960e01b8252600452602490fd5b6315884f4560e11b825260045233602452604490fd5b50346104d15760203660031901126104d157600435906060610200604051610cb481614cad565b83815282602082015282604082015282808201528360808201528360a08201528360c08201528360e08201528361010082015283610120820152836101408201528361016082015283610180820152836101a0820152836101c0820152836101e08201520152818152600d602052604081205415610f795780610f759260409252600d60205220600b610e5460405192610d4d84614cad565b80548452604051610d6c81610d658160018601614e03565b0382614ce4565b6020850152604051610d8581610d658160028601614e03565b6040850152604051610d9e81610d658160038601614e03565b606085015260048101546080850152600581015460a0850152600681015460c0850152600781015460e08501526008810154610100850152600981015460018060a01b03811661012086015264ffffffffff8160a01c1661014086015264ffffffffff8160c81c1661016086015260ff8160f01c16151561018086015260f81c15156101a085015260ff600a82015481811615156101c087015260081c1615156101e0850152610d656040518094819301614e03565b6102008201526040519182916020835280516020840152610200610ebb610ea5610e8f60208501516102206040890152610240880190614bcb565b6040850151878203601f19016060890152614bcb565b6060840151868203601f19016080880152614bcb565b91608081015160a086015260a081015160c086015260c081015160e086015260e081015161010086015261010081015161012086015260018060a01b036101208201511661014086015264ffffffffff6101408201511661016086015264ffffffffff6101608201511661018086015261018081015115156101a08601526101a081015115156101c08601526101c081015115156101e08601526101e08101511515828601520151601f1984830301610220850152614bcb565b0390f35b6024916353bd43d960e01b8252600452fd5b50346104d15760803660031901126104d15760643590600435602435604435610fb261508e565b610fbb836155ff565b336001600160a01b039091160361120e57610fd461562e565b828452600d6020526040842054156111fa5781156111eb5780156111eb578082146111dc5784151580806111d3575b6111bb5780806111ca575b6111bb57838552601360205260ff6040862054166111a757838552600e602052611058866002604088206110438782546159ef565b6110518660018301546159ef565b01546159ef565b828552601160205260ff60408620541661119357818552601160205260ff60408620541661117f578080611169575b61115557829186600392611112958852601160205260408820600160ff19825416179055828852601160205260408820600160ff19825416179055611139575b604051936110d485614cc9565b845260208401918252604084019081526060840191878352868852600e60205260408820945185555160018501555160028401555115159101614f18565b7f3f83989b93fff65ebbe421cc2147f8297134c7f8a440a07ff7de2f6f31ac0ca08280a280f35b808752601160205260408720805460ff191660011790556110c7565b63f2f8f56b60e01b85526004869052602485fd5b50858552601160205260ff604086205416611087565b63f2f8f56b60e01b85526004829052602485fd5b63f2f8f56b60e01b85526004839052602485fd5b6311261a2360e11b85526004849052602485fd5b63a822202960e01b8552600485fd5b5081861461100e565b50828614611003565b63a822202960e01b8452600484fd5b638e03edc960e01b8452600484fd5b6353bd43d960e01b84526004839052602484fd5b6315884f4560e11b8452600483905233602452604484fd5b50346104d15760403660031901126104d157600435611243614b9f565b61124b6150d7565b818352600d60205260408320541561132257818352600d60205260408320600901546001600160a01b03168061130f575b50818352600d6020908152604080852060090180546001600160a01b0319169055838552601890915283206003015460ff166112e4575b6001600160a01b0316907fe2c6a05f2c55d1efebd0ca043a678df3948c072bb16ae665f19b47dc3d625d288380a380f35b81835260186020526112f860408420614fd3565b815f516020615bfc5f395f51905f528480a26112b3565b835260196020528260408120555f61127c565b6353bd43d960e01b83526004829052602483fd5b50346104d15760403660031901126104d15761136d600435611356614b9f565b9061136861136382614fb5565b6151b2565b61590e565b5080f35b50346104d157806003193601126104d1576001546040516001600160a01b039091168152602090f35b50346104d15760403660031901126104d1576004356113b7614b9f565b818352600d60205260408320600901546001600160a01b03163303611567576113de61562e565b818352600d602052604083205415611322576001600160a01b031690811561155857808352600d60205260408320600901546001600160a01b0316821461154357808352601860205260ff600360408520015416611531578183526019602052604083205480151580611527575b61151057506202a30042018042116114fc5760207f9156013346739c9fc08c49672c3cdf916e38eff09544a83f499715e2dfad8b43916114f2600b5460036040519161149783614cc9565b88835285830185815260408085019283526001606086018181528b8e5260188a52918d20955186546001600160a01b0319166001600160a01b0391909116178655915191850191909155905160028401555115159101614f18565b604051908152a380f35b634e487b7160e01b84526011600452602484fd5b636f3208b360e01b84526004839052602452604483fd5b508181141561144c565b63619bbaeb60e11b8352600452602482fd5b636cf5528360e01b8352600452602452604490fd5b63d92e233d60e01b8352600483fd5b63158f740d60e01b8352600482905233602452604483fd5b50346104d15760203660031901126104d157602061159e6004356155ff565b6040516001600160a01b039091168152f35b50346104d15760203660031901126104d157600435808252600d602052604082205415610c655781600360ff9261172860018060a01b036001541691808552600d60205260408520908552600e60205260408520604051968795869485946311ca7c6960e21b865260a06004870152805460a487015261022060c4870152600b61167161165c6116476102c48a0160018601614e03565b89810360a3190160e48b015260028501614e03565b88810360a319016101048a0152838601614e03565b91600481015461012489015260058101546101448901526006810154610164890152600781015461018489015260088101546101a4890152600981015460018060a01b0381166101c48a015264ffffffffff8160a01c166101e48a015264ffffffffff8160c81c166102048a0152868160f01c1615156102248a015260f81c151561024489015285600a82015481811615156102648b015260081c16151561028489015260a319888403016102a489015201614e03565b928054602486015260018101546044860152600281015460648601520154161515608483015203915afa9081156117fa578291611776575b60405160208082528190610f7590820185614bcb565b90503d8083833e6117878183614ce4565b8101906020818303126117f6578051906001600160401b0382116117f2570181601f820112156117f6578051906117bd82614d07565b926117cb6040519485614ce4565b828452602083830101116117f25781610f75949260208093018386015e830101525f611760565b8380fd5b8280fd5b6040513d84823e3d90fd5b50346104d15760203660031901126104d15761181f614c2b565b611827615045565b6001600160401b038116906402540be40082116118965760028054600160a01b600160e01b03191660a09290921b600160a01b600160e01b03169190911790556040519081527f3836764761eb705a9815e9070541f9a604757da847d45d157a28f14b58b5f5e690602090a180f35b6373ab893560e11b835260048290526402540be400602452604483fd5b50346104d15760203660031901126104d15760043561ffff8116908181036117f6576118dd615045565b6107d08211611934576003805461ffff60801b191660809290921b61ffff60801b169190911790556040519081527f1f7984367beac902572c9bfc73b4727796e98a777f5b13cb2b87d78b64d4d14090602090a180f35b631a7fbad960e01b835260048290526107d0602452604483fd5b50346104d157806003193601126104d15760206040516402540be4008152f35b50346104d15760203660031901126104d15761136d61198b614b89565b611993615045565b615812565b50346104d15760803660031901126104d1576119b2614b89565b506119bb614b9f565b506064356001600160401b038111610a6357906119dd60049236908401614d58565b50633ee6509d60e01b8152fd5b50346104d15760203660031901126104d157600435611a0761508e565b611a10816155ff565b336001600160a01b0390911603610c7757808252600d602052604082205415610c6557808252601860205260ff60036040842001541615611a73578082526018602052611a5f60408320614fd3565b5f516020615bfc5f395f51905f528280a280f35b63b24011b160e01b8252600452602490fd5b50346104d157806003193601126104d15750610f75604051611aa8604082614ce4565b60058152640352e302e360dc1b6020820152604051918291602083526020830190614bcb565b50346104d15760203660031901126104d157600435611aeb615169565b6402540be4008111611b935760035460401c6001600160401b031680158015611b4e575b505033825260166020528060408320556040519081527fc087ad6d1af0681c75442debe27cf1a98acacd8ef89841000e388c6403b9bbb360203392a280f35b6107d08202908282046107d01417156114fc5790612710611b70920490614e84565b808211611b7d5780611b0f565b604492916347d04c5960e11b8352600452602452fd5b6373ab893560e11b82526004526402540be400602452604490fd5b50346104d157806003193601126104d157546040516001600160a01b039091168152602090f35b50346104d15760403660031901126104d157600435611bf2614b9f565b611bfa6150d7565b818352600d60205260408320541561132257818352600e60205260408320600301805460ff191660011790556001600160a01b0316907fed2c2ce3d8062cf2c584e4704b6b6c06054e976cdc006ae754859d9de41eb0a08380a380f35b50346104d15760403660031901126104d157600490611c74614b89565b506119dd614c1c565b50346104d157806003193601126104d157602090604051908152f35b50346104d15760203660031901126104d157611cb3614b89565b611cbb615045565b6001600160a01b038116908115611558575f516020615dfc5f395f51905f5283525f516020615dbc5f395f51905f5260205260408320825f5260205260ff60405f205416611d3457611d0c9061546e565b507f6a7c5c367a424b90c40d24c7782472dac06c017153422ee2142f8159719ce0258280a280f35b637f0227a360e01b83526004829052602483fd5b50346104d15760203660031901126104d1576020906001600160a01b03611d6d614b89565b16815260158252604060018060a01b0391205416604051908152f35b50346104d15760203660031901126104d157600435808252600d602052604082205415610c655780825260186020526040822060ff60038201541615611eba57611de7611ddd600b54600284015490614fea565b6001830154614e84565b804210611e9f5750818352600d60205260018060a01b036009604085200154169060018060a01b03905416918084526018602052611e2760408520614fd3565b81611e8c575b828452601960209081526040808620839055828652600d909152842060090180546001600160a01b0319166001600160a01b0385161790557fdc4a16aede312567e937542ab0822ff675ccbc957ac789deb0303c0b2f825db18480a480f35b8184526019602052836040812055611e2d565b633415f16160e01b8452600483905260245242604452606483fd5b63b24011b160e01b83526004829052602483fd5b50346104d15760203660031901126104d1576020906040906001600160a01b03611ef6614b89565b168152601783522054604051908152f35b614d76565b50346104d157806003193601126104d15760405190805f516020615edc5f395f51905f525490611f3b82614dcb565b8085529160018116908115611fcd5750600114611f77575b610f7584611f6381860382614ce4565b604051918291602083526020830190614bcb565b5f516020615edc5f395f51905f5281525f516020615c5c5f395f51905f52939250905b808210611fb357509091508101602001611f6382611f53565b919260018160209254838588010152019101909291611f9a565b60ff191660208087019190915292151560051b85019092019250611f639150839050611f53565b50346104d15760403660031901126104d157600435612011614b9f565b6120196150d7565b818352600d60205260408320541561132257818352600d60205260408320600a01805461ff0019166101001790556001600160a01b0316907f8b95d4c1f70545e3211da8c10f5ba1da89e0235f4aeb3b3fc06affdaa74fb5648380a380f35b50346104d15760403660031901126104d1576040612094614b9f565b9160043581525f516020615dbc5f395f51905f52602052209060018060a01b03165f52602052602060ff60405f2054166040519015158152f35b50346104d15760a03660031901126104d1576120e8614b89565b6024356001600160401b03811691908281036117f2576044356001600160401b0381169081900361264257606435906001600160401b038216820361263e576084356001600160a01b038116939084900361263a575f516020615ebc5f395f51905f5254604081901c60ff161595906001600160401b031680159081612632575b6001149081612628575b15908161261f575b50612610575f516020615ebc5f395f51905f5280546001600160401b0319166001179055856125ec575b6001600160a01b03169586156125dd5784156125dd576402540be40081116125c257506402540be40082116125a55760409586516121e38882614ce4565b60128152712a3930b739b332b934bab690283630bcb2b960711b602082015287519061220f8983614ce4565b60048252630545246560e41b6020830152612228615b04565b612230615b04565b8051906001600160401b038211612591576122585f516020615c3c5f395f51905f5254614dcb565b601f811161254a575b50602090601f83116001146124ce5761228492918c91836123e1575b5050614ee1565b5f516020615c3c5f395f51905f52555b8051906001600160401b0382116124ba576122bc5f516020615edc5f395f51905f5254614dcb565b601f8111612468575b50602090601f83116001146123ec576122e792918b91836123e1575050614ee1565b5f516020615edc5f395f51905f52555b6122ff615b04565b612307615b04565b600160095587546001600160a01b031990811691909117885560028054600160a01b600160e01b03191660a09390931b600160a01b600160e01b031692909217909155600380546001600160801b0319169290921792861b600160401b600160801b0316929092179055600580549091169190911790556123873361537d565b50612391336153ee565b5061239a575080f35b5f516020615ebc5f395f51905f52805460ff60401b1916905551600181527fc7f505b2f371ae2175ee4913f4499e1f2633a7b5936321eed1cdaeb6115181d290602090a180f35b015190505f8061227d565b5f516020615edc5f395f51905f528b52818b209190601f1984168c5b8181106124505750908460019594939210612438575b505050811b015f516020615edc5f395f51905f52556122f7565b01515f1960f88460031b161c191690555f808061241e565b92936020600181928786015181550195019301612408565b5f516020615edc5f395f51905f528b526124aa905f516020615c5c5f395f51905f52601f850160051c810191602086106124b0575b601f0160051c0190614e91565b5f6122c5565b909150819061249d565b634e487b7160e01b8a52604160045260248afd5b5f516020615c3c5f395f51905f528c52818c209190601f1984168d5b818110612532575090846001959493921061251a575b505050811b015f516020615c3c5f395f51905f5255612294565b01515f1960f88460031b161c191690555f8080612500565b929360206001819287860151815501950193016124ea565b5f516020615c3c5f395f51905f528c5261258b905f516020615f1c5f395f51905f52601f850160051c810191602086106124b057601f0160051c0190614e91565b5f612261565b634e487b7160e01b8b52604160045260248bfd5b6373ab893560e11b875260048290526402540be400602452604487fd5b6373ab893560e11b88526004526402540be400602452604487fd5b63d92e233d60e01b8852600488fd5b5f516020615ebc5f395f51905f52805460ff60401b1916600160401b1790556121a5565b63f92ee8a960e01b8852600488fd5b9050155f61217b565b303b159150612173565b879150612169565b8680fd5b8580fd5b8480fd5b50346104d157806003193601126104d157602060405160408152f35b50346104d157806003193601126104d15761267b615045565b42600a5561268761562e565b600160ff195f516020615e1c5f395f51905f525416175f516020615e1c5f395f51905f52557f62e78cea01bee320cd4e420270b5ea74000d11b0c9f74754ebdbfc544b05a2586020604051338152a180f35b50346104d157806003193601126104d1576005546040516001600160a01b039091168152602090f35b50346104d15761271136614c7b565b61271961508e565b612722826155ff565b336001600160a01b039091160361282f5761273b61562e565b818352600d60205260408320541561132257818352600d6020526040832060098101805460ff8160f01c161561281b5760f81c61280757918060056020937f561c3416be862008e42c047485cffa3005672af024d117176d50f73461a88e4c9560018060401b0360035416806127cc575b5080546001600160f81b0316600160f81b1790550155604051908152a280f35b89546127e59190309033906001600160a01b0316615655565b6003546008546127fe916001600160401b031690614e84565b6008555f6127ac565b635423ae7360e01b85526004849052602485fd5b6334a8bcef60e01b86526004859052602486fd5b6315884f4560e11b8352600482905233602452604483fd5b50346104d15760403660031901126104d157600435612864614b9f565b61286c6150d7565b818352600d60205260408320541561132257818352600d60205260408320600901805460ff60f01b1916600160f01b1790556001600160a01b03169081817fb0362fc6491538fb6678490452845f8ad657e21a73e47a0ee8d96382b743c1648580a37f37874770a804a7f707dcd526cb63a107863b9244f5487cc592b592806c8aa7678380a380f35b50346104d15760403660031901126104d157600435612912614b9f565b61291a61508e565b612923826155ff565b336001600160a01b039091160361282f5761293c61562e565b818352600d602052604083205415611322576001600160a01b031690811561155857808352600d60205260408320600901546001600160a01b0316821461154357808352601360205260ff604084205416612a3f578183526019602052604083205480151580612a35575b6115105750808352600d60205260408320600901546001600160a01b031680612a22575b50818352601960209081526040808520839055828552600d909152832060090180546001600160a01b031916831790557f1b808932b8c3b514083772af7b7d61295f17204a7d2ba98b5f46c08e766c25a78380a380f35b835260196020528260408120555f6129cb565b50818114156129a7565b6311261a2360e11b8352600452602482fd5b50346104d157806003193601126104d15760206040515f516020615e5c5f395f51905f528152f35b50346104d15760403660031901126104d15760043560243564ffffffffff8116908181036117f257612aa961508e565b612ab2836155ff565b336001600160a01b039091160361120e57612acb61562e565b828452600d6020526040842054156111fa577f2bfea865c31234064fed3b7148737e69eee440ca711e22dcf3d1b22ba2f66a5f91612b18602092858752600d845260096040882001614ef3565b604051908152a280f35b50346104d15760203660031901126104d157612b3c614b89565b906001600160a01b03821615612b60576020612b5783614d93565b54604051908152f35b6322718ad960e21b81526004819052602490fd5b50346104d157806003193601126104d1576002546040516001600160a01b039091168152602090f35b50346104d15760203660031901126104d1576020906040906001600160a01b03612bc5614b89565b168152601983522054604051908152f35b614c91565b50346104d157806003193601126104d15760206040515f516020615c7c5f395f51905f528152f35b50346104d15760203660031901126104d157612c1d614b89565b612c25615045565b6001600160a01b038116156104c25761136d906152fd565b50346104d157806003193601126104d1576003546040516001600160401b039091168152602090f35b50346104d15760203660031901126104d15760043590806060604051612c8b81614cc9565b8281528260208201528260408201520152818152600d602052604081205415610f79578060809260409252600e60205220604051612cc881614cc9565b815491828252600181015460208301908152606060ff600360028501549460408701958652015416930192151583526040519384525160208401525160408301525115156060820152f35b50346104d157806003193601126104d15760206040515f516020615d5c5f395f51905f528152f35b50346104d15760203660031901126104d157600435612d58615045565b600260095414612e075760026009558015612df857600854808211612de25781612d8191614fea565b6008558154600554612da19183916001600160a01b039081169116615997565b6005546040519182526001600160a01b0316907fc0819c13be868895eb93e40eaceb96de976442fa1d404e5c55f14bb65a8c489a90602090a2600160095580f35b6044929163ac28c08360e01b8352600452602452fd5b631f2a200560e01b8252600482fd5b6306fda65d60e31b8252600482fd5b50346104d157806003193601126104d157602060ff5f516020615e1c5f395f51905f5254166040519015158152f35b50346104d15760203660031901126104d157612e5f614c2b565b612e67615045565b6001600160401b03166402540be4008111611b9357600380546001600160401b031916821790556040519081527f1e824c7e20e36968ef401e2236f2bf4779d7c0792b029593bb95c98f3567ca5590602090a180f35b50346104d157806003193601126104d1577f00000000000000000000000000000000000000000000000000000000000000006001600160a01b03163003612f155760206040515f516020615d1c5f395f51905f528152f35b63703e46dd60e11b8152600490fd5b50346104d15760203660031901126104d157612f3e614b89565b612f46615045565b5f516020615efc5f395f51905f5282525f516020615dbc5f395f51905f526020526040822060018060a01b0382165f5260205260ff60405f20541615613029576001600160a01b038116808352600f602052604083205490919061300557612fad90615794565b5080825260156020908152604080842080546001600160a01b031916905582845260149091528220612fde90614ff7565b7ff7e8d19c1965c93ed28c89fdcdadb0a7ff3199071e854a2dac708a1167893dd28280a280f35b818352600f60205260408320546329a55f4160e11b84526004839052602452604483fd5b631b209e1560e01b82526001600160a01b0316600452602490fd5b5060403660031901126104d157613059614b89565b906024356001600160401b038111610a6357613079903690600401614d58565b916001600160a01b037f0000000000000000000000000000000000000000000000000000000000000000163081149081156131f2575b506131e3576130bc615045565b6040516352d1902d60e01b8152926001600160a01b0382169190602085600481865afa809585966131af575b5061310157634c9c8ce360e01b84526004839052602484fd5b9091845f516020615d1c5f395f51905f52810361319d5750823b1561318b575f516020615d1c5f395f51905f5280546001600160a01b031916821790557fbc7cd75a20ee27fd9adebab32041f755214dbc6bffa90cc0225b39da2e5c2d3b8480a28051156131725761136d91615b2f565b50503461317c5780f35b63b398979f60e01b8152600490fd5b634c9c8ce360e01b8452600452602483fd5b632a87526960e21b8552600452602484fd5b9095506020813d6020116131db575b816131cb60209383614ce4565b810103126126425751945f6130e8565b3d91506131be565b63703e46dd60e11b8252600482fd5b5f516020615d1c5f395f51905f52546001600160a01b0316141590505f6130af565b50346104d157806003193601126104d15761322d615045565b60075480156132a35780421061328d5750600580546006546001600160a01b039081166001600160a01b0319831681179093556007849055167f0c5d18caa145415182f8ad3d2563da586609cec04ac8505274d87bc43f00b4a48380a380f35b636769976d60e11b825260045242602452604490fd5b6315090c2d60e01b8252600482fd5b50346104d15760203660031901126104d1576132cc6150d7565b6132da600435600854614e84565b60085580f35b50346104d1576004906132f236614c41565b50505080604051613304602082614ce4565b52633ee6509d60e01b8152fd5b50346104d157806003193601126104d15761332a615045565b600a548061339b575b505f516020615e1c5f395f51905f525460ff81161561338c5760ff19165f516020615e1c5f395f51905f52557f5db9ee0a495bf2e6ff9c91a7834c1ba4fdd244a5e8aa4e537bd38aeae4b073aa6020604051338152a180f35b638dfc202b60e01b8252600482fd5b6133a86133b09142614fea565b600b54614e84565b600b5580600a555f613333565b50346104d15760403660031901126104d1576133d7614b9f565b336001600160a01b038216036133f35761136d9060043561590e565b63334bd91960e11b8252600482fd5b50346104d157806003193601126104d157602061ffff60035460801c16604051908152f35b50346104d15760603660031901126104d15760043590613445614b9f565b9161344e614bb5565b92613457615120565b818352600d602052604083205415611322576001600160a01b038116938415613690576001600160a01b038116918215610a54576002546001600160a01b031680613637575b5061353f9084865260136020526040862060ff198154169055848652600d602052856007604082206009810160018060f81b038154169055826005820155826006820155600a810161ffff1981541690550180548061361b575b5050859052600e602052600260408720805480613602575b506001810154806135e9575b500154806135d0575b50848652600e60205261353960408720614fd3565b846156e7565b818452600f6020526135548360408620614f52565b6001600160a01b0390613568908490615a48565b16938461358357637e27328960e01b84526004839052602484fd5b9091848281036135b557507f5f5adfdfb7a234b61892f9d91126bd94774a85f3ca01c5394913dd02473871398480a480f35b6364283d7b60e01b8552600492909252602452604452606482fd5b8652601160205260408620805460ff191690555f613524565b8852601160205260408820805460ff191690555f61351b565b8852601160205260408820805460ff191690555f61350f565b8252601160205260408220805460ff1916905555855f806134f7565b803b1561263e5785809160246040518094819363281b090d60e01b83528a60048401525af1801561368557908691613670575b5061349d565b8161367a91614ce4565b61264257845f61366a565b6040513d88823e3d90fd5b63d92e233d60e01b8452600484fd5b50346104d157806003193601126104d1576020600b54604051908152f35b50346104d15760203660031901126104d1576136d7614b89565b6136df615045565b6001600160a01b038116156104c25761136d9061527d565b50346104d15760203660031901126104d1576020906040906001600160a01b0361371f614b89565b168152601683522054604051908152f35b50346104d15760403660031901126104d15761136d600435613750614b9f565b9061375d61136382614fb5565b61556e565b50346104d15760203660031901126104d15760ff60406020926004358152601384522054166040519015158152f35b50346104d1576137a036614c7b565b906137a961508e565b6137b2816155ff565b336001600160a01b039091160361382b576137cb61562e565b808352600d60205260408320541561381957808352600d602052600960408420015460f81c15613807578252600d602052600560408320015580f35b631332ae4b60e11b8352600452602482fd5b6353bd43d960e01b8352600452602482fd5b6315884f4560e11b835260045233602452604482fd5b5034613b36576020366003190112613b365760043561385e615120565b805f52600d60205260405f205415613b3a57613879816155ff565b5f828152601360205260409020805460ff191690556002546001600160a01b031680613ae4575b506139959082845260186020526138b960408520614fd3565b828452600e602052600260408520805480613acb575b50600181015480613ab2575b50015480613a99575b50828452600d602052600760408520015480613a80575b50828452600d602052600860408520015480613a67575b50828452600e60205261392760408520614fd3565b828452600d60205261398f600b6040862086815561394760018201614ff7565b61395360028201614ff7565b61395f60038201614ff7565b86600482015586600582015586600682015586600782015586600882015586600982015586600a82015501614ff7565b826156e7565b61399e81615a22565b6001600160a01b03811680159190839085908415613a2c575b8282525f516020615e3c5f395f51905f526020526040822080546001600160a01b03191690555f516020615d7c5f395f51905f528280a450613a1a577f3824604e3d05494a535b1b30090518d99309f6a807bd4b8fb226d715c8c653688280a280f35b637e27328960e01b8252600452602490fd5b8282525f516020615e9c5f395f51905f526020526040822080546001600160a01b0319169055613a5b84614d93565b80545f190190556139b7565b8452601260205260408420805460ff191690555f613912565b8452601160205260408420805460ff191690555f6138fb565b8452601160205260408420805460ff191690555f6138e4565b8652601160205260408620805460ff191690555f6138db565b8652601160205260408620805460ff191690555f6138cf565b803b15613b36575f809160246040518094819363281b090d60e01b83528860048401525af18015613b2b57156138a057613b219193505f90614ce4565b5f916139956138a0565b6040513d5f823e3d90fd5b5f80fd5b6353bd43d960e01b5f5260045260245ffd5b34613b36576040366003190112613b3657600435602435613b6b61508e565b613b74826155ff565b336001600160a01b0390911603613cba57613b8d61562e565b815f52600d60205260405f205415613ca7578015613c9857815f52601360205260ff60405f205416613c8557815f52600d602052600760405f200154808203613c10575b505f828152600d602090815260409182902060078101849055600a01805461ffff1916600117905590519182525f516020615cdc5f395f51905f5291a2005b815f52601160205260ff60405f205416613c72575f516020615cdc5f395f51905f529181602092613c5a575b50805f526011825260405f20600160ff198254161790559150613bd1565b5f526011825260405f2060ff19815416905584613c3c565b5063f2f8f56b60e01b5f5260045260245ffd5b506311261a2360e11b5f5260045260245ffd5b638e03edc960e01b5f5260045ffd5b506353bd43d960e01b5f5260045260245ffd5b506315884f4560e11b5f526004523360245260445ffd5b34613b36575f366003190112613b36576020604051620d2f008152f35b34613b3657613cfc36614c7b565b613d0461508e565b613d0d826155ff565b336001600160a01b0390911603613cba57613d2661562e565b815f52600d60205260405f205415613ca75760207f690f108db8205a0a5e3454acd556a06c61db73f3dd2efa674349f5347213be0791835f52600d825280600660405f200155604051908152a2005b34613b36576020366003190112613b36576020613d93600435614fb5565b604051908152f35b34613b3657613da936614c41565b505050633ee6509d60e01b5f5260045ffd5b34613b36576020366003190112613b3657613dd4614c2b565b613ddc615045565b6001600160401b038116906402540be4008211613e745760038054600160901b600160d01b03191660909290921b600160901b600160d01b031691909117905542620d2f008101908110613e60577f290f8d90e80a71eccded47c43e645ae2120ec4cfe6fd89930aa6bccefd5aa584918160409260045582519182526020820152a1005b634e487b7160e01b5f52601160045260245ffd5b506373ab893560e11b5f526004526402540be40060245260445ffd5b34613b36576040366003190112613b3657613ec7613eac614c1c565b613eb46150d7565b6004355f52601360205260405f20614f18565b005b34613b36575f366003190112613b365760206040515f516020615cbc5f395f51905f528152f35b34613b36575f366003190112613b36576004548015613f8d57804210613f775760038054600160401b600160801b0319811660509190911c600160401b600160801b031617908190555f6004556040805191901c6001600160401b031681527f4ad3d60730744ba831e5f038d2cb01852bf947a9acde2e5312b8ab5a940dfc2a90602090a1005b6306577c3f60e01b5f526004524260245260445ffd5b636027230960e01b5f5260045ffd5b34613b36575f366003190112613b365760025460405160a09190911c6001600160401b03168152602090f35b34613b36576040366003190112613b3657613fe1614b89565b613fe96150d7565b60018060a01b03165f52601760205260405f206140096024358254614e84565b9055005b34613b36575f366003190112613b36576003546040805191901c6001600160401b03168152602090f35b34613b365760c0366003190112613b36576004356001600160401b038111613b3657614067903690600401614bef565b6024356001600160401b038111613b3657614086903690600401614bef565b9290916044356001600160401b038111613b36576140a8903690600401614bef565b936064359064ffffffffff8216809203613b36576140c461508e565b6140cc61562e565b60026009541461490b57600260095583156148fc57604084116148e45760a435156148d55760405160208101908587833761412660346020838981013360601b8382015260a4358482015203016014810184520182614ce4565b51902092835f52601060205260ff60405f2054166148c25760a4355f52601260205260ff60405f2054166148ad5760025460a01c6001600160401b03168061486f575b50600c54965f198814613e60576141ae6141ba9360018a01600c556040519a6141918c614cad565b60018b018c526141a2368a8c614d22565b60208d01523691614d22565b60408a01523691614d22565b606087015260843560808701525f60a08701525f60c08701525f60e087015260a4356101008701525f61012087015261014086015264ffffffffff42166101608601525f6101808601525f6101a08601525f6101c08601525f6101e08601526020946040516142298782614ce4565b5f8152610200820152600185015f52600d865260405f2081518155602082015180519060018060401b0382116146fa576142738261426a6001860154614dcb565b60018601614ea7565b8890601f83116001146148025761429392915f918361478a575050614ee1565b60018201555b60408201518051906001600160401b0382116146fa576142c9826142c06002860154614dcb565b60028601614ea7565b8890601f8311600114614795576142e992915f918361478a575050614ee1565b60028201555b60608201518051906001600160401b0382116146fa5761431f826143166003860154614dcb565b60038601614ea7565b8890601f83116001146147195782600b936102009593614346935f9261470e575050614ee1565b60038201555b6080840151600482015560a0840151600582015560c0840151600682015560e0840151600782015561010084015160088201556101208401516009820180546001600160a01b0319166001600160a01b03929092169190911781556101408501516143be9064ffffffffff1682614ef3565b61016085015181546101808701516101a08801516001600160c81b0390921660c89390931b64ffffffffff60c81b169290921791151560f01b60ff60f01b169190911790151560f81b6001600160f81b0319161790556101c0840151600a82019061442b90151582614f18565b6101e0850151151561ff0082549160081b169061ff0019161790550191015180519060018060401b0382116146fa5761446e826144688554614dcb565b85614ea7565b8790601f83116001146146975761448e92915f918361468c575050614ee1565b90555b5f526010845260405f20600160ff1982541617905560a4355f526012845260405f20600160ff19825416179055335f52600f84526144d56001840160405f20614f52565b6040516144e28582614ce4565b5f81523315614679576001600160a01b036145006001860133615a48565b1661466657333b61454e575b506145447f2f55cde73f168db90a448e73b4193010d39de2093e075ed53a83bcab9dd0862a9160405191829160013397019583614f8e565b0390a36001600955005b8461458a9160405180938192630a85bd0160e11b83523360048401525f6024840152600189016044840152608060648401526084830190614bcb565b03815f335af15f9181614626575b506145ec57843d156145e4573d906145af82614d07565b916145bd6040519384614ce4565b82523d5f8284013e5b815191826145e157633250574960e11b5f523360045260245ffd5b01fd5b6060906145c6565b92935090916001600160e01b03191663757a42ff60e11b016146135782919061454461450c565b633250574960e11b5f523360045260245ffd5b9091508581813d831161465f575b61463e8183614ce4565b81010312613b3657516001600160e01b031981168103613b36579086614598565b503d614634565b6339e3563760e11b5f525f60045260245ffd5b633250574960e11b5f525f60045260245ffd5b01519050898061227d565b90601f19831691845f52895f20925f5b8b8282106146e45750509084600195949392106146cc575b505050811b019055614491565b01515f1960f88460031b161c191690558880806146bf565b60018596829396860151815501950193016146a7565b634e487b7160e01b5f52604160045260245ffd5b015190508c8061227d565b90600384015f52895f20915f5b8b601f1986168210614774575050926102009492600192600b9583601f1981161061475c575b505050811b01600382015561434c565b01515f1960f88460031b161c191690558b808061474c565b6001849582939585015181550194019201614726565b015190508a8061227d565b9190600284015f52895f20905f935b8b601f19851686106147e957506001945083601f198116106147d1575b505050811b0160028201556142ef565b01515f1960f88460031b161c191690558980806147c1565b82820151845594850194600190930192909101906147a4565b9190600184015f52895f20905f935b8b601f198516861061485657506001945083601f1981161061483e575b505050811b016001820155614299565b01515f1960f88460031b161c1916905589808061482e565b8282015184559485019460019093019290910190614811565b5f546148889190309033906001600160a01b0316615655565b6002546008546148a49160a01c6001600160401b031690614e84565b60085588614169565b6304d5c30360e11b5f5260a43560045260245ffd5b8363b403047160e01b5f5260045260245ffd5b636406d70160e01b5f5260045ffd5b8363243cf1c960e01b5f52600452604060245260445ffd5b63ecd7b0d160e01b5f5260045ffd5b6306fda65d60e31b5f5260045ffd5b34613b36576040366003190112613b3657614933614b89565b50633ee6509d60e01b5f5260045ffd5b34613b36576020366003190112613b3657600435614960816155ff565b505f525f516020615e9c5f395f51905f52602052602060018060a01b0360405f205416604051908152f35b34613b36575f366003190112613b36576040515f5f516020615c3c5f395f51905f52546149b781614dcb565b8084529060018116908115614a3657506001146149df575b610f7583611f6381850382614ce4565b5f516020615c3c5f395f51905f525f9081525f516020615f1c5f395f51905f52939250905b808210614a1c57509091508101602001611f636149cf565b919260018160209254838588010152019101909291614a04565b60ff191660208086019190915291151560051b84019091019150611f6390506149cf565b34613b36575f366003190112613b36576020600854604051908152f35b34613b36576020366003190112613b36576001600160a01b03614a98614b89565b165f526014602052610f75610d65611f6360405f2060405192838092614e03565b34613b36576020366003190112613b365760043563ffffffff60e01b8116809103613b3657602090637965db0b60e01b8114908115614afe575b506040519015158152f35b6380ac58cd60e01b811491508115614b30575b8115614b1f575b5082614af3565b6301ffc9a760e01b14905082614b18565b635b5e139f60e01b81149150614b11565b34613b36576020366003190112613b3657614b5a614b89565b614b62615045565b6001600160a01b03811615614b7a57613ec7906151f8565b63d92e233d60e01b5f5260045ffd5b600435906001600160a01b0382168203613b3657565b602435906001600160a01b0382168203613b3657565b604435906001600160a01b0382168203613b3657565b805180835260209291819084018484015e5f828201840152601f01601f1916010190565b9181601f84011215613b36578235916001600160401b038311613b365760208381860195010111613b3657565b602435908115158203613b3657565b600435906001600160401b0382168203613b3657565b6060906003190112613b36576004356001600160a01b0381168103613b3657906024356001600160a01b0381168103613b36579060443590565b6040906003190112613b36576004359060243590565b34613b36575f366003190112613b365760206040516107d08152f35b61022081019081106001600160401b038211176146fa57604052565b608081019081106001600160401b038211176146fa57604052565b601f909101601f19168101906001600160401b038211908210176146fa57604052565b6001600160401b0381116146fa57601f01601f191660200190565b929192614d2e82614d07565b91614d3c6040519384614ce4565b829481845281830111613b36578281602093845f960137010152565b9080601f83011215613b3657816020614d7393359101614d22565b90565b34613b36575f366003190112613b365760206040516202a3008152f35b6001600160a01b03165f9081527f80bb2b638cc20bc4d0a60d66940f3ab4a00c1d7b313497ca82fb0b4ab00793036020526040902090565b90600182811c92168015614df9575b6020831014614de557565b634e487b7160e01b5f52602260045260245ffd5b91607f1691614dda565b5f9291815491614e1283614dcb565b8083529260018116908115614e675750600114614e2e57505050565b5f9081526020812093945091925b838310614e4d575060209250010190565b600181602092949394548385870101520191019190614e3c565b915050602093945060ff929192191683830152151560051b010190565b91908201809211613e6057565b818110614e9c575050565b5f8155600101614e91565b9190601f8111614eb657505050565b614edf925f5260205f20906020601f840160051c830193106124b057601f0160051c0190614e91565b565b8160011b915f199060031b1c19161790565b805464ffffffffff60a01b191660a09290921b64ffffffffff60a01b16919091179055565b9060ff801983541691151516179055565b8054821015614f3e575f5260205f2001905f90565b634e487b7160e01b5f52603260045260245ffd5b805490600160401b8210156146fa5781614f74916001614f8a94018155614f29565b819391549060031b91821b915f19901b19161790565b9055565b90918060409360208452816020850152848401375f828201840152601f01601f1916010190565b5f525f516020615dbc5f395f51905f52602052600160405f20015490565b60035f918281558260018201558260028201550155565b91908203918211613e6057565b6150018154614dcb565b908161500b575050565b81601f5f931160011461501c575055565b8183526020832061503891601f0160051c810190600101614e91565b8082528160208120915555565b335f9081525f516020615c9c5f395f51905f52602052604090205460ff161561506a57565b63e2517d3f60e01b5f52336004525f516020615e5c5f395f51905f5260245260445ffd5b335f9081525f516020615e7c5f395f51905f52602052604090205460ff16156150b357565b63e2517d3f60e01b5f52336004525f516020615efc5f395f51905f5260245260445ffd5b335f9081525f516020615bdc5f395f51905f52602052604090205460ff16156150fc57565b63e2517d3f60e01b5f52336004525f516020615cbc5f395f51905f5260245260445ffd5b335f9081525f516020615f3c5f395f51905f52602052604090205460ff161561514557565b63e2517d3f60e01b5f52336004525f516020615c7c5f395f51905f5260245260445ffd5b335f9081525f516020615d3c5f395f51905f52602052604090205460ff161561518e57565b63e2517d3f60e01b5f52336004525f516020615dfc5f395f51905f5260245260445ffd5b5f8181525f516020615dbc5f395f51905f526020908152604080832033845290915290205460ff16156151e25750565b63e2517d3f60e01b5f523360045260245260445ffd5b6001600160a01b0381165f9081525f516020615bdc5f395f51905f52602052604090205460ff16615278576001600160a01b03165f8181525f516020615bdc5f395f51905f5260205260408120805460ff191660011790553391905f516020615cbc5f395f51905f52905f516020615bbc5f395f51905f529080a4600190565b505f90565b6001600160a01b0381165f9081525f516020615c1c5f395f51905f52602052604090205460ff16615278576001600160a01b03165f8181525f516020615c1c5f395f51905f5260205260408120805460ff191660011790553391905f516020615d5c5f395f51905f52905f516020615bbc5f395f51905f529080a4600190565b6001600160a01b0381165f9081525f516020615f3c5f395f51905f52602052604090205460ff16615278576001600160a01b03165f8181525f516020615f3c5f395f51905f5260205260408120805460ff191660011790553391905f516020615c7c5f395f51905f52905f516020615bbc5f395f51905f529080a4600190565b6001600160a01b0381165f9081525f516020615cfc5f395f51905f52602052604090205460ff16615278576001600160a01b03165f8181525f516020615cfc5f395f51905f5260205260408120805460ff191660011790553391905f516020615bbc5f395f51905f528180a4600190565b6001600160a01b0381165f9081525f516020615c9c5f395f51905f52602052604090205460ff16615278576001600160a01b03165f8181525f516020615c9c5f395f51905f5260205260408120805460ff191660011790553391905f516020615e5c5f395f51905f52905f516020615bbc5f395f51905f529080a4600190565b6001600160a01b0381165f9081525f516020615d3c5f395f51905f52602052604090205460ff16615278576001600160a01b03165f8181525f516020615d3c5f395f51905f5260205260408120805460ff191660011790553391905f516020615dfc5f395f51905f52905f516020615bbc5f395f51905f529080a4600190565b6001600160a01b0381165f9081525f516020615e7c5f395f51905f52602052604090205460ff16615278576001600160a01b03165f8181525f516020615e7c5f395f51905f5260205260408120805460ff191660011790553391905f516020615efc5f395f51905f52905f516020615bbc5f395f51905f529080a4600190565b5f8181525f516020615dbc5f395f51905f52602090815260408083206001600160a01b038616845290915290205460ff166155f9575f8181525f516020615dbc5f395f51905f52602090815260408083206001600160a01b0395909516808452949091528120805460ff19166001179055339291905f516020615bbc5f395f51905f529080a4600190565b50505f90565b61560881615a22565b906001600160a01b0382161561561c575090565b637e27328960e01b5f5260045260245ffd5b60ff5f516020615e1c5f395f51905f52541661564657565b63d93c066560e01b5f5260045ffd5b6040516323b872dd60e01b5f9081526001600160a01b039384166004529290931660245260449390935260209060648180865af19060015f51148216156156c6575b6040525f606052156156a65750565b635274afe760e01b5f9081526001600160a01b0391909116600452602490fd5b9060018115166156de57823b15153d15161690615697565b503d5f823e3d90fd5b9060018060a01b03165f52600f60205260405f2080545f5b81811061570c5750505050565b836157178285614f29565b90549060031b1c1461572b576001016156ff565b9192505f198101908111613e6057614f746157496157579285614f29565b90549060031b1c9284614f29565b905580548015615780575f19019061576f8282614f29565b8154905f199060031b1b1916905555565b634e487b7160e01b5f52603160045260245ffd5b6001600160a01b0381165f9081525f516020615e7c5f395f51905f52602052604090205460ff1615615278576001600160a01b03165f8181525f516020615e7c5f395f51905f5260205260408120805460ff191690553391905f516020615efc5f395f51905f52905f516020615ddc5f395f51905f529080a4600190565b6001600160a01b0381165f9081525f516020615c1c5f395f51905f52602052604090205460ff1615615278576001600160a01b03165f8181525f516020615c1c5f395f51905f5260205260408120805460ff191690553391905f516020615d5c5f395f51905f52905f516020615ddc5f395f51905f529080a4600190565b6001600160a01b0381165f9081525f516020615d3c5f395f51905f52602052604090205460ff1615615278576001600160a01b03165f8181525f516020615d3c5f395f51905f5260205260408120805460ff191690553391905f516020615dfc5f395f51905f52905f516020615ddc5f395f51905f529080a4600190565b5f8181525f516020615dbc5f395f51905f52602090815260408083206001600160a01b038616845290915290205460ff16156155f9575f8181525f516020615dbc5f395f51905f52602090815260408083206001600160a01b0395909516808452949091528120805460ff19169055339291905f516020615ddc5f395f51905f529080a4600190565b916040519163a9059cbb60e01b5f5260018060a01b031660045260245260205f60448180865af19060015f51148216156159d7575b604052156156a65750565b9060018115166156de57823b15153d151616906159cc565b908115159081615a17575b50615a025750565b5f52601160205260405f2060ff198154169055565b90508114155f6159fa565b5f9081525f516020615e3c5f395f51905f5260205260409020546001600160a01b031690565b90615a5281615a22565b916001600160a01b03831680615ac8575b6001600160a01b0382169182615ab2575b505f8381525f516020615e3c5f395f51905f526020526040812080546001600160a01b031916841790555f516020615d7c5f395f51905f529080a490565b615abb90614d93565b600181540190555f615a74565b5f8381525f516020615e9c5f395f51905f526020526040902080546001600160a01b0319169055615af884614d93565b80545f19019055615a63565b60ff5f516020615ebc5f395f51905f525460401c1615615b2057565b631afcd79f60e31b5f5260045ffd5b905f8091602081519101845af48080615ba8575b15615b635750506040513d81523d5f602083013e60203d82010160405290565b15615b8857639996b31560e01b5f9081526001600160a01b0391909116600452602490fd5b3d15615b99576040513d5f823e3d90fd5b63d6bda27560e01b5f5260045ffd5b503d151580615b435750813b1515615b4356fe2f8788117e7eff1d82e926ec794901d17c78024a50270940304540a733656f0d7ef28b2e5cd91b48129eb3d9c1210224e87152107b47964198044474d53b64293535af5e83a81307d449fed316ad755135d0f82c36c32f3e2defb371f0281dc27a1492cadb22452d254c71a9ef0c781c9f2d1c472dc5213a713c8769ea04d81980bb2b638cc20bc4d0a60d66940f3ab4a00c1d7b313497ca82fb0b4ab0079300f4bad0a69248f59680a4f2b3000328cec71a413447c96781cfe5996daa8c456e2fdac322ee704ce09f0773f7f3f92eb98d5e7c836ee9c056cccd5f61041e5e3fb16e88c42fd4e48df2dd6a2eabd6bc9aec654ec170056b470819f8892cc6431c416906fc99cf00e8016f5c1df47cdc15b4609951b06c7f360e02ad3e00927bdf7a73b9a34d33c6be051c258466ebb49b8110d2dac4a55bbfc739f9463d87e74eb7db2dd08fcb62d0c9e08c51941cae53c267786a0b75803fb7960902fc8ef97d360894a13ba1a3210667c828492db98dca3e2076cc3735a920a3ca505d382bbc07966f2ab141347034724e9b2a472c2f77f5cd745aeba27cacba797b8fcb7086e4369475d33ca6555b45ac3cf081bee16c4b11779d89f812395c569b2de40f01ddf252ad1be2c89b69c2b068fc378daa952ba7f163c4a11628f55a4df523b3ef8c73a29f2cfb7d2480367fd0d8d001b9fc35d45933c032436c6eab734964dd0702dd7bc7dec4dceedda775e58dd541e08a116c6c53815c0bd028192f7b626800f6391f5c32d9c69d2a47ea670b442974b53935d1edc7fd64eb21e047a839171bedcc084d3dcd65a1f7f23c65c46722faca6953d28e43150a467cf43e5c309238cd5ed15c6e187e77e9aee88184c21f4f2182ab5827cb3b7e07fbedcd63f0330080bb2b638cc20bc4d0a60d66940f3ab4a00c1d7b313497ca82fb0b4ab0079302a49807205ce4d355092ef5a8a18f56e8913cf4a201fbe287825b095693c2177547c3465a0c211ece60dd73efc90110f8b7e204feda752e1c50487740ddbcd24f80bb2b638cc20bc4d0a60d66940f3ab4a00c1d7b313497ca82fb0b4ab0079304f0c57e16840df040f15088dc2f81fe391c3923bec73e23a9662efc9c229c6a0080bb2b638cc20bc4d0a60d66940f3ab4a00c1d7b313497ca82fb0b4ab0079301ba2dc669204b26427a432593e1c6ac86ab4ccc54d29c4287abbd1cefc1cb002b37c58c799b6609234b945e882912ee9ad34948a1dfaa20a97485e1a7752bbf81b0531e5977ef63fc98feab4396e5ba6bca3d05d8fb41d8bbe8057e2aa9357b42a264697066735822122001533aaa85b85bd7850479e6afb9cdb8ddd67952884b93656687afa909e8255764736f6c634300081c0033f0c57e16840df040f15088dc2f81fe391c3923bec73e23a9662efc9c229c6a00",
  "linkReferences": {},
  "deployedLinkReferences": {},
  "immutableReferences": {
    "3035": [
      {
        "length": 32,
        "start": 11984
      },
      {
        "length": 32,
        "start": 12420
      }
    ]
  },
  "inputSourceName": "project/contracts/core/PlayerRegistry.sol",
  "buildInfoId": "solc-0_8_28-a2161904c655adbe3da4b278a6e48e5154ece2fa"
}