{
  "_format": "hh3-artifact-1",
  "contractName": "PlayerRegistry",
  "sourceName": "contracts/core/PlayerRegistry.sol",
  "abi": [
    {
      "inputs": [
        {
          "internalType": "uint256",
          "name": "_registrationFee",
          "type": "uint256"
        },
        {
          "internalType": "uint256",
          "name": "_listingFee",
          "type": "uint256"
        }
      ],
      "stateMutability": "nonpayable",
      "type": "constructor"
    },
    {
      "inputs": [],
      "name": "AccessControlBadConfirmation",
      "type": "error"
    },
    {
      "inputs": [
        {
          "internalType": "address",
          "name": "account",
          "type": "address"
        },
        {
          "internalType": "bytes32",
          "name": "neededRole",
          "type": "bytes32"
        }
      ],
      "name": "AccessControlUnauthorizedAccount",
      "type": "error"
    },
    {
      "inputs": [],
      "name": "ClubNameTooLong",
      "type": "error"
    },
    {
      "inputs": [],
      "name": "ContractExpired",
      "type": "error"
    },
    {
      "inputs": [],
      "name": "DirectTransferBlocked",
      "type": "error"
    },
    {
      "inputs": [],
      "name": "DocumentsAlreadyVerified",
      "type": "error"
    },
    {
      "inputs": [
        {
          "internalType": "address",
          "name": "sender",
          "type": "address"
        },
        {
          "internalType": "uint256",
          "name": "tokenId",
          "type": "uint256"
        },
        {
          "internalType": "address",
          "name": "owner",
          "type": "address"
        }
      ],
      "name": "ERC721IncorrectOwner",
      "type": "error"
    },
    {
      "inputs": [
        {
          "internalType": "address",
          "name": "operator",
          "type": "address"
        },
        {
          "internalType": "uint256",
          "name": "tokenId",
          "type": "uint256"
        }
      ],
      "name": "ERC721InsufficientApproval",
      "type": "error"
    },
    {
      "inputs": [
        {
          "internalType": "address",
          "name": "approver",
          "type": "address"
        }
      ],
      "name": "ERC721InvalidApprover",
      "type": "error"
    },
    {
      "inputs": [
        {
          "internalType": "address",
          "name": "operator",
          "type": "address"
        }
      ],
      "name": "ERC721InvalidOperator",
      "type": "error"
    },
    {
      "inputs": [
        {
          "internalType": "address",
          "name": "owner",
          "type": "address"
        }
      ],
      "name": "ERC721InvalidOwner",
      "type": "error"
    },
    {
      "inputs": [
        {
          "internalType": "address",
          "name": "receiver",
          "type": "address"
        }
      ],
      "name": "ERC721InvalidReceiver",
      "type": "error"
    },
    {
      "inputs": [
        {
          "internalType": "address",
          "name": "sender",
          "type": "address"
        }
      ],
      "name": "ERC721InvalidSender",
      "type": "error"
    },
    {
      "inputs": [
        {
          "internalType": "uint256",
          "name": "tokenId",
          "type": "uint256"
        }
      ],
      "name": "ERC721NonexistentToken",
      "type": "error"
    },
    {
      "inputs": [],
      "name": "EnforcedPause",
      "type": "error"
    },
    {
      "inputs": [],
      "name": "ExpectedPause",
      "type": "error"
    },
    {
      "inputs": [],
      "name": "FifaIdAlreadyRegistered",
      "type": "error"
    },
    {
      "inputs": [],
      "name": "InsufficientBalance",
      "type": "error"
    },
    {
      "inputs": [],
      "name": "InsufficientPayment",
      "type": "error"
    },
    {
      "inputs": [],
      "name": "InvalidAddress",
      "type": "error"
    },
    {
      "inputs": [],
      "name": "InvalidExpiry",
      "type": "error"
    },
    {
      "inputs": [],
      "name": "InvalidFee",
      "type": "error"
    },
    {
      "inputs": [],
      "name": "InvalidPrice",
      "type": "error"
    },
    {
      "inputs": [],
      "name": "InvalidSalary",
      "type": "error"
    },
    {
      "inputs": [],
      "name": "InvalidString",
      "type": "error"
    },
    {
      "inputs": [],
      "name": "LegalDocsNotVerified",
      "type": "error"
    },
    {
      "inputs": [],
      "name": "MedicalAlreadyCleared",
      "type": "error"
    },
    {
      "inputs": [],
      "name": "MedicalClearanceRequired",
      "type": "error"
    },
    {
      "inputs": [],
      "name": "NotAuthorised",
      "type": "error"
    },
    {
      "inputs": [],
      "name": "NotPlayerClub",
      "type": "error"
    },
    {
      "inputs": [],
      "name": "NotPlayerWallet",
      "type": "error"
    },
    {
      "inputs": [],
      "name": "PlayerAlreadyExists",
      "type": "error"
    },
    {
      "inputs": [],
      "name": "PlayerAlreadyListed",
      "type": "error"
    },
    {
      "inputs": [],
      "name": "PlayerAlreadyVerified",
      "type": "error"
    },
    {
      "inputs": [],
      "name": "PlayerNotFound",
      "type": "error"
    },
    {
      "inputs": [],
      "name": "PlayerNotListed",
      "type": "error"
    },
    {
      "inputs": [],
      "name": "PlayerNotVerified",
      "type": "error"
    },
    {
      "inputs": [],
      "name": "PlayerWalletNotSet",
      "type": "error"
    },
    {
      "inputs": [],
      "name": "ReentrancyGuardReentrantCall",
      "type": "error"
    },
    {
      "inputs": [
        {
          "internalType": "uint256",
          "name": "value",
          "type": "uint256"
        },
        {
          "internalType": "uint256",
          "name": "length",
          "type": "uint256"
        }
      ],
      "name": "StringsInsufficientHexLength",
      "type": "error"
    },
    {
      "inputs": [],
      "name": "WithdrawAmountTooLarge",
      "type": "error"
    },
    {
      "inputs": [],
      "name": "WithdrawFailed",
      "type": "error"
    },
    {
      "anonymous": false,
      "inputs": [
        {
          "indexed": true,
          "internalType": "address",
          "name": "owner",
          "type": "address"
        },
        {
          "indexed": true,
          "internalType": "address",
          "name": "approved",
          "type": "address"
        },
        {
          "indexed": true,
          "internalType": "uint256",
          "name": "tokenId",
          "type": "uint256"
        }
      ],
      "name": "Approval",
      "type": "event"
    },
    {
      "anonymous": false,
      "inputs": [
        {
          "indexed": true,
          "internalType": "address",
          "name": "owner",
          "type": "address"
        },
        {
          "indexed": true,
          "internalType": "address",
          "name": "operator",
          "type": "address"
        },
        {
          "indexed": false,
          "internalType": "bool",
          "name": "approved",
          "type": "bool"
        }
      ],
      "name": "ApprovalForAll",
      "type": "event"
    },
    {
      "anonymous": false,
      "inputs": [
        {
          "indexed": true,
          "internalType": "address",
          "name": "club",
          "type": "address"
        },
        {
          "indexed": false,
          "internalType": "string",
          "name": "name",
          "type": "string"
        }
      ],
      "name": "ClubNameSet",
      "type": "event"
    },
    {
      "anonymous": false,
      "inputs": [
        {
          "indexed": true,
          "internalType": "uint256",
          "name": "playerId",
          "type": "uint256"
        },
        {
          "indexed": true,
          "internalType": "address",
          "name": "fromClub",
          "type": "address"
        },
        {
          "indexed": true,
          "internalType": "address",
          "name": "toClub",
          "type": "address"
        }
      ],
      "name": "ClubOwnershipTransferred",
      "type": "event"
    },
    {
      "anonymous": false,
      "inputs": [
        {
          "indexed": true,
          "internalType": "uint256",
          "name": "playerId",
          "type": "uint256"
        },
        {
          "indexed": false,
          "internalType": "uint256",
          "name": "newExpiry",
          "type": "uint256"
        }
      ],
      "name": "ContractExtended",
      "type": "event"
    },
    {
      "anonymous": false,
      "inputs": [
        {
          "indexed": true,
          "internalType": "address",
          "name": "to",
          "type": "address"
        },
        {
          "indexed": false,
          "internalType": "uint256",
          "name": "amount",
          "type": "uint256"
        }
      ],
      "name": "FeesWithdrawn",
      "type": "event"
    },
    {
      "anonymous": false,
      "inputs": [
        {
          "indexed": true,
          "internalType": "uint256",
          "name": "playerId",
          "type": "uint256"
        }
      ],
      "name": "LegalDocumentsSubmitted",
      "type": "event"
    },
    {
      "anonymous": false,
      "inputs": [
        {
          "indexed": true,
          "internalType": "uint256",
          "name": "playerId",
          "type": "uint256"
        },
        {
          "indexed": true,
          "internalType": "address",
          "name": "registrar",
          "type": "address"
        }
      ],
      "name": "LegalDocumentsVerified",
      "type": "event"
    },
    {
      "anonymous": false,
      "inputs": [
        {
          "indexed": false,
          "internalType": "uint256",
          "name": "oldFee",
          "type": "uint256"
        },
        {
          "indexed": false,
          "internalType": "uint256",
          "name": "newFee",
          "type": "uint256"
        }
      ],
      "name": "ListingFeeUpdated",
      "type": "event"
    },
    {
      "anonymous": false,
      "inputs": [
        {
          "indexed": true,
          "internalType": "uint256",
          "name": "playerId",
          "type": "uint256"
        },
        {
          "indexed": false,
          "internalType": "bytes32",
          "name": "documentHash",
          "type": "bytes32"
        }
      ],
      "name": "MedicalClearanceSet",
      "type": "event"
    },
    {
      "anonymous": false,
      "inputs": [
        {
          "indexed": false,
          "internalType": "address",
          "name": "account",
          "type": "address"
        }
      ],
      "name": "Paused",
      "type": "event"
    },
    {
      "anonymous": false,
      "inputs": [
        {
          "indexed": true,
          "internalType": "uint256",
          "name": "playerId",
          "type": "uint256"
        }
      ],
      "name": "PlayerDelisted",
      "type": "event"
    },
    {
      "anonymous": false,
      "inputs": [
        {
          "indexed": true,
          "internalType": "uint256",
          "name": "playerId",
          "type": "uint256"
        },
        {
          "indexed": false,
          "internalType": "uint256",
          "name": "askingPrice",
          "type": "uint256"
        }
      ],
      "name": "PlayerListed",
      "type": "event"
    },
    {
      "anonymous": false,
      "inputs": [
        {
          "indexed": true,
          "internalType": "uint256",
          "name": "playerId",
          "type": "uint256"
        },
        {
          "indexed": false,
          "internalType": "string",
          "name": "name",
          "type": "string"
        },
        {
          "indexed": true,
          "internalType": "address",
          "name": "club",
          "type": "address"
        }
      ],
      "name": "PlayerRegistered",
      "type": "event"
    },
    {
      "anonymous": false,
      "inputs": [
        {
          "indexed": true,
          "internalType": "uint256",
          "name": "playerId",
          "type": "uint256"
        },
        {
          "indexed": true,
          "internalType": "address",
          "name": "registrar",
          "type": "address"
        }
      ],
      "name": "PlayerVerified",
      "type": "event"
    },
    {
      "anonymous": false,
      "inputs": [
        {
          "indexed": true,
          "internalType": "uint256",
          "name": "playerId",
          "type": "uint256"
        },
        {
          "indexed": true,
          "internalType": "address",
          "name": "playerWallet",
          "type": "address"
        }
      ],
      "name": "PlayerWalletSet",
      "type": "event"
    },
    {
      "anonymous": false,
      "inputs": [
        {
          "indexed": true,
          "internalType": "uint256",
          "name": "playerId",
          "type": "uint256"
        },
        {
          "indexed": true,
          "internalType": "address",
          "name": "oldWallet",
          "type": "address"
        },
        {
          "indexed": true,
          "internalType": "address",
          "name": "newWallet",
          "type": "address"
        }
      ],
      "name": "PlayerWalletUpdated",
      "type": "event"
    },
    {
      "anonymous": false,
      "inputs": [
        {
          "indexed": true,
          "internalType": "uint256",
          "name": "playerId",
          "type": "uint256"
        },
        {
          "indexed": false,
          "internalType": "string",
          "name": "cid",
          "type": "string"
        }
      ],
      "name": "PortraitUpdated",
      "type": "event"
    },
    {
      "anonymous": false,
      "inputs": [
        {
          "indexed": false,
          "internalType": "uint256",
          "name": "oldFee",
          "type": "uint256"
        },
        {
          "indexed": false,
          "internalType": "uint256",
          "name": "newFee",
          "type": "uint256"
        }
      ],
      "name": "RegistrationFeeUpdated",
      "type": "event"
    },
    {
      "anonymous": false,
      "inputs": [
        {
          "indexed": true,
          "internalType": "uint256",
          "name": "playerId",
          "type": "uint256"
        },
        {
          "indexed": false,
          "internalType": "uint256",
          "name": "amount",
          "type": "uint256"
        }
      ],
      "name": "ReleaseClauseSet",
      "type": "event"
    },
    {
      "anonymous": false,
      "inputs": [
        {
          "indexed": true,
          "internalType": "bytes32",
          "name": "role",
          "type": "bytes32"
        },
        {
          "indexed": true,
          "internalType": "bytes32",
          "name": "previousAdminRole",
          "type": "bytes32"
        },
        {
          "indexed": true,
          "internalType": "bytes32",
          "name": "newAdminRole",
          "type": "bytes32"
        }
      ],
      "name": "RoleAdminChanged",
      "type": "event"
    },
    {
      "anonymous": false,
      "inputs": [
        {
          "indexed": true,
          "internalType": "bytes32",
          "name": "role",
          "type": "bytes32"
        },
        {
          "indexed": true,
          "internalType": "address",
          "name": "account",
          "type": "address"
        },
        {
          "indexed": true,
          "internalType": "address",
          "name": "sender",
          "type": "address"
        }
      ],
      "name": "RoleGranted",
      "type": "event"
    },
    {
      "anonymous": false,
      "inputs": [
        {
          "indexed": true,
          "internalType": "bytes32",
          "name": "role",
          "type": "bytes32"
        },
        {
          "indexed": true,
          "internalType": "address",
          "name": "account",
          "type": "address"
        },
        {
          "indexed": true,
          "internalType": "address",
          "name": "sender",
          "type": "address"
        }
      ],
      "name": "RoleRevoked",
      "type": "event"
    },
    {
      "anonymous": false,
      "inputs": [
        {
          "indexed": true,
          "internalType": "address",
          "name": "from",
          "type": "address"
        },
        {
          "indexed": true,
          "internalType": "address",
          "name": "to",
          "type": "address"
        },
        {
          "indexed": true,
          "internalType": "uint256",
          "name": "tokenId",
          "type": "uint256"
        }
      ],
      "name": "Transfer",
      "type": "event"
    },
    {
      "anonymous": false,
      "inputs": [
        {
          "indexed": false,
          "internalType": "address",
          "name": "account",
          "type": "address"
        }
      ],
      "name": "Unpaused",
      "type": "event"
    },
    {
      "inputs": [],
      "name": "ADMIN_ROLE",
      "outputs": [
        {
          "internalType": "bytes32",
          "name": "",
          "type": "bytes32"
        }
      ],
      "stateMutability": "view",
      "type": "function"
    },
    {
      "inputs": [],
      "name": "CLUB_ROLE",
      "outputs": [
        {
          "internalType": "bytes32",
          "name": "",
          "type": "bytes32"
        }
      ],
      "stateMutability": "view",
      "type": "function"
    },
    {
      "inputs": [],
      "name": "DEFAULT_ADMIN_ROLE",
      "outputs": [
        {
          "internalType": "bytes32",
          "name": "",
          "type": "bytes32"
        }
      ],
      "stateMutability": "view",
      "type": "function"
    },
    {
      "inputs": [],
      "name": "ESCROW_ROLE",
      "outputs": [
        {
          "internalType": "bytes32",
          "name": "",
          "type": "bytes32"
        }
      ],
      "stateMutability": "view",
      "type": "function"
    },
    {
      "inputs": [],
      "name": "MAX_FEE",
      "outputs": [
        {
          "internalType": "uint256",
          "name": "",
          "type": "uint256"
        }
      ],
      "stateMutability": "view",
      "type": "function"
    },
    {
      "inputs": [],
      "name": "MAX_PRICE",
      "outputs": [
        {
          "internalType": "uint256",
          "name": "",
          "type": "uint256"
        }
      ],
      "stateMutability": "view",
      "type": "function"
    },
    {
      "inputs": [],
      "name": "MAX_SALARY",
      "outputs": [
        {
          "internalType": "uint256",
          "name": "",
          "type": "uint256"
        }
      ],
      "stateMutability": "view",
      "type": "function"
    },
    {
      "inputs": [],
      "name": "MAX_STRING_LEN",
      "outputs": [
        {
          "internalType": "uint256",
          "name": "",
          "type": "uint256"
        }
      ],
      "stateMutability": "view",
      "type": "function"
    },
    {
      "inputs": [],
      "name": "MAX_WITHDRAW",
      "outputs": [
        {
          "internalType": "uint256",
          "name": "",
          "type": "uint256"
        }
      ],
      "stateMutability": "view",
      "type": "function"
    },
    {
      "inputs": [],
      "name": "REGISTRAR_ROLE",
      "outputs": [
        {
          "internalType": "bytes32",
          "name": "",
          "type": "bytes32"
        }
      ],
      "stateMutability": "view",
      "type": "function"
    },
    {
      "inputs": [
        {
          "internalType": "address",
          "name": "to",
          "type": "address"
        },
        {
          "internalType": "uint256",
          "name": "tokenId",
          "type": "uint256"
        }
      ],
      "name": "approve",
      "outputs": [],
      "stateMutability": "nonpayable",
      "type": "function"
    },
    {
      "inputs": [
        {
          "internalType": "address",
          "name": "owner",
          "type": "address"
        }
      ],
      "name": "balanceOf",
      "outputs": [
        {
          "internalType": "uint256",
          "name": "",
          "type": "uint256"
        }
      ],
      "stateMutability": "view",
      "type": "function"
    },
    {
      "inputs": [
        {
          "internalType": "uint256",
          "name": "playerId",
          "type": "uint256"
        }
      ],
      "name": "currentClub",
      "outputs": [
        {
          "internalType": "address",
          "name": "",
          "type": "address"
        }
      ],
      "stateMutability": "view",
      "type": "function"
    },
    {
      "inputs": [
        {
          "internalType": "uint256",
          "name": "playerId",
          "type": "uint256"
        }
      ],
      "name": "delistPlayer",
      "outputs": [],
      "stateMutability": "nonpayable",
      "type": "function"
    },
    {
      "inputs": [
        {
          "internalType": "uint256",
          "name": "playerId",
          "type": "uint256"
        },
        {
          "internalType": "address",
          "name": "fromClub",
          "type": "address"
        },
        {
          "internalType": "address",
          "name": "toClub",
          "type": "address"
        }
      ],
      "name": "escrowTransfer",
      "outputs": [],
      "stateMutability": "nonpayable",
      "type": "function"
    },
    {
      "inputs": [
        {
          "internalType": "uint256",
          "name": "playerId",
          "type": "uint256"
        },
        {
          "internalType": "uint256",
          "name": "newExpiry",
          "type": "uint256"
        }
      ],
      "name": "extendContract",
      "outputs": [],
      "stateMutability": "nonpayable",
      "type": "function"
    },
    {
      "inputs": [
        {
          "internalType": "uint256",
          "name": "tokenId",
          "type": "uint256"
        }
      ],
      "name": "getApproved",
      "outputs": [
        {
          "internalType": "address",
          "name": "",
          "type": "address"
        }
      ],
      "stateMutability": "view",
      "type": "function"
    },
    {
      "inputs": [
        {
          "internalType": "address",
          "name": "club",
          "type": "address"
        }
      ],
      "name": "getClubName",
      "outputs": [
        {
          "internalType": "string",
          "name": "",
          "type": "string"
        }
      ],
      "stateMutability": "view",
      "type": "function"
    },
    {
      "inputs": [
        {
          "internalType": "address",
          "name": "club",
          "type": "address"
        }
      ],
      "name": "getClubPlayers",
      "outputs": [
        {
          "internalType": "uint256[]",
          "name": "",
          "type": "uint256[]"
        }
      ],
      "stateMutability": "view",
      "type": "function"
    },
    {
      "inputs": [
        {
          "internalType": "uint256",
          "name": "playerId",
          "type": "uint256"
        }
      ],
      "name": "getLegalDocuments",
      "outputs": [
        {
          "components": [
            {
              "internalType": "bytes32",
              "name": "registrationContractHash",
              "type": "bytes32"
            },
            {
              "internalType": "bytes32",
              "name": "fifaTMSHash",
              "type": "bytes32"
            },
            {
              "internalType": "bytes32",
              "name": "workPermitHash",
              "type": "bytes32"
            },
            {
              "internalType": "bool",
              "name": "documentsVerified",
              "type": "bool"
            }
          ],
          "internalType": "struct IPlayerRegistry.LegalDocuments",
          "name": "",
          "type": "tuple"
        }
      ],
      "stateMutability": "view",
      "type": "function"
    },
    {
      "inputs": [
        {
          "internalType": "uint256",
          "name": "playerId",
          "type": "uint256"
        }
      ],
      "name": "getPlayer",
      "outputs": [
        {
          "components": [
            {
              "internalType": "uint256",
              "name": "id",
              "type": "uint256"
            },
            {
              "internalType": "string",
              "name": "name",
              "type": "string"
            },
            {
              "internalType": "string",
              "name": "position",
              "type": "string"
            },
            {
              "internalType": "string",
              "name": "nationality",
              "type": "string"
            },
            {
              "internalType": "uint256",
              "name": "contractExpiry",
              "type": "uint256"
            },
            {
              "internalType": "uint256",
              "name": "weeklySalary",
              "type": "uint256"
            },
            {
              "internalType": "address",
              "name": "playerWallet",
              "type": "address"
            },
            {
              "internalType": "bool",
              "name": "isVerified",
              "type": "bool"
            },
            {
              "internalType": "bool",
              "name": "isListed",
              "type": "bool"
            },
            {
              "internalType": "bool",
              "name": "medicalClearance",
              "type": "bool"
            },
            {
              "internalType": "bytes32",
              "name": "medicalDocumentHash",
              "type": "bytes32"
            },
            {
              "internalType": "uint256",
              "name": "askingPrice",
              "type": "uint256"
            },
            {
              "internalType": "uint256",
              "name": "releaseClause",
              "type": "uint256"
            },
            {
              "internalType": "uint256",
              "name": "registeredAt",
              "type": "uint256"
            },
            {
              "internalType": "string",
              "name": "portraitCID",
              "type": "string"
            },
            {
              "internalType": "bytes32",
              "name": "fifaId",
              "type": "bytes32"
            }
          ],
          "internalType": "struct IPlayerRegistry.Player",
          "name": "",
          "type": "tuple"
        }
      ],
      "stateMutability": "view",
      "type": "function"
    },
    {
      "inputs": [
        {
          "internalType": "bytes32",
          "name": "role",
          "type": "bytes32"
        }
      ],
      "name": "getRoleAdmin",
      "outputs": [
        {
          "internalType": "bytes32",
          "name": "",
          "type": "bytes32"
        }
      ],
      "stateMutability": "view",
      "type": "function"
    },
    {
      "inputs": [
        {
          "internalType": "bytes32",
          "name": "role",
          "type": "bytes32"
        },
        {
          "internalType": "address",
          "name": "account",
          "type": "address"
        }
      ],
      "name": "grantRole",
      "outputs": [],
      "stateMutability": "nonpayable",
      "type": "function"
    },
    {
      "inputs": [
        {
          "internalType": "address",
          "name": "account",
          "type": "address"
        }
      ],
      "name": "hasClubRole",
      "outputs": [
        {
          "internalType": "bool",
          "name": "",
          "type": "bool"
        }
      ],
      "stateMutability": "view",
      "type": "function"
    },
    {
      "inputs": [
        {
          "internalType": "bytes32",
          "name": "role",
          "type": "bytes32"
        },
        {
          "internalType": "address",
          "name": "account",
          "type": "address"
        }
      ],
      "name": "hasRole",
      "outputs": [
        {
          "internalType": "bool",
          "name": "",
          "type": "bool"
        }
      ],
      "stateMutability": "view",
      "type": "function"
    },
    {
      "inputs": [
        {
          "internalType": "address",
          "name": "owner",
          "type": "address"
        },
        {
          "internalType": "address",
          "name": "operator",
          "type": "address"
        }
      ],
      "name": "isApprovedForAll",
      "outputs": [
        {
          "internalType": "bool",
          "name": "",
          "type": "bool"
        }
      ],
      "stateMutability": "view",
      "type": "function"
    },
    {
      "inputs": [
        {
          "internalType": "uint256",
          "name": "playerId",
          "type": "uint256"
        },
        {
          "internalType": "uint256",
          "name": "askingPrice",
          "type": "uint256"
        }
      ],
      "name": "listPlayer",
      "outputs": [],
      "stateMutability": "payable",
      "type": "function"
    },
    {
      "inputs": [],
      "name": "listingFee",
      "outputs": [
        {
          "internalType": "uint256",
          "name": "",
          "type": "uint256"
        }
      ],
      "stateMutability": "view",
      "type": "function"
    },
    {
      "inputs": [],
      "name": "name",
      "outputs": [
        {
          "internalType": "string",
          "name": "",
          "type": "string"
        }
      ],
      "stateMutability": "view",
      "type": "function"
    },
    {
      "inputs": [
        {
          "internalType": "uint256",
          "name": "tokenId",
          "type": "uint256"
        }
      ],
      "name": "ownerOf",
      "outputs": [
        {
          "internalType": "address",
          "name": "",
          "type": "address"
        }
      ],
      "stateMutability": "view",
      "type": "function"
    },
    {
      "inputs": [],
      "name": "pause",
      "outputs": [],
      "stateMutability": "nonpayable",
      "type": "function"
    },
    {
      "inputs": [],
      "name": "paused",
      "outputs": [
        {
          "internalType": "bool",
          "name": "",
          "type": "bool"
        }
      ],
      "stateMutability": "view",
      "type": "function"
    },
    {
      "inputs": [
        {
          "internalType": "string",
          "name": "name",
          "type": "string"
        },
        {
          "internalType": "string",
          "name": "position",
          "type": "string"
        },
        {
          "internalType": "string",
          "name": "nationality",
          "type": "string"
        },
        {
          "internalType": "uint256",
          "name": "contractExpiry",
          "type": "uint256"
        },
        {
          "internalType": "uint256",
          "name": "weeklySalary",
          "type": "uint256"
        },
        {
          "internalType": "string",
          "name": "portraitCID",
          "type": "string"
        },
        {
          "internalType": "bytes32",
          "name": "fifaId",
          "type": "bytes32"
        }
      ],
      "name": "registerPlayer",
      "outputs": [
        {
          "internalType": "uint256",
          "name": "playerId",
          "type": "uint256"
        }
      ],
      "stateMutability": "payable",
      "type": "function"
    },
    {
      "inputs": [],
      "name": "registrationFee",
      "outputs": [
        {
          "internalType": "uint256",
          "name": "",
          "type": "uint256"
        }
      ],
      "stateMutability": "view",
      "type": "function"
    },
    {
      "inputs": [
        {
          "internalType": "bytes32",
          "name": "role",
          "type": "bytes32"
        },
        {
          "internalType": "address",
          "name": "callerConfirmation",
          "type": "address"
        }
      ],
      "name": "renounceRole",
      "outputs": [],
      "stateMutability": "nonpayable",
      "type": "function"
    },
    {
      "inputs": [
        {
          "internalType": "bytes32",
          "name": "role",
          "type": "bytes32"
        },
        {
          "internalType": "address",
          "name": "account",
          "type": "address"
        }
      ],
      "name": "revokeRole",
      "outputs": [],
      "stateMutability": "nonpayable",
      "type": "function"
    },
    {
      "inputs": [
        {
          "internalType": "address",
          "name": "from",
          "type": "address"
        },
        {
          "internalType": "address",
          "name": "to",
          "type": "address"
        },
        {
          "internalType": "uint256",
          "name": "tokenId",
          "type": "uint256"
        }
      ],
      "name": "safeTransferFrom",
      "outputs": [],
      "stateMutability": "nonpayable",
      "type": "function"
    },
    {
      "inputs": [
        {
          "internalType": "address",
          "name": "from",
          "type": "address"
        },
        {
          "internalType": "address",
          "name": "to",
          "type": "address"
        },
        {
          "internalType": "uint256",
          "name": "tokenId",
          "type": "uint256"
        },
        {
          "internalType": "bytes",
          "name": "data",
          "type": "bytes"
        }
      ],
      "name": "safeTransferFrom",
      "outputs": [],
      "stateMutability": "nonpayable",
      "type": "function"
    },
    {
      "inputs": [
        {
          "internalType": "address",
          "name": "operator",
          "type": "address"
        },
        {
          "internalType": "bool",
          "name": "approved",
          "type": "bool"
        }
      ],
      "name": "setApprovalForAll",
      "outputs": [],
      "stateMutability": "nonpayable",
      "type": "function"
    },
    {
      "inputs": [
        {
          "internalType": "address",
          "name": "club",
          "type": "address"
        },
        {
          "internalType": "string",
          "name": "name",
          "type": "string"
        }
      ],
      "name": "setClubName",
      "outputs": [],
      "stateMutability": "nonpayable",
      "type": "function"
    },
    {
      "inputs": [
        {
          "internalType": "uint256",
          "name": "newFee",
          "type": "uint256"
        }
      ],
      "name": "setListingFee",
      "outputs": [],
      "stateMutability": "nonpayable",
      "type": "function"
    },
    {
      "inputs": [
        {
          "internalType": "uint256",
          "name": "playerId",
          "type": "uint256"
        },
        {
          "internalType": "bytes32",
          "name": "documentHash",
          "type": "bytes32"
        }
      ],
      "name": "setMedicalClearance",
      "outputs": [],
      "stateMutability": "nonpayable",
      "type": "function"
    },
    {
      "inputs": [
        {
          "internalType": "uint256",
          "name": "playerId",
          "type": "uint256"
        },
        {
          "internalType": "address",
          "name": "playerWallet",
          "type": "address"
        }
      ],
      "name": "setPlayerWallet",
      "outputs": [],
      "stateMutability": "nonpayable",
      "type": "function"
    },
    {
      "inputs": [
        {
          "internalType": "uint256",
          "name": "playerId",
          "type": "uint256"
        },
        {
          "internalType": "string",
          "name": "cid",
          "type": "string"
        }
      ],
      "name": "setPortrait",
      "outputs": [],
      "stateMutability": "nonpayable",
      "type": "function"
    },
    {
      "inputs": [
        {
          "internalType": "uint256",
          "name": "newFee",
          "type": "uint256"
        }
      ],
      "name": "setRegistrationFee",
      "outputs": [],
      "stateMutability": "nonpayable",
      "type": "function"
    },
    {
      "inputs": [
        {
          "internalType": "uint256",
          "name": "playerId",
          "type": "uint256"
        },
        {
          "internalType": "uint256",
          "name": "amount",
          "type": "uint256"
        }
      ],
      "name": "setReleaseClause",
      "outputs": [],
      "stateMutability": "nonpayable",
      "type": "function"
    },
    {
      "inputs": [
        {
          "internalType": "uint256",
          "name": "playerId",
          "type": "uint256"
        },
        {
          "internalType": "bytes32",
          "name": "registrationContractHash",
          "type": "bytes32"
        },
        {
          "internalType": "bytes32",
          "name": "fifaTMSHash",
          "type": "bytes32"
        },
        {
          "internalType": "bytes32",
          "name": "workPermitHash",
          "type": "bytes32"
        }
      ],
      "name": "submitLegalDocuments",
      "outputs": [],
      "stateMutability": "nonpayable",
      "type": "function"
    },
    {
      "inputs": [
        {
          "internalType": "bytes4",
          "name": "interfaceId",
          "type": "bytes4"
        }
      ],
      "name": "supportsInterface",
      "outputs": [
        {
          "internalType": "bool",
          "name": "",
          "type": "bool"
        }
      ],
      "stateMutability": "view",
      "type": "function"
    },
    {
      "inputs": [],
      "name": "symbol",
      "outputs": [
        {
          "internalType": "string",
          "name": "",
          "type": "string"
        }
      ],
      "stateMutability": "view",
      "type": "function"
    },
    {
      "inputs": [
        {
          "internalType": "uint256",
          "name": "playerId",
          "type": "uint256"
        }
      ],
      "name": "tokenURI",
      "outputs": [
        {
          "internalType": "string",
          "name": "",
          "type": "string"
        }
      ],
      "stateMutability": "view",
      "type": "function"
    },
    {
      "inputs": [],
      "name": "totalPlayers",
      "outputs": [
        {
          "internalType": "uint256",
          "name": "",
          "type": "uint256"
        }
      ],
      "stateMutability": "view",
      "type": "function"
    },
    {
      "inputs": [
        {
          "internalType": "address",
          "name": "from",
          "type": "address"
        },
        {
          "internalType": "address",
          "name": "to",
          "type": "address"
        },
        {
          "internalType": "uint256",
          "name": "tokenId",
          "type": "uint256"
        }
      ],
      "name": "transferFrom",
      "outputs": [],
      "stateMutability": "nonpayable",
      "type": "function"
    },
    {
      "inputs": [],
      "name": "unpause",
      "outputs": [],
      "stateMutability": "nonpayable",
      "type": "function"
    },
    {
      "inputs": [
        {
          "internalType": "uint256",
          "name": "playerId",
          "type": "uint256"
        },
        {
          "internalType": "address",
          "name": "newWallet",
          "type": "address"
        }
      ],
      "name": "updatePlayerWallet",
      "outputs": [],
      "stateMutability": "nonpayable",
      "type": "function"
    },
    {
      "inputs": [
        {
          "internalType": "address",
          "name": "club",
          "type": "address"
        }
      ],
      "name": "verifiedPlayerCount",
      "outputs": [
        {
          "internalType": "uint256",
          "name": "count",
          "type": "uint256"
        }
      ],
      "stateMutability": "view",
      "type": "function"
    },
    {
      "inputs": [
        {
          "internalType": "uint256",
          "name": "playerId",
          "type": "uint256"
        }
      ],
      "name": "verifyLegalDocuments",
      "outputs": [],
      "stateMutability": "nonpayable",
      "type": "function"
    },
    {
      "inputs": [
        {
          "internalType": "uint256",
          "name": "playerId",
          "type": "uint256"
        }
      ],
      "name": "verifyPlayer",
      "outputs": [],
      "stateMutability": "nonpayable",
      "type": "function"
    },
    {
      "inputs": [
        {
          "internalType": "address payable",
          "name": "to",
          "type": "address"
        },
        {
          "internalType": "uint256",
          "name": "amount",
          "type": "uint256"
        }
      ],
      "name": "withdrawFees",
      "outputs": [],
      "stateMutability": "nonpayable",
      "type": "function"
    }
  ],
  "bytecode": "0x6080604052346103a0576145986040813803918261001c816103a4565b9384928339810103126103a057602081519101519061003b60406103a4565b9160128352712a3930b739b332b934bab690283630bcb2b960711b602084015261006560406103a4565b60058152642a28262ca960d91b602082015283519092906001600160401b0381116102b4575f54600181811c91168015610396575b602082101461029657601f8111610334575b50602094601f82116001146102d3579481929394955f926102c8575b50508160011b915f199060031b1c1916175f555b82516001600160401b0381116102b457600154600181811c911680156102aa575b602082101461029657601f8111610233575b506020601f82116001146101d057819293945f926101c5575b50508160011b915f199060031b1c1916176001555b60017f9b779b17422d0df92223018b32b4d1fa46e071723d6817e2486d003becc55f005569021e19e0c9bab240000081116101b65769021e19e0c9bab240000082116101b657600955600a55610192336103c9565b5061019c3361043f565b506101a6336104d2565b50604051613fb290816105668239f35b6358d620b360e01b5f5260045ffd5b015190505f80610128565b601f1982169060015f52805f20915f5b81811061021b57509583600195969710610203575b505050811b0160015561013d565b01515f1960f88460031b161c191690555f80806101f5565b9192602060018192868b0151815501940192016101e0565b60015f527fb10e2d527612073b26eecdfd717e6a320cf44b4afac2b0732d9fcbe2b7fa0cf6601f830160051c8101916020841061028c575b601f0160051c01905b818110610281575061010f565b5f8155600101610274565b909150819061026b565b634e487b7160e01b5f52602260045260245ffd5b90607f16906100fd565b634e487b7160e01b5f52604160045260245ffd5b015190505f806100c8565b601f198216955f8052805f20915f5b88811061031c57508360019596979810610304575b505050811b015f556100dc565b01515f1960f88460031b161c191690555f80806102f7565b919260206001819286850151815501940192016102e2565b5f80527f290decd9548b62a8d60345a988386fc84ba6bc95484008f6362f93160ef3e563601f830160051c8101916020841061038c575b601f0160051c01905b81811061038157506100ac565b5f8155600101610374565b909150819061036b565b90607f169061009a565b5f80fd5b6040519190601f01601f191682016001600160401b038111838210176102b457604052565b6001600160a01b0381165f9081525f5160206145785f395f51905f52602052604090205460ff1661043a576001600160a01b03165f8181525f5160206145785f395f51905f5260205260408120805460ff191660011790553391905f5160206145185f395f51905f528180a4600190565b505f90565b6001600160a01b0381165f9081525f5160206145585f395f51905f52602052604090205460ff1661043a576001600160a01b03165f8181525f5160206145585f395f51905f5260205260408120805460ff191660011790553391907fa49807205ce4d355092ef5a8a18f56e8913cf4a201fbe287825b095693c21775905f5160206145185f395f51905f529080a4600190565b6001600160a01b0381165f9081525f5160206145385f395f51905f52602052604090205460ff1661043a576001600160a01b03165f8181525f5160206145385f395f51905f5260205260408120805460ff191660011790553391907fedcc084d3dcd65a1f7f23c65c46722faca6953d28e43150a467cf43e5c309238905f5160206145185f395f51905f529080a460019056fe6080806040526004361015610012575f80fd5b5f3560e01c90816301c11d961461311f5750806301ffc9a714613097578063045f616c1461305f57806306fdde0314612fbd578063081812fc14612f81578063095ea7b314612e97578063131dbd0914612e3357806314c44e0914612e16578063217a434714612d4b57806323b872dd14612d34578063248a9ca314612d0e57806324d4275c14612c59578063269c089f14612505578063281b4826146124025780632c1b945e146123565780632f2ff15d1461232557806332f65ba3146120715780633555108e1461204c57806336568abe146120085780633cd46ccc14611eec5780633f4ba83a14611e8657806342842e0e14611e5d5780635298d50514611da9578063555de94514611c575780635c975abb14611c355780636352211e14611c17578063663d112a14611b6a5780636a1b7ecc14611b4d5780636ce76f3014611b2657806370a0823114611ad557806375b238fc14611aae5780637723d306146119de5780637b9ea296146118e45780637f107c5f146117515780637f3e18be1461173657806382040a55146115735780638456cb591461151a578063852aa16b146114f757806391d14854146114ae57806395d89b41146113d0578063a217fddf146113b6578063a22cb46514611305578063ad3b1b471461121f578063b88d4fde146111c0578063bc063e1a1461119c578063c320c72714611129578063c87b56dd14610a0d578063d3a28d6a146109c7578063d547741f1461098f578063d8541cf6146107d9578063e55ae4e814610551578063e8fa92bf14610462578063e985e9c51461040b578063f60cdcf6146103ee578063f68e9553146103c7578063f8c7f5a214610379578063f9ab6db9146102c55763fc8045b11461029a575f80fd5b346102c1575f3660031901126102c15760206040515f516020613f5d5f395f51905f528152f35b5f80fd5b346102c15760203660031901126102c1576001600160a01b036102e6613142565b165f52600d60205260405f20604051806020835491828152019081935f5260205f20905f5b8181106103635750505081610321910382613246565b604051918291602083019060208452518091526040830191905f5b81811061034a575050500390f35b825184528594506020938401939092019160010161033c565b825484526020909301926001928301920161030b565b346102c15760203660031901126102c157610392613142565b6001600160a01b03165f9081525f516020613e9d5f395f51905f52602090815260409182902054915160ff9092161515825290f35b346102c1575f3660031901126102c15760206040515f516020613efd5f395f51905f528152f35b346102c1575f3660031901126102c1576020600854604051908152f35b346102c15760403660031901126102c157610424613142565b61042c613158565b9060018060a01b03165f52600560205260405f209060018060a01b03165f52602052602060ff60405f2054166040519015158152f35b346102c15760203660031901126102c15760043561047e613a1a565b610486613a35565b61048e613857565b805f52600b602052600a60405f20015415610542576104ac816137c7565b336001600160a01b039091160361053357805f52600b60205260405f20600681019081549060ff8260a81c1615610524575f9260089260ff60a81b1916905501557f730bb3d177f199acb749ca25b9288c64178cd10b945419c3cdf5bcff119ac0b25f80a260015f516020613f1d5f395f51905f5255005b630657e2c760e21b5f5260045ffd5b63f446c1b560e01b5f5260045ffd5b632a645edb60e01b5f5260045ffd5b346102c15760203660031901126102c1576004355f6101e06040516105758161320f565b82815260606020820152606060408201526060808201528260808201528260a08201528260c08201528260e08201528261010082015282610120820152826101408201528261016082015282610180820152826101a082015260606101c08201520152805f52600b602052600a60405f20015415610542575f52600b60205260405f20600c604051916106078361320f565b80548352610617600182016132f2565b6020840152610628600282016132f2565b6040840152610639600382016132f2565b606084015260048101546080840152600581015460a084015260ff600682015460018060a01b03811660c0860152818160a01c16151560e0860152818160a81c16151561010086015260b01c161515610120840152600781015461014084015260088101546101608401526009810154610180840152600a8101546101a08401526106c6600b82016132f2565b6101c084015201546101e0820152604051809160208252805160208301526101e06107cc61073761072161070b6020860151610200604089015261022088019061316e565b6040860151878203601f1901606089015261316e565b6060850151868203601f1901608088015261316e565b608084015160a086015260a084015160c086015260018060a01b0360c08501511660e086015260e08401511515610100860152610100840151151561012086015261012084015115156101408601526101408401516101608601526101608401516101808601526101808401516101a08601526101a08401516101c08601526101c0840151601f19868303018487015261316e565b9101516102008301520390f35b346102c15760803660031901126102c1576004356064356024356044356107fe613a1a565b610806613a35565b61080e6138a0565b835f52600b602052600a60405f200154156105425781156109585780156109585780821461095857821515918280610986575b61095857828061097d575b61095857805f52601060205260ff60405f20541661095857815f52601060205260ff60405f205416610958578280610967575b610958576108d36040516108928161322b565b8281526003602082018581526040830188815260608401915f83528a5f52600c60205260405f20945185555160018501555160028401555115159101613602565b5f52601060205260405f20600160ff198254161790555f52601060205260405f20600160ff1982541617905561093c575b507f3f83989b93fff65ebbe421cc2147f8297134c7f8a440a07ff7de2f6f31ac0ca05f80a260015f516020613f1d5f395f51905f5255005b5f52601060205260405f20600160ff1982541617905581610904565b63e6c4247b60e01b5f5260045ffd5b50835f52601060205260ff60405f20541661087f565b5081841461084c565b50808414610841565b346102c15760403660031901126102c1576109c56004356109ae613158565b906109c06109bb82613557565b6138fc565b613af9565b005b346102c15760203660031901126102c157600435805f52600b602052600a60405f20015415610542576109fb6020916137c7565b6040516001600160a01b039091168152f35b346102c15760203660031901126102c157600435805f52600b602052600a60405f2001541561054257805f52600b60205260405f209060405191610a508361320f565b80548352610a60600182016132f2565b9060208401918252610a74600282016132f2565b9360408101948552610a88600383016132f2565b91606082019283526004810154916080810192835260058201549060a08101918252600683015460018060a01b03811660c083015260e0820160ff8260a01c161515815261010083019260ff8360a81c161515845260ff61012082019360b01c1615158352600786015461014082015260088601546101608201526009860154610180820152600a8601546101a08201526101e0600c610b2a600b89016132f2565b976101c084019889520154910152610b41896137c7565b855151909590156110f9576020610b9e60026030610ba794516040519485916f22696d616765223a22697066733a2f2f60801b828401528051918291018484015e810161088b60f21b838201520301601d19810184520182613246565b985b5199613b7d565b995196519051156110eb57610bba6137a5565b915b51156110dd57610bca6137a5565b925b51156110cc57610be5610bdd6137a5565b945b51613b7d565b9460018060a01b031696879660405197610c0060608a613246565b602a895260208901996040368c378951156110b85760308b538951600110156110b857607860218b015360295b6001811161105e5750611047575051610c4590613b7d565b986040519b8c809c683d913730b6b2911d1160b91b60208301528051916020839201906029015e8c016029810161202360f01b905281516020819301602b83015e0160290161088b60f21b600282015281516020819301600483015e7f226465736372697074696f6e223a225472616e7366657269756d2050726f746f600492909101918201527f636f6c202d2050726f66657373696f6e616c20466f6f7462616c6c20506c6179602482015270195c88149959da5cdd1c985d1a5bdb888b607a1b60448201526d2261747472696275746573223a5b60901b60558201527f7b2274726169745f74797065223a22506f736974696f6e222c2276616c7565226063820152611d1160f11b608382015281519160028201918391602001906085015e0160020162089f4b60ea1b6081820152608481017f7b2274726169745f74797065223a224e6174696f6e616c697479222c2276616c9052643ab2911d1160d91b60a48201528151602081930160a983015e0160810162089f4b60ea1b6028820152602b81017f7b2274726169745f74797065223a225665726966696564222c2276616c7565229052611d1160f11b604b82015281516020819301604d83015e0160280162089f4b60ea1b6025820152602881017f7b2274726169745f74797065223a224d65646963616c20436c656172616e636590526a1116113b30b63ab2911d1160a91b604882015281516020819301605383015e0160250162089f4b60ea1b602e820152603181017f7b2274726169745f74797065223a224c6973746564222c2276616c7565223a22905281516020819301605183015e01602e0162089f4b60ea1b6023820152602681017f7b2274726169745f74797065223a225765656b6c792053616c6172792028455590526c2921949116113b30b63ab2911d60991b604682015281516020819301605383015e016023019060308201611f4b60f21b9052603282017f7b2274726169745f74797065223a2243757272656e7420436c7562222c227661905265363ab2911d1160d11b6052830152518092605883015e0160300162089f4b60ea1b6028820152602b81017f7b2274726169745f74797065223a22436f6e747261637420457870697279222c905267113b30b63ab2911d60c11b604b82015281516020819301605383015e01602801602b8101607d60f81b9052602c8101615d7d60f01b905203602b01601c1981018252600301610fce9082613246565b610fd790613d07565b6040518091602082017f646174613a6170706c69636174696f6e2f6a736f6e3b6261736536342c000000905280516020819201603d84015e8101603d81015f905203603d01601f198101825261102d9082613246565b604051809160208252602082016110439161316e565b0390f35b63e22e27eb60e01b5f52600452601460245260445ffd5b90600f811660108110156110b8578b518310156110b8576f181899199a1a9b1b9c1cb0b131b232b360811b901a8b83016020015360041c9080156110a4575f1901610c2d565b634e487b7160e01b5f52601160045260245ffd5b634e487b7160e01b5f52603260045260245ffd5b610be56110d7613782565b94610bdf565b6110e5613782565b92610bcc565b6110f3613782565b91610bbc565b50610ba760405161110b604082613246565b600b81526a089a5b5859d9488e88888b60aa1b602082015298610ba0565b346102c15760203660031901126102c1576004356111456137fb565b69021e19e0c9bab2400000811161118d577f50b218c5a101ad05d53ab0a964d01da639ee79525ae4b7802ed714249740a8d560406009548151908152836020820152a1600955005b6358d620b360e01b5f5260045ffd5b346102c1575f3660031901126102c157602060405169021e19e0c9bab24000008152f35b346102c15760803660031901126102c1576111d9613142565b6111e1613158565b606435916001600160401b0383116102c157366023840112156102c1576112156109c5933690602481600401359101613284565b9160443591613669565b346102c15760403660031901126102c1576004356001600160a01b038116908190036102c157602435611250613a35565b6112586137fb565b811561095857801580156112f3575b6112e4574781116112d5575f80808084865af161128261363a565b50156112c65760207fc0819c13be868895eb93e40eaceb96de976442fa1d404e5c55f14bb65a8c489a91604051908152a260015f516020613f1d5f395f51905f5255005b631d42c86760e21b5f5260045ffd5b631e9acf1760e31b5f5260045ffd5b6366a7cc9160e11b5f5260045ffd5b50683635c9adc5dea000008111611267565b346102c15760403660031901126102c15761131e613142565b60243590811515908183036102c15733156113a3576001600160a01b03169182156113905761136290335f52600560205260405f20845f5260205260405f20613602565b6040519081527f17307eab39ab6107e8899845ad3d59bd9653f200f220920489ca2b5937696c3160203392a3005b82630b61174360e31b5f5260045260245ffd5b63a9fbf51f60e01b5f525f60045260245ffd5b346102c1575f3660031901126102c15760206040515f8152f35b346102c1575f3660031901126102c1576040515f6001546113f0816132ba565b808452906001811690811561148a575060011461142c575b6110438361141881850382613246565b60405191829160208352602083019061316e565b60015f9081527fb10e2d527612073b26eecdfd717e6a320cf44b4afac2b0732d9fcbe2b7fa0cf6939250905b80821061147057509091508101602001611418611408565b919260018160209254838588010152019101909291611458565b60ff191660208086019190915291151560051b840190910191506114189050611408565b346102c15760403660031901126102c1576114c7613158565b6004355f52600660205260405f209060018060a01b03165f52602052602060ff60405f2054166040519015158152f35b346102c1575f3660031901126102c1576020604051683635c9adc5dea000008152f35b346102c1575f3660031901126102c1576115326137fb565b61153a613a1a565b600160ff1960075416176007557f62e78cea01bee320cd4e420270b5ea74000d11b0c9f74754ebdbfc544b05a2586020604051338152a1005b346102c15760403660031901126102c1576004356024356001600160401b0381116102c1576115a69036906004016131e2565b6115b1929192613a1a565b6115b9613a35565b815f52600b602052600a60405f20015415610542576115d7826137c7565b5f838152600b6020526040902060060154336001600160a01b03928316141591168161172b575b5061171c575f828152600b6020819052604090912001926001600160401b038211611708576116378261163186546132ba565b86613569565b5f93601f83116001146116995761166683805f516020613e5d5f395f51905f5296975f9161168e575b506135b8565b90555b61167860405192839283613613565b0390a260015f516020613f1d5f395f51905f5255005b905084013588611660565b601f19831694815f5260205f20905f5b8781106116f05750845f516020613e5d5f395f51905f529697106116d7575b5050600183811b019055611669565b8301355f19600386901b60f8161c1916905585806116c8565b909160206001819285880135815501930191016116a9565b634e487b7160e01b5f52604160045260245ffd5b631648fd0160e01b5f5260045ffd5b9050331415846115fe565b346102c1575f3660031901126102c157602060405160408152f35b61175a366131cc565b611762613a1a565b61176a613a35565b611772613857565b815f52600b602052600a60405f2001541561054257611790826137c7565b336001600160a01b039091160361053357815f52600b60205260405f20600681019182549260ff8460a01c16156118d55760ff8460b01c16156118c657845f52600c60205260ff600360405f20015416156118b75760ff8460a81c166118a95781158015611895575b61188757600a5434036118785760048301544210156118695760ff60a81b19909316600160a81b179092556008018190556040519081527f561c3416be862008e42c047485cffa3005672af024d117176d50f73461a88e4c90602090a260015f516020613f1d5f395f51905f5255005b630790d4e360e01b5f5260045ffd5b63cd1c886760e01b5f5260045ffd5b62bfc92160e01b5f5260045ffd5b50676765c793fa10079d601a1b82116117f9565b62270be160e41b5f5260045ffd5b633bd639ff60e11b5f5260045ffd5b633b1a02ef60e01b5f5260045ffd5b6360e6b51b60e11b5f5260045ffd5b346102c15760403660031901126102c157600435611900613158565b611908613a1a565b611910613a35565b6119186138a0565b815f52600b602052600a60405f20015415610542576001600160a01b0316908115610958575f818152600b60205260409020600601546001600160a01b031661095857815f52601160205260ff60405f205416610958575f818152600b6020908152604080832060060180546001600160a01b0319168617905584835260119091528120805460ff191660011790557f1b808932b8c3b514083772af7b7d61295f17204a7d2ba98b5f46c08e766c25a79080a360015f516020613f1d5f395f51905f5255005b346102c1576119ec366131cc565b6119f4613a1a565b6119fc613a35565b611a04613857565b815f52600b602052600a60405f2001541561054257611a22826137c7565b336001600160a01b03909116036105335742811115611aa057815f52600b602052600460405f200154811115611aa05760207f2bfea865c31234064fed3b7148737e69eee440ca711e22dcf3d1b22ba2f66a5f91835f52600b825280600460405f200155604051908152a260015f516020613f1d5f395f51905f5255005b62d36c8560e81b5f5260045ffd5b346102c1575f3660031901126102c15760206040515f516020613f3d5f395f51905f528152f35b346102c15760203660031901126102c1576001600160a01b03611af6613142565b168015611b13575f526003602052602060405f2054604051908152f35b6322718ad960e21b5f525f60045260245ffd5b346102c1575f3660031901126102c15760206040515f516020613e7d5f395f51905f528152f35b346102c1575f3660031901126102c1576020600a54604051908152f35b346102c15760203660031901126102c1576004355f6060604051611b8d8161322b565b8281528260208201528260408201520152805f52600b602052600a60405f20015415610542575f52600c602052608060405f20604051611bcc8161322b565b815491828252600181015460208301908152606060ff600360028501549460408701958652015416930192151583526040519384525160208401525160408301525115156060820152f35b346102c15760203660031901126102c15760206109fb6004356137c7565b346102c1575f3660031901126102c157602060ff600754166040519015158152f35b346102c15760403660031901126102c157611c70613142565b6024356001600160401b0381116102c157611c8f9036906004016131e2565b9091611c996138a0565b81158015611d9f575b611d90576001600160a01b03165f818152601360205260409020929091906001600160401b03821161170857611cdc8261163186546132ba565b5f93601f8311600114611d2157611d0a83805f516020613e3d5f395f51905f5296975f9161168e57506135b8565b90555b611d1c60405192839283613613565b0390a2005b601f19831694815f5260205f20905f5b878110611d785750845f516020613e3d5f395f51905f52969710611d5f575b5050600183811b019055611d0d565b8301355f19600386901b60f8161c191690558580611d50565b90916020600181928588013581550193019101611d31565b6333afdcc360e01b5f5260045ffd5b5060408211611ca2565b346102c15760203660031901126102c157600435611dc5613a1a565b611dcd613a35565b611dd56138a0565b805f52600b602052600a60405f2001541561054257805f52600c60205260405f20600381019081549060ff8216611e4e5754156109585760ff1916600117905533907fed2c2ce3d8062cf2c584e4704b6b6c06054e976cdc006ae754859d9de41eb0a05f80a360015f516020613f1d5f395f51905f5255005b63a7d1daa960e01b5f5260045ffd5b346102c1576109c5611e6e36613192565b9060405192611e7e602085613246565b5f8452613669565b346102c1575f3660031901126102c157611e9e6137fb565b60075460ff811615611edd5760ff19166007557f5db9ee0a495bf2e6ff9c91a7834c1ba4fdd244a5e8aa4e537bd38aeae4b073aa6020604051338152a1005b638dfc202b60e01b5f5260045ffd5b346102c15760403660031901126102c157600435611f08613158565b611f10613a1a565b611f18613a35565b815f52600b602052600a60405f2001541561054257815f52600b602052600660405f20019160018060a01b03835416918215611ff957338303611fea576001600160a01b031692831561095857835f52601160205260ff60405f205416610958575f83815260116020526040808220805460ff199081169091558683529082208054909116600117905581546001600160a01b03191685179091557f5541278974bb9a469553ebe5150f576b17c54a4db3b6ed4e523171ed51983a769080a460015f516020613f1d5f395f51905f5255005b631d3c442d60e21b5f5260045ffd5b6382bcaa3b60e01b5f5260045ffd5b346102c15760403660031901126102c157612021613158565b336001600160a01b0382160361203d576109c590600435613af9565b63334bd91960e11b5f5260045ffd5b346102c1575f3660031901126102c15760206040516a084595161401484a0000008152f35b346102c15760603660031901126102c15760043561208d613158565b6044356001600160a01b038116918282036102c1576120aa613a1a565b6120b2613a35565b335f9081525f516020613ebd5f395f51905f52602052604090205460ff161561230157835f52600b602052600a60405f20015415610542578215610958576001600160a01b03169082821461095857816001600160a01b03612113866137c7565b1603610533575f848152600e6020908152604080832054858452600d90925290912080545f1981019081116110a45761214b916135ca565b90549060031b1c835f52600d6020526121838161216b8460405f206135ca565b90919082549060031b91821b915f19901b1916179055565b5f52600e60205260405f2055815f52600d60205260405f20805480156122ed575f1901906121b182826135ca565b8154905f199060031b1b1916905555825f52600d60205260405f2054845f52600e60205260405f2055825f52600d6020526121ef8460405f206135df565b835f52600b6020525f60076040822060068101805484600884015561ffff60a81b1916905501556122666040516122258161322b565b5f81526003602082015f8152604083015f815260608401915f8352895f52600c60205260405f20945185555160018501555160028401555115159101613602565b6001600160a01b039061227a908590613936565b16806122935783637e27328960e01b5f5260045260245ffd5b80828592036122d457507f5f5adfdfb7a234b61892f9d91126bd94774a85f3ca01c5394913dd02473871395f80a460015f516020613f1d5f395f51905f5255005b916364283d7b60e01b5f5260045260245260445260645ffd5b634e487b7160e01b5f52603160045260245ffd5b63e2517d3f60e01b5f52336004525f516020613e7d5f395f51905f5260245260445ffd5b346102c15760403660031901126102c1576109c5600435612344613158565b906123516109bb82613557565b613a6d565b346102c15760203660031901126102c157600435612372613a1a565b61237a6138a0565b805f52600b602052600a60405f2001541561054257805f52600b60205260ff600660405f20015460a01c166123f3575f818152600b60205260408120600601805460ff60a01b1916600160a01b1790553391907f37874770a804a7f707dcd526cb63a107863b9244f5487cc592b592806c8aa7679080a3005b633736b4d760e01b5f5260045ffd5b346102c15760403660031901126102c157600435602435612421613a1a565b612429613a35565b6124316138a0565b815f52600b602052600a60405f2001541561054257801561095857805f52601060205260ff60405f20541661095857815f52600b60205260ff600660405f20015460b01c166124f6575f828152600b6020908152604080832060068101805460ff60b01b1916600160b01b1790556007018490558383526010825291829020805460ff1916600117905590519182527f7a73b9a34d33c6be051c258466ebb49b8110d2dac4a55bbfc739f9463d87e74e91a260015f516020613f1d5f395f51905f5255005b636711343160e01b5f5260045ffd5b60e03660031901126102c1576004356001600160401b0381116102c1576125309036906004016131e2565b906024356001600160401b0381116102c1576125509036906004016131e2565b6044356001600160401b0381116102c15761256f9036906004016131e2565b909160643560843560a4356001600160401b0381116102c1576125969036906004016131e2565b9190926125a1613a1a565b6125a9613a35565b6125b1613857565b89158015612c4f575b612c2c5784158015612c45575b612c2c5785158015612c3b575b612c2c5760095434036118785742811115611869576a084595161401484a0000008211612c1d5760c4351515968780612c05575b612bf657898b61263b6014602060405184819583830197883781013360601b838201520301600b19810184520182613246565b51902096875f52600f60205260ff60405f205416612be7578a998c9760085461266390613392565b9c8d998a6008556040519a6126778c61320f565b8b52369061268492613284565b60208a0152369061269492613284565b604088015236906126a492613284565b6060860152608085015260a084015260c083015f905260e083015f905261010083015f905261012083015f905261014083015f905261016083015f905261018083015f9052426101a084015236906126fb92613284565b6101c082015260c4356101e0820152845f52600b60205260405f2090805182556020810151805190600160401b6001900382116117085761274c8261274360018701546132ba565b60018701613569565b602090601f8311600114612b7a5761276e92915f9183612b02575b50506135b8565b60018301555b60408101518051906001600160401b038211611708576127a48261279b60028701546132ba565b60028701613569565b602090601f8311600114612b0d576127c592915f9183612b025750506135b8565b60028301555b6060810151805160038401916001600160401b038211611708576127f9826127f385546132ba565b85613569565b602090601f8311600114612a9f5761281a92915f9183612a945750506135b8565b90555b6080810151600483015560a080820151600584015560c082015160068401805460e08501516101008601516101208701516001600160b81b03199093166001600160a01b03959095169490941790151590941b60ff60a01b169390931791151560a81b60ff60a81b169190911791151560b01b60ff60b01b169190911790556101408101516007830155610160810151600883015561018081015160098301556101a0810151600a8301556101c08101518051600b8401916001600160401b038211611708576128f1826127f385546132ba565b602090601f8311600114612a2a5782600c95936101e0959361291a935f92612a1f5750506135b8565b90555b0151910155335f52600d60205260405f2054845f52600e60205260405f2055335f52600d6020526129518460405f206135df565b5f52600f60205260405f20600160ff19825416179055612a01575b33156129ee576001600160a01b036129848333613936565b166129db57817f2f55cde73f168db90a448e73b4193010d39de2093e075ed53a83bcab9dd0862a6129bf602095604051918291339683613613565b0390a360015f516020613f1d5f395f51905f5255604051908152f35b6339e3563760e11b5f525f60045260245ffd5b633250574960e11b5f525f60045260245ffd5b60c4355f52601260205260405f20600160ff1982541617905561296c565b015190508d80612767565b90601f19831691845f52815f20925f5b818110612a7c5750926001928592600c98966101e0989610612a64575b505050811b01905561291d565b01515f1960f88460031b161c191690558c8080612a57565b92936020600181928786015181550195019301612a3a565b015190508b80612767565b90601f19831691845f52815f20925f5b818110612aea5750908460019594939210612ad2575b505050811b01905561281d565b01515f1960f88460031b161c191690558a8080612ac5565b92936020600181928786015181550195019301612aaf565b015190508a80612767565b9190600285015f52805f20905f935b601f1984168510612b5f576001945083601f19811610612b47575b505050811b0160028301556127cb565b01515f1960f88460031b161c19169055898080612b37565b81810151835560209485019460019093019290910190612b1c565b9190600185015f52805f20905f935b601f1984168510612bcc576001945083601f19811610612bb4575b505050811b016001830155612774565b01515f1960f88460031b161c19169055898080612ba4565b81810151835560209485019460019093019290910190612b89565b637722b8a160e11b5f5260045ffd5b632365304160e21b5f5260045ffd5b5060c4355f52601260205260ff60405f205416612608565b630863d2fb60e21b5f5260045ffd5b630ec0325960e21b5f5260045ffd5b50604086116125d4565b50604085116125c7565b5060408a116125ba565b346102c157612c67366131cc565b612c6f613a1a565b612c77613a35565b612c7f613857565b815f52600b602052600a60405f2001541561054257612c9d826137c7565b336001600160a01b039091160361053357676765c793fa10079d601a1b81116118875760207f690f108db8205a0a5e3454acd556a06c61db73f3dd2efa674349f5347213be0791835f52600b825280600960405f200155604051908152a260015f516020613f1d5f395f51905f5255005b346102c15760203660031901126102c1576020612d2c600435613557565b604051908152f35b346102c1576109c5612d4536613192565b916133a0565b346102c15760203660031901126102c157612d64613142565b5f9060018060a01b03165f52600d60205260405f20604051808260208294549384815201905f5260205f20925f5b818110612dfd575050612da792500382613246565b5f5b8151811015612df25760208160051b830101515f52600b60205260ff600660405f20015460a01c16612dde575b600101612da9565b91612dea600191613392565b929050612dd6565b602083604051908152f35b8454835260019485019486945060209093019201612d92565b346102c1575f3660031901126102c1576020600954604051908152f35b346102c15760203660031901126102c157600435612e4f6137fb565b69021e19e0c9bab2400000811161118d577f83bee1c75d00c29e66092d821c1c82aa4792fe1f058e8dff38d5d394d37916dd6040600a548151908152836020820152a1600a55005b346102c15760403660031901126102c157612eb0613142565b602435612ebc816137c7565b33151580612f6e575b80612f41575b612f2e5781906001600160a01b0384811691167f8c5be1e5ebec7d5bd14f71427d1e84f3dd0314c0f7b2291e5b200ac8c7c3b9255f80a45f90815260046020526040902080546001600160a01b0319166001600160a01b03909216919091179055005b63a9fbf51f60e01b5f523360045260245ffd5b506001600160a01b0381165f90815260056020908152604080832033845290915290205460ff1615612ecb565b506001600160a01b038116331415612ec5565b346102c15760203660031901126102c157600435612f9e816137c7565b505f526004602052602060018060a01b0360405f205416604051908152f35b346102c1575f3660031901126102c1576040515f5f54612fdc816132ba565b808452906001811690811561148a5750600114613003576110438361141881850382613246565b5f8080527f290decd9548b62a8d60345a988386fc84ba6bc95484008f6362f93160ef3e563939250905b80821061304557509091508101602001611418611408565b91926001816020925483858801015201910190929161302d565b346102c15760203660031901126102c1576001600160a01b03613080613142565b165f52601360205261104361141860405f206132f2565b346102c15760203660031901126102c15760043563ffffffff60e01b81168091036102c157602090637965db0b60e01b81149081156130dc575b506040519015158152f35b6380ac58cd60e01b81149150811561310e575b81156130fd575b50826130d1565b6301ffc9a760e01b149050826130f6565b635b5e139f60e01b811491506130ef565b346102c1575f3660031901126102c157676765c793fa10079d601a1b8152602090f35b600435906001600160a01b03821682036102c157565b602435906001600160a01b03821682036102c157565b805180835260209291819084018484015e5f828201840152601f01601f1916010190565b60609060031901126102c1576004356001600160a01b03811681036102c157906024356001600160a01b03811681036102c1579060443590565b60409060031901126102c1576004359060243590565b9181601f840112156102c1578235916001600160401b0383116102c157602083818601950101116102c157565b61020081019081106001600160401b0382111761170857604052565b608081019081106001600160401b0382111761170857604052565b601f909101601f19168101906001600160401b0382119082101761170857604052565b6001600160401b03811161170857601f01601f191660200190565b92919261329082613269565b9161329e6040519384613246565b8294818452818301116102c1578281602093845f960137010152565b90600182811c921680156132e8575b60208310146132d457565b634e487b7160e01b5f52602260045260245ffd5b91607f16916132c9565b9060405191825f825492613305846132ba565b8084529360018116908115613370575060011461332c575b5061332a92500383613246565b565b90505f9291925260205f20905f915b81831061335457505090602061332a928201015f61331d565b602091935080600191548385890101520191019091849261333b565b90506020925061332a94915060ff191682840152151560051b8201015f61331d565b5f1981146110a45760010190565b6001600160a01b03909116919082156129ee575f828152600260205260409020546001600160a01b0316151580613532575b613523575f828152600260205260409020546001600160a01b03169282903315158061348e575b508461346d575b805f52600360205260405f2060018154019055815f52600260205260405f208160018060a01b0319825416179055845f516020613edd5f395f51905f525f80a46001600160a01b031680830361345557505050565b6364283d7b60e01b5f5260045260245260445260645ffd5b61347682613cea565b845f52600360205260405f205f198154019055613400565b909150806134d2575b156134a45782905f6133f9565b82846134bc57637e27328960e01b5f5260045260245ffd5b63177e802f60e01b5f523360045260245260445ffd5b503384148015613501575b8061349757505f838152600460205260409020546001600160a01b03163314613497565b505f84815260056020908152604080832033845290915290205460ff166134dd565b6309a4abd160e41b5f5260045ffd5b50335f9081525f516020613ebd5f395f51905f52602052604090205460ff16156133d2565b5f526006602052600160405f20015490565b601f821161357657505050565b5f5260205f20906020601f840160051c830193106135ae575b601f0160051c01905b8181106135a3575050565b5f8155600101613598565b909150819061358f565b8160011b915f199060031b1c19161790565b80548210156110b8575f5260205f2001905f90565b80549190600160401b831015611708578261216b91600161332a950181556135ca565b9060ff801983541691151516179055565b90918060409360208452816020850152848401375f828201840152601f01601f1916010190565b3d15613664573d9061364b82613269565b916136596040519384613246565b82523d5f602084013e565b606090565b92916136768183866133a0565b813b613683575b50505050565b604051630a85bd0160e11b81523360048201526001600160a01b03948516602482015260448101919091526080606482015292169190602090829081906136ce90608483019061316e565b03815f865af15f918161373d575b5061370a57506136ea61363a565b805190816137055782633250574960e11b5f5260045260245ffd5b602001fd5b6001600160e01b03191663757a42ff60e11b0161372b57505f80808061367d565b633250574960e11b5f5260045260245ffd5b9091506020813d60201161377a575b8161375960209383613246565b810103126102c157516001600160e01b0319811681036102c157905f6136dc565b3d915061374c565b60405190613791604083613246565b600582526466616c736560d81b6020830152565b604051906137b4604083613246565b60048252637472756560e01b6020830152565b5f818152600260205260409020546001600160a01b03169081156137e9575090565b637e27328960e01b5f5260045260245ffd5b335f9081527f0c3bb05773fb95f6688e1e7d9c896674dccd66884026cf30a3d5e3a9bfecd811602052604090205460ff161561383357565b63e2517d3f60e01b5f52336004525f516020613f3d5f395f51905f5260245260445ffd5b335f9081525f516020613e9d5f395f51905f52602052604090205460ff161561387c57565b63e2517d3f60e01b5f52336004525f516020613f5d5f395f51905f5260245260445ffd5b335f9081527f827ad982763bf2f282f43324cd3a5f6cdfdb70b1feb6870da9693db6590b7f6b602052604090205460ff16156138d857565b63e2517d3f60e01b5f52336004525f516020613efd5f395f51905f5260245260445ffd5b5f81815260066020908152604080832033845290915290205460ff16156139205750565b63e2517d3f60e01b5f523360045260245260445ffd5b5f828152600260205260409020549091906001600160a01b03161515806139f5575b613523575f818152600260205260409020546001600160a01b031691826139d4575b6001600160a01b0316806139bc575b5f82815260026020526040812080546001600160a01b0319168317905583905f516020613edd5f395f51905f529080a490565b805f52600360205260405f2060018154019055613989565b6139dd82613cea565b825f52600360205260405f205f19815401905561397a565b50335f9081525f516020613ebd5f395f51905f52602052604090205460ff1615613958565b60ff60075416613a2657565b63d93c066560e01b5f5260045ffd5b60025f516020613f1d5f395f51905f525414613a5e5760025f516020613f1d5f395f51905f5255565b633ee5aeb560e01b5f5260045ffd5b5f8181526006602090815260408083206001600160a01b038616845290915290205460ff16613af3575f8181526006602090815260408083206001600160a01b0395909516808452949091528120805460ff19166001179055339291907f2f8788117e7eff1d82e926ec794901d17c78024a50270940304540a733656f0d9080a4600190565b50505f90565b5f8181526006602090815260408083206001600160a01b038616845290915290205460ff1615613af3575f8181526006602090815260408083206001600160a01b0395909516808452949091528120805460ff19169055339291907ff6391f5c32d9c69d2a47ea670b442974b53935d1edc7fd64eb21e047a839171b9080a4600190565b5f908072184f03e93ff9f4daa797ed6e38ed64bf6a1f0160401b811015613cc7575b600a906904ee2d6d415b85acef8160201b811015613cab575b662386f26fc10000811015613c97575b6305f5e100811015613c86575b612710811015613c77575b6064811015613c69575b1015613c5e575b600a60216001840193613c0385613269565b94613c116040519687613246565b808652613c20601f1991613269565b013660208701378401015b5f1901916f181899199a1a9b1b9c1cb0b131b232b360811b8282061a8353048015613c5957600a9091613c2b565b505090565b600190910190613bf1565b606460029104930192613bea565b61271060049104930192613be0565b6305f5e10060089104930192613bd5565b662386f26fc1000060109104930192613bc8565b602093909301926904ee2d6d415b85acef8160201b9004613bb8565b506040915072184f03e93ff9f4daa797ed6e38ed64bf6a1f0160401b8104613b9f565b5f90815260046020526040902080546001600160a01b0319169055565b90815115613e26578151600281018091116110a45760039004600281901b91906001600160fe1b038116036110a457604051917f4142434445464748494a4b4c4d4e4f505152535455565758595a616263646566601f527f6768696a6b6c6d6e6f707172737475767778797a303132333435363738392b2f603f52602083018480518101602081018051915f82525b808910613dea5750602095969750906003929152510680600114613dd557600214613dc8575b50808452830101604052565b603d905f1901535f613dbc565b50603d90815f1982015360011901535f613dbc565b939760036004910198603f8a51818160121c165183538181600c1c16516001840153818160061c16516002840153165160038201530193613d96565b9050604051613e36602082613246565b5f81529056fe00c45cb91aaf4430bd80ccc92dd6e4d588140c9f1380582349f77eef8a7b67ea6cbe040987295f70b3d807437ff24198c9fbd81f7eb082e96fefe98a3b165f2e2fdac322ee704ce09f0773f7f3f92eb98d5e7c836ee9c056cccd5f61041e5e3f548a2ed773d569e71f08f1415bd5a008688f60fe5663fc3610512fea9a6588b957823ddf81d7b5c9992f89688a4737fa0b677ade9b8f8ef6ec08559650617387ddf252ad1be2c89b69c2b068fc378daa952ba7f163c4a11628f55a4df523b3efedcc084d3dcd65a1f7f23c65c46722faca6953d28e43150a467cf43e5c3092389b779b17422d0df92223018b32b4d1fa46e071723d6817e2486d003becc55f00a49807205ce4d355092ef5a8a18f56e8913cf4a201fbe287825b095693c21775ba2dc669204b26427a432593e1c6ac86ab4ccc54d29c4287abbd1cefc1cb002ba2646970667358221220674bb7525b269500f854d5457d83177106028cd6546e83791d4eaf6f1c80ee8f64736f6c634300081c00332f8788117e7eff1d82e926ec794901d17c78024a50270940304540a733656f0d827ad982763bf2f282f43324cd3a5f6cdfdb70b1feb6870da9693db6590b7f6b0c3bb05773fb95f6688e1e7d9c896674dccd66884026cf30a3d5e3a9bfecd81154cdd369e4e8a8515e52ca72ec816c2101831ad1f18bf44102ed171459c9b4f8",
  "linkReferences": {},
  "deployedLinkReferences": {},
  "immutableReferences": {},
  "inputSourceName": "project/contracts/core/PlayerRegistry.sol",
  "buildInfoId": "solc-0_8_28-66dacbb9b58248588fe18a333966fb32face5edb"
}