{
  "_format": "hh3-artifact-1",
  "contractName": "PlayerRegistry",
  "sourceName": "contracts/core/PlayerRegistry.sol",
  "abi": [
    {
      "inputs": [
        {
          "internalType": "uint256",
          "name": "_registrationFee",
          "type": "uint256"
        },
        {
          "internalType": "uint256",
          "name": "_listingFee",
          "type": "uint256"
        }
      ],
      "stateMutability": "nonpayable",
      "type": "constructor"
    },
    {
      "inputs": [],
      "name": "AccessControlBadConfirmation",
      "type": "error"
    },
    {
      "inputs": [
        {
          "internalType": "address",
          "name": "account",
          "type": "address"
        },
        {
          "internalType": "bytes32",
          "name": "neededRole",
          "type": "bytes32"
        }
      ],
      "name": "AccessControlUnauthorizedAccount",
      "type": "error"
    },
    {
      "inputs": [],
      "name": "ClubNameTooLong",
      "type": "error"
    },
    {
      "inputs": [],
      "name": "ContractExpired",
      "type": "error"
    },
    {
      "inputs": [],
      "name": "DirectTransferBlocked",
      "type": "error"
    },
    {
      "inputs": [],
      "name": "DocumentsAlreadyVerified",
      "type": "error"
    },
    {
      "inputs": [
        {
          "internalType": "address",
          "name": "sender",
          "type": "address"
        },
        {
          "internalType": "uint256",
          "name": "tokenId",
          "type": "uint256"
        },
        {
          "internalType": "address",
          "name": "owner",
          "type": "address"
        }
      ],
      "name": "ERC721IncorrectOwner",
      "type": "error"
    },
    {
      "inputs": [
        {
          "internalType": "address",
          "name": "operator",
          "type": "address"
        },
        {
          "internalType": "uint256",
          "name": "tokenId",
          "type": "uint256"
        }
      ],
      "name": "ERC721InsufficientApproval",
      "type": "error"
    },
    {
      "inputs": [
        {
          "internalType": "address",
          "name": "approver",
          "type": "address"
        }
      ],
      "name": "ERC721InvalidApprover",
      "type": "error"
    },
    {
      "inputs": [
        {
          "internalType": "address",
          "name": "operator",
          "type": "address"
        }
      ],
      "name": "ERC721InvalidOperator",
      "type": "error"
    },
    {
      "inputs": [
        {
          "internalType": "address",
          "name": "owner",
          "type": "address"
        }
      ],
      "name": "ERC721InvalidOwner",
      "type": "error"
    },
    {
      "inputs": [
        {
          "internalType": "address",
          "name": "receiver",
          "type": "address"
        }
      ],
      "name": "ERC721InvalidReceiver",
      "type": "error"
    },
    {
      "inputs": [
        {
          "internalType": "address",
          "name": "sender",
          "type": "address"
        }
      ],
      "name": "ERC721InvalidSender",
      "type": "error"
    },
    {
      "inputs": [
        {
          "internalType": "uint256",
          "name": "tokenId",
          "type": "uint256"
        }
      ],
      "name": "ERC721NonexistentToken",
      "type": "error"
    },
    {
      "inputs": [],
      "name": "EnforcedPause",
      "type": "error"
    },
    {
      "inputs": [],
      "name": "ExpectedPause",
      "type": "error"
    },
    {
      "inputs": [],
      "name": "FifaIdAlreadyRegistered",
      "type": "error"
    },
    {
      "inputs": [],
      "name": "InsufficientBalance",
      "type": "error"
    },
    {
      "inputs": [],
      "name": "InsufficientPayment",
      "type": "error"
    },
    {
      "inputs": [],
      "name": "InvalidAddress",
      "type": "error"
    },
    {
      "inputs": [],
      "name": "InvalidExpiry",
      "type": "error"
    },
    {
      "inputs": [],
      "name": "InvalidFee",
      "type": "error"
    },
    {
      "inputs": [],
      "name": "InvalidPrice",
      "type": "error"
    },
    {
      "inputs": [],
      "name": "InvalidSalary",
      "type": "error"
    },
    {
      "inputs": [],
      "name": "InvalidString",
      "type": "error"
    },
    {
      "inputs": [],
      "name": "LegalDocsNotVerified",
      "type": "error"
    },
    {
      "inputs": [],
      "name": "MedicalAlreadyCleared",
      "type": "error"
    },
    {
      "inputs": [],
      "name": "MedicalClearanceRequired",
      "type": "error"
    },
    {
      "inputs": [],
      "name": "NotAuthorised",
      "type": "error"
    },
    {
      "inputs": [],
      "name": "NotPlayerClub",
      "type": "error"
    },
    {
      "inputs": [],
      "name": "NotPlayerWallet",
      "type": "error"
    },
    {
      "inputs": [],
      "name": "PlayerAlreadyExists",
      "type": "error"
    },
    {
      "inputs": [],
      "name": "PlayerAlreadyListed",
      "type": "error"
    },
    {
      "inputs": [],
      "name": "PlayerAlreadyVerified",
      "type": "error"
    },
    {
      "inputs": [],
      "name": "PlayerNotFound",
      "type": "error"
    },
    {
      "inputs": [],
      "name": "PlayerNotListed",
      "type": "error"
    },
    {
      "inputs": [],
      "name": "PlayerNotVerified",
      "type": "error"
    },
    {
      "inputs": [],
      "name": "PlayerWalletNotSet",
      "type": "error"
    },
    {
      "inputs": [],
      "name": "ReentrancyGuardReentrantCall",
      "type": "error"
    },
    {
      "inputs": [
        {
          "internalType": "uint256",
          "name": "value",
          "type": "uint256"
        },
        {
          "internalType": "uint256",
          "name": "length",
          "type": "uint256"
        }
      ],
      "name": "StringsInsufficientHexLength",
      "type": "error"
    },
    {
      "inputs": [],
      "name": "WithdrawAmountTooLarge",
      "type": "error"
    },
    {
      "inputs": [],
      "name": "WithdrawFailed",
      "type": "error"
    },
    {
      "anonymous": false,
      "inputs": [
        {
          "indexed": true,
          "internalType": "address",
          "name": "owner",
          "type": "address"
        },
        {
          "indexed": true,
          "internalType": "address",
          "name": "approved",
          "type": "address"
        },
        {
          "indexed": true,
          "internalType": "uint256",
          "name": "tokenId",
          "type": "uint256"
        }
      ],
      "name": "Approval",
      "type": "event"
    },
    {
      "anonymous": false,
      "inputs": [
        {
          "indexed": true,
          "internalType": "address",
          "name": "owner",
          "type": "address"
        },
        {
          "indexed": true,
          "internalType": "address",
          "name": "operator",
          "type": "address"
        },
        {
          "indexed": false,
          "internalType": "bool",
          "name": "approved",
          "type": "bool"
        }
      ],
      "name": "ApprovalForAll",
      "type": "event"
    },
    {
      "anonymous": false,
      "inputs": [
        {
          "indexed": true,
          "internalType": "address",
          "name": "club",
          "type": "address"
        },
        {
          "indexed": false,
          "internalType": "string",
          "name": "name",
          "type": "string"
        }
      ],
      "name": "ClubNameSet",
      "type": "event"
    },
    {
      "anonymous": false,
      "inputs": [
        {
          "indexed": true,
          "internalType": "uint256",
          "name": "playerId",
          "type": "uint256"
        },
        {
          "indexed": true,
          "internalType": "address",
          "name": "fromClub",
          "type": "address"
        },
        {
          "indexed": true,
          "internalType": "address",
          "name": "toClub",
          "type": "address"
        }
      ],
      "name": "ClubOwnershipTransferred",
      "type": "event"
    },
    {
      "anonymous": false,
      "inputs": [
        {
          "indexed": true,
          "internalType": "uint256",
          "name": "playerId",
          "type": "uint256"
        },
        {
          "indexed": false,
          "internalType": "uint256",
          "name": "newExpiry",
          "type": "uint256"
        }
      ],
      "name": "ContractExtended",
      "type": "event"
    },
    {
      "anonymous": false,
      "inputs": [
        {
          "indexed": true,
          "internalType": "address",
          "name": "to",
          "type": "address"
        },
        {
          "indexed": false,
          "internalType": "uint256",
          "name": "amount",
          "type": "uint256"
        }
      ],
      "name": "FeesWithdrawn",
      "type": "event"
    },
    {
      "anonymous": false,
      "inputs": [
        {
          "indexed": true,
          "internalType": "uint256",
          "name": "playerId",
          "type": "uint256"
        }
      ],
      "name": "LegalDocumentsSubmitted",
      "type": "event"
    },
    {
      "anonymous": false,
      "inputs": [
        {
          "indexed": true,
          "internalType": "uint256",
          "name": "playerId",
          "type": "uint256"
        },
        {
          "indexed": true,
          "internalType": "address",
          "name": "registrar",
          "type": "address"
        }
      ],
      "name": "LegalDocumentsVerified",
      "type": "event"
    },
    {
      "anonymous": false,
      "inputs": [
        {
          "indexed": false,
          "internalType": "uint256",
          "name": "oldFee",
          "type": "uint256"
        },
        {
          "indexed": false,
          "internalType": "uint256",
          "name": "newFee",
          "type": "uint256"
        }
      ],
      "name": "ListingFeeUpdated",
      "type": "event"
    },
    {
      "anonymous": false,
      "inputs": [
        {
          "indexed": true,
          "internalType": "uint256",
          "name": "playerId",
          "type": "uint256"
        },
        {
          "indexed": false,
          "internalType": "bytes32",
          "name": "documentHash",
          "type": "bytes32"
        }
      ],
      "name": "MedicalClearanceSet",
      "type": "event"
    },
    {
      "anonymous": false,
      "inputs": [
        {
          "indexed": false,
          "internalType": "address",
          "name": "account",
          "type": "address"
        }
      ],
      "name": "Paused",
      "type": "event"
    },
    {
      "anonymous": false,
      "inputs": [
        {
          "indexed": true,
          "internalType": "uint256",
          "name": "playerId",
          "type": "uint256"
        }
      ],
      "name": "PlayerDelisted",
      "type": "event"
    },
    {
      "anonymous": false,
      "inputs": [
        {
          "indexed": true,
          "internalType": "uint256",
          "name": "playerId",
          "type": "uint256"
        },
        {
          "indexed": false,
          "internalType": "uint256",
          "name": "askingPrice",
          "type": "uint256"
        }
      ],
      "name": "PlayerListed",
      "type": "event"
    },
    {
      "anonymous": false,
      "inputs": [
        {
          "indexed": true,
          "internalType": "uint256",
          "name": "playerId",
          "type": "uint256"
        },
        {
          "indexed": false,
          "internalType": "string",
          "name": "name",
          "type": "string"
        },
        {
          "indexed": true,
          "internalType": "address",
          "name": "club",
          "type": "address"
        }
      ],
      "name": "PlayerRegistered",
      "type": "event"
    },
    {
      "anonymous": false,
      "inputs": [
        {
          "indexed": true,
          "internalType": "uint256",
          "name": "playerId",
          "type": "uint256"
        },
        {
          "indexed": true,
          "internalType": "address",
          "name": "registrar",
          "type": "address"
        }
      ],
      "name": "PlayerVerified",
      "type": "event"
    },
    {
      "anonymous": false,
      "inputs": [
        {
          "indexed": true,
          "internalType": "uint256",
          "name": "playerId",
          "type": "uint256"
        },
        {
          "indexed": true,
          "internalType": "address",
          "name": "playerWallet",
          "type": "address"
        }
      ],
      "name": "PlayerWalletSet",
      "type": "event"
    },
    {
      "anonymous": false,
      "inputs": [
        {
          "indexed": true,
          "internalType": "uint256",
          "name": "playerId",
          "type": "uint256"
        },
        {
          "indexed": true,
          "internalType": "address",
          "name": "oldWallet",
          "type": "address"
        },
        {
          "indexed": true,
          "internalType": "address",
          "name": "newWallet",
          "type": "address"
        }
      ],
      "name": "PlayerWalletUpdated",
      "type": "event"
    },
    {
      "anonymous": false,
      "inputs": [
        {
          "indexed": true,
          "internalType": "uint256",
          "name": "playerId",
          "type": "uint256"
        },
        {
          "indexed": false,
          "internalType": "string",
          "name": "cid",
          "type": "string"
        }
      ],
      "name": "PortraitUpdated",
      "type": "event"
    },
    {
      "anonymous": false,
      "inputs": [
        {
          "indexed": false,
          "internalType": "uint256",
          "name": "oldFee",
          "type": "uint256"
        },
        {
          "indexed": false,
          "internalType": "uint256",
          "name": "newFee",
          "type": "uint256"
        }
      ],
      "name": "RegistrationFeeUpdated",
      "type": "event"
    },
    {
      "anonymous": false,
      "inputs": [
        {
          "indexed": true,
          "internalType": "uint256",
          "name": "playerId",
          "type": "uint256"
        },
        {
          "indexed": false,
          "internalType": "uint256",
          "name": "amount",
          "type": "uint256"
        }
      ],
      "name": "ReleaseClauseSet",
      "type": "event"
    },
    {
      "anonymous": false,
      "inputs": [
        {
          "indexed": true,
          "internalType": "bytes32",
          "name": "role",
          "type": "bytes32"
        },
        {
          "indexed": true,
          "internalType": "bytes32",
          "name": "previousAdminRole",
          "type": "bytes32"
        },
        {
          "indexed": true,
          "internalType": "bytes32",
          "name": "newAdminRole",
          "type": "bytes32"
        }
      ],
      "name": "RoleAdminChanged",
      "type": "event"
    },
    {
      "anonymous": false,
      "inputs": [
        {
          "indexed": true,
          "internalType": "bytes32",
          "name": "role",
          "type": "bytes32"
        },
        {
          "indexed": true,
          "internalType": "address",
          "name": "account",
          "type": "address"
        },
        {
          "indexed": true,
          "internalType": "address",
          "name": "sender",
          "type": "address"
        }
      ],
      "name": "RoleGranted",
      "type": "event"
    },
    {
      "anonymous": false,
      "inputs": [
        {
          "indexed": true,
          "internalType": "bytes32",
          "name": "role",
          "type": "bytes32"
        },
        {
          "indexed": true,
          "internalType": "address",
          "name": "account",
          "type": "address"
        },
        {
          "indexed": true,
          "internalType": "address",
          "name": "sender",
          "type": "address"
        }
      ],
      "name": "RoleRevoked",
      "type": "event"
    },
    {
      "anonymous": false,
      "inputs": [
        {
          "indexed": true,
          "internalType": "address",
          "name": "from",
          "type": "address"
        },
        {
          "indexed": true,
          "internalType": "address",
          "name": "to",
          "type": "address"
        },
        {
          "indexed": true,
          "internalType": "uint256",
          "name": "tokenId",
          "type": "uint256"
        }
      ],
      "name": "Transfer",
      "type": "event"
    },
    {
      "anonymous": false,
      "inputs": [
        {
          "indexed": false,
          "internalType": "address",
          "name": "account",
          "type": "address"
        }
      ],
      "name": "Unpaused",
      "type": "event"
    },
    {
      "inputs": [],
      "name": "ADMIN_ROLE",
      "outputs": [
        {
          "internalType": "bytes32",
          "name": "",
          "type": "bytes32"
        }
      ],
      "stateMutability": "view",
      "type": "function"
    },
    {
      "inputs": [],
      "name": "CLUB_ROLE",
      "outputs": [
        {
          "internalType": "bytes32",
          "name": "",
          "type": "bytes32"
        }
      ],
      "stateMutability": "view",
      "type": "function"
    },
    {
      "inputs": [],
      "name": "DEFAULT_ADMIN_ROLE",
      "outputs": [
        {
          "internalType": "bytes32",
          "name": "",
          "type": "bytes32"
        }
      ],
      "stateMutability": "view",
      "type": "function"
    },
    {
      "inputs": [],
      "name": "ESCROW_ROLE",
      "outputs": [
        {
          "internalType": "bytes32",
          "name": "",
          "type": "bytes32"
        }
      ],
      "stateMutability": "view",
      "type": "function"
    },
    {
      "inputs": [],
      "name": "MAX_FEE",
      "outputs": [
        {
          "internalType": "uint256",
          "name": "",
          "type": "uint256"
        }
      ],
      "stateMutability": "view",
      "type": "function"
    },
    {
      "inputs": [],
      "name": "MAX_PRICE",
      "outputs": [
        {
          "internalType": "uint256",
          "name": "",
          "type": "uint256"
        }
      ],
      "stateMutability": "view",
      "type": "function"
    },
    {
      "inputs": [],
      "name": "MAX_SALARY",
      "outputs": [
        {
          "internalType": "uint256",
          "name": "",
          "type": "uint256"
        }
      ],
      "stateMutability": "view",
      "type": "function"
    },
    {
      "inputs": [],
      "name": "MAX_STRING_LEN",
      "outputs": [
        {
          "internalType": "uint256",
          "name": "",
          "type": "uint256"
        }
      ],
      "stateMutability": "view",
      "type": "function"
    },
    {
      "inputs": [],
      "name": "MAX_WITHDRAW",
      "outputs": [
        {
          "internalType": "uint256",
          "name": "",
          "type": "uint256"
        }
      ],
      "stateMutability": "view",
      "type": "function"
    },
    {
      "inputs": [],
      "name": "REGISTRAR_ROLE",
      "outputs": [
        {
          "internalType": "bytes32",
          "name": "",
          "type": "bytes32"
        }
      ],
      "stateMutability": "view",
      "type": "function"
    },
    {
      "inputs": [
        {
          "internalType": "address",
          "name": "to",
          "type": "address"
        },
        {
          "internalType": "uint256",
          "name": "tokenId",
          "type": "uint256"
        }
      ],
      "name": "approve",
      "outputs": [],
      "stateMutability": "nonpayable",
      "type": "function"
    },
    {
      "inputs": [
        {
          "internalType": "address",
          "name": "owner",
          "type": "address"
        }
      ],
      "name": "balanceOf",
      "outputs": [
        {
          "internalType": "uint256",
          "name": "",
          "type": "uint256"
        }
      ],
      "stateMutability": "view",
      "type": "function"
    },
    {
      "inputs": [
        {
          "internalType": "uint256",
          "name": "playerId",
          "type": "uint256"
        }
      ],
      "name": "currentClub",
      "outputs": [
        {
          "internalType": "address",
          "name": "",
          "type": "address"
        }
      ],
      "stateMutability": "view",
      "type": "function"
    },
    {
      "inputs": [
        {
          "internalType": "uint256",
          "name": "playerId",
          "type": "uint256"
        }
      ],
      "name": "delistPlayer",
      "outputs": [],
      "stateMutability": "nonpayable",
      "type": "function"
    },
    {
      "inputs": [
        {
          "internalType": "uint256",
          "name": "playerId",
          "type": "uint256"
        },
        {
          "internalType": "address",
          "name": "fromClub",
          "type": "address"
        },
        {
          "internalType": "address",
          "name": "toClub",
          "type": "address"
        }
      ],
      "name": "escrowTransfer",
      "outputs": [],
      "stateMutability": "nonpayable",
      "type": "function"
    },
    {
      "inputs": [
        {
          "internalType": "uint256",
          "name": "playerId",
          "type": "uint256"
        },
        {
          "internalType": "uint256",
          "name": "newExpiry",
          "type": "uint256"
        }
      ],
      "name": "extendContract",
      "outputs": [],
      "stateMutability": "nonpayable",
      "type": "function"
    },
    {
      "inputs": [
        {
          "internalType": "uint256",
          "name": "tokenId",
          "type": "uint256"
        }
      ],
      "name": "getApproved",
      "outputs": [
        {
          "internalType": "address",
          "name": "",
          "type": "address"
        }
      ],
      "stateMutability": "view",
      "type": "function"
    },
    {
      "inputs": [
        {
          "internalType": "address",
          "name": "club",
          "type": "address"
        }
      ],
      "name": "getClubName",
      "outputs": [
        {
          "internalType": "string",
          "name": "",
          "type": "string"
        }
      ],
      "stateMutability": "view",
      "type": "function"
    },
    {
      "inputs": [
        {
          "internalType": "address",
          "name": "club",
          "type": "address"
        }
      ],
      "name": "getClubPlayers",
      "outputs": [
        {
          "internalType": "uint256[]",
          "name": "",
          "type": "uint256[]"
        }
      ],
      "stateMutability": "view",
      "type": "function"
    },
    {
      "inputs": [
        {
          "internalType": "uint256",
          "name": "playerId",
          "type": "uint256"
        }
      ],
      "name": "getLegalDocuments",
      "outputs": [
        {
          "components": [
            {
              "internalType": "bytes32",
              "name": "registrationContractHash",
              "type": "bytes32"
            },
            {
              "internalType": "bytes32",
              "name": "fifaTMSHash",
              "type": "bytes32"
            },
            {
              "internalType": "bytes32",
              "name": "workPermitHash",
              "type": "bytes32"
            },
            {
              "internalType": "bool",
              "name": "documentsVerified",
              "type": "bool"
            }
          ],
          "internalType": "struct IPlayerRegistry.LegalDocuments",
          "name": "",
          "type": "tuple"
        }
      ],
      "stateMutability": "view",
      "type": "function"
    },
    {
      "inputs": [
        {
          "internalType": "uint256",
          "name": "playerId",
          "type": "uint256"
        }
      ],
      "name": "getPlayer",
      "outputs": [
        {
          "components": [
            {
              "internalType": "uint256",
              "name": "id",
              "type": "uint256"
            },
            {
              "internalType": "string",
              "name": "name",
              "type": "string"
            },
            {
              "internalType": "string",
              "name": "position",
              "type": "string"
            },
            {
              "internalType": "string",
              "name": "nationality",
              "type": "string"
            },
            {
              "internalType": "uint256",
              "name": "contractExpiry",
              "type": "uint256"
            },
            {
              "internalType": "uint256",
              "name": "weeklySalary",
              "type": "uint256"
            },
            {
              "internalType": "address",
              "name": "playerWallet",
              "type": "address"
            },
            {
              "internalType": "bool",
              "name": "isVerified",
              "type": "bool"
            },
            {
              "internalType": "bool",
              "name": "isListed",
              "type": "bool"
            },
            {
              "internalType": "bool",
              "name": "medicalClearance",
              "type": "bool"
            },
            {
              "internalType": "bytes32",
              "name": "medicalDocumentHash",
              "type": "bytes32"
            },
            {
              "internalType": "uint256",
              "name": "askingPrice",
              "type": "uint256"
            },
            {
              "internalType": "uint256",
              "name": "releaseClause",
              "type": "uint256"
            },
            {
              "internalType": "uint256",
              "name": "registeredAt",
              "type": "uint256"
            },
            {
              "internalType": "string",
              "name": "portraitCID",
              "type": "string"
            },
            {
              "internalType": "bytes32",
              "name": "fifaId",
              "type": "bytes32"
            }
          ],
          "internalType": "struct IPlayerRegistry.Player",
          "name": "",
          "type": "tuple"
        }
      ],
      "stateMutability": "view",
      "type": "function"
    },
    {
      "inputs": [
        {
          "internalType": "bytes32",
          "name": "role",
          "type": "bytes32"
        }
      ],
      "name": "getRoleAdmin",
      "outputs": [
        {
          "internalType": "bytes32",
          "name": "",
          "type": "bytes32"
        }
      ],
      "stateMutability": "view",
      "type": "function"
    },
    {
      "inputs": [
        {
          "internalType": "bytes32",
          "name": "role",
          "type": "bytes32"
        },
        {
          "internalType": "address",
          "name": "account",
          "type": "address"
        }
      ],
      "name": "grantRole",
      "outputs": [],
      "stateMutability": "nonpayable",
      "type": "function"
    },
    {
      "inputs": [
        {
          "internalType": "address",
          "name": "account",
          "type": "address"
        }
      ],
      "name": "hasClubRole",
      "outputs": [
        {
          "internalType": "bool",
          "name": "",
          "type": "bool"
        }
      ],
      "stateMutability": "view",
      "type": "function"
    },
    {
      "inputs": [
        {
          "internalType": "bytes32",
          "name": "role",
          "type": "bytes32"
        },
        {
          "internalType": "address",
          "name": "account",
          "type": "address"
        }
      ],
      "name": "hasRole",
      "outputs": [
        {
          "internalType": "bool",
          "name": "",
          "type": "bool"
        }
      ],
      "stateMutability": "view",
      "type": "function"
    },
    {
      "inputs": [
        {
          "internalType": "address",
          "name": "owner",
          "type": "address"
        },
        {
          "internalType": "address",
          "name": "operator",
          "type": "address"
        }
      ],
      "name": "isApprovedForAll",
      "outputs": [
        {
          "internalType": "bool",
          "name": "",
          "type": "bool"
        }
      ],
      "stateMutability": "view",
      "type": "function"
    },
    {
      "inputs": [
        {
          "internalType": "uint256",
          "name": "playerId",
          "type": "uint256"
        },
        {
          "internalType": "uint256",
          "name": "askingPrice",
          "type": "uint256"
        }
      ],
      "name": "listPlayer",
      "outputs": [],
      "stateMutability": "payable",
      "type": "function"
    },
    {
      "inputs": [],
      "name": "listingFee",
      "outputs": [
        {
          "internalType": "uint256",
          "name": "",
          "type": "uint256"
        }
      ],
      "stateMutability": "view",
      "type": "function"
    },
    {
      "inputs": [],
      "name": "name",
      "outputs": [
        {
          "internalType": "string",
          "name": "",
          "type": "string"
        }
      ],
      "stateMutability": "view",
      "type": "function"
    },
    {
      "inputs": [
        {
          "internalType": "uint256",
          "name": "tokenId",
          "type": "uint256"
        }
      ],
      "name": "ownerOf",
      "outputs": [
        {
          "internalType": "address",
          "name": "",
          "type": "address"
        }
      ],
      "stateMutability": "view",
      "type": "function"
    },
    {
      "inputs": [],
      "name": "pause",
      "outputs": [],
      "stateMutability": "nonpayable",
      "type": "function"
    },
    {
      "inputs": [],
      "name": "paused",
      "outputs": [
        {
          "internalType": "bool",
          "name": "",
          "type": "bool"
        }
      ],
      "stateMutability": "view",
      "type": "function"
    },
    {
      "inputs": [
        {
          "internalType": "string",
          "name": "name",
          "type": "string"
        },
        {
          "internalType": "string",
          "name": "position",
          "type": "string"
        },
        {
          "internalType": "string",
          "name": "nationality",
          "type": "string"
        },
        {
          "internalType": "uint256",
          "name": "contractExpiry",
          "type": "uint256"
        },
        {
          "internalType": "uint256",
          "name": "weeklySalary",
          "type": "uint256"
        },
        {
          "internalType": "string",
          "name": "portraitCID",
          "type": "string"
        },
        {
          "internalType": "bytes32",
          "name": "fifaId",
          "type": "bytes32"
        }
      ],
      "name": "registerPlayer",
      "outputs": [
        {
          "internalType": "uint256",
          "name": "playerId",
          "type": "uint256"
        }
      ],
      "stateMutability": "payable",
      "type": "function"
    },
    {
      "inputs": [],
      "name": "registrationFee",
      "outputs": [
        {
          "internalType": "uint256",
          "name": "",
          "type": "uint256"
        }
      ],
      "stateMutability": "view",
      "type": "function"
    },
    {
      "inputs": [
        {
          "internalType": "bytes32",
          "name": "role",
          "type": "bytes32"
        },
        {
          "internalType": "address",
          "name": "callerConfirmation",
          "type": "address"
        }
      ],
      "name": "renounceRole",
      "outputs": [],
      "stateMutability": "nonpayable",
      "type": "function"
    },
    {
      "inputs": [
        {
          "internalType": "bytes32",
          "name": "role",
          "type": "bytes32"
        },
        {
          "internalType": "address",
          "name": "account",
          "type": "address"
        }
      ],
      "name": "revokeRole",
      "outputs": [],
      "stateMutability": "nonpayable",
      "type": "function"
    },
    {
      "inputs": [
        {
          "internalType": "address",
          "name": "from",
          "type": "address"
        },
        {
          "internalType": "address",
          "name": "to",
          "type": "address"
        },
        {
          "internalType": "uint256",
          "name": "tokenId",
          "type": "uint256"
        }
      ],
      "name": "safeTransferFrom",
      "outputs": [],
      "stateMutability": "nonpayable",
      "type": "function"
    },
    {
      "inputs": [
        {
          "internalType": "address",
          "name": "from",
          "type": "address"
        },
        {
          "internalType": "address",
          "name": "to",
          "type": "address"
        },
        {
          "internalType": "uint256",
          "name": "tokenId",
          "type": "uint256"
        },
        {
          "internalType": "bytes",
          "name": "data",
          "type": "bytes"
        }
      ],
      "name": "safeTransferFrom",
      "outputs": [],
      "stateMutability": "nonpayable",
      "type": "function"
    },
    {
      "inputs": [
        {
          "internalType": "address",
          "name": "operator",
          "type": "address"
        },
        {
          "internalType": "bool",
          "name": "approved",
          "type": "bool"
        }
      ],
      "name": "setApprovalForAll",
      "outputs": [],
      "stateMutability": "nonpayable",
      "type": "function"
    },
    {
      "inputs": [
        {
          "internalType": "address",
          "name": "club",
          "type": "address"
        },
        {
          "internalType": "string",
          "name": "name",
          "type": "string"
        }
      ],
      "name": "setClubName",
      "outputs": [],
      "stateMutability": "nonpayable",
      "type": "function"
    },
    {
      "inputs": [
        {
          "internalType": "uint256",
          "name": "newFee",
          "type": "uint256"
        }
      ],
      "name": "setListingFee",
      "outputs": [],
      "stateMutability": "nonpayable",
      "type": "function"
    },
    {
      "inputs": [
        {
          "internalType": "uint256",
          "name": "playerId",
          "type": "uint256"
        },
        {
          "internalType": "bytes32",
          "name": "documentHash",
          "type": "bytes32"
        }
      ],
      "name": "setMedicalClearance",
      "outputs": [],
      "stateMutability": "nonpayable",
      "type": "function"
    },
    {
      "inputs": [
        {
          "internalType": "uint256",
          "name": "playerId",
          "type": "uint256"
        },
        {
          "internalType": "address",
          "name": "playerWallet",
          "type": "address"
        }
      ],
      "name": "setPlayerWallet",
      "outputs": [],
      "stateMutability": "nonpayable",
      "type": "function"
    },
    {
      "inputs": [
        {
          "internalType": "uint256",
          "name": "playerId",
          "type": "uint256"
        },
        {
          "internalType": "string",
          "name": "cid",
          "type": "string"
        }
      ],
      "name": "setPortrait",
      "outputs": [],
      "stateMutability": "nonpayable",
      "type": "function"
    },
    {
      "inputs": [
        {
          "internalType": "uint256",
          "name": "newFee",
          "type": "uint256"
        }
      ],
      "name": "setRegistrationFee",
      "outputs": [],
      "stateMutability": "nonpayable",
      "type": "function"
    },
    {
      "inputs": [
        {
          "internalType": "uint256",
          "name": "playerId",
          "type": "uint256"
        },
        {
          "internalType": "uint256",
          "name": "amount",
          "type": "uint256"
        }
      ],
      "name": "setReleaseClause",
      "outputs": [],
      "stateMutability": "nonpayable",
      "type": "function"
    },
    {
      "inputs": [
        {
          "internalType": "uint256",
          "name": "playerId",
          "type": "uint256"
        },
        {
          "internalType": "bytes32",
          "name": "registrationContractHash",
          "type": "bytes32"
        },
        {
          "internalType": "bytes32",
          "name": "fifaTMSHash",
          "type": "bytes32"
        },
        {
          "internalType": "bytes32",
          "name": "workPermitHash",
          "type": "bytes32"
        }
      ],
      "name": "submitLegalDocuments",
      "outputs": [],
      "stateMutability": "nonpayable",
      "type": "function"
    },
    {
      "inputs": [
        {
          "internalType": "bytes4",
          "name": "interfaceId",
          "type": "bytes4"
        }
      ],
      "name": "supportsInterface",
      "outputs": [
        {
          "internalType": "bool",
          "name": "",
          "type": "bool"
        }
      ],
      "stateMutability": "view",
      "type": "function"
    },
    {
      "inputs": [],
      "name": "symbol",
      "outputs": [
        {
          "internalType": "string",
          "name": "",
          "type": "string"
        }
      ],
      "stateMutability": "view",
      "type": "function"
    },
    {
      "inputs": [
        {
          "internalType": "uint256",
          "name": "playerId",
          "type": "uint256"
        }
      ],
      "name": "tokenURI",
      "outputs": [
        {
          "internalType": "string",
          "name": "",
          "type": "string"
        }
      ],
      "stateMutability": "view",
      "type": "function"
    },
    {
      "inputs": [],
      "name": "totalPlayers",
      "outputs": [
        {
          "internalType": "uint256",
          "name": "",
          "type": "uint256"
        }
      ],
      "stateMutability": "view",
      "type": "function"
    },
    {
      "inputs": [
        {
          "internalType": "address",
          "name": "from",
          "type": "address"
        },
        {
          "internalType": "address",
          "name": "to",
          "type": "address"
        },
        {
          "internalType": "uint256",
          "name": "tokenId",
          "type": "uint256"
        }
      ],
      "name": "transferFrom",
      "outputs": [],
      "stateMutability": "nonpayable",
      "type": "function"
    },
    {
      "inputs": [],
      "name": "unpause",
      "outputs": [],
      "stateMutability": "nonpayable",
      "type": "function"
    },
    {
      "inputs": [
        {
          "internalType": "uint256",
          "name": "playerId",
          "type": "uint256"
        },
        {
          "internalType": "address",
          "name": "newWallet",
          "type": "address"
        }
      ],
      "name": "updatePlayerWallet",
      "outputs": [],
      "stateMutability": "nonpayable",
      "type": "function"
    },
    {
      "inputs": [
        {
          "internalType": "uint256",
          "name": "playerId",
          "type": "uint256"
        }
      ],
      "name": "verifyLegalDocuments",
      "outputs": [],
      "stateMutability": "nonpayable",
      "type": "function"
    },
    {
      "inputs": [
        {
          "internalType": "uint256",
          "name": "playerId",
          "type": "uint256"
        }
      ],
      "name": "verifyPlayer",
      "outputs": [],
      "stateMutability": "nonpayable",
      "type": "function"
    },
    {
      "inputs": [
        {
          "internalType": "address payable",
          "name": "to",
          "type": "address"
        },
        {
          "internalType": "uint256",
          "name": "amount",
          "type": "uint256"
        }
      ],
      "name": "withdrawFees",
      "outputs": [],
      "stateMutability": "nonpayable",
      "type": "function"
    }
  ],
  "bytecode": "0x6080604052346103a0576144b46040813803918261001c816103a4565b9384928339810103126103a057602081519101519061003b60406103a4565b9160128352712a3930b739b332b934bab690283630bcb2b960711b602084015261006560406103a4565b60058152642a28262ca960d91b602082015283519092906001600160401b0381116102b4575f54600181811c91168015610396575b602082101461029657601f8111610334575b50602094601f82116001146102d3579481929394955f926102c8575b50508160011b915f199060031b1c1916175f555b82516001600160401b0381116102b457600154600181811c911680156102aa575b602082101461029657601f8111610233575b506020601f82116001146101d057819293945f926101c5575b50508160011b915f199060031b1c1916176001555b60017f9b779b17422d0df92223018b32b4d1fa46e071723d6817e2486d003becc55f005569021e19e0c9bab240000081116101b65769021e19e0c9bab240000082116101b657600955600a55610192336103c9565b5061019c3361043f565b506101a6336104d2565b50604051613ece90816105668239f35b6358d620b360e01b5f5260045ffd5b015190505f80610128565b601f1982169060015f52805f20915f5b81811061021b57509583600195969710610203575b505050811b0160015561013d565b01515f1960f88460031b161c191690555f80806101f5565b9192602060018192868b0151815501940192016101e0565b60015f527fb10e2d527612073b26eecdfd717e6a320cf44b4afac2b0732d9fcbe2b7fa0cf6601f830160051c8101916020841061028c575b601f0160051c01905b818110610281575061010f565b5f8155600101610274565b909150819061026b565b634e487b7160e01b5f52602260045260245ffd5b90607f16906100fd565b634e487b7160e01b5f52604160045260245ffd5b015190505f806100c8565b601f198216955f8052805f20915f5b88811061031c57508360019596979810610304575b505050811b015f556100dc565b01515f1960f88460031b161c191690555f80806102f7565b919260206001819286850151815501940192016102e2565b5f80527f290decd9548b62a8d60345a988386fc84ba6bc95484008f6362f93160ef3e563601f830160051c8101916020841061038c575b601f0160051c01905b81811061038157506100ac565b5f8155600101610374565b909150819061036b565b90607f169061009a565b5f80fd5b6040519190601f01601f191682016001600160401b038111838210176102b457604052565b6001600160a01b0381165f9081525f5160206144945f395f51905f52602052604090205460ff1661043a576001600160a01b03165f8181525f5160206144945f395f51905f5260205260408120805460ff191660011790553391905f5160206144345f395f51905f528180a4600190565b505f90565b6001600160a01b0381165f9081525f5160206144745f395f51905f52602052604090205460ff1661043a576001600160a01b03165f8181525f5160206144745f395f51905f5260205260408120805460ff191660011790553391907fa49807205ce4d355092ef5a8a18f56e8913cf4a201fbe287825b095693c21775905f5160206144345f395f51905f529080a4600190565b6001600160a01b0381165f9081525f5160206144545f395f51905f52602052604090205460ff1661043a576001600160a01b03165f8181525f5160206144545f395f51905f5260205260408120805460ff191660011790553391907fedcc084d3dcd65a1f7f23c65c46722faca6953d28e43150a467cf43e5c309238905f5160206144345f395f51905f529080a460019056fe6080806040526004361015610012575f80fd5b5f3560e01c90816301c11d96146130495750806301ffc9a714612fc1578063045f616c14612f8957806306fdde0314612ee7578063081812fc14612eab578063095ea7b314612dc1578063131dbd0914612d5d57806314c44e0914612d4057806323b872dd14612d29578063248a9ca314612d0357806324d4275c14612c4e578063269c089f146124e5578063281b4826146123e25780632c1b945e146123365780632f2ff15d1461230557806332f65ba3146120515780633555108e1461202c57806336568abe14611fe85780633cd46ccc14611ecc5780633f4ba83a14611e6657806342842e0e14611e3d5780635298d50514611d89578063555de94514611c375780635c975abb14611c155780636352211e14611bf7578063663d112a14611b4a5780636a1b7ecc14611b2d5780636ce76f3014611b0657806370a0823114611ab557806375b238fc14611a8e5780637723d306146119be5780637b9ea296146118c45780637f107c5f146117315780637f3e18be1461171657806382040a55146115535780638456cb59146114fa578063852aa16b146114d757806391d148541461148e57806395d89b41146113b0578063a217fddf14611396578063a22cb465146112e5578063ad3b1b47146111ff578063b88d4fde146111a0578063bc063e1a1461117c578063c320c72714611109578063c87b56dd146109ed578063d3a28d6a146109a7578063d547741f1461096f578063d8541cf6146107ce578063e55ae4e814610546578063e8fa92bf14610457578063e985e9c514610400578063f60cdcf6146103e3578063f68e9553146103bc578063f8c7f5a21461036e578063f9ab6db9146102ba5763fc8045b11461028f575f80fd5b346102b6575f3660031901126102b65760206040515f516020613e795f395f51905f528152f35b5f80fd5b346102b65760203660031901126102b6576001600160a01b036102db61306c565b165f52600d60205260405f20604051806020835491828152019081935f5260205f20905f5b8181106103585750505081610316910382613170565b604051918291602083019060208452518091526040830191905f5b81811061033f575050500390f35b8251845285945060209384019390920191600101610331565b8254845260209093019260019283019201610300565b346102b65760203660031901126102b65761038761306c565b6001600160a01b03165f9081525f516020613db95f395f51905f52602090815260409182902054915160ff9092161515825290f35b346102b6575f3660031901126102b65760206040515f516020613e195f395f51905f528152f35b346102b6575f3660031901126102b6576020600854604051908152f35b346102b65760403660031901126102b65761041961306c565b610421613082565b9060018060a01b03165f52600560205260405f209060018060a01b03165f52602052602060ff60405f2054166040519015158152f35b346102b65760203660031901126102b657600435610473613936565b61047b613951565b610483613773565b805f52600b602052600a60405f20015415610537576104a1816136e3565b336001600160a01b039091160361052857805f52600b60205260405f20600681019081549060ff8260a81c1615610519575f9260089260ff60a81b1916905501557f730bb3d177f199acb749ca25b9288c64178cd10b945419c3cdf5bcff119ac0b25f80a260015f516020613e395f395f51905f5255005b630657e2c760e21b5f5260045ffd5b63f446c1b560e01b5f5260045ffd5b632a645edb60e01b5f5260045ffd5b346102b65760203660031901126102b6576004355f6101e060405161056a81613139565b82815260606020820152606060408201526060808201528260808201528260a08201528260c08201528260e08201528261010082015282610120820152826101408201528261016082015282610180820152826101a082015260606101c08201520152805f52600b602052600a60405f20015415610537575f52600b60205260405f20600c604051916105fc83613139565b8054835261060c6001820161321c565b602084015261061d6002820161321c565b604084015261062e6003820161321c565b606084015260048101546080840152600581015460a084015260ff600682015460018060a01b03811660c0860152818160a01c16151560e0860152818160a81c16151561010086015260b01c161515610120840152600781015461014084015260088101546101608401526009810154610180840152600a8101546101a08401526106bb600b820161321c565b6101c084015201546101e0820152604051809160208252805160208301526101e06107c161072c61071661070060208601516102006040890152610220880190613098565b6040860151878203601f19016060890152613098565b6060850151868203601f19016080880152613098565b608084015160a086015260a084015160c086015260018060a01b0360c08501511660e086015260e08401511515610100860152610100840151151561012086015261012084015115156101408601526101408401516101608601526101608401516101808601526101808401516101a08601526101a08401516101c08601526101c0840151601f198683030184870152613098565b9101516102008301520390f35b346102b65760803660031901126102b6576004356064356024356044356107f3613936565b6107fb613951565b610803613773565b835f52600b602052600a60405f2001541561053757610821846136e3565b336001600160a01b039091160361052857811561094a57801561094a57815f52601060205260ff60405f20541661094a57805f52601060205260ff60405f20541661094a57821515918280610959575b61094a576108c560405161088481613155565b8281526003602082018581526040830188815260608401915f83528a5f52600c60205260405f2094518555516001850155516002840155511515910161351e565b5f52601060205260405f20600160ff198254161790555f52601060205260405f20600160ff1982541617905561092e575b507f3f83989b93fff65ebbe421cc2147f8297134c7f8a440a07ff7de2f6f31ac0ca05f80a260015f516020613e395f395f51905f5255005b5f52601060205260405f20600160ff19825416179055816108f6565b63e6c4247b60e01b5f5260045ffd5b50835f52601060205260ff60405f205416610871565b346102b65760403660031901126102b6576109a560043561098e613082565b906109a061099b82613473565b613818565b613a15565b005b346102b65760203660031901126102b657600435805f52600b602052600a60405f20015415610537576109db6020916136e3565b6040516001600160a01b039091168152f35b346102b65760203660031901126102b657600435805f52600b602052600a60405f2001541561053757805f52600b60205260405f209060405191610a3083613139565b80548352610a406001820161321c565b9060208401918252610a546002820161321c565b9360408101948552610a686003830161321c565b91606082019283526004810154916080810192835260058201549060a08101918252600683015460018060a01b03811660c083015260e0820160ff8260a01c161515815261010083019260ff8360a81c161515845260ff61012082019360b01c1615158352600786015461014082015260088601546101608201526009860154610180820152600a8601546101a08201526101e0600c610b0a600b890161321c565b976101c084019889520154910152610b21896136e3565b855151909590156110d9576020610b7e60026030610b8794516040519485916f22696d616765223a22697066733a2f2f60801b828401528051918291018484015e810161088b60f21b838201520301601d19810184520182613170565b985b5199613a99565b995196519051156110cb57610b9a6136c1565b915b51156110bd57610baa6136c1565b925b51156110ac57610bc5610bbd6136c1565b945b51613a99565b9460018060a01b031696879660405197610be060608a613170565b602a895260208901996040368c378951156110985760308b5389516001101561109857607860218b015360295b6001811161103e5750611027575051610c2590613a99565b986040519b8c809c683d913730b6b2911d1160b91b60208301528051916020839201906029015e8c016029810161202360f01b905281516020819301602b83015e0160290161088b60f21b600282015281516020819301600483015e7f226465736372697074696f6e223a225472616e7366657269756d2050726f746f600492909101918201527f636f6c202d2050726f66657373696f6e616c20466f6f7462616c6c20506c6179602482015270195c88149959da5cdd1c985d1a5bdb888b607a1b60448201526d2261747472696275746573223a5b60901b60558201527f7b2274726169745f74797065223a22506f736974696f6e222c2276616c7565226063820152611d1160f11b608382015281519160028201918391602001906085015e0160020162089f4b60ea1b6081820152608481017f7b2274726169745f74797065223a224e6174696f6e616c697479222c2276616c9052643ab2911d1160d91b60a48201528151602081930160a983015e0160810162089f4b60ea1b6028820152602b81017f7b2274726169745f74797065223a225665726966696564222c2276616c7565229052611d1160f11b604b82015281516020819301604d83015e0160280162089f4b60ea1b6025820152602881017f7b2274726169745f74797065223a224d65646963616c20436c656172616e636590526a1116113b30b63ab2911d1160a91b604882015281516020819301605383015e0160250162089f4b60ea1b602e820152603181017f7b2274726169745f74797065223a224c6973746564222c2276616c7565223a22905281516020819301605183015e01602e0162089f4b60ea1b6023820152602681017f7b2274726169745f74797065223a225765656b6c792053616c6172792028455590526c2921949116113b30b63ab2911d60991b604682015281516020819301605383015e016023019060308201611f4b60f21b9052603282017f7b2274726169745f74797065223a2243757272656e7420436c7562222c227661905265363ab2911d1160d11b6052830152518092605883015e0160300162089f4b60ea1b6028820152602b81017f7b2274726169745f74797065223a22436f6e747261637420457870697279222c905267113b30b63ab2911d60c11b604b82015281516020819301605383015e01602801602b8101607d60f81b9052602c8101615d7d60f01b905203602b01601c1981018252600301610fae9082613170565b610fb790613c23565b6040518091602082017f646174613a6170706c69636174696f6e2f6a736f6e3b6261736536342c000000905280516020819201603d84015e8101603d81015f905203603d01601f198101825261100d9082613170565b6040518091602082526020820161102391613098565b0390f35b63e22e27eb60e01b5f52600452601460245260445ffd5b90600f81166010811015611098578b51831015611098576f181899199a1a9b1b9c1cb0b131b232b360811b901a8b83016020015360041c908015611084575f1901610c0d565b634e487b7160e01b5f52601160045260245ffd5b634e487b7160e01b5f52603260045260245ffd5b610bc56110b761369e565b94610bbf565b6110c561369e565b92610bac565b6110d361369e565b91610b9c565b50610b876040516110eb604082613170565b600b81526a089a5b5859d9488e88888b60aa1b602082015298610b80565b346102b65760203660031901126102b657600435611125613717565b69021e19e0c9bab2400000811161116d577f50b218c5a101ad05d53ab0a964d01da639ee79525ae4b7802ed714249740a8d560406009548151908152836020820152a1600955005b6358d620b360e01b5f5260045ffd5b346102b6575f3660031901126102b657602060405169021e19e0c9bab24000008152f35b346102b65760803660031901126102b6576111b961306c565b6111c1613082565b606435916001600160401b0383116102b657366023840112156102b6576111f56109a59336906024816004013591016131ae565b9160443591613585565b346102b65760403660031901126102b6576004356001600160a01b038116908190036102b657602435611230613951565b611238613717565b811561094a57801580156112d3575b6112c4574781116112b5575f80808084865af1611262613556565b50156112a65760207fc0819c13be868895eb93e40eaceb96de976442fa1d404e5c55f14bb65a8c489a91604051908152a260015f516020613e395f395f51905f5255005b631d42c86760e21b5f5260045ffd5b631e9acf1760e31b5f5260045ffd5b6366a7cc9160e11b5f5260045ffd5b50683635c9adc5dea000008111611247565b346102b65760403660031901126102b6576112fe61306c565b60243590811515908183036102b6573315611383576001600160a01b03169182156113705761134290335f52600560205260405f20845f5260205260405f2061351e565b6040519081527f17307eab39ab6107e8899845ad3d59bd9653f200f220920489ca2b5937696c3160203392a3005b82630b61174360e31b5f5260045260245ffd5b63a9fbf51f60e01b5f525f60045260245ffd5b346102b6575f3660031901126102b65760206040515f8152f35b346102b6575f3660031901126102b6576040515f6001546113d0816131e4565b808452906001811690811561146a575060011461140c575b611023836113f881850382613170565b604051918291602083526020830190613098565b60015f9081527fb10e2d527612073b26eecdfd717e6a320cf44b4afac2b0732d9fcbe2b7fa0cf6939250905b808210611450575090915081016020016113f86113e8565b919260018160209254838588010152019101909291611438565b60ff191660208086019190915291151560051b840190910191506113f890506113e8565b346102b65760403660031901126102b6576114a7613082565b6004355f52600660205260405f209060018060a01b03165f52602052602060ff60405f2054166040519015158152f35b346102b6575f3660031901126102b6576020604051683635c9adc5dea000008152f35b346102b6575f3660031901126102b657611512613717565b61151a613936565b600160ff1960075416176007557f62e78cea01bee320cd4e420270b5ea74000d11b0c9f74754ebdbfc544b05a2586020604051338152a1005b346102b65760403660031901126102b6576004356024356001600160401b0381116102b65761158690369060040161310c565b611591929192613936565b611599613951565b815f52600b602052600a60405f20015415610537576115b7826136e3565b5f838152600b6020526040902060060154336001600160a01b03928316141591168161170b575b506116fc575f828152600b6020819052604090912001926001600160401b0382116116e8576116178261161186546131e4565b86613485565b5f93601f83116001146116795761164683805f516020613d795f395f51905f5296975f9161166e575b506134d4565b90555b6116586040519283928361352f565b0390a260015f516020613e395f395f51905f5255005b905084013588611640565b601f19831694815f5260205f20905f5b8781106116d05750845f516020613d795f395f51905f529697106116b7575b5050600183811b019055611649565b8301355f19600386901b60f8161c1916905585806116a8565b90916020600181928588013581550193019101611689565b634e487b7160e01b5f52604160045260245ffd5b631648fd0160e01b5f5260045ffd5b9050331415846115de565b346102b6575f3660031901126102b657602060405160408152f35b61173a366130f6565b611742613936565b61174a613951565b611752613773565b815f52600b602052600a60405f2001541561053757611770826136e3565b336001600160a01b039091160361052857815f52600b60205260405f20600681019182549260ff8460a01c16156118b55760ff8460b01c16156118a657845f52600c60205260ff600360405f20015416156118975760ff8460a81c166118895781158015611875575b61186757600a5434036118585760048301544210156118495760ff60a81b19909316600160a81b179092556008018190556040519081527f561c3416be862008e42c047485cffa3005672af024d117176d50f73461a88e4c90602090a260015f516020613e395f395f51905f5255005b630790d4e360e01b5f5260045ffd5b63cd1c886760e01b5f5260045ffd5b62bfc92160e01b5f5260045ffd5b50676765c793fa10079d601a1b82116117d9565b62270be160e41b5f5260045ffd5b633bd639ff60e11b5f5260045ffd5b633b1a02ef60e01b5f5260045ffd5b6360e6b51b60e11b5f5260045ffd5b346102b65760403660031901126102b6576004356118e0613082565b6118e8613936565b6118f0613951565b6118f86137bc565b815f52600b602052600a60405f20015415610537576001600160a01b031690811561094a575f818152600b60205260409020600601546001600160a01b031661094a57815f52601160205260ff60405f20541661094a575f818152600b6020908152604080832060060180546001600160a01b0319168617905584835260119091528120805460ff191660011790557f1b808932b8c3b514083772af7b7d61295f17204a7d2ba98b5f46c08e766c25a79080a360015f516020613e395f395f51905f5255005b346102b6576119cc366130f6565b6119d4613936565b6119dc613951565b6119e4613773565b815f52600b602052600a60405f2001541561053757611a02826136e3565b336001600160a01b03909116036105285742811115611a8057815f52600b602052600460405f200154811115611a805760207f2bfea865c31234064fed3b7148737e69eee440ca711e22dcf3d1b22ba2f66a5f91835f52600b825280600460405f200155604051908152a260015f516020613e395f395f51905f5255005b62d36c8560e81b5f5260045ffd5b346102b6575f3660031901126102b65760206040515f516020613e595f395f51905f528152f35b346102b65760203660031901126102b6576001600160a01b03611ad661306c565b168015611af3575f526003602052602060405f2054604051908152f35b6322718ad960e21b5f525f60045260245ffd5b346102b6575f3660031901126102b65760206040515f516020613d995f395f51905f528152f35b346102b6575f3660031901126102b6576020600a54604051908152f35b346102b65760203660031901126102b6576004355f6060604051611b6d81613155565b8281528260208201528260408201520152805f52600b602052600a60405f20015415610537575f52600c602052608060405f20604051611bac81613155565b815491828252600181015460208301908152606060ff600360028501549460408701958652015416930192151583526040519384525160208401525160408301525115156060820152f35b346102b65760203660031901126102b65760206109db6004356136e3565b346102b6575f3660031901126102b657602060ff600754166040519015158152f35b346102b65760403660031901126102b657611c5061306c565b6024356001600160401b0381116102b657611c6f90369060040161310c565b9091611c796137bc565b81158015611d7f575b611d70576001600160a01b03165f818152601360205260409020929091906001600160401b0382116116e857611cbc8261161186546131e4565b5f93601f8311600114611d0157611cea83805f516020613d595f395f51905f5296975f9161166e57506134d4565b90555b611cfc6040519283928361352f565b0390a2005b601f19831694815f5260205f20905f5b878110611d585750845f516020613d595f395f51905f52969710611d3f575b5050600183811b019055611ced565b8301355f19600386901b60f8161c191690558580611d30565b90916020600181928588013581550193019101611d11565b6333afdcc360e01b5f5260045ffd5b5060408211611c82565b346102b65760203660031901126102b657600435611da5613936565b611dad613951565b611db56137bc565b805f52600b602052600a60405f2001541561053757805f52600c60205260405f20600381019081549060ff8216611e2e57541561094a5760ff1916600117905533907fed2c2ce3d8062cf2c584e4704b6b6c06054e976cdc006ae754859d9de41eb0a05f80a360015f516020613e395f395f51905f5255005b63a7d1daa960e01b5f5260045ffd5b346102b6576109a5611e4e366130bc565b9060405192611e5e602085613170565b5f8452613585565b346102b6575f3660031901126102b657611e7e613717565b60075460ff811615611ebd5760ff19166007557f5db9ee0a495bf2e6ff9c91a7834c1ba4fdd244a5e8aa4e537bd38aeae4b073aa6020604051338152a1005b638dfc202b60e01b5f5260045ffd5b346102b65760403660031901126102b657600435611ee8613082565b611ef0613936565b611ef8613951565b815f52600b602052600a60405f2001541561053757815f52600b602052600660405f20019160018060a01b03835416918215611fd957338303611fca576001600160a01b031692831561094a57835f52601160205260ff60405f20541661094a575f83815260116020526040808220805460ff199081169091558683529082208054909116600117905581546001600160a01b03191685179091557f5541278974bb9a469553ebe5150f576b17c54a4db3b6ed4e523171ed51983a769080a460015f516020613e395f395f51905f5255005b631d3c442d60e21b5f5260045ffd5b6382bcaa3b60e01b5f5260045ffd5b346102b65760403660031901126102b657612001613082565b336001600160a01b0382160361201d576109a590600435613a15565b63334bd91960e11b5f5260045ffd5b346102b6575f3660031901126102b65760206040516a084595161401484a0000008152f35b346102b65760603660031901126102b65760043561206d613082565b6044356001600160a01b038116918282036102b65761208a613936565b612092613951565b335f9081525f516020613dd95f395f51905f52602052604090205460ff16156122e157835f52600b602052600a60405f2001541561053757821561094a576001600160a01b03169082821461094a57816001600160a01b036120f3866136e3565b1603610528575f848152600e6020908152604080832054858452600d90925290912080545f1981019081116110845761212b916134e6565b90549060031b1c835f52600d6020526121638161214b8460405f206134e6565b90919082549060031b91821b915f19901b1916179055565b5f52600e60205260405f2055815f52600d60205260405f20805480156122cd575f19019061219182826134e6565b8154905f199060031b1b1916905555825f52600d60205260405f2054845f52600e60205260405f2055825f52600d6020526121cf8460405f206134fb565b835f52600b6020525f60076040822060068101805484600884015561ffff60a81b19169055015561224660405161220581613155565b5f81526003602082015f8152604083015f815260608401915f8352895f52600c60205260405f2094518555516001850155516002840155511515910161351e565b6001600160a01b039061225a908590613852565b16806122735783637e27328960e01b5f5260045260245ffd5b80828592036122b457507f5f5adfdfb7a234b61892f9d91126bd94774a85f3ca01c5394913dd02473871395f80a460015f516020613e395f395f51905f5255005b916364283d7b60e01b5f5260045260245260445260645ffd5b634e487b7160e01b5f52603160045260245ffd5b63e2517d3f60e01b5f52336004525f516020613d995f395f51905f5260245260445ffd5b346102b65760403660031901126102b6576109a5600435612324613082565b9061233161099b82613473565b613989565b346102b65760203660031901126102b657600435612352613936565b61235a6137bc565b805f52600b602052600a60405f2001541561053757805f52600b60205260ff600660405f20015460a01c166123d3575f818152600b60205260408120600601805460ff60a01b1916600160a01b1790553391907f37874770a804a7f707dcd526cb63a107863b9244f5487cc592b592806c8aa7679080a3005b633736b4d760e01b5f5260045ffd5b346102b65760403660031901126102b657600435602435612401613936565b612409613951565b6124116137bc565b815f52600b602052600a60405f2001541561053757801561094a57805f52601060205260ff60405f20541661094a57815f52600b60205260ff600660405f20015460b01c166124d6575f828152600b6020908152604080832060068101805460ff60b01b1916600160b01b1790556007018490558383526010825291829020805460ff1916600117905590519182527f7a73b9a34d33c6be051c258466ebb49b8110d2dac4a55bbfc739f9463d87e74e91a260015f516020613e395f395f51905f5255005b636711343160e01b5f5260045ffd5b60e03660031901126102b6576004356001600160401b0381116102b65761251090369060040161310c565b6024356001600160401b0381116102b65761252f90369060040161310c565b9091906044356001600160401b0381116102b65761255190369060040161310c565b909160643560843560a4356001600160401b0381116102b65761257890369060040161310c565b919092612583613936565b61258b613951565b612593613773565b87158015612c44575b612c215784158015612c3a575b612c215785158015612c30575b612c215760095434036118585742811115611849576a084595161401484a0000008211612c125760c4351515968780612bfa575b612beb578a8961261d6014602060405184819583830197883781013360601b838201520301600b19810184520182613170565b51902096875f52600f60205260ff60405f205416612bdc576008549a5f198c146110845760018c016008556040519761265589613139565b60018d0189528d8c3690612668926131ae565b60208a01523690612678926131ae565b60408801523690612688926131ae565b6060860152608085015260a084015260c083015f905260e083015f905261010083015f905261012083015f905261014083015f905261016083015f905261018083015f9052426101a084015236906126df926131ae565b6101c082015260c4356101e0820152600185015f52600b60205260405f2090805182556020810151805190600160401b6001900382116116e8576127338261272a60018701546131e4565b60018701613485565b602090601f8311600114612b6f5761275592915f9183612af7575b50506134d4565b60018301555b60408101518051906001600160401b0382116116e85761278b8261278260028701546131e4565b60028701613485565b602090601f8311600114612b02576127ac92915f9183612af75750506134d4565b60028301555b6060810151805160038401916001600160401b0382116116e8576127e0826127da85546131e4565b85613485565b602090601f8311600114612a945761280192915f9183612a895750506134d4565b90555b6080810151600483015560a080820151600584015560c082015160068401805460e08501516101008601516101208701516001600160b81b03199093166001600160a01b03959095169490941790151590941b60ff60a01b169390931791151560a81b60ff60a81b169190911791151560b01b60ff60b01b169190911790556101408101516007830155610160810151600883015561018081015160098301556101a0810151600a8301556101c08101518051600b8401916001600160401b0382116116e8576128d8826127da85546131e4565b602090601f8311600114612a1f5782600c95936101e09593612901935f92612a145750506134d4565b90555b0151910155335f52600d60205260405f2054600185015f52600e60205260405f2055335f52600d60205261293e6001850160405f206134fb565b5f52600f60205260405f20600160ff198254161790556129f6575b33156129e3576001600160a01b036129746001840133613852565b166129d0576020927f2f55cde73f168db90a448e73b4193010d39de2093e075ed53a83bcab9dd0862a604051806129b1339560018801958361352f565b0390a360015f516020613e395f395f51905f5255600160405191018152f35b6339e3563760e11b5f525f60045260245ffd5b633250574960e11b5f525f60045260245ffd5b60c4355f52601260205260405f20600160ff19825416179055612959565b015190508d8061274e565b90601f19831691845f52815f20925f5b818110612a715750926001928592600c98966101e0989610612a59575b505050811b019055612904565b01515f1960f88460031b161c191690558c8080612a4c565b92936020600181928786015181550195019301612a2f565b015190508b8061274e565b90601f19831691845f52815f20925f5b818110612adf5750908460019594939210612ac7575b505050811b019055612804565b01515f1960f88460031b161c191690558a8080612aba565b92936020600181928786015181550195019301612aa4565b015190508a8061274e565b9190600285015f52805f20905f935b601f1984168510612b54576001945083601f19811610612b3c575b505050811b0160028301556127b2565b01515f1960f88460031b161c19169055898080612b2c565b81810151835560209485019460019093019290910190612b11565b9190600185015f52805f20905f935b601f1984168510612bc1576001945083601f19811610612ba9575b505050811b01600183015561275b565b01515f1960f88460031b161c19169055898080612b99565b81810151835560209485019460019093019290910190612b7e565b637722b8a160e11b5f5260045ffd5b632365304160e21b5f5260045ffd5b5060c4355f52601260205260ff60405f2054166125ea565b630863d2fb60e21b5f5260045ffd5b630ec0325960e21b5f5260045ffd5b50604086116125b6565b50604085116125a9565b506040881161259c565b346102b657612c5c366130f6565b612c64613936565b612c6c613951565b612c74613773565b815f52600b602052600a60405f2001541561053757612c92826136e3565b336001600160a01b039091160361052857676765c793fa10079d601a1b81116118675760207f690f108db8205a0a5e3454acd556a06c61db73f3dd2efa674349f5347213be0791835f52600b825280600960405f200155604051908152a260015f516020613e395f395f51905f5255005b346102b65760203660031901126102b6576020612d21600435613473565b604051908152f35b346102b6576109a5612d3a366130bc565b916132bc565b346102b6575f3660031901126102b6576020600954604051908152f35b346102b65760203660031901126102b657600435612d79613717565b69021e19e0c9bab2400000811161116d577f83bee1c75d00c29e66092d821c1c82aa4792fe1f058e8dff38d5d394d37916dd6040600a548151908152836020820152a1600a55005b346102b65760403660031901126102b657612dda61306c565b602435612de6816136e3565b33151580612e98575b80612e6b575b612e585781906001600160a01b0384811691167f8c5be1e5ebec7d5bd14f71427d1e84f3dd0314c0f7b2291e5b200ac8c7c3b9255f80a45f90815260046020526040902080546001600160a01b0319166001600160a01b03909216919091179055005b63a9fbf51f60e01b5f523360045260245ffd5b506001600160a01b0381165f90815260056020908152604080832033845290915290205460ff1615612df5565b506001600160a01b038116331415612def565b346102b65760203660031901126102b657600435612ec8816136e3565b505f526004602052602060018060a01b0360405f205416604051908152f35b346102b6575f3660031901126102b6576040515f5f54612f06816131e4565b808452906001811690811561146a5750600114612f2d57611023836113f881850382613170565b5f8080527f290decd9548b62a8d60345a988386fc84ba6bc95484008f6362f93160ef3e563939250905b808210612f6f575090915081016020016113f86113e8565b919260018160209254838588010152019101909291612f57565b346102b65760203660031901126102b6576001600160a01b03612faa61306c565b165f5260136020526110236113f860405f2061321c565b346102b65760203660031901126102b65760043563ffffffff60e01b81168091036102b657602090637965db0b60e01b8114908115613006575b506040519015158152f35b6380ac58cd60e01b811491508115613038575b8115613027575b5082612ffb565b6301ffc9a760e01b14905082613020565b635b5e139f60e01b81149150613019565b346102b6575f3660031901126102b657676765c793fa10079d601a1b8152602090f35b600435906001600160a01b03821682036102b657565b602435906001600160a01b03821682036102b657565b805180835260209291819084018484015e5f828201840152601f01601f1916010190565b60609060031901126102b6576004356001600160a01b03811681036102b657906024356001600160a01b03811681036102b6579060443590565b60409060031901126102b6576004359060243590565b9181601f840112156102b6578235916001600160401b0383116102b657602083818601950101116102b657565b61020081019081106001600160401b038211176116e857604052565b608081019081106001600160401b038211176116e857604052565b601f909101601f19168101906001600160401b038211908210176116e857604052565b6001600160401b0381116116e857601f01601f191660200190565b9291926131ba82613193565b916131c86040519384613170565b8294818452818301116102b6578281602093845f960137010152565b90600182811c92168015613212575b60208310146131fe57565b634e487b7160e01b5f52602260045260245ffd5b91607f16916131f3565b9060405191825f82549261322f846131e4565b808452936001811690811561329a5750600114613256575b5061325492500383613170565b565b90505f9291925260205f20905f915b81831061327e575050906020613254928201015f613247565b6020919350806001915483858901015201910190918492613265565b90506020925061325494915060ff191682840152151560051b8201015f613247565b6001600160a01b03909116919082156129e3575f828152600260205260409020546001600160a01b031615158061344e575b61343f575f828152600260205260409020546001600160a01b0316928290331515806133aa575b5084613389575b805f52600360205260405f2060018154019055815f52600260205260405f208160018060a01b0319825416179055845f516020613df95f395f51905f525f80a46001600160a01b031680830361337157505050565b6364283d7b60e01b5f5260045260245260445260645ffd5b61339282613c06565b845f52600360205260405f205f19815401905561331c565b909150806133ee575b156133c05782905f613315565b82846133d857637e27328960e01b5f5260045260245ffd5b63177e802f60e01b5f523360045260245260445ffd5b50338414801561341d575b806133b357505f838152600460205260409020546001600160a01b031633146133b3565b505f84815260056020908152604080832033845290915290205460ff166133f9565b6309a4abd160e41b5f5260045ffd5b50335f9081525f516020613dd95f395f51905f52602052604090205460ff16156132ee565b5f526006602052600160405f20015490565b601f821161349257505050565b5f5260205f20906020601f840160051c830193106134ca575b601f0160051c01905b8181106134bf575050565b5f81556001016134b4565b90915081906134ab565b8160011b915f199060031b1c19161790565b8054821015611098575f5260205f2001905f90565b80549190600160401b8310156116e8578261214b916001613254950181556134e6565b9060ff801983541691151516179055565b90918060409360208452816020850152848401375f828201840152601f01601f1916010190565b3d15613580573d9061356782613193565b916135756040519384613170565b82523d5f602084013e565b606090565b92916135928183866132bc565b813b61359f575b50505050565b604051630a85bd0160e11b81523360048201526001600160a01b03948516602482015260448101919091526080606482015292169190602090829081906135ea906084830190613098565b03815f865af15f9181613659575b506136265750613606613556565b805190816136215782633250574960e11b5f5260045260245ffd5b602001fd5b6001600160e01b03191663757a42ff60e11b0161364757505f808080613599565b633250574960e11b5f5260045260245ffd5b9091506020813d602011613696575b8161367560209383613170565b810103126102b657516001600160e01b0319811681036102b657905f6135f8565b3d9150613668565b604051906136ad604083613170565b600582526466616c736560d81b6020830152565b604051906136d0604083613170565b60048252637472756560e01b6020830152565b5f818152600260205260409020546001600160a01b0316908115613705575090565b637e27328960e01b5f5260045260245ffd5b335f9081527f0c3bb05773fb95f6688e1e7d9c896674dccd66884026cf30a3d5e3a9bfecd811602052604090205460ff161561374f57565b63e2517d3f60e01b5f52336004525f516020613e595f395f51905f5260245260445ffd5b335f9081525f516020613db95f395f51905f52602052604090205460ff161561379857565b63e2517d3f60e01b5f52336004525f516020613e795f395f51905f5260245260445ffd5b335f9081527f827ad982763bf2f282f43324cd3a5f6cdfdb70b1feb6870da9693db6590b7f6b602052604090205460ff16156137f457565b63e2517d3f60e01b5f52336004525f516020613e195f395f51905f5260245260445ffd5b5f81815260066020908152604080832033845290915290205460ff161561383c5750565b63e2517d3f60e01b5f523360045260245260445ffd5b5f828152600260205260409020549091906001600160a01b0316151580613911575b61343f575f818152600260205260409020546001600160a01b031691826138f0575b6001600160a01b0316806138d8575b5f82815260026020526040812080546001600160a01b0319168317905583905f516020613df95f395f51905f529080a490565b805f52600360205260405f20600181540190556138a5565b6138f982613c06565b825f52600360205260405f205f198154019055613896565b50335f9081525f516020613dd95f395f51905f52602052604090205460ff1615613874565b60ff6007541661394257565b63d93c066560e01b5f5260045ffd5b60025f516020613e395f395f51905f52541461397a5760025f516020613e395f395f51905f5255565b633ee5aeb560e01b5f5260045ffd5b5f8181526006602090815260408083206001600160a01b038616845290915290205460ff16613a0f575f8181526006602090815260408083206001600160a01b0395909516808452949091528120805460ff19166001179055339291907f2f8788117e7eff1d82e926ec794901d17c78024a50270940304540a733656f0d9080a4600190565b50505f90565b5f8181526006602090815260408083206001600160a01b038616845290915290205460ff1615613a0f575f8181526006602090815260408083206001600160a01b0395909516808452949091528120805460ff19169055339291907ff6391f5c32d9c69d2a47ea670b442974b53935d1edc7fd64eb21e047a839171b9080a4600190565b5f908072184f03e93ff9f4daa797ed6e38ed64bf6a1f0160401b811015613be3575b600a906904ee2d6d415b85acef8160201b811015613bc7575b662386f26fc10000811015613bb3575b6305f5e100811015613ba2575b612710811015613b93575b6064811015613b85575b1015613b7a575b600a60216001840193613b1f85613193565b94613b2d6040519687613170565b808652613b3c601f1991613193565b013660208701378401015b5f1901916f181899199a1a9b1b9c1cb0b131b232b360811b8282061a8353048015613b7557600a9091613b47565b505090565b600190910190613b0d565b606460029104930192613b06565b61271060049104930192613afc565b6305f5e10060089104930192613af1565b662386f26fc1000060109104930192613ae4565b602093909301926904ee2d6d415b85acef8160201b9004613ad4565b506040915072184f03e93ff9f4daa797ed6e38ed64bf6a1f0160401b8104613abb565b5f90815260046020526040902080546001600160a01b0319169055565b90815115613d42578151600281018091116110845760039004600281901b91906001600160fe1b0381160361108457604051917f4142434445464748494a4b4c4d4e4f505152535455565758595a616263646566601f527f6768696a6b6c6d6e6f707172737475767778797a303132333435363738392b2f603f52602083018480518101602081018051915f82525b808910613d065750602095969750906003929152510680600114613cf157600214613ce4575b50808452830101604052565b603d905f1901535f613cd8565b50603d90815f1982015360011901535f613cd8565b939760036004910198603f8a51818160121c165183538181600c1c16516001840153818160061c16516002840153165160038201530193613cb2565b9050604051613d52602082613170565b5f81529056fe00c45cb91aaf4430bd80ccc92dd6e4d588140c9f1380582349f77eef8a7b67ea6cbe040987295f70b3d807437ff24198c9fbd81f7eb082e96fefe98a3b165f2e2fdac322ee704ce09f0773f7f3f92eb98d5e7c836ee9c056cccd5f61041e5e3f548a2ed773d569e71f08f1415bd5a008688f60fe5663fc3610512fea9a6588b957823ddf81d7b5c9992f89688a4737fa0b677ade9b8f8ef6ec08559650617387ddf252ad1be2c89b69c2b068fc378daa952ba7f163c4a11628f55a4df523b3efedcc084d3dcd65a1f7f23c65c46722faca6953d28e43150a467cf43e5c3092389b779b17422d0df92223018b32b4d1fa46e071723d6817e2486d003becc55f00a49807205ce4d355092ef5a8a18f56e8913cf4a201fbe287825b095693c21775ba2dc669204b26427a432593e1c6ac86ab4ccc54d29c4287abbd1cefc1cb002ba264697066735822122002bae48181c4039c75d5680199a9d4813f250cd2f58de113453d6d3ad764e0ec64736f6c634300081c00332f8788117e7eff1d82e926ec794901d17c78024a50270940304540a733656f0d827ad982763bf2f282f43324cd3a5f6cdfdb70b1feb6870da9693db6590b7f6b0c3bb05773fb95f6688e1e7d9c896674dccd66884026cf30a3d5e3a9bfecd81154cdd369e4e8a8515e52ca72ec816c2101831ad1f18bf44102ed171459c9b4f8",
  "linkReferences": {},
  "deployedLinkReferences": {},
  "immutableReferences": {},
  "inputSourceName": "project/contracts/core/PlayerRegistry.sol",
  "buildInfoId": "solc-0_8_28-3223102e090dc80afe5bc590f4122e907b7dc45f"
}