{
  "_format": "hh3-artifact-1",
  "contractName": "PlayerRegistry",
  "sourceName": "contracts/core/PlayerRegistry.sol",
  "abi": [
    {
      "inputs": [],
      "stateMutability": "nonpayable",
      "type": "constructor"
    },
    {
      "inputs": [],
      "name": "AccessControlBadConfirmation",
      "type": "error"
    },
    {
      "inputs": [
        {
          "internalType": "address",
          "name": "account",
          "type": "address"
        },
        {
          "internalType": "bytes32",
          "name": "neededRole",
          "type": "bytes32"
        }
      ],
      "name": "AccessControlUnauthorizedAccount",
      "type": "error"
    },
    {
      "inputs": [
        {
          "internalType": "address",
          "name": "target",
          "type": "address"
        }
      ],
      "name": "AddressEmptyCode",
      "type": "error"
    },
    {
      "inputs": [
        {
          "internalType": "uint256",
          "name": "playerId",
          "type": "uint256"
        },
        {
          "internalType": "address",
          "name": "caller",
          "type": "address"
        }
      ],
      "name": "CallerIsNotPlayerClub",
      "type": "error"
    },
    {
      "inputs": [
        {
          "internalType": "uint256",
          "name": "playerId",
          "type": "uint256"
        },
        {
          "internalType": "address",
          "name": "caller",
          "type": "address"
        }
      ],
      "name": "CallerIsNotPlayerWallet",
      "type": "error"
    },
    {
      "inputs": [
        {
          "internalType": "address",
          "name": "club",
          "type": "address"
        }
      ],
      "name": "ClubAlreadyRegistered",
      "type": "error"
    },
    {
      "inputs": [
        {
          "internalType": "address",
          "name": "club",
          "type": "address"
        },
        {
          "internalType": "uint256",
          "name": "count",
          "type": "uint256"
        }
      ],
      "name": "ClubHasActivePlayers",
      "type": "error"
    },
    {
      "inputs": [
        {
          "internalType": "address",
          "name": "club",
          "type": "address"
        }
      ],
      "name": "ClubNotRegistered",
      "type": "error"
    },
    {
      "inputs": [],
      "name": "DirectTransferNotAllowed",
      "type": "error"
    },
    {
      "inputs": [
        {
          "internalType": "address",
          "name": "implementation",
          "type": "address"
        }
      ],
      "name": "ERC1967InvalidImplementation",
      "type": "error"
    },
    {
      "inputs": [],
      "name": "ERC1967NonPayable",
      "type": "error"
    },
    {
      "inputs": [
        {
          "internalType": "address",
          "name": "sender",
          "type": "address"
        },
        {
          "internalType": "uint256",
          "name": "tokenId",
          "type": "uint256"
        },
        {
          "internalType": "address",
          "name": "owner",
          "type": "address"
        }
      ],
      "name": "ERC721IncorrectOwner",
      "type": "error"
    },
    {
      "inputs": [
        {
          "internalType": "address",
          "name": "operator",
          "type": "address"
        },
        {
          "internalType": "uint256",
          "name": "tokenId",
          "type": "uint256"
        }
      ],
      "name": "ERC721InsufficientApproval",
      "type": "error"
    },
    {
      "inputs": [
        {
          "internalType": "address",
          "name": "approver",
          "type": "address"
        }
      ],
      "name": "ERC721InvalidApprover",
      "type": "error"
    },
    {
      "inputs": [
        {
          "internalType": "address",
          "name": "operator",
          "type": "address"
        }
      ],
      "name": "ERC721InvalidOperator",
      "type": "error"
    },
    {
      "inputs": [
        {
          "internalType": "address",
          "name": "owner",
          "type": "address"
        }
      ],
      "name": "ERC721InvalidOwner",
      "type": "error"
    },
    {
      "inputs": [
        {
          "internalType": "address",
          "name": "receiver",
          "type": "address"
        }
      ],
      "name": "ERC721InvalidReceiver",
      "type": "error"
    },
    {
      "inputs": [
        {
          "internalType": "address",
          "name": "sender",
          "type": "address"
        }
      ],
      "name": "ERC721InvalidSender",
      "type": "error"
    },
    {
      "inputs": [
        {
          "internalType": "uint256",
          "name": "tokenId",
          "type": "uint256"
        }
      ],
      "name": "ERC721NonexistentToken",
      "type": "error"
    },
    {
      "inputs": [],
      "name": "EmptyString",
      "type": "error"
    },
    {
      "inputs": [],
      "name": "EnforcedPause",
      "type": "error"
    },
    {
      "inputs": [],
      "name": "ExpectedPause",
      "type": "error"
    },
    {
      "inputs": [],
      "name": "FailedCall",
      "type": "error"
    },
    {
      "inputs": [
        {
          "internalType": "uint256",
          "name": "provided",
          "type": "uint256"
        },
        {
          "internalType": "uint256",
          "name": "max",
          "type": "uint256"
        }
      ],
      "name": "FeeBpsTooHigh",
      "type": "error"
    },
    {
      "inputs": [
        {
          "internalType": "uint256",
          "name": "effectiveAt",
          "type": "uint256"
        },
        {
          "internalType": "uint256",
          "name": "now_",
          "type": "uint256"
        }
      ],
      "name": "FeeScheduleNotReady",
      "type": "error"
    },
    {
      "inputs": [
        {
          "internalType": "uint256",
          "name": "provided",
          "type": "uint256"
        },
        {
          "internalType": "uint256",
          "name": "max",
          "type": "uint256"
        }
      ],
      "name": "FeeTooHigh",
      "type": "error"
    },
    {
      "inputs": [
        {
          "internalType": "bytes32",
          "name": "fifaId",
          "type": "bytes32"
        }
      ],
      "name": "FifaIdAlreadyRegistered",
      "type": "error"
    },
    {
      "inputs": [],
      "name": "FifaIdRequired",
      "type": "error"
    },
    {
      "inputs": [
        {
          "internalType": "bytes32",
          "name": "hash",
          "type": "bytes32"
        }
      ],
      "name": "HashAlreadyUsed",
      "type": "error"
    },
    {
      "inputs": [],
      "name": "HashesNotDistinct",
      "type": "error"
    },
    {
      "inputs": [
        {
          "internalType": "uint256",
          "name": "requested",
          "type": "uint256"
        },
        {
          "internalType": "uint256",
          "name": "available",
          "type": "uint256"
        }
      ],
      "name": "InsufficientProtocolBalance",
      "type": "error"
    },
    {
      "inputs": [],
      "name": "InvalidHashZero",
      "type": "error"
    },
    {
      "inputs": [],
      "name": "InvalidInitialization",
      "type": "error"
    },
    {
      "inputs": [
        {
          "internalType": "uint256",
          "name": "length",
          "type": "uint256"
        },
        {
          "internalType": "uint256",
          "name": "max",
          "type": "uint256"
        }
      ],
      "name": "NameTooLong",
      "type": "error"
    },
    {
      "inputs": [],
      "name": "NoPendingFeeSchedule",
      "type": "error"
    },
    {
      "inputs": [],
      "name": "NoPendingTreasuryUpdate",
      "type": "error"
    },
    {
      "inputs": [
        {
          "internalType": "uint256",
          "name": "playerId",
          "type": "uint256"
        }
      ],
      "name": "NoWalletUpdatePending",
      "type": "error"
    },
    {
      "inputs": [],
      "name": "NotInitializing",
      "type": "error"
    },
    {
      "inputs": [],
      "name": "NothingToWithdraw",
      "type": "error"
    },
    {
      "inputs": [
        {
          "internalType": "uint256",
          "name": "playerId",
          "type": "uint256"
        }
      ],
      "name": "PlayerAlreadyListed",
      "type": "error"
    },
    {
      "inputs": [
        {
          "internalType": "bytes32",
          "name": "playerHash",
          "type": "bytes32"
        }
      ],
      "name": "PlayerAlreadyRegistered",
      "type": "error"
    },
    {
      "inputs": [
        {
          "internalType": "uint256",
          "name": "playerId",
          "type": "uint256"
        }
      ],
      "name": "PlayerDoesNotExist",
      "type": "error"
    },
    {
      "inputs": [
        {
          "internalType": "uint256",
          "name": "playerId",
          "type": "uint256"
        }
      ],
      "name": "PlayerNotListed",
      "type": "error"
    },
    {
      "inputs": [
        {
          "internalType": "uint256",
          "name": "playerId",
          "type": "uint256"
        }
      ],
      "name": "PlayerNotVerified",
      "type": "error"
    },
    {
      "inputs": [],
      "name": "ReentrantCall",
      "type": "error"
    },
    {
      "inputs": [
        {
          "internalType": "address",
          "name": "registrar",
          "type": "address"
        }
      ],
      "name": "RegistrarAlreadyRegistered",
      "type": "error"
    },
    {
      "inputs": [
        {
          "internalType": "uint256",
          "name": "provided",
          "type": "uint256"
        },
        {
          "internalType": "uint256",
          "name": "maxAllowed",
          "type": "uint256"
        }
      ],
      "name": "RegistrarFeeTooHigh",
      "type": "error"
    },
    {
      "inputs": [
        {
          "internalType": "address",
          "name": "club",
          "type": "address"
        }
      ],
      "name": "RegistrarNotAssignedToClub",
      "type": "error"
    },
    {
      "inputs": [
        {
          "internalType": "address",
          "name": "registrar",
          "type": "address"
        }
      ],
      "name": "RegistrarNotRegistered",
      "type": "error"
    },
    {
      "inputs": [
        {
          "internalType": "address",
          "name": "token",
          "type": "address"
        }
      ],
      "name": "SafeERC20FailedOperation",
      "type": "error"
    },
    {
      "inputs": [
        {
          "internalType": "uint256",
          "name": "effectiveAt",
          "type": "uint256"
        },
        {
          "internalType": "uint256",
          "name": "now_",
          "type": "uint256"
        }
      ],
      "name": "TreasuryUpdateNotReady",
      "type": "error"
    },
    {
      "inputs": [],
      "name": "UUPSUnauthorizedCallContext",
      "type": "error"
    },
    {
      "inputs": [
        {
          "internalType": "bytes32",
          "name": "slot",
          "type": "bytes32"
        }
      ],
      "name": "UUPSUnsupportedProxiableUUID",
      "type": "error"
    },
    {
      "inputs": [
        {
          "internalType": "uint256",
          "name": "playerId",
          "type": "uint256"
        }
      ],
      "name": "VerificationAlreadyActive",
      "type": "error"
    },
    {
      "inputs": [
        {
          "internalType": "address",
          "name": "wallet",
          "type": "address"
        },
        {
          "internalType": "uint256",
          "name": "assignedTo",
          "type": "uint256"
        }
      ],
      "name": "WalletAlreadyAssigned",
      "type": "error"
    },
    {
      "inputs": [
        {
          "internalType": "uint256",
          "name": "playerId",
          "type": "uint256"
        }
      ],
      "name": "WalletUpdateAlreadyPending",
      "type": "error"
    },
    {
      "inputs": [
        {
          "internalType": "uint256",
          "name": "playerId",
          "type": "uint256"
        },
        {
          "internalType": "address",
          "name": "wallet",
          "type": "address"
        }
      ],
      "name": "WalletUpdateAlreadySet",
      "type": "error"
    },
    {
      "inputs": [
        {
          "internalType": "uint256",
          "name": "playerId",
          "type": "uint256"
        },
        {
          "internalType": "uint256",
          "name": "adjustedExecutable",
          "type": "uint256"
        },
        {
          "internalType": "uint256",
          "name": "now_",
          "type": "uint256"
        }
      ],
      "name": "WalletUpdateNotReady",
      "type": "error"
    },
    {
      "inputs": [],
      "name": "ZeroAddress",
      "type": "error"
    },
    {
      "inputs": [],
      "name": "ZeroAmount",
      "type": "error"
    },
    {
      "anonymous": false,
      "inputs": [
        {
          "indexed": true,
          "internalType": "address",
          "name": "owner",
          "type": "address"
        },
        {
          "indexed": true,
          "internalType": "address",
          "name": "approved",
          "type": "address"
        },
        {
          "indexed": true,
          "internalType": "uint256",
          "name": "tokenId",
          "type": "uint256"
        }
      ],
      "name": "Approval",
      "type": "event"
    },
    {
      "anonymous": false,
      "inputs": [
        {
          "indexed": true,
          "internalType": "address",
          "name": "owner",
          "type": "address"
        },
        {
          "indexed": true,
          "internalType": "address",
          "name": "operator",
          "type": "address"
        },
        {
          "indexed": false,
          "internalType": "bool",
          "name": "approved",
          "type": "bool"
        }
      ],
      "name": "ApprovalForAll",
      "type": "event"
    },
    {
      "anonymous": false,
      "inputs": [
        {
          "indexed": false,
          "internalType": "uint256",
          "name": "newFee",
          "type": "uint256"
        }
      ],
      "name": "BaseVerificationFeeActivated",
      "type": "event"
    },
    {
      "anonymous": false,
      "inputs": [
        {
          "indexed": false,
          "internalType": "uint256",
          "name": "newFee",
          "type": "uint256"
        },
        {
          "indexed": false,
          "internalType": "uint256",
          "name": "effectiveAt",
          "type": "uint256"
        }
      ],
      "name": "BaseVerificationFeeScheduled",
      "type": "event"
    },
    {
      "anonymous": false,
      "inputs": [
        {
          "indexed": true,
          "internalType": "address",
          "name": "club",
          "type": "address"
        }
      ],
      "name": "ClubDeregistered",
      "type": "event"
    },
    {
      "anonymous": false,
      "inputs": [
        {
          "indexed": true,
          "internalType": "uint256",
          "name": "playerId",
          "type": "uint256"
        },
        {
          "indexed": true,
          "internalType": "address",
          "name": "fromClub",
          "type": "address"
        },
        {
          "indexed": true,
          "internalType": "address",
          "name": "toClub",
          "type": "address"
        }
      ],
      "name": "ClubOwnershipTransferred",
      "type": "event"
    },
    {
      "anonymous": false,
      "inputs": [
        {
          "indexed": true,
          "internalType": "address",
          "name": "club",
          "type": "address"
        },
        {
          "indexed": false,
          "internalType": "string",
          "name": "name",
          "type": "string"
        },
        {
          "indexed": true,
          "internalType": "address",
          "name": "registrar",
          "type": "address"
        }
      ],
      "name": "ClubRegistered",
      "type": "event"
    },
    {
      "anonymous": false,
      "inputs": [
        {
          "indexed": true,
          "internalType": "uint256",
          "name": "playerId",
          "type": "uint256"
        },
        {
          "indexed": false,
          "internalType": "uint256",
          "name": "newExpiry",
          "type": "uint256"
        }
      ],
      "name": "ContractExtended",
      "type": "event"
    },
    {
      "anonymous": false,
      "inputs": [
        {
          "indexed": true,
          "internalType": "address",
          "name": "to",
          "type": "address"
        },
        {
          "indexed": false,
          "internalType": "uint256",
          "name": "amount",
          "type": "uint256"
        }
      ],
      "name": "FeesWithdrawn",
      "type": "event"
    },
    {
      "anonymous": false,
      "inputs": [
        {
          "indexed": false,
          "internalType": "uint64",
          "name": "version",
          "type": "uint64"
        }
      ],
      "name": "Initialized",
      "type": "event"
    },
    {
      "anonymous": false,
      "inputs": [
        {
          "indexed": true,
          "internalType": "uint256",
          "name": "playerId",
          "type": "uint256"
        }
      ],
      "name": "LegalDocumentsSubmitted",
      "type": "event"
    },
    {
      "anonymous": false,
      "inputs": [
        {
          "indexed": true,
          "internalType": "uint256",
          "name": "playerId",
          "type": "uint256"
        },
        {
          "indexed": true,
          "internalType": "address",
          "name": "registrar",
          "type": "address"
        }
      ],
      "name": "LegalDocumentsVerified",
      "type": "event"
    },
    {
      "anonymous": false,
      "inputs": [
        {
          "indexed": false,
          "internalType": "uint256",
          "name": "fee",
          "type": "uint256"
        }
      ],
      "name": "ListingFeeSet",
      "type": "event"
    },
    {
      "anonymous": false,
      "inputs": [
        {
          "indexed": true,
          "internalType": "uint256",
          "name": "playerId",
          "type": "uint256"
        },
        {
          "indexed": false,
          "internalType": "bytes32",
          "name": "documentHash",
          "type": "bytes32"
        }
      ],
      "name": "MedicalClearanceSet",
      "type": "event"
    },
    {
      "anonymous": false,
      "inputs": [
        {
          "indexed": true,
          "internalType": "uint256",
          "name": "playerId",
          "type": "uint256"
        },
        {
          "indexed": true,
          "internalType": "address",
          "name": "registrar",
          "type": "address"
        }
      ],
      "name": "MedicalClearanceVerified",
      "type": "event"
    },
    {
      "anonymous": false,
      "inputs": [
        {
          "indexed": true,
          "internalType": "uint256",
          "name": "playerId",
          "type": "uint256"
        }
      ],
      "name": "MutualTerminationConfirmed",
      "type": "event"
    },
    {
      "anonymous": false,
      "inputs": [
        {
          "indexed": true,
          "internalType": "uint256",
          "name": "playerId",
          "type": "uint256"
        },
        {
          "indexed": true,
          "internalType": "address",
          "name": "club",
          "type": "address"
        }
      ],
      "name": "MutualTerminationProposed",
      "type": "event"
    },
    {
      "anonymous": false,
      "inputs": [
        {
          "indexed": false,
          "internalType": "address",
          "name": "account",
          "type": "address"
        }
      ],
      "name": "Paused",
      "type": "event"
    },
    {
      "anonymous": false,
      "inputs": [
        {
          "indexed": true,
          "internalType": "uint256",
          "name": "playerId",
          "type": "uint256"
        }
      ],
      "name": "PlayerBurned",
      "type": "event"
    },
    {
      "anonymous": false,
      "inputs": [
        {
          "indexed": true,
          "internalType": "uint256",
          "name": "playerId",
          "type": "uint256"
        }
      ],
      "name": "PlayerDelisted",
      "type": "event"
    },
    {
      "anonymous": false,
      "inputs": [
        {
          "indexed": true,
          "internalType": "uint256",
          "name": "playerId",
          "type": "uint256"
        },
        {
          "indexed": false,
          "internalType": "uint256",
          "name": "askingPrice",
          "type": "uint256"
        }
      ],
      "name": "PlayerListed",
      "type": "event"
    },
    {
      "anonymous": false,
      "inputs": [
        {
          "indexed": true,
          "internalType": "uint256",
          "name": "playerId",
          "type": "uint256"
        },
        {
          "indexed": false,
          "internalType": "string",
          "name": "name",
          "type": "string"
        },
        {
          "indexed": true,
          "internalType": "address",
          "name": "club",
          "type": "address"
        }
      ],
      "name": "PlayerRegistered",
      "type": "event"
    },
    {
      "anonymous": false,
      "inputs": [
        {
          "indexed": true,
          "internalType": "uint256",
          "name": "playerId",
          "type": "uint256"
        },
        {
          "indexed": true,
          "internalType": "address",
          "name": "registrar",
          "type": "address"
        }
      ],
      "name": "PlayerVerified",
      "type": "event"
    },
    {
      "anonymous": false,
      "inputs": [
        {
          "indexed": true,
          "internalType": "uint256",
          "name": "playerId",
          "type": "uint256"
        },
        {
          "indexed": true,
          "internalType": "address",
          "name": "registrar",
          "type": "address"
        }
      ],
      "name": "PlayerWalletReset",
      "type": "event"
    },
    {
      "anonymous": false,
      "inputs": [
        {
          "indexed": true,
          "internalType": "uint256",
          "name": "playerId",
          "type": "uint256"
        },
        {
          "indexed": true,
          "internalType": "address",
          "name": "playerWallet",
          "type": "address"
        }
      ],
      "name": "PlayerWalletSet",
      "type": "event"
    },
    {
      "anonymous": false,
      "inputs": [
        {
          "indexed": false,
          "internalType": "uint256",
          "name": "bps",
          "type": "uint256"
        }
      ],
      "name": "ProtocolFeeBpsSet",
      "type": "event"
    },
    {
      "anonymous": false,
      "inputs": [
        {
          "indexed": true,
          "internalType": "address",
          "name": "newTreasury",
          "type": "address"
        },
        {
          "indexed": false,
          "internalType": "uint256",
          "name": "effectiveAt",
          "type": "uint256"
        }
      ],
      "name": "ProtocolTreasuryUpdateScheduled",
      "type": "event"
    },
    {
      "anonymous": false,
      "inputs": [
        {
          "indexed": true,
          "internalType": "address",
          "name": "oldTreasury",
          "type": "address"
        },
        {
          "indexed": true,
          "internalType": "address",
          "name": "newTreasury",
          "type": "address"
        }
      ],
      "name": "ProtocolTreasuryUpdated",
      "type": "event"
    },
    {
      "anonymous": false,
      "inputs": [
        {
          "indexed": true,
          "internalType": "address",
          "name": "registrar",
          "type": "address"
        },
        {
          "indexed": false,
          "internalType": "uint256",
          "name": "amount",
          "type": "uint256"
        }
      ],
      "name": "RegistrarFeesWithdrawn",
      "type": "event"
    },
    {
      "anonymous": false,
      "inputs": [
        {
          "indexed": true,
          "internalType": "address",
          "name": "registrar",
          "type": "address"
        }
      ],
      "name": "RegistrarRoleGranted",
      "type": "event"
    },
    {
      "anonymous": false,
      "inputs": [
        {
          "indexed": true,
          "internalType": "address",
          "name": "registrar",
          "type": "address"
        }
      ],
      "name": "RegistrarRoleRevoked",
      "type": "event"
    },
    {
      "anonymous": false,
      "inputs": [
        {
          "indexed": false,
          "internalType": "uint256",
          "name": "fee",
          "type": "uint256"
        }
      ],
      "name": "RegistrationFeeSet",
      "type": "event"
    },
    {
      "anonymous": false,
      "inputs": [
        {
          "indexed": true,
          "internalType": "uint256",
          "name": "playerId",
          "type": "uint256"
        },
        {
          "indexed": false,
          "internalType": "uint256",
          "name": "amount",
          "type": "uint256"
        }
      ],
      "name": "ReleaseClauseSet",
      "type": "event"
    },
    {
      "anonymous": false,
      "inputs": [
        {
          "indexed": true,
          "internalType": "bytes32",
          "name": "role",
          "type": "bytes32"
        },
        {
          "indexed": true,
          "internalType": "bytes32",
          "name": "previousAdminRole",
          "type": "bytes32"
        },
        {
          "indexed": true,
          "internalType": "bytes32",
          "name": "newAdminRole",
          "type": "bytes32"
        }
      ],
      "name": "RoleAdminChanged",
      "type": "event"
    },
    {
      "anonymous": false,
      "inputs": [
        {
          "indexed": true,
          "internalType": "bytes32",
          "name": "role",
          "type": "bytes32"
        },
        {
          "indexed": true,
          "internalType": "address",
          "name": "account",
          "type": "address"
        },
        {
          "indexed": true,
          "internalType": "address",
          "name": "sender",
          "type": "address"
        }
      ],
      "name": "RoleGranted",
      "type": "event"
    },
    {
      "anonymous": false,
      "inputs": [
        {
          "indexed": true,
          "internalType": "bytes32",
          "name": "role",
          "type": "bytes32"
        },
        {
          "indexed": true,
          "internalType": "address",
          "name": "account",
          "type": "address"
        },
        {
          "indexed": true,
          "internalType": "address",
          "name": "sender",
          "type": "address"
        }
      ],
      "name": "RoleRevoked",
      "type": "event"
    },
    {
      "anonymous": false,
      "inputs": [
        {
          "indexed": true,
          "internalType": "uint256",
          "name": "playerId",
          "type": "uint256"
        },
        {
          "indexed": true,
          "internalType": "address",
          "name": "disputer",
          "type": "address"
        }
      ],
      "name": "TerminationDisputed",
      "type": "event"
    },
    {
      "anonymous": false,
      "inputs": [
        {
          "indexed": true,
          "internalType": "uint256",
          "name": "playerId",
          "type": "uint256"
        }
      ],
      "name": "TerminationExecuted",
      "type": "event"
    },
    {
      "anonymous": false,
      "inputs": [
        {
          "indexed": true,
          "internalType": "uint256",
          "name": "playerId",
          "type": "uint256"
        },
        {
          "indexed": true,
          "internalType": "address",
          "name": "league",
          "type": "address"
        }
      ],
      "name": "TerminationForced",
      "type": "event"
    },
    {
      "anonymous": false,
      "inputs": [
        {
          "indexed": true,
          "internalType": "uint256",
          "name": "playerId",
          "type": "uint256"
        },
        {
          "indexed": true,
          "internalType": "address",
          "name": "league",
          "type": "address"
        }
      ],
      "name": "TerminationRejected",
      "type": "event"
    },
    {
      "anonymous": false,
      "inputs": [
        {
          "indexed": true,
          "internalType": "address",
          "name": "from",
          "type": "address"
        },
        {
          "indexed": true,
          "internalType": "address",
          "name": "to",
          "type": "address"
        },
        {
          "indexed": true,
          "internalType": "uint256",
          "name": "tokenId",
          "type": "uint256"
        }
      ],
      "name": "Transfer",
      "type": "event"
    },
    {
      "anonymous": false,
      "inputs": [
        {
          "indexed": true,
          "internalType": "uint256",
          "name": "playerId",
          "type": "uint256"
        },
        {
          "indexed": false,
          "internalType": "enum IPlayerRegistry.TerminationInitiator",
          "name": "initiator",
          "type": "uint8"
        },
        {
          "indexed": false,
          "internalType": "string",
          "name": "reason",
          "type": "string"
        },
        {
          "indexed": false,
          "internalType": "uint256",
          "name": "disputeDeadline",
          "type": "uint256"
        }
      ],
      "name": "UnilateralTerminationProposed",
      "type": "event"
    },
    {
      "anonymous": false,
      "inputs": [
        {
          "indexed": false,
          "internalType": "address",
          "name": "account",
          "type": "address"
        }
      ],
      "name": "Unpaused",
      "type": "event"
    },
    {
      "anonymous": false,
      "inputs": [
        {
          "indexed": true,
          "internalType": "address",
          "name": "implementation",
          "type": "address"
        }
      ],
      "name": "Upgraded",
      "type": "event"
    },
    {
      "anonymous": false,
      "inputs": [
        {
          "indexed": true,
          "internalType": "uint256",
          "name": "playerId",
          "type": "uint256"
        },
        {
          "indexed": true,
          "internalType": "address",
          "name": "registrar",
          "type": "address"
        }
      ],
      "name": "VerificationApproved",
      "type": "event"
    },
    {
      "anonymous": false,
      "inputs": [
        {
          "indexed": true,
          "internalType": "address",
          "name": "registrar",
          "type": "address"
        },
        {
          "indexed": false,
          "internalType": "uint256",
          "name": "fee",
          "type": "uint256"
        }
      ],
      "name": "VerificationFeeSet",
      "type": "event"
    },
    {
      "anonymous": false,
      "inputs": [
        {
          "indexed": true,
          "internalType": "uint256",
          "name": "playerId",
          "type": "uint256"
        },
        {
          "indexed": true,
          "internalType": "address",
          "name": "club",
          "type": "address"
        }
      ],
      "name": "VerificationRefundClaimed",
      "type": "event"
    },
    {
      "anonymous": false,
      "inputs": [
        {
          "indexed": true,
          "internalType": "uint256",
          "name": "playerId",
          "type": "uint256"
        },
        {
          "indexed": true,
          "internalType": "address",
          "name": "registrar",
          "type": "address"
        }
      ],
      "name": "VerificationRejected",
      "type": "event"
    },
    {
      "anonymous": false,
      "inputs": [
        {
          "indexed": true,
          "internalType": "uint256",
          "name": "playerId",
          "type": "uint256"
        },
        {
          "indexed": true,
          "internalType": "address",
          "name": "club",
          "type": "address"
        },
        {
          "indexed": false,
          "internalType": "uint256",
          "name": "feePaid",
          "type": "uint256"
        },
        {
          "indexed": false,
          "internalType": "uint256",
          "name": "deadline",
          "type": "uint256"
        }
      ],
      "name": "VerificationRequested",
      "type": "event"
    },
    {
      "anonymous": false,
      "inputs": [
        {
          "indexed": true,
          "internalType": "uint256",
          "name": "playerId",
          "type": "uint256"
        }
      ],
      "name": "WalletUpdateCancelled",
      "type": "event"
    },
    {
      "anonymous": false,
      "inputs": [
        {
          "indexed": true,
          "internalType": "uint256",
          "name": "playerId",
          "type": "uint256"
        },
        {
          "indexed": true,
          "internalType": "address",
          "name": "oldWallet",
          "type": "address"
        },
        {
          "indexed": true,
          "internalType": "address",
          "name": "newWallet",
          "type": "address"
        }
      ],
      "name": "WalletUpdateExecuted",
      "type": "event"
    },
    {
      "anonymous": false,
      "inputs": [
        {
          "indexed": true,
          "internalType": "uint256",
          "name": "playerId",
          "type": "uint256"
        },
        {
          "indexed": true,
          "internalType": "address",
          "name": "newWallet",
          "type": "address"
        },
        {
          "indexed": false,
          "internalType": "uint256",
          "name": "executable",
          "type": "uint256"
        }
      ],
      "name": "WalletUpdateInitiated",
      "type": "event"
    },
    {
      "inputs": [],
      "name": "ADMIN_ROLE",
      "outputs": [
        {
          "internalType": "bytes32",
          "name": "",
          "type": "bytes32"
        }
      ],
      "stateMutability": "view",
      "type": "function"
    },
    {
      "inputs": [],
      "name": "CLUB_ROLE",
      "outputs": [
        {
          "internalType": "bytes32",
          "name": "",
          "type": "bytes32"
        }
      ],
      "stateMutability": "view",
      "type": "function"
    },
    {
      "inputs": [],
      "name": "DEFAULT_ADMIN_ROLE",
      "outputs": [
        {
          "internalType": "bytes32",
          "name": "",
          "type": "bytes32"
        }
      ],
      "stateMutability": "view",
      "type": "function"
    },
    {
      "inputs": [],
      "name": "ESCROW_ROLE",
      "outputs": [
        {
          "internalType": "bytes32",
          "name": "",
          "type": "bytes32"
        }
      ],
      "stateMutability": "view",
      "type": "function"
    },
    {
      "inputs": [],
      "name": "EURC",
      "outputs": [
        {
          "internalType": "contract IERC20",
          "name": "",
          "type": "address"
        }
      ],
      "stateMutability": "view",
      "type": "function"
    },
    {
      "inputs": [],
      "name": "FEE_SCHEDULE_DELAY",
      "outputs": [
        {
          "internalType": "uint256",
          "name": "",
          "type": "uint256"
        }
      ],
      "stateMutability": "view",
      "type": "function"
    },
    {
      "inputs": [],
      "name": "LEAGUE_ROLE",
      "outputs": [
        {
          "internalType": "bytes32",
          "name": "",
          "type": "bytes32"
        }
      ],
      "stateMutability": "view",
      "type": "function"
    },
    {
      "inputs": [],
      "name": "MAX_FEE",
      "outputs": [
        {
          "internalType": "uint256",
          "name": "",
          "type": "uint256"
        }
      ],
      "stateMutability": "view",
      "type": "function"
    },
    {
      "inputs": [],
      "name": "MAX_NAME_LENGTH",
      "outputs": [
        {
          "internalType": "uint256",
          "name": "",
          "type": "uint256"
        }
      ],
      "stateMutability": "view",
      "type": "function"
    },
    {
      "inputs": [],
      "name": "MAX_PROTOCOL_FEE_BPS",
      "outputs": [
        {
          "internalType": "uint256",
          "name": "",
          "type": "uint256"
        }
      ],
      "stateMutability": "view",
      "type": "function"
    },
    {
      "inputs": [],
      "name": "MAX_REGISTRAR_FEE_EXCESS",
      "outputs": [
        {
          "internalType": "uint256",
          "name": "",
          "type": "uint256"
        }
      ],
      "stateMutability": "view",
      "type": "function"
    },
    {
      "inputs": [],
      "name": "REGISTRAR_ROLE",
      "outputs": [
        {
          "internalType": "bytes32",
          "name": "",
          "type": "bytes32"
        }
      ],
      "stateMutability": "view",
      "type": "function"
    },
    {
      "inputs": [],
      "name": "TREASURY_UPDATE_DELAY",
      "outputs": [
        {
          "internalType": "uint256",
          "name": "",
          "type": "uint256"
        }
      ],
      "stateMutability": "view",
      "type": "function"
    },
    {
      "inputs": [],
      "name": "UPGRADE_INTERFACE_VERSION",
      "outputs": [
        {
          "internalType": "string",
          "name": "",
          "type": "string"
        }
      ],
      "stateMutability": "view",
      "type": "function"
    },
    {
      "inputs": [],
      "name": "VERIFICATION_ROLE",
      "outputs": [
        {
          "internalType": "bytes32",
          "name": "",
          "type": "bytes32"
        }
      ],
      "stateMutability": "view",
      "type": "function"
    },
    {
      "inputs": [],
      "name": "WALLET_UPDATE_TIMELOCK",
      "outputs": [
        {
          "internalType": "uint256",
          "name": "",
          "type": "uint256"
        }
      ],
      "stateMutability": "view",
      "type": "function"
    },
    {
      "inputs": [],
      "name": "activateBaseVerificationFee",
      "outputs": [],
      "stateMutability": "nonpayable",
      "type": "function"
    },
    {
      "inputs": [
        {
          "internalType": "uint256",
          "name": "amount",
          "type": "uint256"
        }
      ],
      "name": "addProtocolFees",
      "outputs": [],
      "stateMutability": "nonpayable",
      "type": "function"
    },
    {
      "inputs": [
        {
          "internalType": "address",
          "name": "registrar",
          "type": "address"
        },
        {
          "internalType": "uint256",
          "name": "amount",
          "type": "uint256"
        }
      ],
      "name": "addRegistrarFees",
      "outputs": [],
      "stateMutability": "nonpayable",
      "type": "function"
    },
    {
      "inputs": [
        {
          "internalType": "address",
          "name": "",
          "type": "address"
        },
        {
          "internalType": "uint256",
          "name": "",
          "type": "uint256"
        }
      ],
      "name": "approve",
      "outputs": [],
      "stateMutability": "pure",
      "type": "function"
    },
    {
      "inputs": [
        {
          "internalType": "address",
          "name": "owner",
          "type": "address"
        }
      ],
      "name": "balanceOf",
      "outputs": [
        {
          "internalType": "uint256",
          "name": "",
          "type": "uint256"
        }
      ],
      "stateMutability": "view",
      "type": "function"
    },
    {
      "inputs": [],
      "name": "baseVerificationFee",
      "outputs": [
        {
          "internalType": "uint64",
          "name": "",
          "type": "uint64"
        }
      ],
      "stateMutability": "view",
      "type": "function"
    },
    {
      "inputs": [
        {
          "internalType": "uint256",
          "name": "playerId",
          "type": "uint256"
        }
      ],
      "name": "burnPlayer",
      "outputs": [],
      "stateMutability": "nonpayable",
      "type": "function"
    },
    {
      "inputs": [
        {
          "internalType": "uint256",
          "name": "playerId",
          "type": "uint256"
        }
      ],
      "name": "cancelWalletUpdate",
      "outputs": [],
      "stateMutability": "nonpayable",
      "type": "function"
    },
    {
      "inputs": [
        {
          "internalType": "uint256",
          "name": "playerId",
          "type": "uint256"
        }
      ],
      "name": "currentClub",
      "outputs": [
        {
          "internalType": "address",
          "name": "",
          "type": "address"
        }
      ],
      "stateMutability": "view",
      "type": "function"
    },
    {
      "inputs": [
        {
          "internalType": "uint256",
          "name": "playerId",
          "type": "uint256"
        }
      ],
      "name": "delistPlayer",
      "outputs": [],
      "stateMutability": "nonpayable",
      "type": "function"
    },
    {
      "inputs": [
        {
          "internalType": "address",
          "name": "club",
          "type": "address"
        }
      ],
      "name": "deregisterClub",
      "outputs": [],
      "stateMutability": "nonpayable",
      "type": "function"
    },
    {
      "inputs": [
        {
          "internalType": "uint256",
          "name": "playerId",
          "type": "uint256"
        },
        {
          "internalType": "address",
          "name": "fromClub",
          "type": "address"
        },
        {
          "internalType": "address",
          "name": "toClub",
          "type": "address"
        }
      ],
      "name": "escrowTransfer",
      "outputs": [],
      "stateMutability": "nonpayable",
      "type": "function"
    },
    {
      "inputs": [],
      "name": "executeProtocolTreasuryUpdate",
      "outputs": [],
      "stateMutability": "nonpayable",
      "type": "function"
    },
    {
      "inputs": [
        {
          "internalType": "uint256",
          "name": "playerId",
          "type": "uint256"
        }
      ],
      "name": "executeWalletUpdate",
      "outputs": [],
      "stateMutability": "nonpayable",
      "type": "function"
    },
    {
      "inputs": [
        {
          "internalType": "uint256",
          "name": "playerId",
          "type": "uint256"
        },
        {
          "internalType": "uint40",
          "name": "newExpiry",
          "type": "uint40"
        }
      ],
      "name": "extendContract",
      "outputs": [],
      "stateMutability": "nonpayable",
      "type": "function"
    },
    {
      "inputs": [
        {
          "internalType": "uint256",
          "name": "tokenId",
          "type": "uint256"
        }
      ],
      "name": "getApproved",
      "outputs": [
        {
          "internalType": "address",
          "name": "",
          "type": "address"
        }
      ],
      "stateMutability": "view",
      "type": "function"
    },
    {
      "inputs": [
        {
          "internalType": "address",
          "name": "club",
          "type": "address"
        }
      ],
      "name": "getClubName",
      "outputs": [
        {
          "internalType": "string",
          "name": "",
          "type": "string"
        }
      ],
      "stateMutability": "view",
      "type": "function"
    },
    {
      "inputs": [
        {
          "internalType": "address",
          "name": "club",
          "type": "address"
        }
      ],
      "name": "getClubPlayers",
      "outputs": [
        {
          "internalType": "uint256[]",
          "name": "",
          "type": "uint256[]"
        }
      ],
      "stateMutability": "view",
      "type": "function"
    },
    {
      "inputs": [
        {
          "internalType": "address",
          "name": "club",
          "type": "address"
        }
      ],
      "name": "getClubRegistrar",
      "outputs": [
        {
          "internalType": "address",
          "name": "",
          "type": "address"
        }
      ],
      "stateMutability": "view",
      "type": "function"
    },
    {
      "inputs": [
        {
          "internalType": "uint256",
          "name": "playerId",
          "type": "uint256"
        }
      ],
      "name": "getLegalDocuments",
      "outputs": [
        {
          "components": [
            {
              "internalType": "bytes32",
              "name": "registrationContractHash",
              "type": "bytes32"
            },
            {
              "internalType": "bytes32",
              "name": "fifaTMSHash",
              "type": "bytes32"
            },
            {
              "internalType": "bytes32",
              "name": "workPermitHash",
              "type": "bytes32"
            },
            {
              "internalType": "bool",
              "name": "documentsVerified",
              "type": "bool"
            }
          ],
          "internalType": "struct IPlayerRegistry.LegalDocuments",
          "name": "",
          "type": "tuple"
        }
      ],
      "stateMutability": "view",
      "type": "function"
    },
    {
      "inputs": [
        {
          "internalType": "uint256",
          "name": "playerId",
          "type": "uint256"
        }
      ],
      "name": "getPlayer",
      "outputs": [
        {
          "components": [
            {
              "internalType": "uint256",
              "name": "id",
              "type": "uint256"
            },
            {
              "internalType": "string",
              "name": "name",
              "type": "string"
            },
            {
              "internalType": "string",
              "name": "position",
              "type": "string"
            },
            {
              "internalType": "string",
              "name": "nationality",
              "type": "string"
            },
            {
              "internalType": "uint256",
              "name": "weeklySalary",
              "type": "uint256"
            },
            {
              "internalType": "uint256",
              "name": "askingPrice",
              "type": "uint256"
            },
            {
              "internalType": "uint256",
              "name": "releaseClause",
              "type": "uint256"
            },
            {
              "internalType": "bytes32",
              "name": "medicalDocumentHash",
              "type": "bytes32"
            },
            {
              "internalType": "bytes32",
              "name": "fifaId",
              "type": "bytes32"
            },
            {
              "internalType": "address",
              "name": "playerWallet",
              "type": "address"
            },
            {
              "internalType": "uint40",
              "name": "contractExpiry",
              "type": "uint40"
            },
            {
              "internalType": "uint40",
              "name": "registeredAt",
              "type": "uint40"
            },
            {
              "internalType": "bool",
              "name": "isVerified",
              "type": "bool"
            },
            {
              "internalType": "bool",
              "name": "isListed",
              "type": "bool"
            },
            {
              "internalType": "bool",
              "name": "medicalClearance",
              "type": "bool"
            },
            {
              "internalType": "bool",
              "name": "medicalVerified",
              "type": "bool"
            },
            {
              "internalType": "string",
              "name": "portraitCID",
              "type": "string"
            }
          ],
          "internalType": "struct IPlayerRegistry.Player",
          "name": "",
          "type": "tuple"
        }
      ],
      "stateMutability": "view",
      "type": "function"
    },
    {
      "inputs": [
        {
          "internalType": "address",
          "name": "registrar",
          "type": "address"
        }
      ],
      "name": "getRegistrarClaimable",
      "outputs": [
        {
          "internalType": "uint256",
          "name": "",
          "type": "uint256"
        }
      ],
      "stateMutability": "view",
      "type": "function"
    },
    {
      "inputs": [
        {
          "internalType": "address",
          "name": "registrar",
          "type": "address"
        }
      ],
      "name": "getRegistrarFee",
      "outputs": [
        {
          "internalType": "uint256",
          "name": "",
          "type": "uint256"
        }
      ],
      "stateMutability": "view",
      "type": "function"
    },
    {
      "inputs": [
        {
          "internalType": "bytes32",
          "name": "role",
          "type": "bytes32"
        }
      ],
      "name": "getRoleAdmin",
      "outputs": [
        {
          "internalType": "bytes32",
          "name": "",
          "type": "bytes32"
        }
      ],
      "stateMutability": "view",
      "type": "function"
    },
    {
      "inputs": [
        {
          "internalType": "uint256",
          "name": "playerId",
          "type": "uint256"
        }
      ],
      "name": "getWalletUpdateRequest",
      "outputs": [
        {
          "components": [
            {
              "internalType": "address",
              "name": "newWallet",
              "type": "address"
            },
            {
              "internalType": "uint256",
              "name": "executable",
              "type": "uint256"
            },
            {
              "internalType": "uint256",
              "name": "pauseSnapshot",
              "type": "uint256"
            },
            {
              "internalType": "bool",
              "name": "active",
              "type": "bool"
            }
          ],
          "internalType": "struct IPlayerRegistry.WalletUpdateRequest",
          "name": "",
          "type": "tuple"
        }
      ],
      "stateMutability": "view",
      "type": "function"
    },
    {
      "inputs": [
        {
          "internalType": "address",
          "name": "escrow",
          "type": "address"
        }
      ],
      "name": "grantEscrowRole",
      "outputs": [],
      "stateMutability": "nonpayable",
      "type": "function"
    },
    {
      "inputs": [
        {
          "internalType": "address",
          "name": "league",
          "type": "address"
        }
      ],
      "name": "grantLeagueRole",
      "outputs": [],
      "stateMutability": "nonpayable",
      "type": "function"
    },
    {
      "inputs": [
        {
          "internalType": "address",
          "name": "registrar",
          "type": "address"
        }
      ],
      "name": "grantRegistrarRole",
      "outputs": [],
      "stateMutability": "nonpayable",
      "type": "function"
    },
    {
      "inputs": [
        {
          "internalType": "bytes32",
          "name": "role",
          "type": "bytes32"
        },
        {
          "internalType": "address",
          "name": "account",
          "type": "address"
        }
      ],
      "name": "grantRole",
      "outputs": [],
      "stateMutability": "nonpayable",
      "type": "function"
    },
    {
      "inputs": [
        {
          "internalType": "address",
          "name": "verifier",
          "type": "address"
        }
      ],
      "name": "grantVerificationRole",
      "outputs": [],
      "stateMutability": "nonpayable",
      "type": "function"
    },
    {
      "inputs": [
        {
          "internalType": "address",
          "name": "account",
          "type": "address"
        }
      ],
      "name": "hasClubRole",
      "outputs": [
        {
          "internalType": "bool",
          "name": "",
          "type": "bool"
        }
      ],
      "stateMutability": "view",
      "type": "function"
    },
    {
      "inputs": [
        {
          "internalType": "bytes32",
          "name": "role",
          "type": "bytes32"
        },
        {
          "internalType": "address",
          "name": "account",
          "type": "address"
        }
      ],
      "name": "hasRole",
      "outputs": [
        {
          "internalType": "bool",
          "name": "",
          "type": "bool"
        }
      ],
      "stateMutability": "view",
      "type": "function"
    },
    {
      "inputs": [
        {
          "internalType": "address",
          "name": "eurc_",
          "type": "address"
        },
        {
          "internalType": "uint64",
          "name": "registrationFee_",
          "type": "uint64"
        },
        {
          "internalType": "uint64",
          "name": "listingFee_",
          "type": "uint64"
        },
        {
          "internalType": "address",
          "name": "treasury_",
          "type": "address"
        }
      ],
      "name": "initialize",
      "outputs": [],
      "stateMutability": "nonpayable",
      "type": "function"
    },
    {
      "inputs": [
        {
          "internalType": "uint256",
          "name": "playerId",
          "type": "uint256"
        },
        {
          "internalType": "address",
          "name": "newWallet",
          "type": "address"
        }
      ],
      "name": "initiateWalletUpdate",
      "outputs": [],
      "stateMutability": "nonpayable",
      "type": "function"
    },
    {
      "inputs": [
        {
          "internalType": "address",
          "name": "owner",
          "type": "address"
        },
        {
          "internalType": "address",
          "name": "operator",
          "type": "address"
        }
      ],
      "name": "isApprovedForAll",
      "outputs": [
        {
          "internalType": "bool",
          "name": "",
          "type": "bool"
        }
      ],
      "stateMutability": "view",
      "type": "function"
    },
    {
      "inputs": [
        {
          "internalType": "uint256",
          "name": "playerId",
          "type": "uint256"
        },
        {
          "internalType": "uint256",
          "name": "askingPrice",
          "type": "uint256"
        }
      ],
      "name": "listPlayer",
      "outputs": [],
      "stateMutability": "nonpayable",
      "type": "function"
    },
    {
      "inputs": [],
      "name": "listingFee",
      "outputs": [
        {
          "internalType": "uint64",
          "name": "",
          "type": "uint64"
        }
      ],
      "stateMutability": "view",
      "type": "function"
    },
    {
      "inputs": [
        {
          "internalType": "uint256",
          "name": "playerId",
          "type": "uint256"
        },
        {
          "internalType": "address",
          "name": "actor",
          "type": "address"
        }
      ],
      "name": "markPlayerVerified",
      "outputs": [],
      "stateMutability": "nonpayable",
      "type": "function"
    },
    {
      "inputs": [],
      "name": "name",
      "outputs": [
        {
          "internalType": "string",
          "name": "",
          "type": "string"
        }
      ],
      "stateMutability": "view",
      "type": "function"
    },
    {
      "inputs": [
        {
          "internalType": "uint256",
          "name": "tokenId",
          "type": "uint256"
        }
      ],
      "name": "ownerOf",
      "outputs": [
        {
          "internalType": "address",
          "name": "",
          "type": "address"
        }
      ],
      "stateMutability": "view",
      "type": "function"
    },
    {
      "inputs": [],
      "name": "pause",
      "outputs": [],
      "stateMutability": "nonpayable",
      "type": "function"
    },
    {
      "inputs": [],
      "name": "paused",
      "outputs": [
        {
          "internalType": "bool",
          "name": "",
          "type": "bool"
        }
      ],
      "stateMutability": "view",
      "type": "function"
    },
    {
      "inputs": [],
      "name": "protocolFeeBps",
      "outputs": [
        {
          "internalType": "uint16",
          "name": "",
          "type": "uint16"
        }
      ],
      "stateMutability": "view",
      "type": "function"
    },
    {
      "inputs": [],
      "name": "protocolFeesAccumulated",
      "outputs": [
        {
          "internalType": "uint256",
          "name": "",
          "type": "uint256"
        }
      ],
      "stateMutability": "view",
      "type": "function"
    },
    {
      "inputs": [],
      "name": "protocolTreasury",
      "outputs": [
        {
          "internalType": "address",
          "name": "",
          "type": "address"
        }
      ],
      "stateMutability": "view",
      "type": "function"
    },
    {
      "inputs": [],
      "name": "proxiableUUID",
      "outputs": [
        {
          "internalType": "bytes32",
          "name": "",
          "type": "bytes32"
        }
      ],
      "stateMutability": "view",
      "type": "function"
    },
    {
      "inputs": [
        {
          "internalType": "address",
          "name": "club",
          "type": "address"
        },
        {
          "internalType": "string",
          "name": "name",
          "type": "string"
        },
        {
          "internalType": "address",
          "name": "registrar",
          "type": "address"
        }
      ],
      "name": "registerClub",
      "outputs": [],
      "stateMutability": "nonpayable",
      "type": "function"
    },
    {
      "inputs": [
        {
          "internalType": "string",
          "name": "name",
          "type": "string"
        },
        {
          "internalType": "string",
          "name": "position",
          "type": "string"
        },
        {
          "internalType": "string",
          "name": "nationality",
          "type": "string"
        },
        {
          "internalType": "uint40",
          "name": "contractExpiry",
          "type": "uint40"
        },
        {
          "internalType": "uint256",
          "name": "weeklySalary",
          "type": "uint256"
        },
        {
          "internalType": "bytes32",
          "name": "fifaId",
          "type": "bytes32"
        }
      ],
      "name": "registerPlayer",
      "outputs": [],
      "stateMutability": "nonpayable",
      "type": "function"
    },
    {
      "inputs": [],
      "name": "registrationFee",
      "outputs": [
        {
          "internalType": "uint64",
          "name": "",
          "type": "uint64"
        }
      ],
      "stateMutability": "view",
      "type": "function"
    },
    {
      "inputs": [
        {
          "internalType": "bytes32",
          "name": "role",
          "type": "bytes32"
        },
        {
          "internalType": "address",
          "name": "callerConfirmation",
          "type": "address"
        }
      ],
      "name": "renounceRole",
      "outputs": [],
      "stateMutability": "nonpayable",
      "type": "function"
    },
    {
      "inputs": [
        {
          "internalType": "uint256",
          "name": "playerId",
          "type": "uint256"
        },
        {
          "internalType": "address",
          "name": "actor",
          "type": "address"
        }
      ],
      "name": "resetWallet",
      "outputs": [],
      "stateMutability": "nonpayable",
      "type": "function"
    },
    {
      "inputs": [
        {
          "internalType": "address",
          "name": "league",
          "type": "address"
        }
      ],
      "name": "revokeLeagueRole",
      "outputs": [],
      "stateMutability": "nonpayable",
      "type": "function"
    },
    {
      "inputs": [
        {
          "internalType": "address",
          "name": "registrar",
          "type": "address"
        }
      ],
      "name": "revokeRegistrarRole",
      "outputs": [],
      "stateMutability": "nonpayable",
      "type": "function"
    },
    {
      "inputs": [
        {
          "internalType": "bytes32",
          "name": "role",
          "type": "bytes32"
        },
        {
          "internalType": "address",
          "name": "account",
          "type": "address"
        }
      ],
      "name": "revokeRole",
      "outputs": [],
      "stateMutability": "nonpayable",
      "type": "function"
    },
    {
      "inputs": [
        {
          "internalType": "address",
          "name": "from",
          "type": "address"
        },
        {
          "internalType": "address",
          "name": "to",
          "type": "address"
        },
        {
          "internalType": "uint256",
          "name": "tokenId",
          "type": "uint256"
        }
      ],
      "name": "safeTransferFrom",
      "outputs": [],
      "stateMutability": "nonpayable",
      "type": "function"
    },
    {
      "inputs": [
        {
          "internalType": "address",
          "name": "",
          "type": "address"
        },
        {
          "internalType": "address",
          "name": "",
          "type": "address"
        },
        {
          "internalType": "uint256",
          "name": "",
          "type": "uint256"
        },
        {
          "internalType": "bytes",
          "name": "",
          "type": "bytes"
        }
      ],
      "name": "safeTransferFrom",
      "outputs": [],
      "stateMutability": "pure",
      "type": "function"
    },
    {
      "inputs": [
        {
          "internalType": "uint64",
          "name": "newFee",
          "type": "uint64"
        }
      ],
      "name": "scheduleBaseVerificationFee",
      "outputs": [],
      "stateMutability": "nonpayable",
      "type": "function"
    },
    {
      "inputs": [
        {
          "internalType": "address",
          "name": "newTreasury",
          "type": "address"
        }
      ],
      "name": "scheduleProtocolTreasuryUpdate",
      "outputs": [],
      "stateMutability": "nonpayable",
      "type": "function"
    },
    {
      "inputs": [
        {
          "internalType": "address",
          "name": "",
          "type": "address"
        },
        {
          "internalType": "bool",
          "name": "",
          "type": "bool"
        }
      ],
      "name": "setApprovalForAll",
      "outputs": [],
      "stateMutability": "pure",
      "type": "function"
    },
    {
      "inputs": [
        {
          "internalType": "uint256",
          "name": "playerId",
          "type": "uint256"
        },
        {
          "internalType": "address",
          "name": "actor",
          "type": "address"
        }
      ],
      "name": "setLegalDocsVerified",
      "outputs": [],
      "stateMutability": "nonpayable",
      "type": "function"
    },
    {
      "inputs": [
        {
          "internalType": "uint64",
          "name": "fee",
          "type": "uint64"
        }
      ],
      "name": "setListingFee",
      "outputs": [],
      "stateMutability": "nonpayable",
      "type": "function"
    },
    {
      "inputs": [
        {
          "internalType": "uint256",
          "name": "playerId",
          "type": "uint256"
        },
        {
          "internalType": "bytes32",
          "name": "documentHash",
          "type": "bytes32"
        }
      ],
      "name": "setMedicalClearance",
      "outputs": [],
      "stateMutability": "nonpayable",
      "type": "function"
    },
    {
      "inputs": [
        {
          "internalType": "uint256",
          "name": "playerId",
          "type": "uint256"
        },
        {
          "internalType": "address",
          "name": "actor",
          "type": "address"
        }
      ],
      "name": "setMedicalVerified",
      "outputs": [],
      "stateMutability": "nonpayable",
      "type": "function"
    },
    {
      "inputs": [
        {
          "internalType": "uint256",
          "name": "playerId",
          "type": "uint256"
        },
        {
          "internalType": "address",
          "name": "wallet",
          "type": "address"
        }
      ],
      "name": "setPlayerWallet",
      "outputs": [],
      "stateMutability": "nonpayable",
      "type": "function"
    },
    {
      "inputs": [
        {
          "internalType": "uint16",
          "name": "bps",
          "type": "uint16"
        }
      ],
      "name": "setProtocolFeeBps",
      "outputs": [],
      "stateMutability": "nonpayable",
      "type": "function"
    },
    {
      "inputs": [
        {
          "internalType": "uint64",
          "name": "fee",
          "type": "uint64"
        }
      ],
      "name": "setRegistrationFee",
      "outputs": [],
      "stateMutability": "nonpayable",
      "type": "function"
    },
    {
      "inputs": [
        {
          "internalType": "uint256",
          "name": "playerId",
          "type": "uint256"
        },
        {
          "internalType": "uint256",
          "name": "amount",
          "type": "uint256"
        }
      ],
      "name": "setReleaseClause",
      "outputs": [],
      "stateMutability": "nonpayable",
      "type": "function"
    },
    {
      "inputs": [
        {
          "internalType": "address",
          "name": "mgr",
          "type": "address"
        }
      ],
      "name": "setTerminationManager",
      "outputs": [],
      "stateMutability": "nonpayable",
      "type": "function"
    },
    {
      "inputs": [
        {
          "internalType": "address",
          "name": "renderer",
          "type": "address"
        }
      ],
      "name": "setTokenURIRenderer",
      "outputs": [],
      "stateMutability": "nonpayable",
      "type": "function"
    },
    {
      "inputs": [
        {
          "internalType": "uint256",
          "name": "playerId",
          "type": "uint256"
        },
        {
          "internalType": "bool",
          "name": "active",
          "type": "bool"
        }
      ],
      "name": "setVerificationActive",
      "outputs": [],
      "stateMutability": "nonpayable",
      "type": "function"
    },
    {
      "inputs": [
        {
          "internalType": "uint256",
          "name": "fee",
          "type": "uint256"
        }
      ],
      "name": "setVerificationFee",
      "outputs": [],
      "stateMutability": "nonpayable",
      "type": "function"
    },
    {
      "inputs": [
        {
          "internalType": "uint256",
          "name": "playerId",
          "type": "uint256"
        },
        {
          "internalType": "bytes32",
          "name": "registrationContractHash",
          "type": "bytes32"
        },
        {
          "internalType": "bytes32",
          "name": "fifaTMSHash",
          "type": "bytes32"
        },
        {
          "internalType": "bytes32",
          "name": "workPermitHash",
          "type": "bytes32"
        }
      ],
      "name": "submitLegalDocuments",
      "outputs": [],
      "stateMutability": "nonpayable",
      "type": "function"
    },
    {
      "inputs": [
        {
          "internalType": "bytes4",
          "name": "interfaceId",
          "type": "bytes4"
        }
      ],
      "name": "supportsInterface",
      "outputs": [
        {
          "internalType": "bool",
          "name": "",
          "type": "bool"
        }
      ],
      "stateMutability": "view",
      "type": "function"
    },
    {
      "inputs": [],
      "name": "symbol",
      "outputs": [
        {
          "internalType": "string",
          "name": "",
          "type": "string"
        }
      ],
      "stateMutability": "view",
      "type": "function"
    },
    {
      "inputs": [],
      "name": "terminationManager",
      "outputs": [
        {
          "internalType": "address",
          "name": "",
          "type": "address"
        }
      ],
      "stateMutability": "view",
      "type": "function"
    },
    {
      "inputs": [
        {
          "internalType": "uint256",
          "name": "playerId",
          "type": "uint256"
        }
      ],
      "name": "tokenURI",
      "outputs": [
        {
          "internalType": "string",
          "name": "",
          "type": "string"
        }
      ],
      "stateMutability": "view",
      "type": "function"
    },
    {
      "inputs": [],
      "name": "tokenURIRenderer",
      "outputs": [
        {
          "internalType": "contract IPlayerTokenURIRenderer",
          "name": "",
          "type": "address"
        }
      ],
      "stateMutability": "view",
      "type": "function"
    },
    {
      "inputs": [],
      "name": "totalPausedDuration",
      "outputs": [
        {
          "internalType": "uint256",
          "name": "",
          "type": "uint256"
        }
      ],
      "stateMutability": "view",
      "type": "function"
    },
    {
      "inputs": [],
      "name": "totalPlayers",
      "outputs": [
        {
          "internalType": "uint256",
          "name": "",
          "type": "uint256"
        }
      ],
      "stateMutability": "view",
      "type": "function"
    },
    {
      "inputs": [
        {
          "internalType": "address",
          "name": "",
          "type": "address"
        },
        {
          "internalType": "address",
          "name": "",
          "type": "address"
        },
        {
          "internalType": "uint256",
          "name": "",
          "type": "uint256"
        }
      ],
      "name": "transferFrom",
      "outputs": [],
      "stateMutability": "pure",
      "type": "function"
    },
    {
      "inputs": [],
      "name": "unpause",
      "outputs": [],
      "stateMutability": "nonpayable",
      "type": "function"
    },
    {
      "inputs": [
        {
          "internalType": "uint256",
          "name": "playerId",
          "type": "uint256"
        },
        {
          "internalType": "uint256",
          "name": "askingPrice",
          "type": "uint256"
        }
      ],
      "name": "updateAskingPrice",
      "outputs": [],
      "stateMutability": "nonpayable",
      "type": "function"
    },
    {
      "inputs": [
        {
          "internalType": "address",
          "name": "newImplementation",
          "type": "address"
        },
        {
          "internalType": "bytes",
          "name": "data",
          "type": "bytes"
        }
      ],
      "name": "upgradeToAndCall",
      "outputs": [],
      "stateMutability": "payable",
      "type": "function"
    },
    {
      "inputs": [
        {
          "internalType": "uint256",
          "name": "",
          "type": "uint256"
        }
      ],
      "name": "verificationActive",
      "outputs": [
        {
          "internalType": "bool",
          "name": "",
          "type": "bool"
        }
      ],
      "stateMutability": "view",
      "type": "function"
    },
    {
      "inputs": [
        {
          "internalType": "uint256",
          "name": "amount",
          "type": "uint256"
        }
      ],
      "name": "withdrawFees",
      "outputs": [],
      "stateMutability": "nonpayable",
      "type": "function"
    },
    {
      "inputs": [],
      "name": "withdrawRegistrarFees",
      "outputs": [],
      "stateMutability": "nonpayable",
      "type": "function"
    }
  ],
  "bytecode": "0x60a080604052346100c257306080525f51602061608c5f395f51905f525460ff8160401c166100b3576002600160401b03196001600160401b03821601610060575b604051615fc590816100c78239608051818181612ee001526130940152f35b6001600160401b0319166001600160401b039081175f51602061608c5f395f51905f525581527fc7f505b2f371ae2175ee4913f4499e1f2633a7b5936321eed1cdaeb6115181d290602090a15f80610041565b63f92ee8a960e01b5f5260045ffd5b5f80fdfe60806040526004361015610011575f80fd5b5f5f3560e01c80625cf9ba14614b5157806301ffc9a714614ac9578063045f616c14614a875780630510d81014614a6a57806306fdde031461499b578063081812fc14614953578063095ea7b31461492a5780630a32e297146140475780630de3e6651461401d57806313c77ef414613fd857806314c44e0914613fac5780631809c40e14613f005780631da5568014613ed95780631e08e2e914613ea05780631ed28f4a14613dcb57806323b872dd14613dab578063248a9ca314613d8557806324d4275c14613cfe578063256123d914613ce1578063281b482614613b5c578063298683431461385157806329d0eb34146137a15780632ae70103146137725780632f2ff15d146137405780632ffeb8a614613707578063302d2a87146136cd5780633067c650146136af57806332f65ba3146134375780633354562214612b7357806335659fb81461341257806336568abe146133cd5780633f4ba83a1461332157806342842e0e146132f0578063459d3d8f146132c257806347d22159146132245780634f1ef286146130545780635229696814612f3457806352d1902d14612ecd57806353fb337914611f075780635889966714612e555780635c975abb14612e265780635e318e0714612d4b57806360e49e4414612d235780636352211e1461157f578063663d112a14612c8d5780636a1b7ecc14612c645780636c64469814612bda5780636cc232e914612ba05780636ce76f3014612b785780636d947e4b14612b73578063709b6cf814612b4a57806370a0823114612af8578063717a603314612a4f57806375b238fc14612a275780637b9ea296146128cb5780637e41162b1461281d5780637f107c5f146126d8578063803db96d146126af5780638456cb591461263857806384a7fce6146120ea57806386074985146120ce57806391d14854146120785780639395039c14611ff457806395d89b4114611f0c578063968de9ab14611f075780639beca04e14611ece5780639c69792214611d895780639ecd7bae14611d48578063a0d596cc14611c99578063a217fddf14611c7d578063a22cb46514611c57578063a99e8fba14611bd5578063aabfa37d14611bae578063aae9d5f214611ace578063ad3cb1cc14611a85578063b7e3172b146119ea578063b88d4fde14611998578063bbc652f91461196e578063bc063e1a1461194e578063be37b12c146118b3578063c5da628114611805578063c87b56dd146115b0578063d3a28d6a1461157f578063d491d1ac1461139a578063d50bac3314611371578063d547741f14611336578063d72c6f2014611226578063d8541cf614610f8b578063e55ae4e814610c8d578063e8fa92bf14610b96578063e985e9c514610b1e578063ee3ee5b814610a67578063eea246db146107ea578063f3ee48bb14610753578063f60cdcf614610735578063f68e95531461070d578063f759c22d1461065a578063f8c7f5a2146105f9578063f9ab6db914610544578063fadd4603146104fc578063fc8045b1146104d45763ff87a5f51461047b575f80fd5b346104d15760203660031901126104d157610494614b99565b61049c615079565b6001600160a01b031680156104c257600180546001600160a01b03191691909117905580f35b63d92e233d60e01b8252600482fd5b80fd5b50346104d157806003193601126104d15760206040515f516020615f305f395f51905f528152f35b50346104d15760203660031901126104d157610516614b99565b61051e615079565b6001600160a01b031680156104c257600280546001600160a01b03191691909117905580f35b50346104d15760203660031901126104d1576001600160a01b03610566614b99565b168152600f60205260408120604051908160208254918281520190819285526020852090855b8181106105e357505050826105a2910383614cf4565b604051928392602084019060208552518091526040840192915b8181106105ca575050500390f35b82518452859450602093840193909201916001016105bc565b825484526020909301926001928301920161058c565b50346104d15760203660031901126104d1576040610615614b99565b915f516020615f305f395f51905f5281525f516020615df05f395f51905f52602052209060018060a01b03165f52602052602060ff60405f2054166040519015158152f35b50346104d157806003193601126104d15761067361519d565b6002600954146106fe5760026009553381526017602052604081205480156106ef573380835260176020526040832083905582546106bb9183916001600160a01b03166159cb565b6040519081527f839b947ae76e4d03915141ffba2ebccafb67868fe86a7671ff586afae8892af760203392a2600160095580f35b630686827b60e51b8252600482fd5b6306fda65d60e31b8152600490fd5b50346104d157806003193601126104d15760206040515f516020615e305f395f51905f528152f35b50346104d157806003193601126104d1576020600c54604051908152f35b50346104d15760203660031901126104d15761076d614b99565b610775615079565b6001600160a01b031680156104c257600680546001600160a01b03191682179055426202a30081019081106107d6576020817f686003c563ac6d53a1e0d2aea06fc73beb941f8f05f3463b33b607717aabc67f92600755604051908152a280f35b634e487b7160e01b83526011600452602483fd5b50346104d15760603660031901126104d157610804614b99565b906024356001600160401b038111610a6357610824903690600401614bff565b61082f939193614bc5565b90610838615079565b6001600160a01b038316918215610a54576001600160a01b0316928315610a54578115610a455760408211610a2c575f516020615f305f395f51905f5285525f516020615df05f395f51905f5260205260408520835f5260205260ff60405f205416610a18575f516020615e305f395f51905f5285525f516020615df05f395f51905f5260205260408520845f5260205260ff60405f20541615610a04576108df90615522565b50818452601460205260408420946001600160401b0382116109f05761090f826109098854614ddb565b88614eb7565b8495601f831160011461098057610940838088995f516020615dd05f395f51905f5297989991610975575b50614ef1565b90555b8386526015602052604080872080546001600160a01b031916871790555191829161096f919083614f9e565b0390a380f35b90508401355f61093a565b80865260208620601f19841697875b8981106109d85750845f516020615dd05f395f51905f5296979899106109bf575b5050600183811b019055610943565b8301355f19600386901b60f8161c191690555f806109b0565b9091602060018192858801358155019301910161098f565b634e487b7160e01b85526041600452602485fd5b63bc0369a760e01b85526004849052602485fd5b63a97fceaf60e01b85526004839052602485fd5b63243cf1c960e01b855260048290526040602452604485fd5b63ecd7b0d160e01b8552600485fd5b63d92e233d60e01b8552600485fd5b5080fd5b50346104d15760203660031901126104d157610a81614b99565b610a89615079565b5f516020615e305f395f51905f5282525f516020615df05f395f51905f526020526040822060018060a01b0382165f5260205260ff60405f20541615610b0357610ad2816158c4565b506001600160a01b03167f05526ad2320f63e40599040a4504620b508d26bf57ebfaac890b651e2c5c34e68280a280f35b63bc0369a760e01b82526001600160a01b0316600452602490fd5b50346104d15760403660031901126104d157610b38614b99565b610b40614baf565b915060018060a01b03165f527f80bb2b638cc20bc4d0a60d66940f3ab4a00c1d7b313497ca82fb0b4ab007930560205260405f209060018060a01b03165f52602052602060ff60405f2054166040519015158152f35b50346104d15760203660031901126104d157600435610bb36150c2565b610bbc81615633565b336001600160a01b0390911603610c7757610bd5615662565b808252600d602052604082205415610c6557808252600d602052600960408320015460f81c15610c5357808252600d6020818152604080852060090180546001600160f81b0316905583855291905282206005018290557f730bb3d177f199acb749ca25b9288c64178cd10b945419c3cdf5bcff119ac0b28280a280f35b631332ae4b60e11b8252600452602490fd5b6353bd43d960e01b8252600452602490fd5b6315884f4560e11b825260045233602452604490fd5b50346104d15760203660031901126104d157600435906060610200604051610cb481614cbd565b83815282602082015282604082015282808201528360808201528360a08201528360c08201528360e08201528361010082015283610120820152836101408201528361016082015283610180820152836101a0820152836101c0820152836101e08201520152818152600d602052604081205415610f795780610f759260409252600d60205220600b610e5460405192610d4d84614cbd565b80548452604051610d6c81610d658160018601614e13565b0382614cf4565b6020850152604051610d8581610d658160028601614e13565b6040850152604051610d9e81610d658160038601614e13565b606085015260048101546080850152600581015460a0850152600681015460c0850152600781015460e08501526008810154610100850152600981015460018060a01b03811661012086015264ffffffffff8160a01c1661014086015264ffffffffff8160c81c1661016086015260ff8160f01c16151561018086015260f81c15156101a085015260ff600a82015481811615156101c087015260081c1615156101e0850152610d656040518094819301614e13565b6102008201526040519182916020835280516020840152610200610ebb610ea5610e8f60208501516102206040890152610240880190614bdb565b6040850151878203601f19016060890152614bdb565b6060840151868203601f19016080880152614bdb565b91608081015160a086015260a081015160c086015260c081015160e086015260e081015161010086015261010081015161012086015260018060a01b036101208201511661014086015264ffffffffff6101408201511661016086015264ffffffffff6101608201511661018086015261018081015115156101a08601526101a081015115156101c08601526101c081015115156101e08601526101e08101511515828601520151601f1984830301610220850152614bdb565b0390f35b6024916353bd43d960e01b8252600452fd5b50346104d15760803660031901126104d15760643590600435602435604435610fb26150c2565b610fbb83615633565b336001600160a01b039091160361120e57610fd4615662565b828452600d6020526040842054156111fa5781156111eb5780156111eb578082146111dc5784151580806111d3575b6111bb5780806111ca575b6111bb57838552601360205260ff6040862054166111a757838552600e60205261105886600260408820611043878254615a23565b611051866001830154615a23565b0154615a23565b828552601160205260ff60408620541661119357818552601160205260ff60408620541661117f578080611169575b61115557829186600392611112958852601160205260408820600160ff19825416179055828852601160205260408820600160ff19825416179055611139575b604051936110d485614cd9565b845260208401918252604084019081526060840191878352868852600e60205260408820945185555160018501555160028401555115159101614f28565b7f3f83989b93fff65ebbe421cc2147f8297134c7f8a440a07ff7de2f6f31ac0ca08280a280f35b808752601160205260408720805460ff191660011790556110c7565b63f2f8f56b60e01b85526004869052602485fd5b50858552601160205260ff604086205416611087565b63f2f8f56b60e01b85526004829052602485fd5b63f2f8f56b60e01b85526004839052602485fd5b6311261a2360e11b85526004849052602485fd5b63a822202960e01b8552600485fd5b5081861461100e565b50828614611003565b63a822202960e01b8452600484fd5b638e03edc960e01b8452600484fd5b6353bd43d960e01b84526004839052602484fd5b6315884f4560e11b8452600483905233602452604484fd5b50346104d15760403660031901126104d157600435611243614baf565b61124b61510b565b818352600d60205260408320541561132257818352600d60205260408320600901546001600160a01b03168061130f575b50818352600d6020908152604080852060090180546001600160a01b0319169055838552601890915283206003015460ff166112e4575b6001600160a01b0316907fe2c6a05f2c55d1efebd0ca043a678df3948c072bb16ae665f19b47dc3d625d288380a380f35b81835260186020526112f860408420614fe3565b815f516020615c305f395f51905f528480a26112b3565b835260196020528260408120555f61127c565b6353bd43d960e01b83526004829052602483fd5b50346104d15760403660031901126104d15761136d600435611356614baf565b9061136861136382614fc5565b6151e6565b615942565b5080f35b50346104d157806003193601126104d1576001546040516001600160a01b039091168152602090f35b50346104d15760403660031901126104d1576004356113b7614baf565b818352600d60205260408320600901546001600160a01b03163303611567576113de615662565b818352600d602052604083205415611322576001600160a01b031690811561155857808352600d60205260408320600901546001600160a01b0316821461154357808352601860205260ff600360408520015416611531578183526019602052604083205480151580611527575b61151057506202a30042018042116114fc5760207f9156013346739c9fc08c49672c3cdf916e38eff09544a83f499715e2dfad8b43916114f2600b5460036040519161149783614cd9565b88835285830185815260408085019283526001606086018181528b8e5260188a52918d20955186546001600160a01b0319166001600160a01b0391909116178655915191850191909155905160028401555115159101614f28565b604051908152a380f35b634e487b7160e01b84526011600452602484fd5b636f3208b360e01b84526004839052602452604483fd5b508181141561144c565b63619bbaeb60e11b8352600452602482fd5b636cf5528360e01b8352600452602452604490fd5b63d92e233d60e01b8352600483fd5b63158f740d60e01b8352600482905233602452604483fd5b50346104d15760203660031901126104d157602061159e600435615633565b6040516001600160a01b039091168152f35b50346104d15760203660031901126104d157600435808252600d602052604082205415610c655781600360ff9261172860018060a01b036001541691808552600d60205260408520908552600e60205260408520604051968795869485946311ca7c6960e21b865260a06004870152805460a487015261022060c4870152600b61167161165c6116476102c48a0160018601614e13565b89810360a3190160e48b015260028501614e13565b88810360a319016101048a0152838601614e13565b91600481015461012489015260058101546101448901526006810154610164890152600781015461018489015260088101546101a4890152600981015460018060a01b0381166101c48a015264ffffffffff8160a01c166101e48a015264ffffffffff8160c81c166102048a0152868160f01c1615156102248a015260f81c151561024489015285600a82015481811615156102648b015260081c16151561028489015260a319888403016102a489015201614e13565b928054602486015260018101546044860152600281015460648601520154161515608483015203915afa9081156117fa578291611776575b60405160208082528190610f7590820185614bdb565b90503d8083833e6117878183614cf4565b8101906020818303126117f6578051906001600160401b0382116117f2570181601f820112156117f6578051906117bd82614d17565b926117cb6040519485614cf4565b828452602083830101116117f25781610f75949260208093018386015e830101525f611760565b8380fd5b8280fd5b6040513d84823e3d90fd5b50346104d15760203660031901126104d15761181f614c3b565b611827615079565b6001600160401b038116906402540be40082116118965760028054600160a01b600160e01b03191660a09290921b600160a01b600160e01b03169190911790556040519081527f3836764761eb705a9815e9070541f9a604757da847d45d157a28f14b58b5f5e690602090a180f35b6373ab893560e11b835260048290526402540be400602452604483fd5b50346104d15760203660031901126104d15760043561ffff8116908181036117f6576118dd615079565b6107d08211611934576003805461ffff60801b191660809290921b61ffff60801b169190911790556040519081527f1f7984367beac902572c9bfc73b4727796e98a777f5b13cb2b87d78b64d4d14090602090a180f35b631a7fbad960e01b835260048290526107d0602452604483fd5b50346104d157806003193601126104d15760206040516402540be4008152f35b50346104d15760203660031901126104d15761136d61198b614b99565b611993615079565b615846565b50346104d15760803660031901126104d1576119b2614b99565b506119bb614baf565b506064356001600160401b038111610a6357906119dd60049236908401614d68565b50633ee6509d60e01b8152fd5b50346104d15760203660031901126104d157600435611a076150c2565b611a1081615633565b336001600160a01b0390911603610c7757808252600d602052604082205415610c6557808252601860205260ff60036040842001541615611a73578082526018602052611a5f60408320614fe3565b5f516020615c305f395f51905f528280a280f35b63b24011b160e01b8252600452602490fd5b50346104d157806003193601126104d15750610f75604051611aa8604082614cf4565b60058152640352e302e360dc1b6020820152604051918291602083526020830190614bdb565b50346104d15760203660031901126104d157600435611aeb61519d565b6402540be4008111611b935760035460401c6001600160401b031680158015611b4e575b505033825260166020528060408320556040519081527fc087ad6d1af0681c75442debe27cf1a98acacd8ef89841000e388c6403b9bbb360203392a280f35b6107d08202908282046107d01417156114fc5790612710611b70920490614e94565b808211611b7d5780611b0f565b604492916347d04c5960e11b8352600452602452fd5b6373ab893560e11b82526004526402540be400602452604490fd5b50346104d157806003193601126104d157546040516001600160a01b039091168152602090f35b50346104d15760403660031901126104d157600435611bf2614baf565b611bfa61510b565b818352600d60205260408320541561132257818352600e60205260408320600301805460ff191660011790556001600160a01b0316907fed2c2ce3d8062cf2c584e4704b6b6c06054e976cdc006ae754859d9de41eb0a08380a380f35b50346104d15760403660031901126104d157600490611c74614b99565b506119dd614c2c565b50346104d157806003193601126104d157602090604051908152f35b50346104d15760203660031901126104d157611cb3614b99565b611cbb615079565b6001600160a01b038116908115611558575f516020615e305f395f51905f5283525f516020615df05f395f51905f5260205260408320825f5260205260ff60405f205416611d3457611d0c906154a2565b507f6a7c5c367a424b90c40d24c7782472dac06c017153422ee2142f8159719ce0258280a280f35b637f0227a360e01b83526004829052602483fd5b50346104d15760203660031901126104d1576020906001600160a01b03611d6d614b99565b16815260158252604060018060a01b0391205416604051908152f35b50346104d15760203660031901126104d157600435808252600d602052604082205415610c655780825260186020526040822060ff60038201541615611eba57611de7611ddd600b54600284015490614ffa565b6001830154614e94565b804210611e9f5750818352600d60205260018060a01b036009604085200154169060018060a01b03905416918084526018602052611e2760408520614fe3565b81611e8c575b828452601960209081526040808620839055828652600d909152842060090180546001600160a01b0319166001600160a01b0385161790557fdc4a16aede312567e937542ab0822ff675ccbc957ac789deb0303c0b2f825db18480a480f35b8184526019602052836040812055611e2d565b633415f16160e01b8452600483905260245242604452606483fd5b63b24011b160e01b83526004829052602483fd5b50346104d15760203660031901126104d1576020906040906001600160a01b03611ef6614b99565b168152601783522054604051908152f35b614d86565b50346104d157806003193601126104d15760405190805f516020615f105f395f51905f525490611f3b82614ddb565b8085529160018116908115611fcd5750600114611f77575b610f7584611f6381860382614cf4565b604051918291602083526020830190614bdb565b5f516020615f105f395f51905f5281525f516020615c905f395f51905f52939250905b808210611fb357509091508101602001611f6382611f53565b919260018160209254838588010152019101909291611f9a565b60ff191660208087019190915292151560051b85019092019250611f639150839050611f53565b50346104d15760403660031901126104d157600435612011614baf565b61201961510b565b818352600d60205260408320541561132257818352600d60205260408320600a01805461ff0019166101001790556001600160a01b0316907f8b95d4c1f70545e3211da8c10f5ba1da89e0235f4aeb3b3fc06affdaa74fb5648380a380f35b50346104d15760403660031901126104d1576040612094614baf565b9160043581525f516020615df05f395f51905f52602052209060018060a01b03165f52602052602060ff60405f2054166040519015158152f35b50346104d157806003193601126104d157602060405160408152f35b50346104d15760803660031901126104d157612104614b99565b6024356001600160401b03811691908281036117f2576044356001600160401b03811690819003612634576064356001600160a01b0381169290839003612630575f516020615ef05f395f51905f5254604081901c60ff161594906001600160401b031680159081612628575b600114908161261e575b159081612615575b50612606575f516020615ef05f395f51905f5280546001600160401b0319166001179055846125e2575b6001600160a01b03169485156125d35783156125d3576402540be40081116125b857506402540be400821161259b5760409485516121eb8782614cf4565b60128152712a3930b739b332b934bab690283630bcb2b960711b60208201528651906122178883614cf4565b60048252630545246560e41b6020830152612230615b38565b612238615b38565b8051906001600160401b038211612587576122605f516020615c705f395f51905f5254614ddb565b601f8111612540575b50602090601f83116001146124c45761228c92918b91836123d7575b5050614ef1565b5f516020615c705f395f51905f52555b8051906001600160401b0382116124b0576122c45f516020615f105f395f51905f5254614ddb565b601f811161245e575b50602090601f83116001146123e2576122ef92918a91836123d7575050614ef1565b5f516020615f105f395f51905f52555b612307615b38565b61230f615b38565b600160095586546001600160a01b031990811691909117875560028054600160a01b600160e01b03191660a09390931b600160a01b600160e01b031692909217909155600380546001600160401b031916929092179091556005805490911691909117905561237d336153b1565b5061238733615422565b50612390575080f35b5f516020615ef05f395f51905f52805460ff60401b1916905551600181527fc7f505b2f371ae2175ee4913f4499e1f2633a7b5936321eed1cdaeb6115181d290602090a180f35b015190505f80612285565b5f516020615f105f395f51905f528a52818a209190601f1984168b5b818110612446575090846001959493921061242e575b505050811b015f516020615f105f395f51905f52556122ff565b01515f1960f88460031b161c191690555f8080612414565b929360206001819287860151815501950193016123fe565b5f516020615f105f395f51905f528a526124a0905f516020615c905f395f51905f52601f850160051c810191602086106124a6575b601f0160051c0190614ea1565b5f6122cd565b9091508190612493565b634e487b7160e01b89526041600452602489fd5b5f516020615c705f395f51905f528b52818b209190601f1984168c5b8181106125285750908460019594939210612510575b505050811b015f516020615c705f395f51905f525561229c565b01515f1960f88460031b161c191690555f80806124f6565b929360206001819287860151815501950193016124e0565b5f516020615c705f395f51905f528b52612581905f516020615f505f395f51905f52601f850160051c810191602086106124a657601f0160051c0190614ea1565b5f612269565b634e487b7160e01b8a52604160045260248afd5b6373ab893560e11b865260048290526402540be400602452604486fd5b6373ab893560e11b87526004526402540be400602452604486fd5b63d92e233d60e01b8752600487fd5b5f516020615ef05f395f51905f52805460ff60401b1916600160401b1790556121ad565b63f92ee8a960e01b8752600487fd5b9050155f612183565b303b15915061217b565b869150612171565b8580fd5b8480fd5b50346104d157806003193601126104d157612651615079565b42600a5561265d615662565b600160ff195f516020615e505f395f51905f525416175f516020615e505f395f51905f52557f62e78cea01bee320cd4e420270b5ea74000d11b0c9f74754ebdbfc544b05a2586020604051338152a180f35b50346104d157806003193601126104d1576005546040516001600160a01b039091168152602090f35b50346104d1576126e736614c8b565b6126ef6150c2565b6126f882615633565b336001600160a01b039091160361280557612711615662565b818352600d60205260408320541561132257818352600d6020526040832060098101805460ff8160f01c16156127f15760f81c6127dd57918060056020937f561c3416be862008e42c047485cffa3005672af024d117176d50f73461a88e4c9560018060401b0360035416806127a2575b5080546001600160f81b0316600160f81b1790550155604051908152a280f35b89546127bb9190309033906001600160a01b0316615689565b6003546008546127d4916001600160401b031690614e94565b6008555f612782565b635423ae7360e01b85526004849052602485fd5b6334a8bcef60e01b86526004859052602486fd5b6315884f4560e11b8352600482905233602452604483fd5b50346104d15760403660031901126104d15760043561283a614baf565b61284261510b565b818352600d60205260408320541561132257818352600d60205260408320600901805460ff60f01b1916600160f01b1790556001600160a01b03169081817fb0362fc6491538fb6678490452845f8ad657e21a73e47a0ee8d96382b743c1648580a37f37874770a804a7f707dcd526cb63a107863b9244f5487cc592b592806c8aa7678380a380f35b50346104d15760403660031901126104d1576004356128e8614baf565b6128f06150c2565b6128f982615633565b336001600160a01b039091160361280557612912615662565b818352600d602052604083205415611322576001600160a01b031690811561155857808352600d60205260408320600901546001600160a01b0316821461154357808352601360205260ff604084205416612a15578183526019602052604083205480151580612a0b575b6115105750808352600d60205260408320600901546001600160a01b0316806129f8575b50818352601960209081526040808520839055828552600d909152832060090180546001600160a01b031916831790557f1b808932b8c3b514083772af7b7d61295f17204a7d2ba98b5f46c08e766c25a78380a380f35b835260196020528260408120555f6129a1565b508181141561297d565b6311261a2360e11b8352600452602482fd5b50346104d157806003193601126104d15760206040515f516020615e905f395f51905f528152f35b50346104d15760403660031901126104d15760043560243564ffffffffff8116908181036117f257612a7f6150c2565b612a8883615633565b336001600160a01b039091160361120e57612aa1615662565b828452600d6020526040842054156111fa577f2bfea865c31234064fed3b7148737e69eee440ca711e22dcf3d1b22ba2f66a5f91612aee602092858752600d845260096040882001614f03565b604051908152a280f35b50346104d15760203660031901126104d157612b12614b99565b906001600160a01b03821615612b36576020612b2d83614da3565b54604051908152f35b6322718ad960e21b81526004819052602490fd5b50346104d157806003193601126104d1576002546040516001600160a01b039091168152602090f35b614ca1565b50346104d157806003193601126104d15760206040515f516020615cb05f395f51905f528152f35b50346104d15760203660031901126104d157612bba614b99565b612bc2615079565b6001600160a01b038116156104c25761136d90615331565b50346104d15760203660031901126104d1576040608091612bf9615055565b506004358152601860205220604051612c1181614cd9565b60018060a01b0382541691828252600181015460208301908152606060ff600360028501549460408701958652015416930192151583526040519384525160208401525160408301525115156060820152f35b50346104d157806003193601126104d1576003546040516001600160401b039091168152602090f35b50346104d15760203660031901126104d15760043590612cab615055565b50818152600d602052604081205415610f79578060809260409252600e60205220604051612cd881614cd9565b815491828252600181015460208301908152606060ff600360028501549460408701958652015416930192151583526040519384525160208401525160408301525115156060820152f35b50346104d157806003193601126104d15760206040515f516020615d905f395f51905f528152f35b50346104d15760203660031901126104d157600435612d68615079565b600260095414612e175760026009558015612e0857600854808211612df25781612d9191614ffa565b6008558154600554612db19183916001600160a01b0390811691166159cb565b6005546040519182526001600160a01b0316907fc0819c13be868895eb93e40eaceb96de976442fa1d404e5c55f14bb65a8c489a90602090a2600160095580f35b6044929163ac28c08360e01b8352600452602452fd5b631f2a200560e01b8252600482fd5b6306fda65d60e31b8252600482fd5b50346104d157806003193601126104d157602060ff5f516020615e505f395f51905f5254166040519015158152f35b50346104d15760203660031901126104d157612e6f614c3b565b612e77615079565b6001600160401b03166402540be4008111611b9357600380546001600160401b031916821790556040519081527f1e824c7e20e36968ef401e2236f2bf4779d7c0792b029593bb95c98f3567ca5590602090a180f35b50346104d157806003193601126104d1577f00000000000000000000000000000000000000000000000000000000000000006001600160a01b03163003612f255760206040515f516020615d505f395f51905f528152f35b63703e46dd60e11b8152600490fd5b50346104d15760203660031901126104d157612f4e614b99565b612f56615079565b5f516020615f305f395f51905f5282525f516020615df05f395f51905f526020526040822060018060a01b0382165f5260205260ff60405f20541615613039576001600160a01b038116808352600f602052604083205490919061301557612fbd906157c8565b5080825260156020908152604080842080546001600160a01b031916905582845260149091528220612fee90615007565b7ff7e8d19c1965c93ed28c89fdcdadb0a7ff3199071e854a2dac708a1167893dd28280a280f35b818352600f60205260408320546329a55f4160e11b84526004839052602452604483fd5b631b209e1560e01b82526001600160a01b0316600452602490fd5b5060403660031901126104d157613069614b99565b906024356001600160401b038111610a6357613089903690600401614d68565b916001600160a01b037f000000000000000000000000000000000000000000000000000000000000000016308114908115613202575b506131f3576130cc615079565b6040516352d1902d60e01b8152926001600160a01b0382169190602085600481865afa809585966131bf575b5061311157634c9c8ce360e01b84526004839052602484fd5b9091845f516020615d505f395f51905f5281036131ad5750823b1561319b575f516020615d505f395f51905f5280546001600160a01b031916821790557fbc7cd75a20ee27fd9adebab32041f755214dbc6bffa90cc0225b39da2e5c2d3b8480a28051156131825761136d91615b63565b50503461318c5780f35b63b398979f60e01b8152600490fd5b634c9c8ce360e01b8452600452602483fd5b632a87526960e21b8552600452602484fd5b9095506020813d6020116131eb575b816131db60209383614cf4565b810103126126345751945f6130f8565b3d91506131ce565b63703e46dd60e11b8252600482fd5b5f516020615d505f395f51905f52546001600160a01b0316141590505f6130bf565b50346104d157806003193601126104d15761323d615079565b60075480156132b35780421061329d5750600580546006546001600160a01b039081166001600160a01b0319831681179093556007849055167f0c5d18caa145415182f8ad3d2563da586609cec04ac8505274d87bc43f00b4a48380a380f35b636769976d60e11b825260045242602452604490fd5b6315090c2d60e01b8252600482fd5b50346104d15760203660031901126104d1576132dc61510b565b6132ea600435600854614e94565b60085580f35b50346104d15760049061330236614c51565b50505080604051613314602082614cf4565b52633ee6509d60e01b8152fd5b50346104d157806003193601126104d15761333a615079565b600a54806133ab575b505f516020615e505f395f51905f525460ff81161561339c5760ff19165f516020615e505f395f51905f52557f5db9ee0a495bf2e6ff9c91a7834c1ba4fdd244a5e8aa4e537bd38aeae4b073aa6020604051338152a180f35b638dfc202b60e01b8252600482fd5b6133b86133c09142614ffa565b600b54614e94565b600b5580600a555f613343565b50346104d15760403660031901126104d1576133e7614baf565b336001600160a01b038216036134035761136d90600435615942565b63334bd91960e11b8252600482fd5b50346104d157806003193601126104d157602061ffff60035460801c16604051908152f35b50346104d15760603660031901126104d15760043590613455614baf565b9161345e614bc5565b92613467615154565b818352600d602052604083205415611322576001600160a01b0381169384156136a0576001600160a01b038116918215610a54576002546001600160a01b031680613647575b5061354f9084865260136020526040862060ff198154169055848652600d602052856007604082206009810160018060f81b038154169055826005820155826006820155600a810161ffff1981541690550180548061362b575b5050859052600e602052600260408720805480613612575b506001810154806135f9575b500154806135e0575b50848652600e60205261354960408720614fe3565b8461571b565b818452600f6020526135648360408620614f62565b6001600160a01b0390613578908490615a7c565b16938461359357637e27328960e01b84526004839052602484fd5b9091848281036135c557507f5f5adfdfb7a234b61892f9d91126bd94774a85f3ca01c5394913dd02473871398480a480f35b6364283d7b60e01b8552600492909252602452604452606482fd5b8652601160205260408620805460ff191690555f613534565b8852601160205260408820805460ff191690555f61352b565b8852601160205260408820805460ff191690555f61351f565b8252601160205260408220805460ff1916905555855f80613507565b803b156126305785809160246040518094819363281b090d60e01b83528a60048401525af1801561369557908691613680575b506134ad565b8161368a91614cf4565b61263457845f61367a565b6040513d88823e3d90fd5b63d92e233d60e01b8452600484fd5b50346104d157806003193601126104d1576020600b54604051908152f35b50346104d15760203660031901126104d1576136e7614b99565b6136ef615079565b6001600160a01b038116156104c25761136d906152b1565b50346104d15760203660031901126104d1576020906040906001600160a01b0361372f614b99565b168152601683522054604051908152f35b50346104d15760403660031901126104d15761136d600435613760614baf565b9061376d61136382614fc5565b6155a2565b50346104d15760203660031901126104d15760ff60406020926004358152601384522054166040519015158152f35b50346104d1576137b036614c8b565b906137b96150c2565b6137c281615633565b336001600160a01b039091160361383b576137db615662565b808352600d60205260408320541561382957808352600d602052600960408420015460f81c15613817578252600d602052600560408320015580f35b631332ae4b60e11b8352600452602482fd5b6353bd43d960e01b8352600452602482fd5b6315884f4560e11b835260045233602452604482fd5b5034613b46576020366003190112613b465760043561386e615154565b805f52600d60205260405f205415613b4a5761388981615633565b5f828152601360205260409020805460ff191690556002546001600160a01b031680613af4575b506139a59082845260186020526138c960408520614fe3565b828452600e602052600260408520805480613adb575b50600181015480613ac2575b50015480613aa9575b50828452600d602052600760408520015480613a90575b50828452600d602052600860408520015480613a77575b50828452600e60205261393760408520614fe3565b828452600d60205261399f600b6040862086815561395760018201615007565b61396360028201615007565b61396f60038201615007565b86600482015586600582015586600682015586600782015586600882015586600982015586600a82015501615007565b8261571b565b6139ae81615a56565b6001600160a01b03811680159190839085908415613a3c575b8282525f516020615e705f395f51905f526020526040822080546001600160a01b03191690555f516020615db05f395f51905f528280a450613a2a577f3824604e3d05494a535b1b30090518d99309f6a807bd4b8fb226d715c8c653688280a280f35b637e27328960e01b8252600452602490fd5b8282525f516020615ed05f395f51905f526020526040822080546001600160a01b0319169055613a6b84614da3565b80545f190190556139c7565b8452601260205260408420805460ff191690555f613922565b8452601160205260408420805460ff191690555f61390b565b8452601160205260408420805460ff191690555f6138f4565b8652601160205260408620805460ff191690555f6138eb565b8652601160205260408620805460ff191690555f6138df565b803b15613b46575f809160246040518094819363281b090d60e01b83528860048401525af18015613b3b57156138b057613b319193505f90614cf4565b5f916139a56138b0565b6040513d5f823e3d90fd5b5f80fd5b6353bd43d960e01b5f5260045260245ffd5b34613b46576040366003190112613b4657600435602435613b7b6150c2565b613b8482615633565b336001600160a01b0390911603613cca57613b9d615662565b815f52600d60205260405f205415613cb7578015613ca857815f52601360205260ff60405f205416613c9557815f52600d602052600760405f200154808203613c20575b505f828152600d602090815260409182902060078101849055600a01805461ffff1916600117905590519182525f516020615d105f395f51905f5291a2005b815f52601160205260ff60405f205416613c82575f516020615d105f395f51905f529181602092613c6a575b50805f526011825260405f20600160ff198254161790559150613be1565b5f526011825260405f2060ff19815416905584613c4c565b5063f2f8f56b60e01b5f5260045260245ffd5b506311261a2360e11b5f5260045260245ffd5b638e03edc960e01b5f5260045ffd5b506353bd43d960e01b5f5260045260245ffd5b506315884f4560e11b5f526004523360245260445ffd5b34613b46575f366003190112613b46576020604051620d2f008152f35b34613b4657613d0c36614c8b565b613d146150c2565b613d1d82615633565b336001600160a01b0390911603613cca57613d36615662565b815f52600d60205260405f205415613cb75760207f690f108db8205a0a5e3454acd556a06c61db73f3dd2efa674349f5347213be0791835f52600d825280600660405f200155604051908152a2005b34613b46576020366003190112613b46576020613da3600435614fc5565b604051908152f35b34613b4657613db936614c51565b505050633ee6509d60e01b5f5260045ffd5b34613b46576020366003190112613b4657613de4614c3b565b613dec615079565b6001600160401b038116906402540be4008211613e845760038054600160901b600160d01b03191660909290921b600160901b600160d01b031691909117905542620d2f008101908110613e70577f290f8d90e80a71eccded47c43e645ae2120ec4cfe6fd89930aa6bccefd5aa584918160409260045582519182526020820152a1005b634e487b7160e01b5f52601160045260245ffd5b506373ab893560e11b5f526004526402540be40060245260445ffd5b34613b46576040366003190112613b4657613ed7613ebc614c2c565b613ec461510b565b6004355f52601360205260405f20614f28565b005b34613b46575f366003190112613b465760206040515f516020615cf05f395f51905f528152f35b34613b46575f366003190112613b46576004548015613f9d57804210613f875760038054600160401b600160801b0319811660509190911c600160401b600160801b031617908190555f6004556040805191901c6001600160401b031681527f4ad3d60730744ba831e5f038d2cb01852bf947a9acde2e5312b8ab5a940dfc2a90602090a1005b6306577c3f60e01b5f526004524260245260445ffd5b636027230960e01b5f5260045ffd5b34613b46575f366003190112613b465760025460405160a09190911c6001600160401b03168152602090f35b34613b46576040366003190112613b4657613ff1614b99565b613ff961510b565b60018060a01b03165f52601760205260405f206140196024358254614e94565b9055005b34613b46575f366003190112613b46576003546040805191901c6001600160401b03168152602090f35b34613b465760c0366003190112613b46576004356001600160401b038111613b4657614077903690600401614bff565b6024356001600160401b038111613b4657614096903690600401614bff565b9290916044356001600160401b038111613b46576140b8903690600401614bff565b936064359064ffffffffff8216809203613b46576140d46150c2565b6140dc615662565b60026009541461491b576002600955831561490c57604084116148f45760a435156148e55760405160208101908587833761413660346020838981013360601b8382015260a4358482015203016014810184520182614cf4565b51902092835f52601060205260ff60405f2054166148d25760a4355f52601260205260ff60405f2054166148bd5760025460a01c6001600160401b03168061487f575b50600c54965f198814613e70576141be6141ca9360018a01600c556040519a6141a18c614cbd565b60018b018c526141b2368a8c614d32565b60208d01523691614d32565b60408a01523691614d32565b606087015260843560808701525f60a08701525f60c08701525f60e087015260a4356101008701525f61012087015261014086015264ffffffffff42166101608601525f6101808601525f6101a08601525f6101c08601525f6101e08601526020946040516142398782614cf4565b5f8152610200820152600185015f52600d865260405f2081518155602082015180519060018060401b03821161470a576142838261427a6001860154614ddb565b60018601614eb7565b8890601f8311600114614812576142a392915f918361479a575050614ef1565b60018201555b60408201518051906001600160401b03821161470a576142d9826142d06002860154614ddb565b60028601614eb7565b8890601f83116001146147a5576142f992915f918361479a575050614ef1565b60028201555b60608201518051906001600160401b03821161470a5761432f826143266003860154614ddb565b60038601614eb7565b8890601f83116001146147295782600b936102009593614356935f9261471e575050614ef1565b60038201555b6080840151600482015560a0840151600582015560c0840151600682015560e0840151600782015561010084015160088201556101208401516009820180546001600160a01b0319166001600160a01b03929092169190911781556101408501516143ce9064ffffffffff1682614f03565b61016085015181546101808701516101a08801516001600160c81b0390921660c89390931b64ffffffffff60c81b169290921791151560f01b60ff60f01b169190911790151560f81b6001600160f81b0319161790556101c0840151600a82019061443b90151582614f28565b6101e0850151151561ff0082549160081b169061ff0019161790550191015180519060018060401b03821161470a5761447e826144788554614ddb565b85614eb7565b8790601f83116001146146a75761449e92915f918361469c575050614ef1565b90555b5f526010845260405f20600160ff1982541617905560a4355f526012845260405f20600160ff19825416179055335f52600f84526144e56001840160405f20614f62565b6040516144f28582614cf4565b5f81523315614689576001600160a01b036145106001860133615a7c565b1661467657333b61455e575b506145547f2f55cde73f168db90a448e73b4193010d39de2093e075ed53a83bcab9dd0862a9160405191829160013397019583614f9e565b0390a36001600955005b8461459a9160405180938192630a85bd0160e11b83523360048401525f6024840152600189016044840152608060648401526084830190614bdb565b03815f335af15f9181614636575b506145fc57843d156145f4573d906145bf82614d17565b916145cd6040519384614cf4565b82523d5f8284013e5b815191826145f157633250574960e11b5f523360045260245ffd5b01fd5b6060906145d6565b92935090916001600160e01b03191663757a42ff60e11b016146235782919061455461451c565b633250574960e11b5f523360045260245ffd5b9091508581813d831161466f575b61464e8183614cf4565b81010312613b4657516001600160e01b031981168103613b465790866145a8565b503d614644565b6339e3563760e11b5f525f60045260245ffd5b633250574960e11b5f525f60045260245ffd5b015190508980612285565b90601f19831691845f52895f20925f5b8b8282106146f45750509084600195949392106146dc575b505050811b0190556144a1565b01515f1960f88460031b161c191690558880806146cf565b60018596829396860151815501950193016146b7565b634e487b7160e01b5f52604160045260245ffd5b015190508c80612285565b90600384015f52895f20915f5b8b601f1986168210614784575050926102009492600192600b9583601f1981161061476c575b505050811b01600382015561435c565b01515f1960f88460031b161c191690558b808061475c565b6001849582939585015181550194019201614736565b015190508a80612285565b9190600284015f52895f20905f935b8b601f19851686106147f957506001945083601f198116106147e1575b505050811b0160028201556142ff565b01515f1960f88460031b161c191690558980806147d1565b82820151845594850194600190930192909101906147b4565b9190600184015f52895f20905f935b8b601f198516861061486657506001945083601f1981161061484e575b505050811b0160018201556142a9565b01515f1960f88460031b161c1916905589808061483e565b8282015184559485019460019093019290910190614821565b5f546148989190309033906001600160a01b0316615689565b6002546008546148b49160a01c6001600160401b031690614e94565b60085588614179565b6304d5c30360e11b5f5260a43560045260245ffd5b8363b403047160e01b5f5260045260245ffd5b636406d70160e01b5f5260045ffd5b8363243cf1c960e01b5f52600452604060245260445ffd5b63ecd7b0d160e01b5f5260045ffd5b6306fda65d60e31b5f5260045ffd5b34613b46576040366003190112613b4657614943614b99565b50633ee6509d60e01b5f5260045ffd5b34613b46576020366003190112613b465760043561497081615633565b505f525f516020615ed05f395f51905f52602052602060018060a01b0360405f205416604051908152f35b34613b46575f366003190112613b46576040515f5f516020615c705f395f51905f52546149c781614ddb565b8084529060018116908115614a4657506001146149ef575b610f7583611f6381850382614cf4565b5f516020615c705f395f51905f525f9081525f516020615f505f395f51905f52939250905b808210614a2c57509091508101602001611f636149df565b919260018160209254838588010152019101909291614a14565b60ff191660208086019190915291151560051b84019091019150611f6390506149df565b34613b46575f366003190112613b46576020600854604051908152f35b34613b46576020366003190112613b46576001600160a01b03614aa8614b99565b165f526014602052610f75610d65611f6360405f2060405192838092614e13565b34613b46576020366003190112613b465760043563ffffffff60e01b8116809103613b4657602090637965db0b60e01b8114908115614b0e575b506040519015158152f35b6380ac58cd60e01b811491508115614b40575b8115614b2f575b5082614b03565b6301ffc9a760e01b14905082614b28565b635b5e139f60e01b81149150614b21565b34613b46576020366003190112613b4657614b6a614b99565b614b72615079565b6001600160a01b03811615614b8a57613ed79061522c565b63d92e233d60e01b5f5260045ffd5b600435906001600160a01b0382168203613b4657565b602435906001600160a01b0382168203613b4657565b604435906001600160a01b0382168203613b4657565b805180835260209291819084018484015e5f828201840152601f01601f1916010190565b9181601f84011215613b46578235916001600160401b038311613b465760208381860195010111613b4657565b602435908115158203613b4657565b600435906001600160401b0382168203613b4657565b6060906003190112613b46576004356001600160a01b0381168103613b4657906024356001600160a01b0381168103613b46579060443590565b6040906003190112613b46576004359060243590565b34613b46575f366003190112613b465760206040516107d08152f35b61022081019081106001600160401b0382111761470a57604052565b608081019081106001600160401b0382111761470a57604052565b601f909101601f19168101906001600160401b0382119082101761470a57604052565b6001600160401b03811161470a57601f01601f191660200190565b929192614d3e82614d17565b91614d4c6040519384614cf4565b829481845281830111613b46578281602093845f960137010152565b9080601f83011215613b4657816020614d8393359101614d32565b90565b34613b46575f366003190112613b465760206040516202a3008152f35b6001600160a01b03165f9081527f80bb2b638cc20bc4d0a60d66940f3ab4a00c1d7b313497ca82fb0b4ab00793036020526040902090565b90600182811c92168015614e09575b6020831014614df557565b634e487b7160e01b5f52602260045260245ffd5b91607f1691614dea565b5f9291815491614e2283614ddb565b8083529260018116908115614e775750600114614e3e57505050565b5f9081526020812093945091925b838310614e5d575060209250010190565b600181602092949394548385870101520191019190614e4c565b915050602093945060ff929192191683830152151560051b010190565b91908201809211613e7057565b818110614eac575050565b5f8155600101614ea1565b9190601f8111614ec657505050565b614eef925f5260205f20906020601f840160051c830193106124a657601f0160051c0190614ea1565b565b8160011b915f199060031b1c19161790565b805464ffffffffff60a01b191660a09290921b64ffffffffff60a01b16919091179055565b9060ff801983541691151516179055565b8054821015614f4e575f5260205f2001905f90565b634e487b7160e01b5f52603260045260245ffd5b805490600160401b82101561470a5781614f84916001614f9a94018155614f39565b819391549060031b91821b915f19901b19161790565b9055565b90918060409360208452816020850152848401375f828201840152601f01601f1916010190565b5f525f516020615df05f395f51905f52602052600160405f20015490565b60035f918281558260018201558260028201550155565b91908203918211613e7057565b6150118154614ddb565b908161501b575050565b81601f5f931160011461502c575055565b8183526020832061504891601f0160051c810190600101614ea1565b8082528160208120915555565b6040519061506282614cd9565b5f6060838281528260208201528260408201520152565b335f9081525f516020615cd05f395f51905f52602052604090205460ff161561509e57565b63e2517d3f60e01b5f52336004525f516020615e905f395f51905f5260245260445ffd5b335f9081525f516020615eb05f395f51905f52602052604090205460ff16156150e757565b63e2517d3f60e01b5f52336004525f516020615f305f395f51905f5260245260445ffd5b335f9081525f516020615c105f395f51905f52602052604090205460ff161561513057565b63e2517d3f60e01b5f52336004525f516020615cf05f395f51905f5260245260445ffd5b335f9081525f516020615f705f395f51905f52602052604090205460ff161561517957565b63e2517d3f60e01b5f52336004525f516020615cb05f395f51905f5260245260445ffd5b335f9081525f516020615d705f395f51905f52602052604090205460ff16156151c257565b63e2517d3f60e01b5f52336004525f516020615e305f395f51905f5260245260445ffd5b5f8181525f516020615df05f395f51905f526020908152604080832033845290915290205460ff16156152165750565b63e2517d3f60e01b5f523360045260245260445ffd5b6001600160a01b0381165f9081525f516020615c105f395f51905f52602052604090205460ff166152ac576001600160a01b03165f8181525f516020615c105f395f51905f5260205260408120805460ff191660011790553391905f516020615cf05f395f51905f52905f516020615bf05f395f51905f529080a4600190565b505f90565b6001600160a01b0381165f9081525f516020615c505f395f51905f52602052604090205460ff166152ac576001600160a01b03165f8181525f516020615c505f395f51905f5260205260408120805460ff191660011790553391905f516020615d905f395f51905f52905f516020615bf05f395f51905f529080a4600190565b6001600160a01b0381165f9081525f516020615f705f395f51905f52602052604090205460ff166152ac576001600160a01b03165f8181525f516020615f705f395f51905f5260205260408120805460ff191660011790553391905f516020615cb05f395f51905f52905f516020615bf05f395f51905f529080a4600190565b6001600160a01b0381165f9081525f516020615d305f395f51905f52602052604090205460ff166152ac576001600160a01b03165f8181525f516020615d305f395f51905f5260205260408120805460ff191660011790553391905f516020615bf05f395f51905f528180a4600190565b6001600160a01b0381165f9081525f516020615cd05f395f51905f52602052604090205460ff166152ac576001600160a01b03165f8181525f516020615cd05f395f51905f5260205260408120805460ff191660011790553391905f516020615e905f395f51905f52905f516020615bf05f395f51905f529080a4600190565b6001600160a01b0381165f9081525f516020615d705f395f51905f52602052604090205460ff166152ac576001600160a01b03165f8181525f516020615d705f395f51905f5260205260408120805460ff191660011790553391905f516020615e305f395f51905f52905f516020615bf05f395f51905f529080a4600190565b6001600160a01b0381165f9081525f516020615eb05f395f51905f52602052604090205460ff166152ac576001600160a01b03165f8181525f516020615eb05f395f51905f5260205260408120805460ff191660011790553391905f516020615f305f395f51905f52905f516020615bf05f395f51905f529080a4600190565b5f8181525f516020615df05f395f51905f52602090815260408083206001600160a01b038616845290915290205460ff1661562d575f8181525f516020615df05f395f51905f52602090815260408083206001600160a01b0395909516808452949091528120805460ff19166001179055339291905f516020615bf05f395f51905f529080a4600190565b50505f90565b61563c81615a56565b906001600160a01b03821615615650575090565b637e27328960e01b5f5260045260245ffd5b60ff5f516020615e505f395f51905f52541661567a57565b63d93c066560e01b5f5260045ffd5b6040516323b872dd60e01b5f9081526001600160a01b039384166004529290931660245260449390935260209060648180865af19060015f51148216156156fa575b6040525f606052156156da5750565b635274afe760e01b5f9081526001600160a01b0391909116600452602490fd5b90600181151661571257823b15153d151616906156cb565b503d5f823e3d90fd5b9060018060a01b03165f52600f60205260405f2080545f5b8181106157405750505050565b8361574b8285614f39565b90549060031b1c1461575f57600101615733565b9192505f198101908111613e7057614f8461577d61578b9285614f39565b90549060031b1c9284614f39565b9055805480156157b4575f1901906157a38282614f39565b8154905f199060031b1b1916905555565b634e487b7160e01b5f52603160045260245ffd5b6001600160a01b0381165f9081525f516020615eb05f395f51905f52602052604090205460ff16156152ac576001600160a01b03165f8181525f516020615eb05f395f51905f5260205260408120805460ff191690553391905f516020615f305f395f51905f52905f516020615e105f395f51905f529080a4600190565b6001600160a01b0381165f9081525f516020615c505f395f51905f52602052604090205460ff16156152ac576001600160a01b03165f8181525f516020615c505f395f51905f5260205260408120805460ff191690553391905f516020615d905f395f51905f52905f516020615e105f395f51905f529080a4600190565b6001600160a01b0381165f9081525f516020615d705f395f51905f52602052604090205460ff16156152ac576001600160a01b03165f8181525f516020615d705f395f51905f5260205260408120805460ff191690553391905f516020615e305f395f51905f52905f516020615e105f395f51905f529080a4600190565b5f8181525f516020615df05f395f51905f52602090815260408083206001600160a01b038616845290915290205460ff161561562d575f8181525f516020615df05f395f51905f52602090815260408083206001600160a01b0395909516808452949091528120805460ff19169055339291905f516020615e105f395f51905f529080a4600190565b916040519163a9059cbb60e01b5f5260018060a01b031660045260245260205f60448180865af19060015f5114821615615a0b575b604052156156da5750565b90600181151661571257823b15153d15161690615a00565b908115159081615a4b575b50615a365750565b5f52601160205260405f2060ff198154169055565b90508114155f615a2e565b5f9081525f516020615e705f395f51905f5260205260409020546001600160a01b031690565b90615a8681615a56565b916001600160a01b03831680615afc575b6001600160a01b0382169182615ae6575b505f8381525f516020615e705f395f51905f526020526040812080546001600160a01b031916841790555f516020615db05f395f51905f529080a490565b615aef90614da3565b600181540190555f615aa8565b5f8381525f516020615ed05f395f51905f526020526040902080546001600160a01b0319169055615b2c84614da3565b80545f19019055615a97565b60ff5f516020615ef05f395f51905f525460401c1615615b5457565b631afcd79f60e31b5f5260045ffd5b905f8091602081519101845af48080615bdc575b15615b975750506040513d81523d5f602083013e60203d82010160405290565b15615bbc57639996b31560e01b5f9081526001600160a01b0391909116600452602490fd5b3d15615bcd576040513d5f823e3d90fd5b63d6bda27560e01b5f5260045ffd5b503d151580615b775750813b1515615b7756fe2f8788117e7eff1d82e926ec794901d17c78024a50270940304540a733656f0d7ef28b2e5cd91b48129eb3d9c1210224e87152107b47964198044474d53b64293535af5e83a81307d449fed316ad755135d0f82c36c32f3e2defb371f0281dc27a1492cadb22452d254c71a9ef0c781c9f2d1c472dc5213a713c8769ea04d81980bb2b638cc20bc4d0a60d66940f3ab4a00c1d7b313497ca82fb0b4ab0079300f4bad0a69248f59680a4f2b3000328cec71a413447c96781cfe5996daa8c456e2fdac322ee704ce09f0773f7f3f92eb98d5e7c836ee9c056cccd5f61041e5e3fb16e88c42fd4e48df2dd6a2eabd6bc9aec654ec170056b470819f8892cc6431c416906fc99cf00e8016f5c1df47cdc15b4609951b06c7f360e02ad3e00927bdf7a73b9a34d33c6be051c258466ebb49b8110d2dac4a55bbfc739f9463d87e74eb7db2dd08fcb62d0c9e08c51941cae53c267786a0b75803fb7960902fc8ef97d360894a13ba1a3210667c828492db98dca3e2076cc3735a920a3ca505d382bbc07966f2ab141347034724e9b2a472c2f77f5cd745aeba27cacba797b8fcb7086e4369475d33ca6555b45ac3cf081bee16c4b11779d89f812395c569b2de40f01ddf252ad1be2c89b69c2b068fc378daa952ba7f163c4a11628f55a4df523b3ef8c73a29f2cfb7d2480367fd0d8d001b9fc35d45933c032436c6eab734964dd0702dd7bc7dec4dceedda775e58dd541e08a116c6c53815c0bd028192f7b626800f6391f5c32d9c69d2a47ea670b442974b53935d1edc7fd64eb21e047a839171bedcc084d3dcd65a1f7f23c65c46722faca6953d28e43150a467cf43e5c309238cd5ed15c6e187e77e9aee88184c21f4f2182ab5827cb3b7e07fbedcd63f0330080bb2b638cc20bc4d0a60d66940f3ab4a00c1d7b313497ca82fb0b4ab0079302a49807205ce4d355092ef5a8a18f56e8913cf4a201fbe287825b095693c2177547c3465a0c211ece60dd73efc90110f8b7e204feda752e1c50487740ddbcd24f80bb2b638cc20bc4d0a60d66940f3ab4a00c1d7b313497ca82fb0b4ab0079304f0c57e16840df040f15088dc2f81fe391c3923bec73e23a9662efc9c229c6a0080bb2b638cc20bc4d0a60d66940f3ab4a00c1d7b313497ca82fb0b4ab0079301ba2dc669204b26427a432593e1c6ac86ab4ccc54d29c4287abbd1cefc1cb002b37c58c799b6609234b945e882912ee9ad34948a1dfaa20a97485e1a7752bbf81b0531e5977ef63fc98feab4396e5ba6bca3d05d8fb41d8bbe8057e2aa9357b42a2646970667358221220a6edb7fa3f9466a448fee54ae452a8d6c561cda816cca8c0c22fbab6b6596de164736f6c634300081c0033f0c57e16840df040f15088dc2f81fe391c3923bec73e23a9662efc9c229c6a00",
  "linkReferences": {},
  "deployedLinkReferences": {},
  "immutableReferences": {
    "3035": [
      {
        "length": 32,
        "start": 12000
      },
      {
        "length": 32,
        "start": 12436
      }
    ]
  },
  "inputSourceName": "project/contracts/core/PlayerRegistry.sol",
  "buildInfoId": "solc-0_8_28-e6e634edc385ce91d02ff410210fe20e8fd80dbf"
}