{
  "_format": "hh3-artifact-1",
  "contractName": "PlayerRegistry",
  "sourceName": "contracts/core/PlayerRegistry.sol",
  "abi": [
    {
      "inputs": [
        {
          "internalType": "uint256",
          "name": "_registrationFee",
          "type": "uint256"
        },
        {
          "internalType": "uint256",
          "name": "_listingFee",
          "type": "uint256"
        }
      ],
      "stateMutability": "nonpayable",
      "type": "constructor"
    },
    {
      "inputs": [],
      "name": "AccessControlBadConfirmation",
      "type": "error"
    },
    {
      "inputs": [
        {
          "internalType": "address",
          "name": "account",
          "type": "address"
        },
        {
          "internalType": "bytes32",
          "name": "neededRole",
          "type": "bytes32"
        }
      ],
      "name": "AccessControlUnauthorizedAccount",
      "type": "error"
    },
    {
      "inputs": [],
      "name": "ClubNameTooLong",
      "type": "error"
    },
    {
      "inputs": [],
      "name": "ContractExpired",
      "type": "error"
    },
    {
      "inputs": [],
      "name": "DirectTransferBlocked",
      "type": "error"
    },
    {
      "inputs": [],
      "name": "DocumentsAlreadyVerified",
      "type": "error"
    },
    {
      "inputs": [
        {
          "internalType": "address",
          "name": "sender",
          "type": "address"
        },
        {
          "internalType": "uint256",
          "name": "tokenId",
          "type": "uint256"
        },
        {
          "internalType": "address",
          "name": "owner",
          "type": "address"
        }
      ],
      "name": "ERC721IncorrectOwner",
      "type": "error"
    },
    {
      "inputs": [
        {
          "internalType": "address",
          "name": "operator",
          "type": "address"
        },
        {
          "internalType": "uint256",
          "name": "tokenId",
          "type": "uint256"
        }
      ],
      "name": "ERC721InsufficientApproval",
      "type": "error"
    },
    {
      "inputs": [
        {
          "internalType": "address",
          "name": "approver",
          "type": "address"
        }
      ],
      "name": "ERC721InvalidApprover",
      "type": "error"
    },
    {
      "inputs": [
        {
          "internalType": "address",
          "name": "operator",
          "type": "address"
        }
      ],
      "name": "ERC721InvalidOperator",
      "type": "error"
    },
    {
      "inputs": [
        {
          "internalType": "address",
          "name": "owner",
          "type": "address"
        }
      ],
      "name": "ERC721InvalidOwner",
      "type": "error"
    },
    {
      "inputs": [
        {
          "internalType": "address",
          "name": "receiver",
          "type": "address"
        }
      ],
      "name": "ERC721InvalidReceiver",
      "type": "error"
    },
    {
      "inputs": [
        {
          "internalType": "address",
          "name": "sender",
          "type": "address"
        }
      ],
      "name": "ERC721InvalidSender",
      "type": "error"
    },
    {
      "inputs": [
        {
          "internalType": "uint256",
          "name": "tokenId",
          "type": "uint256"
        }
      ],
      "name": "ERC721NonexistentToken",
      "type": "error"
    },
    {
      "inputs": [],
      "name": "EnforcedPause",
      "type": "error"
    },
    {
      "inputs": [],
      "name": "ExpectedPause",
      "type": "error"
    },
    {
      "inputs": [],
      "name": "FifaIdAlreadyRegistered",
      "type": "error"
    },
    {
      "inputs": [],
      "name": "InsufficientBalance",
      "type": "error"
    },
    {
      "inputs": [],
      "name": "InsufficientPayment",
      "type": "error"
    },
    {
      "inputs": [],
      "name": "InvalidAddress",
      "type": "error"
    },
    {
      "inputs": [],
      "name": "InvalidExpiry",
      "type": "error"
    },
    {
      "inputs": [],
      "name": "InvalidFee",
      "type": "error"
    },
    {
      "inputs": [],
      "name": "InvalidPrice",
      "type": "error"
    },
    {
      "inputs": [],
      "name": "InvalidSalary",
      "type": "error"
    },
    {
      "inputs": [],
      "name": "InvalidString",
      "type": "error"
    },
    {
      "inputs": [],
      "name": "LegalDocsNotVerified",
      "type": "error"
    },
    {
      "inputs": [],
      "name": "MedicalAlreadyCleared",
      "type": "error"
    },
    {
      "inputs": [],
      "name": "MedicalClearanceRequired",
      "type": "error"
    },
    {
      "inputs": [],
      "name": "NotAuthorised",
      "type": "error"
    },
    {
      "inputs": [],
      "name": "NotPlayerClub",
      "type": "error"
    },
    {
      "inputs": [],
      "name": "NotPlayerWallet",
      "type": "error"
    },
    {
      "inputs": [],
      "name": "PlayerAlreadyExists",
      "type": "error"
    },
    {
      "inputs": [],
      "name": "PlayerAlreadyListed",
      "type": "error"
    },
    {
      "inputs": [],
      "name": "PlayerAlreadyVerified",
      "type": "error"
    },
    {
      "inputs": [],
      "name": "PlayerNotFound",
      "type": "error"
    },
    {
      "inputs": [],
      "name": "PlayerNotListed",
      "type": "error"
    },
    {
      "inputs": [],
      "name": "PlayerNotVerified",
      "type": "error"
    },
    {
      "inputs": [],
      "name": "PlayerWalletNotSet",
      "type": "error"
    },
    {
      "inputs": [],
      "name": "ReentrancyGuardReentrantCall",
      "type": "error"
    },
    {
      "inputs": [
        {
          "internalType": "uint256",
          "name": "value",
          "type": "uint256"
        },
        {
          "internalType": "uint256",
          "name": "length",
          "type": "uint256"
        }
      ],
      "name": "StringsInsufficientHexLength",
      "type": "error"
    },
    {
      "inputs": [],
      "name": "WithdrawAmountTooLarge",
      "type": "error"
    },
    {
      "inputs": [],
      "name": "WithdrawFailed",
      "type": "error"
    },
    {
      "anonymous": false,
      "inputs": [
        {
          "indexed": true,
          "internalType": "address",
          "name": "owner",
          "type": "address"
        },
        {
          "indexed": true,
          "internalType": "address",
          "name": "approved",
          "type": "address"
        },
        {
          "indexed": true,
          "internalType": "uint256",
          "name": "tokenId",
          "type": "uint256"
        }
      ],
      "name": "Approval",
      "type": "event"
    },
    {
      "anonymous": false,
      "inputs": [
        {
          "indexed": true,
          "internalType": "address",
          "name": "owner",
          "type": "address"
        },
        {
          "indexed": true,
          "internalType": "address",
          "name": "operator",
          "type": "address"
        },
        {
          "indexed": false,
          "internalType": "bool",
          "name": "approved",
          "type": "bool"
        }
      ],
      "name": "ApprovalForAll",
      "type": "event"
    },
    {
      "anonymous": false,
      "inputs": [
        {
          "indexed": true,
          "internalType": "address",
          "name": "club",
          "type": "address"
        },
        {
          "indexed": false,
          "internalType": "string",
          "name": "name",
          "type": "string"
        }
      ],
      "name": "ClubNameSet",
      "type": "event"
    },
    {
      "anonymous": false,
      "inputs": [
        {
          "indexed": true,
          "internalType": "uint256",
          "name": "playerId",
          "type": "uint256"
        },
        {
          "indexed": true,
          "internalType": "address",
          "name": "fromClub",
          "type": "address"
        },
        {
          "indexed": true,
          "internalType": "address",
          "name": "toClub",
          "type": "address"
        }
      ],
      "name": "ClubOwnershipTransferred",
      "type": "event"
    },
    {
      "anonymous": false,
      "inputs": [
        {
          "indexed": true,
          "internalType": "uint256",
          "name": "playerId",
          "type": "uint256"
        },
        {
          "indexed": false,
          "internalType": "uint256",
          "name": "newExpiry",
          "type": "uint256"
        }
      ],
      "name": "ContractExtended",
      "type": "event"
    },
    {
      "anonymous": false,
      "inputs": [
        {
          "indexed": true,
          "internalType": "address",
          "name": "to",
          "type": "address"
        },
        {
          "indexed": false,
          "internalType": "uint256",
          "name": "amount",
          "type": "uint256"
        }
      ],
      "name": "FeesWithdrawn",
      "type": "event"
    },
    {
      "anonymous": false,
      "inputs": [
        {
          "indexed": true,
          "internalType": "uint256",
          "name": "playerId",
          "type": "uint256"
        }
      ],
      "name": "LegalDocumentsSubmitted",
      "type": "event"
    },
    {
      "anonymous": false,
      "inputs": [
        {
          "indexed": true,
          "internalType": "uint256",
          "name": "playerId",
          "type": "uint256"
        },
        {
          "indexed": true,
          "internalType": "address",
          "name": "registrar",
          "type": "address"
        }
      ],
      "name": "LegalDocumentsVerified",
      "type": "event"
    },
    {
      "anonymous": false,
      "inputs": [
        {
          "indexed": false,
          "internalType": "uint256",
          "name": "oldFee",
          "type": "uint256"
        },
        {
          "indexed": false,
          "internalType": "uint256",
          "name": "newFee",
          "type": "uint256"
        }
      ],
      "name": "ListingFeeUpdated",
      "type": "event"
    },
    {
      "anonymous": false,
      "inputs": [
        {
          "indexed": true,
          "internalType": "uint256",
          "name": "playerId",
          "type": "uint256"
        },
        {
          "indexed": false,
          "internalType": "bytes32",
          "name": "documentHash",
          "type": "bytes32"
        }
      ],
      "name": "MedicalClearanceSet",
      "type": "event"
    },
    {
      "anonymous": false,
      "inputs": [
        {
          "indexed": false,
          "internalType": "address",
          "name": "account",
          "type": "address"
        }
      ],
      "name": "Paused",
      "type": "event"
    },
    {
      "anonymous": false,
      "inputs": [
        {
          "indexed": true,
          "internalType": "uint256",
          "name": "playerId",
          "type": "uint256"
        }
      ],
      "name": "PlayerDelisted",
      "type": "event"
    },
    {
      "anonymous": false,
      "inputs": [
        {
          "indexed": true,
          "internalType": "uint256",
          "name": "playerId",
          "type": "uint256"
        },
        {
          "indexed": false,
          "internalType": "uint256",
          "name": "askingPrice",
          "type": "uint256"
        }
      ],
      "name": "PlayerListed",
      "type": "event"
    },
    {
      "anonymous": false,
      "inputs": [
        {
          "indexed": true,
          "internalType": "uint256",
          "name": "playerId",
          "type": "uint256"
        },
        {
          "indexed": false,
          "internalType": "string",
          "name": "name",
          "type": "string"
        },
        {
          "indexed": true,
          "internalType": "address",
          "name": "club",
          "type": "address"
        }
      ],
      "name": "PlayerRegistered",
      "type": "event"
    },
    {
      "anonymous": false,
      "inputs": [
        {
          "indexed": true,
          "internalType": "uint256",
          "name": "playerId",
          "type": "uint256"
        },
        {
          "indexed": true,
          "internalType": "address",
          "name": "registrar",
          "type": "address"
        }
      ],
      "name": "PlayerVerified",
      "type": "event"
    },
    {
      "anonymous": false,
      "inputs": [
        {
          "indexed": true,
          "internalType": "uint256",
          "name": "playerId",
          "type": "uint256"
        },
        {
          "indexed": true,
          "internalType": "address",
          "name": "playerWallet",
          "type": "address"
        }
      ],
      "name": "PlayerWalletSet",
      "type": "event"
    },
    {
      "anonymous": false,
      "inputs": [
        {
          "indexed": true,
          "internalType": "uint256",
          "name": "playerId",
          "type": "uint256"
        },
        {
          "indexed": true,
          "internalType": "address",
          "name": "oldWallet",
          "type": "address"
        },
        {
          "indexed": true,
          "internalType": "address",
          "name": "newWallet",
          "type": "address"
        }
      ],
      "name": "PlayerWalletUpdated",
      "type": "event"
    },
    {
      "anonymous": false,
      "inputs": [
        {
          "indexed": true,
          "internalType": "uint256",
          "name": "playerId",
          "type": "uint256"
        },
        {
          "indexed": false,
          "internalType": "string",
          "name": "cid",
          "type": "string"
        }
      ],
      "name": "PortraitUpdated",
      "type": "event"
    },
    {
      "anonymous": false,
      "inputs": [
        {
          "indexed": false,
          "internalType": "uint256",
          "name": "oldFee",
          "type": "uint256"
        },
        {
          "indexed": false,
          "internalType": "uint256",
          "name": "newFee",
          "type": "uint256"
        }
      ],
      "name": "RegistrationFeeUpdated",
      "type": "event"
    },
    {
      "anonymous": false,
      "inputs": [
        {
          "indexed": true,
          "internalType": "uint256",
          "name": "playerId",
          "type": "uint256"
        },
        {
          "indexed": false,
          "internalType": "uint256",
          "name": "amount",
          "type": "uint256"
        }
      ],
      "name": "ReleaseClauseSet",
      "type": "event"
    },
    {
      "anonymous": false,
      "inputs": [
        {
          "indexed": true,
          "internalType": "bytes32",
          "name": "role",
          "type": "bytes32"
        },
        {
          "indexed": true,
          "internalType": "bytes32",
          "name": "previousAdminRole",
          "type": "bytes32"
        },
        {
          "indexed": true,
          "internalType": "bytes32",
          "name": "newAdminRole",
          "type": "bytes32"
        }
      ],
      "name": "RoleAdminChanged",
      "type": "event"
    },
    {
      "anonymous": false,
      "inputs": [
        {
          "indexed": true,
          "internalType": "bytes32",
          "name": "role",
          "type": "bytes32"
        },
        {
          "indexed": true,
          "internalType": "address",
          "name": "account",
          "type": "address"
        },
        {
          "indexed": true,
          "internalType": "address",
          "name": "sender",
          "type": "address"
        }
      ],
      "name": "RoleGranted",
      "type": "event"
    },
    {
      "anonymous": false,
      "inputs": [
        {
          "indexed": true,
          "internalType": "bytes32",
          "name": "role",
          "type": "bytes32"
        },
        {
          "indexed": true,
          "internalType": "address",
          "name": "account",
          "type": "address"
        },
        {
          "indexed": true,
          "internalType": "address",
          "name": "sender",
          "type": "address"
        }
      ],
      "name": "RoleRevoked",
      "type": "event"
    },
    {
      "anonymous": false,
      "inputs": [
        {
          "indexed": true,
          "internalType": "address",
          "name": "from",
          "type": "address"
        },
        {
          "indexed": true,
          "internalType": "address",
          "name": "to",
          "type": "address"
        },
        {
          "indexed": true,
          "internalType": "uint256",
          "name": "tokenId",
          "type": "uint256"
        }
      ],
      "name": "Transfer",
      "type": "event"
    },
    {
      "anonymous": false,
      "inputs": [
        {
          "indexed": false,
          "internalType": "address",
          "name": "account",
          "type": "address"
        }
      ],
      "name": "Unpaused",
      "type": "event"
    },
    {
      "inputs": [],
      "name": "ADMIN_ROLE",
      "outputs": [
        {
          "internalType": "bytes32",
          "name": "",
          "type": "bytes32"
        }
      ],
      "stateMutability": "view",
      "type": "function"
    },
    {
      "inputs": [],
      "name": "CLUB_ROLE",
      "outputs": [
        {
          "internalType": "bytes32",
          "name": "",
          "type": "bytes32"
        }
      ],
      "stateMutability": "view",
      "type": "function"
    },
    {
      "inputs": [],
      "name": "DEFAULT_ADMIN_ROLE",
      "outputs": [
        {
          "internalType": "bytes32",
          "name": "",
          "type": "bytes32"
        }
      ],
      "stateMutability": "view",
      "type": "function"
    },
    {
      "inputs": [],
      "name": "ESCROW_ROLE",
      "outputs": [
        {
          "internalType": "bytes32",
          "name": "",
          "type": "bytes32"
        }
      ],
      "stateMutability": "view",
      "type": "function"
    },
    {
      "inputs": [],
      "name": "MAX_FEE",
      "outputs": [
        {
          "internalType": "uint256",
          "name": "",
          "type": "uint256"
        }
      ],
      "stateMutability": "view",
      "type": "function"
    },
    {
      "inputs": [],
      "name": "MAX_PRICE",
      "outputs": [
        {
          "internalType": "uint256",
          "name": "",
          "type": "uint256"
        }
      ],
      "stateMutability": "view",
      "type": "function"
    },
    {
      "inputs": [],
      "name": "MAX_SALARY",
      "outputs": [
        {
          "internalType": "uint256",
          "name": "",
          "type": "uint256"
        }
      ],
      "stateMutability": "view",
      "type": "function"
    },
    {
      "inputs": [],
      "name": "MAX_STRING_LEN",
      "outputs": [
        {
          "internalType": "uint256",
          "name": "",
          "type": "uint256"
        }
      ],
      "stateMutability": "view",
      "type": "function"
    },
    {
      "inputs": [],
      "name": "MAX_WITHDRAW",
      "outputs": [
        {
          "internalType": "uint256",
          "name": "",
          "type": "uint256"
        }
      ],
      "stateMutability": "view",
      "type": "function"
    },
    {
      "inputs": [],
      "name": "REGISTRAR_ROLE",
      "outputs": [
        {
          "internalType": "bytes32",
          "name": "",
          "type": "bytes32"
        }
      ],
      "stateMutability": "view",
      "type": "function"
    },
    {
      "inputs": [
        {
          "internalType": "address",
          "name": "to",
          "type": "address"
        },
        {
          "internalType": "uint256",
          "name": "tokenId",
          "type": "uint256"
        }
      ],
      "name": "approve",
      "outputs": [],
      "stateMutability": "nonpayable",
      "type": "function"
    },
    {
      "inputs": [
        {
          "internalType": "address",
          "name": "owner",
          "type": "address"
        }
      ],
      "name": "balanceOf",
      "outputs": [
        {
          "internalType": "uint256",
          "name": "",
          "type": "uint256"
        }
      ],
      "stateMutability": "view",
      "type": "function"
    },
    {
      "inputs": [
        {
          "internalType": "uint256",
          "name": "playerId",
          "type": "uint256"
        }
      ],
      "name": "currentClub",
      "outputs": [
        {
          "internalType": "address",
          "name": "",
          "type": "address"
        }
      ],
      "stateMutability": "view",
      "type": "function"
    },
    {
      "inputs": [
        {
          "internalType": "uint256",
          "name": "playerId",
          "type": "uint256"
        }
      ],
      "name": "delistPlayer",
      "outputs": [],
      "stateMutability": "nonpayable",
      "type": "function"
    },
    {
      "inputs": [
        {
          "internalType": "uint256",
          "name": "playerId",
          "type": "uint256"
        },
        {
          "internalType": "address",
          "name": "fromClub",
          "type": "address"
        },
        {
          "internalType": "address",
          "name": "toClub",
          "type": "address"
        }
      ],
      "name": "escrowTransfer",
      "outputs": [],
      "stateMutability": "nonpayable",
      "type": "function"
    },
    {
      "inputs": [
        {
          "internalType": "uint256",
          "name": "playerId",
          "type": "uint256"
        },
        {
          "internalType": "uint256",
          "name": "newExpiry",
          "type": "uint256"
        }
      ],
      "name": "extendContract",
      "outputs": [],
      "stateMutability": "nonpayable",
      "type": "function"
    },
    {
      "inputs": [
        {
          "internalType": "uint256",
          "name": "tokenId",
          "type": "uint256"
        }
      ],
      "name": "getApproved",
      "outputs": [
        {
          "internalType": "address",
          "name": "",
          "type": "address"
        }
      ],
      "stateMutability": "view",
      "type": "function"
    },
    {
      "inputs": [
        {
          "internalType": "address",
          "name": "club",
          "type": "address"
        }
      ],
      "name": "getClubName",
      "outputs": [
        {
          "internalType": "string",
          "name": "",
          "type": "string"
        }
      ],
      "stateMutability": "view",
      "type": "function"
    },
    {
      "inputs": [
        {
          "internalType": "address",
          "name": "club",
          "type": "address"
        }
      ],
      "name": "getClubPlayers",
      "outputs": [
        {
          "internalType": "uint256[]",
          "name": "",
          "type": "uint256[]"
        }
      ],
      "stateMutability": "view",
      "type": "function"
    },
    {
      "inputs": [
        {
          "internalType": "uint256",
          "name": "playerId",
          "type": "uint256"
        }
      ],
      "name": "getLegalDocuments",
      "outputs": [
        {
          "components": [
            {
              "internalType": "bytes32",
              "name": "registrationContractHash",
              "type": "bytes32"
            },
            {
              "internalType": "bytes32",
              "name": "fifaTMSHash",
              "type": "bytes32"
            },
            {
              "internalType": "bytes32",
              "name": "workPermitHash",
              "type": "bytes32"
            },
            {
              "internalType": "bool",
              "name": "documentsVerified",
              "type": "bool"
            }
          ],
          "internalType": "struct IPlayerRegistry.LegalDocuments",
          "name": "",
          "type": "tuple"
        }
      ],
      "stateMutability": "view",
      "type": "function"
    },
    {
      "inputs": [
        {
          "internalType": "uint256",
          "name": "playerId",
          "type": "uint256"
        }
      ],
      "name": "getPlayer",
      "outputs": [
        {
          "components": [
            {
              "internalType": "uint256",
              "name": "id",
              "type": "uint256"
            },
            {
              "internalType": "string",
              "name": "name",
              "type": "string"
            },
            {
              "internalType": "string",
              "name": "position",
              "type": "string"
            },
            {
              "internalType": "string",
              "name": "nationality",
              "type": "string"
            },
            {
              "internalType": "uint256",
              "name": "contractExpiry",
              "type": "uint256"
            },
            {
              "internalType": "uint256",
              "name": "weeklySalary",
              "type": "uint256"
            },
            {
              "internalType": "address",
              "name": "playerWallet",
              "type": "address"
            },
            {
              "internalType": "bool",
              "name": "isVerified",
              "type": "bool"
            },
            {
              "internalType": "bool",
              "name": "isListed",
              "type": "bool"
            },
            {
              "internalType": "bool",
              "name": "medicalClearance",
              "type": "bool"
            },
            {
              "internalType": "bytes32",
              "name": "medicalDocumentHash",
              "type": "bytes32"
            },
            {
              "internalType": "uint256",
              "name": "askingPrice",
              "type": "uint256"
            },
            {
              "internalType": "uint256",
              "name": "releaseClause",
              "type": "uint256"
            },
            {
              "internalType": "uint256",
              "name": "registeredAt",
              "type": "uint256"
            },
            {
              "internalType": "string",
              "name": "portraitCID",
              "type": "string"
            },
            {
              "internalType": "bytes32",
              "name": "fifaId",
              "type": "bytes32"
            }
          ],
          "internalType": "struct IPlayerRegistry.Player",
          "name": "",
          "type": "tuple"
        }
      ],
      "stateMutability": "view",
      "type": "function"
    },
    {
      "inputs": [
        {
          "internalType": "bytes32",
          "name": "role",
          "type": "bytes32"
        }
      ],
      "name": "getRoleAdmin",
      "outputs": [
        {
          "internalType": "bytes32",
          "name": "",
          "type": "bytes32"
        }
      ],
      "stateMutability": "view",
      "type": "function"
    },
    {
      "inputs": [
        {
          "internalType": "bytes32",
          "name": "role",
          "type": "bytes32"
        },
        {
          "internalType": "address",
          "name": "account",
          "type": "address"
        }
      ],
      "name": "grantRole",
      "outputs": [],
      "stateMutability": "nonpayable",
      "type": "function"
    },
    {
      "inputs": [
        {
          "internalType": "address",
          "name": "account",
          "type": "address"
        }
      ],
      "name": "hasClubRole",
      "outputs": [
        {
          "internalType": "bool",
          "name": "",
          "type": "bool"
        }
      ],
      "stateMutability": "view",
      "type": "function"
    },
    {
      "inputs": [
        {
          "internalType": "bytes32",
          "name": "role",
          "type": "bytes32"
        },
        {
          "internalType": "address",
          "name": "account",
          "type": "address"
        }
      ],
      "name": "hasRole",
      "outputs": [
        {
          "internalType": "bool",
          "name": "",
          "type": "bool"
        }
      ],
      "stateMutability": "view",
      "type": "function"
    },
    {
      "inputs": [
        {
          "internalType": "address",
          "name": "owner",
          "type": "address"
        },
        {
          "internalType": "address",
          "name": "operator",
          "type": "address"
        }
      ],
      "name": "isApprovedForAll",
      "outputs": [
        {
          "internalType": "bool",
          "name": "",
          "type": "bool"
        }
      ],
      "stateMutability": "view",
      "type": "function"
    },
    {
      "inputs": [
        {
          "internalType": "uint256",
          "name": "playerId",
          "type": "uint256"
        },
        {
          "internalType": "uint256",
          "name": "askingPrice",
          "type": "uint256"
        }
      ],
      "name": "listPlayer",
      "outputs": [],
      "stateMutability": "payable",
      "type": "function"
    },
    {
      "inputs": [],
      "name": "listingFee",
      "outputs": [
        {
          "internalType": "uint256",
          "name": "",
          "type": "uint256"
        }
      ],
      "stateMutability": "view",
      "type": "function"
    },
    {
      "inputs": [],
      "name": "name",
      "outputs": [
        {
          "internalType": "string",
          "name": "",
          "type": "string"
        }
      ],
      "stateMutability": "view",
      "type": "function"
    },
    {
      "inputs": [
        {
          "internalType": "uint256",
          "name": "tokenId",
          "type": "uint256"
        }
      ],
      "name": "ownerOf",
      "outputs": [
        {
          "internalType": "address",
          "name": "",
          "type": "address"
        }
      ],
      "stateMutability": "view",
      "type": "function"
    },
    {
      "inputs": [],
      "name": "pause",
      "outputs": [],
      "stateMutability": "nonpayable",
      "type": "function"
    },
    {
      "inputs": [],
      "name": "paused",
      "outputs": [
        {
          "internalType": "bool",
          "name": "",
          "type": "bool"
        }
      ],
      "stateMutability": "view",
      "type": "function"
    },
    {
      "inputs": [
        {
          "internalType": "string",
          "name": "name",
          "type": "string"
        },
        {
          "internalType": "string",
          "name": "position",
          "type": "string"
        },
        {
          "internalType": "string",
          "name": "nationality",
          "type": "string"
        },
        {
          "internalType": "uint256",
          "name": "contractExpiry",
          "type": "uint256"
        },
        {
          "internalType": "uint256",
          "name": "weeklySalary",
          "type": "uint256"
        },
        {
          "internalType": "string",
          "name": "portraitCID",
          "type": "string"
        },
        {
          "internalType": "bytes32",
          "name": "fifaId",
          "type": "bytes32"
        }
      ],
      "name": "registerPlayer",
      "outputs": [
        {
          "internalType": "uint256",
          "name": "playerId",
          "type": "uint256"
        }
      ],
      "stateMutability": "payable",
      "type": "function"
    },
    {
      "inputs": [],
      "name": "registrationFee",
      "outputs": [
        {
          "internalType": "uint256",
          "name": "",
          "type": "uint256"
        }
      ],
      "stateMutability": "view",
      "type": "function"
    },
    {
      "inputs": [
        {
          "internalType": "bytes32",
          "name": "role",
          "type": "bytes32"
        },
        {
          "internalType": "address",
          "name": "callerConfirmation",
          "type": "address"
        }
      ],
      "name": "renounceRole",
      "outputs": [],
      "stateMutability": "nonpayable",
      "type": "function"
    },
    {
      "inputs": [
        {
          "internalType": "bytes32",
          "name": "role",
          "type": "bytes32"
        },
        {
          "internalType": "address",
          "name": "account",
          "type": "address"
        }
      ],
      "name": "revokeRole",
      "outputs": [],
      "stateMutability": "nonpayable",
      "type": "function"
    },
    {
      "inputs": [
        {
          "internalType": "address",
          "name": "from",
          "type": "address"
        },
        {
          "internalType": "address",
          "name": "to",
          "type": "address"
        },
        {
          "internalType": "uint256",
          "name": "tokenId",
          "type": "uint256"
        }
      ],
      "name": "safeTransferFrom",
      "outputs": [],
      "stateMutability": "nonpayable",
      "type": "function"
    },
    {
      "inputs": [
        {
          "internalType": "address",
          "name": "operator",
          "type": "address"
        },
        {
          "internalType": "bool",
          "name": "approved",
          "type": "bool"
        }
      ],
      "name": "setApprovalForAll",
      "outputs": [],
      "stateMutability": "nonpayable",
      "type": "function"
    },
    {
      "inputs": [
        {
          "internalType": "address",
          "name": "club",
          "type": "address"
        },
        {
          "internalType": "string",
          "name": "name",
          "type": "string"
        }
      ],
      "name": "setClubName",
      "outputs": [],
      "stateMutability": "nonpayable",
      "type": "function"
    },
    {
      "inputs": [
        {
          "internalType": "uint256",
          "name": "newFee",
          "type": "uint256"
        }
      ],
      "name": "setListingFee",
      "outputs": [],
      "stateMutability": "nonpayable",
      "type": "function"
    },
    {
      "inputs": [
        {
          "internalType": "uint256",
          "name": "playerId",
          "type": "uint256"
        },
        {
          "internalType": "bytes32",
          "name": "documentHash",
          "type": "bytes32"
        }
      ],
      "name": "setMedicalClearance",
      "outputs": [],
      "stateMutability": "nonpayable",
      "type": "function"
    },
    {
      "inputs": [
        {
          "internalType": "uint256",
          "name": "playerId",
          "type": "uint256"
        },
        {
          "internalType": "address",
          "name": "playerWallet",
          "type": "address"
        }
      ],
      "name": "setPlayerWallet",
      "outputs": [],
      "stateMutability": "nonpayable",
      "type": "function"
    },
    {
      "inputs": [
        {
          "internalType": "uint256",
          "name": "playerId",
          "type": "uint256"
        },
        {
          "internalType": "string",
          "name": "cid",
          "type": "string"
        }
      ],
      "name": "setPortrait",
      "outputs": [],
      "stateMutability": "nonpayable",
      "type": "function"
    },
    {
      "inputs": [
        {
          "internalType": "uint256",
          "name": "newFee",
          "type": "uint256"
        }
      ],
      "name": "setRegistrationFee",
      "outputs": [],
      "stateMutability": "nonpayable",
      "type": "function"
    },
    {
      "inputs": [
        {
          "internalType": "uint256",
          "name": "playerId",
          "type": "uint256"
        },
        {
          "internalType": "uint256",
          "name": "amount",
          "type": "uint256"
        }
      ],
      "name": "setReleaseClause",
      "outputs": [],
      "stateMutability": "nonpayable",
      "type": "function"
    },
    {
      "inputs": [
        {
          "internalType": "uint256",
          "name": "playerId",
          "type": "uint256"
        },
        {
          "internalType": "bytes32",
          "name": "registrationContractHash",
          "type": "bytes32"
        },
        {
          "internalType": "bytes32",
          "name": "fifaTMSHash",
          "type": "bytes32"
        },
        {
          "internalType": "bytes32",
          "name": "workPermitHash",
          "type": "bytes32"
        }
      ],
      "name": "submitLegalDocuments",
      "outputs": [],
      "stateMutability": "nonpayable",
      "type": "function"
    },
    {
      "inputs": [
        {
          "internalType": "bytes4",
          "name": "interfaceId",
          "type": "bytes4"
        }
      ],
      "name": "supportsInterface",
      "outputs": [
        {
          "internalType": "bool",
          "name": "",
          "type": "bool"
        }
      ],
      "stateMutability": "view",
      "type": "function"
    },
    {
      "inputs": [],
      "name": "symbol",
      "outputs": [
        {
          "internalType": "string",
          "name": "",
          "type": "string"
        }
      ],
      "stateMutability": "view",
      "type": "function"
    },
    {
      "inputs": [
        {
          "internalType": "uint256",
          "name": "playerId",
          "type": "uint256"
        }
      ],
      "name": "tokenURI",
      "outputs": [
        {
          "internalType": "string",
          "name": "",
          "type": "string"
        }
      ],
      "stateMutability": "view",
      "type": "function"
    },
    {
      "inputs": [],
      "name": "totalPlayers",
      "outputs": [
        {
          "internalType": "uint256",
          "name": "",
          "type": "uint256"
        }
      ],
      "stateMutability": "view",
      "type": "function"
    },
    {
      "inputs": [
        {
          "internalType": "address",
          "name": "from",
          "type": "address"
        },
        {
          "internalType": "address",
          "name": "to",
          "type": "address"
        },
        {
          "internalType": "uint256",
          "name": "tokenId",
          "type": "uint256"
        }
      ],
      "name": "transferFrom",
      "outputs": [],
      "stateMutability": "nonpayable",
      "type": "function"
    },
    {
      "inputs": [],
      "name": "unpause",
      "outputs": [],
      "stateMutability": "nonpayable",
      "type": "function"
    },
    {
      "inputs": [
        {
          "internalType": "uint256",
          "name": "playerId",
          "type": "uint256"
        },
        {
          "internalType": "address",
          "name": "newWallet",
          "type": "address"
        }
      ],
      "name": "updatePlayerWallet",
      "outputs": [],
      "stateMutability": "nonpayable",
      "type": "function"
    },
    {
      "inputs": [
        {
          "internalType": "uint256",
          "name": "playerId",
          "type": "uint256"
        }
      ],
      "name": "verifyLegalDocuments",
      "outputs": [],
      "stateMutability": "nonpayable",
      "type": "function"
    },
    {
      "inputs": [
        {
          "internalType": "uint256",
          "name": "playerId",
          "type": "uint256"
        }
      ],
      "name": "verifyPlayer",
      "outputs": [],
      "stateMutability": "nonpayable",
      "type": "function"
    },
    {
      "inputs": [
        {
          "internalType": "address payable",
          "name": "to",
          "type": "address"
        },
        {
          "internalType": "uint256",
          "name": "amount",
          "type": "uint256"
        }
      ],
      "name": "withdrawFees",
      "outputs": [],
      "stateMutability": "nonpayable",
      "type": "function"
    }
  ],
  "bytecode": "0x6080604052346103a05761449a6040813803918261001c816103a4565b9384928339810103126103a057602081519101519061003b60406103a4565b9160128352712a3930b739b332b934bab690283630bcb2b960711b602084015261006560406103a4565b60058152642a28262ca960d91b602082015283519092906001600160401b0381116102b4575f54600181811c91168015610396575b602082101461029657601f8111610334575b50602094601f82116001146102d3579481929394955f926102c8575b50508160011b915f199060031b1c1916175f555b82516001600160401b0381116102b457600154600181811c911680156102aa575b602082101461029657601f8111610233575b506020601f82116001146101d057819293945f926101c5575b50508160011b915f199060031b1c1916176001555b60017f9b779b17422d0df92223018b32b4d1fa46e071723d6817e2486d003becc55f005569021e19e0c9bab240000081116101b65769021e19e0c9bab240000082116101b657600955600a55610192336103c9565b5061019c3361043f565b506101a6336104d2565b50604051613eb490816105668239f35b6358d620b360e01b5f5260045ffd5b015190505f80610128565b601f1982169060015f52805f20915f5b81811061021b57509583600195969710610203575b505050811b0160015561013d565b01515f1960f88460031b161c191690555f80806101f5565b9192602060018192868b0151815501940192016101e0565b60015f527fb10e2d527612073b26eecdfd717e6a320cf44b4afac2b0732d9fcbe2b7fa0cf6601f830160051c8101916020841061028c575b601f0160051c01905b818110610281575061010f565b5f8155600101610274565b909150819061026b565b634e487b7160e01b5f52602260045260245ffd5b90607f16906100fd565b634e487b7160e01b5f52604160045260245ffd5b015190505f806100c8565b601f198216955f8052805f20915f5b88811061031c57508360019596979810610304575b505050811b015f556100dc565b01515f1960f88460031b161c191690555f80806102f7565b919260206001819286850151815501940192016102e2565b5f80527f290decd9548b62a8d60345a988386fc84ba6bc95484008f6362f93160ef3e563601f830160051c8101916020841061038c575b601f0160051c01905b81811061038157506100ac565b5f8155600101610374565b909150819061036b565b90607f169061009a565b5f80fd5b6040519190601f01601f191682016001600160401b038111838210176102b457604052565b6001600160a01b0381165f9081525f51602061447a5f395f51905f52602052604090205460ff1661043a576001600160a01b03165f8181525f51602061447a5f395f51905f5260205260408120805460ff191660011790553391905f51602061441a5f395f51905f528180a4600190565b505f90565b6001600160a01b0381165f9081525f51602061445a5f395f51905f52602052604090205460ff1661043a576001600160a01b03165f8181525f51602061445a5f395f51905f5260205260408120805460ff191660011790553391907fa49807205ce4d355092ef5a8a18f56e8913cf4a201fbe287825b095693c21775905f51602061441a5f395f51905f529080a4600190565b6001600160a01b0381165f9081525f51602061443a5f395f51905f52602052604090205460ff1661043a576001600160a01b03165f8181525f51602061443a5f395f51905f5260205260408120805460ff191660011790553391907fedcc084d3dcd65a1f7f23c65c46722faca6953d28e43150a467cf43e5c309238905f51602061441a5f395f51905f529080a460019056fe6080806040526004361015610012575f80fd5b5f3560e01c90816301c11d961461302f5750806301ffc9a714612fa7578063045f616c14612f6f57806306fdde0314612ecd578063081812fc14612e91578063095ea7b314612da7578063131dbd0914612d4357806314c44e0914612d2657806323b872dd14612d0f578063248a9ca314612ce957806324d4275c14612c34578063269c089f146124cb578063281b4826146123c85780632c1b945e1461231c5780632f2ff15d146122eb57806332f65ba3146120375780633555108e1461201257806336568abe14611fce5780633cd46ccc14611eb25780633f4ba83a14611e4c57806342842e0e14611e235780635298d50514611d6f578063555de94514611c1d5780635c975abb14611bfb5780636352211e14611bdd578063663d112a14611b305780636a1b7ecc14611b135780636ce76f3014611aec57806370a0823114611a9b57806375b238fc14611a745780637723d306146119a45780637b9ea296146118aa5780637f107c5f146117175780637f3e18be146116fc57806382040a55146115395780638456cb59146114e0578063852aa16b146114bd57806391d148541461147457806395d89b4114611396578063a217fddf1461137c578063a22cb465146112cb578063ad3b1b47146111e5578063b88d4fde14611186578063bc063e1a14611162578063c320c727146110ef578063c87b56dd146109d3578063d3a28d6a1461098d578063d547741f14610955578063d8541cf6146107ce578063e55ae4e814610546578063e8fa92bf14610457578063e985e9c514610400578063f60cdcf6146103e3578063f68e9553146103bc578063f8c7f5a21461036e578063f9ab6db9146102ba5763fc8045b11461028f575f80fd5b346102b6575f3660031901126102b65760206040515f516020613e5f5f395f51905f528152f35b5f80fd5b346102b65760203660031901126102b6576001600160a01b036102db613052565b165f52600d60205260405f20604051806020835491828152019081935f5260205f20905f5b8181106103585750505081610316910382613156565b604051918291602083019060208452518091526040830191905f5b81811061033f575050500390f35b8251845285945060209384019390920191600101610331565b8254845260209093019260019283019201610300565b346102b65760203660031901126102b657610387613052565b6001600160a01b03165f9081525f516020613d9f5f395f51905f52602090815260409182902054915160ff9092161515825290f35b346102b6575f3660031901126102b65760206040515f516020613dff5f395f51905f528152f35b346102b6575f3660031901126102b6576020600854604051908152f35b346102b65760403660031901126102b657610419613052565b610421613068565b9060018060a01b03165f52600560205260405f209060018060a01b03165f52602052602060ff60405f2054166040519015158152f35b346102b65760203660031901126102b65760043561047361391c565b61047b613937565b610483613759565b805f52600b602052600a60405f20015415610537576104a1816136c9565b336001600160a01b039091160361052857805f52600b60205260405f20600681019081549060ff8260a81c1615610519575f9260089260ff60a81b1916905501557f730bb3d177f199acb749ca25b9288c64178cd10b945419c3cdf5bcff119ac0b25f80a260015f516020613e1f5f395f51905f5255005b630657e2c760e21b5f5260045ffd5b63f446c1b560e01b5f5260045ffd5b632a645edb60e01b5f5260045ffd5b346102b65760203660031901126102b6576004355f6101e060405161056a8161311f565b82815260606020820152606060408201526060808201528260808201528260a08201528260c08201528260e08201528261010082015282610120820152826101408201528261016082015282610180820152826101a082015260606101c08201520152805f52600b602052600a60405f20015415610537575f52600b60205260405f20600c604051916105fc8361311f565b8054835261060c60018201613202565b602084015261061d60028201613202565b604084015261062e60038201613202565b606084015260048101546080840152600581015460a084015260ff600682015460018060a01b03811660c0860152818160a01c16151560e0860152818160a81c16151561010086015260b01c161515610120840152600781015461014084015260088101546101608401526009810154610180840152600a8101546101a08401526106bb600b8201613202565b6101c084015201546101e0820152604051809160208252805160208301526101e06107c161072c6107166107006020860151610200604089015261022088019061307e565b6040860151878203601f1901606089015261307e565b6060850151868203601f1901608088015261307e565b608084015160a086015260a084015160c086015260018060a01b0360c08501511660e086015260e08401511515610100860152610100840151151561012086015261012084015115156101408601526101408401516101608601526101608401516101808601526101808401516101a08601526101a08401516101c08601526101c0840151601f19868303018487015261307e565b9101516102008301520390f35b346102b65760803660031901126102b6576004356064356024356044356107f361391c565b6107fb613937565b6108036137a2565b835f52600b602052600a60405f2001541561053757811561093057801561093057815f52601060205260ff60405f20541661093057805f52601060205260ff60405f2054166109305782151591828061093f575b610930576108ab60405161086a8161313b565b8281526003602082018581526040830188815260608401915f83528a5f52600c60205260405f20945185555160018501555160028401555115159101613504565b5f52601060205260405f20600160ff198254161790555f52601060205260405f20600160ff19825416179055610914575b507f3f83989b93fff65ebbe421cc2147f8297134c7f8a440a07ff7de2f6f31ac0ca05f80a260015f516020613e1f5f395f51905f5255005b5f52601060205260405f20600160ff19825416179055816108dc565b63e6c4247b60e01b5f5260045ffd5b50835f52601060205260ff60405f205416610857565b346102b65760403660031901126102b65761098b600435610974613068565b9061098661098182613459565b6137fe565b6139fb565b005b346102b65760203660031901126102b657600435805f52600b602052600a60405f20015415610537576109c16020916136c9565b6040516001600160a01b039091168152f35b346102b65760203660031901126102b657600435805f52600b602052600a60405f2001541561053757805f52600b60205260405f209060405191610a168361311f565b80548352610a2660018201613202565b9060208401918252610a3a60028201613202565b9360408101948552610a4e60038301613202565b91606082019283526004810154916080810192835260058201549060a08101918252600683015460018060a01b03811660c083015260e0820160ff8260a01c161515815261010083019260ff8360a81c161515845260ff61012082019360b01c1615158352600786015461014082015260088601546101608201526009860154610180820152600a8601546101a08201526101e0600c610af0600b8901613202565b976101c084019889520154910152610b07896136c9565b855151909590156110bf576020610b6460026030610b6d94516040519485916f22696d616765223a22697066733a2f2f60801b828401528051918291018484015e810161088b60f21b838201520301601d19810184520182613156565b985b5199613a7f565b995196519051156110b157610b806136a7565b915b51156110a357610b906136a7565b925b511561109257610bab610ba36136a7565b945b51613a7f565b9460018060a01b031696879660405197610bc660608a613156565b602a895260208901996040368c3789511561107e5760308b5389516001101561107e57607860218b015360295b60018111611024575061100d575051610c0b90613a7f565b986040519b8c809c683d913730b6b2911d1160b91b60208301528051916020839201906029015e8c016029810161202360f01b905281516020819301602b83015e0160290161088b60f21b600282015281516020819301600483015e7f226465736372697074696f6e223a225472616e7366657269756d2050726f746f600492909101918201527f636f6c202d2050726f66657373696f6e616c20466f6f7462616c6c20506c6179602482015270195c88149959da5cdd1c985d1a5bdb888b607a1b60448201526d2261747472696275746573223a5b60901b60558201527f7b2274726169745f74797065223a22506f736974696f6e222c2276616c7565226063820152611d1160f11b608382015281519160028201918391602001906085015e0160020162089f4b60ea1b6081820152608481017f7b2274726169745f74797065223a224e6174696f6e616c697479222c2276616c9052643ab2911d1160d91b60a48201528151602081930160a983015e0160810162089f4b60ea1b6028820152602b81017f7b2274726169745f74797065223a225665726966696564222c2276616c7565229052611d1160f11b604b82015281516020819301604d83015e0160280162089f4b60ea1b6025820152602881017f7b2274726169745f74797065223a224d65646963616c20436c656172616e636590526a1116113b30b63ab2911d1160a91b604882015281516020819301605383015e0160250162089f4b60ea1b602e820152603181017f7b2274726169745f74797065223a224c6973746564222c2276616c7565223a22905281516020819301605183015e01602e0162089f4b60ea1b6023820152602681017f7b2274726169745f74797065223a225765656b6c792053616c6172792028455590526c2921949116113b30b63ab2911d60991b604682015281516020819301605383015e016023019060308201611f4b60f21b9052603282017f7b2274726169745f74797065223a2243757272656e7420436c7562222c227661905265363ab2911d1160d11b6052830152518092605883015e0160300162089f4b60ea1b6028820152602b81017f7b2274726169745f74797065223a22436f6e747261637420457870697279222c905267113b30b63ab2911d60c11b604b82015281516020819301605383015e01602801602b8101607d60f81b9052602c8101615d7d60f01b905203602b01601c1981018252600301610f949082613156565b610f9d90613c09565b6040518091602082017f646174613a6170706c69636174696f6e2f6a736f6e3b6261736536342c000000905280516020819201603d84015e8101603d81015f905203603d01601f1981018252610ff39082613156565b604051809160208252602082016110099161307e565b0390f35b63e22e27eb60e01b5f52600452601460245260445ffd5b90600f8116601081101561107e578b5183101561107e576f181899199a1a9b1b9c1cb0b131b232b360811b901a8b83016020015360041c90801561106a575f1901610bf3565b634e487b7160e01b5f52601160045260245ffd5b634e487b7160e01b5f52603260045260245ffd5b610bab61109d613684565b94610ba5565b6110ab613684565b92610b92565b6110b9613684565b91610b82565b50610b6d6040516110d1604082613156565b600b81526a089a5b5859d9488e88888b60aa1b602082015298610b66565b346102b65760203660031901126102b65760043561110b6136fd565b69021e19e0c9bab24000008111611153577f50b218c5a101ad05d53ab0a964d01da639ee79525ae4b7802ed714249740a8d560406009548151908152836020820152a1600955005b6358d620b360e01b5f5260045ffd5b346102b6575f3660031901126102b657602060405169021e19e0c9bab24000008152f35b346102b65760803660031901126102b65761119f613052565b6111a7613068565b606435916001600160401b0383116102b657366023840112156102b6576111db61098b933690602481600401359101613194565b916044359161356b565b346102b65760403660031901126102b6576004356001600160a01b038116908190036102b657602435611216613937565b61121e6136fd565b811561093057801580156112b9575b6112aa5747811161129b575f80808084865af161124861353c565b501561128c5760207fc0819c13be868895eb93e40eaceb96de976442fa1d404e5c55f14bb65a8c489a91604051908152a260015f516020613e1f5f395f51905f5255005b631d42c86760e21b5f5260045ffd5b631e9acf1760e31b5f5260045ffd5b6366a7cc9160e11b5f5260045ffd5b50683635c9adc5dea00000811161122d565b346102b65760403660031901126102b6576112e4613052565b60243590811515908183036102b6573315611369576001600160a01b03169182156113565761132890335f52600560205260405f20845f5260205260405f20613504565b6040519081527f17307eab39ab6107e8899845ad3d59bd9653f200f220920489ca2b5937696c3160203392a3005b82630b61174360e31b5f5260045260245ffd5b63a9fbf51f60e01b5f525f60045260245ffd5b346102b6575f3660031901126102b65760206040515f8152f35b346102b6575f3660031901126102b6576040515f6001546113b6816131ca565b808452906001811690811561145057506001146113f2575b611009836113de81850382613156565b60405191829160208352602083019061307e565b60015f9081527fb10e2d527612073b26eecdfd717e6a320cf44b4afac2b0732d9fcbe2b7fa0cf6939250905b808210611436575090915081016020016113de6113ce565b91926001816020925483858801015201910190929161141e565b60ff191660208086019190915291151560051b840190910191506113de90506113ce565b346102b65760403660031901126102b65761148d613068565b6004355f52600660205260405f209060018060a01b03165f52602052602060ff60405f2054166040519015158152f35b346102b6575f3660031901126102b6576020604051683635c9adc5dea000008152f35b346102b6575f3660031901126102b6576114f86136fd565b61150061391c565b600160ff1960075416176007557f62e78cea01bee320cd4e420270b5ea74000d11b0c9f74754ebdbfc544b05a2586020604051338152a1005b346102b65760403660031901126102b6576004356024356001600160401b0381116102b65761156c9036906004016130f2565b61157792919261391c565b61157f613937565b815f52600b602052600a60405f200154156105375761159d826136c9565b5f838152600b6020526040902060060154336001600160a01b0392831614159116816116f1575b506116e2575f828152600b6020819052604090912001926001600160401b0382116116ce576115fd826115f786546131ca565b8661346b565b5f93601f831160011461165f5761162c83805f516020613d5f5f395f51905f5296975f91611654575b506134ba565b90555b61163e60405192839283613515565b0390a260015f516020613e1f5f395f51905f5255005b905084013588611626565b601f19831694815f5260205f20905f5b8781106116b65750845f516020613d5f5f395f51905f5296971061169d575b5050600183811b01905561162f565b8301355f19600386901b60f8161c19169055858061168e565b9091602060018192858801358155019301910161166f565b634e487b7160e01b5f52604160045260245ffd5b631648fd0160e01b5f5260045ffd5b9050331415846115c4565b346102b6575f3660031901126102b657602060405160408152f35b611720366130dc565b61172861391c565b611730613937565b611738613759565b815f52600b602052600a60405f2001541561053757611756826136c9565b336001600160a01b039091160361052857815f52600b60205260405f20600681019182549260ff8460a01c161561189b5760ff8460b01c161561188c57845f52600c60205260ff600360405f200154161561187d5760ff8460a81c1661186f578115801561185b575b61184d57600a54340361183e57600483015442101561182f5760ff60a81b19909316600160a81b179092556008018190556040519081527f561c3416be862008e42c047485cffa3005672af024d117176d50f73461a88e4c90602090a260015f516020613e1f5f395f51905f5255005b630790d4e360e01b5f5260045ffd5b63cd1c886760e01b5f5260045ffd5b62bfc92160e01b5f5260045ffd5b50676765c793fa10079d601a1b82116117bf565b62270be160e41b5f5260045ffd5b633bd639ff60e11b5f5260045ffd5b633b1a02ef60e01b5f5260045ffd5b6360e6b51b60e11b5f5260045ffd5b346102b65760403660031901126102b6576004356118c6613068565b6118ce61391c565b6118d6613937565b6118de6137a2565b815f52600b602052600a60405f20015415610537576001600160a01b0316908115610930575f818152600b60205260409020600601546001600160a01b031661093057815f52601160205260ff60405f205416610930575f818152600b6020908152604080832060060180546001600160a01b0319168617905584835260119091528120805460ff191660011790557f1b808932b8c3b514083772af7b7d61295f17204a7d2ba98b5f46c08e766c25a79080a360015f516020613e1f5f395f51905f5255005b346102b6576119b2366130dc565b6119ba61391c565b6119c2613937565b6119ca613759565b815f52600b602052600a60405f20015415610537576119e8826136c9565b336001600160a01b03909116036105285742811115611a6657815f52600b602052600460405f200154811115611a665760207f2bfea865c31234064fed3b7148737e69eee440ca711e22dcf3d1b22ba2f66a5f91835f52600b825280600460405f200155604051908152a260015f516020613e1f5f395f51905f5255005b62d36c8560e81b5f5260045ffd5b346102b6575f3660031901126102b65760206040515f516020613e3f5f395f51905f528152f35b346102b65760203660031901126102b6576001600160a01b03611abc613052565b168015611ad9575f526003602052602060405f2054604051908152f35b6322718ad960e21b5f525f60045260245ffd5b346102b6575f3660031901126102b65760206040515f516020613d7f5f395f51905f528152f35b346102b6575f3660031901126102b6576020600a54604051908152f35b346102b65760203660031901126102b6576004355f6060604051611b538161313b565b8281528260208201528260408201520152805f52600b602052600a60405f20015415610537575f52600c602052608060405f20604051611b928161313b565b815491828252600181015460208301908152606060ff600360028501549460408701958652015416930192151583526040519384525160208401525160408301525115156060820152f35b346102b65760203660031901126102b65760206109c16004356136c9565b346102b6575f3660031901126102b657602060ff600754166040519015158152f35b346102b65760403660031901126102b657611c36613052565b6024356001600160401b0381116102b657611c559036906004016130f2565b9091611c5f6137a2565b81158015611d65575b611d56576001600160a01b03165f818152601360205260409020929091906001600160401b0382116116ce57611ca2826115f786546131ca565b5f93601f8311600114611ce757611cd083805f516020613d3f5f395f51905f5296975f9161165457506134ba565b90555b611ce260405192839283613515565b0390a2005b601f19831694815f5260205f20905f5b878110611d3e5750845f516020613d3f5f395f51905f52969710611d25575b5050600183811b019055611cd3565b8301355f19600386901b60f8161c191690558580611d16565b90916020600181928588013581550193019101611cf7565b6333afdcc360e01b5f5260045ffd5b5060408211611c68565b346102b65760203660031901126102b657600435611d8b61391c565b611d93613937565b611d9b6137a2565b805f52600b602052600a60405f2001541561053757805f52600c60205260405f20600381019081549060ff8216611e145754156109305760ff1916600117905533907fed2c2ce3d8062cf2c584e4704b6b6c06054e976cdc006ae754859d9de41eb0a05f80a360015f516020613e1f5f395f51905f5255005b63a7d1daa960e01b5f5260045ffd5b346102b65761098b611e34366130a2565b9060405192611e44602085613156565b5f845261356b565b346102b6575f3660031901126102b657611e646136fd565b60075460ff811615611ea35760ff19166007557f5db9ee0a495bf2e6ff9c91a7834c1ba4fdd244a5e8aa4e537bd38aeae4b073aa6020604051338152a1005b638dfc202b60e01b5f5260045ffd5b346102b65760403660031901126102b657600435611ece613068565b611ed661391c565b611ede613937565b815f52600b602052600a60405f2001541561053757815f52600b602052600660405f20019160018060a01b03835416918215611fbf57338303611fb0576001600160a01b031692831561093057835f52601160205260ff60405f205416610930575f83815260116020526040808220805460ff199081169091558683529082208054909116600117905581546001600160a01b03191685179091557f5541278974bb9a469553ebe5150f576b17c54a4db3b6ed4e523171ed51983a769080a460015f516020613e1f5f395f51905f5255005b631d3c442d60e21b5f5260045ffd5b6382bcaa3b60e01b5f5260045ffd5b346102b65760403660031901126102b657611fe7613068565b336001600160a01b038216036120035761098b906004356139fb565b63334bd91960e11b5f5260045ffd5b346102b6575f3660031901126102b65760206040516a084595161401484a0000008152f35b346102b65760603660031901126102b657600435612053613068565b6044356001600160a01b038116918282036102b65761207061391c565b612078613937565b335f9081525f516020613dbf5f395f51905f52602052604090205460ff16156122c757835f52600b602052600a60405f20015415610537578215610930576001600160a01b03169082821461093057816001600160a01b036120d9866136c9565b1603610528575f848152600e6020908152604080832054858452600d90925290912080545f19810190811161106a57612111916134cc565b90549060031b1c835f52600d602052612149816121318460405f206134cc565b90919082549060031b91821b915f19901b1916179055565b5f52600e60205260405f2055815f52600d60205260405f20805480156122b3575f19019061217782826134cc565b8154905f199060031b1b1916905555825f52600d60205260405f2054845f52600e60205260405f2055825f52600d6020526121b58460405f206134e1565b835f52600b6020525f60076040822060068101805484600884015561ffff60a81b19169055015561222c6040516121eb8161313b565b5f81526003602082015f8152604083015f815260608401915f8352895f52600c60205260405f20945185555160018501555160028401555115159101613504565b6001600160a01b0390612240908590613838565b16806122595783637e27328960e01b5f5260045260245ffd5b808285920361229a57507f5f5adfdfb7a234b61892f9d91126bd94774a85f3ca01c5394913dd02473871395f80a460015f516020613e1f5f395f51905f5255005b916364283d7b60e01b5f5260045260245260445260645ffd5b634e487b7160e01b5f52603160045260245ffd5b63e2517d3f60e01b5f52336004525f516020613d7f5f395f51905f5260245260445ffd5b346102b65760403660031901126102b65761098b60043561230a613068565b9061231761098182613459565b61396f565b346102b65760203660031901126102b65760043561233861391c565b6123406137a2565b805f52600b602052600a60405f2001541561053757805f52600b60205260ff600660405f20015460a01c166123b9575f818152600b60205260408120600601805460ff60a01b1916600160a01b1790553391907f37874770a804a7f707dcd526cb63a107863b9244f5487cc592b592806c8aa7679080a3005b633736b4d760e01b5f5260045ffd5b346102b65760403660031901126102b6576004356024356123e761391c565b6123ef613937565b6123f76137a2565b815f52600b602052600a60405f2001541561053757801561093057805f52601060205260ff60405f20541661093057815f52600b60205260ff600660405f20015460b01c166124bc575f828152600b6020908152604080832060068101805460ff60b01b1916600160b01b1790556007018490558383526010825291829020805460ff1916600117905590519182527f7a73b9a34d33c6be051c258466ebb49b8110d2dac4a55bbfc739f9463d87e74e91a260015f516020613e1f5f395f51905f5255005b636711343160e01b5f5260045ffd5b60e03660031901126102b6576004356001600160401b0381116102b6576124f69036906004016130f2565b6024356001600160401b0381116102b6576125159036906004016130f2565b9091906044356001600160401b0381116102b6576125379036906004016130f2565b909160643560843560a4356001600160401b0381116102b65761255e9036906004016130f2565b91909261256961391c565b612571613937565b612579613759565b87158015612c2a575b612c075784158015612c20575b612c075785158015612c16575b612c0757600954340361183e574281111561182f576a084595161401484a0000008211612bf85760c4351515968780612be0575b612bd1578a896126036014602060405184819583830197883781013360601b838201520301600b19810184520182613156565b51902096875f52600f60205260ff60405f205416612bc2576008549a5f198c1461106a5760018c016008556040519761263b8961311f565b60018d0189528d8c369061264e92613194565b60208a0152369061265e92613194565b6040880152369061266e92613194565b6060860152608085015260a084015260c083015f905260e083015f905261010083015f905261012083015f905261014083015f905261016083015f905261018083015f9052426101a084015236906126c592613194565b6101c082015260c4356101e0820152600185015f52600b60205260405f2090805182556020810151805190600160401b6001900382116116ce576127198261271060018701546131ca565b6001870161346b565b602090601f8311600114612b555761273b92915f9183612add575b50506134ba565b60018301555b60408101518051906001600160401b0382116116ce576127718261276860028701546131ca565b6002870161346b565b602090601f8311600114612ae85761279292915f9183612add5750506134ba565b60028301555b6060810151805160038401916001600160401b0382116116ce576127c6826127c085546131ca565b8561346b565b602090601f8311600114612a7a576127e792915f9183612a6f5750506134ba565b90555b6080810151600483015560a080820151600584015560c082015160068401805460e08501516101008601516101208701516001600160b81b03199093166001600160a01b03959095169490941790151590941b60ff60a01b169390931791151560a81b60ff60a81b169190911791151560b01b60ff60b01b169190911790556101408101516007830155610160810151600883015561018081015160098301556101a0810151600a8301556101c08101518051600b8401916001600160401b0382116116ce576128be826127c085546131ca565b602090601f8311600114612a055782600c95936101e095936128e7935f926129fa5750506134ba565b90555b0151910155335f52600d60205260405f2054600185015f52600e60205260405f2055335f52600d6020526129246001850160405f206134e1565b5f52600f60205260405f20600160ff198254161790556129dc575b33156129c9576001600160a01b0361295a6001840133613838565b166129b6576020927f2f55cde73f168db90a448e73b4193010d39de2093e075ed53a83bcab9dd0862a604051806129973395600188019583613515565b0390a360015f516020613e1f5f395f51905f5255600160405191018152f35b6339e3563760e11b5f525f60045260245ffd5b633250574960e11b5f525f60045260245ffd5b60c4355f52601260205260405f20600160ff1982541617905561293f565b015190508d80612734565b90601f19831691845f52815f20925f5b818110612a575750926001928592600c98966101e0989610612a3f575b505050811b0190556128ea565b01515f1960f88460031b161c191690558c8080612a32565b92936020600181928786015181550195019301612a15565b015190508b80612734565b90601f19831691845f52815f20925f5b818110612ac55750908460019594939210612aad575b505050811b0190556127ea565b01515f1960f88460031b161c191690558a8080612aa0565b92936020600181928786015181550195019301612a8a565b015190508a80612734565b9190600285015f52805f20905f935b601f1984168510612b3a576001945083601f19811610612b22575b505050811b016002830155612798565b01515f1960f88460031b161c19169055898080612b12565b81810151835560209485019460019093019290910190612af7565b9190600185015f52805f20905f935b601f1984168510612ba7576001945083601f19811610612b8f575b505050811b016001830155612741565b01515f1960f88460031b161c19169055898080612b7f565b81810151835560209485019460019093019290910190612b64565b637722b8a160e11b5f5260045ffd5b632365304160e21b5f5260045ffd5b5060c4355f52601260205260ff60405f2054166125d0565b630863d2fb60e21b5f5260045ffd5b630ec0325960e21b5f5260045ffd5b506040861161259c565b506040851161258f565b5060408811612582565b346102b657612c42366130dc565b612c4a61391c565b612c52613937565b612c5a613759565b815f52600b602052600a60405f2001541561053757612c78826136c9565b336001600160a01b039091160361052857676765c793fa10079d601a1b811161184d5760207f690f108db8205a0a5e3454acd556a06c61db73f3dd2efa674349f5347213be0791835f52600b825280600960405f200155604051908152a260015f516020613e1f5f395f51905f5255005b346102b65760203660031901126102b6576020612d07600435613459565b604051908152f35b346102b65761098b612d20366130a2565b916132a2565b346102b6575f3660031901126102b6576020600954604051908152f35b346102b65760203660031901126102b657600435612d5f6136fd565b69021e19e0c9bab24000008111611153577f83bee1c75d00c29e66092d821c1c82aa4792fe1f058e8dff38d5d394d37916dd6040600a548151908152836020820152a1600a55005b346102b65760403660031901126102b657612dc0613052565b602435612dcc816136c9565b33151580612e7e575b80612e51575b612e3e5781906001600160a01b0384811691167f8c5be1e5ebec7d5bd14f71427d1e84f3dd0314c0f7b2291e5b200ac8c7c3b9255f80a45f90815260046020526040902080546001600160a01b0319166001600160a01b03909216919091179055005b63a9fbf51f60e01b5f523360045260245ffd5b506001600160a01b0381165f90815260056020908152604080832033845290915290205460ff1615612ddb565b506001600160a01b038116331415612dd5565b346102b65760203660031901126102b657600435612eae816136c9565b505f526004602052602060018060a01b0360405f205416604051908152f35b346102b6575f3660031901126102b6576040515f5f54612eec816131ca565b80845290600181169081156114505750600114612f1357611009836113de81850382613156565b5f8080527f290decd9548b62a8d60345a988386fc84ba6bc95484008f6362f93160ef3e563939250905b808210612f55575090915081016020016113de6113ce565b919260018160209254838588010152019101909291612f3d565b346102b65760203660031901126102b6576001600160a01b03612f90613052565b165f5260136020526110096113de60405f20613202565b346102b65760203660031901126102b65760043563ffffffff60e01b81168091036102b657602090637965db0b60e01b8114908115612fec575b506040519015158152f35b6380ac58cd60e01b81149150811561301e575b811561300d575b5082612fe1565b6301ffc9a760e01b14905082613006565b635b5e139f60e01b81149150612fff565b346102b6575f3660031901126102b657676765c793fa10079d601a1b8152602090f35b600435906001600160a01b03821682036102b657565b602435906001600160a01b03821682036102b657565b805180835260209291819084018484015e5f828201840152601f01601f1916010190565b60609060031901126102b6576004356001600160a01b03811681036102b657906024356001600160a01b03811681036102b6579060443590565b60409060031901126102b6576004359060243590565b9181601f840112156102b6578235916001600160401b0383116102b657602083818601950101116102b657565b61020081019081106001600160401b038211176116ce57604052565b608081019081106001600160401b038211176116ce57604052565b601f909101601f19168101906001600160401b038211908210176116ce57604052565b6001600160401b0381116116ce57601f01601f191660200190565b9291926131a082613179565b916131ae6040519384613156565b8294818452818301116102b6578281602093845f960137010152565b90600182811c921680156131f8575b60208310146131e457565b634e487b7160e01b5f52602260045260245ffd5b91607f16916131d9565b9060405191825f825492613215846131ca565b8084529360018116908115613280575060011461323c575b5061323a92500383613156565b565b90505f9291925260205f20905f915b81831061326457505090602061323a928201015f61322d565b602091935080600191548385890101520191019091849261324b565b90506020925061323a94915060ff191682840152151560051b8201015f61322d565b6001600160a01b03909116919082156129c9575f828152600260205260409020546001600160a01b0316151580613434575b613425575f828152600260205260409020546001600160a01b031692829033151580613390575b508461336f575b805f52600360205260405f2060018154019055815f52600260205260405f208160018060a01b0319825416179055845f516020613ddf5f395f51905f525f80a46001600160a01b031680830361335757505050565b6364283d7b60e01b5f5260045260245260445260645ffd5b61337882613bec565b845f52600360205260405f205f198154019055613302565b909150806133d4575b156133a65782905f6132fb565b82846133be57637e27328960e01b5f5260045260245ffd5b63177e802f60e01b5f523360045260245260445ffd5b503384148015613403575b8061339957505f838152600460205260409020546001600160a01b03163314613399565b505f84815260056020908152604080832033845290915290205460ff166133df565b6309a4abd160e41b5f5260045ffd5b50335f9081525f516020613dbf5f395f51905f52602052604090205460ff16156132d4565b5f526006602052600160405f20015490565b601f821161347857505050565b5f5260205f20906020601f840160051c830193106134b0575b601f0160051c01905b8181106134a5575050565b5f815560010161349a565b9091508190613491565b8160011b915f199060031b1c19161790565b805482101561107e575f5260205f2001905f90565b80549190600160401b8310156116ce578261213191600161323a950181556134cc565b9060ff801983541691151516179055565b90918060409360208452816020850152848401375f828201840152601f01601f1916010190565b3d15613566573d9061354d82613179565b9161355b6040519384613156565b82523d5f602084013e565b606090565b92916135788183866132a2565b813b613585575b50505050565b604051630a85bd0160e11b81523360048201526001600160a01b03948516602482015260448101919091526080606482015292169190602090829081906135d090608483019061307e565b03815f865af15f918161363f575b5061360c57506135ec61353c565b805190816136075782633250574960e11b5f5260045260245ffd5b602001fd5b6001600160e01b03191663757a42ff60e11b0161362d57505f80808061357f565b633250574960e11b5f5260045260245ffd5b9091506020813d60201161367c575b8161365b60209383613156565b810103126102b657516001600160e01b0319811681036102b657905f6135de565b3d915061364e565b60405190613693604083613156565b600582526466616c736560d81b6020830152565b604051906136b6604083613156565b60048252637472756560e01b6020830152565b5f818152600260205260409020546001600160a01b03169081156136eb575090565b637e27328960e01b5f5260045260245ffd5b335f9081527f0c3bb05773fb95f6688e1e7d9c896674dccd66884026cf30a3d5e3a9bfecd811602052604090205460ff161561373557565b63e2517d3f60e01b5f52336004525f516020613e3f5f395f51905f5260245260445ffd5b335f9081525f516020613d9f5f395f51905f52602052604090205460ff161561377e57565b63e2517d3f60e01b5f52336004525f516020613e5f5f395f51905f5260245260445ffd5b335f9081527f827ad982763bf2f282f43324cd3a5f6cdfdb70b1feb6870da9693db6590b7f6b602052604090205460ff16156137da57565b63e2517d3f60e01b5f52336004525f516020613dff5f395f51905f5260245260445ffd5b5f81815260066020908152604080832033845290915290205460ff16156138225750565b63e2517d3f60e01b5f523360045260245260445ffd5b5f828152600260205260409020549091906001600160a01b03161515806138f7575b613425575f818152600260205260409020546001600160a01b031691826138d6575b6001600160a01b0316806138be575b5f82815260026020526040812080546001600160a01b0319168317905583905f516020613ddf5f395f51905f529080a490565b805f52600360205260405f206001815401905561388b565b6138df82613bec565b825f52600360205260405f205f19815401905561387c565b50335f9081525f516020613dbf5f395f51905f52602052604090205460ff161561385a565b60ff6007541661392857565b63d93c066560e01b5f5260045ffd5b60025f516020613e1f5f395f51905f5254146139605760025f516020613e1f5f395f51905f5255565b633ee5aeb560e01b5f5260045ffd5b5f8181526006602090815260408083206001600160a01b038616845290915290205460ff166139f5575f8181526006602090815260408083206001600160a01b0395909516808452949091528120805460ff19166001179055339291907f2f8788117e7eff1d82e926ec794901d17c78024a50270940304540a733656f0d9080a4600190565b50505f90565b5f8181526006602090815260408083206001600160a01b038616845290915290205460ff16156139f5575f8181526006602090815260408083206001600160a01b0395909516808452949091528120805460ff19169055339291907ff6391f5c32d9c69d2a47ea670b442974b53935d1edc7fd64eb21e047a839171b9080a4600190565b5f908072184f03e93ff9f4daa797ed6e38ed64bf6a1f0160401b811015613bc9575b600a906904ee2d6d415b85acef8160201b811015613bad575b662386f26fc10000811015613b99575b6305f5e100811015613b88575b612710811015613b79575b6064811015613b6b575b1015613b60575b600a60216001840193613b0585613179565b94613b136040519687613156565b808652613b22601f1991613179565b013660208701378401015b5f1901916f181899199a1a9b1b9c1cb0b131b232b360811b8282061a8353048015613b5b57600a9091613b2d565b505090565b600190910190613af3565b606460029104930192613aec565b61271060049104930192613ae2565b6305f5e10060089104930192613ad7565b662386f26fc1000060109104930192613aca565b602093909301926904ee2d6d415b85acef8160201b9004613aba565b506040915072184f03e93ff9f4daa797ed6e38ed64bf6a1f0160401b8104613aa1565b5f90815260046020526040902080546001600160a01b0319169055565b90815115613d285781516002810180911161106a5760039004600281901b91906001600160fe1b0381160361106a57604051917f4142434445464748494a4b4c4d4e4f505152535455565758595a616263646566601f527f6768696a6b6c6d6e6f707172737475767778797a303132333435363738392b2f603f52602083018480518101602081018051915f82525b808910613cec5750602095969750906003929152510680600114613cd757600214613cca575b50808452830101604052565b603d905f1901535f613cbe565b50603d90815f1982015360011901535f613cbe565b939760036004910198603f8a51818160121c165183538181600c1c16516001840153818160061c16516002840153165160038201530193613c98565b9050604051613d38602082613156565b5f81529056fe00c45cb91aaf4430bd80ccc92dd6e4d588140c9f1380582349f77eef8a7b67ea6cbe040987295f70b3d807437ff24198c9fbd81f7eb082e96fefe98a3b165f2e2fdac322ee704ce09f0773f7f3f92eb98d5e7c836ee9c056cccd5f61041e5e3f548a2ed773d569e71f08f1415bd5a008688f60fe5663fc3610512fea9a6588b957823ddf81d7b5c9992f89688a4737fa0b677ade9b8f8ef6ec08559650617387ddf252ad1be2c89b69c2b068fc378daa952ba7f163c4a11628f55a4df523b3efedcc084d3dcd65a1f7f23c65c46722faca6953d28e43150a467cf43e5c3092389b779b17422d0df92223018b32b4d1fa46e071723d6817e2486d003becc55f00a49807205ce4d355092ef5a8a18f56e8913cf4a201fbe287825b095693c21775ba2dc669204b26427a432593e1c6ac86ab4ccc54d29c4287abbd1cefc1cb002ba26469706673582212208773fcfa52c66eab8957526fb1539d3b9c594e2b1a778ea76beb9d57dafbb6fb64736f6c634300081c00332f8788117e7eff1d82e926ec794901d17c78024a50270940304540a733656f0d827ad982763bf2f282f43324cd3a5f6cdfdb70b1feb6870da9693db6590b7f6b0c3bb05773fb95f6688e1e7d9c896674dccd66884026cf30a3d5e3a9bfecd81154cdd369e4e8a8515e52ca72ec816c2101831ad1f18bf44102ed171459c9b4f8",
  "linkReferences": {},
  "deployedLinkReferences": {},
  "immutableReferences": {},
  "inputSourceName": "project/contracts/core/PlayerRegistry.sol",
  "buildInfoId": "solc-0_8_28-3bb3370525f7eeab40de74b6c0cf6527d1ac7645"
}