{
  "_format": "hh3-artifact-1",
  "contractName": "ReleaseEscrow",
  "sourceName": "contracts/core/ReleaseEscrow.sol",
  "abi": [
    {
      "inputs": [],
      "stateMutability": "nonpayable",
      "type": "constructor"
    },
    {
      "inputs": [],
      "name": "AccessControlBadConfirmation",
      "type": "error"
    },
    {
      "inputs": [
        {
          "internalType": "address",
          "name": "account",
          "type": "address"
        },
        {
          "internalType": "bytes32",
          "name": "neededRole",
          "type": "bytes32"
        }
      ],
      "name": "AccessControlUnauthorizedAccount",
      "type": "error"
    },
    {
      "inputs": [
        {
          "internalType": "address",
          "name": "target",
          "type": "address"
        }
      ],
      "name": "AddressEmptyCode",
      "type": "error"
    },
    {
      "inputs": [],
      "name": "CannotBuyOwnPlayer",
      "type": "error"
    },
    {
      "inputs": [],
      "name": "ClubTransferBanned",
      "type": "error"
    },
    {
      "inputs": [],
      "name": "ConsentWindowExpired",
      "type": "error"
    },
    {
      "inputs": [
        {
          "internalType": "address",
          "name": "implementation",
          "type": "address"
        }
      ],
      "name": "ERC1967InvalidImplementation",
      "type": "error"
    },
    {
      "inputs": [],
      "name": "ERC1967NonPayable",
      "type": "error"
    },
    {
      "inputs": [],
      "name": "EnforcedPause",
      "type": "error"
    },
    {
      "inputs": [],
      "name": "ExpectedPause",
      "type": "error"
    },
    {
      "inputs": [],
      "name": "FailedCall",
      "type": "error"
    },
    {
      "inputs": [],
      "name": "InvalidAddress",
      "type": "error"
    },
    {
      "inputs": [],
      "name": "InvalidAmount",
      "type": "error"
    },
    {
      "inputs": [],
      "name": "InvalidInitialization",
      "type": "error"
    },
    {
      "inputs": [],
      "name": "MedicalAlreadySubmitted",
      "type": "error"
    },
    {
      "inputs": [],
      "name": "MedicalWindowExpired",
      "type": "error"
    },
    {
      "inputs": [],
      "name": "NoReleaseClauseSet",
      "type": "error"
    },
    {
      "inputs": [],
      "name": "NotBuyingClub",
      "type": "error"
    },
    {
      "inputs": [],
      "name": "NotInitializing",
      "type": "error"
    },
    {
      "inputs": [],
      "name": "NotPlayerWallet",
      "type": "error"
    },
    {
      "inputs": [],
      "name": "NothingToClaim",
      "type": "error"
    },
    {
      "inputs": [],
      "name": "PlayerHasActiveDeal",
      "type": "error"
    },
    {
      "inputs": [],
      "name": "PlayerHasActiveOffer",
      "type": "error"
    },
    {
      "inputs": [],
      "name": "PlayerHasActiveRelease",
      "type": "error"
    },
    {
      "inputs": [],
      "name": "PlayerWalletNotSet",
      "type": "error"
    },
    {
      "inputs": [],
      "name": "ProtocolFeeTooHigh",
      "type": "error"
    },
    {
      "inputs": [],
      "name": "ReentrantCall",
      "type": "error"
    },
    {
      "inputs": [],
      "name": "ReleaseNotFound",
      "type": "error"
    },
    {
      "inputs": [
        {
          "internalType": "address",
          "name": "token",
          "type": "address"
        }
      ],
      "name": "SafeERC20FailedOperation",
      "type": "error"
    },
    {
      "inputs": [],
      "name": "TimerTooShort",
      "type": "error"
    },
    {
      "inputs": [],
      "name": "TokenNotApproved",
      "type": "error"
    },
    {
      "inputs": [],
      "name": "TransferWindowClosed",
      "type": "error"
    },
    {
      "inputs": [],
      "name": "UUPSUnauthorizedCallContext",
      "type": "error"
    },
    {
      "inputs": [
        {
          "internalType": "bytes32",
          "name": "slot",
          "type": "bytes32"
        }
      ],
      "name": "UUPSUnsupportedProxiableUUID",
      "type": "error"
    },
    {
      "inputs": [],
      "name": "WrongReleaseState",
      "type": "error"
    },
    {
      "anonymous": false,
      "inputs": [
        {
          "indexed": true,
          "internalType": "address",
          "name": "recipient",
          "type": "address"
        },
        {
          "indexed": true,
          "internalType": "address",
          "name": "token",
          "type": "address"
        },
        {
          "indexed": false,
          "internalType": "uint256",
          "name": "amount",
          "type": "uint256"
        }
      ],
      "name": "FundsClaimed",
      "type": "event"
    },
    {
      "anonymous": false,
      "inputs": [
        {
          "indexed": false,
          "internalType": "uint64",
          "name": "version",
          "type": "uint64"
        }
      ],
      "name": "Initialized",
      "type": "event"
    },
    {
      "anonymous": false,
      "inputs": [
        {
          "indexed": true,
          "internalType": "uint256",
          "name": "releaseId",
          "type": "uint256"
        },
        {
          "indexed": false,
          "internalType": "enum ReleaseEscrow.MedicalOutcome",
          "name": "outcome",
          "type": "uint8"
        }
      ],
      "name": "MedicalSubmitted",
      "type": "event"
    },
    {
      "anonymous": false,
      "inputs": [
        {
          "indexed": false,
          "internalType": "address",
          "name": "account",
          "type": "address"
        }
      ],
      "name": "Paused",
      "type": "event"
    },
    {
      "anonymous": false,
      "inputs": [
        {
          "indexed": true,
          "internalType": "uint256",
          "name": "releaseId",
          "type": "uint256"
        },
        {
          "indexed": true,
          "internalType": "uint256",
          "name": "playerId",
          "type": "uint256"
        }
      ],
      "name": "PlayerConsented",
      "type": "event"
    },
    {
      "anonymous": false,
      "inputs": [
        {
          "indexed": true,
          "internalType": "uint256",
          "name": "releaseId",
          "type": "uint256"
        },
        {
          "indexed": true,
          "internalType": "uint256",
          "name": "playerId",
          "type": "uint256"
        }
      ],
      "name": "PlayerDeclined",
      "type": "event"
    },
    {
      "anonymous": false,
      "inputs": [
        {
          "indexed": false,
          "internalType": "uint256",
          "name": "newBps",
          "type": "uint256"
        }
      ],
      "name": "ProtocolFeeUpdated",
      "type": "event"
    },
    {
      "anonymous": false,
      "inputs": [
        {
          "indexed": true,
          "internalType": "uint256",
          "name": "releaseId",
          "type": "uint256"
        },
        {
          "indexed": false,
          "internalType": "string",
          "name": "reason",
          "type": "string"
        }
      ],
      "name": "ReleaseCancelled",
      "type": "event"
    },
    {
      "anonymous": false,
      "inputs": [
        {
          "indexed": true,
          "internalType": "uint256",
          "name": "releaseId",
          "type": "uint256"
        },
        {
          "indexed": true,
          "internalType": "uint256",
          "name": "playerId",
          "type": "uint256"
        },
        {
          "indexed": true,
          "internalType": "address",
          "name": "newClub",
          "type": "address"
        }
      ],
      "name": "ReleaseCompleted",
      "type": "event"
    },
    {
      "anonymous": false,
      "inputs": [
        {
          "indexed": true,
          "internalType": "uint256",
          "name": "releaseId",
          "type": "uint256"
        },
        {
          "indexed": true,
          "internalType": "uint256",
          "name": "playerId",
          "type": "uint256"
        },
        {
          "indexed": true,
          "internalType": "address",
          "name": "buyingClub",
          "type": "address"
        },
        {
          "indexed": false,
          "internalType": "uint256",
          "name": "amount",
          "type": "uint256"
        }
      ],
      "name": "ReleaseTriggered",
      "type": "event"
    },
    {
      "anonymous": false,
      "inputs": [
        {
          "indexed": true,
          "internalType": "bytes32",
          "name": "role",
          "type": "bytes32"
        },
        {
          "indexed": true,
          "internalType": "bytes32",
          "name": "previousAdminRole",
          "type": "bytes32"
        },
        {
          "indexed": true,
          "internalType": "bytes32",
          "name": "newAdminRole",
          "type": "bytes32"
        }
      ],
      "name": "RoleAdminChanged",
      "type": "event"
    },
    {
      "anonymous": false,
      "inputs": [
        {
          "indexed": true,
          "internalType": "bytes32",
          "name": "role",
          "type": "bytes32"
        },
        {
          "indexed": true,
          "internalType": "address",
          "name": "account",
          "type": "address"
        },
        {
          "indexed": true,
          "internalType": "address",
          "name": "sender",
          "type": "address"
        }
      ],
      "name": "RoleGranted",
      "type": "event"
    },
    {
      "anonymous": false,
      "inputs": [
        {
          "indexed": true,
          "internalType": "bytes32",
          "name": "role",
          "type": "bytes32"
        },
        {
          "indexed": true,
          "internalType": "address",
          "name": "account",
          "type": "address"
        },
        {
          "indexed": true,
          "internalType": "address",
          "name": "sender",
          "type": "address"
        }
      ],
      "name": "RoleRevoked",
      "type": "event"
    },
    {
      "anonymous": false,
      "inputs": [
        {
          "indexed": true,
          "internalType": "address",
          "name": "newTreasury",
          "type": "address"
        }
      ],
      "name": "TreasuryUpdated",
      "type": "event"
    },
    {
      "anonymous": false,
      "inputs": [
        {
          "indexed": false,
          "internalType": "address",
          "name": "account",
          "type": "address"
        }
      ],
      "name": "Unpaused",
      "type": "event"
    },
    {
      "anonymous": false,
      "inputs": [
        {
          "indexed": true,
          "internalType": "address",
          "name": "implementation",
          "type": "address"
        }
      ],
      "name": "Upgraded",
      "type": "event"
    },
    {
      "inputs": [],
      "name": "ADMIN_ROLE",
      "outputs": [
        {
          "internalType": "bytes32",
          "name": "",
          "type": "bytes32"
        }
      ],
      "stateMutability": "view",
      "type": "function"
    },
    {
      "inputs": [],
      "name": "BPS_DENOMINATOR",
      "outputs": [
        {
          "internalType": "uint256",
          "name": "",
          "type": "uint256"
        }
      ],
      "stateMutability": "view",
      "type": "function"
    },
    {
      "inputs": [],
      "name": "CLUB_ROLE",
      "outputs": [
        {
          "internalType": "bytes32",
          "name": "",
          "type": "bytes32"
        }
      ],
      "stateMutability": "view",
      "type": "function"
    },
    {
      "inputs": [],
      "name": "DEFAULT_ADMIN_ROLE",
      "outputs": [
        {
          "internalType": "bytes32",
          "name": "",
          "type": "bytes32"
        }
      ],
      "stateMutability": "view",
      "type": "function"
    },
    {
      "inputs": [],
      "name": "MAX_PROTOCOL_FEE_BPS",
      "outputs": [
        {
          "internalType": "uint256",
          "name": "",
          "type": "uint256"
        }
      ],
      "stateMutability": "view",
      "type": "function"
    },
    {
      "inputs": [],
      "name": "MIN_CONSENT_WINDOW",
      "outputs": [
        {
          "internalType": "uint256",
          "name": "",
          "type": "uint256"
        }
      ],
      "stateMutability": "view",
      "type": "function"
    },
    {
      "inputs": [],
      "name": "MIN_MEDICAL_WINDOW",
      "outputs": [
        {
          "internalType": "uint256",
          "name": "",
          "type": "uint256"
        }
      ],
      "stateMutability": "view",
      "type": "function"
    },
    {
      "inputs": [],
      "name": "UPGRADE_INTERFACE_VERSION",
      "outputs": [
        {
          "internalType": "string",
          "name": "",
          "type": "string"
        }
      ],
      "stateMutability": "view",
      "type": "function"
    },
    {
      "inputs": [],
      "name": "addressRegistry",
      "outputs": [
        {
          "internalType": "contract IAddressRegistry",
          "name": "",
          "type": "address"
        }
      ],
      "stateMutability": "view",
      "type": "function"
    },
    {
      "inputs": [
        {
          "internalType": "address",
          "name": "token",
          "type": "address"
        }
      ],
      "name": "approveToken",
      "outputs": [],
      "stateMutability": "nonpayable",
      "type": "function"
    },
    {
      "inputs": [
        {
          "internalType": "uint256",
          "name": "releaseId",
          "type": "uint256"
        }
      ],
      "name": "consentToRelease",
      "outputs": [],
      "stateMutability": "nonpayable",
      "type": "function"
    },
    {
      "inputs": [],
      "name": "consentWindow",
      "outputs": [
        {
          "internalType": "uint256",
          "name": "",
          "type": "uint256"
        }
      ],
      "stateMutability": "view",
      "type": "function"
    },
    {
      "inputs": [
        {
          "internalType": "uint256",
          "name": "releaseId",
          "type": "uint256"
        }
      ],
      "name": "declineRelease",
      "outputs": [],
      "stateMutability": "nonpayable",
      "type": "function"
    },
    {
      "inputs": [
        {
          "internalType": "uint256",
          "name": "releaseId",
          "type": "uint256"
        }
      ],
      "name": "executeRelease",
      "outputs": [],
      "stateMutability": "nonpayable",
      "type": "function"
    },
    {
      "inputs": [
        {
          "internalType": "address",
          "name": "account",
          "type": "address"
        },
        {
          "internalType": "address",
          "name": "token",
          "type": "address"
        }
      ],
      "name": "getClaimable",
      "outputs": [
        {
          "internalType": "uint256",
          "name": "",
          "type": "uint256"
        }
      ],
      "stateMutability": "view",
      "type": "function"
    },
    {
      "inputs": [
        {
          "internalType": "uint256",
          "name": "playerId",
          "type": "uint256"
        }
      ],
      "name": "getPlayerRelease",
      "outputs": [
        {
          "internalType": "uint256",
          "name": "",
          "type": "uint256"
        }
      ],
      "stateMutability": "view",
      "type": "function"
    },
    {
      "inputs": [
        {
          "internalType": "uint256",
          "name": "releaseId",
          "type": "uint256"
        }
      ],
      "name": "getRelease",
      "outputs": [
        {
          "components": [
            {
              "internalType": "uint256",
              "name": "playerId",
              "type": "uint256"
            },
            {
              "internalType": "address",
              "name": "buyingClub",
              "type": "address"
            },
            {
              "internalType": "address",
              "name": "paymentToken",
              "type": "address"
            },
            {
              "internalType": "uint256",
              "name": "amount",
              "type": "uint256"
            },
            {
              "internalType": "enum ReleaseEscrow.ReleaseState",
              "name": "state",
              "type": "uint8"
            },
            {
              "internalType": "uint256",
              "name": "stateDeadline",
              "type": "uint256"
            },
            {
              "internalType": "bytes32",
              "name": "medicalHash",
              "type": "bytes32"
            },
            {
              "internalType": "enum ReleaseEscrow.MedicalOutcome",
              "name": "medicalOutcome",
              "type": "uint8"
            },
            {
              "internalType": "uint256",
              "name": "createdAt",
              "type": "uint256"
            }
          ],
          "internalType": "struct ReleaseEscrow.ReleaseDeal",
          "name": "",
          "type": "tuple"
        }
      ],
      "stateMutability": "view",
      "type": "function"
    },
    {
      "inputs": [
        {
          "internalType": "bytes32",
          "name": "role",
          "type": "bytes32"
        }
      ],
      "name": "getRoleAdmin",
      "outputs": [
        {
          "internalType": "bytes32",
          "name": "",
          "type": "bytes32"
        }
      ],
      "stateMutability": "view",
      "type": "function"
    },
    {
      "inputs": [
        {
          "internalType": "bytes32",
          "name": "role",
          "type": "bytes32"
        },
        {
          "internalType": "address",
          "name": "account",
          "type": "address"
        }
      ],
      "name": "grantRole",
      "outputs": [],
      "stateMutability": "nonpayable",
      "type": "function"
    },
    {
      "inputs": [
        {
          "internalType": "bytes32",
          "name": "role",
          "type": "bytes32"
        },
        {
          "internalType": "address",
          "name": "account",
          "type": "address"
        }
      ],
      "name": "hasRole",
      "outputs": [
        {
          "internalType": "bool",
          "name": "",
          "type": "bool"
        }
      ],
      "stateMutability": "view",
      "type": "function"
    },
    {
      "inputs": [
        {
          "internalType": "address",
          "name": "_playerRegistry",
          "type": "address"
        },
        {
          "internalType": "address",
          "name": "_addressRegistry",
          "type": "address"
        },
        {
          "internalType": "address",
          "name": "_transferEscrow",
          "type": "address"
        },
        {
          "internalType": "address",
          "name": "_treasury",
          "type": "address"
        },
        {
          "internalType": "address",
          "name": "_admin",
          "type": "address"
        }
      ],
      "name": "initialize",
      "outputs": [],
      "stateMutability": "nonpayable",
      "type": "function"
    },
    {
      "inputs": [
        {
          "internalType": "address",
          "name": "token",
          "type": "address"
        }
      ],
      "name": "isTokenApproved",
      "outputs": [
        {
          "internalType": "bool",
          "name": "",
          "type": "bool"
        }
      ],
      "stateMutability": "view",
      "type": "function"
    },
    {
      "inputs": [],
      "name": "medicalWindow",
      "outputs": [
        {
          "internalType": "uint256",
          "name": "",
          "type": "uint256"
        }
      ],
      "stateMutability": "view",
      "type": "function"
    },
    {
      "inputs": [],
      "name": "pause",
      "outputs": [],
      "stateMutability": "nonpayable",
      "type": "function"
    },
    {
      "inputs": [],
      "name": "paused",
      "outputs": [
        {
          "internalType": "bool",
          "name": "",
          "type": "bool"
        }
      ],
      "stateMutability": "view",
      "type": "function"
    },
    {
      "inputs": [],
      "name": "playerRegistry",
      "outputs": [
        {
          "internalType": "contract IPlayerRegistry",
          "name": "",
          "type": "address"
        }
      ],
      "stateMutability": "view",
      "type": "function"
    },
    {
      "inputs": [
        {
          "internalType": "uint256",
          "name": "releaseId",
          "type": "uint256"
        }
      ],
      "name": "processExpiry",
      "outputs": [],
      "stateMutability": "nonpayable",
      "type": "function"
    },
    {
      "inputs": [],
      "name": "protocolFeeBps",
      "outputs": [
        {
          "internalType": "uint256",
          "name": "",
          "type": "uint256"
        }
      ],
      "stateMutability": "view",
      "type": "function"
    },
    {
      "inputs": [],
      "name": "proxiableUUID",
      "outputs": [
        {
          "internalType": "bytes32",
          "name": "",
          "type": "bytes32"
        }
      ],
      "stateMutability": "view",
      "type": "function"
    },
    {
      "inputs": [
        {
          "internalType": "bytes32",
          "name": "role",
          "type": "bytes32"
        },
        {
          "internalType": "address",
          "name": "callerConfirmation",
          "type": "address"
        }
      ],
      "name": "renounceRole",
      "outputs": [],
      "stateMutability": "nonpayable",
      "type": "function"
    },
    {
      "inputs": [
        {
          "internalType": "bytes32",
          "name": "role",
          "type": "bytes32"
        },
        {
          "internalType": "address",
          "name": "account",
          "type": "address"
        }
      ],
      "name": "revokeRole",
      "outputs": [],
      "stateMutability": "nonpayable",
      "type": "function"
    },
    {
      "inputs": [
        {
          "internalType": "address",
          "name": "token",
          "type": "address"
        }
      ],
      "name": "revokeToken",
      "outputs": [],
      "stateMutability": "nonpayable",
      "type": "function"
    },
    {
      "inputs": [
        {
          "internalType": "address",
          "name": "club",
          "type": "address"
        },
        {
          "internalType": "bool",
          "name": "banned",
          "type": "bool"
        }
      ],
      "name": "setBan",
      "outputs": [],
      "stateMutability": "nonpayable",
      "type": "function"
    },
    {
      "inputs": [
        {
          "internalType": "uint256",
          "name": "duration",
          "type": "uint256"
        }
      ],
      "name": "setConsentWindow",
      "outputs": [],
      "stateMutability": "nonpayable",
      "type": "function"
    },
    {
      "inputs": [
        {
          "internalType": "uint256",
          "name": "duration",
          "type": "uint256"
        }
      ],
      "name": "setMedicalWindow",
      "outputs": [],
      "stateMutability": "nonpayable",
      "type": "function"
    },
    {
      "inputs": [
        {
          "internalType": "uint256",
          "name": "bps",
          "type": "uint256"
        }
      ],
      "name": "setProtocolFee",
      "outputs": [],
      "stateMutability": "nonpayable",
      "type": "function"
    },
    {
      "inputs": [
        {
          "internalType": "address",
          "name": "_treasury",
          "type": "address"
        }
      ],
      "name": "setTreasury",
      "outputs": [],
      "stateMutability": "nonpayable",
      "type": "function"
    },
    {
      "inputs": [
        {
          "internalType": "uint256",
          "name": "releaseId",
          "type": "uint256"
        },
        {
          "internalType": "enum ReleaseEscrow.MedicalOutcome",
          "name": "outcome",
          "type": "uint8"
        },
        {
          "internalType": "bytes32",
          "name": "medicalHash",
          "type": "bytes32"
        }
      ],
      "name": "submitReleaseMedical",
      "outputs": [],
      "stateMutability": "nonpayable",
      "type": "function"
    },
    {
      "inputs": [
        {
          "internalType": "bytes4",
          "name": "interfaceId",
          "type": "bytes4"
        }
      ],
      "name": "supportsInterface",
      "outputs": [
        {
          "internalType": "bool",
          "name": "",
          "type": "bool"
        }
      ],
      "stateMutability": "view",
      "type": "function"
    },
    {
      "inputs": [],
      "name": "totalReleases",
      "outputs": [
        {
          "internalType": "uint256",
          "name": "",
          "type": "uint256"
        }
      ],
      "stateMutability": "view",
      "type": "function"
    },
    {
      "inputs": [],
      "name": "transferEscrow",
      "outputs": [
        {
          "internalType": "contract ITransferEscrow",
          "name": "",
          "type": "address"
        }
      ],
      "stateMutability": "view",
      "type": "function"
    },
    {
      "inputs": [],
      "name": "treasury",
      "outputs": [
        {
          "internalType": "address",
          "name": "",
          "type": "address"
        }
      ],
      "stateMutability": "view",
      "type": "function"
    },
    {
      "inputs": [
        {
          "internalType": "uint256",
          "name": "playerId",
          "type": "uint256"
        },
        {
          "internalType": "address",
          "name": "paymentToken",
          "type": "address"
        }
      ],
      "name": "triggerReleaseClause",
      "outputs": [
        {
          "internalType": "uint256",
          "name": "releaseId",
          "type": "uint256"
        }
      ],
      "stateMutability": "nonpayable",
      "type": "function"
    },
    {
      "inputs": [],
      "name": "unpause",
      "outputs": [],
      "stateMutability": "nonpayable",
      "type": "function"
    },
    {
      "inputs": [
        {
          "internalType": "address",
          "name": "newImplementation",
          "type": "address"
        },
        {
          "internalType": "bytes",
          "name": "data",
          "type": "bytes"
        }
      ],
      "name": "upgradeToAndCall",
      "outputs": [],
      "stateMutability": "payable",
      "type": "function"
    },
    {
      "inputs": [
        {
          "internalType": "address",
          "name": "token",
          "type": "address"
        }
      ],
      "name": "withdrawClaimable",
      "outputs": [],
      "stateMutability": "nonpayable",
      "type": "function"
    }
  ],
  "bytecode": "0x60a080604052346100c257306080525f5160206129475f395f51905f525460ff8160401c166100b3576002600160401b03196001600160401b03821601610060575b60405161288090816100c7823960805181818161101601526110e10152f35b6001600160401b0319166001600160401b039081175f5160206129475f395f51905f525581527fc7f505b2f371ae2175ee4913f4499e1f2633a7b5936321eed1cdaeb6115181d290602090a15f80610041565b63f92ee8a960e01b5f5260045ffd5b5f80fdfe6080806040526004361015610012575f80fd5b5f3560e01c90816301ffc9a714611dbf57508063062100d514611da25780631459457a14611b845780631510f85a14611a7d578063248a9ca314611a57578063283b64e6146118ac5780632f2ff15d1461187b57806335659fb81461185e57806336568abe1461181a5780633e3b61f4146117c75780633f4ba83a146117495780633fb81428146116f957806342f663bf146112855780634c74ef9c1461125d5780634f1ef2861461106a57806352d1902d1461100457806354b4b74714610fda5780635c975abb14610fac57806361d027b314610f845780636d947e4b14610f6957806375b238fc14610f42578063787dce3d14610ede57806378fc263e14610ec157806379af2b9a14610d4e5780637ee8328f14610d3157806380b2edd814610ce757806380cd2e6514610cbd5780638456cb5914610c4c57806391d1485414610bf7578063933f4eef14610bb65780639d93d35214610b795780639f3bbd1d146106ec578063a217fddf14610b5f578063ad3cb1cc14610b01578063b5ec945a14610813578063bad7259a146106f1578063d3e7c4c7146106ec578063d547741f146106b4578063e1a4521814610698578063e2825e08146104fe578063e9402cc5146104d6578063eef6cc411461049d578063f0f4426014610426578063f3ad65f4146103fe578063fc8045b1146103c45763fd7a4c5914610216575f80fd5b346103c05760203660031901126103c05760043561023261227b565b60025f54146103b15760025f55805f526009602052600860405f200154156103a257805f52600960205260405f206004810160ff815416600681101561038e5760010361037f576005820190815442116103705760018060a01b03600254165f8454602460405180948193631cab5c9d60e31b835260048301525afa80156103655760c0915f91610343575b500180516001600160a01b03161561033457516001600160a01b0316330361032557600260ff198254161790556102f7600854426120cf565b905554907f173620804848de4def17bad4f232db2cda858a822ae975c722b97cf0fe2c1bfa5f80a360015f55005b631d3c442d60e21b5f5260045ffd5b6382bcaa3b60e01b5f5260045ffd5b61035f91503d805f833e6103578183611e6e565b810190611f5a565b5f6102be565b6040513d5f823e3d90fd5b63839ec5c560e01b5f5260045ffd5b636a34e9cd60e11b5f5260045ffd5b634e487b7160e01b5f52602160045260245ffd5b63050cc7ff60e31b5f5260045ffd5b6306fda65d60e31b5f5260045ffd5b5f80fd5b346103c0575f3660031901126103c05760206040517fba2dc669204b26427a432593e1c6ac86ab4ccc54d29c4287abbd1cefc1cb002b8152f35b346103c0575f3660031901126103c0576003546040516001600160a01b039091168152602090f35b346103c05760203660031901126103c05761043f611e12565b6104476122eb565b6001600160a01b0316801561048e57600580546001600160a01b031916821790557f7dae230f18360d76a040c81f050aa14eb9d6dc7901b20fc5d855e2a20fe814d15f80a2005b63e6c4247b60e01b5f5260045ffd5b346103c05760203660031901126103c0576004356104b96122a2565b610e1081106104c757600855005b63296d383360e01b5f5260045ffd5b346103c0575f3660031901126103c0576004546040516001600160a01b039091168152602090f35b346103c05760203660031901126103c05760043561051a61227b565b60025f54146103b15760025f55805f526009602052600860405f200154156103a257805f52600960205260405f2060ff600482015416600681101561038e5760030361037f57600101546001600160a01b031633036106895760035460405163023aa9ab60e61b81525f51602061278b5f395f51905f52600482015290602090829060249082906001600160a01b03165afa908115610365575f9161064a575b50604051636896470560e11b815290602090829060049082906001600160a01b03165afa908115610365575f91610610575b5015610601576105fb90612409565b60015f55005b6304d54fbf60e41b5f5260045ffd5b90506020813d602011610642575b8161062b60209383611e6e565b810103126103c05761063c90611f4d565b826105ec565b3d915061061e565b90506020813d602011610681575b8161066560209383611e6e565b810103126103c057602061067a600492611f39565b91506105ba565b3d9150610658565b631f3cbf7b60e31b5f5260045ffd5b346103c0575f3660031901126103c05760206040516127108152f35b346103c05760403660031901126103c0576106ea6004356106d3611e28565b906106e56106e082611ed5565b612327565b61236d565b005b611eb9565b346103c05760203660031901126103c05760043560025f54146103b15760025f55805f526009602052600860405f200154156103a257805f52600960205260405f206005810154801561037f5742111561037f576004810160ff815416600681101561038e5760018114159081610807575b5061037f57600382015460018301546001600160a01b039081165f908152600b602090815260408083206002880154909416835292905220805490916107a8916120cf565b9055600560ff19825416179055545f52600a6020525f60408120555f51602061270b5f395f51905f52606060405160208152601660208201527514995b19585cd9481dda5b991bddc8195e1c1a5c995960521b6040820152a260015f55005b60029150141584610763565b346103c05760603660031901126103c05760043560243560048110156103c05760443561083e61227b565b60025f54146103b15760025f55825f526009602052600860405f200154156103a257825f52600960205260405f2091600483019160ff835416600681101561038e5760020361037f576001840180549092906001600160a01b0316330361068957600585019182544211610af257600686018054610ae357811561048e578215610ad457556108d081600787016120dc565b855f51602061272b5f395f51905f5260206040516108ee8186611eac565ba26002810361098d575050600383015490546001600160a01b039081165f908152600b60209081526040808320600288015490941683529290522080549091610936916120cf565b9055600560ff19825416179055545f52600a6020525f60408120555f51602061270b5f395f51905f52606060405160208152600e60208201526d1359591a58d85b0819985a5b195960921b6040820152a260015f55005b9093506003915014610ab6575b60035460405163023aa9ab60e61b81525f51602061278b5f395f51905f52600482015290602090829060249082906001600160a01b03165afa908115610365575f91610a77575b50604051636896470560e11b815290602090829060049082906001600160a01b03165afa908115610365575f91610a3d575b5015610a29575050610a2490612409565b6105fb565b805460ff191660031790555f9055506105fb565b90506020813d602011610a6f575b81610a5860209383611e6e565b810103126103c057610a6990611f4d565b84610a13565b3d9150610a4b565b90506020813d602011610aae575b81610a9260209383611e6e565b810103126103c0576020610aa7600492611f39565b91506109e1565b3d9150610a85565b825f51602061272b5f395f51905f52602060405160038152a261099a565b63162908e360e11b5f5260045ffd5b63c0f9cf3b60e01b5f5260045ffd5b63c052877160e01b5f5260045ffd5b346103c0575f3660031901126103c0576040805190610b208183611e6e565b600582526020820191640352e302e360dc1b83528151928391602083525180918160208501528484015e5f828201840152601f01601f19168101030190f35b346103c0575f3660031901126103c05760206040515f8152f35b346103c05760203660031901126103c0576001600160a01b03610b9a611e12565b165f52600c602052602060ff60405f2054166040519015158152f35b346103c05760203660031901126103c057610bcf611e12565b610bd76122a2565b6001600160a01b03165f908152600c60205260409020805460ff19169055005b346103c05760403660031901126103c057610c10611e28565b6004355f525f5160206127ab5f395f51905f5260205260405f209060018060a01b03165f52602052602060ff60405f2054166040519015158152f35b346103c0575f3660031901126103c057610c646122a2565b610c6c61227b565b600160ff195f5160206127cb5f395f51905f525416175f5160206127cb5f395f51905f52557f62e78cea01bee320cd4e420270b5ea74000d11b0c9f74754ebdbfc544b05a2586020604051338152a1005b346103c05760203660031901126103c057600435610cd96122a2565b610e1081106104c757600755005b346103c05760203660031901126103c057610d00611e12565b610d086122a2565b6001600160a01b0316801561048e575f908152600c60205260409020805460ff19166001179055005b346103c0575f3660031901126103c0576020600154604051908152f35b346103c05760203660031901126103c0576004355f610100604051610d7281611e3e565b8281528260208201528260408201528260608201528260808201528260a08201528260c08201528260e08201520152805f526009602052600860405f200154156103a2575f52600960205260405f20604051610dcd81611e3e565b8154815260018201546001600160a01b03908116602083019081526002840154909116604083019081526003840154606084019081526004850154909490608085019060ff16600681101561038e57815260058201549560a0860196875260068301549360c0870194855260ff60078501541660e0880194600482101561038e57908552600801546101008801908152604080519851895296516001600160a01b0390811660208a01529151909116958701959095525160608601525191600683101561038e5761012095610eb89360808701525160a08601525160c08501525160e0840190611eac565b51610100820152f35b346103c0575f3660031901126103c0576020600754604051908152f35b346103c05760203660031901126103c057600435610efa6122eb565b60c88111610f33576020817fd10d75876659a287a59a6ccfa2e3fff42f84d94b542837acd30bc184d562de4092600655604051908152a1005b63499fddb160e01b5f5260045ffd5b346103c0575f3660031901126103c05760206040515f5160206127eb5f395f51905f528152f35b346103c0575f3660031901126103c057602060405160c88152f35b346103c0575f3660031901126103c0576005546040516001600160a01b039091168152602090f35b346103c0575f3660031901126103c057602060ff5f5160206127cb5f395f51905f5254166040519015158152f35b346103c05760203660031901126103c0576004355f52600a602052602060405f2054604051908152f35b346103c0575f3660031901126103c0577f00000000000000000000000000000000000000000000000000000000000000006001600160a01b0316300361105b5760206040515f51602061276b5f395f51905f528152f35b63703e46dd60e11b5f5260045ffd5b60403660031901126103c05761107e611e12565b602435906001600160401b0382116103c057366023830112156103c05781600401356110a981611e91565b926110b76040519485611e6e565b81845236602483830101116103c057815f9260246020930183870137840101526001600160a01b037f00000000000000000000000000000000000000000000000000000000000000001630811490811561123b575b5061105b576111196122eb565b6040516352d1902d60e01b81526001600160a01b0382169290602081600481875afa5f9181611207575b5061115b5783634c9c8ce360e01b5f5260045260245ffd5b805f51602061276b5f395f51905f528592036111f55750823b156111e3575f51602061276b5f395f51905f5280546001600160a01b031916821790557fbc7cd75a20ee27fd9adebab32041f755214dbc6bffa90cc0225b39da2e5c2d3b5f80a28051156111cb576106ea9161263e565b5050346111d457005b63b398979f60e01b5f5260045ffd5b634c9c8ce360e01b5f5260045260245ffd5b632a87526960e21b5f5260045260245ffd5b9091506020813d602011611233575b8161122360209383611e6e565b810103126103c057519085611143565b3d9150611216565b5f51602061276b5f395f51905f52546001600160a01b0316141590508361110c565b346103c0575f3660031901126103c0576002546040516001600160a01b039091168152602090f35b346103c05760403660031901126103c0576004356112a1611e28565b6112a961227b565b60025f54146103b15760025f5560018060a01b031690815f52600c60205260ff60405f205416156116ea57335f52600d60205260ff60405f2054166116db57805f52600a60205260405f20546116cc57600480546040516328ad606b60e11b81529182018390526001600160a01b031690602081602481855afa908115610365575f9161169a575b5061168c5760206024916040519283809263bfadc8f960e01b82528660048301525afa908115610365575f9161165a575b5061164b57600254604051631cab5c9d60e31b81526004810183905291906001600160a01b03165f83602481845afa928315610365575f9361162f575b506101808301928351156116205760c001516001600160a01b031615610334576020602491604051928380926369d146b560e11b82528660048301525afa908115610365575f916115e6575b506001600160a01b031633146115d7578151604051906323b872dd60e01b5f52336004523060245260445260205f60648180885af19060015f51148216156115b6575b6040525f606052156115a3576001545f19811461158f576001019182600155805161145b600754426120cf565b946040519161146983611e3e565b84835233602080850191825260408086019485526060860193845260016080870181815260a088019b8c525f60c0890181815260e08a01828152426101008c019081528e845260099097529490912098518955945191880180546001600160a01b03199081166001600160a01b03948516179091559651600289018054909816921691909117909555925160038601559251929791929091906004850190600681101561038e5760ff8019835416911617905551600584015551600683015551600481101561038e57602095611544600892600785016120dc565b51910155815f52600a84528260405f20555190604051918252827fa210c622d819f109670802bdb61717e891a635eeb06502581e7a87c2abf6ddd5853394a460015f55604051908152f35b634e487b7160e01b5f52601160045260245ffd5b82635274afe760e01b5f5260045260245ffd5b9060018115166115ce57843b15153d1516169061142e565b503d5f823e3d90fd5b63a3d1269360e01b5f5260045ffd5b90506020813d602011611618575b8161160160209383611e6e565b810103126103c05761161290611f39565b846113eb565b3d91506115f4565b6377c12eb960e11b5f5260045ffd5b6116449193503d805f833e6103578183611e6e565b918461139f565b631a29045b60e11b5f5260045ffd5b90506020813d602011611684575b8161167560209383611e6e565b810103126103c0575183611362565b3d9150611668565b6219c1a760e21b5f5260045ffd5b90506020813d6020116116c4575b816116b560209383611e6e565b810103126103c0575184611331565b3d91506116a8565b6348f2b87160e11b5f5260045ffd5b635bd4169d60e01b5f5260045ffd5b6332da96a360e01b5f5260045ffd5b346103c05760403660031901126103c057611712611e12565b61171a611e28565b6001600160a01b039182165f908152600b60209081526040808320949093168252928352819020549051908152f35b346103c0575f3660031901126103c0576117616122a2565b5f5160206127cb5f395f51905f525460ff8116156117b85760ff19165f5160206127cb5f395f51905f52557f5db9ee0a495bf2e6ff9c91a7834c1ba4fdd244a5e8aa4e537bd38aeae4b073aa6020604051338152a1005b638dfc202b60e01b5f5260045ffd5b346103c05760403660031901126103c0576117e0611e12565b602435908115158092036103c0576117f66122a2565b60018060a01b03165f52600d60205260405f209060ff801983541691161790555f80f35b346103c05760403660031901126103c057611833611e28565b336001600160a01b0382160361184f576106ea9060043561236d565b63334bd91960e11b5f5260045ffd5b346103c0575f3660031901126103c0576020600654604051908152f35b346103c05760403660031901126103c0576106ea60043561189a611e28565b906118a76106e082611ed5565b6121ea565b346103c05760203660031901126103c0576004356118c861227b565b60025f54146103b15760025f55805f526009602052600860405f200154156103a257805f52600960205260405f206004810160ff815416600681101561038e5760010361037f5760018060a01b03600254165f8354602460405180948193631cab5c9d60e31b835260048301525afa80156103655760c0915f91611a3d575b500180516001600160a01b03161561033457516001600160a01b0316330361032557600382015460018301546001600160a01b039081165f908152600b60209081526040808320600288015490941683529290522080545f51602061270b5f395f51905f529460609490939092916119bf91906120cf565b9055600560ff1982541617905580545f52600a6020525f60408120555460405190847ffd2ee1303442fdcd75ef0f691a0821035ed5505126ccc8a813b39ca0cebe5c2f5f80a360208152601e60208201527f506c61796572206465636c696e65642072656c6561736520636c6175736500006040820152a260015f55005b611a5191503d805f833e6103578183611e6e565b85611947565b346103c05760203660031901126103c0576020611a75600435611ed5565b604051908152f35b346103c05760203660031901126103c057611a96611e12565b60025f54146103b15760025f55335f52600b60205260405f2060018060a01b0382165f5260205260405f2054908115611b7557335f52600b60205260405f2060018060a01b0382165f526020525f604081205560018060a01b0316906040519063a9059cbb60e01b5f52336004528060245260205f60448180875af160015f5114811615611b56575b82604052156115a35781527f716942921e9b67ee05c4c2ffcf216f189086c9053b444c8928a49db4bdb1ae8e60203392a360015f55005b6001811516611b6c57833b15153d151616611b1f565b823d5f823e3d90fd5b6312d37ee560e31b5f5260045ffd5b346103c05760a03660031901126103c057611b9d611e12565b611ba5611e28565b6044356001600160a01b038116908190036103c0576064356001600160a01b038116908190036103c057608435916001600160a01b0383168084036103c0575f51602061280b5f395f51905f5254604081901c60ff161596906001600160401b03811680159081611d9a575b6001149081611d90575b159081611d87575b50611d78576001600160401b031981166001175f51602061280b5f395f51905f525587611d50575b506001600160a01b031694851561048e576001600160a01b031690811561048e57821561048e57831561048e571561048e57611cf794611c89612613565b611c91612613565b60015f5560018060a01b0319600254161760025560018060a01b0319600354161760035560018060a01b0319600454161760045560018060a01b031960055416176005556203f4806007556203f4806008556032600655611cf1816120f4565b5061216a565b50611cfe57005b60ff60401b195f51602061280b5f395f51905f5254165f51602061280b5f395f51905f52557fc7f505b2f371ae2175ee4913f4499e1f2633a7b5936321eed1cdaeb6115181d2602060405160018152a1005b6001600160481b0319166001600160401b01175f51602061280b5f395f51905f525587611c4b565b63f92ee8a960e01b5f5260045ffd5b90501589611c23565b303b159150611c1b565b899150611c11565b346103c0575f3660031901126103c0576020600854604051908152f35b346103c05760203660031901126103c0576004359063ffffffff60e01b82168092036103c057602091637965db0b60e01b8114908115611e01575b5015158152f35b6301ffc9a760e01b14905083611dfa565b600435906001600160a01b03821682036103c057565b602435906001600160a01b03821682036103c057565b61012081019081106001600160401b03821117611e5a57604052565b634e487b7160e01b5f52604160045260245ffd5b601f909101601f19168101906001600160401b03821190821017611e5a57604052565b6001600160401b038111611e5a57601f01601f191660200190565b90600482101561038e5752565b346103c0575f3660031901126103c0576020604051610e108152f35b5f525f5160206127ab5f395f51905f52602052600160405f20015490565b81601f820112156103c057805190611f0a82611e91565b92611f186040519485611e6e565b828452602083830101116103c057815f9260208093018386015e8301015290565b51906001600160a01b03821682036103c057565b519081151582036103c057565b6020818303126103c0578051906001600160401b0382116103c0570190610200828203126103c0576040519161020083016001600160401b03811184821017611e5a576040528051835260208101516001600160401b0381116103c05782611fc3918301611ef3565b602084015260408101516001600160401b0381116103c05782611fe7918301611ef3565b604084015260608101516001600160401b0381116103c0578261200b918301611ef3565b60608401526080810151608084015260a081015160a084015261203060c08201611f39565b60c084015261204160e08201611f4d565b60e08401526120536101008201611f4d565b6101008401526120666101208201611f4d565b6101208401526101408101516101408401526101608101516101608401526101808101516101808401526101a08101516101a08401526101c081015160018060401b0381116103c0576101e0926120be918301611ef3565b6101c084015201516101e082015290565b9190820180921161158f57565b90600481101561038e5760ff80198354169116179055565b6001600160a01b0381165f9081525f51602061274b5f395f51905f52602052604090205460ff16612165576001600160a01b03165f8181525f51602061274b5f395f51905f5260205260408120805460ff191660011790553391905f5160206126cb5f395f51905f528180a4600190565b505f90565b6001600160a01b0381165f9081525f5160206126eb5f395f51905f52602052604090205460ff16612165576001600160a01b03165f8181525f5160206126eb5f395f51905f5260205260408120805460ff191660011790553391905f5160206127eb5f395f51905f52905f5160206126cb5f395f51905f529080a4600190565b5f8181525f5160206127ab5f395f51905f52602090815260408083206001600160a01b038616845290915290205460ff16612275575f8181525f5160206127ab5f395f51905f52602090815260408083206001600160a01b0395909516808452949091528120805460ff19166001179055339291905f5160206126cb5f395f51905f529080a4600190565b50505f90565b60ff5f5160206127cb5f395f51905f52541661229357565b63d93c066560e01b5f5260045ffd5b335f9081525f5160206126eb5f395f51905f52602052604090205460ff16156122c757565b63e2517d3f60e01b5f52336004525f5160206127eb5f395f51905f5260245260445ffd5b335f9081525f51602061274b5f395f51905f52602052604090205460ff161561231057565b63e2517d3f60e01b5f52336004525f60245260445ffd5b5f8181525f5160206127ab5f395f51905f526020908152604080832033845290915290205460ff16156123575750565b63e2517d3f60e01b5f523360045260245260445ffd5b5f8181525f5160206127ab5f395f51905f52602090815260408083206001600160a01b038616845290915290205460ff1615612275575f8181525f5160206127ab5f395f51905f52602090815260408083206001600160a01b0395909516808452949091528120805460ff19169055339291907ff6391f5c32d9c69d2a47ea670b442974b53935d1edc7fd64eb21e047a839171b9080a4600190565b5f90805f52600960205260405f209060048201600460ff1982541617905581545f52600a6020525f604081205560018060a01b036002541691602081546024604051809681936369d146b560e11b835260048301525afa928315610365575f936125d7575b50600381015492600654801515806125c3575b61255f575b506001600160a01b039081165f818152600b6020908152604080832060028701549095168352939052919091208054919490916124c391906120cf565b9055600254815460018301805490956001600160a01b0391821693909116803b156103c0575f928360649260405196879586946332f65ba360e01b86526004860152602485015260448401525af180156103655761253d575b505491546001600160a01b0316925f51602061282b5f395f51905f529080a4565b61254a9194505f90611e6e565b5f925f51602061282b5f395f51905f5261251c565b80850290858204148515171561158f5761271090049384810390811161158f576005546001600160a01b039081165f908152600b6020908152604080832060028801549094168352929052208054919590916125bb91906120cf565b90555f612486565b506005546001600160a01b03161515612481565b9092506020813d60201161260b575b816125f360209383611e6e565b810103126103c05761260490611f39565b915f61246e565b3d91506125e6565b60ff5f51602061280b5f395f51905f525460401c161561262f57565b631afcd79f60e31b5f5260045ffd5b905f8091602081519101845af480806126b7575b156126725750506040513d81523d5f602083013e60203d82010160405290565b1561269757639996b31560e01b5f9081526001600160a01b0391909116600452602490fd5b3d156126a8576040513d5f823e3d90fd5b63d6bda27560e01b5f5260045ffd5b503d1515806126525750813b151561265256fe2f8788117e7eff1d82e926ec794901d17c78024a50270940304540a733656f0db16e88c42fd4e48df2dd6a2eabd6bc9aec654ec170056b470819f8892cc6431c4acb088f888840d17dc82ace43f9da78acbbcf1830772fcf5a8a348a3b05919d8c0f79cb43223fbd00b73d4bbc8a0f62f1f2d6ddb3a6b650d90d0ee3557f683ab7db2dd08fcb62d0c9e08c51941cae53c267786a0b75803fb7960902fc8ef97d360894a13ba1a3210667c828492db98dca3e2076cc3735a920a3ca505d382bbcd8e6c8b39dbc70333b42d059fa436cf2679722325c0f6ed7e701df0b05a637c802dd7bc7dec4dceedda775e58dd541e08a116c6c53815c0bd028192f7b626800cd5ed15c6e187e77e9aee88184c21f4f2182ab5827cb3b7e07fbedcd63f03300a49807205ce4d355092ef5a8a18f56e8913cf4a201fbe287825b095693c21775f0c57e16840df040f15088dc2f81fe391c3923bec73e23a9662efc9c229c6a000782c57417e1dc2922f53b1fcfa05d6ef50518d78ef2acadfa094a3778cdc2e4a26469706673582212206bf3721556a24313a31df70b6a4f264136cb0baae5fa6a36705cf7a862040e0664736f6c634300081c0033f0c57e16840df040f15088dc2f81fe391c3923bec73e23a9662efc9c229c6a00",
  "linkReferences": {},
  "deployedLinkReferences": {},
  "immutableReferences": {
    "1940": [
      {
        "length": 32,
        "start": 4118
      },
      {
        "length": 32,
        "start": 4321
      }
    ]
  },
  "inputSourceName": "project/contracts/core/ReleaseEscrow.sol",
  "buildInfoId": "solc-0_8_28-66dacbb9b58248588fe18a333966fb32face5edb"
}