{
  "_format": "hh3-artifact-1",
  "contractName": "SwapEscrow",
  "sourceName": "contracts/core/SwapEscrow.sol",
  "abi": [
    {
      "inputs": [],
      "stateMutability": "nonpayable",
      "type": "constructor"
    },
    {
      "inputs": [],
      "name": "AccessControlBadConfirmation",
      "type": "error"
    },
    {
      "inputs": [
        {
          "internalType": "address",
          "name": "account",
          "type": "address"
        },
        {
          "internalType": "bytes32",
          "name": "neededRole",
          "type": "bytes32"
        }
      ],
      "name": "AccessControlUnauthorizedAccount",
      "type": "error"
    },
    {
      "inputs": [
        {
          "internalType": "address",
          "name": "target",
          "type": "address"
        }
      ],
      "name": "AddressEmptyCode",
      "type": "error"
    },
    {
      "inputs": [],
      "name": "CannotConfirmOwnCancel",
      "type": "error"
    },
    {
      "inputs": [],
      "name": "CannotSwapSameClub",
      "type": "error"
    },
    {
      "inputs": [],
      "name": "ConsentWindowExpired",
      "type": "error"
    },
    {
      "inputs": [],
      "name": "DealIsFrozen",
      "type": "error"
    },
    {
      "inputs": [],
      "name": "DisputeWindowExpired",
      "type": "error"
    },
    {
      "inputs": [
        {
          "internalType": "address",
          "name": "implementation",
          "type": "address"
        }
      ],
      "name": "ERC1967InvalidImplementation",
      "type": "error"
    },
    {
      "inputs": [],
      "name": "ERC1967NonPayable",
      "type": "error"
    },
    {
      "inputs": [],
      "name": "EnforcedPause",
      "type": "error"
    },
    {
      "inputs": [],
      "name": "ExpectedPause",
      "type": "error"
    },
    {
      "inputs": [],
      "name": "FailedCall",
      "type": "error"
    },
    {
      "inputs": [],
      "name": "FundingWindowExpired",
      "type": "error"
    },
    {
      "inputs": [],
      "name": "InvalidAddress",
      "type": "error"
    },
    {
      "inputs": [],
      "name": "InvalidAmount",
      "type": "error"
    },
    {
      "inputs": [],
      "name": "InvalidInitialization",
      "type": "error"
    },
    {
      "inputs": [],
      "name": "MedicalAlreadySubmitted",
      "type": "error"
    },
    {
      "inputs": [],
      "name": "MedicalWindowExpired",
      "type": "error"
    },
    {
      "inputs": [],
      "name": "MutualCancelAlreadyProposed",
      "type": "error"
    },
    {
      "inputs": [],
      "name": "MutualCancelExpired",
      "type": "error"
    },
    {
      "inputs": [],
      "name": "MutualCancelNotProposed",
      "type": "error"
    },
    {
      "inputs": [],
      "name": "NotClubA",
      "type": "error"
    },
    {
      "inputs": [],
      "name": "NotClubB",
      "type": "error"
    },
    {
      "inputs": [],
      "name": "NotInitializing",
      "type": "error"
    },
    {
      "inputs": [],
      "name": "NotPlayerWallet",
      "type": "error"
    },
    {
      "inputs": [],
      "name": "NothingToClaim",
      "type": "error"
    },
    {
      "inputs": [],
      "name": "PlayerHasActiveProcess",
      "type": "error"
    },
    {
      "inputs": [],
      "name": "PlayerWalletNotSet",
      "type": "error"
    },
    {
      "inputs": [],
      "name": "ProtocolFeeTooHigh",
      "type": "error"
    },
    {
      "inputs": [],
      "name": "ReentrantCall",
      "type": "error"
    },
    {
      "inputs": [
        {
          "internalType": "address",
          "name": "token",
          "type": "address"
        }
      ],
      "name": "SafeERC20FailedOperation",
      "type": "error"
    },
    {
      "inputs": [],
      "name": "SwapNotFound",
      "type": "error"
    },
    {
      "inputs": [],
      "name": "TimerTooShort",
      "type": "error"
    },
    {
      "inputs": [],
      "name": "TokenNotApproved",
      "type": "error"
    },
    {
      "inputs": [],
      "name": "TransferWindowClosed",
      "type": "error"
    },
    {
      "inputs": [],
      "name": "UUPSUnauthorizedCallContext",
      "type": "error"
    },
    {
      "inputs": [
        {
          "internalType": "bytes32",
          "name": "slot",
          "type": "bytes32"
        }
      ],
      "name": "UUPSUnsupportedProxiableUUID",
      "type": "error"
    },
    {
      "inputs": [],
      "name": "WrongState",
      "type": "error"
    },
    {
      "anonymous": false,
      "inputs": [
        {
          "indexed": true,
          "internalType": "uint256",
          "name": "swapId",
          "type": "uint256"
        },
        {
          "indexed": true,
          "internalType": "address",
          "name": "raisedBy",
          "type": "address"
        }
      ],
      "name": "DisputeRaised",
      "type": "event"
    },
    {
      "anonymous": false,
      "inputs": [
        {
          "indexed": true,
          "internalType": "uint256",
          "name": "swapId",
          "type": "uint256"
        }
      ],
      "name": "DisputeResolved",
      "type": "event"
    },
    {
      "anonymous": false,
      "inputs": [
        {
          "indexed": true,
          "internalType": "address",
          "name": "recipient",
          "type": "address"
        },
        {
          "indexed": true,
          "internalType": "address",
          "name": "token",
          "type": "address"
        },
        {
          "indexed": false,
          "internalType": "uint256",
          "name": "amount",
          "type": "uint256"
        }
      ],
      "name": "FundsClaimed",
      "type": "event"
    },
    {
      "anonymous": false,
      "inputs": [
        {
          "indexed": false,
          "internalType": "uint64",
          "name": "version",
          "type": "uint64"
        }
      ],
      "name": "Initialized",
      "type": "event"
    },
    {
      "anonymous": false,
      "inputs": [
        {
          "indexed": true,
          "internalType": "uint256",
          "name": "swapId",
          "type": "uint256"
        },
        {
          "indexed": true,
          "internalType": "uint256",
          "name": "playerId",
          "type": "uint256"
        },
        {
          "indexed": false,
          "internalType": "enum SwapEscrow.MedicalOutcome",
          "name": "outcome",
          "type": "uint8"
        }
      ],
      "name": "MedicalSubmitted",
      "type": "event"
    },
    {
      "anonymous": false,
      "inputs": [
        {
          "indexed": true,
          "internalType": "uint256",
          "name": "swapId",
          "type": "uint256"
        }
      ],
      "name": "MutualCancelConfirmed",
      "type": "event"
    },
    {
      "anonymous": false,
      "inputs": [
        {
          "indexed": true,
          "internalType": "uint256",
          "name": "swapId",
          "type": "uint256"
        },
        {
          "indexed": true,
          "internalType": "address",
          "name": "proposer",
          "type": "address"
        }
      ],
      "name": "MutualCancelProposed",
      "type": "event"
    },
    {
      "anonymous": false,
      "inputs": [
        {
          "indexed": false,
          "internalType": "address",
          "name": "account",
          "type": "address"
        }
      ],
      "name": "Paused",
      "type": "event"
    },
    {
      "anonymous": false,
      "inputs": [
        {
          "indexed": true,
          "internalType": "uint256",
          "name": "swapId",
          "type": "uint256"
        },
        {
          "indexed": true,
          "internalType": "uint256",
          "name": "playerId",
          "type": "uint256"
        }
      ],
      "name": "PlayerConsented",
      "type": "event"
    },
    {
      "anonymous": false,
      "inputs": [
        {
          "indexed": true,
          "internalType": "bytes32",
          "name": "role",
          "type": "bytes32"
        },
        {
          "indexed": true,
          "internalType": "bytes32",
          "name": "previousAdminRole",
          "type": "bytes32"
        },
        {
          "indexed": true,
          "internalType": "bytes32",
          "name": "newAdminRole",
          "type": "bytes32"
        }
      ],
      "name": "RoleAdminChanged",
      "type": "event"
    },
    {
      "anonymous": false,
      "inputs": [
        {
          "indexed": true,
          "internalType": "bytes32",
          "name": "role",
          "type": "bytes32"
        },
        {
          "indexed": true,
          "internalType": "address",
          "name": "account",
          "type": "address"
        },
        {
          "indexed": true,
          "internalType": "address",
          "name": "sender",
          "type": "address"
        }
      ],
      "name": "RoleGranted",
      "type": "event"
    },
    {
      "anonymous": false,
      "inputs": [
        {
          "indexed": true,
          "internalType": "bytes32",
          "name": "role",
          "type": "bytes32"
        },
        {
          "indexed": true,
          "internalType": "address",
          "name": "account",
          "type": "address"
        },
        {
          "indexed": true,
          "internalType": "address",
          "name": "sender",
          "type": "address"
        }
      ],
      "name": "RoleRevoked",
      "type": "event"
    },
    {
      "anonymous": false,
      "inputs": [
        {
          "indexed": true,
          "internalType": "uint256",
          "name": "swapId",
          "type": "uint256"
        }
      ],
      "name": "SwapAccepted",
      "type": "event"
    },
    {
      "anonymous": false,
      "inputs": [
        {
          "indexed": true,
          "internalType": "uint256",
          "name": "swapId",
          "type": "uint256"
        },
        {
          "indexed": false,
          "internalType": "string",
          "name": "reason",
          "type": "string"
        }
      ],
      "name": "SwapCancelled",
      "type": "event"
    },
    {
      "anonymous": false,
      "inputs": [
        {
          "indexed": true,
          "internalType": "uint256",
          "name": "swapId",
          "type": "uint256"
        }
      ],
      "name": "SwapCompleted",
      "type": "event"
    },
    {
      "anonymous": false,
      "inputs": [
        {
          "indexed": true,
          "internalType": "uint256",
          "name": "swapId",
          "type": "uint256"
        },
        {
          "indexed": false,
          "internalType": "uint256",
          "name": "topUpAmount",
          "type": "uint256"
        }
      ],
      "name": "SwapFunded",
      "type": "event"
    },
    {
      "anonymous": false,
      "inputs": [
        {
          "indexed": true,
          "internalType": "uint256",
          "name": "swapId",
          "type": "uint256"
        },
        {
          "indexed": false,
          "internalType": "uint256",
          "name": "playerA",
          "type": "uint256"
        },
        {
          "indexed": false,
          "internalType": "uint256",
          "name": "playerB",
          "type": "uint256"
        },
        {
          "indexed": true,
          "internalType": "address",
          "name": "clubA",
          "type": "address"
        },
        {
          "indexed": true,
          "internalType": "address",
          "name": "clubB",
          "type": "address"
        }
      ],
      "name": "SwapProposed",
      "type": "event"
    },
    {
      "anonymous": false,
      "inputs": [
        {
          "indexed": false,
          "internalType": "address",
          "name": "account",
          "type": "address"
        }
      ],
      "name": "Unpaused",
      "type": "event"
    },
    {
      "anonymous": false,
      "inputs": [
        {
          "indexed": true,
          "internalType": "address",
          "name": "implementation",
          "type": "address"
        }
      ],
      "name": "Upgraded",
      "type": "event"
    },
    {
      "inputs": [],
      "name": "ADMIN_ROLE",
      "outputs": [
        {
          "internalType": "bytes32",
          "name": "",
          "type": "bytes32"
        }
      ],
      "stateMutability": "view",
      "type": "function"
    },
    {
      "inputs": [],
      "name": "BPS_DENOMINATOR",
      "outputs": [
        {
          "internalType": "uint256",
          "name": "",
          "type": "uint256"
        }
      ],
      "stateMutability": "view",
      "type": "function"
    },
    {
      "inputs": [],
      "name": "CLUB_ROLE",
      "outputs": [
        {
          "internalType": "bytes32",
          "name": "",
          "type": "bytes32"
        }
      ],
      "stateMutability": "view",
      "type": "function"
    },
    {
      "inputs": [],
      "name": "DEFAULT_ADMIN_ROLE",
      "outputs": [
        {
          "internalType": "bytes32",
          "name": "",
          "type": "bytes32"
        }
      ],
      "stateMutability": "view",
      "type": "function"
    },
    {
      "inputs": [],
      "name": "LEAGUE_ROLE",
      "outputs": [
        {
          "internalType": "bytes32",
          "name": "",
          "type": "bytes32"
        }
      ],
      "stateMutability": "view",
      "type": "function"
    },
    {
      "inputs": [],
      "name": "MAX_AGENT_BPS",
      "outputs": [
        {
          "internalType": "uint256",
          "name": "",
          "type": "uint256"
        }
      ],
      "stateMutability": "view",
      "type": "function"
    },
    {
      "inputs": [],
      "name": "MAX_PRICE",
      "outputs": [
        {
          "internalType": "uint256",
          "name": "",
          "type": "uint256"
        }
      ],
      "stateMutability": "view",
      "type": "function"
    },
    {
      "inputs": [],
      "name": "MAX_PROTOCOL_FEE_BPS",
      "outputs": [
        {
          "internalType": "uint256",
          "name": "",
          "type": "uint256"
        }
      ],
      "stateMutability": "view",
      "type": "function"
    },
    {
      "inputs": [],
      "name": "MIN_WINDOW",
      "outputs": [
        {
          "internalType": "uint256",
          "name": "",
          "type": "uint256"
        }
      ],
      "stateMutability": "view",
      "type": "function"
    },
    {
      "inputs": [],
      "name": "UPGRADE_INTERFACE_VERSION",
      "outputs": [
        {
          "internalType": "string",
          "name": "",
          "type": "string"
        }
      ],
      "stateMutability": "view",
      "type": "function"
    },
    {
      "inputs": [
        {
          "internalType": "uint256",
          "name": "swapId",
          "type": "uint256"
        }
      ],
      "name": "acceptSwap",
      "outputs": [],
      "stateMutability": "nonpayable",
      "type": "function"
    },
    {
      "inputs": [],
      "name": "addressRegistry",
      "outputs": [
        {
          "internalType": "contract IAddressRegistry",
          "name": "",
          "type": "address"
        }
      ],
      "stateMutability": "view",
      "type": "function"
    },
    {
      "inputs": [
        {
          "internalType": "address",
          "name": "token",
          "type": "address"
        }
      ],
      "name": "approveToken",
      "outputs": [],
      "stateMutability": "nonpayable",
      "type": "function"
    },
    {
      "inputs": [
        {
          "internalType": "uint256",
          "name": "swapId",
          "type": "uint256"
        }
      ],
      "name": "confirmMutualCancel",
      "outputs": [],
      "stateMutability": "nonpayable",
      "type": "function"
    },
    {
      "inputs": [
        {
          "internalType": "uint256",
          "name": "swapId",
          "type": "uint256"
        }
      ],
      "name": "consentToSwap",
      "outputs": [],
      "stateMutability": "nonpayable",
      "type": "function"
    },
    {
      "inputs": [],
      "name": "consentWindow",
      "outputs": [
        {
          "internalType": "uint256",
          "name": "",
          "type": "uint256"
        }
      ],
      "stateMutability": "view",
      "type": "function"
    },
    {
      "inputs": [],
      "name": "disputeWindow",
      "outputs": [
        {
          "internalType": "uint256",
          "name": "",
          "type": "uint256"
        }
      ],
      "stateMutability": "view",
      "type": "function"
    },
    {
      "inputs": [
        {
          "internalType": "uint256",
          "name": "swapId",
          "type": "uint256"
        }
      ],
      "name": "forceCancel",
      "outputs": [],
      "stateMutability": "nonpayable",
      "type": "function"
    },
    {
      "inputs": [
        {
          "internalType": "uint256",
          "name": "swapId",
          "type": "uint256"
        }
      ],
      "name": "fundSwap",
      "outputs": [],
      "stateMutability": "nonpayable",
      "type": "function"
    },
    {
      "inputs": [],
      "name": "fundingWindow",
      "outputs": [
        {
          "internalType": "uint256",
          "name": "",
          "type": "uint256"
        }
      ],
      "stateMutability": "view",
      "type": "function"
    },
    {
      "inputs": [
        {
          "internalType": "address",
          "name": "account",
          "type": "address"
        },
        {
          "internalType": "address",
          "name": "token",
          "type": "address"
        }
      ],
      "name": "getClaimable",
      "outputs": [
        {
          "internalType": "uint256",
          "name": "",
          "type": "uint256"
        }
      ],
      "stateMutability": "view",
      "type": "function"
    },
    {
      "inputs": [
        {
          "internalType": "uint256",
          "name": "playerId",
          "type": "uint256"
        }
      ],
      "name": "getPlayerSwap",
      "outputs": [
        {
          "internalType": "uint256",
          "name": "",
          "type": "uint256"
        }
      ],
      "stateMutability": "view",
      "type": "function"
    },
    {
      "inputs": [
        {
          "internalType": "bytes32",
          "name": "role",
          "type": "bytes32"
        }
      ],
      "name": "getRoleAdmin",
      "outputs": [
        {
          "internalType": "bytes32",
          "name": "",
          "type": "bytes32"
        }
      ],
      "stateMutability": "view",
      "type": "function"
    },
    {
      "inputs": [
        {
          "internalType": "uint256",
          "name": "swapId",
          "type": "uint256"
        }
      ],
      "name": "getSwap",
      "outputs": [
        {
          "components": [
            {
              "internalType": "uint256",
              "name": "playerA",
              "type": "uint256"
            },
            {
              "internalType": "uint256",
              "name": "playerB",
              "type": "uint256"
            },
            {
              "internalType": "address",
              "name": "clubA",
              "type": "address"
            },
            {
              "internalType": "address",
              "name": "clubB",
              "type": "address"
            },
            {
              "internalType": "address",
              "name": "paymentToken",
              "type": "address"
            },
            {
              "internalType": "uint256",
              "name": "topUpAmount",
              "type": "uint256"
            },
            {
              "internalType": "uint256",
              "name": "clubAAgentBps",
              "type": "uint256"
            },
            {
              "internalType": "address",
              "name": "clubAAgent",
              "type": "address"
            },
            {
              "internalType": "uint256",
              "name": "clubBAgentBps",
              "type": "uint256"
            },
            {
              "internalType": "address",
              "name": "clubBAgent",
              "type": "address"
            },
            {
              "internalType": "enum SwapEscrow.SwapState",
              "name": "state",
              "type": "uint8"
            },
            {
              "internalType": "uint256",
              "name": "stateDeadline",
              "type": "uint256"
            },
            {
              "internalType": "bytes32",
              "name": "medicalHashAonB",
              "type": "bytes32"
            },
            {
              "internalType": "bytes32",
              "name": "medicalHashBonA",
              "type": "bytes32"
            },
            {
              "internalType": "enum SwapEscrow.MedicalOutcome",
              "name": "medicalAonB",
              "type": "uint8"
            },
            {
              "internalType": "enum SwapEscrow.MedicalOutcome",
              "name": "medicalBonA",
              "type": "uint8"
            },
            {
              "internalType": "bool",
              "name": "funded",
              "type": "bool"
            },
            {
              "internalType": "uint256",
              "name": "createdAt",
              "type": "uint256"
            },
            {
              "internalType": "uint256",
              "name": "fundedAt",
              "type": "uint256"
            },
            {
              "internalType": "uint256",
              "name": "disputeDeadline",
              "type": "uint256"
            },
            {
              "internalType": "address",
              "name": "cancelProposer",
              "type": "address"
            },
            {
              "internalType": "uint256",
              "name": "cancelDeadline",
              "type": "uint256"
            }
          ],
          "internalType": "struct SwapEscrow.Swap",
          "name": "",
          "type": "tuple"
        }
      ],
      "stateMutability": "view",
      "type": "function"
    },
    {
      "inputs": [
        {
          "internalType": "bytes32",
          "name": "role",
          "type": "bytes32"
        },
        {
          "internalType": "address",
          "name": "account",
          "type": "address"
        }
      ],
      "name": "grantRole",
      "outputs": [],
      "stateMutability": "nonpayable",
      "type": "function"
    },
    {
      "inputs": [
        {
          "internalType": "bytes32",
          "name": "role",
          "type": "bytes32"
        },
        {
          "internalType": "address",
          "name": "account",
          "type": "address"
        }
      ],
      "name": "hasRole",
      "outputs": [
        {
          "internalType": "bool",
          "name": "",
          "type": "bool"
        }
      ],
      "stateMutability": "view",
      "type": "function"
    },
    {
      "inputs": [
        {
          "internalType": "address",
          "name": "_playerRegistry",
          "type": "address"
        },
        {
          "internalType": "address",
          "name": "_addressRegistry",
          "type": "address"
        },
        {
          "internalType": "address",
          "name": "_transferEscrow",
          "type": "address"
        },
        {
          "internalType": "address",
          "name": "_treasury",
          "type": "address"
        },
        {
          "internalType": "address",
          "name": "_admin",
          "type": "address"
        }
      ],
      "name": "initialize",
      "outputs": [],
      "stateMutability": "nonpayable",
      "type": "function"
    },
    {
      "inputs": [
        {
          "internalType": "address",
          "name": "token",
          "type": "address"
        }
      ],
      "name": "isTokenApproved",
      "outputs": [
        {
          "internalType": "bool",
          "name": "",
          "type": "bool"
        }
      ],
      "stateMutability": "view",
      "type": "function"
    },
    {
      "inputs": [],
      "name": "medicalWindow",
      "outputs": [
        {
          "internalType": "uint256",
          "name": "",
          "type": "uint256"
        }
      ],
      "stateMutability": "view",
      "type": "function"
    },
    {
      "inputs": [],
      "name": "mutualCancelWindow",
      "outputs": [
        {
          "internalType": "uint256",
          "name": "",
          "type": "uint256"
        }
      ],
      "stateMutability": "view",
      "type": "function"
    },
    {
      "inputs": [],
      "name": "pause",
      "outputs": [],
      "stateMutability": "nonpayable",
      "type": "function"
    },
    {
      "inputs": [],
      "name": "paused",
      "outputs": [
        {
          "internalType": "bool",
          "name": "",
          "type": "bool"
        }
      ],
      "stateMutability": "view",
      "type": "function"
    },
    {
      "inputs": [],
      "name": "playerRegistry",
      "outputs": [
        {
          "internalType": "contract IPlayerRegistry",
          "name": "",
          "type": "address"
        }
      ],
      "stateMutability": "view",
      "type": "function"
    },
    {
      "inputs": [
        {
          "internalType": "uint256",
          "name": "swapId",
          "type": "uint256"
        }
      ],
      "name": "processExpiry",
      "outputs": [],
      "stateMutability": "nonpayable",
      "type": "function"
    },
    {
      "inputs": [
        {
          "internalType": "uint256",
          "name": "swapId",
          "type": "uint256"
        }
      ],
      "name": "proposeMutualCancel",
      "outputs": [],
      "stateMutability": "nonpayable",
      "type": "function"
    },
    {
      "inputs": [
        {
          "internalType": "uint256",
          "name": "playerA",
          "type": "uint256"
        },
        {
          "internalType": "uint256",
          "name": "playerB",
          "type": "uint256"
        },
        {
          "internalType": "address",
          "name": "paymentToken",
          "type": "address"
        },
        {
          "internalType": "uint256",
          "name": "topUpAmount",
          "type": "uint256"
        },
        {
          "internalType": "uint256",
          "name": "clubAAgentBps",
          "type": "uint256"
        },
        {
          "internalType": "address",
          "name": "clubAAgent",
          "type": "address"
        },
        {
          "internalType": "uint256",
          "name": "clubBAgentBps",
          "type": "uint256"
        },
        {
          "internalType": "address",
          "name": "clubBAgent",
          "type": "address"
        }
      ],
      "name": "proposeSwap",
      "outputs": [
        {
          "internalType": "uint256",
          "name": "swapId",
          "type": "uint256"
        }
      ],
      "stateMutability": "nonpayable",
      "type": "function"
    },
    {
      "inputs": [],
      "name": "protocolFeeBps",
      "outputs": [
        {
          "internalType": "uint256",
          "name": "",
          "type": "uint256"
        }
      ],
      "stateMutability": "view",
      "type": "function"
    },
    {
      "inputs": [],
      "name": "proxiableUUID",
      "outputs": [
        {
          "internalType": "bytes32",
          "name": "",
          "type": "bytes32"
        }
      ],
      "stateMutability": "view",
      "type": "function"
    },
    {
      "inputs": [
        {
          "internalType": "uint256",
          "name": "swapId",
          "type": "uint256"
        }
      ],
      "name": "raiseDispute",
      "outputs": [],
      "stateMutability": "nonpayable",
      "type": "function"
    },
    {
      "inputs": [
        {
          "internalType": "uint256",
          "name": "swapId",
          "type": "uint256"
        }
      ],
      "name": "rejectSwap",
      "outputs": [],
      "stateMutability": "nonpayable",
      "type": "function"
    },
    {
      "inputs": [
        {
          "internalType": "bytes32",
          "name": "role",
          "type": "bytes32"
        },
        {
          "internalType": "address",
          "name": "callerConfirmation",
          "type": "address"
        }
      ],
      "name": "renounceRole",
      "outputs": [],
      "stateMutability": "nonpayable",
      "type": "function"
    },
    {
      "inputs": [
        {
          "internalType": "uint256",
          "name": "swapId",
          "type": "uint256"
        }
      ],
      "name": "resolveDispute",
      "outputs": [],
      "stateMutability": "nonpayable",
      "type": "function"
    },
    {
      "inputs": [
        {
          "internalType": "bytes32",
          "name": "role",
          "type": "bytes32"
        },
        {
          "internalType": "address",
          "name": "account",
          "type": "address"
        }
      ],
      "name": "revokeRole",
      "outputs": [],
      "stateMutability": "nonpayable",
      "type": "function"
    },
    {
      "inputs": [
        {
          "internalType": "address",
          "name": "token",
          "type": "address"
        }
      ],
      "name": "revokeToken",
      "outputs": [],
      "stateMutability": "nonpayable",
      "type": "function"
    },
    {
      "inputs": [
        {
          "internalType": "uint256",
          "name": "bps",
          "type": "uint256"
        }
      ],
      "name": "setProtocolFee",
      "outputs": [],
      "stateMutability": "nonpayable",
      "type": "function"
    },
    {
      "inputs": [
        {
          "internalType": "uint8",
          "name": "which",
          "type": "uint8"
        },
        {
          "internalType": "uint256",
          "name": "d",
          "type": "uint256"
        }
      ],
      "name": "setTimer",
      "outputs": [],
      "stateMutability": "nonpayable",
      "type": "function"
    },
    {
      "inputs": [
        {
          "internalType": "address",
          "name": "t",
          "type": "address"
        }
      ],
      "name": "setTreasury",
      "outputs": [],
      "stateMutability": "nonpayable",
      "type": "function"
    },
    {
      "inputs": [
        {
          "internalType": "uint256",
          "name": "swapId",
          "type": "uint256"
        },
        {
          "internalType": "enum SwapEscrow.MedicalOutcome",
          "name": "outcome",
          "type": "uint8"
        },
        {
          "internalType": "bytes32",
          "name": "hash",
          "type": "bytes32"
        }
      ],
      "name": "submitMedicalAonB",
      "outputs": [],
      "stateMutability": "nonpayable",
      "type": "function"
    },
    {
      "inputs": [
        {
          "internalType": "uint256",
          "name": "swapId",
          "type": "uint256"
        },
        {
          "internalType": "enum SwapEscrow.MedicalOutcome",
          "name": "outcome",
          "type": "uint8"
        },
        {
          "internalType": "bytes32",
          "name": "hash",
          "type": "bytes32"
        }
      ],
      "name": "submitMedicalBonA",
      "outputs": [],
      "stateMutability": "nonpayable",
      "type": "function"
    },
    {
      "inputs": [
        {
          "internalType": "bytes4",
          "name": "interfaceId",
          "type": "bytes4"
        }
      ],
      "name": "supportsInterface",
      "outputs": [
        {
          "internalType": "bool",
          "name": "",
          "type": "bool"
        }
      ],
      "stateMutability": "view",
      "type": "function"
    },
    {
      "inputs": [],
      "name": "totalSwaps",
      "outputs": [
        {
          "internalType": "uint256",
          "name": "",
          "type": "uint256"
        }
      ],
      "stateMutability": "view",
      "type": "function"
    },
    {
      "inputs": [],
      "name": "transferEscrow",
      "outputs": [
        {
          "internalType": "contract ITransferEscrow",
          "name": "",
          "type": "address"
        }
      ],
      "stateMutability": "view",
      "type": "function"
    },
    {
      "inputs": [],
      "name": "treasury",
      "outputs": [
        {
          "internalType": "address",
          "name": "",
          "type": "address"
        }
      ],
      "stateMutability": "view",
      "type": "function"
    },
    {
      "inputs": [],
      "name": "unpause",
      "outputs": [],
      "stateMutability": "nonpayable",
      "type": "function"
    },
    {
      "inputs": [
        {
          "internalType": "address",
          "name": "newImplementation",
          "type": "address"
        },
        {
          "internalType": "bytes",
          "name": "data",
          "type": "bytes"
        }
      ],
      "name": "upgradeToAndCall",
      "outputs": [],
      "stateMutability": "payable",
      "type": "function"
    },
    {
      "inputs": [
        {
          "internalType": "address",
          "name": "token",
          "type": "address"
        }
      ],
      "name": "withdrawClaimable",
      "outputs": [],
      "stateMutability": "nonpayable",
      "type": "function"
    },
    {
      "inputs": [
        {
          "internalType": "uint256",
          "name": "swapId",
          "type": "uint256"
        }
      ],
      "name": "withdrawProposal",
      "outputs": [],
      "stateMutability": "nonpayable",
      "type": "function"
    }
  ],
  "bytecode": "0x60a080604052346100c257306080525f516020613dfb5f395f51905f525460ff8160401c166100b3576002600160401b03196001600160401b03821601610060575b604051613d3490816100c78239608051818181611d6b0152611e7f0152f35b6001600160401b0319166001600160401b039081175f516020613dfb5f395f51905f525581527fc7f505b2f371ae2175ee4913f4499e1f2633a7b5936321eed1cdaeb6115181d290602090a15f80610041565b63f92ee8a960e01b5f5260045ffd5b5f80fdfe6080806040526004361015610012575f80fd5b5f3560e01c90816301c11d9614612b595750806301ffc9a714612b03578063062100d514612ae65780631159a6fb14612ab9578063117f5f9214612a9c5780631459457a146128615780631510f85a146127475780631bf3300414612581578063248a9ca31461255b5780632ce05d031461253f5780632f2ff15d1461250e57806335659fb8146124f157806336568abe146124ad578063389a93f8146124295780633c6d448b1461240c5780633f4ba83a1461238e5780633fb814281461233e5780634a0d89ba146120235780634c74ef9c14611ffb5780634f1ef28614611e085780635117d74b14611ddb57806352b65c4b14611dbf57806352d1902d14611d595780635c975abb14611d2b57806360e49e4414611d0457806361d027b314611cdc5780636b42113114611cbf5780636d92f46714611a325780636d947e4b14611a1757806375b238fc146119f0578063787dce3d146119b857806378fc263e1461199b57806380b2edd8146119515780638456cb59146118e05780638987877e146118b657806391d1485414611861578063933f4eef14611820578063942cc61d14610efb5780639a6c4c0c14610dc55780639d93d35214610d88578063a217fddf14610d6e578063a5c1674e14610c91578063ad3cb1cc14610c4e578063b4a800ce14610c31578063bad7259a14610a63578063c2b7b868146109dc578063d04bc3f21461092e578063d3e5d3f314610688578063d547741f14610650578063e1a4521814610634578063e1f02ffa14610573578063e9402cc51461054b578063f0f44260146104f6578063f3ad65f4146104ce578063f438f01914610411578063f81eb2f7146102ba5763fc8045b11461028f575f80fd5b346102b6575f3660031901126102b65760206040515f516020613cdf5f395f51905f528152f35b5f80fd5b346102b65760203660031901126102b6576004356102d661314e565b60025f54146104025760025f55805f52600c60205260405f20600e810154156103f35760118101546001600160a01b031680156103e457601282015442116103d55733146103c65760028101546001600160a01b031633141590816103ae575b5061039f5780610399917f579e90f7cabad8d77316c92a503862cb4783a203648db82f5b2d35fd73389d955f80a260405190610373604083612c1e565b6014825273135d5d1d585b0818d85b98d95b081859dc99595960621b6020830152613175565b60015f55005b636f20b45d60e11b5f5260045ffd5b600301546001600160a01b0316331415905082610336565b6306b045a160e01b5f5260045ffd5b631845bb1560e21b5f5260045ffd5b63d87db87b60e01b5f5260045ffd5b6305ec69df60e41b5f5260045ffd5b6306fda65d60e31b5f5260045ffd5b346102b65760203660031901126102b65760043561042d6135c6565b60025f54146104025760025f55805f52600c60205260405f20600e810154156103f3576009015460a01c60ff16600b8110156104ba57600981149081156104af575b5061039f576103999060405190610487604083612c1e565b601682527513195859dd5948199bdc98d94818d85b98d95b1b195960521b6020830152613175565b600a9150148261046f565b634e487b7160e01b5f52602160045260245ffd5b346102b6575f3660031901126102b6576003546040516001600160a01b039091168152602090f35b346102b65760203660031901126102b65761050f612b9f565b61051761358a565b6001600160a01b0316801561053c57600580546001600160a01b031916919091179055005b63e6c4247b60e01b5f5260045ffd5b346102b6575f3660031901126102b6576004546040516001600160a01b039091168152602090f35b346102b65760203660031901126102b65760043561058f61314e565b60025f54146104025760025f556105a46134e5565b805f52600c60205260405f20600e810154156103f35760ff600982015460a01c16600b8110156104ba5760010361039f57600201546001600160a01b031633036106255761039990604051906105fb604083612c1e565b601882527710db1d588810481dda5d1a191c995dc81c1c9bdc1bdcd85b60421b6020830152613175565b636d5b0b4960e11b5f5260045ffd5b346102b6575f3660031901126102b65760206040516127108152f35b346102b65760403660031901126102b65761068660043561066f612bb5565b9061068161067c82612e2a565b61360f565b613655565b005b346102b65760203660031901126102b6576004356106a461314e565b60025f54146104025760025f55805f52600c60205260405f20600e810154156103f357600981019060ff825460a01c16600b8110156104ba5760060361039f5760038101546001600160a01b0316330361091f57600a810190815442116109105760035460405163023aa9ab60e61b81525f516020613c1f5f395f51905f52600482015290602090829060249082906001600160a01b03165afa9081156108c6575f916108d1575b50604051636896470560e11b815290602090829060049082906001600160a01b03165afa9081156108c6575f9161088c575b501561087d5760018060a01b036004820154169260058201938454604051906323b872dd60e01b5f52336004523060245260445260205f60648180865af19060015f511482161561085c575b6040525f6060521561084a575060209282601092600d7f4dc08c0325495ca943d2c66cf54b65d7bb499737cbb0c6498ee6eae9224199cf9795016201000062ff00001982541617905542600f830155600760a01b60ff60a01b19825416179055610836600a5442612e1d565b92839101555554604051908152a260015f55005b635274afe760e01b5f5260045260245ffd5b90600181151661087457823b15153d151616906107ca565b503d5f823e3d90fd5b6304d54fbf60e41b5f5260045ffd5b90506020813d6020116108be575b816108a760209383612c1e565b810103126102b6576108b890612e10565b8561077e565b3d915061089a565b6040513d5f823e3d90fd5b90506020813d602011610908575b816108ec60209383612c1e565b810103126102b6576020610901600492612dfc565b915061074c565b3d91506108df565b633833dfbb60e01b5f5260045ffd5b63eff1156960e01b5f5260045ffd5b346102b65760203660031901126102b65760043561094a61314e565b60025f54146104025760025f5561095f6134e5565b805f52600c60205260405f20600e810154156103f35760ff600982015460a01c16600b8110156104ba5760010361039f57600301546001600160a01b0316330361091f5761039990604051906109b6604083612c1e565b60148252730436c756220422072656a656374656420737761760641b6020830152613175565b346102b65760203660031901126102b6576004356109f86135c6565b60025f54146104025760025f55805f52600c60205260405f20600e810154156103f3576009015460a01c60ff16600b8110156104ba5760080361039f5780610399917f57cce005d496355471bb5269f1dea3d6c81b6ac14c1d74ba28aefb022357013b5f80a2613731565b346102b65760203660031901126102b65760043560025f54146104025760025f55805f52600c60205260405f20600e810154156103f357600a810154801561039f5742111561039f576009015460a01c60ff16600b8110156104ba5760018103610b0a57506103999060405190610adb604083612c1e565b601e82527f436c7562204220646964206e6f7420726573706f6e6420696e2074696d6500006020830152613175565b5f600282148015610c25575b15610b5d575050610b589060405190610b30604083612c1e565b601682527510dbdb9cd95b9d081dda5b991bddc8195e1c1a5c995960521b6020830152613175565b610399565b806104ba57600482148015610c19575b15610baf575050610b589060405190610b87604083612c1e565b60168252751359591a58d85b081dda5b991bddc8195e1c1a5c995960521b6020830152613175565b6104ba5760068103610bf75750610b589060405190610bcf604083612c1e565b6016825275119d5b991a5b99c81dda5b991bddc8195e1c1a5c995960521b6020830152613175565b60078103610c095750610b5890613731565b60080361039f57610b5890613731565b50505f60058214610b6d565b50505f60038214610b16565b346102b6575f3660031901126102b6576020600154604051908152f35b346102b6575f3660031901126102b657610c8d604051610c6f604082612c1e565b60058152640352e302e360dc1b602082015260405191829182612c5c565b0390f35b346102b65760203660031901126102b657600435805f52600c60205260405f20600e810154156103f3576009810160ff815460a01c16600b8110156104ba5760070361039f576010820154421015610d5f5760028201546001600160a01b031633141580610d48575b61039f57805460ff60a01b1916600160a31b179055600a8054610d1d9042612e1d565b91015533907f84a477df8a28a4276ca6dee4458a06c3015f30c477d9c949ede4e13ff8a552b45f80a3005b5060038201546001600160a01b0316331415610cfa565b63234c0ffd60e21b5f5260045ffd5b346102b6575f3660031901126102b65760206040515f8152f35b346102b65760203660031901126102b6576001600160a01b03610da9612b9f565b165f526010602052602060ff60405f2054166040519015158152f35b346102b65760203660031901126102b657600435610de161314e565b805f52600c60205260405f20600e810154156103f35760ff600982015460a01c16600b81101590816104ba5760098114918215610eee575b8215610edd575b8215610ecc575b505061039f5760028101546001600160a01b031633141580610eb5575b61039f576011810180546001600160a01b0316610ea65780546001600160a01b03191633179055600b54601290610e7b9042612e1d565b91015533907f7457f5ceee8e52b1ef56c933d90340dfbda61ea10b7e9be55550e9435d91bc775f80a3005b63ed8dd1bd60e01b5f5260045ffd5b5060038101546001600160a01b0316331415610e44565b9091506104ba576008148380610e27565b8092506104ba576007811491610e20565b50600a811491505f610e19565b346102b6576101003660031901126102b657610f15612bcb565b6064359060a435906001600160a01b03821682036102b65760e435906001600160a01b03821682036102b657610f4961314e565b60025f54146104025760025f55610f5e6134e5565b60035460405163023aa9ab60e61b81525f516020613c1f5f395f51905f52600482015290602090829060249082906001600160a01b03165afa9081156108c6575f916117e1575b50604051636896470560e11b815290602090829060049082906001600160a01b03165afa9081156108c6575f916117a7575b501561087d576001600160a01b03165f8181526010602052604090205490939060ff1615611798576024356004351461177857676765c793fa10079d601a1b81116117785761012c6084351161177857608435151580611787575b61053c5761012c60c435116117785760c435151580611767575b61053c576004355f52600d60205260405f2054611690576024355f52600d60205260405f205461169057600480546040516328ad606b60e11b81528235928101929092526001600160a01b031690602081602481855afa9081156108c6575f91611735575b506116905760405163bfadc8f960e01b81526004803590820152602081602481855afa9081156108c6575f91611703575b50611690576040516328ad606b60e11b81526024356004820152602081602481855afa9081156108c6575f916116d1575b506116905760206024916040519283809263bfadc8f960e01b8252823560048301525afa9081156108c6575f9161169f575b50611690576002546040516369d146b560e11b81526024803560048301529093916001600160a01b031690602090859081845afa9384156108c6575f94611654575b50336001600160a01b03851614611645576040516369d146b560e11b81526004803590820152602081602481855afa9081156108c6575f9161160b575b50336001600160a01b039091160361062557604051631cab5c9d60e31b81526004803590820152905f82602481845afa9081156108c6576024925f926115ed575b505f9060405193848092631cab5c9d60e31b8252823560048301525afa9182156108c6575f926115c9575b5060e0810151159081156115bb575b5061039f5760e0810151159081156115ad575b5061039f57600154935f198514611599576001850160015561127660075442612e1d565b926040519661128488612bee565b6004358852602435602089015233604089015260018060a01b0386166060890152608088015260a087015260843560c087015260018060a01b031660e086015260c43561010086015260018060a01b031661012085015260016101408501526101608401525f6101808401525f6101a08401525f6101c08401525f6101e08401525f610200840152426102208401525f6102408401525f6102608401525f6102808401525f6102a0840152600182015f52600c60205260405f20835181556020840151600182015560018060a01b03604085015116600282019060018060a01b031660018060a01b031982541617905560018060a01b03606085015116600382019060018060a01b031660018060a01b031982541617905560018060a01b03608085015116600482019060018060a01b031660018060a01b031982541617905560a0840151600582015560c0840151600682015560018060a01b0360e085015116600782019060018060a01b031660018060a01b031982541617905561010084015160088201556009810160018060a01b0360018060a01b03610120870151161660018060a01b0319825416178155610140850151600b8110156104ba57815460ff60a01b191660a09190911b60ff60a01b16179055610160840151600a820155610180840151600b8201556101a0840151600c8201556101c0840151600d82019060048110156104ba576114999082612e54565b6101e085015160048110156104ba57602095826114bb6102a093601295612c86565b610200820151815462ff00001916901515601090811b62ff00001691909117909155610220820151600e860155610240820151600f860155610260820151908501556102808101516011850180546001600160a01b0319166001600160a01b0392831617905591015191909201556004355f818152600d808752604080832060018801908190556024358085529289529281902083905580519384528388019190915293909216923392917fb7be8976e342525d7f927f1a8cdff2f317fcd62f6061076bdc01047bf9d5d0b49190a460015f55600160405191018152f35b634e487b7160e01b5f52601160045260245ffd5b610120915001511586611252565b61012091500151158761123f565b6115e69192503d805f833e6115de8183612c1e565b810190612fd9565b9087611230565b5f919250611604903d8084833e6115de8183612c1e565b9190611205565b90506020813d60201161163d575b8161162660209383612c1e565b810103126102b65761163790612dfc565b876111c4565b3d9150611619565b6339e89ad360e11b5f5260045ffd5b9093506020813d602011611688575b8161167060209383612c1e565b810103126102b65761168190612dfc565b9286611187565b3d9150611663565b631d222f3360e21b5f5260045ffd5b90506020813d6020116116c9575b816116ba60209383612c1e565b810103126102b6575185611145565b3d91506116ad565b90506020813d6020116116fb575b816116ec60209383612c1e565b810103126102b6575186611113565b3d91506116df565b90506020813d60201161172d575b8161171e60209383612c1e565b810103126102b65751866110e2565b3d9150611711565b90506020813d60201161175f575b8161175060209383612c1e565b810103126102b65751866110b1565b3d9150611743565b506001600160a01b0382161561104c565b63162908e360e11b5f5260045ffd5b506001600160a01b03831615611032565b6332da96a360e01b5f5260045ffd5b90506020813d6020116117d9575b816117c260209383612c1e565b810103126102b6576117d390612e10565b85610fd7565b3d91506117b5565b90506020813d602011611818575b816117fc60209383612c1e565b810103126102b6576020611811600492612dfc565b9150610fa5565b3d91506117ef565b346102b65760203660031901126102b657611839612b9f565b611841613541565b6001600160a01b03165f908152601060205260409020805460ff19169055005b346102b65760403660031901126102b65761187a612bb5565b6004355f525f516020613c5f5f395f51905f5260205260405f209060018060a01b03165f52602052602060ff60405f2054166040519015158152f35b346102b65760203660031901126102b6576004355f52600d602052602060405f2054604051908152f35b346102b6575f3660031901126102b6576118f8613541565b61190061314e565b600160ff195f516020613c7f5f395f51905f525416175f516020613c7f5f395f51905f52557f62e78cea01bee320cd4e420270b5ea74000d11b0c9f74754ebdbfc544b05a2586020604051338152a1005b346102b65760203660031901126102b65761196a612b9f565b611972613541565b6001600160a01b0316801561053c575f908152601060205260409020805460ff19166001179055005b346102b6575f3660031901126102b6576020600754604051908152f35b346102b65760203660031901126102b6576004356119d461358a565b60c881116119e157600655005b63499fddb160e01b5f5260045ffd5b346102b6575f3660031901126102b65760206040515f516020613c9f5f395f51905f528152f35b346102b6575f3660031901126102b657602060405160c88152f35b346102b65760203660031901126102b657600435611a4e61314e565b60025f54146104025760025f55805f52600c60205260405f2090600e820154156103f357600982019060ff825460a01c16600b8110156104ba5760028114159081611cb3575b5061039f57600a83019283544211611ca4576002548154604051631cab5c9d60e31b81526004810182905292916001600160a01b03165f84602481845afa9384156108c6575f94611c88575b50602460018401945f86549360405193848092631cab5c9d60e31b82528760048301525afa9182156108c6575f92611c6c575b5060c001516001600160a01b0316801515919082611c62575b5060c001516001600160a01b03168015159081611c58575b5081159081611c4f575b50611c405715611c3957505b835f52600e60205260405f20815f5260205260ff60405f20541661039f57835f52600e60205260405f20815f5260205260405f20600160ff19825416179055837f173620804848de4def17bad4f232db2cda858a822ae975c722b97cf0fe2c1bfa5f80a35f928352600e602090815260408085209254855291905280832054915483529091205460ff918216911681611c31575b5015611c1a57805460ff60a01b1916600160a21b179055600854611c129042612e1d565b905560015f55005b805460ff60a01b1916600360a01b17905550610399565b905083611bee565b9050611b5a565b631d3c442d60e21b5f5260045ffd5b90501589611b4e565b9050331489611b44565b3314915089611b2c565b611c819192503d805f833e6115de8183612c1e565b9089611b13565b611c9d9194503d805f833e6115de8183612c1e565b9287611ae0565b63839ec5c560e01b5f5260045ffd5b60039150141584611a94565b346102b6575f3660031901126102b6576020600b54604051908152f35b346102b6575f3660031901126102b6576005546040516001600160a01b039091168152602090f35b346102b6575f3660031901126102b65760206040515f516020613c3f5f395f51905f528152f35b346102b6575f3660031901126102b657602060ff5f516020613c7f5f395f51905f5254166040519015158152f35b346102b6575f3660031901126102b6577f00000000000000000000000000000000000000000000000000000000000000006001600160a01b03163003611db05760206040515f516020613bff5f395f51905f528152f35b63703e46dd60e11b5f5260045ffd5b346102b6575f3660031901126102b6576020604051610e108152f35b346102b657611de936612b7c565b90611df261314e565b60025f5414610402576103999260025f55612e6c565b60403660031901126102b657611e1c612b9f565b602435906001600160401b0382116102b657366023830112156102b6578160040135611e4781612c41565b92611e556040519485612c1e565b81845236602483830101116102b657815f9260246020930183870137840101526001600160a01b037f000000000000000000000000000000000000000000000000000000000000000016308114908115611fd9575b50611db057611eb761358a565b6040516352d1902d60e01b81526001600160a01b0382169290602081600481875afa5f9181611fa5575b50611ef95783634c9c8ce360e01b5f5260045260245ffd5b805f516020613bff5f395f51905f52859203611f935750823b15611f81575f516020613bff5f395f51905f5280546001600160a01b031916821790557fbc7cd75a20ee27fd9adebab32041f755214dbc6bffa90cc0225b39da2e5c2d3b5f80a2805115611f695761068691613ad2565b505034611f7257005b63b398979f60e01b5f5260045ffd5b634c9c8ce360e01b5f5260045260245ffd5b632a87526960e21b5f5260045260245ffd5b9091506020813d602011611fd1575b81611fc160209383612c1e565b810103126102b657519085611ee1565b3d9150611fb4565b5f516020613bff5f395f51905f52546001600160a01b03161415905083611eaa565b346102b6575f3660031901126102b6576002546040516001600160a01b039091168152602090f35b346102b65760203660031901126102b6575f6102a060405161204481612bee565b8281528260208201528260408201528260608201528260808201528260a08201528260c08201528260e08201528261010082015282610120820152826101408201528261016082015282610180820152826101a0820152826101c0820152826101e0820152826102008201528261022082015282610240820152826102608201528261028082015201526004355f52600c60205260405f20604051906120e982612bee565b805482526001810154602083015260028101546001600160a01b039081166040840152600382015481166060840152600482015481166080840152600582015460a080850191909152600683015460c08501526007830154821660e0850152600883015461010085015260098301549182166101208501521c60ff1690600b8210156104ba57601291610140840152600a810154610160840152600b810154610180840152600c8101546101a084015260ff600d8201546121b08282166101c08701612e48565b6121c3828260081c166101e08701612e48565b601090811c919091161515610200850152600e820154610220850152600f82015461024085015281015461026084015260118101546001600160a01b039081166102808501529101546102a08301526040805183518152602080850151908201528184015183169181019190915260608084015183169082015260808084015183169082015260a0808401519082015260c0808401519082015260e08084015183169082015261010080840151908201526101208084015190921691810191909152610140820151600b8110156104ba576102c0926102a0916101408401526101608101516101608401526101808101516101808401526101a08101516101a08401526122da6101c08201516101c0850190612be1565b6122ee6101e08201516101e0850190612be1565b610200810151151561020084015261022081015161022084015261024081015161024084015261026081015161026084015260018060a01b036102808201511661028084015201516102a0820152f35b346102b65760403660031901126102b657612357612b9f565b61235f612bb5565b6001600160a01b039182165f908152600f60209081526040808320949093168252928352819020549051908152f35b346102b6575f3660031901126102b6576123a6613541565b5f516020613c7f5f395f51905f525460ff8116156123fd5760ff19165f516020613c7f5f395f51905f52557f5db9ee0a495bf2e6ff9c91a7834c1ba4fdd244a5e8aa4e537bd38aeae4b073aa6020604051338152a1005b638dfc202b60e01b5f5260045ffd5b346102b6575f3660031901126102b6576020600954604051908152f35b346102b65760403660031901126102b65760043560ff81168091036102b65760243590612454613541565b610e10821061249e57806124685750600755005b600181036124765750600855005b600281036124845750600955005b600381036124925750600a55005b60040361177857600b55005b63296d383360e01b5f5260045ffd5b346102b65760403660031901126102b6576124c6612bb5565b336001600160a01b038216036124e25761068690600435613655565b63334bd91960e11b5f5260045ffd5b346102b6575f3660031901126102b6576020600654604051908152f35b346102b65760403660031901126102b65761068660043561252d612bb5565b9061253a61067c82612e2a565b613454565b346102b6575f3660031901126102b657602060405161012c8152f35b346102b65760203660031901126102b6576020612579600435612e2a565b604051908152f35b346102b65760203660031901126102b65760043561259d61314e565b60025f54146104025760025f556125b26134e5565b805f52600c60205260405f20600e810154156103f357600981019060ff825460a01c16600b8110156104ba5760010361039f5760038101546001600160a01b0316330361091f57600a019081544211611ca45760035460405163023aa9ab60e61b81525f516020613c1f5f395f51905f52600482015290602090829060249082906001600160a01b03165afa9081156108c6575f91612708575b50604051636896470560e11b815290602090829060049082906001600160a01b03165afa9081156108c6575f916126ce575b501561087d57805460ff60a01b1916600160a11b1790556007546126a29042612e1d565b90557f7080e652b0056fb27597071d591828292afd96fd17bc428ff26dfcca4acc52305f80a260015f55005b90506020813d602011612700575b816126e960209383612c1e565b810103126102b6576126fa90612e10565b8461267e565b3d91506126dc565b90506020813d60201161273f575b8161272360209383612c1e565b810103126102b6576020612738600492612dfc565b915061264c565b3d9150612716565b346102b65760203660031901126102b657612760612b9f565b60025f54146104025760025f55335f52600f60205260405f2060018060a01b0382165f5260205260405f205490811561285257335f52600f60205260405f2060018060a01b0382165f526020525f604081205560018060a01b0316906040519063a9059cbb60e01b5f52336004528060245260205f60448180875af160015f5114811615612833575b82604052156128205781527f716942921e9b67ee05c4c2ffcf216f189086c9053b444c8928a49db4bdb1ae8e60203392a360015f55005b82635274afe760e01b5f5260045260245ffd5b600181151661284957833b15153d1516166127e9565b823d5f823e3d90fd5b6312d37ee560e31b5f5260045ffd5b346102b65760a03660031901126102b65761287a612b9f565b612882612bb5565b61288a612bcb565b6064356001600160a01b038116908190036102b657608435916001600160a01b038316908184036102b6575f516020613cbf5f395f51905f5254604081901c60ff161596906001600160401b03811680159081612a94575b6001149081612a8a575b159081612a81575b50612a72576001600160401b031981166001175f516020613cbf5f395f51905f525587612a4a575b506001600160a01b031694851561053c576001600160a01b031690811561053c576001600160a01b031691821561053c57831561053c571561053c576129f194612964613aa7565b61296c613aa7565b60015f5560018060a01b0319600254161760025560018060a01b0319600354161760035560018060a01b0319600454161760045560018060a01b031960055416176005556203f4806007556203f4806008556202a3006009556203f480600a556202a300600b5560326006556129e1816132de565b506129eb81613354565b506133d4565b506129f857005b60ff60401b195f516020613cbf5f395f51905f5254165f516020613cbf5f395f51905f52557fc7f505b2f371ae2175ee4913f4499e1f2633a7b5936321eed1cdaeb6115181d2602060405160018152a1005b6001600160481b0319166001600160401b01175f516020613cbf5f395f51905f52558761291c565b63f92ee8a960e01b5f5260045ffd5b905015896128f4565b303b1591506128ec565b8991506128e2565b346102b6575f3660031901126102b6576020600a54604051908152f35b346102b657612ac736612b7c565b90612ad061314e565b60025f5414610402576103999260025f55612ca5565b346102b6575f3660031901126102b6576020600854604051908152f35b346102b65760203660031901126102b65760043563ffffffff60e01b81168091036102b657602090637965db0b60e01b8114908115612b48575b506040519015158152f35b6301ffc9a760e01b14905082612b3d565b346102b6575f3660031901126102b657676765c793fa10079d601a1b8152602090f35b60609060031901126102b6576004359060243560048110156102b6579060443590565b600435906001600160a01b03821682036102b657565b602435906001600160a01b03821682036102b657565b604435906001600160a01b03821682036102b657565b9060048210156104ba5752565b6102c081019081106001600160401b03821117612c0a57604052565b634e487b7160e01b5f52604160045260245ffd5b601f909101601f19168101906001600160401b03821190821017612c0a57604052565b6001600160401b038111612c0a57601f01601f191660200190565b602060409281835280519182918282860152018484015e5f828201840152601f01601f1916010190565b9060048110156104ba5761ff0082549160081b169061ff001916179055565b9091815f52600c60205260405f2092600e840154156103f357600984019360ff855460a01c16600b8110156104ba5760048114159081612df0575b5061039f5760038101546001600160a01b0316330361091f57600a8101544211612de157600c8101928354612dd257801561053c5760048310156104ba5782156117785760029355612d3582600d8301612c86565b54835f516020613bbf5f395f51905f526020604051612d548187612be1565ba314612d925760ff825460a01c16600b8110156104ba57600503612d7e57612d7c9150613291565b565b50805460ff60a01b1916600560a01b179055565b612d7c915060405190612da6604083612c1e565b601a8252794d65646963616c206661696c6564206f6e20506c61796572204160301b6020830152613175565b63c0f9cf3b60e01b5f5260045ffd5b63c052877160e01b5f5260045ffd5b6005915014155f612ce0565b51906001600160a01b03821682036102b657565b519081151582036102b657565b9190820180921161159957565b5f525f516020613c5f5f395f51905f52602052600160405f20015490565b60048210156104ba5752565b9060048110156104ba5760ff80198354169116179055565b9091815f52600c60205260405f2092600e840154156103f357600984019360ff855460a01c16600b8110156104ba5760048114159081612f87575b5061039f5760028101546001600160a01b0316330361062557600a8101544211612de157600b8101908154612dd257831561053c5760048310156104ba5782156117785760029360019255612eff83600d8301612e54565b0154835f516020613bbf5f395f51905f526020604051612f1f8187612be1565ba314612f475760ff825460a01c16600b8110156104ba57600503612d7e57612d7c9150613291565b612d7c915060405190612f5b604083612c1e565b601a82527926b2b234b1b0b6103330b4b632b21037b710283630bcb2b9102160311b6020830152613175565b6005915014155f612ea7565b81601f820112156102b657805190612faa82612c41565b92612fb86040519485612c1e565b828452602083830101116102b657815f9260208093018386015e8301015290565b6020818303126102b6578051906001600160401b0382116102b6570190610200828203126102b6576040519161020083016001600160401b03811184821017612c0a576040528051835260208101516001600160401b0381116102b65782613042918301612f93565b602084015260408101516001600160401b0381116102b65782613066918301612f93565b604084015260608101516001600160401b0381116102b6578261308a918301612f93565b60608401526080810151608084015260a081015160a08401526130af60c08201612dfc565b60c08401526130c060e08201612e10565b60e08401526130d26101008201612e10565b6101008401526130e56101208201612e10565b6101208401526101408101516101408401526101608101516101608401526101808101516101808401526101a08101516101a08401526101c081015160018060401b0381116102b6576101e09261313d918301612f93565b6101c084015201516101e082015290565b60ff5f516020613c7f5f395f51905f52541661316657565b63d93c066560e01b5f5260045ffd5b5f818152600c6020908152604080832060098101805460ff60a01b1916600560a11b17905580548452600d8084528285208590556001820180548652838620869055868652600e855283862083548752808652848720805460ff199081169091559154875290945291909320805490921690915581015491927f646da14d81571ab969d264eaf28be5b6cb2cb25db1306f921b9a0a35835b4eed92613233929060101c60ff1680613284575b613238575b5060405191829182612c5c565b0390a2565b600581015460038201546001600160a01b039081165f908152600f602090815260408083206004909601549093168252939093529091208054909161327c91612e1d565b90555f613226565b5060058101541515613221565b805f52600c60205260405f20906005820154155f146132b457612d7c9150613731565b506009818101805460ff60a01b1916600360a11b17905554600a906132d99042612e1d565b910155565b6001600160a01b0381165f9081525f516020613bdf5f395f51905f52602052604090205460ff1661334f576001600160a01b03165f8181525f516020613bdf5f395f51905f5260205260408120805460ff191660011790553391905f516020613b5f5f395f51905f528180a4600190565b505f90565b6001600160a01b0381165f9081525f516020613b9f5f395f51905f52602052604090205460ff1661334f576001600160a01b03165f8181525f516020613b9f5f395f51905f5260205260408120805460ff191660011790553391905f516020613c9f5f395f51905f52905f516020613b5f5f395f51905f529080a4600190565b6001600160a01b0381165f9081525f516020613b7f5f395f51905f52602052604090205460ff1661334f576001600160a01b03165f8181525f516020613b7f5f395f51905f5260205260408120805460ff191660011790553391905f516020613c3f5f395f51905f52905f516020613b5f5f395f51905f529080a4600190565b5f8181525f516020613c5f5f395f51905f52602090815260408083206001600160a01b038616845290915290205460ff166134df575f8181525f516020613c5f5f395f51905f52602090815260408083206001600160a01b0395909516808452949091528120805460ff19166001179055339291905f516020613b5f5f395f51905f529080a4600190565b50505f90565b335f9081527f47c3465a0c211ece60dd73efc90110f8b7e204feda752e1c50487740ddbcd24f602052604090205460ff161561351d57565b63e2517d3f60e01b5f52336004525f516020613cdf5f395f51905f5260245260445ffd5b335f9081525f516020613b9f5f395f51905f52602052604090205460ff161561356657565b63e2517d3f60e01b5f52336004525f516020613c9f5f395f51905f5260245260445ffd5b335f9081525f516020613bdf5f395f51905f52602052604090205460ff16156135af57565b63e2517d3f60e01b5f52336004525f60245260445ffd5b335f9081525f516020613b7f5f395f51905f52602052604090205460ff16156135eb57565b63e2517d3f60e01b5f52336004525f516020613c3f5f395f51905f5260245260445ffd5b5f8181525f516020613c5f5f395f51905f526020908152604080832033845290915290205460ff161561363f5750565b63e2517d3f60e01b5f523360045260245260445ffd5b5f8181525f516020613c5f5f395f51905f52602090815260408083206001600160a01b038616845290915290205460ff16156134df575f8181525f516020613c5f5f395f51905f52602090815260408083206001600160a01b0395909516808452949091528120805460ff19169055339291907ff6391f5c32d9c69d2a47ea670b442974b53935d1edc7fd64eb21e047a839171b9080a4600190565b8181029291811591840414171561159957565b9190820391821161159957565b9081526001600160a01b0391821660208201529116604082015260600190565b5f818152600c6020908152604080832060098101805460ff60a01b1916600960a01b17815581548552600d84528285208590556001820180548652838620869055868652600e855283862083548752808652848720805460ff19908116909155825488529552928520805490941690935560058101805491939190816138d3575b505060028054845491850180546003909601805490969194506001600160a01b0391821693929082169116803b156102b657613808935f8094604051968795869485936332f65ba360e01b855260048501613711565b03925af180156108c6576138be575b506002549154925490546001600160a01b039081169392811692911690823b156138ba57916138619391858094604051968795869485936332f65ba360e01b855260048501613711565b03925af180156138af57613897575b50807f02f857175b5562dc8e8fe1cc6d39215bf823a07a685f52fba82f1e637d41851391a2565b6138a2828092612c1e565b6138ac575f613870565b80fd5b6040513d84823e3d90fd5b8480fd5b6138cb9194505f90612c1e565b5f925f613817565b8160065480151580613a93575b613a3b575b5050600685015480151580613a25575b6139c6575b50600885015490811515806139b3575b613958575b505060028401546001600160a01b039081165f908152600f602090815260408083206004890154909416835292905220805490925061394e9190612e1d565b90555f80806137b2565b6139696139719261271092546136f1565b048092613704565b91546001600160a01b039081165f908152600f602090815260408083206004890154909416835292905220805490916139a991612e1d565b9055805f8061390f565b5083546001600160a01b0316151561390a565b6127106139d76139df9284546136f1565b048093613704565b60078601546001600160a01b039081165f908152600f6020908152604080832060048b0154909416835292905220805491939091613a1d9190612e1d565b90555f6138fa565b5060078601546001600160a01b031615156138f5565b8193506139d761271091613a4e936136f1565b6005546001600160a01b039081165f908152600f6020908152604080832060048b0154909416835292905220805491939091613a8a9190612e1d565b90555f806138e5565b506005546001600160a01b031615156138e0565b60ff5f516020613cbf5f395f51905f525460401c1615613ac357565b631afcd79f60e31b5f5260045ffd5b905f8091602081519101845af48080613b4b575b15613b065750506040513d81523d5f602083013e60203d82010160405290565b15613b2b57639996b31560e01b5f9081526001600160a01b0391909116600452602490fd5b3d15613b3c576040513d5f823e3d90fd5b63d6bda27560e01b5f5260045ffd5b503d151580613ae65750813b1515613ae656fe2f8788117e7eff1d82e926ec794901d17c78024a50270940304540a733656f0d7a1492cadb22452d254c71a9ef0c781c9f2d1c472dc5213a713c8769ea04d819b16e88c42fd4e48df2dd6a2eabd6bc9aec654ec170056b470819f8892cc6431cb79a81e8ece8f0ebd2e41bb3daf1c77bad2ac5f452f02fc8065048ec720c2b5ab7db2dd08fcb62d0c9e08c51941cae53c267786a0b75803fb7960902fc8ef97d360894a13ba1a3210667c828492db98dca3e2076cc3735a920a3ca505d382bbcd8e6c8b39dbc70333b42d059fa436cf2679722325c0f6ed7e701df0b05a637c8e4369475d33ca6555b45ac3cf081bee16c4b11779d89f812395c569b2de40f0102dd7bc7dec4dceedda775e58dd541e08a116c6c53815c0bd028192f7b626800cd5ed15c6e187e77e9aee88184c21f4f2182ab5827cb3b7e07fbedcd63f03300a49807205ce4d355092ef5a8a18f56e8913cf4a201fbe287825b095693c21775f0c57e16840df040f15088dc2f81fe391c3923bec73e23a9662efc9c229c6a00ba2dc669204b26427a432593e1c6ac86ab4ccc54d29c4287abbd1cefc1cb002ba26469706673582212207d27fbe45b8b8cd8faa718b7ba0c5a2858aa5eee7c92cfea228c1b99e90c344364736f6c634300081c0033f0c57e16840df040f15088dc2f81fe391c3923bec73e23a9662efc9c229c6a00",
  "linkReferences": {},
  "deployedLinkReferences": {},
  "immutableReferences": {
    "1940": [
      {
        "length": 32,
        "start": 7531
      },
      {
        "length": 32,
        "start": 7807
      }
    ]
  },
  "inputSourceName": "project/contracts/core/SwapEscrow.sol",
  "buildInfoId": "solc-0_8_28-66dacbb9b58248588fe18a333966fb32face5edb"
}