{
  "_format": "hh3-artifact-1",
  "contractName": "SwapEscrow",
  "sourceName": "contracts/core/SwapEscrow.sol",
  "abi": [
    {
      "inputs": [],
      "stateMutability": "nonpayable",
      "type": "constructor"
    },
    {
      "inputs": [],
      "name": "AccessControlBadConfirmation",
      "type": "error"
    },
    {
      "inputs": [
        {
          "internalType": "address",
          "name": "account",
          "type": "address"
        },
        {
          "internalType": "bytes32",
          "name": "neededRole",
          "type": "bytes32"
        }
      ],
      "name": "AccessControlUnauthorizedAccount",
      "type": "error"
    },
    {
      "inputs": [
        {
          "internalType": "address",
          "name": "target",
          "type": "address"
        }
      ],
      "name": "AddressEmptyCode",
      "type": "error"
    },
    {
      "inputs": [],
      "name": "CannotConfirmOwnCancel",
      "type": "error"
    },
    {
      "inputs": [],
      "name": "CannotSwapSameClub",
      "type": "error"
    },
    {
      "inputs": [],
      "name": "ConsentWindowExpired",
      "type": "error"
    },
    {
      "inputs": [],
      "name": "DealIsFrozen",
      "type": "error"
    },
    {
      "inputs": [],
      "name": "DisputeWindowExpired",
      "type": "error"
    },
    {
      "inputs": [
        {
          "internalType": "address",
          "name": "implementation",
          "type": "address"
        }
      ],
      "name": "ERC1967InvalidImplementation",
      "type": "error"
    },
    {
      "inputs": [],
      "name": "ERC1967NonPayable",
      "type": "error"
    },
    {
      "inputs": [],
      "name": "EnforcedPause",
      "type": "error"
    },
    {
      "inputs": [],
      "name": "ExpectedPause",
      "type": "error"
    },
    {
      "inputs": [],
      "name": "FailedCall",
      "type": "error"
    },
    {
      "inputs": [],
      "name": "FeesExceed100Pct",
      "type": "error"
    },
    {
      "inputs": [],
      "name": "FundingWindowExpired",
      "type": "error"
    },
    {
      "inputs": [
        {
          "internalType": "uint256",
          "name": "requested",
          "type": "uint256"
        },
        {
          "internalType": "uint256",
          "name": "available",
          "type": "uint256"
        }
      ],
      "name": "InsufficientProtocolBalance",
      "type": "error"
    },
    {
      "inputs": [],
      "name": "InvalidAddress",
      "type": "error"
    },
    {
      "inputs": [],
      "name": "InvalidAmount",
      "type": "error"
    },
    {
      "inputs": [],
      "name": "InvalidInitialization",
      "type": "error"
    },
    {
      "inputs": [],
      "name": "MedicalAlreadySubmitted",
      "type": "error"
    },
    {
      "inputs": [],
      "name": "MedicalWindowExpired",
      "type": "error"
    },
    {
      "inputs": [],
      "name": "MutualCancelAlreadyProposed",
      "type": "error"
    },
    {
      "inputs": [],
      "name": "MutualCancelExpired",
      "type": "error"
    },
    {
      "inputs": [],
      "name": "MutualCancelNotProposed",
      "type": "error"
    },
    {
      "inputs": [],
      "name": "NoPendingTransferEscrowUpdate",
      "type": "error"
    },
    {
      "inputs": [],
      "name": "NoPendingTreasuryUpdate",
      "type": "error"
    },
    {
      "inputs": [],
      "name": "NotClubA",
      "type": "error"
    },
    {
      "inputs": [],
      "name": "NotClubB",
      "type": "error"
    },
    {
      "inputs": [],
      "name": "NotInitializing",
      "type": "error"
    },
    {
      "inputs": [],
      "name": "NotPlayerWallet",
      "type": "error"
    },
    {
      "inputs": [],
      "name": "NothingToClaim",
      "type": "error"
    },
    {
      "inputs": [],
      "name": "NothingToWithdraw",
      "type": "error"
    },
    {
      "inputs": [],
      "name": "PlayerHasActiveProcess",
      "type": "error"
    },
    {
      "inputs": [],
      "name": "PlayerWalletNotSet",
      "type": "error"
    },
    {
      "inputs": [],
      "name": "ProtocolFeeTooHigh",
      "type": "error"
    },
    {
      "inputs": [],
      "name": "ReentrantCall",
      "type": "error"
    },
    {
      "inputs": [
        {
          "internalType": "address",
          "name": "token",
          "type": "address"
        }
      ],
      "name": "SafeERC20FailedOperation",
      "type": "error"
    },
    {
      "inputs": [],
      "name": "SwapNotFound",
      "type": "error"
    },
    {
      "inputs": [],
      "name": "TimerTooShort",
      "type": "error"
    },
    {
      "inputs": [],
      "name": "TokenNotApproved",
      "type": "error"
    },
    {
      "inputs": [],
      "name": "TransferEscrowUpdateNotReady",
      "type": "error"
    },
    {
      "inputs": [],
      "name": "TransferWindowClosed",
      "type": "error"
    },
    {
      "inputs": [],
      "name": "TreasuryUpdateNotReady",
      "type": "error"
    },
    {
      "inputs": [],
      "name": "UUPSUnauthorizedCallContext",
      "type": "error"
    },
    {
      "inputs": [
        {
          "internalType": "bytes32",
          "name": "slot",
          "type": "bytes32"
        }
      ],
      "name": "UUPSUnsupportedProxiableUUID",
      "type": "error"
    },
    {
      "inputs": [],
      "name": "WrongState",
      "type": "error"
    },
    {
      "anonymous": false,
      "inputs": [
        {
          "indexed": true,
          "internalType": "uint256",
          "name": "swapId",
          "type": "uint256"
        },
        {
          "indexed": true,
          "internalType": "address",
          "name": "raisedBy",
          "type": "address"
        }
      ],
      "name": "DisputeRaised",
      "type": "event"
    },
    {
      "anonymous": false,
      "inputs": [
        {
          "indexed": true,
          "internalType": "uint256",
          "name": "swapId",
          "type": "uint256"
        }
      ],
      "name": "DisputeResolved",
      "type": "event"
    },
    {
      "anonymous": false,
      "inputs": [
        {
          "indexed": true,
          "internalType": "address",
          "name": "recipient",
          "type": "address"
        },
        {
          "indexed": true,
          "internalType": "address",
          "name": "token",
          "type": "address"
        },
        {
          "indexed": false,
          "internalType": "uint256",
          "name": "amount",
          "type": "uint256"
        }
      ],
      "name": "FundsClaimed",
      "type": "event"
    },
    {
      "anonymous": false,
      "inputs": [
        {
          "indexed": false,
          "internalType": "uint64",
          "name": "version",
          "type": "uint64"
        }
      ],
      "name": "Initialized",
      "type": "event"
    },
    {
      "anonymous": false,
      "inputs": [
        {
          "indexed": true,
          "internalType": "uint256",
          "name": "swapId",
          "type": "uint256"
        },
        {
          "indexed": true,
          "internalType": "uint256",
          "name": "playerId",
          "type": "uint256"
        },
        {
          "indexed": false,
          "internalType": "enum SwapEscrow.MedicalOutcome",
          "name": "outcome",
          "type": "uint8"
        }
      ],
      "name": "MedicalSubmitted",
      "type": "event"
    },
    {
      "anonymous": false,
      "inputs": [
        {
          "indexed": true,
          "internalType": "uint256",
          "name": "swapId",
          "type": "uint256"
        }
      ],
      "name": "MutualCancelConfirmed",
      "type": "event"
    },
    {
      "anonymous": false,
      "inputs": [
        {
          "indexed": true,
          "internalType": "uint256",
          "name": "swapId",
          "type": "uint256"
        },
        {
          "indexed": true,
          "internalType": "address",
          "name": "proposer",
          "type": "address"
        }
      ],
      "name": "MutualCancelProposed",
      "type": "event"
    },
    {
      "anonymous": false,
      "inputs": [
        {
          "indexed": false,
          "internalType": "address",
          "name": "account",
          "type": "address"
        }
      ],
      "name": "Paused",
      "type": "event"
    },
    {
      "anonymous": false,
      "inputs": [
        {
          "indexed": true,
          "internalType": "uint256",
          "name": "swapId",
          "type": "uint256"
        },
        {
          "indexed": true,
          "internalType": "uint256",
          "name": "playerId",
          "type": "uint256"
        }
      ],
      "name": "PlayerConsented",
      "type": "event"
    },
    {
      "anonymous": false,
      "inputs": [
        {
          "indexed": false,
          "internalType": "uint256",
          "name": "bps",
          "type": "uint256"
        }
      ],
      "name": "ProtocolFeeUpdated",
      "type": "event"
    },
    {
      "anonymous": false,
      "inputs": [
        {
          "indexed": true,
          "internalType": "address",
          "name": "treasury",
          "type": "address"
        },
        {
          "indexed": true,
          "internalType": "address",
          "name": "token",
          "type": "address"
        },
        {
          "indexed": false,
          "internalType": "uint256",
          "name": "amount",
          "type": "uint256"
        }
      ],
      "name": "ProtocolFeesWithdrawn",
      "type": "event"
    },
    {
      "anonymous": false,
      "inputs": [
        {
          "indexed": true,
          "internalType": "address",
          "name": "newTreasury",
          "type": "address"
        },
        {
          "indexed": false,
          "internalType": "uint256",
          "name": "effectiveAt",
          "type": "uint256"
        }
      ],
      "name": "ProtocolTreasuryUpdateScheduled",
      "type": "event"
    },
    {
      "anonymous": false,
      "inputs": [
        {
          "indexed": true,
          "internalType": "address",
          "name": "oldTreasury",
          "type": "address"
        },
        {
          "indexed": true,
          "internalType": "address",
          "name": "newTreasury",
          "type": "address"
        }
      ],
      "name": "ProtocolTreasuryUpdated",
      "type": "event"
    },
    {
      "anonymous": false,
      "inputs": [
        {
          "indexed": true,
          "internalType": "bytes32",
          "name": "role",
          "type": "bytes32"
        },
        {
          "indexed": true,
          "internalType": "bytes32",
          "name": "previousAdminRole",
          "type": "bytes32"
        },
        {
          "indexed": true,
          "internalType": "bytes32",
          "name": "newAdminRole",
          "type": "bytes32"
        }
      ],
      "name": "RoleAdminChanged",
      "type": "event"
    },
    {
      "anonymous": false,
      "inputs": [
        {
          "indexed": true,
          "internalType": "bytes32",
          "name": "role",
          "type": "bytes32"
        },
        {
          "indexed": true,
          "internalType": "address",
          "name": "account",
          "type": "address"
        },
        {
          "indexed": true,
          "internalType": "address",
          "name": "sender",
          "type": "address"
        }
      ],
      "name": "RoleGranted",
      "type": "event"
    },
    {
      "anonymous": false,
      "inputs": [
        {
          "indexed": true,
          "internalType": "bytes32",
          "name": "role",
          "type": "bytes32"
        },
        {
          "indexed": true,
          "internalType": "address",
          "name": "account",
          "type": "address"
        },
        {
          "indexed": true,
          "internalType": "address",
          "name": "sender",
          "type": "address"
        }
      ],
      "name": "RoleRevoked",
      "type": "event"
    },
    {
      "anonymous": false,
      "inputs": [
        {
          "indexed": true,
          "internalType": "uint256",
          "name": "swapId",
          "type": "uint256"
        }
      ],
      "name": "SwapAccepted",
      "type": "event"
    },
    {
      "anonymous": false,
      "inputs": [
        {
          "indexed": true,
          "internalType": "uint256",
          "name": "swapId",
          "type": "uint256"
        },
        {
          "indexed": false,
          "internalType": "string",
          "name": "reason",
          "type": "string"
        }
      ],
      "name": "SwapCancelled",
      "type": "event"
    },
    {
      "anonymous": false,
      "inputs": [
        {
          "indexed": true,
          "internalType": "uint256",
          "name": "swapId",
          "type": "uint256"
        }
      ],
      "name": "SwapCompleted",
      "type": "event"
    },
    {
      "anonymous": false,
      "inputs": [
        {
          "indexed": true,
          "internalType": "uint256",
          "name": "swapId",
          "type": "uint256"
        },
        {
          "indexed": false,
          "internalType": "uint256",
          "name": "topUpAmount",
          "type": "uint256"
        }
      ],
      "name": "SwapFunded",
      "type": "event"
    },
    {
      "anonymous": false,
      "inputs": [
        {
          "indexed": true,
          "internalType": "uint256",
          "name": "swapId",
          "type": "uint256"
        },
        {
          "indexed": false,
          "internalType": "uint256",
          "name": "playerA",
          "type": "uint256"
        },
        {
          "indexed": false,
          "internalType": "uint256",
          "name": "playerB",
          "type": "uint256"
        },
        {
          "indexed": true,
          "internalType": "address",
          "name": "clubA",
          "type": "address"
        },
        {
          "indexed": true,
          "internalType": "address",
          "name": "clubB",
          "type": "address"
        }
      ],
      "name": "SwapProposed",
      "type": "event"
    },
    {
      "anonymous": false,
      "inputs": [
        {
          "indexed": true,
          "internalType": "address",
          "name": "newAddress",
          "type": "address"
        },
        {
          "indexed": false,
          "internalType": "uint256",
          "name": "executableAt",
          "type": "uint256"
        }
      ],
      "name": "TransferEscrowUpdateScheduled",
      "type": "event"
    },
    {
      "anonymous": false,
      "inputs": [
        {
          "indexed": true,
          "internalType": "address",
          "name": "oldAddress",
          "type": "address"
        },
        {
          "indexed": true,
          "internalType": "address",
          "name": "newAddress",
          "type": "address"
        }
      ],
      "name": "TransferEscrowUpdated",
      "type": "event"
    },
    {
      "anonymous": false,
      "inputs": [
        {
          "indexed": false,
          "internalType": "address",
          "name": "account",
          "type": "address"
        }
      ],
      "name": "Unpaused",
      "type": "event"
    },
    {
      "anonymous": false,
      "inputs": [
        {
          "indexed": true,
          "internalType": "address",
          "name": "implementation",
          "type": "address"
        }
      ],
      "name": "Upgraded",
      "type": "event"
    },
    {
      "inputs": [],
      "name": "ADMIN_ROLE",
      "outputs": [
        {
          "internalType": "bytes32",
          "name": "",
          "type": "bytes32"
        }
      ],
      "stateMutability": "view",
      "type": "function"
    },
    {
      "inputs": [],
      "name": "BPS_DENOMINATOR",
      "outputs": [
        {
          "internalType": "uint256",
          "name": "",
          "type": "uint256"
        }
      ],
      "stateMutability": "view",
      "type": "function"
    },
    {
      "inputs": [],
      "name": "CLUB_ROLE",
      "outputs": [
        {
          "internalType": "bytes32",
          "name": "",
          "type": "bytes32"
        }
      ],
      "stateMutability": "view",
      "type": "function"
    },
    {
      "inputs": [],
      "name": "DEFAULT_ADMIN_ROLE",
      "outputs": [
        {
          "internalType": "bytes32",
          "name": "",
          "type": "bytes32"
        }
      ],
      "stateMutability": "view",
      "type": "function"
    },
    {
      "inputs": [],
      "name": "LEAGUE_ROLE",
      "outputs": [
        {
          "internalType": "bytes32",
          "name": "",
          "type": "bytes32"
        }
      ],
      "stateMutability": "view",
      "type": "function"
    },
    {
      "inputs": [],
      "name": "MAX_AGENT_BPS",
      "outputs": [
        {
          "internalType": "uint256",
          "name": "",
          "type": "uint256"
        }
      ],
      "stateMutability": "view",
      "type": "function"
    },
    {
      "inputs": [],
      "name": "MAX_PRICE",
      "outputs": [
        {
          "internalType": "uint256",
          "name": "",
          "type": "uint256"
        }
      ],
      "stateMutability": "view",
      "type": "function"
    },
    {
      "inputs": [],
      "name": "MIN_WINDOW",
      "outputs": [
        {
          "internalType": "uint256",
          "name": "",
          "type": "uint256"
        }
      ],
      "stateMutability": "view",
      "type": "function"
    },
    {
      "inputs": [],
      "name": "TRANSFER_ESCROW_UPDATE_DELAY",
      "outputs": [
        {
          "internalType": "uint256",
          "name": "",
          "type": "uint256"
        }
      ],
      "stateMutability": "view",
      "type": "function"
    },
    {
      "inputs": [],
      "name": "UPGRADE_INTERFACE_VERSION",
      "outputs": [
        {
          "internalType": "string",
          "name": "",
          "type": "string"
        }
      ],
      "stateMutability": "view",
      "type": "function"
    },
    {
      "inputs": [
        {
          "internalType": "uint256",
          "name": "swapId",
          "type": "uint256"
        }
      ],
      "name": "acceptSwap",
      "outputs": [],
      "stateMutability": "nonpayable",
      "type": "function"
    },
    {
      "inputs": [],
      "name": "addressRegistry",
      "outputs": [
        {
          "internalType": "contract IAddressRegistry",
          "name": "",
          "type": "address"
        }
      ],
      "stateMutability": "view",
      "type": "function"
    },
    {
      "inputs": [
        {
          "internalType": "address",
          "name": "token",
          "type": "address"
        }
      ],
      "name": "approveToken",
      "outputs": [],
      "stateMutability": "nonpayable",
      "type": "function"
    },
    {
      "inputs": [
        {
          "internalType": "uint256",
          "name": "swapId",
          "type": "uint256"
        }
      ],
      "name": "confirmMutualCancel",
      "outputs": [],
      "stateMutability": "nonpayable",
      "type": "function"
    },
    {
      "inputs": [
        {
          "internalType": "uint256",
          "name": "swapId",
          "type": "uint256"
        }
      ],
      "name": "consentToSwap",
      "outputs": [],
      "stateMutability": "nonpayable",
      "type": "function"
    },
    {
      "inputs": [],
      "name": "consentWindow",
      "outputs": [
        {
          "internalType": "uint256",
          "name": "",
          "type": "uint256"
        }
      ],
      "stateMutability": "view",
      "type": "function"
    },
    {
      "inputs": [],
      "name": "disputeWindow",
      "outputs": [
        {
          "internalType": "uint256",
          "name": "",
          "type": "uint256"
        }
      ],
      "stateMutability": "view",
      "type": "function"
    },
    {
      "inputs": [],
      "name": "executeProtocolTreasuryUpdate",
      "outputs": [],
      "stateMutability": "nonpayable",
      "type": "function"
    },
    {
      "inputs": [],
      "name": "executeTransferEscrowUpdate",
      "outputs": [],
      "stateMutability": "nonpayable",
      "type": "function"
    },
    {
      "inputs": [
        {
          "internalType": "uint256",
          "name": "swapId",
          "type": "uint256"
        }
      ],
      "name": "forceCancel",
      "outputs": [],
      "stateMutability": "nonpayable",
      "type": "function"
    },
    {
      "inputs": [
        {
          "internalType": "uint256",
          "name": "swapId",
          "type": "uint256"
        }
      ],
      "name": "fundSwap",
      "outputs": [],
      "stateMutability": "nonpayable",
      "type": "function"
    },
    {
      "inputs": [],
      "name": "fundingWindow",
      "outputs": [
        {
          "internalType": "uint256",
          "name": "",
          "type": "uint256"
        }
      ],
      "stateMutability": "view",
      "type": "function"
    },
    {
      "inputs": [
        {
          "internalType": "address",
          "name": "account",
          "type": "address"
        },
        {
          "internalType": "address",
          "name": "token",
          "type": "address"
        }
      ],
      "name": "getClaimable",
      "outputs": [
        {
          "internalType": "uint256",
          "name": "",
          "type": "uint256"
        }
      ],
      "stateMutability": "view",
      "type": "function"
    },
    {
      "inputs": [
        {
          "internalType": "uint256",
          "name": "playerId",
          "type": "uint256"
        }
      ],
      "name": "getPlayerSwap",
      "outputs": [
        {
          "internalType": "uint256",
          "name": "",
          "type": "uint256"
        }
      ],
      "stateMutability": "view",
      "type": "function"
    },
    {
      "inputs": [
        {
          "internalType": "bytes32",
          "name": "role",
          "type": "bytes32"
        }
      ],
      "name": "getRoleAdmin",
      "outputs": [
        {
          "internalType": "bytes32",
          "name": "",
          "type": "bytes32"
        }
      ],
      "stateMutability": "view",
      "type": "function"
    },
    {
      "inputs": [
        {
          "internalType": "uint256",
          "name": "swapId",
          "type": "uint256"
        }
      ],
      "name": "getSwap",
      "outputs": [
        {
          "components": [
            {
              "internalType": "uint256",
              "name": "playerA",
              "type": "uint256"
            },
            {
              "internalType": "uint256",
              "name": "playerB",
              "type": "uint256"
            },
            {
              "internalType": "address",
              "name": "clubA",
              "type": "address"
            },
            {
              "internalType": "address",
              "name": "clubB",
              "type": "address"
            },
            {
              "internalType": "address",
              "name": "paymentToken",
              "type": "address"
            },
            {
              "internalType": "uint256",
              "name": "topUpAmount",
              "type": "uint256"
            },
            {
              "internalType": "uint256",
              "name": "clubAAgentBps",
              "type": "uint256"
            },
            {
              "internalType": "address",
              "name": "clubAAgent",
              "type": "address"
            },
            {
              "internalType": "uint256",
              "name": "clubBAgentBps",
              "type": "uint256"
            },
            {
              "internalType": "address",
              "name": "clubBAgent",
              "type": "address"
            },
            {
              "internalType": "enum SwapEscrow.SwapState",
              "name": "state",
              "type": "uint8"
            },
            {
              "internalType": "uint256",
              "name": "stateDeadline",
              "type": "uint256"
            },
            {
              "internalType": "bytes32",
              "name": "medicalHashAonB",
              "type": "bytes32"
            },
            {
              "internalType": "bytes32",
              "name": "medicalHashBonA",
              "type": "bytes32"
            },
            {
              "internalType": "enum SwapEscrow.MedicalOutcome",
              "name": "medicalAonB",
              "type": "uint8"
            },
            {
              "internalType": "enum SwapEscrow.MedicalOutcome",
              "name": "medicalBonA",
              "type": "uint8"
            },
            {
              "internalType": "bool",
              "name": "funded",
              "type": "bool"
            },
            {
              "internalType": "uint256",
              "name": "createdAt",
              "type": "uint256"
            },
            {
              "internalType": "uint256",
              "name": "fundedAt",
              "type": "uint256"
            },
            {
              "internalType": "uint256",
              "name": "disputeDeadline",
              "type": "uint256"
            },
            {
              "internalType": "address",
              "name": "cancelProposer",
              "type": "address"
            },
            {
              "internalType": "uint256",
              "name": "cancelDeadline",
              "type": "uint256"
            }
          ],
          "internalType": "struct SwapEscrow.Swap",
          "name": "",
          "type": "tuple"
        }
      ],
      "stateMutability": "view",
      "type": "function"
    },
    {
      "inputs": [
        {
          "internalType": "bytes32",
          "name": "role",
          "type": "bytes32"
        },
        {
          "internalType": "address",
          "name": "account",
          "type": "address"
        }
      ],
      "name": "grantRole",
      "outputs": [],
      "stateMutability": "nonpayable",
      "type": "function"
    },
    {
      "inputs": [
        {
          "internalType": "bytes32",
          "name": "role",
          "type": "bytes32"
        },
        {
          "internalType": "address",
          "name": "account",
          "type": "address"
        }
      ],
      "name": "hasRole",
      "outputs": [
        {
          "internalType": "bool",
          "name": "",
          "type": "bool"
        }
      ],
      "stateMutability": "view",
      "type": "function"
    },
    {
      "inputs": [
        {
          "internalType": "address",
          "name": "_playerRegistry",
          "type": "address"
        },
        {
          "internalType": "address",
          "name": "_addressRegistry",
          "type": "address"
        },
        {
          "internalType": "address",
          "name": "_transferEscrow",
          "type": "address"
        },
        {
          "internalType": "address",
          "name": "_treasury",
          "type": "address"
        },
        {
          "internalType": "address",
          "name": "_admin",
          "type": "address"
        }
      ],
      "name": "initialize",
      "outputs": [],
      "stateMutability": "nonpayable",
      "type": "function"
    },
    {
      "inputs": [
        {
          "internalType": "address",
          "name": "token",
          "type": "address"
        }
      ],
      "name": "isTokenApproved",
      "outputs": [
        {
          "internalType": "bool",
          "name": "",
          "type": "bool"
        }
      ],
      "stateMutability": "view",
      "type": "function"
    },
    {
      "inputs": [],
      "name": "medicalWindow",
      "outputs": [
        {
          "internalType": "uint256",
          "name": "",
          "type": "uint256"
        }
      ],
      "stateMutability": "view",
      "type": "function"
    },
    {
      "inputs": [],
      "name": "mutualCancelWindow",
      "outputs": [
        {
          "internalType": "uint256",
          "name": "",
          "type": "uint256"
        }
      ],
      "stateMutability": "view",
      "type": "function"
    },
    {
      "inputs": [],
      "name": "pause",
      "outputs": [],
      "stateMutability": "nonpayable",
      "type": "function"
    },
    {
      "inputs": [],
      "name": "paused",
      "outputs": [
        {
          "internalType": "bool",
          "name": "",
          "type": "bool"
        }
      ],
      "stateMutability": "view",
      "type": "function"
    },
    {
      "inputs": [],
      "name": "pendingTreasury",
      "outputs": [
        {
          "internalType": "address",
          "name": "",
          "type": "address"
        },
        {
          "internalType": "uint256",
          "name": "",
          "type": "uint256"
        }
      ],
      "stateMutability": "view",
      "type": "function"
    },
    {
      "inputs": [],
      "name": "playerRegistry",
      "outputs": [
        {
          "internalType": "contract IPlayerRegistry",
          "name": "",
          "type": "address"
        }
      ],
      "stateMutability": "view",
      "type": "function"
    },
    {
      "inputs": [
        {
          "internalType": "uint256",
          "name": "swapId",
          "type": "uint256"
        }
      ],
      "name": "processExpiry",
      "outputs": [],
      "stateMutability": "nonpayable",
      "type": "function"
    },
    {
      "inputs": [
        {
          "internalType": "uint256",
          "name": "swapId",
          "type": "uint256"
        }
      ],
      "name": "proposeMutualCancel",
      "outputs": [],
      "stateMutability": "nonpayable",
      "type": "function"
    },
    {
      "inputs": [
        {
          "internalType": "uint256",
          "name": "playerA",
          "type": "uint256"
        },
        {
          "internalType": "uint256",
          "name": "playerB",
          "type": "uint256"
        },
        {
          "internalType": "address",
          "name": "paymentToken",
          "type": "address"
        },
        {
          "internalType": "uint256",
          "name": "topUpAmount",
          "type": "uint256"
        },
        {
          "internalType": "uint256",
          "name": "clubAAgentBps",
          "type": "uint256"
        },
        {
          "internalType": "address",
          "name": "clubAAgent",
          "type": "address"
        },
        {
          "internalType": "uint256",
          "name": "clubBAgentBps",
          "type": "uint256"
        },
        {
          "internalType": "address",
          "name": "clubBAgent",
          "type": "address"
        }
      ],
      "name": "proposeSwap",
      "outputs": [
        {
          "internalType": "uint256",
          "name": "swapId",
          "type": "uint256"
        }
      ],
      "stateMutability": "nonpayable",
      "type": "function"
    },
    {
      "inputs": [],
      "name": "protocolFeeBps",
      "outputs": [
        {
          "internalType": "uint256",
          "name": "",
          "type": "uint256"
        }
      ],
      "stateMutability": "view",
      "type": "function"
    },
    {
      "inputs": [],
      "name": "proxiableUUID",
      "outputs": [
        {
          "internalType": "bytes32",
          "name": "",
          "type": "bytes32"
        }
      ],
      "stateMutability": "view",
      "type": "function"
    },
    {
      "inputs": [
        {
          "internalType": "uint256",
          "name": "swapId",
          "type": "uint256"
        }
      ],
      "name": "raiseDispute",
      "outputs": [],
      "stateMutability": "nonpayable",
      "type": "function"
    },
    {
      "inputs": [
        {
          "internalType": "uint256",
          "name": "swapId",
          "type": "uint256"
        }
      ],
      "name": "rejectSwap",
      "outputs": [],
      "stateMutability": "nonpayable",
      "type": "function"
    },
    {
      "inputs": [
        {
          "internalType": "bytes32",
          "name": "role",
          "type": "bytes32"
        },
        {
          "internalType": "address",
          "name": "callerConfirmation",
          "type": "address"
        }
      ],
      "name": "renounceRole",
      "outputs": [],
      "stateMutability": "nonpayable",
      "type": "function"
    },
    {
      "inputs": [
        {
          "internalType": "uint256",
          "name": "swapId",
          "type": "uint256"
        }
      ],
      "name": "resolveDispute",
      "outputs": [],
      "stateMutability": "nonpayable",
      "type": "function"
    },
    {
      "inputs": [
        {
          "internalType": "bytes32",
          "name": "role",
          "type": "bytes32"
        },
        {
          "internalType": "address",
          "name": "account",
          "type": "address"
        }
      ],
      "name": "revokeRole",
      "outputs": [],
      "stateMutability": "nonpayable",
      "type": "function"
    },
    {
      "inputs": [
        {
          "internalType": "address",
          "name": "token",
          "type": "address"
        }
      ],
      "name": "revokeToken",
      "outputs": [],
      "stateMutability": "nonpayable",
      "type": "function"
    },
    {
      "inputs": [
        {
          "internalType": "address",
          "name": "newTreasury",
          "type": "address"
        }
      ],
      "name": "scheduleProtocolTreasuryUpdate",
      "outputs": [],
      "stateMutability": "nonpayable",
      "type": "function"
    },
    {
      "inputs": [
        {
          "internalType": "address",
          "name": "newAddr",
          "type": "address"
        }
      ],
      "name": "scheduleTransferEscrowUpdate",
      "outputs": [],
      "stateMutability": "nonpayable",
      "type": "function"
    },
    {
      "inputs": [
        {
          "internalType": "uint256",
          "name": "bps",
          "type": "uint256"
        }
      ],
      "name": "setProtocolFee",
      "outputs": [],
      "stateMutability": "nonpayable",
      "type": "function"
    },
    {
      "inputs": [
        {
          "internalType": "uint8",
          "name": "which",
          "type": "uint8"
        },
        {
          "internalType": "uint256",
          "name": "d",
          "type": "uint256"
        }
      ],
      "name": "setTimer",
      "outputs": [],
      "stateMutability": "nonpayable",
      "type": "function"
    },
    {
      "inputs": [
        {
          "internalType": "uint256",
          "name": "swapId",
          "type": "uint256"
        },
        {
          "internalType": "enum SwapEscrow.MedicalOutcome",
          "name": "outcome",
          "type": "uint8"
        },
        {
          "internalType": "bytes32",
          "name": "hash",
          "type": "bytes32"
        }
      ],
      "name": "submitMedicalAonB",
      "outputs": [],
      "stateMutability": "nonpayable",
      "type": "function"
    },
    {
      "inputs": [
        {
          "internalType": "uint256",
          "name": "swapId",
          "type": "uint256"
        },
        {
          "internalType": "enum SwapEscrow.MedicalOutcome",
          "name": "outcome",
          "type": "uint8"
        },
        {
          "internalType": "bytes32",
          "name": "hash",
          "type": "bytes32"
        }
      ],
      "name": "submitMedicalBonA",
      "outputs": [],
      "stateMutability": "nonpayable",
      "type": "function"
    },
    {
      "inputs": [
        {
          "internalType": "bytes4",
          "name": "interfaceId",
          "type": "bytes4"
        }
      ],
      "name": "supportsInterface",
      "outputs": [
        {
          "internalType": "bool",
          "name": "",
          "type": "bool"
        }
      ],
      "stateMutability": "view",
      "type": "function"
    },
    {
      "inputs": [],
      "name": "totalSwaps",
      "outputs": [
        {
          "internalType": "uint256",
          "name": "",
          "type": "uint256"
        }
      ],
      "stateMutability": "view",
      "type": "function"
    },
    {
      "inputs": [],
      "name": "transferEscrow",
      "outputs": [
        {
          "internalType": "contract ITransferEscrow",
          "name": "",
          "type": "address"
        }
      ],
      "stateMutability": "view",
      "type": "function"
    },
    {
      "inputs": [],
      "name": "treasury",
      "outputs": [
        {
          "internalType": "address",
          "name": "",
          "type": "address"
        }
      ],
      "stateMutability": "view",
      "type": "function"
    },
    {
      "inputs": [],
      "name": "unpause",
      "outputs": [],
      "stateMutability": "nonpayable",
      "type": "function"
    },
    {
      "inputs": [
        {
          "internalType": "address",
          "name": "newImplementation",
          "type": "address"
        },
        {
          "internalType": "bytes",
          "name": "data",
          "type": "bytes"
        }
      ],
      "name": "upgradeToAndCall",
      "outputs": [],
      "stateMutability": "payable",
      "type": "function"
    },
    {
      "inputs": [
        {
          "internalType": "address",
          "name": "token",
          "type": "address"
        }
      ],
      "name": "withdrawClaimable",
      "outputs": [],
      "stateMutability": "nonpayable",
      "type": "function"
    },
    {
      "inputs": [
        {
          "internalType": "address",
          "name": "token",
          "type": "address"
        },
        {
          "internalType": "uint256",
          "name": "amount",
          "type": "uint256"
        }
      ],
      "name": "withdrawFees",
      "outputs": [],
      "stateMutability": "nonpayable",
      "type": "function"
    },
    {
      "inputs": [
        {
          "internalType": "uint256",
          "name": "swapId",
          "type": "uint256"
        }
      ],
      "name": "withdrawProposal",
      "outputs": [],
      "stateMutability": "nonpayable",
      "type": "function"
    }
  ],
  "bytecode": "0x60a080604052346100c257306080525f5160206142925f395f51905f525460ff8160401c166100b3576002600160401b03196001600160401b03821601610060575b6040516141cb90816100c78239608051818181611feb01526121010152f35b6001600160401b0319166001600160401b039081175f5160206142925f395f51905f525581527fc7f505b2f371ae2175ee4913f4499e1f2633a7b5936321eed1cdaeb6115181d290602090a15f80610041565b63f92ee8a960e01b5f5260045ffd5b5f80fdfe6080806040526004361015610012575f80fd5b5f3560e01c90816301c11d9614612f455750806301ffc9a714612eef578063062100d514612ed25780631159a6fb14612ea3578063117f5f9214612e865780631459457a14612c4c5780631510f85a14612b885780631bf33004146129bf578063243237231461291a578063248a9ca3146128f45780632ce05d03146128d85780632ed6b75d146128ac5780632f2ff15d1461287b57806335659fb81461285e57806336568abe1461281a578063389a93f8146127965780633c6d448b146127795780633f4ba83a146126fb5780633fb81428146126ab57806347d221591461260f5780634a0d89ba146122f45780634c74ef9c146122cc5780634d32dbe0146122af5780634f1ef2861461208a5780635117d74b1461205b57806352b65c4b1461203f57806352d1902d14611fd95780635c975abb14611fab57806360e49e4414611f8457806361d027b314611f5d5780636b42113114611f405780636d92f46714611cae57806375b238fc14611c87578063787dce3d14611c2257806378fc263e14611c055780637dca28c714611b8457806380b2edd814611b3a5780638456cb5914611ac95780638987877e14611a9f57806391d1485414611a4a578063933f4eef14611a09578063942cc61d146110bf5780639a6c4c0c14610f755780639d93d35214610f38578063a217fddf14610f1e578063a5c1674e14610e37578063ad3b1b4714610d20578063ad3cb1cc14610cdd578063b4a800ce14610cc0578063bad7259a14610af0578063c2b7b86814610a67578063d04bc3f2146109b7578063d3e5d3f314610715578063d547741f146106dd578063e1a45218146106c1578063e1f02ffa146105fe578063e9402cc5146105d6578063f3ad65f4146105ae578063f3ee48bb1461050a578063f438f0191461044b578063f81eb2f7146102f15763fc8045b1146102c6575f80fd5b346102ed575f3660031901126102ed5760206040515f5160206141765f395f51905f528152f35b5f80fd5b346102ed5760203660031901126102ed5760043561030d613579565b60026004541461043c576002600455805f52601060205260405f20600e8101541561042d5760118101546001600160a01b0316801561041e576012820154421161040f5733146104005760028101546001600160a01b031633141590816103e8575b506103d957806103d2917f579e90f7cabad8d77316c92a503862cb4783a203648db82f5b2d35fd73389d955f80a2604051906103ac60408361300a565b6014825273135d5d1d585b0818d85b98d95b081859dc99595960621b60208301526135a0565b6001600455005b636f20b45d60e11b5f5260045ffd5b600301546001600160a01b031633141590508261036f565b6306b045a160e01b5f5260045ffd5b631845bb1560e21b5f5260045ffd5b63d87db87b60e01b5f5260045ffd5b6305ec69df60e41b5f5260045ffd5b6306fda65d60e31b5f5260045ffd5b346102ed5760203660031901126102ed57600435610467613a34565b60026004541461043c576002600455805f52601060205260405f20600e8101541561042d576009015460a01c60ff16600b8110156104f657600981149081156104eb575b506103d9576103d290604051906104c360408361300a565b601682527513195859dd5948199bdc98d94818d85b98d95b1b195960521b60208301526135a0565b600a915014826104ab565b634e487b7160e01b5f52602160045260245ffd5b346102ed5760203660031901126102ed57610523612f8b565b61052b6139eb565b6001600160a01b0316801561059f57600280546001600160a01b03191682179055426202a300810190811061058b576020817f686003c563ac6d53a1e0d2aea06fc73beb941f8f05f3463b33b607717aabc67f92600355604051908152a2005b634e487b7160e01b5f52601160045260245ffd5b63e6c4247b60e01b5f5260045ffd5b346102ed575f3660031901126102ed576007546040516001600160a01b039091168152602090f35b346102ed575f3660031901126102ed576008546040516001600160a01b039091168152602090f35b346102ed5760203660031901126102ed5760043561061a613579565b60026004541461043c57600260045561063161398f565b805f52601060205260405f20600e8101541561042d5760ff600982015460a01c16600b8110156104f6576001036103d957600201546001600160a01b031633036106b2576103d2906040519061068860408361300a565b601882527710db1d588810481dda5d1a191c995dc81c1c9bdc1bdcd85b60421b60208301526135a0565b636d5b0b4960e11b5f5260045ffd5b346102ed575f3660031901126102ed5760206040516127108152f35b346102ed5760403660031901126102ed576107136004356106fc612fa1565b9061070e61070982613216565b613a7d565b613ac3565b005b346102ed5760203660031901126102ed57600435610731613579565b60026004541461043c576002600455805f52601060205260405f20600e8101541561042d576009810160ff815460a01c16600b8110156104f6576006036103d95760038201546001600160a01b031633036109a857600a820190815442116109995760075460405163023aa9ab60e61b81525f5160206140b65f395f51905f52600482015290602090829060249082906001600160a01b03165afa90811561094f575f9161095a575b50604051636896470560e11b815290602090829060049082906001600160a01b03165afa90811561094f575f91610915575b501561090657600d8301805462ff000019166201000017905542600f8401819055815460ff60a01b1916600760a01b17909155600c5461084b91613209565b9081601084015555600560018060a01b036004830154169101805491604051926323b872dd60e01b5f52336004523060245260445260205f60648180855af160015f51148116156108e7575b836040525f606052156108d557507f4dc08c0325495ca943d2c66cf54b65d7bb499737cbb0c6498ee6eae9224199cf91602091548152a26001600455005b635274afe760e01b5f5260045260245ffd5b60018115166108fd57813b15153d151616610897565b833d5f823e3d90fd5b6304d54fbf60e41b5f5260045ffd5b90506020813d602011610947575b816109306020938361300a565b810103126102ed57610941906131fc565b8561080c565b3d9150610923565b6040513d5f823e3d90fd5b90506020813d602011610991575b816109756020938361300a565b810103126102ed57602061098a6004926131e8565b91506107da565b3d9150610968565b633833dfbb60e01b5f5260045ffd5b63eff1156960e01b5f5260045ffd5b346102ed5760203660031901126102ed576004356109d3613579565b60026004541461043c5760026004556109ea61398f565b805f52601060205260405f20600e8101541561042d5760ff600982015460a01c16600b8110156104f6576001036103d957600301546001600160a01b031633036109a8576103d29060405190610a4160408361300a565b60148252730436c756220422072656a656374656420737761760641b60208301526135a0565b346102ed5760203660031901126102ed57600435610a83613a34565b60026004541461043c576002600455805f52601060205260405f20600e8101541561042d576009015460a01c60ff16600b8110156104f6576008036103d957806103d2917f57cce005d496355471bb5269f1dea3d6c81b6ac14c1d74ba28aefb022357013b5f80a2613b92565b346102ed5760203660031901126102ed5760043560026004541461043c576002600455805f52601060205260405f20600e8101541561042d57600a81015480156103d9574211156103d9576009015460a01c60ff16600b8110156104f65760018103610b9957506103d29060405190610b6a60408361300a565b601e82527f436c7562204220646964206e6f7420726573706f6e6420696e2074696d65000060208301526135a0565b5f600282148015610cb4575b15610bec575050610be79060405190610bbf60408361300a565b601682527510dbdb9cd95b9d081dda5b991bddc8195e1c1a5c995960521b60208301526135a0565b6103d2565b806104f657600482148015610ca8575b15610c3e575050610be79060405190610c1660408361300a565b60168252751359591a58d85b081dda5b991bddc8195e1c1a5c995960521b60208301526135a0565b6104f65760068103610c865750610be79060405190610c5e60408361300a565b6016825275119d5b991a5b99c81dda5b991bddc8195e1c1a5c995960521b60208301526135a0565b60078103610c985750610be790613b92565b6008036103d957610be790613b92565b50505f60058214610bfc565b50505f60038214610ba5565b346102ed575f3660031901126102ed576020600554604051908152f35b346102ed575f3660031901126102ed57610d1c604051610cfe60408261300a565b60058152640352e302e360dc1b602082015260405191829182613048565b0390f35b346102ed5760403660031901126102ed57610d39612f8b565b60243590610d456139eb565b60026004541461043c5760026004558115610e28575f546001600160a01b0316801561059f57805f52601360205260405f2060018060a01b0383165f5260205260405f2054808411610e125783610d9b9161356c565b5f9182526013602090815260408084206001600160a01b0395861680865292528320919091559054909291610dd3918391168461390e565b5f546040519182526001600160a01b0316907f8fc241308ffc17817e6a8c6a52a8f7cd4931dfca0c539fd35a630311c7e4c57b90602090a36001600455005b8363ac28c08360e01b5f5260045260245260445ffd5b630686827b60e51b5f5260045ffd5b346102ed5760203660031901126102ed57600435610e53613579565b805f52601060205260405f20600e8101541561042d576009810160ff815460a01c16600b8110156104f6576007036103d9576010820154421015610f0f5760028201546001600160a01b031633141580610ef8575b6103d957805460ff60a01b1916600160a31b179055600c54600a90610ecd9042613209565b91015533907f84a477df8a28a4276ca6dee4458a06c3015f30c477d9c949ede4e13ff8a552b45f80a3005b5060038201546001600160a01b0316331415610ea8565b63234c0ffd60e21b5f5260045ffd5b346102ed575f3660031901126102ed5760206040515f8152f35b346102ed5760203660031901126102ed576001600160a01b03610f59612f8b565b165f526014602052602060ff60405f2054166040519015158152f35b346102ed5760203660031901126102ed57600435610f91613579565b60026004541461043c576002600455805f52601060205260405f20600e8101541561042d5760ff600982015460a01c16600b81101590816104f657600981149182156110b2575b82156110a1575b8215611090575b50506103d95760028101546001600160a01b031633141580611079575b6103d9576011810180546001600160a01b031661106a5780546001600160a01b03191633179055600d5460129061103a9042613209565b91015533907f7457f5ceee8e52b1ef56c933d90340dfbda61ea10b7e9be55550e9435d91bc775f80a36001600455005b63ed8dd1bd60e01b5f5260045ffd5b5060038101546001600160a01b0316331415611003565b9091506104f6576008148380610fe6565b8092506104f6576007811491610fdf565b50600a811491505f610fd8565b346102ed576101003660031901126102ed576110d9612fb7565b6064359060a435906001600160a01b03821682036102ed5760e435906001600160a01b03821682036102ed5761110d613579565b60026004541461043c57600260045561112461398f565b60075460405163023aa9ab60e61b81525f5160206140b65f395f51905f52600482015290602090829060249082906001600160a01b03165afa90811561094f575f916119ca575b50604051636896470560e11b815290602090829060049082906001600160a01b03165afa90811561094f575f91611990575b5015610906576001600160a01b03165f8181526014602052604090205490939060ff1615611981576024356004351461196157676765c793fa10079d601a1b81116119615761012c6084351161196157608435151580611970575b61059f5761012c60c435116119615760c435151580611950575b61059f576004355f52601160205260405f2054611879576024355f52601160205260405f2054611879576008546040516328ad606b60e11b815260048035908201526001600160a01b0390911690602081602481855afa90811561094f575f9161191e575b506118795760405163bfadc8f960e01b81526004803590820152602081602481855afa90811561094f575f916118ec575b50611879576040516328ad606b60e11b81526024356004820152602081602481855afa90811561094f575f916118ba575b506118795760206024916040519283809263bfadc8f960e01b8252823560048301525afa90811561094f575f91611888575b50611879576006546040516369d146b560e11b81526024803560048301529093916001600160a01b031690602090859081845afa93841561094f575f9461183d575b50336001600160a01b0385161461182e576040516369d146b560e11b81526004803590820152602081602481855afa90811561094f575f916117f4575b50336001600160a01b03909116036106b257604051631cab5c9d60e31b81526004803590820152905f82602481845afa90811561094f576024925f926117d6575b505f9060405193848092631cab5c9d60e31b8252823560048301525afa91821561094f575f926117b2575b506101808101511580156117a5575b6103d957610180820151158015611798575b6103d95761012001516001600160a01b0316156117895761012001516001600160a01b03161561178957600554935f19851461058b576001850160055561146060095442613209565b926040519661146e88612fda565b6004358852602435602089015233604089015260018060a01b0386166060890152608088015260a087015260843560c087015260018060a01b031660e086015260c43561010086015260018060a01b031661012085015260016101408501526101608401525f6101808401525f6101a08401525f6101c08401525f6101e08401525f610200840152426102208401525f6102408401525f6102608401525f6102808401525f6102a0840152600182015f52601060205260405f20835181556020840151600182015560018060a01b03604085015116600282019060018060a01b031660018060a01b031982541617905560018060a01b03606085015116600382019060018060a01b031660018060a01b031982541617905560018060a01b03608085015116600482019060018060a01b031660018060a01b031982541617905560a0840151600582015560c0840151600682015560018060a01b0360e085015116600782019060018060a01b031660018060a01b031982541617905561010084015160088201556009810160018060a01b0360018060a01b03610120870151161660018060a01b0319825416178155610140850151600b8110156104f657815460ff60a01b191660a09190911b60ff60a01b16179055610160840151600a820155610180840151600b8201556101a0840151600c8201556101c0840151600d82019060048110156104f6576116839082613240565b6101e085015160048110156104f657602095826116a56102a093601295613072565b610200820151151562ff000082549160101b169062ff00001916179055610220810151600e850155610240810151600f850155610260810151601085015560018060a01b0361028082015116601185019060018060a01b031660018060a01b031982541617905501519101556004355f52601183526001820160405f20556024355f52601183526001820160405f20556040519060043582526024358483015260018060a01b03169033907fb7be8976e342525d7f927f1a8cdff2f317fcd62f6061076bdc01047bf9d5d0b460406001860192a46001600455600160405191018152f35b6382bcaa3b60e01b5f5260045ffd5b506101c082015115611417565b506101c081015115611405565b6117cf9192503d805f833e6117c7818361300a565b8101906133d7565b90876113f6565b5f9192506117ed903d8084833e6117c7818361300a565b91906113cb565b90506020813d602011611826575b8161180f6020938361300a565b810103126102ed57611820906131e8565b8761138a565b3d9150611802565b6339e89ad360e11b5f5260045ffd5b9093506020813d602011611871575b816118596020938361300a565b810103126102ed5761186a906131e8565b928661134d565b3d915061184c565b631d222f3360e21b5f5260045ffd5b90506020813d6020116118b2575b816118a36020938361300a565b810103126102ed57518561130b565b3d9150611896565b90506020813d6020116118e4575b816118d56020938361300a565b810103126102ed5751866112d9565b3d91506118c8565b90506020813d602011611916575b816119076020938361300a565b810103126102ed5751866112a8565b3d91506118fa565b90506020813d602011611948575b816119396020938361300a565b810103126102ed575186611277565b3d915061192c565b506001600160a01b03821615611212565b63162908e360e11b5f5260045ffd5b506001600160a01b038316156111f8565b6332da96a360e01b5f5260045ffd5b90506020813d6020116119c2575b816119ab6020938361300a565b810103126102ed576119bc906131fc565b8561119d565b3d915061199e565b90506020813d602011611a01575b816119e56020938361300a565b810103126102ed5760206119fa6004926131e8565b915061116b565b3d91506119d8565b346102ed5760203660031901126102ed57611a22612f8b565b611a2a6139eb565b6001600160a01b03165f908152601460205260409020805460ff19169055005b346102ed5760403660031901126102ed57611a63612fa1565b6004355f525f5160206140f65f395f51905f5260205260405f209060018060a01b03165f52602052602060ff60405f2054166040519015158152f35b346102ed5760203660031901126102ed576004355f526011602052602060405f2054604051908152f35b346102ed575f3660031901126102ed57611ae16139eb565b611ae9613579565b600160ff195f5160206141165f395f51905f525416175f5160206141165f395f51905f52557f62e78cea01bee320cd4e420270b5ea74000d11b0c9f74754ebdbfc544b05a2586020604051338152a1005b346102ed5760203660031901126102ed57611b53612f8b565b611b5b6139eb565b6001600160a01b0316801561059f575f908152601460205260409020805460ff19166001179055005b346102ed5760203660031901126102ed57611b9d612f8b565b611ba56139eb565b6001600160a01b0316801561059f57600e80546001600160a01b03191682179055426202a300810190811061058b576020817fad3245b05b0de83d4cc3cec36c0a8d0c2f4bf37722009cef0a6008594b0d775192600f55604051908152a2005b346102ed575f3660031901126102ed576020600954604051908152f35b346102ed5760203660031901126102ed57600435611c3e6139eb565b6107d08111611c78576020817fd10d75876659a287a59a6ccfa2e3fff42f84d94b542837acd30bc184d562de4092600155604051908152a1005b63499fddb160e01b5f5260045ffd5b346102ed575f3660031901126102ed5760206040515f5160206141365f395f51905f528152f35b346102ed5760203660031901126102ed57600435611cca613579565b60026004541461043c576002600455805f52601060205260405f2090600e8201541561042d57600982019060ff825460a01c16600b8110156104f65760028114159081611f34575b506103d957600a83019283544211611f25576006548154604051631cab5c9d60e31b81526004810182905292916001600160a01b03165f84602481845afa93841561094f575f94611f09575b50602460018401945f86549360405193848092631cab5c9d60e31b82528760048301525afa91821561094f575f92611eed575b5061012001516001600160a01b0316801515919082611ee3575b5061012001516001600160a01b03168015159081611ed9575b5081159081611ed0575b50611ec15715611eba57505b835f52601260205260405f20815f5260205260ff60405f2054166103d957835f52601260205260405f20815f5260205260405f20600160ff19825416179055837f173620804848de4def17bad4f232db2cda858a822ae975c722b97cf0fe2c1bfa5f80a35f9283526012602090815260408085209254855291905280832054915483529091205460ff918216911681611eb2575b5015611e9b57805460ff60a01b1916600160a21b179055600a54611e929042613209565b90556001600455005b805460ff60a01b1916600360a01b179055506103d2565b905083611e6e565b9050611dda565b631d3c442d60e21b5f5260045ffd5b90501589611dce565b9050331489611dc4565b3314915089611dab565b611f029192503d805f833e6117c7818361300a565b9089611d91565b611f1e9194503d805f833e6117c7818361300a565b9287611d5e565b63839ec5c560e01b5f5260045ffd5b60039150141584611d12565b346102ed575f3660031901126102ed576020600d54604051908152f35b346102ed575f3660031901126102ed575f546040516001600160a01b039091168152602090f35b346102ed575f3660031901126102ed5760206040515f5160206140d65f395f51905f528152f35b346102ed575f3660031901126102ed57602060ff5f5160206141165f395f51905f5254166040519015158152f35b346102ed575f3660031901126102ed577f00000000000000000000000000000000000000000000000000000000000000006001600160a01b031630036120305760206040515f5160206140965f395f51905f528152f35b63703e46dd60e11b5f5260045ffd5b346102ed575f3660031901126102ed576020604051610e108152f35b346102ed5761206936612f68565b90612072613579565b60026004541461043c576103d2926002600455613258565b60403660031901126102ed5761209e612f8b565b602435906001600160401b0382116102ed57366023830112156102ed5781600401356120c98161302d565b926120d7604051948561300a565b81845236602483830101116102ed57815f9260246020930183870137840101526001600160a01b037f00000000000000000000000000000000000000000000000000000000000000001630811490811561228d575b5061203057335f9081525f5160206140765f395f51905f52602052604090205460ff1615612276576040516352d1902d60e01b81526001600160a01b0382169290602081600481875afa5f9181612242575b506121965783634c9c8ce360e01b5f5260045260245ffd5b805f5160206140965f395f51905f528592036122305750823b1561221e575f5160206140965f395f51905f5280546001600160a01b031916821790557fbc7cd75a20ee27fd9adebab32041f755214dbc6bffa90cc0225b39da2e5c2d3b5f80a28051156122065761071391613f69565b50503461220f57005b63b398979f60e01b5f5260045ffd5b634c9c8ce360e01b5f5260045260245ffd5b632a87526960e21b5f5260045260245ffd5b9091506020813d60201161226e575b8161225e6020938361300a565b810103126102ed5751908561217e565b3d9150612251565b63e2517d3f60e01b5f52336004525f60245260445ffd5b5f5160206140965f395f51905f52546001600160a01b0316141590508361212c565b346102ed575f3660031901126102ed5760206040516202a3008152f35b346102ed575f3660031901126102ed576006546040516001600160a01b039091168152602090f35b346102ed5760203660031901126102ed575f6102a060405161231581612fda565b8281528260208201528260408201528260608201528260808201528260a08201528260c08201528260e08201528261010082015282610120820152826101408201528261016082015282610180820152826101a0820152826101c0820152826101e0820152826102008201528261022082015282610240820152826102608201528261028082015201526004355f52601060205260405f20604051906123ba82612fda565b805482526001810154602083015260028101546001600160a01b039081166040840152600382015481166060840152600482015481166080840152600582015460a080850191909152600683015460c08501526007830154821660e0850152600883015461010085015260098301549182166101208501521c60ff1690600b8210156104f657601291610140840152600a810154610160840152600b810154610180840152600c8101546101a084015260ff600d8201546124818282166101c08701613234565b612494828260081c166101e08701613234565b601090811c919091161515610200850152600e820154610220850152600f82015461024085015281015461026084015260118101546001600160a01b039081166102808501529101546102a08301526040805183518152602080850151908201528184015183169181019190915260608084015183169082015260808084015183169082015260a0808401519082015260c0808401519082015260e08084015183169082015261010080840151908201526101208084015190921691810191909152610140820151600b8110156104f6576102c0926102a0916101408401526101608101516101608401526101808101516101808401526101a08101516101a08401526125ab6101c08201516101c0850190612fcd565b6125bf6101e08201516101e0850190612fcd565b610200810151151561020084015261022081015161022084015261024081015161024084015261026081015161026084015260018060a01b036102808201511661028084015201516102a0820152f35b346102ed575f3660031901126102ed576126276139eb565b600354801561269c57421061268d575f8054600280546001600160a01b038082166001600160a01b0319808616821787559092169092556003849055929116907f0c5d18caa145415182f8ad3d2563da586609cec04ac8505274d87bc43f00b4a49080a3005b6357f4ad8b60e01b5f5260045ffd5b6315090c2d60e01b5f5260045ffd5b346102ed5760403660031901126102ed576126c4612f8b565b6126cc612fa1565b6001600160a01b039182165f908152601360209081526040808320949093168252928352819020549051908152f35b346102ed575f3660031901126102ed576127136139eb565b5f5160206141165f395f51905f525460ff81161561276a5760ff19165f5160206141165f395f51905f52557f5db9ee0a495bf2e6ff9c91a7834c1ba4fdd244a5e8aa4e537bd38aeae4b073aa6020604051338152a1005b638dfc202b60e01b5f5260045ffd5b346102ed575f3660031901126102ed576020600b54604051908152f35b346102ed5760403660031901126102ed5760043560ff81168091036102ed57602435906127c16139eb565b610e10821061280b57806127d55750600955005b600181036127e35750600a55005b600281036127f15750600b55005b600381036127ff5750600c55005b60040361196157600d55005b63296d383360e01b5f5260045ffd5b346102ed5760403660031901126102ed57612833612fa1565b336001600160a01b0382160361284f5761071390600435613ac3565b63334bd91960e11b5f5260045ffd5b346102ed575f3660031901126102ed576020600154604051908152f35b346102ed5760403660031901126102ed5761071360043561289a612fa1565b906128a761070982613216565b61387d565b346102ed575f3660031901126102ed57604060018060a01b036002541660035482519182526020820152f35b346102ed575f3660031901126102ed57602060405161012c8152f35b346102ed5760203660031901126102ed576020612912600435613216565b604051908152f35b346102ed575f3660031901126102ed576129326139eb565b600e546001600160a01b0381169081156129b057600f5442106129a157600880546001600160a01b031980821685179092559116600e555f600f8190556001600160a01b03909116907fabbb040c45b85fddf2813a70d3f4f853a15a54c1f75ad1c5eca2c42afd4e311d9080a3005b63dc5ab3ef60e01b5f5260045ffd5b631cc856a960e11b5f5260045ffd5b346102ed5760203660031901126102ed576004356129db613579565b60026004541461043c5760026004556129f261398f565b805f52601060205260405f20600e8101541561042d57600981019060ff825460a01c16600b8110156104f6576001036103d95760038101546001600160a01b031633036109a857600a019081544211611f255760075460405163023aa9ab60e61b81525f5160206140b65f395f51905f52600482015290602090829060249082906001600160a01b03165afa90811561094f575f91612b49575b50604051636896470560e11b815290602090829060049082906001600160a01b03165afa90811561094f575f91612b0f575b501561090657805460ff60a01b1916600160a11b179055600954612ae29042613209565b90557f7080e652b0056fb27597071d591828292afd96fd17bc428ff26dfcca4acc52305f80a26001600455005b90506020813d602011612b41575b81612b2a6020938361300a565b810103126102ed57612b3b906131fc565b84612abe565b3d9150612b1d565b90506020813d602011612b80575b81612b646020938361300a565b810103126102ed576020612b796004926131e8565b9150612a8c565b3d9150612b57565b346102ed5760203660031901126102ed57612ba1612f8b565b60026004541461043c576002600455335f52601360205260405f2060018060a01b0382165f5260205260405f2054908115612c3d57335f52601360205260405f2060018060a01b0382165f526020525f604081205560018060a01b031690612c0a81338461390e565b6040519081527f716942921e9b67ee05c4c2ffcf216f189086c9053b444c8928a49db4bdb1ae8e60203392a36001600455005b6312d37ee560e31b5f5260045ffd5b346102ed5760a03660031901126102ed57612c65612f8b565b612c6d612fa1565b612c75612fb7565b6064356001600160a01b038116908190036102ed57608435916001600160a01b038316908184036102ed575f5160206141565f395f51905f5254604081901c60ff161596906001600160401b03811680159081612e7e575b6001149081612e74575b159081612e6b575b50612e5c576001600160401b031981166001175f5160206141565f395f51905f525587612e34575b506001600160a01b031694851561059f576001600160a01b031690811561059f576001600160a01b031691821561059f57831561059f571561059f57612ddb94612d4f613f3e565b612d57613f3e565b600160045560018060a01b0319600654161760065560018060a01b0319600754161760075560018060a01b0319600854161760085560018060a01b03195f5416175f556203f4806009556203f480600a556202a300600b556203f480600c556202a300600d556032600155612dcb81613707565b50612dd58161377d565b506137fd565b50612de257005b60ff60401b195f5160206141565f395f51905f5254165f5160206141565f395f51905f52557fc7f505b2f371ae2175ee4913f4499e1f2633a7b5936321eed1cdaeb6115181d2602060405160018152a1005b6001600160481b0319166001600160401b01175f5160206141565f395f51905f525587612d07565b63f92ee8a960e01b5f5260045ffd5b90501589612cdf565b303b159150612cd7565b899150612ccd565b346102ed575f3660031901126102ed576020600c54604051908152f35b346102ed57612eb136612f68565b90612eba613579565b60026004541461043c576103d2926002600455613091565b346102ed575f3660031901126102ed576020600a54604051908152f35b346102ed5760203660031901126102ed5760043563ffffffff60e01b81168091036102ed57602090637965db0b60e01b8114908115612f34575b506040519015158152f35b6301ffc9a760e01b14905082612f29565b346102ed575f3660031901126102ed57676765c793fa10079d601a1b8152602090f35b60609060031901126102ed576004359060243560048110156102ed579060443590565b600435906001600160a01b03821682036102ed57565b602435906001600160a01b03821682036102ed57565b604435906001600160a01b03821682036102ed57565b9060048210156104f65752565b6102c081019081106001600160401b03821117612ff657604052565b634e487b7160e01b5f52604160045260245ffd5b601f909101601f19168101906001600160401b03821190821017612ff657604052565b6001600160401b038111612ff657601f01601f191660200190565b602060409281835280519182918282860152018484015e5f828201840152601f01601f1916010190565b9060048110156104f65761ff0082549160081b169061ff001916179055565b9091815f52601060205260405f2092600e8401541561042d57600984019360ff855460a01c16600b8110156104f657600481141590816131dc575b506103d95760038101546001600160a01b031633036109a857600a81015442116131cd57600c81019283546131be57801561059f5760048310156104f6578215611961576002935561312182600d8301613072565b54835f5160206140565f395f51905f5260206040516131408187612fcd565ba31461317e5760ff825460a01c16600b8110156104f65760050361316a5761316891506136b9565b565b50805460ff60a01b1916600560a01b179055565b61316891506040519061319260408361300a565b601a8252794d65646963616c206661696c6564206f6e20506c61796572204160301b60208301526135a0565b63c0f9cf3b60e01b5f5260045ffd5b63c052877160e01b5f5260045ffd5b6005915014155f6130cc565b51906001600160a01b03821682036102ed57565b519081151582036102ed57565b9190820180921161058b57565b5f525f5160206140f65f395f51905f52602052600160405f20015490565b60048210156104f65752565b9060048110156104f65760ff80198354169116179055565b9091815f52601060205260405f2092600e8401541561042d57600984019360ff855460a01c16600b8110156104f65760048114159081613373575b506103d95760028101546001600160a01b031633036106b257600a81015442116131cd57600b81019081546131be57831561059f5760048310156104f657821561196157600293600192556132eb83600d8301613240565b0154835f5160206140565f395f51905f52602060405161330b8187612fcd565ba3146133335760ff825460a01c16600b8110156104f65760050361316a5761316891506136b9565b61316891506040519061334760408361300a565b601a82527926b2b234b1b0b6103330b4b632b21037b710283630bcb2b9102160311b60208301526135a0565b6005915014155f613293565b81601f820112156102ed578051906133968261302d565b926133a4604051948561300a565b828452602083830101116102ed57815f9260208093018386015e8301015290565b519064ffffffffff821682036102ed57565b6020818303126102ed578051906001600160401b0382116102ed5701610220818303126102ed576040519161022083016001600160401b03811184821017612ff6576040528151835260208201516001600160401b0381116102ed578161343f91840161337f565b602084015260408201516001600160401b0381116102ed578161346391840161337f565b604084015260608201516001600160401b0381116102ed578161348791840161337f565b60608401526080820151608084015260a082015160a084015260c082015160c084015260e082015160e08401526101008201516101008401526134cd61012083016131e8565b6101208401526134e061014083016133c5565b6101408401526134f361016083016133c5565b61016084015261350661018083016131fc565b6101808401526135196101a083016131fc565b6101a084015261352c6101c083016131fc565b6101c084015261353f6101e083016131fc565b6101e08401526102008201516001600160401b0381116102ed57613563920161337f565b61020082015290565b9190820391821161058b57565b60ff5f5160206141165f395f51905f52541661359157565b63d93c066560e01b5f5260045ffd5b5f81815260106020818152604080842060098101805460ff60a01b1916600560a11b179055805485526011835281852085905560018101805486528286208690558686526012845282862082548752808552838720805460ff1990811690915591548752909352932080549091169055600d82015492937f646da14d81571ab969d264eaf28be5b6cb2cb25db1306f921b9a0a35835b4eed9361365b9391921c60ff16806136ac575b613660575b5060405191829182613048565b0390a2565b600581015460038201546001600160a01b039081165f908152601360209081526040808320600490960154909316825293909352909120805490916136a491613209565b90555f61364e565b5060058101541515613649565b805f52601060205260405f20906005820154155f146136dc576131689150613b92565b5060098101805460ff60a01b1916600360a11b179055600b54600a906137029042613209565b910155565b6001600160a01b0381165f9081525f5160206140765f395f51905f52602052604090205460ff16613778576001600160a01b03165f8181525f5160206140765f395f51905f5260205260408120805460ff191660011790553391905f516020613ff65f395f51905f528180a4600190565b505f90565b6001600160a01b0381165f9081525f5160206140365f395f51905f52602052604090205460ff16613778576001600160a01b03165f8181525f5160206140365f395f51905f5260205260408120805460ff191660011790553391905f5160206141365f395f51905f52905f516020613ff65f395f51905f529080a4600190565b6001600160a01b0381165f9081525f5160206140165f395f51905f52602052604090205460ff16613778576001600160a01b03165f8181525f5160206140165f395f51905f5260205260408120805460ff191660011790553391905f5160206140d65f395f51905f52905f516020613ff65f395f51905f529080a4600190565b5f8181525f5160206140f65f395f51905f52602090815260408083206001600160a01b038616845290915290205460ff16613908575f8181525f5160206140f65f395f51905f52602090815260408083206001600160a01b0395909516808452949091528120805460ff19166001179055339291905f516020613ff65f395f51905f529080a4600190565b50505f90565b916040519163a9059cbb60e01b5f5260018060a01b031660045260245260205f60448180865af19060015f511482161561396e575b6040521561394e5750565b635274afe760e01b5f9081526001600160a01b0391909116600452602490fd5b90600181151661398657823b15153d15161690613943565b503d5f823e3d90fd5b335f9081527f47c3465a0c211ece60dd73efc90110f8b7e204feda752e1c50487740ddbcd24f602052604090205460ff16156139c757565b63e2517d3f60e01b5f52336004525f5160206141765f395f51905f5260245260445ffd5b335f9081525f5160206140365f395f51905f52602052604090205460ff1615613a1057565b63e2517d3f60e01b5f52336004525f5160206141365f395f51905f5260245260445ffd5b335f9081525f5160206140165f395f51905f52602052604090205460ff1615613a5957565b63e2517d3f60e01b5f52336004525f5160206140d65f395f51905f5260245260445ffd5b5f8181525f5160206140f65f395f51905f526020908152604080832033845290915290205460ff1615613aad5750565b63e2517d3f60e01b5f523360045260245260445ffd5b5f8181525f5160206140f65f395f51905f52602090815260408083206001600160a01b038616845290915290205460ff1615613908575f8181525f5160206140f65f395f51905f52602090815260408083206001600160a01b0395909516808452949091528120805460ff19169055339291907ff6391f5c32d9c69d2a47ea670b442974b53935d1edc7fd64eb21e047a839171b9080a4600190565b8181029291811591840414171561058b57565b9081526001600160a01b0391821660208201529116604082015260600190565b5f81815260106020908152604080832060098101805460ff60a01b1916600960a01b178155815485526011845282852085905560018201805486528386208690558686526012855283862083548752808652848720805460ff1990811690915582548852955292852080549094169093556005810180549193919081613d33575b505060065483546002850180546003909601805490969194506001600160a01b03918216939082169116803b156102ed57613c68935f8094604051968795869485936332f65ba360e01b855260048501613b72565b03925af1801561094f57613d1e575b506006549154925490546001600160a01b039081169392811692911690823b15613d1a5791613cc19391858094604051968795869485936332f65ba360e01b855260048501613b72565b03925af18015613d0f57613cf7575b50807f02f857175b5562dc8e8fe1cc6d39215bf823a07a685f52fba82f1e637d41851391a2565b613d0282809261300a565b613d0c575f613cd0565b80fd5b6040513d84823e3d90fd5b8480fd5b613d2b9194505f9061300a565b5f925f613c77565b6001549160068601613d46815485613209565b91612710613d5a60088a0194855490613209565b11613f2f57809480151580613f1c575b613ebd575b50505480151580613ea7575b613e48575b50549081151580613e35575b613dda575b505060028401546001600160a01b039081165f90815260136020908152604080832060048901549094168352929052208054909250613dd09190613209565b90555f8080613c13565b613deb613df3926127109254613b5f565b04809261356c565b91546001600160a01b039081165f908152601360209081526040808320600489015490941683529290522080549091613e2b91613209565b9055805f80613d91565b5083546001600160a01b03161515613d8c565b612710613e59613e61928554613b5f565b04809461356c565b60078701546001600160a01b039081165f90815260136020908152604080832060048c0154909416835292905220805491949091613e9f9190613209565b90555f613d80565b5060078701546001600160a01b03161515613d7b565b819550613ed061271091613ed893613b5f565b04809561356c565b5f80546001600160a01b03908116825260136020908152604080842060048d015490931684529190529020805491959091613f139190613209565b90555f80613d6f565b505f546001600160a01b03161515613d6a565b6358f0a9c760e01b5f5260045ffd5b60ff5f5160206141565f395f51905f525460401c1615613f5a57565b631afcd79f60e31b5f5260045ffd5b905f8091602081519101845af48080613fe2575b15613f9d5750506040513d81523d5f602083013e60203d82010160405290565b15613fc257639996b31560e01b5f9081526001600160a01b0391909116600452602490fd5b3d15613fd3576040513d5f823e3d90fd5b63d6bda27560e01b5f5260045ffd5b503d151580613f7d5750813b1515613f7d56fe2f8788117e7eff1d82e926ec794901d17c78024a50270940304540a733656f0d7a1492cadb22452d254c71a9ef0c781c9f2d1c472dc5213a713c8769ea04d819b16e88c42fd4e48df2dd6a2eabd6bc9aec654ec170056b470819f8892cc6431cb79a81e8ece8f0ebd2e41bb3daf1c77bad2ac5f452f02fc8065048ec720c2b5ab7db2dd08fcb62d0c9e08c51941cae53c267786a0b75803fb7960902fc8ef97d360894a13ba1a3210667c828492db98dca3e2076cc3735a920a3ca505d382bbcd8e6c8b39dbc70333b42d059fa436cf2679722325c0f6ed7e701df0b05a637c8e4369475d33ca6555b45ac3cf081bee16c4b11779d89f812395c569b2de40f0102dd7bc7dec4dceedda775e58dd541e08a116c6c53815c0bd028192f7b626800cd5ed15c6e187e77e9aee88184c21f4f2182ab5827cb3b7e07fbedcd63f03300a49807205ce4d355092ef5a8a18f56e8913cf4a201fbe287825b095693c21775f0c57e16840df040f15088dc2f81fe391c3923bec73e23a9662efc9c229c6a00ba2dc669204b26427a432593e1c6ac86ab4ccc54d29c4287abbd1cefc1cb002ba26469706673582212208c208584995ff831186e863906e1e22ac9e42b0eac64ee25d99817a931eb6f6664736f6c634300081c0033f0c57e16840df040f15088dc2f81fe391c3923bec73e23a9662efc9c229c6a00",
  "linkReferences": {},
  "deployedLinkReferences": {},
  "immutableReferences": {
    "3035": [
      {
        "length": 32,
        "start": 8171
      },
      {
        "length": 32,
        "start": 8449
      }
    ]
  },
  "inputSourceName": "project/contracts/core/SwapEscrow.sol",
  "buildInfoId": "solc-0_8_28-e6e634edc385ce91d02ff410210fe20e8fd80dbf"
}