{
  "_format": "hh3-artifact-1",
  "contractName": "TerminationManager",
  "sourceName": "contracts/core/TerminationManager.sol",
  "abi": [
    {
      "inputs": [
        {
          "internalType": "address",
          "name": "playerRegistry_",
          "type": "address"
        }
      ],
      "stateMutability": "nonpayable",
      "type": "constructor"
    },
    {
      "inputs": [
        {
          "internalType": "uint256",
          "name": "playerId",
          "type": "uint256"
        },
        {
          "internalType": "address",
          "name": "caller",
          "type": "address"
        }
      ],
      "name": "CallerCannotDispute",
      "type": "error"
    },
    {
      "inputs": [
        {
          "internalType": "uint256",
          "name": "playerId",
          "type": "uint256"
        },
        {
          "internalType": "uint256",
          "name": "adjustedDeadline",
          "type": "uint256"
        },
        {
          "internalType": "uint256",
          "name": "now_",
          "type": "uint256"
        }
      ],
      "name": "DisputeWindowClosed",
      "type": "error"
    },
    {
      "inputs": [
        {
          "internalType": "uint256",
          "name": "playerId",
          "type": "uint256"
        },
        {
          "internalType": "uint256",
          "name": "adjustedDeadline",
          "type": "uint256"
        },
        {
          "internalType": "uint256",
          "name": "now_",
          "type": "uint256"
        }
      ],
      "name": "DisputeWindowOpen",
      "type": "error"
    },
    {
      "inputs": [
        {
          "internalType": "uint256",
          "name": "playerId",
          "type": "uint256"
        }
      ],
      "name": "NoProposal",
      "type": "error"
    },
    {
      "inputs": [
        {
          "internalType": "uint256",
          "name": "playerId",
          "type": "uint256"
        }
      ],
      "name": "NotDisputedProposal",
      "type": "error"
    },
    {
      "inputs": [
        {
          "internalType": "address",
          "name": "caller",
          "type": "address"
        }
      ],
      "name": "NotLeagueRole",
      "type": "error"
    },
    {
      "inputs": [
        {
          "internalType": "uint256",
          "name": "playerId",
          "type": "uint256"
        }
      ],
      "name": "NotMutualProposal",
      "type": "error"
    },
    {
      "inputs": [
        {
          "internalType": "uint256",
          "name": "playerId",
          "type": "uint256"
        },
        {
          "internalType": "address",
          "name": "caller",
          "type": "address"
        },
        {
          "internalType": "address",
          "name": "club",
          "type": "address"
        }
      ],
      "name": "NotPlayerClub",
      "type": "error"
    },
    {
      "inputs": [
        {
          "internalType": "address",
          "name": "caller",
          "type": "address"
        }
      ],
      "name": "NotPlayerRegistry",
      "type": "error"
    },
    {
      "inputs": [
        {
          "internalType": "uint256",
          "name": "playerId",
          "type": "uint256"
        },
        {
          "internalType": "address",
          "name": "caller",
          "type": "address"
        },
        {
          "internalType": "address",
          "name": "wallet",
          "type": "address"
        }
      ],
      "name": "NotPlayerWallet",
      "type": "error"
    },
    {
      "inputs": [
        {
          "internalType": "uint256",
          "name": "playerId",
          "type": "uint256"
        }
      ],
      "name": "NotUnilateralProposal",
      "type": "error"
    },
    {
      "inputs": [
        {
          "internalType": "uint256",
          "name": "playerId",
          "type": "uint256"
        }
      ],
      "name": "PlayerIsListed",
      "type": "error"
    },
    {
      "inputs": [
        {
          "internalType": "uint256",
          "name": "playerId",
          "type": "uint256"
        }
      ],
      "name": "PlayerWalletNotSet",
      "type": "error"
    },
    {
      "inputs": [
        {
          "internalType": "uint256",
          "name": "playerId",
          "type": "uint256"
        }
      ],
      "name": "ProposalAlreadyExists",
      "type": "error"
    },
    {
      "inputs": [],
      "name": "ReentrancyGuardReentrantCall",
      "type": "error"
    },
    {
      "inputs": [],
      "name": "RegistryPaused",
      "type": "error"
    },
    {
      "inputs": [],
      "name": "ZeroAddress",
      "type": "error"
    },
    {
      "anonymous": false,
      "inputs": [
        {
          "indexed": true,
          "internalType": "uint256",
          "name": "playerId",
          "type": "uint256"
        },
        {
          "indexed": true,
          "internalType": "address",
          "name": "playerWallet",
          "type": "address"
        }
      ],
      "name": "MutualTerminationConfirmed",
      "type": "event"
    },
    {
      "anonymous": false,
      "inputs": [
        {
          "indexed": true,
          "internalType": "uint256",
          "name": "playerId",
          "type": "uint256"
        },
        {
          "indexed": true,
          "internalType": "address",
          "name": "club",
          "type": "address"
        }
      ],
      "name": "MutualTerminationProposed",
      "type": "event"
    },
    {
      "anonymous": false,
      "inputs": [
        {
          "indexed": true,
          "internalType": "uint256",
          "name": "playerId",
          "type": "uint256"
        },
        {
          "indexed": true,
          "internalType": "address",
          "name": "club",
          "type": "address"
        }
      ],
      "name": "MutualTerminationWithdrawn",
      "type": "event"
    },
    {
      "anonymous": false,
      "inputs": [
        {
          "indexed": true,
          "internalType": "uint256",
          "name": "playerId",
          "type": "uint256"
        }
      ],
      "name": "TerminationCleared",
      "type": "event"
    },
    {
      "anonymous": false,
      "inputs": [
        {
          "indexed": true,
          "internalType": "uint256",
          "name": "playerId",
          "type": "uint256"
        },
        {
          "indexed": true,
          "internalType": "address",
          "name": "disputer",
          "type": "address"
        }
      ],
      "name": "TerminationDisputed",
      "type": "event"
    },
    {
      "anonymous": false,
      "inputs": [
        {
          "indexed": true,
          "internalType": "uint256",
          "name": "playerId",
          "type": "uint256"
        },
        {
          "indexed": true,
          "internalType": "address",
          "name": "executor",
          "type": "address"
        }
      ],
      "name": "TerminationExecuted",
      "type": "event"
    },
    {
      "anonymous": false,
      "inputs": [
        {
          "indexed": true,
          "internalType": "uint256",
          "name": "playerId",
          "type": "uint256"
        },
        {
          "indexed": true,
          "internalType": "address",
          "name": "league",
          "type": "address"
        }
      ],
      "name": "TerminationForced",
      "type": "event"
    },
    {
      "anonymous": false,
      "inputs": [
        {
          "indexed": true,
          "internalType": "uint256",
          "name": "playerId",
          "type": "uint256"
        },
        {
          "indexed": true,
          "internalType": "address",
          "name": "league",
          "type": "address"
        }
      ],
      "name": "TerminationRejected",
      "type": "event"
    },
    {
      "anonymous": false,
      "inputs": [
        {
          "indexed": true,
          "internalType": "uint256",
          "name": "playerId",
          "type": "uint256"
        },
        {
          "indexed": false,
          "internalType": "enum IPlayerRegistry.TerminationInitiator",
          "name": "initiator",
          "type": "uint8"
        },
        {
          "indexed": false,
          "internalType": "string",
          "name": "reason",
          "type": "string"
        },
        {
          "indexed": false,
          "internalType": "uint256",
          "name": "disputeDeadline",
          "type": "uint256"
        }
      ],
      "name": "UnilateralTerminationProposed",
      "type": "event"
    },
    {
      "inputs": [],
      "name": "DISPUTE_WINDOW",
      "outputs": [
        {
          "internalType": "uint256",
          "name": "",
          "type": "uint256"
        }
      ],
      "stateMutability": "view",
      "type": "function"
    },
    {
      "inputs": [
        {
          "internalType": "uint256",
          "name": "playerId",
          "type": "uint256"
        }
      ],
      "name": "adjustedDisputeDeadline",
      "outputs": [
        {
          "internalType": "uint256",
          "name": "",
          "type": "uint256"
        }
      ],
      "stateMutability": "view",
      "type": "function"
    },
    {
      "inputs": [
        {
          "internalType": "uint256",
          "name": "playerId",
          "type": "uint256"
        }
      ],
      "name": "clearTermination",
      "outputs": [],
      "stateMutability": "nonpayable",
      "type": "function"
    },
    {
      "inputs": [
        {
          "internalType": "uint256",
          "name": "playerId",
          "type": "uint256"
        }
      ],
      "name": "confirmMutualTermination",
      "outputs": [],
      "stateMutability": "nonpayable",
      "type": "function"
    },
    {
      "inputs": [
        {
          "internalType": "uint256",
          "name": "playerId",
          "type": "uint256"
        }
      ],
      "name": "disputeTermination",
      "outputs": [],
      "stateMutability": "nonpayable",
      "type": "function"
    },
    {
      "inputs": [
        {
          "internalType": "uint256",
          "name": "playerId",
          "type": "uint256"
        }
      ],
      "name": "executeTermination",
      "outputs": [],
      "stateMutability": "nonpayable",
      "type": "function"
    },
    {
      "inputs": [
        {
          "internalType": "uint256",
          "name": "playerId",
          "type": "uint256"
        }
      ],
      "name": "forceTerminate",
      "outputs": [],
      "stateMutability": "nonpayable",
      "type": "function"
    },
    {
      "inputs": [
        {
          "internalType": "uint256",
          "name": "playerId",
          "type": "uint256"
        }
      ],
      "name": "getProposal",
      "outputs": [
        {
          "components": [
            {
              "internalType": "enum IPlayerRegistry.TerminationInitiator",
              "name": "initiator",
              "type": "uint8"
            },
            {
              "internalType": "enum IPlayerRegistry.TerminationState",
              "name": "state",
              "type": "uint8"
            },
            {
              "internalType": "string",
              "name": "reason",
              "type": "string"
            },
            {
              "internalType": "uint256",
              "name": "disputeDeadline",
              "type": "uint256"
            },
            {
              "internalType": "uint256",
              "name": "pauseSnapshot",
              "type": "uint256"
            }
          ],
          "internalType": "struct IPlayerRegistry.TerminationProposal",
          "name": "",
          "type": "tuple"
        }
      ],
      "stateMutability": "view",
      "type": "function"
    },
    {
      "inputs": [],
      "name": "playerRegistry",
      "outputs": [
        {
          "internalType": "contract IPlayerRegistryForTermination",
          "name": "",
          "type": "address"
        }
      ],
      "stateMutability": "view",
      "type": "function"
    },
    {
      "inputs": [
        {
          "internalType": "uint256",
          "name": "playerId",
          "type": "uint256"
        }
      ],
      "name": "proposeMutualTermination",
      "outputs": [],
      "stateMutability": "nonpayable",
      "type": "function"
    },
    {
      "inputs": [
        {
          "internalType": "uint256",
          "name": "playerId",
          "type": "uint256"
        },
        {
          "internalType": "string",
          "name": "reason",
          "type": "string"
        }
      ],
      "name": "proposeUnilateralTermination",
      "outputs": [],
      "stateMutability": "nonpayable",
      "type": "function"
    },
    {
      "inputs": [
        {
          "internalType": "uint256",
          "name": "playerId",
          "type": "uint256"
        }
      ],
      "name": "rejectTermination",
      "outputs": [],
      "stateMutability": "nonpayable",
      "type": "function"
    },
    {
      "inputs": [
        {
          "internalType": "uint256",
          "name": "playerId",
          "type": "uint256"
        }
      ],
      "name": "withdrawMutualTermination",
      "outputs": [],
      "stateMutability": "nonpayable",
      "type": "function"
    }
  ],
  "bytecode": "0x60a0346100ea57601f6122a038819003918201601f19168301916001600160401b038311848410176100ee578084926020946040528339810103126100ea57516001600160a01b038116908190036100ea5760017f9b779b17422d0df92223018b32b4d1fa46e071723d6817e2486d003becc55f005580156100db5760805260405161219d9081610103823960805181818160ef0152818161032b015281816105a7015281816109cb015281816110190152818161126e01528181611429015281816116e30152818161173701528181611bc20152611d3c0152f35b63d92e233d60e01b5f5260045ffd5b5f80fd5b634e487b7160e01b5f52604160045260245ffdfe60806040526004361015610011575f80fd5b5f5f3560e01c806325520cc214611c5d578063281b090d14611bac578063385fd146146117125780634c74ef9c146116ce5780635d3107511461140457806362d2296e146112495780639077a46c14610ff3578063a638cdb314610967578063c7f758a8146107b5578063cd9ebdfe14610581578063d6a87d6b14610305578063ea34015d146100c95763f585dc57146100a9575f80fd5b346100c657806003193601126100c657602060405162093a808152f35b80fd5b50346100c65760203660031901126100c657604051635c975abb60e01b815260048035917f00000000000000000000000000000000000000000000000000000000000000006001600160a01b031691602090829081855afa9081156102ad5784916102c7575b506102b857604051631839279160e21b8152602081600481855afa9081156102ad578491610275575b5060209061017d926040518080958194632474521560e21b8352339060048401611ea3565b03915afa90811561026a57839161022c575b5015610219578082528160205260ff604083205460081c166004811015610205576002036101f357808252816020526101ca60408320611e17565b33907fd7e0af47098bed8b5ce106394490cc47a05a1037bfb66d52f6d9f3cf9352503c8380a380f35b6321478a2960e11b8252600452602490fd5b634e487b7160e01b83526021600452602483fd5b6336e40ae960e11b825233600452602482fd5b90506020813d602011610262575b8161024760209383611cab565b8101031261025e5761025890611e82565b5f61018f565b8280fd5b3d915061023a565b6040513d85823e3d90fd5b90506020813d6020116102a5575b8161029060209383611cab565b810103126102a1575161017d610158565b5f80fd5b3d9150610283565b6040513d86823e3d90fd5b6309148bcd60e21b8352600483fd5b90506020813d6020116102fd575b816102e260209383611cab565b810103126102f9576102f390611e82565b5f61012f565b8380fd5b3d91506102d5565b50346100c65760203660031901126100c657604051635c975abb60e01b815260048035917f00000000000000000000000000000000000000000000000000000000000000006001600160a01b031691602090829081855afa9081156102ad578491610547575b506102b8576103786120ef565b604051631839279160e21b8152602081600481855afa9081156102ad578491610514575b5060206103bf9160405180938192632474521560e21b8352339060048401611ea3565b0381855afa9081156102ad5784916104da575b50156104c7578183528260205260ff604084205460081c1660048110156104b35760020361049f5782908282528160205261040f60408320611e17565b803b1561049057818091602460405180948193632986834360e01b83528860048401525af180156104945761047b575b505033907f521c62ef7361c8402214c9f279f25ed9f1501529ab2468080fa29253a01419d88380a360015f5160206121485f395f51905f525580f35b8161048591611cab565b61049057815f61043f565b5080fd5b6040513d84823e3d90fd5b6321478a2960e11b83526004829052602483fd5b634e487b7160e01b84526021600452602484fd5b6336e40ae960e11b835233600452602483fd5b90506020813d60201161050c575b816104f560209383611cab565b810103126102f95761050690611e82565b5f6103d2565b3d91506104e8565b90506020813d60201161053f575b8161052f60209383611cab565b810103126102a15751602061039c565b3d9150610522565b90506020813d602011610579575b8161056260209383611cab565b810103126102f95761057390611e82565b5f61036b565b3d9150610555565b50346100c65760203660031901126100c657604051635c975abb60e01b815260048035917f00000000000000000000000000000000000000000000000000000000000000006001600160a01b031691602090829081855afa9081156102ad57849161077b575b506102b8576105f46120ef565b81835282602052604083205460ff8160081c166004811015610767576001036107535760ff1660038110156104b35760010361073f57604051631cab5c9d60e31b8152600481018390528381602481855afa9081156102ad57849161071d575b5061012001516001600160a01b031633819003610702575082908282528160205261068160408320611e17565b803b1561049057818091602460405180948193632986834360e01b83528860048401525af18015610494576106ed575b505033907f82932031d9c9072f5949eba1252068c2ed2840dd4066fb3ebc6d3c670c45a1bc8380a360015f5160206121485f395f51905f525580f35b816106f791611cab565b61049057815f6106b1565b6348f0cce760e11b8452600483905233602452604452606483fd5b61073991503d8086833e6107318183611cab565b810190611f2f565b5f610654565b63251fbd2f60e01b83526004829052602483fd5b637da0073f60e01b84526004839052602484fd5b634e487b7160e01b85526021600452602485fd5b90506020813d6020116107ad575b8161079660209383611cab565b810103126102f9576107a790611e82565b5f6105e7565b3d9150610789565b50346100c65760203660031901126100c6578060806040516107d681611c90565b82815282602082015260606040820152826060820152015260043581528060205260408120906040519161080983611c90565b60ff8154610819828216866120c4565b60081c1691602084019260048110156109535783526001820160405190818382549261084484611dc9565b808452936001811690811561093157506001146108f0575b5061086992500382611cab565b604085019081526003600284015493606087019485520154936080860194855261089f6040519660208852602088019051611c83565b516004811015610205579260209260e09592879560408701525160a0606087015280519485918260c0890152018787015e8484018601525160808401525160a0830152601f01601f19168101030190f35b85525060208420909184915b818310610915575050906020610869928201015f61085c565b60209193508060019154838588010152019101909183926108fc565b90506020925061086994915060ff191682840152151560051b8201015f61085c565b634e487b7160e01b82526021600452602482fd5b50346100c65760403660031901126100c6576004356024356001600160401b03811161025e573660238201121561025e5760048101356001600160401b0381116102f957602482019160248236920101116102f957604051635c975abb60e01b81527f00000000000000000000000000000000000000000000000000000000000000006001600160a01b03169290602081600481875afa908115610d9f578691610fb5575b50610fa6578385528460205260ff604086205460081c166004811015610f9257610f7e57604051631cab5c9d60e31b8152600481018590528581602481875afa908115610d9f578691610f64575b50610120810180519091906001600160a01b031615610f50576040516369d146b560e11b815260048101879052602081602481895afa908115610f45578891610f07575b506001600160a01b03169133831480610e2a575b15610dbe57506101a091500151610daa5760049060206001945b6040516303067c6560e41b815293849182905afa918215610d9f578692610d6b575b5062093a80420191824211610d575760405190610b0a82611c90565b610b1486836120c4565b6020820160018152610b2586611ebc565b610b326040519182611cab565b86815286856020830137896020888301015260408401908152606084019186835260808501938452898b528a60205260408b2094516003811015610d435760ff80198754169116178555516004811015610d2f57610b9090856120d0565b51805160018501916001600160401b038211610d1b578b610bb18454611dc9565b601f8111610ce0575b50506020908c601f8411600114610c5e57945f5160206121285f395f51905f529b9894610c0c858d9a96600396610c259f9a9660809f9c9792610c53575b50508160011b915f199060031b1c19161790565b90555b5160028401555191015560405196878096611c83565b606060208601528160608601528585013782820184018890526040830152601f01601f19168101030190a280f35b015190505f80610bf8565b9190601f198416858452828420935b818110610cc85750946001856003955f5160206121285f395f51905f529f9c9895610c259f9c989560809f9c97968e9c9710610cb1575b505050811b019055610c0f565b01515f1983891b60f8161c191690555f8080610ca4565b92936020600181928786015181550195019301610c6d565b60208286610d0a945220601f850160051c81019160208610610d11575b601f0160051c0190611e01565b8b5f610bba565b9091508190610cfd565b634e487b7160e01b8c52604160045260248cfd5b634e487b7160e01b8b52602160045260248bfd5b634e487b7160e01b8c52602160045260248cfd5b634e487b7160e01b87526011600452602487fd5b9091506020813d602011610d97575b81610d8760209383611cab565b810103126102a15751905f610aee565b3d9150610d7a565b6040513d88823e3d90fd5b63036460cd60e61b85526004849052602485fd5b516001600160a01b03169050338103610de05750506004906020600294610acc565b60649186828993151580610e22575b610e0a5750637575f65360e01b835260045233602452604452fd5b91506348f0cce760e11b835260045233602452604452fd5b506001610def565b5060405163fc8045b160e01b81526020816004818a5afa908115610ec9578991610ed4575b506020610e729160405180938192632474521560e21b8352339060048401611ea3565b03818a5afa908115610ec9578991610e8b575b50610ab2565b90506020813d602011610ec1575b81610ea660209383611cab565b81010312610ebd57610eb790611e82565b5f610e85565b8880fd5b3d9150610e99565b6040513d8b823e3d90fd5b90506020813d602011610eff575b81610eef60209383611cab565b810103126102a157516020610e4f565b3d9150610ee2565b90506020813d602011610f3d575b81610f2260209383611cab565b81010312610f3957610f3390611e8f565b5f610a9e565b8780fd5b3d9150610f15565b6040513d8a823e3d90fd5b630fd31ac160e01b87526004869052602487fd5b610f7891503d8088833e6107318183611cab565b5f610a5a565b6312dba68f60e01b85526004849052602485fd5b634e487b7160e01b86526021600452602486fd5b6309148bcd60e21b8552600485fd5b90506020813d602011610feb575b81610fd060209383611cab565b81010312610fe757610fe190611e82565b5f610a0c565b8580fd5b3d9150610fc3565b50346102a15760203660031901126102a157604051635c975abb60e01b815260048035917f00000000000000000000000000000000000000000000000000000000000000006001600160a01b031691602090829081855afa90811561116d575f9161120f575b50611200576110666120ef565b815f525f60205260405f2060ff815460081c1660048110156111ec576001036111d957600281015480156111c6576040516303067c6560e41b8152602081600481875afa90811561116d575f91611192575b506110cb9060036110d194015490611cce565b90611cef565b804211156111785750815f525f6020526110ed60405f20611e17565b803b156102a1575f8091602460405180948193632986834360e01b83528760048401525af1801561116d57611158575b5033907f41aa03ece1c552006005a03226399f91a53ede3e1bb56d9d94b4b22a1570dcdc8380a360015f5160206121485f395f51905f525580f35b6111659192505f90611cab565b5f905f61111d565b6040513d5f823e3d90fd5b82639a056f0760e01b5f526004526024524260445260645ffd5b90506020813d6020116111be575b816111ad60209383611cab565b810103126102a157516110d16110b8565b3d91506111a0565b8363670fb65760e11b5f5260045260245ffd5b82637da0073f60e01b5f5260045260245ffd5b634e487b7160e01b5f52602160045260245ffd5b6309148bcd60e21b5f5260045ffd5b90506020813d602011611241575b8161122a60209383611cab565b810103126102a15761123b90611e82565b5f611059565b3d915061121d565b346102a15760203660031901126102a157604051635c975abb60e01b815260048035917f00000000000000000000000000000000000000000000000000000000000000006001600160a01b031691602090829081855afa90811561116d575f916113ca575b5061120057815f525f60205260405f205460ff8160081c1660048110156111ec576001036111d95760ff1660038110156111ec576001036113b7576020602491604051928380926369d146b560e11b82528660048301525afa90811561116d575f9161137d575b506001600160a01b0316338190036113635750805f525f60205261133b60405f20611e17565b33907f5d2029856679dea9396f4e3ccef80375aa6f9be16ddd7812cfe676b99b899d8d5f80a3005b90637575f65360e01b5f526004523360245260445260645ffd5b90506020813d6020116113af575b8161139860209383611cab565b810103126102a1576113a990611e8f565b82611315565b3d915061138b565b5063251fbd2f60e01b5f5260045260245ffd5b90506020813d6020116113fc575b816113e560209383611cab565b810103126102a1576113f690611e82565b836112ae565b3d91506113d8565b346102a15760203660031901126102a157604051635c975abb60e01b815260048035917f00000000000000000000000000000000000000000000000000000000000000006001600160a01b031691602090829081855afa90811561116d575f91611694575b5061120057815f525f60205260405f2090815460ff8160081c1660048110156111ec576001036116815760ff1660038110156111ec576001148080611675575b6111c657604051631cab5c9d60e31b815260048101859052905f82602481865afa91821561116d575f92611659575b50156115d95761012001516001600160a01b031633036115c25760206004915b6040516303067c6560e41b815292839182905afa90811561116d575f9161158e575b5061152d61153791600384015490611cce565b6002830154611cef565b8042116115745750805461ff00191661020017905533907f8e21efa69495bf15ae6676342da022c34664c6966932c25064944e522fbc7eed5f80a3005b82638bb5b7f160e01b5f526004526024524260445260645ffd5b90506020813d6020116115ba575b816115a960209383611cab565b810103126102a1575161152d61151a565b3d915061159c565b82631837c6af60e21b5f526004523360245260445ffd5b506040516369d146b560e11b815260048101849052602081602481855afa90811561116d575f9161161f575b506001600160a01b031633036115c25760206004916114f8565b90506020813d602011611651575b8161163a60209383611cab565b810103126102a15761164b90611e8f565b84611605565b3d915061162d565b61166e9192503d805f833e6107318183611cab565b90856114d8565b506002830154156114a9565b83637da0073f60e01b5f5260045260245ffd5b90506020813d6020116116c6575b816116af60209383611cab565b810103126102a1576116c090611e82565b83611469565b3d91506116a2565b346102a1575f3660031901126102a1576040517f00000000000000000000000000000000000000000000000000000000000000006001600160a01b03168152602090f35b346102a15760203660031901126102a157604051635c975abb60e01b815260048035917f00000000000000000000000000000000000000000000000000000000000000006001600160a01b031691602090829081855afa90811561116d575f91611b72575b50611200576040516369d146b560e11b815260048101839052602081602481855afa90811561116d575f91611b38575b506001600160a01b031633819003611ab15760405163fc8045b160e01b8152602081600481865afa90811561116d575f91611b05575b5060206118009160405180938192632474521560e21b8352339060048401611ea3565b0381865afa90811561116d575f91611acb575b5015611ab15750815f525f60205260ff60405f205460081c1660048110156111ec57611a9e575f60249160405192838092631cab5c9d60e31b82528660048301525afa90811561116d575f91611a84575b506101208101516001600160a01b031615611a71576101a00151611a5f576040519061188f82611c90565b60018252602082019160018352604051926118ab604085611cab565b601284527126baba3ab0b6103a32b936b4b730ba34b7b760711b602085015260408201938452606082015f815260808301915f8352845f525f60205260405f20935160038110156111ec5760ff801986541691161784555160048110156111ec5761191690846120d0565b9351805190949060018401906001600160401b038111611a4b5761193a8254611dc9565b601f8111611a1b575b506020601f82116001146119b65790806119769260039798995f926119ab5750508160011b915f199060031b1c19161790565b90555b5160028401555191015533907fa34247a49d91aa5a7f134b88ed52043842cb3adc06c87c10128c1375ff93da6e5f80a3005b015190508980610bf8565b601f19821697835f52815f20985f5b818110611a035750916003979899918460019594106119ec575b505050811b019055611979565b01515f1983891b60f8161c191690558880806119df565b838301518b556001909a0199602093840193016119c5565b611a4590835f5260205f20601f840160051c81019160208510610d1157601f0160051c0190611e01565b87611943565b634e487b7160e01b5f52604160045260245ffd5b63036460cd60e61b5f5260045260245ffd5b50630fd31ac160e01b5f5260045260245ffd5b611a9891503d805f833e6107318183611cab565b82611864565b506312dba68f60e01b5f5260045260245ffd5b82637575f65360e01b5f526004523360245260445260645ffd5b90506020813d602011611afd575b81611ae660209383611cab565b810103126102a157611af790611e82565b84611813565b3d9150611ad9565b90506020813d602011611b30575b81611b2060209383611cab565b810103126102a1575160206117dd565b3d9150611b13565b90506020813d602011611b6a575b81611b5360209383611cab565b810103126102a157611b6490611e8f565b836117a7565b3d9150611b46565b90506020813d602011611ba4575b81611b8d60209383611cab565b810103126102a157611b9e90611e82565b83611777565b3d9150611b80565b346102a15760203660031901126102a1576004357f00000000000000000000000000000000000000000000000000000000000000006001600160a01b03163303611c4a57805f525f60205260ff60405f205460081c1660048110156111ec57611c1157005b805f525f602052611c2460405f20611e17565b7fde35eb9e929ccad1134d105495fce5e6531d6300c99372c0dfa957a32723dc2a5f80a2005b63ea03cddb60e01b5f523360045260245ffd5b346102a15760203660031901126102a1576020611c7b600435611cfc565b604051908152f35b9060038210156111ec5752565b60a081019081106001600160401b03821117611a4b57604052565b601f909101601f19168101906001600160401b03821190821017611a4b57604052565b91908203918211611cdb57565b634e487b7160e01b5f52601160045260245ffd5b91908201809211611cdb57565b5f525f60205260405f2060ff815460081c1660048110156111ec5715611dc45760028101548015611dbe576040516303067c6560e41b81526020816004817f00000000000000000000000000000000000000000000000000000000000000006001600160a01b03165afa90811561116d575f91611d8a575b506110cb906003611d8794015490611cce565b90565b90506020813d602011611db6575b81611da560209383611cab565b810103126102a15751611d87611d74565b3d9150611d98565b50505f90565b505f90565b90600182811c92168015611df7575b6020831014611de357565b634e487b7160e01b5f52602260045260245ffd5b91607f1691611dd8565b818110611e0c575050565b5f8155600101611e01565b60035f9182815560018101611e2c8154611dc9565b9081611e3f575b50508260028201550155565b81601f869311600114611e565750555b5f80611e33565b81835260208320611e7291601f0160051c810190600101611e01565b8082528160208120915555611e4f565b519081151582036102a157565b51906001600160a01b03821682036102a157565b9081526001600160a01b03909116602082015260400190565b6001600160401b038111611a4b57601f01601f191660200190565b81601f820112156102a157805190611eee82611ebc565b92611efc6040519485611cab565b828452602083830101116102a157815f9260208093018386015e8301015290565b519064ffffffffff821682036102a157565b6020818303126102a1578051906001600160401b0382116102a15701610220818303126102a1576040519161022083016001600160401b03811184821017611a4b576040528151835260208201516001600160401b0381116102a15781611f97918401611ed7565b602084015260408201516001600160401b0381116102a15781611fbb918401611ed7565b604084015260608201516001600160401b0381116102a15781611fdf918401611ed7565b60608401526080820151608084015260a082015160a084015260c082015160c084015260e082015160e08401526101008201516101008401526120256101208301611e8f565b6101208401526120386101408301611f1d565b61014084015261204b6101608301611f1d565b61016084015261205e6101808301611e82565b6101808401526120716101a08301611e82565b6101a08401526120846101c08301611e82565b6101c08401526120976101e08301611e82565b6101e08401526102008201516001600160401b0381116102a1576120bb9201611ed7565b61020082015290565b60038210156111ec5752565b9060048110156111ec5761ff0082549160081b169061ff001916179055565b60025f5160206121485f395f51905f5254146121185760025f5160206121485f395f51905f5255565b633ee5aeb560e01b5f5260045ffdfe4cea630b38e4af4d085c88eef0c4848921673a190c95ec3f79da22617d73de369b779b17422d0df92223018b32b4d1fa46e071723d6817e2486d003becc55f00a2646970667358221220e1218e0ec77ac08507a3f8d9e09ebb875bfb31bfb24cbad618521c03f38ce01f64736f6c634300081c0033",
  "linkReferences": {},
  "deployedLinkReferences": {},
  "immutableReferences": {
    "28652": [
      {
        "length": 32,
        "start": 239
      },
      {
        "length": 32,
        "start": 811
      },
      {
        "length": 32,
        "start": 1447
      },
      {
        "length": 32,
        "start": 2507
      },
      {
        "length": 32,
        "start": 4121
      },
      {
        "length": 32,
        "start": 4718
      },
      {
        "length": 32,
        "start": 5161
      },
      {
        "length": 32,
        "start": 5859
      },
      {
        "length": 32,
        "start": 5943
      },
      {
        "length": 32,
        "start": 7106
      },
      {
        "length": 32,
        "start": 7484
      }
    ]
  },
  "inputSourceName": "project/contracts/core/TerminationManager.sol",
  "buildInfoId": "solc-0_8_28-e6e634edc385ce91d02ff410210fe20e8fd80dbf"
}