{
  "_format": "hh3-artifact-1",
  "contractName": "TransferWindow",
  "sourceName": "contracts/core/TransferWindow.sol",
  "abi": [
    {
      "inputs": [],
      "stateMutability": "nonpayable",
      "type": "constructor"
    },
    {
      "inputs": [],
      "name": "AccessControlBadConfirmation",
      "type": "error"
    },
    {
      "inputs": [
        {
          "internalType": "address",
          "name": "account",
          "type": "address"
        },
        {
          "internalType": "bytes32",
          "name": "neededRole",
          "type": "bytes32"
        }
      ],
      "name": "AccessControlUnauthorizedAccount",
      "type": "error"
    },
    {
      "inputs": [],
      "name": "EnforcedPause",
      "type": "error"
    },
    {
      "inputs": [],
      "name": "ExpectedPause",
      "type": "error"
    },
    {
      "inputs": [],
      "name": "ExtensionBeforeClose",
      "type": "error"
    },
    {
      "inputs": [],
      "name": "ExtensionTooLong",
      "type": "error"
    },
    {
      "inputs": [],
      "name": "InvalidString",
      "type": "error"
    },
    {
      "inputs": [],
      "name": "InvalidWindowTimes",
      "type": "error"
    },
    {
      "inputs": [],
      "name": "NoActiveWindow",
      "type": "error"
    },
    {
      "inputs": [],
      "name": "PositionNotAllowedInEmergencyWindow",
      "type": "error"
    },
    {
      "inputs": [],
      "name": "ScheduleTooFarAhead",
      "type": "error"
    },
    {
      "inputs": [],
      "name": "WindowAlreadyClosed",
      "type": "error"
    },
    {
      "inputs": [],
      "name": "WindowAlreadyOpen",
      "type": "error"
    },
    {
      "inputs": [],
      "name": "WindowAlreadySuspended",
      "type": "error"
    },
    {
      "inputs": [],
      "name": "WindowNotFound",
      "type": "error"
    },
    {
      "inputs": [],
      "name": "WindowNotOpen",
      "type": "error"
    },
    {
      "inputs": [
        {
          "internalType": "enum TransferWindow.WindowType",
          "name": "required",
          "type": "uint8"
        },
        {
          "internalType": "enum TransferWindow.WindowType",
          "name": "actual",
          "type": "uint8"
        }
      ],
      "name": "WindowNotOpenForType",
      "type": "error"
    },
    {
      "inputs": [],
      "name": "WindowNotSuspended",
      "type": "error"
    },
    {
      "inputs": [],
      "name": "WindowOverlap",
      "type": "error"
    },
    {
      "inputs": [],
      "name": "WindowTooLong",
      "type": "error"
    },
    {
      "anonymous": false,
      "inputs": [
        {
          "indexed": true,
          "internalType": "uint256",
          "name": "windowId",
          "type": "uint256"
        }
      ],
      "name": "ActiveWindowAdvanced",
      "type": "event"
    },
    {
      "anonymous": false,
      "inputs": [
        {
          "indexed": false,
          "internalType": "address",
          "name": "account",
          "type": "address"
        }
      ],
      "name": "Paused",
      "type": "event"
    },
    {
      "anonymous": false,
      "inputs": [
        {
          "indexed": true,
          "internalType": "bytes32",
          "name": "role",
          "type": "bytes32"
        },
        {
          "indexed": true,
          "internalType": "bytes32",
          "name": "previousAdminRole",
          "type": "bytes32"
        },
        {
          "indexed": true,
          "internalType": "bytes32",
          "name": "newAdminRole",
          "type": "bytes32"
        }
      ],
      "name": "RoleAdminChanged",
      "type": "event"
    },
    {
      "anonymous": false,
      "inputs": [
        {
          "indexed": true,
          "internalType": "bytes32",
          "name": "role",
          "type": "bytes32"
        },
        {
          "indexed": true,
          "internalType": "address",
          "name": "account",
          "type": "address"
        },
        {
          "indexed": true,
          "internalType": "address",
          "name": "sender",
          "type": "address"
        }
      ],
      "name": "RoleGranted",
      "type": "event"
    },
    {
      "anonymous": false,
      "inputs": [
        {
          "indexed": true,
          "internalType": "bytes32",
          "name": "role",
          "type": "bytes32"
        },
        {
          "indexed": true,
          "internalType": "address",
          "name": "account",
          "type": "address"
        },
        {
          "indexed": true,
          "internalType": "address",
          "name": "sender",
          "type": "address"
        }
      ],
      "name": "RoleRevoked",
      "type": "event"
    },
    {
      "anonymous": false,
      "inputs": [
        {
          "indexed": false,
          "internalType": "address",
          "name": "account",
          "type": "address"
        }
      ],
      "name": "Unpaused",
      "type": "event"
    },
    {
      "anonymous": false,
      "inputs": [
        {
          "indexed": true,
          "internalType": "uint256",
          "name": "windowId",
          "type": "uint256"
        }
      ],
      "name": "WindowCancelled",
      "type": "event"
    },
    {
      "anonymous": false,
      "inputs": [
        {
          "indexed": true,
          "internalType": "uint256",
          "name": "windowId",
          "type": "uint256"
        },
        {
          "indexed": false,
          "internalType": "uint256",
          "name": "newClosesAt",
          "type": "uint256"
        }
      ],
      "name": "WindowExtended",
      "type": "event"
    },
    {
      "anonymous": false,
      "inputs": [
        {
          "indexed": true,
          "internalType": "uint256",
          "name": "windowId",
          "type": "uint256"
        }
      ],
      "name": "WindowResumed",
      "type": "event"
    },
    {
      "anonymous": false,
      "inputs": [
        {
          "indexed": true,
          "internalType": "uint256",
          "name": "windowId",
          "type": "uint256"
        },
        {
          "indexed": false,
          "internalType": "string",
          "name": "label",
          "type": "string"
        },
        {
          "indexed": false,
          "internalType": "uint256",
          "name": "opensAt",
          "type": "uint256"
        },
        {
          "indexed": false,
          "internalType": "uint256",
          "name": "closesAt",
          "type": "uint256"
        },
        {
          "indexed": false,
          "internalType": "enum TransferWindow.WindowType",
          "name": "windowType",
          "type": "uint8"
        }
      ],
      "name": "WindowScheduled",
      "type": "event"
    },
    {
      "anonymous": false,
      "inputs": [
        {
          "indexed": true,
          "internalType": "uint256",
          "name": "windowId",
          "type": "uint256"
        }
      ],
      "name": "WindowSuspended",
      "type": "event"
    },
    {
      "inputs": [],
      "name": "ADMIN_ROLE",
      "outputs": [
        {
          "internalType": "bytes32",
          "name": "",
          "type": "bytes32"
        }
      ],
      "stateMutability": "view",
      "type": "function"
    },
    {
      "inputs": [],
      "name": "DEFAULT_ADMIN_ROLE",
      "outputs": [
        {
          "internalType": "bytes32",
          "name": "",
          "type": "bytes32"
        }
      ],
      "stateMutability": "view",
      "type": "function"
    },
    {
      "inputs": [],
      "name": "MAX_EMERGENCY_DURATION",
      "outputs": [
        {
          "internalType": "uint256",
          "name": "",
          "type": "uint256"
        }
      ],
      "stateMutability": "view",
      "type": "function"
    },
    {
      "inputs": [],
      "name": "MAX_EXCEPTIONAL_DURATION",
      "outputs": [
        {
          "internalType": "uint256",
          "name": "",
          "type": "uint256"
        }
      ],
      "stateMutability": "view",
      "type": "function"
    },
    {
      "inputs": [],
      "name": "MAX_SCHEDULE_AHEAD",
      "outputs": [
        {
          "internalType": "uint256",
          "name": "",
          "type": "uint256"
        }
      ],
      "stateMutability": "view",
      "type": "function"
    },
    {
      "inputs": [],
      "name": "MAX_STANDARD_DURATION",
      "outputs": [
        {
          "internalType": "uint256",
          "name": "",
          "type": "uint256"
        }
      ],
      "stateMutability": "view",
      "type": "function"
    },
    {
      "inputs": [],
      "name": "MIN_WINDOW_GAP",
      "outputs": [
        {
          "internalType": "uint256",
          "name": "",
          "type": "uint256"
        }
      ],
      "stateMutability": "view",
      "type": "function"
    },
    {
      "inputs": [],
      "name": "activeWindowId",
      "outputs": [
        {
          "internalType": "uint256",
          "name": "",
          "type": "uint256"
        }
      ],
      "stateMutability": "view",
      "type": "function"
    },
    {
      "inputs": [],
      "name": "advanceActiveWindow",
      "outputs": [],
      "stateMutability": "nonpayable",
      "type": "function"
    },
    {
      "inputs": [
        {
          "internalType": "uint256",
          "name": "windowId",
          "type": "uint256"
        }
      ],
      "name": "cancelWindow",
      "outputs": [],
      "stateMutability": "nonpayable",
      "type": "function"
    },
    {
      "inputs": [
        {
          "internalType": "uint256",
          "name": "windowId",
          "type": "uint256"
        },
        {
          "internalType": "uint256",
          "name": "newClosesAt",
          "type": "uint256"
        }
      ],
      "name": "extendWindow",
      "outputs": [],
      "stateMutability": "nonpayable",
      "type": "function"
    },
    {
      "inputs": [],
      "name": "getActiveWindow",
      "outputs": [
        {
          "components": [
            {
              "internalType": "uint256",
              "name": "id",
              "type": "uint256"
            },
            {
              "internalType": "string",
              "name": "label",
              "type": "string"
            },
            {
              "internalType": "uint256",
              "name": "opensAt",
              "type": "uint256"
            },
            {
              "internalType": "uint256",
              "name": "closesAt",
              "type": "uint256"
            },
            {
              "internalType": "enum TransferWindow.WindowType",
              "name": "windowType",
              "type": "uint8"
            },
            {
              "internalType": "bool",
              "name": "suspended",
              "type": "bool"
            },
            {
              "internalType": "bool",
              "name": "exists",
              "type": "bool"
            }
          ],
          "internalType": "struct TransferWindow.Window",
          "name": "",
          "type": "tuple"
        }
      ],
      "stateMutability": "view",
      "type": "function"
    },
    {
      "inputs": [],
      "name": "getAllWindowIds",
      "outputs": [
        {
          "internalType": "uint256[]",
          "name": "",
          "type": "uint256[]"
        }
      ],
      "stateMutability": "view",
      "type": "function"
    },
    {
      "inputs": [],
      "name": "getCurrentWindowType",
      "outputs": [
        {
          "internalType": "enum TransferWindow.WindowType",
          "name": "",
          "type": "uint8"
        }
      ],
      "stateMutability": "view",
      "type": "function"
    },
    {
      "inputs": [
        {
          "internalType": "bytes32",
          "name": "role",
          "type": "bytes32"
        }
      ],
      "name": "getRoleAdmin",
      "outputs": [
        {
          "internalType": "bytes32",
          "name": "",
          "type": "bytes32"
        }
      ],
      "stateMutability": "view",
      "type": "function"
    },
    {
      "inputs": [
        {
          "internalType": "uint256",
          "name": "windowId",
          "type": "uint256"
        }
      ],
      "name": "getWindow",
      "outputs": [
        {
          "components": [
            {
              "internalType": "uint256",
              "name": "id",
              "type": "uint256"
            },
            {
              "internalType": "string",
              "name": "label",
              "type": "string"
            },
            {
              "internalType": "uint256",
              "name": "opensAt",
              "type": "uint256"
            },
            {
              "internalType": "uint256",
              "name": "closesAt",
              "type": "uint256"
            },
            {
              "internalType": "enum TransferWindow.WindowType",
              "name": "windowType",
              "type": "uint8"
            },
            {
              "internalType": "bool",
              "name": "suspended",
              "type": "bool"
            },
            {
              "internalType": "bool",
              "name": "exists",
              "type": "bool"
            }
          ],
          "internalType": "struct TransferWindow.Window",
          "name": "",
          "type": "tuple"
        }
      ],
      "stateMutability": "view",
      "type": "function"
    },
    {
      "inputs": [
        {
          "internalType": "bytes32",
          "name": "role",
          "type": "bytes32"
        },
        {
          "internalType": "address",
          "name": "account",
          "type": "address"
        }
      ],
      "name": "grantRole",
      "outputs": [],
      "stateMutability": "nonpayable",
      "type": "function"
    },
    {
      "inputs": [
        {
          "internalType": "bytes32",
          "name": "role",
          "type": "bytes32"
        },
        {
          "internalType": "address",
          "name": "account",
          "type": "address"
        }
      ],
      "name": "hasRole",
      "outputs": [
        {
          "internalType": "bool",
          "name": "",
          "type": "bool"
        }
      ],
      "stateMutability": "view",
      "type": "function"
    },
    {
      "inputs": [],
      "name": "isWindowOpen",
      "outputs": [
        {
          "internalType": "bool",
          "name": "",
          "type": "bool"
        }
      ],
      "stateMutability": "view",
      "type": "function"
    },
    {
      "inputs": [
        {
          "internalType": "enum TransferWindow.WindowType",
          "name": "windowType",
          "type": "uint8"
        }
      ],
      "name": "isWindowOpenForType",
      "outputs": [
        {
          "internalType": "bool",
          "name": "",
          "type": "bool"
        }
      ],
      "stateMutability": "view",
      "type": "function"
    },
    {
      "inputs": [],
      "name": "pause",
      "outputs": [],
      "stateMutability": "nonpayable",
      "type": "function"
    },
    {
      "inputs": [],
      "name": "paused",
      "outputs": [
        {
          "internalType": "bool",
          "name": "",
          "type": "bool"
        }
      ],
      "stateMutability": "view",
      "type": "function"
    },
    {
      "inputs": [
        {
          "internalType": "bytes32",
          "name": "role",
          "type": "bytes32"
        },
        {
          "internalType": "address",
          "name": "callerConfirmation",
          "type": "address"
        }
      ],
      "name": "renounceRole",
      "outputs": [],
      "stateMutability": "nonpayable",
      "type": "function"
    },
    {
      "inputs": [
        {
          "internalType": "uint256",
          "name": "windowId",
          "type": "uint256"
        }
      ],
      "name": "resumeWindow",
      "outputs": [],
      "stateMutability": "nonpayable",
      "type": "function"
    },
    {
      "inputs": [
        {
          "internalType": "bytes32",
          "name": "role",
          "type": "bytes32"
        },
        {
          "internalType": "address",
          "name": "account",
          "type": "address"
        }
      ],
      "name": "revokeRole",
      "outputs": [],
      "stateMutability": "nonpayable",
      "type": "function"
    },
    {
      "inputs": [
        {
          "internalType": "string",
          "name": "label",
          "type": "string"
        },
        {
          "internalType": "uint256",
          "name": "opensAt",
          "type": "uint256"
        },
        {
          "internalType": "uint256",
          "name": "closesAt",
          "type": "uint256"
        },
        {
          "internalType": "enum TransferWindow.WindowType",
          "name": "windowType",
          "type": "uint8"
        }
      ],
      "name": "scheduleWindow",
      "outputs": [
        {
          "internalType": "uint256",
          "name": "windowId",
          "type": "uint256"
        }
      ],
      "stateMutability": "nonpayable",
      "type": "function"
    },
    {
      "inputs": [
        {
          "internalType": "bytes4",
          "name": "interfaceId",
          "type": "bytes4"
        }
      ],
      "name": "supportsInterface",
      "outputs": [
        {
          "internalType": "bool",
          "name": "",
          "type": "bool"
        }
      ],
      "stateMutability": "view",
      "type": "function"
    },
    {
      "inputs": [
        {
          "internalType": "uint256",
          "name": "windowId",
          "type": "uint256"
        }
      ],
      "name": "suspendWindow",
      "outputs": [],
      "stateMutability": "nonpayable",
      "type": "function"
    },
    {
      "inputs": [],
      "name": "totalWindows",
      "outputs": [
        {
          "internalType": "uint256",
          "name": "",
          "type": "uint256"
        }
      ],
      "stateMutability": "view",
      "type": "function"
    },
    {
      "inputs": [],
      "name": "unpause",
      "outputs": [],
      "stateMutability": "nonpayable",
      "type": "function"
    }
  ],
  "bytecode": "0x60806040523461002c5761001233610030565b5061001c336100a6565b50604051611752908161013a8239f35b5f80fd5b6001600160a01b0381165f9081525f5160206118cc5f395f51905f52602052604090205460ff166100a1576001600160a01b03165f8181525f5160206118cc5f395f51905f5260205260408120805460ff191660011790553391905f51602061188c5f395f51905f528180a4600190565b505f90565b6001600160a01b0381165f9081525f5160206118ac5f395f51905f52602052604090205460ff166100a1576001600160a01b03165f8181525f5160206118ac5f395f51905f5260205260408120805460ff191660011790553391907fa49807205ce4d355092ef5a8a18f56e8913cf4a201fbe287825b095693c21775905f51602061188c5f395f51905f529080a460019056fe6080806040526004361015610012575f80fd5b5f3560e01c90816301ffc9a714610e405750806314a4cdc214610e17578063248a9ca314610df15780632ee70dc314610da35780632f2ff15d14610d80578063358296b114610d6357806336568abe14610d2d5780633f4ba83a14610cc757806355a14b0b14610c305780635614515914610c055780635c975abb14610be357806375b238fc14610bbc5780638456cb5914610b645780638cf8b27514610b3c57806391d1485414610b0157806393cbf80d14610a7257806396811687146109d55780639ddf6a8c146109b85780639efffd6a14610998578063a217fddf1461097e578063abcb068914610961578063b7ad243214610944578063d12c8e0a14610920578063d547741f146108f6578063d806bd2b146108d8578063db56b87d146106f3578063e083753e146106d6578063eb126ad714610220578063ebee7960146102035763f0bbedeb14610166575f80fd5b346101ff575f3660031901126101ff576040518060206005549283815201809260055f5260205f20905f5b8181106101e957505050816101a7910382611099565b604051918291602083019060208452518091526040830191905f5b8181106101d0575050500390f35b82518452859450602093840193909201916001016101c2565b8254845260209093019260019283019201610191565b5f80fd5b346101ff575f3660031901126101ff5760206040516276a7008152f35b346101ff5760803660031901126101ff576004356001600160401b0381116101ff57366023820112156101ff5760048101356001600160401b0381116101ff57602482019160248236920101116101ff57602435906044356064359160038310156101ff5761028d611545565b6102956116e1565b801580156106cc575b6106bd57428411156106ae57838211156106ae576301e1338042018042116105be57841161069f576102d08483611538565b831580610693575b61066b576001841480610687575b61066b5760028414908161067a575b5061066b576005545f5b8181106105d25750506002545f1981146105be576001019384600255604051956103288761107e565b858752601f19601f8401169660405161034460208a0182611099565b848152848360208301375f6020868301015260208201908152604082018481526060830192878452608081019361037b8a8661112b565b60a08201925f845260c0830194600186528c5f52600460205260405f209351845560018401905180519060018060401b0382116104dd576103bc83546110f3565b601f8111610579575b50602090601f83116001146105105760049695949392915f9183610505575b50508160011b915f199060031b1c19161790555b51600283015551600382015501925160038110156104f15783549151925162ffffff1990921660ff919091161791151560081b61ff00169190911790151560101b62ff00001617905560055496600160401b8810156104dd576104cf87967f922073d57b381cd80a4c0621aed79c235f76a9b3c5b9f163d0ee1480646d2f199660a09561048d8c600160209e01600555610f40565b81549060031b908c821b915f19901b19161790555f87896040519a8b9960808b528160808c0152838b0137880101528b86015260408501526060840190610e93565b8101030190a2604051908152f35b634e487b7160e01b5f52604160045260245ffd5b634e487b7160e01b5f52602160045260245ffd5b015190505f806103e4565b90601f19831691845f52815f20925f5b818110610561575091600193918560049a999897969410610549575b505050811b0190556103f8565b01515f1960f88460031b161c191690555f808061053c565b92936020600181928786015181550195019301610520565b835f5260205f20601f840160051c810191602085106105b4575b601f0160051c01905b8181106105a957506103c5565b5f815560010161059c565b9091508190610593565b634e487b7160e01b5f52601160045260245ffd5b6105db81610f40565b90549060031b1c5f52600460205260405f2060ff600482015460101c161561066257600381015442811115610658576201518081018091116105be578710908161063e575b5061062f576001905b016102ff565b6362265b8760e01b5f5260045ffd5b62015180860191508186116105be57600201541088610620565b5050600190610629565b50600190610629565b63d848c5a160e01b5f5260045ffd5b62093a80915011866102f5565b50620d2f0081116102e6565b506276a70081116102d8565b6317d307fb60e01b5f5260045ffd5b63abdbdf0760e01b5f5260045ffd5b630ec0325960e21b5f5260045ffd5b506040811161029e565b346101ff575f3660031901126101ff576020604051620d2f008152f35b346101ff5760403660031901126101ff57600435602435610712611545565b815f52600460205260405f2060048101549060ff8260101c16156108c9576002810154908142106108ba57600301918254804210156108ab5784111561089c5760ff61075e8386611538565b911660038110156104f157801580610890575b610868576001811480610884575b610868576002149081610877575b5061086857600554905f90620151808501808611925b8481106107db57877f7962d305a24b5bb935c5c8458cbb9bb55cb6543f0d60c78b0e7aeb71a559a423602089808a55604051908152a2005b6107e481610f40565b90549060031b1c5f52600460205260405f2060ff600482015460101c161561085f578881541461085f576003810154908542831115610854576105be57600201548311908161083d575b5061062f576001905b016107a3565b90506201518081018091116105be5783108961082e565b505050600190610837565b50600190610837565b630cfa6d6d60e01b5f5260045ffd5b62093a809150118561078d565b50620d2f00821161077f565b506276a7008211610771565b630290314360e41b5f5260045ffd5b63736a472d60e01b5f5260045ffd5b6389de570360e01b5f5260045ffd5b6333f7610760e21b5f5260045ffd5b346101ff575f3660031901126101ff5760206040516301e133808152f35b346101ff5761091e61090736610f1a565b906109196109148261106d565b6115a1565b611661565b005b346101ff575f3660031901126101ff57602061093a611438565b6040519015158152f35b346101ff575f3660031901126101ff576020600254604051908152f35b346101ff575f3660031901126101ff576020600354604051908152f35b346101ff575f3660031901126101ff5760206040515f8152f35b346101ff575f3660031901126101ff576109b0611545565b61091e611383565b346101ff575f3660031901126101ff576020604051620151808152f35b346101ff5760203660031901126101ff576004356109f1611545565b805f52600460205260405f20600481019081549060ff8260101c16156108c957600281015442106108ba57600301544210156108ab5760ff8160081c16610a635761ff0019166101001790557fa2ce567d41cea5be38ab3a380c4c2efea373c4825bed18cb7a2b4c614a29e51b5f80a2005b63dc820dc560e01b5f5260045ffd5b346101ff5760203660031901126101ff57600435610a8e611545565b805f52600460205260405f20600481019081549060ff8260101c16156108c95760ff8260081c1615610af257600301544210156108ab5761ff00191690557fc348efe287f18f2a340aa53c3cd615c98e3d13219289715bca88bb9324355f595f80a2005b63017cc23f60e41b5f5260045ffd5b346101ff57610b0f36610f1a565b905f525f60205260405f209060018060a01b03165f52602052602060ff60405f2054166040519015158152f35b346101ff5760203660031901126101ff5760043560038110156101ff5761093a6020916112d6565b346101ff575f3660031901126101ff57610b7c611545565b610b846116e1565b600160ff19815416176001557f62e78cea01bee320cd4e420270b5ea74000d11b0c9f74754ebdbfc544b05a2586020604051338152a1005b346101ff575f3660031901126101ff5760206040515f5160206116fd5f395f51905f528152f35b346101ff575f3660031901126101ff57602060ff600154166040519015158152f35b346101ff575f3660031901126101ff57610c2c610c20611230565b60405191829182610ea0565b0390f35b346101ff5760203660031901126101ff57600435610c4c611545565b805f52600460205260405f20600481019081549060ff8260101c16156108c95760020154421015610cb85762ff0000191690556003548114610caf575b7f689b1a53f81c7d2e1671bd32c4986c3d6d0b47f2086b47aaa555fbed00ad3a265f80a2005b5f600355610c89565b635bf89e4b60e01b5f5260045ffd5b346101ff575f3660031901126101ff57610cdf611545565b60015460ff811615610d1e5760ff19166001557f5db9ee0a495bf2e6ff9c91a7834c1ba4fdd244a5e8aa4e537bd38aeae4b073aa6020604051338152a1005b638dfc202b60e01b5f5260045ffd5b346101ff57610d3b36610f1a565b336001600160a01b03821603610d545761091e91611661565b63334bd91960e11b5f5260045ffd5b346101ff575f3660031901126101ff57602060405162093a808152f35b346101ff5761091e610d9136610f1a565b90610d9e6109148261106d565b6115d9565b346101ff5760203660031901126101ff57600435610dbf6110bc565b50805f52600460205260ff600460405f20015460101c16156108c9575f526004602052610c2c610c2060405f20611137565b346101ff5760203660031901126101ff576020610e0f60043561106d565b604051908152f35b346101ff575f3660031901126101ff576020610e31610f6c565b610e3e6040518092610e93565bf35b346101ff5760203660031901126101ff576004359063ffffffff60e01b82168092036101ff57602091637965db0b60e01b8114908115610e82575b5015158152f35b6301ffc9a760e01b14905083610e7b565b9060038210156104f15752565b602060c0610120938284528051838501528281015160e06040860152805193849182610100880152018686015e5f8584860101526040810151606085015260608101516080850152610efa608082015160a0860190610e93565b60a08101511515848301520151151560e0830152601f01601f1916010190565b60409060031901126101ff57600435906024356001600160a01b03811681036101ff5790565b600554811015610f585760055f5260205f2001905f90565b634e487b7160e01b5f52603260045260245ffd5b60035480611009575b506005545f5b818110610f91576303e34d1160e51b5f5260045ffd5b610f9a81610f40565b90549060031b1c5f52600460205260405f2060048101549060ff8260101c1615610fff5760ff8260081c16610fff5760028101544210159081610ff1575b50610fe857506001905b01610f7b565b60ff1692915050565b60039150015442105f610fd8565b5050600190610fe2565b5f52600460205260405f2060048101549060ff8260101c16908161105d575b8161104e575b81611040575b5015610f755760ff1690565b60039150015442105f611034565b6002810154421015915061102e565b905060ff8260081c161590611028565b5f525f602052600160405f20015490565b60e081019081106001600160401b038211176104dd57604052565b601f909101601f19168101906001600160401b038211908210176104dd57604052565b604051906110c98261107e565b5f60c083828152606060208201528260408201528260608201528260808201528260a08201520152565b90600182811c92168015611121575b602083101461110d57565b634e487b7160e01b5f52602260045260245ffd5b91607f1691611102565b60038210156104f15752565b906040516111448161107e565b80928054825260018101604051905f90805490611160826110f3565b808552916001811690811561120b57506001146111d0575b505060c0928261118e60ff946004940382611099565b6020860152600281015460408601526003810154606086015201546111b88282166080860161112b565b818160081c16151560a085015260101c161515910152565b5f908152602081209092505b8183106111f157505081016020018282611178565b6001816020929493945483858801015201910191906111dc565b60ff191660208087019190915292151560051b85019092019250849150839050611178565b6112386110bc565b506005545f5b818110611254576303e34d1160e51b5f5260045ffd5b61125d81610f40565b90549060031b1c5f52600460205260405f20600481015460ff8160101c16156112cc5760081c60ff166112c3576002810154421015806112b6575b6112a757506001905b0161123e565b90506112b39150611137565b90565b5060038101544210611298565b506001906112a1565b50506001906112a1565b600554905f5b8281106112ea575050505f90565b6112f381610f40565b90549060031b1c5f52600460205260405f20600481015460ff8160101c16156113795760ff8160081c166113795760ff1660038410156104f15760038110156104f15783036113705760028101544210159081611362575b5061135a576001905b016112dc565b505050600190565b60039150015442105f61134b565b50600190611354565b5050600190611354565b6005545f5b8181106113975750505f600355565b6113a081610f40565b90549060031b1c5f52600460205260405f20600481015460ff8160101c161561142e5760081c60ff1661142557600281015442101580611418575b6113ea57506001905b01611388565b91505054806003557f55a5f350446b5c990c9b011262f27ad89dc68feb28ed4a81323125cad13adf755f80a2565b50600381015442106113db565b506001906113e4565b50506001906113e4565b600354806114d0575b506005545f5b8181106114545750505f90565b61145d81610f40565b90549060031b1c5f52600460205260405f20600481015460ff8160101c16156114c65760081c60ff166114bd57600281015442101590816114af575b506114a8576001905b01611447565b5050600190565b60039150015442105f611499565b506001906114a2565b50506001906114a2565b5f52600460205260405f2060048101549060ff8260101c169182611529575b508161151a575b8161150c575b50611507575f611441565b600190565b60039150015442105f6114fc565b600281015442101591506114f6565b60081c60ff161591505f6114ef565b919082039182116105be57565b335f9081527f7d7ffb7a348e1c6a02869081a26547b49160dd3df72d1d75a570eb9b698292ec602052604090205460ff161561157d57565b63e2517d3f60e01b5f52336004525f5160206116fd5f395f51905f5260245260445ffd5b5f8181526020818152604080832033845290915290205460ff16156115c35750565b63e2517d3f60e01b5f523360045260245260445ffd5b5f818152602081815260408083206001600160a01b038616845290915290205460ff1661165b575f818152602081815260408083206001600160a01b0395909516808452949091528120805460ff19166001179055339291907f2f8788117e7eff1d82e926ec794901d17c78024a50270940304540a733656f0d9080a4600190565b50505f90565b5f818152602081815260408083206001600160a01b038616845290915290205460ff161561165b575f818152602081815260408083206001600160a01b0395909516808452949091528120805460ff19169055339291907ff6391f5c32d9c69d2a47ea670b442974b53935d1edc7fd64eb21e047a839171b9080a4600190565b60ff600154166116ed57565b63d93c066560e01b5f5260045ffdfea49807205ce4d355092ef5a8a18f56e8913cf4a201fbe287825b095693c21775a264697066735822122044c218f86ab67d06b1dfa3531f2eea2b6b9a75b9578bb0ad272d1bb56a02cf1b64736f6c634300081c00332f8788117e7eff1d82e926ec794901d17c78024a50270940304540a733656f0d7d7ffb7a348e1c6a02869081a26547b49160dd3df72d1d75a570eb9b698292ecad3228b676f7d3cd4284a5443f17f1962b36e491b30a40b2405849e597ba5fb5",
  "linkReferences": {},
  "deployedLinkReferences": {},
  "immutableReferences": {},
  "inputSourceName": "project/contracts/core/TransferWindow.sol",
  "buildInfoId": "solc-0_8_28-e6e634edc385ce91d02ff410210fe20e8fd80dbf"
}