{
  "_format": "hh3-artifact-1",
  "contractName": "TransferEscrow",
  "sourceName": "contracts/core/TransferEscrow.sol",
  "abi": [
    {
      "inputs": [],
      "stateMutability": "nonpayable",
      "type": "constructor"
    },
    {
      "inputs": [],
      "name": "AccessControlBadConfirmation",
      "type": "error"
    },
    {
      "inputs": [
        {
          "internalType": "address",
          "name": "account",
          "type": "address"
        },
        {
          "internalType": "bytes32",
          "name": "neededRole",
          "type": "bytes32"
        }
      ],
      "name": "AccessControlUnauthorizedAccount",
      "type": "error"
    },
    {
      "inputs": [
        {
          "internalType": "address",
          "name": "target",
          "type": "address"
        }
      ],
      "name": "AddressEmptyCode",
      "type": "error"
    },
    {
      "inputs": [],
      "name": "AlreadyHasActiveBid",
      "type": "error"
    },
    {
      "inputs": [],
      "name": "BanAlreadyActive",
      "type": "error"
    },
    {
      "inputs": [],
      "name": "BidCanOnlyBeUpdatedWhenNegotiating",
      "type": "error"
    },
    {
      "inputs": [],
      "name": "BidNotFound",
      "type": "error"
    },
    {
      "inputs": [
        {
          "internalType": "uint256",
          "name": "minimum",
          "type": "uint256"
        },
        {
          "internalType": "uint256",
          "name": "submitted",
          "type": "uint256"
        }
      ],
      "name": "BidNotHighEnough",
      "type": "error"
    },
    {
      "inputs": [],
      "name": "CannotBidOnOwnPlayer",
      "type": "error"
    },
    {
      "inputs": [],
      "name": "CannotHijackOwnDeal",
      "type": "error"
    },
    {
      "inputs": [],
      "name": "ClubTransferBanned",
      "type": "error"
    },
    {
      "inputs": [],
      "name": "DealIsFrozen",
      "type": "error"
    },
    {
      "inputs": [],
      "name": "DealNotFound",
      "type": "error"
    },
    {
      "inputs": [
        {
          "internalType": "address",
          "name": "implementation",
          "type": "address"
        }
      ],
      "name": "ERC1967InvalidImplementation",
      "type": "error"
    },
    {
      "inputs": [],
      "name": "ERC1967NonPayable",
      "type": "error"
    },
    {
      "inputs": [],
      "name": "EnforcedPause",
      "type": "error"
    },
    {
      "inputs": [],
      "name": "ExpectedPause",
      "type": "error"
    },
    {
      "inputs": [],
      "name": "FailedCall",
      "type": "error"
    },
    {
      "inputs": [],
      "name": "HijackWindowClosed",
      "type": "error"
    },
    {
      "inputs": [],
      "name": "InvalidAddress",
      "type": "error"
    },
    {
      "inputs": [],
      "name": "InvalidAmount",
      "type": "error"
    },
    {
      "inputs": [],
      "name": "InvalidBps",
      "type": "error"
    },
    {
      "inputs": [],
      "name": "InvalidInitialization",
      "type": "error"
    },
    {
      "inputs": [],
      "name": "MaxNegotiationRoundsReached",
      "type": "error"
    },
    {
      "inputs": [],
      "name": "MaxNegotiationsReached",
      "type": "error"
    },
    {
      "inputs": [],
      "name": "NoBanToDecrement",
      "type": "error"
    },
    {
      "inputs": [],
      "name": "NoBanToLift",
      "type": "error"
    },
    {
      "inputs": [],
      "name": "NoPendingTreasuryUpdate",
      "type": "error"
    },
    {
      "inputs": [],
      "name": "NotBuyingClub",
      "type": "error"
    },
    {
      "inputs": [],
      "name": "NotInitializing",
      "type": "error"
    },
    {
      "inputs": [],
      "name": "NotSellingClub",
      "type": "error"
    },
    {
      "inputs": [],
      "name": "NotYourTurnToCounter",
      "type": "error"
    },
    {
      "inputs": [],
      "name": "OfferNotFound",
      "type": "error"
    },
    {
      "inputs": [],
      "name": "PlayerHasActiveDeal",
      "type": "error"
    },
    {
      "inputs": [],
      "name": "PlayerHasActiveOffer",
      "type": "error"
    },
    {
      "inputs": [],
      "name": "PlayerNotVerified",
      "type": "error"
    },
    {
      "inputs": [],
      "name": "ProtocolFeeTooHigh",
      "type": "error"
    },
    {
      "inputs": [],
      "name": "ReentrantCall",
      "type": "error"
    },
    {
      "inputs": [
        {
          "internalType": "address",
          "name": "token",
          "type": "address"
        }
      ],
      "name": "SafeERC20FailedOperation",
      "type": "error"
    },
    {
      "inputs": [],
      "name": "TimerTooShort",
      "type": "error"
    },
    {
      "inputs": [],
      "name": "TokenAlreadyApproved",
      "type": "error"
    },
    {
      "inputs": [],
      "name": "TokenNotApproved",
      "type": "error"
    },
    {
      "inputs": [],
      "name": "TokenNotInList",
      "type": "error"
    },
    {
      "inputs": [],
      "name": "TooManyAddOns",
      "type": "error"
    },
    {
      "inputs": [],
      "name": "TransferWindowClosed",
      "type": "error"
    },
    {
      "inputs": [],
      "name": "TreasuryUpdateNotReady",
      "type": "error"
    },
    {
      "inputs": [],
      "name": "UUPSUnauthorizedCallContext",
      "type": "error"
    },
    {
      "inputs": [
        {
          "internalType": "bytes32",
          "name": "slot",
          "type": "bytes32"
        }
      ],
      "name": "UUPSUnsupportedProxiableUUID",
      "type": "error"
    },
    {
      "inputs": [],
      "name": "WrongDealState",
      "type": "error"
    },
    {
      "anonymous": false,
      "inputs": [
        {
          "indexed": true,
          "internalType": "uint256",
          "name": "dealId",
          "type": "uint256"
        },
        {
          "indexed": true,
          "internalType": "address",
          "name": "club",
          "type": "address"
        },
        {
          "indexed": false,
          "internalType": "uint256",
          "name": "amount",
          "type": "uint256"
        }
      ],
      "name": "AddOnDepositWithdrawn",
      "type": "event"
    },
    {
      "anonymous": false,
      "inputs": [
        {
          "indexed": true,
          "internalType": "address",
          "name": "club",
          "type": "address"
        },
        {
          "indexed": false,
          "internalType": "uint256",
          "name": "windowsRemaining",
          "type": "uint256"
        }
      ],
      "name": "BanWindowDecremented",
      "type": "event"
    },
    {
      "anonymous": false,
      "inputs": [
        {
          "indexed": true,
          "internalType": "uint256",
          "name": "offerId",
          "type": "uint256"
        },
        {
          "indexed": true,
          "internalType": "uint256",
          "name": "dealId",
          "type": "uint256"
        },
        {
          "indexed": true,
          "internalType": "address",
          "name": "buyingClub",
          "type": "address"
        }
      ],
      "name": "BidAccepted",
      "type": "event"
    },
    {
      "anonymous": false,
      "inputs": [
        {
          "indexed": true,
          "internalType": "uint256",
          "name": "offerId",
          "type": "uint256"
        },
        {
          "indexed": true,
          "internalType": "address",
          "name": "buyingClub",
          "type": "address"
        }
      ],
      "name": "BidActivated",
      "type": "event"
    },
    {
      "anonymous": false,
      "inputs": [
        {
          "indexed": true,
          "internalType": "uint256",
          "name": "offerId",
          "type": "uint256"
        },
        {
          "indexed": true,
          "internalType": "address",
          "name": "buyingClub",
          "type": "address"
        }
      ],
      "name": "BidRejected",
      "type": "event"
    },
    {
      "anonymous": false,
      "inputs": [
        {
          "indexed": true,
          "internalType": "uint256",
          "name": "offerId",
          "type": "uint256"
        },
        {
          "indexed": true,
          "internalType": "address",
          "name": "buyingClub",
          "type": "address"
        },
        {
          "indexed": false,
          "internalType": "uint256",
          "name": "transferFee",
          "type": "uint256"
        },
        {
          "indexed": false,
          "internalType": "enum TransferEscrow.BidStatus",
          "name": "status",
          "type": "uint8"
        }
      ],
      "name": "BidSubmitted",
      "type": "event"
    },
    {
      "anonymous": false,
      "inputs": [
        {
          "indexed": true,
          "internalType": "uint256",
          "name": "offerId",
          "type": "uint256"
        },
        {
          "indexed": true,
          "internalType": "address",
          "name": "buyingClub",
          "type": "address"
        },
        {
          "indexed": false,
          "internalType": "uint256",
          "name": "newTransferFee",
          "type": "uint256"
        }
      ],
      "name": "BidUpdated",
      "type": "event"
    },
    {
      "anonymous": false,
      "inputs": [
        {
          "indexed": true,
          "internalType": "uint256",
          "name": "offerId",
          "type": "uint256"
        },
        {
          "indexed": true,
          "internalType": "address",
          "name": "buyingClub",
          "type": "address"
        }
      ],
      "name": "BidWithdrawn",
      "type": "event"
    },
    {
      "anonymous": false,
      "inputs": [
        {
          "indexed": true,
          "internalType": "uint256",
          "name": "offerId",
          "type": "uint256"
        },
        {
          "indexed": true,
          "internalType": "address",
          "name": "from",
          "type": "address"
        },
        {
          "indexed": false,
          "internalType": "uint256",
          "name": "newFee",
          "type": "uint256"
        },
        {
          "indexed": false,
          "internalType": "uint256",
          "name": "round",
          "type": "uint256"
        }
      ],
      "name": "CounterOffer",
      "type": "event"
    },
    {
      "anonymous": false,
      "inputs": [
        {
          "indexed": true,
          "internalType": "uint256",
          "name": "dealId",
          "type": "uint256"
        },
        {
          "indexed": false,
          "internalType": "uint8",
          "name": "reason",
          "type": "uint8"
        }
      ],
      "name": "DealCancelled",
      "type": "event"
    },
    {
      "anonymous": false,
      "inputs": [
        {
          "indexed": false,
          "internalType": "uint64",
          "name": "version",
          "type": "uint64"
        }
      ],
      "name": "Initialized",
      "type": "event"
    },
    {
      "anonymous": false,
      "inputs": [
        {
          "indexed": true,
          "internalType": "uint256",
          "name": "dealId",
          "type": "uint256"
        }
      ],
      "name": "MutualCancelExpired",
      "type": "event"
    },
    {
      "anonymous": false,
      "inputs": [
        {
          "indexed": true,
          "internalType": "uint256",
          "name": "offerId",
          "type": "uint256"
        },
        {
          "indexed": true,
          "internalType": "uint256",
          "name": "playerId",
          "type": "uint256"
        },
        {
          "indexed": true,
          "internalType": "address",
          "name": "sellingClub",
          "type": "address"
        },
        {
          "indexed": false,
          "internalType": "uint256",
          "name": "askingPrice",
          "type": "uint256"
        }
      ],
      "name": "OfferCreated",
      "type": "event"
    },
    {
      "anonymous": false,
      "inputs": [
        {
          "indexed": true,
          "internalType": "uint256",
          "name": "offerId",
          "type": "uint256"
        },
        {
          "indexed": false,
          "internalType": "uint256",
          "name": "newAskingPrice",
          "type": "uint256"
        }
      ],
      "name": "OfferUpdated",
      "type": "event"
    },
    {
      "anonymous": false,
      "inputs": [
        {
          "indexed": true,
          "internalType": "uint256",
          "name": "offerId",
          "type": "uint256"
        }
      ],
      "name": "OfferWithdrawn",
      "type": "event"
    },
    {
      "anonymous": false,
      "inputs": [
        {
          "indexed": false,
          "internalType": "address",
          "name": "account",
          "type": "address"
        }
      ],
      "name": "Paused",
      "type": "event"
    },
    {
      "anonymous": false,
      "inputs": [
        {
          "indexed": false,
          "internalType": "uint256",
          "name": "bps",
          "type": "uint256"
        }
      ],
      "name": "ProtocolFeeUpdated",
      "type": "event"
    },
    {
      "anonymous": false,
      "inputs": [
        {
          "indexed": true,
          "internalType": "address",
          "name": "treasury",
          "type": "address"
        },
        {
          "indexed": true,
          "internalType": "address",
          "name": "token",
          "type": "address"
        },
        {
          "indexed": false,
          "internalType": "uint256",
          "name": "amount",
          "type": "uint256"
        }
      ],
      "name": "ProtocolFeesWithdrawn",
      "type": "event"
    },
    {
      "anonymous": false,
      "inputs": [
        {
          "indexed": true,
          "internalType": "address",
          "name": "newTreasury",
          "type": "address"
        },
        {
          "indexed": false,
          "internalType": "uint256",
          "name": "effectiveAt",
          "type": "uint256"
        }
      ],
      "name": "ProtocolTreasuryUpdateScheduled",
      "type": "event"
    },
    {
      "anonymous": false,
      "inputs": [
        {
          "indexed": true,
          "internalType": "address",
          "name": "oldTreasury",
          "type": "address"
        },
        {
          "indexed": true,
          "internalType": "address",
          "name": "newTreasury",
          "type": "address"
        }
      ],
      "name": "ProtocolTreasuryUpdated",
      "type": "event"
    },
    {
      "anonymous": false,
      "inputs": [
        {
          "indexed": true,
          "internalType": "bytes32",
          "name": "role",
          "type": "bytes32"
        },
        {
          "indexed": true,
          "internalType": "bytes32",
          "name": "previousAdminRole",
          "type": "bytes32"
        },
        {
          "indexed": true,
          "internalType": "bytes32",
          "name": "newAdminRole",
          "type": "bytes32"
        }
      ],
      "name": "RoleAdminChanged",
      "type": "event"
    },
    {
      "anonymous": false,
      "inputs": [
        {
          "indexed": true,
          "internalType": "bytes32",
          "name": "role",
          "type": "bytes32"
        },
        {
          "indexed": true,
          "internalType": "address",
          "name": "account",
          "type": "address"
        },
        {
          "indexed": true,
          "internalType": "address",
          "name": "sender",
          "type": "address"
        }
      ],
      "name": "RoleGranted",
      "type": "event"
    },
    {
      "anonymous": false,
      "inputs": [
        {
          "indexed": true,
          "internalType": "bytes32",
          "name": "role",
          "type": "bytes32"
        },
        {
          "indexed": true,
          "internalType": "address",
          "name": "account",
          "type": "address"
        },
        {
          "indexed": true,
          "internalType": "address",
          "name": "sender",
          "type": "address"
        }
      ],
      "name": "RoleRevoked",
      "type": "event"
    },
    {
      "anonymous": false,
      "inputs": [
        {
          "indexed": true,
          "internalType": "uint256",
          "name": "dealId",
          "type": "uint256"
        },
        {
          "indexed": true,
          "internalType": "address",
          "name": "to",
          "type": "address"
        },
        {
          "indexed": false,
          "internalType": "uint256",
          "name": "amount",
          "type": "uint256"
        }
      ],
      "name": "SigningBonusRescued",
      "type": "event"
    },
    {
      "anonymous": false,
      "inputs": [
        {
          "indexed": true,
          "internalType": "address",
          "name": "token",
          "type": "address"
        }
      ],
      "name": "TokenApproved",
      "type": "event"
    },
    {
      "anonymous": false,
      "inputs": [
        {
          "indexed": true,
          "internalType": "address",
          "name": "token",
          "type": "address"
        }
      ],
      "name": "TokenRevoked",
      "type": "event"
    },
    {
      "anonymous": false,
      "inputs": [
        {
          "indexed": true,
          "internalType": "address",
          "name": "club",
          "type": "address"
        },
        {
          "indexed": false,
          "internalType": "uint256",
          "name": "windows",
          "type": "uint256"
        }
      ],
      "name": "TransferBanIssued",
      "type": "event"
    },
    {
      "anonymous": false,
      "inputs": [
        {
          "indexed": true,
          "internalType": "address",
          "name": "club",
          "type": "address"
        }
      ],
      "name": "TransferBanLifted",
      "type": "event"
    },
    {
      "anonymous": false,
      "inputs": [
        {
          "indexed": true,
          "internalType": "address",
          "name": "newTreasury",
          "type": "address"
        }
      ],
      "name": "TreasuryUpdated",
      "type": "event"
    },
    {
      "anonymous": false,
      "inputs": [
        {
          "indexed": false,
          "internalType": "address",
          "name": "account",
          "type": "address"
        }
      ],
      "name": "Unpaused",
      "type": "event"
    },
    {
      "anonymous": false,
      "inputs": [
        {
          "indexed": true,
          "internalType": "address",
          "name": "implementation",
          "type": "address"
        }
      ],
      "name": "Upgraded",
      "type": "event"
    },
    {
      "inputs": [],
      "name": "ADMIN_ROLE",
      "outputs": [
        {
          "internalType": "bytes32",
          "name": "",
          "type": "bytes32"
        }
      ],
      "stateMutability": "view",
      "type": "function"
    },
    {
      "inputs": [],
      "name": "BPS_DENOMINATOR",
      "outputs": [
        {
          "internalType": "uint256",
          "name": "",
          "type": "uint256"
        }
      ],
      "stateMutability": "view",
      "type": "function"
    },
    {
      "inputs": [],
      "name": "CLUB_ROLE",
      "outputs": [
        {
          "internalType": "bytes32",
          "name": "",
          "type": "bytes32"
        }
      ],
      "stateMutability": "view",
      "type": "function"
    },
    {
      "inputs": [],
      "name": "DEFAULT_ADMIN_ROLE",
      "outputs": [
        {
          "internalType": "bytes32",
          "name": "",
          "type": "bytes32"
        }
      ],
      "stateMutability": "view",
      "type": "function"
    },
    {
      "inputs": [],
      "name": "HIJACK_FAIL_PENALTY_BPS",
      "outputs": [
        {
          "internalType": "uint256",
          "name": "",
          "type": "uint256"
        }
      ],
      "stateMutability": "view",
      "type": "function"
    },
    {
      "inputs": [],
      "name": "HIJACK_STALL_PENALTY_BPS",
      "outputs": [
        {
          "internalType": "uint256",
          "name": "",
          "type": "uint256"
        }
      ],
      "stateMutability": "view",
      "type": "function"
    },
    {
      "inputs": [],
      "name": "LEAGUE_DISPUTE_DEADLINE",
      "outputs": [
        {
          "internalType": "uint256",
          "name": "",
          "type": "uint256"
        }
      ],
      "stateMutability": "view",
      "type": "function"
    },
    {
      "inputs": [],
      "name": "LEAGUE_ROLE",
      "outputs": [
        {
          "internalType": "bytes32",
          "name": "",
          "type": "bytes32"
        }
      ],
      "stateMutability": "view",
      "type": "function"
    },
    {
      "inputs": [],
      "name": "MAX_ACTIVE_NEGOTIATIONS",
      "outputs": [
        {
          "internalType": "uint256",
          "name": "",
          "type": "uint256"
        }
      ],
      "stateMutability": "view",
      "type": "function"
    },
    {
      "inputs": [],
      "name": "MAX_ADDONS",
      "outputs": [
        {
          "internalType": "uint256",
          "name": "",
          "type": "uint256"
        }
      ],
      "stateMutability": "view",
      "type": "function"
    },
    {
      "inputs": [],
      "name": "MAX_AGENT_BPS",
      "outputs": [
        {
          "internalType": "uint256",
          "name": "",
          "type": "uint256"
        }
      ],
      "stateMutability": "view",
      "type": "function"
    },
    {
      "inputs": [],
      "name": "MAX_NEGOTIATION_ROUNDS",
      "outputs": [
        {
          "internalType": "uint256",
          "name": "",
          "type": "uint256"
        }
      ],
      "stateMutability": "view",
      "type": "function"
    },
    {
      "inputs": [],
      "name": "MAX_PRICE",
      "outputs": [
        {
          "internalType": "uint256",
          "name": "",
          "type": "uint256"
        }
      ],
      "stateMutability": "view",
      "type": "function"
    },
    {
      "inputs": [],
      "name": "MAX_SELL_ON_BPS",
      "outputs": [
        {
          "internalType": "uint256",
          "name": "",
          "type": "uint256"
        }
      ],
      "stateMutability": "view",
      "type": "function"
    },
    {
      "inputs": [],
      "name": "MAX_SIGNING_BONUS_MONTHS",
      "outputs": [
        {
          "internalType": "uint256",
          "name": "",
          "type": "uint256"
        }
      ],
      "stateMutability": "view",
      "type": "function"
    },
    {
      "inputs": [],
      "name": "MAX_TOTAL_BIDS_PER_OFFER",
      "outputs": [
        {
          "internalType": "uint256",
          "name": "",
          "type": "uint256"
        }
      ],
      "stateMutability": "view",
      "type": "function"
    },
    {
      "inputs": [],
      "name": "MIN_CONSENT_WINDOW",
      "outputs": [
        {
          "internalType": "uint256",
          "name": "",
          "type": "uint256"
        }
      ],
      "stateMutability": "view",
      "type": "function"
    },
    {
      "inputs": [],
      "name": "UPGRADE_INTERFACE_VERSION",
      "outputs": [
        {
          "internalType": "string",
          "name": "",
          "type": "string"
        }
      ],
      "stateMutability": "view",
      "type": "function"
    },
    {
      "inputs": [
        {
          "internalType": "uint256",
          "name": "offerId",
          "type": "uint256"
        },
        {
          "internalType": "address",
          "name": "buyingClub",
          "type": "address"
        }
      ],
      "name": "acceptBid",
      "outputs": [],
      "stateMutability": "nonpayable",
      "type": "function"
    },
    {
      "inputs": [],
      "name": "addressRegistry",
      "outputs": [
        {
          "internalType": "contract IAddressRegistry",
          "name": "",
          "type": "address"
        }
      ],
      "stateMutability": "view",
      "type": "function"
    },
    {
      "inputs": [
        {
          "internalType": "address",
          "name": "token",
          "type": "address"
        }
      ],
      "name": "approveToken",
      "outputs": [],
      "stateMutability": "nonpayable",
      "type": "function"
    },
    {
      "inputs": [],
      "name": "consentWindow",
      "outputs": [
        {
          "internalType": "uint256",
          "name": "",
          "type": "uint256"
        }
      ],
      "stateMutability": "view",
      "type": "function"
    },
    {
      "inputs": [
        {
          "internalType": "uint256",
          "name": "offerId",
          "type": "uint256"
        },
        {
          "internalType": "address",
          "name": "buyingClub",
          "type": "address"
        },
        {
          "internalType": "uint256",
          "name": "newTransferFee",
          "type": "uint256"
        },
        {
          "internalType": "uint256",
          "name": "newSellOnBps",
          "type": "uint256"
        },
        {
          "internalType": "address",
          "name": "newSellOnRecipient",
          "type": "address"
        },
        {
          "internalType": "uint256",
          "name": "newSellerAgentBps",
          "type": "uint256"
        },
        {
          "internalType": "address",
          "name": "newSellerAgent",
          "type": "address"
        }
      ],
      "name": "counterBid",
      "outputs": [],
      "stateMutability": "nonpayable",
      "type": "function"
    },
    {
      "inputs": [
        {
          "internalType": "uint256",
          "name": "playerId",
          "type": "uint256"
        },
        {
          "internalType": "address",
          "name": "paymentToken",
          "type": "address"
        },
        {
          "internalType": "uint256",
          "name": "askingPrice",
          "type": "uint256"
        },
        {
          "internalType": "uint256",
          "name": "sellOnBps",
          "type": "uint256"
        },
        {
          "internalType": "address",
          "name": "sellOnRecipient",
          "type": "address"
        },
        {
          "internalType": "uint256",
          "name": "sellerAgentBps",
          "type": "uint256"
        },
        {
          "internalType": "address",
          "name": "sellerAgent",
          "type": "address"
        },
        {
          "internalType": "uint256",
          "name": "minimumHijackIncrementBps",
          "type": "uint256"
        },
        {
          "components": [
            {
              "internalType": "string",
              "name": "description",
              "type": "string"
            },
            {
              "internalType": "uint256",
              "name": "amount",
              "type": "uint256"
            },
            {
              "internalType": "bool",
              "name": "toPlayer",
              "type": "bool"
            },
            {
              "internalType": "bool",
              "name": "triggered",
              "type": "bool"
            }
          ],
          "internalType": "struct TransferTypes.AddOn[]",
          "name": "addOns",
          "type": "tuple[]"
        }
      ],
      "name": "createOffer",
      "outputs": [
        {
          "internalType": "uint256",
          "name": "offerId",
          "type": "uint256"
        }
      ],
      "stateMutability": "nonpayable",
      "type": "function"
    },
    {
      "inputs": [],
      "name": "dealEscrow",
      "outputs": [
        {
          "internalType": "contract IDealEscrow",
          "name": "",
          "type": "address"
        }
      ],
      "stateMutability": "view",
      "type": "function"
    },
    {
      "inputs": [],
      "name": "executeProtocolTreasuryUpdate",
      "outputs": [],
      "stateMutability": "nonpayable",
      "type": "function"
    },
    {
      "inputs": [
        {
          "internalType": "uint256",
          "name": "dealId",
          "type": "uint256"
        }
      ],
      "name": "expireMutualCancel",
      "outputs": [],
      "stateMutability": "nonpayable",
      "type": "function"
    },
    {
      "inputs": [
        {
          "internalType": "uint256",
          "name": "offerId",
          "type": "uint256"
        }
      ],
      "name": "getAllBids",
      "outputs": [
        {
          "components": [
            {
              "internalType": "uint256",
              "name": "offerId",
              "type": "uint256"
            },
            {
              "internalType": "address",
              "name": "buyingClub",
              "type": "address"
            },
            {
              "internalType": "address",
              "name": "paymentToken",
              "type": "address"
            },
            {
              "internalType": "uint256",
              "name": "transferFee",
              "type": "uint256"
            },
            {
              "internalType": "uint256",
              "name": "sellOnBps",
              "type": "uint256"
            },
            {
              "internalType": "address",
              "name": "sellOnRecipient",
              "type": "address"
            },
            {
              "internalType": "uint256",
              "name": "sellerAgentBps",
              "type": "uint256"
            },
            {
              "internalType": "address",
              "name": "sellerAgent",
              "type": "address"
            },
            {
              "internalType": "uint256",
              "name": "buyerAgentBps",
              "type": "uint256"
            },
            {
              "internalType": "address",
              "name": "buyerAgent",
              "type": "address"
            },
            {
              "internalType": "uint256",
              "name": "signingBonusMonths",
              "type": "uint256"
            },
            {
              "internalType": "uint256[]",
              "name": "installmentAmounts",
              "type": "uint256[]"
            },
            {
              "internalType": "uint256[]",
              "name": "installmentDueDates",
              "type": "uint256[]"
            },
            {
              "internalType": "uint256",
              "name": "submittedAt",
              "type": "uint256"
            },
            {
              "internalType": "uint256",
              "name": "updatedAt",
              "type": "uint256"
            },
            {
              "internalType": "uint256",
              "name": "roundNumber",
              "type": "uint256"
            },
            {
              "internalType": "bool",
              "name": "isCounterFromSeller",
              "type": "bool"
            },
            {
              "internalType": "enum TransferEscrow.BidStatus",
              "name": "status",
              "type": "uint8"
            }
          ],
          "internalType": "struct TransferEscrow.Bid[]",
          "name": "",
          "type": "tuple[]"
        }
      ],
      "stateMutability": "view",
      "type": "function"
    },
    {
      "inputs": [],
      "name": "getApprovedTokens",
      "outputs": [
        {
          "internalType": "address[]",
          "name": "",
          "type": "address[]"
        }
      ],
      "stateMutability": "view",
      "type": "function"
    },
    {
      "inputs": [
        {
          "internalType": "uint256",
          "name": "offerId",
          "type": "uint256"
        },
        {
          "internalType": "address",
          "name": "buyingClub",
          "type": "address"
        }
      ],
      "name": "getBid",
      "outputs": [
        {
          "components": [
            {
              "internalType": "uint256",
              "name": "offerId",
              "type": "uint256"
            },
            {
              "internalType": "address",
              "name": "buyingClub",
              "type": "address"
            },
            {
              "internalType": "address",
              "name": "paymentToken",
              "type": "address"
            },
            {
              "internalType": "uint256",
              "name": "transferFee",
              "type": "uint256"
            },
            {
              "internalType": "uint256",
              "name": "sellOnBps",
              "type": "uint256"
            },
            {
              "internalType": "address",
              "name": "sellOnRecipient",
              "type": "address"
            },
            {
              "internalType": "uint256",
              "name": "sellerAgentBps",
              "type": "uint256"
            },
            {
              "internalType": "address",
              "name": "sellerAgent",
              "type": "address"
            },
            {
              "internalType": "uint256",
              "name": "buyerAgentBps",
              "type": "uint256"
            },
            {
              "internalType": "address",
              "name": "buyerAgent",
              "type": "address"
            },
            {
              "internalType": "uint256",
              "name": "signingBonusMonths",
              "type": "uint256"
            },
            {
              "internalType": "uint256[]",
              "name": "installmentAmounts",
              "type": "uint256[]"
            },
            {
              "internalType": "uint256[]",
              "name": "installmentDueDates",
              "type": "uint256[]"
            },
            {
              "internalType": "uint256",
              "name": "submittedAt",
              "type": "uint256"
            },
            {
              "internalType": "uint256",
              "name": "updatedAt",
              "type": "uint256"
            },
            {
              "internalType": "uint256",
              "name": "roundNumber",
              "type": "uint256"
            },
            {
              "internalType": "bool",
              "name": "isCounterFromSeller",
              "type": "bool"
            },
            {
              "internalType": "enum TransferEscrow.BidStatus",
              "name": "status",
              "type": "uint8"
            }
          ],
          "internalType": "struct TransferEscrow.Bid",
          "name": "",
          "type": "tuple"
        }
      ],
      "stateMutability": "view",
      "type": "function"
    },
    {
      "inputs": [
        {
          "internalType": "uint256",
          "name": "offerId",
          "type": "uint256"
        }
      ],
      "name": "getBidCount",
      "outputs": [
        {
          "internalType": "uint256",
          "name": "",
          "type": "uint256"
        }
      ],
      "stateMutability": "view",
      "type": "function"
    },
    {
      "inputs": [
        {
          "internalType": "uint256",
          "name": "offerId",
          "type": "uint256"
        }
      ],
      "name": "getOffer",
      "outputs": [
        {
          "components": [
            {
              "internalType": "uint256",
              "name": "playerId",
              "type": "uint256"
            },
            {
              "internalType": "address",
              "name": "sellingClub",
              "type": "address"
            },
            {
              "internalType": "address",
              "name": "paymentToken",
              "type": "address"
            },
            {
              "internalType": "uint256",
              "name": "askingPrice",
              "type": "uint256"
            },
            {
              "internalType": "uint256",
              "name": "sellOnBps",
              "type": "uint256"
            },
            {
              "internalType": "address",
              "name": "sellOnRecipient",
              "type": "address"
            },
            {
              "internalType": "uint256",
              "name": "sellerAgentBps",
              "type": "uint256"
            },
            {
              "internalType": "address",
              "name": "sellerAgent",
              "type": "address"
            },
            {
              "internalType": "uint256",
              "name": "minimumHijackIncrementBps",
              "type": "uint256"
            },
            {
              "internalType": "uint256",
              "name": "createdAt",
              "type": "uint256"
            },
            {
              "internalType": "uint256",
              "name": "activeNegotiations",
              "type": "uint256"
            },
            {
              "internalType": "bool",
              "name": "exists",
              "type": "bool"
            }
          ],
          "internalType": "struct TransferEscrow.Offer",
          "name": "",
          "type": "tuple"
        }
      ],
      "stateMutability": "view",
      "type": "function"
    },
    {
      "inputs": [
        {
          "internalType": "uint256",
          "name": "offerId",
          "type": "uint256"
        }
      ],
      "name": "getOfferAddOns",
      "outputs": [
        {
          "components": [
            {
              "internalType": "string",
              "name": "description",
              "type": "string"
            },
            {
              "internalType": "uint256",
              "name": "amount",
              "type": "uint256"
            },
            {
              "internalType": "bool",
              "name": "toPlayer",
              "type": "bool"
            },
            {
              "internalType": "bool",
              "name": "triggered",
              "type": "bool"
            }
          ],
          "internalType": "struct TransferTypes.AddOn[]",
          "name": "",
          "type": "tuple[]"
        }
      ],
      "stateMutability": "view",
      "type": "function"
    },
    {
      "inputs": [
        {
          "internalType": "uint256",
          "name": "playerId",
          "type": "uint256"
        }
      ],
      "name": "getPlayerDeal",
      "outputs": [
        {
          "internalType": "uint256",
          "name": "",
          "type": "uint256"
        }
      ],
      "stateMutability": "view",
      "type": "function"
    },
    {
      "inputs": [
        {
          "internalType": "uint256",
          "name": "playerId",
          "type": "uint256"
        }
      ],
      "name": "getPlayerOffer",
      "outputs": [
        {
          "internalType": "uint256",
          "name": "",
          "type": "uint256"
        }
      ],
      "stateMutability": "view",
      "type": "function"
    },
    {
      "inputs": [
        {
          "internalType": "bytes32",
          "name": "role",
          "type": "bytes32"
        }
      ],
      "name": "getRoleAdmin",
      "outputs": [
        {
          "internalType": "bytes32",
          "name": "",
          "type": "bytes32"
        }
      ],
      "stateMutability": "view",
      "type": "function"
    },
    {
      "inputs": [
        {
          "internalType": "address",
          "name": "club",
          "type": "address"
        }
      ],
      "name": "getTransferBan",
      "outputs": [
        {
          "components": [
            {
              "internalType": "uint256",
              "name": "windowsRemaining",
              "type": "uint256"
            },
            {
              "internalType": "bool",
              "name": "active",
              "type": "bool"
            }
          ],
          "internalType": "struct TransferEscrow.TransferBan",
          "name": "",
          "type": "tuple"
        }
      ],
      "stateMutability": "view",
      "type": "function"
    },
    {
      "inputs": [
        {
          "internalType": "bytes32",
          "name": "role",
          "type": "bytes32"
        },
        {
          "internalType": "address",
          "name": "account",
          "type": "address"
        }
      ],
      "name": "grantRole",
      "outputs": [],
      "stateMutability": "nonpayable",
      "type": "function"
    },
    {
      "inputs": [
        {
          "internalType": "bytes32",
          "name": "role",
          "type": "bytes32"
        },
        {
          "internalType": "address",
          "name": "account",
          "type": "address"
        }
      ],
      "name": "hasRole",
      "outputs": [
        {
          "internalType": "bool",
          "name": "",
          "type": "bool"
        }
      ],
      "stateMutability": "view",
      "type": "function"
    },
    {
      "inputs": [
        {
          "internalType": "address",
          "name": "_playerRegistry",
          "type": "address"
        },
        {
          "internalType": "address",
          "name": "_addressRegistry",
          "type": "address"
        },
        {
          "internalType": "address",
          "name": "_dealEscrow",
          "type": "address"
        },
        {
          "internalType": "address",
          "name": "_treasury",
          "type": "address"
        },
        {
          "internalType": "address",
          "name": "_admin",
          "type": "address"
        }
      ],
      "name": "initialize",
      "outputs": [],
      "stateMutability": "nonpayable",
      "type": "function"
    },
    {
      "inputs": [
        {
          "internalType": "address",
          "name": "token",
          "type": "address"
        }
      ],
      "name": "isTokenApproved",
      "outputs": [
        {
          "internalType": "bool",
          "name": "",
          "type": "bool"
        }
      ],
      "stateMutability": "view",
      "type": "function"
    },
    {
      "inputs": [
        {
          "internalType": "address",
          "name": "club",
          "type": "address"
        },
        {
          "internalType": "uint256",
          "name": "windows",
          "type": "uint256"
        }
      ],
      "name": "issueBan",
      "outputs": [],
      "stateMutability": "nonpayable",
      "type": "function"
    },
    {
      "inputs": [
        {
          "internalType": "address",
          "name": "club",
          "type": "address"
        }
      ],
      "name": "liftBan",
      "outputs": [],
      "stateMutability": "nonpayable",
      "type": "function"
    },
    {
      "inputs": [],
      "name": "pause",
      "outputs": [],
      "stateMutability": "nonpayable",
      "type": "function"
    },
    {
      "inputs": [],
      "name": "paused",
      "outputs": [
        {
          "internalType": "bool",
          "name": "",
          "type": "bool"
        }
      ],
      "stateMutability": "view",
      "type": "function"
    },
    {
      "inputs": [],
      "name": "pendingTreasury",
      "outputs": [
        {
          "internalType": "address",
          "name": "",
          "type": "address"
        },
        {
          "internalType": "uint256",
          "name": "",
          "type": "uint256"
        }
      ],
      "stateMutability": "view",
      "type": "function"
    },
    {
      "inputs": [],
      "name": "playerRegistry",
      "outputs": [
        {
          "internalType": "contract IPlayerRegistry",
          "name": "",
          "type": "address"
        }
      ],
      "stateMutability": "view",
      "type": "function"
    },
    {
      "inputs": [
        {
          "internalType": "uint256",
          "name": "dealId",
          "type": "uint256"
        }
      ],
      "name": "processExpiry",
      "outputs": [],
      "stateMutability": "nonpayable",
      "type": "function"
    },
    {
      "inputs": [
        {
          "internalType": "address[]",
          "name": "bannedClubs",
          "type": "address[]"
        }
      ],
      "name": "processNewWindow",
      "outputs": [],
      "stateMutability": "nonpayable",
      "type": "function"
    },
    {
      "inputs": [],
      "name": "protocolFeeBps",
      "outputs": [
        {
          "internalType": "uint256",
          "name": "",
          "type": "uint256"
        }
      ],
      "stateMutability": "view",
      "type": "function"
    },
    {
      "inputs": [],
      "name": "proxiableUUID",
      "outputs": [
        {
          "internalType": "bytes32",
          "name": "",
          "type": "bytes32"
        }
      ],
      "stateMutability": "view",
      "type": "function"
    },
    {
      "inputs": [
        {
          "internalType": "uint256",
          "name": "offerId",
          "type": "uint256"
        },
        {
          "internalType": "address",
          "name": "buyingClub",
          "type": "address"
        }
      ],
      "name": "rejectBid",
      "outputs": [],
      "stateMutability": "nonpayable",
      "type": "function"
    },
    {
      "inputs": [
        {
          "internalType": "bytes32",
          "name": "role",
          "type": "bytes32"
        },
        {
          "internalType": "address",
          "name": "callerConfirmation",
          "type": "address"
        }
      ],
      "name": "renounceRole",
      "outputs": [],
      "stateMutability": "nonpayable",
      "type": "function"
    },
    {
      "inputs": [
        {
          "internalType": "uint256",
          "name": "dealId",
          "type": "uint256"
        }
      ],
      "name": "rescueSigningBonus",
      "outputs": [],
      "stateMutability": "nonpayable",
      "type": "function"
    },
    {
      "inputs": [
        {
          "internalType": "uint256",
          "name": "dealId",
          "type": "uint256"
        },
        {
          "internalType": "uint8",
          "name": "op",
          "type": "uint8"
        },
        {
          "internalType": "uint256",
          "name": "newFee",
          "type": "uint256"
        }
      ],
      "name": "resolveDeadlock",
      "outputs": [],
      "stateMutability": "nonpayable",
      "type": "function"
    },
    {
      "inputs": [
        {
          "internalType": "bytes32",
          "name": "role",
          "type": "bytes32"
        },
        {
          "internalType": "address",
          "name": "account",
          "type": "address"
        }
      ],
      "name": "revokeRole",
      "outputs": [],
      "stateMutability": "nonpayable",
      "type": "function"
    },
    {
      "inputs": [
        {
          "internalType": "address",
          "name": "token",
          "type": "address"
        }
      ],
      "name": "revokeToken",
      "outputs": [],
      "stateMutability": "nonpayable",
      "type": "function"
    },
    {
      "inputs": [
        {
          "internalType": "address",
          "name": "newTreasury",
          "type": "address"
        }
      ],
      "name": "scheduleProtocolTreasuryUpdate",
      "outputs": [],
      "stateMutability": "nonpayable",
      "type": "function"
    },
    {
      "inputs": [
        {
          "internalType": "uint256",
          "name": "duration",
          "type": "uint256"
        }
      ],
      "name": "setConsentWindow",
      "outputs": [],
      "stateMutability": "nonpayable",
      "type": "function"
    },
    {
      "inputs": [
        {
          "internalType": "uint256",
          "name": "bps",
          "type": "uint256"
        }
      ],
      "name": "setProtocolFee",
      "outputs": [],
      "stateMutability": "nonpayable",
      "type": "function"
    },
    {
      "inputs": [
        {
          "internalType": "uint256",
          "name": "offerId",
          "type": "uint256"
        },
        {
          "internalType": "uint256",
          "name": "transferFee",
          "type": "uint256"
        },
        {
          "internalType": "uint256",
          "name": "sellOnBps",
          "type": "uint256"
        },
        {
          "internalType": "address",
          "name": "sellOnRecipient",
          "type": "address"
        },
        {
          "internalType": "uint256",
          "name": "sellerAgentBps",
          "type": "uint256"
        },
        {
          "internalType": "address",
          "name": "sellerAgent",
          "type": "address"
        },
        {
          "internalType": "uint256",
          "name": "buyerAgentBps",
          "type": "uint256"
        },
        {
          "internalType": "address",
          "name": "buyerAgent",
          "type": "address"
        },
        {
          "internalType": "uint256",
          "name": "signingBonusMonths",
          "type": "uint256"
        },
        {
          "internalType": "uint256[]",
          "name": "installmentAmounts",
          "type": "uint256[]"
        },
        {
          "internalType": "uint256[]",
          "name": "installmentDueDates",
          "type": "uint256[]"
        }
      ],
      "name": "submitBid",
      "outputs": [],
      "stateMutability": "nonpayable",
      "type": "function"
    },
    {
      "inputs": [
        {
          "internalType": "uint256",
          "name": "dealId",
          "type": "uint256"
        },
        {
          "internalType": "uint256",
          "name": "transferFee",
          "type": "uint256"
        },
        {
          "internalType": "uint256",
          "name": "buyerAgentBps",
          "type": "uint256"
        },
        {
          "internalType": "address",
          "name": "buyerAgent",
          "type": "address"
        },
        {
          "internalType": "uint256",
          "name": "signingBonusMonths",
          "type": "uint256"
        }
      ],
      "name": "submitHijackBid",
      "outputs": [],
      "stateMutability": "nonpayable",
      "type": "function"
    },
    {
      "inputs": [
        {
          "internalType": "bytes4",
          "name": "interfaceId",
          "type": "bytes4"
        }
      ],
      "name": "supportsInterface",
      "outputs": [
        {
          "internalType": "bool",
          "name": "",
          "type": "bool"
        }
      ],
      "stateMutability": "view",
      "type": "function"
    },
    {
      "inputs": [],
      "name": "totalOffers",
      "outputs": [
        {
          "internalType": "uint256",
          "name": "",
          "type": "uint256"
        }
      ],
      "stateMutability": "view",
      "type": "function"
    },
    {
      "inputs": [],
      "name": "treasury",
      "outputs": [
        {
          "internalType": "address",
          "name": "",
          "type": "address"
        }
      ],
      "stateMutability": "view",
      "type": "function"
    },
    {
      "inputs": [],
      "name": "unpause",
      "outputs": [],
      "stateMutability": "nonpayable",
      "type": "function"
    },
    {
      "inputs": [
        {
          "internalType": "uint256",
          "name": "offerId",
          "type": "uint256"
        },
        {
          "internalType": "uint256",
          "name": "newTransferFee",
          "type": "uint256"
        },
        {
          "internalType": "uint256",
          "name": "newSellOnBps",
          "type": "uint256"
        },
        {
          "internalType": "address",
          "name": "newSellOnRecipient",
          "type": "address"
        },
        {
          "internalType": "uint256",
          "name": "newSellerAgentBps",
          "type": "uint256"
        },
        {
          "internalType": "address",
          "name": "newSellerAgent",
          "type": "address"
        },
        {
          "internalType": "uint256",
          "name": "newBuyerAgentBps",
          "type": "uint256"
        },
        {
          "internalType": "address",
          "name": "newBuyerAgent",
          "type": "address"
        },
        {
          "internalType": "uint256",
          "name": "newSalaryGuaranteeMonths",
          "type": "uint256"
        },
        {
          "internalType": "uint256[]",
          "name": "newInstallmentAmounts",
          "type": "uint256[]"
        },
        {
          "internalType": "uint256[]",
          "name": "newInstallmentDueDates",
          "type": "uint256[]"
        }
      ],
      "name": "updateBid",
      "outputs": [],
      "stateMutability": "nonpayable",
      "type": "function"
    },
    {
      "inputs": [
        {
          "internalType": "uint256",
          "name": "offerId",
          "type": "uint256"
        },
        {
          "internalType": "uint256",
          "name": "newAskingPrice",
          "type": "uint256"
        },
        {
          "internalType": "uint256",
          "name": "newSellOnBps",
          "type": "uint256"
        },
        {
          "internalType": "address",
          "name": "newSellOnRecipient",
          "type": "address"
        },
        {
          "internalType": "uint256",
          "name": "newSellerAgentBps",
          "type": "uint256"
        },
        {
          "internalType": "address",
          "name": "newSellerAgent",
          "type": "address"
        },
        {
          "internalType": "uint256",
          "name": "newMinimumHijackIncrementBps",
          "type": "uint256"
        }
      ],
      "name": "updateOffer",
      "outputs": [],
      "stateMutability": "nonpayable",
      "type": "function"
    },
    {
      "inputs": [
        {
          "internalType": "address",
          "name": "newImplementation",
          "type": "address"
        },
        {
          "internalType": "bytes",
          "name": "data",
          "type": "bytes"
        }
      ],
      "name": "upgradeToAndCall",
      "outputs": [],
      "stateMutability": "payable",
      "type": "function"
    },
    {
      "inputs": [
        {
          "internalType": "uint256",
          "name": "dealId",
          "type": "uint256"
        }
      ],
      "name": "walkAwayFromRenegotiation",
      "outputs": [],
      "stateMutability": "nonpayable",
      "type": "function"
    },
    {
      "inputs": [
        {
          "internalType": "uint256",
          "name": "dealId",
          "type": "uint256"
        },
        {
          "internalType": "uint256",
          "name": "amount",
          "type": "uint256"
        }
      ],
      "name": "withdrawAddOnDeposit",
      "outputs": [],
      "stateMutability": "nonpayable",
      "type": "function"
    },
    {
      "inputs": [
        {
          "internalType": "uint256",
          "name": "offerId",
          "type": "uint256"
        }
      ],
      "name": "withdrawBid",
      "outputs": [],
      "stateMutability": "nonpayable",
      "type": "function"
    },
    {
      "inputs": [
        {
          "internalType": "uint256",
          "name": "offerId",
          "type": "uint256"
        }
      ],
      "name": "withdrawOffer",
      "outputs": [],
      "stateMutability": "nonpayable",
      "type": "function"
    }
  ],
  "bytecode": "0x60a080604052346100c257306080525f516020615f4c5f395f51905f525460ff8160401c166100b3576002600160401b03196001600160401b03821601610060575b604051615e8590816100c7823960805181818161272001526129110152f35b6001600160401b0319166001600160401b039081175f516020615f4c5f395f51905f525581527fc7f505b2f371ae2175ee4913f4499e1f2633a7b5936321eed1cdaeb6115181d290602090a15f80610041565b63f92ee8a960e01b5f5260045ffd5b5f80fdfe60a0806040526004361015610012575f80fd5b5f905f3560e01c90816301c11d9614614d185750806301ffc9a714614cc257806302068664146146d35780630633ee9f146141e15780630c102071146141c65780630eaaf4c8146140705780631459457a14613e53578063196599ec14613b43578063248a9ca314613b1c5780632bbda320146139375780632ce05d031461391a5780632ed6b75d146138ed5780632f2ff15d146138bb57806335659fb81461389d57806336568abe146138585780633677277c1461383a5780633da3ca2f1461368a5780633f4ba83a1461360a5780633f8f6fb614612d8e5780634579268a14612bc65780634628bd6b14612baa57806347d2215914612b0f5780634c74ef9c14612ae65780634f1ef286146128985780635040e94e1461279e578063515ac0d61461277457806352d1902d1461270d57806353c15ac2146126f15780635c975abb146126c25780635d205f7c1461258657806360e49e441461255e578063614d2c36146123ac57806361d027b314612385578063625fa9d9146123685780636afc0c5f146122a0578063744d34111461227657806375b238fc1461224e578063787dce3d146121e757806378fc263e146121c957806380b2edd8146120fc57806380cd2e65146120c157806382c88d4f14611fb15780638456cb5914611f3e5780638610f04514611e7c578063892b38c214611e605780638a7a229614611e435780638d13c1b814611e2757806391d1485414611dd1578063933f4eef14611c7957806393fd18e91461187f5780639d93d352146118405780639f3bbd1d14611823578063a0d5e2a514611751578063a217fddf14611735578063a528ff83146114b5578063a9fd8ed114611497578063ad3cb1cc1461144e578063b417c7da146113dc578063b76d6647146113b3578063b9ebd9f814611208578063bad7259a14610dfc578063bfadc8f914610d60578063cbeae2b414610bd1578063d547741f14610b96578063e004c0e414610911578063e088ea64146106a0578063e1a4521814610683578063eba1b60b146104d3578063ebb5232f146104b7578063f3ad65f41461048e578063f3ee48bb146103e8578063f6a220b81461036b5763fc8045b114610341575f80fd5b3461036857806003193601126103685760206040515f516020615e305f395f51905f528152f35b80fd5b503461036857602036600319011261036857610385614d51565b61038d6157bf565b6001600160a01b03168082526012602052604082206001015460ff16156103d957808252601260205260408220600101805460ff191690555f516020615dd05f395f51905f528280a280f35b63e4793f3960e01b8252600482fd5b503461036857602036600319011261036857610402614d51565b61040a615776565b6001600160a01b0316801561047f57600280546001600160a01b03191682179055426202a300810190811061046b576020817f686003c563ac6d53a1e0d2aea06fc73beb941f8f05f3463b33b607717aabc67f92600355604051908152a280f35b634e487b7160e01b83526011600452602483fd5b63e6c4247b60e01b8252600482fd5b50346103685780600319360112610368576007546040516001600160a01b039091168152602090f35b5034610368578060031936011261036857602060405160038152f35b5034610368576040366003190112610368576004356104f0614d3b565b906104f961565b565b50808352600a60205260408320600101546001600160a01b031633141580610670575b610661578252600c602052604082209060018060a01b03165f5260205260405f2060ff60106040519261054e84614e82565b8054845260018101546001600160a01b03908116602086015260028201548116604086015260038201546060860152600482015460808601526005820154811660a0860152600682015460c08601526007820154811660e08601526008820154610100860152600982015416610120850152600a8101546101408501526105d7600b82016152ab565b6101608501526105e9600c82016152ab565b610180850152600d8101546101a0850152600e8101546101c0850152600f8101546101e08501520154818116151561020084015260081c16600681101561064d576106499250610220820152604051918291602083526020830190614f53565b0390f35b634e487b7160e01b83526021600452602483fd5b6303e2f0f360e51b8352600483fd5b50336001600160a01b038316141561051c565b503461036857806003193601126103685760206040516127108152f35b503461036857606036600319011261036857600435906024359160ff831680930361090d57604435926106d16156f3565b6002600454146108fe5760026004556106e86157bf565b600854604051634f0df86560e01b8152600481018490526001600160a01b03909116919061010081602481865afa9081156108f35785916108c4575b508051156108b55760c0015160128110156108a15760ff600891160361089257806107c457505060085491925082916001600160a01b031690813b156107c057829160448392604051948593849263029bc34f60e41b84526004840152600160248401525af180156107b5576107a0575b50505b600160045580f35b816107aa91614ed5565b61036857805f610795565b6040513d84823e3d90fd5b5050fd5b6001810361083257505060085491925082916001600160a01b031690813b156107c057829160448392604051948593849262468c3560e51b845260048401528160248401525af180156107b55761081d575b5050610798565b8161082791614ed5565b61036857805f610816565b909190600203610883578315610883578293823b1561087e576044849283604051958694859362468c3560e51b8552600485015260248401525af180156107b55761081d575050610798565b505050fd5b63162908e360e11b8352600483fd5b6372c24c3560e01b8452600484fd5b634e487b7160e01b85526021600452602485fd5b63223da47360e21b8552600485fd5b6108e691506101003d81116108ec575b6108de8183614ed5565b8101906154b1565b5f610724565b503d6108d4565b6040513d87823e3d90fd5b6306fda65d60e31b8352600483fd5b5080fd5b50346103685760e03660031901126103685760043561092e614d3b565b90604435916064359061093f614d7d565b60a4359161094b614d93565b906109546156f3565b600260045414610b87576002600455858852600a60205260ff600b60408a2001541615610b7857858852600a60205260408820600101546001600160a01b03163303610b6957858852600c602052604088209060018060a01b03165f5260205260405f2092601084019283549560ff8760081c166006811015610b5557600203610b4657600f860196600388541015610b375760ff16610b285788158015610b14575b610b05576107d08111610ae55780151580610af4575b610ac55761012c8311610ae55782151580610ad4575b610ac5576003860189905560048601556005850180546001600160a01b03199081166001600160a01b0393841617909155600686019290925560078501805490921692169190911790558254610a7890615497565b809355600160ff19825416179055600e4291015560405192835260208301527f0e53c40e73f19e7c2b351d1ccd74559419b70233453c899e9cbb4d1c82b8c60660403393a3600160045580f35b63e6c4247b60e01b8a5260048afd5b506001600160a01b03841615610a23565b63c6cc5d7f60e01b8a5260048afd5b506001600160a01b03821615610a0d565b63162908e360e11b8a5260048afd5b50676765c793fa10079d601a1b89116109f7565b63262fa5e160e11b8a5260048afd5b63538a58a760e01b8b5260048bfd5b6307e0eec960e31b8a5260048afd5b634e487b7160e01b8b52602160045260248bfd5b6303e2f0f360e51b8852600488fd5b636df5846d60e01b8852600488fd5b6306fda65d60e31b8852600488fd5b503461036857604036600319011261036857610bcd600435610bb6614d3b565b90610bc8610bc38261554e565b615808565b615b5c565b5080f35b503461036857602036600319011261036857600435808252600a60205260ff600b6040842001541615610d51578152600b602052604081208054610c1481615644565b90610c226040519283614ed5565b8082526020820190819385526020852085925b828410610ccc57868587604051928392602084019060208552518091526040840160408260051b8601019392905b828210610c7257505050500390f35b919360019193955060208091603f19898203018552875190606080610ca08451608085526080850190615066565b938581015186850152604081015115156040850152015115159101529601920192018594939192610c63565b604051608081016001600160401b03811182821017610d3d57600192600392602092604052604051610d0981610d02818a61536b565b0382614ed5565b8152848601548382015260ff60028701548181161515604084015260081c1615156060820152815201920193019290610c35565b634e487b7160e01b89526041600452602489fd5b636df5846d60e01b8252600482fd5b50346103685760203660031901126103685760085460405163bfadc8f960e01b815260048035908201529190602090839060249082906001600160a01b03165afa908115610df05790610db9575b602090604051908152f35b506020813d602011610de8575b81610dd360209383614ed5565b81010312610de45760209051610dae565b5f80fd5b3d9150610dc6565b604051903d90823e3d90fd5b503461036857602036600319011261036857600435906002600454146111f95760026004908155600854604051630f8f795960e01b81529182018490526001600160a01b03169060c081602481855afa80156111ee57838490859386936111b4575b50156108b5576111a5578015610892574211156111965760ff1660058114801561118c575b15610edc575050600854909182916001600160a01b031690813b156107c057829160448392604051948593849263029bc34f60e41b84526004840152600860248401525af180156107b5576107a0575050600160045580f35b60068103610f35575050600854909182916001600160a01b031690813b156107c057829160448392604051948593849263029bc34f60e41b84526004840152600960248401525af180156107b55761081d575050610798565b600b8103610f8e575050600854909182916001600160a01b031690813b156107c057829160448392604051948593849263029bc34f60e41b84526004840152600a60248401525af180156107b55761081d575050610798565b60078103610fe7575050600854909182916001600160a01b031690813b156107c057829160448392604051948593849263029bc34f60e41b84526004840152600b60248401525af180156107b55761081d575050610798565b60088103611040575050600854909182916001600160a01b031690813b156107c057829160448392604051948593849263029bc34f60e41b84526004840152600c60248401525af180156107b55761081d575050610798565b60098103611092575050600854909182916001600160a01b031690813b156107c0578291602483926040519485938492631ebee42560e11b845260048401525af180156107b55761081d575050610798565b600e81036110e4575050600854909182916001600160a01b031690813b156107c0578291602483926040519485938492639bf437df60e01b845260048401525af180156107b55761081d575050610798565b600f8103611136575050600854909182916001600160a01b031690813b156107c0578291602483926040519485938492639bf437df60e01b845260048401525af180156107b55761081d575050610798565b600d0361117d578192813b156107c057829160448392604051948593849263029bc34f60e41b84526004840152600d60248401525af180156107b55761081d575050610798565b6372c24c3560e01b8252600482fd5b50600a8114610e83565b6372c24c3560e01b8352600483fd5b63e231c28f60e01b8452600484fd5b925050506111da915060c03d60c0116111e7575b6111d28183614ed5565b8101906155fa565b505092919092915f610e5e565b503d6111c8565b6040513d85823e3d90fd5b6306fda65d60e31b8152600490fd5b503461036857604036600319011261036857600435611225614d3b565b61122d6156f3565b6002600454146108fe576002600455818352600a60205260ff600b60408520015416156113a457818352600a6020526040832060018101549091906001600160a01b0316330361139557828452600c6020526040842060018060a01b0382165f52602052601060405f20019160ff835460081c169260068410158061138157600285149485159081611372575b506113635761134f57805461ff0019166104001790558280611342575b61132d575b50828452600e602052604084206112f381546154a5565b90556001600160a01b0316825f516020615cd05f395f51905f528580a361131e575b50600160045580f35b6113279061584e565b5f611315565b600a0161133a81546154a5565b90555f6112dc565b50600a81015415156112d7565b634e487b7160e01b86526021600452602486fd5b6307e0eec960e31b8752600487fd5b9150506001879114155f6112ba565b634e487b7160e01b87526021600452602487fd5b6303e2f0f360e51b8452600484fd5b636df5846d60e01b8352600483fd5b50346103685780600319360112610368576008546040516001600160a01b039091168152602090f35b503461036857602036600319011261036857604080916113fa614d51565b816020845161140881614eba565b82815201526001600160a01b03168152601260205220815161142981614eba565b602060ff60018454948585520154169101901515815282519182525115156020820152f35b503461036857806003193601126103685750610649604051611471604082614ed5565b60058152640352e302e360dc1b6020820152604051918291602083526020830190615066565b50346103685780600319360112610368576020600554604051908152f35b503461036857602036600319011261036857600435808252600a60205260ff600b6040842001541615610d5157808252600a60205260408220600101546001600160a01b0316330361172657808252600d6020526040822080549061151982615644565b926115276040519485614ed5565b828452601f1961153684615644565b01855b81811061170f575050845b8381106115b25784866040519182916020830160208452825180915260408401602060408360051b870101940192905b82821061158357505050500390f35b919360019193955060206115a28192603f198a82030186528851614f53565b9601920192018594939192611574565b818652600c602052604086206115c8828561530d565b60018060a01b0391549060031b1c1660018060a01b03165f5260205260405f2060ff6010604051926115f984614e82565b8054845260018101546001600160a01b03908116602086015260028201548116604086015260038201546060860152600482015460808601526005820154811660a0860152600682015460c08601526007820154811660e08601526008820154610100860152600982015416610120850152600a810154610140850152611682600b82016152ab565b610160850152611694600c82016152ab565b610180850152600d8101546101a0850152600e8101546101c0850152600f8101546101e08501520154818116151561020084015260081c1660068110156116fb57610220820152600191906116e982886156df565b526116f481876156df565b5001611544565b634e487b7160e01b88526021600452602488fd5b60209061171a61565b565b82828901015201611539565b6303e2f0f360e51b8252600482fd5b5034610368578060031936011261036857602090604051908152f35b50346103685760403660031901126103685761176b614d51565b602435906117776157bf565b6001600160a01b031690811561181457801561088357818352601260205260ff6001604085200154166118055760207f0ffe513459702463615ee8ff7023e9830e6253bfe826f86ca79046e81ba90820916117fb6040516117d781614eba565b82815260018482018181528789526012865260408920925183555115159101615322565b604051908152a280f35b6336d3cb7960e11b8352600483fd5b63e6c4247b60e01b8352600483fd5b50346103685780600319360112610368576020604051610e108152f35b50346103685760203660031901126103685760209060ff906040906001600160a01b0361186b614d51565b168152601084522054166040519015158152f35b50346103685761188e36614dd9565b976118a59c9b9c9a95939a999692999791976156f3565b600260045414611c6a5760026004558b8e52600a60205260408e20600b015460ff1615611c5b5760408e8d8152600c6020522060018060a01b0333165f5260205260405f209660108801549660ff8860081c166006811015611c4557600203611c3557600f8901978854906003821015611c235760ff16159081611c19575b50611c09578e158f8115611bf4575b50611b91576107d08111611bc25780151580611be3575b611ba15761012c8311611bc25782151580611bd2575b611ba15761012c8511611bc25784151580611bb1575b611ba15760188711611b9157600389018f905560048901556005880180546001600160a01b03199081166001600160a01b0393841617909155600689019290925560078801805483169382169390931790925560088701929092556009860180549092169216919091179055600a83015580546119f290615497565b905560108101805460ff1916905542600e82015583158015611b87575b611ab957838303611ab9578688895b868110611ac8575003611ab957600c600b820191611a3b8361541f565b0193611a468561541f565b885b818110611a86578989896040519182527f67084cbee80e339a509d7ab5561456aebf1df51370948a18a4449a1978d368ee60203393a3600160045580f35b80611a9e611a97600193858b6153ec565b3585615440565b611ab3611aac8288886153ec565b3588615440565b01611a48565b63162908e360e11b8852600488fd5b9150611ad58287896153ec565b3515610b055781158080611b63575b611b54571580611b15575b610b0557611b0b600191611b0484898b6153ec565b35906153fc565b9101908891611a1e565b50611b218286866153ec565b355f198301838111611b4057611b389087876153ec565b351015611aef565b634e487b7160e01b8c52601160045260248cfd5b63162908e360e11b8b5260048bfd5b508515611b735742853510611ae4565b634e487b7160e01b8b52603260045260248bfd5b5060088411611a0f565b5063162908e360e11b8f5260048ffd5b5063e6c4247b60e01b8f5260048ffd5b506001600160a01b03861615611976565b5063c6cc5d7f60e01b8f5260048ffd5b506001600160a01b03841615611960565b506001600160a01b0382161561194a565b676765c793fa10079d601a1b1090508f611933565b5063262fa5e160e11b8f5260048ffd5b905015155f611924565b50505060048f63538a58a760e01b8152fd5b5063340d7a1f60e01b8f5260048ffd5b5050634e487b7160e01b8f52602160045260248ffd5b636df5846d60e01b8e5260048efd5b6306fda65d60e31b8e5260048efd5b503461036857602036600319011261036857611c93614d51565b611c9b615776565b6001600160a01b03168082526010602052604082205460ff1615611dc257808252601060205260408220805460ff1916905560115490825b828110611d04575b83827f45f62f30e7b8439e0da7d8e560fe39d01238091ce9e789e3d12b514edf98acea8280a280f35b81611d0e826152f5565b905460039190911b1c6001600160a01b031614611d2d57600101611cd3565b90915f198101908111611dae5790611d62611d4a611d68936152f5565b905460039190911b1c6001600160a01b0316916152f5565b90615474565b6011548015611d9a575f1901611d7d816152f5565b81549060018060a01b039060031b1b19169055601155805f611cdb565b634e487b7160e01b83526031600452602483fd5b634e487b7160e01b84526011600452602484fd5b635a1303a760e01b8252600482fd5b5034610368576040366003190112610368576040611ded614d3b565b9160043581525f516020615d905f395f51905f52602052209060018060a01b03165f52602052602060ff60405f2054166040519015158152f35b5034610368578060031936011261036857602060405160c88152f35b503461036857806003193601126103685760206040516107d08152f35b5034610368578060031936011261036857602060405160188152f35b503461036857602036600319011261036857600435611e996156f3565b600260045414611f2f576002600455808252600a60205260ff600b6040842001541615610d5157808252600a6020526040822060018101546001600160a01b0316330361066157600a81015461119657600b810160ff198154169055548252600f6020528160408120557facbc44b7f46dc350c99fc0d9e5f61ed5c588cb4cdc6b69ea0deb0c5b28e5efc48280a2600160045580f35b6306fda65d60e31b8252600482fd5b5034610368578060031936011261036857611f57615776565b611f5f6156f3565b600160ff195f516020615db05f395f51905f525416175f516020615db05f395f51905f52557f62e78cea01bee320cd4e420270b5ea74000d11b0c9f74754ebdbfc544b05a2586020604051338152a180f35b503461036857602036600319011261036857600854604051630f8f795960e01b815260048035908201819052916001600160a01b03169060c081602481855afa80156120b657848592869261208b575b50156108b5576001600160a01b03161561089257421115611196578083913b1561090d578180916024604051809481936344d912a160e11b83528860048401525af180156107b557612076575b50807f1833f8bbbaedba04925e4618512692856f29f79deb98722cd8d7eca4fc1e6bc391a280f35b8161208091614ed5565b61090d57815f61204e565b9150506120a7915060c03d60c0116111e7576111d28183614ed5565b9492509250509091905f612001565b6040513d86823e3d90fd5b5034610368576020366003190112610368576004356120de615776565b610e1081106120ed5760095580f35b63296d383360e01b8252600482fd5b503461036857602036600319011261036857612116614d51565b61211e615776565b6001600160a01b03811690811561181457818352601060205260ff6040842054166121ba57818352601060205260408320805460ff19166001179055601154600160401b8110156121a65790611d6282600161217f9401601155601161530d565b7f5f5916d70d5479c1795a9d461360dfa5c673bc37904c8ab4fcbdc970b9e90f3d8280a280f35b634e487b7160e01b84526041600452602484fd5b6389f2a03b60e01b8352600483fd5b50346103685780600319360112610368576020600954604051908152f35b503461036857602036600319011261036857600435612204615776565b6107d0811161223f576020817fd10d75876659a287a59a6ccfa2e3fff42f84d94b542837acd30bc184d562de4092600155604051908152a180f35b63499fddb160e01b8252600482fd5b503461036857806003193601126103685760206040515f516020615df05f395f51905f528152f35b50346103685760203660031901126103685760406020916004358152600e83522054604051908152f35b503461036857806003193601126103685760405160118054808352908352602082019081907f31ecc21a745e3968a04e9570e4425bc18fa8019c68028196b546d1669c200c6890855b81811061234957505050826122ff910383614ed5565b604051928392602084019060208552518091526040840192915b818110612327575050500390f35b82516001600160a01b0316845285945060209384019390920191600101612319565b82546001600160a01b03168452602090930192600192830192016122e9565b503461036857806003193601126103685760206040516101f48152f35b5034610368578060031936011261036857546040516001600160a01b039091168152602090f35b5034610368576020366003190112610368576004356001600160401b03811161090d576123dd903690600401614da9565b6123e56157bf565b825b8181106124e75750825b8181106123fc578380f35b6001600160a01b036124176124128385876153ec565b6155e6565b168452601260205260408420600181019081549060ff8216156124d857908160019493925480612485575b505415612452575b5050016123f1565b60ff19169055818060a01b0361246c6124128386886153ec565b165f516020615dd05f395f51905f528680a25f8061244a565b61248e906154a5565b8082557f5e3cf48d467d6f682659f32b47874269379e19498ffebf7b647d716d0f4473396020896124c9612412898c8c8060a01b03946153ec565b1692604051908152a25f612442565b639eb02c9f60e01b8752600487fd5b6001810180821161254a575b82811061250357506001016123e7565b612515612412838587989695976153ec565b6001600160a01b0361252b61241284868a6153ec565b6001600160a01b039092169116146118145760010193929091936124f3565b634e487b7160e01b85526011600452602485fd5b503461036857806003193601126103685760206040515f516020615d705f395f51905f528152f35b503461036857602036600319011261036857600435906125a46156f3565b6002600454146111f95760026004908155600854604051634f0df86560e01b81529182018490526001600160a01b03169061010081602481855afa9081156111ee5783916126a3575b508051156126945760c081015160128110156126805760ff600791160361119657604001516001600160a01b03163303612671578192813b156107c0578291602483926040519485938492631c70d28d60e21b845260048401525af180156107b55761265c5750600160045580f35b8161266691614ed5565b61036857805f611315565b63223da47360e21b8252600482fd5b634e487b7160e01b84526021600452602484fd5b63223da47360e21b8352600483fd5b6126bc91506101003d81116108ec576108de8183614ed5565b5f6125ed565b5034610368578060031936011261036857602060ff5f516020615db05f395f51905f5254166040519015158152f35b5034610368578060031936011261036857602060405160058152f35b50346103685780600319360112610368577f00000000000000000000000000000000000000000000000000000000000000006001600160a01b031630036127655760206040515f516020615d505f395f51905f528152f35b63703e46dd60e11b8152600490fd5b50346103685760203660031901126103685760406020916004358152600f83522054604051908152f35b503461036857602036600319011261036857600435906127bc6157bf565b6002600454146111f957600260045560018060a01b036008541660405192634f0df86560e01b845280600485015261010084602481855afa9384156111ee578394612877575b50835115612694578254929384936001600160a01b031690811561286357505b823b1561087e5761284c9284928360405180968195829463f1c4f0af60e01b84526004840161556c565b03925af180156107b55761265c5750600160045580f35b602001516001600160a01b03169050612822565b6128919194506101003d81116108ec576108de8183614ed5565b925f612802565b506040366003190112610368576128ad614d51565b60243591906001600160401b03831161090d573660238401121561090d5782600401356128d981614ef8565b936128e76040519586614ed5565b8185523660248383010111612ae25781849260246020930183880137850101526001600160a01b037f000000000000000000000000000000000000000000000000000000000000000016308114908115612ac0575b50612ab1578180525f516020615d905f395f51905f5260209081526040808420335f908152925290205460ff1615612a99576040516352d1902d60e01b8152926001600160a01b0382169190602085600481865afa80958596612a61575b506129b357634c9c8ce360e01b84526004839052602484fd5b9091845f516020615d505f395f51905f528103612a4f5750823b15612a3d575f516020615d505f395f51905f5280546001600160a01b031916821790557fbc7cd75a20ee27fd9adebab32041f755214dbc6bffa90cc0225b39da2e5c2d3b8480a2805115612a2457610bcd91615c23565b505034612a2e5780f35b63b398979f60e01b8152600490fd5b634c9c8ce360e01b8452600452602483fd5b632a87526960e21b8552600452602484fd5b9095506020813d602011612a91575b81612a7d60209383614ed5565b81010312612a8d5751945f61299a565b8480fd5b3d9150612a70565b63e2517d3f60e01b8252336004526024829052604482fd5b63703e46dd60e11b8252600482fd5b5f516020615d505f395f51905f52546001600160a01b0316141590505f61293c565b8380fd5b50346103685780600319360112610368576006546040516001600160a01b039091168152602090f35b5034610368578060031936011261036857612b28615776565b6003548015612b9b574210612b8c578054600280546001600160a01b038082166001600160a01b031980861682178755909216909255600384905591167f0c5d18caa145415182f8ad3d2563da586609cec04ac8505274d87bc43f00b4a48380a380f35b6357f4ad8b60e01b8152600490fd5b6315090c2d60e01b8252600482fd5b5034610368578060031936011261036857602060405160148152f35b50346103685760203660031901126103685760043581610160604051612beb81614e9e565b8281528260208201528260408201528260608201528260808201528260a08201528260c08201528260e08201528261010082015282610120820152826101408201520152808252600a60205260ff600b6040842001541615610d5157816040916101809352600a60205220604051612c6281614e9e565b808083549384825260018060a01b036001820154166020830190815260018060a01b036002830154166040840190815260038301546060850190815260048401546080860190815260018060a01b036005860154169160a0870192835260068601549360c0880194855260018060a01b036007880154169560e0890196875261016060ff600b60088b01549a6101008d019b8c5261012060098201549d019c8d52610140600a8201549e019d8e520154169b019a15158b526040519b8c5260018060a01b0390511660208c015260018060a01b0390511660408b01525160608a015251608089015260018060a01b0390511660a08801525160c087015260018060a01b0390511660e0860152516101008501525161012084015251610140830152511515610160820152f35b50346103685761012036600319011261036857600435612dac614d3b565b6064359160443591612dbc614d7d565b9060a43594612dc9614d93565b60e4359390610104356001600160401b03811161360657612dee903690600401614da9565b959094612df96156f3565b6002600454146135f7576002600455612e1061571a565b6001600160a01b0316808b52601060205260408b205490929060ff16156135e85760075460405163023aa9ab60e61b81527fd8e6c8b39dbc70333b42d059fa436cf2679722325c0f6ed7e701df0b05a637c8600482015290602090829060249082906001600160a01b03165afa9081156134aa578c916135a9575b50604051636896470560e11b815290602090829060049082906001600160a01b03165afa9081156134aa578c9161356b575b501561355c57878b52600f60205260408b205461354e5760085460405163bfadc8f960e01b8152600481018a905290602090829060249082906001600160a01b03165afa9081156134aa578c9161351c575b5061350d576006546040516369d146b560e11b8152600481018a90526001600160a01b0390911690602081602481855afa908115613502578d916134c4575b50336001600160a01b03909116036134b5578b60249160405192838092631cab5c9d60e31b82528d60048301525afa80156134aa57610180918d91613488575b500151156134795788158015613465575b611b54576107d0851161341a5784151580613454575b6134345761012c8a1161341a5789151580613443575b6134345781158015613429575b61341a57600a871161340b57908a9291835b88811061339a5750600554612ffe90615497565b9a8b95866005556040519761301289614e9e565b8b89528c60208a019633885260408b0190815260608b0191825260808b0192835260a08b0193600160a01b6001900316845260c08b0194855260e08b0195600160a01b600190031686526101008b019687526101208b01974289526101408c0199808b526101608d019b60018d528152600a602052604090209b518c55600160a01b6001900390511660018c0190600160a01b6001900316600160a01b6001900319825416179055600160a01b6001900390511660028b0190600160a01b6001900316600160a01b60019003198254161790555160038a0155516004890155600160a01b600190039051166005880190600160a01b6001900316600160a01b6001900319825416179055516006870155600160a01b600190039051166007860190600160a01b6001900316600160a01b600190031982541617905551600885015551600984015551600a83015551151590600b019061317091615322565b855b8281106131c457505050826040858360209752600f87522055604051918252827f32645f28ae455f14af7a547728c579fc5a3f52d9c6db6d22a0de0ded95c82cbe853394a46001600455604051908152f35b858752600b602052604087206131db828585615585565b81549091600160401b8210156133865760018201808255821015613372578952600360208a2091020161320e82806155a7565b906001600160401b03821161335e576132278354615333565b601f8111613323575b508a908b601f84116001146132b457938361328f9460609460029460019a9998926132a9575b50505f19600383901b1c191690881b1781555b6020850135878201550192613289613283604083016155d9565b85615322565b016155d9565b815461ff00191690151560081b61ff001617905501613172565b013590505f80613256565b50838c5260208c2091601f1984168d5b81811061330b57508460609460029460019a99989461328f988c95106132f2575b505050811b018155613269565b01355f19600384901b60f8161c191690555f80806132e5565b919360206001819287870135815501950192016132c4565b61334e90848d5260208d20601f850160051c81019160208610613354575b601f0160051c0190615409565b5f613230565b9091508190613341565b634e487b7160e01b8b52604160045260248bfd5b634e487b7160e01b8a52603260045260248afd5b634e487b7160e01b8a52604160045260248afd5b90919293506133b36133ad828a8a615585565b806155a7565b90501580156133f1575b6133e25760206133ce828a8a615585565b0135156133e257600101908b939291612fea565b63162908e360e11b8c5260048cfd5b506101006134036133ad838b8b615585565b9050116133bd565b630ba8482160e11b8b5260048bfd5b63c6cc5d7f60e01b8b5260048bfd5b506127108211612fd8565b63e6c4247b60e01b8b5260048bfd5b506001600160a01b03811615612fcb565b506001600160a01b03841615612fb5565b50676765c793fa10079d601a1b8911612f9f565b6360e6b51b60e11b8b5260048bfd5b6134a491503d808f833e61349c8183614ed5565b810190615103565b5f612f8e565b6040513d8e823e3d90fd5b6303e2f0f360e51b8c5260048cfd5b90506020813d6020116134fa575b816134df60209383614ed5565b810103126134f6576134f0906150d0565b5f612f4e565b8c80fd5b3d91506134d2565b6040513d8f823e3d90fd5b631a29045b60e11b8b5260048bfd5b90506020813d602011613546575b8161353760209383614ed5565b81010312610de457515f612f0f565b3d915061352a565b6219c1a760e21b8b5260048bfd5b6304d54fbf60e41b8b5260048bfd5b90506020813d6020116135a1575b8161358660209383614ed5565b8101031261359d57613597906150f6565b5f612ebd565b8b80fd5b3d9150613579565b90506020813d6020116135e0575b816135c460209383614ed5565b8101031261359d5760206135d96004926150d0565b9150612e8b565b3d91506135b7565b6332da96a360e01b8b5260048bfd5b6306fda65d60e31b8b5260048bfd5b8980fd5b5034610368578060031936011261036857613623615776565b5f516020615db05f395f51905f525460ff81161561367b5760ff19165f516020615db05f395f51905f52557f5db9ee0a495bf2e6ff9c91a7834c1ba4fdd244a5e8aa4e537bd38aeae4b073aa6020604051338152a180f35b638dfc202b60e01b8252600482fd5b503461036857604036600319011261036857602435906004356136ab6156f3565b600260045414611f2f5760026004908155600854604051634f0df86560e01b81529182018390526001600160a01b0316919061010081602481865afa9081156120b657849161381b575b5080511561380c5760408101516001600160a01b031633036137fd5760c081015160128110156108a157600f19016108925784156137ee5760600151604051635ea36b2d60e01b8152906020908290819061375d906001600160a01b0316866004840161556c565b0381865afa9081156120b65784916137bc575b508411610883578293823b1561087e576064849283604051958694859363fd263f7b60e01b8552600485015233602485015260448401525af180156107b55761265c5750600160045580f35b90506020813d6020116137e6575b816137d760209383614ed5565b81010312610de457515f613770565b3d91506137ca565b63162908e360e11b8452600484fd5b631f3cbf7b60e31b8452600484fd5b63223da47360e21b8452600484fd5b61383491506101003d81116108ec576108de8183614ed5565b5f6136f5565b5034610368578060031936011261036857602060405162093a808152f35b503461036857604036600319011261036857613872614d3b565b336001600160a01b0382160361388e57610bcd90600435615b5c565b63334bd91960e11b8252600482fd5b50346103685780600319360112610368576020600154604051908152f35b503461036857604036600319011261036857610bcd6004356138db614d3b565b906138e8610bc38261554e565b615acb565b5034610368578060031936011261036857604060018060a01b036002541660035482519182526020820152f35b5034610368578060031936011261036857602060405161012c8152f35b50346103685760e03660031901126103685760043560243560443561395a614d67565b9060a4356001600160a01b0381169060843590829003613b185760c435936139806156f3565b600260045414610b87576002600455868852600a60205260ff600b60408a2001541615610b7857868852600a6020526040882060018101549094906001600160a01b03163303613b0957600a850154613afa5786158015613ae6575b613ad7576107d08111613a955780151580613ac6575b613aaf5761012c8311613a955782151580613abe575b613aaf5785158015613aa4575b613a95576003850187905560048501556005840180546001600160a01b03929092166001600160a01b03199283161790556006840191909155600783018054909116919091179055600801556040519081527f63259830931e406791f7755ad50d816251e755d53951772775a94f2bf0e54fde90602090a2600160045580f35b63c6cc5d7f60e01b8952600489fd5b506127108611613a15565b63e6c4247b60e01b8952600489fd5b508315613a08565b506001600160a01b038216156139f2565b63162908e360e11b8952600489fd5b50676765c793fa10079d601a1b87116139dc565b6372c24c3560e01b8952600489fd5b6303e2f0f360e51b8952600489fd5b8680fd5b5034610368576020366003190112610368576020613b3b60043561554e565b604051908152f35b5034610de45760a0366003190112610de457600435602435604435613b66614d67565b9060843592613b736156f3565b600260045414613e44576002600455613b8a61571a565b335f52601260205260ff600160405f20015416613e3557600854604051634f0df86560e01b8152600481018790526001600160a01b039091169590610100816024818a5afa908115613d36575f91613e16575b50805115613e075760c08101516012811015613df35760081901613de45760e08101514211613de45760208101516001600160a01b03163314613dd65760408101516001600160a01b03163314613dc757613c4e6080820151612710613c4760a085015183615298565b04906153fc565b808410613db0575061012c8411613da15783151580613d90575b613d815760188611613d7257606060018060a01b0391015116604051966323b872dd60e01b5f52336004526024528260445260205f60648180855af160015f5114811615613d53575b876040525f60605215613d4157506008546001600160a01b0316803b15610de4575f95879560c49587958995630c1fff9d60e31b885260048801523360248801526044870152606486015260018060a01b0316608485015260a48401525af18015613d3657613d235750600160045580f35b613d2f91505f90614ed5565b5f5f611315565b6040513d5f823e3d90fd5b635274afe760e01b5f5260045260245ffd5b6001811516613d6957813b15153d151616613cb1565b873d5f823e3d90fd5b63162908e360e11b5f5260045ffd5b63e6c4247b60e01b5f5260045ffd5b506001600160a01b03851615613c68565b63c6cc5d7f60e01b5f5260045ffd5b839063eace4ad160e01b5f5260045260245260445ffd5b6366b9b88760e01b5f5260045ffd5b6258479160e51b5f5260045ffd5b6327232a2960e11b5f5260045ffd5b634e487b7160e01b5f52602160045260245ffd5b63223da47360e21b5f5260045ffd5b613e2f91506101003d81116108ec576108de8183614ed5565b5f613bdd565b635bd4169d60e01b5f5260045ffd5b6306fda65d60e31b5f5260045ffd5b34610de45760a0366003190112610de457613e6c614d51565b613e74614d3b565b6044356001600160a01b03811690819003610de457613e91614d67565b613e99614d7d565b5f516020615e105f395f51905f5254604081901c60ff161595919391906001600160401b03811680159081614068575b600114908161405e575b159081614055575b50614046576001600160401b031981166001175f516020615e105f395f51905f52558661401e575b506001600160a01b0316938415613d81576001600160a01b0316918215613d81578115613d81576001600160a01b0316918215613d81576001600160a01b03841615613d8157613fc594613f55615bf8565b613f5d615bf8565b600160045560018060a01b0319600654161760065560018060a01b0319600754161760075560018060a01b0319600854161760085560018060a01b03195f5416175f556203f4806009556032600155613fb581615955565b50613fbf816159cb565b50615a4b565b50613fcc57005b60ff60401b195f516020615e105f395f51905f5254165f516020615e105f395f51905f52557fc7f505b2f371ae2175ee4913f4499e1f2633a7b5936321eed1cdaeb6115181d2602060405160018152a1005b6001600160481b0319166001600160401b01175f516020615e105f395f51905f525586613f03565b63f92ee8a960e01b5f5260045ffd5b90501588613edb565b303b159150613ed3565b889150613ec9565b34610de4576020366003190112610de45760043561408c6156f3565b600260045414613e44576002600455805f52600a60205260ff600b60405f20015416156141b7575f818152600c602090815260408083203384529091529020601001805460081c60ff1690600682101580613df3576002831492831590816141a8575b5061419957613df35761050061ff0019825416179055815f52600a60205260405f20818061418c575b614177575b50815f52600e60205260405f2061413481546154a5565b905533827f5e9c7ae3229b2cda5065d7058fcc05765c695c29ce05313fbe96cb2ca639231a5f80a3614168575b6001600455005b6141719061584e565b80614161565b600a0161418481546154a5565b90558261411d565b50600a8101541515614118565b6307e0eec960e31b5f5260045ffd5b91505060015f911415856140ef565b636df5846d60e01b5f5260045ffd5b34610de4575f366003190112610de4576020604051600a8152f35b34610de4576141ef36614dd9565b60809b909b52959a9997989697919690959194919390929161420f6156f3565b600260045414613e4457600260045561422661571a565b8a5f52600a60205260ff600b60405f20015416156141b757335f52601260205260ff600160405f20015416613e35575f8b8152600a602052604090206001810154909c906001600160a01b03163314613dd6578b5f52600e602052601460405f205410156146c4578b5f52600c60205260405f2060018060a01b0333165f5260205260ff601060405f20015460081c169960068b10159a8b613df3576002811480156146b7575b6146a8578b613df35780159b8c1561469b575b8c15614688575b5050608051158015614672575b613d72576107d08611613da15785151580614661575b613d815761012c8111613da15780151580614650575b613d815761012c8311613da1578215158061463f575b613d815760188511613d725788158015614635575b613d7257888803613d72575f805b8a8c81841061458f575050905060805103613d725760059b8d968f600a019d8e54105f146145875760029f5b5f898152600c6020908152604080832033808552925282209a8b5560018b0180546001600160a01b03199081169092179055600292830154928b01805482166001600160a01b0394851617905560805160038c015560048b019390935560058a0180548416948316949094179093556006808a019490945560078901805483169582169590951790945560088801949094556009870180549094169490921693909317909155600a84019290925542600d8401819055600e840155600f83019190915560108201805460ff19168155908a1015613df357805461ff008b60081b169061ff001916179055600c600b82019161447f8361541f565b019361448a8561541f565b5f5b818110614562578a8a8a8a614513575b815f52600e60205260405f206144b28154615497565b905560028314614501575b506144d46040519260805184526020840190614f46565b7f91f3c243b9bdde5ceb2c34ba0539b3af064f15c0127b734fd97fbe6a099b51ea60403393a36001600455005b61450b8154615497565b9055826144bd565b5f828152600d60205260409020805490600160401b82101561454e57816145429160016145499401815561530d565b3391615474565b61449c565b634e487b7160e01b5f52604160045260245ffd5b80614573611a97600193858b6153ec565b614581611aac8288886153ec565b0161448c565b60019f614385565b61459a9184916153ec565b3515613d725781158080614611575b613d725715806145d2575b613d72576145ca600191611b04848f8f906153ec565b910190614359565b506145de828b8b6153ec565b355f1983018381116145fd576145f5908c8c6153ec565b3510156145b4565b634e487b7160e01b5f52601160045260245ffd5b508a1561462157428a35106145a9565b634e487b7160e01b5f52603260045260245ffd5b506008891161434b565b506001600160a01b03841615614336565b506001600160a01b03821615614320565b506001600160a01b038c161561430a565b50608051676765c793fa10079d601a1b106142f4565b90919b50613df357600414998e806142e7565b50600581149b505f6142e0565b63db8219ad60e01b5f5260045ffd5b505f9b50600181146142cd565b63d039f3fd60e01b5f5260045ffd5b34610de4576040366003190112610de4576146ec614d3b565b6146f46156f3565b600260045414613e445760026004556004355f52600a60205260ff600b60405f20015416156141b7576004355f52600a60205260405f209060018060a01b0360018301541690338203614cb3576004355f52600c60205260405f2060018060a01b0382165f5260205260405f2091601083015460ff8160081c166006811015613df3576002036141995760ff16614ca4576006548454604051631cab5c9d60e31b815260048101829052915f90839060249082906001600160a01b03165afa8015613d365784925f91614c8a575b50600a8601545f9181151580614c7d575b614c4e575b508787600160a01b6001900360028301541660038201546004830154600160a01b6001900360058501541690600685015492600160a01b6001900360078701541694600887015496600160a01b6001900390600901541697600801549a6009549c6040519e8f9261484884614e82565b6004358452602084015260408301526001600160a01b031660609091015260808d015260a08c015260c08b015260e08a01526101008901526101208801526101408701526101608601526101808501526101a08401526101c08301526101e08201526148b6600b84016152ab565b6102008201526148c8600c84016152ab565b6102208201526004355f52600b60205260405f206004355f52600d60205260405f20945f5b86548110156149d857614900818861530d565b905460039190911b1c6001600160a01b03908116908616146149d0576004355f52600c60205260405f20614934828961530d565b905460039190911b1c6001600160a01b03165f90815260209190915260409020601001805460081c60ff1691906006831015613df357826002600194149081156149c6575b50614987575b505b016148ed565b805461ff00191661040017905561499e818961530d565b838060a01b0391549060031b1c166004355f516020615cd05f395f51905f525f80a38861497f565b849150148a614979565b600190614981565b506010909401805461ff001916610300179055600b8401805460ff19169055600480355f908152600e6020908152604080832083905596548252600f815286822091909155600854865163cfeffc7160e01b815292830187905284516044840152908401516064830152948301516001600160a01b0390811660848301526060840151811660a48301526080840151811660c483015260a084015160e483015260c084015161010483015260e08401518116610124830152610100840151610144830152610120840151811661016483015261014084015161018483015261016084015181166101a48301526101808401516101c48301526101a08401516101e48301526101c08401516102048301526101e084015161022483015261020084015161024061024484015291951692859291614b37919061022090614b2290610284870190614f13565b91015184820360431901610264860152614f13565b6003198382030160248401528154808252602082019160208260051b820101935f5260205f20925f915b838310614bf0578689602082808a03815f8e5af1918215613d36575f92614bbc575b506001600160a01b0316906004357fd04f845137f741f1b1fcb8758a097aa384274dde474ea57dc4b71e88f8625cf35f80a46001600455005b9091506020813d602011614be8575b81614bd860209383614ed5565b81010312610de457519082614b83565b3d9150614bcb565b91939550919360206003600192601f1985820301865260808152614c17608082018a61536b565b90848a015484820152606060ff60028c01548181161515604085015260081c16151591015297019301930190928895949293614b61565b909350608091500151918260021b92808404600414901517156145fd57614c76818694615298565b90886147d8565b50608081015115156147d3565b614c9e91503d805f833e61349c8183614ed5565b876147c2565b63262fa5e160e11b5f5260045ffd5b6303e2f0f360e51b5f5260045ffd5b34610de4576020366003190112610de45760043563ffffffff60e01b8116809103610de457602090637965db0b60e01b8114908115614d07575b506040519015158152f35b6301ffc9a760e01b14905082614cfc565b34610de4575f366003190112610de457676765c793fa10079d601a1b8152602090f35b602435906001600160a01b0382168203610de457565b600435906001600160a01b0382168203610de457565b606435906001600160a01b0382168203610de457565b608435906001600160a01b0382168203610de457565b60c435906001600160a01b0382168203610de457565b9181601f84011215610de4578235916001600160401b038311610de4576020808501948460051b010111610de457565b90610160600319830112610de4576004359160243591604435916064356001600160a01b0381168103610de457916084359160a4356001600160a01b0381168103610de4579160c4359160e4356001600160a01b0381168103610de457916101043591610124356001600160401b038111610de45781614e5b91600401614da9565b9092909161014435906001600160401b038211610de457614e7e91600401614da9565b9091565b61024081019081106001600160401b0382111761454e57604052565b61018081019081106001600160401b0382111761454e57604052565b604081019081106001600160401b0382111761454e57604052565b601f909101601f19168101906001600160401b0382119082101761454e57604052565b6001600160401b03811161454e57601f01601f191660200190565b90602080835192838152019201905f5b818110614f305750505090565b8251845260209384019390920191600101614f23565b906006821015613df35752565b90615063908251815260018060a01b03602084015116602082015260018060a01b036040840151166040820152606083015160608201526080830151608082015260018060a01b0360a08401511660a082015260c083015160c082015260018060a01b0360e08401511660e082015261010083015161010082015260018060a01b036101208401511661012082015261014083015161014082015261022080615026615012610160870151610240610160870152610240860190614f13565b610180870151858203610180870152614f13565b946101a08101516101a08501526101c08101516101c08501526101e08101516101e085015261020081015115156102008501520151910190614f46565b90565b805180835260209291819084018484015e5f828201840152601f01601f1916010190565b81601f82011215610de4578051906150a182614ef8565b926150af6040519485614ed5565b82845260208383010111610de457815f9260208093018386015e8301015290565b51906001600160a01b0382168203610de457565b519064ffffffffff82168203610de457565b51908115158203610de457565b602081830312610de4578051906001600160401b038211610de4570161022081830312610de4576040519161022083016001600160401b0381118482101761454e576040528151835260208201516001600160401b038111610de4578161516b91840161508a565b602084015260408201516001600160401b038111610de4578161518f91840161508a565b604084015260608201516001600160401b038111610de457816151b391840161508a565b60608401526080820151608084015260a082015160a084015260c082015160c084015260e082015160e08401526101008201516101008401526151f961012083016150d0565b61012084015261520c61014083016150e4565b61014084015261521f61016083016150e4565b61016084015261523261018083016150f6565b6101808401526152456101a083016150f6565b6101a08401526152586101c083016150f6565b6101c084015261526b6101e083016150f6565b6101e08401526102008201516001600160401b038111610de45761528f920161508a565b61020082015290565b818102929181159184041417156145fd57565b90604051918281549182825260208201905f5260205f20925f5b8181106152dc5750506152da92500383614ed5565b565b84548352600194850194879450602090930192016152c5565b6011548110156146215760115f5260205f2001905f90565b8054821015614621575f5260205f2001905f90565b9060ff801983541691151516179055565b90600182811c92168015615361575b602083101461534d57565b634e487b7160e01b5f52602260045260245ffd5b91607f1691615342565b5f929181549161537a83615333565b80835292600181169081156153cf575060011461539657505050565b5f9081526020812093945091925b8383106153b5575060209250010190565b6001816020929493945483858701015201910191906153a4565b915050602093945060ff929192191683830152151560051b010190565b91908110156146215760051b0190565b919082018092116145fd57565b818110615414575050565b5f8155600101615409565b80545f82558061542d575050565b6152da915f5260205f2090810190615409565b8054600160401b81101561454e5761545d9160018201815561530d565b819291549060031b91821b915f19901b1916179055565b80546001600160a01b0360039390931b83811b199091169290931690921b179055565b5f1981146145fd5760010190565b80156145fd575f190190565b9081610100910312610de4576040519061010082016001600160401b0381118382101761454e576040526154e4816150f6565b82526154f2602082016150d0565b6020830152615503604082016150d0565b6040830152615514606082016150d0565b60608301526080810151608083015260a081015160a083015260c0810151906012821015610de45760e09160c0840152015160e082015290565b5f525f516020615d905f395f51905f52602052600160405f20015490565b9081526001600160a01b03909116602082015260400190565b91908110156146215760051b81013590607e1981360301821215610de4570190565b903590601e1981360301821215610de457018035906001600160401b038211610de457602001918136038313610de457565b358015158103610de45790565b356001600160a01b0381168103610de45790565b91908260c0910312610de45761560f826150f6565b9161561c602082016150f6565b91604082015160ff81168103610de4579160608101519161506360a0608084015193016150d0565b6001600160401b03811161454e5760051b60200190565b6040519061566882614e82565b5f610220838281528260208201528260408201528260608201528260808201528260a08201528260c08201528260e082015282610100820152826101208201528261014082015260606101608201526060610180820152826101a0820152826101c0820152826101e0820152826102008201520152565b80518210156146215760209160051b010190565b60ff5f516020615db05f395f51905f52541661570b57565b63d93c066560e01b5f5260045ffd5b335f9081527f47c3465a0c211ece60dd73efc90110f8b7e204feda752e1c50487740ddbcd24f602052604090205460ff161561575257565b63e2517d3f60e01b5f52336004525f516020615e305f395f51905f5260245260445ffd5b335f9081525f516020615d105f395f51905f52602052604090205460ff161561579b57565b63e2517d3f60e01b5f52336004525f516020615df05f395f51905f5260245260445ffd5b335f9081525f516020615cf05f395f51905f52602052604090205460ff16156157e457565b63e2517d3f60e01b5f52336004525f516020615d705f395f51905f5260245260445ffd5b5f8181525f516020615d905f395f51905f526020908152604080832033845290915290205460ff16156158385750565b63e2517d3f60e01b5f523360045260245260445ffd5b805f52600a60205260405f2060ff600b820154161561595157600a019060058254101561595157805f52600d60205260405f208054925f5b848110615894575050505050565b835f52600c60205260405f206158aa828561530d565b905460039190911b1c6001600160a01b03165f90815260209190915260409020601001805460081c60ff166006811015613df3576001146158ee5750600101615886565b805461ff0019166102001790558154939450615918939092919061591190615497565b905561530d565b905460039190911b1c6001600160a01b0316907f398d4fa7456c76c234244c18915a0bcf7e13c5c22a51bb39f6c459c5821cff9a5f80a3565b5050565b6001600160a01b0381165f9081525f516020615d305f395f51905f52602052604090205460ff166159c6576001600160a01b03165f8181525f516020615d305f395f51905f5260205260408120805460ff191660011790553391905f516020615cb05f395f51905f528180a4600190565b505f90565b6001600160a01b0381165f9081525f516020615d105f395f51905f52602052604090205460ff166159c6576001600160a01b03165f8181525f516020615d105f395f51905f5260205260408120805460ff191660011790553391905f516020615df05f395f51905f52905f516020615cb05f395f51905f529080a4600190565b6001600160a01b0381165f9081525f516020615cf05f395f51905f52602052604090205460ff166159c6576001600160a01b03165f8181525f516020615cf05f395f51905f5260205260408120805460ff191660011790553391905f516020615d705f395f51905f52905f516020615cb05f395f51905f529080a4600190565b5f8181525f516020615d905f395f51905f52602090815260408083206001600160a01b038616845290915290205460ff16615b56575f8181525f516020615d905f395f51905f52602090815260408083206001600160a01b0395909516808452949091528120805460ff19166001179055339291905f516020615cb05f395f51905f529080a4600190565b50505f90565b5f8181525f516020615d905f395f51905f52602090815260408083206001600160a01b038616845290915290205460ff1615615b56575f8181525f516020615d905f395f51905f52602090815260408083206001600160a01b0395909516808452949091528120805460ff19169055339291907ff6391f5c32d9c69d2a47ea670b442974b53935d1edc7fd64eb21e047a839171b9080a4600190565b60ff5f516020615e105f395f51905f525460401c1615615c1457565b631afcd79f60e31b5f5260045ffd5b905f8091602081519101845af48080615c9c575b15615c575750506040513d81523d5f602083013e60203d82010160405290565b15615c7c57639996b31560e01b5f9081526001600160a01b0391909116600452602490fd5b3d15615c8d576040513d5f823e3d90fd5b63d6bda27560e01b5f5260045ffd5b503d151580615c375750813b1515615c3756fe2f8788117e7eff1d82e926ec794901d17c78024a50270940304540a733656f0d76d8fe62a776f2ba870812fb313f1b8babb334fd7065692023f1323c6959f9197a1492cadb22452d254c71a9ef0c781c9f2d1c472dc5213a713c8769ea04d819b16e88c42fd4e48df2dd6a2eabd6bc9aec654ec170056b470819f8892cc6431cb7db2dd08fcb62d0c9e08c51941cae53c267786a0b75803fb7960902fc8ef97d360894a13ba1a3210667c828492db98dca3e2076cc3735a920a3ca505d382bbce4369475d33ca6555b45ac3cf081bee16c4b11779d89f812395c569b2de40f0102dd7bc7dec4dceedda775e58dd541e08a116c6c53815c0bd028192f7b626800cd5ed15c6e187e77e9aee88184c21f4f2182ab5827cb3b7e07fbedcd63f03300a8cb6f4d20ac92066aa6d101be3a0719bc73d16b0bb72bc4635413bf85be2792a49807205ce4d355092ef5a8a18f56e8913cf4a201fbe287825b095693c21775f0c57e16840df040f15088dc2f81fe391c3923bec73e23a9662efc9c229c6a00ba2dc669204b26427a432593e1c6ac86ab4ccc54d29c4287abbd1cefc1cb002ba26469706673582212201679deb9b87c0c6ccec81b16003c78e2f62d83d8821b278a61b64899d6323cdd64736f6c634300081c0033f0c57e16840df040f15088dc2f81fe391c3923bec73e23a9662efc9c229c6a00",
  "linkReferences": {},
  "deployedLinkReferences": {},
  "immutableReferences": {
    "1408": [
      {
        "length": 32,
        "start": 10016
      },
      {
        "length": 32,
        "start": 10513
      }
    ]
  },
  "inputSourceName": "project/contracts/core/TransferEscrow.sol",
  "buildInfoId": "solc-0_8_28-1e5f1b82380adbc22ce4456ef9bf047fdaba5f22"
}