{
  "_format": "hh3-artifact-1",
  "contractName": "TransferEscrow",
  "sourceName": "contracts/core/TransferEscrow.sol",
  "abi": [
    {
      "inputs": [],
      "stateMutability": "nonpayable",
      "type": "constructor"
    },
    {
      "inputs": [],
      "name": "AccessControlBadConfirmation",
      "type": "error"
    },
    {
      "inputs": [
        {
          "internalType": "address",
          "name": "account",
          "type": "address"
        },
        {
          "internalType": "bytes32",
          "name": "neededRole",
          "type": "bytes32"
        }
      ],
      "name": "AccessControlUnauthorizedAccount",
      "type": "error"
    },
    {
      "inputs": [
        {
          "internalType": "address",
          "name": "target",
          "type": "address"
        }
      ],
      "name": "AddressEmptyCode",
      "type": "error"
    },
    {
      "inputs": [],
      "name": "AlreadyHasActiveBid",
      "type": "error"
    },
    {
      "inputs": [],
      "name": "BanAlreadyActive",
      "type": "error"
    },
    {
      "inputs": [],
      "name": "BidCanOnlyBeUpdatedWhenNegotiating",
      "type": "error"
    },
    {
      "inputs": [],
      "name": "BidNotFound",
      "type": "error"
    },
    {
      "inputs": [
        {
          "internalType": "uint256",
          "name": "minimum",
          "type": "uint256"
        },
        {
          "internalType": "uint256",
          "name": "submitted",
          "type": "uint256"
        }
      ],
      "name": "BidNotHighEnough",
      "type": "error"
    },
    {
      "inputs": [],
      "name": "CannotBidOnOwnPlayer",
      "type": "error"
    },
    {
      "inputs": [],
      "name": "CannotHijackOwnDeal",
      "type": "error"
    },
    {
      "inputs": [],
      "name": "ClubTransferBanned",
      "type": "error"
    },
    {
      "inputs": [],
      "name": "DealIsFrozen",
      "type": "error"
    },
    {
      "inputs": [],
      "name": "DealNotFound",
      "type": "error"
    },
    {
      "inputs": [
        {
          "internalType": "address",
          "name": "implementation",
          "type": "address"
        }
      ],
      "name": "ERC1967InvalidImplementation",
      "type": "error"
    },
    {
      "inputs": [],
      "name": "ERC1967NonPayable",
      "type": "error"
    },
    {
      "inputs": [],
      "name": "EnforcedPause",
      "type": "error"
    },
    {
      "inputs": [],
      "name": "ExpectedPause",
      "type": "error"
    },
    {
      "inputs": [],
      "name": "FailedCall",
      "type": "error"
    },
    {
      "inputs": [],
      "name": "HijackWindowClosed",
      "type": "error"
    },
    {
      "inputs": [],
      "name": "InvalidAddress",
      "type": "error"
    },
    {
      "inputs": [],
      "name": "InvalidAmount",
      "type": "error"
    },
    {
      "inputs": [],
      "name": "InvalidBps",
      "type": "error"
    },
    {
      "inputs": [],
      "name": "InvalidInitialization",
      "type": "error"
    },
    {
      "inputs": [],
      "name": "MaxNegotiationRoundsReached",
      "type": "error"
    },
    {
      "inputs": [],
      "name": "MaxNegotiationsReached",
      "type": "error"
    },
    {
      "inputs": [],
      "name": "NoBanToDecrement",
      "type": "error"
    },
    {
      "inputs": [],
      "name": "NoBanToLift",
      "type": "error"
    },
    {
      "inputs": [],
      "name": "NotInitializing",
      "type": "error"
    },
    {
      "inputs": [],
      "name": "NotSellingClub",
      "type": "error"
    },
    {
      "inputs": [],
      "name": "NotYourTurnToCounter",
      "type": "error"
    },
    {
      "inputs": [],
      "name": "OfferNotFound",
      "type": "error"
    },
    {
      "inputs": [],
      "name": "PlayerHasActiveDeal",
      "type": "error"
    },
    {
      "inputs": [],
      "name": "PlayerHasActiveOffer",
      "type": "error"
    },
    {
      "inputs": [],
      "name": "ProtocolFeeTooHigh",
      "type": "error"
    },
    {
      "inputs": [],
      "name": "ReentrantCall",
      "type": "error"
    },
    {
      "inputs": [
        {
          "internalType": "address",
          "name": "token",
          "type": "address"
        }
      ],
      "name": "SafeERC20FailedOperation",
      "type": "error"
    },
    {
      "inputs": [],
      "name": "TimerTooShort",
      "type": "error"
    },
    {
      "inputs": [],
      "name": "TokenAlreadyApproved",
      "type": "error"
    },
    {
      "inputs": [],
      "name": "TokenNotApproved",
      "type": "error"
    },
    {
      "inputs": [],
      "name": "TokenNotInList",
      "type": "error"
    },
    {
      "inputs": [],
      "name": "TooManyAddOns",
      "type": "error"
    },
    {
      "inputs": [],
      "name": "TransferWindowClosed",
      "type": "error"
    },
    {
      "inputs": [],
      "name": "UUPSUnauthorizedCallContext",
      "type": "error"
    },
    {
      "inputs": [
        {
          "internalType": "bytes32",
          "name": "slot",
          "type": "bytes32"
        }
      ],
      "name": "UUPSUnsupportedProxiableUUID",
      "type": "error"
    },
    {
      "inputs": [],
      "name": "WrongDealState",
      "type": "error"
    },
    {
      "anonymous": false,
      "inputs": [
        {
          "indexed": true,
          "internalType": "address",
          "name": "club",
          "type": "address"
        },
        {
          "indexed": false,
          "internalType": "uint256",
          "name": "windowsRemaining",
          "type": "uint256"
        }
      ],
      "name": "BanWindowDecremented",
      "type": "event"
    },
    {
      "anonymous": false,
      "inputs": [
        {
          "indexed": true,
          "internalType": "uint256",
          "name": "offerId",
          "type": "uint256"
        },
        {
          "indexed": true,
          "internalType": "uint256",
          "name": "dealId",
          "type": "uint256"
        },
        {
          "indexed": true,
          "internalType": "address",
          "name": "buyingClub",
          "type": "address"
        }
      ],
      "name": "BidAccepted",
      "type": "event"
    },
    {
      "anonymous": false,
      "inputs": [
        {
          "indexed": true,
          "internalType": "uint256",
          "name": "offerId",
          "type": "uint256"
        },
        {
          "indexed": true,
          "internalType": "address",
          "name": "buyingClub",
          "type": "address"
        }
      ],
      "name": "BidActivated",
      "type": "event"
    },
    {
      "anonymous": false,
      "inputs": [
        {
          "indexed": true,
          "internalType": "uint256",
          "name": "offerId",
          "type": "uint256"
        },
        {
          "indexed": true,
          "internalType": "address",
          "name": "buyingClub",
          "type": "address"
        }
      ],
      "name": "BidRejected",
      "type": "event"
    },
    {
      "anonymous": false,
      "inputs": [
        {
          "indexed": true,
          "internalType": "uint256",
          "name": "offerId",
          "type": "uint256"
        },
        {
          "indexed": true,
          "internalType": "address",
          "name": "buyingClub",
          "type": "address"
        },
        {
          "indexed": false,
          "internalType": "uint256",
          "name": "transferFee",
          "type": "uint256"
        },
        {
          "indexed": false,
          "internalType": "enum TransferEscrow.BidStatus",
          "name": "status",
          "type": "uint8"
        }
      ],
      "name": "BidSubmitted",
      "type": "event"
    },
    {
      "anonymous": false,
      "inputs": [
        {
          "indexed": true,
          "internalType": "uint256",
          "name": "offerId",
          "type": "uint256"
        },
        {
          "indexed": true,
          "internalType": "address",
          "name": "buyingClub",
          "type": "address"
        },
        {
          "indexed": false,
          "internalType": "uint256",
          "name": "newTransferFee",
          "type": "uint256"
        }
      ],
      "name": "BidUpdated",
      "type": "event"
    },
    {
      "anonymous": false,
      "inputs": [
        {
          "indexed": true,
          "internalType": "uint256",
          "name": "offerId",
          "type": "uint256"
        },
        {
          "indexed": true,
          "internalType": "address",
          "name": "buyingClub",
          "type": "address"
        }
      ],
      "name": "BidWithdrawn",
      "type": "event"
    },
    {
      "anonymous": false,
      "inputs": [
        {
          "indexed": true,
          "internalType": "uint256",
          "name": "offerId",
          "type": "uint256"
        },
        {
          "indexed": true,
          "internalType": "address",
          "name": "from",
          "type": "address"
        },
        {
          "indexed": false,
          "internalType": "uint256",
          "name": "newFee",
          "type": "uint256"
        },
        {
          "indexed": false,
          "internalType": "uint256",
          "name": "round",
          "type": "uint256"
        }
      ],
      "name": "CounterOffer",
      "type": "event"
    },
    {
      "anonymous": false,
      "inputs": [
        {
          "indexed": true,
          "internalType": "uint256",
          "name": "dealId",
          "type": "uint256"
        },
        {
          "indexed": false,
          "internalType": "uint8",
          "name": "reason",
          "type": "uint8"
        }
      ],
      "name": "DealCancelled",
      "type": "event"
    },
    {
      "anonymous": false,
      "inputs": [
        {
          "indexed": false,
          "internalType": "uint64",
          "name": "version",
          "type": "uint64"
        }
      ],
      "name": "Initialized",
      "type": "event"
    },
    {
      "anonymous": false,
      "inputs": [
        {
          "indexed": true,
          "internalType": "uint256",
          "name": "dealId",
          "type": "uint256"
        }
      ],
      "name": "MutualCancelExpired",
      "type": "event"
    },
    {
      "anonymous": false,
      "inputs": [
        {
          "indexed": true,
          "internalType": "uint256",
          "name": "offerId",
          "type": "uint256"
        },
        {
          "indexed": true,
          "internalType": "uint256",
          "name": "playerId",
          "type": "uint256"
        },
        {
          "indexed": true,
          "internalType": "address",
          "name": "sellingClub",
          "type": "address"
        },
        {
          "indexed": false,
          "internalType": "uint256",
          "name": "askingPrice",
          "type": "uint256"
        }
      ],
      "name": "OfferCreated",
      "type": "event"
    },
    {
      "anonymous": false,
      "inputs": [
        {
          "indexed": true,
          "internalType": "uint256",
          "name": "offerId",
          "type": "uint256"
        },
        {
          "indexed": false,
          "internalType": "uint256",
          "name": "newAskingPrice",
          "type": "uint256"
        }
      ],
      "name": "OfferUpdated",
      "type": "event"
    },
    {
      "anonymous": false,
      "inputs": [
        {
          "indexed": true,
          "internalType": "uint256",
          "name": "offerId",
          "type": "uint256"
        }
      ],
      "name": "OfferWithdrawn",
      "type": "event"
    },
    {
      "anonymous": false,
      "inputs": [
        {
          "indexed": false,
          "internalType": "address",
          "name": "account",
          "type": "address"
        }
      ],
      "name": "Paused",
      "type": "event"
    },
    {
      "anonymous": false,
      "inputs": [
        {
          "indexed": false,
          "internalType": "uint256",
          "name": "newBps",
          "type": "uint256"
        }
      ],
      "name": "ProtocolFeeUpdated",
      "type": "event"
    },
    {
      "anonymous": false,
      "inputs": [
        {
          "indexed": true,
          "internalType": "bytes32",
          "name": "role",
          "type": "bytes32"
        },
        {
          "indexed": true,
          "internalType": "bytes32",
          "name": "previousAdminRole",
          "type": "bytes32"
        },
        {
          "indexed": true,
          "internalType": "bytes32",
          "name": "newAdminRole",
          "type": "bytes32"
        }
      ],
      "name": "RoleAdminChanged",
      "type": "event"
    },
    {
      "anonymous": false,
      "inputs": [
        {
          "indexed": true,
          "internalType": "bytes32",
          "name": "role",
          "type": "bytes32"
        },
        {
          "indexed": true,
          "internalType": "address",
          "name": "account",
          "type": "address"
        },
        {
          "indexed": true,
          "internalType": "address",
          "name": "sender",
          "type": "address"
        }
      ],
      "name": "RoleGranted",
      "type": "event"
    },
    {
      "anonymous": false,
      "inputs": [
        {
          "indexed": true,
          "internalType": "bytes32",
          "name": "role",
          "type": "bytes32"
        },
        {
          "indexed": true,
          "internalType": "address",
          "name": "account",
          "type": "address"
        },
        {
          "indexed": true,
          "internalType": "address",
          "name": "sender",
          "type": "address"
        }
      ],
      "name": "RoleRevoked",
      "type": "event"
    },
    {
      "anonymous": false,
      "inputs": [
        {
          "indexed": true,
          "internalType": "address",
          "name": "token",
          "type": "address"
        }
      ],
      "name": "TokenApproved",
      "type": "event"
    },
    {
      "anonymous": false,
      "inputs": [
        {
          "indexed": true,
          "internalType": "address",
          "name": "token",
          "type": "address"
        }
      ],
      "name": "TokenRevoked",
      "type": "event"
    },
    {
      "anonymous": false,
      "inputs": [
        {
          "indexed": true,
          "internalType": "address",
          "name": "club",
          "type": "address"
        },
        {
          "indexed": false,
          "internalType": "uint256",
          "name": "windows",
          "type": "uint256"
        }
      ],
      "name": "TransferBanIssued",
      "type": "event"
    },
    {
      "anonymous": false,
      "inputs": [
        {
          "indexed": true,
          "internalType": "address",
          "name": "club",
          "type": "address"
        }
      ],
      "name": "TransferBanLifted",
      "type": "event"
    },
    {
      "anonymous": false,
      "inputs": [
        {
          "indexed": true,
          "internalType": "address",
          "name": "newTreasury",
          "type": "address"
        }
      ],
      "name": "TreasuryUpdated",
      "type": "event"
    },
    {
      "anonymous": false,
      "inputs": [
        {
          "indexed": false,
          "internalType": "address",
          "name": "account",
          "type": "address"
        }
      ],
      "name": "Unpaused",
      "type": "event"
    },
    {
      "anonymous": false,
      "inputs": [
        {
          "indexed": true,
          "internalType": "address",
          "name": "implementation",
          "type": "address"
        }
      ],
      "name": "Upgraded",
      "type": "event"
    },
    {
      "inputs": [],
      "name": "ADMIN_ROLE",
      "outputs": [
        {
          "internalType": "bytes32",
          "name": "",
          "type": "bytes32"
        }
      ],
      "stateMutability": "view",
      "type": "function"
    },
    {
      "inputs": [],
      "name": "BPS_DENOMINATOR",
      "outputs": [
        {
          "internalType": "uint256",
          "name": "",
          "type": "uint256"
        }
      ],
      "stateMutability": "view",
      "type": "function"
    },
    {
      "inputs": [],
      "name": "CLUB_ROLE",
      "outputs": [
        {
          "internalType": "bytes32",
          "name": "",
          "type": "bytes32"
        }
      ],
      "stateMutability": "view",
      "type": "function"
    },
    {
      "inputs": [],
      "name": "DEFAULT_ADMIN_ROLE",
      "outputs": [
        {
          "internalType": "bytes32",
          "name": "",
          "type": "bytes32"
        }
      ],
      "stateMutability": "view",
      "type": "function"
    },
    {
      "inputs": [],
      "name": "HIJACK_FAIL_PENALTY_BPS",
      "outputs": [
        {
          "internalType": "uint256",
          "name": "",
          "type": "uint256"
        }
      ],
      "stateMutability": "view",
      "type": "function"
    },
    {
      "inputs": [],
      "name": "HIJACK_STALL_PENALTY_BPS",
      "outputs": [
        {
          "internalType": "uint256",
          "name": "",
          "type": "uint256"
        }
      ],
      "stateMutability": "view",
      "type": "function"
    },
    {
      "inputs": [],
      "name": "LEAGUE_DISPUTE_DEADLINE",
      "outputs": [
        {
          "internalType": "uint256",
          "name": "",
          "type": "uint256"
        }
      ],
      "stateMutability": "view",
      "type": "function"
    },
    {
      "inputs": [],
      "name": "LEAGUE_ROLE",
      "outputs": [
        {
          "internalType": "bytes32",
          "name": "",
          "type": "bytes32"
        }
      ],
      "stateMutability": "view",
      "type": "function"
    },
    {
      "inputs": [],
      "name": "MAX_ACTIVE_NEGOTIATIONS",
      "outputs": [
        {
          "internalType": "uint256",
          "name": "",
          "type": "uint256"
        }
      ],
      "stateMutability": "view",
      "type": "function"
    },
    {
      "inputs": [],
      "name": "MAX_ADDONS",
      "outputs": [
        {
          "internalType": "uint256",
          "name": "",
          "type": "uint256"
        }
      ],
      "stateMutability": "view",
      "type": "function"
    },
    {
      "inputs": [],
      "name": "MAX_AGENT_BPS",
      "outputs": [
        {
          "internalType": "uint256",
          "name": "",
          "type": "uint256"
        }
      ],
      "stateMutability": "view",
      "type": "function"
    },
    {
      "inputs": [],
      "name": "MAX_NEGOTIATION_ROUNDS",
      "outputs": [
        {
          "internalType": "uint256",
          "name": "",
          "type": "uint256"
        }
      ],
      "stateMutability": "view",
      "type": "function"
    },
    {
      "inputs": [],
      "name": "MAX_PRICE",
      "outputs": [
        {
          "internalType": "uint256",
          "name": "",
          "type": "uint256"
        }
      ],
      "stateMutability": "view",
      "type": "function"
    },
    {
      "inputs": [],
      "name": "MAX_PROTOCOL_FEE_BPS",
      "outputs": [
        {
          "internalType": "uint256",
          "name": "",
          "type": "uint256"
        }
      ],
      "stateMutability": "view",
      "type": "function"
    },
    {
      "inputs": [],
      "name": "MAX_SELL_ON_BPS",
      "outputs": [
        {
          "internalType": "uint256",
          "name": "",
          "type": "uint256"
        }
      ],
      "stateMutability": "view",
      "type": "function"
    },
    {
      "inputs": [],
      "name": "MAX_SIGNING_BONUS_MONTHS",
      "outputs": [
        {
          "internalType": "uint256",
          "name": "",
          "type": "uint256"
        }
      ],
      "stateMutability": "view",
      "type": "function"
    },
    {
      "inputs": [],
      "name": "MAX_TOTAL_BIDS_PER_OFFER",
      "outputs": [
        {
          "internalType": "uint256",
          "name": "",
          "type": "uint256"
        }
      ],
      "stateMutability": "view",
      "type": "function"
    },
    {
      "inputs": [],
      "name": "MIN_CONSENT_WINDOW",
      "outputs": [
        {
          "internalType": "uint256",
          "name": "",
          "type": "uint256"
        }
      ],
      "stateMutability": "view",
      "type": "function"
    },
    {
      "inputs": [],
      "name": "UPGRADE_INTERFACE_VERSION",
      "outputs": [
        {
          "internalType": "string",
          "name": "",
          "type": "string"
        }
      ],
      "stateMutability": "view",
      "type": "function"
    },
    {
      "inputs": [
        {
          "internalType": "uint256",
          "name": "offerId",
          "type": "uint256"
        },
        {
          "internalType": "address",
          "name": "buyingClub",
          "type": "address"
        }
      ],
      "name": "acceptBid",
      "outputs": [],
      "stateMutability": "nonpayable",
      "type": "function"
    },
    {
      "inputs": [
        {
          "internalType": "address",
          "name": "token",
          "type": "address"
        }
      ],
      "name": "approveToken",
      "outputs": [],
      "stateMutability": "nonpayable",
      "type": "function"
    },
    {
      "inputs": [],
      "name": "consentWindow",
      "outputs": [
        {
          "internalType": "uint256",
          "name": "",
          "type": "uint256"
        }
      ],
      "stateMutability": "view",
      "type": "function"
    },
    {
      "inputs": [
        {
          "internalType": "uint256",
          "name": "offerId",
          "type": "uint256"
        },
        {
          "internalType": "address",
          "name": "buyingClub",
          "type": "address"
        },
        {
          "internalType": "uint256",
          "name": "newTransferFee",
          "type": "uint256"
        },
        {
          "internalType": "uint256",
          "name": "newSellOnBps",
          "type": "uint256"
        },
        {
          "internalType": "address",
          "name": "newSellOnRecipient",
          "type": "address"
        },
        {
          "internalType": "uint256",
          "name": "newSellerAgentBps",
          "type": "uint256"
        },
        {
          "internalType": "address",
          "name": "newSellerAgent",
          "type": "address"
        }
      ],
      "name": "counterBid",
      "outputs": [],
      "stateMutability": "nonpayable",
      "type": "function"
    },
    {
      "inputs": [
        {
          "internalType": "uint256",
          "name": "playerId",
          "type": "uint256"
        },
        {
          "internalType": "address",
          "name": "paymentToken",
          "type": "address"
        },
        {
          "internalType": "uint256",
          "name": "askingPrice",
          "type": "uint256"
        },
        {
          "internalType": "uint256",
          "name": "sellOnBps",
          "type": "uint256"
        },
        {
          "internalType": "address",
          "name": "sellOnRecipient",
          "type": "address"
        },
        {
          "internalType": "uint256",
          "name": "sellerAgentBps",
          "type": "uint256"
        },
        {
          "internalType": "address",
          "name": "sellerAgent",
          "type": "address"
        },
        {
          "internalType": "uint256",
          "name": "minimumHijackIncrementBps",
          "type": "uint256"
        },
        {
          "components": [
            {
              "internalType": "string",
              "name": "description",
              "type": "string"
            },
            {
              "internalType": "uint256",
              "name": "amount",
              "type": "uint256"
            },
            {
              "internalType": "bool",
              "name": "toPlayer",
              "type": "bool"
            },
            {
              "internalType": "bool",
              "name": "triggered",
              "type": "bool"
            }
          ],
          "internalType": "struct TransferTypes.AddOn[]",
          "name": "addOns",
          "type": "tuple[]"
        }
      ],
      "name": "createOffer",
      "outputs": [
        {
          "internalType": "uint256",
          "name": "offerId",
          "type": "uint256"
        }
      ],
      "stateMutability": "nonpayable",
      "type": "function"
    },
    {
      "inputs": [],
      "name": "dealEscrow",
      "outputs": [
        {
          "internalType": "contract IDealEscrow",
          "name": "",
          "type": "address"
        }
      ],
      "stateMutability": "view",
      "type": "function"
    },
    {
      "inputs": [
        {
          "internalType": "uint256",
          "name": "dealId",
          "type": "uint256"
        }
      ],
      "name": "expireMutualCancel",
      "outputs": [],
      "stateMutability": "nonpayable",
      "type": "function"
    },
    {
      "inputs": [
        {
          "internalType": "uint256",
          "name": "offerId",
          "type": "uint256"
        }
      ],
      "name": "getAllBids",
      "outputs": [
        {
          "components": [
            {
              "internalType": "uint256",
              "name": "offerId",
              "type": "uint256"
            },
            {
              "internalType": "address",
              "name": "buyingClub",
              "type": "address"
            },
            {
              "internalType": "address",
              "name": "paymentToken",
              "type": "address"
            },
            {
              "internalType": "uint256",
              "name": "transferFee",
              "type": "uint256"
            },
            {
              "internalType": "uint256",
              "name": "sellOnBps",
              "type": "uint256"
            },
            {
              "internalType": "address",
              "name": "sellOnRecipient",
              "type": "address"
            },
            {
              "internalType": "uint256",
              "name": "sellerAgentBps",
              "type": "uint256"
            },
            {
              "internalType": "address",
              "name": "sellerAgent",
              "type": "address"
            },
            {
              "internalType": "uint256",
              "name": "buyerAgentBps",
              "type": "uint256"
            },
            {
              "internalType": "address",
              "name": "buyerAgent",
              "type": "address"
            },
            {
              "internalType": "uint256",
              "name": "signingBonusMonths",
              "type": "uint256"
            },
            {
              "internalType": "uint256[]",
              "name": "installmentAmounts",
              "type": "uint256[]"
            },
            {
              "internalType": "uint256[]",
              "name": "installmentDueDates",
              "type": "uint256[]"
            },
            {
              "internalType": "uint256",
              "name": "submittedAt",
              "type": "uint256"
            },
            {
              "internalType": "uint256",
              "name": "updatedAt",
              "type": "uint256"
            },
            {
              "internalType": "uint256",
              "name": "roundNumber",
              "type": "uint256"
            },
            {
              "internalType": "bool",
              "name": "isCounterFromSeller",
              "type": "bool"
            },
            {
              "internalType": "enum TransferEscrow.BidStatus",
              "name": "status",
              "type": "uint8"
            }
          ],
          "internalType": "struct TransferEscrow.Bid[]",
          "name": "",
          "type": "tuple[]"
        }
      ],
      "stateMutability": "view",
      "type": "function"
    },
    {
      "inputs": [],
      "name": "getApprovedTokens",
      "outputs": [
        {
          "internalType": "address[]",
          "name": "",
          "type": "address[]"
        }
      ],
      "stateMutability": "view",
      "type": "function"
    },
    {
      "inputs": [
        {
          "internalType": "uint256",
          "name": "offerId",
          "type": "uint256"
        },
        {
          "internalType": "address",
          "name": "buyingClub",
          "type": "address"
        }
      ],
      "name": "getBid",
      "outputs": [
        {
          "components": [
            {
              "internalType": "uint256",
              "name": "offerId",
              "type": "uint256"
            },
            {
              "internalType": "address",
              "name": "buyingClub",
              "type": "address"
            },
            {
              "internalType": "address",
              "name": "paymentToken",
              "type": "address"
            },
            {
              "internalType": "uint256",
              "name": "transferFee",
              "type": "uint256"
            },
            {
              "internalType": "uint256",
              "name": "sellOnBps",
              "type": "uint256"
            },
            {
              "internalType": "address",
              "name": "sellOnRecipient",
              "type": "address"
            },
            {
              "internalType": "uint256",
              "name": "sellerAgentBps",
              "type": "uint256"
            },
            {
              "internalType": "address",
              "name": "sellerAgent",
              "type": "address"
            },
            {
              "internalType": "uint256",
              "name": "buyerAgentBps",
              "type": "uint256"
            },
            {
              "internalType": "address",
              "name": "buyerAgent",
              "type": "address"
            },
            {
              "internalType": "uint256",
              "name": "signingBonusMonths",
              "type": "uint256"
            },
            {
              "internalType": "uint256[]",
              "name": "installmentAmounts",
              "type": "uint256[]"
            },
            {
              "internalType": "uint256[]",
              "name": "installmentDueDates",
              "type": "uint256[]"
            },
            {
              "internalType": "uint256",
              "name": "submittedAt",
              "type": "uint256"
            },
            {
              "internalType": "uint256",
              "name": "updatedAt",
              "type": "uint256"
            },
            {
              "internalType": "uint256",
              "name": "roundNumber",
              "type": "uint256"
            },
            {
              "internalType": "bool",
              "name": "isCounterFromSeller",
              "type": "bool"
            },
            {
              "internalType": "enum TransferEscrow.BidStatus",
              "name": "status",
              "type": "uint8"
            }
          ],
          "internalType": "struct TransferEscrow.Bid",
          "name": "",
          "type": "tuple"
        }
      ],
      "stateMutability": "view",
      "type": "function"
    },
    {
      "inputs": [
        {
          "internalType": "uint256",
          "name": "offerId",
          "type": "uint256"
        }
      ],
      "name": "getBidCount",
      "outputs": [
        {
          "internalType": "uint256",
          "name": "",
          "type": "uint256"
        }
      ],
      "stateMutability": "view",
      "type": "function"
    },
    {
      "inputs": [
        {
          "internalType": "uint256",
          "name": "offerId",
          "type": "uint256"
        }
      ],
      "name": "getOffer",
      "outputs": [
        {
          "components": [
            {
              "internalType": "uint256",
              "name": "playerId",
              "type": "uint256"
            },
            {
              "internalType": "address",
              "name": "sellingClub",
              "type": "address"
            },
            {
              "internalType": "address",
              "name": "paymentToken",
              "type": "address"
            },
            {
              "internalType": "uint256",
              "name": "askingPrice",
              "type": "uint256"
            },
            {
              "internalType": "uint256",
              "name": "sellOnBps",
              "type": "uint256"
            },
            {
              "internalType": "address",
              "name": "sellOnRecipient",
              "type": "address"
            },
            {
              "internalType": "uint256",
              "name": "sellerAgentBps",
              "type": "uint256"
            },
            {
              "internalType": "address",
              "name": "sellerAgent",
              "type": "address"
            },
            {
              "internalType": "uint256",
              "name": "minimumHijackIncrementBps",
              "type": "uint256"
            },
            {
              "internalType": "uint256",
              "name": "createdAt",
              "type": "uint256"
            },
            {
              "internalType": "uint256",
              "name": "activeNegotiations",
              "type": "uint256"
            },
            {
              "internalType": "bool",
              "name": "exists",
              "type": "bool"
            }
          ],
          "internalType": "struct TransferEscrow.Offer",
          "name": "",
          "type": "tuple"
        }
      ],
      "stateMutability": "view",
      "type": "function"
    },
    {
      "inputs": [
        {
          "internalType": "uint256",
          "name": "offerId",
          "type": "uint256"
        }
      ],
      "name": "getOfferAddOns",
      "outputs": [
        {
          "components": [
            {
              "internalType": "string",
              "name": "description",
              "type": "string"
            },
            {
              "internalType": "uint256",
              "name": "amount",
              "type": "uint256"
            },
            {
              "internalType": "bool",
              "name": "toPlayer",
              "type": "bool"
            },
            {
              "internalType": "bool",
              "name": "triggered",
              "type": "bool"
            }
          ],
          "internalType": "struct TransferTypes.AddOn[]",
          "name": "",
          "type": "tuple[]"
        }
      ],
      "stateMutability": "view",
      "type": "function"
    },
    {
      "inputs": [
        {
          "internalType": "uint256",
          "name": "playerId",
          "type": "uint256"
        }
      ],
      "name": "getPlayerDeal",
      "outputs": [
        {
          "internalType": "uint256",
          "name": "",
          "type": "uint256"
        }
      ],
      "stateMutability": "view",
      "type": "function"
    },
    {
      "inputs": [
        {
          "internalType": "uint256",
          "name": "playerId",
          "type": "uint256"
        }
      ],
      "name": "getPlayerOffer",
      "outputs": [
        {
          "internalType": "uint256",
          "name": "",
          "type": "uint256"
        }
      ],
      "stateMutability": "view",
      "type": "function"
    },
    {
      "inputs": [
        {
          "internalType": "bytes32",
          "name": "role",
          "type": "bytes32"
        }
      ],
      "name": "getRoleAdmin",
      "outputs": [
        {
          "internalType": "bytes32",
          "name": "",
          "type": "bytes32"
        }
      ],
      "stateMutability": "view",
      "type": "function"
    },
    {
      "inputs": [
        {
          "internalType": "address",
          "name": "club",
          "type": "address"
        }
      ],
      "name": "getTransferBan",
      "outputs": [
        {
          "components": [
            {
              "internalType": "uint256",
              "name": "windowsRemaining",
              "type": "uint256"
            },
            {
              "internalType": "bool",
              "name": "active",
              "type": "bool"
            }
          ],
          "internalType": "struct TransferEscrow.TransferBan",
          "name": "",
          "type": "tuple"
        }
      ],
      "stateMutability": "view",
      "type": "function"
    },
    {
      "inputs": [
        {
          "internalType": "bytes32",
          "name": "role",
          "type": "bytes32"
        },
        {
          "internalType": "address",
          "name": "account",
          "type": "address"
        }
      ],
      "name": "grantRole",
      "outputs": [],
      "stateMutability": "nonpayable",
      "type": "function"
    },
    {
      "inputs": [
        {
          "internalType": "bytes32",
          "name": "role",
          "type": "bytes32"
        },
        {
          "internalType": "address",
          "name": "account",
          "type": "address"
        }
      ],
      "name": "hasRole",
      "outputs": [
        {
          "internalType": "bool",
          "name": "",
          "type": "bool"
        }
      ],
      "stateMutability": "view",
      "type": "function"
    },
    {
      "inputs": [
        {
          "internalType": "address",
          "name": "_playerRegistry",
          "type": "address"
        },
        {
          "internalType": "address",
          "name": "_transferWindow",
          "type": "address"
        },
        {
          "internalType": "address",
          "name": "_dealEscrow",
          "type": "address"
        },
        {
          "internalType": "address",
          "name": "_treasury",
          "type": "address"
        },
        {
          "internalType": "address",
          "name": "_admin",
          "type": "address"
        }
      ],
      "name": "initialize",
      "outputs": [],
      "stateMutability": "nonpayable",
      "type": "function"
    },
    {
      "inputs": [
        {
          "internalType": "address",
          "name": "token",
          "type": "address"
        }
      ],
      "name": "isTokenApproved",
      "outputs": [
        {
          "internalType": "bool",
          "name": "",
          "type": "bool"
        }
      ],
      "stateMutability": "view",
      "type": "function"
    },
    {
      "inputs": [
        {
          "internalType": "address",
          "name": "club",
          "type": "address"
        },
        {
          "internalType": "uint256",
          "name": "windows",
          "type": "uint256"
        }
      ],
      "name": "issueBan",
      "outputs": [],
      "stateMutability": "nonpayable",
      "type": "function"
    },
    {
      "inputs": [
        {
          "internalType": "address",
          "name": "club",
          "type": "address"
        }
      ],
      "name": "liftBan",
      "outputs": [],
      "stateMutability": "nonpayable",
      "type": "function"
    },
    {
      "inputs": [],
      "name": "pause",
      "outputs": [],
      "stateMutability": "nonpayable",
      "type": "function"
    },
    {
      "inputs": [],
      "name": "paused",
      "outputs": [
        {
          "internalType": "bool",
          "name": "",
          "type": "bool"
        }
      ],
      "stateMutability": "view",
      "type": "function"
    },
    {
      "inputs": [],
      "name": "playerRegistry",
      "outputs": [
        {
          "internalType": "contract IPlayerRegistry",
          "name": "",
          "type": "address"
        }
      ],
      "stateMutability": "view",
      "type": "function"
    },
    {
      "inputs": [
        {
          "internalType": "uint256",
          "name": "dealId",
          "type": "uint256"
        }
      ],
      "name": "processExpiry",
      "outputs": [],
      "stateMutability": "nonpayable",
      "type": "function"
    },
    {
      "inputs": [
        {
          "internalType": "address[]",
          "name": "bannedClubs",
          "type": "address[]"
        }
      ],
      "name": "processNewWindow",
      "outputs": [],
      "stateMutability": "nonpayable",
      "type": "function"
    },
    {
      "inputs": [],
      "name": "protocolFeeBps",
      "outputs": [
        {
          "internalType": "uint256",
          "name": "",
          "type": "uint256"
        }
      ],
      "stateMutability": "view",
      "type": "function"
    },
    {
      "inputs": [],
      "name": "proxiableUUID",
      "outputs": [
        {
          "internalType": "bytes32",
          "name": "",
          "type": "bytes32"
        }
      ],
      "stateMutability": "view",
      "type": "function"
    },
    {
      "inputs": [
        {
          "internalType": "uint256",
          "name": "offerId",
          "type": "uint256"
        },
        {
          "internalType": "address",
          "name": "buyingClub",
          "type": "address"
        }
      ],
      "name": "rejectBid",
      "outputs": [],
      "stateMutability": "nonpayable",
      "type": "function"
    },
    {
      "inputs": [
        {
          "internalType": "bytes32",
          "name": "role",
          "type": "bytes32"
        },
        {
          "internalType": "address",
          "name": "callerConfirmation",
          "type": "address"
        }
      ],
      "name": "renounceRole",
      "outputs": [],
      "stateMutability": "nonpayable",
      "type": "function"
    },
    {
      "inputs": [
        {
          "internalType": "uint256",
          "name": "dealId",
          "type": "uint256"
        },
        {
          "internalType": "uint8",
          "name": "op",
          "type": "uint8"
        },
        {
          "internalType": "uint256",
          "name": "newFee",
          "type": "uint256"
        }
      ],
      "name": "resolveDeadlock",
      "outputs": [],
      "stateMutability": "nonpayable",
      "type": "function"
    },
    {
      "inputs": [
        {
          "internalType": "bytes32",
          "name": "role",
          "type": "bytes32"
        },
        {
          "internalType": "address",
          "name": "account",
          "type": "address"
        }
      ],
      "name": "revokeRole",
      "outputs": [],
      "stateMutability": "nonpayable",
      "type": "function"
    },
    {
      "inputs": [
        {
          "internalType": "address",
          "name": "token",
          "type": "address"
        }
      ],
      "name": "revokeToken",
      "outputs": [],
      "stateMutability": "nonpayable",
      "type": "function"
    },
    {
      "inputs": [
        {
          "internalType": "uint256",
          "name": "duration",
          "type": "uint256"
        }
      ],
      "name": "setConsentWindow",
      "outputs": [],
      "stateMutability": "nonpayable",
      "type": "function"
    },
    {
      "inputs": [
        {
          "internalType": "uint256",
          "name": "bps",
          "type": "uint256"
        }
      ],
      "name": "setProtocolFee",
      "outputs": [],
      "stateMutability": "nonpayable",
      "type": "function"
    },
    {
      "inputs": [
        {
          "internalType": "address",
          "name": "_treasury",
          "type": "address"
        }
      ],
      "name": "setTreasury",
      "outputs": [],
      "stateMutability": "nonpayable",
      "type": "function"
    },
    {
      "inputs": [
        {
          "internalType": "uint256",
          "name": "offerId",
          "type": "uint256"
        },
        {
          "internalType": "uint256",
          "name": "transferFee",
          "type": "uint256"
        },
        {
          "internalType": "uint256",
          "name": "sellOnBps",
          "type": "uint256"
        },
        {
          "internalType": "address",
          "name": "sellOnRecipient",
          "type": "address"
        },
        {
          "internalType": "uint256",
          "name": "sellerAgentBps",
          "type": "uint256"
        },
        {
          "internalType": "address",
          "name": "sellerAgent",
          "type": "address"
        },
        {
          "internalType": "uint256",
          "name": "buyerAgentBps",
          "type": "uint256"
        },
        {
          "internalType": "address",
          "name": "buyerAgent",
          "type": "address"
        },
        {
          "internalType": "uint256",
          "name": "signingBonusMonths",
          "type": "uint256"
        },
        {
          "internalType": "uint256[]",
          "name": "installmentAmounts",
          "type": "uint256[]"
        },
        {
          "internalType": "uint256[]",
          "name": "installmentDueDates",
          "type": "uint256[]"
        }
      ],
      "name": "submitBid",
      "outputs": [],
      "stateMutability": "nonpayable",
      "type": "function"
    },
    {
      "inputs": [
        {
          "internalType": "uint256",
          "name": "dealId",
          "type": "uint256"
        },
        {
          "internalType": "uint256",
          "name": "transferFee",
          "type": "uint256"
        },
        {
          "internalType": "uint256",
          "name": "buyerAgentBps",
          "type": "uint256"
        },
        {
          "internalType": "address",
          "name": "buyerAgent",
          "type": "address"
        },
        {
          "internalType": "uint256",
          "name": "signingBonusMonths",
          "type": "uint256"
        }
      ],
      "name": "submitHijackBid",
      "outputs": [],
      "stateMutability": "nonpayable",
      "type": "function"
    },
    {
      "inputs": [
        {
          "internalType": "bytes4",
          "name": "interfaceId",
          "type": "bytes4"
        }
      ],
      "name": "supportsInterface",
      "outputs": [
        {
          "internalType": "bool",
          "name": "",
          "type": "bool"
        }
      ],
      "stateMutability": "view",
      "type": "function"
    },
    {
      "inputs": [],
      "name": "totalOffers",
      "outputs": [
        {
          "internalType": "uint256",
          "name": "",
          "type": "uint256"
        }
      ],
      "stateMutability": "view",
      "type": "function"
    },
    {
      "inputs": [],
      "name": "transferWindow",
      "outputs": [
        {
          "internalType": "contract ITransferWindow",
          "name": "",
          "type": "address"
        }
      ],
      "stateMutability": "view",
      "type": "function"
    },
    {
      "inputs": [],
      "name": "treasury",
      "outputs": [
        {
          "internalType": "address",
          "name": "",
          "type": "address"
        }
      ],
      "stateMutability": "view",
      "type": "function"
    },
    {
      "inputs": [],
      "name": "unpause",
      "outputs": [],
      "stateMutability": "nonpayable",
      "type": "function"
    },
    {
      "inputs": [
        {
          "internalType": "uint256",
          "name": "offerId",
          "type": "uint256"
        },
        {
          "internalType": "uint256",
          "name": "newTransferFee",
          "type": "uint256"
        },
        {
          "internalType": "uint256",
          "name": "newSellOnBps",
          "type": "uint256"
        },
        {
          "internalType": "address",
          "name": "newSellOnRecipient",
          "type": "address"
        },
        {
          "internalType": "uint256",
          "name": "newSellerAgentBps",
          "type": "uint256"
        },
        {
          "internalType": "address",
          "name": "newSellerAgent",
          "type": "address"
        },
        {
          "internalType": "uint256",
          "name": "newBuyerAgentBps",
          "type": "uint256"
        },
        {
          "internalType": "address",
          "name": "newBuyerAgent",
          "type": "address"
        },
        {
          "internalType": "uint256",
          "name": "newSalaryGuaranteeMonths",
          "type": "uint256"
        }
      ],
      "name": "updateBid",
      "outputs": [],
      "stateMutability": "nonpayable",
      "type": "function"
    },
    {
      "inputs": [
        {
          "internalType": "uint256",
          "name": "offerId",
          "type": "uint256"
        },
        {
          "internalType": "uint256",
          "name": "newAskingPrice",
          "type": "uint256"
        },
        {
          "internalType": "uint256",
          "name": "newSellOnBps",
          "type": "uint256"
        },
        {
          "internalType": "address",
          "name": "newSellOnRecipient",
          "type": "address"
        },
        {
          "internalType": "uint256",
          "name": "newSellerAgentBps",
          "type": "uint256"
        },
        {
          "internalType": "address",
          "name": "newSellerAgent",
          "type": "address"
        },
        {
          "internalType": "uint256",
          "name": "newMinimumHijackIncrementBps",
          "type": "uint256"
        }
      ],
      "name": "updateOffer",
      "outputs": [],
      "stateMutability": "nonpayable",
      "type": "function"
    },
    {
      "inputs": [
        {
          "internalType": "address",
          "name": "newImplementation",
          "type": "address"
        },
        {
          "internalType": "bytes",
          "name": "data",
          "type": "bytes"
        }
      ],
      "name": "upgradeToAndCall",
      "outputs": [],
      "stateMutability": "payable",
      "type": "function"
    },
    {
      "inputs": [
        {
          "internalType": "uint256",
          "name": "dealId",
          "type": "uint256"
        }
      ],
      "name": "walkAwayFromRenegotiation",
      "outputs": [],
      "stateMutability": "nonpayable",
      "type": "function"
    },
    {
      "inputs": [
        {
          "internalType": "uint256",
          "name": "offerId",
          "type": "uint256"
        }
      ],
      "name": "withdrawBid",
      "outputs": [],
      "stateMutability": "nonpayable",
      "type": "function"
    },
    {
      "inputs": [
        {
          "internalType": "uint256",
          "name": "offerId",
          "type": "uint256"
        }
      ],
      "name": "withdrawOffer",
      "outputs": [],
      "stateMutability": "nonpayable",
      "type": "function"
    }
  ],
  "bytecode": "0x60a080604052346100c257306080525f51602061587e5f395f51905f525460ff8160401c166100b3576002600160401b03196001600160401b03821601610060575b6040516157b790816100c7823960805181818161227501526123950152f35b6001600160401b0319166001600160401b039081175f51602061587e5f395f51905f525581527fc7f505b2f371ae2175ee4913f4499e1f2633a7b5936321eed1cdaeb6115181d290602090a15f80610041565b63f92ee8a960e01b5f5260045ffd5b5f80fdfe6080806040526004361015610012575f80fd5b5f905f3560e01c90816301c11d96146148305750806301ffc9a7146147da578063020686641461407a5780630633ee9f14613b3f5780630c10207114613b245780630eaaf4c8146139d15780631459457a146137b3578063196599ec146134bc5780631a9c09e014613208578063248a9ca3146131e15780632bbda320146130055780632ce05d0314612fe85780632f2ff15d14612fb657806335659fb814612f9857806336568abe14612f535780633677277c14612f355780633f4ba83a14612eb55780633f8f6fb61461273a5780634579268a146125725780634628bd6b146125565780634c74ef9c1461252d5780634f1ef2861461231c578063515ac0d6146122f25780635169a6ff146122c957806352d1902d1461226257806353c15ac2146122465780635c975abb146122175780635d205f7c146120de57806360e49e44146120b6578063614d2c3614611f0457806361d027b314611edb578063625fa9d914611ebe5780636afc0c5f14611df65780636d947e4b1461199c578063744d341114611dcc57806375b238fc14611da4578063787dce3d14611d3e57806378fc263e14611d2057806380b2edd814611c5357806380cd2e6514611c1857806382c88d4f14611b0c5780638456cb5914611a995780638610f045146119da578063892b38c2146119be5780638a7a2296146119a15780638d13c1b81461199c57806391d1485414611946578063933f4eef146117ee5780639d93d352146117af5780639f3bbd1d14611792578063a0d5e2a5146116c0578063a217fddf146116a4578063a528ff8314611424578063a9fd8ed114611406578063ad3cb1cc146113bd578063b417c7da1461134b578063b76d664714611322578063b9ebd9f81461117a578063bad7259a14610d79578063bfadc8f914610ce1578063cbeae2b414610b52578063d547741f14610b17578063e004c0e414610895578063e088ea6414610629578063e1a452181461060c578063eba1b60b1461045c578063ebb5232f14610440578063f0f44260146103c7578063f6a220b81461034a5763fc8045b114610320575f80fd5b3461034757806003193601126103475760206040515f5160206157625f395f51905f528152f35b80fd5b5034610347576020366003190112610347576103646148ab565b61036c6150f1565b6001600160a01b03168082526010602052604082206001015460ff16156103b857808252601060205260408220600101805460ff191690555f5160206157025f395f51905f528280a280f35b63e4793f3960e01b8252600482fd5b5034610347576020366003190112610347576103e16148ab565b6103e96150b5565b6001600160a01b0316801561043157600580546001600160a01b031916821790557f7dae230f18360d76a040c81f050aa14eb9d6dc7901b20fc5d855e2a20fe814d18280a280f35b63e6c4247b60e01b8252600482fd5b5034610347578060031936011261034757602060405160038152f35b503461034757604036600319011261034757600435610479614853565b90610482614f51565b50808352600860205260408320600101546001600160a01b0316331415806105f9575b6105ea578252600a602052604082209060018060a01b03165f5260205260405f2060ff6010604051926104d78461491d565b8054845260018101546001600160a01b03908116602086015260028201548116604086015260038201546060860152600482015460808601526005820154811660a0860152600682015460c08601526007820154811660e08601526008820154610100860152600982015416610120850152600a810154610140850152610560600b8201614bba565b610160850152610572600c8201614bba565b610180850152600d8101546101a0850152600e8101546101c0850152600f8101546101e08501520154818116151561020084015260081c1660068110156105d6576105d29250610220820152604051918291602083526020830190614a09565b0390f35b634e487b7160e01b83526021600452602483fd5b6303e2f0f360e51b8352600483fd5b50336001600160a01b03831614156104a5565b503461034757806003193601126103475760206040516127108152f35b503461034757606036600319011261034757600435906024359160ff8316809303610891576044359261065a614fe9565b6002835414610882576002835561066f6150f1565b60048054604051634f0df86560e01b81529182018490526001600160a01b0316919061010081602481865afa908115610877578591610848575b508051156108395760c0015160128110156108255760ff6008911603610816578061074857505060045491925082916001600160a01b031690813b1561074457829160448392604051948593849263029bc34f60e41b84526004840152600160248401525af1801561073957610724575b50505b6001815580f35b8161072e91614970565b61034757805f61071a565b6040513d84823e3d90fd5b5050fd5b600181036107b657505060045491925082916001600160a01b031690813b1561074457829160448392604051948593849262468c3560e51b845260048401528160248401525af18015610739576107a1575b505061071d565b816107ab91614970565b61034757805f61079a565b909190600203610807578315610807578293823b15610802576044849283604051958694859362468c3560e51b8552600485015260248401525af18015610739576107a157505061071d565b505050fd5b63162908e360e11b8352600483fd5b6372c24c3560e01b8452600484fd5b634e487b7160e01b85526021600452602485fd5b63223da47360e21b8552600485fd5b61086a91506101003d8111610870575b6108628183614970565b810190614dc0565b5f6106a9565b503d610858565b6040513d87823e3d90fd5b6306fda65d60e31b8352600483fd5b5080fd5b50346103475760e0366003190112610347576004356108b2614853565b9060443591606435906108c36148c1565b60a435916108cf6148d7565b906108d8614fe9565b6002885414610b085760028855858852600860205260ff600b60408a2001541615610af957858852600860205260408820600101546001600160a01b03163303610aea57858852600a602052604088209060018060a01b03165f5260205260405f2092601084019283549560ff8760081c166006811015610ad657600203610ac757600f860196600388541015610ab85760ff16610aa95788158015610a95575b610a86576107d08111610a665780151580610a75575b610a465761012c8311610a665782151580610a55575b610a46576003860189905560048601556005850180546001600160a01b03199081166001600160a01b03938416179091556006860192909255600785018054909216921691909117905582546109fa90614da6565b809355600160ff19825416179055600e4291015560405192835260208301527f0e53c40e73f19e7c2b351d1ccd74559419b70233453c899e9cbb4d1c82b8c60660403393a36001815580f35b63e6c4247b60e01b8a5260048afd5b506001600160a01b038416156109a5565b63c6cc5d7f60e01b8a5260048afd5b506001600160a01b0382161561098f565b63162908e360e11b8a5260048afd5b50676765c793fa10079d601a1b8911610979565b63262fa5e160e11b8a5260048afd5b63538a58a760e01b8b5260048bfd5b6307e0eec960e31b8a5260048afd5b634e487b7160e01b8b52602160045260248bfd5b6303e2f0f360e51b8852600488fd5b636df5846d60e01b8852600488fd5b6306fda65d60e31b8852600488fd5b503461034757604036600319011261034757610b4e600435610b37614853565b90610b49610b4482614e5d565b61513a565b61548e565b5080f35b503461034757602036600319011261034757600435808252600860205260ff600b6040842001541615610cd25781526009602052604081208054610b9581614f3a565b90610ba36040519283614970565b8082526020820190819385526020852085925b828410610c4d57868587604051928392602084019060208552518091526040840160408260051b8601019392905b828210610bf357505050500390f35b919360019193955060208091603f19898203018552875190606080610c218451608085526080850190614b1c565b938581015186850152604081015115156040850152015115159101529601920192018594939192610be4565b604051608081016001600160401b03811182821017610cbe57600192600392602092604052604051610c8a81610c83818a614c7a565b0382614970565b8152848601548382015260ff60028701548181161515604084015260081c1615156060820152815201920193019290610bb6565b634e487b7160e01b89526041600452602489fd5b636df5846d60e01b8252600482fd5b503461034757602036600319011261034757602490602060018060a01b03600454166040519384809263bfadc8f960e01b825260043560048301525afa908115610d6d5790610d36575b602090604051908152f35b506020813d602011610d65575b81610d5060209383614970565b81010312610d615760209051610d2b565b5f80fd5b3d9150610d43565b604051903d90823e3d90fd5b50346103475760203660031901126103475760043590600281541461116b576002815560048054604051630f8f795960e01b81529182018490526001600160a01b03169060c081602481855afa80156111605783849085938693611126575b501561083957611117578015610816574211156111085760ff166005811480156110fe575b15610e55575050600454909182916001600160a01b031690813b1561074457829160448392604051948593849263029bc34f60e41b84526004840152600860248401525af18015610739576107245750506001815580f35b60068103610eae575050600454909182916001600160a01b031690813b1561074457829160448392604051948593849263029bc34f60e41b84526004840152600960248401525af18015610739576107a157505061071d565b600b8103610f00575050600454909182916001600160a01b031690813b1561074457829160248392604051948593849263f5a4c31960e01b845260048401525af18015610739576107a157505061071d565b60078103610f59575050600454909182916001600160a01b031690813b1561074457829160448392604051948593849263029bc34f60e41b84526004840152600b60248401525af18015610739576107a157505061071d565b60088103610fb2575050600454909182916001600160a01b031690813b1561074457829160448392604051948593849263029bc34f60e41b84526004840152600c60248401525af18015610739576107a157505061071d565b60098103611004575050600454909182916001600160a01b031690813b15610744578291602483926040519485938492631ebee42560e11b845260048401525af18015610739576107a157505061071d565b600e8103611056575050600454909182916001600160a01b031690813b15610744578291602483926040519485938492639bf437df60e01b845260048401525af18015610739576107a157505061071d565b600f81036110a8575050600454909182916001600160a01b031690813b15610744578291602483926040519485938492639bf437df60e01b845260048401525af18015610739576107a157505061071d565b600d036110ef578192813b1561074457829160448392604051948593849263029bc34f60e41b84526004840152600d60248401525af18015610739576107a157505061071d565b6372c24c3560e01b8252600482fd5b50600a8114610dfd565b6372c24c3560e01b8352600483fd5b63e231c28f60e01b8452600484fd5b9250505061114c915060c03d60c011611159575b6111448183614970565b810190614ef0565b505092919092915f610dd8565b503d61113a565b6040513d85823e3d90fd5b6306fda65d60e31b8152600490fd5b503461034757604036600319011261034757600435611197614853565b61119f614fe9565b60028354146108825760028355818352600860205260ff600b60408520015416156113135781835260086020526040832060018101549091906001600160a01b0316330361130457828452600a6020526040842060018060a01b0382165f52602052601060405f20019160ff835460081c16926006841015806112f0576002851494851590816112e1575b506112d2576112be57805461ff00191661040017905582806112b1575b61129c575b50828452600c602052604084206112638154614db4565b90556001600160a01b0316825f5160206156025f395f51905f528580a361128d575b506001815580f35b61129690615180565b5f611285565b600a016112a98154614db4565b90555f61124c565b50600a8101541515611247565b634e487b7160e01b86526021600452602486fd5b6307e0eec960e31b8752600487fd5b9150506001879114155f61122a565b634e487b7160e01b87526021600452602487fd5b6303e2f0f360e51b8452600484fd5b636df5846d60e01b8352600483fd5b50346103475780600319360112610347576004546040516001600160a01b039091168152602090f35b503461034757602036600319011261034757604080916113696148ab565b816020845161137781614955565b82815201526001600160a01b03168152601060205220815161139881614955565b602060ff60018454948585520154169101901515815282519182525115156020820152f35b5034610347578060031936011261034757506105d26040516113e0604082614970565b60058152640352e302e360dc1b6020820152604051918291602083526020830190614b1c565b50346103475780600319360112610347576020600154604051908152f35b503461034757602036600319011261034757600435808252600860205260ff600b6040842001541615610cd257808252600860205260408220600101546001600160a01b0316330361169557808252600b6020526040822080549061148882614f3a565b926114966040519485614970565b828452601f196114a584614f3a565b01855b81811061167e575050845b8381106115215784866040519182916020830160208452825180915260408401602060408360051b870101940192905b8282106114f257505050500390f35b919360019193955060206115118192603f198a82030186528851614a09565b96019201920185949391926114e3565b818652600a602052604086206115378285614c1c565b60018060a01b0391549060031b1c1660018060a01b03165f5260205260405f2060ff6010604051926115688461491d565b8054845260018101546001600160a01b03908116602086015260028201548116604086015260038201546060860152600482015460808601526005820154811660a0860152600682015460c08601526007820154811660e08601526008820154610100860152600982015416610120850152600a8101546101408501526115f1600b8201614bba565b610160850152611603600c8201614bba565b610180850152600d8101546101a0850152600e8101546101c0850152600f8101546101e08501520154818116151561020084015260081c16600681101561166a57610220820152600191906116588288614fd5565b526116638187614fd5565b50016114b3565b634e487b7160e01b88526021600452602488fd5b602090611689614f51565b828289010152016114a8565b6303e2f0f360e51b8252600482fd5b5034610347578060031936011261034757602090604051908152f35b5034610347576040366003190112610347576116da6148ab565b602435906116e66150f1565b6001600160a01b031690811561178357801561080757818352601060205260ff6001604085200154166117745760207f0ffe513459702463615ee8ff7023e9830e6253bfe826f86ca79046e81ba908209161176a60405161174681614955565b82815260018482018181528789526010865260408920925183555115159101614c31565b604051908152a280f35b6336d3cb7960e11b8352600483fd5b63e6c4247b60e01b8352600483fd5b50346103475780600319360112610347576020604051610e108152f35b50346103475760203660031901126103475760209060ff906040906001600160a01b036117da6148ab565b168152600e84522054166040519015158152f35b5034610347576020366003190112610347576118086148ab565b61181061506c565b6001600160a01b0316808252600e602052604082205460ff161561193757808252600e60205260408220805460ff19169055600f5490825b828110611879575b83827f45f62f30e7b8439e0da7d8e560fe39d01238091ce9e789e3d12b514edf98acea8280a280f35b8161188382614c04565b905460039190911b1c6001600160a01b0316146118a257600101611848565b90915f19810190811161192357906118d76118bf6118dd93614c04565b905460039190911b1c6001600160a01b031691614c04565b90614d83565b600f54801561190f575f19016118f281614c04565b81549060018060a01b039060031b1b19169055600f55805f611850565b634e487b7160e01b83526031600452602483fd5b634e487b7160e01b84526011600452602484fd5b635a1303a760e01b8252600482fd5b5034610347576040366003190112610347576040611962614853565b9160043581525f5160206156c25f395f51905f52602052209060018060a01b03165f52602052602060ff60405f2054166040519015158152f35b6149ae565b503461034757806003193601126103475760206040516107d08152f35b5034610347578060031936011261034757602060405160188152f35b5034610347576020366003190112610347576004356119f7614fe9565b6002825414611a8a5760028255808252600860205260ff600b6040842001541615610cd25780825260086020526040822060018101546001600160a01b031633036105ea57600a81015461110857600b810160ff198154169055548252600d6020528160408120557facbc44b7f46dc350c99fc0d9e5f61ed5c588cb4cdc6b69ea0deb0c5b28e5efc48280a26001815580f35b6306fda65d60e31b8252600482fd5b5034610347578060031936011261034757611ab261506c565b611aba614fe9565b600160ff195f5160206156e25f395f51905f525416175f5160206156e25f395f51905f52557f62e78cea01bee320cd4e420270b5ea74000d11b0c9f74754ebdbfc544b05a2586020604051338152a180f35b50346103475760203660031901126103475760043560018060a01b0360045416604051630f8f795960e01b815282600482015260c081602481855afa8015611c0d578485928692611be2575b5015610839576001600160a01b03161561081657421115611108578083913b15610891578180916024604051809481936344d912a160e11b83528860048401525af1801561073957611bcd575b50807f1833f8bbbaedba04925e4618512692856f29f79deb98722cd8d7eca4fc1e6bc391a280f35b81611bd791614970565b61089157815f611ba5565b915050611bfe915060c03d60c011611159576111448183614970565b9492509250509091905f611b58565b6040513d86823e3d90fd5b503461034757602036600319011261034757600435611c3561506c565b610e108110611c445760075580f35b63296d383360e01b8252600482fd5b503461034757602036600319011261034757611c6d6148ab565b611c7561506c565b6001600160a01b03811690811561178357818352600e60205260ff604084205416611d1157818352600e60205260408320805460ff19166001179055600f54600160401b811015611cfd57906118d7826001611cd69401600f55600f614c1c565b7f5f5916d70d5479c1795a9d461360dfa5c673bc37904c8ab4fcbdc970b9e90f3d8280a280f35b634e487b7160e01b84526041600452602484fd5b6389f2a03b60e01b8352600483fd5b50346103475780600319360112610347576020600754604051908152f35b503461034757602036600319011261034757600435611d5b6150b5565b60c88111611d95576020817fd10d75876659a287a59a6ccfa2e3fff42f84d94b542837acd30bc184d562de4092600655604051908152a180f35b63499fddb160e01b8252600482fd5b503461034757806003193601126103475760206040515f5160206157225f395f51905f528152f35b50346103475760203660031901126103475760406020916004358152600c83522054604051908152f35b5034610347578060031936011261034757604051600f8054808352908352602082019081907f8d1108e10bcb7c27dddfc02ed9d693a074039d026cf4ea4240b40f7d581ac80290855b818110611e9f5750505082611e55910383614970565b604051928392602084019060208552518091526040840192915b818110611e7d575050500390f35b82516001600160a01b0316845285945060209384019390920191600101611e6f565b82546001600160a01b0316845260209093019260019283019201611e3f565b503461034757806003193601126103475760206040516101f48152f35b50346103475780600319360112610347576005546040516001600160a01b039091168152602090f35b5034610347576020366003190112610347576004356001600160401b03811161089157611f359036906004016148ed565b611f3d6150f1565b825b81811061203f5750825b818110611f54578380f35b6001600160a01b03611f6f611f6a838587614cfb565b614edc565b168452601060205260408420600181019081549060ff82161561203057908160019493925480611fdd575b505415611faa575b505001611f49565b60ff19169055818060a01b03611fc4611f6a838688614cfb565b165f5160206157025f395f51905f528680a25f80611fa2565b611fe690614db4565b8082557f5e3cf48d467d6f682659f32b47874269379e19498ffebf7b647d716d0f447339602089612021611f6a898c8c8060a01b0394614cfb565b1692604051908152a25f611f9a565b639eb02c9f60e01b8752600487fd5b600181018082116120a2575b82811061205b5750600101611f3f565b61206d611f6a83858798969597614cfb565b6001600160a01b03612083611f6a84868a614cfb565b6001600160a01b0390921691161461178357600101939290919361204b565b634e487b7160e01b85526011600452602485fd5b503461034757806003193601126103475760206040515f5160206156a25f395f51905f528152f35b503461034757602036600319011261034757600435906120fc614fe9565b600281541461116b576002815560048054604051634f0df86560e01b81529182018490526001600160a01b03169061010081602481855afa9081156111605783916121f8575b508051156121e95760c081015160128110156121d55760ff600791160361110857604001516001600160a01b031633036121c6578192813b15610744578291602483926040519485938492631c70d28d60e21b845260048401525af18015610739576121b1575b506001905580f35b816121bb91614970565b61034757805f6121a9565b63223da47360e21b8252600482fd5b634e487b7160e01b84526021600452602484fd5b63223da47360e21b8352600483fd5b61221191506101003d8111610870576108628183614970565b5f612142565b5034610347578060031936011261034757602060ff5f5160206156e25f395f51905f5254166040519015158152f35b5034610347578060031936011261034757602060405160058152f35b50346103475780600319360112610347577f00000000000000000000000000000000000000000000000000000000000000006001600160a01b031630036122ba5760206040515f5160206156825f395f51905f528152f35b63703e46dd60e11b8152600490fd5b50346103475780600319360112610347576003546040516001600160a01b039091168152602090f35b50346103475760203660031901126103475760406020916004358152600d83522054604051908152f35b506040366003190112610347576123316148ab565b60243591906001600160401b038311610891573660238401121561089157826004013561235d81614993565b9361236b6040519586614970565b81855236602483830101116125295781849260246020930183880137850101526001600160a01b037f000000000000000000000000000000000000000000000000000000000000000016308114908115612507575b506124f8576123cd6150b5565b6040516352d1902d60e01b8152926001600160a01b0382169190602085600481865afa809585966124c0575b5061241257634c9c8ce360e01b84526004839052602484fd5b9091845f5160206156825f395f51905f5281036124ae5750823b1561249c575f5160206156825f395f51905f5280546001600160a01b031916821790557fbc7cd75a20ee27fd9adebab32041f755214dbc6bffa90cc0225b39da2e5c2d3b8480a280511561248357610b4e91615555565b50503461248d5780f35b63b398979f60e01b8152600490fd5b634c9c8ce360e01b8452600452602483fd5b632a87526960e21b8552600452602484fd5b9095506020813d6020116124f0575b816124dc60209383614970565b810103126124ec5751945f6123f9565b8480fd5b3d91506124cf565b63703e46dd60e11b8252600482fd5b5f5160206156825f395f51905f52546001600160a01b0316141590505f6123c0565b8380fd5b50346103475780600319360112610347576002546040516001600160a01b039091168152602090f35b5034610347578060031936011261034757602060405160148152f35b5034610347576020366003190112610347576004358161016060405161259781614939565b8281528260208201528260408201528260608201528260808201528260a08201528260c08201528260e08201528261010082015282610120820152826101408201520152808252600860205260ff600b6040842001541615610cd25781604091610180935260086020522060405161260e81614939565b808083549384825260018060a01b036001820154166020830190815260018060a01b036002830154166040840190815260038301546060850190815260048401546080860190815260018060a01b036005860154169160a0870192835260068601549360c0880194855260018060a01b036007880154169560e0890196875261016060ff600b60088b01549a6101008d019b8c5261012060098201549d019c8d52610140600a8201549e019d8e520154169b019a15158b526040519b8c5260018060a01b0390511660208c015260018060a01b0390511660408b01525160608a015251608089015260018060a01b0390511660a08801525160c087015260018060a01b0390511660e0860152516101008501525161012084015251610140830152511515610160820152f35b50346103475761012036600319011261034757600435612758614853565b60643591604435916127686148c1565b9060a435946127756148d7565b60e4359390610104356001600160401b038111612eb15761279a9036906004016148ed565b9590946127a5614fe9565b60028b5414612ea25760028b556127ba615010565b6001600160a01b0316808b52600e60205260408b205490929060ff1615612e9357600354604051636896470560e11b815290602090829060049082906001600160a01b03165afa908115612df0578c91612e59575b5015612e4a57878b52600d60205260408b2054612e3c576004805460405163bfadc8f960e01b81529182018a9052602090829060249082906001600160a01b03165afa908115612df0578c91612e0a575b50612dfb576002546040516369d146b560e11b8152600481018a905290602090829060249082906001600160a01b03165afa908115612df0578c91612db2575b50336001600160a01b0390911603612da35788158015612d8f575b612d80576107d08511612d355784151580612d6f575b612d4f5761012c8a11612d355789151580612d5e575b612d4f5781158015612d44575b612d3557600a8711612d2657908a9291835b888110612cb5575060015461291a90614da6565b9a8b95866001556040519761292e89614939565b8b89528c60208a019633885260408b0190815260608b0191825260808b0192835260a08b0193600160a01b6001900316845260c08b0194855260e08b0195600160a01b600190031686526101008b019687526101208b01974289526101408c0199808b526101608d019b60018d5281526008602052604090209b518c55600160a01b6001900390511660018c0190600160a01b6001900316600160a01b6001900319825416179055600160a01b6001900390511660028b0190600160a01b6001900316600160a01b60019003198254161790555160038a0155516004890155600160a01b600190039051166005880190600160a01b6001900316600160a01b6001900319825416179055516006870155600160a01b600190039051166007860190600160a01b6001900316600160a01b600190031982541617905551600885015551600984015551600a83015551151590600b0190612a8c91614c31565b855b828110612adf576020866001898888808352600d8652846040842055604051918252847f32645f28ae455f14af7a547728c579fc5a3f52d9c6db6d22a0de0ded95c82cbe873394a455604051908152f35b858752600960205260408720612af6828585614e7b565b81549091600160401b821015612ca15760018201808255821015612c8d578952600360208a20910201612b298280614e9d565b906001600160401b038211612c7957612b428354614c42565b601f8111612c3e575b508a908b601f8411600114612bcf579383612baa9460609460029460019a999892612bc4575b50505f19600383901b1c191690881b1781555b6020850135878201550192612ba4612b9e60408301614ecf565b85614c31565b01614ecf565b815461ff00191690151560081b61ff001617905501612a8e565b013590505f80612b71565b50838c5260208c2091601f1984168d5b818110612c2657508460609460029460019a999894612baa988c9510612c0d575b505050811b018155612b84565b01355f19600384901b60f8161c191690555f8080612c00565b91936020600181928787013581550195019201612bdf565b612c6990848d5260208d20601f850160051c81019160208610612c6f575b601f0160051c0190614d18565b5f612b4b565b9091508190612c5c565b634e487b7160e01b8b52604160045260248bfd5b634e487b7160e01b8a52603260045260248afd5b634e487b7160e01b8a52604160045260248afd5b9091929350612cce612cc8828a8a614e7b565b80614e9d565b9050158015612d0c575b612cfd576020612ce9828a8a614e7b565b013515612cfd57600101908b939291612906565b63162908e360e11b8c5260048cfd5b50610100612d1e612cc8838b8b614e7b565b905011612cd8565b630ba8482160e11b8b5260048bfd5b63c6cc5d7f60e01b8b5260048bfd5b5061271082116128f4565b63e6c4247b60e01b8b5260048bfd5b506001600160a01b038116156128e7565b506001600160a01b038416156128d1565b63162908e360e11b8b5260048bfd5b50676765c793fa10079d601a1b89116128bb565b6303e2f0f360e51b8b5260048bfd5b90506020813d602011612de8575b81612dcd60209383614970565b81010312612de457612dde90614b86565b5f6128a0565b8b80fd5b3d9150612dc0565b6040513d8e823e3d90fd5b631a29045b60e11b8b5260048bfd5b90506020813d602011612e34575b81612e2560209383614970565b81010312610d6157515f612860565b3d9150612e18565b6219c1a760e21b8b5260048bfd5b6304d54fbf60e41b8b5260048bfd5b90506020813d602011612e8b575b81612e7460209383614970565b81010312612de457612e8590614b9a565b5f61280f565b3d9150612e67565b6332da96a360e01b8b5260048bfd5b6306fda65d60e31b8b5260048bfd5b8980fd5b5034610347578060031936011261034757612ece61506c565b5f5160206156e25f395f51905f525460ff811615612f265760ff19165f5160206156e25f395f51905f52557f5db9ee0a495bf2e6ff9c91a7834c1ba4fdd244a5e8aa4e537bd38aeae4b073aa6020604051338152a180f35b638dfc202b60e01b8252600482fd5b5034610347578060031936011261034757602060405162093a808152f35b503461034757604036600319011261034757612f6d614853565b336001600160a01b03821603612f8957610b4e9060043561548e565b63334bd91960e11b8252600482fd5b50346103475780600319360112610347576020600654604051908152f35b503461034757604036600319011261034757610b4e600435612fd6614853565b90612fe3610b4482614e5d565b6153fd565b5034610347578060031936011261034757602060405161012c8152f35b50346103475760e036600319011261034757600435602435604435613028614869565b9060843561303461487f565b9060c43593613041614fe9565b6002885414610b085760028855868852600860205260ff600b60408a2001541615610af95786885260086020526040882060018101549094906001600160a01b031633036131d257600a8501546131c357861580156131af575b6131a0576107d08111613155578015158061318f575b61316f5761012c8311613155578215158061317e575b61316f5785158015613164575b613155576003850187905560048501556005840180546001600160a01b03199081166001600160a01b039384161790915560068501929092556007840180549092169216919091179055600801556040519081527f63259830931e406791f7755ad50d816251e755d53951772775a94f2bf0e54fde90602090a26001815580f35b63c6cc5d7f60e01b8952600489fd5b5061271086116130d4565b63e6c4247b60e01b8952600489fd5b506001600160a01b038416156130c7565b506001600160a01b038216156130b1565b63162908e360e11b8952600489fd5b50676765c793fa10079d601a1b871161309b565b6372c24c3560e01b8952600489fd5b6303e2f0f360e51b8952600489fd5b5034610347576020366003190112610347576020613200600435614e5d565b604051908152f35b5034610347576101203660031901126103475760243560043560443561322c614869565b6084359161323861487f565b60c435613243614895565b906101043592613251614fe9565b60028a54146134ad5760028a55878a52600860205260ff600b60408c200154161561349e57878a52600a60205260408a2060018060a01b0333165f5260205260405f2096601088019687549660ff8860081c16600681101561348a5760020361347b57600f8a0197885490600382101561346c5760ff16159081613462575b50613453578b15801561343f575b6133df576107d0811161340e578015158061342e575b6133ee5761012c831161340e578215158061341d575b6133ee5761012c851161340e57841515806133fd575b6133ee57601887116133df5760038a018c905560048a01556005890180546001600160a01b03199081166001600160a01b039384161790915560068a019290925560078901805483169382169390931790925560088801929092556009870180549092169216919091179055600a840155805461339c90614da6565b905560ff198154169055600e429101556040519182527f67084cbee80e339a509d7ab5561456aebf1df51370948a18a4449a1978d368ee60203393a36001815580f35b63162908e360e11b8d5260048dfd5b63e6c4247b60e01b8d5260048dfd5b506001600160a01b03861615613320565b63c6cc5d7f60e01b8d5260048dfd5b506001600160a01b0384161561330a565b506001600160a01b038216156132f4565b50676765c793fa10079d601a1b8c116132de565b63262fa5e160e11b8d5260048dfd5b905015155f6132d0565b63538a58a760e01b8f5260048ffd5b63340d7a1f60e01b8d5260048dfd5b634e487b7160e01b8e52602160045260248efd5b636df5846d60e01b8a5260048afd5b6306fda65d60e31b8a5260048afd5b5034610d615760a0366003190112610d61576024356004356044356134df614869565b906134e8614fe9565b60025f54146137a45760025f556134fd615010565b335f52601060205260ff600160405f200154166137955760048054604051634f0df86560e01b81529182018590526001600160a01b0316949061010081602481895afa9081156136a5575f91613776575b508051156137675760c0810151601281101561375357600819016137445760e081015142116137445760208101516001600160a01b031633146137365760408101516001600160a01b03163314613727576135bf60808201516127106135b860a085015183614ba7565b0490614d0b565b808310613710575061012c831161370157821515806136f0575b6136e157606060018060a01b0391015116604051956323b872dd60e01b5f52336004526024528160445260205f60648180855af160015f51148116156136c2575b866040525f606052156136b057506004546001600160a01b031693843b15610d6157630c1fff9d60e31b86526004860152336024860152604485015260648401526001600160a01b03166084808401919091523560a48301525f90829060c490829084905af180156136a55761369257506001815580f35b61369e91505f90614970565b5f5f611285565b6040513d5f823e3d90fd5b635274afe760e01b5f5260045260245ffd5b60018115166136d857813b15153d15161661361a565b863d5f823e3d90fd5b63e6c4247b60e01b5f5260045ffd5b506001600160a01b038416156135d9565b63c6cc5d7f60e01b5f5260045ffd5b905063eace4ad160e01b5f5260045260245260445ffd5b6366b9b88760e01b5f5260045ffd5b6258479160e51b5f5260045ffd5b6327232a2960e11b5f5260045ffd5b634e487b7160e01b5f52602160045260245ffd5b63223da47360e21b5f5260045ffd5b61378f91506101003d8111610870576108628183614970565b5f61354e565b635bd4169d60e01b5f5260045ffd5b6306fda65d60e31b5f5260045ffd5b34610d615760a0366003190112610d61576137cc6148ab565b6137d4614853565b6044356001600160a01b03811690819003610d61576137f1614869565b6137f96148c1565b5f5160206157425f395f51905f5254604081901c60ff161595919391906001600160401b038116801590816139c9575b60011490816139bf575b1590816139b6575b506139a7576001600160401b031981166001175f5160206157425f395f51905f52558661397f575b506001600160a01b03169384156136e1576001600160a01b03169182156136e15781156136e1576001600160a01b03169182156136e1576001600160a01b038416156136e157613926946138b561552a565b6138bd61552a565b60015f5560018060a01b0319600254161760025560018060a01b0319600354161760035560018060a01b0319600454161760045560018060a01b031960055416176005556203f480600755603260065561391681615287565b50613920816152fd565b5061537d565b5061392d57005b60ff60401b195f5160206157425f395f51905f5254165f5160206157425f395f51905f52557fc7f505b2f371ae2175ee4913f4499e1f2633a7b5936321eed1cdaeb6115181d2602060405160018152a1005b6001600160481b0319166001600160401b01175f5160206157425f395f51905f525586613863565b63f92ee8a960e01b5f5260045ffd5b9050158861383b565b303b159150613833565b889150613829565b34610d61576020366003190112610d61576004356139ed614fe9565b60025f54146137a45760025f55805f52600860205260ff600b60405f2001541615613b15575f818152600a602090815260408083203384529091529020601001805460081c60ff169060068210158061375357600283149283159081613b06575b50613af7576137535761050061ff0019825416179055815f52600860205260405f208180613aea575b613ad5575b50815f52600c60205260405f20613a938154614db4565b905533827f5e9c7ae3229b2cda5065d7058fcc05765c695c29ce05313fbe96cb2ca639231a5f80a3613ac6575b60015f55005b613acf90615180565b80613ac0565b600a01613ae28154614db4565b905582613a7c565b50600a8101541515613a77565b6307e0eec960e31b5f5260045ffd5b91505060015f91141585613a4e565b636df5846d60e01b5f5260045ffd5b34610d61575f366003190112610d61576020604051600a8152f35b34610d6157610160366003190112610d6157602435600435604435613b62614869565b90608435613b6e61487f565b9160c435613b7a614895565b610124356001600160401b038111610d6157613b9a9036906004016148ed565b9093909290610144356001600160401b038111610d6157613bbf9036906004016148ed565b939092613bca614fe9565b60025f54146137a45760025f55613bdf615010565b8a5f52600860205260ff600b60405f2001541615613b1557335f52601060205260ff600160405f20015416613795575f8b815260086020526040902060018101549099906001600160a01b03163314613736578b5f52600c602052601460405f2054101561406b578b5f52600a60205260405f2060018060a01b0333165f5260205260405f209860ff60108b015460081c1660068110156137535760028114908115614060575b50614051578d15801561403d575b613f41576107d08511613701578415158061402c575b6136e15761012c8111613701578015158061401b575b6136e15761012c8311613701578215158061400a575b6136e15760186101043511613f415787158015614000575b613f4157878703613f41578d5f5f5b8a8110613f50575003613f415760059b8d958f600a8e019e8f54105f14613f395760029d5b5f898152600a6020818152604080842033808652925283209b8c5560018c0180546001600160a01b03199081169092179055600293840154938c01805482166001600160a01b0395861617905560038c019490945560048b019490945560058a0180548416958316959095179094556006808a019590955560078901805483169682169690961790955560088801959095556009870180549095169590931694909417909255610104359084015542600d8401819055600e840155600f83019190915560108201805460ff191681559088101561375357805461ff008960081b169061ff001916179055600c600b820191613e1c83614d2e565b0193613e2785614d2e565b5f5b818110613f06578b8b8b8b600d8c015415613eb3575b613e7591835f52600c60205260405f20613e598154614da6565b905560028214613ea1575b5060405193845260208401906149fc565b7f91f3c243b9bdde5ceb2c34ba0539b3af064f15c0127b734fd97fbe6a099b51ea60403393a360015f55005b613eab8154614da6565b905584613e64565b825f52600b60205260405f20918254600160401b811015613ef257613ee481613e75956001613eeb94018155614c1c565b3391614d83565b9150613e3f565b634e487b7160e01b5f52604160045260245ffd5b80613f1e613f17600193858b614cfb565b3585614d4f565b613f33613f2c828888614cfb565b3588614d4f565b01613e29565b60019d613d22565b63162908e360e11b5f5260045ffd5b9150613f5d828b8d614cfb565b3515613f415781158080613fdc575b613f41571580613f9d575b613f4157613f93600191613f8c848d8f614cfb565b3590614d0b565b9101908f91613cfd565b50613fa9828a8a614cfb565b355f198301838111613fc857613fc0908b8b614cfb565b351015613f77565b634e487b7160e01b5f52601160045260245ffd5b508915613fec5742893510613f6c565b634e487b7160e01b5f52603260045260245ffd5b5060088811613cee565b506001600160a01b03841615613cd6565b506001600160a01b03821615613cc0565b506001600160a01b038c1615613caa565b50676765c793fa10079d601a1b8e11613c94565b63db8219ad60e01b5f5260045ffd5b60019150148f613c86565b63d039f3fd60e01b5f5260045ffd5b34610d61576040366003190112610d6157614093614853565b61409b614fe9565b60025f54146137a45760025f556004355f52600860205260ff600b60405f2001541615613b15576004355f52600860205260405f209060018060a01b03600183015416903382036147cb576004355f52600a60205260405f2060018060a01b0382165f5260205260405f2091601083015460ff8160081c16600681101561375357600203613af75760ff166147bc576002548454604051631cab5c9d60e31b815260048101829052915f90839060249082906001600160a01b03165afa80156136a55784925f9161462d575b50600a8601545f9181151580614620575b6145f1575b508787600160a01b6001900360028301541660038201546004830154600160a01b6001900360058501541690600685015492600160a01b6001900360078701541694600887015496600160a01b6001900390600901541697600801549a6007549c6040519e8f926141ed8461491d565b6004358452602084015260408301526001600160a01b031660609091015260808d015260a08c015260c08b015260e08a01526101008901526101208801526101408701526101608601526101808501526101a08401526101c08301526101e082015261425b600b8401614bba565b61020082015261426d600c8401614bba565b6102208201526004355f52600960205260405f206004355f52600b60205260405f20945f5b865481101561437d576142a58188614c1c565b905460039190911b1c6001600160a01b0390811690861614614375576004355f52600a60205260405f206142d98289614c1c565b905460039190911b1c6001600160a01b03165f90815260209190915260409020601001805460081c60ff1691906006831015613753578260026001941490811561436b575b5061432c575b505b01614292565b805461ff0019166104001790556143438189614c1c565b838060a01b0391549060031b1c166004355f5160206156025f395f51905f525f80a388614324565b849150148a61431e565b600190614326565b506010909401805461ff001916610300179055600b8401805460ff19169055600480355f908152600c6020908152604080832083905596548252600d8152868220919091558154865163cfeffc7160e01b815292830187905284516044840152908401516064830152948301516001600160a01b0390811660848301526060840151811660a48301526080840151811660c483015260a084015160e483015260c084015161010483015260e08401518116610124830152610100840151610144830152610120840151811661016483015261014084015161018483015261016084015181166101a48301526101808401516101c48301526101a08401516101e48301526101c08401516102048301526101e0840151610224830152610200840151610240610244840152919516928592916144db9190610220906144c6906102848701906149c9565b910151848203604319016102648601526149c9565b6003198382030160248401528154808252602082019160208260051b820101935f5260205f20925f915b838310614593578689602082808a03815f8e5af19182156136a5575f9261455f575b506001600160a01b0316906004357fd04f845137f741f1b1fcb8758a097aa384274dde474ea57dc4b71e88f8625cf35f80a460015f55005b9091506020813d60201161458b575b8161457b60209383614970565b81010312610d6157519082614527565b3d915061456e565b91939550919360206003600192601f19858203018652608081526145ba608082018a614c7a565b90848a015484820152606060ff60028c01548181161515604085015260081c16151591015297019301930190928895949293614505565b90935060a091500151918260021b9280840460041490151715613fc857614619818694614ba7565b908861417d565b5060a08101511515614178565b9250503d805f843e61463f8184614970565b820191602081840312610d61578051906001600160401b038211610d6157019161020083820312610d61576040519061020082016001600160401b03811183821017613ef2576040528351825260208401516001600160401b038111610d6157816146ab918601614b40565b602083015260408401516001600160401b038111610d6157816146cf918601614b40565b604083015260608401516001600160401b038111610d6157816146f3918601614b40565b60608301526080840151608083015260a084015160a083015261471860c08501614b86565b60c083015261472960e08501614b9a565b60e083015261473b6101008501614b9a565b61010083015261474e6101208501614b9a565b6101208301526101408401516101408301526101608401516101608301526101808401516101808301526101a08401516101a08301526101c08401519360018060401b038511610d61576147a86101e09288968301614b40565b6101c084015201516101e082015287614167565b63262fa5e160e11b5f5260045ffd5b6303e2f0f360e51b5f5260045ffd5b34610d61576020366003190112610d615760043563ffffffff60e01b8116809103610d6157602090637965db0b60e01b811490811561481f575b506040519015158152f35b6301ffc9a760e01b14905082614814565b34610d61575f366003190112610d6157676765c793fa10079d601a1b8152602090f35b602435906001600160a01b0382168203610d6157565b606435906001600160a01b0382168203610d6157565b60a435906001600160a01b0382168203610d6157565b60e435906001600160a01b0382168203610d6157565b600435906001600160a01b0382168203610d6157565b608435906001600160a01b0382168203610d6157565b60c435906001600160a01b0382168203610d6157565b9181601f84011215610d61578235916001600160401b038311610d61576020808501948460051b010111610d6157565b61024081019081106001600160401b03821117613ef257604052565b61018081019081106001600160401b03821117613ef257604052565b604081019081106001600160401b03821117613ef257604052565b601f909101601f19168101906001600160401b03821190821017613ef257604052565b6001600160401b038111613ef257601f01601f191660200190565b34610d61575f366003190112610d6157602060405160c88152f35b90602080835192838152019201905f5b8181106149e65750505090565b82518452602093840193909201916001016149d9565b9060068210156137535752565b90614b19908251815260018060a01b03602084015116602082015260018060a01b036040840151166040820152606083015160608201526080830151608082015260018060a01b0360a08401511660a082015260c083015160c082015260018060a01b0360e08401511660e082015261010083015161010082015260018060a01b036101208401511661012082015261014083015161014082015261022080614adc614ac86101608701516102406101608701526102408601906149c9565b6101808701518582036101808701526149c9565b946101a08101516101a08501526101c08101516101c08501526101e08101516101e0850152610200810151151561020085015201519101906149fc565b90565b805180835260209291819084018484015e5f828201840152601f01601f1916010190565b81601f82011215610d6157805190614b5782614993565b92614b656040519485614970565b82845260208383010111610d6157815f9260208093018386015e8301015290565b51906001600160a01b0382168203610d6157565b51908115158203610d6157565b81810292918115918404141715613fc857565b90604051918281549182825260208201905f5260205f20925f5b818110614beb575050614be992500383614970565b565b8454835260019485019487945060209093019201614bd4565b600f54811015613fec57600f5f5260205f2001905f90565b8054821015613fec575f5260205f2001905f90565b9060ff801983541691151516179055565b90600182811c92168015614c70575b6020831014614c5c57565b634e487b7160e01b5f52602260045260245ffd5b91607f1691614c51565b5f9291815491614c8983614c42565b8083529260018116908115614cde5750600114614ca557505050565b5f9081526020812093945091925b838310614cc4575060209250010190565b600181602092949394548385870101520191019190614cb3565b915050602093945060ff929192191683830152151560051b010190565b9190811015613fec5760051b0190565b91908201809211613fc857565b818110614d23575050565b5f8155600101614d18565b80545f825580614d3c575050565b614be9915f5260205f2090810190614d18565b8054600160401b811015613ef257614d6c91600182018155614c1c565b819291549060031b91821b915f19901b1916179055565b80546001600160a01b0360039390931b83811b199091169290931690921b179055565b5f198114613fc85760010190565b8015613fc8575f190190565b9081610100910312610d61576040519061010082016001600160401b03811183821017613ef257604052614df381614b9a565b8252614e0160208201614b86565b6020830152614e1260408201614b86565b6040830152614e2360608201614b86565b60608301526080810151608083015260a081015160a083015260c0810151906012821015610d615760e09160c0840152015160e082015290565b5f525f5160206156c25f395f51905f52602052600160405f20015490565b9190811015613fec5760051b81013590607e1981360301821215610d61570190565b903590601e1981360301821215610d6157018035906001600160401b038211610d6157602001918136038313610d6157565b358015158103610d615790565b356001600160a01b0381168103610d615790565b91908260c0910312610d6157614f0582614b9a565b91614f1260208201614b9a565b91604082015160ff81168103610d615791606081015191614b1960a060808401519301614b86565b6001600160401b038111613ef25760051b60200190565b60405190614f5e8261491d565b5f610220838281528260208201528260408201528260608201528260808201528260a08201528260c08201528260e082015282610100820152826101208201528261014082015260606101608201526060610180820152826101a0820152826101c0820152826101e0820152826102008201520152565b8051821015613fec5760209160051b010190565b60ff5f5160206156e25f395f51905f52541661500157565b63d93c066560e01b5f5260045ffd5b335f9081527f47c3465a0c211ece60dd73efc90110f8b7e204feda752e1c50487740ddbcd24f602052604090205460ff161561504857565b63e2517d3f60e01b5f52336004525f5160206157625f395f51905f5260245260445ffd5b335f9081525f5160206156425f395f51905f52602052604090205460ff161561509157565b63e2517d3f60e01b5f52336004525f5160206157225f395f51905f5260245260445ffd5b335f9081525f5160206156625f395f51905f52602052604090205460ff16156150da57565b63e2517d3f60e01b5f52336004525f60245260445ffd5b335f9081525f5160206156225f395f51905f52602052604090205460ff161561511657565b63e2517d3f60e01b5f52336004525f5160206156a25f395f51905f5260245260445ffd5b5f8181525f5160206156c25f395f51905f526020908152604080832033845290915290205460ff161561516a5750565b63e2517d3f60e01b5f523360045260245260445ffd5b805f52600860205260405f2060ff600b820154161561528357600a019060058254101561528357805f52600b60205260405f208054925f5b8481106151c6575050505050565b835f52600a60205260405f206151dc8285614c1c565b905460039190911b1c6001600160a01b03165f90815260209190915260409020601001805460081c60ff1660068110156137535760011461522057506001016151b8565b805461ff001916610200179055815493945061524a939092919061524390614da6565b9055614c1c565b905460039190911b1c6001600160a01b0316907f398d4fa7456c76c234244c18915a0bcf7e13c5c22a51bb39f6c459c5821cff9a5f80a3565b5050565b6001600160a01b0381165f9081525f5160206156625f395f51905f52602052604090205460ff166152f8576001600160a01b03165f8181525f5160206156625f395f51905f5260205260408120805460ff191660011790553391905f5160206155e25f395f51905f528180a4600190565b505f90565b6001600160a01b0381165f9081525f5160206156425f395f51905f52602052604090205460ff166152f8576001600160a01b03165f8181525f5160206156425f395f51905f5260205260408120805460ff191660011790553391905f5160206157225f395f51905f52905f5160206155e25f395f51905f529080a4600190565b6001600160a01b0381165f9081525f5160206156225f395f51905f52602052604090205460ff166152f8576001600160a01b03165f8181525f5160206156225f395f51905f5260205260408120805460ff191660011790553391905f5160206156a25f395f51905f52905f5160206155e25f395f51905f529080a4600190565b5f8181525f5160206156c25f395f51905f52602090815260408083206001600160a01b038616845290915290205460ff16615488575f8181525f5160206156c25f395f51905f52602090815260408083206001600160a01b0395909516808452949091528120805460ff19166001179055339291905f5160206155e25f395f51905f529080a4600190565b50505f90565b5f8181525f5160206156c25f395f51905f52602090815260408083206001600160a01b038616845290915290205460ff1615615488575f8181525f5160206156c25f395f51905f52602090815260408083206001600160a01b0395909516808452949091528120805460ff19169055339291907ff6391f5c32d9c69d2a47ea670b442974b53935d1edc7fd64eb21e047a839171b9080a4600190565b60ff5f5160206157425f395f51905f525460401c161561554657565b631afcd79f60e31b5f5260045ffd5b905f8091602081519101845af480806155ce575b156155895750506040513d81523d5f602083013e60203d82010160405290565b156155ae57639996b31560e01b5f9081526001600160a01b0391909116600452602490fd5b3d156155bf576040513d5f823e3d90fd5b63d6bda27560e01b5f5260045ffd5b503d1515806155695750813b151561556956fe2f8788117e7eff1d82e926ec794901d17c78024a50270940304540a733656f0d76d8fe62a776f2ba870812fb313f1b8babb334fd7065692023f1323c6959f9197a1492cadb22452d254c71a9ef0c781c9f2d1c472dc5213a713c8769ea04d819b16e88c42fd4e48df2dd6a2eabd6bc9aec654ec170056b470819f8892cc6431cb7db2dd08fcb62d0c9e08c51941cae53c267786a0b75803fb7960902fc8ef97d360894a13ba1a3210667c828492db98dca3e2076cc3735a920a3ca505d382bbce4369475d33ca6555b45ac3cf081bee16c4b11779d89f812395c569b2de40f0102dd7bc7dec4dceedda775e58dd541e08a116c6c53815c0bd028192f7b626800cd5ed15c6e187e77e9aee88184c21f4f2182ab5827cb3b7e07fbedcd63f03300a8cb6f4d20ac92066aa6d101be3a0719bc73d16b0bb72bc4635413bf85be2792a49807205ce4d355092ef5a8a18f56e8913cf4a201fbe287825b095693c21775f0c57e16840df040f15088dc2f81fe391c3923bec73e23a9662efc9c229c6a00ba2dc669204b26427a432593e1c6ac86ab4ccc54d29c4287abbd1cefc1cb002ba2646970667358221220420dc4cf42807674a78db44f9584078f6d48b9a85f924de7d4274e94e9f113cb64736f6c634300081c0033f0c57e16840df040f15088dc2f81fe391c3923bec73e23a9662efc9c229c6a00",
  "linkReferences": {},
  "deployedLinkReferences": {},
  "immutableReferences": {
    "1408": [
      {
        "length": 32,
        "start": 8821
      },
      {
        "length": 32,
        "start": 9109
      }
    ]
  },
  "inputSourceName": "project/contracts/core/TransferEscrow.sol",
  "buildInfoId": "solc-0_8_28-5967eeaa887cc4ab12af79fbd6f93b2a8d0fe978"
}