{
  "_format": "hh3-artifact-1",
  "contractName": "TransferEscrow",
  "sourceName": "contracts/core/TransferEscrow.sol",
  "abi": [
    {
      "inputs": [],
      "stateMutability": "nonpayable",
      "type": "constructor"
    },
    {
      "inputs": [],
      "name": "AccessControlBadConfirmation",
      "type": "error"
    },
    {
      "inputs": [
        {
          "internalType": "address",
          "name": "account",
          "type": "address"
        },
        {
          "internalType": "bytes32",
          "name": "neededRole",
          "type": "bytes32"
        }
      ],
      "name": "AccessControlUnauthorizedAccount",
      "type": "error"
    },
    {
      "inputs": [
        {
          "internalType": "address",
          "name": "target",
          "type": "address"
        }
      ],
      "name": "AddressEmptyCode",
      "type": "error"
    },
    {
      "inputs": [],
      "name": "AlreadyHasActiveBid",
      "type": "error"
    },
    {
      "inputs": [],
      "name": "BanAlreadyActive",
      "type": "error"
    },
    {
      "inputs": [],
      "name": "BidCanOnlyBeUpdatedWhenNegotiating",
      "type": "error"
    },
    {
      "inputs": [],
      "name": "BidNotFound",
      "type": "error"
    },
    {
      "inputs": [
        {
          "internalType": "uint256",
          "name": "minimum",
          "type": "uint256"
        },
        {
          "internalType": "uint256",
          "name": "submitted",
          "type": "uint256"
        }
      ],
      "name": "BidNotHighEnough",
      "type": "error"
    },
    {
      "inputs": [],
      "name": "CannotBidOnOwnPlayer",
      "type": "error"
    },
    {
      "inputs": [],
      "name": "CannotHijackOwnDeal",
      "type": "error"
    },
    {
      "inputs": [],
      "name": "ClubTransferBanned",
      "type": "error"
    },
    {
      "inputs": [],
      "name": "DealIsFrozen",
      "type": "error"
    },
    {
      "inputs": [],
      "name": "DealNotFound",
      "type": "error"
    },
    {
      "inputs": [
        {
          "internalType": "address",
          "name": "implementation",
          "type": "address"
        }
      ],
      "name": "ERC1967InvalidImplementation",
      "type": "error"
    },
    {
      "inputs": [],
      "name": "ERC1967NonPayable",
      "type": "error"
    },
    {
      "inputs": [],
      "name": "EnforcedPause",
      "type": "error"
    },
    {
      "inputs": [],
      "name": "ExpectedPause",
      "type": "error"
    },
    {
      "inputs": [],
      "name": "FailedCall",
      "type": "error"
    },
    {
      "inputs": [],
      "name": "HijackWindowClosed",
      "type": "error"
    },
    {
      "inputs": [],
      "name": "InvalidAddress",
      "type": "error"
    },
    {
      "inputs": [],
      "name": "InvalidAmount",
      "type": "error"
    },
    {
      "inputs": [],
      "name": "InvalidBps",
      "type": "error"
    },
    {
      "inputs": [],
      "name": "InvalidInitialization",
      "type": "error"
    },
    {
      "inputs": [],
      "name": "MaxNegotiationRoundsReached",
      "type": "error"
    },
    {
      "inputs": [],
      "name": "MaxNegotiationsReached",
      "type": "error"
    },
    {
      "inputs": [],
      "name": "NoBanToDecrement",
      "type": "error"
    },
    {
      "inputs": [],
      "name": "NoBanToLift",
      "type": "error"
    },
    {
      "inputs": [],
      "name": "NotInitializing",
      "type": "error"
    },
    {
      "inputs": [],
      "name": "NotSellingClub",
      "type": "error"
    },
    {
      "inputs": [],
      "name": "NotYourTurnToCounter",
      "type": "error"
    },
    {
      "inputs": [],
      "name": "OfferNotFound",
      "type": "error"
    },
    {
      "inputs": [],
      "name": "PlayerHasActiveDeal",
      "type": "error"
    },
    {
      "inputs": [],
      "name": "PlayerHasActiveOffer",
      "type": "error"
    },
    {
      "inputs": [],
      "name": "ProtocolFeeTooHigh",
      "type": "error"
    },
    {
      "inputs": [],
      "name": "ReentrantCall",
      "type": "error"
    },
    {
      "inputs": [
        {
          "internalType": "address",
          "name": "token",
          "type": "address"
        }
      ],
      "name": "SafeERC20FailedOperation",
      "type": "error"
    },
    {
      "inputs": [],
      "name": "TimerTooShort",
      "type": "error"
    },
    {
      "inputs": [],
      "name": "TokenAlreadyApproved",
      "type": "error"
    },
    {
      "inputs": [],
      "name": "TokenNotApproved",
      "type": "error"
    },
    {
      "inputs": [],
      "name": "TokenNotInList",
      "type": "error"
    },
    {
      "inputs": [],
      "name": "TooManyAddOns",
      "type": "error"
    },
    {
      "inputs": [],
      "name": "TransferWindowClosed",
      "type": "error"
    },
    {
      "inputs": [],
      "name": "UUPSUnauthorizedCallContext",
      "type": "error"
    },
    {
      "inputs": [
        {
          "internalType": "bytes32",
          "name": "slot",
          "type": "bytes32"
        }
      ],
      "name": "UUPSUnsupportedProxiableUUID",
      "type": "error"
    },
    {
      "inputs": [],
      "name": "WrongDealState",
      "type": "error"
    },
    {
      "anonymous": false,
      "inputs": [
        {
          "indexed": true,
          "internalType": "address",
          "name": "club",
          "type": "address"
        },
        {
          "indexed": false,
          "internalType": "uint256",
          "name": "windowsRemaining",
          "type": "uint256"
        }
      ],
      "name": "BanWindowDecremented",
      "type": "event"
    },
    {
      "anonymous": false,
      "inputs": [
        {
          "indexed": true,
          "internalType": "uint256",
          "name": "offerId",
          "type": "uint256"
        },
        {
          "indexed": true,
          "internalType": "uint256",
          "name": "dealId",
          "type": "uint256"
        },
        {
          "indexed": true,
          "internalType": "address",
          "name": "buyingClub",
          "type": "address"
        }
      ],
      "name": "BidAccepted",
      "type": "event"
    },
    {
      "anonymous": false,
      "inputs": [
        {
          "indexed": true,
          "internalType": "uint256",
          "name": "offerId",
          "type": "uint256"
        },
        {
          "indexed": true,
          "internalType": "address",
          "name": "buyingClub",
          "type": "address"
        }
      ],
      "name": "BidActivated",
      "type": "event"
    },
    {
      "anonymous": false,
      "inputs": [
        {
          "indexed": true,
          "internalType": "uint256",
          "name": "offerId",
          "type": "uint256"
        },
        {
          "indexed": true,
          "internalType": "address",
          "name": "buyingClub",
          "type": "address"
        }
      ],
      "name": "BidRejected",
      "type": "event"
    },
    {
      "anonymous": false,
      "inputs": [
        {
          "indexed": true,
          "internalType": "uint256",
          "name": "offerId",
          "type": "uint256"
        },
        {
          "indexed": true,
          "internalType": "address",
          "name": "buyingClub",
          "type": "address"
        },
        {
          "indexed": false,
          "internalType": "uint256",
          "name": "transferFee",
          "type": "uint256"
        },
        {
          "indexed": false,
          "internalType": "enum TransferEscrow.BidStatus",
          "name": "status",
          "type": "uint8"
        }
      ],
      "name": "BidSubmitted",
      "type": "event"
    },
    {
      "anonymous": false,
      "inputs": [
        {
          "indexed": true,
          "internalType": "uint256",
          "name": "offerId",
          "type": "uint256"
        },
        {
          "indexed": true,
          "internalType": "address",
          "name": "buyingClub",
          "type": "address"
        },
        {
          "indexed": false,
          "internalType": "uint256",
          "name": "newTransferFee",
          "type": "uint256"
        }
      ],
      "name": "BidUpdated",
      "type": "event"
    },
    {
      "anonymous": false,
      "inputs": [
        {
          "indexed": true,
          "internalType": "uint256",
          "name": "offerId",
          "type": "uint256"
        },
        {
          "indexed": true,
          "internalType": "address",
          "name": "buyingClub",
          "type": "address"
        }
      ],
      "name": "BidWithdrawn",
      "type": "event"
    },
    {
      "anonymous": false,
      "inputs": [
        {
          "indexed": true,
          "internalType": "uint256",
          "name": "offerId",
          "type": "uint256"
        },
        {
          "indexed": true,
          "internalType": "address",
          "name": "from",
          "type": "address"
        },
        {
          "indexed": false,
          "internalType": "uint256",
          "name": "newFee",
          "type": "uint256"
        },
        {
          "indexed": false,
          "internalType": "uint256",
          "name": "round",
          "type": "uint256"
        }
      ],
      "name": "CounterOffer",
      "type": "event"
    },
    {
      "anonymous": false,
      "inputs": [
        {
          "indexed": true,
          "internalType": "uint256",
          "name": "dealId",
          "type": "uint256"
        },
        {
          "indexed": false,
          "internalType": "uint8",
          "name": "reason",
          "type": "uint8"
        }
      ],
      "name": "DealCancelled",
      "type": "event"
    },
    {
      "anonymous": false,
      "inputs": [
        {
          "indexed": false,
          "internalType": "uint64",
          "name": "version",
          "type": "uint64"
        }
      ],
      "name": "Initialized",
      "type": "event"
    },
    {
      "anonymous": false,
      "inputs": [
        {
          "indexed": true,
          "internalType": "uint256",
          "name": "dealId",
          "type": "uint256"
        }
      ],
      "name": "MutualCancelExpired",
      "type": "event"
    },
    {
      "anonymous": false,
      "inputs": [
        {
          "indexed": true,
          "internalType": "uint256",
          "name": "offerId",
          "type": "uint256"
        },
        {
          "indexed": true,
          "internalType": "uint256",
          "name": "playerId",
          "type": "uint256"
        },
        {
          "indexed": true,
          "internalType": "address",
          "name": "sellingClub",
          "type": "address"
        },
        {
          "indexed": false,
          "internalType": "uint256",
          "name": "askingPrice",
          "type": "uint256"
        }
      ],
      "name": "OfferCreated",
      "type": "event"
    },
    {
      "anonymous": false,
      "inputs": [
        {
          "indexed": true,
          "internalType": "uint256",
          "name": "offerId",
          "type": "uint256"
        },
        {
          "indexed": false,
          "internalType": "uint256",
          "name": "newAskingPrice",
          "type": "uint256"
        }
      ],
      "name": "OfferUpdated",
      "type": "event"
    },
    {
      "anonymous": false,
      "inputs": [
        {
          "indexed": true,
          "internalType": "uint256",
          "name": "offerId",
          "type": "uint256"
        }
      ],
      "name": "OfferWithdrawn",
      "type": "event"
    },
    {
      "anonymous": false,
      "inputs": [
        {
          "indexed": false,
          "internalType": "address",
          "name": "account",
          "type": "address"
        }
      ],
      "name": "Paused",
      "type": "event"
    },
    {
      "anonymous": false,
      "inputs": [
        {
          "indexed": false,
          "internalType": "uint256",
          "name": "newBps",
          "type": "uint256"
        }
      ],
      "name": "ProtocolFeeUpdated",
      "type": "event"
    },
    {
      "anonymous": false,
      "inputs": [
        {
          "indexed": true,
          "internalType": "bytes32",
          "name": "role",
          "type": "bytes32"
        },
        {
          "indexed": true,
          "internalType": "bytes32",
          "name": "previousAdminRole",
          "type": "bytes32"
        },
        {
          "indexed": true,
          "internalType": "bytes32",
          "name": "newAdminRole",
          "type": "bytes32"
        }
      ],
      "name": "RoleAdminChanged",
      "type": "event"
    },
    {
      "anonymous": false,
      "inputs": [
        {
          "indexed": true,
          "internalType": "bytes32",
          "name": "role",
          "type": "bytes32"
        },
        {
          "indexed": true,
          "internalType": "address",
          "name": "account",
          "type": "address"
        },
        {
          "indexed": true,
          "internalType": "address",
          "name": "sender",
          "type": "address"
        }
      ],
      "name": "RoleGranted",
      "type": "event"
    },
    {
      "anonymous": false,
      "inputs": [
        {
          "indexed": true,
          "internalType": "bytes32",
          "name": "role",
          "type": "bytes32"
        },
        {
          "indexed": true,
          "internalType": "address",
          "name": "account",
          "type": "address"
        },
        {
          "indexed": true,
          "internalType": "address",
          "name": "sender",
          "type": "address"
        }
      ],
      "name": "RoleRevoked",
      "type": "event"
    },
    {
      "anonymous": false,
      "inputs": [
        {
          "indexed": true,
          "internalType": "address",
          "name": "token",
          "type": "address"
        }
      ],
      "name": "TokenApproved",
      "type": "event"
    },
    {
      "anonymous": false,
      "inputs": [
        {
          "indexed": true,
          "internalType": "address",
          "name": "token",
          "type": "address"
        }
      ],
      "name": "TokenRevoked",
      "type": "event"
    },
    {
      "anonymous": false,
      "inputs": [
        {
          "indexed": true,
          "internalType": "address",
          "name": "club",
          "type": "address"
        },
        {
          "indexed": false,
          "internalType": "uint256",
          "name": "windows",
          "type": "uint256"
        }
      ],
      "name": "TransferBanIssued",
      "type": "event"
    },
    {
      "anonymous": false,
      "inputs": [
        {
          "indexed": true,
          "internalType": "address",
          "name": "club",
          "type": "address"
        }
      ],
      "name": "TransferBanLifted",
      "type": "event"
    },
    {
      "anonymous": false,
      "inputs": [
        {
          "indexed": true,
          "internalType": "address",
          "name": "newTreasury",
          "type": "address"
        }
      ],
      "name": "TreasuryUpdated",
      "type": "event"
    },
    {
      "anonymous": false,
      "inputs": [
        {
          "indexed": false,
          "internalType": "address",
          "name": "account",
          "type": "address"
        }
      ],
      "name": "Unpaused",
      "type": "event"
    },
    {
      "anonymous": false,
      "inputs": [
        {
          "indexed": true,
          "internalType": "address",
          "name": "implementation",
          "type": "address"
        }
      ],
      "name": "Upgraded",
      "type": "event"
    },
    {
      "inputs": [],
      "name": "ADMIN_ROLE",
      "outputs": [
        {
          "internalType": "bytes32",
          "name": "",
          "type": "bytes32"
        }
      ],
      "stateMutability": "view",
      "type": "function"
    },
    {
      "inputs": [],
      "name": "BPS_DENOMINATOR",
      "outputs": [
        {
          "internalType": "uint256",
          "name": "",
          "type": "uint256"
        }
      ],
      "stateMutability": "view",
      "type": "function"
    },
    {
      "inputs": [],
      "name": "CLUB_ROLE",
      "outputs": [
        {
          "internalType": "bytes32",
          "name": "",
          "type": "bytes32"
        }
      ],
      "stateMutability": "view",
      "type": "function"
    },
    {
      "inputs": [],
      "name": "DEFAULT_ADMIN_ROLE",
      "outputs": [
        {
          "internalType": "bytes32",
          "name": "",
          "type": "bytes32"
        }
      ],
      "stateMutability": "view",
      "type": "function"
    },
    {
      "inputs": [],
      "name": "HIJACK_FAIL_PENALTY_BPS",
      "outputs": [
        {
          "internalType": "uint256",
          "name": "",
          "type": "uint256"
        }
      ],
      "stateMutability": "view",
      "type": "function"
    },
    {
      "inputs": [],
      "name": "HIJACK_STALL_PENALTY_BPS",
      "outputs": [
        {
          "internalType": "uint256",
          "name": "",
          "type": "uint256"
        }
      ],
      "stateMutability": "view",
      "type": "function"
    },
    {
      "inputs": [],
      "name": "LEAGUE_DISPUTE_DEADLINE",
      "outputs": [
        {
          "internalType": "uint256",
          "name": "",
          "type": "uint256"
        }
      ],
      "stateMutability": "view",
      "type": "function"
    },
    {
      "inputs": [],
      "name": "LEAGUE_ROLE",
      "outputs": [
        {
          "internalType": "bytes32",
          "name": "",
          "type": "bytes32"
        }
      ],
      "stateMutability": "view",
      "type": "function"
    },
    {
      "inputs": [],
      "name": "MAX_ACTIVE_NEGOTIATIONS",
      "outputs": [
        {
          "internalType": "uint256",
          "name": "",
          "type": "uint256"
        }
      ],
      "stateMutability": "view",
      "type": "function"
    },
    {
      "inputs": [],
      "name": "MAX_ADDONS",
      "outputs": [
        {
          "internalType": "uint256",
          "name": "",
          "type": "uint256"
        }
      ],
      "stateMutability": "view",
      "type": "function"
    },
    {
      "inputs": [],
      "name": "MAX_AGENT_BPS",
      "outputs": [
        {
          "internalType": "uint256",
          "name": "",
          "type": "uint256"
        }
      ],
      "stateMutability": "view",
      "type": "function"
    },
    {
      "inputs": [],
      "name": "MAX_NEGOTIATION_ROUNDS",
      "outputs": [
        {
          "internalType": "uint256",
          "name": "",
          "type": "uint256"
        }
      ],
      "stateMutability": "view",
      "type": "function"
    },
    {
      "inputs": [],
      "name": "MAX_PRICE",
      "outputs": [
        {
          "internalType": "uint256",
          "name": "",
          "type": "uint256"
        }
      ],
      "stateMutability": "view",
      "type": "function"
    },
    {
      "inputs": [],
      "name": "MAX_PROTOCOL_FEE_BPS",
      "outputs": [
        {
          "internalType": "uint256",
          "name": "",
          "type": "uint256"
        }
      ],
      "stateMutability": "view",
      "type": "function"
    },
    {
      "inputs": [],
      "name": "MAX_SELL_ON_BPS",
      "outputs": [
        {
          "internalType": "uint256",
          "name": "",
          "type": "uint256"
        }
      ],
      "stateMutability": "view",
      "type": "function"
    },
    {
      "inputs": [],
      "name": "MAX_SIGNING_BONUS_MONTHS",
      "outputs": [
        {
          "internalType": "uint256",
          "name": "",
          "type": "uint256"
        }
      ],
      "stateMutability": "view",
      "type": "function"
    },
    {
      "inputs": [],
      "name": "MAX_TOTAL_BIDS_PER_OFFER",
      "outputs": [
        {
          "internalType": "uint256",
          "name": "",
          "type": "uint256"
        }
      ],
      "stateMutability": "view",
      "type": "function"
    },
    {
      "inputs": [],
      "name": "MIN_CONSENT_WINDOW",
      "outputs": [
        {
          "internalType": "uint256",
          "name": "",
          "type": "uint256"
        }
      ],
      "stateMutability": "view",
      "type": "function"
    },
    {
      "inputs": [],
      "name": "UPGRADE_INTERFACE_VERSION",
      "outputs": [
        {
          "internalType": "string",
          "name": "",
          "type": "string"
        }
      ],
      "stateMutability": "view",
      "type": "function"
    },
    {
      "inputs": [
        {
          "internalType": "uint256",
          "name": "offerId",
          "type": "uint256"
        },
        {
          "internalType": "address",
          "name": "buyingClub",
          "type": "address"
        }
      ],
      "name": "acceptBid",
      "outputs": [],
      "stateMutability": "nonpayable",
      "type": "function"
    },
    {
      "inputs": [],
      "name": "addressRegistry",
      "outputs": [
        {
          "internalType": "contract IAddressRegistry",
          "name": "",
          "type": "address"
        }
      ],
      "stateMutability": "view",
      "type": "function"
    },
    {
      "inputs": [
        {
          "internalType": "address",
          "name": "token",
          "type": "address"
        }
      ],
      "name": "approveToken",
      "outputs": [],
      "stateMutability": "nonpayable",
      "type": "function"
    },
    {
      "inputs": [],
      "name": "consentWindow",
      "outputs": [
        {
          "internalType": "uint256",
          "name": "",
          "type": "uint256"
        }
      ],
      "stateMutability": "view",
      "type": "function"
    },
    {
      "inputs": [
        {
          "internalType": "uint256",
          "name": "offerId",
          "type": "uint256"
        },
        {
          "internalType": "address",
          "name": "buyingClub",
          "type": "address"
        },
        {
          "internalType": "uint256",
          "name": "newTransferFee",
          "type": "uint256"
        },
        {
          "internalType": "uint256",
          "name": "newSellOnBps",
          "type": "uint256"
        },
        {
          "internalType": "address",
          "name": "newSellOnRecipient",
          "type": "address"
        },
        {
          "internalType": "uint256",
          "name": "newSellerAgentBps",
          "type": "uint256"
        },
        {
          "internalType": "address",
          "name": "newSellerAgent",
          "type": "address"
        }
      ],
      "name": "counterBid",
      "outputs": [],
      "stateMutability": "nonpayable",
      "type": "function"
    },
    {
      "inputs": [
        {
          "internalType": "uint256",
          "name": "playerId",
          "type": "uint256"
        },
        {
          "internalType": "address",
          "name": "paymentToken",
          "type": "address"
        },
        {
          "internalType": "uint256",
          "name": "askingPrice",
          "type": "uint256"
        },
        {
          "internalType": "uint256",
          "name": "sellOnBps",
          "type": "uint256"
        },
        {
          "internalType": "address",
          "name": "sellOnRecipient",
          "type": "address"
        },
        {
          "internalType": "uint256",
          "name": "sellerAgentBps",
          "type": "uint256"
        },
        {
          "internalType": "address",
          "name": "sellerAgent",
          "type": "address"
        },
        {
          "internalType": "uint256",
          "name": "minimumHijackIncrementBps",
          "type": "uint256"
        },
        {
          "components": [
            {
              "internalType": "string",
              "name": "description",
              "type": "string"
            },
            {
              "internalType": "uint256",
              "name": "amount",
              "type": "uint256"
            },
            {
              "internalType": "bool",
              "name": "toPlayer",
              "type": "bool"
            },
            {
              "internalType": "bool",
              "name": "triggered",
              "type": "bool"
            }
          ],
          "internalType": "struct TransferTypes.AddOn[]",
          "name": "addOns",
          "type": "tuple[]"
        }
      ],
      "name": "createOffer",
      "outputs": [
        {
          "internalType": "uint256",
          "name": "offerId",
          "type": "uint256"
        }
      ],
      "stateMutability": "nonpayable",
      "type": "function"
    },
    {
      "inputs": [],
      "name": "dealEscrow",
      "outputs": [
        {
          "internalType": "contract IDealEscrow",
          "name": "",
          "type": "address"
        }
      ],
      "stateMutability": "view",
      "type": "function"
    },
    {
      "inputs": [
        {
          "internalType": "uint256",
          "name": "dealId",
          "type": "uint256"
        }
      ],
      "name": "expireMutualCancel",
      "outputs": [],
      "stateMutability": "nonpayable",
      "type": "function"
    },
    {
      "inputs": [
        {
          "internalType": "uint256",
          "name": "offerId",
          "type": "uint256"
        }
      ],
      "name": "getAllBids",
      "outputs": [
        {
          "components": [
            {
              "internalType": "uint256",
              "name": "offerId",
              "type": "uint256"
            },
            {
              "internalType": "address",
              "name": "buyingClub",
              "type": "address"
            },
            {
              "internalType": "address",
              "name": "paymentToken",
              "type": "address"
            },
            {
              "internalType": "uint256",
              "name": "transferFee",
              "type": "uint256"
            },
            {
              "internalType": "uint256",
              "name": "sellOnBps",
              "type": "uint256"
            },
            {
              "internalType": "address",
              "name": "sellOnRecipient",
              "type": "address"
            },
            {
              "internalType": "uint256",
              "name": "sellerAgentBps",
              "type": "uint256"
            },
            {
              "internalType": "address",
              "name": "sellerAgent",
              "type": "address"
            },
            {
              "internalType": "uint256",
              "name": "buyerAgentBps",
              "type": "uint256"
            },
            {
              "internalType": "address",
              "name": "buyerAgent",
              "type": "address"
            },
            {
              "internalType": "uint256",
              "name": "signingBonusMonths",
              "type": "uint256"
            },
            {
              "internalType": "uint256[]",
              "name": "installmentAmounts",
              "type": "uint256[]"
            },
            {
              "internalType": "uint256[]",
              "name": "installmentDueDates",
              "type": "uint256[]"
            },
            {
              "internalType": "uint256",
              "name": "submittedAt",
              "type": "uint256"
            },
            {
              "internalType": "uint256",
              "name": "updatedAt",
              "type": "uint256"
            },
            {
              "internalType": "uint256",
              "name": "roundNumber",
              "type": "uint256"
            },
            {
              "internalType": "bool",
              "name": "isCounterFromSeller",
              "type": "bool"
            },
            {
              "internalType": "enum TransferEscrow.BidStatus",
              "name": "status",
              "type": "uint8"
            }
          ],
          "internalType": "struct TransferEscrow.Bid[]",
          "name": "",
          "type": "tuple[]"
        }
      ],
      "stateMutability": "view",
      "type": "function"
    },
    {
      "inputs": [],
      "name": "getApprovedTokens",
      "outputs": [
        {
          "internalType": "address[]",
          "name": "",
          "type": "address[]"
        }
      ],
      "stateMutability": "view",
      "type": "function"
    },
    {
      "inputs": [
        {
          "internalType": "uint256",
          "name": "offerId",
          "type": "uint256"
        },
        {
          "internalType": "address",
          "name": "buyingClub",
          "type": "address"
        }
      ],
      "name": "getBid",
      "outputs": [
        {
          "components": [
            {
              "internalType": "uint256",
              "name": "offerId",
              "type": "uint256"
            },
            {
              "internalType": "address",
              "name": "buyingClub",
              "type": "address"
            },
            {
              "internalType": "address",
              "name": "paymentToken",
              "type": "address"
            },
            {
              "internalType": "uint256",
              "name": "transferFee",
              "type": "uint256"
            },
            {
              "internalType": "uint256",
              "name": "sellOnBps",
              "type": "uint256"
            },
            {
              "internalType": "address",
              "name": "sellOnRecipient",
              "type": "address"
            },
            {
              "internalType": "uint256",
              "name": "sellerAgentBps",
              "type": "uint256"
            },
            {
              "internalType": "address",
              "name": "sellerAgent",
              "type": "address"
            },
            {
              "internalType": "uint256",
              "name": "buyerAgentBps",
              "type": "uint256"
            },
            {
              "internalType": "address",
              "name": "buyerAgent",
              "type": "address"
            },
            {
              "internalType": "uint256",
              "name": "signingBonusMonths",
              "type": "uint256"
            },
            {
              "internalType": "uint256[]",
              "name": "installmentAmounts",
              "type": "uint256[]"
            },
            {
              "internalType": "uint256[]",
              "name": "installmentDueDates",
              "type": "uint256[]"
            },
            {
              "internalType": "uint256",
              "name": "submittedAt",
              "type": "uint256"
            },
            {
              "internalType": "uint256",
              "name": "updatedAt",
              "type": "uint256"
            },
            {
              "internalType": "uint256",
              "name": "roundNumber",
              "type": "uint256"
            },
            {
              "internalType": "bool",
              "name": "isCounterFromSeller",
              "type": "bool"
            },
            {
              "internalType": "enum TransferEscrow.BidStatus",
              "name": "status",
              "type": "uint8"
            }
          ],
          "internalType": "struct TransferEscrow.Bid",
          "name": "",
          "type": "tuple"
        }
      ],
      "stateMutability": "view",
      "type": "function"
    },
    {
      "inputs": [
        {
          "internalType": "uint256",
          "name": "offerId",
          "type": "uint256"
        }
      ],
      "name": "getBidCount",
      "outputs": [
        {
          "internalType": "uint256",
          "name": "",
          "type": "uint256"
        }
      ],
      "stateMutability": "view",
      "type": "function"
    },
    {
      "inputs": [
        {
          "internalType": "uint256",
          "name": "offerId",
          "type": "uint256"
        }
      ],
      "name": "getOffer",
      "outputs": [
        {
          "components": [
            {
              "internalType": "uint256",
              "name": "playerId",
              "type": "uint256"
            },
            {
              "internalType": "address",
              "name": "sellingClub",
              "type": "address"
            },
            {
              "internalType": "address",
              "name": "paymentToken",
              "type": "address"
            },
            {
              "internalType": "uint256",
              "name": "askingPrice",
              "type": "uint256"
            },
            {
              "internalType": "uint256",
              "name": "sellOnBps",
              "type": "uint256"
            },
            {
              "internalType": "address",
              "name": "sellOnRecipient",
              "type": "address"
            },
            {
              "internalType": "uint256",
              "name": "sellerAgentBps",
              "type": "uint256"
            },
            {
              "internalType": "address",
              "name": "sellerAgent",
              "type": "address"
            },
            {
              "internalType": "uint256",
              "name": "minimumHijackIncrementBps",
              "type": "uint256"
            },
            {
              "internalType": "uint256",
              "name": "createdAt",
              "type": "uint256"
            },
            {
              "internalType": "uint256",
              "name": "activeNegotiations",
              "type": "uint256"
            },
            {
              "internalType": "bool",
              "name": "exists",
              "type": "bool"
            }
          ],
          "internalType": "struct TransferEscrow.Offer",
          "name": "",
          "type": "tuple"
        }
      ],
      "stateMutability": "view",
      "type": "function"
    },
    {
      "inputs": [
        {
          "internalType": "uint256",
          "name": "offerId",
          "type": "uint256"
        }
      ],
      "name": "getOfferAddOns",
      "outputs": [
        {
          "components": [
            {
              "internalType": "string",
              "name": "description",
              "type": "string"
            },
            {
              "internalType": "uint256",
              "name": "amount",
              "type": "uint256"
            },
            {
              "internalType": "bool",
              "name": "toPlayer",
              "type": "bool"
            },
            {
              "internalType": "bool",
              "name": "triggered",
              "type": "bool"
            }
          ],
          "internalType": "struct TransferTypes.AddOn[]",
          "name": "",
          "type": "tuple[]"
        }
      ],
      "stateMutability": "view",
      "type": "function"
    },
    {
      "inputs": [
        {
          "internalType": "uint256",
          "name": "playerId",
          "type": "uint256"
        }
      ],
      "name": "getPlayerDeal",
      "outputs": [
        {
          "internalType": "uint256",
          "name": "",
          "type": "uint256"
        }
      ],
      "stateMutability": "view",
      "type": "function"
    },
    {
      "inputs": [
        {
          "internalType": "uint256",
          "name": "playerId",
          "type": "uint256"
        }
      ],
      "name": "getPlayerOffer",
      "outputs": [
        {
          "internalType": "uint256",
          "name": "",
          "type": "uint256"
        }
      ],
      "stateMutability": "view",
      "type": "function"
    },
    {
      "inputs": [
        {
          "internalType": "bytes32",
          "name": "role",
          "type": "bytes32"
        }
      ],
      "name": "getRoleAdmin",
      "outputs": [
        {
          "internalType": "bytes32",
          "name": "",
          "type": "bytes32"
        }
      ],
      "stateMutability": "view",
      "type": "function"
    },
    {
      "inputs": [
        {
          "internalType": "address",
          "name": "club",
          "type": "address"
        }
      ],
      "name": "getTransferBan",
      "outputs": [
        {
          "components": [
            {
              "internalType": "uint256",
              "name": "windowsRemaining",
              "type": "uint256"
            },
            {
              "internalType": "bool",
              "name": "active",
              "type": "bool"
            }
          ],
          "internalType": "struct TransferEscrow.TransferBan",
          "name": "",
          "type": "tuple"
        }
      ],
      "stateMutability": "view",
      "type": "function"
    },
    {
      "inputs": [
        {
          "internalType": "bytes32",
          "name": "role",
          "type": "bytes32"
        },
        {
          "internalType": "address",
          "name": "account",
          "type": "address"
        }
      ],
      "name": "grantRole",
      "outputs": [],
      "stateMutability": "nonpayable",
      "type": "function"
    },
    {
      "inputs": [
        {
          "internalType": "bytes32",
          "name": "role",
          "type": "bytes32"
        },
        {
          "internalType": "address",
          "name": "account",
          "type": "address"
        }
      ],
      "name": "hasRole",
      "outputs": [
        {
          "internalType": "bool",
          "name": "",
          "type": "bool"
        }
      ],
      "stateMutability": "view",
      "type": "function"
    },
    {
      "inputs": [
        {
          "internalType": "address",
          "name": "_playerRegistry",
          "type": "address"
        },
        {
          "internalType": "address",
          "name": "_addressRegistry",
          "type": "address"
        },
        {
          "internalType": "address",
          "name": "_dealEscrow",
          "type": "address"
        },
        {
          "internalType": "address",
          "name": "_treasury",
          "type": "address"
        },
        {
          "internalType": "address",
          "name": "_admin",
          "type": "address"
        }
      ],
      "name": "initialize",
      "outputs": [],
      "stateMutability": "nonpayable",
      "type": "function"
    },
    {
      "inputs": [
        {
          "internalType": "address",
          "name": "token",
          "type": "address"
        }
      ],
      "name": "isTokenApproved",
      "outputs": [
        {
          "internalType": "bool",
          "name": "",
          "type": "bool"
        }
      ],
      "stateMutability": "view",
      "type": "function"
    },
    {
      "inputs": [
        {
          "internalType": "address",
          "name": "club",
          "type": "address"
        },
        {
          "internalType": "uint256",
          "name": "windows",
          "type": "uint256"
        }
      ],
      "name": "issueBan",
      "outputs": [],
      "stateMutability": "nonpayable",
      "type": "function"
    },
    {
      "inputs": [
        {
          "internalType": "address",
          "name": "club",
          "type": "address"
        }
      ],
      "name": "liftBan",
      "outputs": [],
      "stateMutability": "nonpayable",
      "type": "function"
    },
    {
      "inputs": [],
      "name": "pause",
      "outputs": [],
      "stateMutability": "nonpayable",
      "type": "function"
    },
    {
      "inputs": [],
      "name": "paused",
      "outputs": [
        {
          "internalType": "bool",
          "name": "",
          "type": "bool"
        }
      ],
      "stateMutability": "view",
      "type": "function"
    },
    {
      "inputs": [],
      "name": "playerRegistry",
      "outputs": [
        {
          "internalType": "contract IPlayerRegistry",
          "name": "",
          "type": "address"
        }
      ],
      "stateMutability": "view",
      "type": "function"
    },
    {
      "inputs": [
        {
          "internalType": "uint256",
          "name": "dealId",
          "type": "uint256"
        }
      ],
      "name": "processExpiry",
      "outputs": [],
      "stateMutability": "nonpayable",
      "type": "function"
    },
    {
      "inputs": [
        {
          "internalType": "address[]",
          "name": "bannedClubs",
          "type": "address[]"
        }
      ],
      "name": "processNewWindow",
      "outputs": [],
      "stateMutability": "nonpayable",
      "type": "function"
    },
    {
      "inputs": [],
      "name": "protocolFeeBps",
      "outputs": [
        {
          "internalType": "uint256",
          "name": "",
          "type": "uint256"
        }
      ],
      "stateMutability": "view",
      "type": "function"
    },
    {
      "inputs": [],
      "name": "proxiableUUID",
      "outputs": [
        {
          "internalType": "bytes32",
          "name": "",
          "type": "bytes32"
        }
      ],
      "stateMutability": "view",
      "type": "function"
    },
    {
      "inputs": [
        {
          "internalType": "uint256",
          "name": "offerId",
          "type": "uint256"
        },
        {
          "internalType": "address",
          "name": "buyingClub",
          "type": "address"
        }
      ],
      "name": "rejectBid",
      "outputs": [],
      "stateMutability": "nonpayable",
      "type": "function"
    },
    {
      "inputs": [
        {
          "internalType": "bytes32",
          "name": "role",
          "type": "bytes32"
        },
        {
          "internalType": "address",
          "name": "callerConfirmation",
          "type": "address"
        }
      ],
      "name": "renounceRole",
      "outputs": [],
      "stateMutability": "nonpayable",
      "type": "function"
    },
    {
      "inputs": [
        {
          "internalType": "uint256",
          "name": "dealId",
          "type": "uint256"
        },
        {
          "internalType": "uint8",
          "name": "op",
          "type": "uint8"
        },
        {
          "internalType": "uint256",
          "name": "newFee",
          "type": "uint256"
        }
      ],
      "name": "resolveDeadlock",
      "outputs": [],
      "stateMutability": "nonpayable",
      "type": "function"
    },
    {
      "inputs": [
        {
          "internalType": "bytes32",
          "name": "role",
          "type": "bytes32"
        },
        {
          "internalType": "address",
          "name": "account",
          "type": "address"
        }
      ],
      "name": "revokeRole",
      "outputs": [],
      "stateMutability": "nonpayable",
      "type": "function"
    },
    {
      "inputs": [
        {
          "internalType": "address",
          "name": "token",
          "type": "address"
        }
      ],
      "name": "revokeToken",
      "outputs": [],
      "stateMutability": "nonpayable",
      "type": "function"
    },
    {
      "inputs": [
        {
          "internalType": "uint256",
          "name": "duration",
          "type": "uint256"
        }
      ],
      "name": "setConsentWindow",
      "outputs": [],
      "stateMutability": "nonpayable",
      "type": "function"
    },
    {
      "inputs": [
        {
          "internalType": "uint256",
          "name": "bps",
          "type": "uint256"
        }
      ],
      "name": "setProtocolFee",
      "outputs": [],
      "stateMutability": "nonpayable",
      "type": "function"
    },
    {
      "inputs": [
        {
          "internalType": "address",
          "name": "_treasury",
          "type": "address"
        }
      ],
      "name": "setTreasury",
      "outputs": [],
      "stateMutability": "nonpayable",
      "type": "function"
    },
    {
      "inputs": [
        {
          "internalType": "uint256",
          "name": "offerId",
          "type": "uint256"
        },
        {
          "internalType": "uint256",
          "name": "transferFee",
          "type": "uint256"
        },
        {
          "internalType": "uint256",
          "name": "sellOnBps",
          "type": "uint256"
        },
        {
          "internalType": "address",
          "name": "sellOnRecipient",
          "type": "address"
        },
        {
          "internalType": "uint256",
          "name": "sellerAgentBps",
          "type": "uint256"
        },
        {
          "internalType": "address",
          "name": "sellerAgent",
          "type": "address"
        },
        {
          "internalType": "uint256",
          "name": "buyerAgentBps",
          "type": "uint256"
        },
        {
          "internalType": "address",
          "name": "buyerAgent",
          "type": "address"
        },
        {
          "internalType": "uint256",
          "name": "signingBonusMonths",
          "type": "uint256"
        },
        {
          "internalType": "uint256[]",
          "name": "installmentAmounts",
          "type": "uint256[]"
        },
        {
          "internalType": "uint256[]",
          "name": "installmentDueDates",
          "type": "uint256[]"
        }
      ],
      "name": "submitBid",
      "outputs": [],
      "stateMutability": "nonpayable",
      "type": "function"
    },
    {
      "inputs": [
        {
          "internalType": "uint256",
          "name": "dealId",
          "type": "uint256"
        },
        {
          "internalType": "uint256",
          "name": "transferFee",
          "type": "uint256"
        },
        {
          "internalType": "uint256",
          "name": "buyerAgentBps",
          "type": "uint256"
        },
        {
          "internalType": "address",
          "name": "buyerAgent",
          "type": "address"
        },
        {
          "internalType": "uint256",
          "name": "signingBonusMonths",
          "type": "uint256"
        }
      ],
      "name": "submitHijackBid",
      "outputs": [],
      "stateMutability": "nonpayable",
      "type": "function"
    },
    {
      "inputs": [
        {
          "internalType": "bytes4",
          "name": "interfaceId",
          "type": "bytes4"
        }
      ],
      "name": "supportsInterface",
      "outputs": [
        {
          "internalType": "bool",
          "name": "",
          "type": "bool"
        }
      ],
      "stateMutability": "view",
      "type": "function"
    },
    {
      "inputs": [],
      "name": "totalOffers",
      "outputs": [
        {
          "internalType": "uint256",
          "name": "",
          "type": "uint256"
        }
      ],
      "stateMutability": "view",
      "type": "function"
    },
    {
      "inputs": [],
      "name": "treasury",
      "outputs": [
        {
          "internalType": "address",
          "name": "",
          "type": "address"
        }
      ],
      "stateMutability": "view",
      "type": "function"
    },
    {
      "inputs": [],
      "name": "unpause",
      "outputs": [],
      "stateMutability": "nonpayable",
      "type": "function"
    },
    {
      "inputs": [
        {
          "internalType": "uint256",
          "name": "offerId",
          "type": "uint256"
        },
        {
          "internalType": "uint256",
          "name": "newTransferFee",
          "type": "uint256"
        },
        {
          "internalType": "uint256",
          "name": "newSellOnBps",
          "type": "uint256"
        },
        {
          "internalType": "address",
          "name": "newSellOnRecipient",
          "type": "address"
        },
        {
          "internalType": "uint256",
          "name": "newSellerAgentBps",
          "type": "uint256"
        },
        {
          "internalType": "address",
          "name": "newSellerAgent",
          "type": "address"
        },
        {
          "internalType": "uint256",
          "name": "newBuyerAgentBps",
          "type": "uint256"
        },
        {
          "internalType": "address",
          "name": "newBuyerAgent",
          "type": "address"
        },
        {
          "internalType": "uint256",
          "name": "newSalaryGuaranteeMonths",
          "type": "uint256"
        }
      ],
      "name": "updateBid",
      "outputs": [],
      "stateMutability": "nonpayable",
      "type": "function"
    },
    {
      "inputs": [
        {
          "internalType": "uint256",
          "name": "offerId",
          "type": "uint256"
        },
        {
          "internalType": "uint256",
          "name": "newAskingPrice",
          "type": "uint256"
        },
        {
          "internalType": "uint256",
          "name": "newSellOnBps",
          "type": "uint256"
        },
        {
          "internalType": "address",
          "name": "newSellOnRecipient",
          "type": "address"
        },
        {
          "internalType": "uint256",
          "name": "newSellerAgentBps",
          "type": "uint256"
        },
        {
          "internalType": "address",
          "name": "newSellerAgent",
          "type": "address"
        },
        {
          "internalType": "uint256",
          "name": "newMinimumHijackIncrementBps",
          "type": "uint256"
        }
      ],
      "name": "updateOffer",
      "outputs": [],
      "stateMutability": "nonpayable",
      "type": "function"
    },
    {
      "inputs": [
        {
          "internalType": "address",
          "name": "newImplementation",
          "type": "address"
        },
        {
          "internalType": "bytes",
          "name": "data",
          "type": "bytes"
        }
      ],
      "name": "upgradeToAndCall",
      "outputs": [],
      "stateMutability": "payable",
      "type": "function"
    },
    {
      "inputs": [
        {
          "internalType": "uint256",
          "name": "dealId",
          "type": "uint256"
        }
      ],
      "name": "walkAwayFromRenegotiation",
      "outputs": [],
      "stateMutability": "nonpayable",
      "type": "function"
    },
    {
      "inputs": [
        {
          "internalType": "uint256",
          "name": "offerId",
          "type": "uint256"
        }
      ],
      "name": "withdrawBid",
      "outputs": [],
      "stateMutability": "nonpayable",
      "type": "function"
    },
    {
      "inputs": [
        {
          "internalType": "uint256",
          "name": "offerId",
          "type": "uint256"
        }
      ],
      "name": "withdrawOffer",
      "outputs": [],
      "stateMutability": "nonpayable",
      "type": "function"
    }
  ],
  "bytecode": "0x60a080604052346100c257306080525f5160206159155f395f51905f525460ff8160401c166100b3576002600160401b03196001600160401b03821601610060575b60405161584e90816100c7823960805181818161229e01526123950152f35b6001600160401b0319166001600160401b039081175f5160206159155f395f51905f525581527fc7f505b2f371ae2175ee4913f4499e1f2633a7b5936321eed1cdaeb6115181d290602090a15f80610041565b63f92ee8a960e01b5f5260045ffd5b5f80fdfe6080806040526004361015610012575f80fd5b5f905f3560e01c90816301c11d96146148c75750806301ffc9a71461487157806302068664146141115780630633ee9f14613bd65780630c10207114613bbb5780630eaaf4c814613a685780631459457a1461384a578063196599ec146135535780631a9c09e01461329f578063248a9ca3146132785780632bbda3201461309c5780632ce05d031461307f5780632f2ff15d1461304d57806335659fb81461302f57806336568abe14612fea5780633677277c14612fcc5780633f4ba83a14612f4c5780633f8f6fb61461273a5780634579268a146125725780634628bd6b146125565780634c74ef9c1461252d5780634f1ef2861461231c578063515ac0d6146122f257806352d1902d1461228b57806353c15ac21461226f5780635c975abb146122405780635d205f7c1461210757806360e49e44146120df578063614d2c3614611f2d57806361d027b314611f04578063625fa9d914611ee75780636afc0c5f14611e1f5780636d947e4b146119c5578063744d341114611df557806375b238fc14611dcd578063787dce3d14611d6757806378fc263e14611d4957806380b2edd814611c7c57806380cd2e6514611c4157806382c88d4f14611b355780638456cb5914611ac25780638610f04514611a03578063892b38c2146119e75780638a7a2296146119ca5780638d13c1b8146119c557806391d148541461196f578063933f4eef146118175780639d93d352146117d85780639f3bbd1d146117bb578063a0d5e2a5146116e9578063a217fddf146116cd578063a528ff831461144d578063a9fd8ed11461142f578063ad3cb1cc146113e6578063b417c7da14611374578063b76d66471461134b578063b9ebd9f8146111a3578063bad7259a14610da2578063bfadc8f914610d0a578063cbeae2b414610b7b578063d547741f14610b40578063e004c0e4146108be578063e088ea6414610652578063e1a4521814610635578063eba1b60b14610485578063ebb5232f14610469578063f0f44260146103f0578063f3ad65f4146103c7578063f6a220b81461034a5763fc8045b114610320575f80fd5b3461034757806003193601126103475760206040515f5160206157f95f395f51905f528152f35b80fd5b503461034757602036600319011261034757610364614942565b61036c615188565b6001600160a01b03168082526010602052604082206001015460ff16156103b857808252601060205260408220600101805460ff191690555f5160206157995f395f51905f528280a280f35b63e4793f3960e01b8252600482fd5b50346103475780600319360112610347576003546040516001600160a01b039091168152602090f35b50346103475760203660031901126103475761040a614942565b61041261514c565b6001600160a01b0316801561045a57600580546001600160a01b031916821790557f7dae230f18360d76a040c81f050aa14eb9d6dc7901b20fc5d855e2a20fe814d18280a280f35b63e6c4247b60e01b8252600482fd5b5034610347578060031936011261034757602060405160038152f35b5034610347576040366003190112610347576004356104a26148ea565b906104ab614fe8565b50808352600860205260408320600101546001600160a01b031633141580610622575b610613578252600a602052604082209060018060a01b03165f5260205260405f2060ff601060405192610500846149b4565b8054845260018101546001600160a01b03908116602086015260028201548116604086015260038201546060860152600482015460808601526005820154811660a0860152600682015460c08601526007820154811660e08601526008820154610100860152600982015416610120850152600a810154610140850152610589600b8201614c51565b61016085015261059b600c8201614c51565b610180850152600d8101546101a0850152600e8101546101c0850152600f8101546101e08501520154818116151561020084015260081c1660068110156105ff576105fb9250610220820152604051918291602083526020830190614aa0565b0390f35b634e487b7160e01b83526021600452602483fd5b6303e2f0f360e51b8352600483fd5b50336001600160a01b03831614156104ce565b503461034757806003193601126103475760206040516127108152f35b503461034757606036600319011261034757600435906024359160ff83168093036108ba5760443592610683615080565b60028354146108ab5760028355610698615188565b60048054604051634f0df86560e01b81529182018490526001600160a01b0316919061010081602481865afa9081156108a0578591610871575b508051156108625760c00151601281101561084e5760ff600891160361083f578061077157505060045491925082916001600160a01b031690813b1561076d57829160448392604051948593849263029bc34f60e41b84526004840152600160248401525af180156107625761074d575b50505b6001815580f35b8161075791614a07565b61034757805f610743565b6040513d84823e3d90fd5b5050fd5b600181036107df57505060045491925082916001600160a01b031690813b1561076d57829160448392604051948593849262468c3560e51b845260048401528160248401525af18015610762576107ca575b5050610746565b816107d491614a07565b61034757805f6107c3565b909190600203610830578315610830578293823b1561082b576044849283604051958694859362468c3560e51b8552600485015260248401525af18015610762576107ca575050610746565b505050fd5b63162908e360e11b8352600483fd5b6372c24c3560e01b8452600484fd5b634e487b7160e01b85526021600452602485fd5b63223da47360e21b8552600485fd5b61089391506101003d8111610899575b61088b8183614a07565b810190614e57565b5f6106d2565b503d610881565b6040513d87823e3d90fd5b6306fda65d60e31b8352600483fd5b5080fd5b50346103475760e0366003190112610347576004356108db6148ea565b9060443591606435906108ec614958565b60a435916108f861496e565b90610901615080565b6002885414610b315760028855858852600860205260ff600b60408a2001541615610b2257858852600860205260408820600101546001600160a01b03163303610b1357858852600a602052604088209060018060a01b03165f5260205260405f2092601084019283549560ff8760081c166006811015610aff57600203610af057600f860196600388541015610ae15760ff16610ad25788158015610abe575b610aaf576107d08111610a8f5780151580610a9e575b610a6f5761012c8311610a8f5782151580610a7e575b610a6f576003860189905560048601556005850180546001600160a01b03199081166001600160a01b0393841617909155600686019290925560078501805490921692169190911790558254610a2390614e3d565b809355600160ff19825416179055600e4291015560405192835260208301527f0e53c40e73f19e7c2b351d1ccd74559419b70233453c899e9cbb4d1c82b8c60660403393a36001815580f35b63e6c4247b60e01b8a5260048afd5b506001600160a01b038416156109ce565b63c6cc5d7f60e01b8a5260048afd5b506001600160a01b038216156109b8565b63162908e360e11b8a5260048afd5b50676765c793fa10079d601a1b89116109a2565b63262fa5e160e11b8a5260048afd5b63538a58a760e01b8b5260048bfd5b6307e0eec960e31b8a5260048afd5b634e487b7160e01b8b52602160045260248bfd5b6303e2f0f360e51b8852600488fd5b636df5846d60e01b8852600488fd5b6306fda65d60e31b8852600488fd5b503461034757604036600319011261034757610b77600435610b606148ea565b90610b72610b6d82614ef4565b6151d1565b615525565b5080f35b503461034757602036600319011261034757600435808252600860205260ff600b6040842001541615610cfb5781526009602052604081208054610bbe81614fd1565b90610bcc6040519283614a07565b8082526020820190819385526020852085925b828410610c7657868587604051928392602084019060208552518091526040840160408260051b8601019392905b828210610c1c57505050500390f35b919360019193955060208091603f19898203018552875190606080610c4a8451608085526080850190614bb3565b938581015186850152604081015115156040850152015115159101529601920192018594939192610c0d565b604051608081016001600160401b03811182821017610ce757600192600392602092604052604051610cb381610cac818a614d11565b0382614a07565b8152848601548382015260ff60028701548181161515604084015260081c1615156060820152815201920193019290610bdf565b634e487b7160e01b89526041600452602489fd5b636df5846d60e01b8252600482fd5b503461034757602036600319011261034757602490602060018060a01b03600454166040519384809263bfadc8f960e01b825260043560048301525afa908115610d965790610d5f575b602090604051908152f35b506020813d602011610d8e575b81610d7960209383614a07565b81010312610d8a5760209051610d54565b5f80fd5b3d9150610d6c565b604051903d90823e3d90fd5b503461034757602036600319011261034757600435906002815414611194576002815560048054604051630f8f795960e01b81529182018490526001600160a01b03169060c081602481855afa8015611189578384908593869361114f575b50156108625761114057801561083f574211156111315760ff16600581148015611127575b15610e7e575050600454909182916001600160a01b031690813b1561076d57829160448392604051948593849263029bc34f60e41b84526004840152600860248401525af180156107625761074d5750506001815580f35b60068103610ed7575050600454909182916001600160a01b031690813b1561076d57829160448392604051948593849263029bc34f60e41b84526004840152600960248401525af18015610762576107ca575050610746565b600b8103610f29575050600454909182916001600160a01b031690813b1561076d57829160248392604051948593849263f5a4c31960e01b845260048401525af18015610762576107ca575050610746565b60078103610f82575050600454909182916001600160a01b031690813b1561076d57829160448392604051948593849263029bc34f60e41b84526004840152600b60248401525af18015610762576107ca575050610746565b60088103610fdb575050600454909182916001600160a01b031690813b1561076d57829160448392604051948593849263029bc34f60e41b84526004840152600c60248401525af18015610762576107ca575050610746565b6009810361102d575050600454909182916001600160a01b031690813b1561076d578291602483926040519485938492631ebee42560e11b845260048401525af18015610762576107ca575050610746565b600e810361107f575050600454909182916001600160a01b031690813b1561076d578291602483926040519485938492639bf437df60e01b845260048401525af18015610762576107ca575050610746565b600f81036110d1575050600454909182916001600160a01b031690813b1561076d578291602483926040519485938492639bf437df60e01b845260048401525af18015610762576107ca575050610746565b600d03611118578192813b1561076d57829160448392604051948593849263029bc34f60e41b84526004840152600d60248401525af18015610762576107ca575050610746565b6372c24c3560e01b8252600482fd5b50600a8114610e26565b6372c24c3560e01b8352600483fd5b63e231c28f60e01b8452600484fd5b92505050611175915060c03d60c011611182575b61116d8183614a07565b810190614f87565b505092919092915f610e01565b503d611163565b6040513d85823e3d90fd5b6306fda65d60e31b8152600490fd5b5034610347576040366003190112610347576004356111c06148ea565b6111c8615080565b60028354146108ab5760028355818352600860205260ff600b604085200154161561133c5781835260086020526040832060018101549091906001600160a01b0316330361132d57828452600a6020526040842060018060a01b0382165f52602052601060405f20019160ff835460081c16926006841015806113195760028514948515908161130a575b506112fb576112e757805461ff00191661040017905582806112da575b6112c5575b50828452600c6020526040842061128c8154614e4b565b90556001600160a01b0316825f5160206156995f395f51905f528580a36112b6575b506001815580f35b6112bf90615217565b5f6112ae565b600a016112d28154614e4b565b90555f611275565b50600a8101541515611270565b634e487b7160e01b86526021600452602486fd5b6307e0eec960e31b8752600487fd5b9150506001879114155f611253565b634e487b7160e01b87526021600452602487fd5b6303e2f0f360e51b8452600484fd5b636df5846d60e01b8352600483fd5b50346103475780600319360112610347576004546040516001600160a01b039091168152602090f35b50346103475760203660031901126103475760408091611392614942565b81602084516113a0816149ec565b82815201526001600160a01b0316815260106020522081516113c1816149ec565b602060ff60018454948585520154169101901515815282519182525115156020820152f35b5034610347578060031936011261034757506105fb604051611409604082614a07565b60058152640352e302e360dc1b6020820152604051918291602083526020830190614bb3565b50346103475780600319360112610347576020600154604051908152f35b503461034757602036600319011261034757600435808252600860205260ff600b6040842001541615610cfb57808252600860205260408220600101546001600160a01b031633036116be57808252600b602052604082208054906114b182614fd1565b926114bf6040519485614a07565b828452601f196114ce84614fd1565b01855b8181106116a7575050845b83811061154a5784866040519182916020830160208452825180915260408401602060408360051b870101940192905b82821061151b57505050500390f35b9193600191939550602061153a8192603f198a82030186528851614aa0565b960192019201859493919261150c565b818652600a602052604086206115608285614cb3565b60018060a01b0391549060031b1c1660018060a01b03165f5260205260405f2060ff601060405192611591846149b4565b8054845260018101546001600160a01b03908116602086015260028201548116604086015260038201546060860152600482015460808601526005820154811660a0860152600682015460c08601526007820154811660e08601526008820154610100860152600982015416610120850152600a81015461014085015261161a600b8201614c51565b61016085015261162c600c8201614c51565b610180850152600d8101546101a0850152600e8101546101c0850152600f8101546101e08501520154818116151561020084015260081c1660068110156116935761022082015260019190611681828861506c565b5261168c818761506c565b50016114dc565b634e487b7160e01b88526021600452602488fd5b6020906116b2614fe8565b828289010152016114d1565b6303e2f0f360e51b8252600482fd5b5034610347578060031936011261034757602090604051908152f35b503461034757604036600319011261034757611703614942565b6024359061170f615188565b6001600160a01b03169081156117ac57801561083057818352601060205260ff60016040852001541661179d5760207f0ffe513459702463615ee8ff7023e9830e6253bfe826f86ca79046e81ba908209161179360405161176f816149ec565b82815260018482018181528789526010865260408920925183555115159101614cc8565b604051908152a280f35b6336d3cb7960e11b8352600483fd5b63e6c4247b60e01b8352600483fd5b50346103475780600319360112610347576020604051610e108152f35b50346103475760203660031901126103475760209060ff906040906001600160a01b03611803614942565b168152600e84522054166040519015158152f35b503461034757602036600319011261034757611831614942565b611839615103565b6001600160a01b0316808252600e602052604082205460ff161561196057808252600e60205260408220805460ff19169055600f5490825b8281106118a2575b83827f45f62f30e7b8439e0da7d8e560fe39d01238091ce9e789e3d12b514edf98acea8280a280f35b816118ac82614c9b565b905460039190911b1c6001600160a01b0316146118cb57600101611871565b90915f19810190811161194c57906119006118e861190693614c9b565b905460039190911b1c6001600160a01b031691614c9b565b90614e1a565b600f548015611938575f190161191b81614c9b565b81549060018060a01b039060031b1b19169055600f55805f611879565b634e487b7160e01b83526031600452602483fd5b634e487b7160e01b84526011600452602484fd5b635a1303a760e01b8252600482fd5b503461034757604036600319011261034757604061198b6148ea565b9160043581525f5160206157595f395f51905f52602052209060018060a01b03165f52602052602060ff60405f2054166040519015158152f35b614a45565b503461034757806003193601126103475760206040516107d08152f35b5034610347578060031936011261034757602060405160188152f35b503461034757602036600319011261034757600435611a20615080565b6002825414611ab35760028255808252600860205260ff600b6040842001541615610cfb5780825260086020526040822060018101546001600160a01b0316330361061357600a81015461113157600b810160ff198154169055548252600d6020528160408120557facbc44b7f46dc350c99fc0d9e5f61ed5c588cb4cdc6b69ea0deb0c5b28e5efc48280a26001815580f35b6306fda65d60e31b8252600482fd5b5034610347578060031936011261034757611adb615103565b611ae3615080565b600160ff195f5160206157795f395f51905f525416175f5160206157795f395f51905f52557f62e78cea01bee320cd4e420270b5ea74000d11b0c9f74754ebdbfc544b05a2586020604051338152a180f35b50346103475760203660031901126103475760043560018060a01b0360045416604051630f8f795960e01b815282600482015260c081602481855afa8015611c36578485928692611c0b575b5015610862576001600160a01b03161561083f57421115611131578083913b156108ba578180916024604051809481936344d912a160e11b83528860048401525af1801561076257611bf6575b50807f1833f8bbbaedba04925e4618512692856f29f79deb98722cd8d7eca4fc1e6bc391a280f35b81611c0091614a07565b6108ba57815f611bce565b915050611c27915060c03d60c0116111825761116d8183614a07565b9492509250509091905f611b81565b6040513d86823e3d90fd5b503461034757602036600319011261034757600435611c5e615103565b610e108110611c6d5760075580f35b63296d383360e01b8252600482fd5b503461034757602036600319011261034757611c96614942565b611c9e615103565b6001600160a01b0381169081156117ac57818352600e60205260ff604084205416611d3a57818352600e60205260408320805460ff19166001179055600f54600160401b811015611d265790611900826001611cff9401600f55600f614cb3565b7f5f5916d70d5479c1795a9d461360dfa5c673bc37904c8ab4fcbdc970b9e90f3d8280a280f35b634e487b7160e01b84526041600452602484fd5b6389f2a03b60e01b8352600483fd5b50346103475780600319360112610347576020600754604051908152f35b503461034757602036600319011261034757600435611d8461514c565b60c88111611dbe576020817fd10d75876659a287a59a6ccfa2e3fff42f84d94b542837acd30bc184d562de4092600655604051908152a180f35b63499fddb160e01b8252600482fd5b503461034757806003193601126103475760206040515f5160206157b95f395f51905f528152f35b50346103475760203660031901126103475760406020916004358152600c83522054604051908152f35b5034610347578060031936011261034757604051600f8054808352908352602082019081907f8d1108e10bcb7c27dddfc02ed9d693a074039d026cf4ea4240b40f7d581ac80290855b818110611ec85750505082611e7e910383614a07565b604051928392602084019060208552518091526040840192915b818110611ea6575050500390f35b82516001600160a01b0316845285945060209384019390920191600101611e98565b82546001600160a01b0316845260209093019260019283019201611e68565b503461034757806003193601126103475760206040516101f48152f35b50346103475780600319360112610347576005546040516001600160a01b039091168152602090f35b5034610347576020366003190112610347576004356001600160401b0381116108ba57611f5e903690600401614984565b611f66615188565b825b8181106120685750825b818110611f7d578380f35b6001600160a01b03611f98611f93838587614d92565b614f73565b168452601060205260408420600181019081549060ff82161561205957908160019493925480612006575b505415611fd3575b505001611f72565b60ff19169055818060a01b03611fed611f93838688614d92565b165f5160206157995f395f51905f528680a25f80611fcb565b61200f90614e4b565b8082557f5e3cf48d467d6f682659f32b47874269379e19498ffebf7b647d716d0f44733960208961204a611f93898c8c8060a01b0394614d92565b1692604051908152a25f611fc3565b639eb02c9f60e01b8752600487fd5b600181018082116120cb575b8281106120845750600101611f68565b612096611f9383858798969597614d92565b6001600160a01b036120ac611f9384868a614d92565b6001600160a01b039092169116146117ac576001019392909193612074565b634e487b7160e01b85526011600452602485fd5b503461034757806003193601126103475760206040515f5160206157395f395f51905f528152f35b50346103475760203660031901126103475760043590612125615080565b6002815414611194576002815560048054604051634f0df86560e01b81529182018490526001600160a01b03169061010081602481855afa908115611189578391612221575b508051156122125760c081015160128110156121fe5760ff600791160361113157604001516001600160a01b031633036121ef578192813b1561076d578291602483926040519485938492631c70d28d60e21b845260048401525af18015610762576121da575b506001905580f35b816121e491614a07565b61034757805f6121d2565b63223da47360e21b8252600482fd5b634e487b7160e01b84526021600452602484fd5b63223da47360e21b8352600483fd5b61223a91506101003d81116108995761088b8183614a07565b5f61216b565b5034610347578060031936011261034757602060ff5f5160206157795f395f51905f5254166040519015158152f35b5034610347578060031936011261034757602060405160058152f35b50346103475780600319360112610347577f00000000000000000000000000000000000000000000000000000000000000006001600160a01b031630036122e35760206040515f5160206157195f395f51905f528152f35b63703e46dd60e11b8152600490fd5b50346103475760203660031901126103475760406020916004358152600d83522054604051908152f35b50604036600319011261034757612331614942565b60243591906001600160401b0383116108ba57366023840112156108ba57826004013561235d81614a2a565b9361236b6040519586614a07565b81855236602483830101116125295781849260246020930183880137850101526001600160a01b037f000000000000000000000000000000000000000000000000000000000000000016308114908115612507575b506124f8576123cd61514c565b6040516352d1902d60e01b8152926001600160a01b0382169190602085600481865afa809585966124c0575b5061241257634c9c8ce360e01b84526004839052602484fd5b9091845f5160206157195f395f51905f5281036124ae5750823b1561249c575f5160206157195f395f51905f5280546001600160a01b031916821790557fbc7cd75a20ee27fd9adebab32041f755214dbc6bffa90cc0225b39da2e5c2d3b8480a280511561248357610b77916155ec565b50503461248d5780f35b63b398979f60e01b8152600490fd5b634c9c8ce360e01b8452600452602483fd5b632a87526960e21b8552600452602484fd5b9095506020813d6020116124f0575b816124dc60209383614a07565b810103126124ec5751945f6123f9565b8480fd5b3d91506124cf565b63703e46dd60e11b8252600482fd5b5f5160206157195f395f51905f52546001600160a01b0316141590505f6123c0565b8380fd5b50346103475780600319360112610347576002546040516001600160a01b039091168152602090f35b5034610347578060031936011261034757602060405160148152f35b50346103475760203660031901126103475760043581610160604051612597816149d0565b8281528260208201528260408201528260608201528260808201528260a08201528260c08201528260e08201528261010082015282610120820152826101408201520152808252600860205260ff600b6040842001541615610cfb5781604091610180935260086020522060405161260e816149d0565b808083549384825260018060a01b036001820154166020830190815260018060a01b036002830154166040840190815260038301546060850190815260048401546080860190815260018060a01b036005860154169160a0870192835260068601549360c0880194855260018060a01b036007880154169560e0890196875261016060ff600b60088b01549a6101008d019b8c5261012060098201549d019c8d52610140600a8201549e019d8e520154169b019a15158b526040519b8c5260018060a01b0390511660208c015260018060a01b0390511660408b01525160608a015251608089015260018060a01b0390511660a08801525160c087015260018060a01b0390511660e0860152516101008501525161012084015251610140830152511515610160820152f35b503461034757610120366003190112610347576004356127586148ea565b6064359160443591612768614958565b9060a4359461277561496e565b60e4359390610104356001600160401b038111612f485761279a903690600401614984565b9590946127a5615080565b60028b5414612f395760028b556127ba6150a7565b6001600160a01b0316808b52600e60205260408b205490929060ff1615612f2a5760035460405163023aa9ab60e61b81527fd8e6c8b39dbc70333b42d059fa436cf2679722325c0f6ed7e701df0b05a637c8600482015290602090829060249082906001600160a01b03165afa908115612e48578c91612eeb575b50604051636896470560e11b815290602090829060049082906001600160a01b03165afa908115612e48578c91612eb1575b5015612ea257878b52600d60205260408b2054612e94576004805460405163bfadc8f960e01b81529182018a9052602090829060249082906001600160a01b03165afa908115612e48578c91612e62575b50612e53576002546040516369d146b560e11b8152600481018a905290602090829060249082906001600160a01b03165afa908115612e48578c91612e0a575b50336001600160a01b0390911603612dfb5788158015612de7575b612dd8576107d08511612d8d5784151580612dc7575b612da75761012c8a11612d8d5789151580612db6575b612da75781158015612d9c575b612d8d57600a8711612d7e57908a9291835b888110612d0d575060015461297290614e3d565b9a8b958660015560405197612986896149d0565b8b89528c60208a019633885260408b0190815260608b0191825260808b0192835260a08b0193600160a01b6001900316845260c08b0194855260e08b0195600160a01b600190031686526101008b019687526101208b01974289526101408c0199808b526101608d019b60018d5281526008602052604090209b518c55600160a01b6001900390511660018c0190600160a01b6001900316600160a01b6001900319825416179055600160a01b6001900390511660028b0190600160a01b6001900316600160a01b60019003198254161790555160038a0155516004890155600160a01b600190039051166005880190600160a01b6001900316600160a01b6001900319825416179055516006870155600160a01b600190039051166007860190600160a01b6001900316600160a01b600190031982541617905551600885015551600984015551600a83015551151590600b0190612ae491614cc8565b855b828110612b37576020866001898888808352600d8652846040842055604051918252847f32645f28ae455f14af7a547728c579fc5a3f52d9c6db6d22a0de0ded95c82cbe873394a455604051908152f35b858752600960205260408720612b4e828585614f12565b81549091600160401b821015612cf95760018201808255821015612ce5578952600360208a20910201612b818280614f34565b906001600160401b038211612cd157612b9a8354614cd9565b601f8111612c96575b508a908b601f8411600114612c27579383612c029460609460029460019a999892612c1c575b50505f19600383901b1c191690881b1781555b6020850135878201550192612bfc612bf660408301614f66565b85614cc8565b01614f66565b815461ff00191690151560081b61ff001617905501612ae6565b013590505f80612bc9565b50838c5260208c2091601f1984168d5b818110612c7e57508460609460029460019a999894612c02988c9510612c65575b505050811b018155612bdc565b01355f19600384901b60f8161c191690555f8080612c58565b91936020600181928787013581550195019201612c37565b612cc190848d5260208d20601f850160051c81019160208610612cc7575b601f0160051c0190614daf565b5f612ba3565b9091508190612cb4565b634e487b7160e01b8b52604160045260248bfd5b634e487b7160e01b8a52603260045260248afd5b634e487b7160e01b8a52604160045260248afd5b9091929350612d26612d20828a8a614f12565b80614f34565b9050158015612d64575b612d55576020612d41828a8a614f12565b013515612d5557600101908b93929161295e565b63162908e360e11b8c5260048cfd5b50610100612d76612d20838b8b614f12565b905011612d30565b630ba8482160e11b8b5260048bfd5b63c6cc5d7f60e01b8b5260048bfd5b50612710821161294c565b63e6c4247b60e01b8b5260048bfd5b506001600160a01b0381161561293f565b506001600160a01b03841615612929565b63162908e360e11b8b5260048bfd5b50676765c793fa10079d601a1b8911612913565b6303e2f0f360e51b8b5260048bfd5b90506020813d602011612e40575b81612e2560209383614a07565b81010312612e3c57612e3690614c1d565b5f6128f8565b8b80fd5b3d9150612e18565b6040513d8e823e3d90fd5b631a29045b60e11b8b5260048bfd5b90506020813d602011612e8c575b81612e7d60209383614a07565b81010312610d8a57515f6128b8565b3d9150612e70565b6219c1a760e21b8b5260048bfd5b6304d54fbf60e41b8b5260048bfd5b90506020813d602011612ee3575b81612ecc60209383614a07565b81010312612e3c57612edd90614c31565b5f612867565b3d9150612ebf565b90506020813d602011612f22575b81612f0660209383614a07565b81010312612e3c576020612f1b600492614c1d565b9150612835565b3d9150612ef9565b6332da96a360e01b8b5260048bfd5b6306fda65d60e31b8b5260048bfd5b8980fd5b5034610347578060031936011261034757612f65615103565b5f5160206157795f395f51905f525460ff811615612fbd5760ff19165f5160206157795f395f51905f52557f5db9ee0a495bf2e6ff9c91a7834c1ba4fdd244a5e8aa4e537bd38aeae4b073aa6020604051338152a180f35b638dfc202b60e01b8252600482fd5b5034610347578060031936011261034757602060405162093a808152f35b5034610347576040366003190112610347576130046148ea565b336001600160a01b0382160361302057610b7790600435615525565b63334bd91960e11b8252600482fd5b50346103475780600319360112610347576020600654604051908152f35b503461034757604036600319011261034757610b7760043561306d6148ea565b9061307a610b6d82614ef4565b615494565b5034610347578060031936011261034757602060405161012c8152f35b50346103475760e0366003190112610347576004356024356044356130bf614900565b906084356130cb614916565b9060c435936130d8615080565b6002885414610b315760028855868852600860205260ff600b60408a2001541615610b225786885260086020526040882060018101549094906001600160a01b0316330361326957600a85015461325a5786158015613246575b613237576107d081116131ec5780151580613226575b6132065761012c83116131ec5782151580613215575b61320657851580156131fb575b6131ec576003850187905560048501556005840180546001600160a01b03199081166001600160a01b039384161790915560068501929092556007840180549092169216919091179055600801556040519081527f63259830931e406791f7755ad50d816251e755d53951772775a94f2bf0e54fde90602090a26001815580f35b63c6cc5d7f60e01b8952600489fd5b50612710861161316b565b63e6c4247b60e01b8952600489fd5b506001600160a01b0384161561315e565b506001600160a01b03821615613148565b63162908e360e11b8952600489fd5b50676765c793fa10079d601a1b8711613132565b6372c24c3560e01b8952600489fd5b6303e2f0f360e51b8952600489fd5b5034610347576020366003190112610347576020613297600435614ef4565b604051908152f35b503461034757610120366003190112610347576024356004356044356132c3614900565b608435916132cf614916565b60c4356132da61492c565b9061010435926132e8615080565b60028a54146135445760028a55878a52600860205260ff600b60408c200154161561353557878a52600a60205260408a2060018060a01b0333165f5260205260405f2096601088019687549660ff8860081c1660068110156135215760020361351257600f8a019788549060038210156135035760ff161590816134f9575b506134ea578b1580156134d6575b613476576107d081116134a557801515806134c5575b6134855761012c83116134a557821515806134b4575b6134855761012c85116134a55784151580613494575b61348557601887116134765760038a018c905560048a01556005890180546001600160a01b03199081166001600160a01b039384161790915560068a019290925560078901805483169382169390931790925560088801929092556009870180549092169216919091179055600a840155805461343390614e3d565b905560ff198154169055600e429101556040519182527f67084cbee80e339a509d7ab5561456aebf1df51370948a18a4449a1978d368ee60203393a36001815580f35b63162908e360e11b8d5260048dfd5b63e6c4247b60e01b8d5260048dfd5b506001600160a01b038616156133b7565b63c6cc5d7f60e01b8d5260048dfd5b506001600160a01b038416156133a1565b506001600160a01b0382161561338b565b50676765c793fa10079d601a1b8c11613375565b63262fa5e160e11b8d5260048dfd5b905015155f613367565b63538a58a760e01b8f5260048ffd5b63340d7a1f60e01b8d5260048dfd5b634e487b7160e01b8e52602160045260248efd5b636df5846d60e01b8a5260048afd5b6306fda65d60e31b8a5260048afd5b5034610d8a5760a0366003190112610d8a57602435600435604435613576614900565b9061357f615080565b60025f541461383b5760025f556135946150a7565b335f52601060205260ff600160405f2001541661382c5760048054604051634f0df86560e01b81529182018590526001600160a01b0316949061010081602481895afa90811561373c575f9161380d575b508051156137fe5760c081015160128110156137ea57600819016137db5760e081015142116137db5760208101516001600160a01b031633146137cd5760408101516001600160a01b031633146137be57613656608082015161271061364f60a085015183614c3e565b0490614da2565b8083106137a7575061012c83116137985782151580613787575b61377857606060018060a01b0391015116604051956323b872dd60e01b5f52336004526024528160445260205f60648180855af160015f5114811615613759575b866040525f6060521561374757506004546001600160a01b031693843b15610d8a57630c1fff9d60e31b86526004860152336024860152604485015260648401526001600160a01b03166084808401919091523560a48301525f90829060c490829084905af1801561373c5761372957506001815580f35b61373591505f90614a07565b5f5f6112ae565b6040513d5f823e3d90fd5b635274afe760e01b5f5260045260245ffd5b600181151661376f57813b15153d1516166136b1565b863d5f823e3d90fd5b63e6c4247b60e01b5f5260045ffd5b506001600160a01b03841615613670565b63c6cc5d7f60e01b5f5260045ffd5b905063eace4ad160e01b5f5260045260245260445ffd5b6366b9b88760e01b5f5260045ffd5b6258479160e51b5f5260045ffd5b6327232a2960e11b5f5260045ffd5b634e487b7160e01b5f52602160045260245ffd5b63223da47360e21b5f5260045ffd5b61382691506101003d81116108995761088b8183614a07565b5f6135e5565b635bd4169d60e01b5f5260045ffd5b6306fda65d60e31b5f5260045ffd5b34610d8a5760a0366003190112610d8a57613863614942565b61386b6148ea565b6044356001600160a01b03811690819003610d8a57613888614900565b613890614958565b5f5160206157d95f395f51905f5254604081901c60ff161595919391906001600160401b03811680159081613a60575b6001149081613a56575b159081613a4d575b50613a3e576001600160401b031981166001175f5160206157d95f395f51905f525586613a16575b506001600160a01b0316938415613778576001600160a01b0316918215613778578115613778576001600160a01b0316918215613778576001600160a01b03841615613778576139bd9461394c6155c1565b6139546155c1565b60015f5560018060a01b0319600254161760025560018060a01b0319600354161760035560018060a01b0319600454161760045560018060a01b031960055416176005556203f48060075560326006556139ad8161531e565b506139b781615394565b50615414565b506139c457005b60ff60401b195f5160206157d95f395f51905f5254165f5160206157d95f395f51905f52557fc7f505b2f371ae2175ee4913f4499e1f2633a7b5936321eed1cdaeb6115181d2602060405160018152a1005b6001600160481b0319166001600160401b01175f5160206157d95f395f51905f5255866138fa565b63f92ee8a960e01b5f5260045ffd5b905015886138d2565b303b1591506138ca565b8891506138c0565b34610d8a576020366003190112610d8a57600435613a84615080565b60025f541461383b5760025f55805f52600860205260ff600b60405f2001541615613bac575f818152600a602090815260408083203384529091529020601001805460081c60ff16906006821015806137ea57600283149283159081613b9d575b50613b8e576137ea5761050061ff0019825416179055815f52600860205260405f208180613b81575b613b6c575b50815f52600c60205260405f20613b2a8154614e4b565b905533827f5e9c7ae3229b2cda5065d7058fcc05765c695c29ce05313fbe96cb2ca639231a5f80a3613b5d575b60015f55005b613b6690615217565b80613b57565b600a01613b798154614e4b565b905582613b13565b50600a8101541515613b0e565b6307e0eec960e31b5f5260045ffd5b91505060015f91141585613ae5565b636df5846d60e01b5f5260045ffd5b34610d8a575f366003190112610d8a576020604051600a8152f35b34610d8a57610160366003190112610d8a57602435600435604435613bf9614900565b90608435613c05614916565b9160c435613c1161492c565b610124356001600160401b038111610d8a57613c31903690600401614984565b9093909290610144356001600160401b038111610d8a57613c56903690600401614984565b939092613c61615080565b60025f541461383b5760025f55613c766150a7565b8a5f52600860205260ff600b60405f2001541615613bac57335f52601060205260ff600160405f2001541661382c575f8b815260086020526040902060018101549099906001600160a01b031633146137cd578b5f52600c602052601460405f20541015614102578b5f52600a60205260405f2060018060a01b0333165f5260205260405f209860ff60108b015460081c1660068110156137ea57600281149081156140f7575b506140e8578d1580156140d4575b613fd8576107d0851161379857841515806140c3575b6137785761012c811161379857801515806140b2575b6137785761012c831161379857821515806140a1575b6137785760186101043511613fd85787158015614097575b613fd857878703613fd8578d5f5f5b8a8110613fe7575003613fd85760059b8d958f600a8e019e8f54105f14613fd05760029d5b5f898152600a6020818152604080842033808652925283209b8c5560018c0180546001600160a01b03199081169092179055600293840154938c01805482166001600160a01b0395861617905560038c019490945560048b019490945560058a0180548416958316959095179094556006808a019590955560078901805483169682169690961790955560088801959095556009870180549095169590931694909417909255610104359084015542600d8401819055600e840155600f83019190915560108201805460ff19168155908810156137ea57805461ff008960081b169061ff001916179055600c600b820191613eb383614dc5565b0193613ebe85614dc5565b5f5b818110613f9d578b8b8b8b600d8c015415613f4a575b613f0c91835f52600c60205260405f20613ef08154614e3d565b905560028214613f38575b506040519384526020840190614a93565b7f91f3c243b9bdde5ceb2c34ba0539b3af064f15c0127b734fd97fbe6a099b51ea60403393a360015f55005b613f428154614e3d565b905584613efb565b825f52600b60205260405f20918254600160401b811015613f8957613f7b81613f0c956001613f8294018155614cb3565b3391614e1a565b9150613ed6565b634e487b7160e01b5f52604160045260245ffd5b80613fb5613fae600193858b614d92565b3585614de6565b613fca613fc3828888614d92565b3588614de6565b01613ec0565b60019d613db9565b63162908e360e11b5f5260045ffd5b9150613ff4828b8d614d92565b3515613fd85781158080614073575b613fd8571580614034575b613fd85761402a600191614023848d8f614d92565b3590614da2565b9101908f91613d94565b50614040828a8a614d92565b355f19830183811161405f57614057908b8b614d92565b35101561400e565b634e487b7160e01b5f52601160045260245ffd5b5089156140835742893510614003565b634e487b7160e01b5f52603260045260245ffd5b5060088811613d85565b506001600160a01b03841615613d6d565b506001600160a01b03821615613d57565b506001600160a01b038c1615613d41565b50676765c793fa10079d601a1b8e11613d2b565b63db8219ad60e01b5f5260045ffd5b60019150148f613d1d565b63d039f3fd60e01b5f5260045ffd5b34610d8a576040366003190112610d8a5761412a6148ea565b614132615080565b60025f541461383b5760025f556004355f52600860205260ff600b60405f2001541615613bac576004355f52600860205260405f209060018060a01b0360018301541690338203614862576004355f52600a60205260405f2060018060a01b0382165f5260205260405f2091601083015460ff8160081c1660068110156137ea57600203613b8e5760ff16614853576002548454604051631cab5c9d60e31b815260048101829052915f90839060249082906001600160a01b03165afa801561373c5784925f916146c4575b50600a8601545f91811515806146b7575b614688575b508787600160a01b6001900360028301541660038201546004830154600160a01b6001900360058501541690600685015492600160a01b6001900360078701541694600887015496600160a01b6001900390600901541697600801549a6007549c6040519e8f92614284846149b4565b6004358452602084015260408301526001600160a01b031660609091015260808d015260a08c015260c08b015260e08a01526101008901526101208801526101408701526101608601526101808501526101a08401526101c08301526101e08201526142f2600b8401614c51565b610200820152614304600c8401614c51565b6102208201526004355f52600960205260405f206004355f52600b60205260405f20945f5b86548110156144145761433c8188614cb3565b905460039190911b1c6001600160a01b039081169086161461440c576004355f52600a60205260405f206143708289614cb3565b905460039190911b1c6001600160a01b03165f90815260209190915260409020601001805460081c60ff16919060068310156137ea5782600260019414908115614402575b506143c3575b505b01614329565b805461ff0019166104001790556143da8189614cb3565b838060a01b0391549060031b1c166004355f5160206156995f395f51905f525f80a3886143bb565b849150148a6143b5565b6001906143bd565b506010909401805461ff001916610300179055600b8401805460ff19169055600480355f908152600c6020908152604080832083905596548252600d8152868220919091558154865163cfeffc7160e01b815292830187905284516044840152908401516064830152948301516001600160a01b0390811660848301526060840151811660a48301526080840151811660c483015260a084015160e483015260c084015161010483015260e08401518116610124830152610100840151610144830152610120840151811661016483015261014084015161018483015261016084015181166101a48301526101808401516101c48301526101a08401516101e48301526101c08401516102048301526101e08401516102248301526102008401516102406102448401529195169285929161457291906102209061455d90610284870190614a60565b91015184820360431901610264860152614a60565b6003198382030160248401528154808252602082019160208260051b820101935f5260205f20925f915b83831061462a578689602082808a03815f8e5af191821561373c575f926145f6575b506001600160a01b0316906004357fd04f845137f741f1b1fcb8758a097aa384274dde474ea57dc4b71e88f8625cf35f80a460015f55005b9091506020813d602011614622575b8161461260209383614a07565b81010312610d8a575190826145be565b3d9150614605565b91939550919360206003600192601f1985820301865260808152614651608082018a614d11565b90848a015484820152606060ff60028c01548181161515604085015260081c1615159101529701930193019092889594929361459c565b90935060a091500151918260021b928084046004149015171561405f576146b0818694614c3e565b9088614214565b5060a0810151151561420f565b9250503d805f843e6146d68184614a07565b820191602081840312610d8a578051906001600160401b038211610d8a57019161020083820312610d8a576040519061020082016001600160401b03811183821017613f89576040528351825260208401516001600160401b038111610d8a5781614742918601614bd7565b602083015260408401516001600160401b038111610d8a5781614766918601614bd7565b604083015260608401516001600160401b038111610d8a578161478a918601614bd7565b60608301526080840151608083015260a084015160a08301526147af60c08501614c1d565b60c08301526147c060e08501614c31565b60e08301526147d26101008501614c31565b6101008301526147e56101208501614c31565b6101208301526101408401516101408301526101608401516101608301526101808401516101808301526101a08401516101a08301526101c08401519360018060401b038511610d8a5761483f6101e09288968301614bd7565b6101c084015201516101e0820152876141fe565b63262fa5e160e11b5f5260045ffd5b6303e2f0f360e51b5f5260045ffd5b34610d8a576020366003190112610d8a5760043563ffffffff60e01b8116809103610d8a57602090637965db0b60e01b81149081156148b6575b506040519015158152f35b6301ffc9a760e01b149050826148ab565b34610d8a575f366003190112610d8a57676765c793fa10079d601a1b8152602090f35b602435906001600160a01b0382168203610d8a57565b606435906001600160a01b0382168203610d8a57565b60a435906001600160a01b0382168203610d8a57565b60e435906001600160a01b0382168203610d8a57565b600435906001600160a01b0382168203610d8a57565b608435906001600160a01b0382168203610d8a57565b60c435906001600160a01b0382168203610d8a57565b9181601f84011215610d8a578235916001600160401b038311610d8a576020808501948460051b010111610d8a57565b61024081019081106001600160401b03821117613f8957604052565b61018081019081106001600160401b03821117613f8957604052565b604081019081106001600160401b03821117613f8957604052565b601f909101601f19168101906001600160401b03821190821017613f8957604052565b6001600160401b038111613f8957601f01601f191660200190565b34610d8a575f366003190112610d8a57602060405160c88152f35b90602080835192838152019201905f5b818110614a7d5750505090565b8251845260209384019390920191600101614a70565b9060068210156137ea5752565b90614bb0908251815260018060a01b03602084015116602082015260018060a01b036040840151166040820152606083015160608201526080830151608082015260018060a01b0360a08401511660a082015260c083015160c082015260018060a01b0360e08401511660e082015261010083015161010082015260018060a01b036101208401511661012082015261014083015161014082015261022080614b73614b5f610160870151610240610160870152610240860190614a60565b610180870151858203610180870152614a60565b946101a08101516101a08501526101c08101516101c08501526101e08101516101e085015261020081015115156102008501520151910190614a93565b90565b805180835260209291819084018484015e5f828201840152601f01601f1916010190565b81601f82011215610d8a57805190614bee82614a2a565b92614bfc6040519485614a07565b82845260208383010111610d8a57815f9260208093018386015e8301015290565b51906001600160a01b0382168203610d8a57565b51908115158203610d8a57565b8181029291811591840414171561405f57565b90604051918281549182825260208201905f5260205f20925f5b818110614c82575050614c8092500383614a07565b565b8454835260019485019487945060209093019201614c6b565b600f5481101561408357600f5f5260205f2001905f90565b8054821015614083575f5260205f2001905f90565b9060ff801983541691151516179055565b90600182811c92168015614d07575b6020831014614cf357565b634e487b7160e01b5f52602260045260245ffd5b91607f1691614ce8565b5f9291815491614d2083614cd9565b8083529260018116908115614d755750600114614d3c57505050565b5f9081526020812093945091925b838310614d5b575060209250010190565b600181602092949394548385870101520191019190614d4a565b915050602093945060ff929192191683830152151560051b010190565b91908110156140835760051b0190565b9190820180921161405f57565b818110614dba575050565b5f8155600101614daf565b80545f825580614dd3575050565b614c80915f5260205f2090810190614daf565b8054600160401b811015613f8957614e0391600182018155614cb3565b819291549060031b91821b915f19901b1916179055565b80546001600160a01b0360039390931b83811b199091169290931690921b179055565b5f19811461405f5760010190565b801561405f575f190190565b9081610100910312610d8a576040519061010082016001600160401b03811183821017613f8957604052614e8a81614c31565b8252614e9860208201614c1d565b6020830152614ea960408201614c1d565b6040830152614eba60608201614c1d565b60608301526080810151608083015260a081015160a083015260c0810151906012821015610d8a5760e09160c0840152015160e082015290565b5f525f5160206157595f395f51905f52602052600160405f20015490565b91908110156140835760051b81013590607e1981360301821215610d8a570190565b903590601e1981360301821215610d8a57018035906001600160401b038211610d8a57602001918136038313610d8a57565b358015158103610d8a5790565b356001600160a01b0381168103610d8a5790565b91908260c0910312610d8a57614f9c82614c31565b91614fa960208201614c31565b91604082015160ff81168103610d8a5791606081015191614bb060a060808401519301614c1d565b6001600160401b038111613f895760051b60200190565b60405190614ff5826149b4565b5f610220838281528260208201528260408201528260608201528260808201528260a08201528260c08201528260e082015282610100820152826101208201528261014082015260606101608201526060610180820152826101a0820152826101c0820152826101e0820152826102008201520152565b80518210156140835760209160051b010190565b60ff5f5160206157795f395f51905f52541661509857565b63d93c066560e01b5f5260045ffd5b335f9081527f47c3465a0c211ece60dd73efc90110f8b7e204feda752e1c50487740ddbcd24f602052604090205460ff16156150df57565b63e2517d3f60e01b5f52336004525f5160206157f95f395f51905f5260245260445ffd5b335f9081525f5160206156d95f395f51905f52602052604090205460ff161561512857565b63e2517d3f60e01b5f52336004525f5160206157b95f395f51905f5260245260445ffd5b335f9081525f5160206156f95f395f51905f52602052604090205460ff161561517157565b63e2517d3f60e01b5f52336004525f60245260445ffd5b335f9081525f5160206156b95f395f51905f52602052604090205460ff16156151ad57565b63e2517d3f60e01b5f52336004525f5160206157395f395f51905f5260245260445ffd5b5f8181525f5160206157595f395f51905f526020908152604080832033845290915290205460ff16156152015750565b63e2517d3f60e01b5f523360045260245260445ffd5b805f52600860205260405f2060ff600b820154161561531a57600a019060058254101561531a57805f52600b60205260405f208054925f5b84811061525d575050505050565b835f52600a60205260405f206152738285614cb3565b905460039190911b1c6001600160a01b03165f90815260209190915260409020601001805460081c60ff1660068110156137ea576001146152b7575060010161524f565b805461ff00191661020017905581549394506152e193909291906152da90614e3d565b9055614cb3565b905460039190911b1c6001600160a01b0316907f398d4fa7456c76c234244c18915a0bcf7e13c5c22a51bb39f6c459c5821cff9a5f80a3565b5050565b6001600160a01b0381165f9081525f5160206156f95f395f51905f52602052604090205460ff1661538f576001600160a01b03165f8181525f5160206156f95f395f51905f5260205260408120805460ff191660011790553391905f5160206156795f395f51905f528180a4600190565b505f90565b6001600160a01b0381165f9081525f5160206156d95f395f51905f52602052604090205460ff1661538f576001600160a01b03165f8181525f5160206156d95f395f51905f5260205260408120805460ff191660011790553391905f5160206157b95f395f51905f52905f5160206156795f395f51905f529080a4600190565b6001600160a01b0381165f9081525f5160206156b95f395f51905f52602052604090205460ff1661538f576001600160a01b03165f8181525f5160206156b95f395f51905f5260205260408120805460ff191660011790553391905f5160206157395f395f51905f52905f5160206156795f395f51905f529080a4600190565b5f8181525f5160206157595f395f51905f52602090815260408083206001600160a01b038616845290915290205460ff1661551f575f8181525f5160206157595f395f51905f52602090815260408083206001600160a01b0395909516808452949091528120805460ff19166001179055339291905f5160206156795f395f51905f529080a4600190565b50505f90565b5f8181525f5160206157595f395f51905f52602090815260408083206001600160a01b038616845290915290205460ff161561551f575f8181525f5160206157595f395f51905f52602090815260408083206001600160a01b0395909516808452949091528120805460ff19169055339291907ff6391f5c32d9c69d2a47ea670b442974b53935d1edc7fd64eb21e047a839171b9080a4600190565b60ff5f5160206157d95f395f51905f525460401c16156155dd57565b631afcd79f60e31b5f5260045ffd5b905f8091602081519101845af48080615665575b156156205750506040513d81523d5f602083013e60203d82010160405290565b1561564557639996b31560e01b5f9081526001600160a01b0391909116600452602490fd5b3d15615656576040513d5f823e3d90fd5b63d6bda27560e01b5f5260045ffd5b503d1515806156005750813b151561560056fe2f8788117e7eff1d82e926ec794901d17c78024a50270940304540a733656f0d76d8fe62a776f2ba870812fb313f1b8babb334fd7065692023f1323c6959f9197a1492cadb22452d254c71a9ef0c781c9f2d1c472dc5213a713c8769ea04d819b16e88c42fd4e48df2dd6a2eabd6bc9aec654ec170056b470819f8892cc6431cb7db2dd08fcb62d0c9e08c51941cae53c267786a0b75803fb7960902fc8ef97d360894a13ba1a3210667c828492db98dca3e2076cc3735a920a3ca505d382bbce4369475d33ca6555b45ac3cf081bee16c4b11779d89f812395c569b2de40f0102dd7bc7dec4dceedda775e58dd541e08a116c6c53815c0bd028192f7b626800cd5ed15c6e187e77e9aee88184c21f4f2182ab5827cb3b7e07fbedcd63f03300a8cb6f4d20ac92066aa6d101be3a0719bc73d16b0bb72bc4635413bf85be2792a49807205ce4d355092ef5a8a18f56e8913cf4a201fbe287825b095693c21775f0c57e16840df040f15088dc2f81fe391c3923bec73e23a9662efc9c229c6a00ba2dc669204b26427a432593e1c6ac86ab4ccc54d29c4287abbd1cefc1cb002ba26469706673582212206204a9052443a32605c4a2f2927df8069571bc8412de2eb2f31be98ba4f4c2b364736f6c634300081c0033f0c57e16840df040f15088dc2f81fe391c3923bec73e23a9662efc9c229c6a00",
  "linkReferences": {},
  "deployedLinkReferences": {},
  "immutableReferences": {
    "1940": [
      {
        "length": 32,
        "start": 8862
      },
      {
        "length": 32,
        "start": 9109
      }
    ]
  },
  "inputSourceName": "project/contracts/core/TransferEscrow.sol",
  "buildInfoId": "solc-0_8_28-66dacbb9b58248588fe18a333966fb32face5edb"
}