{
  "_format": "hh3-artifact-1",
  "contractName": "TransferEscrow",
  "sourceName": "contracts/core/TransferEscrow.sol",
  "abi": [
    {
      "inputs": [],
      "stateMutability": "nonpayable",
      "type": "constructor"
    },
    {
      "inputs": [],
      "name": "AccessControlBadConfirmation",
      "type": "error"
    },
    {
      "inputs": [
        {
          "internalType": "address",
          "name": "account",
          "type": "address"
        },
        {
          "internalType": "bytes32",
          "name": "neededRole",
          "type": "bytes32"
        }
      ],
      "name": "AccessControlUnauthorizedAccount",
      "type": "error"
    },
    {
      "inputs": [
        {
          "internalType": "address",
          "name": "target",
          "type": "address"
        }
      ],
      "name": "AddressEmptyCode",
      "type": "error"
    },
    {
      "inputs": [],
      "name": "AlreadyHasActiveBid",
      "type": "error"
    },
    {
      "inputs": [],
      "name": "BanAlreadyActive",
      "type": "error"
    },
    {
      "inputs": [],
      "name": "BidCanOnlyBeUpdatedWhenNegotiating",
      "type": "error"
    },
    {
      "inputs": [],
      "name": "BidNotFound",
      "type": "error"
    },
    {
      "inputs": [
        {
          "internalType": "uint256",
          "name": "minimum",
          "type": "uint256"
        },
        {
          "internalType": "uint256",
          "name": "submitted",
          "type": "uint256"
        }
      ],
      "name": "BidNotHighEnough",
      "type": "error"
    },
    {
      "inputs": [],
      "name": "CannotBidOnOwnPlayer",
      "type": "error"
    },
    {
      "inputs": [],
      "name": "CannotHijackOwnDeal",
      "type": "error"
    },
    {
      "inputs": [],
      "name": "ClubTransferBanned",
      "type": "error"
    },
    {
      "inputs": [],
      "name": "DealIsFrozen",
      "type": "error"
    },
    {
      "inputs": [],
      "name": "DealNotFound",
      "type": "error"
    },
    {
      "inputs": [
        {
          "internalType": "address",
          "name": "implementation",
          "type": "address"
        }
      ],
      "name": "ERC1967InvalidImplementation",
      "type": "error"
    },
    {
      "inputs": [],
      "name": "ERC1967NonPayable",
      "type": "error"
    },
    {
      "inputs": [],
      "name": "EnforcedPause",
      "type": "error"
    },
    {
      "inputs": [],
      "name": "ExpectedPause",
      "type": "error"
    },
    {
      "inputs": [],
      "name": "FailedCall",
      "type": "error"
    },
    {
      "inputs": [],
      "name": "HijackWindowClosed",
      "type": "error"
    },
    {
      "inputs": [],
      "name": "InvalidAddress",
      "type": "error"
    },
    {
      "inputs": [],
      "name": "InvalidAmount",
      "type": "error"
    },
    {
      "inputs": [],
      "name": "InvalidBps",
      "type": "error"
    },
    {
      "inputs": [],
      "name": "InvalidInitialization",
      "type": "error"
    },
    {
      "inputs": [],
      "name": "MaxNegotiationRoundsReached",
      "type": "error"
    },
    {
      "inputs": [],
      "name": "MaxNegotiationsReached",
      "type": "error"
    },
    {
      "inputs": [],
      "name": "NoBanToDecrement",
      "type": "error"
    },
    {
      "inputs": [],
      "name": "NoBanToLift",
      "type": "error"
    },
    {
      "inputs": [],
      "name": "NoPendingTreasuryUpdate",
      "type": "error"
    },
    {
      "inputs": [],
      "name": "NotBuyingClub",
      "type": "error"
    },
    {
      "inputs": [],
      "name": "NotInitializing",
      "type": "error"
    },
    {
      "inputs": [],
      "name": "NotSellingClub",
      "type": "error"
    },
    {
      "inputs": [],
      "name": "NotYourTurnToCounter",
      "type": "error"
    },
    {
      "inputs": [],
      "name": "OfferNotFound",
      "type": "error"
    },
    {
      "inputs": [],
      "name": "PlayerHasActiveDeal",
      "type": "error"
    },
    {
      "inputs": [],
      "name": "PlayerHasActiveOffer",
      "type": "error"
    },
    {
      "inputs": [],
      "name": "PlayerNotVerified",
      "type": "error"
    },
    {
      "inputs": [],
      "name": "ProtocolFeeTooHigh",
      "type": "error"
    },
    {
      "inputs": [],
      "name": "ReentrantCall",
      "type": "error"
    },
    {
      "inputs": [],
      "name": "TimerTooShort",
      "type": "error"
    },
    {
      "inputs": [],
      "name": "TokenAlreadyApproved",
      "type": "error"
    },
    {
      "inputs": [],
      "name": "TokenNotApproved",
      "type": "error"
    },
    {
      "inputs": [],
      "name": "TokenNotInList",
      "type": "error"
    },
    {
      "inputs": [],
      "name": "TooManyAddOns",
      "type": "error"
    },
    {
      "inputs": [],
      "name": "TransferWindowClosed",
      "type": "error"
    },
    {
      "inputs": [],
      "name": "TreasuryUpdateNotReady",
      "type": "error"
    },
    {
      "inputs": [],
      "name": "UUPSUnauthorizedCallContext",
      "type": "error"
    },
    {
      "inputs": [
        {
          "internalType": "bytes32",
          "name": "slot",
          "type": "bytes32"
        }
      ],
      "name": "UUPSUnsupportedProxiableUUID",
      "type": "error"
    },
    {
      "inputs": [],
      "name": "WrongDealState",
      "type": "error"
    },
    {
      "anonymous": false,
      "inputs": [
        {
          "indexed": true,
          "internalType": "uint256",
          "name": "dealId",
          "type": "uint256"
        },
        {
          "indexed": true,
          "internalType": "address",
          "name": "club",
          "type": "address"
        },
        {
          "indexed": false,
          "internalType": "uint256",
          "name": "amount",
          "type": "uint256"
        }
      ],
      "name": "AddOnDepositWithdrawn",
      "type": "event"
    },
    {
      "anonymous": false,
      "inputs": [
        {
          "indexed": true,
          "internalType": "address",
          "name": "club",
          "type": "address"
        },
        {
          "indexed": false,
          "internalType": "uint256",
          "name": "windowsRemaining",
          "type": "uint256"
        }
      ],
      "name": "BanWindowDecremented",
      "type": "event"
    },
    {
      "anonymous": false,
      "inputs": [
        {
          "indexed": true,
          "internalType": "uint256",
          "name": "offerId",
          "type": "uint256"
        },
        {
          "indexed": true,
          "internalType": "uint256",
          "name": "dealId",
          "type": "uint256"
        },
        {
          "indexed": true,
          "internalType": "address",
          "name": "buyingClub",
          "type": "address"
        }
      ],
      "name": "BidAccepted",
      "type": "event"
    },
    {
      "anonymous": false,
      "inputs": [
        {
          "indexed": true,
          "internalType": "uint256",
          "name": "offerId",
          "type": "uint256"
        },
        {
          "indexed": true,
          "internalType": "address",
          "name": "buyingClub",
          "type": "address"
        }
      ],
      "name": "BidActivated",
      "type": "event"
    },
    {
      "anonymous": false,
      "inputs": [
        {
          "indexed": true,
          "internalType": "uint256",
          "name": "offerId",
          "type": "uint256"
        },
        {
          "indexed": true,
          "internalType": "address",
          "name": "buyingClub",
          "type": "address"
        }
      ],
      "name": "BidRejected",
      "type": "event"
    },
    {
      "anonymous": false,
      "inputs": [
        {
          "indexed": true,
          "internalType": "uint256",
          "name": "offerId",
          "type": "uint256"
        },
        {
          "indexed": true,
          "internalType": "address",
          "name": "buyingClub",
          "type": "address"
        },
        {
          "indexed": false,
          "internalType": "uint256",
          "name": "transferFee",
          "type": "uint256"
        },
        {
          "indexed": false,
          "internalType": "enum TransferEscrow.BidStatus",
          "name": "status",
          "type": "uint8"
        }
      ],
      "name": "BidSubmitted",
      "type": "event"
    },
    {
      "anonymous": false,
      "inputs": [
        {
          "indexed": true,
          "internalType": "uint256",
          "name": "offerId",
          "type": "uint256"
        },
        {
          "indexed": true,
          "internalType": "address",
          "name": "buyingClub",
          "type": "address"
        },
        {
          "indexed": false,
          "internalType": "uint256",
          "name": "newTransferFee",
          "type": "uint256"
        }
      ],
      "name": "BidUpdated",
      "type": "event"
    },
    {
      "anonymous": false,
      "inputs": [
        {
          "indexed": true,
          "internalType": "uint256",
          "name": "offerId",
          "type": "uint256"
        },
        {
          "indexed": true,
          "internalType": "address",
          "name": "buyingClub",
          "type": "address"
        }
      ],
      "name": "BidWithdrawn",
      "type": "event"
    },
    {
      "anonymous": false,
      "inputs": [
        {
          "indexed": true,
          "internalType": "uint256",
          "name": "offerId",
          "type": "uint256"
        },
        {
          "indexed": true,
          "internalType": "address",
          "name": "from",
          "type": "address"
        },
        {
          "indexed": false,
          "internalType": "uint256",
          "name": "newFee",
          "type": "uint256"
        },
        {
          "indexed": false,
          "internalType": "uint256",
          "name": "round",
          "type": "uint256"
        }
      ],
      "name": "CounterOffer",
      "type": "event"
    },
    {
      "anonymous": false,
      "inputs": [
        {
          "indexed": true,
          "internalType": "uint256",
          "name": "dealId",
          "type": "uint256"
        },
        {
          "indexed": false,
          "internalType": "uint8",
          "name": "reason",
          "type": "uint8"
        }
      ],
      "name": "DealCancelled",
      "type": "event"
    },
    {
      "anonymous": false,
      "inputs": [
        {
          "indexed": false,
          "internalType": "uint64",
          "name": "version",
          "type": "uint64"
        }
      ],
      "name": "Initialized",
      "type": "event"
    },
    {
      "anonymous": false,
      "inputs": [
        {
          "indexed": true,
          "internalType": "uint256",
          "name": "dealId",
          "type": "uint256"
        }
      ],
      "name": "MutualCancelExpired",
      "type": "event"
    },
    {
      "anonymous": false,
      "inputs": [
        {
          "indexed": true,
          "internalType": "uint256",
          "name": "offerId",
          "type": "uint256"
        },
        {
          "indexed": true,
          "internalType": "uint256",
          "name": "playerId",
          "type": "uint256"
        },
        {
          "indexed": true,
          "internalType": "address",
          "name": "sellingClub",
          "type": "address"
        },
        {
          "indexed": false,
          "internalType": "uint256",
          "name": "askingPrice",
          "type": "uint256"
        }
      ],
      "name": "OfferCreated",
      "type": "event"
    },
    {
      "anonymous": false,
      "inputs": [
        {
          "indexed": true,
          "internalType": "uint256",
          "name": "offerId",
          "type": "uint256"
        },
        {
          "indexed": false,
          "internalType": "uint256",
          "name": "newAskingPrice",
          "type": "uint256"
        }
      ],
      "name": "OfferUpdated",
      "type": "event"
    },
    {
      "anonymous": false,
      "inputs": [
        {
          "indexed": true,
          "internalType": "uint256",
          "name": "offerId",
          "type": "uint256"
        }
      ],
      "name": "OfferWithdrawn",
      "type": "event"
    },
    {
      "anonymous": false,
      "inputs": [
        {
          "indexed": false,
          "internalType": "address",
          "name": "account",
          "type": "address"
        }
      ],
      "name": "Paused",
      "type": "event"
    },
    {
      "anonymous": false,
      "inputs": [
        {
          "indexed": false,
          "internalType": "uint256",
          "name": "bps",
          "type": "uint256"
        }
      ],
      "name": "ProtocolFeeUpdated",
      "type": "event"
    },
    {
      "anonymous": false,
      "inputs": [
        {
          "indexed": true,
          "internalType": "address",
          "name": "treasury",
          "type": "address"
        },
        {
          "indexed": true,
          "internalType": "address",
          "name": "token",
          "type": "address"
        },
        {
          "indexed": false,
          "internalType": "uint256",
          "name": "amount",
          "type": "uint256"
        }
      ],
      "name": "ProtocolFeesWithdrawn",
      "type": "event"
    },
    {
      "anonymous": false,
      "inputs": [
        {
          "indexed": true,
          "internalType": "address",
          "name": "newTreasury",
          "type": "address"
        },
        {
          "indexed": false,
          "internalType": "uint256",
          "name": "effectiveAt",
          "type": "uint256"
        }
      ],
      "name": "ProtocolTreasuryUpdateScheduled",
      "type": "event"
    },
    {
      "anonymous": false,
      "inputs": [
        {
          "indexed": true,
          "internalType": "address",
          "name": "oldTreasury",
          "type": "address"
        },
        {
          "indexed": true,
          "internalType": "address",
          "name": "newTreasury",
          "type": "address"
        }
      ],
      "name": "ProtocolTreasuryUpdated",
      "type": "event"
    },
    {
      "anonymous": false,
      "inputs": [
        {
          "indexed": true,
          "internalType": "bytes32",
          "name": "role",
          "type": "bytes32"
        },
        {
          "indexed": true,
          "internalType": "bytes32",
          "name": "previousAdminRole",
          "type": "bytes32"
        },
        {
          "indexed": true,
          "internalType": "bytes32",
          "name": "newAdminRole",
          "type": "bytes32"
        }
      ],
      "name": "RoleAdminChanged",
      "type": "event"
    },
    {
      "anonymous": false,
      "inputs": [
        {
          "indexed": true,
          "internalType": "bytes32",
          "name": "role",
          "type": "bytes32"
        },
        {
          "indexed": true,
          "internalType": "address",
          "name": "account",
          "type": "address"
        },
        {
          "indexed": true,
          "internalType": "address",
          "name": "sender",
          "type": "address"
        }
      ],
      "name": "RoleGranted",
      "type": "event"
    },
    {
      "anonymous": false,
      "inputs": [
        {
          "indexed": true,
          "internalType": "bytes32",
          "name": "role",
          "type": "bytes32"
        },
        {
          "indexed": true,
          "internalType": "address",
          "name": "account",
          "type": "address"
        },
        {
          "indexed": true,
          "internalType": "address",
          "name": "sender",
          "type": "address"
        }
      ],
      "name": "RoleRevoked",
      "type": "event"
    },
    {
      "anonymous": false,
      "inputs": [
        {
          "indexed": true,
          "internalType": "uint256",
          "name": "dealId",
          "type": "uint256"
        },
        {
          "indexed": true,
          "internalType": "address",
          "name": "to",
          "type": "address"
        },
        {
          "indexed": false,
          "internalType": "uint256",
          "name": "amount",
          "type": "uint256"
        }
      ],
      "name": "SigningBonusRescued",
      "type": "event"
    },
    {
      "anonymous": false,
      "inputs": [
        {
          "indexed": true,
          "internalType": "address",
          "name": "token",
          "type": "address"
        }
      ],
      "name": "TokenApproved",
      "type": "event"
    },
    {
      "anonymous": false,
      "inputs": [
        {
          "indexed": true,
          "internalType": "address",
          "name": "token",
          "type": "address"
        }
      ],
      "name": "TokenRevoked",
      "type": "event"
    },
    {
      "anonymous": false,
      "inputs": [
        {
          "indexed": true,
          "internalType": "address",
          "name": "club",
          "type": "address"
        },
        {
          "indexed": false,
          "internalType": "uint256",
          "name": "windows",
          "type": "uint256"
        }
      ],
      "name": "TransferBanIssued",
      "type": "event"
    },
    {
      "anonymous": false,
      "inputs": [
        {
          "indexed": true,
          "internalType": "address",
          "name": "club",
          "type": "address"
        }
      ],
      "name": "TransferBanLifted",
      "type": "event"
    },
    {
      "anonymous": false,
      "inputs": [
        {
          "indexed": true,
          "internalType": "address",
          "name": "newTreasury",
          "type": "address"
        }
      ],
      "name": "TreasuryUpdated",
      "type": "event"
    },
    {
      "anonymous": false,
      "inputs": [
        {
          "indexed": false,
          "internalType": "address",
          "name": "account",
          "type": "address"
        }
      ],
      "name": "Unpaused",
      "type": "event"
    },
    {
      "anonymous": false,
      "inputs": [
        {
          "indexed": true,
          "internalType": "address",
          "name": "implementation",
          "type": "address"
        }
      ],
      "name": "Upgraded",
      "type": "event"
    },
    {
      "inputs": [],
      "name": "ADMIN_ROLE",
      "outputs": [
        {
          "internalType": "bytes32",
          "name": "",
          "type": "bytes32"
        }
      ],
      "stateMutability": "view",
      "type": "function"
    },
    {
      "inputs": [],
      "name": "BPS_DENOMINATOR",
      "outputs": [
        {
          "internalType": "uint256",
          "name": "",
          "type": "uint256"
        }
      ],
      "stateMutability": "view",
      "type": "function"
    },
    {
      "inputs": [],
      "name": "CLUB_ROLE",
      "outputs": [
        {
          "internalType": "bytes32",
          "name": "",
          "type": "bytes32"
        }
      ],
      "stateMutability": "view",
      "type": "function"
    },
    {
      "inputs": [],
      "name": "DEFAULT_ADMIN_ROLE",
      "outputs": [
        {
          "internalType": "bytes32",
          "name": "",
          "type": "bytes32"
        }
      ],
      "stateMutability": "view",
      "type": "function"
    },
    {
      "inputs": [],
      "name": "HIJACK_FAIL_PENALTY_BPS",
      "outputs": [
        {
          "internalType": "uint256",
          "name": "",
          "type": "uint256"
        }
      ],
      "stateMutability": "view",
      "type": "function"
    },
    {
      "inputs": [],
      "name": "HIJACK_STALL_PENALTY_BPS",
      "outputs": [
        {
          "internalType": "uint256",
          "name": "",
          "type": "uint256"
        }
      ],
      "stateMutability": "view",
      "type": "function"
    },
    {
      "inputs": [],
      "name": "LEAGUE_DISPUTE_DEADLINE",
      "outputs": [
        {
          "internalType": "uint256",
          "name": "",
          "type": "uint256"
        }
      ],
      "stateMutability": "view",
      "type": "function"
    },
    {
      "inputs": [],
      "name": "LEAGUE_ROLE",
      "outputs": [
        {
          "internalType": "bytes32",
          "name": "",
          "type": "bytes32"
        }
      ],
      "stateMutability": "view",
      "type": "function"
    },
    {
      "inputs": [],
      "name": "MAX_ACTIVE_NEGOTIATIONS",
      "outputs": [
        {
          "internalType": "uint256",
          "name": "",
          "type": "uint256"
        }
      ],
      "stateMutability": "view",
      "type": "function"
    },
    {
      "inputs": [],
      "name": "MAX_ADDONS",
      "outputs": [
        {
          "internalType": "uint256",
          "name": "",
          "type": "uint256"
        }
      ],
      "stateMutability": "view",
      "type": "function"
    },
    {
      "inputs": [],
      "name": "MAX_AGENT_BPS",
      "outputs": [
        {
          "internalType": "uint256",
          "name": "",
          "type": "uint256"
        }
      ],
      "stateMutability": "view",
      "type": "function"
    },
    {
      "inputs": [],
      "name": "MAX_NEGOTIATION_ROUNDS",
      "outputs": [
        {
          "internalType": "uint256",
          "name": "",
          "type": "uint256"
        }
      ],
      "stateMutability": "view",
      "type": "function"
    },
    {
      "inputs": [],
      "name": "MAX_PRICE",
      "outputs": [
        {
          "internalType": "uint256",
          "name": "",
          "type": "uint256"
        }
      ],
      "stateMutability": "view",
      "type": "function"
    },
    {
      "inputs": [],
      "name": "MAX_SELL_ON_BPS",
      "outputs": [
        {
          "internalType": "uint256",
          "name": "",
          "type": "uint256"
        }
      ],
      "stateMutability": "view",
      "type": "function"
    },
    {
      "inputs": [],
      "name": "MAX_SIGNING_BONUS_MONTHS",
      "outputs": [
        {
          "internalType": "uint256",
          "name": "",
          "type": "uint256"
        }
      ],
      "stateMutability": "view",
      "type": "function"
    },
    {
      "inputs": [],
      "name": "MAX_TOTAL_BIDS_PER_OFFER",
      "outputs": [
        {
          "internalType": "uint256",
          "name": "",
          "type": "uint256"
        }
      ],
      "stateMutability": "view",
      "type": "function"
    },
    {
      "inputs": [],
      "name": "MIN_CONSENT_WINDOW",
      "outputs": [
        {
          "internalType": "uint256",
          "name": "",
          "type": "uint256"
        }
      ],
      "stateMutability": "view",
      "type": "function"
    },
    {
      "inputs": [],
      "name": "UPGRADE_INTERFACE_VERSION",
      "outputs": [
        {
          "internalType": "string",
          "name": "",
          "type": "string"
        }
      ],
      "stateMutability": "view",
      "type": "function"
    },
    {
      "inputs": [
        {
          "internalType": "uint256",
          "name": "offerId",
          "type": "uint256"
        },
        {
          "internalType": "address",
          "name": "buyingClub",
          "type": "address"
        }
      ],
      "name": "acceptBid",
      "outputs": [],
      "stateMutability": "nonpayable",
      "type": "function"
    },
    {
      "inputs": [],
      "name": "addressRegistry",
      "outputs": [
        {
          "internalType": "contract IAddressRegistry",
          "name": "",
          "type": "address"
        }
      ],
      "stateMutability": "view",
      "type": "function"
    },
    {
      "inputs": [
        {
          "internalType": "address",
          "name": "token",
          "type": "address"
        }
      ],
      "name": "approveToken",
      "outputs": [],
      "stateMutability": "nonpayable",
      "type": "function"
    },
    {
      "inputs": [],
      "name": "consentWindow",
      "outputs": [
        {
          "internalType": "uint256",
          "name": "",
          "type": "uint256"
        }
      ],
      "stateMutability": "view",
      "type": "function"
    },
    {
      "inputs": [
        {
          "internalType": "uint256",
          "name": "offerId",
          "type": "uint256"
        },
        {
          "internalType": "address",
          "name": "buyingClub",
          "type": "address"
        },
        {
          "internalType": "uint256",
          "name": "newTransferFee",
          "type": "uint256"
        },
        {
          "internalType": "uint256",
          "name": "newSellOnBps",
          "type": "uint256"
        },
        {
          "internalType": "address",
          "name": "newSellOnRecipient",
          "type": "address"
        },
        {
          "internalType": "uint256",
          "name": "newSellerAgentBps",
          "type": "uint256"
        },
        {
          "internalType": "address",
          "name": "newSellerAgent",
          "type": "address"
        }
      ],
      "name": "counterBid",
      "outputs": [],
      "stateMutability": "nonpayable",
      "type": "function"
    },
    {
      "inputs": [
        {
          "internalType": "uint256",
          "name": "playerId",
          "type": "uint256"
        },
        {
          "internalType": "address",
          "name": "paymentToken",
          "type": "address"
        },
        {
          "internalType": "uint256",
          "name": "askingPrice",
          "type": "uint256"
        },
        {
          "internalType": "uint256",
          "name": "sellOnBps",
          "type": "uint256"
        },
        {
          "internalType": "address",
          "name": "sellOnRecipient",
          "type": "address"
        },
        {
          "internalType": "uint256",
          "name": "sellerAgentBps",
          "type": "uint256"
        },
        {
          "internalType": "address",
          "name": "sellerAgent",
          "type": "address"
        },
        {
          "internalType": "uint256",
          "name": "minimumHijackIncrementBps",
          "type": "uint256"
        },
        {
          "components": [
            {
              "internalType": "string",
              "name": "description",
              "type": "string"
            },
            {
              "internalType": "uint256",
              "name": "amount",
              "type": "uint256"
            },
            {
              "internalType": "bool",
              "name": "toPlayer",
              "type": "bool"
            },
            {
              "internalType": "bool",
              "name": "triggered",
              "type": "bool"
            }
          ],
          "internalType": "struct TransferTypes.AddOn[]",
          "name": "addOns",
          "type": "tuple[]"
        }
      ],
      "name": "createOffer",
      "outputs": [
        {
          "internalType": "uint256",
          "name": "offerId",
          "type": "uint256"
        }
      ],
      "stateMutability": "nonpayable",
      "type": "function"
    },
    {
      "inputs": [],
      "name": "dealEscrow",
      "outputs": [
        {
          "internalType": "contract IDealEscrow",
          "name": "",
          "type": "address"
        }
      ],
      "stateMutability": "view",
      "type": "function"
    },
    {
      "inputs": [],
      "name": "executeProtocolTreasuryUpdate",
      "outputs": [],
      "stateMutability": "nonpayable",
      "type": "function"
    },
    {
      "inputs": [
        {
          "internalType": "uint256",
          "name": "dealId",
          "type": "uint256"
        }
      ],
      "name": "expireMutualCancel",
      "outputs": [],
      "stateMutability": "nonpayable",
      "type": "function"
    },
    {
      "inputs": [
        {
          "internalType": "uint256",
          "name": "offerId",
          "type": "uint256"
        }
      ],
      "name": "getAllBids",
      "outputs": [
        {
          "components": [
            {
              "internalType": "uint256",
              "name": "offerId",
              "type": "uint256"
            },
            {
              "internalType": "address",
              "name": "buyingClub",
              "type": "address"
            },
            {
              "internalType": "address",
              "name": "paymentToken",
              "type": "address"
            },
            {
              "internalType": "uint256",
              "name": "transferFee",
              "type": "uint256"
            },
            {
              "internalType": "uint256",
              "name": "sellOnBps",
              "type": "uint256"
            },
            {
              "internalType": "address",
              "name": "sellOnRecipient",
              "type": "address"
            },
            {
              "internalType": "uint256",
              "name": "sellerAgentBps",
              "type": "uint256"
            },
            {
              "internalType": "address",
              "name": "sellerAgent",
              "type": "address"
            },
            {
              "internalType": "uint256",
              "name": "buyerAgentBps",
              "type": "uint256"
            },
            {
              "internalType": "address",
              "name": "buyerAgent",
              "type": "address"
            },
            {
              "internalType": "uint256",
              "name": "signingBonusMonths",
              "type": "uint256"
            },
            {
              "internalType": "uint256[]",
              "name": "installmentAmounts",
              "type": "uint256[]"
            },
            {
              "internalType": "uint256[]",
              "name": "installmentDueDates",
              "type": "uint256[]"
            },
            {
              "internalType": "uint256",
              "name": "submittedAt",
              "type": "uint256"
            },
            {
              "internalType": "uint256",
              "name": "updatedAt",
              "type": "uint256"
            },
            {
              "internalType": "uint256",
              "name": "roundNumber",
              "type": "uint256"
            },
            {
              "internalType": "bool",
              "name": "isCounterFromSeller",
              "type": "bool"
            },
            {
              "internalType": "enum TransferEscrow.BidStatus",
              "name": "status",
              "type": "uint8"
            }
          ],
          "internalType": "struct TransferEscrow.Bid[]",
          "name": "",
          "type": "tuple[]"
        }
      ],
      "stateMutability": "view",
      "type": "function"
    },
    {
      "inputs": [],
      "name": "getApprovedTokens",
      "outputs": [
        {
          "internalType": "address[]",
          "name": "",
          "type": "address[]"
        }
      ],
      "stateMutability": "view",
      "type": "function"
    },
    {
      "inputs": [
        {
          "internalType": "uint256",
          "name": "offerId",
          "type": "uint256"
        },
        {
          "internalType": "address",
          "name": "buyingClub",
          "type": "address"
        }
      ],
      "name": "getBid",
      "outputs": [
        {
          "components": [
            {
              "internalType": "uint256",
              "name": "offerId",
              "type": "uint256"
            },
            {
              "internalType": "address",
              "name": "buyingClub",
              "type": "address"
            },
            {
              "internalType": "address",
              "name": "paymentToken",
              "type": "address"
            },
            {
              "internalType": "uint256",
              "name": "transferFee",
              "type": "uint256"
            },
            {
              "internalType": "uint256",
              "name": "sellOnBps",
              "type": "uint256"
            },
            {
              "internalType": "address",
              "name": "sellOnRecipient",
              "type": "address"
            },
            {
              "internalType": "uint256",
              "name": "sellerAgentBps",
              "type": "uint256"
            },
            {
              "internalType": "address",
              "name": "sellerAgent",
              "type": "address"
            },
            {
              "internalType": "uint256",
              "name": "buyerAgentBps",
              "type": "uint256"
            },
            {
              "internalType": "address",
              "name": "buyerAgent",
              "type": "address"
            },
            {
              "internalType": "uint256",
              "name": "signingBonusMonths",
              "type": "uint256"
            },
            {
              "internalType": "uint256[]",
              "name": "installmentAmounts",
              "type": "uint256[]"
            },
            {
              "internalType": "uint256[]",
              "name": "installmentDueDates",
              "type": "uint256[]"
            },
            {
              "internalType": "uint256",
              "name": "submittedAt",
              "type": "uint256"
            },
            {
              "internalType": "uint256",
              "name": "updatedAt",
              "type": "uint256"
            },
            {
              "internalType": "uint256",
              "name": "roundNumber",
              "type": "uint256"
            },
            {
              "internalType": "bool",
              "name": "isCounterFromSeller",
              "type": "bool"
            },
            {
              "internalType": "enum TransferEscrow.BidStatus",
              "name": "status",
              "type": "uint8"
            }
          ],
          "internalType": "struct TransferEscrow.Bid",
          "name": "",
          "type": "tuple"
        }
      ],
      "stateMutability": "view",
      "type": "function"
    },
    {
      "inputs": [
        {
          "internalType": "uint256",
          "name": "offerId",
          "type": "uint256"
        }
      ],
      "name": "getBidCount",
      "outputs": [
        {
          "internalType": "uint256",
          "name": "",
          "type": "uint256"
        }
      ],
      "stateMutability": "view",
      "type": "function"
    },
    {
      "inputs": [
        {
          "internalType": "uint256",
          "name": "offerId",
          "type": "uint256"
        }
      ],
      "name": "getOffer",
      "outputs": [
        {
          "components": [
            {
              "internalType": "uint256",
              "name": "playerId",
              "type": "uint256"
            },
            {
              "internalType": "address",
              "name": "sellingClub",
              "type": "address"
            },
            {
              "internalType": "address",
              "name": "paymentToken",
              "type": "address"
            },
            {
              "internalType": "uint256",
              "name": "askingPrice",
              "type": "uint256"
            },
            {
              "internalType": "uint256",
              "name": "sellOnBps",
              "type": "uint256"
            },
            {
              "internalType": "address",
              "name": "sellOnRecipient",
              "type": "address"
            },
            {
              "internalType": "uint256",
              "name": "sellerAgentBps",
              "type": "uint256"
            },
            {
              "internalType": "address",
              "name": "sellerAgent",
              "type": "address"
            },
            {
              "internalType": "uint256",
              "name": "minimumHijackIncrementBps",
              "type": "uint256"
            },
            {
              "internalType": "uint256",
              "name": "createdAt",
              "type": "uint256"
            },
            {
              "internalType": "uint256",
              "name": "activeNegotiations",
              "type": "uint256"
            },
            {
              "internalType": "bool",
              "name": "exists",
              "type": "bool"
            }
          ],
          "internalType": "struct TransferEscrow.Offer",
          "name": "",
          "type": "tuple"
        }
      ],
      "stateMutability": "view",
      "type": "function"
    },
    {
      "inputs": [
        {
          "internalType": "uint256",
          "name": "offerId",
          "type": "uint256"
        }
      ],
      "name": "getOfferAddOns",
      "outputs": [
        {
          "components": [
            {
              "internalType": "string",
              "name": "description",
              "type": "string"
            },
            {
              "internalType": "uint256",
              "name": "amount",
              "type": "uint256"
            },
            {
              "internalType": "bool",
              "name": "toPlayer",
              "type": "bool"
            },
            {
              "internalType": "bool",
              "name": "triggered",
              "type": "bool"
            }
          ],
          "internalType": "struct TransferTypes.AddOn[]",
          "name": "",
          "type": "tuple[]"
        }
      ],
      "stateMutability": "view",
      "type": "function"
    },
    {
      "inputs": [
        {
          "internalType": "uint256",
          "name": "playerId",
          "type": "uint256"
        }
      ],
      "name": "getPlayerDeal",
      "outputs": [
        {
          "internalType": "uint256",
          "name": "",
          "type": "uint256"
        }
      ],
      "stateMutability": "view",
      "type": "function"
    },
    {
      "inputs": [
        {
          "internalType": "uint256",
          "name": "playerId",
          "type": "uint256"
        }
      ],
      "name": "getPlayerOffer",
      "outputs": [
        {
          "internalType": "uint256",
          "name": "",
          "type": "uint256"
        }
      ],
      "stateMutability": "view",
      "type": "function"
    },
    {
      "inputs": [
        {
          "internalType": "bytes32",
          "name": "role",
          "type": "bytes32"
        }
      ],
      "name": "getRoleAdmin",
      "outputs": [
        {
          "internalType": "bytes32",
          "name": "",
          "type": "bytes32"
        }
      ],
      "stateMutability": "view",
      "type": "function"
    },
    {
      "inputs": [
        {
          "internalType": "address",
          "name": "club",
          "type": "address"
        }
      ],
      "name": "getTransferBan",
      "outputs": [
        {
          "components": [
            {
              "internalType": "uint256",
              "name": "windowsRemaining",
              "type": "uint256"
            },
            {
              "internalType": "bool",
              "name": "active",
              "type": "bool"
            }
          ],
          "internalType": "struct TransferEscrow.TransferBan",
          "name": "",
          "type": "tuple"
        }
      ],
      "stateMutability": "view",
      "type": "function"
    },
    {
      "inputs": [
        {
          "internalType": "bytes32",
          "name": "role",
          "type": "bytes32"
        },
        {
          "internalType": "address",
          "name": "account",
          "type": "address"
        }
      ],
      "name": "grantRole",
      "outputs": [],
      "stateMutability": "nonpayable",
      "type": "function"
    },
    {
      "inputs": [
        {
          "internalType": "bytes32",
          "name": "role",
          "type": "bytes32"
        },
        {
          "internalType": "address",
          "name": "account",
          "type": "address"
        }
      ],
      "name": "hasRole",
      "outputs": [
        {
          "internalType": "bool",
          "name": "",
          "type": "bool"
        }
      ],
      "stateMutability": "view",
      "type": "function"
    },
    {
      "inputs": [
        {
          "internalType": "address",
          "name": "_playerRegistry",
          "type": "address"
        },
        {
          "internalType": "address",
          "name": "_addressRegistry",
          "type": "address"
        },
        {
          "internalType": "address",
          "name": "_dealEscrow",
          "type": "address"
        },
        {
          "internalType": "address",
          "name": "_treasury",
          "type": "address"
        },
        {
          "internalType": "address",
          "name": "_admin",
          "type": "address"
        }
      ],
      "name": "initialize",
      "outputs": [],
      "stateMutability": "nonpayable",
      "type": "function"
    },
    {
      "inputs": [
        {
          "internalType": "address",
          "name": "token",
          "type": "address"
        }
      ],
      "name": "isTokenApproved",
      "outputs": [
        {
          "internalType": "bool",
          "name": "",
          "type": "bool"
        }
      ],
      "stateMutability": "view",
      "type": "function"
    },
    {
      "inputs": [
        {
          "internalType": "address",
          "name": "club",
          "type": "address"
        },
        {
          "internalType": "uint256",
          "name": "windows",
          "type": "uint256"
        }
      ],
      "name": "issueBan",
      "outputs": [],
      "stateMutability": "nonpayable",
      "type": "function"
    },
    {
      "inputs": [
        {
          "internalType": "address",
          "name": "club",
          "type": "address"
        }
      ],
      "name": "liftBan",
      "outputs": [],
      "stateMutability": "nonpayable",
      "type": "function"
    },
    {
      "inputs": [],
      "name": "pause",
      "outputs": [],
      "stateMutability": "nonpayable",
      "type": "function"
    },
    {
      "inputs": [],
      "name": "paused",
      "outputs": [
        {
          "internalType": "bool",
          "name": "",
          "type": "bool"
        }
      ],
      "stateMutability": "view",
      "type": "function"
    },
    {
      "inputs": [],
      "name": "pendingTreasury",
      "outputs": [
        {
          "internalType": "address",
          "name": "",
          "type": "address"
        },
        {
          "internalType": "uint256",
          "name": "",
          "type": "uint256"
        }
      ],
      "stateMutability": "view",
      "type": "function"
    },
    {
      "inputs": [],
      "name": "playerRegistry",
      "outputs": [
        {
          "internalType": "contract IPlayerRegistry",
          "name": "",
          "type": "address"
        }
      ],
      "stateMutability": "view",
      "type": "function"
    },
    {
      "inputs": [
        {
          "internalType": "uint256",
          "name": "dealId",
          "type": "uint256"
        }
      ],
      "name": "processExpiry",
      "outputs": [],
      "stateMutability": "nonpayable",
      "type": "function"
    },
    {
      "inputs": [
        {
          "internalType": "address[]",
          "name": "bannedClubs",
          "type": "address[]"
        }
      ],
      "name": "processNewWindow",
      "outputs": [],
      "stateMutability": "nonpayable",
      "type": "function"
    },
    {
      "inputs": [],
      "name": "protocolFeeBps",
      "outputs": [
        {
          "internalType": "uint256",
          "name": "",
          "type": "uint256"
        }
      ],
      "stateMutability": "view",
      "type": "function"
    },
    {
      "inputs": [],
      "name": "proxiableUUID",
      "outputs": [
        {
          "internalType": "bytes32",
          "name": "",
          "type": "bytes32"
        }
      ],
      "stateMutability": "view",
      "type": "function"
    },
    {
      "inputs": [
        {
          "internalType": "uint256",
          "name": "offerId",
          "type": "uint256"
        },
        {
          "internalType": "address",
          "name": "buyingClub",
          "type": "address"
        }
      ],
      "name": "rejectBid",
      "outputs": [],
      "stateMutability": "nonpayable",
      "type": "function"
    },
    {
      "inputs": [
        {
          "internalType": "bytes32",
          "name": "role",
          "type": "bytes32"
        },
        {
          "internalType": "address",
          "name": "callerConfirmation",
          "type": "address"
        }
      ],
      "name": "renounceRole",
      "outputs": [],
      "stateMutability": "nonpayable",
      "type": "function"
    },
    {
      "inputs": [
        {
          "internalType": "uint256",
          "name": "dealId",
          "type": "uint256"
        }
      ],
      "name": "rescueSigningBonus",
      "outputs": [],
      "stateMutability": "nonpayable",
      "type": "function"
    },
    {
      "inputs": [
        {
          "internalType": "uint256",
          "name": "dealId",
          "type": "uint256"
        },
        {
          "internalType": "uint8",
          "name": "op",
          "type": "uint8"
        },
        {
          "internalType": "uint256",
          "name": "newFee",
          "type": "uint256"
        }
      ],
      "name": "resolveDeadlock",
      "outputs": [],
      "stateMutability": "nonpayable",
      "type": "function"
    },
    {
      "inputs": [
        {
          "internalType": "bytes32",
          "name": "role",
          "type": "bytes32"
        },
        {
          "internalType": "address",
          "name": "account",
          "type": "address"
        }
      ],
      "name": "revokeRole",
      "outputs": [],
      "stateMutability": "nonpayable",
      "type": "function"
    },
    {
      "inputs": [
        {
          "internalType": "address",
          "name": "token",
          "type": "address"
        }
      ],
      "name": "revokeToken",
      "outputs": [],
      "stateMutability": "nonpayable",
      "type": "function"
    },
    {
      "inputs": [
        {
          "internalType": "address",
          "name": "newTreasury",
          "type": "address"
        }
      ],
      "name": "scheduleProtocolTreasuryUpdate",
      "outputs": [],
      "stateMutability": "nonpayable",
      "type": "function"
    },
    {
      "inputs": [
        {
          "internalType": "uint256",
          "name": "duration",
          "type": "uint256"
        }
      ],
      "name": "setConsentWindow",
      "outputs": [],
      "stateMutability": "nonpayable",
      "type": "function"
    },
    {
      "inputs": [
        {
          "internalType": "uint256",
          "name": "bps",
          "type": "uint256"
        }
      ],
      "name": "setProtocolFee",
      "outputs": [],
      "stateMutability": "nonpayable",
      "type": "function"
    },
    {
      "inputs": [
        {
          "internalType": "uint256",
          "name": "offerId",
          "type": "uint256"
        },
        {
          "internalType": "uint256",
          "name": "transferFee",
          "type": "uint256"
        },
        {
          "internalType": "uint256",
          "name": "sellOnBps",
          "type": "uint256"
        },
        {
          "internalType": "address",
          "name": "sellOnRecipient",
          "type": "address"
        },
        {
          "internalType": "uint256",
          "name": "sellerAgentBps",
          "type": "uint256"
        },
        {
          "internalType": "address",
          "name": "sellerAgent",
          "type": "address"
        },
        {
          "internalType": "uint256",
          "name": "buyerAgentBps",
          "type": "uint256"
        },
        {
          "internalType": "address",
          "name": "buyerAgent",
          "type": "address"
        },
        {
          "internalType": "uint256",
          "name": "signingBonusMonths",
          "type": "uint256"
        },
        {
          "internalType": "uint256[]",
          "name": "installmentAmounts",
          "type": "uint256[]"
        },
        {
          "internalType": "uint256[]",
          "name": "installmentDueDates",
          "type": "uint256[]"
        }
      ],
      "name": "submitBid",
      "outputs": [],
      "stateMutability": "nonpayable",
      "type": "function"
    },
    {
      "inputs": [
        {
          "internalType": "bytes4",
          "name": "interfaceId",
          "type": "bytes4"
        }
      ],
      "name": "supportsInterface",
      "outputs": [
        {
          "internalType": "bool",
          "name": "",
          "type": "bool"
        }
      ],
      "stateMutability": "view",
      "type": "function"
    },
    {
      "inputs": [],
      "name": "totalOffers",
      "outputs": [
        {
          "internalType": "uint256",
          "name": "",
          "type": "uint256"
        }
      ],
      "stateMutability": "view",
      "type": "function"
    },
    {
      "inputs": [],
      "name": "treasury",
      "outputs": [
        {
          "internalType": "address",
          "name": "",
          "type": "address"
        }
      ],
      "stateMutability": "view",
      "type": "function"
    },
    {
      "inputs": [],
      "name": "unpause",
      "outputs": [],
      "stateMutability": "nonpayable",
      "type": "function"
    },
    {
      "inputs": [
        {
          "internalType": "uint256",
          "name": "offerId",
          "type": "uint256"
        },
        {
          "internalType": "uint256",
          "name": "newTransferFee",
          "type": "uint256"
        },
        {
          "internalType": "uint256",
          "name": "newSellOnBps",
          "type": "uint256"
        },
        {
          "internalType": "address",
          "name": "newSellOnRecipient",
          "type": "address"
        },
        {
          "internalType": "uint256",
          "name": "newSellerAgentBps",
          "type": "uint256"
        },
        {
          "internalType": "address",
          "name": "newSellerAgent",
          "type": "address"
        },
        {
          "internalType": "uint256",
          "name": "newBuyerAgentBps",
          "type": "uint256"
        },
        {
          "internalType": "address",
          "name": "newBuyerAgent",
          "type": "address"
        },
        {
          "internalType": "uint256",
          "name": "newSalaryGuaranteeMonths",
          "type": "uint256"
        },
        {
          "internalType": "uint256[]",
          "name": "newInstallmentAmounts",
          "type": "uint256[]"
        },
        {
          "internalType": "uint256[]",
          "name": "newInstallmentDueDates",
          "type": "uint256[]"
        }
      ],
      "name": "updateBid",
      "outputs": [],
      "stateMutability": "nonpayable",
      "type": "function"
    },
    {
      "inputs": [
        {
          "internalType": "uint256",
          "name": "offerId",
          "type": "uint256"
        },
        {
          "internalType": "uint256",
          "name": "newAskingPrice",
          "type": "uint256"
        },
        {
          "internalType": "uint256",
          "name": "newSellOnBps",
          "type": "uint256"
        },
        {
          "internalType": "address",
          "name": "newSellOnRecipient",
          "type": "address"
        },
        {
          "internalType": "uint256",
          "name": "newSellerAgentBps",
          "type": "uint256"
        },
        {
          "internalType": "address",
          "name": "newSellerAgent",
          "type": "address"
        },
        {
          "internalType": "uint256",
          "name": "newMinimumHijackIncrementBps",
          "type": "uint256"
        }
      ],
      "name": "updateOffer",
      "outputs": [],
      "stateMutability": "nonpayable",
      "type": "function"
    },
    {
      "inputs": [
        {
          "internalType": "address",
          "name": "newImplementation",
          "type": "address"
        },
        {
          "internalType": "bytes",
          "name": "data",
          "type": "bytes"
        }
      ],
      "name": "upgradeToAndCall",
      "outputs": [],
      "stateMutability": "payable",
      "type": "function"
    },
    {
      "inputs": [
        {
          "internalType": "uint256",
          "name": "dealId",
          "type": "uint256"
        }
      ],
      "name": "walkAwayFromRenegotiation",
      "outputs": [],
      "stateMutability": "nonpayable",
      "type": "function"
    },
    {
      "inputs": [
        {
          "internalType": "uint256",
          "name": "dealId",
          "type": "uint256"
        },
        {
          "internalType": "uint256",
          "name": "amount",
          "type": "uint256"
        }
      ],
      "name": "withdrawAddOnDeposit",
      "outputs": [],
      "stateMutability": "nonpayable",
      "type": "function"
    },
    {
      "inputs": [
        {
          "internalType": "uint256",
          "name": "offerId",
          "type": "uint256"
        }
      ],
      "name": "withdrawBid",
      "outputs": [],
      "stateMutability": "nonpayable",
      "type": "function"
    },
    {
      "inputs": [
        {
          "internalType": "uint256",
          "name": "offerId",
          "type": "uint256"
        }
      ],
      "name": "withdrawOffer",
      "outputs": [],
      "stateMutability": "nonpayable",
      "type": "function"
    }
  ],
  "bytecode": "0x60a080604052346100c257306080525f5160206159f85f395f51905f525460ff8160401c166100b3576002600160401b03196001600160401b03821601610060575b60405161593190816100c782396080518181816124ef01526126e40152f35b6001600160401b0319166001600160401b039081175f5160206159f85f395f51905f525581527fc7f505b2f371ae2175ee4913f4499e1f2633a7b5936321eed1cdaeb6115181d290602090a15f80610041565b63f92ee8a960e01b5f5260045ffd5b5f80fdfe60a0806040526004361015610012575f80fd5b5f905f3560e01c90816301c11d96146147e35750806301ffc9a71461478d57806302068664146141d15780630633ee9f14613cc25780630c10207114613ca75780630eaaf4c814613b605780631459457a14613943578063248a9ca31461391d5780632bbda320146137525780632ce05d03146137365780632ed6b75d1461370a5780632f2ff15d146136d957806335659fb8146136bc57806336568abe146136765780633677277c146136595780633da3ca2f1461345d5780633f4ba83a146133dd5780633f8f6fb614612b615780634579268a146129995780634628bd6b1461297d57806347d22159146128e25780634c74ef9c146128b95780634f1ef2861461266b5780635040e94e1461256d578063515ac0d61461254357806352d1902d146124dc57806353c15ac2146124c05780635c975abb146124915780635d205f7c1461237f57806360e49e4414612357578063614d2c36146121a557806361d027b31461217e578063625fa9d9146121615780636afc0c5f14612099578063744d34111461206f57806375b238fc14612047578063787dce3d14611fe057806378fc263e14611fc257806380b2edd814611ef557806380cd2e6514611eba57806382c88d4f14611db55780638456cb5914611d425780638610f04514611c8f578063892b38c214611c735780638a7a229614611c565780638d13c1b814611c3a57806391d1485414611be4578063933f4eef14611a8c57806393fd18e9146116925780639d93d352146116535780639f3bbd1d14611636578063a0d5e2a514611555578063a217fddf14611539578063a528ff83146112b9578063a9fd8ed11461129b578063ad3cb1cc14611252578063b417c7da146111e0578063b76d6647146111b7578063b9ebd9f814610ffe578063bad7259a14610d17578063bfadc8f914610c7b578063cbeae2b414610aec578063d547741f14610ab1578063e004c0e41461082c578063e088ea6414610695578063e1a4521814610678578063eba1b60b146104c8578063ebb5232f146104ac578063f3ad65f414610483578063f3ee48bb146103dd578063f6a220b8146103605763fc8045b114610336575f80fd5b3461035d578060031936011261035d5760206040515f5160206158dc5f395f51905f528152f35b80fd5b503461035d57602036600319011261035d5761037a61481c565b61038261526b565b6001600160a01b03168082526012602052604082206001015460ff16156103ce57808252601260205260408220600101805460ff191690555f51602061587c5f395f51905f528280a280f35b63e4793f3960e01b8252600482fd5b503461035d57602036600319011261035d576103f761481c565b6103ff615222565b6001600160a01b0316801561047457600280546001600160a01b03191682179055426202a3008101908110610460576020817f686003c563ac6d53a1e0d2aea06fc73beb941f8f05f3463b33b607717aabc67f92600355604051908152a280f35b634e487b7160e01b83526011600452602483fd5b63e6c4247b60e01b8252600482fd5b503461035d578060031936011261035d576007546040516001600160a01b039091168152602090f35b503461035d578060031936011261035d57602060405160038152f35b503461035d57604036600319011261035d576004356104e5614806565b906104ee615107565b50808352600a60205260408320600101546001600160a01b031633141580610665575b610656578252600c602052604082209060018060a01b03165f5260205260405f2060ff60106040519261054384614984565b8054845260018101546001600160a01b03908116602086015260028201548116604086015260038201546060860152600482015460808601526005820154811660a0860152600682015460c08601526007820154811660e08601526008820154610100860152600982015416610120850152600a8101546101408501526105cc600b8201614d63565b6101608501526105de600c8201614d63565b610180850152600d8101546101a0850152600e8101546101c0850152600f8101546101e08501520154818116151561020084015260081c1660068110156106425761063e9250610220820152604051918291602083526020830190614a1e565b0390f35b634e487b7160e01b83526021600452602483fd5b6303e2f0f360e51b8352600483fd5b50336001600160a01b0383161415610511565b503461035d578060031936011261035d5760206040516127108152f35b503461035d57606036600319011261035d576004359060243560ff8116809103610828576106c161519f565b6002600454146108195760026004556106d861526b565b600854604051634f0df86560e01b8152600481018590526001600160a01b03909116919060e081602481865afa90811561080e5784916107df575b508051156107d05760a0015160108110156107bc5760ff60089116036107ad5761079e578192813b1561079a57829160448392604051948593849263029bc34f60e41b84526004840152600160248401525af1801561078f5761077a575b50600160045580f35b81610784916149a0565b61035d57805f610771565b6040513d84823e3d90fd5b5050fd5b63162908e360e11b8252600482fd5b6372c24c3560e01b8352600483fd5b634e487b7160e01b84526021600452602484fd5b63223da47360e21b8452600484fd5b610801915060e03d60e011610807575b6107f981836149a0565b810190614f87565b5f610713565b503d6107ef565b6040513d86823e3d90fd5b6306fda65d60e31b8252600482fd5b5080fd5b503461035d5760e036600319011261035d57600435610849614806565b90604435916064359061085a614848565b60a4359161086661485e565b9061086f61519f565b600260045414610aa2576002600455858852600a60205260ff600b60408a2001541615610a9357858852600a60205260408820600101546001600160a01b03163303610a8457858852600c602052604088209060018060a01b03165f5260205260405f2092601084019283549560ff8760081c166006811015610a7057600203610a6157600f860196600388541015610a525760ff16610a435788158015610a2f575b610a20576107d08111610a005780151580610a0f575b6109e05761012c8311610a0057821515806109ef575b6109e0576003860189905560048601556005850180546001600160a01b03199081166001600160a01b039384161790915560068601929092556007850180549092169216919091179055825461099390614f4f565b809355600160ff19825416179055600e4291015560405192835260208301527f0e53c40e73f19e7c2b351d1ccd74559419b70233453c899e9cbb4d1c82b8c60660403393a3600160045580f35b63e6c4247b60e01b8a5260048afd5b506001600160a01b0384161561093e565b63c6cc5d7f60e01b8a5260048afd5b506001600160a01b03821615610928565b63162908e360e11b8a5260048afd5b50676765c793fa10079d601a1b8911610912565b63262fa5e160e11b8a5260048afd5b63538a58a760e01b8b5260048bfd5b6307e0eec960e31b8a5260048afd5b634e487b7160e01b8b52602160045260248bfd5b6303e2f0f360e51b8852600488fd5b636df5846d60e01b8852600488fd5b6306fda65d60e31b8852600488fd5b503461035d57604036600319011261035d57610ae8600435610ad1614806565b90610ae3610ade82614f69565b6152b4565b615608565b5080f35b503461035d57602036600319011261035d57600435808252600a60205260ff600b6040842001541615610c6c578152600b602052604081208054610b2f816150f0565b90610b3d60405192836149a0565b8082526020820190819385526020852085925b828410610be757868587604051928392602084019060208552518091526040840160408260051b8601019392905b828210610b8d57505050500390f35b919360019193955060208091603f19898203018552875190606080610bbb8451608085526080850190614b31565b938581015186850152604081015115156040850152015115159101529601920192018594939192610b7e565b604051608081016001600160401b03811182821017610c5857600192600392602092604052604051610c2481610c1d818a614e23565b03826149a0565b8152848601548382015260ff60028701548181161515604084015260081c1615156060820152815201920193019290610b50565b634e487b7160e01b89526041600452602489fd5b636df5846d60e01b8252600482fd5b503461035d57602036600319011261035d5760085460405163bfadc8f960e01b815260048035908201529190602090839060249082906001600160a01b03165afa908115610d0b5790610cd4575b602090604051908152f35b506020813d602011610d03575b81610cee602093836149a0565b81010312610cff5760209051610cc9565b5f80fd5b3d9150610ce1565b604051903d90823e3d90fd5b503461035d57602036600319011261035d5760043590600260045414610fef5760026004908155600854604051630f8f795960e01b81529182018490526001600160a01b03169060c081602481855afa8015610fe45783849085938693610faa575b5015610f9b57610f8c578015610f7d574211156107ad5760ff1660058103610e06575050600854909182916001600160a01b031690813b1561079a57829160448392604051948593849263029bc34f60e41b84526004840152600860248401525af1801561078f57610df1575b50505b600160045580f35b81610dfb916149a0565b61035d57805f610de6565b600b8103610e75575050600854909182916001600160a01b031690813b1561079a57829160448392604051948593849263029bc34f60e41b84526004840152600d60248401525af1801561078f57610e60575b5050610de9565b81610e6a916149a0565b61035d57805f610e59565b60068103610ece575050600854909182916001600160a01b031690813b1561079a57829160448392604051948593849263029bc34f60e41b84526004840152600960248401525af1801561078f57610e60575050610de9565b60078103610f27575050600854909182916001600160a01b031690813b1561079a57829160448392604051948593849263029bc34f60e41b84526004840152600b60248401525af1801561078f57610e60575050610de9565b600803610f6e578192813b1561079a57829160448392604051948593849263029bc34f60e41b84526004840152600c60248401525af1801561078f57610e60575050610de9565b6372c24c3560e01b8252600482fd5b6372c24c3560e01b8452600484fd5b63e231c28f60e01b8452600484fd5b63223da47360e21b8552600485fd5b92505050610fd0915060c03d60c011610fdd575b610fc881836149a0565b8101906150a6565b505092919092915f610d79565b503d610fbe565b6040513d85823e3d90fd5b6306fda65d60e31b8152600490fd5b503461035d57604036600319011261035d5760043561101b614806565b61102361519f565b6002600454146111a8576002600455818352600a60205260ff600b604085200154161561119957818352600a6020526040832060018101549091906001600160a01b0316330361118a57828452600c6020526040842060018060a01b0382165f52602052601060405f20019160ff835460081c169260068410158061117657600285149485159081611167575b506111585761114457805461ff0019166104001790558280611137575b611122575b50828452600e602052604084206110e98154614f5d565b90556001600160a01b0316825f51602061577c5f395f51905f528580a36111135750600160045580f35b61111c906152fa565b5f610771565b600a0161112f8154614f5d565b90555f6110d2565b50600a81015415156110cd565b634e487b7160e01b86526021600452602486fd5b6307e0eec960e31b8752600487fd5b9150506001879114155f6110b0565b634e487b7160e01b87526021600452602487fd5b6303e2f0f360e51b8452600484fd5b636df5846d60e01b8352600483fd5b6306fda65d60e31b8352600483fd5b503461035d578060031936011261035d576008546040516001600160a01b039091168152602090f35b503461035d57602036600319011261035d57604080916111fe61481c565b816020845161120c81614969565b82815201526001600160a01b03168152601260205220815161122d81614969565b602060ff60018454948585520154169101901515815282519182525115156020820152f35b503461035d578060031936011261035d575061063e6040516112756040826149a0565b60058152640352e302e360dc1b6020820152604051918291602083526020830190614b31565b503461035d578060031936011261035d576020600554604051908152f35b503461035d57602036600319011261035d57600435808252600a60205260ff600b6040842001541615610c6c57808252600a60205260408220600101546001600160a01b0316330361152a57808252600d6020526040822080549061131d826150f0565b9261132b60405194856149a0565b828452601f1961133a846150f0565b01855b818110611513575050845b8381106113b65784866040519182916020830160208452825180915260408401602060408360051b870101940192905b82821061138757505050500390f35b919360019193955060206113a68192603f198a82030186528851614a1e565b9601920192018594939192611378565b818652600c602052604086206113cc8285614dc5565b60018060a01b0391549060031b1c1660018060a01b03165f5260205260405f2060ff6010604051926113fd84614984565b8054845260018101546001600160a01b03908116602086015260028201548116604086015260038201546060860152600482015460808601526005820154811660a0860152600682015460c08601526007820154811660e08601526008820154610100860152600982015416610120850152600a810154610140850152611486600b8201614d63565b610160850152611498600c8201614d63565b610180850152600d8101546101a0850152600e8101546101c0850152600f8101546101e08501520154818116151561020084015260081c1660068110156114ff57610220820152600191906114ed828861518b565b526114f8818761518b565b5001611348565b634e487b7160e01b88526021600452602488fd5b60209061151e615107565b8282890101520161133d565b6303e2f0f360e51b8252600482fd5b503461035d578060031936011261035d57602090604051908152f35b503461035d57604036600319011261035d5761156f61481c565b6024359061157b61526b565b6001600160a01b031690811561162757801561161857818352601260205260ff6001604085200154166116095760207f0ffe513459702463615ee8ff7023e9830e6253bfe826f86ca79046e81ba90820916115ff6040516115db81614969565b82815260018482018181528789526012865260408920925183555115159101614dda565b604051908152a280f35b6336d3cb7960e11b8352600483fd5b63162908e360e11b8352600483fd5b63e6c4247b60e01b8352600483fd5b503461035d578060031936011261035d576020604051610e108152f35b503461035d57602036600319011261035d5760209060ff906040906001600160a01b0361167e61481c565b168152601084522054166040519015158152f35b503461035d576116a1366148a4565b976116b89c9b9c9a95939a9996929997919761519f565b600260045414611a7d5760026004558b8e52600a60205260408e20600b015460ff1615611a6e5760408e8d8152600c6020522060018060a01b0333165f5260205260405f209660108801549660ff8860081c166006811015611a5857600203611a4857600f8901978854906003821015611a365760ff16159081611a2c575b50611a1c578e158f8115611a07575b506119a4576107d081116119d557801515806119f6575b6119b45761012c83116119d557821515806119e5575b6119b45761012c85116119d557841515806119c4575b6119b457601887116119a457600389018f905560048901556005880180546001600160a01b03199081166001600160a01b0393841617909155600689019290925560078801805483169382169390931790925560088701929092556009860180549092169216919091179055600a830155805461180590614f4f565b905560108101805460ff1916905542600e8201558315801561199a575b6118cc578383036118cc578688895b8681106118db5750036118cc57600c600b82019161184e83614ed7565b019361185985614ed7565b885b818110611899578989896040519182527f67084cbee80e339a509d7ab5561456aebf1df51370948a18a4449a1978d368ee60203393a3600160045580f35b806118b16118aa600193858b614ea4565b3585614ef8565b6118c66118bf828888614ea4565b3588614ef8565b0161185b565b63162908e360e11b8852600488fd5b91506118e8828789614ea4565b3515610a205781158080611976575b611967571580611928575b610a205761191e60019161191784898b614ea4565b3590614eb4565b9101908891611831565b50611934828686614ea4565b355f1983018381116119535761194b908787614ea4565b351015611902565b634e487b7160e01b8c52601160045260248cfd5b63162908e360e11b8b5260048bfd5b50851561198657428535106118f7565b634e487b7160e01b8b52603260045260248bfd5b5060088411611822565b5063162908e360e11b8f5260048ffd5b5063e6c4247b60e01b8f5260048ffd5b506001600160a01b03861615611789565b5063c6cc5d7f60e01b8f5260048ffd5b506001600160a01b03841615611773565b506001600160a01b0382161561175d565b676765c793fa10079d601a1b1090508f611746565b5063262fa5e160e11b8f5260048ffd5b905015155f611737565b50505060048f63538a58a760e01b8152fd5b5063340d7a1f60e01b8f5260048ffd5b5050634e487b7160e01b8f52602160045260248ffd5b636df5846d60e01b8e5260048efd5b6306fda65d60e31b8e5260048efd5b503461035d57602036600319011261035d57611aa661481c565b611aae615222565b6001600160a01b03168082526010602052604082205460ff1615611bd557808252601060205260408220805460ff1916905560115490825b828110611b17575b83827f45f62f30e7b8439e0da7d8e560fe39d01238091ce9e789e3d12b514edf98acea8280a280f35b81611b2182614dad565b905460039190911b1c6001600160a01b031614611b4057600101611ae6565b90915f198101908111611bc15790611b75611b5d611b7b93614dad565b905460039190911b1c6001600160a01b031691614dad565b90614f2c565b6011548015611bad575f1901611b9081614dad565b81549060018060a01b039060031b1b19169055601155805f611aee565b634e487b7160e01b83526031600452602483fd5b634e487b7160e01b84526011600452602484fd5b635a1303a760e01b8252600482fd5b503461035d57604036600319011261035d576040611c00614806565b9160043581525f51602061583c5f395f51905f52602052209060018060a01b03165f52602052602060ff60405f2054166040519015158152f35b503461035d578060031936011261035d57602060405160c88152f35b503461035d578060031936011261035d5760206040516107d08152f35b503461035d578060031936011261035d57602060405160188152f35b503461035d57602036600319011261035d57600435611cac61519f565b600260045414610819576002600455808252600a60205260ff600b6040842001541615610c6c57808252600a6020526040822060018101546001600160a01b0316330361065657600a8101546107ad57600b810160ff198154169055548252600f6020528160408120557facbc44b7f46dc350c99fc0d9e5f61ed5c588cb4cdc6b69ea0deb0c5b28e5efc48280a2600160045580f35b503461035d578060031936011261035d57611d5b615222565b611d6361519f565b600160ff195f51602061585c5f395f51905f525416175f51602061585c5f395f51905f52557f62e78cea01bee320cd4e420270b5ea74000d11b0c9f74754ebdbfc544b05a2586020604051338152a180f35b503461035d57602036600319011261035d57600854604051630f8f795960e01b815260048035908201819052916001600160a01b03169060c081602481855afa801561080e578485928692611e8f575b5015610f9b576001600160a01b031615610f7d574211156107ad578083913b15610828578180916024604051809481936344d912a160e11b83528860048401525af1801561078f57611e7a575b50807f1833f8bbbaedba04925e4618512692856f29f79deb98722cd8d7eca4fc1e6bc391a280f35b81611e84916149a0565b61082857815f611e52565b915050611eab915060c03d60c011610fdd57610fc881836149a0565b9492509250509091905f611e05565b503461035d57602036600319011261035d57600435611ed7615222565b610e108110611ee65760095580f35b63296d383360e01b8252600482fd5b503461035d57602036600319011261035d57611f0f61481c565b611f17615222565b6001600160a01b03811690811561162757818352601060205260ff604084205416611fb357818352601060205260408320805460ff19166001179055601154600160401b811015611f9f5790611b75826001611f7894016011556011614dc5565b7f5f5916d70d5479c1795a9d461360dfa5c673bc37904c8ab4fcbdc970b9e90f3d8280a280f35b634e487b7160e01b84526041600452602484fd5b6389f2a03b60e01b8352600483fd5b503461035d578060031936011261035d576020600954604051908152f35b503461035d57602036600319011261035d57600435611ffd615222565b6107d08111612038576020817fd10d75876659a287a59a6ccfa2e3fff42f84d94b542837acd30bc184d562de4092600155604051908152a180f35b63499fddb160e01b8252600482fd5b503461035d578060031936011261035d5760206040515f51602061589c5f395f51905f528152f35b503461035d57602036600319011261035d5760406020916004358152600e83522054604051908152f35b503461035d578060031936011261035d5760405160118054808352908352602082019081907f31ecc21a745e3968a04e9570e4425bc18fa8019c68028196b546d1669c200c6890855b81811061214257505050826120f89103836149a0565b604051928392602084019060208552518091526040840192915b818110612120575050500390f35b82516001600160a01b0316845285945060209384019390920191600101612112565b82546001600160a01b03168452602090930192600192830192016120e2565b503461035d578060031936011261035d5760206040516101f48152f35b503461035d578060031936011261035d57546040516001600160a01b039091168152602090f35b503461035d57602036600319011261035d576004356001600160401b038111610828576121d6903690600401614874565b6121de61526b565b825b8181106122e05750825b8181106121f5578380f35b6001600160a01b0361221061220b838587614ea4565b615092565b168452601260205260408420600181019081549060ff8216156122d15790816001949392548061227e575b50541561224b575b5050016121ea565b60ff19169055818060a01b0361226561220b838688614ea4565b165f51602061587c5f395f51905f528680a25f80612243565b61228790614f5d565b8082557f5e3cf48d467d6f682659f32b47874269379e19498ffebf7b647d716d0f4473396020896122c261220b898c8c8060a01b0394614ea4565b1692604051908152a25f61223b565b639eb02c9f60e01b8752600487fd5b60018101808211612343575b8281106122fc57506001016121e0565b61230e61220b83858798969597614ea4565b6001600160a01b0361232461220b84868a614ea4565b6001600160a01b039092169116146116275760010193929091936122ec565b634e487b7160e01b85526011600452602485fd5b503461035d578060031936011261035d5760206040515f51602061581c5f395f51905f528152f35b503461035d57602036600319011261035d576004359061239d61519f565b600260045414610fef5760026004908155600854604051634f0df86560e01b81529182018490526001600160a01b03169060e081602481855afa908115610fe4578391612472575b508051156124635760a081015160108110156107bc5760ff60079116036107ad57604001516001600160a01b03163303612454578192813b1561079a578291602483926040519485938492631c70d28d60e21b845260048401525af1801561078f5761077a5750600160045580f35b63223da47360e21b8252600482fd5b63223da47360e21b8352600483fd5b61248b915060e03d60e011610807576107f981836149a0565b5f6123e5565b503461035d578060031936011261035d57602060ff5f51602061585c5f395f51905f5254166040519015158152f35b503461035d578060031936011261035d57602060405160058152f35b503461035d578060031936011261035d577f00000000000000000000000000000000000000000000000000000000000000006001600160a01b031630036125345760206040515f5160206157fc5f395f51905f528152f35b63703e46dd60e11b8152600490fd5b503461035d57602036600319011261035d5760406020916004358152600f83522054604051908152f35b503461035d57602036600319011261035d576004359061258b61526b565b600260045414610fef57600260045560018060a01b036008541660405192634f0df86560e01b845280600485015260e084602481855afa938415610fe457839461264a575b50835115612463578254929384936001600160a01b031690811561263657505b823b156126315761261a9284928360405180968195829463f1c4f0af60e01b845260048401615018565b03925af1801561078f5761077a5750600160045580f35b505050fd5b602001516001600160a01b031690506125f0565b61266491945060e03d60e011610807576107f981836149a0565b925f6125d0565b50604036600319011261035d5761268061481c565b60243591906001600160401b03831161082857366023840112156108285782600401356126ac816149c3565b936126ba60405195866149a0565b81855236602483830101116128b55781849260246020930183880137850101526001600160a01b037f000000000000000000000000000000000000000000000000000000000000000016308114908115612893575b50612884578180525f51602061583c5f395f51905f5260209081526040808420335f908152925290205460ff161561286c576040516352d1902d60e01b8152926001600160a01b0382169190602085600481865afa80958596612834575b5061278657634c9c8ce360e01b84526004839052602484fd5b9091845f5160206157fc5f395f51905f5281036128225750823b15612810575f5160206157fc5f395f51905f5280546001600160a01b031916821790557fbc7cd75a20ee27fd9adebab32041f755214dbc6bffa90cc0225b39da2e5c2d3b8480a28051156127f757610ae8916156cf565b5050346128015780f35b63b398979f60e01b8152600490fd5b634c9c8ce360e01b8452600452602483fd5b632a87526960e21b8552600452602484fd5b9095506020813d602011612864575b81612850602093836149a0565b810103126128605751945f61276d565b8480fd5b3d9150612843565b63e2517d3f60e01b8252336004526024829052604482fd5b63703e46dd60e11b8252600482fd5b5f5160206157fc5f395f51905f52546001600160a01b0316141590505f61270f565b8380fd5b503461035d578060031936011261035d576006546040516001600160a01b039091168152602090f35b503461035d578060031936011261035d576128fb615222565b600354801561296e57421061295f578054600280546001600160a01b038082166001600160a01b031980861682178755909216909255600384905591167f0c5d18caa145415182f8ad3d2563da586609cec04ac8505274d87bc43f00b4a48380a380f35b6357f4ad8b60e01b8152600490fd5b6315090c2d60e01b8252600482fd5b503461035d578060031936011261035d57602060405160148152f35b503461035d57602036600319011261035d57600435816101606040516129be8161494d565b8281528260208201528260408201528260608201528260808201528260a08201528260c08201528260e08201528261010082015282610120820152826101408201520152808252600a60205260ff600b6040842001541615610c6c57816040916101809352600a60205220604051612a358161494d565b808083549384825260018060a01b036001820154166020830190815260018060a01b036002830154166040840190815260038301546060850190815260048401546080860190815260018060a01b036005860154169160a0870192835260068601549360c0880194855260018060a01b036007880154169560e0890196875261016060ff600b60088b01549a6101008d019b8c5261012060098201549d019c8d52610140600a8201549e019d8e520154169b019a15158b526040519b8c5260018060a01b0390511660208c015260018060a01b0390511660408b01525160608a015251608089015260018060a01b0390511660a08801525160c087015260018060a01b0390511660e0860152516101008501525161012084015251610140830152511515610160820152f35b503461035d5761012036600319011261035d57600435612b7f614806565b6064359160443591612b8f614848565b9060a43594612b9c61485e565b60e4359390610104356001600160401b0381116133d957612bc1903690600401614874565b959094612bcc61519f565b6002600454146133ca576002600455612be36151c6565b6001600160a01b0316808b52601060205260408b205490929060ff16156133bb5760075460405163023aa9ab60e61b81527fd8e6c8b39dbc70333b42d059fa436cf2679722325c0f6ed7e701df0b05a637c8600482015290602090829060249082906001600160a01b03165afa90811561327d578c9161337c575b50604051636896470560e11b815290602090829060049082906001600160a01b03165afa90811561327d578c9161333e575b501561332f57878b52600f60205260408b20546133215760085460405163bfadc8f960e01b8152600481018a905290602090829060249082906001600160a01b03165afa90811561327d578c916132ef575b506132e0576006546040516369d146b560e11b8152600481018a90526001600160a01b0390911690602081602481855afa9081156132d5578d91613297575b50336001600160a01b0390911603613288578b60249160405192838092631cab5c9d60e31b82528d60048301525afa801561327d57610180918d9161325b575b5001511561324c5788158015613238575b611967576107d085116131ed5784151580613227575b6132075761012c8a116131ed5789151580613216575b61320757811580156131fc575b6131ed57600a87116131de57908a9291835b88811061316d5750600554612dd190614f4f565b9a8b958660055560405197612de58961494d565b8b89528c60208a019633885260408b0190815260608b0191825260808b0192835260a08b0193600160a01b6001900316845260c08b0194855260e08b0195600160a01b600190031686526101008b019687526101208b01974289526101408c0199808b526101608d019b60018d528152600a602052604090209b518c55600160a01b6001900390511660018c0190600160a01b6001900316600160a01b6001900319825416179055600160a01b6001900390511660028b0190600160a01b6001900316600160a01b60019003198254161790555160038a0155516004890155600160a01b600190039051166005880190600160a01b6001900316600160a01b6001900319825416179055516006870155600160a01b600190039051166007860190600160a01b6001900316600160a01b600190031982541617905551600885015551600984015551600a83015551151590600b0190612f4391614dda565b855b828110612f9757505050826040858360209752600f87522055604051918252827f32645f28ae455f14af7a547728c579fc5a3f52d9c6db6d22a0de0ded95c82cbe853394a46001600455604051908152f35b858752600b60205260408720612fae828585615031565b81549091600160401b8210156131595760018201808255821015613145578952600360208a20910201612fe18280615053565b906001600160401b03821161313157612ffa8354614deb565b601f81116130f6575b508a908b601f84116001146130875793836130629460609460029460019a99989261307c575b50505f19600383901b1c191690881b1781555b602085013587820155019261305c61305660408301615085565b85614dda565b01615085565b815461ff00191690151560081b61ff001617905501612f45565b013590505f80613029565b50838c5260208c2091601f1984168d5b8181106130de57508460609460029460019a999894613062988c95106130c5575b505050811b01815561303c565b01355f19600384901b60f8161c191690555f80806130b8565b91936020600181928787013581550195019201613097565b61312190848d5260208d20601f850160051c81019160208610613127575b601f0160051c0190614ec1565b5f613003565b9091508190613114565b634e487b7160e01b8b52604160045260248bfd5b634e487b7160e01b8a52603260045260248afd5b634e487b7160e01b8a52604160045260248afd5b9091929350613186613180828a8a615031565b80615053565b90501580156131c4575b6131b55760206131a1828a8a615031565b0135156131b557600101908b939291612dbd565b63162908e360e11b8c5260048cfd5b506101006131d6613180838b8b615031565b905011613190565b630ba8482160e11b8b5260048bfd5b63c6cc5d7f60e01b8b5260048bfd5b506127108211612dab565b63e6c4247b60e01b8b5260048bfd5b506001600160a01b03811615612d9e565b506001600160a01b03841615612d88565b50676765c793fa10079d601a1b8911612d72565b6360e6b51b60e11b8b5260048bfd5b61327791503d808f833e61326f81836149a0565b810190614bce565b5f612d61565b6040513d8e823e3d90fd5b6303e2f0f360e51b8c5260048cfd5b90506020813d6020116132cd575b816132b2602093836149a0565b810103126132c9576132c390614b9b565b5f612d21565b8c80fd5b3d91506132a5565b6040513d8f823e3d90fd5b631a29045b60e11b8b5260048bfd5b90506020813d602011613319575b8161330a602093836149a0565b81010312610cff57515f612ce2565b3d91506132fd565b6219c1a760e21b8b5260048bfd5b6304d54fbf60e41b8b5260048bfd5b90506020813d602011613374575b81613359602093836149a0565b810103126133705761336a90614bc1565b5f612c90565b8b80fd5b3d915061334c565b90506020813d6020116133b3575b81613397602093836149a0565b810103126133705760206133ac600492614b9b565b9150612c5e565b3d915061338a565b6332da96a360e01b8b5260048bfd5b6306fda65d60e31b8b5260048bfd5b8980fd5b503461035d578060031936011261035d576133f6615222565b5f51602061585c5f395f51905f525460ff81161561344e5760ff19165f51602061585c5f395f51905f52557f5db9ee0a495bf2e6ff9c91a7834c1ba4fdd244a5e8aa4e537bd38aeae4b073aa6020604051338152a180f35b638dfc202b60e01b8252600482fd5b5034610cff576040366003190112610cff5760243560043561347d61519f565b60026004541461364a5760026004908155600854604051634f0df86560e01b81529182018390526001600160a01b0316929060e081602481875afa90811561359e575f9161362b575b5080511561361c5760408101516001600160a01b0316330361360d5760a081015160108110156135f957600d19016135ea5781156135a95760600151604051635ea36b2d60e01b8152906020908290819061352e906001600160a01b03168760048401615018565b0381875afa90811561359e575f916135b8575b5081116135a957823b15610cff5760645f9283604051958694859363fd263f7b60e01b8552600485015233602485015260448401525af1801561359e5761358b5750600160045580f35b61359791505f906149a0565b5f5f610771565b6040513d5f823e3d90fd5b63162908e360e11b5f5260045ffd5b90506020813d6020116135e2575b816135d3602093836149a0565b81010312610cff57515f613541565b3d91506135c6565b6372c24c3560e01b5f5260045ffd5b634e487b7160e01b5f52602160045260245ffd5b631f3cbf7b60e31b5f5260045ffd5b63223da47360e21b5f5260045ffd5b613644915060e03d60e011610807576107f981836149a0565b5f6134c6565b6306fda65d60e31b5f5260045ffd5b34610cff575f366003190112610cff57602060405162093a808152f35b34610cff576040366003190112610cff5761368f614806565b336001600160a01b038216036136ad576136ab90600435615608565b005b63334bd91960e11b5f5260045ffd5b34610cff575f366003190112610cff576020600154604051908152f35b34610cff576040366003190112610cff576136ab6004356136f8614806565b90613705610ade82614f69565b615577565b34610cff575f366003190112610cff57604060018060a01b036002541660035482519182526020820152f35b34610cff575f366003190112610cff57602060405161012c8152f35b34610cff5760e0366003190112610cff57600435604435602435613774614832565b906084359260a4359060018060a01b038216809203610cff5760c4359161379961519f565b60026004541461364a576002600455865f52600a60205260ff600b60405f200154161561390e575f878152600a6020526040902060018101549091906001600160a01b031633036138ff57600a8201546135ea57841580156138eb575b6135a9576107d083116138a957821515806138da575b6138c35761012c87116138a957861515806138d2575b6138c357831580156138b8575b6138a9577f63259830931e406791f7755ad50d816251e755d53951772775a94f2bf0e54fde966020966008948760038601556004850155600584019060018060a01b031660018060a01b03198254161790556006830155600782019060018060a01b03198254161790550155604051908152a26001600455005b63c6cc5d7f60e01b5f5260045ffd5b50612710841161382f565b63e6c4247b60e01b5f5260045ffd5b508015613822565b506001600160a01b0386161561380c565b50676765c793fa10079d601a1b85116137f6565b6303e2f0f360e51b5f5260045ffd5b636df5846d60e01b5f5260045ffd5b34610cff576020366003190112610cff57602061393b600435614f69565b604051908152f35b34610cff5760a0366003190112610cff5761395c61481c565b613964614806565b6044356001600160a01b03811690819003610cff57613981614832565b613989614848565b5f5160206158bc5f395f51905f5254604081901c60ff161595919391906001600160401b03811680159081613b58575b6001149081613b4e575b159081613b45575b50613b36576001600160401b031981166001175f5160206158bc5f395f51905f525586613b0e575b506001600160a01b03169384156138c3576001600160a01b03169182156138c35781156138c3576001600160a01b03169182156138c3576001600160a01b038416156138c357613ab594613a456156a4565b613a4d6156a4565b600160045560018060a01b0319600654161760065560018060a01b0319600754161760075560018060a01b0319600854161760085560018060a01b03195f5416175f556203f4806009556032600155613aa581615401565b50613aaf81615477565b506154f7565b50613abc57005b60ff60401b195f5160206158bc5f395f51905f5254165f5160206158bc5f395f51905f52557fc7f505b2f371ae2175ee4913f4499e1f2633a7b5936321eed1cdaeb6115181d2602060405160018152a1005b6001600160481b0319166001600160401b01175f5160206158bc5f395f51905f5255866139f3565b63f92ee8a960e01b5f5260045ffd5b905015886139cb565b303b1591506139c3565b8891506139b9565b34610cff576020366003190112610cff57600435613b7c61519f565b60026004541461364a576002600455805f52600a60205260ff600b60405f200154161561390e575f818152600c602090815260408083203384529091529020601001805460081c60ff16906006821015806135f957600283149283159081613c98575b50613c89576135f95761050061ff0019825416179055815f52600a60205260405f208180613c7c575b613c67575b50815f52600e60205260405f20613c248154614f5d565b905533827f5e9c7ae3229b2cda5065d7058fcc05765c695c29ce05313fbe96cb2ca639231a5f80a3613c58575b6001600455005b613c61906152fa565b80613c51565b600a01613c748154614f5d565b905582613c0d565b50600a8101541515613c08565b6307e0eec960e31b5f5260045ffd5b91505060015f91141585613bdf565b34610cff575f366003190112610cff576020604051600a8152f35b34610cff57613cd0366148a4565b60809b909b52959a99979896979196909591949193909291613cf061519f565b60026004541461364a576002600455613d076151c6565b8a5f52600a60205260ff600b60405f200154161561390e57335f52601260205260ff600160405f200154166141c2575f8b8152600a602052604090206001810154909c906001600160a01b031633146141b4578b5f52600e602052601460405f205410156141a5578b5f52600c60205260405f2060018060a01b0333165f5260205260ff601060405f20015460081c169960068b10159a8b6135f957600281148015614198575b614189578b6135f95780159b8c1561417c575b8c15614169575b5050608051158015614153575b6135a9576107d086116138a95785151580614142575b6138c35761012c81116138a95780151580614131575b6138c35761012c83116138a95782151580614120575b6138c357601885116135a95788158015614116575b6135a9578888036135a9575f805b8a8c8184106140705750509050608051036135a95760059b8d968f600a019d8e54105f146140685760029f5b5f898152600c6020908152604080832033808552925282209a8b5560018b0180546001600160a01b03199081169092179055600292830154928b01805482166001600160a01b0394851617905560805160038c015560048b019390935560058a0180548416948316949094179093556006808a019490945560078901805483169582169590951790945560088801949094556009870180549094169490921693909317909155600a84019290925542600d8401819055600e840155600f83019190915560108201805460ff19168155908a10156135f957805461ff008b60081b169061ff001916179055600c600b820191613f6083614ed7565b0193613f6b85614ed7565b5f5b818110614043578a8a8a8a613ff4575b815f52600e60205260405f20613f938154614f4f565b905560028314613fe2575b50613fb56040519260805184526020840190614a11565b7f91f3c243b9bdde5ceb2c34ba0539b3af064f15c0127b734fd97fbe6a099b51ea60403393a36001600455005b613fec8154614f4f565b905582613f9e565b5f828152600d60205260409020805490600160401b82101561402f578161402391600161402a94018155614dc5565b3391614f2c565b613f7d565b634e487b7160e01b5f52604160045260245ffd5b806140546118aa600193858b614ea4565b6140626118bf828888614ea4565b01613f6d565b60019f613e66565b61407b918491614ea4565b35156135a957811580806140f2575b6135a95715806140b3575b6135a9576140ab600191611917848f8f90614ea4565b910190613e3a565b506140bf828b8b614ea4565b355f1983018381116140de576140d6908c8c614ea4565b351015614095565b634e487b7160e01b5f52601160045260245ffd5b508a1561410257428a351061408a565b634e487b7160e01b5f52603260045260245ffd5b5060088911613e2c565b506001600160a01b03841615613e17565b506001600160a01b03821615613e01565b506001600160a01b038c1615613deb565b50608051676765c793fa10079d601a1b10613dd5565b90919b506135f957600414998e80613dc8565b50600581149b505f613dc1565b63db8219ad60e01b5f5260045ffd5b505f9b5060018114613dae565b63d039f3fd60e01b5f5260045ffd5b6258479160e51b5f5260045ffd5b635bd4169d60e01b5f5260045ffd5b34610cff576040366003190112610cff576141ea614806565b6141f261519f565b60026004541461364a5760026004556004355f52600a60205260ff600b60405f200154161561390e576004355f52600a60205260405f209060018060a01b03600183015416903382036138ff576004355f52600c60205260405f2060018060a01b0382165f5260205260405f2091601083015460ff8160081c1660068110156135f957600203613c895760ff1661477e576006548454604051631cab5c9d60e31b8152600481018290529092915f90829060249082906001600160a01b03165afa90811561359e575f91614764575b505f91600a8601549182151580614757575b614725575b50600287015460038701546004880154600589015460068a015460078b015460088c015460098d01546040519b6001600160a01b0391821699929893821697949695821695949390911691906001600160401b036102008e01908111908e111761402f576102008d016040526004358d5260208d015260408c015260018060a01b038c1660608c015260808b015260a08a015260c089015260e08801526101008701526101208601526101408501526101608401526101808301526101a08201526143a5600b8401614d63565b6101c08201526143b7600c8401614d63565b6101e08201526004355f52600b60205260405f206004355f52600d60205260405f20945f5b86548110156144c7576143ef8188614dc5565b905460039190911b1c6001600160a01b03908116908616146144bf576004355f52600c60205260405f206144238289614dc5565b905460039190911b1c6001600160a01b03165f90815260209190915260409020601001805460081c60ff16919060068310156135f957826002600194149081156144b5575b50614476575b505b016143dc565b805461ff00191661040017905561448d8189614dc5565b838060a01b0391549060031b1c166004355f51602061577c5f395f51905f525f80a38861446e565b849150148a614468565b600190614470565b506010909401805461ff001916610300179055600b8401805460ff19169055600480355f908152600e6020908152604080832083905596548252600f8152868220919091556008548651637b61c63d60e01b815292830187905284516044840152908401516064830152948301516001600160a01b0390811660848301526060840151811660a48301526080840151811660c483015260a084015160e483015260c084015161010483015260e08401518116610124830152610100840151610144830152610120840151811661016483015261014084015161018483015261016084015181166101a48301526101808401516101c48301526101a08401516101e48301526101c08401516102006102048401529195169285929161460e91906101e0906145f9906102448701906149de565b910151848203604319016102248601526149de565b6003198382030160248401528154808252602082019160208260051b820101935f5260205f20925f915b8383106146c7578689602082808a03815f8e5af191821561359e575f92614693575b506001600160a01b0316906004357fd04f845137f741f1b1fcb8758a097aa384274dde474ea57dc4b71e88f8625cf35f80a46001600455005b9091506020813d6020116146bf575b816146af602093836149a0565b81010312610cff5751908261465a565b3d91506146a2565b91939550919360206003600192601f19858203018652608081526146ee608082018a614e23565b90848a015484820152606060ff60028c01548181161515604085015260081c16151591015297019301930190928895949293614638565b608091935001518060021b90808204600414901517156140de57818102908082048314901517156140de5791876142d8565b50608081015115156142d3565b61477891503d805f833e61326f81836149a0565b866142c1565b63262fa5e160e11b5f5260045ffd5b34610cff576020366003190112610cff5760043563ffffffff60e01b8116809103610cff57602090637965db0b60e01b81149081156147d2575b506040519015158152f35b6301ffc9a760e01b149050826147c7565b34610cff575f366003190112610cff57676765c793fa10079d601a1b8152602090f35b602435906001600160a01b0382168203610cff57565b600435906001600160a01b0382168203610cff57565b606435906001600160a01b0382168203610cff57565b608435906001600160a01b0382168203610cff57565b60c435906001600160a01b0382168203610cff57565b9181601f84011215610cff578235916001600160401b038311610cff576020808501948460051b010111610cff57565b90610160600319830112610cff576004359160243591604435916064356001600160a01b0381168103610cff57916084359160a4356001600160a01b0381168103610cff579160c4359160e4356001600160a01b0381168103610cff57916101043591610124356001600160401b038111610cff578161492691600401614874565b9092909161014435906001600160401b038211610cff5761494991600401614874565b9091565b61018081019081106001600160401b0382111761402f57604052565b604081019081106001600160401b0382111761402f57604052565b61024081019081106001600160401b0382111761402f57604052565b601f909101601f19168101906001600160401b0382119082101761402f57604052565b6001600160401b03811161402f57601f01601f191660200190565b90602080835192838152019201905f5b8181106149fb5750505090565b82518452602093840193909201916001016149ee565b9060068210156135f95752565b90614b2e908251815260018060a01b03602084015116602082015260018060a01b036040840151166040820152606083015160608201526080830151608082015260018060a01b0360a08401511660a082015260c083015160c082015260018060a01b0360e08401511660e082015261010083015161010082015260018060a01b036101208401511661012082015261014083015161014082015261022080614af1614add6101608701516102406101608701526102408601906149de565b6101808701518582036101808701526149de565b946101a08101516101a08501526101c08101516101c08501526101e08101516101e085015261020081015115156102008501520151910190614a11565b90565b805180835260209291819084018484015e5f828201840152601f01601f1916010190565b81601f82011215610cff57805190614b6c826149c3565b92614b7a60405194856149a0565b82845260208383010111610cff57815f9260208093018386015e8301015290565b51906001600160a01b0382168203610cff57565b519064ffffffffff82168203610cff57565b51908115158203610cff57565b602081830312610cff578051906001600160401b038211610cff570161022081830312610cff576040519161022083016001600160401b0381118482101761402f576040528151835260208201516001600160401b038111610cff5781614c36918401614b55565b602084015260408201516001600160401b038111610cff5781614c5a918401614b55565b604084015260608201516001600160401b038111610cff5781614c7e918401614b55565b60608401526080820151608084015260a082015160a084015260c082015160c084015260e082015160e0840152610100820151610100840152614cc46101208301614b9b565b610120840152614cd76101408301614baf565b610140840152614cea6101608301614baf565b610160840152614cfd6101808301614bc1565b610180840152614d106101a08301614bc1565b6101a0840152614d236101c08301614bc1565b6101c0840152614d366101e08301614bc1565b6101e08401526102008201516001600160401b038111610cff57614d5a9201614b55565b61020082015290565b90604051918281549182825260208201905f5260205f20925f5b818110614d94575050614d92925003836149a0565b565b8454835260019485019487945060209093019201614d7d565b6011548110156141025760115f5260205f2001905f90565b8054821015614102575f5260205f2001905f90565b9060ff801983541691151516179055565b90600182811c92168015614e19575b6020831014614e0557565b634e487b7160e01b5f52602260045260245ffd5b91607f1691614dfa565b5f9291815491614e3283614deb565b8083529260018116908115614e875750600114614e4e57505050565b5f9081526020812093945091925b838310614e6d575060209250010190565b600181602092949394548385870101520191019190614e5c565b915050602093945060ff929192191683830152151560051b010190565b91908110156141025760051b0190565b919082018092116140de57565b818110614ecc575050565b5f8155600101614ec1565b80545f825580614ee5575050565b614d92915f5260205f2090810190614ec1565b8054600160401b81101561402f57614f1591600182018155614dc5565b819291549060031b91821b915f19901b1916179055565b80546001600160a01b0360039390931b83811b199091169290931690921b179055565b5f1981146140de5760010190565b80156140de575f190190565b5f525f51602061583c5f395f51905f52602052600160405f20015490565b908160e0910312610cff576040519060e082016001600160401b0381118382101761402f57604052614fb881614bc1565b8252614fc660208201614b9b565b6020830152614fd760408201614b9b565b6040830152614fe860608201614b9b565b60608301526080810151608083015260a0810151906010821015610cff5760c09160a0840152015160c082015290565b9081526001600160a01b03909116602082015260400190565b91908110156141025760051b81013590607e1981360301821215610cff570190565b903590601e1981360301821215610cff57018035906001600160401b038211610cff57602001918136038313610cff57565b358015158103610cff5790565b356001600160a01b0381168103610cff5790565b91908260c0910312610cff576150bb82614bc1565b916150c860208201614bc1565b91604082015160ff81168103610cff5791606081015191614b2e60a060808401519301614b9b565b6001600160401b03811161402f5760051b60200190565b6040519061511482614984565b5f610220838281528260208201528260408201528260608201528260808201528260a08201528260c08201528260e082015282610100820152826101208201528261014082015260606101608201526060610180820152826101a0820152826101c0820152826101e0820152826102008201520152565b80518210156141025760209160051b010190565b60ff5f51602061585c5f395f51905f5254166151b757565b63d93c066560e01b5f5260045ffd5b335f9081527f47c3465a0c211ece60dd73efc90110f8b7e204feda752e1c50487740ddbcd24f602052604090205460ff16156151fe57565b63e2517d3f60e01b5f52336004525f5160206158dc5f395f51905f5260245260445ffd5b335f9081525f5160206157bc5f395f51905f52602052604090205460ff161561524757565b63e2517d3f60e01b5f52336004525f51602061589c5f395f51905f5260245260445ffd5b335f9081525f51602061579c5f395f51905f52602052604090205460ff161561529057565b63e2517d3f60e01b5f52336004525f51602061581c5f395f51905f5260245260445ffd5b5f8181525f51602061583c5f395f51905f526020908152604080832033845290915290205460ff16156152e45750565b63e2517d3f60e01b5f523360045260245260445ffd5b805f52600a60205260405f2060ff600b82015416156153fd57600a01906005825410156153fd57805f52600d60205260405f208054925f5b848110615340575050505050565b835f52600c60205260405f206153568285614dc5565b905460039190911b1c6001600160a01b03165f90815260209190915260409020601001805460081c60ff1660068110156135f95760011461539a5750600101615332565b805461ff00191661020017905581549394506153c493909291906153bd90614f4f565b9055614dc5565b905460039190911b1c6001600160a01b0316907f398d4fa7456c76c234244c18915a0bcf7e13c5c22a51bb39f6c459c5821cff9a5f80a3565b5050565b6001600160a01b0381165f9081525f5160206157dc5f395f51905f52602052604090205460ff16615472576001600160a01b03165f8181525f5160206157dc5f395f51905f5260205260408120805460ff191660011790553391905f51602061575c5f395f51905f528180a4600190565b505f90565b6001600160a01b0381165f9081525f5160206157bc5f395f51905f52602052604090205460ff16615472576001600160a01b03165f8181525f5160206157bc5f395f51905f5260205260408120805460ff191660011790553391905f51602061589c5f395f51905f52905f51602061575c5f395f51905f529080a4600190565b6001600160a01b0381165f9081525f51602061579c5f395f51905f52602052604090205460ff16615472576001600160a01b03165f8181525f51602061579c5f395f51905f5260205260408120805460ff191660011790553391905f51602061581c5f395f51905f52905f51602061575c5f395f51905f529080a4600190565b5f8181525f51602061583c5f395f51905f52602090815260408083206001600160a01b038616845290915290205460ff16615602575f8181525f51602061583c5f395f51905f52602090815260408083206001600160a01b0395909516808452949091528120805460ff19166001179055339291905f51602061575c5f395f51905f529080a4600190565b50505f90565b5f8181525f51602061583c5f395f51905f52602090815260408083206001600160a01b038616845290915290205460ff1615615602575f8181525f51602061583c5f395f51905f52602090815260408083206001600160a01b0395909516808452949091528120805460ff19169055339291907ff6391f5c32d9c69d2a47ea670b442974b53935d1edc7fd64eb21e047a839171b9080a4600190565b60ff5f5160206158bc5f395f51905f525460401c16156156c057565b631afcd79f60e31b5f5260045ffd5b905f8091602081519101845af48080615748575b156157035750506040513d81523d5f602083013e60203d82010160405290565b1561572857639996b31560e01b5f9081526001600160a01b0391909116600452602490fd5b3d15615739576040513d5f823e3d90fd5b63d6bda27560e01b5f5260045ffd5b503d1515806156e35750813b15156156e356fe2f8788117e7eff1d82e926ec794901d17c78024a50270940304540a733656f0d76d8fe62a776f2ba870812fb313f1b8babb334fd7065692023f1323c6959f9197a1492cadb22452d254c71a9ef0c781c9f2d1c472dc5213a713c8769ea04d819b16e88c42fd4e48df2dd6a2eabd6bc9aec654ec170056b470819f8892cc6431cb7db2dd08fcb62d0c9e08c51941cae53c267786a0b75803fb7960902fc8ef97d360894a13ba1a3210667c828492db98dca3e2076cc3735a920a3ca505d382bbce4369475d33ca6555b45ac3cf081bee16c4b11779d89f812395c569b2de40f0102dd7bc7dec4dceedda775e58dd541e08a116c6c53815c0bd028192f7b626800cd5ed15c6e187e77e9aee88184c21f4f2182ab5827cb3b7e07fbedcd63f03300a8cb6f4d20ac92066aa6d101be3a0719bc73d16b0bb72bc4635413bf85be2792a49807205ce4d355092ef5a8a18f56e8913cf4a201fbe287825b095693c21775f0c57e16840df040f15088dc2f81fe391c3923bec73e23a9662efc9c229c6a00ba2dc669204b26427a432593e1c6ac86ab4ccc54d29c4287abbd1cefc1cb002ba2646970667358221220328a597e73f207954cdf730ca66a8ad3852dbaed7a8ef9052453f2540824312064736f6c634300081c0033f0c57e16840df040f15088dc2f81fe391c3923bec73e23a9662efc9c229c6a00",
  "linkReferences": {},
  "deployedLinkReferences": {},
  "immutableReferences": {
    "1408": [
      {
        "length": 32,
        "start": 9455
      },
      {
        "length": 32,
        "start": 9956
      }
    ]
  },
  "inputSourceName": "project/contracts/core/TransferEscrow.sol",
  "buildInfoId": "solc-0_8_28-ce3c3cd6dda037c08b6ded6d26330f4b91b36ef4"
}