{
  "_format": "hh3-artifact-1",
  "contractName": "TransferWindow",
  "sourceName": "contracts/core/TransferWindow.sol",
  "abi": [
    {
      "inputs": [],
      "stateMutability": "nonpayable",
      "type": "constructor"
    },
    {
      "inputs": [],
      "name": "AccessControlBadConfirmation",
      "type": "error"
    },
    {
      "inputs": [
        {
          "internalType": "address",
          "name": "account",
          "type": "address"
        },
        {
          "internalType": "bytes32",
          "name": "neededRole",
          "type": "bytes32"
        }
      ],
      "name": "AccessControlUnauthorizedAccount",
      "type": "error"
    },
    {
      "inputs": [],
      "name": "EnforcedPause",
      "type": "error"
    },
    {
      "inputs": [],
      "name": "ExpectedPause",
      "type": "error"
    },
    {
      "inputs": [],
      "name": "ExtensionBeforeClose",
      "type": "error"
    },
    {
      "inputs": [],
      "name": "ExtensionTooLong",
      "type": "error"
    },
    {
      "inputs": [],
      "name": "InvalidString",
      "type": "error"
    },
    {
      "inputs": [],
      "name": "InvalidWindowTimes",
      "type": "error"
    },
    {
      "inputs": [],
      "name": "NoActiveWindow",
      "type": "error"
    },
    {
      "inputs": [],
      "name": "PositionNotAllowedInEmergencyWindow",
      "type": "error"
    },
    {
      "inputs": [],
      "name": "ScheduleTooFarAhead",
      "type": "error"
    },
    {
      "inputs": [],
      "name": "WindowAlreadyClosed",
      "type": "error"
    },
    {
      "inputs": [],
      "name": "WindowAlreadyOpen",
      "type": "error"
    },
    {
      "inputs": [],
      "name": "WindowAlreadySuspended",
      "type": "error"
    },
    {
      "inputs": [],
      "name": "WindowNotFound",
      "type": "error"
    },
    {
      "inputs": [],
      "name": "WindowNotOpen",
      "type": "error"
    },
    {
      "inputs": [
        {
          "internalType": "enum TransferWindow.WindowType",
          "name": "required",
          "type": "uint8"
        },
        {
          "internalType": "enum TransferWindow.WindowType",
          "name": "actual",
          "type": "uint8"
        }
      ],
      "name": "WindowNotOpenForType",
      "type": "error"
    },
    {
      "inputs": [],
      "name": "WindowNotSuspended",
      "type": "error"
    },
    {
      "inputs": [],
      "name": "WindowOverlap",
      "type": "error"
    },
    {
      "inputs": [],
      "name": "WindowTooLong",
      "type": "error"
    },
    {
      "anonymous": false,
      "inputs": [
        {
          "indexed": true,
          "internalType": "uint256",
          "name": "windowId",
          "type": "uint256"
        }
      ],
      "name": "ActiveWindowAdvanced",
      "type": "event"
    },
    {
      "anonymous": false,
      "inputs": [
        {
          "indexed": false,
          "internalType": "address",
          "name": "account",
          "type": "address"
        }
      ],
      "name": "Paused",
      "type": "event"
    },
    {
      "anonymous": false,
      "inputs": [
        {
          "indexed": true,
          "internalType": "bytes32",
          "name": "role",
          "type": "bytes32"
        },
        {
          "indexed": true,
          "internalType": "bytes32",
          "name": "previousAdminRole",
          "type": "bytes32"
        },
        {
          "indexed": true,
          "internalType": "bytes32",
          "name": "newAdminRole",
          "type": "bytes32"
        }
      ],
      "name": "RoleAdminChanged",
      "type": "event"
    },
    {
      "anonymous": false,
      "inputs": [
        {
          "indexed": true,
          "internalType": "bytes32",
          "name": "role",
          "type": "bytes32"
        },
        {
          "indexed": true,
          "internalType": "address",
          "name": "account",
          "type": "address"
        },
        {
          "indexed": true,
          "internalType": "address",
          "name": "sender",
          "type": "address"
        }
      ],
      "name": "RoleGranted",
      "type": "event"
    },
    {
      "anonymous": false,
      "inputs": [
        {
          "indexed": true,
          "internalType": "bytes32",
          "name": "role",
          "type": "bytes32"
        },
        {
          "indexed": true,
          "internalType": "address",
          "name": "account",
          "type": "address"
        },
        {
          "indexed": true,
          "internalType": "address",
          "name": "sender",
          "type": "address"
        }
      ],
      "name": "RoleRevoked",
      "type": "event"
    },
    {
      "anonymous": false,
      "inputs": [
        {
          "indexed": false,
          "internalType": "address",
          "name": "account",
          "type": "address"
        }
      ],
      "name": "Unpaused",
      "type": "event"
    },
    {
      "anonymous": false,
      "inputs": [
        {
          "indexed": true,
          "internalType": "uint256",
          "name": "windowId",
          "type": "uint256"
        }
      ],
      "name": "WindowCancelled",
      "type": "event"
    },
    {
      "anonymous": false,
      "inputs": [
        {
          "indexed": true,
          "internalType": "uint256",
          "name": "windowId",
          "type": "uint256"
        },
        {
          "indexed": false,
          "internalType": "uint256",
          "name": "newClosesAt",
          "type": "uint256"
        }
      ],
      "name": "WindowExtended",
      "type": "event"
    },
    {
      "anonymous": false,
      "inputs": [
        {
          "indexed": true,
          "internalType": "uint256",
          "name": "windowId",
          "type": "uint256"
        }
      ],
      "name": "WindowResumed",
      "type": "event"
    },
    {
      "anonymous": false,
      "inputs": [
        {
          "indexed": true,
          "internalType": "uint256",
          "name": "windowId",
          "type": "uint256"
        },
        {
          "indexed": false,
          "internalType": "string",
          "name": "label",
          "type": "string"
        },
        {
          "indexed": false,
          "internalType": "uint256",
          "name": "opensAt",
          "type": "uint256"
        },
        {
          "indexed": false,
          "internalType": "uint256",
          "name": "closesAt",
          "type": "uint256"
        },
        {
          "indexed": false,
          "internalType": "enum TransferWindow.WindowType",
          "name": "windowType",
          "type": "uint8"
        }
      ],
      "name": "WindowScheduled",
      "type": "event"
    },
    {
      "anonymous": false,
      "inputs": [
        {
          "indexed": true,
          "internalType": "uint256",
          "name": "windowId",
          "type": "uint256"
        }
      ],
      "name": "WindowSuspended",
      "type": "event"
    },
    {
      "inputs": [],
      "name": "ADMIN_ROLE",
      "outputs": [
        {
          "internalType": "bytes32",
          "name": "",
          "type": "bytes32"
        }
      ],
      "stateMutability": "view",
      "type": "function"
    },
    {
      "inputs": [],
      "name": "DEFAULT_ADMIN_ROLE",
      "outputs": [
        {
          "internalType": "bytes32",
          "name": "",
          "type": "bytes32"
        }
      ],
      "stateMutability": "view",
      "type": "function"
    },
    {
      "inputs": [],
      "name": "MAX_EMERGENCY_DURATION",
      "outputs": [
        {
          "internalType": "uint256",
          "name": "",
          "type": "uint256"
        }
      ],
      "stateMutability": "view",
      "type": "function"
    },
    {
      "inputs": [],
      "name": "MAX_EXCEPTIONAL_DURATION",
      "outputs": [
        {
          "internalType": "uint256",
          "name": "",
          "type": "uint256"
        }
      ],
      "stateMutability": "view",
      "type": "function"
    },
    {
      "inputs": [],
      "name": "MAX_SCHEDULE_AHEAD",
      "outputs": [
        {
          "internalType": "uint256",
          "name": "",
          "type": "uint256"
        }
      ],
      "stateMutability": "view",
      "type": "function"
    },
    {
      "inputs": [],
      "name": "MAX_STANDARD_DURATION",
      "outputs": [
        {
          "internalType": "uint256",
          "name": "",
          "type": "uint256"
        }
      ],
      "stateMutability": "view",
      "type": "function"
    },
    {
      "inputs": [],
      "name": "MIN_WINDOW_GAP",
      "outputs": [
        {
          "internalType": "uint256",
          "name": "",
          "type": "uint256"
        }
      ],
      "stateMutability": "view",
      "type": "function"
    },
    {
      "inputs": [],
      "name": "activeWindowId",
      "outputs": [
        {
          "internalType": "uint256",
          "name": "",
          "type": "uint256"
        }
      ],
      "stateMutability": "view",
      "type": "function"
    },
    {
      "inputs": [],
      "name": "advanceActiveWindow",
      "outputs": [],
      "stateMutability": "nonpayable",
      "type": "function"
    },
    {
      "inputs": [
        {
          "internalType": "uint256",
          "name": "windowId",
          "type": "uint256"
        }
      ],
      "name": "cancelWindow",
      "outputs": [],
      "stateMutability": "nonpayable",
      "type": "function"
    },
    {
      "inputs": [
        {
          "internalType": "uint256",
          "name": "windowId",
          "type": "uint256"
        },
        {
          "internalType": "uint256",
          "name": "newClosesAt",
          "type": "uint256"
        }
      ],
      "name": "extendWindow",
      "outputs": [],
      "stateMutability": "nonpayable",
      "type": "function"
    },
    {
      "inputs": [],
      "name": "getActiveWindow",
      "outputs": [
        {
          "components": [
            {
              "internalType": "uint256",
              "name": "id",
              "type": "uint256"
            },
            {
              "internalType": "string",
              "name": "label",
              "type": "string"
            },
            {
              "internalType": "uint256",
              "name": "opensAt",
              "type": "uint256"
            },
            {
              "internalType": "uint256",
              "name": "closesAt",
              "type": "uint256"
            },
            {
              "internalType": "enum TransferWindow.WindowType",
              "name": "windowType",
              "type": "uint8"
            },
            {
              "internalType": "bool",
              "name": "suspended",
              "type": "bool"
            },
            {
              "internalType": "bool",
              "name": "exists",
              "type": "bool"
            }
          ],
          "internalType": "struct TransferWindow.Window",
          "name": "",
          "type": "tuple"
        }
      ],
      "stateMutability": "view",
      "type": "function"
    },
    {
      "inputs": [],
      "name": "getAllWindowIds",
      "outputs": [
        {
          "internalType": "uint256[]",
          "name": "",
          "type": "uint256[]"
        }
      ],
      "stateMutability": "view",
      "type": "function"
    },
    {
      "inputs": [],
      "name": "getCurrentWindowType",
      "outputs": [
        {
          "internalType": "enum TransferWindow.WindowType",
          "name": "",
          "type": "uint8"
        }
      ],
      "stateMutability": "view",
      "type": "function"
    },
    {
      "inputs": [
        {
          "internalType": "bytes32",
          "name": "role",
          "type": "bytes32"
        }
      ],
      "name": "getRoleAdmin",
      "outputs": [
        {
          "internalType": "bytes32",
          "name": "",
          "type": "bytes32"
        }
      ],
      "stateMutability": "view",
      "type": "function"
    },
    {
      "inputs": [
        {
          "internalType": "uint256",
          "name": "windowId",
          "type": "uint256"
        }
      ],
      "name": "getWindow",
      "outputs": [
        {
          "components": [
            {
              "internalType": "uint256",
              "name": "id",
              "type": "uint256"
            },
            {
              "internalType": "string",
              "name": "label",
              "type": "string"
            },
            {
              "internalType": "uint256",
              "name": "opensAt",
              "type": "uint256"
            },
            {
              "internalType": "uint256",
              "name": "closesAt",
              "type": "uint256"
            },
            {
              "internalType": "enum TransferWindow.WindowType",
              "name": "windowType",
              "type": "uint8"
            },
            {
              "internalType": "bool",
              "name": "suspended",
              "type": "bool"
            },
            {
              "internalType": "bool",
              "name": "exists",
              "type": "bool"
            }
          ],
          "internalType": "struct TransferWindow.Window",
          "name": "",
          "type": "tuple"
        }
      ],
      "stateMutability": "view",
      "type": "function"
    },
    {
      "inputs": [
        {
          "internalType": "bytes32",
          "name": "role",
          "type": "bytes32"
        },
        {
          "internalType": "address",
          "name": "account",
          "type": "address"
        }
      ],
      "name": "grantRole",
      "outputs": [],
      "stateMutability": "nonpayable",
      "type": "function"
    },
    {
      "inputs": [
        {
          "internalType": "bytes32",
          "name": "role",
          "type": "bytes32"
        },
        {
          "internalType": "address",
          "name": "account",
          "type": "address"
        }
      ],
      "name": "hasRole",
      "outputs": [
        {
          "internalType": "bool",
          "name": "",
          "type": "bool"
        }
      ],
      "stateMutability": "view",
      "type": "function"
    },
    {
      "inputs": [],
      "name": "isWindowOpen",
      "outputs": [
        {
          "internalType": "bool",
          "name": "",
          "type": "bool"
        }
      ],
      "stateMutability": "view",
      "type": "function"
    },
    {
      "inputs": [
        {
          "internalType": "enum TransferWindow.WindowType",
          "name": "windowType",
          "type": "uint8"
        }
      ],
      "name": "isWindowOpenForType",
      "outputs": [
        {
          "internalType": "bool",
          "name": "",
          "type": "bool"
        }
      ],
      "stateMutability": "view",
      "type": "function"
    },
    {
      "inputs": [],
      "name": "pause",
      "outputs": [],
      "stateMutability": "nonpayable",
      "type": "function"
    },
    {
      "inputs": [],
      "name": "paused",
      "outputs": [
        {
          "internalType": "bool",
          "name": "",
          "type": "bool"
        }
      ],
      "stateMutability": "view",
      "type": "function"
    },
    {
      "inputs": [
        {
          "internalType": "bytes32",
          "name": "role",
          "type": "bytes32"
        },
        {
          "internalType": "address",
          "name": "callerConfirmation",
          "type": "address"
        }
      ],
      "name": "renounceRole",
      "outputs": [],
      "stateMutability": "nonpayable",
      "type": "function"
    },
    {
      "inputs": [
        {
          "internalType": "uint256",
          "name": "windowId",
          "type": "uint256"
        }
      ],
      "name": "resumeWindow",
      "outputs": [],
      "stateMutability": "nonpayable",
      "type": "function"
    },
    {
      "inputs": [
        {
          "internalType": "bytes32",
          "name": "role",
          "type": "bytes32"
        },
        {
          "internalType": "address",
          "name": "account",
          "type": "address"
        }
      ],
      "name": "revokeRole",
      "outputs": [],
      "stateMutability": "nonpayable",
      "type": "function"
    },
    {
      "inputs": [
        {
          "internalType": "string",
          "name": "label",
          "type": "string"
        },
        {
          "internalType": "uint256",
          "name": "opensAt",
          "type": "uint256"
        },
        {
          "internalType": "uint256",
          "name": "closesAt",
          "type": "uint256"
        },
        {
          "internalType": "enum TransferWindow.WindowType",
          "name": "windowType",
          "type": "uint8"
        }
      ],
      "name": "scheduleWindow",
      "outputs": [
        {
          "internalType": "uint256",
          "name": "windowId",
          "type": "uint256"
        }
      ],
      "stateMutability": "nonpayable",
      "type": "function"
    },
    {
      "inputs": [
        {
          "internalType": "bytes4",
          "name": "interfaceId",
          "type": "bytes4"
        }
      ],
      "name": "supportsInterface",
      "outputs": [
        {
          "internalType": "bool",
          "name": "",
          "type": "bool"
        }
      ],
      "stateMutability": "view",
      "type": "function"
    },
    {
      "inputs": [
        {
          "internalType": "uint256",
          "name": "windowId",
          "type": "uint256"
        }
      ],
      "name": "suspendWindow",
      "outputs": [],
      "stateMutability": "nonpayable",
      "type": "function"
    },
    {
      "inputs": [],
      "name": "totalWindows",
      "outputs": [
        {
          "internalType": "uint256",
          "name": "",
          "type": "uint256"
        }
      ],
      "stateMutability": "view",
      "type": "function"
    },
    {
      "inputs": [],
      "name": "unpause",
      "outputs": [],
      "stateMutability": "nonpayable",
      "type": "function"
    }
  ],
  "bytecode": "0x60806040523461002c5761001233610030565b5061001c336100a6565b506040516116ab908161013a8239f35b5f80fd5b6001600160a01b0381165f9081525f5160206118255f395f51905f52602052604090205460ff166100a1576001600160a01b03165f8181525f5160206118255f395f51905f5260205260408120805460ff191660011790553391905f5160206117e55f395f51905f528180a4600190565b505f90565b6001600160a01b0381165f9081525f5160206118055f395f51905f52602052604090205460ff166100a1576001600160a01b03165f8181525f5160206118055f395f51905f5260205260408120805460ff191660011790553391907fa49807205ce4d355092ef5a8a18f56e8913cf4a201fbe287825b095693c21775905f5160206117e55f395f51905f529080a460019056fe6080806040526004361015610012575f80fd5b5f3560e01c90816301ffc9a714610d995750806314a4cdc214610d70578063248a9ca314610d4a5780632ee70dc314610cfc5780632f2ff15d14610cd9578063358296b114610cbc57806336568abe14610c865780633f4ba83a14610c2057806355a14b0b14610b895780635614515914610b5e5780635c975abb14610b3c57806375b238fc14610b155780638456cb5914610abd5780638cf8b27514610a9557806391d1485414610a5a57806393cbf80d146109cb578063968116871461092e5780639ddf6a8c146109115780639efffd6a146108f1578063a217fddf146108d7578063abcb0689146108ba578063b7ad24321461089d578063d12c8e0a14610879578063d547741f1461084f578063d806bd2b14610831578063db56b87d146106f3578063e083753e146106d6578063eb126ad714610220578063ebee7960146102035763f0bbedeb14610166575f80fd5b346101ff575f3660031901126101ff576040518060206005549283815201809260055f5260205f20905f5b8181106101e957505050816101a7910382610ff2565b604051918291602083019060208452518091526040830191905f5b8181106101d0575050500390f35b82518452859450602093840193909201916001016101c2565b8254845260209093019260019283019201610191565b5f80fd5b346101ff575f3660031901126101ff5760206040516276a7008152f35b346101ff5760803660031901126101ff576004356001600160401b0381116101ff57366023820112156101ff5760048101356001600160401b0381116101ff57602482019160248236920101116101ff57602435906044356064359160038310156101ff5761028d61149e565b61029561163a565b801580156106cc575b6106bd57428411156106ae57838211156106ae576301e1338042018042116105be57841161069f576102d08483611491565b831580610693575b61066b576001841480610687575b61066b5760028414908161067a575b5061066b576005545f5b8181106105d25750506002545f1981146105be5760010193846002556040519561032887610fd7565b858752601f19601f8401169660405161034460208a0182610ff2565b848152848360208301375f6020868301015260208201908152604082018481526060830192878452608081019361037b8a86611084565b60a08201925f845260c0830194600186528c5f52600460205260405f209351845560018401905180519060018060401b0382116104dd576103bc835461104c565b601f8111610579575b50602090601f83116001146105105760049695949392915f9183610505575b50508160011b915f199060031b1c19161790555b51600283015551600382015501925160038110156104f15783549151925162ffffff1990921660ff919091161791151560081b61ff00169190911790151560101b62ff00001617905560055496600160401b8810156104dd576104cf87967f922073d57b381cd80a4c0621aed79c235f76a9b3c5b9f163d0ee1480646d2f199660a09561048d8c600160209e01600555610e99565b81549060031b908c821b915f19901b19161790555f87896040519a8b9960808b528160808c0152838b0137880101528b86015260408501526060840190610dec565b8101030190a2604051908152f35b634e487b7160e01b5f52604160045260245ffd5b634e487b7160e01b5f52602160045260245ffd5b015190505f806103e4565b90601f19831691845f52815f20925f5b818110610561575091600193918560049a999897969410610549575b505050811b0190556103f8565b01515f1960f88460031b161c191690555f808061053c565b92936020600181928786015181550195019301610520565b835f5260205f20601f840160051c810191602085106105b4575b601f0160051c01905b8181106105a957506103c5565b5f815560010161059c565b9091508190610593565b634e487b7160e01b5f52601160045260245ffd5b6105db81610e99565b90549060031b1c5f52600460205260405f2060ff600482015460101c161561066257600381015442811115610658576201518081018091116105be578710908161063e575b5061062f576001905b016102ff565b6362265b8760e01b5f5260045ffd5b62015180860191508186116105be57600201541088610620565b5050600190610629565b50600190610629565b63d848c5a160e01b5f5260045ffd5b62093a80915011866102f5565b50620d2f0081116102e6565b506276a70081116102d8565b6317d307fb60e01b5f5260045ffd5b63abdbdf0760e01b5f5260045ffd5b630ec0325960e21b5f5260045ffd5b506040811161029e565b346101ff575f3660031901126101ff576020604051620d2f008152f35b346101ff5760403660031901126101ff5760043560243561071261149e565b815f52600460205260405f20600481015460ff8160101c1615610822576002820154918242106108135760030191825480421015610804578411156107f55761075d60ff9185611491565b911660038110156104f1578015806107e9575b6107c15760018114806107dd575b6107c15760021490816107d0575b506107c157817f7962d305a24b5bb935c5c8458cbb9bb55cb6543f0d60c78b0e7aeb71a559a4239260209255604051908152a2005b630cfa6d6d60e01b5f5260045ffd5b62093a809150118461078c565b50620d2f00821161077e565b506276a7008211610770565b630290314360e41b5f5260045ffd5b63736a472d60e01b5f5260045ffd5b6389de570360e01b5f5260045ffd5b6333f7610760e21b5f5260045ffd5b346101ff575f3660031901126101ff5760206040516301e133808152f35b346101ff5761087761086036610e73565b9061087261086d82610fc6565b6114fa565b6115ba565b005b346101ff575f3660031901126101ff576020610893611391565b6040519015158152f35b346101ff575f3660031901126101ff576020600254604051908152f35b346101ff575f3660031901126101ff576020600354604051908152f35b346101ff575f3660031901126101ff5760206040515f8152f35b346101ff575f3660031901126101ff5761090961149e565b6108776112dc565b346101ff575f3660031901126101ff576020604051620151808152f35b346101ff5760203660031901126101ff5760043561094a61149e565b805f52600460205260405f20600481019081549060ff8260101c1615610822576002810154421061081357600301544210156108045760ff8160081c166109bc5761ff0019166101001790557fa2ce567d41cea5be38ab3a380c4c2efea373c4825bed18cb7a2b4c614a29e51b5f80a2005b63dc820dc560e01b5f5260045ffd5b346101ff5760203660031901126101ff576004356109e761149e565b805f52600460205260405f20600481019081549060ff8260101c16156108225760ff8260081c1615610a4b57600301544210156108045761ff00191690557fc348efe287f18f2a340aa53c3cd615c98e3d13219289715bca88bb9324355f595f80a2005b63017cc23f60e41b5f5260045ffd5b346101ff57610a6836610e73565b905f525f60205260405f209060018060a01b03165f52602052602060ff60405f2054166040519015158152f35b346101ff5760203660031901126101ff5760043560038110156101ff5761089360209161122f565b346101ff575f3660031901126101ff57610ad561149e565b610add61163a565b600160ff19815416176001557f62e78cea01bee320cd4e420270b5ea74000d11b0c9f74754ebdbfc544b05a2586020604051338152a1005b346101ff575f3660031901126101ff5760206040515f5160206116565f395f51905f528152f35b346101ff575f3660031901126101ff57602060ff600154166040519015158152f35b346101ff575f3660031901126101ff57610b85610b79611189565b60405191829182610df9565b0390f35b346101ff5760203660031901126101ff57600435610ba561149e565b805f52600460205260405f20600481019081549060ff8260101c16156108225760020154421015610c115762ff0000191690556003548114610c08575b7f689b1a53f81c7d2e1671bd32c4986c3d6d0b47f2086b47aaa555fbed00ad3a265f80a2005b5f600355610be2565b635bf89e4b60e01b5f5260045ffd5b346101ff575f3660031901126101ff57610c3861149e565b60015460ff811615610c775760ff19166001557f5db9ee0a495bf2e6ff9c91a7834c1ba4fdd244a5e8aa4e537bd38aeae4b073aa6020604051338152a1005b638dfc202b60e01b5f5260045ffd5b346101ff57610c9436610e73565b336001600160a01b03821603610cad57610877916115ba565b63334bd91960e11b5f5260045ffd5b346101ff575f3660031901126101ff57602060405162093a808152f35b346101ff57610877610cea36610e73565b90610cf761086d82610fc6565b611532565b346101ff5760203660031901126101ff57600435610d18611015565b50805f52600460205260ff600460405f20015460101c1615610822575f526004602052610b85610b7960405f20611090565b346101ff5760203660031901126101ff576020610d68600435610fc6565b604051908152f35b346101ff575f3660031901126101ff576020610d8a610ec5565b610d976040518092610dec565bf35b346101ff5760203660031901126101ff576004359063ffffffff60e01b82168092036101ff57602091637965db0b60e01b8114908115610ddb575b5015158152f35b6301ffc9a760e01b14905083610dd4565b9060038210156104f15752565b602060c0610120938284528051838501528281015160e06040860152805193849182610100880152018686015e5f8584860101526040810151606085015260608101516080850152610e53608082015160a0860190610dec565b60a08101511515848301520151151560e0830152601f01601f1916010190565b60409060031901126101ff57600435906024356001600160a01b03811681036101ff5790565b600554811015610eb15760055f5260205f2001905f90565b634e487b7160e01b5f52603260045260245ffd5b60035480610f62575b506005545f5b818110610eea576303e34d1160e51b5f5260045ffd5b610ef381610e99565b90549060031b1c5f52600460205260405f2060048101549060ff8260101c1615610f585760ff8260081c16610f585760028101544210159081610f4a575b50610f4157506001905b01610ed4565b60ff1692915050565b60039150015442105f610f31565b5050600190610f3b565b5f52600460205260405f2060048101549060ff8260101c169081610fb6575b81610fa7575b81610f99575b5015610ece5760ff1690565b60039150015442105f610f8d565b60028101544210159150610f87565b905060ff8260081c161590610f81565b5f525f602052600160405f20015490565b60e081019081106001600160401b038211176104dd57604052565b601f909101601f19168101906001600160401b038211908210176104dd57604052565b6040519061102282610fd7565b5f60c083828152606060208201528260408201528260608201528260808201528260a08201520152565b90600182811c9216801561107a575b602083101461106657565b634e487b7160e01b5f52602260045260245ffd5b91607f169161105b565b60038210156104f15752565b9060405161109d81610fd7565b80928054825260018101604051905f908054906110b98261104c565b80855291600181169081156111645750600114611129575b505060c092826110e760ff946004940382610ff2565b60208601526002810154604086015260038101546060860152015461111182821660808601611084565b818160081c16151560a085015260101c161515910152565b5f908152602081209092505b81831061114a575050810160200182826110d1565b600181602092949394548385880101520191019190611135565b60ff191660208087019190915292151560051b850190920192508491508390506110d1565b611191611015565b506005545f5b8181106111ad576303e34d1160e51b5f5260045ffd5b6111b681610e99565b90549060031b1c5f52600460205260405f20600481015460ff8160101c16156112255760081c60ff1661121c5760028101544210158061120f575b61120057506001905b01611197565b905061120c9150611090565b90565b50600381015442106111f1565b506001906111fa565b50506001906111fa565b600554905f5b828110611243575050505f90565b61124c81610e99565b90549060031b1c5f52600460205260405f20600481015460ff8160101c16156112d25760ff8160081c166112d25760ff1660038410156104f15760038110156104f15783036112c957600281015442101590816112bb575b506112b3576001905b01611235565b505050600190565b60039150015442105f6112a4565b506001906112ad565b50506001906112ad565b6005545f5b8181106112f05750505f600355565b6112f981610e99565b90549060031b1c5f52600460205260405f20600481015460ff8160101c16156113875760081c60ff1661137e57600281015442101580611371575b61134357506001905b016112e1565b91505054806003557f55a5f350446b5c990c9b011262f27ad89dc68feb28ed4a81323125cad13adf755f80a2565b5060038101544210611334565b5060019061133d565b505060019061133d565b60035480611429575b506005545f5b8181106113ad5750505f90565b6113b681610e99565b90549060031b1c5f52600460205260405f20600481015460ff8160101c161561141f5760081c60ff166114165760028101544210159081611408575b50611401576001905b016113a0565b5050600190565b60039150015442105f6113f2565b506001906113fb565b50506001906113fb565b5f52600460205260405f2060048101549060ff8260101c169182611482575b5081611473575b81611465575b50611460575f61139a565b600190565b60039150015442105f611455565b6002810154421015915061144f565b60081c60ff161591505f611448565b919082039182116105be57565b335f9081527f7d7ffb7a348e1c6a02869081a26547b49160dd3df72d1d75a570eb9b698292ec602052604090205460ff16156114d657565b63e2517d3f60e01b5f52336004525f5160206116565f395f51905f5260245260445ffd5b5f8181526020818152604080832033845290915290205460ff161561151c5750565b63e2517d3f60e01b5f523360045260245260445ffd5b5f818152602081815260408083206001600160a01b038616845290915290205460ff166115b4575f818152602081815260408083206001600160a01b0395909516808452949091528120805460ff19166001179055339291907f2f8788117e7eff1d82e926ec794901d17c78024a50270940304540a733656f0d9080a4600190565b50505f90565b5f818152602081815260408083206001600160a01b038616845290915290205460ff16156115b4575f818152602081815260408083206001600160a01b0395909516808452949091528120805460ff19169055339291907ff6391f5c32d9c69d2a47ea670b442974b53935d1edc7fd64eb21e047a839171b9080a4600190565b60ff6001541661164657565b63d93c066560e01b5f5260045ffdfea49807205ce4d355092ef5a8a18f56e8913cf4a201fbe287825b095693c21775a264697066735822122006cfb638e0ab4c4c03149e105e4c6bb0d9f7e0b30b76b70615aae9643fbde37f64736f6c634300081c00332f8788117e7eff1d82e926ec794901d17c78024a50270940304540a733656f0d7d7ffb7a348e1c6a02869081a26547b49160dd3df72d1d75a570eb9b698292ecad3228b676f7d3cd4284a5443f17f1962b36e491b30a40b2405849e597ba5fb5",
  "linkReferences": {},
  "deployedLinkReferences": {},
  "immutableReferences": {},
  "inputSourceName": "project/contracts/core/TransferWindow.sol",
  "buildInfoId": "solc-0_8_28-66dacbb9b58248588fe18a333966fb32face5edb"
}