{
  "_format": "hh3-artifact-1",
  "contractName": "VerificationManager",
  "sourceName": "contracts/core/VerificationManager.sol",
  "abi": [
    {
      "inputs": [
        {
          "internalType": "address",
          "name": "registry_",
          "type": "address"
        },
        {
          "internalType": "address",
          "name": "admin_",
          "type": "address"
        }
      ],
      "stateMutability": "nonpayable",
      "type": "constructor"
    },
    {
      "inputs": [
        {
          "internalType": "uint256",
          "name": "playerId",
          "type": "uint256"
        },
        {
          "internalType": "address",
          "name": "caller",
          "type": "address"
        },
        {
          "internalType": "address",
          "name": "expected",
          "type": "address"
        }
      ],
      "name": "CallerIsNotAssignedRegistrar",
      "type": "error"
    },
    {
      "inputs": [
        {
          "internalType": "uint256",
          "name": "playerId",
          "type": "uint256"
        },
        {
          "internalType": "address",
          "name": "caller",
          "type": "address"
        }
      ],
      "name": "CallerIsNotPlayerClub",
      "type": "error"
    },
    {
      "inputs": [
        {
          "internalType": "uint256",
          "name": "provided",
          "type": "uint256"
        },
        {
          "internalType": "uint256",
          "name": "max",
          "type": "uint256"
        }
      ],
      "name": "FeeTooHigh",
      "type": "error"
    },
    {
      "inputs": [],
      "name": "InvalidRejectionReason",
      "type": "error"
    },
    {
      "inputs": [
        {
          "internalType": "uint256",
          "name": "playerId",
          "type": "uint256"
        }
      ],
      "name": "LegalAlreadyVerifiedInRequest",
      "type": "error"
    },
    {
      "inputs": [
        {
          "internalType": "uint256",
          "name": "playerId",
          "type": "uint256"
        }
      ],
      "name": "LegalDocsNotSubmitted",
      "type": "error"
    },
    {
      "inputs": [
        {
          "internalType": "uint256",
          "name": "playerId",
          "type": "uint256"
        }
      ],
      "name": "LegalDocsNotVerifiedInRequest",
      "type": "error"
    },
    {
      "inputs": [
        {
          "internalType": "uint256",
          "name": "playerId",
          "type": "uint256"
        }
      ],
      "name": "MedicalAlreadyVerifiedInRequest",
      "type": "error"
    },
    {
      "inputs": [
        {
          "internalType": "uint256",
          "name": "playerId",
          "type": "uint256"
        }
      ],
      "name": "MedicalNotSubmitted",
      "type": "error"
    },
    {
      "inputs": [
        {
          "internalType": "uint256",
          "name": "playerId",
          "type": "uint256"
        }
      ],
      "name": "MedicalNotVerifiedInRequest",
      "type": "error"
    },
    {
      "inputs": [
        {
          "internalType": "uint256",
          "name": "playerId",
          "type": "uint256"
        }
      ],
      "name": "NoActiveVerificationRequest",
      "type": "error"
    },
    {
      "inputs": [],
      "name": "NotAdmin",
      "type": "error"
    },
    {
      "inputs": [
        {
          "internalType": "uint256",
          "name": "playerId",
          "type": "uint256"
        }
      ],
      "name": "PlayerAlreadyVerified",
      "type": "error"
    },
    {
      "inputs": [
        {
          "internalType": "uint256",
          "name": "playerId",
          "type": "uint256"
        }
      ],
      "name": "PlayerWalletNotSet",
      "type": "error"
    },
    {
      "inputs": [],
      "name": "ReentrancyGuardReentrantCall",
      "type": "error"
    },
    {
      "inputs": [
        {
          "internalType": "uint256",
          "name": "provided",
          "type": "uint256"
        },
        {
          "internalType": "uint256",
          "name": "maxAllowed",
          "type": "uint256"
        }
      ],
      "name": "RegistrarFeeTooHigh",
      "type": "error"
    },
    {
      "inputs": [
        {
          "internalType": "address",
          "name": "club",
          "type": "address"
        }
      ],
      "name": "RegistrarNotAssignedToClub",
      "type": "error"
    },
    {
      "inputs": [
        {
          "internalType": "address",
          "name": "registrar",
          "type": "address"
        }
      ],
      "name": "RegistrarNotRegistered",
      "type": "error"
    },
    {
      "inputs": [],
      "name": "RegistryPaused",
      "type": "error"
    },
    {
      "inputs": [
        {
          "internalType": "address",
          "name": "token",
          "type": "address"
        }
      ],
      "name": "SafeERC20FailedOperation",
      "type": "error"
    },
    {
      "inputs": [
        {
          "internalType": "uint256",
          "name": "playerId",
          "type": "uint256"
        }
      ],
      "name": "VerificationAlreadyActive",
      "type": "error"
    },
    {
      "inputs": [
        {
          "internalType": "uint256",
          "name": "playerId",
          "type": "uint256"
        },
        {
          "internalType": "uint256",
          "name": "adjustedDeadline",
          "type": "uint256"
        },
        {
          "internalType": "uint256",
          "name": "now_",
          "type": "uint256"
        }
      ],
      "name": "VerificationDeadlineNotPassed",
      "type": "error"
    },
    {
      "inputs": [],
      "name": "ZeroAddress",
      "type": "error"
    },
    {
      "anonymous": false,
      "inputs": [
        {
          "indexed": true,
          "internalType": "uint256",
          "name": "playerId",
          "type": "uint256"
        },
        {
          "indexed": true,
          "internalType": "address",
          "name": "registrar",
          "type": "address"
        },
        {
          "indexed": false,
          "internalType": "uint256",
          "name": "registrarAmount",
          "type": "uint256"
        },
        {
          "indexed": false,
          "internalType": "uint256",
          "name": "protocolAmount",
          "type": "uint256"
        }
      ],
      "name": "FeesDistributed",
      "type": "event"
    },
    {
      "anonymous": false,
      "inputs": [
        {
          "indexed": true,
          "internalType": "uint256",
          "name": "playerId",
          "type": "uint256"
        },
        {
          "indexed": true,
          "internalType": "address",
          "name": "registrar",
          "type": "address"
        }
      ],
      "name": "LegalDocumentsVerified",
      "type": "event"
    },
    {
      "anonymous": false,
      "inputs": [
        {
          "indexed": true,
          "internalType": "uint256",
          "name": "playerId",
          "type": "uint256"
        },
        {
          "indexed": true,
          "internalType": "address",
          "name": "registrar",
          "type": "address"
        }
      ],
      "name": "MedicalClearanceVerified",
      "type": "event"
    },
    {
      "anonymous": false,
      "inputs": [
        {
          "indexed": true,
          "internalType": "uint256",
          "name": "playerId",
          "type": "uint256"
        },
        {
          "indexed": true,
          "internalType": "address",
          "name": "registrar",
          "type": "address"
        }
      ],
      "name": "VerificationApproved",
      "type": "event"
    },
    {
      "anonymous": false,
      "inputs": [
        {
          "indexed": true,
          "internalType": "uint256",
          "name": "playerId",
          "type": "uint256"
        },
        {
          "indexed": true,
          "internalType": "address",
          "name": "club",
          "type": "address"
        },
        {
          "indexed": false,
          "internalType": "uint256",
          "name": "amount",
          "type": "uint256"
        }
      ],
      "name": "VerificationRefundClaimed",
      "type": "event"
    },
    {
      "anonymous": false,
      "inputs": [
        {
          "indexed": true,
          "internalType": "uint256",
          "name": "playerId",
          "type": "uint256"
        },
        {
          "indexed": true,
          "internalType": "address",
          "name": "registrar",
          "type": "address"
        },
        {
          "indexed": false,
          "internalType": "string",
          "name": "reason",
          "type": "string"
        }
      ],
      "name": "VerificationRejected",
      "type": "event"
    },
    {
      "anonymous": false,
      "inputs": [
        {
          "indexed": true,
          "internalType": "uint256",
          "name": "playerId",
          "type": "uint256"
        },
        {
          "indexed": true,
          "internalType": "address",
          "name": "club",
          "type": "address"
        },
        {
          "indexed": false,
          "internalType": "uint256",
          "name": "fee",
          "type": "uint256"
        },
        {
          "indexed": false,
          "internalType": "uint256",
          "name": "deadline",
          "type": "uint256"
        }
      ],
      "name": "VerificationRequested",
      "type": "event"
    },
    {
      "inputs": [],
      "name": "MAX_FEE",
      "outputs": [
        {
          "internalType": "uint256",
          "name": "",
          "type": "uint256"
        }
      ],
      "stateMutability": "view",
      "type": "function"
    },
    {
      "inputs": [],
      "name": "MAX_REGISTRAR_FEE_EXCESS",
      "outputs": [
        {
          "internalType": "uint256",
          "name": "",
          "type": "uint256"
        }
      ],
      "stateMutability": "view",
      "type": "function"
    },
    {
      "inputs": [],
      "name": "REGISTRAR_ROLE",
      "outputs": [
        {
          "internalType": "bytes32",
          "name": "",
          "type": "bytes32"
        }
      ],
      "stateMutability": "view",
      "type": "function"
    },
    {
      "inputs": [],
      "name": "VERIFICATION_TIMEOUT",
      "outputs": [
        {
          "internalType": "uint256",
          "name": "",
          "type": "uint256"
        }
      ],
      "stateMutability": "view",
      "type": "function"
    },
    {
      "inputs": [
        {
          "internalType": "uint256",
          "name": "playerId",
          "type": "uint256"
        }
      ],
      "name": "adjustedDeadline",
      "outputs": [
        {
          "internalType": "uint256",
          "name": "",
          "type": "uint256"
        }
      ],
      "stateMutability": "view",
      "type": "function"
    },
    {
      "inputs": [],
      "name": "admin",
      "outputs": [
        {
          "internalType": "address",
          "name": "",
          "type": "address"
        }
      ],
      "stateMutability": "view",
      "type": "function"
    },
    {
      "inputs": [
        {
          "internalType": "uint256",
          "name": "playerId",
          "type": "uint256"
        }
      ],
      "name": "claimVerificationRefund",
      "outputs": [],
      "stateMutability": "nonpayable",
      "type": "function"
    },
    {
      "inputs": [
        {
          "internalType": "uint256",
          "name": "playerId",
          "type": "uint256"
        }
      ],
      "name": "getVerificationRequest",
      "outputs": [
        {
          "components": [
            {
              "internalType": "uint256",
              "name": "feePaid",
              "type": "uint256"
            },
            {
              "internalType": "uint256",
              "name": "deadline",
              "type": "uint256"
            },
            {
              "internalType": "uint256",
              "name": "pauseSnapshot",
              "type": "uint256"
            },
            {
              "internalType": "bool",
              "name": "active",
              "type": "bool"
            }
          ],
          "internalType": "struct IPlayerRegistry.VerificationRequest",
          "name": "",
          "type": "tuple"
        }
      ],
      "stateMutability": "view",
      "type": "function"
    },
    {
      "inputs": [
        {
          "internalType": "uint256",
          "name": "playerId",
          "type": "uint256"
        }
      ],
      "name": "isLegalVerifiedInRequest",
      "outputs": [
        {
          "internalType": "bool",
          "name": "",
          "type": "bool"
        }
      ],
      "stateMutability": "view",
      "type": "function"
    },
    {
      "inputs": [
        {
          "internalType": "uint256",
          "name": "playerId",
          "type": "uint256"
        }
      ],
      "name": "isMedicalVerifiedInRequest",
      "outputs": [
        {
          "internalType": "bool",
          "name": "",
          "type": "bool"
        }
      ],
      "stateMutability": "view",
      "type": "function"
    },
    {
      "inputs": [],
      "name": "playerRegistry",
      "outputs": [
        {
          "internalType": "contract IPlayerRegistryForVerification",
          "name": "",
          "type": "address"
        }
      ],
      "stateMutability": "view",
      "type": "function"
    },
    {
      "inputs": [
        {
          "internalType": "uint256",
          "name": "playerId",
          "type": "uint256"
        },
        {
          "internalType": "string",
          "name": "reason",
          "type": "string"
        }
      ],
      "name": "rejectVerification",
      "outputs": [],
      "stateMutability": "nonpayable",
      "type": "function"
    },
    {
      "inputs": [
        {
          "internalType": "uint256",
          "name": "playerId",
          "type": "uint256"
        }
      ],
      "name": "requestVerification",
      "outputs": [],
      "stateMutability": "nonpayable",
      "type": "function"
    },
    {
      "inputs": [
        {
          "internalType": "uint256",
          "name": "playerId",
          "type": "uint256"
        }
      ],
      "name": "resetPlayerWallet",
      "outputs": [],
      "stateMutability": "nonpayable",
      "type": "function"
    },
    {
      "inputs": [
        {
          "internalType": "address",
          "name": "newAdmin",
          "type": "address"
        }
      ],
      "name": "setAdmin",
      "outputs": [],
      "stateMutability": "nonpayable",
      "type": "function"
    },
    {
      "inputs": [
        {
          "internalType": "uint256",
          "name": "playerId",
          "type": "uint256"
        }
      ],
      "name": "verifyLegalDocuments",
      "outputs": [],
      "stateMutability": "nonpayable",
      "type": "function"
    },
    {
      "inputs": [
        {
          "internalType": "uint256",
          "name": "playerId",
          "type": "uint256"
        }
      ],
      "name": "verifyMedicalClearance",
      "outputs": [],
      "stateMutability": "nonpayable",
      "type": "function"
    },
    {
      "inputs": [
        {
          "internalType": "uint256",
          "name": "playerId",
          "type": "uint256"
        }
      ],
      "name": "verifyPlayer",
      "outputs": [],
      "stateMutability": "nonpayable",
      "type": "function"
    }
  ],
  "bytecode": "0x6080346100d457601f61221c38819003918201601f19168301916001600160401b038311848410176100d85780849260409485528339810103126100d457610052602061004b836100ec565b92016100ec565b60017f9b779b17422d0df92223018b32b4d1fa46e071723d6817e2486d003becc55f00556001600160a01b039091169081156100c5576001600160a01b03169081156100c55760018060a01b03195f5416175f5560018060a01b0319600154161760015560405161211b90816101018239f35b63d92e233d60e01b5f5260045ffd5b5f80fd5b634e487b7160e01b5f52604160045260245ffd5b51906001600160a01b03821682036100d45756fe6080806040526004361015610012575f80fd5b5f905f3560e01c9081630c020f0814611213575080630f368ac8146111e45780631e1d6e1d146111c657806322ccb4741461112f5780632c1b945e14610e525780632ed7545e14610c7d5780633354562214610c6057806349ef089b146107ae5780634c74ef9c146107875780635298d5051461057a578063570e783a14610553578063704b6c02146104e4578063704f0656146102925780639f75c81c14610186578063bc063e1a14610166578063e94b340714610137578063f68e95531461010f5763f851a440146100e4575f80fd5b3461010c578060031936011261010c576001546040516001600160a01b039091168152602090f35b80fd5b503461010c578060031936011261010c5760206040515f5160206120a65f395f51905f528152f35b503461010c57602036600319011261010c5760ff60406020926004358152600384522054166040519015158152f35b503461010c578060031936011261010c5760206040516402540be4008152f35b503461010c57602036600319011261010c576004359060018060a01b0381541691604051635c975abb60e01b8152602081600481875afa908115610287578391610249575b5061023a5781926101db82611d19565b803b15610236576040516306b9637960e51b81529183918391829084908290610209903390600484016119aa565b03925af1801561022b5761021a5750f35b8161022491611966565b61010c5780f35b6040513d84823e3d90fd5b5050fd5b6309148bcd60e21b8252600482fd5b90506020813d60201161027f575b8161026460209383611966565b8101031261027b5761027590611989565b5f6101cb565b8280fd5b3d9150610257565b6040513d85823e3d90fd5b503461010c57604036600319011261010c576024356004356001600160401b03821161027b573660238301121561027b576004820135916001600160401b0383116104e05736602484830101116104e0578354604051635c975abb60e01b815290602090829060049082906001600160a01b03165afa9081156104d557859161049b575b5061048c57610323611ce1565b82158015610481575b6104725761033982611d19565b81845260026020526040842090600382019182549260ff84161561045e5790869181549460ff191690555582855260036020526040852060ff19815416905582855260046020526040852060ff1981541690558460018060a01b03815416803b1561045a57818091604460405180948193631e08e2e960e01b83528a60048401528160248401525af1801561022b57610441575b50506103fc7f88dd5bfcd1480d8239680a502b1605b86fc91d0b0751a8793e970bd485c364cb92339085611e3d565b836024604051926020845282602085015201604083013784604085830101526040813395601f80199101168101030190a360015f5160206120c65f395f51905f525580f35b8161044b91611966565b61045657845f6103cd565b8480fd5b5080fd5b631f58ab4d60e11b87526004859052602487fd5b638e003d8560e01b8452600484fd5b50610200831161032c565b6309148bcd60e21b8452600484fd5b90506020813d6020116104cd575b816104b660209383611966565b81010312610456576104c790611989565b5f610316565b3d91506104a9565b6040513d87823e3d90fd5b8380fd5b503461010c57602036600319011261010c576004356001600160a01b0381169081900361045a576001546001600160a01b0381163303610544578115610535576001600160a01b0319161760015580f35b63d92e233d60e01b8352600483fd5b637bfa4b9f60e01b8352600483fd5b503461010c57602036600319011261010c576020610572600435611c3b565b604051908152f35b503461010c57602036600319011261010c578054604051635c975abb60e01b815260048035926001600160a01b03169190602090829081855afa90811561077c578491610742575b50610733576105d082611d19565b818352600260205260ff6003604085200154161561071f57818352600460205260ff60408420541661070b5760806024916040519283809263331e889560e11b82528660048301525afa9081156102875783916106dc575b5051156106ca57808252600460205260408220805460ff19166001179055815482906001600160a01b0316803b1561045a578160405180926354cf47dd60e11b825281838161067b338a600484016119aa565b03925af1801561022b576106b5575b505033907fed2c2ce3d8062cf2c584e4704b6b6c06054e976cdc006ae754859d9de41eb0a08380a380f35b816106bf91611966565b61045a57815f61068a565b6317ec538560e01b8252600452602490fd5b6106fe915060803d608011610704575b6106f68183611966565b810190611bbf565b5f610628565b503d6106ec565b6331f7de0560e01b83526004829052602483fd5b631f58ab4d60e11b83526004829052602483fd5b6309148bcd60e21b8352600483fd5b90506020813d602011610774575b8161075d60209383611966565b810103126104e05761076e90611989565b5f6105c2565b3d9150610750565b6040513d86823e3d90fd5b503461010c578060031936011261010c57546040516001600160a01b039091168152602090f35b503461010c57602036600319011261010c578054604051635c975abb60e01b81526004803592602091839182906001600160a01b03165afa908115610287578391610c26575b5061023a57610801611ce1565b81546040516369d146b560e11b8152600481018390526001600160a01b039091169190602081602481865afa90811561077c578491610bec575b506001600160a01b03163303610bd6578083526002602052604083206003810180549360ff851615610bc257908592916040516369d146b560e11b8152856004820152602081602481855afa9081156104d5578591610b88575b50604051634f66bdd760e11b81526001600160a01b039091166004820152602081602481855afa9081156104d5578591610b4e575b50604051632474521560e21b81525f5160206120a65f395f51905f5260048201526001600160a01b039091166024820152602081604481855afa9081156104d5578591610b14575b50610a5e575b5081549460ff191690555580835260036020526040832060ff19815416905580835260046020526040832060ff1981541690558260018060a01b03815416803b1561045a57818091604460405180948193631e08e2e960e01b83528860048401528160248401525af1801561022b57610a49575b5050816109d4575b6040519182527f36acb4bf304ff417070ad5c051969696ebd71da9434b1e05ba275eedba637f0f60203393a360015f5160206120c65f395f51905f525580f35b825460405163aabfa37d60e01b815290602090829060049082906001600160a01b03165afa90811561077c57610a159184918691610a1a575b50339061204d565b610994565b610a3c915060203d602011610a42575b610a348183611966565b810190611c0f565b5f610a0d565b503d610a2a565b81610a5391611966565b61027b57825f61098c565b600491929350602090604051928380926303067c6560e41b82525afa908115610b09578691610ad1575b50610a9b610aa591600285015490611c2e565b6001840154611c02565b80421115610ab65790859291610918565b630c72636360e01b8652600484905260245242604452606485fd5b90506020813d602011610b01575b81610aec60209383611966565b81010312610afd5751610a9b610a88565b5f80fd5b3d9150610adf565b6040513d88823e3d90fd5b90506020813d602011610b46575b81610b2f60209383611966565b8101031261045657610b4090611989565b5f610912565b3d9150610b22565b90506020813d602011610b80575b81610b6960209383611966565b8101031261045657610b7a90611996565b5f6108ca565b3d9150610b5c565b90506020813d602011610bba575b81610ba360209383611966565b8101031261045657610bb490611996565b5f610895565b3d9150610b96565b631f58ab4d60e11b86526004849052602486fd5b6315884f4560e11b835260045233602452604482fd5b90506020813d602011610c1e575b81610c0760209383611966565b810103126104e057610c1890611996565b5f61083b565b3d9150610bfa565b90506020813d602011610c58575b81610c4160209383611966565b8101031261027b57610c5290611989565b5f6107f4565b3d9150610c34565b503461010c578060031936011261010c5760206040516107d08152f35b503461010c57602036600319011261010c578054604051635c975abb60e01b815260048035926001600160a01b03169190602090829081855afa90811561077c578491610e18575b5061073357610cd382611d19565b818352600260205260ff6003604085200154161561071f57818352600360205260ff604084205416610e04578260249160405192838092631cab5c9d60e31b82528660048301525afa8015610287576101c0918491610de2575b50015115610dd057808252600360205260408220805460ff19166001179055815482906001600160a01b0316803b1561045a578160405180926324e540e760e21b8252818381610d81338a600484016119aa565b03925af1801561022b57610dbb575b505033907f8b95d4c1f70545e3211da8c10f5ba1da89e0235f4aeb3b3fc06affdaa74fb5648380a380f35b81610dc591611966565b61045a57815f610d90565b6392c7ff5360e01b8252600452602490fd5b610dfe91503d8086833e610df68183611966565b810190611a2a565b5f610d2d565b636db265c160e11b83526004829052602483fd5b90506020813d602011610e4a575b81610e3360209383611966565b810103126104e057610e4490611989565b5f610cc5565b3d9150610e26565b503461010c57602036600319011261010c578054604051635c975abb60e01b81526004803592602091839182906001600160a01b03165afa9081156102875783916110f5575b5061023a57610ea5611ce1565b610eae81611d19565b808252600260205260408220600381019081549160ff8316156110e157838552600360205260ff604086205416156110cd57838552600460205260ff604086205416156110b9578454604051631cab5c9d60e31b815260048101869052908690829060249082906001600160a01b03165afa908115610b0957869161109f575b5061018081015161108b5761012001516001600160a01b0316156110775790849181549360ff191690555581835260036020526040832060ff19815416905581835260046020526040832060ff1981541690558260018060a01b03815416803b1561045a57818091604460405180948193631e08e2e960e01b83528960048401528160248401525af1801561022b57611062575b5080546001600160a01b0316803b1561045a57816040518092637e41162b60e01b8252818381610ff6338b600484016119aa565b03925af1801561022b5761104d575b505061101390339083611e3d565b33907fb0362fc6491538fb6678490452845f8ad657e21a73e47a0ee8d96382b743c1648380a360015f5160206120c65f395f51905f525580f35b8161105791611966565b61027b57825f611005565b8161106c91611966565b61027b57825f610fc2565b630fd31ac160e01b85526004849052602485fd5b633a2eae1b60e21b86526004859052602486fd5b6110b391503d8088833e610df68183611966565b5f610f2e565b630d65009160e01b85526004849052602485fd5b63586bd32760e11b85526004849052602485fd5b631f58ab4d60e11b85526004849052602485fd5b90506020813d602011611127575b8161111060209383611966565b8101031261027b5761112190611989565b5f610e98565b3d9150611103565b503461010c57602036600319011261010c576040816080926060835161115481611937565b82815282602082015282858201520152600435815260026020522060405161117b81611937565b815491828252600181015460208301908152606060ff600360028501549460408701958652015416930192151583526040519384525160208401525160408301525115156060820152f35b503461010c578060031936011261010c5760206040516203f4808152f35b503461010c57602036600319011261010c5760ff60406020926004358152600484522054166040519015158152f35b905034610afd576020366003190112610afd575f54635c975abb60e01b8252600480359291602091839182906001600160a01b03165afa90811561158a575f916118fd575b506118ee57611265611ce1565b5f546040516369d146b560e11b8152600481018390526001600160a01b039091169190602081602481865afa90811561158a575f916118b4575b506001600160a01b0316913383900361189d57604051631cab5c9d60e31b8152600481018390525f81602481855afa90811561158a575f91611883575b5061018081015161187057825f52600260205260ff600360405f2001541661185d576101c08101511561184a5760405163331e889560e11b815260048101849052608081602481865afa90811561158a575f9161182b575b5051156118185761012001516001600160a01b03161561180557604051634f66bdd760e11b815260048101849052602081602481855afa90811561158a575f916117cb575b506001600160a01b03169283156117b95750604051632474521560e21b81525f5160206120a65f395f51905f52600482015260248101849052602081604481855afa90811561158a575f9161177f575b501561176c57604051926317ff5c5360e11b84526004840152602083602481845afa92831561158a575f93611738575b50604051630de3e66560e01b8152602081600481855afa90811561158a575f916116f6575b506001600160401b031680159081156116b2575b50506203f48042019081421161169e576020600491604051928380926303067c6560e41b82525afa90811561158a575f9161166c575b50600360405161147781611937565b858152602081019284845260408201908152606082019360018552865f52600260205260405f2092518355516001830155516002820155019051151560ff80198354169116179055815f52600360205260405f2060ff198154169055815f52600460205260405f2060ff19815416905582611595575b5f546001600160a01b0316803b15610afd575f8091604460405180948193631e08e2e960e01b8352886004840152600160248401525af1801561158a57611575575b5060405192835260208301527fda9f5d6e8fa562a66c218129b008f489755da11acfb9aa46c7af54e0adaacf4e60403393a360015f5160206120c65f395f51905f525580f35b6115829194505f90611966565b5f925f61152f565b6040513d5f823e3d90fd5b5f5460405163aabfa37d60e01b815290602090829060049082906001600160a01b03165afa90811561158a575f9161164d575b506040516323b872dd60e01b5f5233600452306024528460445260205f60648180865af19060015f511482161561162c575b6040525f6060521561160c57506114ed565b635274afe760e01b5f9081526001600160a01b0391909116600452602490fd5b90600181151661164457823b15153d151616906115fa565b503d5f823e3d90fd5b611666915060203d602011610a4257610a348183611966565b5f6115c8565b90506020813d602011611696575b8161168760209383611966565b81010312610afd57515f611468565b3d915061167a565b634e487b7160e01b5f52601160045260245ffd5b6107d08102918183046107d014171561169e576127106116d3920490611c02565b8084116116e05780611432565b836347d04c5960e11b5f5260045260245260445ffd5b90506020813d602011611730575b8161171160209383611966565b81010312610afd57516001600160401b0381168103610afd575f61141e565b3d9150611704565b9092506020813d602011611764575b8161175460209383611966565b81010312610afd5751915f6113f9565b3d9150611747565b8263bc0369a760e01b5f5260045260245ffd5b90506020813d6020116117b1575b8161179a60209383611966565b81010312610afd576117ab90611989565b5f6113c9565b3d915061178d565b631622280560e11b5f5260045260245ffd5b90506020813d6020116117fd575b816117e660209383611966565b81010312610afd576117f790611996565b5f611379565b3d91506117d9565b50630fd31ac160e01b5f5260045260245ffd5b826317ec538560e01b5f5260045260245ffd5b611844915060803d608011610704576106f68183611966565b5f611334565b826392c7ff5360e01b5f5260045260245ffd5b826311261a2360e11b5f5260045260245ffd5b82633a2eae1b60e21b5f5260045260245ffd5b61189791503d805f833e610df68183611966565b5f6112dc565b506315884f4560e11b5f526004523360245260445ffd5b90506020813d6020116118e6575b816118cf60209383611966565b81010312610afd576118e090611996565b5f61129f565b3d91506118c2565b6309148bcd60e21b5f5260045ffd5b90506020813d60201161192f575b8161191860209383611966565b81010312610afd5761192990611989565b5f611258565b3d915061190b565b608081019081106001600160401b0382111761195257604052565b634e487b7160e01b5f52604160045260245ffd5b601f909101601f19168101906001600160401b0382119082101761195257604052565b51908115158203610afd57565b51906001600160a01b0382168203610afd57565b9081526001600160a01b03909116602082015260400190565b81601f82011215610afd578051906001600160401b03821161195257604051926119f7601f8401601f191660200185611966565b82845260208383010111610afd57815f9260208093018386015e8301015290565b519064ffffffffff82168203610afd57565b602081830312610afd578051906001600160401b038211610afd570161022081830312610afd576040519161022083016001600160401b03811184821017611952576040528151835260208201516001600160401b038111610afd5781611a929184016119c3565b602084015260408201516001600160401b038111610afd5781611ab69184016119c3565b604084015260608201516001600160401b038111610afd5781611ada9184016119c3565b60608401526080820151608084015260a082015160a084015260c082015160c084015260e082015160e0840152610100820151610100840152611b206101208301611996565b610120840152611b336101408301611a18565b610140840152611b466101608301611a18565b610160840152611b596101808301611989565b610180840152611b6c6101a08301611989565b6101a0840152611b7f6101c08301611989565b6101c0840152611b926101e08301611989565b6101e08401526102008201516001600160401b038111610afd57611bb692016119c3565b61020082015290565b90816080910312610afd57611bfa606060405192611bdc84611937565b80518452602081015160208501526040810151604085015201611989565b606082015290565b9190820180921161169e57565b90816020910312610afd57516001600160a01b0381168103610afd5790565b9190820391821161169e57565b5f52600260205260405f2060ff60038201541615611cdc575f546040516303067c6560e41b81529190602090839060049082906001600160a01b03165afa91821561158a575f92611ca7575b506001611c9c611ca493600284015490611c2e565b910154611c02565b90565b91506020823d602011611cd4575b81611cc260209383611966565b81010312610afd579051906001611c87565b3d9150611cb5565b505f90565b60025f5160206120c65f395f51905f525414611d0a5760025f5160206120c65f395f51905f5255565b633ee5aeb560e01b5f5260045ffd5b5f546040516369d146b560e11b8152600481018390526001600160a01b039091169190602081602481865afa90811561158a575f91611dfe575b50604051634f66bdd760e11b81526001600160a01b039091166004820181905292602090829060249082905afa90811561158a575f91611dc4575b506001600160a01b03169182156117b95750338203611dab575050565b63655b1da560e01b5f526004523360245260445260645ffd5b90506020813d602011611df6575b81611ddf60209383611966565b81010312610afd57611df090611996565b5f611d8e565b3d9150611dd2565b90506020813d602011611e35575b81611e1960209383611966565b81010312610afd576020611e2e602492611996565b9150611d53565b3d9150611e0c565b90915f8315612047575f546040516306acb3f760e31b81526001600160a01b039091169190602081600481865afa801561158a575f90612008575b61ffff1686810291508682040361169e5761270f810180911161169e57612710900491858311612000575b611ead8387611c2e565b956040519163aabfa37d60e01b8352602083600481845afa801561158a57611edc935f91611fe1575b5061204d565b84611f7a575b81611f24575b507f5db4e0262221790dea24704d69aefaa16f7f7501e12a6aeb62355ad63ffc12d7916040918251958652602086015260018060a01b031693a3565b80546001600160a01b0316803b1561045a5781809160246040518094819363459d3d8f60e01b83528860048401525af1801561022b57611f65575b50611ee8565b611f70828092611966565b61010c5780611f5f565b5f546001600160a01b0316803b15610afd576040516304f1dfbd60e21b81526001600160a01b038516600482015260248101879052905f908290604490829084905af1801561158a57611fce575b50611ee2565b611fda91505f90611966565b5f5f611fc8565b611ffa915060203d602011610a4257610a348183611966565b5f611ed6565b859250611ea3565b506020813d60201161203f575b8161202260209383611966565b81010312610afd575161ffff81168103610afd5761ffff90611e78565b3d9150612015565b50505050565b916040519163a9059cbb60e01b5f5260018060a01b031660045260245260205f60448180865af19060015f511482161561208d575b6040521561160c5750565b90600181151661164457823b15153d1516169061208256feedcc084d3dcd65a1f7f23c65c46722faca6953d28e43150a467cf43e5c3092389b779b17422d0df92223018b32b4d1fa46e071723d6817e2486d003becc55f00a264697066735822122041dfe2362ce014beaa7e500001820a1ddec5315d4427b805f2c42e415ed3038464736f6c634300081c0033",
  "linkReferences": {},
  "deployedLinkReferences": {},
  "immutableReferences": {},
  "inputSourceName": "project/contracts/core/VerificationManager.sol",
  "buildInfoId": "solc-0_8_28-a2161904c655adbe3da4b278a6e48e5154ece2fa"
}