{
  "_format": "hh3-artifact-1",
  "contractName": "VerificationManager",
  "sourceName": "contracts/core/VerificationManager.sol",
  "abi": [
    {
      "inputs": [
        {
          "internalType": "address",
          "name": "registry_",
          "type": "address"
        },
        {
          "internalType": "address",
          "name": "admin_",
          "type": "address"
        }
      ],
      "stateMutability": "nonpayable",
      "type": "constructor"
    },
    {
      "inputs": [
        {
          "internalType": "uint256",
          "name": "playerId",
          "type": "uint256"
        },
        {
          "internalType": "address",
          "name": "caller",
          "type": "address"
        },
        {
          "internalType": "address",
          "name": "expected",
          "type": "address"
        }
      ],
      "name": "CallerIsNotAssignedRegistrar",
      "type": "error"
    },
    {
      "inputs": [
        {
          "internalType": "uint256",
          "name": "playerId",
          "type": "uint256"
        },
        {
          "internalType": "address",
          "name": "caller",
          "type": "address"
        }
      ],
      "name": "CallerIsNotPlayerClub",
      "type": "error"
    },
    {
      "inputs": [
        {
          "internalType": "uint256",
          "name": "provided",
          "type": "uint256"
        },
        {
          "internalType": "uint256",
          "name": "max",
          "type": "uint256"
        }
      ],
      "name": "FeeTooHigh",
      "type": "error"
    },
    {
      "inputs": [
        {
          "internalType": "uint256",
          "name": "playerId",
          "type": "uint256"
        }
      ],
      "name": "LegalAlreadyVerifiedInRequest",
      "type": "error"
    },
    {
      "inputs": [
        {
          "internalType": "uint256",
          "name": "playerId",
          "type": "uint256"
        }
      ],
      "name": "LegalDocsNotSubmitted",
      "type": "error"
    },
    {
      "inputs": [
        {
          "internalType": "uint256",
          "name": "playerId",
          "type": "uint256"
        }
      ],
      "name": "LegalDocsNotVerifiedInRequest",
      "type": "error"
    },
    {
      "inputs": [
        {
          "internalType": "uint256",
          "name": "playerId",
          "type": "uint256"
        }
      ],
      "name": "MedicalAlreadyVerifiedInRequest",
      "type": "error"
    },
    {
      "inputs": [
        {
          "internalType": "uint256",
          "name": "playerId",
          "type": "uint256"
        }
      ],
      "name": "MedicalNotSubmitted",
      "type": "error"
    },
    {
      "inputs": [
        {
          "internalType": "uint256",
          "name": "playerId",
          "type": "uint256"
        }
      ],
      "name": "MedicalNotVerifiedInRequest",
      "type": "error"
    },
    {
      "inputs": [
        {
          "internalType": "uint256",
          "name": "playerId",
          "type": "uint256"
        }
      ],
      "name": "NoActiveVerificationRequest",
      "type": "error"
    },
    {
      "inputs": [],
      "name": "NotAdmin",
      "type": "error"
    },
    {
      "inputs": [
        {
          "internalType": "uint256",
          "name": "playerId",
          "type": "uint256"
        }
      ],
      "name": "PlayerAlreadyVerified",
      "type": "error"
    },
    {
      "inputs": [
        {
          "internalType": "uint256",
          "name": "playerId",
          "type": "uint256"
        }
      ],
      "name": "PlayerWalletNotSet",
      "type": "error"
    },
    {
      "inputs": [],
      "name": "ReentrancyGuardReentrantCall",
      "type": "error"
    },
    {
      "inputs": [
        {
          "internalType": "uint256",
          "name": "provided",
          "type": "uint256"
        },
        {
          "internalType": "uint256",
          "name": "maxAllowed",
          "type": "uint256"
        }
      ],
      "name": "RegistrarFeeTooHigh",
      "type": "error"
    },
    {
      "inputs": [
        {
          "internalType": "address",
          "name": "club",
          "type": "address"
        }
      ],
      "name": "RegistrarNotAssignedToClub",
      "type": "error"
    },
    {
      "inputs": [
        {
          "internalType": "address",
          "name": "registrar",
          "type": "address"
        }
      ],
      "name": "RegistrarNotRegistered",
      "type": "error"
    },
    {
      "inputs": [],
      "name": "RegistryPaused",
      "type": "error"
    },
    {
      "inputs": [
        {
          "internalType": "address",
          "name": "token",
          "type": "address"
        }
      ],
      "name": "SafeERC20FailedOperation",
      "type": "error"
    },
    {
      "inputs": [
        {
          "internalType": "uint256",
          "name": "playerId",
          "type": "uint256"
        }
      ],
      "name": "VerificationAlreadyActive",
      "type": "error"
    },
    {
      "inputs": [
        {
          "internalType": "uint256",
          "name": "playerId",
          "type": "uint256"
        },
        {
          "internalType": "uint256",
          "name": "adjustedDeadline",
          "type": "uint256"
        },
        {
          "internalType": "uint256",
          "name": "now_",
          "type": "uint256"
        }
      ],
      "name": "VerificationDeadlineNotPassed",
      "type": "error"
    },
    {
      "inputs": [],
      "name": "ZeroAddress",
      "type": "error"
    },
    {
      "anonymous": false,
      "inputs": [
        {
          "indexed": true,
          "internalType": "uint256",
          "name": "playerId",
          "type": "uint256"
        },
        {
          "indexed": true,
          "internalType": "address",
          "name": "registrar",
          "type": "address"
        },
        {
          "indexed": false,
          "internalType": "uint256",
          "name": "registrarAmount",
          "type": "uint256"
        },
        {
          "indexed": false,
          "internalType": "uint256",
          "name": "protocolAmount",
          "type": "uint256"
        }
      ],
      "name": "FeesDistributed",
      "type": "event"
    },
    {
      "anonymous": false,
      "inputs": [
        {
          "indexed": true,
          "internalType": "uint256",
          "name": "playerId",
          "type": "uint256"
        },
        {
          "indexed": true,
          "internalType": "address",
          "name": "registrar",
          "type": "address"
        }
      ],
      "name": "LegalDocumentsVerified",
      "type": "event"
    },
    {
      "anonymous": false,
      "inputs": [
        {
          "indexed": true,
          "internalType": "uint256",
          "name": "playerId",
          "type": "uint256"
        },
        {
          "indexed": true,
          "internalType": "address",
          "name": "registrar",
          "type": "address"
        }
      ],
      "name": "MedicalClearanceVerified",
      "type": "event"
    },
    {
      "anonymous": false,
      "inputs": [
        {
          "indexed": true,
          "internalType": "uint256",
          "name": "playerId",
          "type": "uint256"
        },
        {
          "indexed": true,
          "internalType": "address",
          "name": "registrar",
          "type": "address"
        }
      ],
      "name": "VerificationApproved",
      "type": "event"
    },
    {
      "anonymous": false,
      "inputs": [
        {
          "indexed": true,
          "internalType": "uint256",
          "name": "playerId",
          "type": "uint256"
        },
        {
          "indexed": true,
          "internalType": "address",
          "name": "club",
          "type": "address"
        },
        {
          "indexed": false,
          "internalType": "uint256",
          "name": "amount",
          "type": "uint256"
        }
      ],
      "name": "VerificationRefundClaimed",
      "type": "event"
    },
    {
      "anonymous": false,
      "inputs": [
        {
          "indexed": true,
          "internalType": "uint256",
          "name": "playerId",
          "type": "uint256"
        },
        {
          "indexed": true,
          "internalType": "address",
          "name": "registrar",
          "type": "address"
        }
      ],
      "name": "VerificationRejected",
      "type": "event"
    },
    {
      "anonymous": false,
      "inputs": [
        {
          "indexed": true,
          "internalType": "uint256",
          "name": "playerId",
          "type": "uint256"
        },
        {
          "indexed": true,
          "internalType": "address",
          "name": "club",
          "type": "address"
        },
        {
          "indexed": false,
          "internalType": "uint256",
          "name": "fee",
          "type": "uint256"
        },
        {
          "indexed": false,
          "internalType": "uint256",
          "name": "deadline",
          "type": "uint256"
        }
      ],
      "name": "VerificationRequested",
      "type": "event"
    },
    {
      "inputs": [],
      "name": "MAX_FEE",
      "outputs": [
        {
          "internalType": "uint256",
          "name": "",
          "type": "uint256"
        }
      ],
      "stateMutability": "view",
      "type": "function"
    },
    {
      "inputs": [],
      "name": "MAX_REGISTRAR_FEE_EXCESS",
      "outputs": [
        {
          "internalType": "uint256",
          "name": "",
          "type": "uint256"
        }
      ],
      "stateMutability": "view",
      "type": "function"
    },
    {
      "inputs": [],
      "name": "REGISTRAR_ROLE",
      "outputs": [
        {
          "internalType": "bytes32",
          "name": "",
          "type": "bytes32"
        }
      ],
      "stateMutability": "view",
      "type": "function"
    },
    {
      "inputs": [],
      "name": "VERIFICATION_TIMEOUT",
      "outputs": [
        {
          "internalType": "uint256",
          "name": "",
          "type": "uint256"
        }
      ],
      "stateMutability": "view",
      "type": "function"
    },
    {
      "inputs": [
        {
          "internalType": "uint256",
          "name": "playerId",
          "type": "uint256"
        }
      ],
      "name": "adjustedDeadline",
      "outputs": [
        {
          "internalType": "uint256",
          "name": "",
          "type": "uint256"
        }
      ],
      "stateMutability": "view",
      "type": "function"
    },
    {
      "inputs": [],
      "name": "admin",
      "outputs": [
        {
          "internalType": "address",
          "name": "",
          "type": "address"
        }
      ],
      "stateMutability": "view",
      "type": "function"
    },
    {
      "inputs": [
        {
          "internalType": "uint256",
          "name": "playerId",
          "type": "uint256"
        }
      ],
      "name": "claimVerificationRefund",
      "outputs": [],
      "stateMutability": "nonpayable",
      "type": "function"
    },
    {
      "inputs": [
        {
          "internalType": "uint256",
          "name": "playerId",
          "type": "uint256"
        }
      ],
      "name": "getVerificationRequest",
      "outputs": [
        {
          "components": [
            {
              "internalType": "uint256",
              "name": "feePaid",
              "type": "uint256"
            },
            {
              "internalType": "uint256",
              "name": "deadline",
              "type": "uint256"
            },
            {
              "internalType": "uint256",
              "name": "pauseSnapshot",
              "type": "uint256"
            },
            {
              "internalType": "bool",
              "name": "active",
              "type": "bool"
            }
          ],
          "internalType": "struct IPlayerRegistry.VerificationRequest",
          "name": "",
          "type": "tuple"
        }
      ],
      "stateMutability": "view",
      "type": "function"
    },
    {
      "inputs": [
        {
          "internalType": "uint256",
          "name": "playerId",
          "type": "uint256"
        }
      ],
      "name": "isLegalVerifiedInRequest",
      "outputs": [
        {
          "internalType": "bool",
          "name": "",
          "type": "bool"
        }
      ],
      "stateMutability": "view",
      "type": "function"
    },
    {
      "inputs": [
        {
          "internalType": "uint256",
          "name": "playerId",
          "type": "uint256"
        }
      ],
      "name": "isMedicalVerifiedInRequest",
      "outputs": [
        {
          "internalType": "bool",
          "name": "",
          "type": "bool"
        }
      ],
      "stateMutability": "view",
      "type": "function"
    },
    {
      "inputs": [],
      "name": "playerRegistry",
      "outputs": [
        {
          "internalType": "contract IPlayerRegistryForVerification",
          "name": "",
          "type": "address"
        }
      ],
      "stateMutability": "view",
      "type": "function"
    },
    {
      "inputs": [
        {
          "internalType": "uint256",
          "name": "playerId",
          "type": "uint256"
        }
      ],
      "name": "rejectVerification",
      "outputs": [],
      "stateMutability": "nonpayable",
      "type": "function"
    },
    {
      "inputs": [
        {
          "internalType": "uint256",
          "name": "playerId",
          "type": "uint256"
        }
      ],
      "name": "requestVerification",
      "outputs": [],
      "stateMutability": "nonpayable",
      "type": "function"
    },
    {
      "inputs": [
        {
          "internalType": "uint256",
          "name": "playerId",
          "type": "uint256"
        }
      ],
      "name": "resetPlayerWallet",
      "outputs": [],
      "stateMutability": "nonpayable",
      "type": "function"
    },
    {
      "inputs": [
        {
          "internalType": "address",
          "name": "newAdmin",
          "type": "address"
        }
      ],
      "name": "setAdmin",
      "outputs": [],
      "stateMutability": "nonpayable",
      "type": "function"
    },
    {
      "inputs": [
        {
          "internalType": "uint256",
          "name": "playerId",
          "type": "uint256"
        }
      ],
      "name": "verifyLegalDocuments",
      "outputs": [],
      "stateMutability": "nonpayable",
      "type": "function"
    },
    {
      "inputs": [
        {
          "internalType": "uint256",
          "name": "playerId",
          "type": "uint256"
        }
      ],
      "name": "verifyMedicalClearance",
      "outputs": [],
      "stateMutability": "nonpayable",
      "type": "function"
    },
    {
      "inputs": [
        {
          "internalType": "uint256",
          "name": "playerId",
          "type": "uint256"
        }
      ],
      "name": "verifyPlayer",
      "outputs": [],
      "stateMutability": "nonpayable",
      "type": "function"
    }
  ],
  "bytecode": "0x6080346100d457601f61216738819003918201601f19168301916001600160401b038311848410176100d85780849260409485528339810103126100d457610052602061004b836100ec565b92016100ec565b60017f9b779b17422d0df92223018b32b4d1fa46e071723d6817e2486d003becc55f00556001600160a01b039091169081156100c5576001600160a01b03169081156100c55760018060a01b03195f5416175f5560018060a01b0319600154161760015560405161206690816101018239f35b63d92e233d60e01b5f5260045ffd5b5f80fd5b634e487b7160e01b5f52604160045260245ffd5b51906001600160a01b03821682036100d45756fe6080806040526004361015610012575f80fd5b5f905f3560e01c9081630c020f081461115e575080630f368ac81461112f5780631e1d6e1d1461111157806322ccb4741461107a5780632c1b945e14610db15780632ed7545e14610bdc5780633354562214610bbf57806349ef089b146106fe5780634c74ef9c146106d75780635298d505146104c6578063570e783a1461049f578063704b6c021461043057806380b6a0b8146102925780639f75c81c14610186578063bc063e1a14610166578063e94b340714610137578063f68e95531461010f5763f851a440146100e4575f80fd5b3461010c578060031936011261010c576001546040516001600160a01b039091168152602090f35b80fd5b503461010c578060031936011261010c5760206040515f516020611ff15f395f51905f528152f35b503461010c57602036600319011261010c5760ff60406020926004358152600384522054166040519015158152f35b503461010c578060031936011261010c5760206040516402540be4008152f35b503461010c57602036600319011261010c576004359060018060a01b0381541691604051635c975abb60e01b8152602081600481875afa908115610287578391610249575b5061023a5781926101db82611c64565b803b15610236576040516306b9637960e51b81529183918391829084908290610209903390600484016118f5565b03925af1801561022b5761021a5750f35b81610224916118b1565b61010c5780f35b6040513d84823e3d90fd5b5050fd5b6309148bcd60e21b8252600482fd5b90506020813d60201161027f575b81610264602093836118b1565b8101031261027b57610275906118d4565b5f6101cb565b8280fd5b3d9150610257565b6040513d85823e3d90fd5b503461010c57602036600319011261010c578054604051635c975abb60e01b81526004803592602091839182906001600160a01b03165afa9081156102875783916103f6575b5061023a576102e5611c2c565b6102ee81611c64565b808252600260205260408220600381019081549160ff8316156103e25790849181549360ff191690555581835260036020526040832060ff19815416905581835260046020526040832060ff1981541690558260018060a01b03815416803b156103de57818091604460405180948193631e08e2e960e01b83528960048401528160248401525af1801561022b576103c9575b505061038f90339083611d88565b33907f5cd0f1ee153a7d1cd884bdfeb3b88fc0dc99015b5c7d9bbe17136c980e5e8bef8380a360015f5160206120115f395f51905f525580f35b816103d3916118b1565b61027b57825f610381565b5080fd5b631f58ab4d60e11b85526004849052602485fd5b90506020813d602011610428575b81610411602093836118b1565b8101031261027b57610422906118d4565b5f6102d8565b3d9150610404565b503461010c57602036600319011261010c576004356001600160a01b038116908190036103de576001546001600160a01b0381163303610490578115610481576001600160a01b0319161760015580f35b63d92e233d60e01b8352600483fd5b637bfa4b9f60e01b8352600483fd5b503461010c57602036600319011261010c5760206104be600435611b86565b604051908152f35b503461010c57602036600319011261010c578054604051635c975abb60e01b815260048035926001600160a01b03169190602090829081855afa9081156106cc57849161068e575b5061067f5761051c82611c64565b818352600260205260ff6003604085200154161561066b57818352600460205260ff6040842054166106575760806024916040519283809263331e889560e11b82528660048301525afa908115610287578391610628575b50511561061657808252600460205260408220805460ff19166001179055815482906001600160a01b0316803b156103de578160405180926354cf47dd60e11b82528183816105c7338a600484016118f5565b03925af1801561022b57610601575b505033907fed2c2ce3d8062cf2c584e4704b6b6c06054e976cdc006ae754859d9de41eb0a08380a380f35b8161060b916118b1565b6103de57815f6105d6565b6317ec538560e01b8252600452602490fd5b61064a915060803d608011610650575b61064281836118b1565b810190611b0a565b5f610574565b503d610638565b6331f7de0560e01b83526004829052602483fd5b631f58ab4d60e11b83526004829052602483fd5b6309148bcd60e21b8352600483fd5b90506020813d6020116106c4575b816106a9602093836118b1565b810103126106c0576106ba906118d4565b5f61050e565b8380fd5b3d915061069c565b6040513d86823e3d90fd5b503461010c578060031936011261010c57546040516001600160a01b039091168152602090f35b503461010c57602036600319011261010c578054604051635c975abb60e01b81526004803592602091839182906001600160a01b03165afa908115610287578391610b85575b5061023a57610751611c2c565b81546040516369d146b560e11b8152600481018390526001600160a01b039091169190602081602481865afa9081156106cc578491610b4b575b506001600160a01b03163303610b35578083526002602052604083206003810180549360ff851615610b2157908592916040516369d146b560e11b8152856004820152602081602481855afa908115610aa2578591610ae7575b50604051634f66bdd760e11b81526001600160a01b039091166004820152602081602481855afa908115610aa2578591610aad575b50604051632474521560e21b81525f516020611ff15f395f51905f5260048201526001600160a01b039091166024820152602081604481855afa908115610aa2578591610a64575b506109ae575b5081549460ff191690555580835260036020526040832060ff19815416905580835260046020526040832060ff1981541690558260018060a01b03815416803b156103de57818091604460405180948193631e08e2e960e01b83528860048401528160248401525af1801561022b57610999575b505081610924575b6040519182527f36acb4bf304ff417070ad5c051969696ebd71da9434b1e05ba275eedba637f0f60203393a360015f5160206120115f395f51905f525580f35b825460405163aabfa37d60e01b815290602090829060049082906001600160a01b03165afa9081156106cc57610965918491869161096a575b503390611f98565b6108e4565b61098c915060203d602011610992575b61098481836118b1565b810190611b5a565b5f61095d565b503d61097a565b816109a3916118b1565b61027b57825f6108dc565b600491929350602090604051928380926303067c6560e41b82525afa908115610a59578691610a21575b506109eb6109f591600285015490611b79565b6001840154611b4d565b80421115610a065790859291610868565b630c72636360e01b8652600484905260245242604452606485fd5b90506020813d602011610a51575b81610a3c602093836118b1565b81010312610a4d57516109eb6109d8565b5f80fd5b3d9150610a2f565b6040513d88823e3d90fd5b90506020813d602011610a9a575b81610a7f602093836118b1565b81010312610a9657610a90906118d4565b5f610862565b8480fd5b3d9150610a72565b6040513d87823e3d90fd5b90506020813d602011610adf575b81610ac8602093836118b1565b81010312610a9657610ad9906118e1565b5f61081a565b3d9150610abb565b90506020813d602011610b19575b81610b02602093836118b1565b81010312610a9657610b13906118e1565b5f6107e5565b3d9150610af5565b631f58ab4d60e11b86526004849052602486fd5b6315884f4560e11b835260045233602452604482fd5b90506020813d602011610b7d575b81610b66602093836118b1565b810103126106c057610b77906118e1565b5f61078b565b3d9150610b59565b90506020813d602011610bb7575b81610ba0602093836118b1565b8101031261027b57610bb1906118d4565b5f610744565b3d9150610b93565b503461010c578060031936011261010c5760206040516107d08152f35b503461010c57602036600319011261010c578054604051635c975abb60e01b815260048035926001600160a01b03169190602090829081855afa9081156106cc578491610d77575b5061067f57610c3282611c64565b818352600260205260ff6003604085200154161561066b57818352600360205260ff604084205416610d63578260249160405192838092631cab5c9d60e31b82528660048301525afa8015610287576101c0918491610d41575b50015115610d2f57808252600360205260408220805460ff19166001179055815482906001600160a01b0316803b156103de578160405180926324e540e760e21b8252818381610ce0338a600484016118f5565b03925af1801561022b57610d1a575b505033907f8b95d4c1f70545e3211da8c10f5ba1da89e0235f4aeb3b3fc06affdaa74fb5648380a380f35b81610d24916118b1565b6103de57815f610cef565b6392c7ff5360e01b8252600452602490fd5b610d5d91503d8086833e610d5581836118b1565b810190611975565b5f610c8c565b636db265c160e11b83526004829052602483fd5b90506020813d602011610da9575b81610d92602093836118b1565b810103126106c057610da3906118d4565b5f610c24565b3d9150610d85565b503461010c57602036600319011261010c578054604051635c975abb60e01b81526004803592602091839182906001600160a01b03165afa908115610287578391611040575b5061023a57610e04611c2c565b610e0d81611c64565b808252600260205260408220600381019081549160ff8316156103e257838552600360205260ff6040862054161561102c57838552600460205260ff60408620541615611018578454604051631cab5c9d60e31b815260048101869052908690829060249082906001600160a01b03165afa908115610a59578691610ffe575b50610180810151610fea5761012001516001600160a01b031615610fd65790849181549360ff191690555581835260036020526040832060ff19815416905581835260046020526040832060ff1981541690558260018060a01b03815416803b156103de57818091604460405180948193631e08e2e960e01b83528960048401528160248401525af1801561022b57610fc1575b5080546001600160a01b0316803b156103de57816040518092637e41162b60e01b8252818381610f55338b600484016118f5565b03925af1801561022b57610fac575b5050610f7290339083611d88565b33907fb0362fc6491538fb6678490452845f8ad657e21a73e47a0ee8d96382b743c1648380a360015f5160206120115f395f51905f525580f35b81610fb6916118b1565b61027b57825f610f64565b81610fcb916118b1565b61027b57825f610f21565b630fd31ac160e01b85526004849052602485fd5b633a2eae1b60e21b86526004859052602486fd5b61101291503d8088833e610d5581836118b1565b5f610e8d565b630d65009160e01b85526004849052602485fd5b63586bd32760e11b85526004849052602485fd5b90506020813d602011611072575b8161105b602093836118b1565b8101031261027b5761106c906118d4565b5f610df7565b3d915061104e565b503461010c57602036600319011261010c576040816080926060835161109f81611882565b8281528260208201528285820152015260043581526002602052206040516110c681611882565b815491828252600181015460208301908152606060ff600360028501549460408701958652015416930192151583526040519384525160208401525160408301525115156060820152f35b503461010c578060031936011261010c5760206040516203f4808152f35b503461010c57602036600319011261010c5760ff60406020926004358152600484522054166040519015158152f35b905034610a4d576020366003190112610a4d575f54635c975abb60e01b8252600480359291602091839182906001600160a01b03165afa9081156114d5575f91611848575b50611839576111b0611c2c565b5f546040516369d146b560e11b8152600481018390526001600160a01b039091169190602081602481865afa9081156114d5575f916117ff575b506001600160a01b031691338390036117e857604051631cab5c9d60e31b8152600481018390525f81602481855afa9081156114d5575f916117ce575b506101808101516117bb57825f52600260205260ff600360405f200154166117a8576101c0810151156117955760405163331e889560e11b815260048101849052608081602481865afa9081156114d5575f91611776575b5051156117635761012001516001600160a01b03161561175057604051634f66bdd760e11b815260048101849052602081602481855afa9081156114d5575f91611716575b506001600160a01b03169283156117045750604051632474521560e21b81525f516020611ff15f395f51905f52600482015260248101849052602081604481855afa9081156114d5575f916116ca575b50156116b757604051926317ff5c5360e11b84526004840152602083602481845afa9283156114d5575f93611683575b50604051630de3e66560e01b8152602081600481855afa9081156114d5575f91611641575b506001600160401b031680159081156115fd575b50506203f4804201908142116115e9576020600491604051928380926303067c6560e41b82525afa9081156114d5575f916115b7575b5060036040516113c281611882565b858152602081019284845260408201908152606082019360018552865f52600260205260405f2092518355516001830155516002820155019051151560ff80198354169116179055815f52600360205260405f2060ff198154169055815f52600460205260405f2060ff198154169055826114e0575b5f546001600160a01b0316803b15610a4d575f8091604460405180948193631e08e2e960e01b8352886004840152600160248401525af180156114d5576114c0575b5060405192835260208301527fda9f5d6e8fa562a66c218129b008f489755da11acfb9aa46c7af54e0adaacf4e60403393a360015f5160206120115f395f51905f525580f35b6114cd9194505f906118b1565b5f925f61147a565b6040513d5f823e3d90fd5b5f5460405163aabfa37d60e01b815290602090829060049082906001600160a01b03165afa9081156114d5575f91611598575b506040516323b872dd60e01b5f5233600452306024528460445260205f60648180865af19060015f5114821615611577575b6040525f606052156115575750611438565b635274afe760e01b5f9081526001600160a01b0391909116600452602490fd5b90600181151661158f57823b15153d15161690611545565b503d5f823e3d90fd5b6115b1915060203d6020116109925761098481836118b1565b5f611513565b90506020813d6020116115e1575b816115d2602093836118b1565b81010312610a4d57515f6113b3565b3d91506115c5565b634e487b7160e01b5f52601160045260245ffd5b6107d08102918183046107d01417156115e95761271061161e920490611b4d565b80841161162b578061137d565b836347d04c5960e11b5f5260045260245260445ffd5b90506020813d60201161167b575b8161165c602093836118b1565b81010312610a4d57516001600160401b0381168103610a4d575f611369565b3d915061164f565b9092506020813d6020116116af575b8161169f602093836118b1565b81010312610a4d5751915f611344565b3d9150611692565b8263bc0369a760e01b5f5260045260245ffd5b90506020813d6020116116fc575b816116e5602093836118b1565b81010312610a4d576116f6906118d4565b5f611314565b3d91506116d8565b631622280560e11b5f5260045260245ffd5b90506020813d602011611748575b81611731602093836118b1565b81010312610a4d57611742906118e1565b5f6112c4565b3d9150611724565b50630fd31ac160e01b5f5260045260245ffd5b826317ec538560e01b5f5260045260245ffd5b61178f915060803d6080116106505761064281836118b1565b5f61127f565b826392c7ff5360e01b5f5260045260245ffd5b826311261a2360e11b5f5260045260245ffd5b82633a2eae1b60e21b5f5260045260245ffd5b6117e291503d805f833e610d5581836118b1565b5f611227565b506315884f4560e11b5f526004523360245260445ffd5b90506020813d602011611831575b8161181a602093836118b1565b81010312610a4d5761182b906118e1565b5f6111ea565b3d915061180d565b6309148bcd60e21b5f5260045ffd5b90506020813d60201161187a575b81611863602093836118b1565b81010312610a4d57611874906118d4565b5f6111a3565b3d9150611856565b608081019081106001600160401b0382111761189d57604052565b634e487b7160e01b5f52604160045260245ffd5b601f909101601f19168101906001600160401b0382119082101761189d57604052565b51908115158203610a4d57565b51906001600160a01b0382168203610a4d57565b9081526001600160a01b03909116602082015260400190565b81601f82011215610a4d578051906001600160401b03821161189d5760405192611942601f8401601f1916602001856118b1565b82845260208383010111610a4d57815f9260208093018386015e8301015290565b519064ffffffffff82168203610a4d57565b602081830312610a4d578051906001600160401b038211610a4d570161022081830312610a4d576040519161022083016001600160401b0381118482101761189d576040528151835260208201516001600160401b038111610a4d57816119dd91840161190e565b602084015260408201516001600160401b038111610a4d5781611a0191840161190e565b604084015260608201516001600160401b038111610a4d5781611a2591840161190e565b60608401526080820151608084015260a082015160a084015260c082015160c084015260e082015160e0840152610100820151610100840152611a6b61012083016118e1565b610120840152611a7e6101408301611963565b610140840152611a916101608301611963565b610160840152611aa461018083016118d4565b610180840152611ab76101a083016118d4565b6101a0840152611aca6101c083016118d4565b6101c0840152611add6101e083016118d4565b6101e08401526102008201516001600160401b038111610a4d57611b01920161190e565b61020082015290565b90816080910312610a4d57611b45606060405192611b2784611882565b805184526020810151602085015260408101516040850152016118d4565b606082015290565b919082018092116115e957565b90816020910312610a4d57516001600160a01b0381168103610a4d5790565b919082039182116115e957565b5f52600260205260405f2060ff60038201541615611c27575f546040516303067c6560e41b81529190602090839060049082906001600160a01b03165afa9182156114d5575f92611bf2575b506001611be7611bef93600284015490611b79565b910154611b4d565b90565b91506020823d602011611c1f575b81611c0d602093836118b1565b81010312610a4d579051906001611bd2565b3d9150611c00565b505f90565b60025f5160206120115f395f51905f525414611c555760025f5160206120115f395f51905f5255565b633ee5aeb560e01b5f5260045ffd5b5f546040516369d146b560e11b8152600481018390526001600160a01b039091169190602081602481865afa9081156114d5575f91611d49575b50604051634f66bdd760e11b81526001600160a01b039091166004820181905292602090829060249082905afa9081156114d5575f91611d0f575b506001600160a01b03169182156117045750338203611cf6575050565b63655b1da560e01b5f526004523360245260445260645ffd5b90506020813d602011611d41575b81611d2a602093836118b1565b81010312610a4d57611d3b906118e1565b5f611cd9565b3d9150611d1d565b90506020813d602011611d80575b81611d64602093836118b1565b81010312610a4d576020611d796024926118e1565b9150611c9e565b3d9150611d57565b90915f8315611f92575f546040516306acb3f760e31b81526001600160a01b039091169190602081600481865afa80156114d5575f90611f53575b61ffff168681029150868204036115e95761270f81018091116115e957612710900491858311611f4b575b611df88387611b79565b956040519163aabfa37d60e01b8352602083600481845afa80156114d557611e27935f91611f2c575b50611f98565b84611ec5575b81611e6f575b507f5db4e0262221790dea24704d69aefaa16f7f7501e12a6aeb62355ad63ffc12d7916040918251958652602086015260018060a01b031693a3565b80546001600160a01b0316803b156103de5781809160246040518094819363459d3d8f60e01b83528860048401525af1801561022b57611eb0575b50611e33565b611ebb8280926118b1565b61010c5780611eaa565b5f546001600160a01b0316803b15610a4d576040516304f1dfbd60e21b81526001600160a01b038516600482015260248101879052905f908290604490829084905af180156114d557611f19575b50611e2d565b611f2591505f906118b1565b5f5f611f13565b611f45915060203d6020116109925761098481836118b1565b5f611e21565b859250611dee565b506020813d602011611f8a575b81611f6d602093836118b1565b81010312610a4d575161ffff81168103610a4d5761ffff90611dc3565b3d9150611f60565b50505050565b916040519163a9059cbb60e01b5f5260018060a01b031660045260245260205f60448180865af19060015f5114821615611fd8575b604052156115575750565b90600181151661158f57823b15153d15161690611fcd56feedcc084d3dcd65a1f7f23c65c46722faca6953d28e43150a467cf43e5c3092389b779b17422d0df92223018b32b4d1fa46e071723d6817e2486d003becc55f00a2646970667358221220bb93f36f39c8e3025248525f892d0fa7149468106a74e104bc175d132d381e2864736f6c634300081c0033",
  "linkReferences": {},
  "deployedLinkReferences": {},
  "immutableReferences": {},
  "inputSourceName": "project/contracts/core/VerificationManager.sol",
  "buildInfoId": "solc-0_8_28-4ca3c158b0916a8466f3dae14cb8789c5f914c3c"
}